{
	"for_checkingfiles.sol": {
		"quiz": {
			"abi": [
				{
					"inputs": [],
					"name": "get",
					"outputs": [],
					"stateMutability": "nonpayable",
					"type": "function"
				},
				{
					"inputs": [],
					"name": "w1",
					"outputs": [
						{
							"internalType": "enum quiz.weekend",
							"name": "",
							"type": "uint8"
						}
					],
					"stateMutability": "view",
					"type": "function"
				}
			],
			"devdoc": {
				"kind": "dev",
				"methods": {},
				"version": 1
			},
			"evm": {
				"assembly": "    /* \"for_checkingfiles.sol\":65:361  contract quiz{... */\n  mstore(0x40, 0x80)\n    /* \"for_checkingfiles.sol\":162:163  0 */\n  0x00\n    /* \"for_checkingfiles.sol\":154:164  weekend(0) */\n  0x01\n  dup2\n  gt\n  iszero\n  tag_1\n  jumpi\n  tag_2\n  tag_3\n  jump\t// in\ntag_2:\ntag_1:\n    /* \"for_checkingfiles.sol\":134:164  weekend public w1 = weekend(0) */\n  0x00\n  dup1\n  0x0100\n  exp\n  dup2\n  sload\n  dup2\n  0xff\n  mul\n  not\n  and\n  swap1\n  dup4\n  0x01\n  dup2\n  gt\n  iszero\n  tag_4\n  jumpi\n  tag_5\n  tag_3\n  jump\t// in\ntag_5:\ntag_4:\n  mul\n  or\n  swap1\n  sstore\n  pop\n    /* \"for_checkingfiles.sol\":65:361  contract quiz{... */\n  callvalue\n  dup1\n  iszero\n  tag_6\n  jumpi\n  0x00\n  dup1\n  revert\ntag_6:\n  pop\n  jump(tag_7)\n    /* \"#utility.yul\":7:187   */\ntag_3:\n    /* \"#utility.yul\":55:132   */\n  0x4e487b7100000000000000000000000000000000000000000000000000000000\n    /* \"#utility.yul\":52:53   */\n  0x00\n    /* \"#utility.yul\":45:133   */\n  mstore\n    /* \"#utility.yul\":152:156   */\n  0x21\n    /* \"#utility.yul\":149:150   */\n  0x04\n    /* \"#utility.yul\":142:157   */\n  mstore\n    /* \"#utility.yul\":176:180   */\n  0x24\n    /* \"#utility.yul\":173:174   */\n  0x00\n    /* \"#utility.yul\":166:181   */\n  revert\n    /* \"for_checkingfiles.sol\":65:361  contract quiz{... */\ntag_7:\n  dataSize(sub_0)\n  dup1\n  dataOffset(sub_0)\n  0x00\n  codecopy\n  0x00\n  return\nstop\n\nsub_0: assembly {\n        /* \"for_checkingfiles.sol\":65:361  contract quiz{... */\n      mstore(0x40, 0x80)\n      callvalue\n      dup1\n      iszero\n      tag_1\n      jumpi\n      0x00\n      dup1\n      revert\n    tag_1:\n      pop\n      jumpi(tag_2, lt(calldatasize, 0x04))\n      shr(0xe0, calldataload(0x00))\n      dup1\n      0x6d4ce63c\n      eq\n      tag_3\n      jumpi\n      dup1\n      0x7e44755b\n      eq\n      tag_4\n      jumpi\n    tag_2:\n      0x00\n      dup1\n      revert\n        /* \"for_checkingfiles.sol\":250:358  function get() public{... */\n    tag_3:\n      tag_5\n      tag_6\n      jump\t// in\n    tag_5:\n      stop\n        /* \"for_checkingfiles.sol\":134:164  weekend public w1 = weekend(0) */\n    tag_4:\n      tag_7\n      tag_8\n      jump\t// in\n    tag_7:\n      mload(0x40)\n      tag_9\n      swap2\n      swap1\n      tag_10\n      jump\t// in\n    tag_9:\n      mload(0x40)\n      dup1\n      swap2\n      sub\n      swap1\n      return\n        /* \"for_checkingfiles.sol\":250:358  function get() public{... */\n    tag_6:\n        /* \"for_checkingfiles.sol\":290:304  weekend.sunday */\n      0x00\n        /* \"for_checkingfiles.sol\":285:304  w1== weekend.sunday */\n      0x01\n      dup2\n      gt\n      iszero\n      tag_12\n      jumpi\n      tag_13\n      tag_14\n      jump\t// in\n    tag_13:\n    tag_12:\n        /* \"for_checkingfiles.sol\":285:287  w1 */\n      0x00\n      dup1\n      sload\n      swap1\n      0x0100\n      exp\n      swap1\n      div\n      0xff\n      and\n        /* \"for_checkingfiles.sol\":285:304  w1== weekend.sunday */\n      0x01\n      dup2\n      gt\n      iszero\n      tag_15\n      jumpi\n      tag_16\n      tag_14\n      jump\t// in\n    tag_16:\n    tag_15:\n      sub\n        /* \"for_checkingfiles.sol\":282:351  if(w1== weekend.sunday){... */\n      tag_17\n      jumpi\n        /* \"for_checkingfiles.sol\":325:339  weekend.monday */\n      0x01\n        /* \"for_checkingfiles.sol\":320:322  w1 */\n      0x00\n      dup1\n        /* \"for_checkingfiles.sol\":320:339  w1 = weekend.monday */\n      0x0100\n      exp\n      dup2\n      sload\n      dup2\n      0xff\n      mul\n      not\n      and\n      swap1\n      dup4\n      0x01\n      dup2\n      gt\n      iszero\n      tag_18\n      jumpi\n      tag_19\n      tag_14\n      jump\t// in\n    tag_19:\n    tag_18:\n      mul\n      or\n      swap1\n      sstore\n      pop\n        /* \"for_checkingfiles.sol\":282:351  if(w1== weekend.sunday){... */\n    tag_17:\n        /* \"for_checkingfiles.sol\":250:358  function get() public{... */\n      jump\t// out\n        /* \"for_checkingfiles.sol\":134:164  weekend public w1 = weekend(0) */\n    tag_8:\n      0x00\n      dup1\n      sload\n      swap1\n      0x0100\n      exp\n      swap1\n      div\n      0xff\n      and\n      dup2\n      jump\t// out\n        /* \"#utility.yul\":7:187   */\n    tag_14:\n        /* \"#utility.yul\":55:132   */\n      0x4e487b7100000000000000000000000000000000000000000000000000000000\n        /* \"#utility.yul\":52:53   */\n      0x00\n        /* \"#utility.yul\":45:133   */\n      mstore\n        /* \"#utility.yul\":152:156   */\n      0x21\n        /* \"#utility.yul\":149:150   */\n      0x04\n        /* \"#utility.yul\":142:157   */\n      mstore\n        /* \"#utility.yul\":176:180   */\n      0x24\n        /* \"#utility.yul\":173:174   */\n      0x00\n        /* \"#utility.yul\":166:181   */\n      revert\n        /* \"#utility.yul\":193:307   */\n    tag_20:\n        /* \"#utility.yul\":275:276   */\n      0x02\n        /* \"#utility.yul\":268:273   */\n      dup2\n        /* \"#utility.yul\":265:277   */\n      lt\n        /* \"#utility.yul\":255:301   */\n      tag_27\n      jumpi\n        /* \"#utility.yul\":281:299   */\n      tag_28\n      tag_14\n      jump\t// in\n    tag_28:\n        /* \"#utility.yul\":255:301   */\n    tag_27:\n        /* \"#utility.yul\":193:307   */\n      pop\n      jump\t// out\n        /* \"#utility.yul\":313:442   */\n    tag_21:\n        /* \"#utility.yul\":359:366   */\n      0x00\n        /* \"#utility.yul\":388:393   */\n      dup2\n        /* \"#utility.yul\":377:393   */\n      swap1\n      pop\n        /* \"#utility.yul\":394:436   */\n      tag_30\n        /* \"#utility.yul\":430:435   */\n      dup3\n        /* \"#utility.yul\":394:436   */\n      tag_20\n      jump\t// in\n    tag_30:\n        /* \"#utility.yul\":313:442   */\n      swap2\n      swap1\n      pop\n      jump\t// out\n        /* \"#utility.yul\":448:577   */\n    tag_22:\n        /* \"#utility.yul\":505:514   */\n      0x00\n        /* \"#utility.yul\":538:571   */\n      tag_32\n        /* \"#utility.yul\":565:570   */\n      dup3\n        /* \"#utility.yul\":538:571   */\n      tag_21\n      jump\t// in\n    tag_32:\n        /* \"#utility.yul\":525:571   */\n      swap1\n      pop\n        /* \"#utility.yul\":448:577   */\n      swap2\n      swap1\n      pop\n      jump\t// out\n        /* \"#utility.yul\":583:728   */\n    tag_23:\n        /* \"#utility.yul\":677:721   */\n      tag_34\n        /* \"#utility.yul\":715:720   */\n      dup2\n        /* \"#utility.yul\":677:721   */\n      tag_22\n      jump\t// in\n    tag_34:\n        /* \"#utility.yul\":672:675   */\n      dup3\n        /* \"#utility.yul\":665:722   */\n      mstore\n        /* \"#utility.yul\":583:728   */\n      pop\n      pop\n      jump\t// out\n        /* \"#utility.yul\":734:970   */\n    tag_10:\n        /* \"#utility.yul\":834:838   */\n      0x00\n        /* \"#utility.yul\":872:874   */\n      0x20\n        /* \"#utility.yul\":861:870   */\n      dup3\n        /* \"#utility.yul\":857:875   */\n      add\n        /* \"#utility.yul\":849:875   */\n      swap1\n      pop\n        /* \"#utility.yul\":885:963   */\n      tag_36\n        /* \"#utility.yul\":960:961   */\n      0x00\n        /* \"#utility.yul\":949:958   */\n      dup4\n        /* \"#utility.yul\":945:962   */\n      add\n        /* \"#utility.yul\":936:942   */\n      dup5\n        /* \"#utility.yul\":885:963   */\n      tag_23\n      jump\t// in\n    tag_36:\n        /* \"#utility.yul\":734:970   */\n      swap3\n      swap2\n      pop\n      pop\n      jump\t// out\n\n    auxdata: 0xa26469706673582212206c40eea33a5d359e2f2f607933617a420b0d0ca4f0390456e997c6c289147c4864736f6c63430008150033\n}\n",
				"bytecode": {
					"linkReferences": {},
					"object": "60806040525f60018111156100175761001661004f565b5b5f806101000a81548160ff021916908360018111156100395761003861004f565b5b0217905550348015610049575f80fd5b5061007c565b7f4e487b71000000000000000000000000000000000000000000000000000000005f52602160045260245ffd5b610195806100895f395ff3fe608060405234801561000f575f80fd5b5060043610610034575f3560e01c80636d4ce63c146100385780637e44755b14610042575b5f80fd5b610040610060565b005b61004a6100c3565b6040516100579190610146565b60405180910390f35b5f6001811115610073576100726100d3565b5b5f8054906101000a900460ff166001811115610092576100916100d3565b5b036100c15760015f806101000a81548160ff021916908360018111156100bb576100ba6100d3565b5b02179055505b565b5f8054906101000a900460ff1681565b7f4e487b71000000000000000000000000000000000000000000000000000000005f52602160045260245ffd5b60028110610111576101106100d3565b5b50565b5f81905061012182610100565b919050565b5f61013082610114565b9050919050565b61014081610126565b82525050565b5f6020820190506101595f830184610137565b9291505056fea26469706673582212206c40eea33a5d359e2f2f607933617a420b0d0ca4f0390456e997c6c289147c4864736f6c63430008150033",
					"opcodes": "PUSH1 0x80 PUSH1 0x40 MSTORE PUSH0 PUSH1 0x1 DUP2 GT ISZERO PUSH2 0x17 JUMPI PUSH2 0x16 PUSH2 0x4F JUMP JUMPDEST JUMPDEST PUSH0 DUP1 PUSH2 0x100 EXP DUP2 SLOAD DUP2 PUSH1 0xFF MUL NOT AND SWAP1 DUP4 PUSH1 0x1 DUP2 GT ISZERO PUSH2 0x39 JUMPI PUSH2 0x38 PUSH2 0x4F JUMP JUMPDEST JUMPDEST MUL OR SWAP1 SSTORE POP CALLVALUE DUP1 ISZERO PUSH2 0x49 JUMPI PUSH0 DUP1 REVERT JUMPDEST POP PUSH2 0x7C JUMP JUMPDEST PUSH32 0x4E487B7100000000000000000000000000000000000000000000000000000000 PUSH0 MSTORE PUSH1 0x21 PUSH1 0x4 MSTORE PUSH1 0x24 PUSH0 REVERT JUMPDEST PUSH2 0x195 DUP1 PUSH2 0x89 PUSH0 CODECOPY PUSH0 RETURN INVALID PUSH1 0x80 PUSH1 0x40 MSTORE CALLVALUE DUP1 ISZERO PUSH2 0xF JUMPI PUSH0 DUP1 REVERT JUMPDEST POP PUSH1 0x4 CALLDATASIZE LT PUSH2 0x34 JUMPI PUSH0 CALLDATALOAD PUSH1 0xE0 SHR DUP1 PUSH4 0x6D4CE63C EQ PUSH2 0x38 JUMPI DUP1 PUSH4 0x7E44755B EQ PUSH2 0x42 JUMPI JUMPDEST PUSH0 DUP1 REVERT JUMPDEST PUSH2 0x40 PUSH2 0x60 JUMP JUMPDEST STOP JUMPDEST PUSH2 0x4A PUSH2 0xC3 JUMP JUMPDEST PUSH1 0x40 MLOAD PUSH2 0x57 SWAP2 SWAP1 PUSH2 0x146 JUMP JUMPDEST PUSH1 0x40 MLOAD DUP1 SWAP2 SUB SWAP1 RETURN JUMPDEST PUSH0 PUSH1 0x1 DUP2 GT ISZERO PUSH2 0x73 JUMPI PUSH2 0x72 PUSH2 0xD3 JUMP JUMPDEST JUMPDEST PUSH0 DUP1 SLOAD SWAP1 PUSH2 0x100 EXP SWAP1 DIV PUSH1 0xFF AND PUSH1 0x1 DUP2 GT ISZERO PUSH2 0x92 JUMPI PUSH2 0x91 PUSH2 0xD3 JUMP JUMPDEST JUMPDEST SUB PUSH2 0xC1 JUMPI PUSH1 0x1 PUSH0 DUP1 PUSH2 0x100 EXP DUP2 SLOAD DUP2 PUSH1 0xFF MUL NOT AND SWAP1 DUP4 PUSH1 0x1 DUP2 GT ISZERO PUSH2 0xBB JUMPI PUSH2 0xBA PUSH2 0xD3 JUMP JUMPDEST JUMPDEST MUL OR SWAP1 SSTORE POP JUMPDEST JUMP JUMPDEST PUSH0 DUP1 SLOAD SWAP1 PUSH2 0x100 EXP SWAP1 DIV PUSH1 0xFF AND DUP2 JUMP JUMPDEST PUSH32 0x4E487B7100000000000000000000000000000000000000000000000000000000 PUSH0 MSTORE PUSH1 0x21 PUSH1 0x4 MSTORE PUSH1 0x24 PUSH0 REVERT JUMPDEST PUSH1 0x2 DUP2 LT PUSH2 0x111 JUMPI PUSH2 0x110 PUSH2 0xD3 JUMP JUMPDEST JUMPDEST POP JUMP JUMPDEST PUSH0 DUP2 SWAP1 POP PUSH2 0x121 DUP3 PUSH2 0x100 JUMP JUMPDEST SWAP2 SWAP1 POP JUMP JUMPDEST PUSH0 PUSH2 0x130 DUP3 PUSH2 0x114 JUMP JUMPDEST SWAP1 POP SWAP2 SWAP1 POP JUMP JUMPDEST PUSH2 0x140 DUP2 PUSH2 0x126 JUMP JUMPDEST DUP3 MSTORE POP POP JUMP JUMPDEST PUSH0 PUSH1 0x20 DUP3 ADD SWAP1 POP PUSH2 0x159 PUSH0 DUP4 ADD DUP5 PUSH2 0x137 JUMP JUMPDEST SWAP3 SWAP2 POP POP JUMP INVALID LOG2 PUSH5 0x6970667358 0x22 SLT KECCAK256 PUSH13 0x40EEA33A5D359E2F2F60793361 PUSH27 0x420B0D0CA4F0390456E997C6C289147C4864736F6C634300081500 CALLER "
				},
				"gasEstimates": {
					"creation": {
						"codeDepositCost": "81000",
						"executionCost": "24450",
						"totalCost": "105450"
					},
					"external": {
						"get()": "26613",
						"w1()": "2551"
					}
				},
				"methodIdentifiers": {
					"get()": "6d4ce63c",
					"w1()": "7e44755b"
				}
			},
			"storageLayout": {
				"storage": [
					{
						"astId": 10,
						"contract": "for_checkingfiles.sol:quiz",
						"label": "w1",
						"offset": 0,
						"slot": "0",
						"type": "t_enum(weekend)4"
					}
				],
				"types": {
					"t_enum(weekend)4": {
						"encoding": "inplace",
						"label": "enum quiz.weekend",
						"numberOfBytes": "1"
					}
				}
			},
			"userdoc": {
				"kind": "user",
				"methods": {},
				"version": 1
			}
		}
	}
}