{
	"structs.sol": {
		"Student": {
			"abi": [
				{
					"inputs": [
						{
							"internalType": "address",
							"name": "addr",
							"type": "address"
						}
					],
					"name": "get",
					"outputs": [
						{
							"internalType": "enum Student.day",
							"name": "",
							"type": "uint8"
						}
					],
					"stateMutability": "view",
					"type": "function"
				},
				{
					"inputs": [
						{
							"internalType": "enum Student.day",
							"name": "working_day",
							"type": "uint8"
						},
						{
							"internalType": "address",
							"name": "_addr",
							"type": "address"
						}
					],
					"name": "set",
					"outputs": [],
					"stateMutability": "nonpayable",
					"type": "function"
				},
				{
					"inputs": [
						{
							"internalType": "uint256",
							"name": "age",
							"type": "uint256"
						},
						{
							"internalType": "address",
							"name": "_addr",
							"type": "address"
						}
					],
					"name": "setAge",
					"outputs": [],
					"stateMutability": "nonpayable",
					"type": "function"
				},
				{
					"inputs": [
						{
							"internalType": "string",
							"name": "_name",
							"type": "string"
						},
						{
							"internalType": "address",
							"name": "_addr",
							"type": "address"
						}
					],
					"name": "setName",
					"outputs": [],
					"stateMutability": "nonpayable",
					"type": "function"
				},
				{
					"inputs": [
						{
							"internalType": "uint256",
							"name": "",
							"type": "uint256"
						}
					],
					"name": "ss",
					"outputs": [
						{
							"internalType": "string",
							"name": "name",
							"type": "string"
						},
						{
							"internalType": "uint256",
							"name": "age",
							"type": "uint256"
						}
					],
					"stateMutability": "view",
					"type": "function"
				}
			],
			"devdoc": {
				"kind": "dev",
				"methods": {},
				"version": 1
			},
			"evm": {
				"assembly": "    /* \"structs.sol\":61:1074  contract Student {... */\n  mstore(0x40, 0x80)\n  callvalue\n  dup1\n  iszero\n  tag_1\n  jumpi\n  0x00\n  dup1\n  revert\ntag_1:\n  pop\n  dataSize(sub_0)\n  dup1\n  dataOffset(sub_0)\n  0x00\n  codecopy\n  0x00\n  return\nstop\n\nsub_0: assembly {\n        /* \"structs.sol\":61:1074  contract Student {... */\n      mstore(0x40, 0x80)\n      callvalue\n      dup1\n      iszero\n      tag_1\n      jumpi\n      0x00\n      dup1\n      revert\n    tag_1:\n      pop\n      jumpi(tag_2, lt(calldatasize, 0x04))\n      shr(0xe0, calldataload(0x00))\n      dup1\n      0x4f6670cc\n      eq\n      tag_3\n      jumpi\n      dup1\n      0x50a7f675\n      eq\n      tag_4\n      jumpi\n      dup1\n      0x989d12b6\n      eq\n      tag_5\n      jumpi\n      dup1\n      0xc2bc2efc\n      eq\n      tag_6\n      jumpi\n      dup1\n      0xec07c2d1\n      eq\n      tag_7\n      jumpi\n    tag_2:\n      0x00\n      dup1\n      revert\n        /* \"structs.sol\":913:1005  function setAge(uint age, address _addr) public {... */\n    tag_3:\n      tag_8\n      0x04\n      dup1\n      calldatasize\n      sub\n      dup2\n      add\n      swap1\n      tag_9\n      swap2\n      swap1\n      tag_10\n      jump\t// in\n    tag_9:\n      tag_11\n      jump\t// in\n    tag_8:\n      stop\n        /* \"structs.sol\":639:736  function set(day working_day,address _addr) public {... */\n    tag_4:\n      tag_12\n      0x04\n      dup1\n      calldatasize\n      sub\n      dup2\n      add\n      swap1\n      tag_13\n      swap2\n      swap1\n      tag_14\n      jump\t// in\n    tag_13:\n      tag_15\n      jump\t// in\n    tag_12:\n      stop\n        /* \"structs.sol\":465:490  StudentStruct[] public ss */\n    tag_5:\n      tag_16\n      0x04\n      dup1\n      calldatasize\n      sub\n      dup2\n      add\n      swap1\n      tag_17\n      swap2\n      swap1\n      tag_18\n      jump\t// in\n    tag_17:\n      tag_19\n      jump\t// in\n    tag_16:\n      mload(0x40)\n      tag_20\n      swap3\n      swap2\n      swap1\n      tag_21\n      jump\t// in\n    tag_20:\n      mload(0x40)\n      dup1\n      swap2\n      sub\n      swap1\n      return\n        /* \"structs.sol\":503:594  function get(address addr) public view returns (day) {... */\n    tag_6:\n      tag_22\n      0x04\n      dup1\n      calldatasize\n      sub\n      dup2\n      add\n      swap1\n      tag_23\n      swap2\n      swap1\n      tag_24\n      jump\t// in\n    tag_23:\n      tag_25\n      jump\t// in\n    tag_22:\n      mload(0x40)\n      tag_26\n      swap2\n      swap1\n      tag_27\n      jump\t// in\n    tag_26:\n      mload(0x40)\n      dup1\n      swap2\n      sub\n      swap1\n      return\n        /* \"structs.sol\":798:905  function setName(string memory _name, address _addr) public {... */\n    tag_7:\n      tag_28\n      0x04\n      dup1\n      calldatasize\n      sub\n      dup2\n      add\n      swap1\n      tag_29\n      swap2\n      swap1\n      tag_30\n      jump\t// in\n    tag_29:\n      tag_31\n      jump\t// in\n    tag_28:\n      stop\n        /* \"structs.sol\":913:1005  function setAge(uint age, address _addr) public {... */\n    tag_11:\n        /* \"structs.sol\":994:997  age */\n      dup2\n        /* \"structs.sol\":972:980  students */\n      0x01\n        /* \"structs.sol\":972:987  students[_addr] */\n      0x00\n        /* \"structs.sol\":981:986  _addr */\n      dup4\n        /* \"structs.sol\":972:987  students[_addr] */\n      0xffffffffffffffffffffffffffffffffffffffff\n      and\n      0xffffffffffffffffffffffffffffffffffffffff\n      and\n      dup2\n      mstore\n      0x20\n      add\n      swap1\n      dup2\n      mstore\n      0x20\n      add\n      0x00\n      keccak256\n        /* \"structs.sol\":972:991  students[_addr].age */\n      0x01\n      add\n        /* \"structs.sol\":972:997  students[_addr].age = age */\n      dup2\n      swap1\n      sstore\n      pop\n        /* \"structs.sol\":913:1005  function setAge(uint age, address _addr) public {... */\n      pop\n      pop\n      jump\t// out\n        /* \"structs.sol\":639:736  function set(day working_day,address _addr) public {... */\n    tag_15:\n        /* \"structs.sol\":717:728  working_day */\n      dup2\n        /* \"structs.sol\":701:707  person */\n      0x00\n        /* \"structs.sol\":701:714  person[_addr] */\n      dup1\n        /* \"structs.sol\":708:713  _addr */\n      dup4\n        /* \"structs.sol\":701:714  person[_addr] */\n      0xffffffffffffffffffffffffffffffffffffffff\n      and\n      0xffffffffffffffffffffffffffffffffffffffff\n      and\n      dup2\n      mstore\n      0x20\n      add\n      swap1\n      dup2\n      mstore\n      0x20\n      add\n      0x00\n      keccak256\n      0x00\n        /* \"structs.sol\":701:728  person[_addr] = working_day */\n      0x0100\n      exp\n      dup2\n      sload\n      dup2\n      0xff\n      mul\n      not\n      and\n      swap1\n      dup4\n      0x03\n      dup2\n      gt\n      iszero\n      tag_34\n      jumpi\n      tag_35\n      tag_36\n      jump\t// in\n    tag_35:\n    tag_34:\n      mul\n      or\n      swap1\n      sstore\n      pop\n        /* \"structs.sol\":639:736  function set(day working_day,address _addr) public {... */\n      pop\n      pop\n      jump\t// out\n        /* \"structs.sol\":465:490  StudentStruct[] public ss */\n    tag_19:\n      0x02\n      dup2\n      dup2\n      sload\n      dup2\n      lt\n      tag_37\n      jumpi\n      0x00\n      dup1\n      revert\n    tag_37:\n      swap1\n      0x00\n      mstore\n      keccak256(0x00, 0x20)\n      swap1\n      0x02\n      mul\n      add\n      0x00\n      swap2\n      pop\n      swap1\n      pop\n      dup1\n      0x00\n      add\n      dup1\n      sload\n      tag_39\n      swap1\n      tag_40\n      jump\t// in\n    tag_39:\n      dup1\n      0x1f\n      add\n      0x20\n      dup1\n      swap2\n      div\n      mul\n      0x20\n      add\n      mload(0x40)\n      swap1\n      dup2\n      add\n      0x40\n      mstore\n      dup1\n      swap3\n      swap2\n      swap1\n      dup2\n      dup2\n      mstore\n      0x20\n      add\n      dup3\n      dup1\n      sload\n      tag_41\n      swap1\n      tag_40\n      jump\t// in\n    tag_41:\n      dup1\n      iszero\n      tag_42\n      jumpi\n      dup1\n      0x1f\n      lt\n      tag_43\n      jumpi\n      0x0100\n      dup1\n      dup4\n      sload\n      div\n      mul\n      dup4\n      mstore\n      swap2\n      0x20\n      add\n      swap2\n      jump(tag_42)\n    tag_43:\n      dup3\n      add\n      swap2\n      swap1\n      0x00\n      mstore\n      keccak256(0x00, 0x20)\n      swap1\n    tag_44:\n      dup2\n      sload\n      dup2\n      mstore\n      swap1\n      0x01\n      add\n      swap1\n      0x20\n      add\n      dup1\n      dup4\n      gt\n      tag_44\n      jumpi\n      dup3\n      swap1\n      sub\n      0x1f\n      and\n      dup3\n      add\n      swap2\n    tag_42:\n      pop\n      pop\n      pop\n      pop\n      pop\n      swap1\n      dup1\n      0x01\n      add\n      sload\n      swap1\n      pop\n      dup3\n      jump\t// out\n        /* \"structs.sol\":503:594  function get(address addr) public view returns (day) {... */\n    tag_25:\n        /* \"structs.sol\":551:554  day */\n      0x00\n        /* \"structs.sol\":574:580  person */\n      dup1\n        /* \"structs.sol\":574:586  person[addr] */\n      0x00\n        /* \"structs.sol\":581:585  addr */\n      dup4\n        /* \"structs.sol\":574:586  person[addr] */\n      0xffffffffffffffffffffffffffffffffffffffff\n      and\n      0xffffffffffffffffffffffffffffffffffffffff\n      and\n      dup2\n      mstore\n      0x20\n      add\n      swap1\n      dup2\n      mstore\n      0x20\n      add\n      0x00\n      keccak256\n      0x00\n      swap1\n      sload\n      swap1\n      0x0100\n      exp\n      swap1\n      div\n      0xff\n      and\n        /* \"structs.sol\":567:586  return person[addr] */\n      swap1\n      pop\n        /* \"structs.sol\":503:594  function get(address addr) public view returns (day) {... */\n      swap2\n      swap1\n      pop\n      jump\t// out\n        /* \"structs.sol\":798:905  function setName(string memory _name, address _addr) public {... */\n    tag_31:\n        /* \"structs.sol\":892:897  _name */\n      dup2\n        /* \"structs.sol\":869:877  students */\n      0x01\n        /* \"structs.sol\":869:884  students[_addr] */\n      0x00\n        /* \"structs.sol\":878:883  _addr */\n      dup4\n        /* \"structs.sol\":869:884  students[_addr] */\n      0xffffffffffffffffffffffffffffffffffffffff\n      and\n      0xffffffffffffffffffffffffffffffffffffffff\n      and\n      dup2\n      mstore\n      0x20\n      add\n      swap1\n      dup2\n      mstore\n      0x20\n      add\n      0x00\n      keccak256\n        /* \"structs.sol\":869:889  students[_addr].name */\n      0x00\n      add\n        /* \"structs.sol\":869:897  students[_addr].name = _name */\n      swap1\n      dup2\n      tag_47\n      swap2\n      swap1\n      tag_48\n      jump\t// in\n    tag_47:\n      pop\n        /* \"structs.sol\":798:905  function setName(string memory _name, address _addr) public {... */\n      pop\n      pop\n      jump\t// out\n        /* \"#utility.yul\":7:82   */\n    tag_49:\n        /* \"#utility.yul\":40:46   */\n      0x00\n        /* \"#utility.yul\":73:75   */\n      0x40\n        /* \"#utility.yul\":67:76   */\n      mload\n        /* \"#utility.yul\":57:76   */\n      swap1\n      pop\n        /* \"#utility.yul\":7:82   */\n      swap1\n      jump\t// out\n        /* \"#utility.yul\":88:205   */\n    tag_50:\n        /* \"#utility.yul\":197:198   */\n      0x00\n        /* \"#utility.yul\":194:195   */\n      dup1\n        /* \"#utility.yul\":187:199   */\n      revert\n        /* \"#utility.yul\":211:328   */\n    tag_51:\n        /* \"#utility.yul\":320:321   */\n      0x00\n        /* \"#utility.yul\":317:318   */\n      dup1\n        /* \"#utility.yul\":310:322   */\n      revert\n        /* \"#utility.yul\":334:411   */\n    tag_52:\n        /* \"#utility.yul\":371:378   */\n      0x00\n        /* \"#utility.yul\":400:405   */\n      dup2\n        /* \"#utility.yul\":389:405   */\n      swap1\n      pop\n        /* \"#utility.yul\":334:411   */\n      swap2\n      swap1\n      pop\n      jump\t// out\n        /* \"#utility.yul\":417:539   */\n    tag_53:\n        /* \"#utility.yul\":490:514   */\n      tag_102\n        /* \"#utility.yul\":508:513   */\n      dup2\n        /* \"#utility.yul\":490:514   */\n      tag_52\n      jump\t// in\n    tag_102:\n        /* \"#utility.yul\":483:488   */\n      dup2\n        /* \"#utility.yul\":480:515   */\n      eq\n        /* \"#utility.yul\":470:533   */\n      tag_103\n      jumpi\n        /* \"#utility.yul\":529:530   */\n      0x00\n        /* \"#utility.yul\":526:527   */\n      dup1\n        /* \"#utility.yul\":519:531   */\n      revert\n        /* \"#utility.yul\":470:533   */\n    tag_103:\n        /* \"#utility.yul\":417:539   */\n      pop\n      jump\t// out\n        /* \"#utility.yul\":545:684   */\n    tag_54:\n        /* \"#utility.yul\":591:596   */\n      0x00\n        /* \"#utility.yul\":629:635   */\n      dup2\n        /* \"#utility.yul\":616:636   */\n      calldataload\n        /* \"#utility.yul\":607:636   */\n      swap1\n      pop\n        /* \"#utility.yul\":645:678   */\n      tag_105\n        /* \"#utility.yul\":672:677   */\n      dup2\n        /* \"#utility.yul\":645:678   */\n      tag_53\n      jump\t// in\n    tag_105:\n        /* \"#utility.yul\":545:684   */\n      swap3\n      swap2\n      pop\n      pop\n      jump\t// out\n        /* \"#utility.yul\":690:816   */\n    tag_55:\n        /* \"#utility.yul\":727:734   */\n      0x00\n        /* \"#utility.yul\":767:809   */\n      0xffffffffffffffffffffffffffffffffffffffff\n        /* \"#utility.yul\":760:765   */\n      dup3\n        /* \"#utility.yul\":756:810   */\n      and\n        /* \"#utility.yul\":745:810   */\n      swap1\n      pop\n        /* \"#utility.yul\":690:816   */\n      swap2\n      swap1\n      pop\n      jump\t// out\n        /* \"#utility.yul\":822:918   */\n    tag_56:\n        /* \"#utility.yul\":859:866   */\n      0x00\n        /* \"#utility.yul\":888:912   */\n      tag_108\n        /* \"#utility.yul\":906:911   */\n      dup3\n        /* \"#utility.yul\":888:912   */\n      tag_55\n      jump\t// in\n    tag_108:\n        /* \"#utility.yul\":877:912   */\n      swap1\n      pop\n        /* \"#utility.yul\":822:918   */\n      swap2\n      swap1\n      pop\n      jump\t// out\n        /* \"#utility.yul\":924:1046   */\n    tag_57:\n        /* \"#utility.yul\":997:1021   */\n      tag_110\n        /* \"#utility.yul\":1015:1020   */\n      dup2\n        /* \"#utility.yul\":997:1021   */\n      tag_56\n      jump\t// in\n    tag_110:\n        /* \"#utility.yul\":990:995   */\n      dup2\n        /* \"#utility.yul\":987:1022   */\n      eq\n        /* \"#utility.yul\":977:1040   */\n      tag_111\n      jumpi\n        /* \"#utility.yul\":1036:1037   */\n      0x00\n        /* \"#utility.yul\":1033:1034   */\n      dup1\n        /* \"#utility.yul\":1026:1038   */\n      revert\n        /* \"#utility.yul\":977:1040   */\n    tag_111:\n        /* \"#utility.yul\":924:1046   */\n      pop\n      jump\t// out\n        /* \"#utility.yul\":1052:1191   */\n    tag_58:\n        /* \"#utility.yul\":1098:1103   */\n      0x00\n        /* \"#utility.yul\":1136:1142   */\n      dup2\n        /* \"#utility.yul\":1123:1143   */\n      calldataload\n        /* \"#utility.yul\":1114:1143   */\n      swap1\n      pop\n        /* \"#utility.yul\":1152:1185   */\n      tag_113\n        /* \"#utility.yul\":1179:1184   */\n      dup2\n        /* \"#utility.yul\":1152:1185   */\n      tag_57\n      jump\t// in\n    tag_113:\n        /* \"#utility.yul\":1052:1191   */\n      swap3\n      swap2\n      pop\n      pop\n      jump\t// out\n        /* \"#utility.yul\":1197:1671   */\n    tag_10:\n        /* \"#utility.yul\":1265:1271   */\n      0x00\n        /* \"#utility.yul\":1273:1279   */\n      dup1\n        /* \"#utility.yul\":1322:1324   */\n      0x40\n        /* \"#utility.yul\":1310:1319   */\n      dup4\n        /* \"#utility.yul\":1301:1308   */\n      dup6\n        /* \"#utility.yul\":1297:1320   */\n      sub\n        /* \"#utility.yul\":1293:1325   */\n      slt\n        /* \"#utility.yul\":1290:1409   */\n      iszero\n      tag_115\n      jumpi\n        /* \"#utility.yul\":1328:1407   */\n      tag_116\n      tag_50\n      jump\t// in\n    tag_116:\n        /* \"#utility.yul\":1290:1409   */\n    tag_115:\n        /* \"#utility.yul\":1448:1449   */\n      0x00\n        /* \"#utility.yul\":1473:1526   */\n      tag_117\n        /* \"#utility.yul\":1518:1525   */\n      dup6\n        /* \"#utility.yul\":1509:1515   */\n      dup3\n        /* \"#utility.yul\":1498:1507   */\n      dup7\n        /* \"#utility.yul\":1494:1516   */\n      add\n        /* \"#utility.yul\":1473:1526   */\n      tag_54\n      jump\t// in\n    tag_117:\n        /* \"#utility.yul\":1463:1526   */\n      swap3\n      pop\n        /* \"#utility.yul\":1419:1536   */\n      pop\n        /* \"#utility.yul\":1575:1577   */\n      0x20\n        /* \"#utility.yul\":1601:1654   */\n      tag_118\n        /* \"#utility.yul\":1646:1653   */\n      dup6\n        /* \"#utility.yul\":1637:1643   */\n      dup3\n        /* \"#utility.yul\":1626:1635   */\n      dup7\n        /* \"#utility.yul\":1622:1644   */\n      add\n        /* \"#utility.yul\":1601:1654   */\n      tag_58\n      jump\t// in\n    tag_118:\n        /* \"#utility.yul\":1591:1654   */\n      swap2\n      pop\n        /* \"#utility.yul\":1546:1664   */\n      pop\n        /* \"#utility.yul\":1197:1671   */\n      swap3\n      pop\n      swap3\n      swap1\n      pop\n      jump\t// out\n        /* \"#utility.yul\":1677:1782   */\n    tag_59:\n        /* \"#utility.yul\":1756:1757   */\n      0x04\n        /* \"#utility.yul\":1749:1754   */\n      dup2\n        /* \"#utility.yul\":1746:1758   */\n      lt\n        /* \"#utility.yul\":1736:1776   */\n      tag_120\n      jumpi\n        /* \"#utility.yul\":1772:1773   */\n      0x00\n        /* \"#utility.yul\":1769:1770   */\n      dup1\n        /* \"#utility.yul\":1762:1774   */\n      revert\n        /* \"#utility.yul\":1736:1776   */\n    tag_120:\n        /* \"#utility.yul\":1677:1782   */\n      pop\n      jump\t// out\n        /* \"#utility.yul\":1788:1939   */\n    tag_60:\n        /* \"#utility.yul\":1840:1845   */\n      0x00\n        /* \"#utility.yul\":1878:1884   */\n      dup2\n        /* \"#utility.yul\":1865:1885   */\n      calldataload\n        /* \"#utility.yul\":1856:1885   */\n      swap1\n      pop\n        /* \"#utility.yul\":1894:1933   */\n      tag_122\n        /* \"#utility.yul\":1927:1932   */\n      dup2\n        /* \"#utility.yul\":1894:1933   */\n      tag_59\n      jump\t// in\n    tag_122:\n        /* \"#utility.yul\":1788:1939   */\n      swap3\n      swap2\n      pop\n      pop\n      jump\t// out\n        /* \"#utility.yul\":1945:2431   */\n    tag_14:\n        /* \"#utility.yul\":2019:2025   */\n      0x00\n        /* \"#utility.yul\":2027:2033   */\n      dup1\n        /* \"#utility.yul\":2076:2078   */\n      0x40\n        /* \"#utility.yul\":2064:2073   */\n      dup4\n        /* \"#utility.yul\":2055:2062   */\n      dup6\n        /* \"#utility.yul\":2051:2074   */\n      sub\n        /* \"#utility.yul\":2047:2079   */\n      slt\n        /* \"#utility.yul\":2044:2163   */\n      iszero\n      tag_124\n      jumpi\n        /* \"#utility.yul\":2082:2161   */\n      tag_125\n      tag_50\n      jump\t// in\n    tag_125:\n        /* \"#utility.yul\":2044:2163   */\n    tag_124:\n        /* \"#utility.yul\":2202:2203   */\n      0x00\n        /* \"#utility.yul\":2227:2286   */\n      tag_126\n        /* \"#utility.yul\":2278:2285   */\n      dup6\n        /* \"#utility.yul\":2269:2275   */\n      dup3\n        /* \"#utility.yul\":2258:2267   */\n      dup7\n        /* \"#utility.yul\":2254:2276   */\n      add\n        /* \"#utility.yul\":2227:2286   */\n      tag_60\n      jump\t// in\n    tag_126:\n        /* \"#utility.yul\":2217:2286   */\n      swap3\n      pop\n        /* \"#utility.yul\":2173:2296   */\n      pop\n        /* \"#utility.yul\":2335:2337   */\n      0x20\n        /* \"#utility.yul\":2361:2414   */\n      tag_127\n        /* \"#utility.yul\":2406:2413   */\n      dup6\n        /* \"#utility.yul\":2397:2403   */\n      dup3\n        /* \"#utility.yul\":2386:2395   */\n      dup7\n        /* \"#utility.yul\":2382:2404   */\n      add\n        /* \"#utility.yul\":2361:2414   */\n      tag_58\n      jump\t// in\n    tag_127:\n        /* \"#utility.yul\":2351:2414   */\n      swap2\n      pop\n        /* \"#utility.yul\":2306:2424   */\n      pop\n        /* \"#utility.yul\":1945:2431   */\n      swap3\n      pop\n      swap3\n      swap1\n      pop\n      jump\t// out\n        /* \"#utility.yul\":2437:2766   */\n    tag_18:\n        /* \"#utility.yul\":2496:2502   */\n      0x00\n        /* \"#utility.yul\":2545:2547   */\n      0x20\n        /* \"#utility.yul\":2533:2542   */\n      dup3\n        /* \"#utility.yul\":2524:2531   */\n      dup5\n        /* \"#utility.yul\":2520:2543   */\n      sub\n        /* \"#utility.yul\":2516:2548   */\n      slt\n        /* \"#utility.yul\":2513:2632   */\n      iszero\n      tag_129\n      jumpi\n        /* \"#utility.yul\":2551:2630   */\n      tag_130\n      tag_50\n      jump\t// in\n    tag_130:\n        /* \"#utility.yul\":2513:2632   */\n    tag_129:\n        /* \"#utility.yul\":2671:2672   */\n      0x00\n        /* \"#utility.yul\":2696:2749   */\n      tag_131\n        /* \"#utility.yul\":2741:2748   */\n      dup5\n        /* \"#utility.yul\":2732:2738   */\n      dup3\n        /* \"#utility.yul\":2721:2730   */\n      dup6\n        /* \"#utility.yul\":2717:2739   */\n      add\n        /* \"#utility.yul\":2696:2749   */\n      tag_54\n      jump\t// in\n    tag_131:\n        /* \"#utility.yul\":2686:2749   */\n      swap2\n      pop\n        /* \"#utility.yul\":2642:2759   */\n      pop\n        /* \"#utility.yul\":2437:2766   */\n      swap3\n      swap2\n      pop\n      pop\n      jump\t// out\n        /* \"#utility.yul\":2772:2871   */\n    tag_61:\n        /* \"#utility.yul\":2824:2830   */\n      0x00\n        /* \"#utility.yul\":2858:2863   */\n      dup2\n        /* \"#utility.yul\":2852:2864   */\n      mload\n        /* \"#utility.yul\":2842:2864   */\n      swap1\n      pop\n        /* \"#utility.yul\":2772:2871   */\n      swap2\n      swap1\n      pop\n      jump\t// out\n        /* \"#utility.yul\":2877:3046   */\n    tag_62:\n        /* \"#utility.yul\":2961:2972   */\n      0x00\n        /* \"#utility.yul\":2995:3001   */\n      dup3\n        /* \"#utility.yul\":2990:2993   */\n      dup3\n        /* \"#utility.yul\":2983:3002   */\n      mstore\n        /* \"#utility.yul\":3035:3039   */\n      0x20\n        /* \"#utility.yul\":3030:3033   */\n      dup3\n        /* \"#utility.yul\":3026:3040   */\n      add\n        /* \"#utility.yul\":3011:3040   */\n      swap1\n      pop\n        /* \"#utility.yul\":2877:3046   */\n      swap3\n      swap2\n      pop\n      pop\n      jump\t// out\n        /* \"#utility.yul\":3052:3298   */\n    tag_63:\n        /* \"#utility.yul\":3133:3134   */\n      0x00\n        /* \"#utility.yul\":3143:3256   */\n    tag_135:\n        /* \"#utility.yul\":3157:3163   */\n      dup4\n        /* \"#utility.yul\":3154:3155   */\n      dup2\n        /* \"#utility.yul\":3151:3164   */\n      lt\n        /* \"#utility.yul\":3143:3256   */\n      iszero\n      tag_137\n      jumpi\n        /* \"#utility.yul\":3242:3243   */\n      dup1\n        /* \"#utility.yul\":3237:3240   */\n      dup3\n        /* \"#utility.yul\":3233:3244   */\n      add\n        /* \"#utility.yul\":3227:3245   */\n      mload\n        /* \"#utility.yul\":3223:3224   */\n      dup2\n        /* \"#utility.yul\":3218:3221   */\n      dup5\n        /* \"#utility.yul\":3214:3225   */\n      add\n        /* \"#utility.yul\":3207:3246   */\n      mstore\n        /* \"#utility.yul\":3179:3181   */\n      0x20\n        /* \"#utility.yul\":3176:3177   */\n      dup2\n        /* \"#utility.yul\":3172:3182   */\n      add\n        /* \"#utility.yul\":3167:3182   */\n      swap1\n      pop\n        /* \"#utility.yul\":3143:3256   */\n      jump(tag_135)\n    tag_137:\n        /* \"#utility.yul\":3290:3291   */\n      0x00\n        /* \"#utility.yul\":3281:3287   */\n      dup5\n        /* \"#utility.yul\":3276:3279   */\n      dup5\n        /* \"#utility.yul\":3272:3288   */\n      add\n        /* \"#utility.yul\":3265:3292   */\n      mstore\n        /* \"#utility.yul\":3114:3298   */\n      pop\n        /* \"#utility.yul\":3052:3298   */\n      pop\n      pop\n      pop\n      jump\t// out\n        /* \"#utility.yul\":3304:3406   */\n    tag_64:\n        /* \"#utility.yul\":3345:3351   */\n      0x00\n        /* \"#utility.yul\":3396:3398   */\n      0x1f\n        /* \"#utility.yul\":3392:3399   */\n      not\n        /* \"#utility.yul\":3387:3389   */\n      0x1f\n        /* \"#utility.yul\":3380:3385   */\n      dup4\n        /* \"#utility.yul\":3376:3390   */\n      add\n        /* \"#utility.yul\":3372:3400   */\n      and\n        /* \"#utility.yul\":3362:3400   */\n      swap1\n      pop\n        /* \"#utility.yul\":3304:3406   */\n      swap2\n      swap1\n      pop\n      jump\t// out\n        /* \"#utility.yul\":3412:3789   */\n    tag_65:\n        /* \"#utility.yul\":3500:3503   */\n      0x00\n        /* \"#utility.yul\":3528:3567   */\n      tag_140\n        /* \"#utility.yul\":3561:3566   */\n      dup3\n        /* \"#utility.yul\":3528:3567   */\n      tag_61\n      jump\t// in\n    tag_140:\n        /* \"#utility.yul\":3583:3654   */\n      tag_141\n        /* \"#utility.yul\":3647:3653   */\n      dup2\n        /* \"#utility.yul\":3642:3645   */\n      dup6\n        /* \"#utility.yul\":3583:3654   */\n      tag_62\n      jump\t// in\n    tag_141:\n        /* \"#utility.yul\":3576:3654   */\n      swap4\n      pop\n        /* \"#utility.yul\":3663:3728   */\n      tag_142\n        /* \"#utility.yul\":3721:3727   */\n      dup2\n        /* \"#utility.yul\":3716:3719   */\n      dup6\n        /* \"#utility.yul\":3709:3713   */\n      0x20\n        /* \"#utility.yul\":3702:3707   */\n      dup7\n        /* \"#utility.yul\":3698:3714   */\n      add\n        /* \"#utility.yul\":3663:3728   */\n      tag_63\n      jump\t// in\n    tag_142:\n        /* \"#utility.yul\":3753:3782   */\n      tag_143\n        /* \"#utility.yul\":3775:3781   */\n      dup2\n        /* \"#utility.yul\":3753:3782   */\n      tag_64\n      jump\t// in\n    tag_143:\n        /* \"#utility.yul\":3748:3751   */\n      dup5\n        /* \"#utility.yul\":3744:3783   */\n      add\n        /* \"#utility.yul\":3737:3783   */\n      swap2\n      pop\n        /* \"#utility.yul\":3504:3789   */\n      pop\n        /* \"#utility.yul\":3412:3789   */\n      swap3\n      swap2\n      pop\n      pop\n      jump\t// out\n        /* \"#utility.yul\":3795:3913   */\n    tag_66:\n        /* \"#utility.yul\":3882:3906   */\n      tag_145\n        /* \"#utility.yul\":3900:3905   */\n      dup2\n        /* \"#utility.yul\":3882:3906   */\n      tag_52\n      jump\t// in\n    tag_145:\n        /* \"#utility.yul\":3877:3880   */\n      dup3\n        /* \"#utility.yul\":3870:3907   */\n      mstore\n        /* \"#utility.yul\":3795:3913   */\n      pop\n      pop\n      jump\t// out\n        /* \"#utility.yul\":3919:4342   */\n    tag_21:\n        /* \"#utility.yul\":4060:4064   */\n      0x00\n        /* \"#utility.yul\":4098:4100   */\n      0x40\n        /* \"#utility.yul\":4087:4096   */\n      dup3\n        /* \"#utility.yul\":4083:4101   */\n      add\n        /* \"#utility.yul\":4075:4101   */\n      swap1\n      pop\n        /* \"#utility.yul\":4147:4156   */\n      dup2\n        /* \"#utility.yul\":4141:4145   */\n      dup2\n        /* \"#utility.yul\":4137:4157   */\n      sub\n        /* \"#utility.yul\":4133:4134   */\n      0x00\n        /* \"#utility.yul\":4122:4131   */\n      dup4\n        /* \"#utility.yul\":4118:4135   */\n      add\n        /* \"#utility.yul\":4111:4158   */\n      mstore\n        /* \"#utility.yul\":4175:4253   */\n      tag_147\n        /* \"#utility.yul\":4248:4252   */\n      dup2\n        /* \"#utility.yul\":4239:4245   */\n      dup6\n        /* \"#utility.yul\":4175:4253   */\n      tag_65\n      jump\t// in\n    tag_147:\n        /* \"#utility.yul\":4167:4253   */\n      swap1\n      pop\n        /* \"#utility.yul\":4263:4335   */\n      tag_148\n        /* \"#utility.yul\":4331:4333   */\n      0x20\n        /* \"#utility.yul\":4320:4329   */\n      dup4\n        /* \"#utility.yul\":4316:4334   */\n      add\n        /* \"#utility.yul\":4307:4313   */\n      dup5\n        /* \"#utility.yul\":4263:4335   */\n      tag_66\n      jump\t// in\n    tag_148:\n        /* \"#utility.yul\":3919:4342   */\n      swap4\n      swap3\n      pop\n      pop\n      pop\n      jump\t// out\n        /* \"#utility.yul\":4348:4677   */\n    tag_24:\n        /* \"#utility.yul\":4407:4413   */\n      0x00\n        /* \"#utility.yul\":4456:4458   */\n      0x20\n        /* \"#utility.yul\":4444:4453   */\n      dup3\n        /* \"#utility.yul\":4435:4442   */\n      dup5\n        /* \"#utility.yul\":4431:4454   */\n      sub\n        /* \"#utility.yul\":4427:4459   */\n      slt\n        /* \"#utility.yul\":4424:4543   */\n      iszero\n      tag_150\n      jumpi\n        /* \"#utility.yul\":4462:4541   */\n      tag_151\n      tag_50\n      jump\t// in\n    tag_151:\n        /* \"#utility.yul\":4424:4543   */\n    tag_150:\n        /* \"#utility.yul\":4582:4583   */\n      0x00\n        /* \"#utility.yul\":4607:4660   */\n      tag_152\n        /* \"#utility.yul\":4652:4659   */\n      dup5\n        /* \"#utility.yul\":4643:4649   */\n      dup3\n        /* \"#utility.yul\":4632:4641   */\n      dup6\n        /* \"#utility.yul\":4628:4650   */\n      add\n        /* \"#utility.yul\":4607:4660   */\n      tag_58\n      jump\t// in\n    tag_152:\n        /* \"#utility.yul\":4597:4660   */\n      swap2\n      pop\n        /* \"#utility.yul\":4553:4670   */\n      pop\n        /* \"#utility.yul\":4348:4677   */\n      swap3\n      swap2\n      pop\n      pop\n      jump\t// out\n        /* \"#utility.yul\":4683:4863   */\n    tag_36:\n        /* \"#utility.yul\":4731:4808   */\n      0x4e487b7100000000000000000000000000000000000000000000000000000000\n        /* \"#utility.yul\":4728:4729   */\n      0x00\n        /* \"#utility.yul\":4721:4809   */\n      mstore\n        /* \"#utility.yul\":4828:4832   */\n      0x21\n        /* \"#utility.yul\":4825:4826   */\n      0x04\n        /* \"#utility.yul\":4818:4833   */\n      mstore\n        /* \"#utility.yul\":4852:4856   */\n      0x24\n        /* \"#utility.yul\":4849:4850   */\n      0x00\n        /* \"#utility.yul\":4842:4857   */\n      revert\n        /* \"#utility.yul\":4869:4980   */\n    tag_67:\n        /* \"#utility.yul\":4948:4949   */\n      0x04\n        /* \"#utility.yul\":4941:4946   */\n      dup2\n        /* \"#utility.yul\":4938:4950   */\n      lt\n        /* \"#utility.yul\":4928:4974   */\n      tag_155\n      jumpi\n        /* \"#utility.yul\":4954:4972   */\n      tag_156\n      tag_36\n      jump\t// in\n    tag_156:\n        /* \"#utility.yul\":4928:4974   */\n    tag_155:\n        /* \"#utility.yul\":4869:4980   */\n      pop\n      jump\t// out\n        /* \"#utility.yul\":4986:5109   */\n    tag_68:\n        /* \"#utility.yul\":5029:5036   */\n      0x00\n        /* \"#utility.yul\":5058:5063   */\n      dup2\n        /* \"#utility.yul\":5047:5063   */\n      swap1\n      pop\n        /* \"#utility.yul\":5064:5103   */\n      tag_158\n        /* \"#utility.yul\":5097:5102   */\n      dup3\n        /* \"#utility.yul\":5064:5103   */\n      tag_67\n      jump\t// in\n    tag_158:\n        /* \"#utility.yul\":4986:5109   */\n      swap2\n      swap1\n      pop\n      jump\t// out\n        /* \"#utility.yul\":5115:5238   */\n    tag_69:\n        /* \"#utility.yul\":5169:5178   */\n      0x00\n        /* \"#utility.yul\":5202:5232   */\n      tag_160\n        /* \"#utility.yul\":5226:5231   */\n      dup3\n        /* \"#utility.yul\":5202:5232   */\n      tag_68\n      jump\t// in\n    tag_160:\n        /* \"#utility.yul\":5189:5232   */\n      swap1\n      pop\n        /* \"#utility.yul\":5115:5238   */\n      swap2\n      swap1\n      pop\n      jump\t// out\n        /* \"#utility.yul\":5244:5383   */\n    tag_70:\n        /* \"#utility.yul\":5335:5376   */\n      tag_162\n        /* \"#utility.yul\":5370:5375   */\n      dup2\n        /* \"#utility.yul\":5335:5376   */\n      tag_69\n      jump\t// in\n    tag_162:\n        /* \"#utility.yul\":5330:5333   */\n      dup3\n        /* \"#utility.yul\":5323:5377   */\n      mstore\n        /* \"#utility.yul\":5244:5383   */\n      pop\n      pop\n      jump\t// out\n        /* \"#utility.yul\":5389:5619   */\n    tag_27:\n        /* \"#utility.yul\":5486:5490   */\n      0x00\n        /* \"#utility.yul\":5524:5526   */\n      0x20\n        /* \"#utility.yul\":5513:5522   */\n      dup3\n        /* \"#utility.yul\":5509:5527   */\n      add\n        /* \"#utility.yul\":5501:5527   */\n      swap1\n      pop\n        /* \"#utility.yul\":5537:5612   */\n      tag_164\n        /* \"#utility.yul\":5609:5610   */\n      0x00\n        /* \"#utility.yul\":5598:5607   */\n      dup4\n        /* \"#utility.yul\":5594:5611   */\n      add\n        /* \"#utility.yul\":5585:5591   */\n      dup5\n        /* \"#utility.yul\":5537:5612   */\n      tag_70\n      jump\t// in\n    tag_164:\n        /* \"#utility.yul\":5389:5619   */\n      swap3\n      swap2\n      pop\n      pop\n      jump\t// out\n        /* \"#utility.yul\":5625:5742   */\n    tag_71:\n        /* \"#utility.yul\":5734:5735   */\n      0x00\n        /* \"#utility.yul\":5731:5732   */\n      dup1\n        /* \"#utility.yul\":5724:5736   */\n      revert\n        /* \"#utility.yul\":5748:5865   */\n    tag_72:\n        /* \"#utility.yul\":5857:5858   */\n      0x00\n        /* \"#utility.yul\":5854:5855   */\n      dup1\n        /* \"#utility.yul\":5847:5859   */\n      revert\n        /* \"#utility.yul\":5871:6051   */\n    tag_73:\n        /* \"#utility.yul\":5919:5996   */\n      0x4e487b7100000000000000000000000000000000000000000000000000000000\n        /* \"#utility.yul\":5916:5917   */\n      0x00\n        /* \"#utility.yul\":5909:5997   */\n      mstore\n        /* \"#utility.yul\":6016:6020   */\n      0x41\n        /* \"#utility.yul\":6013:6014   */\n      0x04\n        /* \"#utility.yul\":6006:6021   */\n      mstore\n        /* \"#utility.yul\":6040:6044   */\n      0x24\n        /* \"#utility.yul\":6037:6038   */\n      0x00\n        /* \"#utility.yul\":6030:6045   */\n      revert\n        /* \"#utility.yul\":6057:6338   */\n    tag_74:\n        /* \"#utility.yul\":6140:6167   */\n      tag_169\n        /* \"#utility.yul\":6162:6166   */\n      dup3\n        /* \"#utility.yul\":6140:6167   */\n      tag_64\n      jump\t// in\n    tag_169:\n        /* \"#utility.yul\":6132:6138   */\n      dup2\n        /* \"#utility.yul\":6128:6168   */\n      add\n        /* \"#utility.yul\":6270:6276   */\n      dup2\n        /* \"#utility.yul\":6258:6268   */\n      dup2\n        /* \"#utility.yul\":6255:6277   */\n      lt\n        /* \"#utility.yul\":6234:6252   */\n      0xffffffffffffffff\n        /* \"#utility.yul\":6222:6232   */\n      dup3\n        /* \"#utility.yul\":6219:6253   */\n      gt\n        /* \"#utility.yul\":6216:6278   */\n      or\n        /* \"#utility.yul\":6213:6301   */\n      iszero\n      tag_170\n      jumpi\n        /* \"#utility.yul\":6281:6299   */\n      tag_171\n      tag_73\n      jump\t// in\n    tag_171:\n        /* \"#utility.yul\":6213:6301   */\n    tag_170:\n        /* \"#utility.yul\":6321:6331   */\n      dup1\n        /* \"#utility.yul\":6317:6319   */\n      0x40\n        /* \"#utility.yul\":6310:6332   */\n      mstore\n        /* \"#utility.yul\":6100:6338   */\n      pop\n        /* \"#utility.yul\":6057:6338   */\n      pop\n      pop\n      jump\t// out\n        /* \"#utility.yul\":6344:6473   */\n    tag_75:\n        /* \"#utility.yul\":6378:6384   */\n      0x00\n        /* \"#utility.yul\":6405:6425   */\n      tag_173\n      tag_49\n      jump\t// in\n    tag_173:\n        /* \"#utility.yul\":6395:6425   */\n      swap1\n      pop\n        /* \"#utility.yul\":6434:6467   */\n      tag_174\n        /* \"#utility.yul\":6462:6466   */\n      dup3\n        /* \"#utility.yul\":6454:6460   */\n      dup3\n        /* \"#utility.yul\":6434:6467   */\n      tag_74\n      jump\t// in\n    tag_174:\n        /* \"#utility.yul\":6344:6473   */\n      swap2\n      swap1\n      pop\n      jump\t// out\n        /* \"#utility.yul\":6479:6787   */\n    tag_76:\n        /* \"#utility.yul\":6541:6545   */\n      0x00\n        /* \"#utility.yul\":6631:6649   */\n      0xffffffffffffffff\n        /* \"#utility.yul\":6623:6629   */\n      dup3\n        /* \"#utility.yul\":6620:6650   */\n      gt\n        /* \"#utility.yul\":6617:6673   */\n      iszero\n      tag_176\n      jumpi\n        /* \"#utility.yul\":6653:6671   */\n      tag_177\n      tag_73\n      jump\t// in\n    tag_177:\n        /* \"#utility.yul\":6617:6673   */\n    tag_176:\n        /* \"#utility.yul\":6691:6720   */\n      tag_178\n        /* \"#utility.yul\":6713:6719   */\n      dup3\n        /* \"#utility.yul\":6691:6720   */\n      tag_64\n      jump\t// in\n    tag_178:\n        /* \"#utility.yul\":6683:6720   */\n      swap1\n      pop\n        /* \"#utility.yul\":6775:6779   */\n      0x20\n        /* \"#utility.yul\":6769:6773   */\n      dup2\n        /* \"#utility.yul\":6765:6780   */\n      add\n        /* \"#utility.yul\":6757:6780   */\n      swap1\n      pop\n        /* \"#utility.yul\":6479:6787   */\n      swap2\n      swap1\n      pop\n      jump\t// out\n        /* \"#utility.yul\":6793:6939   */\n    tag_77:\n        /* \"#utility.yul\":6890:6896   */\n      dup3\n        /* \"#utility.yul\":6885:6888   */\n      dup2\n        /* \"#utility.yul\":6880:6883   */\n      dup4\n        /* \"#utility.yul\":6867:6897   */\n      calldatacopy\n        /* \"#utility.yul\":6931:6932   */\n      0x00\n        /* \"#utility.yul\":6922:6928   */\n      dup4\n        /* \"#utility.yul\":6917:6920   */\n      dup4\n        /* \"#utility.yul\":6913:6929   */\n      add\n        /* \"#utility.yul\":6906:6933   */\n      mstore\n        /* \"#utility.yul\":6793:6939   */\n      pop\n      pop\n      pop\n      jump\t// out\n        /* \"#utility.yul\":6945:7370   */\n    tag_78:\n        /* \"#utility.yul\":7023:7028   */\n      0x00\n        /* \"#utility.yul\":7048:7114   */\n      tag_181\n        /* \"#utility.yul\":7064:7113   */\n      tag_182\n        /* \"#utility.yul\":7106:7112   */\n      dup5\n        /* \"#utility.yul\":7064:7113   */\n      tag_76\n      jump\t// in\n    tag_182:\n        /* \"#utility.yul\":7048:7114   */\n      tag_75\n      jump\t// in\n    tag_181:\n        /* \"#utility.yul\":7039:7114   */\n      swap1\n      pop\n        /* \"#utility.yul\":7137:7143   */\n      dup3\n        /* \"#utility.yul\":7130:7135   */\n      dup2\n        /* \"#utility.yul\":7123:7144   */\n      mstore\n        /* \"#utility.yul\":7175:7179   */\n      0x20\n        /* \"#utility.yul\":7168:7173   */\n      dup2\n        /* \"#utility.yul\":7164:7180   */\n      add\n        /* \"#utility.yul\":7213:7216   */\n      dup5\n        /* \"#utility.yul\":7204:7210   */\n      dup5\n        /* \"#utility.yul\":7199:7202   */\n      dup5\n        /* \"#utility.yul\":7195:7211   */\n      add\n        /* \"#utility.yul\":7192:7217   */\n      gt\n        /* \"#utility.yul\":7189:7301   */\n      iszero\n      tag_183\n      jumpi\n        /* \"#utility.yul\":7220:7299   */\n      tag_184\n      tag_72\n      jump\t// in\n    tag_184:\n        /* \"#utility.yul\":7189:7301   */\n    tag_183:\n        /* \"#utility.yul\":7310:7364   */\n      tag_185\n        /* \"#utility.yul\":7357:7363   */\n      dup5\n        /* \"#utility.yul\":7352:7355   */\n      dup3\n        /* \"#utility.yul\":7347:7350   */\n      dup6\n        /* \"#utility.yul\":7310:7364   */\n      tag_77\n      jump\t// in\n    tag_185:\n        /* \"#utility.yul\":7029:7370   */\n      pop\n        /* \"#utility.yul\":6945:7370   */\n      swap4\n      swap3\n      pop\n      pop\n      pop\n      jump\t// out\n        /* \"#utility.yul\":7390:7730   */\n    tag_79:\n        /* \"#utility.yul\":7446:7451   */\n      0x00\n        /* \"#utility.yul\":7495:7498   */\n      dup3\n        /* \"#utility.yul\":7488:7492   */\n      0x1f\n        /* \"#utility.yul\":7480:7486   */\n      dup4\n        /* \"#utility.yul\":7476:7493   */\n      add\n        /* \"#utility.yul\":7472:7499   */\n      slt\n        /* \"#utility.yul\":7462:7584   */\n      tag_187\n      jumpi\n        /* \"#utility.yul\":7503:7582   */\n      tag_188\n      tag_71\n      jump\t// in\n    tag_188:\n        /* \"#utility.yul\":7462:7584   */\n    tag_187:\n        /* \"#utility.yul\":7620:7626   */\n      dup2\n        /* \"#utility.yul\":7607:7627   */\n      calldataload\n        /* \"#utility.yul\":7645:7724   */\n      tag_189\n        /* \"#utility.yul\":7720:7723   */\n      dup5\n        /* \"#utility.yul\":7712:7718   */\n      dup3\n        /* \"#utility.yul\":7705:7709   */\n      0x20\n        /* \"#utility.yul\":7697:7703   */\n      dup7\n        /* \"#utility.yul\":7693:7710   */\n      add\n        /* \"#utility.yul\":7645:7724   */\n      tag_78\n      jump\t// in\n    tag_189:\n        /* \"#utility.yul\":7636:7724   */\n      swap2\n      pop\n        /* \"#utility.yul\":7452:7730   */\n      pop\n        /* \"#utility.yul\":7390:7730   */\n      swap3\n      swap2\n      pop\n      pop\n      jump\t// out\n        /* \"#utility.yul\":7736:8390   */\n    tag_30:\n        /* \"#utility.yul\":7814:7820   */\n      0x00\n        /* \"#utility.yul\":7822:7828   */\n      dup1\n        /* \"#utility.yul\":7871:7873   */\n      0x40\n        /* \"#utility.yul\":7859:7868   */\n      dup4\n        /* \"#utility.yul\":7850:7857   */\n      dup6\n        /* \"#utility.yul\":7846:7869   */\n      sub\n        /* \"#utility.yul\":7842:7874   */\n      slt\n        /* \"#utility.yul\":7839:7958   */\n      iszero\n      tag_191\n      jumpi\n        /* \"#utility.yul\":7877:7956   */\n      tag_192\n      tag_50\n      jump\t// in\n    tag_192:\n        /* \"#utility.yul\":7839:7958   */\n    tag_191:\n        /* \"#utility.yul\":8025:8026   */\n      0x00\n        /* \"#utility.yul\":8014:8023   */\n      dup4\n        /* \"#utility.yul\":8010:8027   */\n      add\n        /* \"#utility.yul\":7997:8028   */\n      calldataload\n        /* \"#utility.yul\":8055:8073   */\n      0xffffffffffffffff\n        /* \"#utility.yul\":8047:8053   */\n      dup2\n        /* \"#utility.yul\":8044:8074   */\n      gt\n        /* \"#utility.yul\":8041:8158   */\n      iszero\n      tag_193\n      jumpi\n        /* \"#utility.yul\":8077:8156   */\n      tag_194\n      tag_51\n      jump\t// in\n    tag_194:\n        /* \"#utility.yul\":8041:8158   */\n    tag_193:\n        /* \"#utility.yul\":8182:8245   */\n      tag_195\n        /* \"#utility.yul\":8237:8244   */\n      dup6\n        /* \"#utility.yul\":8228:8234   */\n      dup3\n        /* \"#utility.yul\":8217:8226   */\n      dup7\n        /* \"#utility.yul\":8213:8235   */\n      add\n        /* \"#utility.yul\":8182:8245   */\n      tag_79\n      jump\t// in\n    tag_195:\n        /* \"#utility.yul\":8172:8245   */\n      swap3\n      pop\n        /* \"#utility.yul\":7968:8255   */\n      pop\n        /* \"#utility.yul\":8294:8296   */\n      0x20\n        /* \"#utility.yul\":8320:8373   */\n      tag_196\n        /* \"#utility.yul\":8365:8372   */\n      dup6\n        /* \"#utility.yul\":8356:8362   */\n      dup3\n        /* \"#utility.yul\":8345:8354   */\n      dup7\n        /* \"#utility.yul\":8341:8363   */\n      add\n        /* \"#utility.yul\":8320:8373   */\n      tag_58\n      jump\t// in\n    tag_196:\n        /* \"#utility.yul\":8310:8373   */\n      swap2\n      pop\n        /* \"#utility.yul\":8265:8383   */\n      pop\n        /* \"#utility.yul\":7736:8390   */\n      swap3\n      pop\n      swap3\n      swap1\n      pop\n      jump\t// out\n        /* \"#utility.yul\":8396:8576   */\n    tag_80:\n        /* \"#utility.yul\":8444:8521   */\n      0x4e487b7100000000000000000000000000000000000000000000000000000000\n        /* \"#utility.yul\":8441:8442   */\n      0x00\n        /* \"#utility.yul\":8434:8522   */\n      mstore\n        /* \"#utility.yul\":8541:8545   */\n      0x22\n        /* \"#utility.yul\":8538:8539   */\n      0x04\n        /* \"#utility.yul\":8531:8546   */\n      mstore\n        /* \"#utility.yul\":8565:8569   */\n      0x24\n        /* \"#utility.yul\":8562:8563   */\n      0x00\n        /* \"#utility.yul\":8555:8570   */\n      revert\n        /* \"#utility.yul\":8582:8902   */\n    tag_40:\n        /* \"#utility.yul\":8626:8632   */\n      0x00\n        /* \"#utility.yul\":8663:8664   */\n      0x02\n        /* \"#utility.yul\":8657:8661   */\n      dup3\n        /* \"#utility.yul\":8653:8665   */\n      div\n        /* \"#utility.yul\":8643:8665   */\n      swap1\n      pop\n        /* \"#utility.yul\":8710:8711   */\n      0x01\n        /* \"#utility.yul\":8704:8708   */\n      dup3\n        /* \"#utility.yul\":8700:8712   */\n      and\n        /* \"#utility.yul\":8731:8749   */\n      dup1\n        /* \"#utility.yul\":8721:8802   */\n      tag_199\n      jumpi\n        /* \"#utility.yul\":8787:8791   */\n      0x7f\n        /* \"#utility.yul\":8779:8785   */\n      dup3\n        /* \"#utility.yul\":8775:8792   */\n      and\n        /* \"#utility.yul\":8765:8792   */\n      swap2\n      pop\n        /* \"#utility.yul\":8721:8802   */\n    tag_199:\n        /* \"#utility.yul\":8849:8851   */\n      0x20\n        /* \"#utility.yul\":8841:8847   */\n      dup3\n        /* \"#utility.yul\":8838:8852   */\n      lt\n        /* \"#utility.yul\":8818:8836   */\n      dup2\n        /* \"#utility.yul\":8815:8853   */\n      sub\n        /* \"#utility.yul\":8812:8896   */\n      tag_200\n      jumpi\n        /* \"#utility.yul\":8868:8886   */\n      tag_201\n      tag_80\n      jump\t// in\n    tag_201:\n        /* \"#utility.yul\":8812:8896   */\n    tag_200:\n        /* \"#utility.yul\":8633:8902   */\n      pop\n        /* \"#utility.yul\":8582:8902   */\n      swap2\n      swap1\n      pop\n      jump\t// out\n        /* \"#utility.yul\":8908:9049   */\n    tag_81:\n        /* \"#utility.yul\":8957:8961   */\n      0x00\n        /* \"#utility.yul\":8980:8983   */\n      dup2\n        /* \"#utility.yul\":8972:8983   */\n      swap1\n      pop\n        /* \"#utility.yul\":9003:9006   */\n      dup2\n        /* \"#utility.yul\":9000:9001   */\n      0x00\n        /* \"#utility.yul\":8993:9007   */\n      mstore\n        /* \"#utility.yul\":9037:9041   */\n      0x20\n        /* \"#utility.yul\":9034:9035   */\n      0x00\n        /* \"#utility.yul\":9024:9042   */\n      keccak256\n        /* \"#utility.yul\":9016:9042   */\n      swap1\n      pop\n        /* \"#utility.yul\":8908:9049   */\n      swap2\n      swap1\n      pop\n      jump\t// out\n        /* \"#utility.yul\":9055:9148   */\n    tag_82:\n        /* \"#utility.yul\":9092:9098   */\n      0x00\n        /* \"#utility.yul\":9139:9141   */\n      0x20\n        /* \"#utility.yul\":9134:9136   */\n      0x1f\n        /* \"#utility.yul\":9127:9132   */\n      dup4\n        /* \"#utility.yul\":9123:9137   */\n      add\n        /* \"#utility.yul\":9119:9142   */\n      div\n        /* \"#utility.yul\":9109:9142   */\n      swap1\n      pop\n        /* \"#utility.yul\":9055:9148   */\n      swap2\n      swap1\n      pop\n      jump\t// out\n        /* \"#utility.yul\":9154:9261   */\n    tag_83:\n        /* \"#utility.yul\":9198:9206   */\n      0x00\n        /* \"#utility.yul\":9248:9253   */\n      dup3\n        /* \"#utility.yul\":9242:9246   */\n      dup3\n        /* \"#utility.yul\":9238:9254   */\n      shl\n        /* \"#utility.yul\":9217:9254   */\n      swap1\n      pop\n        /* \"#utility.yul\":9154:9261   */\n      swap3\n      swap2\n      pop\n      pop\n      jump\t// out\n        /* \"#utility.yul\":9267:9660   */\n    tag_84:\n        /* \"#utility.yul\":9336:9342   */\n      0x00\n        /* \"#utility.yul\":9386:9387   */\n      0x08\n        /* \"#utility.yul\":9374:9384   */\n      dup4\n        /* \"#utility.yul\":9370:9388   */\n      mul\n        /* \"#utility.yul\":9409:9506   */\n      tag_206\n        /* \"#utility.yul\":9439:9505   */\n      0xffffffffffffffffffffffffffffffffffffffffffffffffffffffffffffffff\n        /* \"#utility.yul\":9428:9437   */\n      dup3\n        /* \"#utility.yul\":9409:9506   */\n      tag_83\n      jump\t// in\n    tag_206:\n        /* \"#utility.yul\":9527:9566   */\n      tag_207\n        /* \"#utility.yul\":9557:9565   */\n      dup7\n        /* \"#utility.yul\":9546:9555   */\n      dup4\n        /* \"#utility.yul\":9527:9566   */\n      tag_83\n      jump\t// in\n    tag_207:\n        /* \"#utility.yul\":9515:9566   */\n      swap6\n      pop\n        /* \"#utility.yul\":9599:9603   */\n      dup1\n        /* \"#utility.yul\":9595:9604   */\n      not\n        /* \"#utility.yul\":9588:9593   */\n      dup5\n        /* \"#utility.yul\":9584:9605   */\n      and\n        /* \"#utility.yul\":9575:9605   */\n      swap4\n      pop\n        /* \"#utility.yul\":9648:9652   */\n      dup1\n        /* \"#utility.yul\":9638:9646   */\n      dup7\n        /* \"#utility.yul\":9634:9653   */\n      and\n        /* \"#utility.yul\":9627:9632   */\n      dup5\n        /* \"#utility.yul\":9624:9654   */\n      or\n        /* \"#utility.yul\":9614:9654   */\n      swap3\n      pop\n        /* \"#utility.yul\":9343:9660   */\n      pop\n      pop\n        /* \"#utility.yul\":9267:9660   */\n      swap4\n      swap3\n      pop\n      pop\n      pop\n      jump\t// out\n        /* \"#utility.yul\":9666:9726   */\n    tag_85:\n        /* \"#utility.yul\":9694:9697   */\n      0x00\n        /* \"#utility.yul\":9715:9720   */\n      dup2\n        /* \"#utility.yul\":9708:9720   */\n      swap1\n      pop\n        /* \"#utility.yul\":9666:9726   */\n      swap2\n      swap1\n      pop\n      jump\t// out\n        /* \"#utility.yul\":9732:9874   */\n    tag_86:\n        /* \"#utility.yul\":9782:9791   */\n      0x00\n        /* \"#utility.yul\":9815:9868   */\n      tag_210\n        /* \"#utility.yul\":9833:9867   */\n      tag_211\n        /* \"#utility.yul\":9842:9866   */\n      tag_212\n        /* \"#utility.yul\":9860:9865   */\n      dup5\n        /* \"#utility.yul\":9842:9866   */\n      tag_52\n      jump\t// in\n    tag_212:\n        /* \"#utility.yul\":9833:9867   */\n      tag_85\n      jump\t// in\n    tag_211:\n        /* \"#utility.yul\":9815:9868   */\n      tag_52\n      jump\t// in\n    tag_210:\n        /* \"#utility.yul\":9802:9868   */\n      swap1\n      pop\n        /* \"#utility.yul\":9732:9874   */\n      swap2\n      swap1\n      pop\n      jump\t// out\n        /* \"#utility.yul\":9880:9955   */\n    tag_87:\n        /* \"#utility.yul\":9923:9926   */\n      0x00\n        /* \"#utility.yul\":9944:9949   */\n      dup2\n        /* \"#utility.yul\":9937:9949   */\n      swap1\n      pop\n        /* \"#utility.yul\":9880:9955   */\n      swap2\n      swap1\n      pop\n      jump\t// out\n        /* \"#utility.yul\":9961:10230   */\n    tag_88:\n        /* \"#utility.yul\":10071:10110   */\n      tag_215\n        /* \"#utility.yul\":10102:10109   */\n      dup4\n        /* \"#utility.yul\":10071:10110   */\n      tag_86\n      jump\t// in\n    tag_215:\n        /* \"#utility.yul\":10132:10223   */\n      tag_216\n        /* \"#utility.yul\":10181:10222   */\n      tag_217\n        /* \"#utility.yul\":10205:10221   */\n      dup3\n        /* \"#utility.yul\":10181:10222   */\n      tag_87\n      jump\t// in\n    tag_217:\n        /* \"#utility.yul\":10173:10179   */\n      dup5\n        /* \"#utility.yul\":10166:10170   */\n      dup5\n        /* \"#utility.yul\":10160:10171   */\n      sload\n        /* \"#utility.yul\":10132:10223   */\n      tag_84\n      jump\t// in\n    tag_216:\n        /* \"#utility.yul\":10126:10130   */\n      dup3\n        /* \"#utility.yul\":10119:10224   */\n      sstore\n        /* \"#utility.yul\":10037:10230   */\n      pop\n        /* \"#utility.yul\":9961:10230   */\n      pop\n      pop\n      pop\n      jump\t// out\n        /* \"#utility.yul\":10236:10309   */\n    tag_89:\n        /* \"#utility.yul\":10281:10284   */\n      0x00\n        /* \"#utility.yul\":10236:10309   */\n      swap1\n      jump\t// out\n        /* \"#utility.yul\":10315:10504   */\n    tag_90:\n        /* \"#utility.yul\":10392:10424   */\n      tag_220\n      tag_89\n      jump\t// in\n    tag_220:\n        /* \"#utility.yul\":10433:10498   */\n      tag_221\n        /* \"#utility.yul\":10491:10497   */\n      dup2\n        /* \"#utility.yul\":10483:10489   */\n      dup5\n        /* \"#utility.yul\":10477:10481   */\n      dup5\n        /* \"#utility.yul\":10433:10498   */\n      tag_88\n      jump\t// in\n    tag_221:\n        /* \"#utility.yul\":10368:10504   */\n      pop\n        /* \"#utility.yul\":10315:10504   */\n      pop\n      pop\n      jump\t// out\n        /* \"#utility.yul\":10510:10696   */\n    tag_91:\n        /* \"#utility.yul\":10570:10690   */\n    tag_223:\n        /* \"#utility.yul\":10587:10590   */\n      dup2\n        /* \"#utility.yul\":10580:10585   */\n      dup2\n        /* \"#utility.yul\":10577:10591   */\n      lt\n        /* \"#utility.yul\":10570:10690   */\n      iszero\n      tag_225\n      jumpi\n        /* \"#utility.yul\":10641:10680   */\n      tag_226\n        /* \"#utility.yul\":10678:10679   */\n      0x00\n        /* \"#utility.yul\":10671:10676   */\n      dup3\n        /* \"#utility.yul\":10641:10680   */\n      tag_90\n      jump\t// in\n    tag_226:\n        /* \"#utility.yul\":10614:10615   */\n      0x01\n        /* \"#utility.yul\":10607:10612   */\n      dup2\n        /* \"#utility.yul\":10603:10616   */\n      add\n        /* \"#utility.yul\":10594:10616   */\n      swap1\n      pop\n        /* \"#utility.yul\":10570:10690   */\n      jump(tag_223)\n    tag_225:\n        /* \"#utility.yul\":10510:10696   */\n      pop\n      pop\n      jump\t// out\n        /* \"#utility.yul\":10702:11245   */\n    tag_92:\n        /* \"#utility.yul\":10803:10805   */\n      0x1f\n        /* \"#utility.yul\":10798:10801   */\n      dup3\n        /* \"#utility.yul\":10795:10806   */\n      gt\n        /* \"#utility.yul\":10792:11238   */\n      iszero\n      tag_228\n      jumpi\n        /* \"#utility.yul\":10837:10875   */\n      tag_229\n        /* \"#utility.yul\":10869:10874   */\n      dup2\n        /* \"#utility.yul\":10837:10875   */\n      tag_81\n      jump\t// in\n    tag_229:\n        /* \"#utility.yul\":10921:10950   */\n      tag_230\n        /* \"#utility.yul\":10939:10949   */\n      dup5\n        /* \"#utility.yul\":10921:10950   */\n      tag_82\n      jump\t// in\n    tag_230:\n        /* \"#utility.yul\":10911:10919   */\n      dup2\n        /* \"#utility.yul\":10907:10951   */\n      add\n        /* \"#utility.yul\":11104:11106   */\n      0x20\n        /* \"#utility.yul\":11092:11102   */\n      dup6\n        /* \"#utility.yul\":11089:11107   */\n      lt\n        /* \"#utility.yul\":11086:11135   */\n      iszero\n      tag_231\n      jumpi\n        /* \"#utility.yul\":11125:11133   */\n      dup2\n        /* \"#utility.yul\":11110:11133   */\n      swap1\n      pop\n        /* \"#utility.yul\":11086:11135   */\n    tag_231:\n        /* \"#utility.yul\":11148:11228   */\n      tag_232\n        /* \"#utility.yul\":11204:11226   */\n      tag_233\n        /* \"#utility.yul\":11222:11225   */\n      dup6\n        /* \"#utility.yul\":11204:11226   */\n      tag_82\n      jump\t// in\n    tag_233:\n        /* \"#utility.yul\":11194:11202   */\n      dup4\n        /* \"#utility.yul\":11190:11227   */\n      add\n        /* \"#utility.yul\":11177:11188   */\n      dup3\n        /* \"#utility.yul\":11148:11228   */\n      tag_91\n      jump\t// in\n    tag_232:\n        /* \"#utility.yul\":10807:11238   */\n      pop\n      pop\n        /* \"#utility.yul\":10792:11238   */\n    tag_228:\n        /* \"#utility.yul\":10702:11245   */\n      pop\n      pop\n      pop\n      jump\t// out\n        /* \"#utility.yul\":11251:11368   */\n    tag_93:\n        /* \"#utility.yul\":11305:11313   */\n      0x00\n        /* \"#utility.yul\":11355:11360   */\n      dup3\n        /* \"#utility.yul\":11349:11353   */\n      dup3\n        /* \"#utility.yul\":11345:11361   */\n      shr\n        /* \"#utility.yul\":11324:11361   */\n      swap1\n      pop\n        /* \"#utility.yul\":11251:11368   */\n      swap3\n      swap2\n      pop\n      pop\n      jump\t// out\n        /* \"#utility.yul\":11374:11543   */\n    tag_94:\n        /* \"#utility.yul\":11418:11424   */\n      0x00\n        /* \"#utility.yul\":11451:11502   */\n      tag_236\n        /* \"#utility.yul\":11499:11500   */\n      0x00\n        /* \"#utility.yul\":11495:11501   */\n      not\n        /* \"#utility.yul\":11487:11492   */\n      dup5\n        /* \"#utility.yul\":11484:11485   */\n      0x08\n        /* \"#utility.yul\":11480:11493   */\n      mul\n        /* \"#utility.yul\":11451:11502   */\n      tag_93\n      jump\t// in\n    tag_236:\n        /* \"#utility.yul\":11447:11503   */\n      not\n        /* \"#utility.yul\":11532:11536   */\n      dup1\n        /* \"#utility.yul\":11526:11530   */\n      dup4\n        /* \"#utility.yul\":11522:11537   */\n      and\n        /* \"#utility.yul\":11512:11537   */\n      swap2\n      pop\n        /* \"#utility.yul\":11425:11543   */\n      pop\n        /* \"#utility.yul\":11374:11543   */\n      swap3\n      swap2\n      pop\n      pop\n      jump\t// out\n        /* \"#utility.yul\":11548:11843   */\n    tag_95:\n        /* \"#utility.yul\":11624:11628   */\n      0x00\n        /* \"#utility.yul\":11770:11799   */\n      tag_238\n        /* \"#utility.yul\":11795:11798   */\n      dup4\n        /* \"#utility.yul\":11789:11793   */\n      dup4\n        /* \"#utility.yul\":11770:11799   */\n      tag_94\n      jump\t// in\n    tag_238:\n        /* \"#utility.yul\":11762:11799   */\n      swap2\n      pop\n        /* \"#utility.yul\":11832:11835   */\n      dup3\n        /* \"#utility.yul\":11829:11830   */\n      0x02\n        /* \"#utility.yul\":11825:11836   */\n      mul\n        /* \"#utility.yul\":11819:11823   */\n      dup3\n        /* \"#utility.yul\":11816:11837   */\n      or\n        /* \"#utility.yul\":11808:11837   */\n      swap1\n      pop\n        /* \"#utility.yul\":11548:11843   */\n      swap3\n      swap2\n      pop\n      pop\n      jump\t// out\n        /* \"#utility.yul\":11848:13243   */\n    tag_48:\n        /* \"#utility.yul\":11965:12002   */\n      tag_240\n        /* \"#utility.yul\":11998:12001   */\n      dup3\n        /* \"#utility.yul\":11965:12002   */\n      tag_61\n      jump\t// in\n    tag_240:\n        /* \"#utility.yul\":12067:12085   */\n      0xffffffffffffffff\n        /* \"#utility.yul\":12059:12065   */\n      dup2\n        /* \"#utility.yul\":12056:12086   */\n      gt\n        /* \"#utility.yul\":12053:12109   */\n      iszero\n      tag_241\n      jumpi\n        /* \"#utility.yul\":12089:12107   */\n      tag_242\n      tag_73\n      jump\t// in\n    tag_242:\n        /* \"#utility.yul\":12053:12109   */\n    tag_241:\n        /* \"#utility.yul\":12133:12171   */\n      tag_243\n        /* \"#utility.yul\":12165:12169   */\n      dup3\n        /* \"#utility.yul\":12159:12170   */\n      sload\n        /* \"#utility.yul\":12133:12171   */\n      tag_40\n      jump\t// in\n    tag_243:\n        /* \"#utility.yul\":12218:12285   */\n      tag_244\n        /* \"#utility.yul\":12278:12284   */\n      dup3\n        /* \"#utility.yul\":12270:12276   */\n      dup3\n        /* \"#utility.yul\":12264:12268   */\n      dup6\n        /* \"#utility.yul\":12218:12285   */\n      tag_92\n      jump\t// in\n    tag_244:\n        /* \"#utility.yul\":12312:12313   */\n      0x00\n        /* \"#utility.yul\":12336:12340   */\n      0x20\n        /* \"#utility.yul\":12323:12340   */\n      swap1\n      pop\n        /* \"#utility.yul\":12368:12370   */\n      0x1f\n        /* \"#utility.yul\":12360:12366   */\n      dup4\n        /* \"#utility.yul\":12357:12371   */\n      gt\n        /* \"#utility.yul\":12385:12386   */\n      0x01\n        /* \"#utility.yul\":12380:12998   */\n      dup2\n      eq\n      tag_246\n      jumpi\n        /* \"#utility.yul\":13042:13043   */\n      0x00\n        /* \"#utility.yul\":13059:13065   */\n      dup5\n        /* \"#utility.yul\":13056:13133   */\n      iszero\n      tag_247\n      jumpi\n        /* \"#utility.yul\":13108:13117   */\n      dup3\n        /* \"#utility.yul\":13103:13106   */\n      dup8\n        /* \"#utility.yul\":13099:13118   */\n      add\n        /* \"#utility.yul\":13093:13119   */\n      mload\n        /* \"#utility.yul\":13084:13119   */\n      swap1\n      pop\n        /* \"#utility.yul\":13056:13133   */\n    tag_247:\n        /* \"#utility.yul\":13159:13226   */\n      tag_248\n        /* \"#utility.yul\":13219:13225   */\n      dup6\n        /* \"#utility.yul\":13212:13217   */\n      dup3\n        /* \"#utility.yul\":13159:13226   */\n      tag_95\n      jump\t// in\n    tag_248:\n        /* \"#utility.yul\":13153:13157   */\n      dup7\n        /* \"#utility.yul\":13146:13227   */\n      sstore\n        /* \"#utility.yul\":13015:13237   */\n      pop\n        /* \"#utility.yul\":12350:13237   */\n      jump(tag_245)\n        /* \"#utility.yul\":12380:12998   */\n    tag_246:\n        /* \"#utility.yul\":12432:12436   */\n      0x1f\n        /* \"#utility.yul\":12428:12437   */\n      not\n        /* \"#utility.yul\":12420:12426   */\n      dup5\n        /* \"#utility.yul\":12416:12438   */\n      and\n        /* \"#utility.yul\":12466:12503   */\n      tag_249\n        /* \"#utility.yul\":12498:12502   */\n      dup7\n        /* \"#utility.yul\":12466:12503   */\n      tag_81\n      jump\t// in\n    tag_249:\n        /* \"#utility.yul\":12525:12526   */\n      0x00\n        /* \"#utility.yul\":12539:12747   */\n    tag_250:\n        /* \"#utility.yul\":12553:12560   */\n      dup3\n        /* \"#utility.yul\":12550:12551   */\n      dup2\n        /* \"#utility.yul\":12547:12561   */\n      lt\n        /* \"#utility.yul\":12539:12747   */\n      iszero\n      tag_252\n      jumpi\n        /* \"#utility.yul\":12632:12641   */\n      dup5\n        /* \"#utility.yul\":12627:12630   */\n      dup10\n        /* \"#utility.yul\":12623:12642   */\n      add\n        /* \"#utility.yul\":12617:12643   */\n      mload\n        /* \"#utility.yul\":12609:12615   */\n      dup3\n        /* \"#utility.yul\":12602:12644   */\n      sstore\n        /* \"#utility.yul\":12683:12684   */\n      0x01\n        /* \"#utility.yul\":12675:12681   */\n      dup3\n        /* \"#utility.yul\":12671:12685   */\n      add\n        /* \"#utility.yul\":12661:12685   */\n      swap2\n      pop\n        /* \"#utility.yul\":12730:12732   */\n      0x20\n        /* \"#utility.yul\":12719:12728   */\n      dup6\n        /* \"#utility.yul\":12715:12733   */\n      add\n        /* \"#utility.yul\":12702:12733   */\n      swap5\n      pop\n        /* \"#utility.yul\":12576:12580   */\n      0x20\n        /* \"#utility.yul\":12573:12574   */\n      dup2\n        /* \"#utility.yul\":12569:12581   */\n      add\n        /* \"#utility.yul\":12564:12581   */\n      swap1\n      pop\n        /* \"#utility.yul\":12539:12747   */\n      jump(tag_250)\n    tag_252:\n        /* \"#utility.yul\":12775:12781   */\n      dup7\n        /* \"#utility.yul\":12766:12773   */\n      dup4\n        /* \"#utility.yul\":12763:12782   */\n      lt\n        /* \"#utility.yul\":12760:12939   */\n      iszero\n      tag_253\n      jumpi\n        /* \"#utility.yul\":12833:12842   */\n      dup5\n        /* \"#utility.yul\":12828:12831   */\n      dup10\n        /* \"#utility.yul\":12824:12843   */\n      add\n        /* \"#utility.yul\":12818:12844   */\n      mload\n        /* \"#utility.yul\":12876:12924   */\n      tag_254\n        /* \"#utility.yul\":12918:12922   */\n      0x1f\n        /* \"#utility.yul\":12910:12916   */\n      dup10\n        /* \"#utility.yul\":12906:12923   */\n      and\n        /* \"#utility.yul\":12895:12904   */\n      dup3\n        /* \"#utility.yul\":12876:12924   */\n      tag_94\n      jump\t// in\n    tag_254:\n        /* \"#utility.yul\":12868:12874   */\n      dup4\n        /* \"#utility.yul\":12861:12925   */\n      sstore\n        /* \"#utility.yul\":12783:12939   */\n      pop\n        /* \"#utility.yul\":12760:12939   */\n    tag_253:\n        /* \"#utility.yul\":12985:12986   */\n      0x01\n        /* \"#utility.yul\":12981:12982   */\n      0x02\n        /* \"#utility.yul\":12973:12979   */\n      dup9\n        /* \"#utility.yul\":12969:12983   */\n      mul\n        /* \"#utility.yul\":12965:12987   */\n      add\n        /* \"#utility.yul\":12959:12963   */\n      dup9\n        /* \"#utility.yul\":12952:12988   */\n      sstore\n        /* \"#utility.yul\":12387:12998   */\n      pop\n      pop\n      pop\n        /* \"#utility.yul\":12350:13237   */\n    tag_245:\n      pop\n        /* \"#utility.yul\":11940:13243   */\n      pop\n      pop\n      pop\n        /* \"#utility.yul\":11848:13243   */\n      pop\n      pop\n      jump\t// out\n\n    auxdata: 0xa264697066735822122035405ba3d081c5e246a614119cdf5be34974ca0600120732b92535ec140b3c0e64736f6c63430008150033\n}\n",
				"bytecode": {
					"linkReferences": {},
					"object": "608060405234801561000f575f80fd5b50610a808061001d5f395ff3fe608060405234801561000f575f80fd5b5060043610610055575f3560e01c80634f6670cc1461005957806350a7f67514610075578063989d12b614610091578063c2bc2efc146100c2578063ec07c2d1146100f2575b5f80fd5b610073600480360381019061006e91906103b3565b61010e565b005b61008f600480360381019061008a9190610414565b610157565b005b6100ab60048036038101906100a69190610452565b6101be565b6040516100b9929190610516565b60405180910390f35b6100dc60048036038101906100d79190610544565b610273565b6040516100e991906105e2565b60405180910390f35b61010c60048036038101906101079190610727565b6102c4565b005b8160015f8373ffffffffffffffffffffffffffffffffffffffff1673ffffffffffffffffffffffffffffffffffffffff1681526020019081526020015f20600101819055505050565b815f808373ffffffffffffffffffffffffffffffffffffffff1673ffffffffffffffffffffffffffffffffffffffff1681526020019081526020015f205f6101000a81548160ff021916908360038111156101b5576101b461056f565b5b02179055505050565b600281815481106101cd575f80fd5b905f5260205f2090600202015f91509050805f0180546101ec906107ae565b80601f0160208091040260200160405190810160405280929190818152602001828054610218906107ae565b80156102635780601f1061023a57610100808354040283529160200191610263565b820191905f5260205f20905b81548152906001019060200180831161024657829003601f168201915b5050505050908060010154905082565b5f805f8373ffffffffffffffffffffffffffffffffffffffff1673ffffffffffffffffffffffffffffffffffffffff1681526020019081526020015f205f9054906101000a900460ff169050919050565b8160015f8373ffffffffffffffffffffffffffffffffffffffff1673ffffffffffffffffffffffffffffffffffffffff1681526020019081526020015f205f019081610310919061097b565b505050565b5f604051905090565b5f80fd5b5f80fd5b5f819050919050565b61033881610326565b8114610342575f80fd5b50565b5f813590506103538161032f565b92915050565b5f73ffffffffffffffffffffffffffffffffffffffff82169050919050565b5f61038282610359565b9050919050565b61039281610378565b811461039c575f80fd5b50565b5f813590506103ad81610389565b92915050565b5f80604083850312156103c9576103c861031e565b5b5f6103d685828601610345565b92505060206103e78582860161039f565b9150509250929050565b600481106103fd575f80fd5b50565b5f8135905061040e816103f1565b92915050565b5f806040838503121561042a5761042961031e565b5b5f61043785828601610400565b92505060206104488582860161039f565b9150509250929050565b5f602082840312156104675761046661031e565b5b5f61047484828501610345565b91505092915050565b5f81519050919050565b5f82825260208201905092915050565b5f5b838110156104b4578082015181840152602081019050610499565b5f8484015250505050565b5f601f19601f8301169050919050565b5f6104d98261047d565b6104e38185610487565b93506104f3818560208601610497565b6104fc816104bf565b840191505092915050565b61051081610326565b82525050565b5f6040820190508181035f83015261052e81856104cf565b905061053d6020830184610507565b9392505050565b5f602082840312156105595761055861031e565b5b5f6105668482850161039f565b91505092915050565b7f4e487b71000000000000000000000000000000000000000000000000000000005f52602160045260245ffd5b600481106105ad576105ac61056f565b5b50565b5f8190506105bd8261059c565b919050565b5f6105cc826105b0565b9050919050565b6105dc816105c2565b82525050565b5f6020820190506105f55f8301846105d3565b92915050565b5f80fd5b5f80fd5b7f4e487b71000000000000000000000000000000000000000000000000000000005f52604160045260245ffd5b610639826104bf565b810181811067ffffffffffffffff8211171561065857610657610603565b5b80604052505050565b5f61066a610315565b90506106768282610630565b919050565b5f67ffffffffffffffff82111561069557610694610603565b5b61069e826104bf565b9050602081019050919050565b828183375f83830152505050565b5f6106cb6106c68461067b565b610661565b9050828152602081018484840111156106e7576106e66105ff565b5b6106f28482856106ab565b509392505050565b5f82601f83011261070e5761070d6105fb565b5b813561071e8482602086016106b9565b91505092915050565b5f806040838503121561073d5761073c61031e565b5b5f83013567ffffffffffffffff81111561075a57610759610322565b5b610766858286016106fa565b92505060206107778582860161039f565b9150509250929050565b7f4e487b71000000000000000000000000000000000000000000000000000000005f52602260045260245ffd5b5f60028204905060018216806107c557607f821691505b6020821081036107d8576107d7610781565b5b50919050565b5f819050815f5260205f209050919050565b5f6020601f8301049050919050565b5f82821b905092915050565b5f6008830261083a7fffffffffffffffffffffffffffffffffffffffffffffffffffffffffffffffff826107ff565b61084486836107ff565b95508019841693508086168417925050509392505050565b5f819050919050565b5f61087f61087a61087584610326565b61085c565b610326565b9050919050565b5f819050919050565b61089883610865565b6108ac6108a482610886565b84845461080b565b825550505050565b5f90565b6108c06108b4565b6108cb81848461088f565b505050565b5b818110156108ee576108e35f826108b8565b6001810190506108d1565b5050565b601f82111561093357610904816107de565b61090d846107f0565b8101602085101561091c578190505b610930610928856107f0565b8301826108d0565b50505b505050565b5f82821c905092915050565b5f6109535f1984600802610938565b1980831691505092915050565b5f61096b8383610944565b9150826002028217905092915050565b6109848261047d565b67ffffffffffffffff81111561099d5761099c610603565b5b6109a782546107ae565b6109b28282856108f2565b5f60209050601f8311600181146109e3575f84156109d1578287015190505b6109db8582610960565b865550610a42565b601f1984166109f1866107de565b5f5b82811015610a18578489015182556001820191506020850194506020810190506109f3565b86831015610a355784890151610a31601f891682610944565b8355505b6001600288020188555050505b50505050505056fea264697066735822122035405ba3d081c5e246a614119cdf5be34974ca0600120732b92535ec140b3c0e64736f6c63430008150033",
					"opcodes": "PUSH1 0x80 PUSH1 0x40 MSTORE CALLVALUE DUP1 ISZERO PUSH2 0xF JUMPI PUSH0 DUP1 REVERT JUMPDEST POP PUSH2 0xA80 DUP1 PUSH2 0x1D PUSH0 CODECOPY PUSH0 RETURN INVALID PUSH1 0x80 PUSH1 0x40 MSTORE CALLVALUE DUP1 ISZERO PUSH2 0xF JUMPI PUSH0 DUP1 REVERT JUMPDEST POP PUSH1 0x4 CALLDATASIZE LT PUSH2 0x55 JUMPI PUSH0 CALLDATALOAD PUSH1 0xE0 SHR DUP1 PUSH4 0x4F6670CC EQ PUSH2 0x59 JUMPI DUP1 PUSH4 0x50A7F675 EQ PUSH2 0x75 JUMPI DUP1 PUSH4 0x989D12B6 EQ PUSH2 0x91 JUMPI DUP1 PUSH4 0xC2BC2EFC EQ PUSH2 0xC2 JUMPI DUP1 PUSH4 0xEC07C2D1 EQ PUSH2 0xF2 JUMPI JUMPDEST PUSH0 DUP1 REVERT JUMPDEST PUSH2 0x73 PUSH1 0x4 DUP1 CALLDATASIZE SUB DUP2 ADD SWAP1 PUSH2 0x6E SWAP2 SWAP1 PUSH2 0x3B3 JUMP JUMPDEST PUSH2 0x10E JUMP JUMPDEST STOP JUMPDEST PUSH2 0x8F PUSH1 0x4 DUP1 CALLDATASIZE SUB DUP2 ADD SWAP1 PUSH2 0x8A SWAP2 SWAP1 PUSH2 0x414 JUMP JUMPDEST PUSH2 0x157 JUMP JUMPDEST STOP JUMPDEST PUSH2 0xAB PUSH1 0x4 DUP1 CALLDATASIZE SUB DUP2 ADD SWAP1 PUSH2 0xA6 SWAP2 SWAP1 PUSH2 0x452 JUMP JUMPDEST PUSH2 0x1BE JUMP JUMPDEST PUSH1 0x40 MLOAD PUSH2 0xB9 SWAP3 SWAP2 SWAP1 PUSH2 0x516 JUMP JUMPDEST PUSH1 0x40 MLOAD DUP1 SWAP2 SUB SWAP1 RETURN JUMPDEST PUSH2 0xDC PUSH1 0x4 DUP1 CALLDATASIZE SUB DUP2 ADD SWAP1 PUSH2 0xD7 SWAP2 SWAP1 PUSH2 0x544 JUMP JUMPDEST PUSH2 0x273 JUMP JUMPDEST PUSH1 0x40 MLOAD PUSH2 0xE9 SWAP2 SWAP1 PUSH2 0x5E2 JUMP JUMPDEST PUSH1 0x40 MLOAD DUP1 SWAP2 SUB SWAP1 RETURN JUMPDEST PUSH2 0x10C PUSH1 0x4 DUP1 CALLDATASIZE SUB DUP2 ADD SWAP1 PUSH2 0x107 SWAP2 SWAP1 PUSH2 0x727 JUMP JUMPDEST PUSH2 0x2C4 JUMP JUMPDEST STOP JUMPDEST DUP2 PUSH1 0x1 PUSH0 DUP4 PUSH20 0xFFFFFFFFFFFFFFFFFFFFFFFFFFFFFFFFFFFFFFFF AND PUSH20 0xFFFFFFFFFFFFFFFFFFFFFFFFFFFFFFFFFFFFFFFF AND DUP2 MSTORE PUSH1 0x20 ADD SWAP1 DUP2 MSTORE PUSH1 0x20 ADD PUSH0 KECCAK256 PUSH1 0x1 ADD DUP2 SWAP1 SSTORE POP POP POP JUMP JUMPDEST DUP2 PUSH0 DUP1 DUP4 PUSH20 0xFFFFFFFFFFFFFFFFFFFFFFFFFFFFFFFFFFFFFFFF AND PUSH20 0xFFFFFFFFFFFFFFFFFFFFFFFFFFFFFFFFFFFFFFFF AND DUP2 MSTORE PUSH1 0x20 ADD SWAP1 DUP2 MSTORE PUSH1 0x20 ADD PUSH0 KECCAK256 PUSH0 PUSH2 0x100 EXP DUP2 SLOAD DUP2 PUSH1 0xFF MUL NOT AND SWAP1 DUP4 PUSH1 0x3 DUP2 GT ISZERO PUSH2 0x1B5 JUMPI PUSH2 0x1B4 PUSH2 0x56F JUMP JUMPDEST JUMPDEST MUL OR SWAP1 SSTORE POP POP POP JUMP JUMPDEST PUSH1 0x2 DUP2 DUP2 SLOAD DUP2 LT PUSH2 0x1CD JUMPI PUSH0 DUP1 REVERT JUMPDEST SWAP1 PUSH0 MSTORE PUSH1 0x20 PUSH0 KECCAK256 SWAP1 PUSH1 0x2 MUL ADD PUSH0 SWAP2 POP SWAP1 POP DUP1 PUSH0 ADD DUP1 SLOAD PUSH2 0x1EC SWAP1 PUSH2 0x7AE JUMP JUMPDEST DUP1 PUSH1 0x1F ADD PUSH1 0x20 DUP1 SWAP2 DIV MUL PUSH1 0x20 ADD PUSH1 0x40 MLOAD SWAP1 DUP2 ADD PUSH1 0x40 MSTORE DUP1 SWAP3 SWAP2 SWAP1 DUP2 DUP2 MSTORE PUSH1 0x20 ADD DUP3 DUP1 SLOAD PUSH2 0x218 SWAP1 PUSH2 0x7AE JUMP JUMPDEST DUP1 ISZERO PUSH2 0x263 JUMPI DUP1 PUSH1 0x1F LT PUSH2 0x23A JUMPI PUSH2 0x100 DUP1 DUP4 SLOAD DIV MUL DUP4 MSTORE SWAP2 PUSH1 0x20 ADD SWAP2 PUSH2 0x263 JUMP JUMPDEST DUP3 ADD SWAP2 SWAP1 PUSH0 MSTORE PUSH1 0x20 PUSH0 KECCAK256 SWAP1 JUMPDEST DUP2 SLOAD DUP2 MSTORE SWAP1 PUSH1 0x1 ADD SWAP1 PUSH1 0x20 ADD DUP1 DUP4 GT PUSH2 0x246 JUMPI DUP3 SWAP1 SUB PUSH1 0x1F AND DUP3 ADD SWAP2 JUMPDEST POP POP POP POP POP SWAP1 DUP1 PUSH1 0x1 ADD SLOAD SWAP1 POP DUP3 JUMP JUMPDEST PUSH0 DUP1 PUSH0 DUP4 PUSH20 0xFFFFFFFFFFFFFFFFFFFFFFFFFFFFFFFFFFFFFFFF AND PUSH20 0xFFFFFFFFFFFFFFFFFFFFFFFFFFFFFFFFFFFFFFFF AND DUP2 MSTORE PUSH1 0x20 ADD SWAP1 DUP2 MSTORE PUSH1 0x20 ADD PUSH0 KECCAK256 PUSH0 SWAP1 SLOAD SWAP1 PUSH2 0x100 EXP SWAP1 DIV PUSH1 0xFF AND SWAP1 POP SWAP2 SWAP1 POP JUMP JUMPDEST DUP2 PUSH1 0x1 PUSH0 DUP4 PUSH20 0xFFFFFFFFFFFFFFFFFFFFFFFFFFFFFFFFFFFFFFFF AND PUSH20 0xFFFFFFFFFFFFFFFFFFFFFFFFFFFFFFFFFFFFFFFF AND DUP2 MSTORE PUSH1 0x20 ADD SWAP1 DUP2 MSTORE PUSH1 0x20 ADD PUSH0 KECCAK256 PUSH0 ADD SWAP1 DUP2 PUSH2 0x310 SWAP2 SWAP1 PUSH2 0x97B JUMP JUMPDEST POP POP POP JUMP JUMPDEST PUSH0 PUSH1 0x40 MLOAD SWAP1 POP SWAP1 JUMP JUMPDEST PUSH0 DUP1 REVERT JUMPDEST PUSH0 DUP1 REVERT JUMPDEST PUSH0 DUP2 SWAP1 POP SWAP2 SWAP1 POP JUMP JUMPDEST PUSH2 0x338 DUP2 PUSH2 0x326 JUMP JUMPDEST DUP2 EQ PUSH2 0x342 JUMPI PUSH0 DUP1 REVERT JUMPDEST POP JUMP JUMPDEST PUSH0 DUP2 CALLDATALOAD SWAP1 POP PUSH2 0x353 DUP2 PUSH2 0x32F JUMP JUMPDEST SWAP3 SWAP2 POP POP JUMP JUMPDEST PUSH0 PUSH20 0xFFFFFFFFFFFFFFFFFFFFFFFFFFFFFFFFFFFFFFFF DUP3 AND SWAP1 POP SWAP2 SWAP1 POP JUMP JUMPDEST PUSH0 PUSH2 0x382 DUP3 PUSH2 0x359 JUMP JUMPDEST SWAP1 POP SWAP2 SWAP1 POP JUMP JUMPDEST PUSH2 0x392 DUP2 PUSH2 0x378 JUMP JUMPDEST DUP2 EQ PUSH2 0x39C JUMPI PUSH0 DUP1 REVERT JUMPDEST POP JUMP JUMPDEST PUSH0 DUP2 CALLDATALOAD SWAP1 POP PUSH2 0x3AD DUP2 PUSH2 0x389 JUMP JUMPDEST SWAP3 SWAP2 POP POP JUMP JUMPDEST PUSH0 DUP1 PUSH1 0x40 DUP4 DUP6 SUB SLT ISZERO PUSH2 0x3C9 JUMPI PUSH2 0x3C8 PUSH2 0x31E JUMP JUMPDEST JUMPDEST PUSH0 PUSH2 0x3D6 DUP6 DUP3 DUP7 ADD PUSH2 0x345 JUMP JUMPDEST SWAP3 POP POP PUSH1 0x20 PUSH2 0x3E7 DUP6 DUP3 DUP7 ADD PUSH2 0x39F JUMP JUMPDEST SWAP2 POP POP SWAP3 POP SWAP3 SWAP1 POP JUMP JUMPDEST PUSH1 0x4 DUP2 LT PUSH2 0x3FD JUMPI PUSH0 DUP1 REVERT JUMPDEST POP JUMP JUMPDEST PUSH0 DUP2 CALLDATALOAD SWAP1 POP PUSH2 0x40E DUP2 PUSH2 0x3F1 JUMP JUMPDEST SWAP3 SWAP2 POP POP JUMP JUMPDEST PUSH0 DUP1 PUSH1 0x40 DUP4 DUP6 SUB SLT ISZERO PUSH2 0x42A JUMPI PUSH2 0x429 PUSH2 0x31E JUMP JUMPDEST JUMPDEST PUSH0 PUSH2 0x437 DUP6 DUP3 DUP7 ADD PUSH2 0x400 JUMP JUMPDEST SWAP3 POP POP PUSH1 0x20 PUSH2 0x448 DUP6 DUP3 DUP7 ADD PUSH2 0x39F JUMP JUMPDEST SWAP2 POP POP SWAP3 POP SWAP3 SWAP1 POP JUMP JUMPDEST PUSH0 PUSH1 0x20 DUP3 DUP5 SUB SLT ISZERO PUSH2 0x467 JUMPI PUSH2 0x466 PUSH2 0x31E JUMP JUMPDEST JUMPDEST PUSH0 PUSH2 0x474 DUP5 DUP3 DUP6 ADD PUSH2 0x345 JUMP JUMPDEST SWAP2 POP POP SWAP3 SWAP2 POP POP JUMP JUMPDEST PUSH0 DUP2 MLOAD SWAP1 POP SWAP2 SWAP1 POP JUMP JUMPDEST PUSH0 DUP3 DUP3 MSTORE PUSH1 0x20 DUP3 ADD SWAP1 POP SWAP3 SWAP2 POP POP JUMP JUMPDEST PUSH0 JUMPDEST DUP4 DUP2 LT ISZERO PUSH2 0x4B4 JUMPI DUP1 DUP3 ADD MLOAD DUP2 DUP5 ADD MSTORE PUSH1 0x20 DUP2 ADD SWAP1 POP PUSH2 0x499 JUMP JUMPDEST PUSH0 DUP5 DUP5 ADD MSTORE POP POP POP POP JUMP JUMPDEST PUSH0 PUSH1 0x1F NOT PUSH1 0x1F DUP4 ADD AND SWAP1 POP SWAP2 SWAP1 POP JUMP JUMPDEST PUSH0 PUSH2 0x4D9 DUP3 PUSH2 0x47D JUMP JUMPDEST PUSH2 0x4E3 DUP2 DUP6 PUSH2 0x487 JUMP JUMPDEST SWAP4 POP PUSH2 0x4F3 DUP2 DUP6 PUSH1 0x20 DUP7 ADD PUSH2 0x497 JUMP JUMPDEST PUSH2 0x4FC DUP2 PUSH2 0x4BF JUMP JUMPDEST DUP5 ADD SWAP2 POP POP SWAP3 SWAP2 POP POP JUMP JUMPDEST PUSH2 0x510 DUP2 PUSH2 0x326 JUMP JUMPDEST DUP3 MSTORE POP POP JUMP JUMPDEST PUSH0 PUSH1 0x40 DUP3 ADD SWAP1 POP DUP2 DUP2 SUB PUSH0 DUP4 ADD MSTORE PUSH2 0x52E DUP2 DUP6 PUSH2 0x4CF JUMP JUMPDEST SWAP1 POP PUSH2 0x53D PUSH1 0x20 DUP4 ADD DUP5 PUSH2 0x507 JUMP JUMPDEST SWAP4 SWAP3 POP POP POP JUMP JUMPDEST PUSH0 PUSH1 0x20 DUP3 DUP5 SUB SLT ISZERO PUSH2 0x559 JUMPI PUSH2 0x558 PUSH2 0x31E JUMP JUMPDEST JUMPDEST PUSH0 PUSH2 0x566 DUP5 DUP3 DUP6 ADD PUSH2 0x39F JUMP JUMPDEST SWAP2 POP POP SWAP3 SWAP2 POP POP JUMP JUMPDEST PUSH32 0x4E487B7100000000000000000000000000000000000000000000000000000000 PUSH0 MSTORE PUSH1 0x21 PUSH1 0x4 MSTORE PUSH1 0x24 PUSH0 REVERT JUMPDEST PUSH1 0x4 DUP2 LT PUSH2 0x5AD JUMPI PUSH2 0x5AC PUSH2 0x56F JUMP JUMPDEST JUMPDEST POP JUMP JUMPDEST PUSH0 DUP2 SWAP1 POP PUSH2 0x5BD DUP3 PUSH2 0x59C JUMP JUMPDEST SWAP2 SWAP1 POP JUMP JUMPDEST PUSH0 PUSH2 0x5CC DUP3 PUSH2 0x5B0 JUMP JUMPDEST SWAP1 POP SWAP2 SWAP1 POP JUMP JUMPDEST PUSH2 0x5DC DUP2 PUSH2 0x5C2 JUMP JUMPDEST DUP3 MSTORE POP POP JUMP JUMPDEST PUSH0 PUSH1 0x20 DUP3 ADD SWAP1 POP PUSH2 0x5F5 PUSH0 DUP4 ADD DUP5 PUSH2 0x5D3 JUMP JUMPDEST SWAP3 SWAP2 POP POP JUMP JUMPDEST PUSH0 DUP1 REVERT JUMPDEST PUSH0 DUP1 REVERT JUMPDEST PUSH32 0x4E487B7100000000000000000000000000000000000000000000000000000000 PUSH0 MSTORE PUSH1 0x41 PUSH1 0x4 MSTORE PUSH1 0x24 PUSH0 REVERT JUMPDEST PUSH2 0x639 DUP3 PUSH2 0x4BF JUMP JUMPDEST DUP2 ADD DUP2 DUP2 LT PUSH8 0xFFFFFFFFFFFFFFFF DUP3 GT OR ISZERO PUSH2 0x658 JUMPI PUSH2 0x657 PUSH2 0x603 JUMP JUMPDEST JUMPDEST DUP1 PUSH1 0x40 MSTORE POP POP POP JUMP JUMPDEST PUSH0 PUSH2 0x66A PUSH2 0x315 JUMP JUMPDEST SWAP1 POP PUSH2 0x676 DUP3 DUP3 PUSH2 0x630 JUMP JUMPDEST SWAP2 SWAP1 POP JUMP JUMPDEST PUSH0 PUSH8 0xFFFFFFFFFFFFFFFF DUP3 GT ISZERO PUSH2 0x695 JUMPI PUSH2 0x694 PUSH2 0x603 JUMP JUMPDEST JUMPDEST PUSH2 0x69E DUP3 PUSH2 0x4BF JUMP JUMPDEST SWAP1 POP PUSH1 0x20 DUP2 ADD SWAP1 POP SWAP2 SWAP1 POP JUMP JUMPDEST DUP3 DUP2 DUP4 CALLDATACOPY PUSH0 DUP4 DUP4 ADD MSTORE POP POP POP JUMP JUMPDEST PUSH0 PUSH2 0x6CB PUSH2 0x6C6 DUP5 PUSH2 0x67B JUMP JUMPDEST PUSH2 0x661 JUMP JUMPDEST SWAP1 POP DUP3 DUP2 MSTORE PUSH1 0x20 DUP2 ADD DUP5 DUP5 DUP5 ADD GT ISZERO PUSH2 0x6E7 JUMPI PUSH2 0x6E6 PUSH2 0x5FF JUMP JUMPDEST JUMPDEST PUSH2 0x6F2 DUP5 DUP3 DUP6 PUSH2 0x6AB JUMP JUMPDEST POP SWAP4 SWAP3 POP POP POP JUMP JUMPDEST PUSH0 DUP3 PUSH1 0x1F DUP4 ADD SLT PUSH2 0x70E JUMPI PUSH2 0x70D PUSH2 0x5FB JUMP JUMPDEST JUMPDEST DUP2 CALLDATALOAD PUSH2 0x71E DUP5 DUP3 PUSH1 0x20 DUP7 ADD PUSH2 0x6B9 JUMP JUMPDEST SWAP2 POP POP SWAP3 SWAP2 POP POP JUMP JUMPDEST PUSH0 DUP1 PUSH1 0x40 DUP4 DUP6 SUB SLT ISZERO PUSH2 0x73D JUMPI PUSH2 0x73C PUSH2 0x31E JUMP JUMPDEST JUMPDEST PUSH0 DUP4 ADD CALLDATALOAD PUSH8 0xFFFFFFFFFFFFFFFF DUP2 GT ISZERO PUSH2 0x75A JUMPI PUSH2 0x759 PUSH2 0x322 JUMP JUMPDEST JUMPDEST PUSH2 0x766 DUP6 DUP3 DUP7 ADD PUSH2 0x6FA JUMP JUMPDEST SWAP3 POP POP PUSH1 0x20 PUSH2 0x777 DUP6 DUP3 DUP7 ADD PUSH2 0x39F JUMP JUMPDEST SWAP2 POP POP SWAP3 POP SWAP3 SWAP1 POP JUMP JUMPDEST PUSH32 0x4E487B7100000000000000000000000000000000000000000000000000000000 PUSH0 MSTORE PUSH1 0x22 PUSH1 0x4 MSTORE PUSH1 0x24 PUSH0 REVERT JUMPDEST PUSH0 PUSH1 0x2 DUP3 DIV SWAP1 POP PUSH1 0x1 DUP3 AND DUP1 PUSH2 0x7C5 JUMPI PUSH1 0x7F DUP3 AND SWAP2 POP JUMPDEST PUSH1 0x20 DUP3 LT DUP2 SUB PUSH2 0x7D8 JUMPI PUSH2 0x7D7 PUSH2 0x781 JUMP JUMPDEST JUMPDEST POP SWAP2 SWAP1 POP JUMP JUMPDEST PUSH0 DUP2 SWAP1 POP DUP2 PUSH0 MSTORE PUSH1 0x20 PUSH0 KECCAK256 SWAP1 POP SWAP2 SWAP1 POP JUMP JUMPDEST PUSH0 PUSH1 0x20 PUSH1 0x1F DUP4 ADD DIV SWAP1 POP SWAP2 SWAP1 POP JUMP JUMPDEST PUSH0 DUP3 DUP3 SHL SWAP1 POP SWAP3 SWAP2 POP POP JUMP JUMPDEST PUSH0 PUSH1 0x8 DUP4 MUL PUSH2 0x83A PUSH32 0xFFFFFFFFFFFFFFFFFFFFFFFFFFFFFFFFFFFFFFFFFFFFFFFFFFFFFFFFFFFFFFFF DUP3 PUSH2 0x7FF JUMP JUMPDEST PUSH2 0x844 DUP7 DUP4 PUSH2 0x7FF JUMP JUMPDEST SWAP6 POP DUP1 NOT DUP5 AND SWAP4 POP DUP1 DUP7 AND DUP5 OR SWAP3 POP POP POP SWAP4 SWAP3 POP POP POP JUMP JUMPDEST PUSH0 DUP2 SWAP1 POP SWAP2 SWAP1 POP JUMP JUMPDEST PUSH0 PUSH2 0x87F PUSH2 0x87A PUSH2 0x875 DUP5 PUSH2 0x326 JUMP JUMPDEST PUSH2 0x85C JUMP JUMPDEST PUSH2 0x326 JUMP JUMPDEST SWAP1 POP SWAP2 SWAP1 POP JUMP JUMPDEST PUSH0 DUP2 SWAP1 POP SWAP2 SWAP1 POP JUMP JUMPDEST PUSH2 0x898 DUP4 PUSH2 0x865 JUMP JUMPDEST PUSH2 0x8AC PUSH2 0x8A4 DUP3 PUSH2 0x886 JUMP JUMPDEST DUP5 DUP5 SLOAD PUSH2 0x80B JUMP JUMPDEST DUP3 SSTORE POP POP POP POP JUMP JUMPDEST PUSH0 SWAP1 JUMP JUMPDEST PUSH2 0x8C0 PUSH2 0x8B4 JUMP JUMPDEST PUSH2 0x8CB DUP2 DUP5 DUP5 PUSH2 0x88F JUMP JUMPDEST POP POP POP JUMP JUMPDEST JUMPDEST DUP2 DUP2 LT ISZERO PUSH2 0x8EE JUMPI PUSH2 0x8E3 PUSH0 DUP3 PUSH2 0x8B8 JUMP JUMPDEST PUSH1 0x1 DUP2 ADD SWAP1 POP PUSH2 0x8D1 JUMP JUMPDEST POP POP JUMP JUMPDEST PUSH1 0x1F DUP3 GT ISZERO PUSH2 0x933 JUMPI PUSH2 0x904 DUP2 PUSH2 0x7DE JUMP JUMPDEST PUSH2 0x90D DUP5 PUSH2 0x7F0 JUMP JUMPDEST DUP2 ADD PUSH1 0x20 DUP6 LT ISZERO PUSH2 0x91C JUMPI DUP2 SWAP1 POP JUMPDEST PUSH2 0x930 PUSH2 0x928 DUP6 PUSH2 0x7F0 JUMP JUMPDEST DUP4 ADD DUP3 PUSH2 0x8D0 JUMP JUMPDEST POP POP JUMPDEST POP POP POP JUMP JUMPDEST PUSH0 DUP3 DUP3 SHR SWAP1 POP SWAP3 SWAP2 POP POP JUMP JUMPDEST PUSH0 PUSH2 0x953 PUSH0 NOT DUP5 PUSH1 0x8 MUL PUSH2 0x938 JUMP JUMPDEST NOT DUP1 DUP4 AND SWAP2 POP POP SWAP3 SWAP2 POP POP JUMP JUMPDEST PUSH0 PUSH2 0x96B DUP4 DUP4 PUSH2 0x944 JUMP JUMPDEST SWAP2 POP DUP3 PUSH1 0x2 MUL DUP3 OR SWAP1 POP SWAP3 SWAP2 POP POP JUMP JUMPDEST PUSH2 0x984 DUP3 PUSH2 0x47D JUMP JUMPDEST PUSH8 0xFFFFFFFFFFFFFFFF DUP2 GT ISZERO PUSH2 0x99D JUMPI PUSH2 0x99C PUSH2 0x603 JUMP JUMPDEST JUMPDEST PUSH2 0x9A7 DUP3 SLOAD PUSH2 0x7AE JUMP JUMPDEST PUSH2 0x9B2 DUP3 DUP3 DUP6 PUSH2 0x8F2 JUMP JUMPDEST PUSH0 PUSH1 0x20 SWAP1 POP PUSH1 0x1F DUP4 GT PUSH1 0x1 DUP2 EQ PUSH2 0x9E3 JUMPI PUSH0 DUP5 ISZERO PUSH2 0x9D1 JUMPI DUP3 DUP8 ADD MLOAD SWAP1 POP JUMPDEST PUSH2 0x9DB DUP6 DUP3 PUSH2 0x960 JUMP JUMPDEST DUP7 SSTORE POP PUSH2 0xA42 JUMP JUMPDEST PUSH1 0x1F NOT DUP5 AND PUSH2 0x9F1 DUP7 PUSH2 0x7DE JUMP JUMPDEST PUSH0 JUMPDEST DUP3 DUP2 LT ISZERO PUSH2 0xA18 JUMPI DUP5 DUP10 ADD MLOAD DUP3 SSTORE PUSH1 0x1 DUP3 ADD SWAP2 POP PUSH1 0x20 DUP6 ADD SWAP5 POP PUSH1 0x20 DUP2 ADD SWAP1 POP PUSH2 0x9F3 JUMP JUMPDEST DUP7 DUP4 LT ISZERO PUSH2 0xA35 JUMPI DUP5 DUP10 ADD MLOAD PUSH2 0xA31 PUSH1 0x1F DUP10 AND DUP3 PUSH2 0x944 JUMP JUMPDEST DUP4 SSTORE POP JUMPDEST PUSH1 0x1 PUSH1 0x2 DUP9 MUL ADD DUP9 SSTORE POP POP POP JUMPDEST POP POP POP POP POP POP JUMP INVALID LOG2 PUSH5 0x6970667358 0x22 SLT KECCAK256 CALLDATALOAD BLOCKHASH JUMPDEST LOG3 0xD0 DUP2 0xC5 0xE2 CHAINID 0xA6 EQ GT SWAP13 0xDF JUMPDEST 0xE3 0x49 PUSH21 0xCA0600120732B92535EC140B3C0E64736F6C634300 ADDMOD ISZERO STOP CALLER "
				},
				"gasEstimates": {
					"creation": {
						"codeDepositCost": "537600",
						"executionCost": "566",
						"totalCost": "538166"
					},
					"external": {
						"get(address)": "3002",
						"set(uint8,address)": "24952",
						"setAge(uint256,address)": "22806",
						"setName(string,address)": "infinite",
						"ss(uint256)": "infinite"
					}
				},
				"methodIdentifiers": {
					"get(address)": "c2bc2efc",
					"set(uint8,address)": "50a7f675",
					"setAge(uint256,address)": "4f6670cc",
					"setName(string,address)": "ec07c2d1",
					"ss(uint256)": "989d12b6"
				}
			},
			"storageLayout": {
				"storage": [
					{
						"astId": 21,
						"contract": "structs.sol:Student",
						"label": "person",
						"offset": 0,
						"slot": "0",
						"type": "t_mapping(t_address,t_enum(day)11)"
					},
					{
						"astId": 26,
						"contract": "structs.sol:Student",
						"label": "students",
						"offset": 0,
						"slot": "1",
						"type": "t_mapping(t_address,t_struct(StudentStruct)16_storage)"
					},
					{
						"astId": 30,
						"contract": "structs.sol:Student",
						"label": "ss",
						"offset": 0,
						"slot": "2",
						"type": "t_array(t_struct(StudentStruct)16_storage)dyn_storage"
					}
				],
				"types": {
					"t_address": {
						"encoding": "inplace",
						"label": "address",
						"numberOfBytes": "20"
					},
					"t_array(t_struct(StudentStruct)16_storage)dyn_storage": {
						"base": "t_struct(StudentStruct)16_storage",
						"encoding": "dynamic_array",
						"label": "struct Student.StudentStruct[]",
						"numberOfBytes": "32"
					},
					"t_enum(day)11": {
						"encoding": "inplace",
						"label": "enum Student.day",
						"numberOfBytes": "1"
					},
					"t_mapping(t_address,t_enum(day)11)": {
						"encoding": "mapping",
						"key": "t_address",
						"label": "mapping(address => enum Student.day)",
						"numberOfBytes": "32",
						"value": "t_enum(day)11"
					},
					"t_mapping(t_address,t_struct(StudentStruct)16_storage)": {
						"encoding": "mapping",
						"key": "t_address",
						"label": "mapping(address => struct Student.StudentStruct)",
						"numberOfBytes": "32",
						"value": "t_struct(StudentStruct)16_storage"
					},
					"t_string_storage": {
						"encoding": "bytes",
						"label": "string",
						"numberOfBytes": "32"
					},
					"t_struct(StudentStruct)16_storage": {
						"encoding": "inplace",
						"label": "struct Student.StudentStruct",
						"members": [
							{
								"astId": 13,
								"contract": "structs.sol:Student",
								"label": "name",
								"offset": 0,
								"slot": "0",
								"type": "t_string_storage"
							},
							{
								"astId": 15,
								"contract": "structs.sol:Student",
								"label": "age",
								"offset": 0,
								"slot": "1",
								"type": "t_uint256"
							}
						],
						"numberOfBytes": "64"
					},
					"t_uint256": {
						"encoding": "inplace",
						"label": "uint256",
						"numberOfBytes": "32"
					}
				}
			},
			"userdoc": {
				"kind": "user",
				"methods": {},
				"version": 1
			}
		}
	}
}