{
	"enum.sol": {
		"Working_day": {
			"abi": [
				{
					"inputs": [
						{
							"internalType": "address",
							"name": "addr",
							"type": "address"
						}
					],
					"name": "get",
					"outputs": [
						{
							"internalType": "enum Working_day.day",
							"name": "",
							"type": "uint8"
						}
					],
					"stateMutability": "view",
					"type": "function"
				},
				{
					"inputs": [
						{
							"internalType": "enum Working_day.day",
							"name": "working_day",
							"type": "uint8"
						},
						{
							"internalType": "address",
							"name": "_addr",
							"type": "address"
						}
					],
					"name": "set",
					"outputs": [],
					"stateMutability": "nonpayable",
					"type": "function"
				}
			],
			"devdoc": {
				"kind": "dev",
				"methods": {},
				"version": 1
			},
			"evm": {
				"assembly": "    /* \"enum.sol\":61:477  contract Working_day{... */\n  mstore(0x40, 0x80)\n  callvalue\n  dup1\n  iszero\n  tag_1\n  jumpi\n  0x00\n  dup1\n  revert\ntag_1:\n  pop\n  dataSize(sub_0)\n  dup1\n  dataOffset(sub_0)\n  0x00\n  codecopy\n  0x00\n  return\nstop\n\nsub_0: assembly {\n        /* \"enum.sol\":61:477  contract Working_day{... */\n      mstore(0x40, 0x80)\n      callvalue\n      dup1\n      iszero\n      tag_1\n      jumpi\n      0x00\n      dup1\n      revert\n    tag_1:\n      pop\n      jumpi(tag_2, lt(calldatasize, 0x04))\n      shr(0xe0, calldataload(0x00))\n      dup1\n      0x50a7f675\n      eq\n      tag_3\n      jumpi\n      dup1\n      0xc2bc2efc\n      eq\n      tag_4\n      jumpi\n    tag_2:\n      0x00\n      dup1\n      revert\n        /* \"enum.sol\":375:472  function set(day working_day,address _addr) public {... */\n    tag_3:\n      tag_5\n      0x04\n      dup1\n      calldatasize\n      sub\n      dup2\n      add\n      swap1\n      tag_6\n      swap2\n      swap1\n      tag_7\n      jump\t// in\n    tag_6:\n      tag_8\n      jump\t// in\n    tag_5:\n      stop\n        /* \"enum.sol\":239:330  function get(address addr) public view returns (day) {... */\n    tag_4:\n      tag_9\n      0x04\n      dup1\n      calldatasize\n      sub\n      dup2\n      add\n      swap1\n      tag_10\n      swap2\n      swap1\n      tag_11\n      jump\t// in\n    tag_10:\n      tag_12\n      jump\t// in\n    tag_9:\n      mload(0x40)\n      tag_13\n      swap2\n      swap1\n      tag_14\n      jump\t// in\n    tag_13:\n      mload(0x40)\n      dup1\n      swap2\n      sub\n      swap1\n      return\n        /* \"enum.sol\":375:472  function set(day working_day,address _addr) public {... */\n    tag_8:\n        /* \"enum.sol\":453:464  working_day */\n      dup2\n        /* \"enum.sol\":437:443  person */\n      0x00\n        /* \"enum.sol\":437:450  person[_addr] */\n      dup1\n        /* \"enum.sol\":444:449  _addr */\n      dup4\n        /* \"enum.sol\":437:450  person[_addr] */\n      0xffffffffffffffffffffffffffffffffffffffff\n      and\n      0xffffffffffffffffffffffffffffffffffffffff\n      and\n      dup2\n      mstore\n      0x20\n      add\n      swap1\n      dup2\n      mstore\n      0x20\n      add\n      0x00\n      keccak256\n      0x00\n        /* \"enum.sol\":437:464  person[_addr] = working_day */\n      0x0100\n      exp\n      dup2\n      sload\n      dup2\n      0xff\n      mul\n      not\n      and\n      swap1\n      dup4\n      0x03\n      dup2\n      gt\n      iszero\n      tag_16\n      jumpi\n      tag_17\n      tag_18\n      jump\t// in\n    tag_17:\n    tag_16:\n      mul\n      or\n      swap1\n      sstore\n      pop\n        /* \"enum.sol\":375:472  function set(day working_day,address _addr) public {... */\n      pop\n      pop\n      jump\t// out\n        /* \"enum.sol\":239:330  function get(address addr) public view returns (day) {... */\n    tag_12:\n        /* \"enum.sol\":287:290  day */\n      0x00\n        /* \"enum.sol\":310:316  person */\n      dup1\n        /* \"enum.sol\":310:322  person[addr] */\n      0x00\n        /* \"enum.sol\":317:321  addr */\n      dup4\n        /* \"enum.sol\":310:322  person[addr] */\n      0xffffffffffffffffffffffffffffffffffffffff\n      and\n      0xffffffffffffffffffffffffffffffffffffffff\n      and\n      dup2\n      mstore\n      0x20\n      add\n      swap1\n      dup2\n      mstore\n      0x20\n      add\n      0x00\n      keccak256\n      0x00\n      swap1\n      sload\n      swap1\n      0x0100\n      exp\n      swap1\n      div\n      0xff\n      and\n        /* \"enum.sol\":303:322  return person[addr] */\n      swap1\n      pop\n        /* \"enum.sol\":239:330  function get(address addr) public view returns (day) {... */\n      swap2\n      swap1\n      pop\n      jump\t// out\n        /* \"#utility.yul\":88:205   */\n    tag_21:\n        /* \"#utility.yul\":197:198   */\n      0x00\n        /* \"#utility.yul\":194:195   */\n      dup1\n        /* \"#utility.yul\":187:199   */\n      revert\n        /* \"#utility.yul\":334:438   */\n    tag_23:\n        /* \"#utility.yul\":412:413   */\n      0x04\n        /* \"#utility.yul\":405:410   */\n      dup2\n        /* \"#utility.yul\":402:414   */\n      lt\n        /* \"#utility.yul\":392:432   */\n      tag_38\n      jumpi\n        /* \"#utility.yul\":428:429   */\n      0x00\n        /* \"#utility.yul\":425:426   */\n      dup1\n        /* \"#utility.yul\":418:430   */\n      revert\n        /* \"#utility.yul\":392:432   */\n    tag_38:\n        /* \"#utility.yul\":334:438   */\n      pop\n      jump\t// out\n        /* \"#utility.yul\":444:593   */\n    tag_24:\n        /* \"#utility.yul\":495:500   */\n      0x00\n        /* \"#utility.yul\":533:539   */\n      dup2\n        /* \"#utility.yul\":520:540   */\n      calldataload\n        /* \"#utility.yul\":511:540   */\n      swap1\n      pop\n        /* \"#utility.yul\":549:587   */\n      tag_40\n        /* \"#utility.yul\":581:586   */\n      dup2\n        /* \"#utility.yul\":549:587   */\n      tag_23\n      jump\t// in\n    tag_40:\n        /* \"#utility.yul\":444:593   */\n      swap3\n      swap2\n      pop\n      pop\n      jump\t// out\n        /* \"#utility.yul\":599:725   */\n    tag_25:\n        /* \"#utility.yul\":636:643   */\n      0x00\n        /* \"#utility.yul\":676:718   */\n      0xffffffffffffffffffffffffffffffffffffffff\n        /* \"#utility.yul\":669:674   */\n      dup3\n        /* \"#utility.yul\":665:719   */\n      and\n        /* \"#utility.yul\":654:719   */\n      swap1\n      pop\n        /* \"#utility.yul\":599:725   */\n      swap2\n      swap1\n      pop\n      jump\t// out\n        /* \"#utility.yul\":731:827   */\n    tag_26:\n        /* \"#utility.yul\":768:775   */\n      0x00\n        /* \"#utility.yul\":797:821   */\n      tag_43\n        /* \"#utility.yul\":815:820   */\n      dup3\n        /* \"#utility.yul\":797:821   */\n      tag_25\n      jump\t// in\n    tag_43:\n        /* \"#utility.yul\":786:821   */\n      swap1\n      pop\n        /* \"#utility.yul\":731:827   */\n      swap2\n      swap1\n      pop\n      jump\t// out\n        /* \"#utility.yul\":833:955   */\n    tag_27:\n        /* \"#utility.yul\":906:930   */\n      tag_45\n        /* \"#utility.yul\":924:929   */\n      dup2\n        /* \"#utility.yul\":906:930   */\n      tag_26\n      jump\t// in\n    tag_45:\n        /* \"#utility.yul\":899:904   */\n      dup2\n        /* \"#utility.yul\":896:931   */\n      eq\n        /* \"#utility.yul\":886:949   */\n      tag_46\n      jumpi\n        /* \"#utility.yul\":945:946   */\n      0x00\n        /* \"#utility.yul\":942:943   */\n      dup1\n        /* \"#utility.yul\":935:947   */\n      revert\n        /* \"#utility.yul\":886:949   */\n    tag_46:\n        /* \"#utility.yul\":833:955   */\n      pop\n      jump\t// out\n        /* \"#utility.yul\":961:1100   */\n    tag_28:\n        /* \"#utility.yul\":1007:1012   */\n      0x00\n        /* \"#utility.yul\":1045:1051   */\n      dup2\n        /* \"#utility.yul\":1032:1052   */\n      calldataload\n        /* \"#utility.yul\":1023:1052   */\n      swap1\n      pop\n        /* \"#utility.yul\":1061:1094   */\n      tag_48\n        /* \"#utility.yul\":1088:1093   */\n      dup2\n        /* \"#utility.yul\":1061:1094   */\n      tag_27\n      jump\t// in\n    tag_48:\n        /* \"#utility.yul\":961:1100   */\n      swap3\n      swap2\n      pop\n      pop\n      jump\t// out\n        /* \"#utility.yul\":1106:1590   */\n    tag_7:\n        /* \"#utility.yul\":1179:1185   */\n      0x00\n        /* \"#utility.yul\":1187:1193   */\n      dup1\n        /* \"#utility.yul\":1236:1238   */\n      0x40\n        /* \"#utility.yul\":1224:1233   */\n      dup4\n        /* \"#utility.yul\":1215:1222   */\n      dup6\n        /* \"#utility.yul\":1211:1234   */\n      sub\n        /* \"#utility.yul\":1207:1239   */\n      slt\n        /* \"#utility.yul\":1204:1323   */\n      iszero\n      tag_50\n      jumpi\n        /* \"#utility.yul\":1242:1321   */\n      tag_51\n      tag_21\n      jump\t// in\n    tag_51:\n        /* \"#utility.yul\":1204:1323   */\n    tag_50:\n        /* \"#utility.yul\":1362:1363   */\n      0x00\n        /* \"#utility.yul\":1387:1445   */\n      tag_52\n        /* \"#utility.yul\":1437:1444   */\n      dup6\n        /* \"#utility.yul\":1428:1434   */\n      dup3\n        /* \"#utility.yul\":1417:1426   */\n      dup7\n        /* \"#utility.yul\":1413:1435   */\n      add\n        /* \"#utility.yul\":1387:1445   */\n      tag_24\n      jump\t// in\n    tag_52:\n        /* \"#utility.yul\":1377:1445   */\n      swap3\n      pop\n        /* \"#utility.yul\":1333:1455   */\n      pop\n        /* \"#utility.yul\":1494:1496   */\n      0x20\n        /* \"#utility.yul\":1520:1573   */\n      tag_53\n        /* \"#utility.yul\":1565:1572   */\n      dup6\n        /* \"#utility.yul\":1556:1562   */\n      dup3\n        /* \"#utility.yul\":1545:1554   */\n      dup7\n        /* \"#utility.yul\":1541:1563   */\n      add\n        /* \"#utility.yul\":1520:1573   */\n      tag_28\n      jump\t// in\n    tag_53:\n        /* \"#utility.yul\":1510:1573   */\n      swap2\n      pop\n        /* \"#utility.yul\":1465:1583   */\n      pop\n        /* \"#utility.yul\":1106:1590   */\n      swap3\n      pop\n      swap3\n      swap1\n      pop\n      jump\t// out\n        /* \"#utility.yul\":1596:1925   */\n    tag_11:\n        /* \"#utility.yul\":1655:1661   */\n      0x00\n        /* \"#utility.yul\":1704:1706   */\n      0x20\n        /* \"#utility.yul\":1692:1701   */\n      dup3\n        /* \"#utility.yul\":1683:1690   */\n      dup5\n        /* \"#utility.yul\":1679:1702   */\n      sub\n        /* \"#utility.yul\":1675:1707   */\n      slt\n        /* \"#utility.yul\":1672:1791   */\n      iszero\n      tag_55\n      jumpi\n        /* \"#utility.yul\":1710:1789   */\n      tag_56\n      tag_21\n      jump\t// in\n    tag_56:\n        /* \"#utility.yul\":1672:1791   */\n    tag_55:\n        /* \"#utility.yul\":1830:1831   */\n      0x00\n        /* \"#utility.yul\":1855:1908   */\n      tag_57\n        /* \"#utility.yul\":1900:1907   */\n      dup5\n        /* \"#utility.yul\":1891:1897   */\n      dup3\n        /* \"#utility.yul\":1880:1889   */\n      dup6\n        /* \"#utility.yul\":1876:1898   */\n      add\n        /* \"#utility.yul\":1855:1908   */\n      tag_28\n      jump\t// in\n    tag_57:\n        /* \"#utility.yul\":1845:1908   */\n      swap2\n      pop\n        /* \"#utility.yul\":1801:1918   */\n      pop\n        /* \"#utility.yul\":1596:1925   */\n      swap3\n      swap2\n      pop\n      pop\n      jump\t// out\n        /* \"#utility.yul\":1931:2111   */\n    tag_18:\n        /* \"#utility.yul\":1979:2056   */\n      0x4e487b7100000000000000000000000000000000000000000000000000000000\n        /* \"#utility.yul\":1976:1977   */\n      0x00\n        /* \"#utility.yul\":1969:2057   */\n      mstore\n        /* \"#utility.yul\":2076:2080   */\n      0x21\n        /* \"#utility.yul\":2073:2074   */\n      0x04\n        /* \"#utility.yul\":2066:2081   */\n      mstore\n        /* \"#utility.yul\":2100:2104   */\n      0x24\n        /* \"#utility.yul\":2097:2098   */\n      0x00\n        /* \"#utility.yul\":2090:2105   */\n      revert\n        /* \"#utility.yul\":2117:2227   */\n    tag_29:\n        /* \"#utility.yul\":2195:2196   */\n      0x04\n        /* \"#utility.yul\":2188:2193   */\n      dup2\n        /* \"#utility.yul\":2185:2197   */\n      lt\n        /* \"#utility.yul\":2175:2221   */\n      tag_60\n      jumpi\n        /* \"#utility.yul\":2201:2219   */\n      tag_61\n      tag_18\n      jump\t// in\n    tag_61:\n        /* \"#utility.yul\":2175:2221   */\n    tag_60:\n        /* \"#utility.yul\":2117:2227   */\n      pop\n      jump\t// out\n        /* \"#utility.yul\":2233:2354   */\n    tag_30:\n        /* \"#utility.yul\":2275:2282   */\n      0x00\n        /* \"#utility.yul\":2304:2309   */\n      dup2\n        /* \"#utility.yul\":2293:2309   */\n      swap1\n      pop\n        /* \"#utility.yul\":2310:2348   */\n      tag_63\n        /* \"#utility.yul\":2342:2347   */\n      dup3\n        /* \"#utility.yul\":2310:2348   */\n      tag_29\n      jump\t// in\n    tag_63:\n        /* \"#utility.yul\":2233:2354   */\n      swap2\n      swap1\n      pop\n      jump\t// out\n        /* \"#utility.yul\":2360:2481   */\n    tag_31:\n        /* \"#utility.yul\":2413:2422   */\n      0x00\n        /* \"#utility.yul\":2446:2475   */\n      tag_65\n        /* \"#utility.yul\":2469:2474   */\n      dup3\n        /* \"#utility.yul\":2446:2475   */\n      tag_30\n      jump\t// in\n    tag_65:\n        /* \"#utility.yul\":2433:2475   */\n      swap1\n      pop\n        /* \"#utility.yul\":2360:2481   */\n      swap2\n      swap1\n      pop\n      jump\t// out\n        /* \"#utility.yul\":2487:2624   */\n    tag_32:\n        /* \"#utility.yul\":2577:2617   */\n      tag_67\n        /* \"#utility.yul\":2611:2616   */\n      dup2\n        /* \"#utility.yul\":2577:2617   */\n      tag_31\n      jump\t// in\n    tag_67:\n        /* \"#utility.yul\":2572:2575   */\n      dup3\n        /* \"#utility.yul\":2565:2618   */\n      mstore\n        /* \"#utility.yul\":2487:2624   */\n      pop\n      pop\n      jump\t// out\n        /* \"#utility.yul\":2630:2858   */\n    tag_14:\n        /* \"#utility.yul\":2726:2730   */\n      0x00\n        /* \"#utility.yul\":2764:2766   */\n      0x20\n        /* \"#utility.yul\":2753:2762   */\n      dup3\n        /* \"#utility.yul\":2749:2767   */\n      add\n        /* \"#utility.yul\":2741:2767   */\n      swap1\n      pop\n        /* \"#utility.yul\":2777:2851   */\n      tag_69\n        /* \"#utility.yul\":2848:2849   */\n      0x00\n        /* \"#utility.yul\":2837:2846   */\n      dup4\n        /* \"#utility.yul\":2833:2850   */\n      add\n        /* \"#utility.yul\":2824:2830   */\n      dup5\n        /* \"#utility.yul\":2777:2851   */\n      tag_32\n      jump\t// in\n    tag_69:\n        /* \"#utility.yul\":2630:2858   */\n      swap3\n      swap2\n      pop\n      pop\n      jump\t// out\n\n    auxdata: 0xa2646970667358221220851c4283b37cae7750df3773d8592d18b858bea183bf0534dfd9c8a1cca43ac264736f6c63430008150033\n}\n",
				"bytecode": {
					"linkReferences": {},
					"object": "608060405234801561000f575f80fd5b506102e88061001d5f395ff3fe608060405234801561000f575f80fd5b5060043610610034575f3560e01c806350a7f67514610038578063c2bc2efc14610054575b5f80fd5b610052600480360381019061004d91906101bd565b610084565b005b61006e600480360381019061006991906101fb565b6100eb565b60405161007b9190610299565b60405180910390f35b815f808373ffffffffffffffffffffffffffffffffffffffff1673ffffffffffffffffffffffffffffffffffffffff1681526020019081526020015f205f6101000a81548160ff021916908360038111156100e2576100e1610226565b5b02179055505050565b5f805f8373ffffffffffffffffffffffffffffffffffffffff1673ffffffffffffffffffffffffffffffffffffffff1681526020019081526020015f205f9054906101000a900460ff169050919050565b5f80fd5b6004811061014c575f80fd5b50565b5f8135905061015d81610140565b92915050565b5f73ffffffffffffffffffffffffffffffffffffffff82169050919050565b5f61018c82610163565b9050919050565b61019c81610182565b81146101a6575f80fd5b50565b5f813590506101b781610193565b92915050565b5f80604083850312156101d3576101d261013c565b5b5f6101e08582860161014f565b92505060206101f1858286016101a9565b9150509250929050565b5f602082840312156102105761020f61013c565b5b5f61021d848285016101a9565b91505092915050565b7f4e487b71000000000000000000000000000000000000000000000000000000005f52602160045260245ffd5b6004811061026457610263610226565b5b50565b5f81905061027482610253565b919050565b5f61028382610267565b9050919050565b61029381610279565b82525050565b5f6020820190506102ac5f83018461028a565b9291505056fea2646970667358221220851c4283b37cae7750df3773d8592d18b858bea183bf0534dfd9c8a1cca43ac264736f6c63430008150033",
					"opcodes": "PUSH1 0x80 PUSH1 0x40 MSTORE CALLVALUE DUP1 ISZERO PUSH2 0xF JUMPI PUSH0 DUP1 REVERT JUMPDEST POP PUSH2 0x2E8 DUP1 PUSH2 0x1D PUSH0 CODECOPY PUSH0 RETURN INVALID PUSH1 0x80 PUSH1 0x40 MSTORE CALLVALUE DUP1 ISZERO PUSH2 0xF JUMPI PUSH0 DUP1 REVERT JUMPDEST POP PUSH1 0x4 CALLDATASIZE LT PUSH2 0x34 JUMPI PUSH0 CALLDATALOAD PUSH1 0xE0 SHR DUP1 PUSH4 0x50A7F675 EQ PUSH2 0x38 JUMPI DUP1 PUSH4 0xC2BC2EFC EQ PUSH2 0x54 JUMPI JUMPDEST PUSH0 DUP1 REVERT JUMPDEST PUSH2 0x52 PUSH1 0x4 DUP1 CALLDATASIZE SUB DUP2 ADD SWAP1 PUSH2 0x4D SWAP2 SWAP1 PUSH2 0x1BD JUMP JUMPDEST PUSH2 0x84 JUMP JUMPDEST STOP JUMPDEST PUSH2 0x6E PUSH1 0x4 DUP1 CALLDATASIZE SUB DUP2 ADD SWAP1 PUSH2 0x69 SWAP2 SWAP1 PUSH2 0x1FB JUMP JUMPDEST PUSH2 0xEB JUMP JUMPDEST PUSH1 0x40 MLOAD PUSH2 0x7B SWAP2 SWAP1 PUSH2 0x299 JUMP JUMPDEST PUSH1 0x40 MLOAD DUP1 SWAP2 SUB SWAP1 RETURN JUMPDEST DUP2 PUSH0 DUP1 DUP4 PUSH20 0xFFFFFFFFFFFFFFFFFFFFFFFFFFFFFFFFFFFFFFFF AND PUSH20 0xFFFFFFFFFFFFFFFFFFFFFFFFFFFFFFFFFFFFFFFF AND DUP2 MSTORE PUSH1 0x20 ADD SWAP1 DUP2 MSTORE PUSH1 0x20 ADD PUSH0 KECCAK256 PUSH0 PUSH2 0x100 EXP DUP2 SLOAD DUP2 PUSH1 0xFF MUL NOT AND SWAP1 DUP4 PUSH1 0x3 DUP2 GT ISZERO PUSH2 0xE2 JUMPI PUSH2 0xE1 PUSH2 0x226 JUMP JUMPDEST JUMPDEST MUL OR SWAP1 SSTORE POP POP POP JUMP JUMPDEST PUSH0 DUP1 PUSH0 DUP4 PUSH20 0xFFFFFFFFFFFFFFFFFFFFFFFFFFFFFFFFFFFFFFFF AND PUSH20 0xFFFFFFFFFFFFFFFFFFFFFFFFFFFFFFFFFFFFFFFF AND DUP2 MSTORE PUSH1 0x20 ADD SWAP1 DUP2 MSTORE PUSH1 0x20 ADD PUSH0 KECCAK256 PUSH0 SWAP1 SLOAD SWAP1 PUSH2 0x100 EXP SWAP1 DIV PUSH1 0xFF AND SWAP1 POP SWAP2 SWAP1 POP JUMP JUMPDEST PUSH0 DUP1 REVERT JUMPDEST PUSH1 0x4 DUP2 LT PUSH2 0x14C JUMPI PUSH0 DUP1 REVERT JUMPDEST POP JUMP JUMPDEST PUSH0 DUP2 CALLDATALOAD SWAP1 POP PUSH2 0x15D DUP2 PUSH2 0x140 JUMP JUMPDEST SWAP3 SWAP2 POP POP JUMP JUMPDEST PUSH0 PUSH20 0xFFFFFFFFFFFFFFFFFFFFFFFFFFFFFFFFFFFFFFFF DUP3 AND SWAP1 POP SWAP2 SWAP1 POP JUMP JUMPDEST PUSH0 PUSH2 0x18C DUP3 PUSH2 0x163 JUMP JUMPDEST SWAP1 POP SWAP2 SWAP1 POP JUMP JUMPDEST PUSH2 0x19C DUP2 PUSH2 0x182 JUMP JUMPDEST DUP2 EQ PUSH2 0x1A6 JUMPI PUSH0 DUP1 REVERT JUMPDEST POP JUMP JUMPDEST PUSH0 DUP2 CALLDATALOAD SWAP1 POP PUSH2 0x1B7 DUP2 PUSH2 0x193 JUMP JUMPDEST SWAP3 SWAP2 POP POP JUMP JUMPDEST PUSH0 DUP1 PUSH1 0x40 DUP4 DUP6 SUB SLT ISZERO PUSH2 0x1D3 JUMPI PUSH2 0x1D2 PUSH2 0x13C JUMP JUMPDEST JUMPDEST PUSH0 PUSH2 0x1E0 DUP6 DUP3 DUP7 ADD PUSH2 0x14F JUMP JUMPDEST SWAP3 POP POP PUSH1 0x20 PUSH2 0x1F1 DUP6 DUP3 DUP7 ADD PUSH2 0x1A9 JUMP JUMPDEST SWAP2 POP POP SWAP3 POP SWAP3 SWAP1 POP JUMP JUMPDEST PUSH0 PUSH1 0x20 DUP3 DUP5 SUB SLT ISZERO PUSH2 0x210 JUMPI PUSH2 0x20F PUSH2 0x13C JUMP JUMPDEST JUMPDEST PUSH0 PUSH2 0x21D DUP5 DUP3 DUP6 ADD PUSH2 0x1A9 JUMP JUMPDEST SWAP2 POP POP SWAP3 SWAP2 POP POP JUMP JUMPDEST PUSH32 0x4E487B7100000000000000000000000000000000000000000000000000000000 PUSH0 MSTORE PUSH1 0x21 PUSH1 0x4 MSTORE PUSH1 0x24 PUSH0 REVERT JUMPDEST PUSH1 0x4 DUP2 LT PUSH2 0x264 JUMPI PUSH2 0x263 PUSH2 0x226 JUMP JUMPDEST JUMPDEST POP JUMP JUMPDEST PUSH0 DUP2 SWAP1 POP PUSH2 0x274 DUP3 PUSH2 0x253 JUMP JUMPDEST SWAP2 SWAP1 POP JUMP JUMPDEST PUSH0 PUSH2 0x283 DUP3 PUSH2 0x267 JUMP JUMPDEST SWAP1 POP SWAP2 SWAP1 POP JUMP JUMPDEST PUSH2 0x293 DUP2 PUSH2 0x279 JUMP JUMPDEST DUP3 MSTORE POP POP JUMP JUMPDEST PUSH0 PUSH1 0x20 DUP3 ADD SWAP1 POP PUSH2 0x2AC PUSH0 DUP4 ADD DUP5 PUSH2 0x28A JUMP JUMPDEST SWAP3 SWAP2 POP POP JUMP INVALID LOG2 PUSH5 0x6970667358 0x22 SLT KECCAK256 DUP6 SHR TIMESTAMP DUP4 0xB3 PUSH29 0xAE7750DF3773D8592D18B858BEA183BF0534DFD9C8A1CCA43AC264736F PUSH13 0x63430008150033000000000000 "
				},
				"gasEstimates": {
					"creation": {
						"codeDepositCost": "148800",
						"executionCost": "194",
						"totalCost": "148994"
					},
					"external": {
						"get(address)": "2958",
						"set(uint8,address)": "24930"
					}
				},
				"methodIdentifiers": {
					"get(address)": "c2bc2efc",
					"set(uint8,address)": "50a7f675"
				}
			},
			"storageLayout": {
				"storage": [
					{
						"astId": 11,
						"contract": "enum.sol:Working_day",
						"label": "person",
						"offset": 0,
						"slot": "0",
						"type": "t_mapping(t_address,t_enum(day)6)"
					}
				],
				"types": {
					"t_address": {
						"encoding": "inplace",
						"label": "address",
						"numberOfBytes": "20"
					},
					"t_enum(day)6": {
						"encoding": "inplace",
						"label": "enum Working_day.day",
						"numberOfBytes": "1"
					},
					"t_mapping(t_address,t_enum(day)6)": {
						"encoding": "mapping",
						"key": "t_address",
						"label": "mapping(address => enum Working_day.day)",
						"numberOfBytes": "32",
						"value": "t_enum(day)6"
					}
				}
			},
			"userdoc": {
				"kind": "user",
				"methods": {},
				"version": 1
			}
		}
	}
}