{
	"for_checkingfiles.sol": {
		"new_check": {
			"abi": [
				{
					"inputs": [],
					"name": "check",
					"outputs": [
						{
							"internalType": "uint256",
							"name": "",
							"type": "uint256"
						}
					],
					"stateMutability": "view",
					"type": "function"
				},
				{
					"inputs": [],
					"name": "idelete",
					"outputs": [],
					"stateMutability": "nonpayable",
					"type": "function"
				},
				{
					"inputs": [
						{
							"internalType": "uint256",
							"name": "",
							"type": "uint256"
						}
					],
					"name": "people",
					"outputs": [
						{
							"internalType": "string",
							"name": "",
							"type": "string"
						}
					],
					"stateMutability": "view",
					"type": "function"
				},
				{
					"inputs": [],
					"name": "s1",
					"outputs": [
						{
							"internalType": "enum new_check.ShirtSize",
							"name": "",
							"type": "uint8"
						}
					],
					"stateMutability": "view",
					"type": "function"
				},
				{
					"inputs": [
						{
							"internalType": "enum new_check.WorkingDays",
							"name": "_w",
							"type": "uint8"
						}
					],
					"name": "set",
					"outputs": [],
					"stateMutability": "nonpayable",
					"type": "function"
				},
				{
					"inputs": [],
					"name": "w1",
					"outputs": [
						{
							"internalType": "enum new_check.WorkingDays",
							"name": "",
							"type": "uint8"
						}
					],
					"stateMutability": "view",
					"type": "function"
				},
				{
					"inputs": [],
					"name": "w3",
					"outputs": [
						{
							"internalType": "enum new_check.WorkingDays",
							"name": "",
							"type": "uint8"
						}
					],
					"stateMutability": "view",
					"type": "function"
				},
				{
					"inputs": [],
					"name": "w5",
					"outputs": [
						{
							"internalType": "enum new_check.WorkingDayss",
							"name": "",
							"type": "uint8"
						}
					],
					"stateMutability": "view",
					"type": "function"
				}
			],
			"devdoc": {
				"kind": "dev",
				"methods": {},
				"version": 1
			},
			"evm": {
				"assembly": "    /* \"for_checkingfiles.sol\":1348:1952  contract new_check{... */\n  mstore(0x40, 0x80)\n    /* \"for_checkingfiles.sol\":1458:1473  ShirtSize.Large */\n  0x02\n    /* \"for_checkingfiles.sol\":1436:1473  ShirtSize public s1 = ShirtSize.Large */\n  0x00\n  dup1\n  0x0100\n  exp\n  dup2\n  sload\n  dup2\n  0xff\n  mul\n  not\n  and\n  swap1\n  dup4\n  0x03\n  dup2\n  gt\n  iszero\n  tag_1\n  jumpi\n  tag_2\n  tag_3\n  jump\t// in\ntag_2:\ntag_1:\n  mul\n  or\n  swap1\n  sstore\n  pop\n    /* \"for_checkingfiles.sol\":1348:1952  contract new_check{... */\n  callvalue\n  dup1\n  iszero\n  tag_4\n  jumpi\n  0x00\n  dup1\n  revert\ntag_4:\n  pop\n  jump(tag_5)\n    /* \"#utility.yul\":7:187   */\ntag_3:\n    /* \"#utility.yul\":55:132   */\n  0x4e487b7100000000000000000000000000000000000000000000000000000000\n    /* \"#utility.yul\":52:53   */\n  0x00\n    /* \"#utility.yul\":45:133   */\n  mstore\n    /* \"#utility.yul\":152:156   */\n  0x21\n    /* \"#utility.yul\":149:150   */\n  0x04\n    /* \"#utility.yul\":142:157   */\n  mstore\n    /* \"#utility.yul\":176:180   */\n  0x24\n    /* \"#utility.yul\":173:174   */\n  0x00\n    /* \"#utility.yul\":166:181   */\n  revert\n    /* \"for_checkingfiles.sol\":1348:1952  contract new_check{... */\ntag_5:\n  dataSize(sub_0)\n  dup1\n  dataOffset(sub_0)\n  0x00\n  codecopy\n  0x00\n  return\nstop\n\nsub_0: assembly {\n        /* \"for_checkingfiles.sol\":1348:1952  contract new_check{... */\n      mstore(0x40, 0x80)\n      callvalue\n      dup1\n      iszero\n      tag_1\n      jumpi\n      0x00\n      dup1\n      revert\n    tag_1:\n      pop\n      jumpi(tag_2, lt(calldatasize, 0x04))\n      shr(0xe0, calldataload(0x00))\n      dup1\n      0x919840ad\n      gt\n      tag_11\n      jumpi\n      dup1\n      0x919840ad\n      eq\n      tag_7\n      jumpi\n      dup1\n      0x9e7a13ad\n      eq\n      tag_8\n      jumpi\n      dup1\n      0xa044c987\n      eq\n      tag_9\n      jumpi\n      dup1\n      0xea70a017\n      eq\n      tag_10\n      jumpi\n      jump(tag_2)\n    tag_11:\n      dup1\n      0x1ea5f589\n      eq\n      tag_3\n      jumpi\n      dup1\n      0x24b8ba5f\n      eq\n      tag_4\n      jumpi\n      dup1\n      0x6cc014de\n      eq\n      tag_5\n      jumpi\n      dup1\n      0x7e44755b\n      eq\n      tag_6\n      jumpi\n    tag_2:\n      0x00\n      dup1\n      revert\n        /* \"for_checkingfiles.sol\":1760:1782  WorkingDayss public w5 */\n    tag_3:\n      tag_12\n      tag_13\n      jump\t// in\n    tag_12:\n      mload(0x40)\n      tag_14\n      swap2\n      swap1\n      tag_15\n      jump\t// in\n    tag_14:\n      mload(0x40)\n      dup1\n      swap2\n      sub\n      swap1\n      return\n        /* \"for_checkingfiles.sol\":1615:1674  function set(WorkingDays _w) public{... */\n    tag_4:\n      tag_16\n      0x04\n      dup1\n      calldatasize\n      sub\n      dup2\n      add\n      swap1\n      tag_17\n      swap2\n      swap1\n      tag_18\n      jump\t// in\n    tag_17:\n      tag_19\n      jump\t// in\n    tag_16:\n      stop\n        /* \"for_checkingfiles.sol\":1436:1473  ShirtSize public s1 = ShirtSize.Large */\n    tag_5:\n      tag_20\n      tag_21\n      jump\t// in\n    tag_20:\n      mload(0x40)\n      tag_22\n      swap2\n      swap1\n      tag_23\n      jump\t// in\n    tag_22:\n      mload(0x40)\n      dup1\n      swap2\n      sub\n      swap1\n      return\n        /* \"for_checkingfiles.sol\":1559:1580  WorkingDays public w1 */\n    tag_6:\n      tag_24\n      tag_25\n      jump\t// in\n    tag_24:\n      mload(0x40)\n      tag_26\n      swap2\n      swap1\n      tag_27\n      jump\t// in\n    tag_26:\n      mload(0x40)\n      dup1\n      swap2\n      sub\n      swap1\n      return\n        /* \"for_checkingfiles.sol\":1872:1947  function check() public view returns (uint){... */\n    tag_7:\n      tag_28\n      tag_29\n      jump\t// in\n    tag_28:\n      mload(0x40)\n      tag_30\n      swap2\n      swap1\n      tag_31\n      jump\t// in\n    tag_30:\n      mload(0x40)\n      dup1\n      swap2\n      sub\n      swap1\n      return\n        /* \"for_checkingfiles.sol\":1845:1867  string[] public people */\n    tag_8:\n      tag_32\n      0x04\n      dup1\n      calldatasize\n      sub\n      dup2\n      add\n      swap1\n      tag_33\n      swap2\n      swap1\n      tag_34\n      jump\t// in\n    tag_33:\n      tag_35\n      jump\t// in\n    tag_32:\n      mload(0x40)\n      tag_36\n      swap2\n      swap1\n      tag_37\n      jump\t// in\n    tag_36:\n      mload(0x40)\n      dup1\n      swap2\n      sub\n      swap1\n      return\n        /* \"for_checkingfiles.sol\":1586:1607  WorkingDays public w3 */\n    tag_9:\n      tag_38\n      tag_39\n      jump\t// in\n    tag_38:\n      mload(0x40)\n      tag_40\n      swap2\n      swap1\n      tag_27\n      jump\t// in\n    tag_40:\n      mload(0x40)\n      dup1\n      swap2\n      sub\n      swap1\n      return\n        /* \"for_checkingfiles.sol\":1790:1841  function idelete() public{... */\n    tag_10:\n      tag_41\n      tag_42\n      jump\t// in\n    tag_41:\n      stop\n        /* \"for_checkingfiles.sol\":1760:1782  WorkingDayss public w5 */\n    tag_13:\n      0x00\n      0x03\n      swap1\n      sload\n      swap1\n      0x0100\n      exp\n      swap1\n      div\n      0xff\n      and\n      dup2\n      jump\t// out\n        /* \"for_checkingfiles.sol\":1615:1674  function set(WorkingDays _w) public{... */\n    tag_19:\n        /* \"for_checkingfiles.sol\":1665:1667  _w */\n      dup1\n        /* \"for_checkingfiles.sol\":1660:1662  w1 */\n      0x00\n      0x01\n        /* \"for_checkingfiles.sol\":1660:1667  w1 = _w */\n      0x0100\n      exp\n      dup2\n      sload\n      dup2\n      0xff\n      mul\n      not\n      and\n      swap1\n      dup4\n      0x04\n      dup2\n      gt\n      iszero\n      tag_44\n      jumpi\n      tag_45\n      tag_46\n      jump\t// in\n    tag_45:\n    tag_44:\n      mul\n      or\n      swap1\n      sstore\n      pop\n        /* \"for_checkingfiles.sol\":1615:1674  function set(WorkingDays _w) public{... */\n      pop\n      jump\t// out\n        /* \"for_checkingfiles.sol\":1436:1473  ShirtSize public s1 = ShirtSize.Large */\n    tag_21:\n      0x00\n      dup1\n      sload\n      swap1\n      0x0100\n      exp\n      swap1\n      div\n      0xff\n      and\n      dup2\n      jump\t// out\n        /* \"for_checkingfiles.sol\":1559:1580  WorkingDays public w1 */\n    tag_25:\n      0x00\n      0x01\n      swap1\n      sload\n      swap1\n      0x0100\n      exp\n      swap1\n      div\n      0xff\n      and\n      dup2\n      jump\t// out\n        /* \"for_checkingfiles.sol\":1872:1947  function check() public view returns (uint){... */\n    tag_29:\n        /* \"for_checkingfiles.sol\":1910:1914  uint */\n      0x00\n        /* \"for_checkingfiles.sol\":1872:1947  function check() public view returns (uint){... */\n      swap1\n      jump\t// out\n        /* \"for_checkingfiles.sol\":1845:1867  string[] public people */\n    tag_35:\n      0x01\n      dup2\n      dup2\n      sload\n      dup2\n      lt\n      tag_48\n      jumpi\n      0x00\n      dup1\n      revert\n    tag_48:\n      swap1\n      0x00\n      mstore\n      keccak256(0x00, 0x20)\n      add\n      0x00\n      swap2\n      pop\n      swap1\n      pop\n      dup1\n      sload\n      tag_50\n      swap1\n      tag_51\n      jump\t// in\n    tag_50:\n      dup1\n      0x1f\n      add\n      0x20\n      dup1\n      swap2\n      div\n      mul\n      0x20\n      add\n      mload(0x40)\n      swap1\n      dup2\n      add\n      0x40\n      mstore\n      dup1\n      swap3\n      swap2\n      swap1\n      dup2\n      dup2\n      mstore\n      0x20\n      add\n      dup3\n      dup1\n      sload\n      tag_52\n      swap1\n      tag_51\n      jump\t// in\n    tag_52:\n      dup1\n      iszero\n      tag_53\n      jumpi\n      dup1\n      0x1f\n      lt\n      tag_54\n      jumpi\n      0x0100\n      dup1\n      dup4\n      sload\n      div\n      mul\n      dup4\n      mstore\n      swap2\n      0x20\n      add\n      swap2\n      jump(tag_53)\n    tag_54:\n      dup3\n      add\n      swap2\n      swap1\n      0x00\n      mstore\n      keccak256(0x00, 0x20)\n      swap1\n    tag_55:\n      dup2\n      sload\n      dup2\n      mstore\n      swap1\n      0x01\n      add\n      swap1\n      0x20\n      add\n      dup1\n      dup4\n      gt\n      tag_55\n      jumpi\n      dup3\n      swap1\n      sub\n      0x1f\n      and\n      dup3\n      add\n      swap2\n    tag_53:\n      pop\n      pop\n      pop\n      pop\n      pop\n      dup2\n      jump\t// out\n        /* \"for_checkingfiles.sol\":1586:1607  WorkingDays public w3 */\n    tag_39:\n      0x00\n      0x02\n      swap1\n      sload\n      swap1\n      0x0100\n      exp\n      swap1\n      div\n      0xff\n      and\n      dup2\n      jump\t// out\n        /* \"for_checkingfiles.sol\":1790:1841  function idelete() public{... */\n    tag_42:\n        /* \"for_checkingfiles.sol\":1832:1834  w5 */\n      0x00\n      0x03\n        /* \"for_checkingfiles.sol\":1825:1834  delete w5 */\n      0x0100\n      exp\n      dup2\n      sload\n      swap1\n      0xff\n      mul\n      not\n      and\n      swap1\n      sstore\n        /* \"for_checkingfiles.sol\":1790:1841  function idelete() public{... */\n      jump\t// out\n        /* \"#utility.yul\":7:187   */\n    tag_46:\n        /* \"#utility.yul\":55:132   */\n      0x4e487b7100000000000000000000000000000000000000000000000000000000\n        /* \"#utility.yul\":52:53   */\n      0x00\n        /* \"#utility.yul\":45:133   */\n      mstore\n        /* \"#utility.yul\":152:156   */\n      0x21\n        /* \"#utility.yul\":149:150   */\n      0x04\n        /* \"#utility.yul\":142:157   */\n      mstore\n        /* \"#utility.yul\":176:180   */\n      0x24\n        /* \"#utility.yul\":173:174   */\n      0x00\n        /* \"#utility.yul\":166:181   */\n      revert\n        /* \"#utility.yul\":193:314   */\n    tag_57:\n        /* \"#utility.yul\":282:283   */\n      0x05\n        /* \"#utility.yul\":275:280   */\n      dup2\n        /* \"#utility.yul\":272:284   */\n      lt\n        /* \"#utility.yul\":262:308   */\n      tag_87\n      jumpi\n        /* \"#utility.yul\":288:306   */\n      tag_88\n      tag_46\n      jump\t// in\n    tag_88:\n        /* \"#utility.yul\":262:308   */\n    tag_87:\n        /* \"#utility.yul\":193:314   */\n      pop\n      jump\t// out\n        /* \"#utility.yul\":320:463   */\n    tag_58:\n        /* \"#utility.yul\":373:380   */\n      0x00\n        /* \"#utility.yul\":402:407   */\n      dup2\n        /* \"#utility.yul\":391:407   */\n      swap1\n      pop\n        /* \"#utility.yul\":408:457   */\n      tag_90\n        /* \"#utility.yul\":451:456   */\n      dup3\n        /* \"#utility.yul\":408:457   */\n      tag_57\n      jump\t// in\n    tag_90:\n        /* \"#utility.yul\":320:463   */\n      swap2\n      swap1\n      pop\n      jump\t// out\n        /* \"#utility.yul\":469:612   */\n    tag_59:\n        /* \"#utility.yul\":533:542   */\n      0x00\n        /* \"#utility.yul\":566:606   */\n      tag_92\n        /* \"#utility.yul\":600:605   */\n      dup3\n        /* \"#utility.yul\":566:606   */\n      tag_58\n      jump\t// in\n    tag_92:\n        /* \"#utility.yul\":553:606   */\n      swap1\n      pop\n        /* \"#utility.yul\":469:612   */\n      swap2\n      swap1\n      pop\n      jump\t// out\n        /* \"#utility.yul\":618:777   */\n    tag_60:\n        /* \"#utility.yul\":719:770   */\n      tag_94\n        /* \"#utility.yul\":764:769   */\n      dup2\n        /* \"#utility.yul\":719:770   */\n      tag_59\n      jump\t// in\n    tag_94:\n        /* \"#utility.yul\":714:717   */\n      dup3\n        /* \"#utility.yul\":707:771   */\n      mstore\n        /* \"#utility.yul\":618:777   */\n      pop\n      pop\n      jump\t// out\n        /* \"#utility.yul\":783:1033   */\n    tag_15:\n        /* \"#utility.yul\":890:894   */\n      0x00\n        /* \"#utility.yul\":928:930   */\n      0x20\n        /* \"#utility.yul\":917:926   */\n      dup3\n        /* \"#utility.yul\":913:931   */\n      add\n        /* \"#utility.yul\":905:931   */\n      swap1\n      pop\n        /* \"#utility.yul\":941:1026   */\n      tag_96\n        /* \"#utility.yul\":1023:1024   */\n      0x00\n        /* \"#utility.yul\":1012:1021   */\n      dup4\n        /* \"#utility.yul\":1008:1025   */\n      add\n        /* \"#utility.yul\":999:1005   */\n      dup5\n        /* \"#utility.yul\":941:1026   */\n      tag_60\n      jump\t// in\n    tag_96:\n        /* \"#utility.yul\":783:1033   */\n      swap3\n      swap2\n      pop\n      pop\n      jump\t// out\n        /* \"#utility.yul\":1120:1237   */\n    tag_62:\n        /* \"#utility.yul\":1229:1230   */\n      0x00\n        /* \"#utility.yul\":1226:1227   */\n      dup1\n        /* \"#utility.yul\":1219:1231   */\n      revert\n        /* \"#utility.yul\":1366:1480   */\n    tag_64:\n        /* \"#utility.yul\":1454:1455   */\n      0x05\n        /* \"#utility.yul\":1447:1452   */\n      dup2\n        /* \"#utility.yul\":1444:1456   */\n      lt\n        /* \"#utility.yul\":1434:1474   */\n      tag_101\n      jumpi\n        /* \"#utility.yul\":1470:1471   */\n      0x00\n        /* \"#utility.yul\":1467:1468   */\n      dup1\n        /* \"#utility.yul\":1460:1472   */\n      revert\n        /* \"#utility.yul\":1434:1474   */\n    tag_101:\n        /* \"#utility.yul\":1366:1480   */\n      pop\n      jump\t// out\n        /* \"#utility.yul\":1486:1655   */\n    tag_65:\n        /* \"#utility.yul\":1547:1552   */\n      0x00\n        /* \"#utility.yul\":1585:1591   */\n      dup2\n        /* \"#utility.yul\":1572:1592   */\n      calldataload\n        /* \"#utility.yul\":1563:1592   */\n      swap1\n      pop\n        /* \"#utility.yul\":1601:1649   */\n      tag_103\n        /* \"#utility.yul\":1643:1648   */\n      dup2\n        /* \"#utility.yul\":1601:1649   */\n      tag_64\n      jump\t// in\n    tag_103:\n        /* \"#utility.yul\":1486:1655   */\n      swap3\n      swap2\n      pop\n      pop\n      jump\t// out\n        /* \"#utility.yul\":1661:2020   */\n    tag_18:\n        /* \"#utility.yul\":1735:1741   */\n      0x00\n        /* \"#utility.yul\":1784:1786   */\n      0x20\n        /* \"#utility.yul\":1772:1781   */\n      dup3\n        /* \"#utility.yul\":1763:1770   */\n      dup5\n        /* \"#utility.yul\":1759:1782   */\n      sub\n        /* \"#utility.yul\":1755:1787   */\n      slt\n        /* \"#utility.yul\":1752:1871   */\n      iszero\n      tag_105\n      jumpi\n        /* \"#utility.yul\":1790:1869   */\n      tag_106\n      tag_62\n      jump\t// in\n    tag_106:\n        /* \"#utility.yul\":1752:1871   */\n    tag_105:\n        /* \"#utility.yul\":1910:1911   */\n      0x00\n        /* \"#utility.yul\":1935:2003   */\n      tag_107\n        /* \"#utility.yul\":1995:2002   */\n      dup5\n        /* \"#utility.yul\":1986:1992   */\n      dup3\n        /* \"#utility.yul\":1975:1984   */\n      dup6\n        /* \"#utility.yul\":1971:1993   */\n      add\n        /* \"#utility.yul\":1935:2003   */\n      tag_65\n      jump\t// in\n    tag_107:\n        /* \"#utility.yul\":1925:2003   */\n      swap2\n      pop\n        /* \"#utility.yul\":1881:2013   */\n      pop\n        /* \"#utility.yul\":1661:2020   */\n      swap3\n      swap2\n      pop\n      pop\n      jump\t// out\n        /* \"#utility.yul\":2026:2144   */\n    tag_66:\n        /* \"#utility.yul\":2112:2113   */\n      0x04\n        /* \"#utility.yul\":2105:2110   */\n      dup2\n        /* \"#utility.yul\":2102:2114   */\n      lt\n        /* \"#utility.yul\":2092:2138   */\n      tag_109\n      jumpi\n        /* \"#utility.yul\":2118:2136   */\n      tag_110\n      tag_46\n      jump\t// in\n    tag_110:\n        /* \"#utility.yul\":2092:2138   */\n    tag_109:\n        /* \"#utility.yul\":2026:2144   */\n      pop\n      jump\t// out\n        /* \"#utility.yul\":2150:2287   */\n    tag_67:\n        /* \"#utility.yul\":2200:2207   */\n      0x00\n        /* \"#utility.yul\":2229:2234   */\n      dup2\n        /* \"#utility.yul\":2218:2234   */\n      swap1\n      pop\n        /* \"#utility.yul\":2235:2281   */\n      tag_112\n        /* \"#utility.yul\":2275:2280   */\n      dup3\n        /* \"#utility.yul\":2235:2281   */\n      tag_66\n      jump\t// in\n    tag_112:\n        /* \"#utility.yul\":2150:2287   */\n      swap2\n      swap1\n      pop\n      jump\t// out\n        /* \"#utility.yul\":2293:2430   */\n    tag_68:\n        /* \"#utility.yul\":2354:2363   */\n      0x00\n        /* \"#utility.yul\":2387:2424   */\n      tag_114\n        /* \"#utility.yul\":2418:2423   */\n      dup3\n        /* \"#utility.yul\":2387:2424   */\n      tag_67\n      jump\t// in\n    tag_114:\n        /* \"#utility.yul\":2374:2424   */\n      swap1\n      pop\n        /* \"#utility.yul\":2293:2430   */\n      swap2\n      swap1\n      pop\n      jump\t// out\n        /* \"#utility.yul\":2436:2589   */\n    tag_69:\n        /* \"#utility.yul\":2534:2582   */\n      tag_116\n        /* \"#utility.yul\":2576:2581   */\n      dup2\n        /* \"#utility.yul\":2534:2582   */\n      tag_68\n      jump\t// in\n    tag_116:\n        /* \"#utility.yul\":2529:2532   */\n      dup3\n        /* \"#utility.yul\":2522:2583   */\n      mstore\n        /* \"#utility.yul\":2436:2589   */\n      pop\n      pop\n      jump\t// out\n        /* \"#utility.yul\":2595:2839   */\n    tag_23:\n        /* \"#utility.yul\":2699:2703   */\n      0x00\n        /* \"#utility.yul\":2737:2739   */\n      0x20\n        /* \"#utility.yul\":2726:2735   */\n      dup3\n        /* \"#utility.yul\":2722:2740   */\n      add\n        /* \"#utility.yul\":2714:2740   */\n      swap1\n      pop\n        /* \"#utility.yul\":2750:2832   */\n      tag_118\n        /* \"#utility.yul\":2829:2830   */\n      0x00\n        /* \"#utility.yul\":2818:2827   */\n      dup4\n        /* \"#utility.yul\":2814:2831   */\n      add\n        /* \"#utility.yul\":2805:2811   */\n      dup5\n        /* \"#utility.yul\":2750:2832   */\n      tag_69\n      jump\t// in\n    tag_118:\n        /* \"#utility.yul\":2595:2839   */\n      swap3\n      swap2\n      pop\n      pop\n      jump\t// out\n        /* \"#utility.yul\":2845:2965   */\n    tag_70:\n        /* \"#utility.yul\":2933:2934   */\n      0x05\n        /* \"#utility.yul\":2926:2931   */\n      dup2\n        /* \"#utility.yul\":2923:2935   */\n      lt\n        /* \"#utility.yul\":2913:2959   */\n      tag_120\n      jumpi\n        /* \"#utility.yul\":2939:2957   */\n      tag_121\n      tag_46\n      jump\t// in\n    tag_121:\n        /* \"#utility.yul\":2913:2959   */\n    tag_120:\n        /* \"#utility.yul\":2845:2965   */\n      pop\n      jump\t// out\n        /* \"#utility.yul\":2971:3112   */\n    tag_71:\n        /* \"#utility.yul\":3023:3030   */\n      0x00\n        /* \"#utility.yul\":3052:3057   */\n      dup2\n        /* \"#utility.yul\":3041:3057   */\n      swap1\n      pop\n        /* \"#utility.yul\":3058:3106   */\n      tag_123\n        /* \"#utility.yul\":3100:3105   */\n      dup3\n        /* \"#utility.yul\":3058:3106   */\n      tag_70\n      jump\t// in\n    tag_123:\n        /* \"#utility.yul\":2971:3112   */\n      swap2\n      swap1\n      pop\n      jump\t// out\n        /* \"#utility.yul\":3118:3259   */\n    tag_72:\n        /* \"#utility.yul\":3181:3190   */\n      0x00\n        /* \"#utility.yul\":3214:3253   */\n      tag_125\n        /* \"#utility.yul\":3247:3252   */\n      dup3\n        /* \"#utility.yul\":3214:3253   */\n      tag_71\n      jump\t// in\n    tag_125:\n        /* \"#utility.yul\":3201:3253   */\n      swap1\n      pop\n        /* \"#utility.yul\":3118:3259   */\n      swap2\n      swap1\n      pop\n      jump\t// out\n        /* \"#utility.yul\":3265:3422   */\n    tag_73:\n        /* \"#utility.yul\":3365:3415   */\n      tag_127\n        /* \"#utility.yul\":3409:3414   */\n      dup2\n        /* \"#utility.yul\":3365:3415   */\n      tag_72\n      jump\t// in\n    tag_127:\n        /* \"#utility.yul\":3360:3363   */\n      dup3\n        /* \"#utility.yul\":3353:3416   */\n      mstore\n        /* \"#utility.yul\":3265:3422   */\n      pop\n      pop\n      jump\t// out\n        /* \"#utility.yul\":3428:3676   */\n    tag_27:\n        /* \"#utility.yul\":3534:3538   */\n      0x00\n        /* \"#utility.yul\":3572:3574   */\n      0x20\n        /* \"#utility.yul\":3561:3570   */\n      dup3\n        /* \"#utility.yul\":3557:3575   */\n      add\n        /* \"#utility.yul\":3549:3575   */\n      swap1\n      pop\n        /* \"#utility.yul\":3585:3669   */\n      tag_129\n        /* \"#utility.yul\":3666:3667   */\n      0x00\n        /* \"#utility.yul\":3655:3664   */\n      dup4\n        /* \"#utility.yul\":3651:3668   */\n      add\n        /* \"#utility.yul\":3642:3648   */\n      dup5\n        /* \"#utility.yul\":3585:3669   */\n      tag_73\n      jump\t// in\n    tag_129:\n        /* \"#utility.yul\":3428:3676   */\n      swap3\n      swap2\n      pop\n      pop\n      jump\t// out\n        /* \"#utility.yul\":3682:3759   */\n    tag_74:\n        /* \"#utility.yul\":3719:3726   */\n      0x00\n        /* \"#utility.yul\":3748:3753   */\n      dup2\n        /* \"#utility.yul\":3737:3753   */\n      swap1\n      pop\n        /* \"#utility.yul\":3682:3759   */\n      swap2\n      swap1\n      pop\n      jump\t// out\n        /* \"#utility.yul\":3765:3883   */\n    tag_75:\n        /* \"#utility.yul\":3852:3876   */\n      tag_132\n        /* \"#utility.yul\":3870:3875   */\n      dup2\n        /* \"#utility.yul\":3852:3876   */\n      tag_74\n      jump\t// in\n    tag_132:\n        /* \"#utility.yul\":3847:3850   */\n      dup3\n        /* \"#utility.yul\":3840:3877   */\n      mstore\n        /* \"#utility.yul\":3765:3883   */\n      pop\n      pop\n      jump\t// out\n        /* \"#utility.yul\":3889:4111   */\n    tag_31:\n        /* \"#utility.yul\":3982:3986   */\n      0x00\n        /* \"#utility.yul\":4020:4022   */\n      0x20\n        /* \"#utility.yul\":4009:4018   */\n      dup3\n        /* \"#utility.yul\":4005:4023   */\n      add\n        /* \"#utility.yul\":3997:4023   */\n      swap1\n      pop\n        /* \"#utility.yul\":4033:4104   */\n      tag_134\n        /* \"#utility.yul\":4101:4102   */\n      0x00\n        /* \"#utility.yul\":4090:4099   */\n      dup4\n        /* \"#utility.yul\":4086:4103   */\n      add\n        /* \"#utility.yul\":4077:4083   */\n      dup5\n        /* \"#utility.yul\":4033:4104   */\n      tag_75\n      jump\t// in\n    tag_134:\n        /* \"#utility.yul\":3889:4111   */\n      swap3\n      swap2\n      pop\n      pop\n      jump\t// out\n        /* \"#utility.yul\":4117:4239   */\n    tag_76:\n        /* \"#utility.yul\":4190:4214   */\n      tag_136\n        /* \"#utility.yul\":4208:4213   */\n      dup2\n        /* \"#utility.yul\":4190:4214   */\n      tag_74\n      jump\t// in\n    tag_136:\n        /* \"#utility.yul\":4183:4188   */\n      dup2\n        /* \"#utility.yul\":4180:4215   */\n      eq\n        /* \"#utility.yul\":4170:4233   */\n      tag_137\n      jumpi\n        /* \"#utility.yul\":4229:4230   */\n      0x00\n        /* \"#utility.yul\":4226:4227   */\n      dup1\n        /* \"#utility.yul\":4219:4231   */\n      revert\n        /* \"#utility.yul\":4170:4233   */\n    tag_137:\n        /* \"#utility.yul\":4117:4239   */\n      pop\n      jump\t// out\n        /* \"#utility.yul\":4245:4384   */\n    tag_77:\n        /* \"#utility.yul\":4291:4296   */\n      0x00\n        /* \"#utility.yul\":4329:4335   */\n      dup2\n        /* \"#utility.yul\":4316:4336   */\n      calldataload\n        /* \"#utility.yul\":4307:4336   */\n      swap1\n      pop\n        /* \"#utility.yul\":4345:4378   */\n      tag_139\n        /* \"#utility.yul\":4372:4377   */\n      dup2\n        /* \"#utility.yul\":4345:4378   */\n      tag_76\n      jump\t// in\n    tag_139:\n        /* \"#utility.yul\":4245:4384   */\n      swap3\n      swap2\n      pop\n      pop\n      jump\t// out\n        /* \"#utility.yul\":4390:4719   */\n    tag_34:\n        /* \"#utility.yul\":4449:4455   */\n      0x00\n        /* \"#utility.yul\":4498:4500   */\n      0x20\n        /* \"#utility.yul\":4486:4495   */\n      dup3\n        /* \"#utility.yul\":4477:4484   */\n      dup5\n        /* \"#utility.yul\":4473:4496   */\n      sub\n        /* \"#utility.yul\":4469:4501   */\n      slt\n        /* \"#utility.yul\":4466:4585   */\n      iszero\n      tag_141\n      jumpi\n        /* \"#utility.yul\":4504:4583   */\n      tag_142\n      tag_62\n      jump\t// in\n    tag_142:\n        /* \"#utility.yul\":4466:4585   */\n    tag_141:\n        /* \"#utility.yul\":4624:4625   */\n      0x00\n        /* \"#utility.yul\":4649:4702   */\n      tag_143\n        /* \"#utility.yul\":4694:4701   */\n      dup5\n        /* \"#utility.yul\":4685:4691   */\n      dup3\n        /* \"#utility.yul\":4674:4683   */\n      dup6\n        /* \"#utility.yul\":4670:4692   */\n      add\n        /* \"#utility.yul\":4649:4702   */\n      tag_77\n      jump\t// in\n    tag_143:\n        /* \"#utility.yul\":4639:4702   */\n      swap2\n      pop\n        /* \"#utility.yul\":4595:4712   */\n      pop\n        /* \"#utility.yul\":4390:4719   */\n      swap3\n      swap2\n      pop\n      pop\n      jump\t// out\n        /* \"#utility.yul\":4725:4824   */\n    tag_78:\n        /* \"#utility.yul\":4777:4783   */\n      0x00\n        /* \"#utility.yul\":4811:4816   */\n      dup2\n        /* \"#utility.yul\":4805:4817   */\n      mload\n        /* \"#utility.yul\":4795:4817   */\n      swap1\n      pop\n        /* \"#utility.yul\":4725:4824   */\n      swap2\n      swap1\n      pop\n      jump\t// out\n        /* \"#utility.yul\":4830:4999   */\n    tag_79:\n        /* \"#utility.yul\":4914:4925   */\n      0x00\n        /* \"#utility.yul\":4948:4954   */\n      dup3\n        /* \"#utility.yul\":4943:4946   */\n      dup3\n        /* \"#utility.yul\":4936:4955   */\n      mstore\n        /* \"#utility.yul\":4988:4992   */\n      0x20\n        /* \"#utility.yul\":4983:4986   */\n      dup3\n        /* \"#utility.yul\":4979:4993   */\n      add\n        /* \"#utility.yul\":4964:4993   */\n      swap1\n      pop\n        /* \"#utility.yul\":4830:4999   */\n      swap3\n      swap2\n      pop\n      pop\n      jump\t// out\n        /* \"#utility.yul\":5005:5251   */\n    tag_80:\n        /* \"#utility.yul\":5086:5087   */\n      0x00\n        /* \"#utility.yul\":5096:5209   */\n    tag_147:\n        /* \"#utility.yul\":5110:5116   */\n      dup4\n        /* \"#utility.yul\":5107:5108   */\n      dup2\n        /* \"#utility.yul\":5104:5117   */\n      lt\n        /* \"#utility.yul\":5096:5209   */\n      iszero\n      tag_149\n      jumpi\n        /* \"#utility.yul\":5195:5196   */\n      dup1\n        /* \"#utility.yul\":5190:5193   */\n      dup3\n        /* \"#utility.yul\":5186:5197   */\n      add\n        /* \"#utility.yul\":5180:5198   */\n      mload\n        /* \"#utility.yul\":5176:5177   */\n      dup2\n        /* \"#utility.yul\":5171:5174   */\n      dup5\n        /* \"#utility.yul\":5167:5178   */\n      add\n        /* \"#utility.yul\":5160:5199   */\n      mstore\n        /* \"#utility.yul\":5132:5134   */\n      0x20\n        /* \"#utility.yul\":5129:5130   */\n      dup2\n        /* \"#utility.yul\":5125:5135   */\n      add\n        /* \"#utility.yul\":5120:5135   */\n      swap1\n      pop\n        /* \"#utility.yul\":5096:5209   */\n      jump(tag_147)\n    tag_149:\n        /* \"#utility.yul\":5243:5244   */\n      0x00\n        /* \"#utility.yul\":5234:5240   */\n      dup5\n        /* \"#utility.yul\":5229:5232   */\n      dup5\n        /* \"#utility.yul\":5225:5241   */\n      add\n        /* \"#utility.yul\":5218:5245   */\n      mstore\n        /* \"#utility.yul\":5067:5251   */\n      pop\n        /* \"#utility.yul\":5005:5251   */\n      pop\n      pop\n      pop\n      jump\t// out\n        /* \"#utility.yul\":5257:5359   */\n    tag_81:\n        /* \"#utility.yul\":5298:5304   */\n      0x00\n        /* \"#utility.yul\":5349:5351   */\n      0x1f\n        /* \"#utility.yul\":5345:5352   */\n      not\n        /* \"#utility.yul\":5340:5342   */\n      0x1f\n        /* \"#utility.yul\":5333:5338   */\n      dup4\n        /* \"#utility.yul\":5329:5343   */\n      add\n        /* \"#utility.yul\":5325:5353   */\n      and\n        /* \"#utility.yul\":5315:5353   */\n      swap1\n      pop\n        /* \"#utility.yul\":5257:5359   */\n      swap2\n      swap1\n      pop\n      jump\t// out\n        /* \"#utility.yul\":5365:5742   */\n    tag_82:\n        /* \"#utility.yul\":5453:5456   */\n      0x00\n        /* \"#utility.yul\":5481:5520   */\n      tag_152\n        /* \"#utility.yul\":5514:5519   */\n      dup3\n        /* \"#utility.yul\":5481:5520   */\n      tag_78\n      jump\t// in\n    tag_152:\n        /* \"#utility.yul\":5536:5607   */\n      tag_153\n        /* \"#utility.yul\":5600:5606   */\n      dup2\n        /* \"#utility.yul\":5595:5598   */\n      dup6\n        /* \"#utility.yul\":5536:5607   */\n      tag_79\n      jump\t// in\n    tag_153:\n        /* \"#utility.yul\":5529:5607   */\n      swap4\n      pop\n        /* \"#utility.yul\":5616:5681   */\n      tag_154\n        /* \"#utility.yul\":5674:5680   */\n      dup2\n        /* \"#utility.yul\":5669:5672   */\n      dup6\n        /* \"#utility.yul\":5662:5666   */\n      0x20\n        /* \"#utility.yul\":5655:5660   */\n      dup7\n        /* \"#utility.yul\":5651:5667   */\n      add\n        /* \"#utility.yul\":5616:5681   */\n      tag_80\n      jump\t// in\n    tag_154:\n        /* \"#utility.yul\":5706:5735   */\n      tag_155\n        /* \"#utility.yul\":5728:5734   */\n      dup2\n        /* \"#utility.yul\":5706:5735   */\n      tag_81\n      jump\t// in\n    tag_155:\n        /* \"#utility.yul\":5701:5704   */\n      dup5\n        /* \"#utility.yul\":5697:5736   */\n      add\n        /* \"#utility.yul\":5690:5736   */\n      swap2\n      pop\n        /* \"#utility.yul\":5457:5742   */\n      pop\n        /* \"#utility.yul\":5365:5742   */\n      swap3\n      swap2\n      pop\n      pop\n      jump\t// out\n        /* \"#utility.yul\":5748:6061   */\n    tag_37:\n        /* \"#utility.yul\":5861:5865   */\n      0x00\n        /* \"#utility.yul\":5899:5901   */\n      0x20\n        /* \"#utility.yul\":5888:5897   */\n      dup3\n        /* \"#utility.yul\":5884:5902   */\n      add\n        /* \"#utility.yul\":5876:5902   */\n      swap1\n      pop\n        /* \"#utility.yul\":5948:5957   */\n      dup2\n        /* \"#utility.yul\":5942:5946   */\n      dup2\n        /* \"#utility.yul\":5938:5958   */\n      sub\n        /* \"#utility.yul\":5934:5935   */\n      0x00\n        /* \"#utility.yul\":5923:5932   */\n      dup4\n        /* \"#utility.yul\":5919:5936   */\n      add\n        /* \"#utility.yul\":5912:5959   */\n      mstore\n        /* \"#utility.yul\":5976:6054   */\n      tag_157\n        /* \"#utility.yul\":6049:6053   */\n      dup2\n        /* \"#utility.yul\":6040:6046   */\n      dup5\n        /* \"#utility.yul\":5976:6054   */\n      tag_82\n      jump\t// in\n    tag_157:\n        /* \"#utility.yul\":5968:6054   */\n      swap1\n      pop\n        /* \"#utility.yul\":5748:6061   */\n      swap3\n      swap2\n      pop\n      pop\n      jump\t// out\n        /* \"#utility.yul\":6067:6247   */\n    tag_83:\n        /* \"#utility.yul\":6115:6192   */\n      0x4e487b7100000000000000000000000000000000000000000000000000000000\n        /* \"#utility.yul\":6112:6113   */\n      0x00\n        /* \"#utility.yul\":6105:6193   */\n      mstore\n        /* \"#utility.yul\":6212:6216   */\n      0x22\n        /* \"#utility.yul\":6209:6210   */\n      0x04\n        /* \"#utility.yul\":6202:6217   */\n      mstore\n        /* \"#utility.yul\":6236:6240   */\n      0x24\n        /* \"#utility.yul\":6233:6234   */\n      0x00\n        /* \"#utility.yul\":6226:6241   */\n      revert\n        /* \"#utility.yul\":6253:6573   */\n    tag_51:\n        /* \"#utility.yul\":6297:6303   */\n      0x00\n        /* \"#utility.yul\":6334:6335   */\n      0x02\n        /* \"#utility.yul\":6328:6332   */\n      dup3\n        /* \"#utility.yul\":6324:6336   */\n      div\n        /* \"#utility.yul\":6314:6336   */\n      swap1\n      pop\n        /* \"#utility.yul\":6381:6382   */\n      0x01\n        /* \"#utility.yul\":6375:6379   */\n      dup3\n        /* \"#utility.yul\":6371:6383   */\n      and\n        /* \"#utility.yul\":6402:6420   */\n      dup1\n        /* \"#utility.yul\":6392:6473   */\n      tag_160\n      jumpi\n        /* \"#utility.yul\":6458:6462   */\n      0x7f\n        /* \"#utility.yul\":6450:6456   */\n      dup3\n        /* \"#utility.yul\":6446:6463   */\n      and\n        /* \"#utility.yul\":6436:6463   */\n      swap2\n      pop\n        /* \"#utility.yul\":6392:6473   */\n    tag_160:\n        /* \"#utility.yul\":6520:6522   */\n      0x20\n        /* \"#utility.yul\":6512:6518   */\n      dup3\n        /* \"#utility.yul\":6509:6523   */\n      lt\n        /* \"#utility.yul\":6489:6507   */\n      dup2\n        /* \"#utility.yul\":6486:6524   */\n      sub\n        /* \"#utility.yul\":6483:6567   */\n      tag_161\n      jumpi\n        /* \"#utility.yul\":6539:6557   */\n      tag_162\n      tag_83\n      jump\t// in\n    tag_162:\n        /* \"#utility.yul\":6483:6567   */\n    tag_161:\n        /* \"#utility.yul\":6304:6573   */\n      pop\n        /* \"#utility.yul\":6253:6573   */\n      swap2\n      swap1\n      pop\n      jump\t// out\n\n    auxdata: 0xa2646970667358221220fff5b1834c973698fad53d9ca24e0d204cdd3dd9bcff1e208d644764596439cd64736f6c63430008120033\n}\n",
				"bytecode": {
					"linkReferences": {},
					"object": "608060405260026000806101000a81548160ff0219169083600381111561002957610028610040565b5b021790555034801561003a57600080fd5b5061006f565b7f4e487b7100000000000000000000000000000000000000000000000000000000600052602160045260246000fd5b6106398061007e6000396000f3fe608060405234801561001057600080fd5b50600436106100885760003560e01c8063919840ad1161005b578063919840ad146101035780639e7a13ad14610121578063a044c98714610151578063ea70a0171461016f57610088565b80631ea5f5891461008d57806324b8ba5f146100ab5780636cc014de146100c75780637e44755b146100e5575b600080fd5b610095610179565b6040516100a2919061032c565b60405180910390f35b6100c560048036038101906100c09190610371565b61018c565b005b6100cf6101b9565b6040516100dc91906103e6565b60405180910390f35b6100ed6101ca565b6040516100fa9190610449565b60405180910390f35b61010b6101dd565b604051610118919061047d565b60405180910390f35b61013b600480360381019061013691906104c4565b6101e2565b6040516101489190610581565b60405180910390f35b61015961028e565b6040516101669190610449565b60405180910390f35b6101776102a1565b005b600060039054906101000a900460ff1681565b80600060016101000a81548160ff021916908360048111156101b1576101b06102b5565b5b021790555050565b60008054906101000a900460ff1681565b600060019054906101000a900460ff1681565b600090565b600181815481106101f257600080fd5b90600052602060002001600091509050805461020d906105d2565b80601f0160208091040260200160405190810160405280929190818152602001828054610239906105d2565b80156102865780601f1061025b57610100808354040283529160200191610286565b820191906000526020600020905b81548152906001019060200180831161026957829003601f168201915b505050505081565b600060029054906101000a900460ff1681565b600060036101000a81549060ff0219169055565b7f4e487b7100000000000000000000000000000000000000000000000000000000600052602160045260246000fd5b600581106102f5576102f46102b5565b5b50565b6000819050610306826102e4565b919050565b6000610316826102f8565b9050919050565b6103268161030b565b82525050565b6000602082019050610341600083018461031d565b92915050565b600080fd5b6005811061035957600080fd5b50565b60008135905061036b8161034c565b92915050565b60006020828403121561038757610386610347565b5b60006103958482850161035c565b91505092915050565b600481106103af576103ae6102b5565b5b50565b60008190506103c08261039e565b919050565b60006103d0826103b2565b9050919050565b6103e0816103c5565b82525050565b60006020820190506103fb60008301846103d7565b92915050565b60058110610412576104116102b5565b5b50565b600081905061042382610401565b919050565b600061043382610415565b9050919050565b61044381610428565b82525050565b600060208201905061045e600083018461043a565b92915050565b6000819050919050565b61047781610464565b82525050565b6000602082019050610492600083018461046e565b92915050565b6104a181610464565b81146104ac57600080fd5b50565b6000813590506104be81610498565b92915050565b6000602082840312156104da576104d9610347565b5b60006104e8848285016104af565b91505092915050565b600081519050919050565b600082825260208201905092915050565b60005b8381101561052b578082015181840152602081019050610510565b60008484015250505050565b6000601f19601f8301169050919050565b6000610553826104f1565b61055d81856104fc565b935061056d81856020860161050d565b61057681610537565b840191505092915050565b6000602082019050818103600083015261059b8184610548565b905092915050565b7f4e487b7100000000000000000000000000000000000000000000000000000000600052602260045260246000fd5b600060028204905060018216806105ea57607f821691505b6020821081036105fd576105fc6105a3565b5b5091905056fea2646970667358221220fff5b1834c973698fad53d9ca24e0d204cdd3dd9bcff1e208d644764596439cd64736f6c63430008120033",
					"opcodes": "PUSH1 0x80 PUSH1 0x40 MSTORE PUSH1 0x2 PUSH1 0x0 DUP1 PUSH2 0x100 EXP DUP2 SLOAD DUP2 PUSH1 0xFF MUL NOT AND SWAP1 DUP4 PUSH1 0x3 DUP2 GT ISZERO PUSH2 0x29 JUMPI PUSH2 0x28 PUSH2 0x40 JUMP JUMPDEST JUMPDEST MUL OR SWAP1 SSTORE POP CALLVALUE DUP1 ISZERO PUSH2 0x3A JUMPI PUSH1 0x0 DUP1 REVERT JUMPDEST POP PUSH2 0x6F JUMP JUMPDEST PUSH32 0x4E487B7100000000000000000000000000000000000000000000000000000000 PUSH1 0x0 MSTORE PUSH1 0x21 PUSH1 0x4 MSTORE PUSH1 0x24 PUSH1 0x0 REVERT JUMPDEST PUSH2 0x639 DUP1 PUSH2 0x7E PUSH1 0x0 CODECOPY PUSH1 0x0 RETURN INVALID PUSH1 0x80 PUSH1 0x40 MSTORE CALLVALUE DUP1 ISZERO PUSH2 0x10 JUMPI PUSH1 0x0 DUP1 REVERT JUMPDEST POP PUSH1 0x4 CALLDATASIZE LT PUSH2 0x88 JUMPI PUSH1 0x0 CALLDATALOAD PUSH1 0xE0 SHR DUP1 PUSH4 0x919840AD GT PUSH2 0x5B JUMPI DUP1 PUSH4 0x919840AD EQ PUSH2 0x103 JUMPI DUP1 PUSH4 0x9E7A13AD EQ PUSH2 0x121 JUMPI DUP1 PUSH4 0xA044C987 EQ PUSH2 0x151 JUMPI DUP1 PUSH4 0xEA70A017 EQ PUSH2 0x16F JUMPI PUSH2 0x88 JUMP JUMPDEST DUP1 PUSH4 0x1EA5F589 EQ PUSH2 0x8D JUMPI DUP1 PUSH4 0x24B8BA5F EQ PUSH2 0xAB JUMPI DUP1 PUSH4 0x6CC014DE EQ PUSH2 0xC7 JUMPI DUP1 PUSH4 0x7E44755B EQ PUSH2 0xE5 JUMPI JUMPDEST PUSH1 0x0 DUP1 REVERT JUMPDEST PUSH2 0x95 PUSH2 0x179 JUMP JUMPDEST PUSH1 0x40 MLOAD PUSH2 0xA2 SWAP2 SWAP1 PUSH2 0x32C JUMP JUMPDEST PUSH1 0x40 MLOAD DUP1 SWAP2 SUB SWAP1 RETURN JUMPDEST PUSH2 0xC5 PUSH1 0x4 DUP1 CALLDATASIZE SUB DUP2 ADD SWAP1 PUSH2 0xC0 SWAP2 SWAP1 PUSH2 0x371 JUMP JUMPDEST PUSH2 0x18C JUMP JUMPDEST STOP JUMPDEST PUSH2 0xCF PUSH2 0x1B9 JUMP JUMPDEST PUSH1 0x40 MLOAD PUSH2 0xDC SWAP2 SWAP1 PUSH2 0x3E6 JUMP JUMPDEST PUSH1 0x40 MLOAD DUP1 SWAP2 SUB SWAP1 RETURN JUMPDEST PUSH2 0xED PUSH2 0x1CA JUMP JUMPDEST PUSH1 0x40 MLOAD PUSH2 0xFA SWAP2 SWAP1 PUSH2 0x449 JUMP JUMPDEST PUSH1 0x40 MLOAD DUP1 SWAP2 SUB SWAP1 RETURN JUMPDEST PUSH2 0x10B PUSH2 0x1DD JUMP JUMPDEST PUSH1 0x40 MLOAD PUSH2 0x118 SWAP2 SWAP1 PUSH2 0x47D JUMP JUMPDEST PUSH1 0x40 MLOAD DUP1 SWAP2 SUB SWAP1 RETURN JUMPDEST PUSH2 0x13B PUSH1 0x4 DUP1 CALLDATASIZE SUB DUP2 ADD SWAP1 PUSH2 0x136 SWAP2 SWAP1 PUSH2 0x4C4 JUMP JUMPDEST PUSH2 0x1E2 JUMP JUMPDEST PUSH1 0x40 MLOAD PUSH2 0x148 SWAP2 SWAP1 PUSH2 0x581 JUMP JUMPDEST PUSH1 0x40 MLOAD DUP1 SWAP2 SUB SWAP1 RETURN JUMPDEST PUSH2 0x159 PUSH2 0x28E JUMP JUMPDEST PUSH1 0x40 MLOAD PUSH2 0x166 SWAP2 SWAP1 PUSH2 0x449 JUMP JUMPDEST PUSH1 0x40 MLOAD DUP1 SWAP2 SUB SWAP1 RETURN JUMPDEST PUSH2 0x177 PUSH2 0x2A1 JUMP JUMPDEST STOP JUMPDEST PUSH1 0x0 PUSH1 0x3 SWAP1 SLOAD SWAP1 PUSH2 0x100 EXP SWAP1 DIV PUSH1 0xFF AND DUP2 JUMP JUMPDEST DUP1 PUSH1 0x0 PUSH1 0x1 PUSH2 0x100 EXP DUP2 SLOAD DUP2 PUSH1 0xFF MUL NOT AND SWAP1 DUP4 PUSH1 0x4 DUP2 GT ISZERO PUSH2 0x1B1 JUMPI PUSH2 0x1B0 PUSH2 0x2B5 JUMP JUMPDEST JUMPDEST MUL OR SWAP1 SSTORE POP POP JUMP JUMPDEST PUSH1 0x0 DUP1 SLOAD SWAP1 PUSH2 0x100 EXP SWAP1 DIV PUSH1 0xFF AND DUP2 JUMP JUMPDEST PUSH1 0x0 PUSH1 0x1 SWAP1 SLOAD SWAP1 PUSH2 0x100 EXP SWAP1 DIV PUSH1 0xFF AND DUP2 JUMP JUMPDEST PUSH1 0x0 SWAP1 JUMP JUMPDEST PUSH1 0x1 DUP2 DUP2 SLOAD DUP2 LT PUSH2 0x1F2 JUMPI PUSH1 0x0 DUP1 REVERT JUMPDEST SWAP1 PUSH1 0x0 MSTORE PUSH1 0x20 PUSH1 0x0 KECCAK256 ADD PUSH1 0x0 SWAP2 POP SWAP1 POP DUP1 SLOAD PUSH2 0x20D SWAP1 PUSH2 0x5D2 JUMP JUMPDEST DUP1 PUSH1 0x1F ADD PUSH1 0x20 DUP1 SWAP2 DIV MUL PUSH1 0x20 ADD PUSH1 0x40 MLOAD SWAP1 DUP2 ADD PUSH1 0x40 MSTORE DUP1 SWAP3 SWAP2 SWAP1 DUP2 DUP2 MSTORE PUSH1 0x20 ADD DUP3 DUP1 SLOAD PUSH2 0x239 SWAP1 PUSH2 0x5D2 JUMP JUMPDEST DUP1 ISZERO PUSH2 0x286 JUMPI DUP1 PUSH1 0x1F LT PUSH2 0x25B JUMPI PUSH2 0x100 DUP1 DUP4 SLOAD DIV MUL DUP4 MSTORE SWAP2 PUSH1 0x20 ADD SWAP2 PUSH2 0x286 JUMP JUMPDEST DUP3 ADD SWAP2 SWAP1 PUSH1 0x0 MSTORE PUSH1 0x20 PUSH1 0x0 KECCAK256 SWAP1 JUMPDEST DUP2 SLOAD DUP2 MSTORE SWAP1 PUSH1 0x1 ADD SWAP1 PUSH1 0x20 ADD DUP1 DUP4 GT PUSH2 0x269 JUMPI DUP3 SWAP1 SUB PUSH1 0x1F AND DUP3 ADD SWAP2 JUMPDEST POP POP POP POP POP DUP2 JUMP JUMPDEST PUSH1 0x0 PUSH1 0x2 SWAP1 SLOAD SWAP1 PUSH2 0x100 EXP SWAP1 DIV PUSH1 0xFF AND DUP2 JUMP JUMPDEST PUSH1 0x0 PUSH1 0x3 PUSH2 0x100 EXP DUP2 SLOAD SWAP1 PUSH1 0xFF MUL NOT AND SWAP1 SSTORE JUMP JUMPDEST PUSH32 0x4E487B7100000000000000000000000000000000000000000000000000000000 PUSH1 0x0 MSTORE PUSH1 0x21 PUSH1 0x4 MSTORE PUSH1 0x24 PUSH1 0x0 REVERT JUMPDEST PUSH1 0x5 DUP2 LT PUSH2 0x2F5 JUMPI PUSH2 0x2F4 PUSH2 0x2B5 JUMP JUMPDEST JUMPDEST POP JUMP JUMPDEST PUSH1 0x0 DUP2 SWAP1 POP PUSH2 0x306 DUP3 PUSH2 0x2E4 JUMP JUMPDEST SWAP2 SWAP1 POP JUMP JUMPDEST PUSH1 0x0 PUSH2 0x316 DUP3 PUSH2 0x2F8 JUMP JUMPDEST SWAP1 POP SWAP2 SWAP1 POP JUMP JUMPDEST PUSH2 0x326 DUP2 PUSH2 0x30B JUMP JUMPDEST DUP3 MSTORE POP POP JUMP JUMPDEST PUSH1 0x0 PUSH1 0x20 DUP3 ADD SWAP1 POP PUSH2 0x341 PUSH1 0x0 DUP4 ADD DUP5 PUSH2 0x31D JUMP JUMPDEST SWAP3 SWAP2 POP POP JUMP JUMPDEST PUSH1 0x0 DUP1 REVERT JUMPDEST PUSH1 0x5 DUP2 LT PUSH2 0x359 JUMPI PUSH1 0x0 DUP1 REVERT JUMPDEST POP JUMP JUMPDEST PUSH1 0x0 DUP2 CALLDATALOAD SWAP1 POP PUSH2 0x36B DUP2 PUSH2 0x34C JUMP JUMPDEST SWAP3 SWAP2 POP POP JUMP JUMPDEST PUSH1 0x0 PUSH1 0x20 DUP3 DUP5 SUB SLT ISZERO PUSH2 0x387 JUMPI PUSH2 0x386 PUSH2 0x347 JUMP JUMPDEST JUMPDEST PUSH1 0x0 PUSH2 0x395 DUP5 DUP3 DUP6 ADD PUSH2 0x35C JUMP JUMPDEST SWAP2 POP POP SWAP3 SWAP2 POP POP JUMP JUMPDEST PUSH1 0x4 DUP2 LT PUSH2 0x3AF JUMPI PUSH2 0x3AE PUSH2 0x2B5 JUMP JUMPDEST JUMPDEST POP JUMP JUMPDEST PUSH1 0x0 DUP2 SWAP1 POP PUSH2 0x3C0 DUP3 PUSH2 0x39E JUMP JUMPDEST SWAP2 SWAP1 POP JUMP JUMPDEST PUSH1 0x0 PUSH2 0x3D0 DUP3 PUSH2 0x3B2 JUMP JUMPDEST SWAP1 POP SWAP2 SWAP1 POP JUMP JUMPDEST PUSH2 0x3E0 DUP2 PUSH2 0x3C5 JUMP JUMPDEST DUP3 MSTORE POP POP JUMP JUMPDEST PUSH1 0x0 PUSH1 0x20 DUP3 ADD SWAP1 POP PUSH2 0x3FB PUSH1 0x0 DUP4 ADD DUP5 PUSH2 0x3D7 JUMP JUMPDEST SWAP3 SWAP2 POP POP JUMP JUMPDEST PUSH1 0x5 DUP2 LT PUSH2 0x412 JUMPI PUSH2 0x411 PUSH2 0x2B5 JUMP JUMPDEST JUMPDEST POP JUMP JUMPDEST PUSH1 0x0 DUP2 SWAP1 POP PUSH2 0x423 DUP3 PUSH2 0x401 JUMP JUMPDEST SWAP2 SWAP1 POP JUMP JUMPDEST PUSH1 0x0 PUSH2 0x433 DUP3 PUSH2 0x415 JUMP JUMPDEST SWAP1 POP SWAP2 SWAP1 POP JUMP JUMPDEST PUSH2 0x443 DUP2 PUSH2 0x428 JUMP JUMPDEST DUP3 MSTORE POP POP JUMP JUMPDEST PUSH1 0x0 PUSH1 0x20 DUP3 ADD SWAP1 POP PUSH2 0x45E PUSH1 0x0 DUP4 ADD DUP5 PUSH2 0x43A JUMP JUMPDEST SWAP3 SWAP2 POP POP JUMP JUMPDEST PUSH1 0x0 DUP2 SWAP1 POP SWAP2 SWAP1 POP JUMP JUMPDEST PUSH2 0x477 DUP2 PUSH2 0x464 JUMP JUMPDEST DUP3 MSTORE POP POP JUMP JUMPDEST PUSH1 0x0 PUSH1 0x20 DUP3 ADD SWAP1 POP PUSH2 0x492 PUSH1 0x0 DUP4 ADD DUP5 PUSH2 0x46E JUMP JUMPDEST SWAP3 SWAP2 POP POP JUMP JUMPDEST PUSH2 0x4A1 DUP2 PUSH2 0x464 JUMP JUMPDEST DUP2 EQ PUSH2 0x4AC JUMPI PUSH1 0x0 DUP1 REVERT JUMPDEST POP JUMP JUMPDEST PUSH1 0x0 DUP2 CALLDATALOAD SWAP1 POP PUSH2 0x4BE DUP2 PUSH2 0x498 JUMP JUMPDEST SWAP3 SWAP2 POP POP JUMP JUMPDEST PUSH1 0x0 PUSH1 0x20 DUP3 DUP5 SUB SLT ISZERO PUSH2 0x4DA JUMPI PUSH2 0x4D9 PUSH2 0x347 JUMP JUMPDEST JUMPDEST PUSH1 0x0 PUSH2 0x4E8 DUP5 DUP3 DUP6 ADD PUSH2 0x4AF JUMP JUMPDEST SWAP2 POP POP SWAP3 SWAP2 POP POP JUMP JUMPDEST PUSH1 0x0 DUP2 MLOAD SWAP1 POP SWAP2 SWAP1 POP JUMP JUMPDEST PUSH1 0x0 DUP3 DUP3 MSTORE PUSH1 0x20 DUP3 ADD SWAP1 POP SWAP3 SWAP2 POP POP JUMP JUMPDEST PUSH1 0x0 JUMPDEST DUP4 DUP2 LT ISZERO PUSH2 0x52B JUMPI DUP1 DUP3 ADD MLOAD DUP2 DUP5 ADD MSTORE PUSH1 0x20 DUP2 ADD SWAP1 POP PUSH2 0x510 JUMP JUMPDEST PUSH1 0x0 DUP5 DUP5 ADD MSTORE POP POP POP POP JUMP JUMPDEST PUSH1 0x0 PUSH1 0x1F NOT PUSH1 0x1F DUP4 ADD AND SWAP1 POP SWAP2 SWAP1 POP JUMP JUMPDEST PUSH1 0x0 PUSH2 0x553 DUP3 PUSH2 0x4F1 JUMP JUMPDEST PUSH2 0x55D DUP2 DUP6 PUSH2 0x4FC JUMP JUMPDEST SWAP4 POP PUSH2 0x56D DUP2 DUP6 PUSH1 0x20 DUP7 ADD PUSH2 0x50D JUMP JUMPDEST PUSH2 0x576 DUP2 PUSH2 0x537 JUMP JUMPDEST DUP5 ADD SWAP2 POP POP SWAP3 SWAP2 POP POP JUMP JUMPDEST PUSH1 0x0 PUSH1 0x20 DUP3 ADD SWAP1 POP DUP2 DUP2 SUB PUSH1 0x0 DUP4 ADD MSTORE PUSH2 0x59B DUP2 DUP5 PUSH2 0x548 JUMP JUMPDEST SWAP1 POP SWAP3 SWAP2 POP POP JUMP JUMPDEST PUSH32 0x4E487B7100000000000000000000000000000000000000000000000000000000 PUSH1 0x0 MSTORE PUSH1 0x22 PUSH1 0x4 MSTORE PUSH1 0x24 PUSH1 0x0 REVERT JUMPDEST PUSH1 0x0 PUSH1 0x2 DUP3 DIV SWAP1 POP PUSH1 0x1 DUP3 AND DUP1 PUSH2 0x5EA JUMPI PUSH1 0x7F DUP3 AND SWAP2 POP JUMPDEST PUSH1 0x20 DUP3 LT DUP2 SUB PUSH2 0x5FD JUMPI PUSH2 0x5FC PUSH2 0x5A3 JUMP JUMPDEST JUMPDEST POP SWAP2 SWAP1 POP JUMP INVALID LOG2 PUSH5 0x6970667358 0x22 SLT KECCAK256 SELFDESTRUCT CREATE2 0xB1 DUP4 0x4C SWAP8 CALLDATASIZE SWAP9 STATICCALL 0xD5 RETURNDATASIZE SWAP13 LOG2 0x4E 0xD KECCAK256 0x4C 0xDD RETURNDATASIZE 0xD9 0xBC SELFDESTRUCT 0x1E KECCAK256 DUP14 PUSH5 0x4764596439 0xCD PUSH5 0x736F6C6343 STOP ADDMOD SLT STOP CALLER "
				},
				"gasEstimates": {
					"creation": {
						"codeDepositCost": "318600",
						"executionCost": "24654",
						"totalCost": "343254"
					},
					"external": {
						"check()": "329",
						"idelete()": "24502",
						"people(uint256)": "infinite",
						"s1()": "2602",
						"set(uint8)": "24723",
						"w1()": "2677",
						"w3()": "2654",
						"w5()": "2611"
					}
				},
				"methodIdentifiers": {
					"check()": "919840ad",
					"idelete()": "ea70a017",
					"people(uint256)": "9e7a13ad",
					"s1()": "6cc014de",
					"set(uint8)": "24b8ba5f",
					"w1()": "7e44755b",
					"w3()": "a044c987",
					"w5()": "1ea5f589"
				}
			},
			"storageLayout": {
				"storage": [
					{
						"astId": 149,
						"contract": "for_checkingfiles.sol:new_check",
						"label": "s1",
						"offset": 0,
						"slot": "0",
						"type": "t_enum(ShirtSize)144"
					},
					{
						"astId": 158,
						"contract": "for_checkingfiles.sol:new_check",
						"label": "w1",
						"offset": 1,
						"slot": "0",
						"type": "t_enum(WorkingDays)155"
					},
					{
						"astId": 161,
						"contract": "for_checkingfiles.sol:new_check",
						"label": "w3",
						"offset": 2,
						"slot": "0",
						"type": "t_enum(WorkingDays)155"
					},
					{
						"astId": 181,
						"contract": "for_checkingfiles.sol:new_check",
						"label": "w5",
						"offset": 3,
						"slot": "0",
						"type": "t_enum(WorkingDayss)178"
					},
					{
						"astId": 191,
						"contract": "for_checkingfiles.sol:new_check",
						"label": "people",
						"offset": 0,
						"slot": "1",
						"type": "t_array(t_string_storage)dyn_storage"
					}
				],
				"types": {
					"t_array(t_string_storage)dyn_storage": {
						"base": "t_string_storage",
						"encoding": "dynamic_array",
						"label": "string[]",
						"numberOfBytes": "32"
					},
					"t_enum(ShirtSize)144": {
						"encoding": "inplace",
						"label": "enum new_check.ShirtSize",
						"numberOfBytes": "1"
					},
					"t_enum(WorkingDays)155": {
						"encoding": "inplace",
						"label": "enum new_check.WorkingDays",
						"numberOfBytes": "1"
					},
					"t_enum(WorkingDayss)178": {
						"encoding": "inplace",
						"label": "enum new_check.WorkingDayss",
						"numberOfBytes": "1"
					},
					"t_string_storage": {
						"encoding": "bytes",
						"label": "string",
						"numberOfBytes": "32"
					}
				}
			},
			"userdoc": {
				"kind": "user",
				"methods": {},
				"version": 1
			}
		}
	}
}