{
	"for_checkingfiles.sol": {
		"summers2": {
			"abi": [
				{
					"inputs": [],
					"name": "set",
					"outputs": [],
					"stateMutability": "nonpayable",
					"type": "function"
				},
				{
					"inputs": [
						{
							"internalType": "uint256",
							"name": "",
							"type": "uint256"
						}
					],
					"name": "summer",
					"outputs": [
						{
							"internalType": "enum summers2.Month",
							"name": "",
							"type": "uint8"
						}
					],
					"stateMutability": "view",
					"type": "function"
				}
			],
			"devdoc": {
				"kind": "dev",
				"methods": {},
				"version": 1
			},
			"evm": {
				"assembly": "    /* \"for_checkingfiles.sol\":2016:2409  contract summers2{... */\n  mstore(0x40, 0x80)\n  callvalue\n  dup1\n  iszero\n  tag_1\n  jumpi\n  0x00\n  dup1\n  revert\ntag_1:\n  pop\n  dataSize(sub_0)\n  dup1\n  dataOffset(sub_0)\n  0x00\n  codecopy\n  0x00\n  return\nstop\n\nsub_0: assembly {\n        /* \"for_checkingfiles.sol\":2016:2409  contract summers2{... */\n      mstore(0x40, 0x80)\n      callvalue\n      dup1\n      iszero\n      tag_1\n      jumpi\n      0x00\n      dup1\n      revert\n    tag_1:\n      pop\n      jumpi(tag_2, lt(calldatasize, 0x04))\n      shr(0xe0, calldataload(0x00))\n      dup1\n      0xb8e010de\n      eq\n      tag_3\n      jumpi\n      dup1\n      0xd02cb182\n      eq\n      tag_4\n      jumpi\n    tag_2:\n      0x00\n      dup1\n      revert\n        /* \"for_checkingfiles.sol\":2172:2406  function set()public {... */\n    tag_3:\n      tag_5\n      tag_6\n      jump\t// in\n    tag_5:\n      stop\n        /* \"for_checkingfiles.sol\":2128:2149  Month[] public summer */\n    tag_4:\n      tag_7\n      0x04\n      dup1\n      calldatasize\n      sub\n      dup2\n      add\n      swap1\n      tag_8\n      swap2\n      swap1\n      tag_9\n      jump\t// in\n    tag_8:\n      tag_10\n      jump\t// in\n    tag_7:\n      mload(0x40)\n      tag_11\n      swap2\n      swap1\n      tag_12\n      jump\t// in\n    tag_11:\n      mload(0x40)\n      dup1\n      swap2\n      sub\n      swap1\n      return\n        /* \"for_checkingfiles.sol\":2172:2406  function set()public {... */\n    tag_6:\n        /* \"for_checkingfiles.sol\":2208:2214  uint j */\n      0x00\n        /* \"for_checkingfiles.sol\":2216:2217  1 */\n      0x01\n        /* \"for_checkingfiles.sol\":2208:2217  uint j= 1 */\n      swap1\n      pop\n        /* \"for_checkingfiles.sol\":2204:2399  for(uint j= 1;i<= Month.July; j++){... */\n    tag_14:\n        /* \"for_checkingfiles.sol\":2222:2232  Month.July */\n      0x06\n        /* \"for_checkingfiles.sol\":2218:2232  i<= Month.July */\n      0x0b\n      dup2\n      gt\n      iszero\n      tag_17\n      jumpi\n      tag_18\n      tag_19\n      jump\t// in\n    tag_18:\n    tag_17:\n        /* \"for_checkingfiles.sol\":2218:2219  i */\n      0x01\n      0x00\n      swap1\n      sload\n      swap1\n      0x0100\n      exp\n      swap1\n      div\n      0xff\n      and\n        /* \"for_checkingfiles.sol\":2218:2232  i<= Month.July */\n      0x0b\n      dup2\n      gt\n      iszero\n      tag_20\n      jumpi\n      tag_21\n      tag_19\n      jump\t// in\n    tag_21:\n    tag_20:\n      gt\n        /* \"for_checkingfiles.sol\":2204:2399  for(uint j= 1;i<= Month.July; j++){... */\n      tag_15\n      jumpi\n        /* \"for_checkingfiles.sol\":2268:2269  5 */\n      0x05\n        /* \"for_checkingfiles.sol\":2262:2270  Month(5) */\n      0x0b\n      dup2\n      gt\n      iszero\n      tag_22\n      jumpi\n      tag_23\n      tag_19\n      jump\t// in\n    tag_23:\n    tag_22:\n        /* \"for_checkingfiles.sol\":2257:2270  i == Month(5) */\n      0x0b\n      dup2\n      gt\n      iszero\n      tag_24\n      jumpi\n      tag_25\n      tag_19\n      jump\t// in\n    tag_25:\n    tag_24:\n        /* \"for_checkingfiles.sol\":2257:2258  i */\n      0x01\n      0x00\n      swap1\n      sload\n      swap1\n      0x0100\n      exp\n      swap1\n      div\n      0xff\n      and\n        /* \"for_checkingfiles.sol\":2257:2270  i == Month(5) */\n      0x0b\n      dup2\n      gt\n      iszero\n      tag_26\n      jumpi\n      tag_27\n      tag_19\n      jump\t// in\n    tag_27:\n    tag_26:\n      eq\n        /* \"for_checkingfiles.sol\":2256:2289  (i == Month(5))|| (i == Month(6)) */\n      dup1\n      tag_28\n      jumpi\n      pop\n        /* \"for_checkingfiles.sol\":2286:2287  6 */\n      0x06\n        /* \"for_checkingfiles.sol\":2280:2288  Month(6) */\n      0x0b\n      dup2\n      gt\n      iszero\n      tag_29\n      jumpi\n      tag_30\n      tag_19\n      jump\t// in\n    tag_30:\n    tag_29:\n        /* \"for_checkingfiles.sol\":2275:2288  i == Month(6) */\n      0x0b\n      dup2\n      gt\n      iszero\n      tag_31\n      jumpi\n      tag_32\n      tag_19\n      jump\t// in\n    tag_32:\n    tag_31:\n        /* \"for_checkingfiles.sol\":2275:2276  i */\n      0x01\n      0x00\n      swap1\n      sload\n      swap1\n      0x0100\n      exp\n      swap1\n      div\n      0xff\n      and\n        /* \"for_checkingfiles.sol\":2275:2288  i == Month(6) */\n      0x0b\n      dup2\n      gt\n      iszero\n      tag_33\n      jumpi\n      tag_34\n      tag_19\n      jump\t// in\n    tag_34:\n    tag_33:\n      eq\n        /* \"for_checkingfiles.sol\":2256:2289  (i == Month(5))|| (i == Month(6)) */\n    tag_28:\n        /* \"for_checkingfiles.sol\":2256:2309  (i == Month(5))|| (i == Month(6))  || (i == Month(7)) */\n      dup1\n      tag_35\n      jumpi\n      pop\n        /* \"for_checkingfiles.sol\":2306:2307  7 */\n      0x07\n        /* \"for_checkingfiles.sol\":2300:2308  Month(7) */\n      0x0b\n      dup2\n      gt\n      iszero\n      tag_36\n      jumpi\n      tag_37\n      tag_19\n      jump\t// in\n    tag_37:\n    tag_36:\n        /* \"for_checkingfiles.sol\":2295:2308  i == Month(7) */\n      0x0b\n      dup2\n      gt\n      iszero\n      tag_38\n      jumpi\n      tag_39\n      tag_19\n      jump\t// in\n    tag_39:\n    tag_38:\n        /* \"for_checkingfiles.sol\":2295:2296  i */\n      0x01\n      0x00\n      swap1\n      sload\n      swap1\n      0x0100\n      exp\n      swap1\n      div\n      0xff\n      and\n        /* \"for_checkingfiles.sol\":2295:2308  i == Month(7) */\n      0x0b\n      dup2\n      gt\n      iszero\n      tag_40\n      jumpi\n      tag_41\n      tag_19\n      jump\t// in\n    tag_41:\n    tag_40:\n      eq\n        /* \"for_checkingfiles.sol\":2256:2309  (i == Month(5))|| (i == Month(6))  || (i == Month(7)) */\n    tag_35:\n        /* \"for_checkingfiles.sol\":2253:2366  if((i == Month(5))|| (i == Month(6))  || (i == Month(7))){... */\n      iszero\n      tag_42\n      jumpi\n        /* \"for_checkingfiles.sol\":2329:2335  summer */\n      0x00\n        /* \"for_checkingfiles.sol\":2347:2348  i */\n      0x01\n      0x00\n      swap1\n      sload\n      swap1\n      0x0100\n      exp\n      swap1\n      div\n      0xff\n      and\n        /* \"for_checkingfiles.sol\":2329:2350  summer.push(Month(i)) */\n      swap1\n      dup1\n      0x01\n      dup2\n      sload\n      add\n      dup1\n      dup3\n      sstore\n      dup1\n      swap2\n      pop\n      pop\n      0x01\n      swap1\n      sub\n      swap1\n      0x00\n      mstore\n      keccak256(0x00, 0x20)\n      swap1\n      0x20\n      swap2\n      dup3\n      dup3\n      div\n      add\n      swap2\n      swap1\n      mod\n      swap1\n      swap2\n      swap1\n      swap2\n      swap1\n      swap2\n      0x0100\n      exp\n      dup2\n      sload\n      dup2\n      0xff\n      mul\n      not\n      and\n      swap1\n      dup4\n      0x0b\n      dup2\n      gt\n      iszero\n      tag_44\n      jumpi\n      tag_45\n      tag_19\n      jump\t// in\n    tag_45:\n    tag_44:\n      mul\n      or\n      swap1\n      sstore\n      pop\n        /* \"for_checkingfiles.sol\":2253:2366  if((i == Month(5))|| (i == Month(6))  || (i == Month(7))){... */\n    tag_42:\n        /* \"for_checkingfiles.sol\":2385:2386  j */\n      dup1\n        /* \"for_checkingfiles.sol\":2379:2387  Month(j) */\n      0x0b\n      dup2\n      gt\n      iszero\n      tag_46\n      jumpi\n      tag_47\n      tag_19\n      jump\t// in\n    tag_47:\n    tag_46:\n        /* \"for_checkingfiles.sol\":2376:2377  i */\n      0x01\n      0x00\n        /* \"for_checkingfiles.sol\":2376:2387  i =Month(j) */\n      0x0100\n      exp\n      dup2\n      sload\n      dup2\n      0xff\n      mul\n      not\n      and\n      swap1\n      dup4\n      0x0b\n      dup2\n      gt\n      iszero\n      tag_48\n      jumpi\n      tag_49\n      tag_19\n      jump\t// in\n    tag_49:\n    tag_48:\n      mul\n      or\n      swap1\n      sstore\n      pop\n        /* \"for_checkingfiles.sol\":2234:2237  j++ */\n      dup1\n      dup1\n      tag_50\n      swap1\n      tag_51\n      jump\t// in\n    tag_50:\n      swap2\n      pop\n      pop\n        /* \"for_checkingfiles.sol\":2204:2399  for(uint j= 1;i<= Month.July; j++){... */\n      jump(tag_14)\n    tag_15:\n      pop\n        /* \"for_checkingfiles.sol\":2172:2406  function set()public {... */\n      jump\t// out\n        /* \"for_checkingfiles.sol\":2128:2149  Month[] public summer */\n    tag_10:\n      0x00\n      dup2\n      dup2\n      sload\n      dup2\n      lt\n      tag_52\n      jumpi\n      0x00\n      dup1\n      revert\n    tag_52:\n      swap1\n      0x00\n      mstore\n      keccak256(0x00, 0x20)\n      swap1\n      0x20\n      swap2\n      dup3\n      dup3\n      div\n      add\n      swap2\n      swap1\n      mod\n      swap2\n      pop\n      sload\n      swap1\n      0x0100\n      exp\n      swap1\n      div\n      0xff\n      and\n      dup2\n      jump\t// out\n        /* \"#utility.yul\":88:205   */\n    tag_55:\n        /* \"#utility.yul\":197:198   */\n      0x00\n        /* \"#utility.yul\":194:195   */\n      dup1\n        /* \"#utility.yul\":187:199   */\n      revert\n        /* \"#utility.yul\":334:411   */\n    tag_57:\n        /* \"#utility.yul\":371:378   */\n      0x00\n        /* \"#utility.yul\":400:405   */\n      dup2\n        /* \"#utility.yul\":389:405   */\n      swap1\n      pop\n        /* \"#utility.yul\":334:411   */\n      swap2\n      swap1\n      pop\n      jump\t// out\n        /* \"#utility.yul\":417:539   */\n    tag_58:\n        /* \"#utility.yul\":490:514   */\n      tag_71\n        /* \"#utility.yul\":508:513   */\n      dup2\n        /* \"#utility.yul\":490:514   */\n      tag_57\n      jump\t// in\n    tag_71:\n        /* \"#utility.yul\":483:488   */\n      dup2\n        /* \"#utility.yul\":480:515   */\n      eq\n        /* \"#utility.yul\":470:533   */\n      tag_72\n      jumpi\n        /* \"#utility.yul\":529:530   */\n      0x00\n        /* \"#utility.yul\":526:527   */\n      dup1\n        /* \"#utility.yul\":519:531   */\n      revert\n        /* \"#utility.yul\":470:533   */\n    tag_72:\n        /* \"#utility.yul\":417:539   */\n      pop\n      jump\t// out\n        /* \"#utility.yul\":545:684   */\n    tag_59:\n        /* \"#utility.yul\":591:596   */\n      0x00\n        /* \"#utility.yul\":629:635   */\n      dup2\n        /* \"#utility.yul\":616:636   */\n      calldataload\n        /* \"#utility.yul\":607:636   */\n      swap1\n      pop\n        /* \"#utility.yul\":645:678   */\n      tag_74\n        /* \"#utility.yul\":672:677   */\n      dup2\n        /* \"#utility.yul\":645:678   */\n      tag_58\n      jump\t// in\n    tag_74:\n        /* \"#utility.yul\":545:684   */\n      swap3\n      swap2\n      pop\n      pop\n      jump\t// out\n        /* \"#utility.yul\":690:1019   */\n    tag_9:\n        /* \"#utility.yul\":749:755   */\n      0x00\n        /* \"#utility.yul\":798:800   */\n      0x20\n        /* \"#utility.yul\":786:795   */\n      dup3\n        /* \"#utility.yul\":777:784   */\n      dup5\n        /* \"#utility.yul\":773:796   */\n      sub\n        /* \"#utility.yul\":769:801   */\n      slt\n        /* \"#utility.yul\":766:885   */\n      iszero\n      tag_76\n      jumpi\n        /* \"#utility.yul\":804:883   */\n      tag_77\n      tag_55\n      jump\t// in\n    tag_77:\n        /* \"#utility.yul\":766:885   */\n    tag_76:\n        /* \"#utility.yul\":924:925   */\n      0x00\n        /* \"#utility.yul\":949:1002   */\n      tag_78\n        /* \"#utility.yul\":994:1001   */\n      dup5\n        /* \"#utility.yul\":985:991   */\n      dup3\n        /* \"#utility.yul\":974:983   */\n      dup6\n        /* \"#utility.yul\":970:992   */\n      add\n        /* \"#utility.yul\":949:1002   */\n      tag_59\n      jump\t// in\n    tag_78:\n        /* \"#utility.yul\":939:1002   */\n      swap2\n      pop\n        /* \"#utility.yul\":895:1012   */\n      pop\n        /* \"#utility.yul\":690:1019   */\n      swap3\n      swap2\n      pop\n      pop\n      jump\t// out\n        /* \"#utility.yul\":1025:1205   */\n    tag_19:\n        /* \"#utility.yul\":1073:1150   */\n      0x4e487b7100000000000000000000000000000000000000000000000000000000\n        /* \"#utility.yul\":1070:1071   */\n      0x00\n        /* \"#utility.yul\":1063:1151   */\n      mstore\n        /* \"#utility.yul\":1170:1174   */\n      0x21\n        /* \"#utility.yul\":1167:1168   */\n      0x04\n        /* \"#utility.yul\":1160:1175   */\n      mstore\n        /* \"#utility.yul\":1194:1198   */\n      0x24\n        /* \"#utility.yul\":1191:1192   */\n      0x00\n        /* \"#utility.yul\":1184:1199   */\n      revert\n        /* \"#utility.yul\":1211:1326   */\n    tag_60:\n        /* \"#utility.yul\":1293:1295   */\n      0x0c\n        /* \"#utility.yul\":1286:1291   */\n      dup2\n        /* \"#utility.yul\":1283:1296   */\n      lt\n        /* \"#utility.yul\":1273:1320   */\n      tag_81\n      jumpi\n        /* \"#utility.yul\":1300:1318   */\n      tag_82\n      tag_19\n      jump\t// in\n    tag_82:\n        /* \"#utility.yul\":1273:1320   */\n    tag_81:\n        /* \"#utility.yul\":1211:1326   */\n      pop\n      jump\t// out\n        /* \"#utility.yul\":1332:1461   */\n    tag_61:\n        /* \"#utility.yul\":1378:1385   */\n      0x00\n        /* \"#utility.yul\":1407:1412   */\n      dup2\n        /* \"#utility.yul\":1396:1412   */\n      swap1\n      pop\n        /* \"#utility.yul\":1413:1455   */\n      tag_84\n        /* \"#utility.yul\":1449:1454   */\n      dup3\n        /* \"#utility.yul\":1413:1455   */\n      tag_60\n      jump\t// in\n    tag_84:\n        /* \"#utility.yul\":1332:1461   */\n      swap2\n      swap1\n      pop\n      jump\t// out\n        /* \"#utility.yul\":1467:1596   */\n    tag_62:\n        /* \"#utility.yul\":1524:1533   */\n      0x00\n        /* \"#utility.yul\":1557:1590   */\n      tag_86\n        /* \"#utility.yul\":1584:1589   */\n      dup3\n        /* \"#utility.yul\":1557:1590   */\n      tag_61\n      jump\t// in\n    tag_86:\n        /* \"#utility.yul\":1544:1590   */\n      swap1\n      pop\n        /* \"#utility.yul\":1467:1596   */\n      swap2\n      swap1\n      pop\n      jump\t// out\n        /* \"#utility.yul\":1602:1747   */\n    tag_63:\n        /* \"#utility.yul\":1696:1740   */\n      tag_88\n        /* \"#utility.yul\":1734:1739   */\n      dup2\n        /* \"#utility.yul\":1696:1740   */\n      tag_62\n      jump\t// in\n    tag_88:\n        /* \"#utility.yul\":1691:1694   */\n      dup3\n        /* \"#utility.yul\":1684:1741   */\n      mstore\n        /* \"#utility.yul\":1602:1747   */\n      pop\n      pop\n      jump\t// out\n        /* \"#utility.yul\":1753:1989   */\n    tag_12:\n        /* \"#utility.yul\":1853:1857   */\n      0x00\n        /* \"#utility.yul\":1891:1893   */\n      0x20\n        /* \"#utility.yul\":1880:1889   */\n      dup3\n        /* \"#utility.yul\":1876:1894   */\n      add\n        /* \"#utility.yul\":1868:1894   */\n      swap1\n      pop\n        /* \"#utility.yul\":1904:1982   */\n      tag_90\n        /* \"#utility.yul\":1979:1980   */\n      0x00\n        /* \"#utility.yul\":1968:1977   */\n      dup4\n        /* \"#utility.yul\":1964:1981   */\n      add\n        /* \"#utility.yul\":1955:1961   */\n      dup5\n        /* \"#utility.yul\":1904:1982   */\n      tag_63\n      jump\t// in\n    tag_90:\n        /* \"#utility.yul\":1753:1989   */\n      swap3\n      swap2\n      pop\n      pop\n      jump\t// out\n        /* \"#utility.yul\":1995:2175   */\n    tag_64:\n        /* \"#utility.yul\":2043:2120   */\n      0x4e487b7100000000000000000000000000000000000000000000000000000000\n        /* \"#utility.yul\":2040:2041   */\n      0x00\n        /* \"#utility.yul\":2033:2121   */\n      mstore\n        /* \"#utility.yul\":2140:2144   */\n      0x11\n        /* \"#utility.yul\":2137:2138   */\n      0x04\n        /* \"#utility.yul\":2130:2145   */\n      mstore\n        /* \"#utility.yul\":2164:2168   */\n      0x24\n        /* \"#utility.yul\":2161:2162   */\n      0x00\n        /* \"#utility.yul\":2154:2169   */\n      revert\n        /* \"#utility.yul\":2181:2414   */\n    tag_51:\n        /* \"#utility.yul\":2220:2223   */\n      0x00\n        /* \"#utility.yul\":2243:2267   */\n      tag_93\n        /* \"#utility.yul\":2261:2266   */\n      dup3\n        /* \"#utility.yul\":2243:2267   */\n      tag_57\n      jump\t// in\n    tag_93:\n        /* \"#utility.yul\":2234:2267   */\n      swap2\n      pop\n        /* \"#utility.yul\":2289:2355   */\n      0xffffffffffffffffffffffffffffffffffffffffffffffffffffffffffffffff\n        /* \"#utility.yul\":2282:2287   */\n      dup3\n        /* \"#utility.yul\":2279:2356   */\n      sub\n        /* \"#utility.yul\":2276:2379   */\n      tag_94\n      jumpi\n        /* \"#utility.yul\":2359:2377   */\n      tag_95\n      tag_64\n      jump\t// in\n    tag_95:\n        /* \"#utility.yul\":2276:2379   */\n    tag_94:\n        /* \"#utility.yul\":2406:2407   */\n      0x01\n        /* \"#utility.yul\":2399:2404   */\n      dup3\n        /* \"#utility.yul\":2395:2408   */\n      add\n        /* \"#utility.yul\":2388:2408   */\n      swap1\n      pop\n        /* \"#utility.yul\":2181:2414   */\n      swap2\n      swap1\n      pop\n      jump\t// out\n\n    auxdata: 0xa2646970667358221220fad7e800406b7eb37acffefc1b08f1e0b9485ba3d8cf4405dc41e2a1c33dcc3164736f6c63430008120033\n}\n",
				"bytecode": {
					"linkReferences": {},
					"object": "608060405234801561001057600080fd5b50610436806100206000396000f3fe608060405234801561001057600080fd5b50600436106100365760003560e01c8063b8e010de1461003b578063d02cb18214610045575b600080fd5b610043610075565b005b61005f600480360381019061005a91906102ca565b61025b565b60405161006c919061036e565b60405180910390f35b6000600190505b6006600b8111156100905761008f6102f7565b5b600160009054906101000a900460ff16600b8111156100b2576100b16102f7565b5b11610258576005600b8111156100cb576100ca6102f7565b5b600b8111156100dd576100dc6102f7565b5b600160009054906101000a900460ff16600b8111156100ff576100fe6102f7565b5b148061015057506006600b81111561011a576101196102f7565b5b600b81111561012c5761012b6102f7565b5b600160009054906101000a900460ff16600b81111561014e5761014d6102f7565b5b145b806101a057506007600b81111561016a576101696102f7565b5b600b81111561017c5761017b6102f7565b5b600160009054906101000a900460ff16600b81111561019e5761019d6102f7565b5b145b15610209576000600160009054906101000a900460ff1690806001815401808255809150506001900390600052602060002090602091828204019190069091909190916101000a81548160ff0219169083600b811115610203576102026102f7565b5b02179055505b80600b81111561021c5761021b6102f7565b5b600160006101000a81548160ff0219169083600b8111156102405761023f6102f7565b5b02179055508080610250906103b8565b91505061007c565b50565b6000818154811061026b57600080fd5b9060005260206000209060209182820401919006915054906101000a900460ff1681565b600080fd5b6000819050919050565b6102a781610294565b81146102b257600080fd5b50565b6000813590506102c48161029e565b92915050565b6000602082840312156102e0576102df61028f565b5b60006102ee848285016102b5565b91505092915050565b7f4e487b7100000000000000000000000000000000000000000000000000000000600052602160045260246000fd5b600c8110610337576103366102f7565b5b50565b600081905061034882610326565b919050565b60006103588261033a565b9050919050565b6103688161034d565b82525050565b6000602082019050610383600083018461035f565b92915050565b7f4e487b7100000000000000000000000000000000000000000000000000000000600052601160045260246000fd5b60006103c382610294565b91507fffffffffffffffffffffffffffffffffffffffffffffffffffffffffffffffff82036103f5576103f4610389565b5b60018201905091905056fea2646970667358221220fad7e800406b7eb37acffefc1b08f1e0b9485ba3d8cf4405dc41e2a1c33dcc3164736f6c63430008120033",
					"opcodes": "PUSH1 0x80 PUSH1 0x40 MSTORE CALLVALUE DUP1 ISZERO PUSH2 0x10 JUMPI PUSH1 0x0 DUP1 REVERT JUMPDEST POP PUSH2 0x436 DUP1 PUSH2 0x20 PUSH1 0x0 CODECOPY PUSH1 0x0 RETURN INVALID PUSH1 0x80 PUSH1 0x40 MSTORE CALLVALUE DUP1 ISZERO PUSH2 0x10 JUMPI PUSH1 0x0 DUP1 REVERT JUMPDEST POP PUSH1 0x4 CALLDATASIZE LT PUSH2 0x36 JUMPI PUSH1 0x0 CALLDATALOAD PUSH1 0xE0 SHR DUP1 PUSH4 0xB8E010DE EQ PUSH2 0x3B JUMPI DUP1 PUSH4 0xD02CB182 EQ PUSH2 0x45 JUMPI JUMPDEST PUSH1 0x0 DUP1 REVERT JUMPDEST PUSH2 0x43 PUSH2 0x75 JUMP JUMPDEST STOP JUMPDEST PUSH2 0x5F PUSH1 0x4 DUP1 CALLDATASIZE SUB DUP2 ADD SWAP1 PUSH2 0x5A SWAP2 SWAP1 PUSH2 0x2CA JUMP JUMPDEST PUSH2 0x25B JUMP JUMPDEST PUSH1 0x40 MLOAD PUSH2 0x6C SWAP2 SWAP1 PUSH2 0x36E JUMP JUMPDEST PUSH1 0x40 MLOAD DUP1 SWAP2 SUB SWAP1 RETURN JUMPDEST PUSH1 0x0 PUSH1 0x1 SWAP1 POP JUMPDEST PUSH1 0x6 PUSH1 0xB DUP2 GT ISZERO PUSH2 0x90 JUMPI PUSH2 0x8F PUSH2 0x2F7 JUMP JUMPDEST JUMPDEST PUSH1 0x1 PUSH1 0x0 SWAP1 SLOAD SWAP1 PUSH2 0x100 EXP SWAP1 DIV PUSH1 0xFF AND PUSH1 0xB DUP2 GT ISZERO PUSH2 0xB2 JUMPI PUSH2 0xB1 PUSH2 0x2F7 JUMP JUMPDEST JUMPDEST GT PUSH2 0x258 JUMPI PUSH1 0x5 PUSH1 0xB DUP2 GT ISZERO PUSH2 0xCB JUMPI PUSH2 0xCA PUSH2 0x2F7 JUMP JUMPDEST JUMPDEST PUSH1 0xB DUP2 GT ISZERO PUSH2 0xDD JUMPI PUSH2 0xDC PUSH2 0x2F7 JUMP JUMPDEST JUMPDEST PUSH1 0x1 PUSH1 0x0 SWAP1 SLOAD SWAP1 PUSH2 0x100 EXP SWAP1 DIV PUSH1 0xFF AND PUSH1 0xB DUP2 GT ISZERO PUSH2 0xFF JUMPI PUSH2 0xFE PUSH2 0x2F7 JUMP JUMPDEST JUMPDEST EQ DUP1 PUSH2 0x150 JUMPI POP PUSH1 0x6 PUSH1 0xB DUP2 GT ISZERO PUSH2 0x11A JUMPI PUSH2 0x119 PUSH2 0x2F7 JUMP JUMPDEST JUMPDEST PUSH1 0xB DUP2 GT ISZERO PUSH2 0x12C JUMPI PUSH2 0x12B PUSH2 0x2F7 JUMP JUMPDEST JUMPDEST PUSH1 0x1 PUSH1 0x0 SWAP1 SLOAD SWAP1 PUSH2 0x100 EXP SWAP1 DIV PUSH1 0xFF AND PUSH1 0xB DUP2 GT ISZERO PUSH2 0x14E JUMPI PUSH2 0x14D PUSH2 0x2F7 JUMP JUMPDEST JUMPDEST EQ JUMPDEST DUP1 PUSH2 0x1A0 JUMPI POP PUSH1 0x7 PUSH1 0xB DUP2 GT ISZERO PUSH2 0x16A JUMPI PUSH2 0x169 PUSH2 0x2F7 JUMP JUMPDEST JUMPDEST PUSH1 0xB DUP2 GT ISZERO PUSH2 0x17C JUMPI PUSH2 0x17B PUSH2 0x2F7 JUMP JUMPDEST JUMPDEST PUSH1 0x1 PUSH1 0x0 SWAP1 SLOAD SWAP1 PUSH2 0x100 EXP SWAP1 DIV PUSH1 0xFF AND PUSH1 0xB DUP2 GT ISZERO PUSH2 0x19E JUMPI PUSH2 0x19D PUSH2 0x2F7 JUMP JUMPDEST JUMPDEST EQ JUMPDEST ISZERO PUSH2 0x209 JUMPI PUSH1 0x0 PUSH1 0x1 PUSH1 0x0 SWAP1 SLOAD SWAP1 PUSH2 0x100 EXP SWAP1 DIV PUSH1 0xFF AND SWAP1 DUP1 PUSH1 0x1 DUP2 SLOAD ADD DUP1 DUP3 SSTORE DUP1 SWAP2 POP POP PUSH1 0x1 SWAP1 SUB SWAP1 PUSH1 0x0 MSTORE PUSH1 0x20 PUSH1 0x0 KECCAK256 SWAP1 PUSH1 0x20 SWAP2 DUP3 DUP3 DIV ADD SWAP2 SWAP1 MOD SWAP1 SWAP2 SWAP1 SWAP2 SWAP1 SWAP2 PUSH2 0x100 EXP DUP2 SLOAD DUP2 PUSH1 0xFF MUL NOT AND SWAP1 DUP4 PUSH1 0xB DUP2 GT ISZERO PUSH2 0x203 JUMPI PUSH2 0x202 PUSH2 0x2F7 JUMP JUMPDEST JUMPDEST MUL OR SWAP1 SSTORE POP JUMPDEST DUP1 PUSH1 0xB DUP2 GT ISZERO PUSH2 0x21C JUMPI PUSH2 0x21B PUSH2 0x2F7 JUMP JUMPDEST JUMPDEST PUSH1 0x1 PUSH1 0x0 PUSH2 0x100 EXP DUP2 SLOAD DUP2 PUSH1 0xFF MUL NOT AND SWAP1 DUP4 PUSH1 0xB DUP2 GT ISZERO PUSH2 0x240 JUMPI PUSH2 0x23F PUSH2 0x2F7 JUMP JUMPDEST JUMPDEST MUL OR SWAP1 SSTORE POP DUP1 DUP1 PUSH2 0x250 SWAP1 PUSH2 0x3B8 JUMP JUMPDEST SWAP2 POP POP PUSH2 0x7C JUMP JUMPDEST POP JUMP JUMPDEST PUSH1 0x0 DUP2 DUP2 SLOAD DUP2 LT PUSH2 0x26B JUMPI PUSH1 0x0 DUP1 REVERT JUMPDEST SWAP1 PUSH1 0x0 MSTORE PUSH1 0x20 PUSH1 0x0 KECCAK256 SWAP1 PUSH1 0x20 SWAP2 DUP3 DUP3 DIV ADD SWAP2 SWAP1 MOD SWAP2 POP SLOAD SWAP1 PUSH2 0x100 EXP SWAP1 DIV PUSH1 0xFF AND DUP2 JUMP JUMPDEST PUSH1 0x0 DUP1 REVERT JUMPDEST PUSH1 0x0 DUP2 SWAP1 POP SWAP2 SWAP1 POP JUMP JUMPDEST PUSH2 0x2A7 DUP2 PUSH2 0x294 JUMP JUMPDEST DUP2 EQ PUSH2 0x2B2 JUMPI PUSH1 0x0 DUP1 REVERT JUMPDEST POP JUMP JUMPDEST PUSH1 0x0 DUP2 CALLDATALOAD SWAP1 POP PUSH2 0x2C4 DUP2 PUSH2 0x29E JUMP JUMPDEST SWAP3 SWAP2 POP POP JUMP JUMPDEST PUSH1 0x0 PUSH1 0x20 DUP3 DUP5 SUB SLT ISZERO PUSH2 0x2E0 JUMPI PUSH2 0x2DF PUSH2 0x28F JUMP JUMPDEST JUMPDEST PUSH1 0x0 PUSH2 0x2EE DUP5 DUP3 DUP6 ADD PUSH2 0x2B5 JUMP JUMPDEST SWAP2 POP POP SWAP3 SWAP2 POP POP JUMP JUMPDEST PUSH32 0x4E487B7100000000000000000000000000000000000000000000000000000000 PUSH1 0x0 MSTORE PUSH1 0x21 PUSH1 0x4 MSTORE PUSH1 0x24 PUSH1 0x0 REVERT JUMPDEST PUSH1 0xC DUP2 LT PUSH2 0x337 JUMPI PUSH2 0x336 PUSH2 0x2F7 JUMP JUMPDEST JUMPDEST POP JUMP JUMPDEST PUSH1 0x0 DUP2 SWAP1 POP PUSH2 0x348 DUP3 PUSH2 0x326 JUMP JUMPDEST SWAP2 SWAP1 POP JUMP JUMPDEST PUSH1 0x0 PUSH2 0x358 DUP3 PUSH2 0x33A JUMP JUMPDEST SWAP1 POP SWAP2 SWAP1 POP JUMP JUMPDEST PUSH2 0x368 DUP2 PUSH2 0x34D JUMP JUMPDEST DUP3 MSTORE POP POP JUMP JUMPDEST PUSH1 0x0 PUSH1 0x20 DUP3 ADD SWAP1 POP PUSH2 0x383 PUSH1 0x0 DUP4 ADD DUP5 PUSH2 0x35F JUMP JUMPDEST SWAP3 SWAP2 POP POP JUMP JUMPDEST PUSH32 0x4E487B7100000000000000000000000000000000000000000000000000000000 PUSH1 0x0 MSTORE PUSH1 0x11 PUSH1 0x4 MSTORE PUSH1 0x24 PUSH1 0x0 REVERT JUMPDEST PUSH1 0x0 PUSH2 0x3C3 DUP3 PUSH2 0x294 JUMP JUMPDEST SWAP2 POP PUSH32 0xFFFFFFFFFFFFFFFFFFFFFFFFFFFFFFFFFFFFFFFFFFFFFFFFFFFFFFFFFFFFFFFF DUP3 SUB PUSH2 0x3F5 JUMPI PUSH2 0x3F4 PUSH2 0x389 JUMP JUMPDEST JUMPDEST PUSH1 0x1 DUP3 ADD SWAP1 POP SWAP2 SWAP1 POP JUMP INVALID LOG2 PUSH5 0x6970667358 0x22 SLT KECCAK256 STATICCALL 0xD7 0xE8 STOP BLOCKHASH PUSH12 0x7EB37ACFFEFC1B08F1E0B948 JUMPDEST LOG3 0xD8 0xCF PREVRANDAO SDIV 0xDC COINBASE 0xE2 LOG1 0xC3 RETURNDATASIZE 0xCC BALANCE PUSH5 0x736F6C6343 STOP ADDMOD SLT STOP CALLER "
				},
				"gasEstimates": {
					"creation": {
						"codeDepositCost": "215600",
						"executionCost": "257",
						"totalCost": "215857"
					},
					"external": {
						"set()": "infinite",
						"summer(uint256)": "6630"
					}
				},
				"methodIdentifiers": {
					"set()": "b8e010de",
					"summer(uint256)": "d02cb182"
				}
			},
			"storageLayout": {
				"storage": [
					{
						"astId": 215,
						"contract": "for_checkingfiles.sol:summers2",
						"label": "summer",
						"offset": 0,
						"slot": "0",
						"type": "t_array(t_enum(Month)211)dyn_storage"
					},
					{
						"astId": 218,
						"contract": "for_checkingfiles.sol:summers2",
						"label": "i",
						"offset": 0,
						"slot": "1",
						"type": "t_enum(Month)211"
					}
				],
				"types": {
					"t_array(t_enum(Month)211)dyn_storage": {
						"base": "t_enum(Month)211",
						"encoding": "dynamic_array",
						"label": "enum summers2.Month[]",
						"numberOfBytes": "32"
					},
					"t_enum(Month)211": {
						"encoding": "inplace",
						"label": "enum summers2.Month",
						"numberOfBytes": "1"
					}
				}
			},
			"userdoc": {
				"kind": "user",
				"methods": {},
				"version": 1
			}
		}
	}
}