{
	"for_checkingfiles.sol": {
		"mixer": {
			"abi": [
				{
					"inputs": [],
					"name": "k",
					"outputs": [
						{
							"internalType": "uint256",
							"name": "",
							"type": "uint256"
						}
					],
					"stateMutability": "view",
					"type": "function"
				},
				{
					"inputs": [],
					"name": "sum",
					"outputs": [
						{
							"internalType": "uint256",
							"name": "",
							"type": "uint256"
						}
					],
					"stateMutability": "view",
					"type": "function"
				},
				{
					"inputs": [],
					"name": "valueK",
					"outputs": [],
					"stateMutability": "nonpayable",
					"type": "function"
				}
			],
			"devdoc": {
				"kind": "dev",
				"methods": {},
				"version": 1
			},
			"evm": {
				"assembly": "    /* \"for_checkingfiles.sol\":4709:4894  contract mixer{... */\n  mstore(0x40, 0x80)\n  callvalue\n  dup1\n  iszero\n  tag_1\n  jumpi\n  0x00\n  dup1\n  revert\ntag_1:\n  pop\n  dataSize(sub_0)\n  dup1\n  dataOffset(sub_0)\n  0x00\n  codecopy\n  0x00\n  return\nstop\n\nsub_0: assembly {\n        /* \"for_checkingfiles.sol\":4709:4894  contract mixer{... */\n      mstore(0x40, 0x80)\n      callvalue\n      dup1\n      iszero\n      tag_1\n      jumpi\n      0x00\n      dup1\n      revert\n    tag_1:\n      pop\n      jumpi(tag_2, lt(calldatasize, 0x04))\n      shr(0xe0, calldataload(0x00))\n      dup1\n      0x853255cc\n      eq\n      tag_3\n      jumpi\n      dup1\n      0xb4f40c61\n      eq\n      tag_4\n      jumpi\n      dup1\n      0xeaba3fc4\n      eq\n      tag_5\n      jumpi\n    tag_2:\n      0x00\n      dup1\n      revert\n        /* \"for_checkingfiles.sol\":4732:4747  uint public sum */\n    tag_3:\n      tag_6\n      tag_7\n      jump\t// in\n    tag_6:\n      mload(0x40)\n      tag_8\n      swap2\n      swap1\n      tag_9\n      jump\t// in\n    tag_8:\n      mload(0x40)\n      dup1\n      swap2\n      sub\n      swap1\n      return\n        /* \"for_checkingfiles.sol\":4754:4767  uint public k */\n    tag_4:\n      tag_10\n      tag_11\n      jump\t// in\n    tag_10:\n      mload(0x40)\n      tag_12\n      swap2\n      swap1\n      tag_9\n      jump\t// in\n    tag_12:\n      mload(0x40)\n      dup1\n      swap2\n      sub\n      swap1\n      return\n        /* \"for_checkingfiles.sol\":4776:4889  function valueK()public {... */\n    tag_5:\n      tag_13\n      tag_14\n      jump\t// in\n    tag_13:\n      stop\n        /* \"for_checkingfiles.sol\":4732:4747  uint public sum */\n    tag_7:\n      sload(0x00)\n      dup2\n      jump\t// out\n        /* \"for_checkingfiles.sol\":4754:4767  uint public k */\n    tag_11:\n      sload(0x01)\n      dup2\n      jump\t// out\n        /* \"for_checkingfiles.sol\":4776:4889  function valueK()public {... */\n    tag_14:\n        /* \"for_checkingfiles.sol\":4811:4880  while(sum <= 15){... */\n    tag_16:\n        /* \"for_checkingfiles.sol\":4824:4826  15 */\n      0x0f\n        /* \"for_checkingfiles.sol\":4817:4820  sum */\n      sload(0x00)\n        /* \"for_checkingfiles.sol\":4817:4826  sum <= 15 */\n      gt\n        /* \"for_checkingfiles.sol\":4811:4880  while(sum <= 15){... */\n      tag_17\n      jumpi\n        /* \"for_checkingfiles.sol\":4849:4850  k */\n      sload(0x01)\n        /* \"for_checkingfiles.sol\":4842:4845  sum */\n      0x00\n      dup1\n        /* \"for_checkingfiles.sol\":4842:4850  sum += k */\n      dup3\n      dup3\n      sload\n      tag_18\n      swap2\n      swap1\n      tag_19\n      jump\t// in\n    tag_18:\n      swap3\n      pop\n      pop\n      dup2\n      swap1\n      sstore\n      pop\n        /* \"for_checkingfiles.sol\":4865:4866  k */\n      0x01\n      0x00\n        /* \"for_checkingfiles.sol\":4865:4868  k++ */\n      dup2\n      sload\n      dup1\n      swap3\n      swap2\n      swap1\n      tag_20\n      swap1\n      tag_21\n      jump\t// in\n    tag_20:\n      swap2\n      swap1\n      pop\n      sstore\n      pop\n        /* \"for_checkingfiles.sol\":4811:4880  while(sum <= 15){... */\n      jump(tag_16)\n    tag_17:\n        /* \"for_checkingfiles.sol\":4776:4889  function valueK()public {... */\n      jump\t// out\n        /* \"#utility.yul\":7:84   */\n    tag_22:\n        /* \"#utility.yul\":44:51   */\n      0x00\n        /* \"#utility.yul\":73:78   */\n      dup2\n        /* \"#utility.yul\":62:78   */\n      swap1\n      pop\n        /* \"#utility.yul\":7:84   */\n      swap2\n      swap1\n      pop\n      jump\t// out\n        /* \"#utility.yul\":90:208   */\n    tag_23:\n        /* \"#utility.yul\":177:201   */\n      tag_28\n        /* \"#utility.yul\":195:200   */\n      dup2\n        /* \"#utility.yul\":177:201   */\n      tag_22\n      jump\t// in\n    tag_28:\n        /* \"#utility.yul\":172:175   */\n      dup3\n        /* \"#utility.yul\":165:202   */\n      mstore\n        /* \"#utility.yul\":90:208   */\n      pop\n      pop\n      jump\t// out\n        /* \"#utility.yul\":214:436   */\n    tag_9:\n        /* \"#utility.yul\":307:311   */\n      0x00\n        /* \"#utility.yul\":345:347   */\n      0x20\n        /* \"#utility.yul\":334:343   */\n      dup3\n        /* \"#utility.yul\":330:348   */\n      add\n        /* \"#utility.yul\":322:348   */\n      swap1\n      pop\n        /* \"#utility.yul\":358:429   */\n      tag_30\n        /* \"#utility.yul\":426:427   */\n      0x00\n        /* \"#utility.yul\":415:424   */\n      dup4\n        /* \"#utility.yul\":411:428   */\n      add\n        /* \"#utility.yul\":402:408   */\n      dup5\n        /* \"#utility.yul\":358:429   */\n      tag_23\n      jump\t// in\n    tag_30:\n        /* \"#utility.yul\":214:436   */\n      swap3\n      swap2\n      pop\n      pop\n      jump\t// out\n        /* \"#utility.yul\":442:622   */\n    tag_24:\n        /* \"#utility.yul\":490:567   */\n      0x4e487b7100000000000000000000000000000000000000000000000000000000\n        /* \"#utility.yul\":487:488   */\n      0x00\n        /* \"#utility.yul\":480:568   */\n      mstore\n        /* \"#utility.yul\":587:591   */\n      0x11\n        /* \"#utility.yul\":584:585   */\n      0x04\n        /* \"#utility.yul\":577:592   */\n      mstore\n        /* \"#utility.yul\":611:615   */\n      0x24\n        /* \"#utility.yul\":608:609   */\n      0x00\n        /* \"#utility.yul\":601:616   */\n      revert\n        /* \"#utility.yul\":628:819   */\n    tag_19:\n        /* \"#utility.yul\":668:671   */\n      0x00\n        /* \"#utility.yul\":687:707   */\n      tag_33\n        /* \"#utility.yul\":705:706   */\n      dup3\n        /* \"#utility.yul\":687:707   */\n      tag_22\n      jump\t// in\n    tag_33:\n        /* \"#utility.yul\":682:707   */\n      swap2\n      pop\n        /* \"#utility.yul\":721:741   */\n      tag_34\n        /* \"#utility.yul\":739:740   */\n      dup4\n        /* \"#utility.yul\":721:741   */\n      tag_22\n      jump\t// in\n    tag_34:\n        /* \"#utility.yul\":716:741   */\n      swap3\n      pop\n        /* \"#utility.yul\":764:765   */\n      dup3\n        /* \"#utility.yul\":761:762   */\n      dup3\n        /* \"#utility.yul\":757:766   */\n      add\n        /* \"#utility.yul\":750:766   */\n      swap1\n      pop\n        /* \"#utility.yul\":785:788   */\n      dup1\n        /* \"#utility.yul\":782:783   */\n      dup3\n        /* \"#utility.yul\":779:789   */\n      gt\n        /* \"#utility.yul\":776:812   */\n      iszero\n      tag_35\n      jumpi\n        /* \"#utility.yul\":792:810   */\n      tag_36\n      tag_24\n      jump\t// in\n    tag_36:\n        /* \"#utility.yul\":776:812   */\n    tag_35:\n        /* \"#utility.yul\":628:819   */\n      swap3\n      swap2\n      pop\n      pop\n      jump\t// out\n        /* \"#utility.yul\":825:1058   */\n    tag_21:\n        /* \"#utility.yul\":864:867   */\n      0x00\n        /* \"#utility.yul\":887:911   */\n      tag_38\n        /* \"#utility.yul\":905:910   */\n      dup3\n        /* \"#utility.yul\":887:911   */\n      tag_22\n      jump\t// in\n    tag_38:\n        /* \"#utility.yul\":878:911   */\n      swap2\n      pop\n        /* \"#utility.yul\":933:999   */\n      0xffffffffffffffffffffffffffffffffffffffffffffffffffffffffffffffff\n        /* \"#utility.yul\":926:931   */\n      dup3\n        /* \"#utility.yul\":923:1000   */\n      sub\n        /* \"#utility.yul\":920:1023   */\n      tag_39\n      jumpi\n        /* \"#utility.yul\":1003:1021   */\n      tag_40\n      tag_24\n      jump\t// in\n    tag_40:\n        /* \"#utility.yul\":920:1023   */\n    tag_39:\n        /* \"#utility.yul\":1050:1051   */\n      0x01\n        /* \"#utility.yul\":1043:1048   */\n      dup3\n        /* \"#utility.yul\":1039:1052   */\n      add\n        /* \"#utility.yul\":1032:1052   */\n      swap1\n      pop\n        /* \"#utility.yul\":825:1058   */\n      swap2\n      swap1\n      pop\n      jump\t// out\n\n    auxdata: 0xa2646970667358221220ca984bcc43421791cf3fe674c53aeec63d93707229b1815d9b98483d04bca71364736f6c63430008120033\n}\n",
				"bytecode": {
					"linkReferences": {},
					"object": "608060405234801561001057600080fd5b506101f1806100206000396000f3fe608060405234801561001057600080fd5b50600436106100415760003560e01c8063853255cc14610046578063b4f40c6114610064578063eaba3fc414610082575b600080fd5b61004e61008c565b60405161005b91906100f5565b60405180910390f35b61006c610092565b60405161007991906100f5565b60405180910390f35b61008a610098565b005b60005481565b60015481565b5b600f600054116100da576001546000808282546100b6919061013f565b92505081905550600160008154809291906100d090610173565b9190505550610099565b565b6000819050919050565b6100ef816100dc565b82525050565b600060208201905061010a60008301846100e6565b92915050565b7f4e487b7100000000000000000000000000000000000000000000000000000000600052601160045260246000fd5b600061014a826100dc565b9150610155836100dc565b925082820190508082111561016d5761016c610110565b5b92915050565b600061017e826100dc565b91507fffffffffffffffffffffffffffffffffffffffffffffffffffffffffffffffff82036101b0576101af610110565b5b60018201905091905056fea2646970667358221220ca984bcc43421791cf3fe674c53aeec63d93707229b1815d9b98483d04bca71364736f6c63430008120033",
					"opcodes": "PUSH1 0x80 PUSH1 0x40 MSTORE CALLVALUE DUP1 ISZERO PUSH2 0x10 JUMPI PUSH1 0x0 DUP1 REVERT JUMPDEST POP PUSH2 0x1F1 DUP1 PUSH2 0x20 PUSH1 0x0 CODECOPY PUSH1 0x0 RETURN INVALID PUSH1 0x80 PUSH1 0x40 MSTORE CALLVALUE DUP1 ISZERO PUSH2 0x10 JUMPI PUSH1 0x0 DUP1 REVERT JUMPDEST POP PUSH1 0x4 CALLDATASIZE LT PUSH2 0x41 JUMPI PUSH1 0x0 CALLDATALOAD PUSH1 0xE0 SHR DUP1 PUSH4 0x853255CC EQ PUSH2 0x46 JUMPI DUP1 PUSH4 0xB4F40C61 EQ PUSH2 0x64 JUMPI DUP1 PUSH4 0xEABA3FC4 EQ PUSH2 0x82 JUMPI JUMPDEST PUSH1 0x0 DUP1 REVERT JUMPDEST PUSH2 0x4E PUSH2 0x8C JUMP JUMPDEST PUSH1 0x40 MLOAD PUSH2 0x5B SWAP2 SWAP1 PUSH2 0xF5 JUMP JUMPDEST PUSH1 0x40 MLOAD DUP1 SWAP2 SUB SWAP1 RETURN JUMPDEST PUSH2 0x6C PUSH2 0x92 JUMP JUMPDEST PUSH1 0x40 MLOAD PUSH2 0x79 SWAP2 SWAP1 PUSH2 0xF5 JUMP JUMPDEST PUSH1 0x40 MLOAD DUP1 SWAP2 SUB SWAP1 RETURN JUMPDEST PUSH2 0x8A PUSH2 0x98 JUMP JUMPDEST STOP JUMPDEST PUSH1 0x0 SLOAD DUP2 JUMP JUMPDEST PUSH1 0x1 SLOAD DUP2 JUMP JUMPDEST JUMPDEST PUSH1 0xF PUSH1 0x0 SLOAD GT PUSH2 0xDA JUMPI PUSH1 0x1 SLOAD PUSH1 0x0 DUP1 DUP3 DUP3 SLOAD PUSH2 0xB6 SWAP2 SWAP1 PUSH2 0x13F JUMP JUMPDEST SWAP3 POP POP DUP2 SWAP1 SSTORE POP PUSH1 0x1 PUSH1 0x0 DUP2 SLOAD DUP1 SWAP3 SWAP2 SWAP1 PUSH2 0xD0 SWAP1 PUSH2 0x173 JUMP JUMPDEST SWAP2 SWAP1 POP SSTORE POP PUSH2 0x99 JUMP JUMPDEST JUMP JUMPDEST PUSH1 0x0 DUP2 SWAP1 POP SWAP2 SWAP1 POP JUMP JUMPDEST PUSH2 0xEF DUP2 PUSH2 0xDC JUMP JUMPDEST DUP3 MSTORE POP POP JUMP JUMPDEST PUSH1 0x0 PUSH1 0x20 DUP3 ADD SWAP1 POP PUSH2 0x10A PUSH1 0x0 DUP4 ADD DUP5 PUSH2 0xE6 JUMP JUMPDEST SWAP3 SWAP2 POP POP JUMP JUMPDEST PUSH32 0x4E487B7100000000000000000000000000000000000000000000000000000000 PUSH1 0x0 MSTORE PUSH1 0x11 PUSH1 0x4 MSTORE PUSH1 0x24 PUSH1 0x0 REVERT JUMPDEST PUSH1 0x0 PUSH2 0x14A DUP3 PUSH2 0xDC JUMP JUMPDEST SWAP2 POP PUSH2 0x155 DUP4 PUSH2 0xDC JUMP JUMPDEST SWAP3 POP DUP3 DUP3 ADD SWAP1 POP DUP1 DUP3 GT ISZERO PUSH2 0x16D JUMPI PUSH2 0x16C PUSH2 0x110 JUMP JUMPDEST JUMPDEST SWAP3 SWAP2 POP POP JUMP JUMPDEST PUSH1 0x0 PUSH2 0x17E DUP3 PUSH2 0xDC JUMP JUMPDEST SWAP2 POP PUSH32 0xFFFFFFFFFFFFFFFFFFFFFFFFFFFFFFFFFFFFFFFFFFFFFFFFFFFFFFFFFFFFFFFF DUP3 SUB PUSH2 0x1B0 JUMPI PUSH2 0x1AF PUSH2 0x110 JUMP JUMPDEST JUMPDEST PUSH1 0x1 DUP3 ADD SWAP1 POP SWAP2 SWAP1 POP JUMP INVALID LOG2 PUSH5 0x6970667358 0x22 SLT KECCAK256 0xCA SWAP9 0x4B 0xCC NUMBER TIMESTAMP OR SWAP2 0xCF EXTCODEHASH 0xE6 PUSH21 0xC53AEEC63D93707229B1815D9B98483D04BCA71364 PUSH20 0x6F6C634300081200330000000000000000000000 "
				},
				"gasEstimates": {
					"creation": {
						"codeDepositCost": "99400",
						"executionCost": "147",
						"totalCost": "99547"
					},
					"external": {
						"k()": "2429",
						"sum()": "2407",
						"valueK()": "infinite"
					}
				},
				"methodIdentifiers": {
					"k()": "b4f40c61",
					"sum()": "853255cc",
					"valueK()": "eaba3fc4"
				}
			},
			"storageLayout": {
				"storage": [
					{
						"astId": 457,
						"contract": "for_checkingfiles.sol:mixer",
						"label": "sum",
						"offset": 0,
						"slot": "0",
						"type": "t_uint256"
					},
					{
						"astId": 459,
						"contract": "for_checkingfiles.sol:mixer",
						"label": "k",
						"offset": 0,
						"slot": "1",
						"type": "t_uint256"
					}
				],
				"types": {
					"t_uint256": {
						"encoding": "inplace",
						"label": "uint256",
						"numberOfBytes": "32"
					}
				}
			},
			"userdoc": {
				"kind": "user",
				"methods": {},
				"version": 1
			}
		}
	}
}