{
	"for_checkingfiles.sol": {
		"Doit2": {
			"abi": [
				{
					"inputs": [],
					"name": "i",
					"outputs": [
						{
							"internalType": "uint256",
							"name": "",
							"type": "uint256"
						}
					],
					"stateMutability": "view",
					"type": "function"
				},
				{
					"inputs": [],
					"name": "life",
					"outputs": [
						{
							"internalType": "uint256",
							"name": "",
							"type": "uint256"
						}
					],
					"stateMutability": "view",
					"type": "function"
				},
				{
					"inputs": [],
					"name": "span",
					"outputs": [],
					"stateMutability": "nonpayable",
					"type": "function"
				},
				{
					"inputs": [],
					"name": "valueI",
					"outputs": [],
					"stateMutability": "nonpayable",
					"type": "function"
				}
			],
			"devdoc": {
				"kind": "dev",
				"methods": {},
				"version": 1
			},
			"evm": {
				"assembly": "    /* \"for_checkingfiles.sol\":5104:5442  contract Doit2{... */\n  mstore(0x40, 0x80)\n    /* \"for_checkingfiles.sol\":5142:5143  1 */\n  0x01\n    /* \"for_checkingfiles.sol\":5127:5143  uint public i= 1 */\n  0x00\n  sstore\n    /* \"for_checkingfiles.sol\":5181:5182  0 */\n  0x00\n    /* \"for_checkingfiles.sol\":5171:5182  uint cond=0 */\n  0x02\n  sstore\n    /* \"for_checkingfiles.sol\":5104:5442  contract Doit2{... */\n  callvalue\n  dup1\n  iszero\n  tag_1\n  jumpi\n  0x00\n  dup1\n  revert\ntag_1:\n  pop\n  dataSize(sub_0)\n  dup1\n  dataOffset(sub_0)\n  0x00\n  codecopy\n  0x00\n  return\nstop\n\nsub_0: assembly {\n        /* \"for_checkingfiles.sol\":5104:5442  contract Doit2{... */\n      mstore(0x40, 0x80)\n      callvalue\n      dup1\n      iszero\n      tag_1\n      jumpi\n      0x00\n      dup1\n      revert\n    tag_1:\n      pop\n      jumpi(tag_2, lt(calldatasize, 0x04))\n      shr(0xe0, calldataload(0x00))\n      dup1\n      0x2585581f\n      eq\n      tag_3\n      jumpi\n      dup1\n      0x834c42ca\n      eq\n      tag_4\n      jumpi\n      dup1\n      0xc5310868\n      eq\n      tag_5\n      jumpi\n      dup1\n      0xe5aa3d58\n      eq\n      tag_6\n      jumpi\n    tag_2:\n      0x00\n      dup1\n      revert\n        /* \"for_checkingfiles.sol\":5341:5439  function span()public {... */\n    tag_3:\n      tag_7\n      tag_8\n      jump\t// in\n    tag_7:\n      stop\n        /* \"for_checkingfiles.sol\":5191:5308  function valueI()public {... */\n    tag_4:\n      tag_9\n      tag_10\n      jump\t// in\n    tag_9:\n      stop\n        /* \"for_checkingfiles.sol\":5318:5334  uint public life */\n    tag_5:\n      tag_11\n      tag_12\n      jump\t// in\n    tag_11:\n      mload(0x40)\n      tag_13\n      swap2\n      swap1\n      tag_14\n      jump\t// in\n    tag_13:\n      mload(0x40)\n      dup1\n      swap2\n      sub\n      swap1\n      return\n        /* \"for_checkingfiles.sol\":5127:5143  uint public i= 1 */\n    tag_6:\n      tag_15\n      tag_16\n      jump\t// in\n    tag_15:\n      mload(0x40)\n      tag_17\n      swap2\n      swap1\n      tag_14\n      jump\t// in\n    tag_17:\n      mload(0x40)\n      dup1\n      swap2\n      sub\n      swap1\n      return\n        /* \"for_checkingfiles.sol\":5341:5439  function span()public {... */\n    tag_8:\n        /* \"for_checkingfiles.sol\":5378:5384  uint y */\n      0x00\n        /* \"for_checkingfiles.sol\":5374:5432  for(uint y=0; y<1;y++){... */\n    tag_19:\n        /* \"for_checkingfiles.sol\":5390:5391  1 */\n      0x01\n        /* \"for_checkingfiles.sol\":5388:5389  y */\n      dup2\n        /* \"for_checkingfiles.sol\":5388:5391  y<1 */\n      lt\n        /* \"for_checkingfiles.sol\":5374:5432  for(uint y=0; y<1;y++){... */\n      iszero\n      tag_20\n      jumpi\n        /* \"for_checkingfiles.sol\":5419:5420  y */\n      dup1\n        /* \"for_checkingfiles.sol\":5411:5415  life */\n      0x03\n      0x00\n        /* \"for_checkingfiles.sol\":5411:5420  life += y */\n      dup3\n      dup3\n      sload\n      tag_22\n      swap2\n      swap1\n      tag_23\n      jump\t// in\n    tag_22:\n      swap3\n      pop\n      pop\n      dup2\n      swap1\n      sstore\n      pop\n        /* \"for_checkingfiles.sol\":5392:5395  y++ */\n      dup1\n      dup1\n      tag_24\n      swap1\n      tag_25\n      jump\t// in\n    tag_24:\n      swap2\n      pop\n      pop\n        /* \"for_checkingfiles.sol\":5374:5432  for(uint y=0; y<1;y++){... */\n      jump(tag_19)\n    tag_20:\n      pop\n        /* \"for_checkingfiles.sol\":5341:5439  function span()public {... */\n      jump\t// out\n        /* \"for_checkingfiles.sol\":5191:5308  function valueI()public {... */\n    tag_10:\n        /* \"for_checkingfiles.sol\":5226:5299  do{... */\n    tag_27:\n        /* \"for_checkingfiles.sol\":5243:5244  i */\n      0x00\n      dup1\n        /* \"for_checkingfiles.sol\":5243:5246  i++ */\n      dup2\n      sload\n      dup1\n      swap3\n      swap2\n      swap1\n      tag_30\n      swap1\n      tag_25\n      jump\t// in\n    tag_30:\n      swap2\n      swap1\n      pop\n      sstore\n      pop\n        /* \"for_checkingfiles.sol\":5261:5270  iteration */\n      0x01\n      0x00\n        /* \"for_checkingfiles.sol\":5261:5272  iteration++ */\n      dup2\n      sload\n      dup1\n      swap3\n      swap2\n      swap1\n      tag_31\n      swap1\n      tag_25\n      jump\t// in\n    tag_31:\n      swap2\n      swap1\n      pop\n      sstore\n      pop\n        /* \"for_checkingfiles.sol\":5293:5297  cond */\n      sload(0x02)\n        /* \"for_checkingfiles.sol\":5291:5292  i */\n      sload(0x00)\n        /* \"for_checkingfiles.sol\":5291:5297  i<cond */\n      lt\n        /* \"for_checkingfiles.sol\":5226:5299  do{... */\n      tag_27\n      jumpi\n        /* \"for_checkingfiles.sol\":5191:5308  function valueI()public {... */\n      jump\t// out\n        /* \"for_checkingfiles.sol\":5318:5334  uint public life */\n    tag_12:\n      sload(0x03)\n      dup2\n      jump\t// out\n        /* \"for_checkingfiles.sol\":5127:5143  uint public i= 1 */\n    tag_16:\n      sload(0x00)\n      dup2\n      jump\t// out\n        /* \"#utility.yul\":7:84   */\n    tag_32:\n        /* \"#utility.yul\":44:51   */\n      0x00\n        /* \"#utility.yul\":73:78   */\n      dup2\n        /* \"#utility.yul\":62:78   */\n      swap1\n      pop\n        /* \"#utility.yul\":7:84   */\n      swap2\n      swap1\n      pop\n      jump\t// out\n        /* \"#utility.yul\":90:208   */\n    tag_33:\n        /* \"#utility.yul\":177:201   */\n      tag_38\n        /* \"#utility.yul\":195:200   */\n      dup2\n        /* \"#utility.yul\":177:201   */\n      tag_32\n      jump\t// in\n    tag_38:\n        /* \"#utility.yul\":172:175   */\n      dup3\n        /* \"#utility.yul\":165:202   */\n      mstore\n        /* \"#utility.yul\":90:208   */\n      pop\n      pop\n      jump\t// out\n        /* \"#utility.yul\":214:436   */\n    tag_14:\n        /* \"#utility.yul\":307:311   */\n      0x00\n        /* \"#utility.yul\":345:347   */\n      0x20\n        /* \"#utility.yul\":334:343   */\n      dup3\n        /* \"#utility.yul\":330:348   */\n      add\n        /* \"#utility.yul\":322:348   */\n      swap1\n      pop\n        /* \"#utility.yul\":358:429   */\n      tag_40\n        /* \"#utility.yul\":426:427   */\n      0x00\n        /* \"#utility.yul\":415:424   */\n      dup4\n        /* \"#utility.yul\":411:428   */\n      add\n        /* \"#utility.yul\":402:408   */\n      dup5\n        /* \"#utility.yul\":358:429   */\n      tag_33\n      jump\t// in\n    tag_40:\n        /* \"#utility.yul\":214:436   */\n      swap3\n      swap2\n      pop\n      pop\n      jump\t// out\n        /* \"#utility.yul\":442:622   */\n    tag_34:\n        /* \"#utility.yul\":490:567   */\n      0x4e487b7100000000000000000000000000000000000000000000000000000000\n        /* \"#utility.yul\":487:488   */\n      0x00\n        /* \"#utility.yul\":480:568   */\n      mstore\n        /* \"#utility.yul\":587:591   */\n      0x11\n        /* \"#utility.yul\":584:585   */\n      0x04\n        /* \"#utility.yul\":577:592   */\n      mstore\n        /* \"#utility.yul\":611:615   */\n      0x24\n        /* \"#utility.yul\":608:609   */\n      0x00\n        /* \"#utility.yul\":601:616   */\n      revert\n        /* \"#utility.yul\":628:819   */\n    tag_23:\n        /* \"#utility.yul\":668:671   */\n      0x00\n        /* \"#utility.yul\":687:707   */\n      tag_43\n        /* \"#utility.yul\":705:706   */\n      dup3\n        /* \"#utility.yul\":687:707   */\n      tag_32\n      jump\t// in\n    tag_43:\n        /* \"#utility.yul\":682:707   */\n      swap2\n      pop\n        /* \"#utility.yul\":721:741   */\n      tag_44\n        /* \"#utility.yul\":739:740   */\n      dup4\n        /* \"#utility.yul\":721:741   */\n      tag_32\n      jump\t// in\n    tag_44:\n        /* \"#utility.yul\":716:741   */\n      swap3\n      pop\n        /* \"#utility.yul\":764:765   */\n      dup3\n        /* \"#utility.yul\":761:762   */\n      dup3\n        /* \"#utility.yul\":757:766   */\n      add\n        /* \"#utility.yul\":750:766   */\n      swap1\n      pop\n        /* \"#utility.yul\":785:788   */\n      dup1\n        /* \"#utility.yul\":782:783   */\n      dup3\n        /* \"#utility.yul\":779:789   */\n      gt\n        /* \"#utility.yul\":776:812   */\n      iszero\n      tag_45\n      jumpi\n        /* \"#utility.yul\":792:810   */\n      tag_46\n      tag_34\n      jump\t// in\n    tag_46:\n        /* \"#utility.yul\":776:812   */\n    tag_45:\n        /* \"#utility.yul\":628:819   */\n      swap3\n      swap2\n      pop\n      pop\n      jump\t// out\n        /* \"#utility.yul\":825:1058   */\n    tag_25:\n        /* \"#utility.yul\":864:867   */\n      0x00\n        /* \"#utility.yul\":887:911   */\n      tag_48\n        /* \"#utility.yul\":905:910   */\n      dup3\n        /* \"#utility.yul\":887:911   */\n      tag_32\n      jump\t// in\n    tag_48:\n        /* \"#utility.yul\":878:911   */\n      swap2\n      pop\n        /* \"#utility.yul\":933:999   */\n      0xffffffffffffffffffffffffffffffffffffffffffffffffffffffffffffffff\n        /* \"#utility.yul\":926:931   */\n      dup3\n        /* \"#utility.yul\":923:1000   */\n      sub\n        /* \"#utility.yul\":920:1023   */\n      tag_49\n      jumpi\n        /* \"#utility.yul\":1003:1021   */\n      tag_50\n      tag_34\n      jump\t// in\n    tag_50:\n        /* \"#utility.yul\":920:1023   */\n    tag_49:\n        /* \"#utility.yul\":1050:1051   */\n      0x01\n        /* \"#utility.yul\":1043:1048   */\n      dup3\n        /* \"#utility.yul\":1039:1052   */\n      add\n        /* \"#utility.yul\":1032:1052   */\n      swap1\n      pop\n        /* \"#utility.yul\":825:1058   */\n      swap2\n      swap1\n      pop\n      jump\t// out\n\n    auxdata: 0xa264697066735822122043c486e950fbbf2a87a632e8bd347f3e3065dea3ab8143c154938a0fa6bc6fe464736f6c63430008120033\n}\n",
				"bytecode": {
					"linkReferences": {},
					"object": "60806040526001600055600060025534801561001a57600080fd5b5061023a8061002a6000396000f3fe608060405234801561001057600080fd5b506004361061004c5760003560e01c80632585581f14610051578063834c42ca1461005b578063c531086814610065578063e5aa3d5814610083575b600080fd5b6100596100a1565b005b6100636100dc565b005b61006d610119565b60405161007a919061013e565b60405180910390f35b61008b61011f565b604051610098919061013e565b60405180910390f35b60005b60018110156100d95780600360008282546100bf9190610188565b9250508190555080806100d1906101bc565b9150506100a4565b50565b5b6000808154809291906100ef906101bc565b919050555060016000815480929190610107906101bc565b9190505550600254600054106100dd57565b60035481565b60005481565b6000819050919050565b61013881610125565b82525050565b6000602082019050610153600083018461012f565b92915050565b7f4e487b7100000000000000000000000000000000000000000000000000000000600052601160045260246000fd5b600061019382610125565b915061019e83610125565b92508282019050808211156101b6576101b5610159565b5b92915050565b60006101c782610125565b91507fffffffffffffffffffffffffffffffffffffffffffffffffffffffffffffffff82036101f9576101f8610159565b5b60018201905091905056fea264697066735822122043c486e950fbbf2a87a632e8bd347f3e3065dea3ab8143c154938a0fa6bc6fe464736f6c63430008120033",
					"opcodes": "PUSH1 0x80 PUSH1 0x40 MSTORE PUSH1 0x1 PUSH1 0x0 SSTORE PUSH1 0x0 PUSH1 0x2 SSTORE CALLVALUE DUP1 ISZERO PUSH2 0x1A JUMPI PUSH1 0x0 DUP1 REVERT JUMPDEST POP PUSH2 0x23A DUP1 PUSH2 0x2A PUSH1 0x0 CODECOPY PUSH1 0x0 RETURN INVALID PUSH1 0x80 PUSH1 0x40 MSTORE CALLVALUE DUP1 ISZERO PUSH2 0x10 JUMPI PUSH1 0x0 DUP1 REVERT JUMPDEST POP PUSH1 0x4 CALLDATASIZE LT PUSH2 0x4C JUMPI PUSH1 0x0 CALLDATALOAD PUSH1 0xE0 SHR DUP1 PUSH4 0x2585581F EQ PUSH2 0x51 JUMPI DUP1 PUSH4 0x834C42CA EQ PUSH2 0x5B JUMPI DUP1 PUSH4 0xC5310868 EQ PUSH2 0x65 JUMPI DUP1 PUSH4 0xE5AA3D58 EQ PUSH2 0x83 JUMPI JUMPDEST PUSH1 0x0 DUP1 REVERT JUMPDEST PUSH2 0x59 PUSH2 0xA1 JUMP JUMPDEST STOP JUMPDEST PUSH2 0x63 PUSH2 0xDC JUMP JUMPDEST STOP JUMPDEST PUSH2 0x6D PUSH2 0x119 JUMP JUMPDEST PUSH1 0x40 MLOAD PUSH2 0x7A SWAP2 SWAP1 PUSH2 0x13E JUMP JUMPDEST PUSH1 0x40 MLOAD DUP1 SWAP2 SUB SWAP1 RETURN JUMPDEST PUSH2 0x8B PUSH2 0x11F JUMP JUMPDEST PUSH1 0x40 MLOAD PUSH2 0x98 SWAP2 SWAP1 PUSH2 0x13E JUMP JUMPDEST PUSH1 0x40 MLOAD DUP1 SWAP2 SUB SWAP1 RETURN JUMPDEST PUSH1 0x0 JUMPDEST PUSH1 0x1 DUP2 LT ISZERO PUSH2 0xD9 JUMPI DUP1 PUSH1 0x3 PUSH1 0x0 DUP3 DUP3 SLOAD PUSH2 0xBF SWAP2 SWAP1 PUSH2 0x188 JUMP JUMPDEST SWAP3 POP POP DUP2 SWAP1 SSTORE POP DUP1 DUP1 PUSH2 0xD1 SWAP1 PUSH2 0x1BC JUMP JUMPDEST SWAP2 POP POP PUSH2 0xA4 JUMP JUMPDEST POP JUMP JUMPDEST JUMPDEST PUSH1 0x0 DUP1 DUP2 SLOAD DUP1 SWAP3 SWAP2 SWAP1 PUSH2 0xEF SWAP1 PUSH2 0x1BC JUMP JUMPDEST SWAP2 SWAP1 POP SSTORE POP PUSH1 0x1 PUSH1 0x0 DUP2 SLOAD DUP1 SWAP3 SWAP2 SWAP1 PUSH2 0x107 SWAP1 PUSH2 0x1BC JUMP JUMPDEST SWAP2 SWAP1 POP SSTORE POP PUSH1 0x2 SLOAD PUSH1 0x0 SLOAD LT PUSH2 0xDD JUMPI JUMP JUMPDEST PUSH1 0x3 SLOAD DUP2 JUMP JUMPDEST PUSH1 0x0 SLOAD DUP2 JUMP JUMPDEST PUSH1 0x0 DUP2 SWAP1 POP SWAP2 SWAP1 POP JUMP JUMPDEST PUSH2 0x138 DUP2 PUSH2 0x125 JUMP JUMPDEST DUP3 MSTORE POP POP JUMP JUMPDEST PUSH1 0x0 PUSH1 0x20 DUP3 ADD SWAP1 POP PUSH2 0x153 PUSH1 0x0 DUP4 ADD DUP5 PUSH2 0x12F JUMP JUMPDEST SWAP3 SWAP2 POP POP JUMP JUMPDEST PUSH32 0x4E487B7100000000000000000000000000000000000000000000000000000000 PUSH1 0x0 MSTORE PUSH1 0x11 PUSH1 0x4 MSTORE PUSH1 0x24 PUSH1 0x0 REVERT JUMPDEST PUSH1 0x0 PUSH2 0x193 DUP3 PUSH2 0x125 JUMP JUMPDEST SWAP2 POP PUSH2 0x19E DUP4 PUSH2 0x125 JUMP JUMPDEST SWAP3 POP DUP3 DUP3 ADD SWAP1 POP DUP1 DUP3 GT ISZERO PUSH2 0x1B6 JUMPI PUSH2 0x1B5 PUSH2 0x159 JUMP JUMPDEST JUMPDEST SWAP3 SWAP2 POP POP JUMP JUMPDEST PUSH1 0x0 PUSH2 0x1C7 DUP3 PUSH2 0x125 JUMP JUMPDEST SWAP2 POP PUSH32 0xFFFFFFFFFFFFFFFFFFFFFFFFFFFFFFFFFFFFFFFFFFFFFFFFFFFFFFFFFFFFFFFF DUP3 SUB PUSH2 0x1F9 JUMPI PUSH2 0x1F8 PUSH2 0x159 JUMP JUMPDEST JUMPDEST PUSH1 0x1 DUP3 ADD SWAP1 POP SWAP2 SWAP1 POP JUMP INVALID LOG2 PUSH5 0x6970667358 0x22 SLT KECCAK256 NUMBER 0xC4 DUP7 0xE9 POP 0xFB 0xBF 0x2A DUP8 0xA6 ORIGIN 0xE8 0xBD CALLVALUE PUSH32 0x3E3065DEA3AB8143C154938A0FA6BC6FE464736F6C6343000812003300000000 "
				},
				"gasEstimates": {
					"creation": {
						"codeDepositCost": "114000",
						"executionCost": "27271",
						"totalCost": "141271"
					},
					"external": {
						"i()": "2473",
						"life()": "2451",
						"span()": "infinite",
						"valueI()": "infinite"
					}
				},
				"methodIdentifiers": {
					"i()": "e5aa3d58",
					"life()": "c5310868",
					"span()": "2585581f",
					"valueI()": "834c42ca"
				}
			},
			"storageLayout": {
				"storage": [
					{
						"astId": 502,
						"contract": "for_checkingfiles.sol:Doit2",
						"label": "i",
						"offset": 0,
						"slot": "0",
						"type": "t_uint256"
					},
					{
						"astId": 504,
						"contract": "for_checkingfiles.sol:Doit2",
						"label": "iteration",
						"offset": 0,
						"slot": "1",
						"type": "t_uint256"
					},
					{
						"astId": 507,
						"contract": "for_checkingfiles.sol:Doit2",
						"label": "cond",
						"offset": 0,
						"slot": "2",
						"type": "t_uint256"
					},
					{
						"astId": 524,
						"contract": "for_checkingfiles.sol:Doit2",
						"label": "life",
						"offset": 0,
						"slot": "3",
						"type": "t_uint256"
					}
				],
				"types": {
					"t_uint256": {
						"encoding": "inplace",
						"label": "uint256",
						"numberOfBytes": "32"
					}
				}
			},
			"userdoc": {
				"kind": "user",
				"methods": {},
				"version": 1
			}
		}
	}
}