{
	"for_checkingfiles.sol": {
		"Total": {
			"abi": [
				{
					"inputs": [],
					"name": "rep",
					"outputs": [],
					"stateMutability": "nonpayable",
					"type": "function"
				},
				{
					"inputs": [],
					"name": "total",
					"outputs": [
						{
							"internalType": "uint256",
							"name": "",
							"type": "uint256"
						}
					],
					"stateMutability": "view",
					"type": "function"
				}
			],
			"devdoc": {
				"kind": "dev",
				"methods": {},
				"version": 1
			},
			"evm": {
				"assembly": "    /* \"for_checkingfiles.sol\":3160:3370  contract Total{... */\n  mstore(0x40, 0x80)\n    /* \"for_checkingfiles.sol\":3203:3204  0 */\n  0x00\n    /* \"for_checkingfiles.sol\":3183:3204  uint public total = 0 */\n  dup1\n  sstore\n    /* \"for_checkingfiles.sol\":3160:3370  contract Total{... */\n  callvalue\n  dup1\n  iszero\n  tag_1\n  jumpi\n  0x00\n  dup1\n  revert\ntag_1:\n  pop\n  dataSize(sub_0)\n  dup1\n  dataOffset(sub_0)\n  0x00\n  codecopy\n  0x00\n  return\nstop\n\nsub_0: assembly {\n        /* \"for_checkingfiles.sol\":3160:3370  contract Total{... */\n      mstore(0x40, 0x80)\n      callvalue\n      dup1\n      iszero\n      tag_1\n      jumpi\n      0x00\n      dup1\n      revert\n    tag_1:\n      pop\n      jumpi(tag_2, lt(calldatasize, 0x04))\n      shr(0xe0, calldataload(0x00))\n      dup1\n      0x2ddbd13a\n      eq\n      tag_3\n      jumpi\n      dup1\n      0xccc07959\n      eq\n      tag_4\n      jumpi\n    tag_2:\n      0x00\n      dup1\n      revert\n        /* \"for_checkingfiles.sol\":3183:3204  uint public total = 0 */\n    tag_3:\n      tag_5\n      tag_6\n      jump\t// in\n    tag_5:\n      mload(0x40)\n      tag_7\n      swap2\n      swap1\n      tag_8\n      jump\t// in\n    tag_7:\n      mload(0x40)\n      dup1\n      swap2\n      sub\n      swap1\n      return\n        /* \"for_checkingfiles.sol\":3211:3365  function rep()public {... */\n    tag_4:\n      tag_9\n      tag_10\n      jump\t// in\n    tag_9:\n      stop\n        /* \"for_checkingfiles.sol\":3183:3204  uint public total = 0 */\n    tag_6:\n      sload(0x00)\n      dup2\n      jump\t// out\n        /* \"for_checkingfiles.sol\":3211:3365  function rep()public {... */\n    tag_10:\n        /* \"for_checkingfiles.sol\":3247:3253  uint i */\n      0x00\n        /* \"for_checkingfiles.sol\":3254:3255  1 */\n      0x01\n        /* \"for_checkingfiles.sol\":3247:3255  uint i=1 */\n      swap1\n      pop\n        /* \"for_checkingfiles.sol\":3243:3358  for(uint i=1;i<=3;i++){... */\n    tag_12:\n        /* \"for_checkingfiles.sol\":3259:3260  3 */\n      0x03\n        /* \"for_checkingfiles.sol\":3256:3257  i */\n      dup2\n        /* \"for_checkingfiles.sol\":3256:3260  i<=3 */\n      gt\n        /* \"for_checkingfiles.sol\":3243:3358  for(uint i=1;i<=3;i++){... */\n      tag_13\n      jumpi\n        /* \"for_checkingfiles.sol\":3284:3290  uint y */\n      0x00\n        /* \"for_checkingfiles.sol\":3291:3292  1 */\n      0x01\n        /* \"for_checkingfiles.sol\":3284:3292  uint y=1 */\n      swap1\n      pop\n        /* \"for_checkingfiles.sol\":3280:3347  for(uint y=1; y<=1;y++){... */\n    tag_15:\n        /* \"for_checkingfiles.sol\":3297:3298  1 */\n      0x01\n        /* \"for_checkingfiles.sol\":3294:3295  y */\n      dup2\n        /* \"for_checkingfiles.sol\":3294:3298  y<=1 */\n      gt\n        /* \"for_checkingfiles.sol\":3280:3347  for(uint y=1; y<=1;y++){... */\n      tag_16\n      jumpi\n        /* \"for_checkingfiles.sol\":3330:3331  y */\n      dup1\n        /* \"for_checkingfiles.sol\":3322:3327  total */\n      0x00\n      dup1\n        /* \"for_checkingfiles.sol\":3322:3331  total +=y */\n      dup3\n      dup3\n      sload\n      tag_18\n      swap2\n      swap1\n      tag_19\n      jump\t// in\n    tag_18:\n      swap3\n      pop\n      pop\n      dup2\n      swap1\n      sstore\n      pop\n        /* \"for_checkingfiles.sol\":3299:3302  y++ */\n      dup1\n      dup1\n      tag_20\n      swap1\n      tag_21\n      jump\t// in\n    tag_20:\n      swap2\n      pop\n      pop\n        /* \"for_checkingfiles.sol\":3280:3347  for(uint y=1; y<=1;y++){... */\n      jump(tag_15)\n    tag_16:\n      pop\n        /* \"for_checkingfiles.sol\":3261:3264  i++ */\n      dup1\n      dup1\n      tag_22\n      swap1\n      tag_21\n      jump\t// in\n    tag_22:\n      swap2\n      pop\n      pop\n        /* \"for_checkingfiles.sol\":3243:3358  for(uint i=1;i<=3;i++){... */\n      jump(tag_12)\n    tag_13:\n      pop\n        /* \"for_checkingfiles.sol\":3211:3365  function rep()public {... */\n      jump\t// out\n        /* \"#utility.yul\":7:84   */\n    tag_23:\n        /* \"#utility.yul\":44:51   */\n      0x00\n        /* \"#utility.yul\":73:78   */\n      dup2\n        /* \"#utility.yul\":62:78   */\n      swap1\n      pop\n        /* \"#utility.yul\":7:84   */\n      swap2\n      swap1\n      pop\n      jump\t// out\n        /* \"#utility.yul\":90:208   */\n    tag_24:\n        /* \"#utility.yul\":177:201   */\n      tag_29\n        /* \"#utility.yul\":195:200   */\n      dup2\n        /* \"#utility.yul\":177:201   */\n      tag_23\n      jump\t// in\n    tag_29:\n        /* \"#utility.yul\":172:175   */\n      dup3\n        /* \"#utility.yul\":165:202   */\n      mstore\n        /* \"#utility.yul\":90:208   */\n      pop\n      pop\n      jump\t// out\n        /* \"#utility.yul\":214:436   */\n    tag_8:\n        /* \"#utility.yul\":307:311   */\n      0x00\n        /* \"#utility.yul\":345:347   */\n      0x20\n        /* \"#utility.yul\":334:343   */\n      dup3\n        /* \"#utility.yul\":330:348   */\n      add\n        /* \"#utility.yul\":322:348   */\n      swap1\n      pop\n        /* \"#utility.yul\":358:429   */\n      tag_31\n        /* \"#utility.yul\":426:427   */\n      0x00\n        /* \"#utility.yul\":415:424   */\n      dup4\n        /* \"#utility.yul\":411:428   */\n      add\n        /* \"#utility.yul\":402:408   */\n      dup5\n        /* \"#utility.yul\":358:429   */\n      tag_24\n      jump\t// in\n    tag_31:\n        /* \"#utility.yul\":214:436   */\n      swap3\n      swap2\n      pop\n      pop\n      jump\t// out\n        /* \"#utility.yul\":442:622   */\n    tag_25:\n        /* \"#utility.yul\":490:567   */\n      0x4e487b7100000000000000000000000000000000000000000000000000000000\n        /* \"#utility.yul\":487:488   */\n      0x00\n        /* \"#utility.yul\":480:568   */\n      mstore\n        /* \"#utility.yul\":587:591   */\n      0x11\n        /* \"#utility.yul\":584:585   */\n      0x04\n        /* \"#utility.yul\":577:592   */\n      mstore\n        /* \"#utility.yul\":611:615   */\n      0x24\n        /* \"#utility.yul\":608:609   */\n      0x00\n        /* \"#utility.yul\":601:616   */\n      revert\n        /* \"#utility.yul\":628:819   */\n    tag_19:\n        /* \"#utility.yul\":668:671   */\n      0x00\n        /* \"#utility.yul\":687:707   */\n      tag_34\n        /* \"#utility.yul\":705:706   */\n      dup3\n        /* \"#utility.yul\":687:707   */\n      tag_23\n      jump\t// in\n    tag_34:\n        /* \"#utility.yul\":682:707   */\n      swap2\n      pop\n        /* \"#utility.yul\":721:741   */\n      tag_35\n        /* \"#utility.yul\":739:740   */\n      dup4\n        /* \"#utility.yul\":721:741   */\n      tag_23\n      jump\t// in\n    tag_35:\n        /* \"#utility.yul\":716:741   */\n      swap3\n      pop\n        /* \"#utility.yul\":764:765   */\n      dup3\n        /* \"#utility.yul\":761:762   */\n      dup3\n        /* \"#utility.yul\":757:766   */\n      add\n        /* \"#utility.yul\":750:766   */\n      swap1\n      pop\n        /* \"#utility.yul\":785:788   */\n      dup1\n        /* \"#utility.yul\":782:783   */\n      dup3\n        /* \"#utility.yul\":779:789   */\n      gt\n        /* \"#utility.yul\":776:812   */\n      iszero\n      tag_36\n      jumpi\n        /* \"#utility.yul\":792:810   */\n      tag_37\n      tag_25\n      jump\t// in\n    tag_37:\n        /* \"#utility.yul\":776:812   */\n    tag_36:\n        /* \"#utility.yul\":628:819   */\n      swap3\n      swap2\n      pop\n      pop\n      jump\t// out\n        /* \"#utility.yul\":825:1058   */\n    tag_21:\n        /* \"#utility.yul\":864:867   */\n      0x00\n        /* \"#utility.yul\":887:911   */\n      tag_39\n        /* \"#utility.yul\":905:910   */\n      dup3\n        /* \"#utility.yul\":887:911   */\n      tag_23\n      jump\t// in\n    tag_39:\n        /* \"#utility.yul\":878:911   */\n      swap2\n      pop\n        /* \"#utility.yul\":933:999   */\n      0xffffffffffffffffffffffffffffffffffffffffffffffffffffffffffffffff\n        /* \"#utility.yul\":926:931   */\n      dup3\n        /* \"#utility.yul\":923:1000   */\n      sub\n        /* \"#utility.yul\":920:1023   */\n      tag_40\n      jumpi\n        /* \"#utility.yul\":1003:1021   */\n      tag_41\n      tag_25\n      jump\t// in\n    tag_41:\n        /* \"#utility.yul\":920:1023   */\n    tag_40:\n        /* \"#utility.yul\":1050:1051   */\n      0x01\n        /* \"#utility.yul\":1043:1048   */\n      dup3\n        /* \"#utility.yul\":1039:1052   */\n      add\n        /* \"#utility.yul\":1032:1052   */\n      swap1\n      pop\n        /* \"#utility.yul\":825:1058   */\n      swap2\n      swap1\n      pop\n      jump\t// out\n\n    auxdata: 0xa264697066735822122010c5e95e3bdc9035e54e8711fb8a33958abccb13e6eee48bc8f2eb401411dd8c64736f6c63430008120033\n}\n",
				"bytecode": {
					"linkReferences": {},
					"object": "60806040526000805534801561001457600080fd5b506101de806100246000396000f3fe608060405234801561001057600080fd5b50600436106100365760003560e01c80632ddbd13a1461003b578063ccc0795914610059575b600080fd5b610043610063565b60405161005091906100e2565b60405180910390f35b610061610069565b005b60005481565b6000600190505b600381116100c6576000600190505b600181116100b25780600080828254610098919061012c565b9250508190555080806100aa90610160565b91505061007f565b5080806100be90610160565b915050610070565b50565b6000819050919050565b6100dc816100c9565b82525050565b60006020820190506100f760008301846100d3565b92915050565b7f4e487b7100000000000000000000000000000000000000000000000000000000600052601160045260246000fd5b6000610137826100c9565b9150610142836100c9565b925082820190508082111561015a576101596100fd565b5b92915050565b600061016b826100c9565b91507fffffffffffffffffffffffffffffffffffffffffffffffffffffffffffffffff820361019d5761019c6100fd565b5b60018201905091905056fea264697066735822122010c5e95e3bdc9035e54e8711fb8a33958abccb13e6eee48bc8f2eb401411dd8c64736f6c63430008120033",
					"opcodes": "PUSH1 0x80 PUSH1 0x40 MSTORE PUSH1 0x0 DUP1 SSTORE CALLVALUE DUP1 ISZERO PUSH2 0x14 JUMPI PUSH1 0x0 DUP1 REVERT JUMPDEST POP PUSH2 0x1DE DUP1 PUSH2 0x24 PUSH1 0x0 CODECOPY PUSH1 0x0 RETURN INVALID PUSH1 0x80 PUSH1 0x40 MSTORE CALLVALUE DUP1 ISZERO PUSH2 0x10 JUMPI PUSH1 0x0 DUP1 REVERT JUMPDEST POP PUSH1 0x4 CALLDATASIZE LT PUSH2 0x36 JUMPI PUSH1 0x0 CALLDATALOAD PUSH1 0xE0 SHR DUP1 PUSH4 0x2DDBD13A EQ PUSH2 0x3B JUMPI DUP1 PUSH4 0xCCC07959 EQ PUSH2 0x59 JUMPI JUMPDEST PUSH1 0x0 DUP1 REVERT JUMPDEST PUSH2 0x43 PUSH2 0x63 JUMP JUMPDEST PUSH1 0x40 MLOAD PUSH2 0x50 SWAP2 SWAP1 PUSH2 0xE2 JUMP JUMPDEST PUSH1 0x40 MLOAD DUP1 SWAP2 SUB SWAP1 RETURN JUMPDEST PUSH2 0x61 PUSH2 0x69 JUMP JUMPDEST STOP JUMPDEST PUSH1 0x0 SLOAD DUP2 JUMP JUMPDEST PUSH1 0x0 PUSH1 0x1 SWAP1 POP JUMPDEST PUSH1 0x3 DUP2 GT PUSH2 0xC6 JUMPI PUSH1 0x0 PUSH1 0x1 SWAP1 POP JUMPDEST PUSH1 0x1 DUP2 GT PUSH2 0xB2 JUMPI DUP1 PUSH1 0x0 DUP1 DUP3 DUP3 SLOAD PUSH2 0x98 SWAP2 SWAP1 PUSH2 0x12C JUMP JUMPDEST SWAP3 POP POP DUP2 SWAP1 SSTORE POP DUP1 DUP1 PUSH2 0xAA SWAP1 PUSH2 0x160 JUMP JUMPDEST SWAP2 POP POP PUSH2 0x7F JUMP JUMPDEST POP DUP1 DUP1 PUSH2 0xBE SWAP1 PUSH2 0x160 JUMP JUMPDEST SWAP2 POP POP PUSH2 0x70 JUMP JUMPDEST POP JUMP JUMPDEST PUSH1 0x0 DUP2 SWAP1 POP SWAP2 SWAP1 POP JUMP JUMPDEST PUSH2 0xDC DUP2 PUSH2 0xC9 JUMP JUMPDEST DUP3 MSTORE POP POP JUMP JUMPDEST PUSH1 0x0 PUSH1 0x20 DUP3 ADD SWAP1 POP PUSH2 0xF7 PUSH1 0x0 DUP4 ADD DUP5 PUSH2 0xD3 JUMP JUMPDEST SWAP3 SWAP2 POP POP JUMP JUMPDEST PUSH32 0x4E487B7100000000000000000000000000000000000000000000000000000000 PUSH1 0x0 MSTORE PUSH1 0x11 PUSH1 0x4 MSTORE PUSH1 0x24 PUSH1 0x0 REVERT JUMPDEST PUSH1 0x0 PUSH2 0x137 DUP3 PUSH2 0xC9 JUMP JUMPDEST SWAP2 POP PUSH2 0x142 DUP4 PUSH2 0xC9 JUMP JUMPDEST SWAP3 POP DUP3 DUP3 ADD SWAP1 POP DUP1 DUP3 GT ISZERO PUSH2 0x15A JUMPI PUSH2 0x159 PUSH2 0xFD JUMP JUMPDEST JUMPDEST SWAP3 SWAP2 POP POP JUMP JUMPDEST PUSH1 0x0 PUSH2 0x16B DUP3 PUSH2 0xC9 JUMP JUMPDEST SWAP2 POP PUSH32 0xFFFFFFFFFFFFFFFFFFFFFFFFFFFFFFFFFFFFFFFFFFFFFFFFFFFFFFFFFFFFFFFF DUP3 SUB PUSH2 0x19D JUMPI PUSH2 0x19C PUSH2 0xFD JUMP JUMPDEST JUMPDEST PUSH1 0x1 DUP3 ADD SWAP1 POP SWAP2 SWAP1 POP JUMP INVALID LOG2 PUSH5 0x6970667358 0x22 SLT KECCAK256 LT 0xC5 0xE9 0x5E EXTCODESIZE 0xDC SWAP1 CALLDATALOAD 0xE5 0x4E DUP8 GT 0xFB DUP11 CALLER SWAP6 DUP11 0xBC 0xCB SGT 0xE6 0xEE 0xE4 DUP12 0xC8 CALLCODE 0xEB BLOCKHASH EQ GT 0xDD DUP13 PUSH5 0x736F6C6343 STOP ADDMOD SLT STOP CALLER "
				},
				"gasEstimates": {
					"creation": {
						"codeDepositCost": "95600",
						"executionCost": "5147",
						"totalCost": "100747"
					},
					"external": {
						"rep()": "infinite",
						"total()": "2407"
					}
				},
				"methodIdentifiers": {
					"rep()": "ccc07959",
					"total()": "2ddbd13a"
				}
			},
			"storageLayout": {
				"storage": [
					{
						"astId": 381,
						"contract": "for_checkingfiles.sol:Total",
						"label": "total",
						"offset": 0,
						"slot": "0",
						"type": "t_uint256"
					}
				],
				"types": {
					"t_uint256": {
						"encoding": "inplace",
						"label": "uint256",
						"numberOfBytes": "32"
					}
				}
			},
			"userdoc": {
				"kind": "user",
				"methods": {},
				"version": 1
			}
		}
	}
}