{
	"data": {
		"bytecode": {
			"linkReferences": {},
			"object": "608060405234801561001057600080fd5b50610247806100206000396000f3fe608060405234801561001057600080fd5b506004361061002b5760003560e01c8063cb4580f714610030575b600080fd5b61004a60048036038101906100459190610109565b610060565b60405161005791906101c6565b60405180910390f35b606060008260000b126100aa576040518060400160405280602081526020017f746865206e756d626572206973206120706f73697469766520696e746567657281525090506100c6565b6040518060600160405280602981526020016101e96029913990505b919050565b600080fd5b60008160000b9050919050565b6100e6816100d0565b81146100f157600080fd5b50565b600081359050610103816100dd565b92915050565b60006020828403121561011f5761011e6100cb565b5b600061012d848285016100f4565b91505092915050565b600081519050919050565b600082825260208201905092915050565b60005b83811015610170578082015181840152602081019050610155565b60008484015250505050565b6000601f19601f8301169050919050565b600061019882610136565b6101a28185610141565b93506101b2818560208601610152565b6101bb8161017c565b840191505092915050565b600060208201905081810360008301526101e0818461018d565b90509291505056fe746865206e756d6265722069732061206e6567617469766520706f73697469766520696e7465676572a264697066735822122048bd41c0a5dd2ef85e8254887461f393b09aa8a0e487eb641bfc7bcc6068886964736f6c63430008120033",
			"opcodes": "PUSH1 0x80 PUSH1 0x40 MSTORE CALLVALUE DUP1 ISZERO PUSH2 0x10 JUMPI PUSH1 0x0 DUP1 REVERT JUMPDEST POP PUSH2 0x247 DUP1 PUSH2 0x20 PUSH1 0x0 CODECOPY PUSH1 0x0 RETURN INVALID PUSH1 0x80 PUSH1 0x40 MSTORE CALLVALUE DUP1 ISZERO PUSH2 0x10 JUMPI PUSH1 0x0 DUP1 REVERT JUMPDEST POP PUSH1 0x4 CALLDATASIZE LT PUSH2 0x2B JUMPI PUSH1 0x0 CALLDATALOAD PUSH1 0xE0 SHR DUP1 PUSH4 0xCB4580F7 EQ PUSH2 0x30 JUMPI JUMPDEST PUSH1 0x0 DUP1 REVERT JUMPDEST PUSH2 0x4A PUSH1 0x4 DUP1 CALLDATASIZE SUB DUP2 ADD SWAP1 PUSH2 0x45 SWAP2 SWAP1 PUSH2 0x109 JUMP JUMPDEST PUSH2 0x60 JUMP JUMPDEST PUSH1 0x40 MLOAD PUSH2 0x57 SWAP2 SWAP1 PUSH2 0x1C6 JUMP JUMPDEST PUSH1 0x40 MLOAD DUP1 SWAP2 SUB SWAP1 RETURN JUMPDEST PUSH1 0x60 PUSH1 0x0 DUP3 PUSH1 0x0 SIGNEXTEND SLT PUSH2 0xAA JUMPI PUSH1 0x40 MLOAD DUP1 PUSH1 0x40 ADD PUSH1 0x40 MSTORE DUP1 PUSH1 0x20 DUP2 MSTORE PUSH1 0x20 ADD PUSH32 0x746865206E756D626572206973206120706F73697469766520696E7465676572 DUP2 MSTORE POP SWAP1 POP PUSH2 0xC6 JUMP JUMPDEST PUSH1 0x40 MLOAD DUP1 PUSH1 0x60 ADD PUSH1 0x40 MSTORE DUP1 PUSH1 0x29 DUP2 MSTORE PUSH1 0x20 ADD PUSH2 0x1E9 PUSH1 0x29 SWAP2 CODECOPY SWAP1 POP JUMPDEST SWAP2 SWAP1 POP JUMP JUMPDEST PUSH1 0x0 DUP1 REVERT JUMPDEST PUSH1 0x0 DUP2 PUSH1 0x0 SIGNEXTEND SWAP1 POP SWAP2 SWAP1 POP JUMP JUMPDEST PUSH2 0xE6 DUP2 PUSH2 0xD0 JUMP JUMPDEST DUP2 EQ PUSH2 0xF1 JUMPI PUSH1 0x0 DUP1 REVERT JUMPDEST POP JUMP JUMPDEST PUSH1 0x0 DUP2 CALLDATALOAD SWAP1 POP PUSH2 0x103 DUP2 PUSH2 0xDD JUMP JUMPDEST SWAP3 SWAP2 POP POP JUMP JUMPDEST PUSH1 0x0 PUSH1 0x20 DUP3 DUP5 SUB SLT ISZERO PUSH2 0x11F JUMPI PUSH2 0x11E PUSH2 0xCB JUMP JUMPDEST JUMPDEST PUSH1 0x0 PUSH2 0x12D DUP5 DUP3 DUP6 ADD PUSH2 0xF4 JUMP JUMPDEST SWAP2 POP POP SWAP3 SWAP2 POP POP JUMP JUMPDEST PUSH1 0x0 DUP2 MLOAD SWAP1 POP SWAP2 SWAP1 POP JUMP JUMPDEST PUSH1 0x0 DUP3 DUP3 MSTORE PUSH1 0x20 DUP3 ADD SWAP1 POP SWAP3 SWAP2 POP POP JUMP JUMPDEST PUSH1 0x0 JUMPDEST DUP4 DUP2 LT ISZERO PUSH2 0x170 JUMPI DUP1 DUP3 ADD MLOAD DUP2 DUP5 ADD MSTORE PUSH1 0x20 DUP2 ADD SWAP1 POP PUSH2 0x155 JUMP JUMPDEST PUSH1 0x0 DUP5 DUP5 ADD MSTORE POP POP POP POP JUMP JUMPDEST PUSH1 0x0 PUSH1 0x1F NOT PUSH1 0x1F DUP4 ADD AND SWAP1 POP SWAP2 SWAP1 POP JUMP JUMPDEST PUSH1 0x0 PUSH2 0x198 DUP3 PUSH2 0x136 JUMP JUMPDEST PUSH2 0x1A2 DUP2 DUP6 PUSH2 0x141 JUMP JUMPDEST SWAP4 POP PUSH2 0x1B2 DUP2 DUP6 PUSH1 0x20 DUP7 ADD PUSH2 0x152 JUMP JUMPDEST PUSH2 0x1BB DUP2 PUSH2 0x17C JUMP JUMPDEST DUP5 ADD SWAP2 POP POP SWAP3 SWAP2 POP POP JUMP JUMPDEST PUSH1 0x0 PUSH1 0x20 DUP3 ADD SWAP1 POP DUP2 DUP2 SUB PUSH1 0x0 DUP4 ADD MSTORE PUSH2 0x1E0 DUP2 DUP5 PUSH2 0x18D JUMP JUMPDEST SWAP1 POP SWAP3 SWAP2 POP POP JUMP INVALID PUSH21 0x6865206E756D6265722069732061206E6567617469 PUSH23 0x6520706F73697469766520696E7465676572A264697066 PUSH20 0x5822122048BD41C0A5DD2EF85E8254887461F393 0xB0 SWAP11 0xA8 LOG0 0xE4 DUP8 0xEB PUSH5 0x1BFC7BCC60 PUSH9 0x886964736F6C634300 ADDMOD SLT STOP CALLER "
		},
		"gasEstimates": {
			"creation": {
				"codeDepositCost": "116600",
				"executionCost": "165",
				"totalCost": "116765"
			},
			"external": {
				"checkNum(int8)": "infinite"
			}
		},
		"methodIdentifiers": {
			"checkNum(int8)": "cb4580f7"
		}
	},
	"abi": [
		{
			"inputs": [
				{
					"internalType": "int8",
					"name": "number",
					"type": "int8"
				}
			],
			"name": "checkNum",
			"outputs": [
				{
					"internalType": "string",
					"name": "",
					"type": "string"
				}
			],
			"stateMutability": "pure",
			"type": "function"
		}
	]
}