{
	"data": {
		"bytecode": {
			"linkReferences": {},
			"object": "608060405234801561000f575f80fd5b506108038061001d5f395ff3fe608060405234801561000f575f80fd5b506004361061004a575f3560e01c806306fdde031461004e578063767800de1461006c578063cf25b09f1461008a578063edb825c0146100a8575b5f80fd5b6100566100c4565b604051610063919061025e565b60405180910390f35b610074610150565b60405161008191906102bd565b60405180910390f35b610092610173565b60405161009f91906102ee565b60405180910390f35b6100c260048036038101906100bd9190610498565b610179565b005b600180546100d190610531565b80601f01602080910402602001604051908101604052809291908181526020018280546100fd90610531565b80156101485780601f1061011f57610100808354040283529160200191610148565b820191905f5260205f20905b81548152906001019060200180831161012b57829003601f168201915b505050505081565b5f8054906101000a900473ffffffffffffffffffffffffffffffffffffffff1681565b60025481565b825f806101000a81548173ffffffffffffffffffffffffffffffffffffffff021916908373ffffffffffffffffffffffffffffffffffffffff16021790555081600190816101c791906106fe565b5080600281905550505050565b5f81519050919050565b5f82825260208201905092915050565b5f5b8381101561020b5780820151818401526020810190506101f0565b5f8484015250505050565b5f601f19601f8301169050919050565b5f610230826101d4565b61023a81856101de565b935061024a8185602086016101ee565b61025381610216565b840191505092915050565b5f6020820190508181035f8301526102768184610226565b905092915050565b5f73ffffffffffffffffffffffffffffffffffffffff82169050919050565b5f6102a78261027e565b9050919050565b6102b78161029d565b82525050565b5f6020820190506102d05f8301846102ae565b92915050565b5f819050919050565b6102e8816102d6565b82525050565b5f6020820190506103015f8301846102df565b92915050565b5f604051905090565b5f80fd5b5f80fd5b6103218161029d565b811461032b575f80fd5b50565b5f8135905061033c81610318565b92915050565b5f80fd5b5f80fd5b7f4e487b71000000000000000000000000000000000000000000000000000000005f52604160045260245ffd5b61038082610216565b810181811067ffffffffffffffff8211171561039f5761039e61034a565b5b80604052505050565b5f6103b1610307565b90506103bd8282610377565b919050565b5f67ffffffffffffffff8211156103dc576103db61034a565b5b6103e582610216565b9050602081019050919050565b828183375f83830152505050565b5f61041261040d846103c2565b6103a8565b90508281526020810184848401111561042e5761042d610346565b5b6104398482856103f2565b509392505050565b5f82601f83011261045557610454610342565b5b8135610465848260208601610400565b91505092915050565b610477816102d6565b8114610481575f80fd5b50565b5f813590506104928161046e565b92915050565b5f805f606084860312156104af576104ae610310565b5b5f6104bc8682870161032e565b935050602084013567ffffffffffffffff8111156104dd576104dc610314565b5b6104e986828701610441565b92505060406104fa86828701610484565b9150509250925092565b7f4e487b71000000000000000000000000000000000000000000000000000000005f52602260045260245ffd5b5f600282049050600182168061054857607f821691505b60208210810361055b5761055a610504565b5b50919050565b5f819050815f5260205f209050919050565b5f6020601f8301049050919050565b5f82821b905092915050565b5f600883026105bd7fffffffffffffffffffffffffffffffffffffffffffffffffffffffffffffffff82610582565b6105c78683610582565b95508019841693508086168417925050509392505050565b5f819050919050565b5f6106026105fd6105f8846102d6565b6105df565b6102d6565b9050919050565b5f819050919050565b61061b836105e8565b61062f61062782610609565b84845461058e565b825550505050565b5f90565b610643610637565b61064e818484610612565b505050565b5b81811015610671576106665f8261063b565b600181019050610654565b5050565b601f8211156106b65761068781610561565b61069084610573565b8101602085101561069f578190505b6106b36106ab85610573565b830182610653565b50505b505050565b5f82821c905092915050565b5f6106d65f19846008026106bb565b1980831691505092915050565b5f6106ee83836106c7565b9150826002028217905092915050565b610707826101d4565b67ffffffffffffffff8111156107205761071f61034a565b5b61072a8254610531565b610735828285610675565b5f60209050601f831160018114610766575f8415610754578287015190505b61075e85826106e3565b8655506107c5565b601f19841661077486610561565b5f5b8281101561079b57848901518255600182019150602085019450602081019050610776565b868310156107b857848901516107b4601f8916826106c7565b8355505b6001600288020188555050505b50505050505056fea26469706673582212205b837440f57cdb97ff9a30cf2e8bc73221df85b413056f2e9440de6722b707ce64736f6c63430008150033",
			"opcodes": "PUSH1 0x80 PUSH1 0x40 MSTORE CALLVALUE DUP1 ISZERO PUSH2 0xF JUMPI PUSH0 DUP1 REVERT JUMPDEST POP PUSH2 0x803 DUP1 PUSH2 0x1D PUSH0 CODECOPY PUSH0 RETURN INVALID PUSH1 0x80 PUSH1 0x40 MSTORE CALLVALUE DUP1 ISZERO PUSH2 0xF JUMPI PUSH0 DUP1 REVERT JUMPDEST POP PUSH1 0x4 CALLDATASIZE LT PUSH2 0x4A JUMPI PUSH0 CALLDATALOAD PUSH1 0xE0 SHR DUP1 PUSH4 0x6FDDE03 EQ PUSH2 0x4E JUMPI DUP1 PUSH4 0x767800DE EQ PUSH2 0x6C JUMPI DUP1 PUSH4 0xCF25B09F EQ PUSH2 0x8A JUMPI DUP1 PUSH4 0xEDB825C0 EQ PUSH2 0xA8 JUMPI JUMPDEST PUSH0 DUP1 REVERT JUMPDEST PUSH2 0x56 PUSH2 0xC4 JUMP JUMPDEST PUSH1 0x40 MLOAD PUSH2 0x63 SWAP2 SWAP1 PUSH2 0x25E JUMP JUMPDEST PUSH1 0x40 MLOAD DUP1 SWAP2 SUB SWAP1 RETURN JUMPDEST PUSH2 0x74 PUSH2 0x150 JUMP JUMPDEST PUSH1 0x40 MLOAD PUSH2 0x81 SWAP2 SWAP1 PUSH2 0x2BD JUMP JUMPDEST PUSH1 0x40 MLOAD DUP1 SWAP2 SUB SWAP1 RETURN JUMPDEST PUSH2 0x92 PUSH2 0x173 JUMP JUMPDEST PUSH1 0x40 MLOAD PUSH2 0x9F SWAP2 SWAP1 PUSH2 0x2EE JUMP JUMPDEST PUSH1 0x40 MLOAD DUP1 SWAP2 SUB SWAP1 RETURN JUMPDEST PUSH2 0xC2 PUSH1 0x4 DUP1 CALLDATASIZE SUB DUP2 ADD SWAP1 PUSH2 0xBD SWAP2 SWAP1 PUSH2 0x498 JUMP JUMPDEST PUSH2 0x179 JUMP JUMPDEST STOP JUMPDEST PUSH1 0x1 DUP1 SLOAD PUSH2 0xD1 SWAP1 PUSH2 0x531 JUMP JUMPDEST DUP1 PUSH1 0x1F ADD PUSH1 0x20 DUP1 SWAP2 DIV MUL PUSH1 0x20 ADD PUSH1 0x40 MLOAD SWAP1 DUP2 ADD PUSH1 0x40 MSTORE DUP1 SWAP3 SWAP2 SWAP1 DUP2 DUP2 MSTORE PUSH1 0x20 ADD DUP3 DUP1 SLOAD PUSH2 0xFD SWAP1 PUSH2 0x531 JUMP JUMPDEST DUP1 ISZERO PUSH2 0x148 JUMPI DUP1 PUSH1 0x1F LT PUSH2 0x11F JUMPI PUSH2 0x100 DUP1 DUP4 SLOAD DIV MUL DUP4 MSTORE SWAP2 PUSH1 0x20 ADD SWAP2 PUSH2 0x148 JUMP JUMPDEST DUP3 ADD SWAP2 SWAP1 PUSH0 MSTORE PUSH1 0x20 PUSH0 KECCAK256 SWAP1 JUMPDEST DUP2 SLOAD DUP2 MSTORE SWAP1 PUSH1 0x1 ADD SWAP1 PUSH1 0x20 ADD DUP1 DUP4 GT PUSH2 0x12B JUMPI DUP3 SWAP1 SUB PUSH1 0x1F AND DUP3 ADD SWAP2 JUMPDEST POP POP POP POP POP DUP2 JUMP JUMPDEST PUSH0 DUP1 SLOAD SWAP1 PUSH2 0x100 EXP SWAP1 DIV PUSH20 0xFFFFFFFFFFFFFFFFFFFFFFFFFFFFFFFFFFFFFFFF AND DUP2 JUMP JUMPDEST PUSH1 0x2 SLOAD DUP2 JUMP JUMPDEST DUP3 PUSH0 DUP1 PUSH2 0x100 EXP DUP2 SLOAD DUP2 PUSH20 0xFFFFFFFFFFFFFFFFFFFFFFFFFFFFFFFFFFFFFFFF MUL NOT AND SWAP1 DUP4 PUSH20 0xFFFFFFFFFFFFFFFFFFFFFFFFFFFFFFFFFFFFFFFF AND MUL OR SWAP1 SSTORE POP DUP2 PUSH1 0x1 SWAP1 DUP2 PUSH2 0x1C7 SWAP2 SWAP1 PUSH2 0x6FE JUMP JUMPDEST POP DUP1 PUSH1 0x2 DUP2 SWAP1 SSTORE POP POP POP POP JUMP JUMPDEST PUSH0 DUP2 MLOAD SWAP1 POP SWAP2 SWAP1 POP JUMP JUMPDEST PUSH0 DUP3 DUP3 MSTORE PUSH1 0x20 DUP3 ADD SWAP1 POP SWAP3 SWAP2 POP POP JUMP JUMPDEST PUSH0 JUMPDEST DUP4 DUP2 LT ISZERO PUSH2 0x20B JUMPI DUP1 DUP3 ADD MLOAD DUP2 DUP5 ADD MSTORE PUSH1 0x20 DUP2 ADD SWAP1 POP PUSH2 0x1F0 JUMP JUMPDEST PUSH0 DUP5 DUP5 ADD MSTORE POP POP POP POP JUMP JUMPDEST PUSH0 PUSH1 0x1F NOT PUSH1 0x1F DUP4 ADD AND SWAP1 POP SWAP2 SWAP1 POP JUMP JUMPDEST PUSH0 PUSH2 0x230 DUP3 PUSH2 0x1D4 JUMP JUMPDEST PUSH2 0x23A DUP2 DUP6 PUSH2 0x1DE JUMP JUMPDEST SWAP4 POP PUSH2 0x24A DUP2 DUP6 PUSH1 0x20 DUP7 ADD PUSH2 0x1EE JUMP JUMPDEST PUSH2 0x253 DUP2 PUSH2 0x216 JUMP JUMPDEST DUP5 ADD SWAP2 POP POP SWAP3 SWAP2 POP POP JUMP JUMPDEST PUSH0 PUSH1 0x20 DUP3 ADD SWAP1 POP DUP2 DUP2 SUB PUSH0 DUP4 ADD MSTORE PUSH2 0x276 DUP2 DUP5 PUSH2 0x226 JUMP JUMPDEST SWAP1 POP SWAP3 SWAP2 POP POP JUMP JUMPDEST PUSH0 PUSH20 0xFFFFFFFFFFFFFFFFFFFFFFFFFFFFFFFFFFFFFFFF DUP3 AND SWAP1 POP SWAP2 SWAP1 POP JUMP JUMPDEST PUSH0 PUSH2 0x2A7 DUP3 PUSH2 0x27E JUMP JUMPDEST SWAP1 POP SWAP2 SWAP1 POP JUMP JUMPDEST PUSH2 0x2B7 DUP2 PUSH2 0x29D JUMP JUMPDEST DUP3 MSTORE POP POP JUMP JUMPDEST PUSH0 PUSH1 0x20 DUP3 ADD SWAP1 POP PUSH2 0x2D0 PUSH0 DUP4 ADD DUP5 PUSH2 0x2AE JUMP JUMPDEST SWAP3 SWAP2 POP POP JUMP JUMPDEST PUSH0 DUP2 SWAP1 POP SWAP2 SWAP1 POP JUMP JUMPDEST PUSH2 0x2E8 DUP2 PUSH2 0x2D6 JUMP JUMPDEST DUP3 MSTORE POP POP JUMP JUMPDEST PUSH0 PUSH1 0x20 DUP3 ADD SWAP1 POP PUSH2 0x301 PUSH0 DUP4 ADD DUP5 PUSH2 0x2DF JUMP JUMPDEST SWAP3 SWAP2 POP POP JUMP JUMPDEST PUSH0 PUSH1 0x40 MLOAD SWAP1 POP SWAP1 JUMP JUMPDEST PUSH0 DUP1 REVERT JUMPDEST PUSH0 DUP1 REVERT JUMPDEST PUSH2 0x321 DUP2 PUSH2 0x29D JUMP JUMPDEST DUP2 EQ PUSH2 0x32B JUMPI PUSH0 DUP1 REVERT JUMPDEST POP JUMP JUMPDEST PUSH0 DUP2 CALLDATALOAD SWAP1 POP PUSH2 0x33C DUP2 PUSH2 0x318 JUMP JUMPDEST SWAP3 SWAP2 POP POP JUMP JUMPDEST PUSH0 DUP1 REVERT JUMPDEST PUSH0 DUP1 REVERT JUMPDEST PUSH32 0x4E487B7100000000000000000000000000000000000000000000000000000000 PUSH0 MSTORE PUSH1 0x41 PUSH1 0x4 MSTORE PUSH1 0x24 PUSH0 REVERT JUMPDEST PUSH2 0x380 DUP3 PUSH2 0x216 JUMP JUMPDEST DUP2 ADD DUP2 DUP2 LT PUSH8 0xFFFFFFFFFFFFFFFF DUP3 GT OR ISZERO PUSH2 0x39F JUMPI PUSH2 0x39E PUSH2 0x34A JUMP JUMPDEST JUMPDEST DUP1 PUSH1 0x40 MSTORE POP POP POP JUMP JUMPDEST PUSH0 PUSH2 0x3B1 PUSH2 0x307 JUMP JUMPDEST SWAP1 POP PUSH2 0x3BD DUP3 DUP3 PUSH2 0x377 JUMP JUMPDEST SWAP2 SWAP1 POP JUMP JUMPDEST PUSH0 PUSH8 0xFFFFFFFFFFFFFFFF DUP3 GT ISZERO PUSH2 0x3DC JUMPI PUSH2 0x3DB PUSH2 0x34A JUMP JUMPDEST JUMPDEST PUSH2 0x3E5 DUP3 PUSH2 0x216 JUMP JUMPDEST SWAP1 POP PUSH1 0x20 DUP2 ADD SWAP1 POP SWAP2 SWAP1 POP JUMP JUMPDEST DUP3 DUP2 DUP4 CALLDATACOPY PUSH0 DUP4 DUP4 ADD MSTORE POP POP POP JUMP JUMPDEST PUSH0 PUSH2 0x412 PUSH2 0x40D DUP5 PUSH2 0x3C2 JUMP JUMPDEST PUSH2 0x3A8 JUMP JUMPDEST SWAP1 POP DUP3 DUP2 MSTORE PUSH1 0x20 DUP2 ADD DUP5 DUP5 DUP5 ADD GT ISZERO PUSH2 0x42E JUMPI PUSH2 0x42D PUSH2 0x346 JUMP JUMPDEST JUMPDEST PUSH2 0x439 DUP5 DUP3 DUP6 PUSH2 0x3F2 JUMP JUMPDEST POP SWAP4 SWAP3 POP POP POP JUMP JUMPDEST PUSH0 DUP3 PUSH1 0x1F DUP4 ADD SLT PUSH2 0x455 JUMPI PUSH2 0x454 PUSH2 0x342 JUMP JUMPDEST JUMPDEST DUP2 CALLDATALOAD PUSH2 0x465 DUP5 DUP3 PUSH1 0x20 DUP7 ADD PUSH2 0x400 JUMP JUMPDEST SWAP2 POP POP SWAP3 SWAP2 POP POP JUMP JUMPDEST PUSH2 0x477 DUP2 PUSH2 0x2D6 JUMP JUMPDEST DUP2 EQ PUSH2 0x481 JUMPI PUSH0 DUP1 REVERT JUMPDEST POP JUMP JUMPDEST PUSH0 DUP2 CALLDATALOAD SWAP1 POP PUSH2 0x492 DUP2 PUSH2 0x46E JUMP JUMPDEST SWAP3 SWAP2 POP POP JUMP JUMPDEST PUSH0 DUP1 PUSH0 PUSH1 0x60 DUP5 DUP7 SUB SLT ISZERO PUSH2 0x4AF JUMPI PUSH2 0x4AE PUSH2 0x310 JUMP JUMPDEST JUMPDEST PUSH0 PUSH2 0x4BC DUP7 DUP3 DUP8 ADD PUSH2 0x32E JUMP JUMPDEST SWAP4 POP POP PUSH1 0x20 DUP5 ADD CALLDATALOAD PUSH8 0xFFFFFFFFFFFFFFFF DUP2 GT ISZERO PUSH2 0x4DD JUMPI PUSH2 0x4DC PUSH2 0x314 JUMP JUMPDEST JUMPDEST PUSH2 0x4E9 DUP7 DUP3 DUP8 ADD PUSH2 0x441 JUMP JUMPDEST SWAP3 POP POP PUSH1 0x40 PUSH2 0x4FA DUP7 DUP3 DUP8 ADD PUSH2 0x484 JUMP JUMPDEST SWAP2 POP POP SWAP3 POP SWAP3 POP SWAP3 JUMP JUMPDEST PUSH32 0x4E487B7100000000000000000000000000000000000000000000000000000000 PUSH0 MSTORE PUSH1 0x22 PUSH1 0x4 MSTORE PUSH1 0x24 PUSH0 REVERT JUMPDEST PUSH0 PUSH1 0x2 DUP3 DIV SWAP1 POP PUSH1 0x1 DUP3 AND DUP1 PUSH2 0x548 JUMPI PUSH1 0x7F DUP3 AND SWAP2 POP JUMPDEST PUSH1 0x20 DUP3 LT DUP2 SUB PUSH2 0x55B JUMPI PUSH2 0x55A PUSH2 0x504 JUMP JUMPDEST JUMPDEST POP SWAP2 SWAP1 POP JUMP JUMPDEST PUSH0 DUP2 SWAP1 POP DUP2 PUSH0 MSTORE PUSH1 0x20 PUSH0 KECCAK256 SWAP1 POP SWAP2 SWAP1 POP JUMP JUMPDEST PUSH0 PUSH1 0x20 PUSH1 0x1F DUP4 ADD DIV SWAP1 POP SWAP2 SWAP1 POP JUMP JUMPDEST PUSH0 DUP3 DUP3 SHL SWAP1 POP SWAP3 SWAP2 POP POP JUMP JUMPDEST PUSH0 PUSH1 0x8 DUP4 MUL PUSH2 0x5BD PUSH32 0xFFFFFFFFFFFFFFFFFFFFFFFFFFFFFFFFFFFFFFFFFFFFFFFFFFFFFFFFFFFFFFFF DUP3 PUSH2 0x582 JUMP JUMPDEST PUSH2 0x5C7 DUP7 DUP4 PUSH2 0x582 JUMP JUMPDEST SWAP6 POP DUP1 NOT DUP5 AND SWAP4 POP DUP1 DUP7 AND DUP5 OR SWAP3 POP POP POP SWAP4 SWAP3 POP POP POP JUMP JUMPDEST PUSH0 DUP2 SWAP1 POP SWAP2 SWAP1 POP JUMP JUMPDEST PUSH0 PUSH2 0x602 PUSH2 0x5FD PUSH2 0x5F8 DUP5 PUSH2 0x2D6 JUMP JUMPDEST PUSH2 0x5DF JUMP JUMPDEST PUSH2 0x2D6 JUMP JUMPDEST SWAP1 POP SWAP2 SWAP1 POP JUMP JUMPDEST PUSH0 DUP2 SWAP1 POP SWAP2 SWAP1 POP JUMP JUMPDEST PUSH2 0x61B DUP4 PUSH2 0x5E8 JUMP JUMPDEST PUSH2 0x62F PUSH2 0x627 DUP3 PUSH2 0x609 JUMP JUMPDEST DUP5 DUP5 SLOAD PUSH2 0x58E JUMP JUMPDEST DUP3 SSTORE POP POP POP POP JUMP JUMPDEST PUSH0 SWAP1 JUMP JUMPDEST PUSH2 0x643 PUSH2 0x637 JUMP JUMPDEST PUSH2 0x64E DUP2 DUP5 DUP5 PUSH2 0x612 JUMP JUMPDEST POP POP POP JUMP JUMPDEST JUMPDEST DUP2 DUP2 LT ISZERO PUSH2 0x671 JUMPI PUSH2 0x666 PUSH0 DUP3 PUSH2 0x63B JUMP JUMPDEST PUSH1 0x1 DUP2 ADD SWAP1 POP PUSH2 0x654 JUMP JUMPDEST POP POP JUMP JUMPDEST PUSH1 0x1F DUP3 GT ISZERO PUSH2 0x6B6 JUMPI PUSH2 0x687 DUP2 PUSH2 0x561 JUMP JUMPDEST PUSH2 0x690 DUP5 PUSH2 0x573 JUMP JUMPDEST DUP2 ADD PUSH1 0x20 DUP6 LT ISZERO PUSH2 0x69F JUMPI DUP2 SWAP1 POP JUMPDEST PUSH2 0x6B3 PUSH2 0x6AB DUP6 PUSH2 0x573 JUMP JUMPDEST DUP4 ADD DUP3 PUSH2 0x653 JUMP JUMPDEST POP POP JUMPDEST POP POP POP JUMP JUMPDEST PUSH0 DUP3 DUP3 SHR SWAP1 POP SWAP3 SWAP2 POP POP JUMP JUMPDEST PUSH0 PUSH2 0x6D6 PUSH0 NOT DUP5 PUSH1 0x8 MUL PUSH2 0x6BB JUMP JUMPDEST NOT DUP1 DUP4 AND SWAP2 POP POP SWAP3 SWAP2 POP POP JUMP JUMPDEST PUSH0 PUSH2 0x6EE DUP4 DUP4 PUSH2 0x6C7 JUMP JUMPDEST SWAP2 POP DUP3 PUSH1 0x2 MUL DUP3 OR SWAP1 POP SWAP3 SWAP2 POP POP JUMP JUMPDEST PUSH2 0x707 DUP3 PUSH2 0x1D4 JUMP JUMPDEST PUSH8 0xFFFFFFFFFFFFFFFF DUP2 GT ISZERO PUSH2 0x720 JUMPI PUSH2 0x71F PUSH2 0x34A JUMP JUMPDEST JUMPDEST PUSH2 0x72A DUP3 SLOAD PUSH2 0x531 JUMP JUMPDEST PUSH2 0x735 DUP3 DUP3 DUP6 PUSH2 0x675 JUMP JUMPDEST PUSH0 PUSH1 0x20 SWAP1 POP PUSH1 0x1F DUP4 GT PUSH1 0x1 DUP2 EQ PUSH2 0x766 JUMPI PUSH0 DUP5 ISZERO PUSH2 0x754 JUMPI DUP3 DUP8 ADD MLOAD SWAP1 POP JUMPDEST PUSH2 0x75E DUP6 DUP3 PUSH2 0x6E3 JUMP JUMPDEST DUP7 SSTORE POP PUSH2 0x7C5 JUMP JUMPDEST PUSH1 0x1F NOT DUP5 AND PUSH2 0x774 DUP7 PUSH2 0x561 JUMP JUMPDEST PUSH0 JUMPDEST DUP3 DUP2 LT ISZERO PUSH2 0x79B JUMPI DUP5 DUP10 ADD MLOAD DUP3 SSTORE PUSH1 0x1 DUP3 ADD SWAP2 POP PUSH1 0x20 DUP6 ADD SWAP5 POP PUSH1 0x20 DUP2 ADD SWAP1 POP PUSH2 0x776 JUMP JUMPDEST DUP7 DUP4 LT ISZERO PUSH2 0x7B8 JUMPI DUP5 DUP10 ADD MLOAD PUSH2 0x7B4 PUSH1 0x1F DUP10 AND DUP3 PUSH2 0x6C7 JUMP JUMPDEST DUP4 SSTORE POP JUMPDEST PUSH1 0x1 PUSH1 0x2 DUP9 MUL ADD DUP9 SSTORE POP POP POP JUMPDEST POP POP POP POP POP POP JUMP INVALID LOG2 PUSH5 0x6970667358 0x22 SLT KECCAK256 JUMPDEST DUP4 PUSH21 0x40F57CDB97FF9A30CF2E8BC73221DF85B413056F2E SWAP5 BLOCKHASH 0xDE PUSH8 0x22B707CE64736F6C PUSH4 0x43000815 STOP CALLER "
		},
		"gasEstimates": {
			"creation": {
				"codeDepositCost": "410200",
				"executionCost": "447",
				"totalCost": "410647"
			},
			"external": {
				"Print(address,string,uint256)": "infinite",
				"addr()": "2505",
				"name()": "infinite",
				"pin()": "2447"
			}
		},
		"methodIdentifiers": {
			"Print(address,string,uint256)": "edb825c0",
			"addr()": "767800de",
			"name()": "06fdde03",
			"pin()": "cf25b09f"
		}
	},
	"abi": [
		{
			"inputs": [
				{
					"internalType": "address",
					"name": "_addr",
					"type": "address"
				},
				{
					"internalType": "string",
					"name": "_name",
					"type": "string"
				},
				{
					"internalType": "uint256",
					"name": "_pin",
					"type": "uint256"
				}
			],
			"name": "Print",
			"outputs": [],
			"stateMutability": "nonpayable",
			"type": "function"
		},
		{
			"inputs": [],
			"name": "addr",
			"outputs": [
				{
					"internalType": "address",
					"name": "",
					"type": "address"
				}
			],
			"stateMutability": "view",
			"type": "function"
		},
		{
			"inputs": [],
			"name": "name",
			"outputs": [
				{
					"internalType": "string",
					"name": "",
					"type": "string"
				}
			],
			"stateMutability": "view",
			"type": "function"
		},
		{
			"inputs": [],
			"name": "pin",
			"outputs": [
				{
					"internalType": "uint256",
					"name": "",
					"type": "uint256"
				}
			],
			"stateMutability": "view",
			"type": "function"
		}
	]
}