{
	"data": {
		"bytecode": {
			"linkReferences": {},
			"object": "608060405234801561001057600080fd5b5061076f806100206000396000f3fe608060405234801561001057600080fd5b50600436106100415760003560e01c80630ad9d05214610046578063c6dad08214610064578063ce1f482514610082575b600080fd5b61004e61009e565b60405161005b919061026e565b60405180910390f35b61006c61012c565b604051610079919061026e565b60405180910390f35b61009c600480360381019061009791906103d9565b6101ba565b005b600180546100ab90610480565b80601f01602080910402602001604051908101604052809291908181526020018280546100d790610480565b80156101245780601f106100f957610100808354040283529160200191610124565b820191906000526020600020905b81548152906001019060200180831161010757829003601f168201915b505050505081565b6000805461013990610480565b80601f016020809104026020016040519081016040528092919081815260200182805461016590610480565b80156101b25780601f10610187576101008083540402835291602001916101b2565b820191906000526020600020905b81548152906001019060200180831161019557829003601f168201915b505050505081565b81600090816101c99190610667565b5080600190816101d99190610667565b505050565b600081519050919050565b600082825260208201905092915050565b60005b838110156102185780820151818401526020810190506101fd565b60008484015250505050565b6000601f19601f8301169050919050565b6000610240826101de565b61024a81856101e9565b935061025a8185602086016101fa565b61026381610224565b840191505092915050565b600060208201905081810360008301526102888184610235565b905092915050565b6000604051905090565b600080fd5b600080fd5b600080fd5b600080fd5b7f4e487b7100000000000000000000000000000000000000000000000000000000600052604160045260246000fd5b6102e682610224565b810181811067ffffffffffffffff82111715610305576103046102ae565b5b80604052505050565b6000610318610290565b905061032482826102dd565b919050565b600067ffffffffffffffff821115610344576103436102ae565b5b61034d82610224565b9050602081019050919050565b82818337600083830152505050565b600061037c61037784610329565b61030e565b905082815260208101848484011115610398576103976102a9565b5b6103a384828561035a565b509392505050565b600082601f8301126103c0576103bf6102a4565b5b81356103d0848260208601610369565b91505092915050565b600080604083850312156103f0576103ef61029a565b5b600083013567ffffffffffffffff81111561040e5761040d61029f565b5b61041a858286016103ab565b925050602083013567ffffffffffffffff81111561043b5761043a61029f565b5b610447858286016103ab565b9150509250929050565b7f4e487b7100000000000000000000000000000000000000000000000000000000600052602260045260246000fd5b6000600282049050600182168061049857607f821691505b6020821081036104ab576104aa610451565b5b50919050565b60008190508160005260206000209050919050565b60006020601f8301049050919050565b600082821b905092915050565b6000600883026105137fffffffffffffffffffffffffffffffffffffffffffffffffffffffffffffffff826104d6565b61051d86836104d6565b95508019841693508086168417925050509392505050565b6000819050919050565b6000819050919050565b600061056461055f61055a84610535565b61053f565b610535565b9050919050565b6000819050919050565b61057e83610549565b61059261058a8261056b565b8484546104e3565b825550505050565b600090565b6105a761059a565b6105b2818484610575565b505050565b5b818110156105d6576105cb60008261059f565b6001810190506105b8565b5050565b601f82111561061b576105ec816104b1565b6105f5846104c6565b81016020851015610604578190505b610618610610856104c6565b8301826105b7565b50505b505050565b600082821c905092915050565b600061063e60001984600802610620565b1980831691505092915050565b6000610657838361062d565b9150826002028217905092915050565b610670826101de565b67ffffffffffffffff811115610689576106886102ae565b5b6106938254610480565b61069e8282856105da565b600060209050601f8311600181146106d157600084156106bf578287015190505b6106c9858261064b565b865550610731565b601f1984166106df866104b1565b60005b82811015610707578489015182556001820191506020850194506020810190506106e2565b868310156107245784890151610720601f89168261062d565b8355505b6001600288020188555050505b50505050505056fea26469706673582212204c9ac05554457e72ab20d6cb05b9a48da28a234d98d0bb5f3e70171c401d9aba64736f6c63430008120033",
			"opcodes": "PUSH1 0x80 PUSH1 0x40 MSTORE CALLVALUE DUP1 ISZERO PUSH2 0x10 JUMPI PUSH1 0x0 DUP1 REVERT JUMPDEST POP PUSH2 0x76F DUP1 PUSH2 0x20 PUSH1 0x0 CODECOPY PUSH1 0x0 RETURN INVALID PUSH1 0x80 PUSH1 0x40 MSTORE CALLVALUE DUP1 ISZERO PUSH2 0x10 JUMPI PUSH1 0x0 DUP1 REVERT JUMPDEST POP PUSH1 0x4 CALLDATASIZE LT PUSH2 0x41 JUMPI PUSH1 0x0 CALLDATALOAD PUSH1 0xE0 SHR DUP1 PUSH4 0xAD9D052 EQ PUSH2 0x46 JUMPI DUP1 PUSH4 0xC6DAD082 EQ PUSH2 0x64 JUMPI DUP1 PUSH4 0xCE1F4825 EQ PUSH2 0x82 JUMPI JUMPDEST PUSH1 0x0 DUP1 REVERT JUMPDEST PUSH2 0x4E PUSH2 0x9E JUMP JUMPDEST PUSH1 0x40 MLOAD PUSH2 0x5B SWAP2 SWAP1 PUSH2 0x26E JUMP JUMPDEST PUSH1 0x40 MLOAD DUP1 SWAP2 SUB SWAP1 RETURN JUMPDEST PUSH2 0x6C PUSH2 0x12C JUMP JUMPDEST PUSH1 0x40 MLOAD PUSH2 0x79 SWAP2 SWAP1 PUSH2 0x26E JUMP JUMPDEST PUSH1 0x40 MLOAD DUP1 SWAP2 SUB SWAP1 RETURN JUMPDEST PUSH2 0x9C PUSH1 0x4 DUP1 CALLDATASIZE SUB DUP2 ADD SWAP1 PUSH2 0x97 SWAP2 SWAP1 PUSH2 0x3D9 JUMP JUMPDEST PUSH2 0x1BA JUMP JUMPDEST STOP JUMPDEST PUSH1 0x1 DUP1 SLOAD PUSH2 0xAB SWAP1 PUSH2 0x480 JUMP JUMPDEST DUP1 PUSH1 0x1F ADD PUSH1 0x20 DUP1 SWAP2 DIV MUL PUSH1 0x20 ADD PUSH1 0x40 MLOAD SWAP1 DUP2 ADD PUSH1 0x40 MSTORE DUP1 SWAP3 SWAP2 SWAP1 DUP2 DUP2 MSTORE PUSH1 0x20 ADD DUP3 DUP1 SLOAD PUSH2 0xD7 SWAP1 PUSH2 0x480 JUMP JUMPDEST DUP1 ISZERO PUSH2 0x124 JUMPI DUP1 PUSH1 0x1F LT PUSH2 0xF9 JUMPI PUSH2 0x100 DUP1 DUP4 SLOAD DIV MUL DUP4 MSTORE SWAP2 PUSH1 0x20 ADD SWAP2 PUSH2 0x124 JUMP JUMPDEST DUP3 ADD SWAP2 SWAP1 PUSH1 0x0 MSTORE PUSH1 0x20 PUSH1 0x0 KECCAK256 SWAP1 JUMPDEST DUP2 SLOAD DUP2 MSTORE SWAP1 PUSH1 0x1 ADD SWAP1 PUSH1 0x20 ADD DUP1 DUP4 GT PUSH2 0x107 JUMPI DUP3 SWAP1 SUB PUSH1 0x1F AND DUP3 ADD SWAP2 JUMPDEST POP POP POP POP POP DUP2 JUMP JUMPDEST PUSH1 0x0 DUP1 SLOAD PUSH2 0x139 SWAP1 PUSH2 0x480 JUMP JUMPDEST DUP1 PUSH1 0x1F ADD PUSH1 0x20 DUP1 SWAP2 DIV MUL PUSH1 0x20 ADD PUSH1 0x40 MLOAD SWAP1 DUP2 ADD PUSH1 0x40 MSTORE DUP1 SWAP3 SWAP2 SWAP1 DUP2 DUP2 MSTORE PUSH1 0x20 ADD DUP3 DUP1 SLOAD PUSH2 0x165 SWAP1 PUSH2 0x480 JUMP JUMPDEST DUP1 ISZERO PUSH2 0x1B2 JUMPI DUP1 PUSH1 0x1F LT PUSH2 0x187 JUMPI PUSH2 0x100 DUP1 DUP4 SLOAD DIV MUL DUP4 MSTORE SWAP2 PUSH1 0x20 ADD SWAP2 PUSH2 0x1B2 JUMP JUMPDEST DUP3 ADD SWAP2 SWAP1 PUSH1 0x0 MSTORE PUSH1 0x20 PUSH1 0x0 KECCAK256 SWAP1 JUMPDEST DUP2 SLOAD DUP2 MSTORE SWAP1 PUSH1 0x1 ADD SWAP1 PUSH1 0x20 ADD DUP1 DUP4 GT PUSH2 0x195 JUMPI DUP3 SWAP1 SUB PUSH1 0x1F AND DUP3 ADD SWAP2 JUMPDEST POP POP POP POP POP DUP2 JUMP JUMPDEST DUP2 PUSH1 0x0 SWAP1 DUP2 PUSH2 0x1C9 SWAP2 SWAP1 PUSH2 0x667 JUMP JUMPDEST POP DUP1 PUSH1 0x1 SWAP1 DUP2 PUSH2 0x1D9 SWAP2 SWAP1 PUSH2 0x667 JUMP JUMPDEST POP POP POP JUMP JUMPDEST PUSH1 0x0 DUP2 MLOAD SWAP1 POP SWAP2 SWAP1 POP JUMP JUMPDEST PUSH1 0x0 DUP3 DUP3 MSTORE PUSH1 0x20 DUP3 ADD SWAP1 POP SWAP3 SWAP2 POP POP JUMP JUMPDEST PUSH1 0x0 JUMPDEST DUP4 DUP2 LT ISZERO PUSH2 0x218 JUMPI DUP1 DUP3 ADD MLOAD DUP2 DUP5 ADD MSTORE PUSH1 0x20 DUP2 ADD SWAP1 POP PUSH2 0x1FD JUMP JUMPDEST PUSH1 0x0 DUP5 DUP5 ADD MSTORE POP POP POP POP JUMP JUMPDEST PUSH1 0x0 PUSH1 0x1F NOT PUSH1 0x1F DUP4 ADD AND SWAP1 POP SWAP2 SWAP1 POP JUMP JUMPDEST PUSH1 0x0 PUSH2 0x240 DUP3 PUSH2 0x1DE JUMP JUMPDEST PUSH2 0x24A DUP2 DUP6 PUSH2 0x1E9 JUMP JUMPDEST SWAP4 POP PUSH2 0x25A DUP2 DUP6 PUSH1 0x20 DUP7 ADD PUSH2 0x1FA JUMP JUMPDEST PUSH2 0x263 DUP2 PUSH2 0x224 JUMP JUMPDEST DUP5 ADD SWAP2 POP POP SWAP3 SWAP2 POP POP JUMP JUMPDEST PUSH1 0x0 PUSH1 0x20 DUP3 ADD SWAP1 POP DUP2 DUP2 SUB PUSH1 0x0 DUP4 ADD MSTORE PUSH2 0x288 DUP2 DUP5 PUSH2 0x235 JUMP JUMPDEST SWAP1 POP SWAP3 SWAP2 POP POP JUMP JUMPDEST PUSH1 0x0 PUSH1 0x40 MLOAD SWAP1 POP SWAP1 JUMP JUMPDEST PUSH1 0x0 DUP1 REVERT JUMPDEST PUSH1 0x0 DUP1 REVERT JUMPDEST PUSH1 0x0 DUP1 REVERT JUMPDEST PUSH1 0x0 DUP1 REVERT JUMPDEST PUSH32 0x4E487B7100000000000000000000000000000000000000000000000000000000 PUSH1 0x0 MSTORE PUSH1 0x41 PUSH1 0x4 MSTORE PUSH1 0x24 PUSH1 0x0 REVERT JUMPDEST PUSH2 0x2E6 DUP3 PUSH2 0x224 JUMP JUMPDEST DUP2 ADD DUP2 DUP2 LT PUSH8 0xFFFFFFFFFFFFFFFF DUP3 GT OR ISZERO PUSH2 0x305 JUMPI PUSH2 0x304 PUSH2 0x2AE JUMP JUMPDEST JUMPDEST DUP1 PUSH1 0x40 MSTORE POP POP POP JUMP JUMPDEST PUSH1 0x0 PUSH2 0x318 PUSH2 0x290 JUMP JUMPDEST SWAP1 POP PUSH2 0x324 DUP3 DUP3 PUSH2 0x2DD JUMP JUMPDEST SWAP2 SWAP1 POP JUMP JUMPDEST PUSH1 0x0 PUSH8 0xFFFFFFFFFFFFFFFF DUP3 GT ISZERO PUSH2 0x344 JUMPI PUSH2 0x343 PUSH2 0x2AE JUMP JUMPDEST JUMPDEST PUSH2 0x34D DUP3 PUSH2 0x224 JUMP JUMPDEST SWAP1 POP PUSH1 0x20 DUP2 ADD SWAP1 POP SWAP2 SWAP1 POP JUMP JUMPDEST DUP3 DUP2 DUP4 CALLDATACOPY PUSH1 0x0 DUP4 DUP4 ADD MSTORE POP POP POP JUMP JUMPDEST PUSH1 0x0 PUSH2 0x37C PUSH2 0x377 DUP5 PUSH2 0x329 JUMP JUMPDEST PUSH2 0x30E JUMP JUMPDEST SWAP1 POP DUP3 DUP2 MSTORE PUSH1 0x20 DUP2 ADD DUP5 DUP5 DUP5 ADD GT ISZERO PUSH2 0x398 JUMPI PUSH2 0x397 PUSH2 0x2A9 JUMP JUMPDEST JUMPDEST PUSH2 0x3A3 DUP5 DUP3 DUP6 PUSH2 0x35A JUMP JUMPDEST POP SWAP4 SWAP3 POP POP POP JUMP JUMPDEST PUSH1 0x0 DUP3 PUSH1 0x1F DUP4 ADD SLT PUSH2 0x3C0 JUMPI PUSH2 0x3BF PUSH2 0x2A4 JUMP JUMPDEST JUMPDEST DUP2 CALLDATALOAD PUSH2 0x3D0 DUP5 DUP3 PUSH1 0x20 DUP7 ADD PUSH2 0x369 JUMP JUMPDEST SWAP2 POP POP SWAP3 SWAP2 POP POP JUMP JUMPDEST PUSH1 0x0 DUP1 PUSH1 0x40 DUP4 DUP6 SUB SLT ISZERO PUSH2 0x3F0 JUMPI PUSH2 0x3EF PUSH2 0x29A JUMP JUMPDEST JUMPDEST PUSH1 0x0 DUP4 ADD CALLDATALOAD PUSH8 0xFFFFFFFFFFFFFFFF DUP2 GT ISZERO PUSH2 0x40E JUMPI PUSH2 0x40D PUSH2 0x29F JUMP JUMPDEST JUMPDEST PUSH2 0x41A DUP6 DUP3 DUP7 ADD PUSH2 0x3AB JUMP JUMPDEST SWAP3 POP POP PUSH1 0x20 DUP4 ADD CALLDATALOAD PUSH8 0xFFFFFFFFFFFFFFFF DUP2 GT ISZERO PUSH2 0x43B JUMPI PUSH2 0x43A PUSH2 0x29F JUMP JUMPDEST JUMPDEST PUSH2 0x447 DUP6 DUP3 DUP7 ADD PUSH2 0x3AB JUMP JUMPDEST SWAP2 POP POP SWAP3 POP SWAP3 SWAP1 POP JUMP JUMPDEST PUSH32 0x4E487B7100000000000000000000000000000000000000000000000000000000 PUSH1 0x0 MSTORE PUSH1 0x22 PUSH1 0x4 MSTORE PUSH1 0x24 PUSH1 0x0 REVERT JUMPDEST PUSH1 0x0 PUSH1 0x2 DUP3 DIV SWAP1 POP PUSH1 0x1 DUP3 AND DUP1 PUSH2 0x498 JUMPI PUSH1 0x7F DUP3 AND SWAP2 POP JUMPDEST PUSH1 0x20 DUP3 LT DUP2 SUB PUSH2 0x4AB JUMPI PUSH2 0x4AA PUSH2 0x451 JUMP JUMPDEST JUMPDEST POP SWAP2 SWAP1 POP JUMP JUMPDEST PUSH1 0x0 DUP2 SWAP1 POP DUP2 PUSH1 0x0 MSTORE PUSH1 0x20 PUSH1 0x0 KECCAK256 SWAP1 POP SWAP2 SWAP1 POP JUMP JUMPDEST PUSH1 0x0 PUSH1 0x20 PUSH1 0x1F DUP4 ADD DIV SWAP1 POP SWAP2 SWAP1 POP JUMP JUMPDEST PUSH1 0x0 DUP3 DUP3 SHL SWAP1 POP SWAP3 SWAP2 POP POP JUMP JUMPDEST PUSH1 0x0 PUSH1 0x8 DUP4 MUL PUSH2 0x513 PUSH32 0xFFFFFFFFFFFFFFFFFFFFFFFFFFFFFFFFFFFFFFFFFFFFFFFFFFFFFFFFFFFFFFFF DUP3 PUSH2 0x4D6 JUMP JUMPDEST PUSH2 0x51D DUP7 DUP4 PUSH2 0x4D6 JUMP JUMPDEST SWAP6 POP DUP1 NOT DUP5 AND SWAP4 POP DUP1 DUP7 AND DUP5 OR SWAP3 POP POP POP SWAP4 SWAP3 POP POP POP JUMP JUMPDEST PUSH1 0x0 DUP2 SWAP1 POP SWAP2 SWAP1 POP JUMP JUMPDEST PUSH1 0x0 DUP2 SWAP1 POP SWAP2 SWAP1 POP JUMP JUMPDEST PUSH1 0x0 PUSH2 0x564 PUSH2 0x55F PUSH2 0x55A DUP5 PUSH2 0x535 JUMP JUMPDEST PUSH2 0x53F JUMP JUMPDEST PUSH2 0x535 JUMP JUMPDEST SWAP1 POP SWAP2 SWAP1 POP JUMP JUMPDEST PUSH1 0x0 DUP2 SWAP1 POP SWAP2 SWAP1 POP JUMP JUMPDEST PUSH2 0x57E DUP4 PUSH2 0x549 JUMP JUMPDEST PUSH2 0x592 PUSH2 0x58A DUP3 PUSH2 0x56B JUMP JUMPDEST DUP5 DUP5 SLOAD PUSH2 0x4E3 JUMP JUMPDEST DUP3 SSTORE POP POP POP POP JUMP JUMPDEST PUSH1 0x0 SWAP1 JUMP JUMPDEST PUSH2 0x5A7 PUSH2 0x59A JUMP JUMPDEST PUSH2 0x5B2 DUP2 DUP5 DUP5 PUSH2 0x575 JUMP JUMPDEST POP POP POP JUMP JUMPDEST JUMPDEST DUP2 DUP2 LT ISZERO PUSH2 0x5D6 JUMPI PUSH2 0x5CB PUSH1 0x0 DUP3 PUSH2 0x59F JUMP JUMPDEST PUSH1 0x1 DUP2 ADD SWAP1 POP PUSH2 0x5B8 JUMP JUMPDEST POP POP JUMP JUMPDEST PUSH1 0x1F DUP3 GT ISZERO PUSH2 0x61B JUMPI PUSH2 0x5EC DUP2 PUSH2 0x4B1 JUMP JUMPDEST PUSH2 0x5F5 DUP5 PUSH2 0x4C6 JUMP JUMPDEST DUP2 ADD PUSH1 0x20 DUP6 LT ISZERO PUSH2 0x604 JUMPI DUP2 SWAP1 POP JUMPDEST PUSH2 0x618 PUSH2 0x610 DUP6 PUSH2 0x4C6 JUMP JUMPDEST DUP4 ADD DUP3 PUSH2 0x5B7 JUMP JUMPDEST POP POP JUMPDEST POP POP POP JUMP JUMPDEST PUSH1 0x0 DUP3 DUP3 SHR SWAP1 POP SWAP3 SWAP2 POP POP JUMP JUMPDEST PUSH1 0x0 PUSH2 0x63E PUSH1 0x0 NOT DUP5 PUSH1 0x8 MUL PUSH2 0x620 JUMP JUMPDEST NOT DUP1 DUP4 AND SWAP2 POP POP SWAP3 SWAP2 POP POP JUMP JUMPDEST PUSH1 0x0 PUSH2 0x657 DUP4 DUP4 PUSH2 0x62D JUMP JUMPDEST SWAP2 POP DUP3 PUSH1 0x2 MUL DUP3 OR SWAP1 POP SWAP3 SWAP2 POP POP JUMP JUMPDEST PUSH2 0x670 DUP3 PUSH2 0x1DE JUMP JUMPDEST PUSH8 0xFFFFFFFFFFFFFFFF DUP2 GT ISZERO PUSH2 0x689 JUMPI PUSH2 0x688 PUSH2 0x2AE JUMP JUMPDEST JUMPDEST PUSH2 0x693 DUP3 SLOAD PUSH2 0x480 JUMP JUMPDEST PUSH2 0x69E DUP3 DUP3 DUP6 PUSH2 0x5DA JUMP JUMPDEST PUSH1 0x0 PUSH1 0x20 SWAP1 POP PUSH1 0x1F DUP4 GT PUSH1 0x1 DUP2 EQ PUSH2 0x6D1 JUMPI PUSH1 0x0 DUP5 ISZERO PUSH2 0x6BF JUMPI DUP3 DUP8 ADD MLOAD SWAP1 POP JUMPDEST PUSH2 0x6C9 DUP6 DUP3 PUSH2 0x64B JUMP JUMPDEST DUP7 SSTORE POP PUSH2 0x731 JUMP JUMPDEST PUSH1 0x1F NOT DUP5 AND PUSH2 0x6DF DUP7 PUSH2 0x4B1 JUMP JUMPDEST PUSH1 0x0 JUMPDEST DUP3 DUP2 LT ISZERO PUSH2 0x707 JUMPI DUP5 DUP10 ADD MLOAD DUP3 SSTORE PUSH1 0x1 DUP3 ADD SWAP2 POP PUSH1 0x20 DUP6 ADD SWAP5 POP PUSH1 0x20 DUP2 ADD SWAP1 POP PUSH2 0x6E2 JUMP JUMPDEST DUP7 DUP4 LT ISZERO PUSH2 0x724 JUMPI DUP5 DUP10 ADD MLOAD PUSH2 0x720 PUSH1 0x1F DUP10 AND DUP3 PUSH2 0x62D JUMP JUMPDEST DUP4 SSTORE POP JUMPDEST PUSH1 0x1 PUSH1 0x2 DUP9 MUL ADD DUP9 SSTORE POP POP POP JUMPDEST POP POP POP POP POP POP JUMP INVALID LOG2 PUSH5 0x6970667358 0x22 SLT KECCAK256 0x4C SWAP11 0xC0 SSTORE SLOAD GASLIMIT PUSH31 0x72AB20D6CB05B9A48DA28A234D98D0BB5F3E70171C401D9ABA64736F6C6343 STOP ADDMOD SLT STOP CALLER "
		},
		"gasEstimates": {
			"creation": {
				"codeDepositCost": "380600",
				"executionCost": "418",
				"totalCost": "381018"
			},
			"external": {
				"make()": "infinite",
				"model()": "infinite",
				"vehicle(string,string)": "infinite"
			}
		},
		"methodIdentifiers": {
			"make()": "c6dad082",
			"model()": "0ad9d052",
			"vehicle(string,string)": "ce1f4825"
		}
	},
	"abi": [
		{
			"inputs": [],
			"name": "make",
			"outputs": [
				{
					"internalType": "string",
					"name": "",
					"type": "string"
				}
			],
			"stateMutability": "view",
			"type": "function"
		},
		{
			"inputs": [],
			"name": "model",
			"outputs": [
				{
					"internalType": "string",
					"name": "",
					"type": "string"
				}
			],
			"stateMutability": "view",
			"type": "function"
		},
		{
			"inputs": [
				{
					"internalType": "string",
					"name": "_make",
					"type": "string"
				},
				{
					"internalType": "string",
					"name": "_model",
					"type": "string"
				}
			],
			"name": "vehicle",
			"outputs": [],
			"stateMutability": "nonpayable",
			"type": "function"
		}
	]
}