{
	"data": {
		"bytecode": {
			"linkReferences": {},
			"object": "608060405234801561001057600080fd5b50610346806100206000396000f3fe608060405234801561001057600080fd5b50600436106100415760003560e01c80630c55699c146100465780634018d9aa146100645780637421934314610080575b600080fd5b61004e61009e565b60405161005b91906100dd565b60405180910390f35b61007e60048036038101906100799190610129565b6100a4565b005b6100886100ae565b60405161009591906100dd565b60405180910390f35b60005481565b8060008190555050565b600060036000546100bf91906102c5565b905090565b6000819050919050565b6100d7816100c4565b82525050565b60006020820190506100f260008301846100ce565b92915050565b600080fd5b610106816100c4565b811461011157600080fd5b50565b600081359050610123816100fd565b92915050565b60006020828403121561013f5761013e6100f8565b5b600061014d84828501610114565b91505092915050565b7f4e487b7100000000000000000000000000000000000000000000000000000000600052601160045260246000fd5b60008160011c9050919050565b6000808291508390505b60018511156101dc578086048111156101b8576101b7610156565b5b60018516156101c75780820291505b80810290506101d585610185565b945061019c565b94509492505050565b6000826101f557600190506102b1565b8161020357600090506102b1565b8160018114610219576002811461022357610252565b60019150506102b1565b60ff84111561023557610234610156565b5b8360020a91508482111561024c5761024b610156565b5b506102b1565b5060208310610133831016604e8410600b84101617156102875782820a90508381111561028257610281610156565b5b6102b1565b6102948484846001610192565b925090508184048111156102ab576102aa610156565b5b81810290505b9392505050565b600060ff82169050919050565b60006102d0826100c4565b91506102db836102b8565b92506103087fffffffffffffffffffffffffffffffffffffffffffffffffffffffffffffffff84846101e5565b90509291505056fea264697066735822122025e73d3ffa8f4b871c1032da3bc6ddd4b2f67b00ff26331613b6304f344239e964736f6c63430008120033",
			"opcodes": "PUSH1 0x80 PUSH1 0x40 MSTORE CALLVALUE DUP1 ISZERO PUSH2 0x10 JUMPI PUSH1 0x0 DUP1 REVERT JUMPDEST POP PUSH2 0x346 DUP1 PUSH2 0x20 PUSH1 0x0 CODECOPY PUSH1 0x0 RETURN INVALID PUSH1 0x80 PUSH1 0x40 MSTORE CALLVALUE DUP1 ISZERO PUSH2 0x10 JUMPI PUSH1 0x0 DUP1 REVERT JUMPDEST POP PUSH1 0x4 CALLDATASIZE LT PUSH2 0x41 JUMPI PUSH1 0x0 CALLDATALOAD PUSH1 0xE0 SHR DUP1 PUSH4 0xC55699C EQ PUSH2 0x46 JUMPI DUP1 PUSH4 0x4018D9AA EQ PUSH2 0x64 JUMPI DUP1 PUSH4 0x74219343 EQ PUSH2 0x80 JUMPI JUMPDEST PUSH1 0x0 DUP1 REVERT JUMPDEST PUSH2 0x4E PUSH2 0x9E JUMP JUMPDEST PUSH1 0x40 MLOAD PUSH2 0x5B SWAP2 SWAP1 PUSH2 0xDD JUMP JUMPDEST PUSH1 0x40 MLOAD DUP1 SWAP2 SUB SWAP1 RETURN JUMPDEST PUSH2 0x7E PUSH1 0x4 DUP1 CALLDATASIZE SUB DUP2 ADD SWAP1 PUSH2 0x79 SWAP2 SWAP1 PUSH2 0x129 JUMP JUMPDEST PUSH2 0xA4 JUMP JUMPDEST STOP JUMPDEST PUSH2 0x88 PUSH2 0xAE JUMP JUMPDEST PUSH1 0x40 MLOAD PUSH2 0x95 SWAP2 SWAP1 PUSH2 0xDD JUMP JUMPDEST PUSH1 0x40 MLOAD DUP1 SWAP2 SUB SWAP1 RETURN JUMPDEST PUSH1 0x0 SLOAD DUP2 JUMP JUMPDEST DUP1 PUSH1 0x0 DUP2 SWAP1 SSTORE POP POP JUMP JUMPDEST PUSH1 0x0 PUSH1 0x3 PUSH1 0x0 SLOAD PUSH2 0xBF SWAP2 SWAP1 PUSH2 0x2C5 JUMP JUMPDEST SWAP1 POP SWAP1 JUMP JUMPDEST PUSH1 0x0 DUP2 SWAP1 POP SWAP2 SWAP1 POP JUMP JUMPDEST PUSH2 0xD7 DUP2 PUSH2 0xC4 JUMP JUMPDEST DUP3 MSTORE POP POP JUMP JUMPDEST PUSH1 0x0 PUSH1 0x20 DUP3 ADD SWAP1 POP PUSH2 0xF2 PUSH1 0x0 DUP4 ADD DUP5 PUSH2 0xCE JUMP JUMPDEST SWAP3 SWAP2 POP POP JUMP JUMPDEST PUSH1 0x0 DUP1 REVERT JUMPDEST PUSH2 0x106 DUP2 PUSH2 0xC4 JUMP JUMPDEST DUP2 EQ PUSH2 0x111 JUMPI PUSH1 0x0 DUP1 REVERT JUMPDEST POP JUMP JUMPDEST PUSH1 0x0 DUP2 CALLDATALOAD SWAP1 POP PUSH2 0x123 DUP2 PUSH2 0xFD JUMP JUMPDEST SWAP3 SWAP2 POP POP JUMP JUMPDEST PUSH1 0x0 PUSH1 0x20 DUP3 DUP5 SUB SLT ISZERO PUSH2 0x13F JUMPI PUSH2 0x13E PUSH2 0xF8 JUMP JUMPDEST JUMPDEST PUSH1 0x0 PUSH2 0x14D DUP5 DUP3 DUP6 ADD PUSH2 0x114 JUMP JUMPDEST SWAP2 POP POP SWAP3 SWAP2 POP POP JUMP JUMPDEST PUSH32 0x4E487B7100000000000000000000000000000000000000000000000000000000 PUSH1 0x0 MSTORE PUSH1 0x11 PUSH1 0x4 MSTORE PUSH1 0x24 PUSH1 0x0 REVERT JUMPDEST PUSH1 0x0 DUP2 PUSH1 0x1 SHR SWAP1 POP SWAP2 SWAP1 POP JUMP JUMPDEST PUSH1 0x0 DUP1 DUP3 SWAP2 POP DUP4 SWAP1 POP JUMPDEST PUSH1 0x1 DUP6 GT ISZERO PUSH2 0x1DC JUMPI DUP1 DUP7 DIV DUP2 GT ISZERO PUSH2 0x1B8 JUMPI PUSH2 0x1B7 PUSH2 0x156 JUMP JUMPDEST JUMPDEST PUSH1 0x1 DUP6 AND ISZERO PUSH2 0x1C7 JUMPI DUP1 DUP3 MUL SWAP2 POP JUMPDEST DUP1 DUP2 MUL SWAP1 POP PUSH2 0x1D5 DUP6 PUSH2 0x185 JUMP JUMPDEST SWAP5 POP PUSH2 0x19C JUMP JUMPDEST SWAP5 POP SWAP5 SWAP3 POP POP POP JUMP JUMPDEST PUSH1 0x0 DUP3 PUSH2 0x1F5 JUMPI PUSH1 0x1 SWAP1 POP PUSH2 0x2B1 JUMP JUMPDEST DUP2 PUSH2 0x203 JUMPI PUSH1 0x0 SWAP1 POP PUSH2 0x2B1 JUMP JUMPDEST DUP2 PUSH1 0x1 DUP2 EQ PUSH2 0x219 JUMPI PUSH1 0x2 DUP2 EQ PUSH2 0x223 JUMPI PUSH2 0x252 JUMP JUMPDEST PUSH1 0x1 SWAP2 POP POP PUSH2 0x2B1 JUMP JUMPDEST PUSH1 0xFF DUP5 GT ISZERO PUSH2 0x235 JUMPI PUSH2 0x234 PUSH2 0x156 JUMP JUMPDEST JUMPDEST DUP4 PUSH1 0x2 EXP SWAP2 POP DUP5 DUP3 GT ISZERO PUSH2 0x24C JUMPI PUSH2 0x24B PUSH2 0x156 JUMP JUMPDEST JUMPDEST POP PUSH2 0x2B1 JUMP JUMPDEST POP PUSH1 0x20 DUP4 LT PUSH2 0x133 DUP4 LT AND PUSH1 0x4E DUP5 LT PUSH1 0xB DUP5 LT AND OR ISZERO PUSH2 0x287 JUMPI DUP3 DUP3 EXP SWAP1 POP DUP4 DUP2 GT ISZERO PUSH2 0x282 JUMPI PUSH2 0x281 PUSH2 0x156 JUMP JUMPDEST JUMPDEST PUSH2 0x2B1 JUMP JUMPDEST PUSH2 0x294 DUP5 DUP5 DUP5 PUSH1 0x1 PUSH2 0x192 JUMP JUMPDEST SWAP3 POP SWAP1 POP DUP2 DUP5 DIV DUP2 GT ISZERO PUSH2 0x2AB JUMPI PUSH2 0x2AA PUSH2 0x156 JUMP JUMPDEST JUMPDEST DUP2 DUP2 MUL SWAP1 POP JUMPDEST SWAP4 SWAP3 POP POP POP JUMP JUMPDEST PUSH1 0x0 PUSH1 0xFF DUP3 AND SWAP1 POP SWAP2 SWAP1 POP JUMP JUMPDEST PUSH1 0x0 PUSH2 0x2D0 DUP3 PUSH2 0xC4 JUMP JUMPDEST SWAP2 POP PUSH2 0x2DB DUP4 PUSH2 0x2B8 JUMP JUMPDEST SWAP3 POP PUSH2 0x308 PUSH32 0xFFFFFFFFFFFFFFFFFFFFFFFFFFFFFFFFFFFFFFFFFFFFFFFFFFFFFFFFFFFFFFFF DUP5 DUP5 PUSH2 0x1E5 JUMP JUMPDEST SWAP1 POP SWAP3 SWAP2 POP POP JUMP INVALID LOG2 PUSH5 0x6970667358 0x22 SLT KECCAK256 0x25 0xE7 RETURNDATASIZE EXTCODEHASH STATICCALL DUP16 0x4B DUP8 SHR LT ORIGIN 0xDA EXTCODESIZE 0xC6 0xDD 0xD4 0xB2 0xF6 PUSH28 0xFF26331613B6304F344239E964736F6C6343000812003300000000 "
		},
		"gasEstimates": {
			"creation": {
				"codeDepositCost": "167600",
				"executionCost": "214",
				"totalCost": "167814"
			},
			"external": {
				"cubeX()": "infinite",
				"setX(uint256)": "22520",
				"x()": "2407"
			}
		},
		"methodIdentifiers": {
			"cubeX()": "74219343",
			"setX(uint256)": "4018d9aa",
			"x()": "0c55699c"
		}
	},
	"abi": [
		{
			"inputs": [],
			"name": "cubeX",
			"outputs": [
				{
					"internalType": "uint256",
					"name": "",
					"type": "uint256"
				}
			],
			"stateMutability": "view",
			"type": "function"
		},
		{
			"inputs": [
				{
					"internalType": "uint256",
					"name": "_x",
					"type": "uint256"
				}
			],
			"name": "setX",
			"outputs": [],
			"stateMutability": "nonpayable",
			"type": "function"
		},
		{
			"inputs": [],
			"name": "x",
			"outputs": [
				{
					"internalType": "uint256",
					"name": "",
					"type": "uint256"
				}
			],
			"stateMutability": "view",
			"type": "function"
		}
	]
}