{
	"data": {
		"bytecode": {
			"linkReferences": {},
			"object": "608060405234801561001057600080fd5b5061068e806100206000396000f3fe608060405234801561001057600080fd5b50600436106100365760003560e01c80630a75d8111461003b5780633b7fa2651461006d575b600080fd5b61005560048036038101906100509190610253565b61009d565b60405161006493929190610334565b60405180910390f35b61008760048036038101906100829190610446565b6100ca565b6040516100949190610526565b60405180910390f35b606060006060838060200190518101906100b791906105cd565b8093508194508295505050509193909250565b60608383836040516020016100e193929190610334565b60405160208183030381529060405290509392505050565b6000604051905090565b600080fd5b600080fd5b600080fd5b600080fd5b6000601f19601f8301169050919050565b7f4e487b7100000000000000000000000000000000000000000000000000000000600052604160045260246000fd5b61016082610117565b810181811067ffffffffffffffff8211171561017f5761017e610128565b5b80604052505050565b60006101926100f9565b905061019e8282610157565b919050565b600067ffffffffffffffff8211156101be576101bd610128565b5b6101c782610117565b9050602081019050919050565b82818337600083830152505050565b60006101f66101f1846101a3565b610188565b90508281526020810184848401111561021257610211610112565b5b61021d8482856101d4565b509392505050565b600082601f83011261023a5761023961010d565b5b813561024a8482602086016101e3565b91505092915050565b60006020828403121561026957610268610103565b5b600082013567ffffffffffffffff81111561028757610286610108565b5b61029384828501610225565b91505092915050565b600081519050919050565b600082825260208201905092915050565b60005b838110156102d65780820151818401526020810190506102bb565b60008484015250505050565b60006102ed8261029c565b6102f781856102a7565b93506103078185602086016102b8565b61031081610117565b840191505092915050565b6000819050919050565b61032e8161031b565b82525050565b6000606082019050818103600083015261034e81866102e2565b905061035d6020830185610325565b818103604083015261036f81846102e2565b9050949350505050565b600067ffffffffffffffff82111561039457610393610128565b5b61039d82610117565b9050602081019050919050565b60006103bd6103b884610379565b610188565b9050828152602081018484840111156103d9576103d8610112565b5b6103e48482856101d4565b509392505050565b600082601f8301126104015761040061010d565b5b81356104118482602086016103aa565b91505092915050565b6104238161031b565b811461042e57600080fd5b50565b6000813590506104408161041a565b92915050565b60008060006060848603121561045f5761045e610103565b5b600084013567ffffffffffffffff81111561047d5761047c610108565b5b610489868287016103ec565b935050602061049a86828701610431565b925050604084013567ffffffffffffffff8111156104bb576104ba610108565b5b6104c7868287016103ec565b9150509250925092565b600081519050919050565b600082825260208201905092915050565b60006104f8826104d1565b61050281856104dc565b93506105128185602086016102b8565b61051b81610117565b840191505092915050565b6000602082019050818103600083015261054081846104ed565b905092915050565b600061055b61055684610379565b610188565b90508281526020810184848401111561057757610576610112565b5b6105828482856102b8565b509392505050565b600082601f83011261059f5761059e61010d565b5b81516105af848260208601610548565b91505092915050565b6000815190506105c78161041a565b92915050565b6000806000606084860312156105e6576105e5610103565b5b600084015167ffffffffffffffff81111561060457610603610108565b5b6106108682870161058a565b9350506020610621868287016105b8565b925050604084015167ffffffffffffffff81111561064257610641610108565b5b61064e8682870161058a565b915050925092509256fea264697066735822122082b95496f495971cafa50c93d8b1a2e669472bcd066271cee8f6185d0430ad7f64736f6c63430008120033",
			"opcodes": "PUSH1 0x80 PUSH1 0x40 MSTORE CALLVALUE DUP1 ISZERO PUSH2 0x10 JUMPI PUSH1 0x0 DUP1 REVERT JUMPDEST POP PUSH2 0x68E DUP1 PUSH2 0x20 PUSH1 0x0 CODECOPY PUSH1 0x0 RETURN INVALID PUSH1 0x80 PUSH1 0x40 MSTORE CALLVALUE DUP1 ISZERO PUSH2 0x10 JUMPI PUSH1 0x0 DUP1 REVERT JUMPDEST POP PUSH1 0x4 CALLDATASIZE LT PUSH2 0x36 JUMPI PUSH1 0x0 CALLDATALOAD PUSH1 0xE0 SHR DUP1 PUSH4 0xA75D811 EQ PUSH2 0x3B JUMPI DUP1 PUSH4 0x3B7FA265 EQ PUSH2 0x6D JUMPI JUMPDEST PUSH1 0x0 DUP1 REVERT JUMPDEST PUSH2 0x55 PUSH1 0x4 DUP1 CALLDATASIZE SUB DUP2 ADD SWAP1 PUSH2 0x50 SWAP2 SWAP1 PUSH2 0x253 JUMP JUMPDEST PUSH2 0x9D JUMP JUMPDEST PUSH1 0x40 MLOAD PUSH2 0x64 SWAP4 SWAP3 SWAP2 SWAP1 PUSH2 0x334 JUMP JUMPDEST PUSH1 0x40 MLOAD DUP1 SWAP2 SUB SWAP1 RETURN JUMPDEST PUSH2 0x87 PUSH1 0x4 DUP1 CALLDATASIZE SUB DUP2 ADD SWAP1 PUSH2 0x82 SWAP2 SWAP1 PUSH2 0x446 JUMP JUMPDEST PUSH2 0xCA JUMP JUMPDEST PUSH1 0x40 MLOAD PUSH2 0x94 SWAP2 SWAP1 PUSH2 0x526 JUMP JUMPDEST PUSH1 0x40 MLOAD DUP1 SWAP2 SUB SWAP1 RETURN JUMPDEST PUSH1 0x60 PUSH1 0x0 PUSH1 0x60 DUP4 DUP1 PUSH1 0x20 ADD SWAP1 MLOAD DUP2 ADD SWAP1 PUSH2 0xB7 SWAP2 SWAP1 PUSH2 0x5CD JUMP JUMPDEST DUP1 SWAP4 POP DUP2 SWAP5 POP DUP3 SWAP6 POP POP POP POP SWAP2 SWAP4 SWAP1 SWAP3 POP JUMP JUMPDEST PUSH1 0x60 DUP4 DUP4 DUP4 PUSH1 0x40 MLOAD PUSH1 0x20 ADD PUSH2 0xE1 SWAP4 SWAP3 SWAP2 SWAP1 PUSH2 0x334 JUMP JUMPDEST PUSH1 0x40 MLOAD PUSH1 0x20 DUP2 DUP4 SUB SUB DUP2 MSTORE SWAP1 PUSH1 0x40 MSTORE SWAP1 POP SWAP4 SWAP3 POP POP POP JUMP JUMPDEST PUSH1 0x0 PUSH1 0x40 MLOAD SWAP1 POP SWAP1 JUMP JUMPDEST PUSH1 0x0 DUP1 REVERT JUMPDEST PUSH1 0x0 DUP1 REVERT JUMPDEST PUSH1 0x0 DUP1 REVERT JUMPDEST PUSH1 0x0 DUP1 REVERT JUMPDEST PUSH1 0x0 PUSH1 0x1F NOT PUSH1 0x1F DUP4 ADD AND SWAP1 POP SWAP2 SWAP1 POP JUMP JUMPDEST PUSH32 0x4E487B7100000000000000000000000000000000000000000000000000000000 PUSH1 0x0 MSTORE PUSH1 0x41 PUSH1 0x4 MSTORE PUSH1 0x24 PUSH1 0x0 REVERT JUMPDEST PUSH2 0x160 DUP3 PUSH2 0x117 JUMP JUMPDEST DUP2 ADD DUP2 DUP2 LT PUSH8 0xFFFFFFFFFFFFFFFF DUP3 GT OR ISZERO PUSH2 0x17F JUMPI PUSH2 0x17E PUSH2 0x128 JUMP JUMPDEST JUMPDEST DUP1 PUSH1 0x40 MSTORE POP POP POP JUMP JUMPDEST PUSH1 0x0 PUSH2 0x192 PUSH2 0xF9 JUMP JUMPDEST SWAP1 POP PUSH2 0x19E DUP3 DUP3 PUSH2 0x157 JUMP JUMPDEST SWAP2 SWAP1 POP JUMP JUMPDEST PUSH1 0x0 PUSH8 0xFFFFFFFFFFFFFFFF DUP3 GT ISZERO PUSH2 0x1BE JUMPI PUSH2 0x1BD PUSH2 0x128 JUMP JUMPDEST JUMPDEST PUSH2 0x1C7 DUP3 PUSH2 0x117 JUMP JUMPDEST SWAP1 POP PUSH1 0x20 DUP2 ADD SWAP1 POP SWAP2 SWAP1 POP JUMP JUMPDEST DUP3 DUP2 DUP4 CALLDATACOPY PUSH1 0x0 DUP4 DUP4 ADD MSTORE POP POP POP JUMP JUMPDEST PUSH1 0x0 PUSH2 0x1F6 PUSH2 0x1F1 DUP5 PUSH2 0x1A3 JUMP JUMPDEST PUSH2 0x188 JUMP JUMPDEST SWAP1 POP DUP3 DUP2 MSTORE PUSH1 0x20 DUP2 ADD DUP5 DUP5 DUP5 ADD GT ISZERO PUSH2 0x212 JUMPI PUSH2 0x211 PUSH2 0x112 JUMP JUMPDEST JUMPDEST PUSH2 0x21D DUP5 DUP3 DUP6 PUSH2 0x1D4 JUMP JUMPDEST POP SWAP4 SWAP3 POP POP POP JUMP JUMPDEST PUSH1 0x0 DUP3 PUSH1 0x1F DUP4 ADD SLT PUSH2 0x23A JUMPI PUSH2 0x239 PUSH2 0x10D JUMP JUMPDEST JUMPDEST DUP2 CALLDATALOAD PUSH2 0x24A DUP5 DUP3 PUSH1 0x20 DUP7 ADD PUSH2 0x1E3 JUMP JUMPDEST SWAP2 POP POP SWAP3 SWAP2 POP POP JUMP JUMPDEST PUSH1 0x0 PUSH1 0x20 DUP3 DUP5 SUB SLT ISZERO PUSH2 0x269 JUMPI PUSH2 0x268 PUSH2 0x103 JUMP JUMPDEST JUMPDEST PUSH1 0x0 DUP3 ADD CALLDATALOAD PUSH8 0xFFFFFFFFFFFFFFFF DUP2 GT ISZERO PUSH2 0x287 JUMPI PUSH2 0x286 PUSH2 0x108 JUMP JUMPDEST JUMPDEST PUSH2 0x293 DUP5 DUP3 DUP6 ADD PUSH2 0x225 JUMP JUMPDEST SWAP2 POP POP SWAP3 SWAP2 POP POP JUMP JUMPDEST PUSH1 0x0 DUP2 MLOAD SWAP1 POP SWAP2 SWAP1 POP JUMP JUMPDEST PUSH1 0x0 DUP3 DUP3 MSTORE PUSH1 0x20 DUP3 ADD SWAP1 POP SWAP3 SWAP2 POP POP JUMP JUMPDEST PUSH1 0x0 JUMPDEST DUP4 DUP2 LT ISZERO PUSH2 0x2D6 JUMPI DUP1 DUP3 ADD MLOAD DUP2 DUP5 ADD MSTORE PUSH1 0x20 DUP2 ADD SWAP1 POP PUSH2 0x2BB JUMP JUMPDEST PUSH1 0x0 DUP5 DUP5 ADD MSTORE POP POP POP POP JUMP JUMPDEST PUSH1 0x0 PUSH2 0x2ED DUP3 PUSH2 0x29C JUMP JUMPDEST PUSH2 0x2F7 DUP2 DUP6 PUSH2 0x2A7 JUMP JUMPDEST SWAP4 POP PUSH2 0x307 DUP2 DUP6 PUSH1 0x20 DUP7 ADD PUSH2 0x2B8 JUMP JUMPDEST PUSH2 0x310 DUP2 PUSH2 0x117 JUMP JUMPDEST DUP5 ADD SWAP2 POP POP SWAP3 SWAP2 POP POP JUMP JUMPDEST PUSH1 0x0 DUP2 SWAP1 POP SWAP2 SWAP1 POP JUMP JUMPDEST PUSH2 0x32E DUP2 PUSH2 0x31B JUMP JUMPDEST DUP3 MSTORE POP POP JUMP JUMPDEST PUSH1 0x0 PUSH1 0x60 DUP3 ADD SWAP1 POP DUP2 DUP2 SUB PUSH1 0x0 DUP4 ADD MSTORE PUSH2 0x34E DUP2 DUP7 PUSH2 0x2E2 JUMP JUMPDEST SWAP1 POP PUSH2 0x35D PUSH1 0x20 DUP4 ADD DUP6 PUSH2 0x325 JUMP JUMPDEST DUP2 DUP2 SUB PUSH1 0x40 DUP4 ADD MSTORE PUSH2 0x36F DUP2 DUP5 PUSH2 0x2E2 JUMP JUMPDEST SWAP1 POP SWAP5 SWAP4 POP POP POP POP JUMP JUMPDEST PUSH1 0x0 PUSH8 0xFFFFFFFFFFFFFFFF DUP3 GT ISZERO PUSH2 0x394 JUMPI PUSH2 0x393 PUSH2 0x128 JUMP JUMPDEST JUMPDEST PUSH2 0x39D DUP3 PUSH2 0x117 JUMP JUMPDEST SWAP1 POP PUSH1 0x20 DUP2 ADD SWAP1 POP SWAP2 SWAP1 POP JUMP JUMPDEST PUSH1 0x0 PUSH2 0x3BD PUSH2 0x3B8 DUP5 PUSH2 0x379 JUMP JUMPDEST PUSH2 0x188 JUMP JUMPDEST SWAP1 POP DUP3 DUP2 MSTORE PUSH1 0x20 DUP2 ADD DUP5 DUP5 DUP5 ADD GT ISZERO PUSH2 0x3D9 JUMPI PUSH2 0x3D8 PUSH2 0x112 JUMP JUMPDEST JUMPDEST PUSH2 0x3E4 DUP5 DUP3 DUP6 PUSH2 0x1D4 JUMP JUMPDEST POP SWAP4 SWAP3 POP POP POP JUMP JUMPDEST PUSH1 0x0 DUP3 PUSH1 0x1F DUP4 ADD SLT PUSH2 0x401 JUMPI PUSH2 0x400 PUSH2 0x10D JUMP JUMPDEST JUMPDEST DUP2 CALLDATALOAD PUSH2 0x411 DUP5 DUP3 PUSH1 0x20 DUP7 ADD PUSH2 0x3AA JUMP JUMPDEST SWAP2 POP POP SWAP3 SWAP2 POP POP JUMP JUMPDEST PUSH2 0x423 DUP2 PUSH2 0x31B JUMP JUMPDEST DUP2 EQ PUSH2 0x42E JUMPI PUSH1 0x0 DUP1 REVERT JUMPDEST POP JUMP JUMPDEST PUSH1 0x0 DUP2 CALLDATALOAD SWAP1 POP PUSH2 0x440 DUP2 PUSH2 0x41A JUMP JUMPDEST SWAP3 SWAP2 POP POP JUMP JUMPDEST PUSH1 0x0 DUP1 PUSH1 0x0 PUSH1 0x60 DUP5 DUP7 SUB SLT ISZERO PUSH2 0x45F JUMPI PUSH2 0x45E PUSH2 0x103 JUMP JUMPDEST JUMPDEST PUSH1 0x0 DUP5 ADD CALLDATALOAD PUSH8 0xFFFFFFFFFFFFFFFF DUP2 GT ISZERO PUSH2 0x47D JUMPI PUSH2 0x47C PUSH2 0x108 JUMP JUMPDEST JUMPDEST PUSH2 0x489 DUP7 DUP3 DUP8 ADD PUSH2 0x3EC JUMP JUMPDEST SWAP4 POP POP PUSH1 0x20 PUSH2 0x49A DUP7 DUP3 DUP8 ADD PUSH2 0x431 JUMP JUMPDEST SWAP3 POP POP PUSH1 0x40 DUP5 ADD CALLDATALOAD PUSH8 0xFFFFFFFFFFFFFFFF DUP2 GT ISZERO PUSH2 0x4BB JUMPI PUSH2 0x4BA PUSH2 0x108 JUMP JUMPDEST JUMPDEST PUSH2 0x4C7 DUP7 DUP3 DUP8 ADD PUSH2 0x3EC JUMP JUMPDEST SWAP2 POP POP SWAP3 POP SWAP3 POP SWAP3 JUMP JUMPDEST PUSH1 0x0 DUP2 MLOAD SWAP1 POP SWAP2 SWAP1 POP JUMP JUMPDEST PUSH1 0x0 DUP3 DUP3 MSTORE PUSH1 0x20 DUP3 ADD SWAP1 POP SWAP3 SWAP2 POP POP JUMP JUMPDEST PUSH1 0x0 PUSH2 0x4F8 DUP3 PUSH2 0x4D1 JUMP JUMPDEST PUSH2 0x502 DUP2 DUP6 PUSH2 0x4DC JUMP JUMPDEST SWAP4 POP PUSH2 0x512 DUP2 DUP6 PUSH1 0x20 DUP7 ADD PUSH2 0x2B8 JUMP JUMPDEST PUSH2 0x51B DUP2 PUSH2 0x117 JUMP JUMPDEST DUP5 ADD SWAP2 POP POP SWAP3 SWAP2 POP POP JUMP JUMPDEST PUSH1 0x0 PUSH1 0x20 DUP3 ADD SWAP1 POP DUP2 DUP2 SUB PUSH1 0x0 DUP4 ADD MSTORE PUSH2 0x540 DUP2 DUP5 PUSH2 0x4ED JUMP JUMPDEST SWAP1 POP SWAP3 SWAP2 POP POP JUMP JUMPDEST PUSH1 0x0 PUSH2 0x55B PUSH2 0x556 DUP5 PUSH2 0x379 JUMP JUMPDEST PUSH2 0x188 JUMP JUMPDEST SWAP1 POP DUP3 DUP2 MSTORE PUSH1 0x20 DUP2 ADD DUP5 DUP5 DUP5 ADD GT ISZERO PUSH2 0x577 JUMPI PUSH2 0x576 PUSH2 0x112 JUMP JUMPDEST JUMPDEST PUSH2 0x582 DUP5 DUP3 DUP6 PUSH2 0x2B8 JUMP JUMPDEST POP SWAP4 SWAP3 POP POP POP JUMP JUMPDEST PUSH1 0x0 DUP3 PUSH1 0x1F DUP4 ADD SLT PUSH2 0x59F JUMPI PUSH2 0x59E PUSH2 0x10D JUMP JUMPDEST JUMPDEST DUP2 MLOAD PUSH2 0x5AF DUP5 DUP3 PUSH1 0x20 DUP7 ADD PUSH2 0x548 JUMP JUMPDEST SWAP2 POP POP SWAP3 SWAP2 POP POP JUMP JUMPDEST PUSH1 0x0 DUP2 MLOAD SWAP1 POP PUSH2 0x5C7 DUP2 PUSH2 0x41A JUMP JUMPDEST SWAP3 SWAP2 POP POP JUMP JUMPDEST PUSH1 0x0 DUP1 PUSH1 0x0 PUSH1 0x60 DUP5 DUP7 SUB SLT ISZERO PUSH2 0x5E6 JUMPI PUSH2 0x5E5 PUSH2 0x103 JUMP JUMPDEST JUMPDEST PUSH1 0x0 DUP5 ADD MLOAD PUSH8 0xFFFFFFFFFFFFFFFF DUP2 GT ISZERO PUSH2 0x604 JUMPI PUSH2 0x603 PUSH2 0x108 JUMP JUMPDEST JUMPDEST PUSH2 0x610 DUP7 DUP3 DUP8 ADD PUSH2 0x58A JUMP JUMPDEST SWAP4 POP POP PUSH1 0x20 PUSH2 0x621 DUP7 DUP3 DUP8 ADD PUSH2 0x5B8 JUMP JUMPDEST SWAP3 POP POP PUSH1 0x40 DUP5 ADD MLOAD PUSH8 0xFFFFFFFFFFFFFFFF DUP2 GT ISZERO PUSH2 0x642 JUMPI PUSH2 0x641 PUSH2 0x108 JUMP JUMPDEST JUMPDEST PUSH2 0x64E DUP7 DUP3 DUP8 ADD PUSH2 0x58A JUMP JUMPDEST SWAP2 POP POP SWAP3 POP SWAP3 POP SWAP3 JUMP INVALID LOG2 PUSH5 0x6970667358 0x22 SLT KECCAK256 DUP3 0xB9 SLOAD SWAP7 DELEGATECALL SWAP6 SWAP8 SHR 0xAF 0xA5 0xC SWAP4 0xD8 0xB1 LOG2 0xE6 PUSH10 0x472BCD066271CEE8F618 0x5D DIV ADDRESS 0xAD PUSH32 0x64736F6C63430008120033000000000000000000000000000000000000000000 "
		},
		"gasEstimates": {
			"creation": {
				"codeDepositCost": "335600",
				"executionCost": "374",
				"totalCost": "335974"
			},
			"external": {
				"decodex(bytes)": "infinite",
				"encode(string,uint256,string)": "infinite"
			}
		},
		"methodIdentifiers": {
			"decodex(bytes)": "0a75d811",
			"encode(string,uint256,string)": "3b7fa265"
		}
	},
	"abi": [
		{
			"inputs": [
				{
					"internalType": "bytes",
					"name": "_data",
					"type": "bytes"
				}
			],
			"name": "decodex",
			"outputs": [
				{
					"internalType": "string",
					"name": "a",
					"type": "string"
				},
				{
					"internalType": "uint256",
					"name": "b",
					"type": "uint256"
				},
				{
					"internalType": "string",
					"name": "c",
					"type": "string"
				}
			],
			"stateMutability": "pure",
			"type": "function"
		},
		{
			"inputs": [
				{
					"internalType": "string",
					"name": "name",
					"type": "string"
				},
				{
					"internalType": "uint256",
					"name": "age",
					"type": "uint256"
				},
				{
					"internalType": "string",
					"name": "gender",
					"type": "string"
				}
			],
			"name": "encode",
			"outputs": [
				{
					"internalType": "bytes",
					"name": "data",
					"type": "bytes"
				}
			],
			"stateMutability": "pure",
			"type": "function"
		}
	]
}