{
	"data": {
		"bytecode": {
			"linkReferences": {},
			"object": "60806040526040516100109061007e565b604051809103906000f08015801561002c573d6000803e3d6000fd5b506000806101000a81548173ffffffffffffffffffffffffffffffffffffffff021916908373ffffffffffffffffffffffffffffffffffffffff16021790555034801561007857600080fd5b5061008b565b6102d48061071183390190565b6106778061009a6000396000f3fe608060405234801561001057600080fd5b50600436106100365760003560e01c80633fd322571461003b578063f9fa48c314610057575b600080fd5b6100556004803603810190610050919061028a565b610075565b005b61005f610221565b60405161006c9190610349565b60405180910390f35b60008054906101000a900473ffffffffffffffffffffffffffffffffffffffff1673ffffffffffffffffffffffffffffffffffffffff1663f88e9fbf83836040518363ffffffff1660e01b81526004016100d0929190610373565b602060405180830381865afa92505050801561010a57506040513d601f19601f8201168201806040525081019061010791906103b1565b60015b6101e4576101166103eb565b806308c379a003610172575061012a61047e565b806101355750610174565b7f6d0daf83c3a38f2fe33a4861490a8fe4cab88346a8ec28ff62af066611392cbb81604051610164919061058d565b60405180910390a1506101df565b505b3d80600081146101a0576040519150601f19603f3d011682016040523d82523d6000602084013e6101a5565b606091505b507fb6f66868478aebcea8c7a15c8c7dd37a513a4127424642ee3573117b52fa3e39816040516101d59190610604565b60405180910390a1505b61021d565b7fc51486e2bea95298ff1f7a8e07be54c6624c5c7dc738d5f7b8b872559202b755816040516102139190610626565b60405180910390a1505b5050565b60008054906101000a900473ffffffffffffffffffffffffffffffffffffffff1681565b6000604051905090565b600080fd5b6000819050919050565b61026781610254565b811461027257600080fd5b50565b6000813590506102848161025e565b92915050565b600080604083850312156102a1576102a061024f565b5b60006102af85828601610275565b92505060206102c085828601610275565b9150509250929050565b600073ffffffffffffffffffffffffffffffffffffffff82169050919050565b6000819050919050565b600061030f61030a610305846102ca565b6102ea565b6102ca565b9050919050565b6000610321826102f4565b9050919050565b600061033382610316565b9050919050565b61034381610328565b82525050565b600060208201905061035e600083018461033a565b92915050565b61036d81610254565b82525050565b60006040820190506103886000830185610364565b6103956020830184610364565b9392505050565b6000815190506103ab8161025e565b92915050565b6000602082840312156103c7576103c661024f565b5b60006103d58482850161039c565b91505092915050565b60008160e01c9050919050565b600060033d111561040a5760046000803e6104076000516103de565b90505b90565b6000601f19601f8301169050919050565b7f4e487b7100000000000000000000000000000000000000000000000000000000600052604160045260246000fd5b6104568261040d565b810181811067ffffffffffffffff821117156104755761047461041e565b5b80604052505050565b600060443d1061050b57610490610245565b60043d036004823e80513d602482011167ffffffffffffffff821117156104b857505061050b565b808201805167ffffffffffffffff8111156104d6575050505061050b565b80602083010160043d0385018111156104f357505050505061050b565b6105028260200185018661044d565b82955050505050505b90565b600081519050919050565b600082825260208201905092915050565b60005b8381101561054857808201518184015260208101905061052d565b60008484015250505050565b600061055f8261050e565b6105698185610519565b935061057981856020860161052a565b6105828161040d565b840191505092915050565b600060208201905081810360008301526105a78184610554565b905092915050565b600081519050919050565b600082825260208201905092915050565b60006105d6826105af565b6105e081856105ba565b93506105f081856020860161052a565b6105f98161040d565b840191505092915050565b6000602082019050818103600083015261061e81846105cb565b905092915050565b600060208201905061063b6000830184610364565b9291505056fea2646970667358221220c5495dfabaafa538d56424671449d9bd2bba5537d99c20d6e75e17e9f328f6cb64736f6c63430008120033608060405234801561001057600080fd5b506102b4806100206000396000f3fe608060405234801561001057600080fd5b506004361061002b5760003560e01c8063f88e9fbf14610030575b600080fd5b61004a60048036038101906100459190610111565b610060565b6040516100579190610160565b60405180910390f35b60008083118015610072575060648311155b801561007d57508282105b6100bc576040517f08c379a00000000000000000000000000000000000000000000000000000000081526004016100b3906101fe565b60405180910390fd5b600082846100ca919061024d565b90508091505092915050565b600080fd5b6000819050919050565b6100ee816100db565b81146100f957600080fd5b50565b60008135905061010b816100e5565b92915050565b60008060408385031215610128576101276100d6565b5b6000610136858286016100fc565b9250506020610147858286016100fc565b9150509250929050565b61015a816100db565b82525050565b60006020820190506101756000830184610151565b92915050565b600082825260208201905092915050565b7f636865636b2074686520636f6e646974696f6e7320616e6420656e746572207660008201527f616c756573000000000000000000000000000000000000000000000000000000602082015250565b60006101e860258361017b565b91506101f38261018c565b604082019050919050565b60006020820190508181036000830152610217816101db565b9050919050565b7f4e487b7100000000000000000000000000000000000000000000000000000000600052601260045260246000fd5b6000610258826100db565b9150610263836100db565b9250826102735761027261021e565b5b82820490509291505056fea2646970667358221220d16971ce41c1a202f56aab7a22d7fe8cf656c4af65e68872444f78fe1a902c2e64736f6c63430008120033",
			"opcodes": "PUSH1 0x80 PUSH1 0x40 MSTORE PUSH1 0x40 MLOAD PUSH2 0x10 SWAP1 PUSH2 0x7E JUMP JUMPDEST PUSH1 0x40 MLOAD DUP1 SWAP2 SUB SWAP1 PUSH1 0x0 CREATE DUP1 ISZERO DUP1 ISZERO PUSH2 0x2C JUMPI RETURNDATASIZE PUSH1 0x0 DUP1 RETURNDATACOPY RETURNDATASIZE PUSH1 0x0 REVERT JUMPDEST POP PUSH1 0x0 DUP1 PUSH2 0x100 EXP DUP2 SLOAD DUP2 PUSH20 0xFFFFFFFFFFFFFFFFFFFFFFFFFFFFFFFFFFFFFFFF MUL NOT AND SWAP1 DUP4 PUSH20 0xFFFFFFFFFFFFFFFFFFFFFFFFFFFFFFFFFFFFFFFF AND MUL OR SWAP1 SSTORE POP CALLVALUE DUP1 ISZERO PUSH2 0x78 JUMPI PUSH1 0x0 DUP1 REVERT JUMPDEST POP PUSH2 0x8B JUMP JUMPDEST PUSH2 0x2D4 DUP1 PUSH2 0x711 DUP4 CODECOPY ADD SWAP1 JUMP JUMPDEST PUSH2 0x677 DUP1 PUSH2 0x9A PUSH1 0x0 CODECOPY PUSH1 0x0 RETURN INVALID PUSH1 0x80 PUSH1 0x40 MSTORE CALLVALUE DUP1 ISZERO PUSH2 0x10 JUMPI PUSH1 0x0 DUP1 REVERT JUMPDEST POP PUSH1 0x4 CALLDATASIZE LT PUSH2 0x36 JUMPI PUSH1 0x0 CALLDATALOAD PUSH1 0xE0 SHR DUP1 PUSH4 0x3FD32257 EQ PUSH2 0x3B JUMPI DUP1 PUSH4 0xF9FA48C3 EQ PUSH2 0x57 JUMPI JUMPDEST PUSH1 0x0 DUP1 REVERT JUMPDEST PUSH2 0x55 PUSH1 0x4 DUP1 CALLDATASIZE SUB DUP2 ADD SWAP1 PUSH2 0x50 SWAP2 SWAP1 PUSH2 0x28A JUMP JUMPDEST PUSH2 0x75 JUMP JUMPDEST STOP JUMPDEST PUSH2 0x5F PUSH2 0x221 JUMP JUMPDEST PUSH1 0x40 MLOAD PUSH2 0x6C SWAP2 SWAP1 PUSH2 0x349 JUMP JUMPDEST PUSH1 0x40 MLOAD DUP1 SWAP2 SUB SWAP1 RETURN JUMPDEST PUSH1 0x0 DUP1 SLOAD SWAP1 PUSH2 0x100 EXP SWAP1 DIV PUSH20 0xFFFFFFFFFFFFFFFFFFFFFFFFFFFFFFFFFFFFFFFF AND PUSH20 0xFFFFFFFFFFFFFFFFFFFFFFFFFFFFFFFFFFFFFFFF AND PUSH4 0xF88E9FBF DUP4 DUP4 PUSH1 0x40 MLOAD DUP4 PUSH4 0xFFFFFFFF AND PUSH1 0xE0 SHL DUP2 MSTORE PUSH1 0x4 ADD PUSH2 0xD0 SWAP3 SWAP2 SWAP1 PUSH2 0x373 JUMP JUMPDEST PUSH1 0x20 PUSH1 0x40 MLOAD DUP1 DUP4 SUB DUP2 DUP7 GAS STATICCALL SWAP3 POP POP POP DUP1 ISZERO PUSH2 0x10A JUMPI POP PUSH1 0x40 MLOAD RETURNDATASIZE PUSH1 0x1F NOT PUSH1 0x1F DUP3 ADD AND DUP3 ADD DUP1 PUSH1 0x40 MSTORE POP DUP2 ADD SWAP1 PUSH2 0x107 SWAP2 SWAP1 PUSH2 0x3B1 JUMP JUMPDEST PUSH1 0x1 JUMPDEST PUSH2 0x1E4 JUMPI PUSH2 0x116 PUSH2 0x3EB JUMP JUMPDEST DUP1 PUSH4 0x8C379A0 SUB PUSH2 0x172 JUMPI POP PUSH2 0x12A PUSH2 0x47E JUMP JUMPDEST DUP1 PUSH2 0x135 JUMPI POP PUSH2 0x174 JUMP JUMPDEST PUSH32 0x6D0DAF83C3A38F2FE33A4861490A8FE4CAB88346A8EC28FF62AF066611392CBB DUP2 PUSH1 0x40 MLOAD PUSH2 0x164 SWAP2 SWAP1 PUSH2 0x58D JUMP JUMPDEST PUSH1 0x40 MLOAD DUP1 SWAP2 SUB SWAP1 LOG1 POP PUSH2 0x1DF JUMP JUMPDEST POP JUMPDEST RETURNDATASIZE DUP1 PUSH1 0x0 DUP2 EQ PUSH2 0x1A0 JUMPI PUSH1 0x40 MLOAD SWAP2 POP PUSH1 0x1F NOT PUSH1 0x3F RETURNDATASIZE ADD AND DUP3 ADD PUSH1 0x40 MSTORE RETURNDATASIZE DUP3 MSTORE RETURNDATASIZE PUSH1 0x0 PUSH1 0x20 DUP5 ADD RETURNDATACOPY PUSH2 0x1A5 JUMP JUMPDEST PUSH1 0x60 SWAP2 POP JUMPDEST POP PUSH32 0xB6F66868478AEBCEA8C7A15C8C7DD37A513A4127424642EE3573117B52FA3E39 DUP2 PUSH1 0x40 MLOAD PUSH2 0x1D5 SWAP2 SWAP1 PUSH2 0x604 JUMP JUMPDEST PUSH1 0x40 MLOAD DUP1 SWAP2 SUB SWAP1 LOG1 POP JUMPDEST PUSH2 0x21D JUMP JUMPDEST PUSH32 0xC51486E2BEA95298FF1F7A8E07BE54C6624C5C7DC738D5F7B8B872559202B755 DUP2 PUSH1 0x40 MLOAD PUSH2 0x213 SWAP2 SWAP1 PUSH2 0x626 JUMP JUMPDEST PUSH1 0x40 MLOAD DUP1 SWAP2 SUB SWAP1 LOG1 POP JUMPDEST POP POP JUMP JUMPDEST PUSH1 0x0 DUP1 SLOAD SWAP1 PUSH2 0x100 EXP SWAP1 DIV PUSH20 0xFFFFFFFFFFFFFFFFFFFFFFFFFFFFFFFFFFFFFFFF AND DUP2 JUMP JUMPDEST PUSH1 0x0 PUSH1 0x40 MLOAD SWAP1 POP SWAP1 JUMP JUMPDEST PUSH1 0x0 DUP1 REVERT JUMPDEST PUSH1 0x0 DUP2 SWAP1 POP SWAP2 SWAP1 POP JUMP JUMPDEST PUSH2 0x267 DUP2 PUSH2 0x254 JUMP JUMPDEST DUP2 EQ PUSH2 0x272 JUMPI PUSH1 0x0 DUP1 REVERT JUMPDEST POP JUMP JUMPDEST PUSH1 0x0 DUP2 CALLDATALOAD SWAP1 POP PUSH2 0x284 DUP2 PUSH2 0x25E JUMP JUMPDEST SWAP3 SWAP2 POP POP JUMP JUMPDEST PUSH1 0x0 DUP1 PUSH1 0x40 DUP4 DUP6 SUB SLT ISZERO PUSH2 0x2A1 JUMPI PUSH2 0x2A0 PUSH2 0x24F JUMP JUMPDEST JUMPDEST PUSH1 0x0 PUSH2 0x2AF DUP6 DUP3 DUP7 ADD PUSH2 0x275 JUMP JUMPDEST SWAP3 POP POP PUSH1 0x20 PUSH2 0x2C0 DUP6 DUP3 DUP7 ADD PUSH2 0x275 JUMP JUMPDEST SWAP2 POP POP SWAP3 POP SWAP3 SWAP1 POP JUMP JUMPDEST PUSH1 0x0 PUSH20 0xFFFFFFFFFFFFFFFFFFFFFFFFFFFFFFFFFFFFFFFF DUP3 AND SWAP1 POP SWAP2 SWAP1 POP JUMP JUMPDEST PUSH1 0x0 DUP2 SWAP1 POP SWAP2 SWAP1 POP JUMP JUMPDEST PUSH1 0x0 PUSH2 0x30F PUSH2 0x30A PUSH2 0x305 DUP5 PUSH2 0x2CA JUMP JUMPDEST PUSH2 0x2EA JUMP JUMPDEST PUSH2 0x2CA JUMP JUMPDEST SWAP1 POP SWAP2 SWAP1 POP JUMP JUMPDEST PUSH1 0x0 PUSH2 0x321 DUP3 PUSH2 0x2F4 JUMP JUMPDEST SWAP1 POP SWAP2 SWAP1 POP JUMP JUMPDEST PUSH1 0x0 PUSH2 0x333 DUP3 PUSH2 0x316 JUMP JUMPDEST SWAP1 POP SWAP2 SWAP1 POP JUMP JUMPDEST PUSH2 0x343 DUP2 PUSH2 0x328 JUMP JUMPDEST DUP3 MSTORE POP POP JUMP JUMPDEST PUSH1 0x0 PUSH1 0x20 DUP3 ADD SWAP1 POP PUSH2 0x35E PUSH1 0x0 DUP4 ADD DUP5 PUSH2 0x33A JUMP JUMPDEST SWAP3 SWAP2 POP POP JUMP JUMPDEST PUSH2 0x36D DUP2 PUSH2 0x254 JUMP JUMPDEST DUP3 MSTORE POP POP JUMP JUMPDEST PUSH1 0x0 PUSH1 0x40 DUP3 ADD SWAP1 POP PUSH2 0x388 PUSH1 0x0 DUP4 ADD DUP6 PUSH2 0x364 JUMP JUMPDEST PUSH2 0x395 PUSH1 0x20 DUP4 ADD DUP5 PUSH2 0x364 JUMP JUMPDEST SWAP4 SWAP3 POP POP POP JUMP JUMPDEST PUSH1 0x0 DUP2 MLOAD SWAP1 POP PUSH2 0x3AB DUP2 PUSH2 0x25E JUMP JUMPDEST SWAP3 SWAP2 POP POP JUMP JUMPDEST PUSH1 0x0 PUSH1 0x20 DUP3 DUP5 SUB SLT ISZERO PUSH2 0x3C7 JUMPI PUSH2 0x3C6 PUSH2 0x24F JUMP JUMPDEST JUMPDEST PUSH1 0x0 PUSH2 0x3D5 DUP5 DUP3 DUP6 ADD PUSH2 0x39C JUMP JUMPDEST SWAP2 POP POP SWAP3 SWAP2 POP POP JUMP JUMPDEST PUSH1 0x0 DUP2 PUSH1 0xE0 SHR SWAP1 POP SWAP2 SWAP1 POP JUMP JUMPDEST PUSH1 0x0 PUSH1 0x3 RETURNDATASIZE GT ISZERO PUSH2 0x40A JUMPI PUSH1 0x4 PUSH1 0x0 DUP1 RETURNDATACOPY PUSH2 0x407 PUSH1 0x0 MLOAD PUSH2 0x3DE JUMP JUMPDEST SWAP1 POP JUMPDEST SWAP1 JUMP JUMPDEST PUSH1 0x0 PUSH1 0x1F NOT PUSH1 0x1F DUP4 ADD AND SWAP1 POP SWAP2 SWAP1 POP JUMP JUMPDEST PUSH32 0x4E487B7100000000000000000000000000000000000000000000000000000000 PUSH1 0x0 MSTORE PUSH1 0x41 PUSH1 0x4 MSTORE PUSH1 0x24 PUSH1 0x0 REVERT JUMPDEST PUSH2 0x456 DUP3 PUSH2 0x40D JUMP JUMPDEST DUP2 ADD DUP2 DUP2 LT PUSH8 0xFFFFFFFFFFFFFFFF DUP3 GT OR ISZERO PUSH2 0x475 JUMPI PUSH2 0x474 PUSH2 0x41E JUMP JUMPDEST JUMPDEST DUP1 PUSH1 0x40 MSTORE POP POP POP JUMP JUMPDEST PUSH1 0x0 PUSH1 0x44 RETURNDATASIZE LT PUSH2 0x50B JUMPI PUSH2 0x490 PUSH2 0x245 JUMP JUMPDEST PUSH1 0x4 RETURNDATASIZE SUB PUSH1 0x4 DUP3 RETURNDATACOPY DUP1 MLOAD RETURNDATASIZE PUSH1 0x24 DUP3 ADD GT PUSH8 0xFFFFFFFFFFFFFFFF DUP3 GT OR ISZERO PUSH2 0x4B8 JUMPI POP POP PUSH2 0x50B JUMP JUMPDEST DUP1 DUP3 ADD DUP1 MLOAD PUSH8 0xFFFFFFFFFFFFFFFF DUP2 GT ISZERO PUSH2 0x4D6 JUMPI POP POP POP POP PUSH2 0x50B JUMP JUMPDEST DUP1 PUSH1 0x20 DUP4 ADD ADD PUSH1 0x4 RETURNDATASIZE SUB DUP6 ADD DUP2 GT ISZERO PUSH2 0x4F3 JUMPI POP POP POP POP POP PUSH2 0x50B JUMP JUMPDEST PUSH2 0x502 DUP3 PUSH1 0x20 ADD DUP6 ADD DUP7 PUSH2 0x44D JUMP JUMPDEST DUP3 SWAP6 POP POP POP POP POP POP JUMPDEST SWAP1 JUMP JUMPDEST PUSH1 0x0 DUP2 MLOAD SWAP1 POP SWAP2 SWAP1 POP JUMP JUMPDEST PUSH1 0x0 DUP3 DUP3 MSTORE PUSH1 0x20 DUP3 ADD SWAP1 POP SWAP3 SWAP2 POP POP JUMP JUMPDEST PUSH1 0x0 JUMPDEST DUP4 DUP2 LT ISZERO PUSH2 0x548 JUMPI DUP1 DUP3 ADD MLOAD DUP2 DUP5 ADD MSTORE PUSH1 0x20 DUP2 ADD SWAP1 POP PUSH2 0x52D JUMP JUMPDEST PUSH1 0x0 DUP5 DUP5 ADD MSTORE POP POP POP POP JUMP JUMPDEST PUSH1 0x0 PUSH2 0x55F DUP3 PUSH2 0x50E JUMP JUMPDEST PUSH2 0x569 DUP2 DUP6 PUSH2 0x519 JUMP JUMPDEST SWAP4 POP PUSH2 0x579 DUP2 DUP6 PUSH1 0x20 DUP7 ADD PUSH2 0x52A JUMP JUMPDEST PUSH2 0x582 DUP2 PUSH2 0x40D JUMP JUMPDEST DUP5 ADD SWAP2 POP POP SWAP3 SWAP2 POP POP JUMP JUMPDEST PUSH1 0x0 PUSH1 0x20 DUP3 ADD SWAP1 POP DUP2 DUP2 SUB PUSH1 0x0 DUP4 ADD MSTORE PUSH2 0x5A7 DUP2 DUP5 PUSH2 0x554 JUMP JUMPDEST SWAP1 POP SWAP3 SWAP2 POP POP JUMP JUMPDEST PUSH1 0x0 DUP2 MLOAD SWAP1 POP SWAP2 SWAP1 POP JUMP JUMPDEST PUSH1 0x0 DUP3 DUP3 MSTORE PUSH1 0x20 DUP3 ADD SWAP1 POP SWAP3 SWAP2 POP POP JUMP JUMPDEST PUSH1 0x0 PUSH2 0x5D6 DUP3 PUSH2 0x5AF JUMP JUMPDEST PUSH2 0x5E0 DUP2 DUP6 PUSH2 0x5BA JUMP JUMPDEST SWAP4 POP PUSH2 0x5F0 DUP2 DUP6 PUSH1 0x20 DUP7 ADD PUSH2 0x52A JUMP JUMPDEST PUSH2 0x5F9 DUP2 PUSH2 0x40D JUMP JUMPDEST DUP5 ADD SWAP2 POP POP SWAP3 SWAP2 POP POP JUMP JUMPDEST PUSH1 0x0 PUSH1 0x20 DUP3 ADD SWAP1 POP DUP2 DUP2 SUB PUSH1 0x0 DUP4 ADD MSTORE PUSH2 0x61E DUP2 DUP5 PUSH2 0x5CB JUMP JUMPDEST SWAP1 POP SWAP3 SWAP2 POP POP JUMP JUMPDEST PUSH1 0x0 PUSH1 0x20 DUP3 ADD SWAP1 POP PUSH2 0x63B PUSH1 0x0 DUP4 ADD DUP5 PUSH2 0x364 JUMP JUMPDEST SWAP3 SWAP2 POP POP JUMP INVALID LOG2 PUSH5 0x6970667358 0x22 SLT KECCAK256 0xC5 0x49 0x5D STATICCALL 0xBA 0xAF 0xA5 CODESIZE 0xD5 PUSH5 0x24671449D9 0xBD 0x2B 0xBA SSTORE CALLDATACOPY 0xD9 SWAP13 KECCAK256 0xD6 0xE7 0x5E OR 0xE9 RETURN 0x28 0xF6 0xCB PUSH5 0x736F6C6343 STOP ADDMOD SLT STOP CALLER PUSH1 0x80 PUSH1 0x40 MSTORE CALLVALUE DUP1 ISZERO PUSH2 0x10 JUMPI PUSH1 0x0 DUP1 REVERT JUMPDEST POP PUSH2 0x2B4 DUP1 PUSH2 0x20 PUSH1 0x0 CODECOPY PUSH1 0x0 RETURN INVALID PUSH1 0x80 PUSH1 0x40 MSTORE CALLVALUE DUP1 ISZERO PUSH2 0x10 JUMPI PUSH1 0x0 DUP1 REVERT JUMPDEST POP PUSH1 0x4 CALLDATASIZE LT PUSH2 0x2B JUMPI PUSH1 0x0 CALLDATALOAD PUSH1 0xE0 SHR DUP1 PUSH4 0xF88E9FBF EQ PUSH2 0x30 JUMPI JUMPDEST PUSH1 0x0 DUP1 REVERT JUMPDEST PUSH2 0x4A PUSH1 0x4 DUP1 CALLDATASIZE SUB DUP2 ADD SWAP1 PUSH2 0x45 SWAP2 SWAP1 PUSH2 0x111 JUMP JUMPDEST PUSH2 0x60 JUMP JUMPDEST PUSH1 0x40 MLOAD PUSH2 0x57 SWAP2 SWAP1 PUSH2 0x160 JUMP JUMPDEST PUSH1 0x40 MLOAD DUP1 SWAP2 SUB SWAP1 RETURN JUMPDEST PUSH1 0x0 DUP1 DUP4 GT DUP1 ISZERO PUSH2 0x72 JUMPI POP PUSH1 0x64 DUP4 GT ISZERO JUMPDEST DUP1 ISZERO PUSH2 0x7D JUMPI POP DUP3 DUP3 LT JUMPDEST PUSH2 0xBC JUMPI PUSH1 0x40 MLOAD PUSH32 0x8C379A000000000000000000000000000000000000000000000000000000000 DUP2 MSTORE PUSH1 0x4 ADD PUSH2 0xB3 SWAP1 PUSH2 0x1FE JUMP JUMPDEST PUSH1 0x40 MLOAD DUP1 SWAP2 SUB SWAP1 REVERT JUMPDEST PUSH1 0x0 DUP3 DUP5 PUSH2 0xCA SWAP2 SWAP1 PUSH2 0x24D JUMP JUMPDEST SWAP1 POP DUP1 SWAP2 POP POP SWAP3 SWAP2 POP POP JUMP JUMPDEST PUSH1 0x0 DUP1 REVERT JUMPDEST PUSH1 0x0 DUP2 SWAP1 POP SWAP2 SWAP1 POP JUMP JUMPDEST PUSH2 0xEE DUP2 PUSH2 0xDB JUMP JUMPDEST DUP2 EQ PUSH2 0xF9 JUMPI PUSH1 0x0 DUP1 REVERT JUMPDEST POP JUMP JUMPDEST PUSH1 0x0 DUP2 CALLDATALOAD SWAP1 POP PUSH2 0x10B DUP2 PUSH2 0xE5 JUMP JUMPDEST SWAP3 SWAP2 POP POP JUMP JUMPDEST PUSH1 0x0 DUP1 PUSH1 0x40 DUP4 DUP6 SUB SLT ISZERO PUSH2 0x128 JUMPI PUSH2 0x127 PUSH2 0xD6 JUMP JUMPDEST JUMPDEST PUSH1 0x0 PUSH2 0x136 DUP6 DUP3 DUP7 ADD PUSH2 0xFC JUMP JUMPDEST SWAP3 POP POP PUSH1 0x20 PUSH2 0x147 DUP6 DUP3 DUP7 ADD PUSH2 0xFC JUMP JUMPDEST SWAP2 POP POP SWAP3 POP SWAP3 SWAP1 POP JUMP JUMPDEST PUSH2 0x15A DUP2 PUSH2 0xDB JUMP JUMPDEST DUP3 MSTORE POP POP JUMP JUMPDEST PUSH1 0x0 PUSH1 0x20 DUP3 ADD SWAP1 POP PUSH2 0x175 PUSH1 0x0 DUP4 ADD DUP5 PUSH2 0x151 JUMP JUMPDEST SWAP3 SWAP2 POP POP JUMP JUMPDEST PUSH1 0x0 DUP3 DUP3 MSTORE PUSH1 0x20 DUP3 ADD SWAP1 POP SWAP3 SWAP2 POP POP JUMP JUMPDEST PUSH32 0x636865636B2074686520636F6E646974696F6E7320616E6420656E7465722076 PUSH1 0x0 DUP3 ADD MSTORE PUSH32 0x616C756573000000000000000000000000000000000000000000000000000000 PUSH1 0x20 DUP3 ADD MSTORE POP JUMP JUMPDEST PUSH1 0x0 PUSH2 0x1E8 PUSH1 0x25 DUP4 PUSH2 0x17B JUMP JUMPDEST SWAP2 POP PUSH2 0x1F3 DUP3 PUSH2 0x18C JUMP JUMPDEST PUSH1 0x40 DUP3 ADD SWAP1 POP SWAP2 SWAP1 POP JUMP JUMPDEST PUSH1 0x0 PUSH1 0x20 DUP3 ADD SWAP1 POP DUP2 DUP2 SUB PUSH1 0x0 DUP4 ADD MSTORE PUSH2 0x217 DUP2 PUSH2 0x1DB JUMP JUMPDEST SWAP1 POP SWAP2 SWAP1 POP JUMP JUMPDEST PUSH32 0x4E487B7100000000000000000000000000000000000000000000000000000000 PUSH1 0x0 MSTORE PUSH1 0x12 PUSH1 0x4 MSTORE PUSH1 0x24 PUSH1 0x0 REVERT JUMPDEST PUSH1 0x0 PUSH2 0x258 DUP3 PUSH2 0xDB JUMP JUMPDEST SWAP2 POP PUSH2 0x263 DUP4 PUSH2 0xDB JUMP JUMPDEST SWAP3 POP DUP3 PUSH2 0x273 JUMPI PUSH2 0x272 PUSH2 0x21E JUMP JUMPDEST JUMPDEST DUP3 DUP3 DIV SWAP1 POP SWAP3 SWAP2 POP POP JUMP INVALID LOG2 PUSH5 0x6970667358 0x22 SLT KECCAK256 0xD1 PUSH10 0x71CE41C1A202F56AAB7A 0x22 0xD7 INVALID DUP13 0xF6 JUMP 0xC4 0xAF PUSH6 0xE68872444F78 INVALID BYTE SWAP1 0x2C 0x2E PUSH5 0x736F6C6343 STOP ADDMOD SLT STOP CALLER "
		},
		"gasEstimates": {
			"creation": {
				"codeDepositCost": "331000",
				"executionCost": "infinite",
				"totalCost": "infinite"
			},
			"external": {
				"calldivide(uint256,uint256)": "infinite",
				"div()": "infinite"
			}
		},
		"methodIdentifiers": {
			"calldivide(uint256,uint256)": "3fd32257",
			"div()": "f9fa48c3"
		}
	},
	"abi": [
		{
			"anonymous": false,
			"inputs": [
				{
					"indexed": false,
					"internalType": "bytes",
					"name": "data",
					"type": "bytes"
				}
			],
			"name": "CatchByte",
			"type": "event"
		},
		{
			"anonymous": false,
			"inputs": [
				{
					"indexed": false,
					"internalType": "string",
					"name": "reason",
					"type": "string"
				}
			],
			"name": "failure",
			"type": "event"
		},
		{
			"anonymous": false,
			"inputs": [],
			"name": "log",
			"type": "event"
		},
		{
			"anonymous": false,
			"inputs": [],
			"name": "reg",
			"type": "event"
		},
		{
			"anonymous": false,
			"inputs": [
				{
					"indexed": false,
					"internalType": "uint256",
					"name": "number",
					"type": "uint256"
				}
			],
			"name": "regnum",
			"type": "event"
		},
		{
			"inputs": [
				{
					"internalType": "uint256",
					"name": "a",
					"type": "uint256"
				},
				{
					"internalType": "uint256",
					"name": "b",
					"type": "uint256"
				}
			],
			"name": "calldivide",
			"outputs": [],
			"stateMutability": "nonpayable",
			"type": "function"
		},
		{
			"inputs": [],
			"name": "div",
			"outputs": [
				{
					"internalType": "contract SDiv",
					"name": "",
					"type": "address"
				}
			],
			"stateMutability": "view",
			"type": "function"
		}
	]
}