{
	"Labs (August)/mapping/exe.sol": {
		"Vehicle": {
			"abi": [
				{
					"inputs": [],
					"name": "car",
					"outputs": [
						{
							"internalType": "string",
							"name": "make",
							"type": "string"
						},
						{
							"internalType": "string",
							"name": "model",
							"type": "string"
						},
						{
							"internalType": "uint256",
							"name": "year",
							"type": "uint256"
						}
					],
					"stateMutability": "view",
					"type": "function"
				},
				{
					"inputs": [],
					"name": "setValues",
					"outputs": [
						{
							"components": [
								{
									"internalType": "string",
									"name": "make",
									"type": "string"
								},
								{
									"internalType": "string",
									"name": "model",
									"type": "string"
								},
								{
									"internalType": "uint256",
									"name": "year",
									"type": "uint256"
								}
							],
							"internalType": "struct Vehicle.Car",
							"name": "state",
							"type": "tuple"
						},
						{
							"components": [
								{
									"internalType": "string",
									"name": "make",
									"type": "string"
								},
								{
									"internalType": "string",
									"name": "model",
									"type": "string"
								},
								{
									"internalType": "uint256",
									"name": "year",
									"type": "uint256"
								}
							],
							"internalType": "struct Vehicle.Car",
							"name": "local",
							"type": "tuple"
						}
					],
					"stateMutability": "nonpayable",
					"type": "function"
				},
				{
					"inputs": [],
					"name": "setValues_mem",
					"outputs": [
						{
							"components": [
								{
									"internalType": "string",
									"name": "make",
									"type": "string"
								},
								{
									"internalType": "string",
									"name": "model",
									"type": "string"
								},
								{
									"internalType": "uint256",
									"name": "year",
									"type": "uint256"
								}
							],
							"internalType": "struct Vehicle.Car",
							"name": "state",
							"type": "tuple"
						},
						{
							"components": [
								{
									"internalType": "string",
									"name": "make",
									"type": "string"
								},
								{
									"internalType": "string",
									"name": "model",
									"type": "string"
								},
								{
									"internalType": "uint256",
									"name": "year",
									"type": "uint256"
								}
							],
							"internalType": "struct Vehicle.Car",
							"name": "local",
							"type": "tuple"
						}
					],
					"stateMutability": "view",
					"type": "function"
				}
			],
			"devdoc": {
				"kind": "dev",
				"methods": {},
				"version": 1
			},
			"evm": {
				"assembly": "    /* \"Labs (August)/mapping/exe.sol\":61:864  contract Vehicle {... */\n  mstore(0x40, 0x80)\n  callvalue\n  dup1\n  iszero\n  tag_1\n  jumpi\n  0x00\n  dup1\n  revert\ntag_1:\n  pop\n  dataSize(sub_0)\n  dup1\n  dataOffset(sub_0)\n  0x00\n  codecopy\n  0x00\n  return\nstop\n\nsub_0: assembly {\n        /* \"Labs (August)/mapping/exe.sol\":61:864  contract Vehicle {... */\n      mstore(0x40, 0x80)\n      callvalue\n      dup1\n      iszero\n      tag_1\n      jumpi\n      0x00\n      dup1\n      revert\n    tag_1:\n      pop\n      jumpi(tag_2, lt(calldatasize, 0x04))\n      shr(0xe0, calldataload(0x00))\n      dup1\n      0x4e3a6aad\n      eq\n      tag_3\n      jumpi\n      dup1\n      0x800509d5\n      eq\n      tag_4\n      jumpi\n      dup1\n      0xee26fac3\n      eq\n      tag_5\n      jumpi\n    tag_2:\n      0x00\n      dup1\n      revert\n        /* \"Labs (August)/mapping/exe.sol\":604:853  function setValues_mem () public view  returns (Car memory state, Car memory local){... */\n    tag_3:\n      tag_6\n      tag_7\n      jump\t// in\n    tag_6:\n      mload(0x40)\n      tag_8\n      swap3\n      swap2\n      swap1\n      tag_9\n      jump\t// in\n    tag_8:\n      mload(0x40)\n      dup1\n      swap2\n      sub\n      swap1\n      return\n        /* \"Labs (August)/mapping/exe.sol\":270:510  function setValues () public returns (Car memory state, Car memory local){... */\n    tag_4:\n      tag_10\n      tag_11\n      jump\t// in\n    tag_10:\n      mload(0x40)\n      tag_12\n      swap3\n      swap2\n      swap1\n      tag_9\n      jump\t// in\n    tag_12:\n      mload(0x40)\n      dup1\n      swap2\n      sub\n      swap1\n      return\n        /* \"Labs (August)/mapping/exe.sol\":179:193  Car public car */\n    tag_5:\n      tag_13\n      tag_14\n      jump\t// in\n    tag_13:\n      mload(0x40)\n      tag_15\n      swap4\n      swap3\n      swap2\n      swap1\n      tag_16\n      jump\t// in\n    tag_15:\n      mload(0x40)\n      dup1\n      swap2\n      sub\n      swap1\n      return\n        /* \"Labs (August)/mapping/exe.sol\":604:853  function setValues_mem () public view  returns (Car memory state, Car memory local){... */\n    tag_7:\n        /* \"Labs (August)/mapping/exe.sol\":652:668  Car memory state */\n      tag_17\n      tag_18\n      jump\t// in\n    tag_17:\n        /* \"Labs (August)/mapping/exe.sol\":670:686  Car memory local */\n      tag_19\n      tag_18\n      jump\t// in\n    tag_19:\n        /* \"Labs (August)/mapping/exe.sol\":698:713  Car memory cars */\n      0x00\n        /* \"Labs (August)/mapping/exe.sol\":716:719  car */\n      dup1\n        /* \"Labs (August)/mapping/exe.sol\":698:719  Car memory cars = car */\n      mload(0x40)\n      dup1\n      0x60\n      add\n      0x40\n      mstore\n      swap1\n      dup2\n      0x00\n      dup3\n      add\n      dup1\n      sload\n      tag_21\n      swap1\n      tag_22\n      jump\t// in\n    tag_21:\n      dup1\n      0x1f\n      add\n      0x20\n      dup1\n      swap2\n      div\n      mul\n      0x20\n      add\n      mload(0x40)\n      swap1\n      dup2\n      add\n      0x40\n      mstore\n      dup1\n      swap3\n      swap2\n      swap1\n      dup2\n      dup2\n      mstore\n      0x20\n      add\n      dup3\n      dup1\n      sload\n      tag_23\n      swap1\n      tag_22\n      jump\t// in\n    tag_23:\n      dup1\n      iszero\n      tag_24\n      jumpi\n      dup1\n      0x1f\n      lt\n      tag_25\n      jumpi\n      0x0100\n      dup1\n      dup4\n      sload\n      div\n      mul\n      dup4\n      mstore\n      swap2\n      0x20\n      add\n      swap2\n      jump(tag_24)\n    tag_25:\n      dup3\n      add\n      swap2\n      swap1\n      0x00\n      mstore\n      keccak256(0x00, 0x20)\n      swap1\n    tag_26:\n      dup2\n      sload\n      dup2\n      mstore\n      swap1\n      0x01\n      add\n      swap1\n      0x20\n      add\n      dup1\n      dup4\n      gt\n      tag_26\n      jumpi\n      dup3\n      swap1\n      sub\n      0x1f\n      and\n      dup3\n      add\n      swap2\n    tag_24:\n      pop\n      pop\n      pop\n      pop\n      pop\n      dup2\n      mstore\n      0x20\n      add\n      0x01\n      dup3\n      add\n      dup1\n      sload\n      tag_27\n      swap1\n      tag_22\n      jump\t// in\n    tag_27:\n      dup1\n      0x1f\n      add\n      0x20\n      dup1\n      swap2\n      div\n      mul\n      0x20\n      add\n      mload(0x40)\n      swap1\n      dup2\n      add\n      0x40\n      mstore\n      dup1\n      swap3\n      swap2\n      swap1\n      dup2\n      dup2\n      mstore\n      0x20\n      add\n      dup3\n      dup1\n      sload\n      tag_28\n      swap1\n      tag_22\n      jump\t// in\n    tag_28:\n      dup1\n      iszero\n      tag_29\n      jumpi\n      dup1\n      0x1f\n      lt\n      tag_30\n      jumpi\n      0x0100\n      dup1\n      dup4\n      sload\n      div\n      mul\n      dup4\n      mstore\n      swap2\n      0x20\n      add\n      swap2\n      jump(tag_29)\n    tag_30:\n      dup3\n      add\n      swap2\n      swap1\n      0x00\n      mstore\n      keccak256(0x00, 0x20)\n      swap1\n    tag_31:\n      dup2\n      sload\n      dup2\n      mstore\n      swap1\n      0x01\n      add\n      swap1\n      0x20\n      add\n      dup1\n      dup4\n      gt\n      tag_31\n      jumpi\n      dup3\n      swap1\n      sub\n      0x1f\n      and\n      dup3\n      add\n      swap2\n    tag_29:\n      pop\n      pop\n      pop\n      pop\n      pop\n      dup2\n      mstore\n      0x20\n      add\n      0x02\n      dup3\n      add\n      sload\n      dup2\n      mstore\n      pop\n      pop\n      swap1\n      pop\n        /* \"Labs (August)/mapping/exe.sol\":730:750  cars.make = 'Toyota' */\n      mload(0x40)\n      dup1\n      0x40\n      add\n      0x40\n      mstore\n      dup1\n      0x06\n      dup2\n      mstore\n      0x20\n      add\n      0x546f796f74610000000000000000000000000000000000000000000000000000\n      dup2\n      mstore\n      pop\n        /* \"Labs (August)/mapping/exe.sol\":730:734  cars */\n      dup2\n        /* \"Labs (August)/mapping/exe.sol\":730:739  cars.make */\n      0x00\n      add\n        /* \"Labs (August)/mapping/exe.sol\":730:750  cars.make = 'Toyota' */\n      dup2\n      swap1\n      mstore\n      pop\n        /* \"Labs (August)/mapping/exe.sol\":761:787  cars.model = 'Corolla_Xli' */\n      mload(0x40)\n      dup1\n      0x40\n      add\n      0x40\n      mstore\n      dup1\n      0x0b\n      dup2\n      mstore\n      0x20\n      add\n      0x436f726f6c6c615f586c69000000000000000000000000000000000000000000\n      dup2\n      mstore\n      pop\n        /* \"Labs (August)/mapping/exe.sol\":761:765  cars */\n      dup2\n        /* \"Labs (August)/mapping/exe.sol\":761:771  cars.model */\n      0x20\n      add\n        /* \"Labs (August)/mapping/exe.sol\":761:787  cars.model = 'Corolla_Xli' */\n      dup2\n      swap1\n      mstore\n      pop\n        /* \"Labs (August)/mapping/exe.sol\":811:815  2004 */\n      0x07d4\n        /* \"Labs (August)/mapping/exe.sol\":798:802  cars */\n      dup2\n        /* \"Labs (August)/mapping/exe.sol\":798:807  cars.year */\n      0x40\n      add\n        /* \"Labs (August)/mapping/exe.sol\":798:816  cars.year = (2004) */\n      dup2\n      dup2\n      mstore\n      pop\n      pop\n        /* \"Labs (August)/mapping/exe.sol\":835:838  car */\n      0x00\n        /* \"Labs (August)/mapping/exe.sol\":840:844  cars */\n      dup2\n        /* \"Labs (August)/mapping/exe.sol\":827:845  return (car, cars) */\n      dup2\n      mload(0x40)\n      dup1\n      0x60\n      add\n      0x40\n      mstore\n      swap1\n      dup2\n      0x00\n      dup3\n      add\n      dup1\n      sload\n      tag_32\n      swap1\n      tag_22\n      jump\t// in\n    tag_32:\n      dup1\n      0x1f\n      add\n      0x20\n      dup1\n      swap2\n      div\n      mul\n      0x20\n      add\n      mload(0x40)\n      swap1\n      dup2\n      add\n      0x40\n      mstore\n      dup1\n      swap3\n      swap2\n      swap1\n      dup2\n      dup2\n      mstore\n      0x20\n      add\n      dup3\n      dup1\n      sload\n      tag_33\n      swap1\n      tag_22\n      jump\t// in\n    tag_33:\n      dup1\n      iszero\n      tag_34\n      jumpi\n      dup1\n      0x1f\n      lt\n      tag_35\n      jumpi\n      0x0100\n      dup1\n      dup4\n      sload\n      div\n      mul\n      dup4\n      mstore\n      swap2\n      0x20\n      add\n      swap2\n      jump(tag_34)\n    tag_35:\n      dup3\n      add\n      swap2\n      swap1\n      0x00\n      mstore\n      keccak256(0x00, 0x20)\n      swap1\n    tag_36:\n      dup2\n      sload\n      dup2\n      mstore\n      swap1\n      0x01\n      add\n      swap1\n      0x20\n      add\n      dup1\n      dup4\n      gt\n      tag_36\n      jumpi\n      dup3\n      swap1\n      sub\n      0x1f\n      and\n      dup3\n      add\n      swap2\n    tag_34:\n      pop\n      pop\n      pop\n      pop\n      pop\n      dup2\n      mstore\n      0x20\n      add\n      0x01\n      dup3\n      add\n      dup1\n      sload\n      tag_37\n      swap1\n      tag_22\n      jump\t// in\n    tag_37:\n      dup1\n      0x1f\n      add\n      0x20\n      dup1\n      swap2\n      div\n      mul\n      0x20\n      add\n      mload(0x40)\n      swap1\n      dup2\n      add\n      0x40\n      mstore\n      dup1\n      swap3\n      swap2\n      swap1\n      dup2\n      dup2\n      mstore\n      0x20\n      add\n      dup3\n      dup1\n      sload\n      tag_38\n      swap1\n      tag_22\n      jump\t// in\n    tag_38:\n      dup1\n      iszero\n      tag_39\n      jumpi\n      dup1\n      0x1f\n      lt\n      tag_40\n      jumpi\n      0x0100\n      dup1\n      dup4\n      sload\n      div\n      mul\n      dup4\n      mstore\n      swap2\n      0x20\n      add\n      swap2\n      jump(tag_39)\n    tag_40:\n      dup3\n      add\n      swap2\n      swap1\n      0x00\n      mstore\n      keccak256(0x00, 0x20)\n      swap1\n    tag_41:\n      dup2\n      sload\n      dup2\n      mstore\n      swap1\n      0x01\n      add\n      swap1\n      0x20\n      add\n      dup1\n      dup4\n      gt\n      tag_41\n      jumpi\n      dup3\n      swap1\n      sub\n      0x1f\n      and\n      dup3\n      add\n      swap2\n    tag_39:\n      pop\n      pop\n      pop\n      pop\n      pop\n      dup2\n      mstore\n      0x20\n      add\n      0x02\n      dup3\n      add\n      sload\n      dup2\n      mstore\n      pop\n      pop\n      swap2\n      pop\n      swap3\n      pop\n      swap3\n      pop\n      pop\n        /* \"Labs (August)/mapping/exe.sol\":604:853  function setValues_mem () public view  returns (Car memory state, Car memory local){... */\n      swap1\n      swap2\n      jump\t// out\n        /* \"Labs (August)/mapping/exe.sol\":270:510  function setValues () public returns (Car memory state, Car memory local){... */\n    tag_11:\n        /* \"Labs (August)/mapping/exe.sol\":308:324  Car memory state */\n      tag_42\n      tag_18\n      jump\t// in\n    tag_42:\n        /* \"Labs (August)/mapping/exe.sol\":326:342  Car memory local */\n      tag_43\n      tag_18\n      jump\t// in\n    tag_43:\n        /* \"Labs (August)/mapping/exe.sol\":354:370  Car storage cars */\n      0x00\n        /* \"Labs (August)/mapping/exe.sol\":387:407  cars.make = 'Toyota' */\n      mload(0x40)\n      dup1\n      0x40\n      add\n      0x40\n      mstore\n      dup1\n      0x06\n      dup2\n      mstore\n      0x20\n      add\n      0x546f796f74610000000000000000000000000000000000000000000000000000\n      dup2\n      mstore\n      pop\n        /* \"Labs (August)/mapping/exe.sol\":387:391  cars */\n      dup2\n        /* \"Labs (August)/mapping/exe.sol\":387:396  cars.make */\n      0x00\n      add\n        /* \"Labs (August)/mapping/exe.sol\":387:407  cars.make = 'Toyota' */\n      swap1\n      dup2\n      tag_45\n      swap2\n      swap1\n      tag_46\n      jump\t// in\n    tag_45:\n      pop\n        /* \"Labs (August)/mapping/exe.sol\":418:444  cars.model = 'Corolla_Xli' */\n      mload(0x40)\n      dup1\n      0x40\n      add\n      0x40\n      mstore\n      dup1\n      0x0b\n      dup2\n      mstore\n      0x20\n      add\n      0x436f726f6c6c615f586c69000000000000000000000000000000000000000000\n      dup2\n      mstore\n      pop\n        /* \"Labs (August)/mapping/exe.sol\":418:422  cars */\n      dup2\n        /* \"Labs (August)/mapping/exe.sol\":418:428  cars.model */\n      0x01\n      add\n        /* \"Labs (August)/mapping/exe.sol\":418:444  cars.model = 'Corolla_Xli' */\n      swap1\n      dup2\n      tag_47\n      swap2\n      swap1\n      tag_46\n      jump\t// in\n    tag_47:\n      pop\n        /* \"Labs (August)/mapping/exe.sol\":468:472  2004 */\n      0x07d4\n        /* \"Labs (August)/mapping/exe.sol\":455:459  cars */\n      dup2\n        /* \"Labs (August)/mapping/exe.sol\":455:464  cars.year */\n      0x02\n      add\n        /* \"Labs (August)/mapping/exe.sol\":455:473  cars.year = (2004) */\n      dup2\n      swap1\n      sstore\n      pop\n        /* \"Labs (August)/mapping/exe.sol\":492:495  car */\n      0x00\n        /* \"Labs (August)/mapping/exe.sol\":497:501  cars */\n      dup2\n        /* \"Labs (August)/mapping/exe.sol\":484:502  return (car, cars) */\n      dup2\n      mload(0x40)\n      dup1\n      0x60\n      add\n      0x40\n      mstore\n      swap1\n      dup2\n      0x00\n      dup3\n      add\n      dup1\n      sload\n      tag_48\n      swap1\n      tag_22\n      jump\t// in\n    tag_48:\n      dup1\n      0x1f\n      add\n      0x20\n      dup1\n      swap2\n      div\n      mul\n      0x20\n      add\n      mload(0x40)\n      swap1\n      dup2\n      add\n      0x40\n      mstore\n      dup1\n      swap3\n      swap2\n      swap1\n      dup2\n      dup2\n      mstore\n      0x20\n      add\n      dup3\n      dup1\n      sload\n      tag_49\n      swap1\n      tag_22\n      jump\t// in\n    tag_49:\n      dup1\n      iszero\n      tag_50\n      jumpi\n      dup1\n      0x1f\n      lt\n      tag_51\n      jumpi\n      0x0100\n      dup1\n      dup4\n      sload\n      div\n      mul\n      dup4\n      mstore\n      swap2\n      0x20\n      add\n      swap2\n      jump(tag_50)\n    tag_51:\n      dup3\n      add\n      swap2\n      swap1\n      0x00\n      mstore\n      keccak256(0x00, 0x20)\n      swap1\n    tag_52:\n      dup2\n      sload\n      dup2\n      mstore\n      swap1\n      0x01\n      add\n      swap1\n      0x20\n      add\n      dup1\n      dup4\n      gt\n      tag_52\n      jumpi\n      dup3\n      swap1\n      sub\n      0x1f\n      and\n      dup3\n      add\n      swap2\n    tag_50:\n      pop\n      pop\n      pop\n      pop\n      pop\n      dup2\n      mstore\n      0x20\n      add\n      0x01\n      dup3\n      add\n      dup1\n      sload\n      tag_53\n      swap1\n      tag_22\n      jump\t// in\n    tag_53:\n      dup1\n      0x1f\n      add\n      0x20\n      dup1\n      swap2\n      div\n      mul\n      0x20\n      add\n      mload(0x40)\n      swap1\n      dup2\n      add\n      0x40\n      mstore\n      dup1\n      swap3\n      swap2\n      swap1\n      dup2\n      dup2\n      mstore\n      0x20\n      add\n      dup3\n      dup1\n      sload\n      tag_54\n      swap1\n      tag_22\n      jump\t// in\n    tag_54:\n      dup1\n      iszero\n      tag_55\n      jumpi\n      dup1\n      0x1f\n      lt\n      tag_56\n      jumpi\n      0x0100\n      dup1\n      dup4\n      sload\n      div\n      mul\n      dup4\n      mstore\n      swap2\n      0x20\n      add\n      swap2\n      jump(tag_55)\n    tag_56:\n      dup3\n      add\n      swap2\n      swap1\n      0x00\n      mstore\n      keccak256(0x00, 0x20)\n      swap1\n    tag_57:\n      dup2\n      sload\n      dup2\n      mstore\n      swap1\n      0x01\n      add\n      swap1\n      0x20\n      add\n      dup1\n      dup4\n      gt\n      tag_57\n      jumpi\n      dup3\n      swap1\n      sub\n      0x1f\n      and\n      dup3\n      add\n      swap2\n    tag_55:\n      pop\n      pop\n      pop\n      pop\n      pop\n      dup2\n      mstore\n      0x20\n      add\n      0x02\n      dup3\n      add\n      sload\n      dup2\n      mstore\n      pop\n      pop\n      swap2\n      pop\n      dup1\n      mload(0x40)\n      dup1\n      0x60\n      add\n      0x40\n      mstore\n      swap1\n      dup2\n      0x00\n      dup3\n      add\n      dup1\n      sload\n      tag_58\n      swap1\n      tag_22\n      jump\t// in\n    tag_58:\n      dup1\n      0x1f\n      add\n      0x20\n      dup1\n      swap2\n      div\n      mul\n      0x20\n      add\n      mload(0x40)\n      swap1\n      dup2\n      add\n      0x40\n      mstore\n      dup1\n      swap3\n      swap2\n      swap1\n      dup2\n      dup2\n      mstore\n      0x20\n      add\n      dup3\n      dup1\n      sload\n      tag_59\n      swap1\n      tag_22\n      jump\t// in\n    tag_59:\n      dup1\n      iszero\n      tag_60\n      jumpi\n      dup1\n      0x1f\n      lt\n      tag_61\n      jumpi\n      0x0100\n      dup1\n      dup4\n      sload\n      div\n      mul\n      dup4\n      mstore\n      swap2\n      0x20\n      add\n      swap2\n      jump(tag_60)\n    tag_61:\n      dup3\n      add\n      swap2\n      swap1\n      0x00\n      mstore\n      keccak256(0x00, 0x20)\n      swap1\n    tag_62:\n      dup2\n      sload\n      dup2\n      mstore\n      swap1\n      0x01\n      add\n      swap1\n      0x20\n      add\n      dup1\n      dup4\n      gt\n      tag_62\n      jumpi\n      dup3\n      swap1\n      sub\n      0x1f\n      and\n      dup3\n      add\n      swap2\n    tag_60:\n      pop\n      pop\n      pop\n      pop\n      pop\n      dup2\n      mstore\n      0x20\n      add\n      0x01\n      dup3\n      add\n      dup1\n      sload\n      tag_63\n      swap1\n      tag_22\n      jump\t// in\n    tag_63:\n      dup1\n      0x1f\n      add\n      0x20\n      dup1\n      swap2\n      div\n      mul\n      0x20\n      add\n      mload(0x40)\n      swap1\n      dup2\n      add\n      0x40\n      mstore\n      dup1\n      swap3\n      swap2\n      swap1\n      dup2\n      dup2\n      mstore\n      0x20\n      add\n      dup3\n      dup1\n      sload\n      tag_64\n      swap1\n      tag_22\n      jump\t// in\n    tag_64:\n      dup1\n      iszero\n      tag_65\n      jumpi\n      dup1\n      0x1f\n      lt\n      tag_66\n      jumpi\n      0x0100\n      dup1\n      dup4\n      sload\n      div\n      mul\n      dup4\n      mstore\n      swap2\n      0x20\n      add\n      swap2\n      jump(tag_65)\n    tag_66:\n      dup3\n      add\n      swap2\n      swap1\n      0x00\n      mstore\n      keccak256(0x00, 0x20)\n      swap1\n    tag_67:\n      dup2\n      sload\n      dup2\n      mstore\n      swap1\n      0x01\n      add\n      swap1\n      0x20\n      add\n      dup1\n      dup4\n      gt\n      tag_67\n      jumpi\n      dup3\n      swap1\n      sub\n      0x1f\n      and\n      dup3\n      add\n      swap2\n    tag_65:\n      pop\n      pop\n      pop\n      pop\n      pop\n      dup2\n      mstore\n      0x20\n      add\n      0x02\n      dup3\n      add\n      sload\n      dup2\n      mstore\n      pop\n      pop\n      swap1\n      pop\n      swap3\n      pop\n      swap3\n      pop\n      pop\n        /* \"Labs (August)/mapping/exe.sol\":270:510  function setValues () public returns (Car memory state, Car memory local){... */\n      swap1\n      swap2\n      jump\t// out\n        /* \"Labs (August)/mapping/exe.sol\":179:193  Car public car */\n    tag_14:\n      0x00\n      dup1\n      0x00\n      add\n      dup1\n      sload\n      tag_68\n      swap1\n      tag_22\n      jump\t// in\n    tag_68:\n      dup1\n      0x1f\n      add\n      0x20\n      dup1\n      swap2\n      div\n      mul\n      0x20\n      add\n      mload(0x40)\n      swap1\n      dup2\n      add\n      0x40\n      mstore\n      dup1\n      swap3\n      swap2\n      swap1\n      dup2\n      dup2\n      mstore\n      0x20\n      add\n      dup3\n      dup1\n      sload\n      tag_69\n      swap1\n      tag_22\n      jump\t// in\n    tag_69:\n      dup1\n      iszero\n      tag_70\n      jumpi\n      dup1\n      0x1f\n      lt\n      tag_71\n      jumpi\n      0x0100\n      dup1\n      dup4\n      sload\n      div\n      mul\n      dup4\n      mstore\n      swap2\n      0x20\n      add\n      swap2\n      jump(tag_70)\n    tag_71:\n      dup3\n      add\n      swap2\n      swap1\n      0x00\n      mstore\n      keccak256(0x00, 0x20)\n      swap1\n    tag_72:\n      dup2\n      sload\n      dup2\n      mstore\n      swap1\n      0x01\n      add\n      swap1\n      0x20\n      add\n      dup1\n      dup4\n      gt\n      tag_72\n      jumpi\n      dup3\n      swap1\n      sub\n      0x1f\n      and\n      dup3\n      add\n      swap2\n    tag_70:\n      pop\n      pop\n      pop\n      pop\n      pop\n      swap1\n      dup1\n      0x01\n      add\n      dup1\n      sload\n      tag_73\n      swap1\n      tag_22\n      jump\t// in\n    tag_73:\n      dup1\n      0x1f\n      add\n      0x20\n      dup1\n      swap2\n      div\n      mul\n      0x20\n      add\n      mload(0x40)\n      swap1\n      dup2\n      add\n      0x40\n      mstore\n      dup1\n      swap3\n      swap2\n      swap1\n      dup2\n      dup2\n      mstore\n      0x20\n      add\n      dup3\n      dup1\n      sload\n      tag_74\n      swap1\n      tag_22\n      jump\t// in\n    tag_74:\n      dup1\n      iszero\n      tag_75\n      jumpi\n      dup1\n      0x1f\n      lt\n      tag_76\n      jumpi\n      0x0100\n      dup1\n      dup4\n      sload\n      div\n      mul\n      dup4\n      mstore\n      swap2\n      0x20\n      add\n      swap2\n      jump(tag_75)\n    tag_76:\n      dup3\n      add\n      swap2\n      swap1\n      0x00\n      mstore\n      keccak256(0x00, 0x20)\n      swap1\n    tag_77:\n      dup2\n      sload\n      dup2\n      mstore\n      swap1\n      0x01\n      add\n      swap1\n      0x20\n      add\n      dup1\n      dup4\n      gt\n      tag_77\n      jumpi\n      dup3\n      swap1\n      sub\n      0x1f\n      and\n      dup3\n      add\n      swap2\n    tag_75:\n      pop\n      pop\n      pop\n      pop\n      pop\n      swap1\n      dup1\n      0x02\n      add\n      sload\n      swap1\n      pop\n      dup4\n      jump\t// out\n    tag_18:\n      mload(0x40)\n      dup1\n      0x60\n      add\n      0x40\n      mstore\n      dup1\n      0x60\n      dup2\n      mstore\n      0x20\n      add\n      0x60\n      dup2\n      mstore\n      0x20\n      add\n      0x00\n      dup2\n      mstore\n      pop\n      swap1\n      jump\t// out\n        /* \"#utility.yul\":7:106   */\n    tag_78:\n        /* \"#utility.yul\":59:65   */\n      0x00\n        /* \"#utility.yul\":93:98   */\n      dup2\n        /* \"#utility.yul\":87:99   */\n      mload\n        /* \"#utility.yul\":77:99   */\n      swap1\n      pop\n        /* \"#utility.yul\":7:106   */\n      swap2\n      swap1\n      pop\n      jump\t// out\n        /* \"#utility.yul\":112:271   */\n    tag_79:\n        /* \"#utility.yul\":186:197   */\n      0x00\n        /* \"#utility.yul\":220:226   */\n      dup3\n        /* \"#utility.yul\":215:218   */\n      dup3\n        /* \"#utility.yul\":208:227   */\n      mstore\n        /* \"#utility.yul\":260:264   */\n      0x20\n        /* \"#utility.yul\":255:258   */\n      dup3\n        /* \"#utility.yul\":251:265   */\n      add\n        /* \"#utility.yul\":236:265   */\n      swap1\n      pop\n        /* \"#utility.yul\":112:271   */\n      swap3\n      swap2\n      pop\n      pop\n      jump\t// out\n        /* \"#utility.yul\":277:523   */\n    tag_80:\n        /* \"#utility.yul\":358:359   */\n      0x00\n        /* \"#utility.yul\":368:481   */\n    tag_110:\n        /* \"#utility.yul\":382:388   */\n      dup4\n        /* \"#utility.yul\":379:380   */\n      dup2\n        /* \"#utility.yul\":376:389   */\n      lt\n        /* \"#utility.yul\":368:481   */\n      iszero\n      tag_112\n      jumpi\n        /* \"#utility.yul\":467:468   */\n      dup1\n        /* \"#utility.yul\":462:465   */\n      dup3\n        /* \"#utility.yul\":458:469   */\n      add\n        /* \"#utility.yul\":452:470   */\n      mload\n        /* \"#utility.yul\":448:449   */\n      dup2\n        /* \"#utility.yul\":443:446   */\n      dup5\n        /* \"#utility.yul\":439:450   */\n      add\n        /* \"#utility.yul\":432:471   */\n      mstore\n        /* \"#utility.yul\":404:406   */\n      0x20\n        /* \"#utility.yul\":401:402   */\n      dup2\n        /* \"#utility.yul\":397:407   */\n      add\n        /* \"#utility.yul\":392:407   */\n      swap1\n      pop\n        /* \"#utility.yul\":368:481   */\n      jump(tag_110)\n    tag_112:\n        /* \"#utility.yul\":515:516   */\n      0x00\n        /* \"#utility.yul\":506:512   */\n      dup5\n        /* \"#utility.yul\":501:504   */\n      dup5\n        /* \"#utility.yul\":497:513   */\n      add\n        /* \"#utility.yul\":490:517   */\n      mstore\n        /* \"#utility.yul\":339:523   */\n      pop\n        /* \"#utility.yul\":277:523   */\n      pop\n      pop\n      pop\n      jump\t// out\n        /* \"#utility.yul\":529:631   */\n    tag_81:\n        /* \"#utility.yul\":570:576   */\n      0x00\n        /* \"#utility.yul\":621:623   */\n      0x1f\n        /* \"#utility.yul\":617:624   */\n      not\n        /* \"#utility.yul\":612:614   */\n      0x1f\n        /* \"#utility.yul\":605:610   */\n      dup4\n        /* \"#utility.yul\":601:615   */\n      add\n        /* \"#utility.yul\":597:625   */\n      and\n        /* \"#utility.yul\":587:625   */\n      swap1\n      pop\n        /* \"#utility.yul\":529:631   */\n      swap2\n      swap1\n      pop\n      jump\t// out\n        /* \"#utility.yul\":637:994   */\n    tag_82:\n        /* \"#utility.yul\":715:718   */\n      0x00\n        /* \"#utility.yul\":743:782   */\n      tag_115\n        /* \"#utility.yul\":776:781   */\n      dup3\n        /* \"#utility.yul\":743:782   */\n      tag_78\n      jump\t// in\n    tag_115:\n        /* \"#utility.yul\":798:859   */\n      tag_116\n        /* \"#utility.yul\":852:858   */\n      dup2\n        /* \"#utility.yul\":847:850   */\n      dup6\n        /* \"#utility.yul\":798:859   */\n      tag_79\n      jump\t// in\n    tag_116:\n        /* \"#utility.yul\":791:859   */\n      swap4\n      pop\n        /* \"#utility.yul\":868:933   */\n      tag_117\n        /* \"#utility.yul\":926:932   */\n      dup2\n        /* \"#utility.yul\":921:924   */\n      dup6\n        /* \"#utility.yul\":914:918   */\n      0x20\n        /* \"#utility.yul\":907:912   */\n      dup7\n        /* \"#utility.yul\":903:919   */\n      add\n        /* \"#utility.yul\":868:933   */\n      tag_80\n      jump\t// in\n    tag_117:\n        /* \"#utility.yul\":958:987   */\n      tag_118\n        /* \"#utility.yul\":980:986   */\n      dup2\n        /* \"#utility.yul\":958:987   */\n      tag_81\n      jump\t// in\n    tag_118:\n        /* \"#utility.yul\":953:956   */\n      dup5\n        /* \"#utility.yul\":949:988   */\n      add\n        /* \"#utility.yul\":942:988   */\n      swap2\n      pop\n        /* \"#utility.yul\":719:994   */\n      pop\n        /* \"#utility.yul\":637:994   */\n      swap3\n      swap2\n      pop\n      pop\n      jump\t// out\n        /* \"#utility.yul\":1000:1077   */\n    tag_83:\n        /* \"#utility.yul\":1037:1044   */\n      0x00\n        /* \"#utility.yul\":1066:1071   */\n      dup2\n        /* \"#utility.yul\":1055:1071   */\n      swap1\n      pop\n        /* \"#utility.yul\":1000:1077   */\n      swap2\n      swap1\n      pop\n      jump\t// out\n        /* \"#utility.yul\":1083:1191   */\n    tag_84:\n        /* \"#utility.yul\":1160:1184   */\n      tag_121\n        /* \"#utility.yul\":1178:1183   */\n      dup2\n        /* \"#utility.yul\":1160:1184   */\n      tag_83\n      jump\t// in\n    tag_121:\n        /* \"#utility.yul\":1155:1158   */\n      dup3\n        /* \"#utility.yul\":1148:1185   */\n      mstore\n        /* \"#utility.yul\":1083:1191   */\n      pop\n      pop\n      jump\t// out\n        /* \"#utility.yul\":1245:2083   */\n    tag_85:\n        /* \"#utility.yul\":1350:1353   */\n      0x00\n        /* \"#utility.yul\":1386:1390   */\n      0x60\n        /* \"#utility.yul\":1381:1384   */\n      dup4\n        /* \"#utility.yul\":1377:1391   */\n      add\n        /* \"#utility.yul\":1473:1477   */\n      0x00\n        /* \"#utility.yul\":1466:1471   */\n      dup4\n        /* \"#utility.yul\":1462:1478   */\n      add\n        /* \"#utility.yul\":1456:1479   */\n      mload\n        /* \"#utility.yul\":1526:1529   */\n      dup5\n        /* \"#utility.yul\":1520:1524   */\n      dup3\n        /* \"#utility.yul\":1516:1530   */\n      sub\n        /* \"#utility.yul\":1509:1513   */\n      0x00\n        /* \"#utility.yul\":1504:1507   */\n      dup7\n        /* \"#utility.yul\":1500:1514   */\n      add\n        /* \"#utility.yul\":1493:1531   */\n      mstore\n        /* \"#utility.yul\":1552:1625   */\n      tag_123\n        /* \"#utility.yul\":1620:1624   */\n      dup3\n        /* \"#utility.yul\":1606:1618   */\n      dup3\n        /* \"#utility.yul\":1552:1625   */\n      tag_82\n      jump\t// in\n    tag_123:\n        /* \"#utility.yul\":1544:1625   */\n      swap2\n      pop\n        /* \"#utility.yul\":1401:1636   */\n      pop\n        /* \"#utility.yul\":1719:1723   */\n      0x20\n        /* \"#utility.yul\":1712:1717   */\n      dup4\n        /* \"#utility.yul\":1708:1724   */\n      add\n        /* \"#utility.yul\":1702:1725   */\n      mload\n        /* \"#utility.yul\":1772:1775   */\n      dup5\n        /* \"#utility.yul\":1766:1770   */\n      dup3\n        /* \"#utility.yul\":1762:1776   */\n      sub\n        /* \"#utility.yul\":1755:1759   */\n      0x20\n        /* \"#utility.yul\":1750:1753   */\n      dup7\n        /* \"#utility.yul\":1746:1760   */\n      add\n        /* \"#utility.yul\":1739:1777   */\n      mstore\n        /* \"#utility.yul\":1798:1871   */\n      tag_124\n        /* \"#utility.yul\":1866:1870   */\n      dup3\n        /* \"#utility.yul\":1852:1864   */\n      dup3\n        /* \"#utility.yul\":1798:1871   */\n      tag_82\n      jump\t// in\n    tag_124:\n        /* \"#utility.yul\":1790:1871   */\n      swap2\n      pop\n        /* \"#utility.yul\":1646:1882   */\n      pop\n        /* \"#utility.yul\":1964:1968   */\n      0x40\n        /* \"#utility.yul\":1957:1962   */\n      dup4\n        /* \"#utility.yul\":1953:1969   */\n      add\n        /* \"#utility.yul\":1947:1970   */\n      mload\n        /* \"#utility.yul\":1983:2046   */\n      tag_125\n        /* \"#utility.yul\":2040:2044   */\n      0x40\n        /* \"#utility.yul\":2035:2038   */\n      dup7\n        /* \"#utility.yul\":2031:2045   */\n      add\n        /* \"#utility.yul\":2017:2029   */\n      dup3\n        /* \"#utility.yul\":1983:2046   */\n      tag_84\n      jump\t// in\n    tag_125:\n        /* \"#utility.yul\":1892:2056   */\n      pop\n        /* \"#utility.yul\":2073:2077   */\n      dup1\n        /* \"#utility.yul\":2066:2077   */\n      swap2\n      pop\n        /* \"#utility.yul\":1355:2083   */\n      pop\n        /* \"#utility.yul\":1245:2083   */\n      swap3\n      swap2\n      pop\n      pop\n      jump\t// out\n        /* \"#utility.yul\":2089:2667   */\n    tag_9:\n        /* \"#utility.yul\":2282:2286   */\n      0x00\n        /* \"#utility.yul\":2320:2322   */\n      0x40\n        /* \"#utility.yul\":2309:2318   */\n      dup3\n        /* \"#utility.yul\":2305:2323   */\n      add\n        /* \"#utility.yul\":2297:2323   */\n      swap1\n      pop\n        /* \"#utility.yul\":2369:2378   */\n      dup2\n        /* \"#utility.yul\":2363:2367   */\n      dup2\n        /* \"#utility.yul\":2359:2379   */\n      sub\n        /* \"#utility.yul\":2355:2356   */\n      0x00\n        /* \"#utility.yul\":2344:2353   */\n      dup4\n        /* \"#utility.yul\":2340:2357   */\n      add\n        /* \"#utility.yul\":2333:2380   */\n      mstore\n        /* \"#utility.yul\":2397:2491   */\n      tag_127\n        /* \"#utility.yul\":2486:2490   */\n      dup2\n        /* \"#utility.yul\":2477:2483   */\n      dup6\n        /* \"#utility.yul\":2397:2491   */\n      tag_85\n      jump\t// in\n    tag_127:\n        /* \"#utility.yul\":2389:2491   */\n      swap1\n      pop\n        /* \"#utility.yul\":2538:2547   */\n      dup2\n        /* \"#utility.yul\":2532:2536   */\n      dup2\n        /* \"#utility.yul\":2528:2548   */\n      sub\n        /* \"#utility.yul\":2523:2525   */\n      0x20\n        /* \"#utility.yul\":2512:2521   */\n      dup4\n        /* \"#utility.yul\":2508:2526   */\n      add\n        /* \"#utility.yul\":2501:2549   */\n      mstore\n        /* \"#utility.yul\":2566:2660   */\n      tag_128\n        /* \"#utility.yul\":2655:2659   */\n      dup2\n        /* \"#utility.yul\":2646:2652   */\n      dup5\n        /* \"#utility.yul\":2566:2660   */\n      tag_85\n      jump\t// in\n    tag_128:\n        /* \"#utility.yul\":2558:2660   */\n      swap1\n      pop\n        /* \"#utility.yul\":2089:2667   */\n      swap4\n      swap3\n      pop\n      pop\n      pop\n      jump\t// out\n        /* \"#utility.yul\":2673:2842   */\n    tag_86:\n        /* \"#utility.yul\":2757:2768   */\n      0x00\n        /* \"#utility.yul\":2791:2797   */\n      dup3\n        /* \"#utility.yul\":2786:2789   */\n      dup3\n        /* \"#utility.yul\":2779:2798   */\n      mstore\n        /* \"#utility.yul\":2831:2835   */\n      0x20\n        /* \"#utility.yul\":2826:2829   */\n      dup3\n        /* \"#utility.yul\":2822:2836   */\n      add\n        /* \"#utility.yul\":2807:2836   */\n      swap1\n      pop\n        /* \"#utility.yul\":2673:2842   */\n      swap3\n      swap2\n      pop\n      pop\n      jump\t// out\n        /* \"#utility.yul\":2848:3225   */\n    tag_87:\n        /* \"#utility.yul\":2936:2939   */\n      0x00\n        /* \"#utility.yul\":2964:3003   */\n      tag_131\n        /* \"#utility.yul\":2997:3002   */\n      dup3\n        /* \"#utility.yul\":2964:3003   */\n      tag_78\n      jump\t// in\n    tag_131:\n        /* \"#utility.yul\":3019:3090   */\n      tag_132\n        /* \"#utility.yul\":3083:3089   */\n      dup2\n        /* \"#utility.yul\":3078:3081   */\n      dup6\n        /* \"#utility.yul\":3019:3090   */\n      tag_86\n      jump\t// in\n    tag_132:\n        /* \"#utility.yul\":3012:3090   */\n      swap4\n      pop\n        /* \"#utility.yul\":3099:3164   */\n      tag_133\n        /* \"#utility.yul\":3157:3163   */\n      dup2\n        /* \"#utility.yul\":3152:3155   */\n      dup6\n        /* \"#utility.yul\":3145:3149   */\n      0x20\n        /* \"#utility.yul\":3138:3143   */\n      dup7\n        /* \"#utility.yul\":3134:3150   */\n      add\n        /* \"#utility.yul\":3099:3164   */\n      tag_80\n      jump\t// in\n    tag_133:\n        /* \"#utility.yul\":3189:3218   */\n      tag_134\n        /* \"#utility.yul\":3211:3217   */\n      dup2\n        /* \"#utility.yul\":3189:3218   */\n      tag_81\n      jump\t// in\n    tag_134:\n        /* \"#utility.yul\":3184:3187   */\n      dup5\n        /* \"#utility.yul\":3180:3219   */\n      add\n        /* \"#utility.yul\":3173:3219   */\n      swap2\n      pop\n        /* \"#utility.yul\":2940:3225   */\n      pop\n        /* \"#utility.yul\":2848:3225   */\n      swap3\n      swap2\n      pop\n      pop\n      jump\t// out\n        /* \"#utility.yul\":3231:3349   */\n    tag_88:\n        /* \"#utility.yul\":3318:3342   */\n      tag_136\n        /* \"#utility.yul\":3336:3341   */\n      dup2\n        /* \"#utility.yul\":3318:3342   */\n      tag_83\n      jump\t// in\n    tag_136:\n        /* \"#utility.yul\":3313:3316   */\n      dup3\n        /* \"#utility.yul\":3306:3343   */\n      mstore\n        /* \"#utility.yul\":3231:3349   */\n      pop\n      pop\n      jump\t// out\n        /* \"#utility.yul\":3355:3979   */\n    tag_16:\n        /* \"#utility.yul\":3544:3548   */\n      0x00\n        /* \"#utility.yul\":3582:3584   */\n      0x60\n        /* \"#utility.yul\":3571:3580   */\n      dup3\n        /* \"#utility.yul\":3567:3585   */\n      add\n        /* \"#utility.yul\":3559:3585   */\n      swap1\n      pop\n        /* \"#utility.yul\":3631:3640   */\n      dup2\n        /* \"#utility.yul\":3625:3629   */\n      dup2\n        /* \"#utility.yul\":3621:3641   */\n      sub\n        /* \"#utility.yul\":3617:3618   */\n      0x00\n        /* \"#utility.yul\":3606:3615   */\n      dup4\n        /* \"#utility.yul\":3602:3619   */\n      add\n        /* \"#utility.yul\":3595:3642   */\n      mstore\n        /* \"#utility.yul\":3659:3737   */\n      tag_138\n        /* \"#utility.yul\":3732:3736   */\n      dup2\n        /* \"#utility.yul\":3723:3729   */\n      dup7\n        /* \"#utility.yul\":3659:3737   */\n      tag_87\n      jump\t// in\n    tag_138:\n        /* \"#utility.yul\":3651:3737   */\n      swap1\n      pop\n        /* \"#utility.yul\":3784:3793   */\n      dup2\n        /* \"#utility.yul\":3778:3782   */\n      dup2\n        /* \"#utility.yul\":3774:3794   */\n      sub\n        /* \"#utility.yul\":3769:3771   */\n      0x20\n        /* \"#utility.yul\":3758:3767   */\n      dup4\n        /* \"#utility.yul\":3754:3772   */\n      add\n        /* \"#utility.yul\":3747:3795   */\n      mstore\n        /* \"#utility.yul\":3812:3890   */\n      tag_139\n        /* \"#utility.yul\":3885:3889   */\n      dup2\n        /* \"#utility.yul\":3876:3882   */\n      dup6\n        /* \"#utility.yul\":3812:3890   */\n      tag_87\n      jump\t// in\n    tag_139:\n        /* \"#utility.yul\":3804:3890   */\n      swap1\n      pop\n        /* \"#utility.yul\":3900:3972   */\n      tag_140\n        /* \"#utility.yul\":3968:3970   */\n      0x40\n        /* \"#utility.yul\":3957:3966   */\n      dup4\n        /* \"#utility.yul\":3953:3971   */\n      add\n        /* \"#utility.yul\":3944:3950   */\n      dup5\n        /* \"#utility.yul\":3900:3972   */\n      tag_88\n      jump\t// in\n    tag_140:\n        /* \"#utility.yul\":3355:3979   */\n      swap5\n      swap4\n      pop\n      pop\n      pop\n      pop\n      jump\t// out\n        /* \"#utility.yul\":3985:4165   */\n    tag_89:\n        /* \"#utility.yul\":4033:4110   */\n      0x4e487b7100000000000000000000000000000000000000000000000000000000\n        /* \"#utility.yul\":4030:4031   */\n      0x00\n        /* \"#utility.yul\":4023:4111   */\n      mstore\n        /* \"#utility.yul\":4130:4134   */\n      0x22\n        /* \"#utility.yul\":4127:4128   */\n      0x04\n        /* \"#utility.yul\":4120:4135   */\n      mstore\n        /* \"#utility.yul\":4154:4158   */\n      0x24\n        /* \"#utility.yul\":4151:4152   */\n      0x00\n        /* \"#utility.yul\":4144:4159   */\n      revert\n        /* \"#utility.yul\":4171:4491   */\n    tag_22:\n        /* \"#utility.yul\":4215:4221   */\n      0x00\n        /* \"#utility.yul\":4252:4253   */\n      0x02\n        /* \"#utility.yul\":4246:4250   */\n      dup3\n        /* \"#utility.yul\":4242:4254   */\n      div\n        /* \"#utility.yul\":4232:4254   */\n      swap1\n      pop\n        /* \"#utility.yul\":4299:4300   */\n      0x01\n        /* \"#utility.yul\":4293:4297   */\n      dup3\n        /* \"#utility.yul\":4289:4301   */\n      and\n        /* \"#utility.yul\":4320:4338   */\n      dup1\n        /* \"#utility.yul\":4310:4391   */\n      tag_143\n      jumpi\n        /* \"#utility.yul\":4376:4380   */\n      0x7f\n        /* \"#utility.yul\":4368:4374   */\n      dup3\n        /* \"#utility.yul\":4364:4381   */\n      and\n        /* \"#utility.yul\":4354:4381   */\n      swap2\n      pop\n        /* \"#utility.yul\":4310:4391   */\n    tag_143:\n        /* \"#utility.yul\":4438:4440   */\n      0x20\n        /* \"#utility.yul\":4430:4436   */\n      dup3\n        /* \"#utility.yul\":4427:4441   */\n      lt\n        /* \"#utility.yul\":4407:4425   */\n      dup2\n        /* \"#utility.yul\":4404:4442   */\n      sub\n        /* \"#utility.yul\":4401:4485   */\n      tag_144\n      jumpi\n        /* \"#utility.yul\":4457:4475   */\n      tag_145\n      tag_89\n      jump\t// in\n    tag_145:\n        /* \"#utility.yul\":4401:4485   */\n    tag_144:\n        /* \"#utility.yul\":4222:4491   */\n      pop\n        /* \"#utility.yul\":4171:4491   */\n      swap2\n      swap1\n      pop\n      jump\t// out\n        /* \"#utility.yul\":4497:4677   */\n    tag_90:\n        /* \"#utility.yul\":4545:4622   */\n      0x4e487b7100000000000000000000000000000000000000000000000000000000\n        /* \"#utility.yul\":4542:4543   */\n      0x00\n        /* \"#utility.yul\":4535:4623   */\n      mstore\n        /* \"#utility.yul\":4642:4646   */\n      0x41\n        /* \"#utility.yul\":4639:4640   */\n      0x04\n        /* \"#utility.yul\":4632:4647   */\n      mstore\n        /* \"#utility.yul\":4666:4670   */\n      0x24\n        /* \"#utility.yul\":4663:4664   */\n      0x00\n        /* \"#utility.yul\":4656:4671   */\n      revert\n        /* \"#utility.yul\":4683:4824   */\n    tag_91:\n        /* \"#utility.yul\":4732:4736   */\n      0x00\n        /* \"#utility.yul\":4755:4758   */\n      dup2\n        /* \"#utility.yul\":4747:4758   */\n      swap1\n      pop\n        /* \"#utility.yul\":4778:4781   */\n      dup2\n        /* \"#utility.yul\":4775:4776   */\n      0x00\n        /* \"#utility.yul\":4768:4782   */\n      mstore\n        /* \"#utility.yul\":4812:4816   */\n      0x20\n        /* \"#utility.yul\":4809:4810   */\n      0x00\n        /* \"#utility.yul\":4799:4817   */\n      keccak256\n        /* \"#utility.yul\":4791:4817   */\n      swap1\n      pop\n        /* \"#utility.yul\":4683:4824   */\n      swap2\n      swap1\n      pop\n      jump\t// out\n        /* \"#utility.yul\":4830:4923   */\n    tag_92:\n        /* \"#utility.yul\":4867:4873   */\n      0x00\n        /* \"#utility.yul\":4914:4916   */\n      0x20\n        /* \"#utility.yul\":4909:4911   */\n      0x1f\n        /* \"#utility.yul\":4902:4907   */\n      dup4\n        /* \"#utility.yul\":4898:4912   */\n      add\n        /* \"#utility.yul\":4894:4917   */\n      div\n        /* \"#utility.yul\":4884:4917   */\n      swap1\n      pop\n        /* \"#utility.yul\":4830:4923   */\n      swap2\n      swap1\n      pop\n      jump\t// out\n        /* \"#utility.yul\":4929:5036   */\n    tag_93:\n        /* \"#utility.yul\":4973:4981   */\n      0x00\n        /* \"#utility.yul\":5023:5028   */\n      dup3\n        /* \"#utility.yul\":5017:5021   */\n      dup3\n        /* \"#utility.yul\":5013:5029   */\n      shl\n        /* \"#utility.yul\":4992:5029   */\n      swap1\n      pop\n        /* \"#utility.yul\":4929:5036   */\n      swap3\n      swap2\n      pop\n      pop\n      jump\t// out\n        /* \"#utility.yul\":5042:5435   */\n    tag_94:\n        /* \"#utility.yul\":5111:5117   */\n      0x00\n        /* \"#utility.yul\":5161:5162   */\n      0x08\n        /* \"#utility.yul\":5149:5159   */\n      dup4\n        /* \"#utility.yul\":5145:5163   */\n      mul\n        /* \"#utility.yul\":5184:5281   */\n      tag_151\n        /* \"#utility.yul\":5214:5280   */\n      0xffffffffffffffffffffffffffffffffffffffffffffffffffffffffffffffff\n        /* \"#utility.yul\":5203:5212   */\n      dup3\n        /* \"#utility.yul\":5184:5281   */\n      tag_93\n      jump\t// in\n    tag_151:\n        /* \"#utility.yul\":5302:5341   */\n      tag_152\n        /* \"#utility.yul\":5332:5340   */\n      dup7\n        /* \"#utility.yul\":5321:5330   */\n      dup4\n        /* \"#utility.yul\":5302:5341   */\n      tag_93\n      jump\t// in\n    tag_152:\n        /* \"#utility.yul\":5290:5341   */\n      swap6\n      pop\n        /* \"#utility.yul\":5374:5378   */\n      dup1\n        /* \"#utility.yul\":5370:5379   */\n      not\n        /* \"#utility.yul\":5363:5368   */\n      dup5\n        /* \"#utility.yul\":5359:5380   */\n      and\n        /* \"#utility.yul\":5350:5380   */\n      swap4\n      pop\n        /* \"#utility.yul\":5423:5427   */\n      dup1\n        /* \"#utility.yul\":5413:5421   */\n      dup7\n        /* \"#utility.yul\":5409:5428   */\n      and\n        /* \"#utility.yul\":5402:5407   */\n      dup5\n        /* \"#utility.yul\":5399:5429   */\n      or\n        /* \"#utility.yul\":5389:5429   */\n      swap3\n      pop\n        /* \"#utility.yul\":5118:5435   */\n      pop\n      pop\n        /* \"#utility.yul\":5042:5435   */\n      swap4\n      swap3\n      pop\n      pop\n      pop\n      jump\t// out\n        /* \"#utility.yul\":5441:5501   */\n    tag_95:\n        /* \"#utility.yul\":5469:5472   */\n      0x00\n        /* \"#utility.yul\":5490:5495   */\n      dup2\n        /* \"#utility.yul\":5483:5495   */\n      swap1\n      pop\n        /* \"#utility.yul\":5441:5501   */\n      swap2\n      swap1\n      pop\n      jump\t// out\n        /* \"#utility.yul\":5507:5649   */\n    tag_96:\n        /* \"#utility.yul\":5557:5566   */\n      0x00\n        /* \"#utility.yul\":5590:5643   */\n      tag_155\n        /* \"#utility.yul\":5608:5642   */\n      tag_156\n        /* \"#utility.yul\":5617:5641   */\n      tag_157\n        /* \"#utility.yul\":5635:5640   */\n      dup5\n        /* \"#utility.yul\":5617:5641   */\n      tag_83\n      jump\t// in\n    tag_157:\n        /* \"#utility.yul\":5608:5642   */\n      tag_95\n      jump\t// in\n    tag_156:\n        /* \"#utility.yul\":5590:5643   */\n      tag_83\n      jump\t// in\n    tag_155:\n        /* \"#utility.yul\":5577:5643   */\n      swap1\n      pop\n        /* \"#utility.yul\":5507:5649   */\n      swap2\n      swap1\n      pop\n      jump\t// out\n        /* \"#utility.yul\":5655:5730   */\n    tag_97:\n        /* \"#utility.yul\":5698:5701   */\n      0x00\n        /* \"#utility.yul\":5719:5724   */\n      dup2\n        /* \"#utility.yul\":5712:5724   */\n      swap1\n      pop\n        /* \"#utility.yul\":5655:5730   */\n      swap2\n      swap1\n      pop\n      jump\t// out\n        /* \"#utility.yul\":5736:6005   */\n    tag_98:\n        /* \"#utility.yul\":5846:5885   */\n      tag_160\n        /* \"#utility.yul\":5877:5884   */\n      dup4\n        /* \"#utility.yul\":5846:5885   */\n      tag_96\n      jump\t// in\n    tag_160:\n        /* \"#utility.yul\":5907:5998   */\n      tag_161\n        /* \"#utility.yul\":5956:5997   */\n      tag_162\n        /* \"#utility.yul\":5980:5996   */\n      dup3\n        /* \"#utility.yul\":5956:5997   */\n      tag_97\n      jump\t// in\n    tag_162:\n        /* \"#utility.yul\":5948:5954   */\n      dup5\n        /* \"#utility.yul\":5941:5945   */\n      dup5\n        /* \"#utility.yul\":5935:5946   */\n      sload\n        /* \"#utility.yul\":5907:5998   */\n      tag_94\n      jump\t// in\n    tag_161:\n        /* \"#utility.yul\":5901:5905   */\n      dup3\n        /* \"#utility.yul\":5894:5999   */\n      sstore\n        /* \"#utility.yul\":5812:6005   */\n      pop\n        /* \"#utility.yul\":5736:6005   */\n      pop\n      pop\n      pop\n      jump\t// out\n        /* \"#utility.yul\":6011:6084   */\n    tag_99:\n        /* \"#utility.yul\":6056:6059   */\n      0x00\n        /* \"#utility.yul\":6011:6084   */\n      swap1\n      jump\t// out\n        /* \"#utility.yul\":6090:6279   */\n    tag_100:\n        /* \"#utility.yul\":6167:6199   */\n      tag_165\n      tag_99\n      jump\t// in\n    tag_165:\n        /* \"#utility.yul\":6208:6273   */\n      tag_166\n        /* \"#utility.yul\":6266:6272   */\n      dup2\n        /* \"#utility.yul\":6258:6264   */\n      dup5\n        /* \"#utility.yul\":6252:6256   */\n      dup5\n        /* \"#utility.yul\":6208:6273   */\n      tag_98\n      jump\t// in\n    tag_166:\n        /* \"#utility.yul\":6143:6279   */\n      pop\n        /* \"#utility.yul\":6090:6279   */\n      pop\n      pop\n      jump\t// out\n        /* \"#utility.yul\":6285:6471   */\n    tag_101:\n        /* \"#utility.yul\":6345:6465   */\n    tag_168:\n        /* \"#utility.yul\":6362:6365   */\n      dup2\n        /* \"#utility.yul\":6355:6360   */\n      dup2\n        /* \"#utility.yul\":6352:6366   */\n      lt\n        /* \"#utility.yul\":6345:6465   */\n      iszero\n      tag_170\n      jumpi\n        /* \"#utility.yul\":6416:6455   */\n      tag_171\n        /* \"#utility.yul\":6453:6454   */\n      0x00\n        /* \"#utility.yul\":6446:6451   */\n      dup3\n        /* \"#utility.yul\":6416:6455   */\n      tag_100\n      jump\t// in\n    tag_171:\n        /* \"#utility.yul\":6389:6390   */\n      0x01\n        /* \"#utility.yul\":6382:6387   */\n      dup2\n        /* \"#utility.yul\":6378:6391   */\n      add\n        /* \"#utility.yul\":6369:6391   */\n      swap1\n      pop\n        /* \"#utility.yul\":6345:6465   */\n      jump(tag_168)\n    tag_170:\n        /* \"#utility.yul\":6285:6471   */\n      pop\n      pop\n      jump\t// out\n        /* \"#utility.yul\":6477:7020   */\n    tag_102:\n        /* \"#utility.yul\":6578:6580   */\n      0x1f\n        /* \"#utility.yul\":6573:6576   */\n      dup3\n        /* \"#utility.yul\":6570:6581   */\n      gt\n        /* \"#utility.yul\":6567:7013   */\n      iszero\n      tag_173\n      jumpi\n        /* \"#utility.yul\":6612:6650   */\n      tag_174\n        /* \"#utility.yul\":6644:6649   */\n      dup2\n        /* \"#utility.yul\":6612:6650   */\n      tag_91\n      jump\t// in\n    tag_174:\n        /* \"#utility.yul\":6696:6725   */\n      tag_175\n        /* \"#utility.yul\":6714:6724   */\n      dup5\n        /* \"#utility.yul\":6696:6725   */\n      tag_92\n      jump\t// in\n    tag_175:\n        /* \"#utility.yul\":6686:6694   */\n      dup2\n        /* \"#utility.yul\":6682:6726   */\n      add\n        /* \"#utility.yul\":6879:6881   */\n      0x20\n        /* \"#utility.yul\":6867:6877   */\n      dup6\n        /* \"#utility.yul\":6864:6882   */\n      lt\n        /* \"#utility.yul\":6861:6910   */\n      iszero\n      tag_176\n      jumpi\n        /* \"#utility.yul\":6900:6908   */\n      dup2\n        /* \"#utility.yul\":6885:6908   */\n      swap1\n      pop\n        /* \"#utility.yul\":6861:6910   */\n    tag_176:\n        /* \"#utility.yul\":6923:7003   */\n      tag_177\n        /* \"#utility.yul\":6979:7001   */\n      tag_178\n        /* \"#utility.yul\":6997:7000   */\n      dup6\n        /* \"#utility.yul\":6979:7001   */\n      tag_92\n      jump\t// in\n    tag_178:\n        /* \"#utility.yul\":6969:6977   */\n      dup4\n        /* \"#utility.yul\":6965:7002   */\n      add\n        /* \"#utility.yul\":6952:6963   */\n      dup3\n        /* \"#utility.yul\":6923:7003   */\n      tag_101\n      jump\t// in\n    tag_177:\n        /* \"#utility.yul\":6582:7013   */\n      pop\n      pop\n        /* \"#utility.yul\":6567:7013   */\n    tag_173:\n        /* \"#utility.yul\":6477:7020   */\n      pop\n      pop\n      pop\n      jump\t// out\n        /* \"#utility.yul\":7026:7143   */\n    tag_103:\n        /* \"#utility.yul\":7080:7088   */\n      0x00\n        /* \"#utility.yul\":7130:7135   */\n      dup3\n        /* \"#utility.yul\":7124:7128   */\n      dup3\n        /* \"#utility.yul\":7120:7136   */\n      shr\n        /* \"#utility.yul\":7099:7136   */\n      swap1\n      pop\n        /* \"#utility.yul\":7026:7143   */\n      swap3\n      swap2\n      pop\n      pop\n      jump\t// out\n        /* \"#utility.yul\":7149:7318   */\n    tag_104:\n        /* \"#utility.yul\":7193:7199   */\n      0x00\n        /* \"#utility.yul\":7226:7277   */\n      tag_181\n        /* \"#utility.yul\":7274:7275   */\n      0x00\n        /* \"#utility.yul\":7270:7276   */\n      not\n        /* \"#utility.yul\":7262:7267   */\n      dup5\n        /* \"#utility.yul\":7259:7260   */\n      0x08\n        /* \"#utility.yul\":7255:7268   */\n      mul\n        /* \"#utility.yul\":7226:7277   */\n      tag_103\n      jump\t// in\n    tag_181:\n        /* \"#utility.yul\":7222:7278   */\n      not\n        /* \"#utility.yul\":7307:7311   */\n      dup1\n        /* \"#utility.yul\":7301:7305   */\n      dup4\n        /* \"#utility.yul\":7297:7312   */\n      and\n        /* \"#utility.yul\":7287:7312   */\n      swap2\n      pop\n        /* \"#utility.yul\":7200:7318   */\n      pop\n        /* \"#utility.yul\":7149:7318   */\n      swap3\n      swap2\n      pop\n      pop\n      jump\t// out\n        /* \"#utility.yul\":7323:7618   */\n    tag_105:\n        /* \"#utility.yul\":7399:7403   */\n      0x00\n        /* \"#utility.yul\":7545:7574   */\n      tag_183\n        /* \"#utility.yul\":7570:7573   */\n      dup4\n        /* \"#utility.yul\":7564:7568   */\n      dup4\n        /* \"#utility.yul\":7545:7574   */\n      tag_104\n      jump\t// in\n    tag_183:\n        /* \"#utility.yul\":7537:7574   */\n      swap2\n      pop\n        /* \"#utility.yul\":7607:7610   */\n      dup3\n        /* \"#utility.yul\":7604:7605   */\n      0x02\n        /* \"#utility.yul\":7600:7611   */\n      mul\n        /* \"#utility.yul\":7594:7598   */\n      dup3\n        /* \"#utility.yul\":7591:7612   */\n      or\n        /* \"#utility.yul\":7583:7612   */\n      swap1\n      pop\n        /* \"#utility.yul\":7323:7618   */\n      swap3\n      swap2\n      pop\n      pop\n      jump\t// out\n        /* \"#utility.yul\":7623:9018   */\n    tag_46:\n        /* \"#utility.yul\":7740:7777   */\n      tag_185\n        /* \"#utility.yul\":7773:7776   */\n      dup3\n        /* \"#utility.yul\":7740:7777   */\n      tag_78\n      jump\t// in\n    tag_185:\n        /* \"#utility.yul\":7842:7860   */\n      0xffffffffffffffff\n        /* \"#utility.yul\":7834:7840   */\n      dup2\n        /* \"#utility.yul\":7831:7861   */\n      gt\n        /* \"#utility.yul\":7828:7884   */\n      iszero\n      tag_186\n      jumpi\n        /* \"#utility.yul\":7864:7882   */\n      tag_187\n      tag_90\n      jump\t// in\n    tag_187:\n        /* \"#utility.yul\":7828:7884   */\n    tag_186:\n        /* \"#utility.yul\":7908:7946   */\n      tag_188\n        /* \"#utility.yul\":7940:7944   */\n      dup3\n        /* \"#utility.yul\":7934:7945   */\n      sload\n        /* \"#utility.yul\":7908:7946   */\n      tag_22\n      jump\t// in\n    tag_188:\n        /* \"#utility.yul\":7993:8060   */\n      tag_189\n        /* \"#utility.yul\":8053:8059   */\n      dup3\n        /* \"#utility.yul\":8045:8051   */\n      dup3\n        /* \"#utility.yul\":8039:8043   */\n      dup6\n        /* \"#utility.yul\":7993:8060   */\n      tag_102\n      jump\t// in\n    tag_189:\n        /* \"#utility.yul\":8087:8088   */\n      0x00\n        /* \"#utility.yul\":8111:8115   */\n      0x20\n        /* \"#utility.yul\":8098:8115   */\n      swap1\n      pop\n        /* \"#utility.yul\":8143:8145   */\n      0x1f\n        /* \"#utility.yul\":8135:8141   */\n      dup4\n        /* \"#utility.yul\":8132:8146   */\n      gt\n        /* \"#utility.yul\":8160:8161   */\n      0x01\n        /* \"#utility.yul\":8155:8773   */\n      dup2\n      eq\n      tag_191\n      jumpi\n        /* \"#utility.yul\":8817:8818   */\n      0x00\n        /* \"#utility.yul\":8834:8840   */\n      dup5\n        /* \"#utility.yul\":8831:8908   */\n      iszero\n      tag_192\n      jumpi\n        /* \"#utility.yul\":8883:8892   */\n      dup3\n        /* \"#utility.yul\":8878:8881   */\n      dup8\n        /* \"#utility.yul\":8874:8893   */\n      add\n        /* \"#utility.yul\":8868:8894   */\n      mload\n        /* \"#utility.yul\":8859:8894   */\n      swap1\n      pop\n        /* \"#utility.yul\":8831:8908   */\n    tag_192:\n        /* \"#utility.yul\":8934:9001   */\n      tag_193\n        /* \"#utility.yul\":8994:9000   */\n      dup6\n        /* \"#utility.yul\":8987:8992   */\n      dup3\n        /* \"#utility.yul\":8934:9001   */\n      tag_105\n      jump\t// in\n    tag_193:\n        /* \"#utility.yul\":8928:8932   */\n      dup7\n        /* \"#utility.yul\":8921:9002   */\n      sstore\n        /* \"#utility.yul\":8790:9012   */\n      pop\n        /* \"#utility.yul\":8125:9012   */\n      jump(tag_190)\n        /* \"#utility.yul\":8155:8773   */\n    tag_191:\n        /* \"#utility.yul\":8207:8211   */\n      0x1f\n        /* \"#utility.yul\":8203:8212   */\n      not\n        /* \"#utility.yul\":8195:8201   */\n      dup5\n        /* \"#utility.yul\":8191:8213   */\n      and\n        /* \"#utility.yul\":8241:8278   */\n      tag_194\n        /* \"#utility.yul\":8273:8277   */\n      dup7\n        /* \"#utility.yul\":8241:8278   */\n      tag_91\n      jump\t// in\n    tag_194:\n        /* \"#utility.yul\":8300:8301   */\n      0x00\n        /* \"#utility.yul\":8314:8522   */\n    tag_195:\n        /* \"#utility.yul\":8328:8335   */\n      dup3\n        /* \"#utility.yul\":8325:8326   */\n      dup2\n        /* \"#utility.yul\":8322:8336   */\n      lt\n        /* \"#utility.yul\":8314:8522   */\n      iszero\n      tag_197\n      jumpi\n        /* \"#utility.yul\":8407:8416   */\n      dup5\n        /* \"#utility.yul\":8402:8405   */\n      dup10\n        /* \"#utility.yul\":8398:8417   */\n      add\n        /* \"#utility.yul\":8392:8418   */\n      mload\n        /* \"#utility.yul\":8384:8390   */\n      dup3\n        /* \"#utility.yul\":8377:8419   */\n      sstore\n        /* \"#utility.yul\":8458:8459   */\n      0x01\n        /* \"#utility.yul\":8450:8456   */\n      dup3\n        /* \"#utility.yul\":8446:8460   */\n      add\n        /* \"#utility.yul\":8436:8460   */\n      swap2\n      pop\n        /* \"#utility.yul\":8505:8507   */\n      0x20\n        /* \"#utility.yul\":8494:8503   */\n      dup6\n        /* \"#utility.yul\":8490:8508   */\n      add\n        /* \"#utility.yul\":8477:8508   */\n      swap5\n      pop\n        /* \"#utility.yul\":8351:8355   */\n      0x20\n        /* \"#utility.yul\":8348:8349   */\n      dup2\n        /* \"#utility.yul\":8344:8356   */\n      add\n        /* \"#utility.yul\":8339:8356   */\n      swap1\n      pop\n        /* \"#utility.yul\":8314:8522   */\n      jump(tag_195)\n    tag_197:\n        /* \"#utility.yul\":8550:8556   */\n      dup7\n        /* \"#utility.yul\":8541:8548   */\n      dup4\n        /* \"#utility.yul\":8538:8557   */\n      lt\n        /* \"#utility.yul\":8535:8714   */\n      iszero\n      tag_198\n      jumpi\n        /* \"#utility.yul\":8608:8617   */\n      dup5\n        /* \"#utility.yul\":8603:8606   */\n      dup10\n        /* \"#utility.yul\":8599:8618   */\n      add\n        /* \"#utility.yul\":8593:8619   */\n      mload\n        /* \"#utility.yul\":8651:8699   */\n      tag_199\n        /* \"#utility.yul\":8693:8697   */\n      0x1f\n        /* \"#utility.yul\":8685:8691   */\n      dup10\n        /* \"#utility.yul\":8681:8698   */\n      and\n        /* \"#utility.yul\":8670:8679   */\n      dup3\n        /* \"#utility.yul\":8651:8699   */\n      tag_104\n      jump\t// in\n    tag_199:\n        /* \"#utility.yul\":8643:8649   */\n      dup4\n        /* \"#utility.yul\":8636:8700   */\n      sstore\n        /* \"#utility.yul\":8558:8714   */\n      pop\n        /* \"#utility.yul\":8535:8714   */\n    tag_198:\n        /* \"#utility.yul\":8760:8761   */\n      0x01\n        /* \"#utility.yul\":8756:8757   */\n      0x02\n        /* \"#utility.yul\":8748:8754   */\n      dup9\n        /* \"#utility.yul\":8744:8758   */\n      mul\n        /* \"#utility.yul\":8740:8762   */\n      add\n        /* \"#utility.yul\":8734:8738   */\n      dup9\n        /* \"#utility.yul\":8727:8763   */\n      sstore\n        /* \"#utility.yul\":8162:8773   */\n      pop\n      pop\n      pop\n        /* \"#utility.yul\":8125:9012   */\n    tag_190:\n      pop\n        /* \"#utility.yul\":7715:9018   */\n      pop\n      pop\n      pop\n        /* \"#utility.yul\":7623:9018   */\n      pop\n      pop\n      jump\t// out\n\n    auxdata: 0xa2646970667358221220bf94c9e4408d9a2c184a627cdf4c3cf738b47e5e15ac430f95a2243d81edcb8064736f6c63430008120033\n}\n",
				"bytecode": {
					"linkReferences": {},
					"object": "608060405234801561001057600080fd5b50610d52806100206000396000f3fe608060405234801561001057600080fd5b50600436106100415760003560e01c80634e3a6aad14610046578063800509d514610065578063ee26fac314610084575b600080fd5b61004e6100a4565b60405161005c92919061093a565b60405180910390f35b61006d6103c2565b60405161007b92919061093a565b60405180910390f35b61008c6106f1565b60405161009b939291906109ca565b60405180910390f35b6100ac610819565b6100b4610819565b6000806040518060600160405290816000820180546100d290610a3e565b80601f01602080910402602001604051908101604052809291908181526020018280546100fe90610a3e565b801561014b5780601f106101205761010080835404028352916020019161014b565b820191906000526020600020905b81548152906001019060200180831161012e57829003601f168201915b5050505050815260200160018201805461016490610a3e565b80601f016020809104026020016040519081016040528092919081815260200182805461019090610a3e565b80156101dd5780601f106101b2576101008083540402835291602001916101dd565b820191906000526020600020905b8154815290600101906020018083116101c057829003601f168201915b5050505050815260200160028201548152505090506040518060400160405280600681526020017f546f796f7461000000000000000000000000000000000000000000000000000081525081600001819052506040518060400160405280600b81526020017f436f726f6c6c615f586c6900000000000000000000000000000000000000000081525081602001819052506107d48160400181815250506000818160405180606001604052908160008201805461029990610a3e565b80601f01602080910402602001604051908101604052809291908181526020018280546102c590610a3e565b80156103125780601f106102e757610100808354040283529160200191610312565b820191906000526020600020905b8154815290600101906020018083116102f557829003601f168201915b5050505050815260200160018201805461032b90610a3e565b80601f016020809104026020016040519081016040528092919081815260200182805461035790610a3e565b80156103a45780601f10610379576101008083540402835291602001916103a4565b820191906000526020600020905b81548152906001019060200180831161038757829003601f168201915b50505050508152602001600282015481525050915092509250509091565b6103ca610819565b6103d2610819565b60006040518060400160405280600681526020017f546f796f7461000000000000000000000000000000000000000000000000000081525081600001908161041a9190610c4a565b506040518060400160405280600b81526020017f436f726f6c6c615f586c690000000000000000000000000000000000000000008152508160010190816104619190610c4a565b506107d481600201819055506000818160405180606001604052908160008201805461048c90610a3e565b80601f01602080910402602001604051908101604052809291908181526020018280546104b890610a3e565b80156105055780601f106104da57610100808354040283529160200191610505565b820191906000526020600020905b8154815290600101906020018083116104e857829003601f168201915b5050505050815260200160018201805461051e90610a3e565b80601f016020809104026020016040519081016040528092919081815260200182805461054a90610a3e565b80156105975780601f1061056c57610100808354040283529160200191610597565b820191906000526020600020905b81548152906001019060200180831161057a57829003601f168201915b505050505081526020016002820154815250509150806040518060600160405290816000820180546105c890610a3e565b80601f01602080910402602001604051908101604052809291908181526020018280546105f490610a3e565b80156106415780601f1061061657610100808354040283529160200191610641565b820191906000526020600020905b81548152906001019060200180831161062457829003601f168201915b5050505050815260200160018201805461065a90610a3e565b80601f016020809104026020016040519081016040528092919081815260200182805461068690610a3e565b80156106d35780601f106106a8576101008083540402835291602001916106d3565b820191906000526020600020905b8154815290600101906020018083116106b657829003601f168201915b50505050508152602001600282015481525050905092509250509091565b600080600001805461070290610a3e565b80601f016020809104026020016040519081016040528092919081815260200182805461072e90610a3e565b801561077b5780601f106107505761010080835404028352916020019161077b565b820191906000526020600020905b81548152906001019060200180831161075e57829003601f168201915b50505050509080600101805461079090610a3e565b80601f01602080910402602001604051908101604052809291908181526020018280546107bc90610a3e565b80156108095780601f106107de57610100808354040283529160200191610809565b820191906000526020600020905b8154815290600101906020018083116107ec57829003601f168201915b5050505050908060020154905083565b60405180606001604052806060815260200160608152602001600081525090565b600081519050919050565b600082825260208201905092915050565b60005b83811015610874578082015181840152602081019050610859565b60008484015250505050565b6000601f19601f8301169050919050565b600061089c8261083a565b6108a68185610845565b93506108b6818560208601610856565b6108bf81610880565b840191505092915050565b6000819050919050565b6108dd816108ca565b82525050565b600060608301600083015184820360008601526109008282610891565b9150506020830151848203602086015261091a8282610891565b915050604083015161092f60408601826108d4565b508091505092915050565b6000604082019050818103600083015261095481856108e3565b9050818103602083015261096881846108e3565b90509392505050565b600082825260208201905092915050565b600061098d8261083a565b6109978185610971565b93506109a7818560208601610856565b6109b081610880565b840191505092915050565b6109c4816108ca565b82525050565b600060608201905081810360008301526109e48186610982565b905081810360208301526109f88185610982565b9050610a0760408301846109bb565b949350505050565b7f4e487b7100000000000000000000000000000000000000000000000000000000600052602260045260246000fd5b60006002820490506001821680610a5657607f821691505b602082108103610a6957610a68610a0f565b5b50919050565b7f4e487b7100000000000000000000000000000000000000000000000000000000600052604160045260246000fd5b60008190508160005260206000209050919050565b60006020601f8301049050919050565b600082821b905092915050565b600060088302610b007fffffffffffffffffffffffffffffffffffffffffffffffffffffffffffffffff82610ac3565b610b0a8683610ac3565b95508019841693508086168417925050509392505050565b6000819050919050565b6000610b47610b42610b3d846108ca565b610b22565b6108ca565b9050919050565b6000819050919050565b610b6183610b2c565b610b75610b6d82610b4e565b848454610ad0565b825550505050565b600090565b610b8a610b7d565b610b95818484610b58565b505050565b5b81811015610bb957610bae600082610b82565b600181019050610b9b565b5050565b601f821115610bfe57610bcf81610a9e565b610bd884610ab3565b81016020851015610be7578190505b610bfb610bf385610ab3565b830182610b9a565b50505b505050565b600082821c905092915050565b6000610c2160001984600802610c03565b1980831691505092915050565b6000610c3a8383610c10565b9150826002028217905092915050565b610c538261083a565b67ffffffffffffffff811115610c6c57610c6b610a6f565b5b610c768254610a3e565b610c81828285610bbd565b600060209050601f831160018114610cb45760008415610ca2578287015190505b610cac8582610c2e565b865550610d14565b601f198416610cc286610a9e565b60005b82811015610cea57848901518255600182019150602085019450602081019050610cc5565b86831015610d075784890151610d03601f891682610c10565b8355505b6001600288020188555050505b50505050505056fea2646970667358221220bf94c9e4408d9a2c184a627cdf4c3cf738b47e5e15ac430f95a2243d81edcb8064736f6c63430008120033",
					"opcodes": "PUSH1 0x80 PUSH1 0x40 MSTORE CALLVALUE DUP1 ISZERO PUSH2 0x10 JUMPI PUSH1 0x0 DUP1 REVERT JUMPDEST POP PUSH2 0xD52 DUP1 PUSH2 0x20 PUSH1 0x0 CODECOPY PUSH1 0x0 RETURN INVALID PUSH1 0x80 PUSH1 0x40 MSTORE CALLVALUE DUP1 ISZERO PUSH2 0x10 JUMPI PUSH1 0x0 DUP1 REVERT JUMPDEST POP PUSH1 0x4 CALLDATASIZE LT PUSH2 0x41 JUMPI PUSH1 0x0 CALLDATALOAD PUSH1 0xE0 SHR DUP1 PUSH4 0x4E3A6AAD EQ PUSH2 0x46 JUMPI DUP1 PUSH4 0x800509D5 EQ PUSH2 0x65 JUMPI DUP1 PUSH4 0xEE26FAC3 EQ PUSH2 0x84 JUMPI JUMPDEST PUSH1 0x0 DUP1 REVERT JUMPDEST PUSH2 0x4E PUSH2 0xA4 JUMP JUMPDEST PUSH1 0x40 MLOAD PUSH2 0x5C SWAP3 SWAP2 SWAP1 PUSH2 0x93A JUMP JUMPDEST PUSH1 0x40 MLOAD DUP1 SWAP2 SUB SWAP1 RETURN JUMPDEST PUSH2 0x6D PUSH2 0x3C2 JUMP JUMPDEST PUSH1 0x40 MLOAD PUSH2 0x7B SWAP3 SWAP2 SWAP1 PUSH2 0x93A JUMP JUMPDEST PUSH1 0x40 MLOAD DUP1 SWAP2 SUB SWAP1 RETURN JUMPDEST PUSH2 0x8C PUSH2 0x6F1 JUMP JUMPDEST PUSH1 0x40 MLOAD PUSH2 0x9B SWAP4 SWAP3 SWAP2 SWAP1 PUSH2 0x9CA JUMP JUMPDEST PUSH1 0x40 MLOAD DUP1 SWAP2 SUB SWAP1 RETURN JUMPDEST PUSH2 0xAC PUSH2 0x819 JUMP JUMPDEST PUSH2 0xB4 PUSH2 0x819 JUMP JUMPDEST PUSH1 0x0 DUP1 PUSH1 0x40 MLOAD DUP1 PUSH1 0x60 ADD PUSH1 0x40 MSTORE SWAP1 DUP2 PUSH1 0x0 DUP3 ADD DUP1 SLOAD PUSH2 0xD2 SWAP1 PUSH2 0xA3E JUMP JUMPDEST DUP1 PUSH1 0x1F ADD PUSH1 0x20 DUP1 SWAP2 DIV MUL PUSH1 0x20 ADD PUSH1 0x40 MLOAD SWAP1 DUP2 ADD PUSH1 0x40 MSTORE DUP1 SWAP3 SWAP2 SWAP1 DUP2 DUP2 MSTORE PUSH1 0x20 ADD DUP3 DUP1 SLOAD PUSH2 0xFE SWAP1 PUSH2 0xA3E JUMP JUMPDEST DUP1 ISZERO PUSH2 0x14B JUMPI DUP1 PUSH1 0x1F LT PUSH2 0x120 JUMPI PUSH2 0x100 DUP1 DUP4 SLOAD DIV MUL DUP4 MSTORE SWAP2 PUSH1 0x20 ADD SWAP2 PUSH2 0x14B JUMP JUMPDEST DUP3 ADD SWAP2 SWAP1 PUSH1 0x0 MSTORE PUSH1 0x20 PUSH1 0x0 KECCAK256 SWAP1 JUMPDEST DUP2 SLOAD DUP2 MSTORE SWAP1 PUSH1 0x1 ADD SWAP1 PUSH1 0x20 ADD DUP1 DUP4 GT PUSH2 0x12E JUMPI DUP3 SWAP1 SUB PUSH1 0x1F AND DUP3 ADD SWAP2 JUMPDEST POP POP POP POP POP DUP2 MSTORE PUSH1 0x20 ADD PUSH1 0x1 DUP3 ADD DUP1 SLOAD PUSH2 0x164 SWAP1 PUSH2 0xA3E JUMP JUMPDEST DUP1 PUSH1 0x1F ADD PUSH1 0x20 DUP1 SWAP2 DIV MUL PUSH1 0x20 ADD PUSH1 0x40 MLOAD SWAP1 DUP2 ADD PUSH1 0x40 MSTORE DUP1 SWAP3 SWAP2 SWAP1 DUP2 DUP2 MSTORE PUSH1 0x20 ADD DUP3 DUP1 SLOAD PUSH2 0x190 SWAP1 PUSH2 0xA3E JUMP JUMPDEST DUP1 ISZERO PUSH2 0x1DD JUMPI DUP1 PUSH1 0x1F LT PUSH2 0x1B2 JUMPI PUSH2 0x100 DUP1 DUP4 SLOAD DIV MUL DUP4 MSTORE SWAP2 PUSH1 0x20 ADD SWAP2 PUSH2 0x1DD JUMP JUMPDEST DUP3 ADD SWAP2 SWAP1 PUSH1 0x0 MSTORE PUSH1 0x20 PUSH1 0x0 KECCAK256 SWAP1 JUMPDEST DUP2 SLOAD DUP2 MSTORE SWAP1 PUSH1 0x1 ADD SWAP1 PUSH1 0x20 ADD DUP1 DUP4 GT PUSH2 0x1C0 JUMPI DUP3 SWAP1 SUB PUSH1 0x1F AND DUP3 ADD SWAP2 JUMPDEST POP POP POP POP POP DUP2 MSTORE PUSH1 0x20 ADD PUSH1 0x2 DUP3 ADD SLOAD DUP2 MSTORE POP POP SWAP1 POP PUSH1 0x40 MLOAD DUP1 PUSH1 0x40 ADD PUSH1 0x40 MSTORE DUP1 PUSH1 0x6 DUP2 MSTORE PUSH1 0x20 ADD PUSH32 0x546F796F74610000000000000000000000000000000000000000000000000000 DUP2 MSTORE POP DUP2 PUSH1 0x0 ADD DUP2 SWAP1 MSTORE POP PUSH1 0x40 MLOAD DUP1 PUSH1 0x40 ADD PUSH1 0x40 MSTORE DUP1 PUSH1 0xB DUP2 MSTORE PUSH1 0x20 ADD PUSH32 0x436F726F6C6C615F586C69000000000000000000000000000000000000000000 DUP2 MSTORE POP DUP2 PUSH1 0x20 ADD DUP2 SWAP1 MSTORE POP PUSH2 0x7D4 DUP2 PUSH1 0x40 ADD DUP2 DUP2 MSTORE POP POP PUSH1 0x0 DUP2 DUP2 PUSH1 0x40 MLOAD DUP1 PUSH1 0x60 ADD PUSH1 0x40 MSTORE SWAP1 DUP2 PUSH1 0x0 DUP3 ADD DUP1 SLOAD PUSH2 0x299 SWAP1 PUSH2 0xA3E JUMP JUMPDEST DUP1 PUSH1 0x1F ADD PUSH1 0x20 DUP1 SWAP2 DIV MUL PUSH1 0x20 ADD PUSH1 0x40 MLOAD SWAP1 DUP2 ADD PUSH1 0x40 MSTORE DUP1 SWAP3 SWAP2 SWAP1 DUP2 DUP2 MSTORE PUSH1 0x20 ADD DUP3 DUP1 SLOAD PUSH2 0x2C5 SWAP1 PUSH2 0xA3E JUMP JUMPDEST DUP1 ISZERO PUSH2 0x312 JUMPI DUP1 PUSH1 0x1F LT PUSH2 0x2E7 JUMPI PUSH2 0x100 DUP1 DUP4 SLOAD DIV MUL DUP4 MSTORE SWAP2 PUSH1 0x20 ADD SWAP2 PUSH2 0x312 JUMP JUMPDEST DUP3 ADD SWAP2 SWAP1 PUSH1 0x0 MSTORE PUSH1 0x20 PUSH1 0x0 KECCAK256 SWAP1 JUMPDEST DUP2 SLOAD DUP2 MSTORE SWAP1 PUSH1 0x1 ADD SWAP1 PUSH1 0x20 ADD DUP1 DUP4 GT PUSH2 0x2F5 JUMPI DUP3 SWAP1 SUB PUSH1 0x1F AND DUP3 ADD SWAP2 JUMPDEST POP POP POP POP POP DUP2 MSTORE PUSH1 0x20 ADD PUSH1 0x1 DUP3 ADD DUP1 SLOAD PUSH2 0x32B SWAP1 PUSH2 0xA3E JUMP JUMPDEST DUP1 PUSH1 0x1F ADD PUSH1 0x20 DUP1 SWAP2 DIV MUL PUSH1 0x20 ADD PUSH1 0x40 MLOAD SWAP1 DUP2 ADD PUSH1 0x40 MSTORE DUP1 SWAP3 SWAP2 SWAP1 DUP2 DUP2 MSTORE PUSH1 0x20 ADD DUP3 DUP1 SLOAD PUSH2 0x357 SWAP1 PUSH2 0xA3E JUMP JUMPDEST DUP1 ISZERO PUSH2 0x3A4 JUMPI DUP1 PUSH1 0x1F LT PUSH2 0x379 JUMPI PUSH2 0x100 DUP1 DUP4 SLOAD DIV MUL DUP4 MSTORE SWAP2 PUSH1 0x20 ADD SWAP2 PUSH2 0x3A4 JUMP JUMPDEST DUP3 ADD SWAP2 SWAP1 PUSH1 0x0 MSTORE PUSH1 0x20 PUSH1 0x0 KECCAK256 SWAP1 JUMPDEST DUP2 SLOAD DUP2 MSTORE SWAP1 PUSH1 0x1 ADD SWAP1 PUSH1 0x20 ADD DUP1 DUP4 GT PUSH2 0x387 JUMPI DUP3 SWAP1 SUB PUSH1 0x1F AND DUP3 ADD SWAP2 JUMPDEST POP POP POP POP POP DUP2 MSTORE PUSH1 0x20 ADD PUSH1 0x2 DUP3 ADD SLOAD DUP2 MSTORE POP POP SWAP2 POP SWAP3 POP SWAP3 POP POP SWAP1 SWAP2 JUMP JUMPDEST PUSH2 0x3CA PUSH2 0x819 JUMP JUMPDEST PUSH2 0x3D2 PUSH2 0x819 JUMP JUMPDEST PUSH1 0x0 PUSH1 0x40 MLOAD DUP1 PUSH1 0x40 ADD PUSH1 0x40 MSTORE DUP1 PUSH1 0x6 DUP2 MSTORE PUSH1 0x20 ADD PUSH32 0x546F796F74610000000000000000000000000000000000000000000000000000 DUP2 MSTORE POP DUP2 PUSH1 0x0 ADD SWAP1 DUP2 PUSH2 0x41A SWAP2 SWAP1 PUSH2 0xC4A JUMP JUMPDEST POP PUSH1 0x40 MLOAD DUP1 PUSH1 0x40 ADD PUSH1 0x40 MSTORE DUP1 PUSH1 0xB DUP2 MSTORE PUSH1 0x20 ADD PUSH32 0x436F726F6C6C615F586C69000000000000000000000000000000000000000000 DUP2 MSTORE POP DUP2 PUSH1 0x1 ADD SWAP1 DUP2 PUSH2 0x461 SWAP2 SWAP1 PUSH2 0xC4A JUMP JUMPDEST POP PUSH2 0x7D4 DUP2 PUSH1 0x2 ADD DUP2 SWAP1 SSTORE POP PUSH1 0x0 DUP2 DUP2 PUSH1 0x40 MLOAD DUP1 PUSH1 0x60 ADD PUSH1 0x40 MSTORE SWAP1 DUP2 PUSH1 0x0 DUP3 ADD DUP1 SLOAD PUSH2 0x48C SWAP1 PUSH2 0xA3E JUMP JUMPDEST DUP1 PUSH1 0x1F ADD PUSH1 0x20 DUP1 SWAP2 DIV MUL PUSH1 0x20 ADD PUSH1 0x40 MLOAD SWAP1 DUP2 ADD PUSH1 0x40 MSTORE DUP1 SWAP3 SWAP2 SWAP1 DUP2 DUP2 MSTORE PUSH1 0x20 ADD DUP3 DUP1 SLOAD PUSH2 0x4B8 SWAP1 PUSH2 0xA3E JUMP JUMPDEST DUP1 ISZERO PUSH2 0x505 JUMPI DUP1 PUSH1 0x1F LT PUSH2 0x4DA JUMPI PUSH2 0x100 DUP1 DUP4 SLOAD DIV MUL DUP4 MSTORE SWAP2 PUSH1 0x20 ADD SWAP2 PUSH2 0x505 JUMP JUMPDEST DUP3 ADD SWAP2 SWAP1 PUSH1 0x0 MSTORE PUSH1 0x20 PUSH1 0x0 KECCAK256 SWAP1 JUMPDEST DUP2 SLOAD DUP2 MSTORE SWAP1 PUSH1 0x1 ADD SWAP1 PUSH1 0x20 ADD DUP1 DUP4 GT PUSH2 0x4E8 JUMPI DUP3 SWAP1 SUB PUSH1 0x1F AND DUP3 ADD SWAP2 JUMPDEST POP POP POP POP POP DUP2 MSTORE PUSH1 0x20 ADD PUSH1 0x1 DUP3 ADD DUP1 SLOAD PUSH2 0x51E SWAP1 PUSH2 0xA3E JUMP JUMPDEST DUP1 PUSH1 0x1F ADD PUSH1 0x20 DUP1 SWAP2 DIV MUL PUSH1 0x20 ADD PUSH1 0x40 MLOAD SWAP1 DUP2 ADD PUSH1 0x40 MSTORE DUP1 SWAP3 SWAP2 SWAP1 DUP2 DUP2 MSTORE PUSH1 0x20 ADD DUP3 DUP1 SLOAD PUSH2 0x54A SWAP1 PUSH2 0xA3E JUMP JUMPDEST DUP1 ISZERO PUSH2 0x597 JUMPI DUP1 PUSH1 0x1F LT PUSH2 0x56C JUMPI PUSH2 0x100 DUP1 DUP4 SLOAD DIV MUL DUP4 MSTORE SWAP2 PUSH1 0x20 ADD SWAP2 PUSH2 0x597 JUMP JUMPDEST DUP3 ADD SWAP2 SWAP1 PUSH1 0x0 MSTORE PUSH1 0x20 PUSH1 0x0 KECCAK256 SWAP1 JUMPDEST DUP2 SLOAD DUP2 MSTORE SWAP1 PUSH1 0x1 ADD SWAP1 PUSH1 0x20 ADD DUP1 DUP4 GT PUSH2 0x57A JUMPI DUP3 SWAP1 SUB PUSH1 0x1F AND DUP3 ADD SWAP2 JUMPDEST POP POP POP POP POP DUP2 MSTORE PUSH1 0x20 ADD PUSH1 0x2 DUP3 ADD SLOAD DUP2 MSTORE POP POP SWAP2 POP DUP1 PUSH1 0x40 MLOAD DUP1 PUSH1 0x60 ADD PUSH1 0x40 MSTORE SWAP1 DUP2 PUSH1 0x0 DUP3 ADD DUP1 SLOAD PUSH2 0x5C8 SWAP1 PUSH2 0xA3E JUMP JUMPDEST DUP1 PUSH1 0x1F ADD PUSH1 0x20 DUP1 SWAP2 DIV MUL PUSH1 0x20 ADD PUSH1 0x40 MLOAD SWAP1 DUP2 ADD PUSH1 0x40 MSTORE DUP1 SWAP3 SWAP2 SWAP1 DUP2 DUP2 MSTORE PUSH1 0x20 ADD DUP3 DUP1 SLOAD PUSH2 0x5F4 SWAP1 PUSH2 0xA3E JUMP JUMPDEST DUP1 ISZERO PUSH2 0x641 JUMPI DUP1 PUSH1 0x1F LT PUSH2 0x616 JUMPI PUSH2 0x100 DUP1 DUP4 SLOAD DIV MUL DUP4 MSTORE SWAP2 PUSH1 0x20 ADD SWAP2 PUSH2 0x641 JUMP JUMPDEST DUP3 ADD SWAP2 SWAP1 PUSH1 0x0 MSTORE PUSH1 0x20 PUSH1 0x0 KECCAK256 SWAP1 JUMPDEST DUP2 SLOAD DUP2 MSTORE SWAP1 PUSH1 0x1 ADD SWAP1 PUSH1 0x20 ADD DUP1 DUP4 GT PUSH2 0x624 JUMPI DUP3 SWAP1 SUB PUSH1 0x1F AND DUP3 ADD SWAP2 JUMPDEST POP POP POP POP POP DUP2 MSTORE PUSH1 0x20 ADD PUSH1 0x1 DUP3 ADD DUP1 SLOAD PUSH2 0x65A SWAP1 PUSH2 0xA3E JUMP JUMPDEST DUP1 PUSH1 0x1F ADD PUSH1 0x20 DUP1 SWAP2 DIV MUL PUSH1 0x20 ADD PUSH1 0x40 MLOAD SWAP1 DUP2 ADD PUSH1 0x40 MSTORE DUP1 SWAP3 SWAP2 SWAP1 DUP2 DUP2 MSTORE PUSH1 0x20 ADD DUP3 DUP1 SLOAD PUSH2 0x686 SWAP1 PUSH2 0xA3E JUMP JUMPDEST DUP1 ISZERO PUSH2 0x6D3 JUMPI DUP1 PUSH1 0x1F LT PUSH2 0x6A8 JUMPI PUSH2 0x100 DUP1 DUP4 SLOAD DIV MUL DUP4 MSTORE SWAP2 PUSH1 0x20 ADD SWAP2 PUSH2 0x6D3 JUMP JUMPDEST DUP3 ADD SWAP2 SWAP1 PUSH1 0x0 MSTORE PUSH1 0x20 PUSH1 0x0 KECCAK256 SWAP1 JUMPDEST DUP2 SLOAD DUP2 MSTORE SWAP1 PUSH1 0x1 ADD SWAP1 PUSH1 0x20 ADD DUP1 DUP4 GT PUSH2 0x6B6 JUMPI DUP3 SWAP1 SUB PUSH1 0x1F AND DUP3 ADD SWAP2 JUMPDEST POP POP POP POP POP DUP2 MSTORE PUSH1 0x20 ADD PUSH1 0x2 DUP3 ADD SLOAD DUP2 MSTORE POP POP SWAP1 POP SWAP3 POP SWAP3 POP POP SWAP1 SWAP2 JUMP JUMPDEST PUSH1 0x0 DUP1 PUSH1 0x0 ADD DUP1 SLOAD PUSH2 0x702 SWAP1 PUSH2 0xA3E JUMP JUMPDEST DUP1 PUSH1 0x1F ADD PUSH1 0x20 DUP1 SWAP2 DIV MUL PUSH1 0x20 ADD PUSH1 0x40 MLOAD SWAP1 DUP2 ADD PUSH1 0x40 MSTORE DUP1 SWAP3 SWAP2 SWAP1 DUP2 DUP2 MSTORE PUSH1 0x20 ADD DUP3 DUP1 SLOAD PUSH2 0x72E SWAP1 PUSH2 0xA3E JUMP JUMPDEST DUP1 ISZERO PUSH2 0x77B JUMPI DUP1 PUSH1 0x1F LT PUSH2 0x750 JUMPI PUSH2 0x100 DUP1 DUP4 SLOAD DIV MUL DUP4 MSTORE SWAP2 PUSH1 0x20 ADD SWAP2 PUSH2 0x77B JUMP JUMPDEST DUP3 ADD SWAP2 SWAP1 PUSH1 0x0 MSTORE PUSH1 0x20 PUSH1 0x0 KECCAK256 SWAP1 JUMPDEST DUP2 SLOAD DUP2 MSTORE SWAP1 PUSH1 0x1 ADD SWAP1 PUSH1 0x20 ADD DUP1 DUP4 GT PUSH2 0x75E JUMPI DUP3 SWAP1 SUB PUSH1 0x1F AND DUP3 ADD SWAP2 JUMPDEST POP POP POP POP POP SWAP1 DUP1 PUSH1 0x1 ADD DUP1 SLOAD PUSH2 0x790 SWAP1 PUSH2 0xA3E JUMP JUMPDEST DUP1 PUSH1 0x1F ADD PUSH1 0x20 DUP1 SWAP2 DIV MUL PUSH1 0x20 ADD PUSH1 0x40 MLOAD SWAP1 DUP2 ADD PUSH1 0x40 MSTORE DUP1 SWAP3 SWAP2 SWAP1 DUP2 DUP2 MSTORE PUSH1 0x20 ADD DUP3 DUP1 SLOAD PUSH2 0x7BC SWAP1 PUSH2 0xA3E JUMP JUMPDEST DUP1 ISZERO PUSH2 0x809 JUMPI DUP1 PUSH1 0x1F LT PUSH2 0x7DE JUMPI PUSH2 0x100 DUP1 DUP4 SLOAD DIV MUL DUP4 MSTORE SWAP2 PUSH1 0x20 ADD SWAP2 PUSH2 0x809 JUMP JUMPDEST DUP3 ADD SWAP2 SWAP1 PUSH1 0x0 MSTORE PUSH1 0x20 PUSH1 0x0 KECCAK256 SWAP1 JUMPDEST DUP2 SLOAD DUP2 MSTORE SWAP1 PUSH1 0x1 ADD SWAP1 PUSH1 0x20 ADD DUP1 DUP4 GT PUSH2 0x7EC JUMPI DUP3 SWAP1 SUB PUSH1 0x1F AND DUP3 ADD SWAP2 JUMPDEST POP POP POP POP POP SWAP1 DUP1 PUSH1 0x2 ADD SLOAD SWAP1 POP DUP4 JUMP JUMPDEST PUSH1 0x40 MLOAD DUP1 PUSH1 0x60 ADD PUSH1 0x40 MSTORE DUP1 PUSH1 0x60 DUP2 MSTORE PUSH1 0x20 ADD PUSH1 0x60 DUP2 MSTORE PUSH1 0x20 ADD PUSH1 0x0 DUP2 MSTORE POP SWAP1 JUMP JUMPDEST PUSH1 0x0 DUP2 MLOAD SWAP1 POP SWAP2 SWAP1 POP JUMP JUMPDEST PUSH1 0x0 DUP3 DUP3 MSTORE PUSH1 0x20 DUP3 ADD SWAP1 POP SWAP3 SWAP2 POP POP JUMP JUMPDEST PUSH1 0x0 JUMPDEST DUP4 DUP2 LT ISZERO PUSH2 0x874 JUMPI DUP1 DUP3 ADD MLOAD DUP2 DUP5 ADD MSTORE PUSH1 0x20 DUP2 ADD SWAP1 POP PUSH2 0x859 JUMP JUMPDEST PUSH1 0x0 DUP5 DUP5 ADD MSTORE POP POP POP POP JUMP JUMPDEST PUSH1 0x0 PUSH1 0x1F NOT PUSH1 0x1F DUP4 ADD AND SWAP1 POP SWAP2 SWAP1 POP JUMP JUMPDEST PUSH1 0x0 PUSH2 0x89C DUP3 PUSH2 0x83A JUMP JUMPDEST PUSH2 0x8A6 DUP2 DUP6 PUSH2 0x845 JUMP JUMPDEST SWAP4 POP PUSH2 0x8B6 DUP2 DUP6 PUSH1 0x20 DUP7 ADD PUSH2 0x856 JUMP JUMPDEST PUSH2 0x8BF DUP2 PUSH2 0x880 JUMP JUMPDEST DUP5 ADD SWAP2 POP POP SWAP3 SWAP2 POP POP JUMP JUMPDEST PUSH1 0x0 DUP2 SWAP1 POP SWAP2 SWAP1 POP JUMP JUMPDEST PUSH2 0x8DD DUP2 PUSH2 0x8CA JUMP JUMPDEST DUP3 MSTORE POP POP JUMP JUMPDEST PUSH1 0x0 PUSH1 0x60 DUP4 ADD PUSH1 0x0 DUP4 ADD MLOAD DUP5 DUP3 SUB PUSH1 0x0 DUP7 ADD MSTORE PUSH2 0x900 DUP3 DUP3 PUSH2 0x891 JUMP JUMPDEST SWAP2 POP POP PUSH1 0x20 DUP4 ADD MLOAD DUP5 DUP3 SUB PUSH1 0x20 DUP7 ADD MSTORE PUSH2 0x91A DUP3 DUP3 PUSH2 0x891 JUMP JUMPDEST SWAP2 POP POP PUSH1 0x40 DUP4 ADD MLOAD PUSH2 0x92F PUSH1 0x40 DUP7 ADD DUP3 PUSH2 0x8D4 JUMP JUMPDEST POP DUP1 SWAP2 POP POP SWAP3 SWAP2 POP POP JUMP JUMPDEST PUSH1 0x0 PUSH1 0x40 DUP3 ADD SWAP1 POP DUP2 DUP2 SUB PUSH1 0x0 DUP4 ADD MSTORE PUSH2 0x954 DUP2 DUP6 PUSH2 0x8E3 JUMP JUMPDEST SWAP1 POP DUP2 DUP2 SUB PUSH1 0x20 DUP4 ADD MSTORE PUSH2 0x968 DUP2 DUP5 PUSH2 0x8E3 JUMP JUMPDEST SWAP1 POP SWAP4 SWAP3 POP POP POP JUMP JUMPDEST PUSH1 0x0 DUP3 DUP3 MSTORE PUSH1 0x20 DUP3 ADD SWAP1 POP SWAP3 SWAP2 POP POP JUMP JUMPDEST PUSH1 0x0 PUSH2 0x98D DUP3 PUSH2 0x83A JUMP JUMPDEST PUSH2 0x997 DUP2 DUP6 PUSH2 0x971 JUMP JUMPDEST SWAP4 POP PUSH2 0x9A7 DUP2 DUP6 PUSH1 0x20 DUP7 ADD PUSH2 0x856 JUMP JUMPDEST PUSH2 0x9B0 DUP2 PUSH2 0x880 JUMP JUMPDEST DUP5 ADD SWAP2 POP POP SWAP3 SWAP2 POP POP JUMP JUMPDEST PUSH2 0x9C4 DUP2 PUSH2 0x8CA JUMP JUMPDEST DUP3 MSTORE POP POP JUMP JUMPDEST PUSH1 0x0 PUSH1 0x60 DUP3 ADD SWAP1 POP DUP2 DUP2 SUB PUSH1 0x0 DUP4 ADD MSTORE PUSH2 0x9E4 DUP2 DUP7 PUSH2 0x982 JUMP JUMPDEST SWAP1 POP DUP2 DUP2 SUB PUSH1 0x20 DUP4 ADD MSTORE PUSH2 0x9F8 DUP2 DUP6 PUSH2 0x982 JUMP JUMPDEST SWAP1 POP PUSH2 0xA07 PUSH1 0x40 DUP4 ADD DUP5 PUSH2 0x9BB JUMP JUMPDEST SWAP5 SWAP4 POP POP POP POP JUMP JUMPDEST PUSH32 0x4E487B7100000000000000000000000000000000000000000000000000000000 PUSH1 0x0 MSTORE PUSH1 0x22 PUSH1 0x4 MSTORE PUSH1 0x24 PUSH1 0x0 REVERT JUMPDEST PUSH1 0x0 PUSH1 0x2 DUP3 DIV SWAP1 POP PUSH1 0x1 DUP3 AND DUP1 PUSH2 0xA56 JUMPI PUSH1 0x7F DUP3 AND SWAP2 POP JUMPDEST PUSH1 0x20 DUP3 LT DUP2 SUB PUSH2 0xA69 JUMPI PUSH2 0xA68 PUSH2 0xA0F JUMP JUMPDEST JUMPDEST POP SWAP2 SWAP1 POP JUMP JUMPDEST PUSH32 0x4E487B7100000000000000000000000000000000000000000000000000000000 PUSH1 0x0 MSTORE PUSH1 0x41 PUSH1 0x4 MSTORE PUSH1 0x24 PUSH1 0x0 REVERT JUMPDEST PUSH1 0x0 DUP2 SWAP1 POP DUP2 PUSH1 0x0 MSTORE PUSH1 0x20 PUSH1 0x0 KECCAK256 SWAP1 POP SWAP2 SWAP1 POP JUMP JUMPDEST PUSH1 0x0 PUSH1 0x20 PUSH1 0x1F DUP4 ADD DIV SWAP1 POP SWAP2 SWAP1 POP JUMP JUMPDEST PUSH1 0x0 DUP3 DUP3 SHL SWAP1 POP SWAP3 SWAP2 POP POP JUMP JUMPDEST PUSH1 0x0 PUSH1 0x8 DUP4 MUL PUSH2 0xB00 PUSH32 0xFFFFFFFFFFFFFFFFFFFFFFFFFFFFFFFFFFFFFFFFFFFFFFFFFFFFFFFFFFFFFFFF DUP3 PUSH2 0xAC3 JUMP JUMPDEST PUSH2 0xB0A DUP7 DUP4 PUSH2 0xAC3 JUMP JUMPDEST SWAP6 POP DUP1 NOT DUP5 AND SWAP4 POP DUP1 DUP7 AND DUP5 OR SWAP3 POP POP POP SWAP4 SWAP3 POP POP POP JUMP JUMPDEST PUSH1 0x0 DUP2 SWAP1 POP SWAP2 SWAP1 POP JUMP JUMPDEST PUSH1 0x0 PUSH2 0xB47 PUSH2 0xB42 PUSH2 0xB3D DUP5 PUSH2 0x8CA JUMP JUMPDEST PUSH2 0xB22 JUMP JUMPDEST PUSH2 0x8CA JUMP JUMPDEST SWAP1 POP SWAP2 SWAP1 POP JUMP JUMPDEST PUSH1 0x0 DUP2 SWAP1 POP SWAP2 SWAP1 POP JUMP JUMPDEST PUSH2 0xB61 DUP4 PUSH2 0xB2C JUMP JUMPDEST PUSH2 0xB75 PUSH2 0xB6D DUP3 PUSH2 0xB4E JUMP JUMPDEST DUP5 DUP5 SLOAD PUSH2 0xAD0 JUMP JUMPDEST DUP3 SSTORE POP POP POP POP JUMP JUMPDEST PUSH1 0x0 SWAP1 JUMP JUMPDEST PUSH2 0xB8A PUSH2 0xB7D JUMP JUMPDEST PUSH2 0xB95 DUP2 DUP5 DUP5 PUSH2 0xB58 JUMP JUMPDEST POP POP POP JUMP JUMPDEST JUMPDEST DUP2 DUP2 LT ISZERO PUSH2 0xBB9 JUMPI PUSH2 0xBAE PUSH1 0x0 DUP3 PUSH2 0xB82 JUMP JUMPDEST PUSH1 0x1 DUP2 ADD SWAP1 POP PUSH2 0xB9B JUMP JUMPDEST POP POP JUMP JUMPDEST PUSH1 0x1F DUP3 GT ISZERO PUSH2 0xBFE JUMPI PUSH2 0xBCF DUP2 PUSH2 0xA9E JUMP JUMPDEST PUSH2 0xBD8 DUP5 PUSH2 0xAB3 JUMP JUMPDEST DUP2 ADD PUSH1 0x20 DUP6 LT ISZERO PUSH2 0xBE7 JUMPI DUP2 SWAP1 POP JUMPDEST PUSH2 0xBFB PUSH2 0xBF3 DUP6 PUSH2 0xAB3 JUMP JUMPDEST DUP4 ADD DUP3 PUSH2 0xB9A JUMP JUMPDEST POP POP JUMPDEST POP POP POP JUMP JUMPDEST PUSH1 0x0 DUP3 DUP3 SHR SWAP1 POP SWAP3 SWAP2 POP POP JUMP JUMPDEST PUSH1 0x0 PUSH2 0xC21 PUSH1 0x0 NOT DUP5 PUSH1 0x8 MUL PUSH2 0xC03 JUMP JUMPDEST NOT DUP1 DUP4 AND SWAP2 POP POP SWAP3 SWAP2 POP POP JUMP JUMPDEST PUSH1 0x0 PUSH2 0xC3A DUP4 DUP4 PUSH2 0xC10 JUMP JUMPDEST SWAP2 POP DUP3 PUSH1 0x2 MUL DUP3 OR SWAP1 POP SWAP3 SWAP2 POP POP JUMP JUMPDEST PUSH2 0xC53 DUP3 PUSH2 0x83A JUMP JUMPDEST PUSH8 0xFFFFFFFFFFFFFFFF DUP2 GT ISZERO PUSH2 0xC6C JUMPI PUSH2 0xC6B PUSH2 0xA6F JUMP JUMPDEST JUMPDEST PUSH2 0xC76 DUP3 SLOAD PUSH2 0xA3E JUMP JUMPDEST PUSH2 0xC81 DUP3 DUP3 DUP6 PUSH2 0xBBD JUMP JUMPDEST PUSH1 0x0 PUSH1 0x20 SWAP1 POP PUSH1 0x1F DUP4 GT PUSH1 0x1 DUP2 EQ PUSH2 0xCB4 JUMPI PUSH1 0x0 DUP5 ISZERO PUSH2 0xCA2 JUMPI DUP3 DUP8 ADD MLOAD SWAP1 POP JUMPDEST PUSH2 0xCAC DUP6 DUP3 PUSH2 0xC2E JUMP JUMPDEST DUP7 SSTORE POP PUSH2 0xD14 JUMP JUMPDEST PUSH1 0x1F NOT DUP5 AND PUSH2 0xCC2 DUP7 PUSH2 0xA9E JUMP JUMPDEST PUSH1 0x0 JUMPDEST DUP3 DUP2 LT ISZERO PUSH2 0xCEA JUMPI DUP5 DUP10 ADD MLOAD DUP3 SSTORE PUSH1 0x1 DUP3 ADD SWAP2 POP PUSH1 0x20 DUP6 ADD SWAP5 POP PUSH1 0x20 DUP2 ADD SWAP1 POP PUSH2 0xCC5 JUMP JUMPDEST DUP7 DUP4 LT ISZERO PUSH2 0xD07 JUMPI DUP5 DUP10 ADD MLOAD PUSH2 0xD03 PUSH1 0x1F DUP10 AND DUP3 PUSH2 0xC10 JUMP JUMPDEST DUP4 SSTORE POP JUMPDEST PUSH1 0x1 PUSH1 0x2 DUP9 MUL ADD DUP9 SSTORE POP POP POP JUMPDEST POP POP POP POP POP POP JUMP INVALID LOG2 PUSH5 0x6970667358 0x22 SLT KECCAK256 0xBF SWAP5 0xC9 0xE4 BLOCKHASH DUP14 SWAP11 0x2C XOR 0x4A PUSH3 0x7CDF4C EXTCODECOPY 0xF7 CODESIZE 0xB4 PUSH31 0x5E15AC430F95A2243D81EDCB8064736F6C6343000812003300000000000000 "
				},
				"gasEstimates": {
					"creation": {
						"codeDepositCost": "682000",
						"executionCost": "715",
						"totalCost": "682715"
					},
					"external": {
						"car()": "infinite",
						"setValues()": "infinite",
						"setValues_mem()": "infinite"
					}
				},
				"methodIdentifiers": {
					"car()": "ee26fac3",
					"setValues()": "800509d5",
					"setValues_mem()": "4e3a6aad"
				}
			},
			"storageLayout": {
				"storage": [
					{
						"astId": 11,
						"contract": "Labs (August)/mapping/exe.sol:Vehicle",
						"label": "car",
						"offset": 0,
						"slot": "0",
						"type": "t_struct(Car)8_storage"
					}
				],
				"types": {
					"t_string_storage": {
						"encoding": "bytes",
						"label": "string",
						"numberOfBytes": "32"
					},
					"t_struct(Car)8_storage": {
						"encoding": "inplace",
						"label": "struct Vehicle.Car",
						"members": [
							{
								"astId": 3,
								"contract": "Labs (August)/mapping/exe.sol:Vehicle",
								"label": "make",
								"offset": 0,
								"slot": "0",
								"type": "t_string_storage"
							},
							{
								"astId": 5,
								"contract": "Labs (August)/mapping/exe.sol:Vehicle",
								"label": "model",
								"offset": 0,
								"slot": "1",
								"type": "t_string_storage"
							},
							{
								"astId": 7,
								"contract": "Labs (August)/mapping/exe.sol:Vehicle",
								"label": "year",
								"offset": 0,
								"slot": "2",
								"type": "t_uint256"
							}
						],
						"numberOfBytes": "96"
					},
					"t_uint256": {
						"encoding": "inplace",
						"label": "uint256",
						"numberOfBytes": "32"
					}
				}
			},
			"userdoc": {
				"kind": "user",
				"methods": {},
				"version": 1
			}
		}
	}
}