{
	"data": {
		"bytecode": {
			"linkReferences": {},
			"object": "608060405234801561001057600080fd5b50610461806100206000396000f3fe608060405234801561001057600080fd5b50600436106100415760003560e01c8063234f0ec51461004657806371e5ee5f14610062578063a8d4eb2714610092575b600080fd5b610060600480360381019061005b919061020b565b6100c2565b005b61007c6004803603810190610077919061020b565b610139565b6040516100899190610247565b60405180910390f35b6100ac60048036038101906100a7919061020b565b61015d565b6040516100b9919061027d565b60405180910390f35b6100cb8161015d565b1561010d57806040517f3936847d00000000000000000000000000000000000000000000000000000000815260040161010491906102f5565b60405180910390fd5b600081908060018154018082558091505060019003906000526020600020016000909190919091505550565b6000818154811061014957600080fd5b906000526020600020016000915090505481565b60008082148061016d5750600182145b1561017b57600090506101cb565b6000600290505b60028361018f9190610381565b81116101c557600081846101a391906103b2565b036101b25760019150506101cb565b80806101bd906103e3565b915050610182565b50600090505b919050565b600080fd5b6000819050919050565b6101e8816101d5565b81146101f357600080fd5b50565b600081359050610205816101df565b92915050565b600060208284031215610221576102206101d0565b5b600061022f848285016101f6565b91505092915050565b610241816101d5565b82525050565b600060208201905061025c6000830184610238565b92915050565b60008115159050919050565b61027781610262565b82525050565b6000602082019050610292600083018461026e565b92915050565b600082825260208201905092915050565b7f746865206e756d626572206973206e6f742061207072696d65206e756d626572600082015250565b60006102df602083610298565b91506102ea826102a9565b602082019050919050565b6000604082019050818103600083015261030e816102d2565b905061031d6020830184610238565b92915050565b7f4e487b7100000000000000000000000000000000000000000000000000000000600052601260045260246000fd5b7f4e487b7100000000000000000000000000000000000000000000000000000000600052601160045260246000fd5b600061038c826101d5565b9150610397836101d5565b9250826103a7576103a6610323565b5b828204905092915050565b60006103bd826101d5565b91506103c8836101d5565b9250826103d8576103d7610323565b5b828206905092915050565b60006103ee826101d5565b91507fffffffffffffffffffffffffffffffffffffffffffffffffffffffffffffffff82036104205761041f610352565b5b60018201905091905056fea26469706673582212204ee4601fadc8e70dcdea6b1bf44f0867d727dca899068104963308840075907364736f6c63430008120033",
			"opcodes": "PUSH1 0x80 PUSH1 0x40 MSTORE CALLVALUE DUP1 ISZERO PUSH2 0x10 JUMPI PUSH1 0x0 DUP1 REVERT JUMPDEST POP PUSH2 0x461 DUP1 PUSH2 0x20 PUSH1 0x0 CODECOPY PUSH1 0x0 RETURN INVALID PUSH1 0x80 PUSH1 0x40 MSTORE CALLVALUE DUP1 ISZERO PUSH2 0x10 JUMPI PUSH1 0x0 DUP1 REVERT JUMPDEST POP PUSH1 0x4 CALLDATASIZE LT PUSH2 0x41 JUMPI PUSH1 0x0 CALLDATALOAD PUSH1 0xE0 SHR DUP1 PUSH4 0x234F0EC5 EQ PUSH2 0x46 JUMPI DUP1 PUSH4 0x71E5EE5F EQ PUSH2 0x62 JUMPI DUP1 PUSH4 0xA8D4EB27 EQ PUSH2 0x92 JUMPI JUMPDEST PUSH1 0x0 DUP1 REVERT JUMPDEST PUSH2 0x60 PUSH1 0x4 DUP1 CALLDATASIZE SUB DUP2 ADD SWAP1 PUSH2 0x5B SWAP2 SWAP1 PUSH2 0x20B JUMP JUMPDEST PUSH2 0xC2 JUMP JUMPDEST STOP JUMPDEST PUSH2 0x7C PUSH1 0x4 DUP1 CALLDATASIZE SUB DUP2 ADD SWAP1 PUSH2 0x77 SWAP2 SWAP1 PUSH2 0x20B JUMP JUMPDEST PUSH2 0x139 JUMP JUMPDEST PUSH1 0x40 MLOAD PUSH2 0x89 SWAP2 SWAP1 PUSH2 0x247 JUMP JUMPDEST PUSH1 0x40 MLOAD DUP1 SWAP2 SUB SWAP1 RETURN JUMPDEST PUSH2 0xAC PUSH1 0x4 DUP1 CALLDATASIZE SUB DUP2 ADD SWAP1 PUSH2 0xA7 SWAP2 SWAP1 PUSH2 0x20B JUMP JUMPDEST PUSH2 0x15D JUMP JUMPDEST PUSH1 0x40 MLOAD PUSH2 0xB9 SWAP2 SWAP1 PUSH2 0x27D JUMP JUMPDEST PUSH1 0x40 MLOAD DUP1 SWAP2 SUB SWAP1 RETURN JUMPDEST PUSH2 0xCB DUP2 PUSH2 0x15D JUMP JUMPDEST ISZERO PUSH2 0x10D JUMPI DUP1 PUSH1 0x40 MLOAD PUSH32 0x3936847D00000000000000000000000000000000000000000000000000000000 DUP2 MSTORE PUSH1 0x4 ADD PUSH2 0x104 SWAP2 SWAP1 PUSH2 0x2F5 JUMP JUMPDEST PUSH1 0x40 MLOAD DUP1 SWAP2 SUB SWAP1 REVERT JUMPDEST PUSH1 0x0 DUP2 SWAP1 DUP1 PUSH1 0x1 DUP2 SLOAD ADD DUP1 DUP3 SSTORE DUP1 SWAP2 POP POP PUSH1 0x1 SWAP1 SUB SWAP1 PUSH1 0x0 MSTORE PUSH1 0x20 PUSH1 0x0 KECCAK256 ADD PUSH1 0x0 SWAP1 SWAP2 SWAP1 SWAP2 SWAP1 SWAP2 POP SSTORE POP JUMP JUMPDEST PUSH1 0x0 DUP2 DUP2 SLOAD DUP2 LT PUSH2 0x149 JUMPI PUSH1 0x0 DUP1 REVERT JUMPDEST SWAP1 PUSH1 0x0 MSTORE PUSH1 0x20 PUSH1 0x0 KECCAK256 ADD PUSH1 0x0 SWAP2 POP SWAP1 POP SLOAD DUP2 JUMP JUMPDEST PUSH1 0x0 DUP1 DUP3 EQ DUP1 PUSH2 0x16D JUMPI POP PUSH1 0x1 DUP3 EQ JUMPDEST ISZERO PUSH2 0x17B JUMPI PUSH1 0x0 SWAP1 POP PUSH2 0x1CB JUMP JUMPDEST PUSH1 0x0 PUSH1 0x2 SWAP1 POP JUMPDEST PUSH1 0x2 DUP4 PUSH2 0x18F SWAP2 SWAP1 PUSH2 0x381 JUMP JUMPDEST DUP2 GT PUSH2 0x1C5 JUMPI PUSH1 0x0 DUP2 DUP5 PUSH2 0x1A3 SWAP2 SWAP1 PUSH2 0x3B2 JUMP JUMPDEST SUB PUSH2 0x1B2 JUMPI PUSH1 0x1 SWAP2 POP POP PUSH2 0x1CB JUMP JUMPDEST DUP1 DUP1 PUSH2 0x1BD SWAP1 PUSH2 0x3E3 JUMP JUMPDEST SWAP2 POP POP PUSH2 0x182 JUMP JUMPDEST POP PUSH1 0x0 SWAP1 POP JUMPDEST SWAP2 SWAP1 POP JUMP JUMPDEST PUSH1 0x0 DUP1 REVERT JUMPDEST PUSH1 0x0 DUP2 SWAP1 POP SWAP2 SWAP1 POP JUMP JUMPDEST PUSH2 0x1E8 DUP2 PUSH2 0x1D5 JUMP JUMPDEST DUP2 EQ PUSH2 0x1F3 JUMPI PUSH1 0x0 DUP1 REVERT JUMPDEST POP JUMP JUMPDEST PUSH1 0x0 DUP2 CALLDATALOAD SWAP1 POP PUSH2 0x205 DUP2 PUSH2 0x1DF JUMP JUMPDEST SWAP3 SWAP2 POP POP JUMP JUMPDEST PUSH1 0x0 PUSH1 0x20 DUP3 DUP5 SUB SLT ISZERO PUSH2 0x221 JUMPI PUSH2 0x220 PUSH2 0x1D0 JUMP JUMPDEST JUMPDEST PUSH1 0x0 PUSH2 0x22F DUP5 DUP3 DUP6 ADD PUSH2 0x1F6 JUMP JUMPDEST SWAP2 POP POP SWAP3 SWAP2 POP POP JUMP JUMPDEST PUSH2 0x241 DUP2 PUSH2 0x1D5 JUMP JUMPDEST DUP3 MSTORE POP POP JUMP JUMPDEST PUSH1 0x0 PUSH1 0x20 DUP3 ADD SWAP1 POP PUSH2 0x25C PUSH1 0x0 DUP4 ADD DUP5 PUSH2 0x238 JUMP JUMPDEST SWAP3 SWAP2 POP POP JUMP JUMPDEST PUSH1 0x0 DUP2 ISZERO ISZERO SWAP1 POP SWAP2 SWAP1 POP JUMP JUMPDEST PUSH2 0x277 DUP2 PUSH2 0x262 JUMP JUMPDEST DUP3 MSTORE POP POP JUMP JUMPDEST PUSH1 0x0 PUSH1 0x20 DUP3 ADD SWAP1 POP PUSH2 0x292 PUSH1 0x0 DUP4 ADD DUP5 PUSH2 0x26E JUMP JUMPDEST SWAP3 SWAP2 POP POP JUMP JUMPDEST PUSH1 0x0 DUP3 DUP3 MSTORE PUSH1 0x20 DUP3 ADD SWAP1 POP SWAP3 SWAP2 POP POP JUMP JUMPDEST PUSH32 0x746865206E756D626572206973206E6F742061207072696D65206E756D626572 PUSH1 0x0 DUP3 ADD MSTORE POP JUMP JUMPDEST PUSH1 0x0 PUSH2 0x2DF PUSH1 0x20 DUP4 PUSH2 0x298 JUMP JUMPDEST SWAP2 POP PUSH2 0x2EA DUP3 PUSH2 0x2A9 JUMP JUMPDEST PUSH1 0x20 DUP3 ADD SWAP1 POP SWAP2 SWAP1 POP JUMP JUMPDEST PUSH1 0x0 PUSH1 0x40 DUP3 ADD SWAP1 POP DUP2 DUP2 SUB PUSH1 0x0 DUP4 ADD MSTORE PUSH2 0x30E DUP2 PUSH2 0x2D2 JUMP JUMPDEST SWAP1 POP PUSH2 0x31D PUSH1 0x20 DUP4 ADD DUP5 PUSH2 0x238 JUMP JUMPDEST SWAP3 SWAP2 POP POP JUMP JUMPDEST PUSH32 0x4E487B7100000000000000000000000000000000000000000000000000000000 PUSH1 0x0 MSTORE PUSH1 0x12 PUSH1 0x4 MSTORE PUSH1 0x24 PUSH1 0x0 REVERT JUMPDEST PUSH32 0x4E487B7100000000000000000000000000000000000000000000000000000000 PUSH1 0x0 MSTORE PUSH1 0x11 PUSH1 0x4 MSTORE PUSH1 0x24 PUSH1 0x0 REVERT JUMPDEST PUSH1 0x0 PUSH2 0x38C DUP3 PUSH2 0x1D5 JUMP JUMPDEST SWAP2 POP PUSH2 0x397 DUP4 PUSH2 0x1D5 JUMP JUMPDEST SWAP3 POP DUP3 PUSH2 0x3A7 JUMPI PUSH2 0x3A6 PUSH2 0x323 JUMP JUMPDEST JUMPDEST DUP3 DUP3 DIV SWAP1 POP SWAP3 SWAP2 POP POP JUMP JUMPDEST PUSH1 0x0 PUSH2 0x3BD DUP3 PUSH2 0x1D5 JUMP JUMPDEST SWAP2 POP PUSH2 0x3C8 DUP4 PUSH2 0x1D5 JUMP JUMPDEST SWAP3 POP DUP3 PUSH2 0x3D8 JUMPI PUSH2 0x3D7 PUSH2 0x323 JUMP JUMPDEST JUMPDEST DUP3 DUP3 MOD SWAP1 POP SWAP3 SWAP2 POP POP JUMP JUMPDEST PUSH1 0x0 PUSH2 0x3EE DUP3 PUSH2 0x1D5 JUMP JUMPDEST SWAP2 POP PUSH32 0xFFFFFFFFFFFFFFFFFFFFFFFFFFFFFFFFFFFFFFFFFFFFFFFFFFFFFFFFFFFFFFFF DUP3 SUB PUSH2 0x420 JUMPI PUSH2 0x41F PUSH2 0x352 JUMP JUMPDEST JUMPDEST PUSH1 0x1 DUP3 ADD SWAP1 POP SWAP2 SWAP1 POP JUMP INVALID LOG2 PUSH5 0x6970667358 0x22 SLT KECCAK256 0x4E 0xE4 PUSH1 0x1F 0xAD 0xC8 0xE7 0xD 0xCD 0xEA PUSH12 0x1BF44F0867D727DCA8990681 DIV SWAP7 CALLER ADDMOD DUP5 STOP PUSH22 0x907364736F6C63430008120033000000000000000000 "
		},
		"gasEstimates": {
			"creation": {
				"codeDepositCost": "224200",
				"executionCost": "269",
				"totalCost": "224469"
			},
			"external": {
				"IsPrime(uint256)": "infinite",
				"arr(uint256)": "infinite",
				"upush(uint256)": "infinite"
			}
		},
		"methodIdentifiers": {
			"IsPrime(uint256)": "a8d4eb27",
			"arr(uint256)": "71e5ee5f",
			"upush(uint256)": "234f0ec5"
		}
	},
	"abi": [
		{
			"inputs": [
				{
					"internalType": "string",
					"name": "message",
					"type": "string"
				},
				{
					"internalType": "uint256",
					"name": "number",
					"type": "uint256"
				}
			],
			"name": "custom",
			"type": "error"
		},
		{
			"inputs": [
				{
					"internalType": "uint256",
					"name": "num",
					"type": "uint256"
				}
			],
			"name": "IsPrime",
			"outputs": [
				{
					"internalType": "bool",
					"name": "",
					"type": "bool"
				}
			],
			"stateMutability": "pure",
			"type": "function"
		},
		{
			"inputs": [
				{
					"internalType": "uint256",
					"name": "",
					"type": "uint256"
				}
			],
			"name": "arr",
			"outputs": [
				{
					"internalType": "uint256",
					"name": "",
					"type": "uint256"
				}
			],
			"stateMutability": "view",
			"type": "function"
		},
		{
			"inputs": [
				{
					"internalType": "uint256",
					"name": "num",
					"type": "uint256"
				}
			],
			"name": "upush",
			"outputs": [],
			"stateMutability": "nonpayable",
			"type": "function"
		}
	]
}