{
	"data": {
		"bytecode": {
			"linkReferences": {},
			"object": "608060405234801561001057600080fd5b50610572806100206000396000f3fe608060405234801561001057600080fd5b50600436106100415760003560e01c806327e235e314610046578063288671a41461007657806396f40b0f14610092575b600080fd5b610060600480360381019061005b919061030e565b61009c565b60405161006d9190610354565b60405180910390f35b610090600480360381019061008b91906103c2565b6100b4565b005b61009a610264565b005b60006020528060005260406000206000915090505481565b817affffffffffffffffffffffffffffffffffffffffffffffffffffff166000803373ffffffffffffffffffffffffffffffffffffffff1673ffffffffffffffffffffffffffffffffffffffff168152602001908152602001600020600082825461011f9190610431565b925050819055506000808273ffffffffffffffffffffffffffffffffffffffff1673ffffffffffffffffffffffffffffffffffffffff16815260200190815260200160002050817affffffffffffffffffffffffffffffffffffffffffffffffffffff166000808373ffffffffffffffffffffffffffffffffffffffff1673ffffffffffffffffffffffffffffffffffffffff16815260200190815260200160002060008282546101d09190610465565b925050819055506000827affffffffffffffffffffffffffffffffffffffffffffffffffffff1611801561022157506064827affffffffffffffffffffffffffffffffffffffffffffffffffffff16105b610260576040517f08c379a00000000000000000000000000000000000000000000000000000000081526004016102579061051c565b60405180910390fd5b5050565b6103e86000803373ffffffffffffffffffffffffffffffffffffffff1673ffffffffffffffffffffffffffffffffffffffff16815260200190815260200160002081905550565b600080fd5b600073ffffffffffffffffffffffffffffffffffffffff82169050919050565b60006102db826102b0565b9050919050565b6102eb816102d0565b81146102f657600080fd5b50565b600081359050610308816102e2565b92915050565b600060208284031215610324576103236102ab565b5b6000610332848285016102f9565b91505092915050565b6000819050919050565b61034e8161033b565b82525050565b60006020820190506103696000830184610345565b92915050565b60007affffffffffffffffffffffffffffffffffffffffffffffffffffff82169050919050565b61039f8161036f565b81146103aa57600080fd5b50565b6000813590506103bc81610396565b92915050565b600080604083850312156103d9576103d86102ab565b5b60006103e7858286016103ad565b92505060206103f8858286016102f9565b9150509250929050565b7f4e487b7100000000000000000000000000000000000000000000000000000000600052601160045260246000fd5b600061043c8261033b565b91506104478361033b565b925082820390508181111561045f5761045e610402565b5b92915050565b60006104708261033b565b915061047b8361033b565b925082820190508082111561049357610492610402565b5b92915050565b600082825260208201905092915050565b7f616d6f756e742073686f756c64206265206c657373207468616e20313030206160008201527f6e642067726561746572207468616e2030000000000000000000000000000000602082015250565b6000610506603183610499565b9150610511826104aa565b604082019050919050565b60006020820190508181036000830152610535816104f9565b905091905056fea2646970667358221220472ed5e4ef24c3cd594287f218d1b34080d972c5bf17d9cb3d951f06f59f322c64736f6c63430008120033",
			"opcodes": "PUSH1 0x80 PUSH1 0x40 MSTORE CALLVALUE DUP1 ISZERO PUSH2 0x10 JUMPI PUSH1 0x0 DUP1 REVERT JUMPDEST POP PUSH2 0x572 DUP1 PUSH2 0x20 PUSH1 0x0 CODECOPY PUSH1 0x0 RETURN INVALID PUSH1 0x80 PUSH1 0x40 MSTORE CALLVALUE DUP1 ISZERO PUSH2 0x10 JUMPI PUSH1 0x0 DUP1 REVERT JUMPDEST POP PUSH1 0x4 CALLDATASIZE LT PUSH2 0x41 JUMPI PUSH1 0x0 CALLDATALOAD PUSH1 0xE0 SHR DUP1 PUSH4 0x27E235E3 EQ PUSH2 0x46 JUMPI DUP1 PUSH4 0x288671A4 EQ PUSH2 0x76 JUMPI DUP1 PUSH4 0x96F40B0F EQ PUSH2 0x92 JUMPI JUMPDEST PUSH1 0x0 DUP1 REVERT JUMPDEST PUSH2 0x60 PUSH1 0x4 DUP1 CALLDATASIZE SUB DUP2 ADD SWAP1 PUSH2 0x5B SWAP2 SWAP1 PUSH2 0x30E JUMP JUMPDEST PUSH2 0x9C JUMP JUMPDEST PUSH1 0x40 MLOAD PUSH2 0x6D SWAP2 SWAP1 PUSH2 0x354 JUMP JUMPDEST PUSH1 0x40 MLOAD DUP1 SWAP2 SUB SWAP1 RETURN JUMPDEST PUSH2 0x90 PUSH1 0x4 DUP1 CALLDATASIZE SUB DUP2 ADD SWAP1 PUSH2 0x8B SWAP2 SWAP1 PUSH2 0x3C2 JUMP JUMPDEST PUSH2 0xB4 JUMP JUMPDEST STOP JUMPDEST PUSH2 0x9A PUSH2 0x264 JUMP JUMPDEST STOP JUMPDEST PUSH1 0x0 PUSH1 0x20 MSTORE DUP1 PUSH1 0x0 MSTORE PUSH1 0x40 PUSH1 0x0 KECCAK256 PUSH1 0x0 SWAP2 POP SWAP1 POP SLOAD DUP2 JUMP JUMPDEST DUP2 PUSH27 0xFFFFFFFFFFFFFFFFFFFFFFFFFFFFFFFFFFFFFFFFFFFFFFFFFFFFFF AND PUSH1 0x0 DUP1 CALLER PUSH20 0xFFFFFFFFFFFFFFFFFFFFFFFFFFFFFFFFFFFFFFFF AND PUSH20 0xFFFFFFFFFFFFFFFFFFFFFFFFFFFFFFFFFFFFFFFF AND DUP2 MSTORE PUSH1 0x20 ADD SWAP1 DUP2 MSTORE PUSH1 0x20 ADD PUSH1 0x0 KECCAK256 PUSH1 0x0 DUP3 DUP3 SLOAD PUSH2 0x11F SWAP2 SWAP1 PUSH2 0x431 JUMP JUMPDEST SWAP3 POP POP DUP2 SWAP1 SSTORE POP PUSH1 0x0 DUP1 DUP3 PUSH20 0xFFFFFFFFFFFFFFFFFFFFFFFFFFFFFFFFFFFFFFFF AND PUSH20 0xFFFFFFFFFFFFFFFFFFFFFFFFFFFFFFFFFFFFFFFF AND DUP2 MSTORE PUSH1 0x20 ADD SWAP1 DUP2 MSTORE PUSH1 0x20 ADD PUSH1 0x0 KECCAK256 POP DUP2 PUSH27 0xFFFFFFFFFFFFFFFFFFFFFFFFFFFFFFFFFFFFFFFFFFFFFFFFFFFFFF AND PUSH1 0x0 DUP1 DUP4 PUSH20 0xFFFFFFFFFFFFFFFFFFFFFFFFFFFFFFFFFFFFFFFF AND PUSH20 0xFFFFFFFFFFFFFFFFFFFFFFFFFFFFFFFFFFFFFFFF AND DUP2 MSTORE PUSH1 0x20 ADD SWAP1 DUP2 MSTORE PUSH1 0x20 ADD PUSH1 0x0 KECCAK256 PUSH1 0x0 DUP3 DUP3 SLOAD PUSH2 0x1D0 SWAP2 SWAP1 PUSH2 0x465 JUMP JUMPDEST SWAP3 POP POP DUP2 SWAP1 SSTORE POP PUSH1 0x0 DUP3 PUSH27 0xFFFFFFFFFFFFFFFFFFFFFFFFFFFFFFFFFFFFFFFFFFFFFFFFFFFFFF AND GT DUP1 ISZERO PUSH2 0x221 JUMPI POP PUSH1 0x64 DUP3 PUSH27 0xFFFFFFFFFFFFFFFFFFFFFFFFFFFFFFFFFFFFFFFFFFFFFFFFFFFFFF AND LT JUMPDEST PUSH2 0x260 JUMPI PUSH1 0x40 MLOAD PUSH32 0x8C379A000000000000000000000000000000000000000000000000000000000 DUP2 MSTORE PUSH1 0x4 ADD PUSH2 0x257 SWAP1 PUSH2 0x51C JUMP JUMPDEST PUSH1 0x40 MLOAD DUP1 SWAP2 SUB SWAP1 REVERT JUMPDEST POP POP JUMP JUMPDEST PUSH2 0x3E8 PUSH1 0x0 DUP1 CALLER PUSH20 0xFFFFFFFFFFFFFFFFFFFFFFFFFFFFFFFFFFFFFFFF AND PUSH20 0xFFFFFFFFFFFFFFFFFFFFFFFFFFFFFFFFFFFFFFFF AND DUP2 MSTORE PUSH1 0x20 ADD SWAP1 DUP2 MSTORE PUSH1 0x20 ADD PUSH1 0x0 KECCAK256 DUP2 SWAP1 SSTORE POP JUMP JUMPDEST PUSH1 0x0 DUP1 REVERT JUMPDEST PUSH1 0x0 PUSH20 0xFFFFFFFFFFFFFFFFFFFFFFFFFFFFFFFFFFFFFFFF DUP3 AND SWAP1 POP SWAP2 SWAP1 POP JUMP JUMPDEST PUSH1 0x0 PUSH2 0x2DB DUP3 PUSH2 0x2B0 JUMP JUMPDEST SWAP1 POP SWAP2 SWAP1 POP JUMP JUMPDEST PUSH2 0x2EB DUP2 PUSH2 0x2D0 JUMP JUMPDEST DUP2 EQ PUSH2 0x2F6 JUMPI PUSH1 0x0 DUP1 REVERT JUMPDEST POP JUMP JUMPDEST PUSH1 0x0 DUP2 CALLDATALOAD SWAP1 POP PUSH2 0x308 DUP2 PUSH2 0x2E2 JUMP JUMPDEST SWAP3 SWAP2 POP POP JUMP JUMPDEST PUSH1 0x0 PUSH1 0x20 DUP3 DUP5 SUB SLT ISZERO PUSH2 0x324 JUMPI PUSH2 0x323 PUSH2 0x2AB JUMP JUMPDEST JUMPDEST PUSH1 0x0 PUSH2 0x332 DUP5 DUP3 DUP6 ADD PUSH2 0x2F9 JUMP JUMPDEST SWAP2 POP POP SWAP3 SWAP2 POP POP JUMP JUMPDEST PUSH1 0x0 DUP2 SWAP1 POP SWAP2 SWAP1 POP JUMP JUMPDEST PUSH2 0x34E DUP2 PUSH2 0x33B JUMP JUMPDEST DUP3 MSTORE POP POP JUMP JUMPDEST PUSH1 0x0 PUSH1 0x20 DUP3 ADD SWAP1 POP PUSH2 0x369 PUSH1 0x0 DUP4 ADD DUP5 PUSH2 0x345 JUMP JUMPDEST SWAP3 SWAP2 POP POP JUMP JUMPDEST PUSH1 0x0 PUSH27 0xFFFFFFFFFFFFFFFFFFFFFFFFFFFFFFFFFFFFFFFFFFFFFFFFFFFFFF DUP3 AND SWAP1 POP SWAP2 SWAP1 POP JUMP JUMPDEST PUSH2 0x39F DUP2 PUSH2 0x36F JUMP JUMPDEST DUP2 EQ PUSH2 0x3AA JUMPI PUSH1 0x0 DUP1 REVERT JUMPDEST POP JUMP JUMPDEST PUSH1 0x0 DUP2 CALLDATALOAD SWAP1 POP PUSH2 0x3BC DUP2 PUSH2 0x396 JUMP JUMPDEST SWAP3 SWAP2 POP POP JUMP JUMPDEST PUSH1 0x0 DUP1 PUSH1 0x40 DUP4 DUP6 SUB SLT ISZERO PUSH2 0x3D9 JUMPI PUSH2 0x3D8 PUSH2 0x2AB JUMP JUMPDEST JUMPDEST PUSH1 0x0 PUSH2 0x3E7 DUP6 DUP3 DUP7 ADD PUSH2 0x3AD JUMP JUMPDEST SWAP3 POP POP PUSH1 0x20 PUSH2 0x3F8 DUP6 DUP3 DUP7 ADD PUSH2 0x2F9 JUMP JUMPDEST SWAP2 POP POP SWAP3 POP SWAP3 SWAP1 POP JUMP JUMPDEST PUSH32 0x4E487B7100000000000000000000000000000000000000000000000000000000 PUSH1 0x0 MSTORE PUSH1 0x11 PUSH1 0x4 MSTORE PUSH1 0x24 PUSH1 0x0 REVERT JUMPDEST PUSH1 0x0 PUSH2 0x43C DUP3 PUSH2 0x33B JUMP JUMPDEST SWAP2 POP PUSH2 0x447 DUP4 PUSH2 0x33B JUMP JUMPDEST SWAP3 POP DUP3 DUP3 SUB SWAP1 POP DUP2 DUP2 GT ISZERO PUSH2 0x45F JUMPI PUSH2 0x45E PUSH2 0x402 JUMP JUMPDEST JUMPDEST SWAP3 SWAP2 POP POP JUMP JUMPDEST PUSH1 0x0 PUSH2 0x470 DUP3 PUSH2 0x33B JUMP JUMPDEST SWAP2 POP PUSH2 0x47B DUP4 PUSH2 0x33B JUMP JUMPDEST SWAP3 POP DUP3 DUP3 ADD SWAP1 POP DUP1 DUP3 GT ISZERO PUSH2 0x493 JUMPI PUSH2 0x492 PUSH2 0x402 JUMP JUMPDEST JUMPDEST SWAP3 SWAP2 POP POP JUMP JUMPDEST PUSH1 0x0 DUP3 DUP3 MSTORE PUSH1 0x20 DUP3 ADD SWAP1 POP SWAP3 SWAP2 POP POP JUMP JUMPDEST PUSH32 0x616D6F756E742073686F756C64206265206C657373207468616E203130302061 PUSH1 0x0 DUP3 ADD MSTORE PUSH32 0x6E642067726561746572207468616E2030000000000000000000000000000000 PUSH1 0x20 DUP3 ADD MSTORE POP JUMP JUMPDEST PUSH1 0x0 PUSH2 0x506 PUSH1 0x31 DUP4 PUSH2 0x499 JUMP JUMPDEST SWAP2 POP PUSH2 0x511 DUP3 PUSH2 0x4AA JUMP JUMPDEST PUSH1 0x40 DUP3 ADD SWAP1 POP SWAP2 SWAP1 POP JUMP JUMPDEST PUSH1 0x0 PUSH1 0x20 DUP3 ADD SWAP1 POP DUP2 DUP2 SUB PUSH1 0x0 DUP4 ADD MSTORE PUSH2 0x535 DUP2 PUSH2 0x4F9 JUMP JUMPDEST SWAP1 POP SWAP2 SWAP1 POP JUMP INVALID LOG2 PUSH5 0x6970667358 0x22 SLT KECCAK256 SELFBALANCE 0x2E 0xD5 0xE4 0xEF 0x24 0xC3 0xCD MSIZE TIMESTAMP DUP8 CALLCODE XOR 0xD1 0xB3 BLOCKHASH DUP1 0xD9 PUSH19 0xC5BF17D9CB3D951F06F59F322C64736F6C6343 STOP ADDMOD SLT STOP CALLER "
		},
		"gasEstimates": {
			"creation": {
				"codeDepositCost": "278800",
				"executionCost": "318",
				"totalCost": "279118"
			},
			"external": {
				"Transfer(uint216,address)": "infinite",
				"balances(address)": "2792",
				"givebtc()": "22369"
			}
		},
		"methodIdentifiers": {
			"Transfer(uint216,address)": "288671a4",
			"balances(address)": "27e235e3",
			"givebtc()": "96f40b0f"
		}
	},
	"abi": [
		{
			"inputs": [
				{
					"internalType": "uint216",
					"name": "amount",
					"type": "uint216"
				},
				{
					"internalType": "address",
					"name": "recipient",
					"type": "address"
				}
			],
			"name": "Transfer",
			"outputs": [],
			"stateMutability": "nonpayable",
			"type": "function"
		},
		{
			"inputs": [
				{
					"internalType": "address",
					"name": "",
					"type": "address"
				}
			],
			"name": "balances",
			"outputs": [
				{
					"internalType": "uint256",
					"name": "",
					"type": "uint256"
				}
			],
			"stateMutability": "view",
			"type": "function"
		},
		{
			"inputs": [],
			"name": "givebtc",
			"outputs": [],
			"stateMutability": "nonpayable",
			"type": "function"
		}
	]
}