{
	"data": {
		"bytecode": {
			"linkReferences": {},
			"object": "608060405234801561000f575f80fd5b506102f68061001d5f395ff3fe608060405234801561000f575f80fd5b5060043610610034575f3560e01c80631b1f87071461003857806375852bc014610068575b5f80fd5b610052600480360381019061004d9190610120565b610086565b60405161005f919061016d565b60405180910390f35b6100706100e4565b60405161007d919061016d565b60405180910390f35b5f8082036100c9576040517f08c379a00000000000000000000000000000000000000000000000000000000081526004016100c0906101e0565b60405180910390fd5b81836100d59190610258565b5f819055505f54905092915050565b5f5481565b5f80fd5b5f819050919050565b6100ff816100ed565b8114610109575f80fd5b50565b5f8135905061011a816100f6565b92915050565b5f8060408385031215610136576101356100e9565b5b5f6101438582860161010c565b92505060206101548582860161010c565b9150509250929050565b610167816100ed565b82525050565b5f6020820190506101805f83018461015e565b92915050565b5f82825260208201905092915050565b7f7468652064656e6f6d696e61746f72206973207a65726f0000000000000000005f82015250565b5f6101ca601783610186565b91506101d582610196565b602082019050919050565b5f6020820190508181035f8301526101f7816101be565b9050919050565b7f4e487b71000000000000000000000000000000000000000000000000000000005f52601260045260245ffd5b7f4e487b71000000000000000000000000000000000000000000000000000000005f52601160045260245ffd5b5f610262826100ed565b915061026d836100ed565b92508261027d5761027c6101fe565b5b60015f0383147f8000000000000000000000000000000000000000000000000000000000000000831416156102b5576102b461022b565b5b82820590509291505056fea26469706673582212207ace54b85a7d15ae47b7a72c0d13f4a618287a39eacf69ad8f533b39d6092d1964736f6c63430008150033",
			"opcodes": "PUSH1 0x80 PUSH1 0x40 MSTORE CALLVALUE DUP1 ISZERO PUSH2 0xF JUMPI PUSH0 DUP1 REVERT JUMPDEST POP PUSH2 0x2F6 DUP1 PUSH2 0x1D PUSH0 CODECOPY PUSH0 RETURN INVALID PUSH1 0x80 PUSH1 0x40 MSTORE CALLVALUE DUP1 ISZERO PUSH2 0xF JUMPI PUSH0 DUP1 REVERT JUMPDEST POP PUSH1 0x4 CALLDATASIZE LT PUSH2 0x34 JUMPI PUSH0 CALLDATALOAD PUSH1 0xE0 SHR DUP1 PUSH4 0x1B1F8707 EQ PUSH2 0x38 JUMPI DUP1 PUSH4 0x75852BC0 EQ PUSH2 0x68 JUMPI JUMPDEST PUSH0 DUP1 REVERT JUMPDEST PUSH2 0x52 PUSH1 0x4 DUP1 CALLDATASIZE SUB DUP2 ADD SWAP1 PUSH2 0x4D SWAP2 SWAP1 PUSH2 0x120 JUMP JUMPDEST PUSH2 0x86 JUMP JUMPDEST PUSH1 0x40 MLOAD PUSH2 0x5F SWAP2 SWAP1 PUSH2 0x16D JUMP JUMPDEST PUSH1 0x40 MLOAD DUP1 SWAP2 SUB SWAP1 RETURN JUMPDEST PUSH2 0x70 PUSH2 0xE4 JUMP JUMPDEST PUSH1 0x40 MLOAD PUSH2 0x7D SWAP2 SWAP1 PUSH2 0x16D JUMP JUMPDEST PUSH1 0x40 MLOAD DUP1 SWAP2 SUB SWAP1 RETURN JUMPDEST PUSH0 DUP1 DUP3 SUB PUSH2 0xC9 JUMPI PUSH1 0x40 MLOAD PUSH32 0x8C379A000000000000000000000000000000000000000000000000000000000 DUP2 MSTORE PUSH1 0x4 ADD PUSH2 0xC0 SWAP1 PUSH2 0x1E0 JUMP JUMPDEST PUSH1 0x40 MLOAD DUP1 SWAP2 SUB SWAP1 REVERT JUMPDEST DUP2 DUP4 PUSH2 0xD5 SWAP2 SWAP1 PUSH2 0x258 JUMP JUMPDEST PUSH0 DUP2 SWAP1 SSTORE POP PUSH0 SLOAD SWAP1 POP SWAP3 SWAP2 POP POP JUMP JUMPDEST PUSH0 SLOAD DUP2 JUMP JUMPDEST PUSH0 DUP1 REVERT JUMPDEST PUSH0 DUP2 SWAP1 POP SWAP2 SWAP1 POP JUMP JUMPDEST PUSH2 0xFF DUP2 PUSH2 0xED JUMP JUMPDEST DUP2 EQ PUSH2 0x109 JUMPI PUSH0 DUP1 REVERT JUMPDEST POP JUMP JUMPDEST PUSH0 DUP2 CALLDATALOAD SWAP1 POP PUSH2 0x11A DUP2 PUSH2 0xF6 JUMP JUMPDEST SWAP3 SWAP2 POP POP JUMP JUMPDEST PUSH0 DUP1 PUSH1 0x40 DUP4 DUP6 SUB SLT ISZERO PUSH2 0x136 JUMPI PUSH2 0x135 PUSH2 0xE9 JUMP JUMPDEST JUMPDEST PUSH0 PUSH2 0x143 DUP6 DUP3 DUP7 ADD PUSH2 0x10C JUMP JUMPDEST SWAP3 POP POP PUSH1 0x20 PUSH2 0x154 DUP6 DUP3 DUP7 ADD PUSH2 0x10C JUMP JUMPDEST SWAP2 POP POP SWAP3 POP SWAP3 SWAP1 POP JUMP JUMPDEST PUSH2 0x167 DUP2 PUSH2 0xED JUMP JUMPDEST DUP3 MSTORE POP POP JUMP JUMPDEST PUSH0 PUSH1 0x20 DUP3 ADD SWAP1 POP PUSH2 0x180 PUSH0 DUP4 ADD DUP5 PUSH2 0x15E JUMP JUMPDEST SWAP3 SWAP2 POP POP JUMP JUMPDEST PUSH0 DUP3 DUP3 MSTORE PUSH1 0x20 DUP3 ADD SWAP1 POP SWAP3 SWAP2 POP POP JUMP JUMPDEST PUSH32 0x7468652064656E6F6D696E61746F72206973207A65726F000000000000000000 PUSH0 DUP3 ADD MSTORE POP JUMP JUMPDEST PUSH0 PUSH2 0x1CA PUSH1 0x17 DUP4 PUSH2 0x186 JUMP JUMPDEST SWAP2 POP PUSH2 0x1D5 DUP3 PUSH2 0x196 JUMP JUMPDEST PUSH1 0x20 DUP3 ADD SWAP1 POP SWAP2 SWAP1 POP JUMP JUMPDEST PUSH0 PUSH1 0x20 DUP3 ADD SWAP1 POP DUP2 DUP2 SUB PUSH0 DUP4 ADD MSTORE PUSH2 0x1F7 DUP2 PUSH2 0x1BE JUMP JUMPDEST SWAP1 POP SWAP2 SWAP1 POP JUMP JUMPDEST PUSH32 0x4E487B7100000000000000000000000000000000000000000000000000000000 PUSH0 MSTORE PUSH1 0x12 PUSH1 0x4 MSTORE PUSH1 0x24 PUSH0 REVERT JUMPDEST PUSH32 0x4E487B7100000000000000000000000000000000000000000000000000000000 PUSH0 MSTORE PUSH1 0x11 PUSH1 0x4 MSTORE PUSH1 0x24 PUSH0 REVERT JUMPDEST PUSH0 PUSH2 0x262 DUP3 PUSH2 0xED JUMP JUMPDEST SWAP2 POP PUSH2 0x26D DUP4 PUSH2 0xED JUMP JUMPDEST SWAP3 POP DUP3 PUSH2 0x27D JUMPI PUSH2 0x27C PUSH2 0x1FE JUMP JUMPDEST JUMPDEST PUSH1 0x1 PUSH0 SUB DUP4 EQ PUSH32 0x8000000000000000000000000000000000000000000000000000000000000000 DUP4 EQ AND ISZERO PUSH2 0x2B5 JUMPI PUSH2 0x2B4 PUSH2 0x22B JUMP JUMPDEST JUMPDEST DUP3 DUP3 SDIV SWAP1 POP SWAP3 SWAP2 POP POP JUMP INVALID LOG2 PUSH5 0x6970667358 0x22 SLT KECCAK256 PUSH27 0xCE54B85A7D15AE47B7A72C0D13F4A618287A39EACF69AD8F533B39 0xD6 MULMOD 0x2D NOT PUSH5 0x736F6C6343 STOP ADDMOD ISZERO STOP CALLER "
		},
		"gasEstimates": {
			"creation": {
				"codeDepositCost": "151600",
				"executionCost": "194",
				"totalCost": "151794"
			},
			"external": {
				"calnum()": "2424",
				"nums(int256,int256)": "infinite"
			}
		},
		"methodIdentifiers": {
			"calnum()": "75852bc0",
			"nums(int256,int256)": "1b1f8707"
		}
	},
	"abi": [
		{
			"inputs": [],
			"name": "calnum",
			"outputs": [
				{
					"internalType": "int256",
					"name": "",
					"type": "int256"
				}
			],
			"stateMutability": "view",
			"type": "function"
		},
		{
			"inputs": [
				{
					"internalType": "int256",
					"name": "numerator",
					"type": "int256"
				},
				{
					"internalType": "int256",
					"name": "denominator",
					"type": "int256"
				}
			],
			"name": "nums",
			"outputs": [
				{
					"internalType": "int256",
					"name": "",
					"type": "int256"
				}
			],
			"stateMutability": "nonpayable",
			"type": "function"
		}
	]
}