{
	"data": {
		"bytecode": {
			"linkReferences": {},
			"object": "608060405234801561001057600080fd5b506102e3806100206000396000f3fe608060405234801561001057600080fd5b50600436106100575760003560e01c8063605954331461005c578063a2c2d66614610066578063a753977514610084578063a9cc47181461008e578063b6588ffd14610098575b600080fd5b6100646100a2565b005b61006e610108565b60405161007b9190610292565b60405180910390f35b61008c610119565b005b610096610190565b005b6100a0610208565b005b600060038111156100b6576100b561021b565b5b60008054906101000a900460ff1660038111156100d6576100d561021b565b5b036101065760016000806101000a81548160ff02191690836003811115610100576100ff61021b565b5b02179055505b565b60008054906101000a900460ff1681565b6001600381111561012d5761012c61021b565b5b60008054906101000a900460ff16600381111561014d5761014c61021b565b5b0361018e576003808111156101655761016461021b565b5b6000806101000a81548160ff021916908360038111156101885761018761021b565b5b02179055505b565b600160038111156101a4576101a361021b565b5b60008054906101000a900460ff1660038111156101c4576101c361021b565b5b0361020657600260038111156101dd576101dc61021b565b5b6000806101000a81548160ff02191690836003811115610200576101ff61021b565b5b02179055505b565b6000806101000a81549060ff0219169055565b7f4e487b7100000000000000000000000000000000000000000000000000000000600052602160045260246000fd5b6004811061025b5761025a61021b565b5b50565b600081905061026c8261024a565b919050565b600061027c8261025e565b9050919050565b61028c81610271565b82525050565b60006020820190506102a76000830184610283565b9291505056fea26469706673582212209d9c54dc3df55ef1d9ddc965b318e7d6beec55971ea2a5cda31e4c5d550919b164736f6c63430008120033",
			"opcodes": "PUSH1 0x80 PUSH1 0x40 MSTORE CALLVALUE DUP1 ISZERO PUSH2 0x10 JUMPI PUSH1 0x0 DUP1 REVERT JUMPDEST POP PUSH2 0x2E3 DUP1 PUSH2 0x20 PUSH1 0x0 CODECOPY PUSH1 0x0 RETURN INVALID PUSH1 0x80 PUSH1 0x40 MSTORE CALLVALUE DUP1 ISZERO PUSH2 0x10 JUMPI PUSH1 0x0 DUP1 REVERT JUMPDEST POP PUSH1 0x4 CALLDATASIZE LT PUSH2 0x57 JUMPI PUSH1 0x0 CALLDATALOAD PUSH1 0xE0 SHR DUP1 PUSH4 0x60595433 EQ PUSH2 0x5C JUMPI DUP1 PUSH4 0xA2C2D666 EQ PUSH2 0x66 JUMPI DUP1 PUSH4 0xA7539775 EQ PUSH2 0x84 JUMPI DUP1 PUSH4 0xA9CC4718 EQ PUSH2 0x8E JUMPI DUP1 PUSH4 0xB6588FFD EQ PUSH2 0x98 JUMPI JUMPDEST PUSH1 0x0 DUP1 REVERT JUMPDEST PUSH2 0x64 PUSH2 0xA2 JUMP JUMPDEST STOP JUMPDEST PUSH2 0x6E PUSH2 0x108 JUMP JUMPDEST PUSH1 0x40 MLOAD PUSH2 0x7B SWAP2 SWAP1 PUSH2 0x292 JUMP JUMPDEST PUSH1 0x40 MLOAD DUP1 SWAP2 SUB SWAP1 RETURN JUMPDEST PUSH2 0x8C PUSH2 0x119 JUMP JUMPDEST STOP JUMPDEST PUSH2 0x96 PUSH2 0x190 JUMP JUMPDEST STOP JUMPDEST PUSH2 0xA0 PUSH2 0x208 JUMP JUMPDEST STOP JUMPDEST PUSH1 0x0 PUSH1 0x3 DUP2 GT ISZERO PUSH2 0xB6 JUMPI PUSH2 0xB5 PUSH2 0x21B JUMP JUMPDEST JUMPDEST PUSH1 0x0 DUP1 SLOAD SWAP1 PUSH2 0x100 EXP SWAP1 DIV PUSH1 0xFF AND PUSH1 0x3 DUP2 GT ISZERO PUSH2 0xD6 JUMPI PUSH2 0xD5 PUSH2 0x21B JUMP JUMPDEST JUMPDEST SUB PUSH2 0x106 JUMPI PUSH1 0x1 PUSH1 0x0 DUP1 PUSH2 0x100 EXP DUP2 SLOAD DUP2 PUSH1 0xFF MUL NOT AND SWAP1 DUP4 PUSH1 0x3 DUP2 GT ISZERO PUSH2 0x100 JUMPI PUSH2 0xFF PUSH2 0x21B JUMP JUMPDEST JUMPDEST MUL OR SWAP1 SSTORE POP JUMPDEST JUMP JUMPDEST PUSH1 0x0 DUP1 SLOAD SWAP1 PUSH2 0x100 EXP SWAP1 DIV PUSH1 0xFF AND DUP2 JUMP JUMPDEST PUSH1 0x1 PUSH1 0x3 DUP2 GT ISZERO PUSH2 0x12D JUMPI PUSH2 0x12C PUSH2 0x21B JUMP JUMPDEST JUMPDEST PUSH1 0x0 DUP1 SLOAD SWAP1 PUSH2 0x100 EXP SWAP1 DIV PUSH1 0xFF AND PUSH1 0x3 DUP2 GT ISZERO PUSH2 0x14D JUMPI PUSH2 0x14C PUSH2 0x21B JUMP JUMPDEST JUMPDEST SUB PUSH2 0x18E JUMPI PUSH1 0x3 DUP1 DUP2 GT ISZERO PUSH2 0x165 JUMPI PUSH2 0x164 PUSH2 0x21B JUMP JUMPDEST JUMPDEST PUSH1 0x0 DUP1 PUSH2 0x100 EXP DUP2 SLOAD DUP2 PUSH1 0xFF MUL NOT AND SWAP1 DUP4 PUSH1 0x3 DUP2 GT ISZERO PUSH2 0x188 JUMPI PUSH2 0x187 PUSH2 0x21B JUMP JUMPDEST JUMPDEST MUL OR SWAP1 SSTORE POP JUMPDEST JUMP JUMPDEST PUSH1 0x1 PUSH1 0x3 DUP2 GT ISZERO PUSH2 0x1A4 JUMPI PUSH2 0x1A3 PUSH2 0x21B JUMP JUMPDEST JUMPDEST PUSH1 0x0 DUP1 SLOAD SWAP1 PUSH2 0x100 EXP SWAP1 DIV PUSH1 0xFF AND PUSH1 0x3 DUP2 GT ISZERO PUSH2 0x1C4 JUMPI PUSH2 0x1C3 PUSH2 0x21B JUMP JUMPDEST JUMPDEST SUB PUSH2 0x206 JUMPI PUSH1 0x2 PUSH1 0x3 DUP2 GT ISZERO PUSH2 0x1DD JUMPI PUSH2 0x1DC PUSH2 0x21B JUMP JUMPDEST JUMPDEST PUSH1 0x0 DUP1 PUSH2 0x100 EXP DUP2 SLOAD DUP2 PUSH1 0xFF MUL NOT AND SWAP1 DUP4 PUSH1 0x3 DUP2 GT ISZERO PUSH2 0x200 JUMPI PUSH2 0x1FF PUSH2 0x21B JUMP JUMPDEST JUMPDEST MUL OR SWAP1 SSTORE POP JUMPDEST JUMP JUMPDEST PUSH1 0x0 DUP1 PUSH2 0x100 EXP DUP2 SLOAD SWAP1 PUSH1 0xFF MUL NOT AND SWAP1 SSTORE JUMP JUMPDEST PUSH32 0x4E487B7100000000000000000000000000000000000000000000000000000000 PUSH1 0x0 MSTORE PUSH1 0x21 PUSH1 0x4 MSTORE PUSH1 0x24 PUSH1 0x0 REVERT JUMPDEST PUSH1 0x4 DUP2 LT PUSH2 0x25B JUMPI PUSH2 0x25A PUSH2 0x21B JUMP JUMPDEST JUMPDEST POP JUMP JUMPDEST PUSH1 0x0 DUP2 SWAP1 POP PUSH2 0x26C DUP3 PUSH2 0x24A JUMP JUMPDEST SWAP2 SWAP1 POP JUMP JUMPDEST PUSH1 0x0 PUSH2 0x27C DUP3 PUSH2 0x25E JUMP JUMPDEST SWAP1 POP SWAP2 SWAP1 POP JUMP JUMPDEST PUSH2 0x28C DUP2 PUSH2 0x271 JUMP JUMPDEST DUP3 MSTORE POP POP JUMP JUMPDEST PUSH1 0x0 PUSH1 0x20 DUP3 ADD SWAP1 POP PUSH2 0x2A7 PUSH1 0x0 DUP4 ADD DUP5 PUSH2 0x283 JUMP JUMPDEST SWAP3 SWAP2 POP POP JUMP INVALID LOG2 PUSH5 0x6970667358 0x22 SLT KECCAK256 SWAP14 SWAP13 SLOAD 0xDC RETURNDATASIZE CREATE2 0x5E CALL 0xD9 0xDD 0xC9 PUSH6 0xB318E7D6BEEC SSTORE SWAP8 0x1E LOG2 0xA5 0xCD LOG3 0x1E 0x4C 0x5D SSTORE MULMOD NOT 0xB1 PUSH5 0x736F6C6343 STOP ADDMOD SLT STOP CALLER "
		},
		"gasEstimates": {
			"creation": {
				"codeDepositCost": "147800",
				"executionCost": "196",
				"totalCost": "147996"
			},
			"external": {
				"Pass()": "26617",
				"del()": "24452",
				"e1()": "2557",
				"fail()": "26709",
				"scholarship()": "26687"
			}
		},
		"methodIdentifiers": {
			"Pass()": "60595433",
			"del()": "b6588ffd",
			"e1()": "a2c2d666",
			"fail()": "a9cc4718",
			"scholarship()": "a7539775"
		}
	},
	"abi": [
		{
			"inputs": [],
			"name": "Pass",
			"outputs": [],
			"stateMutability": "nonpayable",
			"type": "function"
		},
		{
			"inputs": [],
			"name": "del",
			"outputs": [],
			"stateMutability": "nonpayable",
			"type": "function"
		},
		{
			"inputs": [],
			"name": "e1",
			"outputs": [
				{
					"internalType": "enum Enum.Exam",
					"name": "",
					"type": "uint8"
				}
			],
			"stateMutability": "view",
			"type": "function"
		},
		{
			"inputs": [],
			"name": "fail",
			"outputs": [],
			"stateMutability": "nonpayable",
			"type": "function"
		},
		{
			"inputs": [],
			"name": "scholarship",
			"outputs": [],
			"stateMutability": "nonpayable",
			"type": "function"
		}
	]
}