{
	"data": {
		"bytecode": {
			"linkReferences": {},
			"object": "6080604052348015600f57600080fd5b50606d80601d6000396000f3fe6080604052348015600f57600080fd5b506004361060285760003560e01c80631c30eb0d14602d575b600080fd5b60336035565b005b56fea2646970667358221220e6c38afa968f7141ee6bab6c74b6b93d56c5d3e1b6fee46598406782306c2af764736f6c63430008120033",
			"opcodes": "PUSH1 0x80 PUSH1 0x40 MSTORE CALLVALUE DUP1 ISZERO PUSH1 0xF JUMPI PUSH1 0x0 DUP1 REVERT JUMPDEST POP PUSH1 0x6D DUP1 PUSH1 0x1D PUSH1 0x0 CODECOPY PUSH1 0x0 RETURN INVALID PUSH1 0x80 PUSH1 0x40 MSTORE CALLVALUE DUP1 ISZERO PUSH1 0xF JUMPI PUSH1 0x0 DUP1 REVERT JUMPDEST POP PUSH1 0x4 CALLDATASIZE LT PUSH1 0x28 JUMPI PUSH1 0x0 CALLDATALOAD PUSH1 0xE0 SHR DUP1 PUSH4 0x1C30EB0D EQ PUSH1 0x2D JUMPI JUMPDEST PUSH1 0x0 DUP1 REVERT JUMPDEST PUSH1 0x33 PUSH1 0x35 JUMP JUMPDEST STOP JUMPDEST JUMP INVALID LOG2 PUSH5 0x6970667358 0x22 SLT KECCAK256 0xE6 0xC3 DUP11 STATICCALL SWAP7 DUP16 PUSH18 0x41EE6BAB6C74B6B93D56C5D3E1B6FEE46598 BLOCKHASH PUSH8 0x82306C2AF764736F PUSH13 0x63430008120033000000000000 "
		},
		"gasEstimates": {
			"creation": {
				"codeDepositCost": "21800",
				"executionCost": "75",
				"totalCost": "21875"
			},
			"external": {
				"initcar()": "122"
			}
		},
		"methodIdentifiers": {
			"initcar()": "1c30eb0d"
		}
	},
	"abi": [
		{
			"inputs": [],
			"name": "initcar",
			"outputs": [],
			"stateMutability": "view",
			"type": "function"
		}
	]
}