{
	"data": {
		"bytecode": {
			"linkReferences": {},
			"object": "60806040526001600060016101000a81548160ff0219169083600381111561002a5761002961007d565b5b02179055506003808111156100425761004161007d565b5b600060026101000a81548160ff021916908360038111156100665761006561007d565b5b021790555034801561007757600080fd5b506100ac565b7f4e487b7100000000000000000000000000000000000000000000000000000000600052602160045260246000fd5b610413806100bb6000396000f3fe608060405234801561001057600080fd5b50600436106100925760003560e01c806379e5f0541161006657806379e5f05414610110578063972a2ec21461012e5780639b31f9e81461014a578063b644ac2714610168578063b6588ffd1461018657610092565b8062207be3146100975780633e8d7a30146100b357806356800b52146100d45780636d4ce63c146100f2575b600080fd5b6100b160048036038101906100ac91906102d9565b610190565b005b6100bb6101bc565b6040516100cb949392919061037d565b60405180910390f35b6100dc61020e565b6040516100e991906103c2565b60405180910390f35b6100fa610221565b60405161010791906103c2565b60405180910390f35b610118610237565b60405161012591906103c2565b60405180910390f35b610148600480360381019061014391906102d9565b61024a565b005b610152610277565b60405161015f91906103c2565b60405180910390f35b610170610288565b60405161017d91906103c2565b60405180910390f35b61018e61029b565b005b806000806101000a81548160ff021916908360038111156101b4576101b3610306565b5b021790555050565b60008060008060008054906101000a900460ff16600060019054906101000a900460ff16600060029054906101000a900460ff16600060039054906101000a900460ff16935093509350935090919293565b600060019054906101000a900460ff1681565b60008060039054906101000a900460ff16905090565b600060029054906101000a900460ff1681565b80600060036101000a81548160ff0219169083600381111561026f5761026e610306565b5b021790555050565b60008054906101000a900460ff1681565b600060039054906101000a900460ff1681565b600060036101000a81549060ff0219169055565b600080fd5b600481106102c157600080fd5b50565b6000813590506102d3816102b4565b92915050565b6000602082840312156102ef576102ee6102af565b5b60006102fd848285016102c4565b91505092915050565b7f4e487b7100000000000000000000000000000000000000000000000000000000600052602160045260246000fd5b6004811061034657610345610306565b5b50565b600081905061035782610335565b919050565b600061036782610349565b9050919050565b6103778161035c565b82525050565b6000608082019050610392600083018761036e565b61039f602083018661036e565b6103ac604083018561036e565b6103b9606083018461036e565b95945050505050565b60006020820190506103d7600083018461036e565b9291505056fea2646970667358221220b55dc9b66ea241640dc387feb34117d1f702d6cc09c656a83d302fcfcfe4f43564736f6c63430008120033",
			"opcodes": "PUSH1 0x80 PUSH1 0x40 MSTORE PUSH1 0x1 PUSH1 0x0 PUSH1 0x1 PUSH2 0x100 EXP DUP2 SLOAD DUP2 PUSH1 0xFF MUL NOT AND SWAP1 DUP4 PUSH1 0x3 DUP2 GT ISZERO PUSH2 0x2A JUMPI PUSH2 0x29 PUSH2 0x7D JUMP JUMPDEST JUMPDEST MUL OR SWAP1 SSTORE POP PUSH1 0x3 DUP1 DUP2 GT ISZERO PUSH2 0x42 JUMPI PUSH2 0x41 PUSH2 0x7D JUMP JUMPDEST JUMPDEST PUSH1 0x0 PUSH1 0x2 PUSH2 0x100 EXP DUP2 SLOAD DUP2 PUSH1 0xFF MUL NOT AND SWAP1 DUP4 PUSH1 0x3 DUP2 GT ISZERO PUSH2 0x66 JUMPI PUSH2 0x65 PUSH2 0x7D JUMP JUMPDEST JUMPDEST MUL OR SWAP1 SSTORE POP CALLVALUE DUP1 ISZERO PUSH2 0x77 JUMPI PUSH1 0x0 DUP1 REVERT JUMPDEST POP PUSH2 0xAC JUMP JUMPDEST PUSH32 0x4E487B7100000000000000000000000000000000000000000000000000000000 PUSH1 0x0 MSTORE PUSH1 0x21 PUSH1 0x4 MSTORE PUSH1 0x24 PUSH1 0x0 REVERT JUMPDEST PUSH2 0x413 DUP1 PUSH2 0xBB PUSH1 0x0 CODECOPY PUSH1 0x0 RETURN INVALID PUSH1 0x80 PUSH1 0x40 MSTORE CALLVALUE DUP1 ISZERO PUSH2 0x10 JUMPI PUSH1 0x0 DUP1 REVERT JUMPDEST POP PUSH1 0x4 CALLDATASIZE LT PUSH2 0x92 JUMPI PUSH1 0x0 CALLDATALOAD PUSH1 0xE0 SHR DUP1 PUSH4 0x79E5F054 GT PUSH2 0x66 JUMPI DUP1 PUSH4 0x79E5F054 EQ PUSH2 0x110 JUMPI DUP1 PUSH4 0x972A2EC2 EQ PUSH2 0x12E JUMPI DUP1 PUSH4 0x9B31F9E8 EQ PUSH2 0x14A JUMPI DUP1 PUSH4 0xB644AC27 EQ PUSH2 0x168 JUMPI DUP1 PUSH4 0xB6588FFD EQ PUSH2 0x186 JUMPI PUSH2 0x92 JUMP JUMPDEST DUP1 PUSH3 0x207BE3 EQ PUSH2 0x97 JUMPI DUP1 PUSH4 0x3E8D7A30 EQ PUSH2 0xB3 JUMPI DUP1 PUSH4 0x56800B52 EQ PUSH2 0xD4 JUMPI DUP1 PUSH4 0x6D4CE63C EQ PUSH2 0xF2 JUMPI JUMPDEST PUSH1 0x0 DUP1 REVERT JUMPDEST PUSH2 0xB1 PUSH1 0x4 DUP1 CALLDATASIZE SUB DUP2 ADD SWAP1 PUSH2 0xAC SWAP2 SWAP1 PUSH2 0x2D9 JUMP JUMPDEST PUSH2 0x190 JUMP JUMPDEST STOP JUMPDEST PUSH2 0xBB PUSH2 0x1BC JUMP JUMPDEST PUSH1 0x40 MLOAD PUSH2 0xCB SWAP5 SWAP4 SWAP3 SWAP2 SWAP1 PUSH2 0x37D JUMP JUMPDEST PUSH1 0x40 MLOAD DUP1 SWAP2 SUB SWAP1 RETURN JUMPDEST PUSH2 0xDC PUSH2 0x20E JUMP JUMPDEST PUSH1 0x40 MLOAD PUSH2 0xE9 SWAP2 SWAP1 PUSH2 0x3C2 JUMP JUMPDEST PUSH1 0x40 MLOAD DUP1 SWAP2 SUB SWAP1 RETURN JUMPDEST PUSH2 0xFA PUSH2 0x221 JUMP JUMPDEST PUSH1 0x40 MLOAD PUSH2 0x107 SWAP2 SWAP1 PUSH2 0x3C2 JUMP JUMPDEST PUSH1 0x40 MLOAD DUP1 SWAP2 SUB SWAP1 RETURN JUMPDEST PUSH2 0x118 PUSH2 0x237 JUMP JUMPDEST PUSH1 0x40 MLOAD PUSH2 0x125 SWAP2 SWAP1 PUSH2 0x3C2 JUMP JUMPDEST PUSH1 0x40 MLOAD DUP1 SWAP2 SUB SWAP1 RETURN JUMPDEST PUSH2 0x148 PUSH1 0x4 DUP1 CALLDATASIZE SUB DUP2 ADD SWAP1 PUSH2 0x143 SWAP2 SWAP1 PUSH2 0x2D9 JUMP JUMPDEST PUSH2 0x24A JUMP JUMPDEST STOP JUMPDEST PUSH2 0x152 PUSH2 0x277 JUMP JUMPDEST PUSH1 0x40 MLOAD PUSH2 0x15F SWAP2 SWAP1 PUSH2 0x3C2 JUMP JUMPDEST PUSH1 0x40 MLOAD DUP1 SWAP2 SUB SWAP1 RETURN JUMPDEST PUSH2 0x170 PUSH2 0x288 JUMP JUMPDEST PUSH1 0x40 MLOAD PUSH2 0x17D SWAP2 SWAP1 PUSH2 0x3C2 JUMP JUMPDEST PUSH1 0x40 MLOAD DUP1 SWAP2 SUB SWAP1 RETURN JUMPDEST PUSH2 0x18E PUSH2 0x29B JUMP JUMPDEST STOP JUMPDEST DUP1 PUSH1 0x0 DUP1 PUSH2 0x100 EXP DUP2 SLOAD DUP2 PUSH1 0xFF MUL NOT AND SWAP1 DUP4 PUSH1 0x3 DUP2 GT ISZERO PUSH2 0x1B4 JUMPI PUSH2 0x1B3 PUSH2 0x306 JUMP JUMPDEST JUMPDEST MUL OR SWAP1 SSTORE POP POP JUMP JUMPDEST PUSH1 0x0 DUP1 PUSH1 0x0 DUP1 PUSH1 0x0 DUP1 SLOAD SWAP1 PUSH2 0x100 EXP SWAP1 DIV PUSH1 0xFF AND PUSH1 0x0 PUSH1 0x1 SWAP1 SLOAD SWAP1 PUSH2 0x100 EXP SWAP1 DIV PUSH1 0xFF AND PUSH1 0x0 PUSH1 0x2 SWAP1 SLOAD SWAP1 PUSH2 0x100 EXP SWAP1 DIV PUSH1 0xFF AND PUSH1 0x0 PUSH1 0x3 SWAP1 SLOAD SWAP1 PUSH2 0x100 EXP SWAP1 DIV PUSH1 0xFF AND SWAP4 POP SWAP4 POP SWAP4 POP SWAP4 POP SWAP1 SWAP2 SWAP3 SWAP4 JUMP JUMPDEST PUSH1 0x0 PUSH1 0x1 SWAP1 SLOAD SWAP1 PUSH2 0x100 EXP SWAP1 DIV PUSH1 0xFF AND DUP2 JUMP JUMPDEST PUSH1 0x0 DUP1 PUSH1 0x3 SWAP1 SLOAD SWAP1 PUSH2 0x100 EXP SWAP1 DIV PUSH1 0xFF AND SWAP1 POP SWAP1 JUMP JUMPDEST PUSH1 0x0 PUSH1 0x2 SWAP1 SLOAD SWAP1 PUSH2 0x100 EXP SWAP1 DIV PUSH1 0xFF AND DUP2 JUMP JUMPDEST DUP1 PUSH1 0x0 PUSH1 0x3 PUSH2 0x100 EXP DUP2 SLOAD DUP2 PUSH1 0xFF MUL NOT AND SWAP1 DUP4 PUSH1 0x3 DUP2 GT ISZERO PUSH2 0x26F JUMPI PUSH2 0x26E PUSH2 0x306 JUMP JUMPDEST JUMPDEST MUL OR SWAP1 SSTORE POP POP JUMP JUMPDEST PUSH1 0x0 DUP1 SLOAD SWAP1 PUSH2 0x100 EXP SWAP1 DIV PUSH1 0xFF AND DUP2 JUMP JUMPDEST PUSH1 0x0 PUSH1 0x3 SWAP1 SLOAD SWAP1 PUSH2 0x100 EXP SWAP1 DIV PUSH1 0xFF AND DUP2 JUMP JUMPDEST PUSH1 0x0 PUSH1 0x3 PUSH2 0x100 EXP DUP2 SLOAD SWAP1 PUSH1 0xFF MUL NOT AND SWAP1 SSTORE JUMP JUMPDEST PUSH1 0x0 DUP1 REVERT JUMPDEST PUSH1 0x4 DUP2 LT PUSH2 0x2C1 JUMPI PUSH1 0x0 DUP1 REVERT JUMPDEST POP JUMP JUMPDEST PUSH1 0x0 DUP2 CALLDATALOAD SWAP1 POP PUSH2 0x2D3 DUP2 PUSH2 0x2B4 JUMP JUMPDEST SWAP3 SWAP2 POP POP JUMP JUMPDEST PUSH1 0x0 PUSH1 0x20 DUP3 DUP5 SUB SLT ISZERO PUSH2 0x2EF JUMPI PUSH2 0x2EE PUSH2 0x2AF JUMP JUMPDEST JUMPDEST PUSH1 0x0 PUSH2 0x2FD DUP5 DUP3 DUP6 ADD PUSH2 0x2C4 JUMP JUMPDEST SWAP2 POP POP SWAP3 SWAP2 POP POP JUMP JUMPDEST PUSH32 0x4E487B7100000000000000000000000000000000000000000000000000000000 PUSH1 0x0 MSTORE PUSH1 0x21 PUSH1 0x4 MSTORE PUSH1 0x24 PUSH1 0x0 REVERT JUMPDEST PUSH1 0x4 DUP2 LT PUSH2 0x346 JUMPI PUSH2 0x345 PUSH2 0x306 JUMP JUMPDEST JUMPDEST POP JUMP JUMPDEST PUSH1 0x0 DUP2 SWAP1 POP PUSH2 0x357 DUP3 PUSH2 0x335 JUMP JUMPDEST SWAP2 SWAP1 POP JUMP JUMPDEST PUSH1 0x0 PUSH2 0x367 DUP3 PUSH2 0x349 JUMP JUMPDEST SWAP1 POP SWAP2 SWAP1 POP JUMP JUMPDEST PUSH2 0x377 DUP2 PUSH2 0x35C JUMP JUMPDEST DUP3 MSTORE POP POP JUMP JUMPDEST PUSH1 0x0 PUSH1 0x80 DUP3 ADD SWAP1 POP PUSH2 0x392 PUSH1 0x0 DUP4 ADD DUP8 PUSH2 0x36E JUMP JUMPDEST PUSH2 0x39F PUSH1 0x20 DUP4 ADD DUP7 PUSH2 0x36E JUMP JUMPDEST PUSH2 0x3AC PUSH1 0x40 DUP4 ADD DUP6 PUSH2 0x36E JUMP JUMPDEST PUSH2 0x3B9 PUSH1 0x60 DUP4 ADD DUP5 PUSH2 0x36E JUMP JUMPDEST SWAP6 SWAP5 POP POP POP POP POP JUMP JUMPDEST PUSH1 0x0 PUSH1 0x20 DUP3 ADD SWAP1 POP PUSH2 0x3D7 PUSH1 0x0 DUP4 ADD DUP5 PUSH2 0x36E JUMP JUMPDEST SWAP3 SWAP2 POP POP JUMP INVALID LOG2 PUSH5 0x6970667358 0x22 SLT KECCAK256 0xB5 0x5D 0xC9 0xB6 PUSH15 0xA241640DC387FEB34117D1F702D6CC MULMOD 0xC6 JUMP 0xA8 RETURNDATASIZE ADDRESS 0x2F 0xCF 0xCF 0xE4 DELEGATECALL CALLDATALOAD PUSH5 0x736F6C6343 STOP ADDMOD SLT STOP CALLER "
		},
		"gasEstimates": {
			"creation": {
				"codeDepositCost": "208600",
				"executionCost": "48963",
				"totalCost": "257563"
			},
			"external": {
				"del()": "24524",
				"e2()": "2601",
				"e3()": "2655",
				"e4()": "2610",
				"e5()": "2676",
				"get()": "2685",
				"get01()": "infinite",
				"setting(uint8)": "24722",
				"to_set(uint8)": "24651"
			}
		},
		"methodIdentifiers": {
			"del()": "b6588ffd",
			"e2()": "9b31f9e8",
			"e3()": "56800b52",
			"e4()": "79e5f054",
			"e5()": "b644ac27",
			"get()": "6d4ce63c",
			"get01()": "3e8d7a30",
			"setting(uint8)": "972a2ec2",
			"to_set(uint8)": "00207be3"
		}
	},
	"abi": [
		{
			"inputs": [],
			"name": "del",
			"outputs": [],
			"stateMutability": "nonpayable",
			"type": "function"
		},
		{
			"inputs": [],
			"name": "e2",
			"outputs": [
				{
					"internalType": "enum PizzaDeli.pizzaOrder",
					"name": "",
					"type": "uint8"
				}
			],
			"stateMutability": "view",
			"type": "function"
		},
		{
			"inputs": [],
			"name": "e3",
			"outputs": [
				{
					"internalType": "enum PizzaDeli.pizzaOrder",
					"name": "",
					"type": "uint8"
				}
			],
			"stateMutability": "view",
			"type": "function"
		},
		{
			"inputs": [],
			"name": "e4",
			"outputs": [
				{
					"internalType": "enum PizzaDeli.pizzaOrder",
					"name": "",
					"type": "uint8"
				}
			],
			"stateMutability": "view",
			"type": "function"
		},
		{
			"inputs": [],
			"name": "e5",
			"outputs": [
				{
					"internalType": "enum PizzaDeli.pizzaOrder",
					"name": "",
					"type": "uint8"
				}
			],
			"stateMutability": "view",
			"type": "function"
		},
		{
			"inputs": [],
			"name": "get",
			"outputs": [
				{
					"internalType": "enum PizzaDeli.pizzaOrder",
					"name": "",
					"type": "uint8"
				}
			],
			"stateMutability": "view",
			"type": "function"
		},
		{
			"inputs": [],
			"name": "get01",
			"outputs": [
				{
					"internalType": "enum PizzaDeli.pizzaOrder",
					"name": "",
					"type": "uint8"
				},
				{
					"internalType": "enum PizzaDeli.pizzaOrder",
					"name": "",
					"type": "uint8"
				},
				{
					"internalType": "enum PizzaDeli.pizzaOrder",
					"name": "",
					"type": "uint8"
				},
				{
					"internalType": "enum PizzaDeli.pizzaOrder",
					"name": "",
					"type": "uint8"
				}
			],
			"stateMutability": "view",
			"type": "function"
		},
		{
			"inputs": [
				{
					"internalType": "enum PizzaDeli.pizzaOrder",
					"name": "y",
					"type": "uint8"
				}
			],
			"name": "setting",
			"outputs": [],
			"stateMutability": "nonpayable",
			"type": "function"
		},
		{
			"inputs": [
				{
					"internalType": "enum PizzaDeli.pizzaOrder",
					"name": "_i",
					"type": "uint8"
				}
			],
			"name": "to_set",
			"outputs": [],
			"stateMutability": "nonpayable",
			"type": "function"
		}
	]
}