{
	"data": {
		"bytecode": {
			"linkReferences": {},
			"object": "60806040526040518060a001604052807ffffffffffffffffffffffffffffffffffffffffffffffffffffffffffffffff760000b8152602001600860000b8152602001600760000b81526020017ffffffffffffffffffffffffffffffffffffffffffffffffffffffffffffffffe60000b8152602001600160000b815250600090600561008d9291906100a0565b5034801561009a57600080fd5b50610102565b82600581019282156100d4579160200282015b828111156100d3578251829060000b9055916020019190600101906100b3565b5b5090506100e191906100e5565b5090565b5b808211156100fe5760008160009055506001016100e6565b5090565b610624806101116000396000f3fe608060405234801561001057600080fd5b50600436106100885760003560e01c8063a80f7f051161005b578063a80f7f0514610115578063be1c766b1461011f578063cc9ed1bc1461013d578063ef1771231461015b57610088565b80630419e39a1461008d5780634feb22161461009757806352af25ce146100c757806371e5ee5f146100e5575b600080fd5b61009561018b565b005b6100b160048036038101906100ac91906103dd565b610209565b6040516100be9190610423565b60405180910390f35b6100cf61022d565b6040516100dc91906104fc565b60405180910390f35b6100ff60048036038101906100fa91906103dd565b610285565b60405161010c9190610423565b60405180910390f35b61011d6102a0565b005b61012761031d565b604051610134919061052d565b60405180910390f35b610145610326565b60405161015291906104fc565b60405180910390f35b610175600480360381019061017091906103dd565b61037e565b6040516101829190610423565b60405180910390f35b60005b60058110156102065760008082600581106101ac576101ab610548565b5b015412156101f3576006600082600581106101ca576101c9610548565b5b015490806001815401808255809150506001900390600052602060002001600090919091909150555b80806101fe906105a6565b91505061018e565b50565b6005818154811061021957600080fd5b906000526020600020016000915090505481565b6060600580548060200260200160405190810160405280929190818152602001828054801561027b57602002820191906000526020600020905b815481526020019060010190808311610267575b5050505050905090565b6000816005811061029557600080fd5b016000915090505481565b60005b600581101561031a5760008082600581106102c1576102c0610548565b5b015412610307576005600082600581106102de576102dd610548565b5b015490806001815401808255809150506001900390600052602060002001600090919091909150555b8080610312906105a6565b9150506102a3565b50565b60006005905090565b6060600680548060200260200160405190810160405280929190818152602001828054801561037457602002820191906000526020600020905b815481526020019060010190808311610360575b5050505050905090565b6006818154811061038e57600080fd5b906000526020600020016000915090505481565b600080fd5b6000819050919050565b6103ba816103a7565b81146103c557600080fd5b50565b6000813590506103d7816103b1565b92915050565b6000602082840312156103f3576103f26103a2565b5b6000610401848285016103c8565b91505092915050565b6000819050919050565b61041d8161040a565b82525050565b60006020820190506104386000830184610414565b92915050565b600081519050919050565b600082825260208201905092915050565b6000819050602082019050919050565b6104738161040a565b82525050565b6000610485838361046a565b60208301905092915050565b6000602082019050919050565b60006104a98261043e565b6104b38185610449565b93506104be8361045a565b8060005b838110156104ef5781516104d68882610479565b97506104e183610491565b9250506001810190506104c2565b5085935050505092915050565b60006020820190508181036000830152610516818461049e565b905092915050565b610527816103a7565b82525050565b6000602082019050610542600083018461051e565b92915050565b7f4e487b7100000000000000000000000000000000000000000000000000000000600052603260045260246000fd5b7f4e487b7100000000000000000000000000000000000000000000000000000000600052601160045260246000fd5b60006105b1826103a7565b91507fffffffffffffffffffffffffffffffffffffffffffffffffffffffffffffffff82036105e3576105e2610577565b5b60018201905091905056fea2646970667358221220971c17c2bae6c4484b1eda2e4428f6cb69d0498f9a38726a970897021a32e4ae64736f6c63430008120033",
			"opcodes": "PUSH1 0x80 PUSH1 0x40 MSTORE PUSH1 0x40 MLOAD DUP1 PUSH1 0xA0 ADD PUSH1 0x40 MSTORE DUP1 PUSH32 0xFFFFFFFFFFFFFFFFFFFFFFFFFFFFFFFFFFFFFFFFFFFFFFFFFFFFFFFFFFFFFFF7 PUSH1 0x0 SIGNEXTEND DUP2 MSTORE PUSH1 0x20 ADD PUSH1 0x8 PUSH1 0x0 SIGNEXTEND DUP2 MSTORE PUSH1 0x20 ADD PUSH1 0x7 PUSH1 0x0 SIGNEXTEND DUP2 MSTORE PUSH1 0x20 ADD PUSH32 0xFFFFFFFFFFFFFFFFFFFFFFFFFFFFFFFFFFFFFFFFFFFFFFFFFFFFFFFFFFFFFFFE PUSH1 0x0 SIGNEXTEND DUP2 MSTORE PUSH1 0x20 ADD PUSH1 0x1 PUSH1 0x0 SIGNEXTEND DUP2 MSTORE POP PUSH1 0x0 SWAP1 PUSH1 0x5 PUSH2 0x8D SWAP3 SWAP2 SWAP1 PUSH2 0xA0 JUMP JUMPDEST POP CALLVALUE DUP1 ISZERO PUSH2 0x9A JUMPI PUSH1 0x0 DUP1 REVERT JUMPDEST POP PUSH2 0x102 JUMP JUMPDEST DUP3 PUSH1 0x5 DUP2 ADD SWAP3 DUP3 ISZERO PUSH2 0xD4 JUMPI SWAP2 PUSH1 0x20 MUL DUP3 ADD JUMPDEST DUP3 DUP2 GT ISZERO PUSH2 0xD3 JUMPI DUP3 MLOAD DUP3 SWAP1 PUSH1 0x0 SIGNEXTEND SWAP1 SSTORE SWAP2 PUSH1 0x20 ADD SWAP2 SWAP1 PUSH1 0x1 ADD SWAP1 PUSH2 0xB3 JUMP JUMPDEST JUMPDEST POP SWAP1 POP PUSH2 0xE1 SWAP2 SWAP1 PUSH2 0xE5 JUMP JUMPDEST POP SWAP1 JUMP JUMPDEST JUMPDEST DUP1 DUP3 GT ISZERO PUSH2 0xFE JUMPI PUSH1 0x0 DUP2 PUSH1 0x0 SWAP1 SSTORE POP PUSH1 0x1 ADD PUSH2 0xE6 JUMP JUMPDEST POP SWAP1 JUMP JUMPDEST PUSH2 0x624 DUP1 PUSH2 0x111 PUSH1 0x0 CODECOPY PUSH1 0x0 RETURN INVALID PUSH1 0x80 PUSH1 0x40 MSTORE CALLVALUE DUP1 ISZERO PUSH2 0x10 JUMPI PUSH1 0x0 DUP1 REVERT JUMPDEST POP PUSH1 0x4 CALLDATASIZE LT PUSH2 0x88 JUMPI PUSH1 0x0 CALLDATALOAD PUSH1 0xE0 SHR DUP1 PUSH4 0xA80F7F05 GT PUSH2 0x5B JUMPI DUP1 PUSH4 0xA80F7F05 EQ PUSH2 0x115 JUMPI DUP1 PUSH4 0xBE1C766B EQ PUSH2 0x11F JUMPI DUP1 PUSH4 0xCC9ED1BC EQ PUSH2 0x13D JUMPI DUP1 PUSH4 0xEF177123 EQ PUSH2 0x15B JUMPI PUSH2 0x88 JUMP JUMPDEST DUP1 PUSH4 0x419E39A EQ PUSH2 0x8D JUMPI DUP1 PUSH4 0x4FEB2216 EQ PUSH2 0x97 JUMPI DUP1 PUSH4 0x52AF25CE EQ PUSH2 0xC7 JUMPI DUP1 PUSH4 0x71E5EE5F EQ PUSH2 0xE5 JUMPI JUMPDEST PUSH1 0x0 DUP1 REVERT JUMPDEST PUSH2 0x95 PUSH2 0x18B JUMP JUMPDEST STOP JUMPDEST PUSH2 0xB1 PUSH1 0x4 DUP1 CALLDATASIZE SUB DUP2 ADD SWAP1 PUSH2 0xAC SWAP2 SWAP1 PUSH2 0x3DD JUMP JUMPDEST PUSH2 0x209 JUMP JUMPDEST PUSH1 0x40 MLOAD PUSH2 0xBE SWAP2 SWAP1 PUSH2 0x423 JUMP JUMPDEST PUSH1 0x40 MLOAD DUP1 SWAP2 SUB SWAP1 RETURN JUMPDEST PUSH2 0xCF PUSH2 0x22D JUMP JUMPDEST PUSH1 0x40 MLOAD PUSH2 0xDC SWAP2 SWAP1 PUSH2 0x4FC JUMP JUMPDEST PUSH1 0x40 MLOAD DUP1 SWAP2 SUB SWAP1 RETURN JUMPDEST PUSH2 0xFF PUSH1 0x4 DUP1 CALLDATASIZE SUB DUP2 ADD SWAP1 PUSH2 0xFA SWAP2 SWAP1 PUSH2 0x3DD JUMP JUMPDEST PUSH2 0x285 JUMP JUMPDEST PUSH1 0x40 MLOAD PUSH2 0x10C SWAP2 SWAP1 PUSH2 0x423 JUMP JUMPDEST PUSH1 0x40 MLOAD DUP1 SWAP2 SUB SWAP1 RETURN JUMPDEST PUSH2 0x11D PUSH2 0x2A0 JUMP JUMPDEST STOP JUMPDEST PUSH2 0x127 PUSH2 0x31D JUMP JUMPDEST PUSH1 0x40 MLOAD PUSH2 0x134 SWAP2 SWAP1 PUSH2 0x52D JUMP JUMPDEST PUSH1 0x40 MLOAD DUP1 SWAP2 SUB SWAP1 RETURN JUMPDEST PUSH2 0x145 PUSH2 0x326 JUMP JUMPDEST PUSH1 0x40 MLOAD PUSH2 0x152 SWAP2 SWAP1 PUSH2 0x4FC JUMP JUMPDEST PUSH1 0x40 MLOAD DUP1 SWAP2 SUB SWAP1 RETURN JUMPDEST PUSH2 0x175 PUSH1 0x4 DUP1 CALLDATASIZE SUB DUP2 ADD SWAP1 PUSH2 0x170 SWAP2 SWAP1 PUSH2 0x3DD JUMP JUMPDEST PUSH2 0x37E JUMP JUMPDEST PUSH1 0x40 MLOAD PUSH2 0x182 SWAP2 SWAP1 PUSH2 0x423 JUMP JUMPDEST PUSH1 0x40 MLOAD DUP1 SWAP2 SUB SWAP1 RETURN JUMPDEST PUSH1 0x0 JUMPDEST PUSH1 0x5 DUP2 LT ISZERO PUSH2 0x206 JUMPI PUSH1 0x0 DUP1 DUP3 PUSH1 0x5 DUP2 LT PUSH2 0x1AC JUMPI PUSH2 0x1AB PUSH2 0x548 JUMP JUMPDEST JUMPDEST ADD SLOAD SLT ISZERO PUSH2 0x1F3 JUMPI PUSH1 0x6 PUSH1 0x0 DUP3 PUSH1 0x5 DUP2 LT PUSH2 0x1CA JUMPI PUSH2 0x1C9 PUSH2 0x548 JUMP JUMPDEST JUMPDEST ADD SLOAD SWAP1 DUP1 PUSH1 0x1 DUP2 SLOAD ADD DUP1 DUP3 SSTORE DUP1 SWAP2 POP POP PUSH1 0x1 SWAP1 SUB SWAP1 PUSH1 0x0 MSTORE PUSH1 0x20 PUSH1 0x0 KECCAK256 ADD PUSH1 0x0 SWAP1 SWAP2 SWAP1 SWAP2 SWAP1 SWAP2 POP SSTORE JUMPDEST DUP1 DUP1 PUSH2 0x1FE SWAP1 PUSH2 0x5A6 JUMP JUMPDEST SWAP2 POP POP PUSH2 0x18E JUMP JUMPDEST POP JUMP JUMPDEST PUSH1 0x5 DUP2 DUP2 SLOAD DUP2 LT PUSH2 0x219 JUMPI PUSH1 0x0 DUP1 REVERT JUMPDEST SWAP1 PUSH1 0x0 MSTORE PUSH1 0x20 PUSH1 0x0 KECCAK256 ADD PUSH1 0x0 SWAP2 POP SWAP1 POP SLOAD DUP2 JUMP JUMPDEST PUSH1 0x60 PUSH1 0x5 DUP1 SLOAD DUP1 PUSH1 0x20 MUL PUSH1 0x20 ADD PUSH1 0x40 MLOAD SWAP1 DUP2 ADD PUSH1 0x40 MSTORE DUP1 SWAP3 SWAP2 SWAP1 DUP2 DUP2 MSTORE PUSH1 0x20 ADD DUP3 DUP1 SLOAD DUP1 ISZERO PUSH2 0x27B JUMPI PUSH1 0x20 MUL DUP3 ADD SWAP2 SWAP1 PUSH1 0x0 MSTORE PUSH1 0x20 PUSH1 0x0 KECCAK256 SWAP1 JUMPDEST DUP2 SLOAD DUP2 MSTORE PUSH1 0x20 ADD SWAP1 PUSH1 0x1 ADD SWAP1 DUP1 DUP4 GT PUSH2 0x267 JUMPI JUMPDEST POP POP POP POP POP SWAP1 POP SWAP1 JUMP JUMPDEST PUSH1 0x0 DUP2 PUSH1 0x5 DUP2 LT PUSH2 0x295 JUMPI PUSH1 0x0 DUP1 REVERT JUMPDEST ADD PUSH1 0x0 SWAP2 POP SWAP1 POP SLOAD DUP2 JUMP JUMPDEST PUSH1 0x0 JUMPDEST PUSH1 0x5 DUP2 LT ISZERO PUSH2 0x31A JUMPI PUSH1 0x0 DUP1 DUP3 PUSH1 0x5 DUP2 LT PUSH2 0x2C1 JUMPI PUSH2 0x2C0 PUSH2 0x548 JUMP JUMPDEST JUMPDEST ADD SLOAD SLT PUSH2 0x307 JUMPI PUSH1 0x5 PUSH1 0x0 DUP3 PUSH1 0x5 DUP2 LT PUSH2 0x2DE JUMPI PUSH2 0x2DD PUSH2 0x548 JUMP JUMPDEST JUMPDEST ADD SLOAD SWAP1 DUP1 PUSH1 0x1 DUP2 SLOAD ADD DUP1 DUP3 SSTORE DUP1 SWAP2 POP POP PUSH1 0x1 SWAP1 SUB SWAP1 PUSH1 0x0 MSTORE PUSH1 0x20 PUSH1 0x0 KECCAK256 ADD PUSH1 0x0 SWAP1 SWAP2 SWAP1 SWAP2 SWAP1 SWAP2 POP SSTORE JUMPDEST DUP1 DUP1 PUSH2 0x312 SWAP1 PUSH2 0x5A6 JUMP JUMPDEST SWAP2 POP POP PUSH2 0x2A3 JUMP JUMPDEST POP JUMP JUMPDEST PUSH1 0x0 PUSH1 0x5 SWAP1 POP SWAP1 JUMP JUMPDEST PUSH1 0x60 PUSH1 0x6 DUP1 SLOAD DUP1 PUSH1 0x20 MUL PUSH1 0x20 ADD PUSH1 0x40 MLOAD SWAP1 DUP2 ADD PUSH1 0x40 MSTORE DUP1 SWAP3 SWAP2 SWAP1 DUP2 DUP2 MSTORE PUSH1 0x20 ADD DUP3 DUP1 SLOAD DUP1 ISZERO PUSH2 0x374 JUMPI PUSH1 0x20 MUL DUP3 ADD SWAP2 SWAP1 PUSH1 0x0 MSTORE PUSH1 0x20 PUSH1 0x0 KECCAK256 SWAP1 JUMPDEST DUP2 SLOAD DUP2 MSTORE PUSH1 0x20 ADD SWAP1 PUSH1 0x1 ADD SWAP1 DUP1 DUP4 GT PUSH2 0x360 JUMPI JUMPDEST POP POP POP POP POP SWAP1 POP SWAP1 JUMP JUMPDEST PUSH1 0x6 DUP2 DUP2 SLOAD DUP2 LT PUSH2 0x38E JUMPI PUSH1 0x0 DUP1 REVERT JUMPDEST SWAP1 PUSH1 0x0 MSTORE PUSH1 0x20 PUSH1 0x0 KECCAK256 ADD PUSH1 0x0 SWAP2 POP SWAP1 POP SLOAD DUP2 JUMP JUMPDEST PUSH1 0x0 DUP1 REVERT JUMPDEST PUSH1 0x0 DUP2 SWAP1 POP SWAP2 SWAP1 POP JUMP JUMPDEST PUSH2 0x3BA DUP2 PUSH2 0x3A7 JUMP JUMPDEST DUP2 EQ PUSH2 0x3C5 JUMPI PUSH1 0x0 DUP1 REVERT JUMPDEST POP JUMP JUMPDEST PUSH1 0x0 DUP2 CALLDATALOAD SWAP1 POP PUSH2 0x3D7 DUP2 PUSH2 0x3B1 JUMP JUMPDEST SWAP3 SWAP2 POP POP JUMP JUMPDEST PUSH1 0x0 PUSH1 0x20 DUP3 DUP5 SUB SLT ISZERO PUSH2 0x3F3 JUMPI PUSH2 0x3F2 PUSH2 0x3A2 JUMP JUMPDEST JUMPDEST PUSH1 0x0 PUSH2 0x401 DUP5 DUP3 DUP6 ADD PUSH2 0x3C8 JUMP JUMPDEST SWAP2 POP POP SWAP3 SWAP2 POP POP JUMP JUMPDEST PUSH1 0x0 DUP2 SWAP1 POP SWAP2 SWAP1 POP JUMP JUMPDEST PUSH2 0x41D DUP2 PUSH2 0x40A JUMP JUMPDEST DUP3 MSTORE POP POP JUMP JUMPDEST PUSH1 0x0 PUSH1 0x20 DUP3 ADD SWAP1 POP PUSH2 0x438 PUSH1 0x0 DUP4 ADD DUP5 PUSH2 0x414 JUMP JUMPDEST SWAP3 SWAP2 POP POP JUMP JUMPDEST PUSH1 0x0 DUP2 MLOAD SWAP1 POP SWAP2 SWAP1 POP JUMP JUMPDEST PUSH1 0x0 DUP3 DUP3 MSTORE PUSH1 0x20 DUP3 ADD SWAP1 POP SWAP3 SWAP2 POP POP JUMP JUMPDEST PUSH1 0x0 DUP2 SWAP1 POP PUSH1 0x20 DUP3 ADD SWAP1 POP SWAP2 SWAP1 POP JUMP JUMPDEST PUSH2 0x473 DUP2 PUSH2 0x40A JUMP JUMPDEST DUP3 MSTORE POP POP JUMP JUMPDEST PUSH1 0x0 PUSH2 0x485 DUP4 DUP4 PUSH2 0x46A JUMP JUMPDEST PUSH1 0x20 DUP4 ADD SWAP1 POP SWAP3 SWAP2 POP POP JUMP JUMPDEST PUSH1 0x0 PUSH1 0x20 DUP3 ADD SWAP1 POP SWAP2 SWAP1 POP JUMP JUMPDEST PUSH1 0x0 PUSH2 0x4A9 DUP3 PUSH2 0x43E JUMP JUMPDEST PUSH2 0x4B3 DUP2 DUP6 PUSH2 0x449 JUMP JUMPDEST SWAP4 POP PUSH2 0x4BE DUP4 PUSH2 0x45A JUMP JUMPDEST DUP1 PUSH1 0x0 JUMPDEST DUP4 DUP2 LT ISZERO PUSH2 0x4EF JUMPI DUP2 MLOAD PUSH2 0x4D6 DUP9 DUP3 PUSH2 0x479 JUMP JUMPDEST SWAP8 POP PUSH2 0x4E1 DUP4 PUSH2 0x491 JUMP JUMPDEST SWAP3 POP POP PUSH1 0x1 DUP2 ADD SWAP1 POP PUSH2 0x4C2 JUMP JUMPDEST POP DUP6 SWAP4 POP POP POP POP SWAP3 SWAP2 POP POP JUMP JUMPDEST PUSH1 0x0 PUSH1 0x20 DUP3 ADD SWAP1 POP DUP2 DUP2 SUB PUSH1 0x0 DUP4 ADD MSTORE PUSH2 0x516 DUP2 DUP5 PUSH2 0x49E JUMP JUMPDEST SWAP1 POP SWAP3 SWAP2 POP POP JUMP JUMPDEST PUSH2 0x527 DUP2 PUSH2 0x3A7 JUMP JUMPDEST DUP3 MSTORE POP POP JUMP JUMPDEST PUSH1 0x0 PUSH1 0x20 DUP3 ADD SWAP1 POP PUSH2 0x542 PUSH1 0x0 DUP4 ADD DUP5 PUSH2 0x51E JUMP JUMPDEST SWAP3 SWAP2 POP POP JUMP JUMPDEST PUSH32 0x4E487B7100000000000000000000000000000000000000000000000000000000 PUSH1 0x0 MSTORE PUSH1 0x32 PUSH1 0x4 MSTORE PUSH1 0x24 PUSH1 0x0 REVERT JUMPDEST PUSH32 0x4E487B7100000000000000000000000000000000000000000000000000000000 PUSH1 0x0 MSTORE PUSH1 0x11 PUSH1 0x4 MSTORE PUSH1 0x24 PUSH1 0x0 REVERT JUMPDEST PUSH1 0x0 PUSH2 0x5B1 DUP3 PUSH2 0x3A7 JUMP JUMPDEST SWAP2 POP PUSH32 0xFFFFFFFFFFFFFFFFFFFFFFFFFFFFFFFFFFFFFFFFFFFFFFFFFFFFFFFFFFFFFFFF DUP3 SUB PUSH2 0x5E3 JUMPI PUSH2 0x5E2 PUSH2 0x577 JUMP JUMPDEST JUMPDEST PUSH1 0x1 DUP3 ADD SWAP1 POP SWAP2 SWAP1 POP JUMP INVALID LOG2 PUSH5 0x6970667358 0x22 SLT KECCAK256 SWAP8 SHR OR 0xC2 0xBA 0xE6 0xC4 BASEFEE 0x4B 0x1E 0xDA 0x2E PREVRANDAO 0x28 0xF6 0xCB PUSH10 0xD0498F9A38726A970897 MUL BYTE ORIGIN 0xE4 0xAE PUSH5 0x736F6C6343 STOP ADDMOD SLT STOP CALLER "
		},
		"gasEstimates": {
			"creation": {
				"codeDepositCost": "314400",
				"executionCost": "infinite",
				"totalCost": "infinite"
			},
			"external": {
				"arr(uint256)": "2798",
				"extractNeg()": "infinite",
				"getLength()": "359",
				"getposit()": "infinite",
				"neggar(uint256)": "4948",
				"positarr(uint256)": "4905",
				"positivepart()": "infinite",
				"retarray()": "infinite"
			}
		},
		"methodIdentifiers": {
			"arr(uint256)": "71e5ee5f",
			"extractNeg()": "0419e39a",
			"getLength()": "be1c766b",
			"getposit()": "52af25ce",
			"neggar(uint256)": "ef177123",
			"positarr(uint256)": "4feb2216",
			"positivepart()": "a80f7f05",
			"retarray()": "cc9ed1bc"
		}
	},
	"abi": [
		{
			"inputs": [
				{
					"internalType": "uint256",
					"name": "",
					"type": "uint256"
				}
			],
			"name": "arr",
			"outputs": [
				{
					"internalType": "int256",
					"name": "",
					"type": "int256"
				}
			],
			"stateMutability": "view",
			"type": "function"
		},
		{
			"inputs": [],
			"name": "extractNeg",
			"outputs": [],
			"stateMutability": "nonpayable",
			"type": "function"
		},
		{
			"inputs": [],
			"name": "getLength",
			"outputs": [
				{
					"internalType": "uint256",
					"name": "",
					"type": "uint256"
				}
			],
			"stateMutability": "view",
			"type": "function"
		},
		{
			"inputs": [],
			"name": "getposit",
			"outputs": [
				{
					"internalType": "int256[]",
					"name": "",
					"type": "int256[]"
				}
			],
			"stateMutability": "view",
			"type": "function"
		},
		{
			"inputs": [
				{
					"internalType": "uint256",
					"name": "",
					"type": "uint256"
				}
			],
			"name": "neggar",
			"outputs": [
				{
					"internalType": "int256",
					"name": "",
					"type": "int256"
				}
			],
			"stateMutability": "view",
			"type": "function"
		},
		{
			"inputs": [
				{
					"internalType": "uint256",
					"name": "",
					"type": "uint256"
				}
			],
			"name": "positarr",
			"outputs": [
				{
					"internalType": "int256",
					"name": "",
					"type": "int256"
				}
			],
			"stateMutability": "view",
			"type": "function"
		},
		{
			"inputs": [],
			"name": "positivepart",
			"outputs": [],
			"stateMutability": "nonpayable",
			"type": "function"
		},
		{
			"inputs": [],
			"name": "retarray",
			"outputs": [
				{
					"internalType": "int256[]",
					"name": "",
					"type": "int256[]"
				}
			],
			"stateMutability": "view",
			"type": "function"
		}
	]
}