{
	"data": {
		"bytecode": {
			"linkReferences": {},
			"object": "608060405234801561000f575f80fd5b506102918061001d5f395ff3fe608060405234801561000f575f80fd5b5060043610610029575f3560e01c8063fe2c2cde1461002d575b5f80fd5b610047600480360381019061004291906100fc565b61005d565b6040516100549190610141565b60405180910390f35b5f8060029050600191505f8314806100755750600183145b1561007e575f91505b5b60028361008c91906101b4565b81116100bf575f818461009f91906101e4565b036100ac575f91506100bf565b80806100b790610214565b91505061007f565b50919050565b5f80fd5b5f819050919050565b6100db816100c9565b81146100e5575f80fd5b50565b5f813590506100f6816100d2565b92915050565b5f60208284031215610111576101106100c5565b5b5f61011e848285016100e8565b91505092915050565b5f8115159050919050565b61013b81610127565b82525050565b5f6020820190506101545f830184610132565b92915050565b7f4e487b71000000000000000000000000000000000000000000000000000000005f52601260045260245ffd5b7f4e487b71000000000000000000000000000000000000000000000000000000005f52601160045260245ffd5b5f6101be826100c9565b91506101c9836100c9565b9250826101d9576101d861015a565b5b828204905092915050565b5f6101ee826100c9565b91506101f9836100c9565b9250826102095761020861015a565b5b828206905092915050565b5f61021e826100c9565b91507fffffffffffffffffffffffffffffffffffffffffffffffffffffffffffffffff82036102505761024f610187565b5b60018201905091905056fea26469706673582212209bcf4c32a178275a291a61d002e8845551411efeedf522ceea1ca88dc2569ac164736f6c63430008150033",
			"opcodes": "PUSH1 0x80 PUSH1 0x40 MSTORE CALLVALUE DUP1 ISZERO PUSH2 0xF JUMPI PUSH0 DUP1 REVERT JUMPDEST POP PUSH2 0x291 DUP1 PUSH2 0x1D PUSH0 CODECOPY PUSH0 RETURN INVALID PUSH1 0x80 PUSH1 0x40 MSTORE CALLVALUE DUP1 ISZERO PUSH2 0xF JUMPI PUSH0 DUP1 REVERT JUMPDEST POP PUSH1 0x4 CALLDATASIZE LT PUSH2 0x29 JUMPI PUSH0 CALLDATALOAD PUSH1 0xE0 SHR DUP1 PUSH4 0xFE2C2CDE EQ PUSH2 0x2D JUMPI JUMPDEST PUSH0 DUP1 REVERT JUMPDEST PUSH2 0x47 PUSH1 0x4 DUP1 CALLDATASIZE SUB DUP2 ADD SWAP1 PUSH2 0x42 SWAP2 SWAP1 PUSH2 0xFC JUMP JUMPDEST PUSH2 0x5D JUMP JUMPDEST PUSH1 0x40 MLOAD PUSH2 0x54 SWAP2 SWAP1 PUSH2 0x141 JUMP JUMPDEST PUSH1 0x40 MLOAD DUP1 SWAP2 SUB SWAP1 RETURN JUMPDEST PUSH0 DUP1 PUSH1 0x2 SWAP1 POP PUSH1 0x1 SWAP2 POP PUSH0 DUP4 EQ DUP1 PUSH2 0x75 JUMPI POP PUSH1 0x1 DUP4 EQ JUMPDEST ISZERO PUSH2 0x7E JUMPI PUSH0 SWAP2 POP JUMPDEST JUMPDEST PUSH1 0x2 DUP4 PUSH2 0x8C SWAP2 SWAP1 PUSH2 0x1B4 JUMP JUMPDEST DUP2 GT PUSH2 0xBF JUMPI PUSH0 DUP2 DUP5 PUSH2 0x9F SWAP2 SWAP1 PUSH2 0x1E4 JUMP JUMPDEST SUB PUSH2 0xAC JUMPI PUSH0 SWAP2 POP PUSH2 0xBF JUMP JUMPDEST DUP1 DUP1 PUSH2 0xB7 SWAP1 PUSH2 0x214 JUMP JUMPDEST SWAP2 POP POP PUSH2 0x7F JUMP JUMPDEST POP SWAP2 SWAP1 POP JUMP JUMPDEST PUSH0 DUP1 REVERT JUMPDEST PUSH0 DUP2 SWAP1 POP SWAP2 SWAP1 POP JUMP JUMPDEST PUSH2 0xDB DUP2 PUSH2 0xC9 JUMP JUMPDEST DUP2 EQ PUSH2 0xE5 JUMPI PUSH0 DUP1 REVERT JUMPDEST POP JUMP JUMPDEST PUSH0 DUP2 CALLDATALOAD SWAP1 POP PUSH2 0xF6 DUP2 PUSH2 0xD2 JUMP JUMPDEST SWAP3 SWAP2 POP POP JUMP JUMPDEST PUSH0 PUSH1 0x20 DUP3 DUP5 SUB SLT ISZERO PUSH2 0x111 JUMPI PUSH2 0x110 PUSH2 0xC5 JUMP JUMPDEST JUMPDEST PUSH0 PUSH2 0x11E DUP5 DUP3 DUP6 ADD PUSH2 0xE8 JUMP JUMPDEST SWAP2 POP POP SWAP3 SWAP2 POP POP JUMP JUMPDEST PUSH0 DUP2 ISZERO ISZERO SWAP1 POP SWAP2 SWAP1 POP JUMP JUMPDEST PUSH2 0x13B DUP2 PUSH2 0x127 JUMP JUMPDEST DUP3 MSTORE POP POP JUMP JUMPDEST PUSH0 PUSH1 0x20 DUP3 ADD SWAP1 POP PUSH2 0x154 PUSH0 DUP4 ADD DUP5 PUSH2 0x132 JUMP JUMPDEST SWAP3 SWAP2 POP POP JUMP JUMPDEST PUSH32 0x4E487B7100000000000000000000000000000000000000000000000000000000 PUSH0 MSTORE PUSH1 0x12 PUSH1 0x4 MSTORE PUSH1 0x24 PUSH0 REVERT JUMPDEST PUSH32 0x4E487B7100000000000000000000000000000000000000000000000000000000 PUSH0 MSTORE PUSH1 0x11 PUSH1 0x4 MSTORE PUSH1 0x24 PUSH0 REVERT JUMPDEST PUSH0 PUSH2 0x1BE DUP3 PUSH2 0xC9 JUMP JUMPDEST SWAP2 POP PUSH2 0x1C9 DUP4 PUSH2 0xC9 JUMP JUMPDEST SWAP3 POP DUP3 PUSH2 0x1D9 JUMPI PUSH2 0x1D8 PUSH2 0x15A JUMP JUMPDEST JUMPDEST DUP3 DUP3 DIV SWAP1 POP SWAP3 SWAP2 POP POP JUMP JUMPDEST PUSH0 PUSH2 0x1EE DUP3 PUSH2 0xC9 JUMP JUMPDEST SWAP2 POP PUSH2 0x1F9 DUP4 PUSH2 0xC9 JUMP JUMPDEST SWAP3 POP DUP3 PUSH2 0x209 JUMPI PUSH2 0x208 PUSH2 0x15A JUMP JUMPDEST JUMPDEST DUP3 DUP3 MOD SWAP1 POP SWAP3 SWAP2 POP POP JUMP JUMPDEST PUSH0 PUSH2 0x21E DUP3 PUSH2 0xC9 JUMP JUMPDEST SWAP2 POP PUSH32 0xFFFFFFFFFFFFFFFFFFFFFFFFFFFFFFFFFFFFFFFFFFFFFFFFFFFFFFFFFFFFFFFF DUP3 SUB PUSH2 0x250 JUMPI PUSH2 0x24F PUSH2 0x187 JUMP JUMPDEST JUMPDEST PUSH1 0x1 DUP3 ADD SWAP1 POP SWAP2 SWAP1 POP JUMP INVALID LOG2 PUSH5 0x6970667358 0x22 SLT KECCAK256 SWAP12 0xCF 0x4C ORIGIN LOG1 PUSH25 0x275A291A61D002E8845551411EFEEDF522CEEA1CA88DC2569A 0xC1 PUSH5 0x736F6C6343 STOP ADDMOD ISZERO STOP CALLER "
		},
		"gasEstimates": {
			"creation": {
				"codeDepositCost": "131400",
				"executionCost": "175",
				"totalCost": "131575"
			},
			"external": {
				"PrimeChecker(uint256)": "infinite"
			}
		},
		"methodIdentifiers": {
			"PrimeChecker(uint256)": "fe2c2cde"
		}
	},
	"abi": [
		{
			"inputs": [
				{
					"internalType": "uint256",
					"name": "_num",
					"type": "uint256"
				}
			],
			"name": "PrimeChecker",
			"outputs": [
				{
					"internalType": "bool",
					"name": "is_prime",
					"type": "bool"
				}
			],
			"stateMutability": "pure",
			"type": "function"
		}
	]
}