{
	"data": {
		"bytecode": {
			"linkReferences": {},
			"object": "608060405234801561001057600080fd5b506102a9806100206000396000f3fe608060405234801561001057600080fd5b506004361061002b5760003560e01c8063fe2c2cde14610030575b600080fd5b61004a60048036038101906100459190610108565b610060565b6040516100579190610150565b60405180910390f35b6000806002905060019150600083148061007a5750600183145b1561008457600091505b5b60028361009291906101c9565b81116100c757600081846100a691906101fa565b036100b457600091506100c7565b80806100bf9061022b565b915050610085565b50919050565b600080fd5b6000819050919050565b6100e5816100d2565b81146100f057600080fd5b50565b600081359050610102816100dc565b92915050565b60006020828403121561011e5761011d6100cd565b5b600061012c848285016100f3565b91505092915050565b60008115159050919050565b61014a81610135565b82525050565b60006020820190506101656000830184610141565b92915050565b7f4e487b7100000000000000000000000000000000000000000000000000000000600052601260045260246000fd5b7f4e487b7100000000000000000000000000000000000000000000000000000000600052601160045260246000fd5b60006101d4826100d2565b91506101df836100d2565b9250826101ef576101ee61016b565b5b828204905092915050565b6000610205826100d2565b9150610210836100d2565b9250826102205761021f61016b565b5b828206905092915050565b6000610236826100d2565b91507fffffffffffffffffffffffffffffffffffffffffffffffffffffffffffffffff82036102685761026761019a565b5b60018201905091905056fea264697066735822122023f728dc35b240504f67177b2bf0170e6d0d5ddff0f56a4ae4ea329b04c0dd6464736f6c63430008120033",
			"opcodes": "PUSH1 0x80 PUSH1 0x40 MSTORE CALLVALUE DUP1 ISZERO PUSH2 0x10 JUMPI PUSH1 0x0 DUP1 REVERT JUMPDEST POP PUSH2 0x2A9 DUP1 PUSH2 0x20 PUSH1 0x0 CODECOPY PUSH1 0x0 RETURN INVALID PUSH1 0x80 PUSH1 0x40 MSTORE CALLVALUE DUP1 ISZERO PUSH2 0x10 JUMPI PUSH1 0x0 DUP1 REVERT JUMPDEST POP PUSH1 0x4 CALLDATASIZE LT PUSH2 0x2B JUMPI PUSH1 0x0 CALLDATALOAD PUSH1 0xE0 SHR DUP1 PUSH4 0xFE2C2CDE EQ PUSH2 0x30 JUMPI JUMPDEST PUSH1 0x0 DUP1 REVERT JUMPDEST PUSH2 0x4A PUSH1 0x4 DUP1 CALLDATASIZE SUB DUP2 ADD SWAP1 PUSH2 0x45 SWAP2 SWAP1 PUSH2 0x108 JUMP JUMPDEST PUSH2 0x60 JUMP JUMPDEST PUSH1 0x40 MLOAD PUSH2 0x57 SWAP2 SWAP1 PUSH2 0x150 JUMP JUMPDEST PUSH1 0x40 MLOAD DUP1 SWAP2 SUB SWAP1 RETURN JUMPDEST PUSH1 0x0 DUP1 PUSH1 0x2 SWAP1 POP PUSH1 0x1 SWAP2 POP PUSH1 0x0 DUP4 EQ DUP1 PUSH2 0x7A JUMPI POP PUSH1 0x1 DUP4 EQ JUMPDEST ISZERO PUSH2 0x84 JUMPI PUSH1 0x0 SWAP2 POP JUMPDEST JUMPDEST PUSH1 0x2 DUP4 PUSH2 0x92 SWAP2 SWAP1 PUSH2 0x1C9 JUMP JUMPDEST DUP2 GT PUSH2 0xC7 JUMPI PUSH1 0x0 DUP2 DUP5 PUSH2 0xA6 SWAP2 SWAP1 PUSH2 0x1FA JUMP JUMPDEST SUB PUSH2 0xB4 JUMPI PUSH1 0x0 SWAP2 POP PUSH2 0xC7 JUMP JUMPDEST DUP1 DUP1 PUSH2 0xBF SWAP1 PUSH2 0x22B JUMP JUMPDEST SWAP2 POP POP PUSH2 0x85 JUMP JUMPDEST POP SWAP2 SWAP1 POP JUMP JUMPDEST PUSH1 0x0 DUP1 REVERT JUMPDEST PUSH1 0x0 DUP2 SWAP1 POP SWAP2 SWAP1 POP JUMP JUMPDEST PUSH2 0xE5 DUP2 PUSH2 0xD2 JUMP JUMPDEST DUP2 EQ PUSH2 0xF0 JUMPI PUSH1 0x0 DUP1 REVERT JUMPDEST POP JUMP JUMPDEST PUSH1 0x0 DUP2 CALLDATALOAD SWAP1 POP PUSH2 0x102 DUP2 PUSH2 0xDC JUMP JUMPDEST SWAP3 SWAP2 POP POP JUMP JUMPDEST PUSH1 0x0 PUSH1 0x20 DUP3 DUP5 SUB SLT ISZERO PUSH2 0x11E JUMPI PUSH2 0x11D PUSH2 0xCD JUMP JUMPDEST JUMPDEST PUSH1 0x0 PUSH2 0x12C DUP5 DUP3 DUP6 ADD PUSH2 0xF3 JUMP JUMPDEST SWAP2 POP POP SWAP3 SWAP2 POP POP JUMP JUMPDEST PUSH1 0x0 DUP2 ISZERO ISZERO SWAP1 POP SWAP2 SWAP1 POP JUMP JUMPDEST PUSH2 0x14A DUP2 PUSH2 0x135 JUMP JUMPDEST DUP3 MSTORE POP POP JUMP JUMPDEST PUSH1 0x0 PUSH1 0x20 DUP3 ADD SWAP1 POP PUSH2 0x165 PUSH1 0x0 DUP4 ADD DUP5 PUSH2 0x141 JUMP JUMPDEST SWAP3 SWAP2 POP POP JUMP JUMPDEST PUSH32 0x4E487B7100000000000000000000000000000000000000000000000000000000 PUSH1 0x0 MSTORE PUSH1 0x12 PUSH1 0x4 MSTORE PUSH1 0x24 PUSH1 0x0 REVERT JUMPDEST PUSH32 0x4E487B7100000000000000000000000000000000000000000000000000000000 PUSH1 0x0 MSTORE PUSH1 0x11 PUSH1 0x4 MSTORE PUSH1 0x24 PUSH1 0x0 REVERT JUMPDEST PUSH1 0x0 PUSH2 0x1D4 DUP3 PUSH2 0xD2 JUMP JUMPDEST SWAP2 POP PUSH2 0x1DF DUP4 PUSH2 0xD2 JUMP JUMPDEST SWAP3 POP DUP3 PUSH2 0x1EF JUMPI PUSH2 0x1EE PUSH2 0x16B JUMP JUMPDEST JUMPDEST DUP3 DUP3 DIV SWAP1 POP SWAP3 SWAP2 POP POP JUMP JUMPDEST PUSH1 0x0 PUSH2 0x205 DUP3 PUSH2 0xD2 JUMP JUMPDEST SWAP2 POP PUSH2 0x210 DUP4 PUSH2 0xD2 JUMP JUMPDEST SWAP3 POP DUP3 PUSH2 0x220 JUMPI PUSH2 0x21F PUSH2 0x16B JUMP JUMPDEST JUMPDEST DUP3 DUP3 MOD SWAP1 POP SWAP3 SWAP2 POP POP JUMP JUMPDEST PUSH1 0x0 PUSH2 0x236 DUP3 PUSH2 0xD2 JUMP JUMPDEST SWAP2 POP PUSH32 0xFFFFFFFFFFFFFFFFFFFFFFFFFFFFFFFFFFFFFFFFFFFFFFFFFFFFFFFFFFFFFFFF DUP3 SUB PUSH2 0x268 JUMPI PUSH2 0x267 PUSH2 0x19A JUMP JUMPDEST JUMPDEST PUSH1 0x1 DUP3 ADD SWAP1 POP SWAP2 SWAP1 POP JUMP INVALID LOG2 PUSH5 0x6970667358 0x22 SLT KECCAK256 0x23 0xF7 0x28 0xDC CALLDATALOAD 0xB2 BLOCKHASH POP 0x4F PUSH8 0x177B2BF0170E6D0D 0x5D 0xDF CREATE CREATE2 PUSH11 0x4AE4EA329B04C0DD646473 PUSH16 0x6C634300081200330000000000000000 "
		},
		"gasEstimates": {
			"creation": {
				"codeDepositCost": "136200",
				"executionCost": "183",
				"totalCost": "136383"
			},
			"external": {
				"PrimeChecker(uint256)": "infinite"
			}
		},
		"methodIdentifiers": {
			"PrimeChecker(uint256)": "fe2c2cde"
		}
	},
	"abi": [
		{
			"inputs": [
				{
					"internalType": "uint256",
					"name": "_num",
					"type": "uint256"
				}
			],
			"name": "PrimeChecker",
			"outputs": [
				{
					"internalType": "bool",
					"name": "is_prime",
					"type": "bool"
				}
			],
			"stateMutability": "pure",
			"type": "function"
		}
	]
}