{
	"data": {
		"bytecode": {
			"linkReferences": {},
			"object": "608060405234801561001057600080fd5b5060d58061001f6000396000f3fe6080604052348015600f57600080fd5b506004361060285760003560e01c8063219be79214602d575b600080fd5b60336047565b604051603e91906086565b60405180910390f35b6000806201e240905060006206f85590506000620d5fff90506000620d5ffe90505050505090565b6000819050919050565b608081606f565b82525050565b6000602082019050609960008301846079565b9291505056fea264697066735822122033880db25ceea253b0b54ebac8d193473f735c44168b2e75a5f9d72a0ffb40c364736f6c63430008120033",
			"opcodes": "PUSH1 0x80 PUSH1 0x40 MSTORE CALLVALUE DUP1 ISZERO PUSH2 0x10 JUMPI PUSH1 0x0 DUP1 REVERT JUMPDEST POP PUSH1 0xD5 DUP1 PUSH2 0x1F PUSH1 0x0 CODECOPY PUSH1 0x0 RETURN INVALID PUSH1 0x80 PUSH1 0x40 MSTORE CALLVALUE DUP1 ISZERO PUSH1 0xF JUMPI PUSH1 0x0 DUP1 REVERT JUMPDEST POP PUSH1 0x4 CALLDATASIZE LT PUSH1 0x28 JUMPI PUSH1 0x0 CALLDATALOAD PUSH1 0xE0 SHR DUP1 PUSH4 0x219BE792 EQ PUSH1 0x2D JUMPI JUMPDEST PUSH1 0x0 DUP1 REVERT JUMPDEST PUSH1 0x33 PUSH1 0x47 JUMP JUMPDEST PUSH1 0x40 MLOAD PUSH1 0x3E SWAP2 SWAP1 PUSH1 0x86 JUMP JUMPDEST PUSH1 0x40 MLOAD DUP1 SWAP2 SUB SWAP1 RETURN JUMPDEST PUSH1 0x0 DUP1 PUSH3 0x1E240 SWAP1 POP PUSH1 0x0 PUSH3 0x6F855 SWAP1 POP PUSH1 0x0 PUSH3 0xD5FFF SWAP1 POP PUSH1 0x0 PUSH3 0xD5FFE SWAP1 POP POP POP POP POP SWAP1 JUMP JUMPDEST PUSH1 0x0 DUP2 SWAP1 POP SWAP2 SWAP1 POP JUMP JUMPDEST PUSH1 0x80 DUP2 PUSH1 0x6F JUMP JUMPDEST DUP3 MSTORE POP POP JUMP JUMPDEST PUSH1 0x0 PUSH1 0x20 DUP3 ADD SWAP1 POP PUSH1 0x99 PUSH1 0x0 DUP4 ADD DUP5 PUSH1 0x79 JUMP JUMPDEST SWAP3 SWAP2 POP POP JUMP INVALID LOG2 PUSH5 0x6970667358 0x22 SLT KECCAK256 CALLER DUP9 0xD 0xB2 0x5C 0xEE LOG2 MSTORE8 0xB0 0xB5 0x4E 0xBA 0xC8 0xD1 SWAP4 SELFBALANCE EXTCODEHASH PUSH20 0x5C44168B2E75A5F9D72A0FFB40C364736F6C6343 STOP ADDMOD SLT STOP CALLER "
		},
		"gasEstimates": {
			"creation": {
				"codeDepositCost": "42600",
				"executionCost": "93",
				"totalCost": "42693"
			},
			"external": {
				"func_name()": "359"
			}
		},
		"methodIdentifiers": {
			"func_name()": "219be792"
		}
	},
	"abi": [
		{
			"inputs": [],
			"name": "func_name",
			"outputs": [
				{
					"internalType": "uint256",
					"name": "",
					"type": "uint256"
				}
			],
			"stateMutability": "pure",
			"type": "function"
		}
	]
}