{
	"data": {
		"bytecode": {
			"linkReferences": {},
			"object": "60806040526040518060a00160405280600160ff168152602001600160ff168152602001600160ff168152602001600160ff168152602001600160ff168152505f90600561004e929190610060565b5034801561005a575f80fd5b506100cb565b828054828255905f5260205f2090810192821561009f579160200282015b8281111561009e578251829060ff1690559160200191906001019061007e565b5b5090506100ac91906100b0565b5090565b5b808211156100c7575f815f9055506001016100b1565b5090565b6104d2806100d85f395ff3fe608060405234801561000f575f80fd5b5060043610610034575f3560e01c80634f2be91f14610038578063993a04b714610042575b5f80fd5b610040610060565b005b61004a610198565b60405161005791906102ad565b60405180910390f35b600160025f8054905061007391906102fa565b0361009d575f808060018154018082558091505060019003905f5260205f20015f90919091909150555b5f5b60025f805490506100b09190610357565b81101561014f575f60016002836100c79190610387565b6100d191906103c8565b815481106100e2576100e16103fb565b5b905f5260205f2001545f6002836100f99190610387565b8154811061010a576101096103fb565b5b905f5260205f20015461011d91906103c8565b5f82815481106101305761012f6103fb565b5b905f5260205f200181905550808061014790610428565b91505061009f565b505f5b5f80549050811015610195575f80548061016f5761016e61046f565b5b600190038181905f5260205f20015f90559055808061018d90610428565b915050610152565b50565b60605f8054806020026020016040519081016040528092919081815260200182805480156101e357602002820191905f5260205f20905b8154815260200190600101908083116101cf575b5050505050905090565b5f81519050919050565b5f82825260208201905092915050565b5f819050602082019050919050565b5f819050919050565b61022881610216565b82525050565b5f610239838361021f565b60208301905092915050565b5f602082019050919050565b5f61025b826101ed565b61026581856101f7565b935061027083610207565b805f5b838110156102a0578151610287888261022e565b975061029283610245565b925050600181019050610273565b5085935050505092915050565b5f6020820190508181035f8301526102c58184610251565b905092915050565b7f4e487b71000000000000000000000000000000000000000000000000000000005f52601260045260245ffd5b5f61030482610216565b915061030f83610216565b92508261031f5761031e6102cd565b5b828206905092915050565b7f4e487b71000000000000000000000000000000000000000000000000000000005f52601160045260245ffd5b5f61036182610216565b915061036c83610216565b92508261037c5761037b6102cd565b5b828204905092915050565b5f61039182610216565b915061039c83610216565b92508282026103aa81610216565b915082820484148315176103c1576103c061032a565b5b5092915050565b5f6103d282610216565b91506103dd83610216565b92508282019050808211156103f5576103f461032a565b5b92915050565b7f4e487b71000000000000000000000000000000000000000000000000000000005f52603260045260245ffd5b5f61043282610216565b91507fffffffffffffffffffffffffffffffffffffffffffffffffffffffffffffffff82036104645761046361032a565b5b600182019050919050565b7f4e487b71000000000000000000000000000000000000000000000000000000005f52603160045260245ffdfea26469706673582212200a09686f380742db8cdaabf30c1c3b11fb44e8b2623b436d8e1370649fec884864736f6c63430008150033",
			"opcodes": "PUSH1 0x80 PUSH1 0x40 MSTORE PUSH1 0x40 MLOAD DUP1 PUSH1 0xA0 ADD PUSH1 0x40 MSTORE DUP1 PUSH1 0x1 PUSH1 0xFF AND DUP2 MSTORE PUSH1 0x20 ADD PUSH1 0x1 PUSH1 0xFF AND DUP2 MSTORE PUSH1 0x20 ADD PUSH1 0x1 PUSH1 0xFF AND DUP2 MSTORE PUSH1 0x20 ADD PUSH1 0x1 PUSH1 0xFF AND DUP2 MSTORE PUSH1 0x20 ADD PUSH1 0x1 PUSH1 0xFF AND DUP2 MSTORE POP PUSH0 SWAP1 PUSH1 0x5 PUSH2 0x4E SWAP3 SWAP2 SWAP1 PUSH2 0x60 JUMP JUMPDEST POP CALLVALUE DUP1 ISZERO PUSH2 0x5A JUMPI PUSH0 DUP1 REVERT JUMPDEST POP PUSH2 0xCB JUMP JUMPDEST DUP3 DUP1 SLOAD DUP3 DUP3 SSTORE SWAP1 PUSH0 MSTORE PUSH1 0x20 PUSH0 KECCAK256 SWAP1 DUP2 ADD SWAP3 DUP3 ISZERO PUSH2 0x9F JUMPI SWAP2 PUSH1 0x20 MUL DUP3 ADD JUMPDEST DUP3 DUP2 GT ISZERO PUSH2 0x9E JUMPI DUP3 MLOAD DUP3 SWAP1 PUSH1 0xFF AND SWAP1 SSTORE SWAP2 PUSH1 0x20 ADD SWAP2 SWAP1 PUSH1 0x1 ADD SWAP1 PUSH2 0x7E JUMP JUMPDEST JUMPDEST POP SWAP1 POP PUSH2 0xAC SWAP2 SWAP1 PUSH2 0xB0 JUMP JUMPDEST POP SWAP1 JUMP JUMPDEST JUMPDEST DUP1 DUP3 GT ISZERO PUSH2 0xC7 JUMPI PUSH0 DUP2 PUSH0 SWAP1 SSTORE POP PUSH1 0x1 ADD PUSH2 0xB1 JUMP JUMPDEST POP SWAP1 JUMP JUMPDEST PUSH2 0x4D2 DUP1 PUSH2 0xD8 PUSH0 CODECOPY PUSH0 RETURN INVALID PUSH1 0x80 PUSH1 0x40 MSTORE CALLVALUE DUP1 ISZERO PUSH2 0xF JUMPI PUSH0 DUP1 REVERT JUMPDEST POP PUSH1 0x4 CALLDATASIZE LT PUSH2 0x34 JUMPI PUSH0 CALLDATALOAD PUSH1 0xE0 SHR DUP1 PUSH4 0x4F2BE91F EQ PUSH2 0x38 JUMPI DUP1 PUSH4 0x993A04B7 EQ PUSH2 0x42 JUMPI JUMPDEST PUSH0 DUP1 REVERT JUMPDEST PUSH2 0x40 PUSH2 0x60 JUMP JUMPDEST STOP JUMPDEST PUSH2 0x4A PUSH2 0x198 JUMP JUMPDEST PUSH1 0x40 MLOAD PUSH2 0x57 SWAP2 SWAP1 PUSH2 0x2AD JUMP JUMPDEST PUSH1 0x40 MLOAD DUP1 SWAP2 SUB SWAP1 RETURN JUMPDEST PUSH1 0x1 PUSH1 0x2 PUSH0 DUP1 SLOAD SWAP1 POP PUSH2 0x73 SWAP2 SWAP1 PUSH2 0x2FA JUMP JUMPDEST SUB PUSH2 0x9D JUMPI PUSH0 DUP1 DUP1 PUSH1 0x1 DUP2 SLOAD ADD DUP1 DUP3 SSTORE DUP1 SWAP2 POP POP PUSH1 0x1 SWAP1 SUB SWAP1 PUSH0 MSTORE PUSH1 0x20 PUSH0 KECCAK256 ADD PUSH0 SWAP1 SWAP2 SWAP1 SWAP2 SWAP1 SWAP2 POP SSTORE JUMPDEST PUSH0 JUMPDEST PUSH1 0x2 PUSH0 DUP1 SLOAD SWAP1 POP PUSH2 0xB0 SWAP2 SWAP1 PUSH2 0x357 JUMP JUMPDEST DUP2 LT ISZERO PUSH2 0x14F JUMPI PUSH0 PUSH1 0x1 PUSH1 0x2 DUP4 PUSH2 0xC7 SWAP2 SWAP1 PUSH2 0x387 JUMP JUMPDEST PUSH2 0xD1 SWAP2 SWAP1 PUSH2 0x3C8 JUMP JUMPDEST DUP2 SLOAD DUP2 LT PUSH2 0xE2 JUMPI PUSH2 0xE1 PUSH2 0x3FB JUMP JUMPDEST JUMPDEST SWAP1 PUSH0 MSTORE PUSH1 0x20 PUSH0 KECCAK256 ADD SLOAD PUSH0 PUSH1 0x2 DUP4 PUSH2 0xF9 SWAP2 SWAP1 PUSH2 0x387 JUMP JUMPDEST DUP2 SLOAD DUP2 LT PUSH2 0x10A JUMPI PUSH2 0x109 PUSH2 0x3FB JUMP JUMPDEST JUMPDEST SWAP1 PUSH0 MSTORE PUSH1 0x20 PUSH0 KECCAK256 ADD SLOAD PUSH2 0x11D SWAP2 SWAP1 PUSH2 0x3C8 JUMP JUMPDEST PUSH0 DUP3 DUP2 SLOAD DUP2 LT PUSH2 0x130 JUMPI PUSH2 0x12F PUSH2 0x3FB JUMP JUMPDEST JUMPDEST SWAP1 PUSH0 MSTORE PUSH1 0x20 PUSH0 KECCAK256 ADD DUP2 SWAP1 SSTORE POP DUP1 DUP1 PUSH2 0x147 SWAP1 PUSH2 0x428 JUMP JUMPDEST SWAP2 POP POP PUSH2 0x9F JUMP JUMPDEST POP PUSH0 JUMPDEST PUSH0 DUP1 SLOAD SWAP1 POP DUP2 LT ISZERO PUSH2 0x195 JUMPI PUSH0 DUP1 SLOAD DUP1 PUSH2 0x16F JUMPI PUSH2 0x16E PUSH2 0x46F JUMP JUMPDEST JUMPDEST PUSH1 0x1 SWAP1 SUB DUP2 DUP2 SWAP1 PUSH0 MSTORE PUSH1 0x20 PUSH0 KECCAK256 ADD PUSH0 SWAP1 SSTORE SWAP1 SSTORE DUP1 DUP1 PUSH2 0x18D SWAP1 PUSH2 0x428 JUMP JUMPDEST SWAP2 POP POP PUSH2 0x152 JUMP JUMPDEST POP JUMP JUMPDEST PUSH1 0x60 PUSH0 DUP1 SLOAD DUP1 PUSH1 0x20 MUL PUSH1 0x20 ADD PUSH1 0x40 MLOAD SWAP1 DUP2 ADD PUSH1 0x40 MSTORE DUP1 SWAP3 SWAP2 SWAP1 DUP2 DUP2 MSTORE PUSH1 0x20 ADD DUP3 DUP1 SLOAD DUP1 ISZERO PUSH2 0x1E3 JUMPI PUSH1 0x20 MUL DUP3 ADD SWAP2 SWAP1 PUSH0 MSTORE PUSH1 0x20 PUSH0 KECCAK256 SWAP1 JUMPDEST DUP2 SLOAD DUP2 MSTORE PUSH1 0x20 ADD SWAP1 PUSH1 0x1 ADD SWAP1 DUP1 DUP4 GT PUSH2 0x1CF JUMPI JUMPDEST POP POP POP POP POP SWAP1 POP SWAP1 JUMP JUMPDEST PUSH0 DUP2 MLOAD SWAP1 POP SWAP2 SWAP1 POP JUMP JUMPDEST PUSH0 DUP3 DUP3 MSTORE PUSH1 0x20 DUP3 ADD SWAP1 POP SWAP3 SWAP2 POP POP JUMP JUMPDEST PUSH0 DUP2 SWAP1 POP PUSH1 0x20 DUP3 ADD SWAP1 POP SWAP2 SWAP1 POP JUMP JUMPDEST PUSH0 DUP2 SWAP1 POP SWAP2 SWAP1 POP JUMP JUMPDEST PUSH2 0x228 DUP2 PUSH2 0x216 JUMP JUMPDEST DUP3 MSTORE POP POP JUMP JUMPDEST PUSH0 PUSH2 0x239 DUP4 DUP4 PUSH2 0x21F JUMP JUMPDEST PUSH1 0x20 DUP4 ADD SWAP1 POP SWAP3 SWAP2 POP POP JUMP JUMPDEST PUSH0 PUSH1 0x20 DUP3 ADD SWAP1 POP SWAP2 SWAP1 POP JUMP JUMPDEST PUSH0 PUSH2 0x25B DUP3 PUSH2 0x1ED JUMP JUMPDEST PUSH2 0x265 DUP2 DUP6 PUSH2 0x1F7 JUMP JUMPDEST SWAP4 POP PUSH2 0x270 DUP4 PUSH2 0x207 JUMP JUMPDEST DUP1 PUSH0 JUMPDEST DUP4 DUP2 LT ISZERO PUSH2 0x2A0 JUMPI DUP2 MLOAD PUSH2 0x287 DUP9 DUP3 PUSH2 0x22E JUMP JUMPDEST SWAP8 POP PUSH2 0x292 DUP4 PUSH2 0x245 JUMP JUMPDEST SWAP3 POP POP PUSH1 0x1 DUP2 ADD SWAP1 POP PUSH2 0x273 JUMP JUMPDEST POP DUP6 SWAP4 POP POP POP POP SWAP3 SWAP2 POP POP JUMP JUMPDEST PUSH0 PUSH1 0x20 DUP3 ADD SWAP1 POP DUP2 DUP2 SUB PUSH0 DUP4 ADD MSTORE PUSH2 0x2C5 DUP2 DUP5 PUSH2 0x251 JUMP JUMPDEST SWAP1 POP SWAP3 SWAP2 POP POP JUMP JUMPDEST PUSH32 0x4E487B7100000000000000000000000000000000000000000000000000000000 PUSH0 MSTORE PUSH1 0x12 PUSH1 0x4 MSTORE PUSH1 0x24 PUSH0 REVERT JUMPDEST PUSH0 PUSH2 0x304 DUP3 PUSH2 0x216 JUMP JUMPDEST SWAP2 POP PUSH2 0x30F DUP4 PUSH2 0x216 JUMP JUMPDEST SWAP3 POP DUP3 PUSH2 0x31F JUMPI PUSH2 0x31E PUSH2 0x2CD JUMP JUMPDEST JUMPDEST DUP3 DUP3 MOD SWAP1 POP SWAP3 SWAP2 POP POP JUMP JUMPDEST PUSH32 0x4E487B7100000000000000000000000000000000000000000000000000000000 PUSH0 MSTORE PUSH1 0x11 PUSH1 0x4 MSTORE PUSH1 0x24 PUSH0 REVERT JUMPDEST PUSH0 PUSH2 0x361 DUP3 PUSH2 0x216 JUMP JUMPDEST SWAP2 POP PUSH2 0x36C DUP4 PUSH2 0x216 JUMP JUMPDEST SWAP3 POP DUP3 PUSH2 0x37C JUMPI PUSH2 0x37B PUSH2 0x2CD JUMP JUMPDEST JUMPDEST DUP3 DUP3 DIV SWAP1 POP SWAP3 SWAP2 POP POP JUMP JUMPDEST PUSH0 PUSH2 0x391 DUP3 PUSH2 0x216 JUMP JUMPDEST SWAP2 POP PUSH2 0x39C DUP4 PUSH2 0x216 JUMP JUMPDEST SWAP3 POP DUP3 DUP3 MUL PUSH2 0x3AA DUP2 PUSH2 0x216 JUMP JUMPDEST SWAP2 POP DUP3 DUP3 DIV DUP5 EQ DUP4 ISZERO OR PUSH2 0x3C1 JUMPI PUSH2 0x3C0 PUSH2 0x32A JUMP JUMPDEST JUMPDEST POP SWAP3 SWAP2 POP POP JUMP JUMPDEST PUSH0 PUSH2 0x3D2 DUP3 PUSH2 0x216 JUMP JUMPDEST SWAP2 POP PUSH2 0x3DD DUP4 PUSH2 0x216 JUMP JUMPDEST SWAP3 POP DUP3 DUP3 ADD SWAP1 POP DUP1 DUP3 GT ISZERO PUSH2 0x3F5 JUMPI PUSH2 0x3F4 PUSH2 0x32A JUMP JUMPDEST JUMPDEST SWAP3 SWAP2 POP POP JUMP JUMPDEST PUSH32 0x4E487B7100000000000000000000000000000000000000000000000000000000 PUSH0 MSTORE PUSH1 0x32 PUSH1 0x4 MSTORE PUSH1 0x24 PUSH0 REVERT JUMPDEST PUSH0 PUSH2 0x432 DUP3 PUSH2 0x216 JUMP JUMPDEST SWAP2 POP PUSH32 0xFFFFFFFFFFFFFFFFFFFFFFFFFFFFFFFFFFFFFFFFFFFFFFFFFFFFFFFFFFFFFFFF DUP3 SUB PUSH2 0x464 JUMPI PUSH2 0x463 PUSH2 0x32A JUMP JUMPDEST JUMPDEST PUSH1 0x1 DUP3 ADD SWAP1 POP SWAP2 SWAP1 POP JUMP JUMPDEST PUSH32 0x4E487B7100000000000000000000000000000000000000000000000000000000 PUSH0 MSTORE PUSH1 0x31 PUSH1 0x4 MSTORE PUSH1 0x24 PUSH0 REVERT INVALID LOG2 PUSH5 0x6970667358 0x22 SLT KECCAK256 EXP MULMOD PUSH9 0x6F380742DB8CDAABF3 0xC SHR EXTCODESIZE GT 0xFB PREVRANDAO 0xE8 0xB2 PUSH3 0x3B436D DUP15 SGT PUSH17 0x649FEC884864736F6C6343000815003300 "
		},
		"gasEstimates": {
			"creation": {
				"codeDepositCost": "246800",
				"executionCost": "infinite",
				"totalCost": "infinite"
			},
			"external": {
				"add()": "infinite",
				"getter()": "infinite"
			}
		},
		"methodIdentifiers": {
			"add()": "4f2be91f",
			"getter()": "993a04b7"
		}
	},
	"abi": [
		{
			"inputs": [],
			"name": "add",
			"outputs": [],
			"stateMutability": "nonpayable",
			"type": "function"
		},
		{
			"inputs": [],
			"name": "getter",
			"outputs": [
				{
					"internalType": "uint256[]",
					"name": "",
					"type": "uint256[]"
				}
			],
			"stateMutability": "view",
			"type": "function"
		}
	]
}