{
	"data": {
		"bytecode": {
			"linkReferences": {},
			"object": "608060405234801561001057600080fd5b50610256806100206000396000f3fe608060405234801561001057600080fd5b50600436106100365760003560e01c806317a9b7721461003b578063b582ec5f14610045575b600080fd5b610043610063565b005b61004d610140565b60405161005a919061015f565b60405180910390f35b60005b600481101561013d5760005b60038110156101295781600381111561008e5761008d61017a565b5b600160008054600b8111156100a6576100a561017a565b5b600b8111156100b8576100b761017a565b5b600b8111156100ca576100c961017a565b5b815260200190815260200160002060006101000a81548160ff021916908360038111156100fa576100f961017a565b5b0217905550600080815480929190610111906101d8565b91905055508080610121906101d8565b915050610072565b508080610135906101d8565b915050610066565b50565b60005481565b6000819050919050565b61015981610146565b82525050565b60006020820190506101746000830184610150565b92915050565b7f4e487b7100000000000000000000000000000000000000000000000000000000600052602160045260246000fd5b7f4e487b7100000000000000000000000000000000000000000000000000000000600052601160045260246000fd5b60006101e382610146565b91507fffffffffffffffffffffffffffffffffffffffffffffffffffffffffffffffff8203610215576102146101a9565b5b60018201905091905056fea2646970667358221220e0e98577933c1abe0729900102e8b18f37d08cc09e8d206f5a0ad7e39e7697f364736f6c63430008120033",
			"opcodes": "PUSH1 0x80 PUSH1 0x40 MSTORE CALLVALUE DUP1 ISZERO PUSH2 0x10 JUMPI PUSH1 0x0 DUP1 REVERT JUMPDEST POP PUSH2 0x256 DUP1 PUSH2 0x20 PUSH1 0x0 CODECOPY PUSH1 0x0 RETURN INVALID PUSH1 0x80 PUSH1 0x40 MSTORE CALLVALUE DUP1 ISZERO PUSH2 0x10 JUMPI PUSH1 0x0 DUP1 REVERT JUMPDEST POP PUSH1 0x4 CALLDATASIZE LT PUSH2 0x36 JUMPI PUSH1 0x0 CALLDATALOAD PUSH1 0xE0 SHR DUP1 PUSH4 0x17A9B772 EQ PUSH2 0x3B JUMPI DUP1 PUSH4 0xB582EC5F EQ PUSH2 0x45 JUMPI JUMPDEST PUSH1 0x0 DUP1 REVERT JUMPDEST PUSH2 0x43 PUSH2 0x63 JUMP JUMPDEST STOP JUMPDEST PUSH2 0x4D PUSH2 0x140 JUMP JUMPDEST PUSH1 0x40 MLOAD PUSH2 0x5A SWAP2 SWAP1 PUSH2 0x15F JUMP JUMPDEST PUSH1 0x40 MLOAD DUP1 SWAP2 SUB SWAP1 RETURN JUMPDEST PUSH1 0x0 JUMPDEST PUSH1 0x4 DUP2 LT ISZERO PUSH2 0x13D JUMPI PUSH1 0x0 JUMPDEST PUSH1 0x3 DUP2 LT ISZERO PUSH2 0x129 JUMPI DUP2 PUSH1 0x3 DUP2 GT ISZERO PUSH2 0x8E JUMPI PUSH2 0x8D PUSH2 0x17A JUMP JUMPDEST JUMPDEST PUSH1 0x1 PUSH1 0x0 DUP1 SLOAD PUSH1 0xB DUP2 GT ISZERO PUSH2 0xA6 JUMPI PUSH2 0xA5 PUSH2 0x17A JUMP JUMPDEST JUMPDEST PUSH1 0xB DUP2 GT ISZERO PUSH2 0xB8 JUMPI PUSH2 0xB7 PUSH2 0x17A JUMP JUMPDEST JUMPDEST PUSH1 0xB DUP2 GT ISZERO PUSH2 0xCA JUMPI PUSH2 0xC9 PUSH2 0x17A JUMP JUMPDEST JUMPDEST DUP2 MSTORE PUSH1 0x20 ADD SWAP1 DUP2 MSTORE PUSH1 0x20 ADD PUSH1 0x0 KECCAK256 PUSH1 0x0 PUSH2 0x100 EXP DUP2 SLOAD DUP2 PUSH1 0xFF MUL NOT AND SWAP1 DUP4 PUSH1 0x3 DUP2 GT ISZERO PUSH2 0xFA JUMPI PUSH2 0xF9 PUSH2 0x17A JUMP JUMPDEST JUMPDEST MUL OR SWAP1 SSTORE POP PUSH1 0x0 DUP1 DUP2 SLOAD DUP1 SWAP3 SWAP2 SWAP1 PUSH2 0x111 SWAP1 PUSH2 0x1D8 JUMP JUMPDEST SWAP2 SWAP1 POP SSTORE POP DUP1 DUP1 PUSH2 0x121 SWAP1 PUSH2 0x1D8 JUMP JUMPDEST SWAP2 POP POP PUSH2 0x72 JUMP JUMPDEST POP DUP1 DUP1 PUSH2 0x135 SWAP1 PUSH2 0x1D8 JUMP JUMPDEST SWAP2 POP POP PUSH2 0x66 JUMP JUMPDEST POP JUMP JUMPDEST PUSH1 0x0 SLOAD DUP2 JUMP JUMPDEST PUSH1 0x0 DUP2 SWAP1 POP SWAP2 SWAP1 POP JUMP JUMPDEST PUSH2 0x159 DUP2 PUSH2 0x146 JUMP JUMPDEST DUP3 MSTORE POP POP JUMP JUMPDEST PUSH1 0x0 PUSH1 0x20 DUP3 ADD SWAP1 POP PUSH2 0x174 PUSH1 0x0 DUP4 ADD DUP5 PUSH2 0x150 JUMP JUMPDEST SWAP3 SWAP2 POP POP JUMP JUMPDEST PUSH32 0x4E487B7100000000000000000000000000000000000000000000000000000000 PUSH1 0x0 MSTORE PUSH1 0x21 PUSH1 0x4 MSTORE PUSH1 0x24 PUSH1 0x0 REVERT JUMPDEST PUSH32 0x4E487B7100000000000000000000000000000000000000000000000000000000 PUSH1 0x0 MSTORE PUSH1 0x11 PUSH1 0x4 MSTORE PUSH1 0x24 PUSH1 0x0 REVERT JUMPDEST PUSH1 0x0 PUSH2 0x1E3 DUP3 PUSH2 0x146 JUMP JUMPDEST SWAP2 POP PUSH32 0xFFFFFFFFFFFFFFFFFFFFFFFFFFFFFFFFFFFFFFFFFFFFFFFFFFFFFFFFFFFFFFFF DUP3 SUB PUSH2 0x215 JUMPI PUSH2 0x214 PUSH2 0x1A9 JUMP JUMPDEST JUMPDEST PUSH1 0x1 DUP3 ADD SWAP1 POP SWAP2 SWAP1 POP JUMP INVALID LOG2 PUSH5 0x6970667358 0x22 SLT KECCAK256 0xE0 0xE9 DUP6 PUSH24 0x933C1ABE0729900102E8B18F37D08CC09E8D206F5A0AD7E3 SWAP15 PUSH23 0x97F364736F6C6343000812003300000000000000000000 "
		},
		"gasEstimates": {
			"creation": {
				"codeDepositCost": "119600",
				"executionCost": "165",
				"totalCost": "119765"
			},
			"external": {
				"checking()": "infinite",
				"j()": "2429"
			}
		},
		"methodIdentifiers": {
			"checking()": "17a9b772",
			"j()": "b582ec5f"
		}
	},
	"abi": [
		{
			"inputs": [],
			"name": "checking",
			"outputs": [],
			"stateMutability": "nonpayable",
			"type": "function"
		},
		{
			"inputs": [],
			"name": "j",
			"outputs": [
				{
					"internalType": "uint256",
					"name": "",
					"type": "uint256"
				}
			],
			"stateMutability": "view",
			"type": "function"
		}
	]
}