{
	"data": {
		"bytecode": {
			"linkReferences": {},
			"object": "608060405234801561000f575f80fd5b506102448061001d5f395ff3fe608060405234801561000f575f80fd5b5060043610610034575f3560e01c806317a9b77214610038578063b582ec5f14610042575b5f80fd5b610040610060565b005b61004a610137565b6040516100579190610154565b60405180910390f35b5f5b6004811015610134575f5b6003811015610120578160038111156100895761008861016d565b5b60015f8054600b8111156100a05761009f61016d565b5b600b8111156100b2576100b161016d565b5b600b8111156100c4576100c361016d565b5b81526020019081526020015f205f6101000a81548160ff021916908360038111156100f2576100f161016d565b5b02179055505f80815480929190610108906101c7565b91905055508080610118906101c7565b91505061006d565b50808061012c906101c7565b915050610062565b50565b5f5481565b5f819050919050565b61014e8161013c565b82525050565b5f6020820190506101675f830184610145565b92915050565b7f4e487b71000000000000000000000000000000000000000000000000000000005f52602160045260245ffd5b7f4e487b71000000000000000000000000000000000000000000000000000000005f52601160045260245ffd5b5f6101d18261013c565b91507fffffffffffffffffffffffffffffffffffffffffffffffffffffffffffffffff82036102035761020261019a565b5b60018201905091905056fea26469706673582212209845f51dc562d65cc3daa59e4549ad465c0b93aea1e4cbd5fce2ea3c6fc4574164736f6c63430008150033",
			"opcodes": "PUSH1 0x80 PUSH1 0x40 MSTORE CALLVALUE DUP1 ISZERO PUSH2 0xF JUMPI PUSH0 DUP1 REVERT JUMPDEST POP PUSH2 0x244 DUP1 PUSH2 0x1D PUSH0 CODECOPY PUSH0 RETURN INVALID PUSH1 0x80 PUSH1 0x40 MSTORE CALLVALUE DUP1 ISZERO PUSH2 0xF JUMPI PUSH0 DUP1 REVERT JUMPDEST POP PUSH1 0x4 CALLDATASIZE LT PUSH2 0x34 JUMPI PUSH0 CALLDATALOAD PUSH1 0xE0 SHR DUP1 PUSH4 0x17A9B772 EQ PUSH2 0x38 JUMPI DUP1 PUSH4 0xB582EC5F EQ PUSH2 0x42 JUMPI JUMPDEST PUSH0 DUP1 REVERT JUMPDEST PUSH2 0x40 PUSH2 0x60 JUMP JUMPDEST STOP JUMPDEST PUSH2 0x4A PUSH2 0x137 JUMP JUMPDEST PUSH1 0x40 MLOAD PUSH2 0x57 SWAP2 SWAP1 PUSH2 0x154 JUMP JUMPDEST PUSH1 0x40 MLOAD DUP1 SWAP2 SUB SWAP1 RETURN JUMPDEST PUSH0 JUMPDEST PUSH1 0x4 DUP2 LT ISZERO PUSH2 0x134 JUMPI PUSH0 JUMPDEST PUSH1 0x3 DUP2 LT ISZERO PUSH2 0x120 JUMPI DUP2 PUSH1 0x3 DUP2 GT ISZERO PUSH2 0x89 JUMPI PUSH2 0x88 PUSH2 0x16D JUMP JUMPDEST JUMPDEST PUSH1 0x1 PUSH0 DUP1 SLOAD PUSH1 0xB DUP2 GT ISZERO PUSH2 0xA0 JUMPI PUSH2 0x9F PUSH2 0x16D JUMP JUMPDEST JUMPDEST PUSH1 0xB DUP2 GT ISZERO PUSH2 0xB2 JUMPI PUSH2 0xB1 PUSH2 0x16D JUMP JUMPDEST JUMPDEST PUSH1 0xB DUP2 GT ISZERO PUSH2 0xC4 JUMPI PUSH2 0xC3 PUSH2 0x16D JUMP JUMPDEST JUMPDEST DUP2 MSTORE PUSH1 0x20 ADD SWAP1 DUP2 MSTORE PUSH1 0x20 ADD PUSH0 KECCAK256 PUSH0 PUSH2 0x100 EXP DUP2 SLOAD DUP2 PUSH1 0xFF MUL NOT AND SWAP1 DUP4 PUSH1 0x3 DUP2 GT ISZERO PUSH2 0xF2 JUMPI PUSH2 0xF1 PUSH2 0x16D JUMP JUMPDEST JUMPDEST MUL OR SWAP1 SSTORE POP PUSH0 DUP1 DUP2 SLOAD DUP1 SWAP3 SWAP2 SWAP1 PUSH2 0x108 SWAP1 PUSH2 0x1C7 JUMP JUMPDEST SWAP2 SWAP1 POP SSTORE POP DUP1 DUP1 PUSH2 0x118 SWAP1 PUSH2 0x1C7 JUMP JUMPDEST SWAP2 POP POP PUSH2 0x6D JUMP JUMPDEST POP DUP1 DUP1 PUSH2 0x12C SWAP1 PUSH2 0x1C7 JUMP JUMPDEST SWAP2 POP POP PUSH2 0x62 JUMP JUMPDEST POP JUMP JUMPDEST PUSH0 SLOAD DUP2 JUMP JUMPDEST PUSH0 DUP2 SWAP1 POP SWAP2 SWAP1 POP JUMP JUMPDEST PUSH2 0x14E DUP2 PUSH2 0x13C JUMP JUMPDEST DUP3 MSTORE POP POP JUMP JUMPDEST PUSH0 PUSH1 0x20 DUP3 ADD SWAP1 POP PUSH2 0x167 PUSH0 DUP4 ADD DUP5 PUSH2 0x145 JUMP JUMPDEST SWAP3 SWAP2 POP POP JUMP JUMPDEST PUSH32 0x4E487B7100000000000000000000000000000000000000000000000000000000 PUSH0 MSTORE PUSH1 0x21 PUSH1 0x4 MSTORE PUSH1 0x24 PUSH0 REVERT JUMPDEST PUSH32 0x4E487B7100000000000000000000000000000000000000000000000000000000 PUSH0 MSTORE PUSH1 0x11 PUSH1 0x4 MSTORE PUSH1 0x24 PUSH0 REVERT JUMPDEST PUSH0 PUSH2 0x1D1 DUP3 PUSH2 0x13C JUMP JUMPDEST SWAP2 POP PUSH32 0xFFFFFFFFFFFFFFFFFFFFFFFFFFFFFFFFFFFFFFFFFFFFFFFFFFFFFFFFFFFFFFFF DUP3 SUB PUSH2 0x203 JUMPI PUSH2 0x202 PUSH2 0x19A JUMP JUMPDEST JUMPDEST PUSH1 0x1 DUP3 ADD SWAP1 POP SWAP2 SWAP1 POP JUMP INVALID LOG2 PUSH5 0x6970667358 0x22 SLT KECCAK256 SWAP9 GASLIMIT CREATE2 SAR 0xC5 PUSH3 0xD65CC3 0xDA 0xA5 SWAP15 GASLIMIT 0x49 0xAD CHAINID 0x5C SIGNEXTEND SWAP4 0xAE LOG1 0xE4 0xCB 0xD5 0xFC 0xE2 0xEA EXTCODECOPY PUSH16 0xC4574164736F6C634300081500330000 "
		},
		"gasEstimates": {
			"creation": {
				"codeDepositCost": "116000",
				"executionCost": "163",
				"totalCost": "116163"
			},
			"external": {
				"checking()": "infinite",
				"j()": "2424"
			}
		},
		"methodIdentifiers": {
			"checking()": "17a9b772",
			"j()": "b582ec5f"
		}
	},
	"abi": [
		{
			"inputs": [],
			"name": "checking",
			"outputs": [],
			"stateMutability": "nonpayable",
			"type": "function"
		},
		{
			"inputs": [],
			"name": "j",
			"outputs": [
				{
					"internalType": "uint256",
					"name": "",
					"type": "uint256"
				}
			],
			"stateMutability": "view",
			"type": "function"
		}
	]
}