{
	"data": {
		"bytecode": {
			"linkReferences": {},
			"object": "608060405234801561000f575f80fd5b506104038061001d5f395ff3fe608060405234801561000f575f80fd5b5060043610610029575f3560e01c80635849bb181461002d575b5f80fd5b6100476004803603810190610042919061023b565b61005e565b604051610055929190610275565b60405180910390f35b5f805f805b60058110156100a45784816005811061007f5761007e61029c565b5b60200201518261008f91906102f6565b9150808061009c90610329565b915050610063565b8193506005826100b4919061039d565b92505050915091565b5f604051905090565b5f80fd5b5f80fd5b5f601f19601f8301169050919050565b7f4e487b71000000000000000000000000000000000000000000000000000000005f52604160045260245ffd5b610114826100ce565b810181811067ffffffffffffffff82111715610133576101326100de565b5b80604052505050565b5f6101456100bd565b9050610151828261010b565b919050565b5f67ffffffffffffffff8211156101705761016f6100de565b5b602082029050919050565b5f80fd5b5f819050919050565b6101918161017f565b811461019b575f80fd5b50565b5f813590506101ac81610188565b92915050565b5f6101c46101bf84610156565b61013c565b905080602084028301858111156101de576101dd61017b565b5b835b8181101561020757806101f3888261019e565b8452602084019350506020810190506101e0565b5050509392505050565b5f82601f830112610225576102246100ca565b5b60056102328482856101b2565b91505092915050565b5f60a082840312156102505761024f6100c6565b5b5f61025d84828501610211565b91505092915050565b61026f8161017f565b82525050565b5f6040820190506102885f830185610266565b6102956020830184610266565b9392505050565b7f4e487b71000000000000000000000000000000000000000000000000000000005f52603260045260245ffd5b7f4e487b71000000000000000000000000000000000000000000000000000000005f52601160045260245ffd5b5f6103008261017f565b915061030b8361017f565b9250828201905080821115610323576103226102c9565b5b92915050565b5f6103338261017f565b91507fffffffffffffffffffffffffffffffffffffffffffffffffffffffffffffffff8203610365576103646102c9565b5b600182019050919050565b7f4e487b71000000000000000000000000000000000000000000000000000000005f52601260045260245ffd5b5f6103a78261017f565b91506103b28361017f565b9250826103c2576103c1610370565b5b82820490509291505056fea2646970667358221220cabb6e6cb2deadd5ca34042b024dc78b647b33d4e3b7763f2415a7618c6029f864736f6c63430008150033",
			"opcodes": "PUSH1 0x80 PUSH1 0x40 MSTORE CALLVALUE DUP1 ISZERO PUSH2 0xF JUMPI PUSH0 DUP1 REVERT JUMPDEST POP PUSH2 0x403 DUP1 PUSH2 0x1D PUSH0 CODECOPY PUSH0 RETURN INVALID PUSH1 0x80 PUSH1 0x40 MSTORE CALLVALUE DUP1 ISZERO PUSH2 0xF JUMPI PUSH0 DUP1 REVERT JUMPDEST POP PUSH1 0x4 CALLDATASIZE LT PUSH2 0x29 JUMPI PUSH0 CALLDATALOAD PUSH1 0xE0 SHR DUP1 PUSH4 0x5849BB18 EQ PUSH2 0x2D JUMPI JUMPDEST PUSH0 DUP1 REVERT JUMPDEST PUSH2 0x47 PUSH1 0x4 DUP1 CALLDATASIZE SUB DUP2 ADD SWAP1 PUSH2 0x42 SWAP2 SWAP1 PUSH2 0x23B JUMP JUMPDEST PUSH2 0x5E JUMP JUMPDEST PUSH1 0x40 MLOAD PUSH2 0x55 SWAP3 SWAP2 SWAP1 PUSH2 0x275 JUMP JUMPDEST PUSH1 0x40 MLOAD DUP1 SWAP2 SUB SWAP1 RETURN JUMPDEST PUSH0 DUP1 PUSH0 DUP1 JUMPDEST PUSH1 0x5 DUP2 LT ISZERO PUSH2 0xA4 JUMPI DUP5 DUP2 PUSH1 0x5 DUP2 LT PUSH2 0x7F JUMPI PUSH2 0x7E PUSH2 0x29C JUMP JUMPDEST JUMPDEST PUSH1 0x20 MUL ADD MLOAD DUP3 PUSH2 0x8F SWAP2 SWAP1 PUSH2 0x2F6 JUMP JUMPDEST SWAP2 POP DUP1 DUP1 PUSH2 0x9C SWAP1 PUSH2 0x329 JUMP JUMPDEST SWAP2 POP POP PUSH2 0x63 JUMP JUMPDEST DUP2 SWAP4 POP PUSH1 0x5 DUP3 PUSH2 0xB4 SWAP2 SWAP1 PUSH2 0x39D JUMP JUMPDEST SWAP3 POP POP POP SWAP2 POP SWAP2 JUMP JUMPDEST PUSH0 PUSH1 0x40 MLOAD SWAP1 POP SWAP1 JUMP JUMPDEST PUSH0 DUP1 REVERT JUMPDEST PUSH0 DUP1 REVERT JUMPDEST PUSH0 PUSH1 0x1F NOT PUSH1 0x1F DUP4 ADD AND SWAP1 POP SWAP2 SWAP1 POP JUMP JUMPDEST PUSH32 0x4E487B7100000000000000000000000000000000000000000000000000000000 PUSH0 MSTORE PUSH1 0x41 PUSH1 0x4 MSTORE PUSH1 0x24 PUSH0 REVERT JUMPDEST PUSH2 0x114 DUP3 PUSH2 0xCE JUMP JUMPDEST DUP2 ADD DUP2 DUP2 LT PUSH8 0xFFFFFFFFFFFFFFFF DUP3 GT OR ISZERO PUSH2 0x133 JUMPI PUSH2 0x132 PUSH2 0xDE JUMP JUMPDEST JUMPDEST DUP1 PUSH1 0x40 MSTORE POP POP POP JUMP JUMPDEST PUSH0 PUSH2 0x145 PUSH2 0xBD JUMP JUMPDEST SWAP1 POP PUSH2 0x151 DUP3 DUP3 PUSH2 0x10B JUMP JUMPDEST SWAP2 SWAP1 POP JUMP JUMPDEST PUSH0 PUSH8 0xFFFFFFFFFFFFFFFF DUP3 GT ISZERO PUSH2 0x170 JUMPI PUSH2 0x16F PUSH2 0xDE JUMP JUMPDEST JUMPDEST PUSH1 0x20 DUP3 MUL SWAP1 POP SWAP2 SWAP1 POP JUMP JUMPDEST PUSH0 DUP1 REVERT JUMPDEST PUSH0 DUP2 SWAP1 POP SWAP2 SWAP1 POP JUMP JUMPDEST PUSH2 0x191 DUP2 PUSH2 0x17F JUMP JUMPDEST DUP2 EQ PUSH2 0x19B JUMPI PUSH0 DUP1 REVERT JUMPDEST POP JUMP JUMPDEST PUSH0 DUP2 CALLDATALOAD SWAP1 POP PUSH2 0x1AC DUP2 PUSH2 0x188 JUMP JUMPDEST SWAP3 SWAP2 POP POP JUMP JUMPDEST PUSH0 PUSH2 0x1C4 PUSH2 0x1BF DUP5 PUSH2 0x156 JUMP JUMPDEST PUSH2 0x13C JUMP JUMPDEST SWAP1 POP DUP1 PUSH1 0x20 DUP5 MUL DUP4 ADD DUP6 DUP2 GT ISZERO PUSH2 0x1DE JUMPI PUSH2 0x1DD PUSH2 0x17B JUMP JUMPDEST JUMPDEST DUP4 JUMPDEST DUP2 DUP2 LT ISZERO PUSH2 0x207 JUMPI DUP1 PUSH2 0x1F3 DUP9 DUP3 PUSH2 0x19E JUMP JUMPDEST DUP5 MSTORE PUSH1 0x20 DUP5 ADD SWAP4 POP POP PUSH1 0x20 DUP2 ADD SWAP1 POP PUSH2 0x1E0 JUMP JUMPDEST POP POP POP SWAP4 SWAP3 POP POP POP JUMP JUMPDEST PUSH0 DUP3 PUSH1 0x1F DUP4 ADD SLT PUSH2 0x225 JUMPI PUSH2 0x224 PUSH2 0xCA JUMP JUMPDEST JUMPDEST PUSH1 0x5 PUSH2 0x232 DUP5 DUP3 DUP6 PUSH2 0x1B2 JUMP JUMPDEST SWAP2 POP POP SWAP3 SWAP2 POP POP JUMP JUMPDEST PUSH0 PUSH1 0xA0 DUP3 DUP5 SUB SLT ISZERO PUSH2 0x250 JUMPI PUSH2 0x24F PUSH2 0xC6 JUMP JUMPDEST JUMPDEST PUSH0 PUSH2 0x25D DUP5 DUP3 DUP6 ADD PUSH2 0x211 JUMP JUMPDEST SWAP2 POP POP SWAP3 SWAP2 POP POP JUMP JUMPDEST PUSH2 0x26F DUP2 PUSH2 0x17F JUMP JUMPDEST DUP3 MSTORE POP POP JUMP JUMPDEST PUSH0 PUSH1 0x40 DUP3 ADD SWAP1 POP PUSH2 0x288 PUSH0 DUP4 ADD DUP6 PUSH2 0x266 JUMP JUMPDEST PUSH2 0x295 PUSH1 0x20 DUP4 ADD DUP5 PUSH2 0x266 JUMP JUMPDEST SWAP4 SWAP3 POP POP POP JUMP JUMPDEST PUSH32 0x4E487B7100000000000000000000000000000000000000000000000000000000 PUSH0 MSTORE PUSH1 0x32 PUSH1 0x4 MSTORE PUSH1 0x24 PUSH0 REVERT JUMPDEST PUSH32 0x4E487B7100000000000000000000000000000000000000000000000000000000 PUSH0 MSTORE PUSH1 0x11 PUSH1 0x4 MSTORE PUSH1 0x24 PUSH0 REVERT JUMPDEST PUSH0 PUSH2 0x300 DUP3 PUSH2 0x17F JUMP JUMPDEST SWAP2 POP PUSH2 0x30B DUP4 PUSH2 0x17F JUMP JUMPDEST SWAP3 POP DUP3 DUP3 ADD SWAP1 POP DUP1 DUP3 GT ISZERO PUSH2 0x323 JUMPI PUSH2 0x322 PUSH2 0x2C9 JUMP JUMPDEST JUMPDEST SWAP3 SWAP2 POP POP JUMP JUMPDEST PUSH0 PUSH2 0x333 DUP3 PUSH2 0x17F JUMP JUMPDEST SWAP2 POP PUSH32 0xFFFFFFFFFFFFFFFFFFFFFFFFFFFFFFFFFFFFFFFFFFFFFFFFFFFFFFFFFFFFFFFF DUP3 SUB PUSH2 0x365 JUMPI PUSH2 0x364 PUSH2 0x2C9 JUMP JUMPDEST JUMPDEST PUSH1 0x1 DUP3 ADD SWAP1 POP SWAP2 SWAP1 POP JUMP JUMPDEST PUSH32 0x4E487B7100000000000000000000000000000000000000000000000000000000 PUSH0 MSTORE PUSH1 0x12 PUSH1 0x4 MSTORE PUSH1 0x24 PUSH0 REVERT JUMPDEST PUSH0 PUSH2 0x3A7 DUP3 PUSH2 0x17F JUMP JUMPDEST SWAP2 POP PUSH2 0x3B2 DUP4 PUSH2 0x17F JUMP JUMPDEST SWAP3 POP DUP3 PUSH2 0x3C2 JUMPI PUSH2 0x3C1 PUSH2 0x370 JUMP JUMPDEST JUMPDEST DUP3 DUP3 DIV SWAP1 POP SWAP3 SWAP2 POP POP JUMP INVALID LOG2 PUSH5 0x6970667358 0x22 SLT KECCAK256 0xCA 0xBB PUSH15 0x6CB2DEADD5CA34042B024DC78B647B CALLER 0xD4 0xE3 0xB7 PUSH23 0x3F2415A7618C6029F864736F6C63430008150033000000 "
		},
		"gasEstimates": {
			"creation": {
				"codeDepositCost": "205400",
				"executionCost": "249",
				"totalCost": "205649"
			},
			"external": {
				"calculateSumAndAverage(uint256[5])": "infinite"
			}
		},
		"methodIdentifiers": {
			"calculateSumAndAverage(uint256[5])": "5849bb18"
		}
	},
	"abi": [
		{
			"inputs": [
				{
					"internalType": "uint256[5]",
					"name": "numbers",
					"type": "uint256[5]"
				}
			],
			"name": "calculateSumAndAverage",
			"outputs": [
				{
					"internalType": "uint256",
					"name": "sum",
					"type": "uint256"
				},
				{
					"internalType": "uint256",
					"name": "average",
					"type": "uint256"
				}
			],
			"stateMutability": "pure",
			"type": "function"
		}
	]
}