{
	"data": {
		"bytecode": {
			"linkReferences": {},
			"object": "608060405234801561001057600080fd5b506102fc806100206000396000f3fe608060405234801561001057600080fd5b506004361061002b5760003560e01c8063ee26fac314610030575b600080fd5b610038610050565b60405161004793929190610221565b60405180910390f35b600080600001805461006190610295565b80601f016020809104026020016040519081016040528092919081815260200182805461008d90610295565b80156100da5780601f106100af576101008083540402835291602001916100da565b820191906000526020600020905b8154815290600101906020018083116100bd57829003601f168201915b5050505050908060010180546100ef90610295565b80601f016020809104026020016040519081016040528092919081815260200182805461011b90610295565b80156101685780601f1061013d57610100808354040283529160200191610168565b820191906000526020600020905b81548152906001019060200180831161014b57829003601f168201915b5050505050908060020154905083565b600081519050919050565b600082825260208201905092915050565b60005b838110156101b2578082015181840152602081019050610197565b60008484015250505050565b6000601f19601f8301169050919050565b60006101da82610178565b6101e48185610183565b93506101f4818560208601610194565b6101fd816101be565b840191505092915050565b6000819050919050565b61021b81610208565b82525050565b6000606082019050818103600083015261023b81866101cf565b9050818103602083015261024f81856101cf565b905061025e6040830184610212565b949350505050565b7f4e487b7100000000000000000000000000000000000000000000000000000000600052602260045260246000fd5b600060028204905060018216806102ad57607f821691505b6020821081036102c0576102bf610266565b5b5091905056fea264697066735822122053a37fad92b08acc5ed0743dd5ecd198ec9aaa75abe935e76d4486760ae228ba64736f6c63430008120033",
			"opcodes": "PUSH1 0x80 PUSH1 0x40 MSTORE CALLVALUE DUP1 ISZERO PUSH2 0x10 JUMPI PUSH1 0x0 DUP1 REVERT JUMPDEST POP PUSH2 0x2FC DUP1 PUSH2 0x20 PUSH1 0x0 CODECOPY PUSH1 0x0 RETURN INVALID PUSH1 0x80 PUSH1 0x40 MSTORE CALLVALUE DUP1 ISZERO PUSH2 0x10 JUMPI PUSH1 0x0 DUP1 REVERT JUMPDEST POP PUSH1 0x4 CALLDATASIZE LT PUSH2 0x2B JUMPI PUSH1 0x0 CALLDATALOAD PUSH1 0xE0 SHR DUP1 PUSH4 0xEE26FAC3 EQ PUSH2 0x30 JUMPI JUMPDEST PUSH1 0x0 DUP1 REVERT JUMPDEST PUSH2 0x38 PUSH2 0x50 JUMP JUMPDEST PUSH1 0x40 MLOAD PUSH2 0x47 SWAP4 SWAP3 SWAP2 SWAP1 PUSH2 0x221 JUMP JUMPDEST PUSH1 0x40 MLOAD DUP1 SWAP2 SUB SWAP1 RETURN JUMPDEST PUSH1 0x0 DUP1 PUSH1 0x0 ADD DUP1 SLOAD PUSH2 0x61 SWAP1 PUSH2 0x295 JUMP JUMPDEST DUP1 PUSH1 0x1F ADD PUSH1 0x20 DUP1 SWAP2 DIV MUL PUSH1 0x20 ADD PUSH1 0x40 MLOAD SWAP1 DUP2 ADD PUSH1 0x40 MSTORE DUP1 SWAP3 SWAP2 SWAP1 DUP2 DUP2 MSTORE PUSH1 0x20 ADD DUP3 DUP1 SLOAD PUSH2 0x8D SWAP1 PUSH2 0x295 JUMP JUMPDEST DUP1 ISZERO PUSH2 0xDA JUMPI DUP1 PUSH1 0x1F LT PUSH2 0xAF JUMPI PUSH2 0x100 DUP1 DUP4 SLOAD DIV MUL DUP4 MSTORE SWAP2 PUSH1 0x20 ADD SWAP2 PUSH2 0xDA JUMP JUMPDEST DUP3 ADD SWAP2 SWAP1 PUSH1 0x0 MSTORE PUSH1 0x20 PUSH1 0x0 KECCAK256 SWAP1 JUMPDEST DUP2 SLOAD DUP2 MSTORE SWAP1 PUSH1 0x1 ADD SWAP1 PUSH1 0x20 ADD DUP1 DUP4 GT PUSH2 0xBD JUMPI DUP3 SWAP1 SUB PUSH1 0x1F AND DUP3 ADD SWAP2 JUMPDEST POP POP POP POP POP SWAP1 DUP1 PUSH1 0x1 ADD DUP1 SLOAD PUSH2 0xEF SWAP1 PUSH2 0x295 JUMP JUMPDEST DUP1 PUSH1 0x1F ADD PUSH1 0x20 DUP1 SWAP2 DIV MUL PUSH1 0x20 ADD PUSH1 0x40 MLOAD SWAP1 DUP2 ADD PUSH1 0x40 MSTORE DUP1 SWAP3 SWAP2 SWAP1 DUP2 DUP2 MSTORE PUSH1 0x20 ADD DUP3 DUP1 SLOAD PUSH2 0x11B SWAP1 PUSH2 0x295 JUMP JUMPDEST DUP1 ISZERO PUSH2 0x168 JUMPI DUP1 PUSH1 0x1F LT PUSH2 0x13D JUMPI PUSH2 0x100 DUP1 DUP4 SLOAD DIV MUL DUP4 MSTORE SWAP2 PUSH1 0x20 ADD SWAP2 PUSH2 0x168 JUMP JUMPDEST DUP3 ADD SWAP2 SWAP1 PUSH1 0x0 MSTORE PUSH1 0x20 PUSH1 0x0 KECCAK256 SWAP1 JUMPDEST DUP2 SLOAD DUP2 MSTORE SWAP1 PUSH1 0x1 ADD SWAP1 PUSH1 0x20 ADD DUP1 DUP4 GT PUSH2 0x14B JUMPI DUP3 SWAP1 SUB PUSH1 0x1F AND DUP3 ADD SWAP2 JUMPDEST POP POP POP POP POP SWAP1 DUP1 PUSH1 0x2 ADD SLOAD SWAP1 POP DUP4 JUMP JUMPDEST PUSH1 0x0 DUP2 MLOAD SWAP1 POP SWAP2 SWAP1 POP JUMP JUMPDEST PUSH1 0x0 DUP3 DUP3 MSTORE PUSH1 0x20 DUP3 ADD SWAP1 POP SWAP3 SWAP2 POP POP JUMP JUMPDEST PUSH1 0x0 JUMPDEST DUP4 DUP2 LT ISZERO PUSH2 0x1B2 JUMPI DUP1 DUP3 ADD MLOAD DUP2 DUP5 ADD MSTORE PUSH1 0x20 DUP2 ADD SWAP1 POP PUSH2 0x197 JUMP JUMPDEST PUSH1 0x0 DUP5 DUP5 ADD MSTORE POP POP POP POP JUMP JUMPDEST PUSH1 0x0 PUSH1 0x1F NOT PUSH1 0x1F DUP4 ADD AND SWAP1 POP SWAP2 SWAP1 POP JUMP JUMPDEST PUSH1 0x0 PUSH2 0x1DA DUP3 PUSH2 0x178 JUMP JUMPDEST PUSH2 0x1E4 DUP2 DUP6 PUSH2 0x183 JUMP JUMPDEST SWAP4 POP PUSH2 0x1F4 DUP2 DUP6 PUSH1 0x20 DUP7 ADD PUSH2 0x194 JUMP JUMPDEST PUSH2 0x1FD DUP2 PUSH2 0x1BE JUMP JUMPDEST DUP5 ADD SWAP2 POP POP SWAP3 SWAP2 POP POP JUMP JUMPDEST PUSH1 0x0 DUP2 SWAP1 POP SWAP2 SWAP1 POP JUMP JUMPDEST PUSH2 0x21B DUP2 PUSH2 0x208 JUMP JUMPDEST DUP3 MSTORE POP POP JUMP JUMPDEST PUSH1 0x0 PUSH1 0x60 DUP3 ADD SWAP1 POP DUP2 DUP2 SUB PUSH1 0x0 DUP4 ADD MSTORE PUSH2 0x23B DUP2 DUP7 PUSH2 0x1CF JUMP JUMPDEST SWAP1 POP DUP2 DUP2 SUB PUSH1 0x20 DUP4 ADD MSTORE PUSH2 0x24F DUP2 DUP6 PUSH2 0x1CF JUMP JUMPDEST SWAP1 POP PUSH2 0x25E PUSH1 0x40 DUP4 ADD DUP5 PUSH2 0x212 JUMP JUMPDEST SWAP5 SWAP4 POP POP POP POP JUMP JUMPDEST PUSH32 0x4E487B7100000000000000000000000000000000000000000000000000000000 PUSH1 0x0 MSTORE PUSH1 0x22 PUSH1 0x4 MSTORE PUSH1 0x24 PUSH1 0x0 REVERT JUMPDEST PUSH1 0x0 PUSH1 0x2 DUP3 DIV SWAP1 POP PUSH1 0x1 DUP3 AND DUP1 PUSH2 0x2AD JUMPI PUSH1 0x7F DUP3 AND SWAP2 POP JUMPDEST PUSH1 0x20 DUP3 LT DUP2 SUB PUSH2 0x2C0 JUMPI PUSH2 0x2BF PUSH2 0x266 JUMP JUMPDEST JUMPDEST POP SWAP2 SWAP1 POP JUMP INVALID LOG2 PUSH5 0x6970667358 0x22 SLT KECCAK256 MSTORE8 LOG3 PUSH32 0xAD92B08ACC5ED0743DD5ECD198EC9AAA75ABE935E76D4486760AE228BA64736F PUSH13 0x63430008120033000000000000 "
		},
		"gasEstimates": {
			"creation": {
				"codeDepositCost": "152800",
				"executionCost": "196",
				"totalCost": "152996"
			},
			"external": {
				"car()": "infinite"
			}
		},
		"methodIdentifiers": {
			"car()": "ee26fac3"
		}
	},
	"abi": [
		{
			"inputs": [],
			"name": "car",
			"outputs": [
				{
					"internalType": "string",
					"name": "make",
					"type": "string"
				},
				{
					"internalType": "string",
					"name": "cars",
					"type": "string"
				},
				{
					"internalType": "uint256",
					"name": "price",
					"type": "uint256"
				}
			],
			"stateMutability": "view",
			"type": "function"
		}
	]
}