{
	"data": {
		"bytecode": {
			"linkReferences": {},
			"object": "60806040526040518060400160405280601b81526020017f69742073686f756c6420686176652061207265666572656e6365200000000000815250600290816200004a9190620002c2565b5034801562000057575f80fd5b50620003a6565b5f81519050919050565b7f4e487b71000000000000000000000000000000000000000000000000000000005f52604160045260245ffd5b7f4e487b71000000000000000000000000000000000000000000000000000000005f52602260045260245ffd5b5f6002820490506001821680620000da57607f821691505b602082108103620000f057620000ef62000095565b5b50919050565b5f819050815f5260205f209050919050565b5f6020601f8301049050919050565b5f82821b905092915050565b5f60088302620001547fffffffffffffffffffffffffffffffffffffffffffffffffffffffffffffffff8262000117565b62000160868362000117565b95508019841693508086168417925050509392505050565b5f819050919050565b5f819050919050565b5f620001aa620001a46200019e8462000178565b62000181565b62000178565b9050919050565b5f819050919050565b620001c5836200018a565b620001dd620001d482620001b1565b84845462000123565b825550505050565b5f90565b620001f3620001e5565b62000200818484620001ba565b505050565b5b8181101562000227576200021b5f82620001e9565b60018101905062000206565b5050565b601f82111562000276576200024081620000f6565b6200024b8462000108565b810160208510156200025b578190505b620002736200026a8562000108565b83018262000205565b50505b505050565b5f82821c905092915050565b5f620002985f19846008026200027b565b1980831691505092915050565b5f620002b2838362000287565b9150826002028217905092915050565b620002cd826200005e565b67ffffffffffffffff811115620002e957620002e862000068565b5b620002f58254620000c2565b620003028282856200022b565b5f60209050601f83116001811462000338575f841562000323578287015190505b6200032f8582620002a5565b8655506200039e565b601f1984166200034886620000f6565b5f5b8281101562000371578489015182556001820191506020850194506020810190506200034a565b868310156200039157848901516200038d601f89168262000287565b8355505b6001600288020188555050505b505050505050565b61044380620003b45f395ff3fe608060405234801561000f575f80fd5b5060043610610060575f3560e01c80633033413b14610064578063517f5fa7146100825780635d33a27f146100a0578063737fa571146100be5780637c65452c146100dc578063aef52a2c146100fa575b5f80fd5b61006c610118565b60405161007991906102aa565b60405180910390f35b61008a61011d565b604051610097919061034d565b60405180910390f35b6100a86101a9565b6040516100b59190610397565b60405180910390f35b6100c66101ca565b6040516100d3919061034d565b60405180910390f35b6100e461025f565b6040516100f191906102aa565b60405180910390f35b610102610270565b60405161010f9190610397565b60405180910390f35b5f5481565b6002805461012a906103dd565b80601f0160208091040260200160405190810160405280929190818152602001828054610156906103dd565b80156101a15780601f10610178576101008083540402835291602001916101a1565b820191905f5260205f20905b81548152906001019060200180831161018457829003601f168201915b505050505081565b60015f9054906101000a90046fffffffffffffffffffffffffffffffff1681565b60605f600290508080546101dd906103dd565b80601f0160208091040260200160405190810160405280929190818152602001828054610209906103dd565b80156102545780601f1061022b57610100808354040283529160200191610254565b820191905f5260205f20905b81548152906001019060200180831161023757829003601f168201915b505050505091505090565b5f805f549050600a90508091505090565b600160109054906101000a90046fffffffffffffffffffffffffffffffff1681565b5f819050919050565b6102a481610292565b82525050565b5f6020820190506102bd5f83018461029b565b92915050565b5f81519050919050565b5f82825260208201905092915050565b5f5b838110156102fa5780820151818401526020810190506102df565b5f8484015250505050565b5f601f19601f8301169050919050565b5f61031f826102c3565b61032981856102cd565b93506103398185602086016102dd565b61034281610305565b840191505092915050565b5f6020820190508181035f8301526103658184610315565b905092915050565b5f6fffffffffffffffffffffffffffffffff82169050919050565b6103918161036d565b82525050565b5f6020820190506103aa5f830184610388565b92915050565b7f4e487b71000000000000000000000000000000000000000000000000000000005f52602260045260245ffd5b5f60028204905060018216806103f457607f821691505b602082108103610407576104066103b0565b5b5091905056fea264697066735822122024bfeecf9938f491263694d7138364053ed23de90f7fd19b555a9de943f51eec64736f6c63430008150033",
			"opcodes": "PUSH1 0x80 PUSH1 0x40 MSTORE PUSH1 0x40 MLOAD DUP1 PUSH1 0x40 ADD PUSH1 0x40 MSTORE DUP1 PUSH1 0x1B DUP2 MSTORE PUSH1 0x20 ADD PUSH32 0x69742073686F756C6420686176652061207265666572656E6365200000000000 DUP2 MSTORE POP PUSH1 0x2 SWAP1 DUP2 PUSH3 0x4A SWAP2 SWAP1 PUSH3 0x2C2 JUMP JUMPDEST POP CALLVALUE DUP1 ISZERO PUSH3 0x57 JUMPI PUSH0 DUP1 REVERT JUMPDEST POP PUSH3 0x3A6 JUMP JUMPDEST PUSH0 DUP2 MLOAD SWAP1 POP SWAP2 SWAP1 POP JUMP JUMPDEST PUSH32 0x4E487B7100000000000000000000000000000000000000000000000000000000 PUSH0 MSTORE PUSH1 0x41 PUSH1 0x4 MSTORE PUSH1 0x24 PUSH0 REVERT JUMPDEST PUSH32 0x4E487B7100000000000000000000000000000000000000000000000000000000 PUSH0 MSTORE PUSH1 0x22 PUSH1 0x4 MSTORE PUSH1 0x24 PUSH0 REVERT JUMPDEST PUSH0 PUSH1 0x2 DUP3 DIV SWAP1 POP PUSH1 0x1 DUP3 AND DUP1 PUSH3 0xDA JUMPI PUSH1 0x7F DUP3 AND SWAP2 POP JUMPDEST PUSH1 0x20 DUP3 LT DUP2 SUB PUSH3 0xF0 JUMPI PUSH3 0xEF PUSH3 0x95 JUMP JUMPDEST JUMPDEST POP SWAP2 SWAP1 POP JUMP JUMPDEST PUSH0 DUP2 SWAP1 POP DUP2 PUSH0 MSTORE PUSH1 0x20 PUSH0 KECCAK256 SWAP1 POP SWAP2 SWAP1 POP JUMP JUMPDEST PUSH0 PUSH1 0x20 PUSH1 0x1F DUP4 ADD DIV SWAP1 POP SWAP2 SWAP1 POP JUMP JUMPDEST PUSH0 DUP3 DUP3 SHL SWAP1 POP SWAP3 SWAP2 POP POP JUMP JUMPDEST PUSH0 PUSH1 0x8 DUP4 MUL PUSH3 0x154 PUSH32 0xFFFFFFFFFFFFFFFFFFFFFFFFFFFFFFFFFFFFFFFFFFFFFFFFFFFFFFFFFFFFFFFF DUP3 PUSH3 0x117 JUMP JUMPDEST PUSH3 0x160 DUP7 DUP4 PUSH3 0x117 JUMP JUMPDEST SWAP6 POP DUP1 NOT DUP5 AND SWAP4 POP DUP1 DUP7 AND DUP5 OR SWAP3 POP POP POP SWAP4 SWAP3 POP POP POP JUMP JUMPDEST PUSH0 DUP2 SWAP1 POP SWAP2 SWAP1 POP JUMP JUMPDEST PUSH0 DUP2 SWAP1 POP SWAP2 SWAP1 POP JUMP JUMPDEST PUSH0 PUSH3 0x1AA PUSH3 0x1A4 PUSH3 0x19E DUP5 PUSH3 0x178 JUMP JUMPDEST PUSH3 0x181 JUMP JUMPDEST PUSH3 0x178 JUMP JUMPDEST SWAP1 POP SWAP2 SWAP1 POP JUMP JUMPDEST PUSH0 DUP2 SWAP1 POP SWAP2 SWAP1 POP JUMP JUMPDEST PUSH3 0x1C5 DUP4 PUSH3 0x18A JUMP JUMPDEST PUSH3 0x1DD PUSH3 0x1D4 DUP3 PUSH3 0x1B1 JUMP JUMPDEST DUP5 DUP5 SLOAD PUSH3 0x123 JUMP JUMPDEST DUP3 SSTORE POP POP POP POP JUMP JUMPDEST PUSH0 SWAP1 JUMP JUMPDEST PUSH3 0x1F3 PUSH3 0x1E5 JUMP JUMPDEST PUSH3 0x200 DUP2 DUP5 DUP5 PUSH3 0x1BA JUMP JUMPDEST POP POP POP JUMP JUMPDEST JUMPDEST DUP2 DUP2 LT ISZERO PUSH3 0x227 JUMPI PUSH3 0x21B PUSH0 DUP3 PUSH3 0x1E9 JUMP JUMPDEST PUSH1 0x1 DUP2 ADD SWAP1 POP PUSH3 0x206 JUMP JUMPDEST POP POP JUMP JUMPDEST PUSH1 0x1F DUP3 GT ISZERO PUSH3 0x276 JUMPI PUSH3 0x240 DUP2 PUSH3 0xF6 JUMP JUMPDEST PUSH3 0x24B DUP5 PUSH3 0x108 JUMP JUMPDEST DUP2 ADD PUSH1 0x20 DUP6 LT ISZERO PUSH3 0x25B JUMPI DUP2 SWAP1 POP JUMPDEST PUSH3 0x273 PUSH3 0x26A DUP6 PUSH3 0x108 JUMP JUMPDEST DUP4 ADD DUP3 PUSH3 0x205 JUMP JUMPDEST POP POP JUMPDEST POP POP POP JUMP JUMPDEST PUSH0 DUP3 DUP3 SHR SWAP1 POP SWAP3 SWAP2 POP POP JUMP JUMPDEST PUSH0 PUSH3 0x298 PUSH0 NOT DUP5 PUSH1 0x8 MUL PUSH3 0x27B JUMP JUMPDEST NOT DUP1 DUP4 AND SWAP2 POP POP SWAP3 SWAP2 POP POP JUMP JUMPDEST PUSH0 PUSH3 0x2B2 DUP4 DUP4 PUSH3 0x287 JUMP JUMPDEST SWAP2 POP DUP3 PUSH1 0x2 MUL DUP3 OR SWAP1 POP SWAP3 SWAP2 POP POP JUMP JUMPDEST PUSH3 0x2CD DUP3 PUSH3 0x5E JUMP JUMPDEST PUSH8 0xFFFFFFFFFFFFFFFF DUP2 GT ISZERO PUSH3 0x2E9 JUMPI PUSH3 0x2E8 PUSH3 0x68 JUMP JUMPDEST JUMPDEST PUSH3 0x2F5 DUP3 SLOAD PUSH3 0xC2 JUMP JUMPDEST PUSH3 0x302 DUP3 DUP3 DUP6 PUSH3 0x22B JUMP JUMPDEST PUSH0 PUSH1 0x20 SWAP1 POP PUSH1 0x1F DUP4 GT PUSH1 0x1 DUP2 EQ PUSH3 0x338 JUMPI PUSH0 DUP5 ISZERO PUSH3 0x323 JUMPI DUP3 DUP8 ADD MLOAD SWAP1 POP JUMPDEST PUSH3 0x32F DUP6 DUP3 PUSH3 0x2A5 JUMP JUMPDEST DUP7 SSTORE POP PUSH3 0x39E JUMP JUMPDEST PUSH1 0x1F NOT DUP5 AND PUSH3 0x348 DUP7 PUSH3 0xF6 JUMP JUMPDEST PUSH0 JUMPDEST DUP3 DUP2 LT ISZERO PUSH3 0x371 JUMPI DUP5 DUP10 ADD MLOAD DUP3 SSTORE PUSH1 0x1 DUP3 ADD SWAP2 POP PUSH1 0x20 DUP6 ADD SWAP5 POP PUSH1 0x20 DUP2 ADD SWAP1 POP PUSH3 0x34A JUMP JUMPDEST DUP7 DUP4 LT ISZERO PUSH3 0x391 JUMPI DUP5 DUP10 ADD MLOAD PUSH3 0x38D PUSH1 0x1F DUP10 AND DUP3 PUSH3 0x287 JUMP JUMPDEST DUP4 SSTORE POP JUMPDEST PUSH1 0x1 PUSH1 0x2 DUP9 MUL ADD DUP9 SSTORE POP POP POP JUMPDEST POP POP POP POP POP POP JUMP JUMPDEST PUSH2 0x443 DUP1 PUSH3 0x3B4 PUSH0 CODECOPY PUSH0 RETURN INVALID PUSH1 0x80 PUSH1 0x40 MSTORE CALLVALUE DUP1 ISZERO PUSH2 0xF JUMPI PUSH0 DUP1 REVERT JUMPDEST POP PUSH1 0x4 CALLDATASIZE LT PUSH2 0x60 JUMPI PUSH0 CALLDATALOAD PUSH1 0xE0 SHR DUP1 PUSH4 0x3033413B EQ PUSH2 0x64 JUMPI DUP1 PUSH4 0x517F5FA7 EQ PUSH2 0x82 JUMPI DUP1 PUSH4 0x5D33A27F EQ PUSH2 0xA0 JUMPI DUP1 PUSH4 0x737FA571 EQ PUSH2 0xBE JUMPI DUP1 PUSH4 0x7C65452C EQ PUSH2 0xDC JUMPI DUP1 PUSH4 0xAEF52A2C EQ PUSH2 0xFA JUMPI JUMPDEST PUSH0 DUP1 REVERT JUMPDEST PUSH2 0x6C PUSH2 0x118 JUMP JUMPDEST PUSH1 0x40 MLOAD PUSH2 0x79 SWAP2 SWAP1 PUSH2 0x2AA JUMP JUMPDEST PUSH1 0x40 MLOAD DUP1 SWAP2 SUB SWAP1 RETURN JUMPDEST PUSH2 0x8A PUSH2 0x11D JUMP JUMPDEST PUSH1 0x40 MLOAD PUSH2 0x97 SWAP2 SWAP1 PUSH2 0x34D JUMP JUMPDEST PUSH1 0x40 MLOAD DUP1 SWAP2 SUB SWAP1 RETURN JUMPDEST PUSH2 0xA8 PUSH2 0x1A9 JUMP JUMPDEST PUSH1 0x40 MLOAD PUSH2 0xB5 SWAP2 SWAP1 PUSH2 0x397 JUMP JUMPDEST PUSH1 0x40 MLOAD DUP1 SWAP2 SUB SWAP1 RETURN JUMPDEST PUSH2 0xC6 PUSH2 0x1CA JUMP JUMPDEST PUSH1 0x40 MLOAD PUSH2 0xD3 SWAP2 SWAP1 PUSH2 0x34D JUMP JUMPDEST PUSH1 0x40 MLOAD DUP1 SWAP2 SUB SWAP1 RETURN JUMPDEST PUSH2 0xE4 PUSH2 0x25F JUMP JUMPDEST PUSH1 0x40 MLOAD PUSH2 0xF1 SWAP2 SWAP1 PUSH2 0x2AA JUMP JUMPDEST PUSH1 0x40 MLOAD DUP1 SWAP2 SUB SWAP1 RETURN JUMPDEST PUSH2 0x102 PUSH2 0x270 JUMP JUMPDEST PUSH1 0x40 MLOAD PUSH2 0x10F SWAP2 SWAP1 PUSH2 0x397 JUMP JUMPDEST PUSH1 0x40 MLOAD DUP1 SWAP2 SUB SWAP1 RETURN JUMPDEST PUSH0 SLOAD DUP2 JUMP JUMPDEST PUSH1 0x2 DUP1 SLOAD PUSH2 0x12A SWAP1 PUSH2 0x3DD JUMP JUMPDEST DUP1 PUSH1 0x1F ADD PUSH1 0x20 DUP1 SWAP2 DIV MUL PUSH1 0x20 ADD PUSH1 0x40 MLOAD SWAP1 DUP2 ADD PUSH1 0x40 MSTORE DUP1 SWAP3 SWAP2 SWAP1 DUP2 DUP2 MSTORE PUSH1 0x20 ADD DUP3 DUP1 SLOAD PUSH2 0x156 SWAP1 PUSH2 0x3DD JUMP JUMPDEST DUP1 ISZERO PUSH2 0x1A1 JUMPI DUP1 PUSH1 0x1F LT PUSH2 0x178 JUMPI PUSH2 0x100 DUP1 DUP4 SLOAD DIV MUL DUP4 MSTORE SWAP2 PUSH1 0x20 ADD SWAP2 PUSH2 0x1A1 JUMP JUMPDEST DUP3 ADD SWAP2 SWAP1 PUSH0 MSTORE PUSH1 0x20 PUSH0 KECCAK256 SWAP1 JUMPDEST DUP2 SLOAD DUP2 MSTORE SWAP1 PUSH1 0x1 ADD SWAP1 PUSH1 0x20 ADD DUP1 DUP4 GT PUSH2 0x184 JUMPI DUP3 SWAP1 SUB PUSH1 0x1F AND DUP3 ADD SWAP2 JUMPDEST POP POP POP POP POP DUP2 JUMP JUMPDEST PUSH1 0x1 PUSH0 SWAP1 SLOAD SWAP1 PUSH2 0x100 EXP SWAP1 DIV PUSH16 0xFFFFFFFFFFFFFFFFFFFFFFFFFFFFFFFF AND DUP2 JUMP JUMPDEST PUSH1 0x60 PUSH0 PUSH1 0x2 SWAP1 POP DUP1 DUP1 SLOAD PUSH2 0x1DD SWAP1 PUSH2 0x3DD JUMP JUMPDEST DUP1 PUSH1 0x1F ADD PUSH1 0x20 DUP1 SWAP2 DIV MUL PUSH1 0x20 ADD PUSH1 0x40 MLOAD SWAP1 DUP2 ADD PUSH1 0x40 MSTORE DUP1 SWAP3 SWAP2 SWAP1 DUP2 DUP2 MSTORE PUSH1 0x20 ADD DUP3 DUP1 SLOAD PUSH2 0x209 SWAP1 PUSH2 0x3DD JUMP JUMPDEST DUP1 ISZERO PUSH2 0x254 JUMPI DUP1 PUSH1 0x1F LT PUSH2 0x22B JUMPI PUSH2 0x100 DUP1 DUP4 SLOAD DIV MUL DUP4 MSTORE SWAP2 PUSH1 0x20 ADD SWAP2 PUSH2 0x254 JUMP JUMPDEST DUP3 ADD SWAP2 SWAP1 PUSH0 MSTORE PUSH1 0x20 PUSH0 KECCAK256 SWAP1 JUMPDEST DUP2 SLOAD DUP2 MSTORE SWAP1 PUSH1 0x1 ADD SWAP1 PUSH1 0x20 ADD DUP1 DUP4 GT PUSH2 0x237 JUMPI DUP3 SWAP1 SUB PUSH1 0x1F AND DUP3 ADD SWAP2 JUMPDEST POP POP POP POP POP SWAP2 POP POP SWAP1 JUMP JUMPDEST PUSH0 DUP1 PUSH0 SLOAD SWAP1 POP PUSH1 0xA SWAP1 POP DUP1 SWAP2 POP POP SWAP1 JUMP JUMPDEST PUSH1 0x1 PUSH1 0x10 SWAP1 SLOAD SWAP1 PUSH2 0x100 EXP SWAP1 DIV PUSH16 0xFFFFFFFFFFFFFFFFFFFFFFFFFFFFFFFF AND DUP2 JUMP JUMPDEST PUSH0 DUP2 SWAP1 POP SWAP2 SWAP1 POP JUMP JUMPDEST PUSH2 0x2A4 DUP2 PUSH2 0x292 JUMP JUMPDEST DUP3 MSTORE POP POP JUMP JUMPDEST PUSH0 PUSH1 0x20 DUP3 ADD SWAP1 POP PUSH2 0x2BD PUSH0 DUP4 ADD DUP5 PUSH2 0x29B JUMP JUMPDEST SWAP3 SWAP2 POP POP JUMP JUMPDEST PUSH0 DUP2 MLOAD SWAP1 POP SWAP2 SWAP1 POP JUMP JUMPDEST PUSH0 DUP3 DUP3 MSTORE PUSH1 0x20 DUP3 ADD SWAP1 POP SWAP3 SWAP2 POP POP JUMP JUMPDEST PUSH0 JUMPDEST DUP4 DUP2 LT ISZERO PUSH2 0x2FA JUMPI DUP1 DUP3 ADD MLOAD DUP2 DUP5 ADD MSTORE PUSH1 0x20 DUP2 ADD SWAP1 POP PUSH2 0x2DF JUMP JUMPDEST PUSH0 DUP5 DUP5 ADD MSTORE POP POP POP POP JUMP JUMPDEST PUSH0 PUSH1 0x1F NOT PUSH1 0x1F DUP4 ADD AND SWAP1 POP SWAP2 SWAP1 POP JUMP JUMPDEST PUSH0 PUSH2 0x31F DUP3 PUSH2 0x2C3 JUMP JUMPDEST PUSH2 0x329 DUP2 DUP6 PUSH2 0x2CD JUMP JUMPDEST SWAP4 POP PUSH2 0x339 DUP2 DUP6 PUSH1 0x20 DUP7 ADD PUSH2 0x2DD JUMP JUMPDEST PUSH2 0x342 DUP2 PUSH2 0x305 JUMP JUMPDEST DUP5 ADD SWAP2 POP POP SWAP3 SWAP2 POP POP JUMP JUMPDEST PUSH0 PUSH1 0x20 DUP3 ADD SWAP1 POP DUP2 DUP2 SUB PUSH0 DUP4 ADD MSTORE PUSH2 0x365 DUP2 DUP5 PUSH2 0x315 JUMP JUMPDEST SWAP1 POP SWAP3 SWAP2 POP POP JUMP JUMPDEST PUSH0 PUSH16 0xFFFFFFFFFFFFFFFFFFFFFFFFFFFFFFFF DUP3 AND SWAP1 POP SWAP2 SWAP1 POP JUMP JUMPDEST PUSH2 0x391 DUP2 PUSH2 0x36D JUMP JUMPDEST DUP3 MSTORE POP POP JUMP JUMPDEST PUSH0 PUSH1 0x20 DUP3 ADD SWAP1 POP PUSH2 0x3AA PUSH0 DUP4 ADD DUP5 PUSH2 0x388 JUMP JUMPDEST SWAP3 SWAP2 POP POP JUMP JUMPDEST PUSH32 0x4E487B7100000000000000000000000000000000000000000000000000000000 PUSH0 MSTORE PUSH1 0x22 PUSH1 0x4 MSTORE PUSH1 0x24 PUSH0 REVERT JUMPDEST PUSH0 PUSH1 0x2 DUP3 DIV SWAP1 POP PUSH1 0x1 DUP3 AND DUP1 PUSH2 0x3F4 JUMPI PUSH1 0x7F DUP3 AND SWAP2 POP JUMPDEST PUSH1 0x20 DUP3 LT DUP2 SUB PUSH2 0x407 JUMPI PUSH2 0x406 PUSH2 0x3B0 JUMP JUMPDEST JUMPDEST POP SWAP2 SWAP1 POP JUMP INVALID LOG2 PUSH5 0x6970667358 0x22 SLT KECCAK256 0x24 0xBF 0xEE 0xCF SWAP10 CODESIZE DELEGATECALL SWAP2 0x26 CALLDATASIZE SWAP5 0xD7 SGT DUP4 PUSH5 0x53ED23DE9 0xF PUSH32 0xD19B555A9DE943F51EEC64736F6C634300081500330000000000000000000000 "
		},
		"gasEstimates": {
			"creation": {
				"codeDepositCost": "218200",
				"executionCost": "infinite",
				"totalCost": "infinite"
			},
			"external": {
				"for_memory()": "infinite",
				"newValue()": "2518",
				"value1()": "2402",
				"value2()": "2488",
				"value3()": "2605",
				"value4()": "infinite"
			}
		},
		"methodIdentifiers": {
			"for_memory()": "737fa571",
			"newValue()": "7c65452c",
			"value1()": "3033413b",
			"value2()": "5d33a27f",
			"value3()": "aef52a2c",
			"value4()": "517f5fa7"
		}
	},
	"abi": [
		{
			"inputs": [],
			"name": "for_memory",
			"outputs": [
				{
					"internalType": "string",
					"name": "",
					"type": "string"
				}
			],
			"stateMutability": "view",
			"type": "function"
		},
		{
			"inputs": [],
			"name": "newValue",
			"outputs": [
				{
					"internalType": "uint256",
					"name": "",
					"type": "uint256"
				}
			],
			"stateMutability": "view",
			"type": "function"
		},
		{
			"inputs": [],
			"name": "value1",
			"outputs": [
				{
					"internalType": "uint256",
					"name": "",
					"type": "uint256"
				}
			],
			"stateMutability": "view",
			"type": "function"
		},
		{
			"inputs": [],
			"name": "value2",
			"outputs": [
				{
					"internalType": "uint128",
					"name": "",
					"type": "uint128"
				}
			],
			"stateMutability": "view",
			"type": "function"
		},
		{
			"inputs": [],
			"name": "value3",
			"outputs": [
				{
					"internalType": "uint128",
					"name": "",
					"type": "uint128"
				}
			],
			"stateMutability": "view",
			"type": "function"
		},
		{
			"inputs": [],
			"name": "value4",
			"outputs": [
				{
					"internalType": "string",
					"name": "",
					"type": "string"
				}
			],
			"stateMutability": "view",
			"type": "function"
		}
	]
}