{
	"contracts/AreaofCircle.sol": {
		"AreaofCircle": {
			"abi": [
				{
					"inputs": [
						{
							"internalType": "uint256",
							"name": "radius",
							"type": "uint256"
						}
					],
					"name": "calculateArea",
					"outputs": [
						{
							"internalType": "uint256",
							"name": "",
							"type": "uint256"
						}
					],
					"stateMutability": "pure",
					"type": "function"
				}
			],
			"devdoc": {
				"kind": "dev",
				"methods": {},
				"version": 1
			},
			"evm": {
				"assembly": "    /* \"contracts/AreaofCircle.sol\":108:339  contract AreaofCircle {... */\n  mstore(0x40, 0x80)\n  callvalue\n  dup1\n  iszero\n  tag_1\n  jumpi\n  0x00\n  dup1\n  revert\ntag_1:\n  pop\n  dataSize(sub_0)\n  dup1\n  dataOffset(sub_0)\n  0x00\n  codecopy\n  0x00\n  return\nstop\n\nsub_0: assembly {\n        /* \"contracts/AreaofCircle.sol\":108:339  contract AreaofCircle {... */\n      mstore(0x40, 0x80)\n      callvalue\n      dup1\n      iszero\n      tag_1\n      jumpi\n      0x00\n      dup1\n      revert\n    tag_1:\n      pop\n      jumpi(tag_2, lt(calldatasize, 0x04))\n      shr(0xe0, calldataload(0x00))\n      dup1\n      0x46348e0b\n      eq\n      tag_3\n      jumpi\n    tag_2:\n      0x00\n      dup1\n      revert\n        /* \"contracts/AreaofCircle.sol\":171:334  function calculateArea(uint radius) public pure returns (uint){... */\n    tag_3:\n      tag_4\n      0x04\n      dup1\n      calldatasize\n      sub\n      dup2\n      add\n      swap1\n      tag_5\n      swap2\n      swap1\n      tag_6\n      jump\t// in\n    tag_5:\n      tag_7\n      jump\t// in\n    tag_4:\n      mload(0x40)\n      tag_8\n      swap2\n      swap1\n      tag_9\n      jump\t// in\n    tag_8:\n      mload(0x40)\n      dup1\n      swap2\n      sub\n      swap1\n      return\n    tag_7:\n        /* \"contracts/AreaofCircle.sol\":228:232  uint */\n      0x00\n        /* \"contracts/AreaofCircle.sol\":244:253  uint area */\n      dup1\n        /* \"contracts/AreaofCircle.sol\":268:274  radius */\n      dup3\n        /* \"contracts/AreaofCircle.sol\":260:266  radius */\n      dup4\n        /* \"contracts/AreaofCircle.sol\":159:164  31415 */\n      0x7ab7\n        /* \"contracts/AreaofCircle.sol\":255:266  PI * radius */\n      tag_11\n      swap2\n      swap1\n      tag_12\n      jump\t// in\n    tag_11:\n        /* \"contracts/AreaofCircle.sol\":255:274  PI * radius *radius */\n      tag_13\n      swap2\n      swap1\n      tag_12\n      jump\t// in\n    tag_13:\n        /* \"contracts/AreaofCircle.sol\":244:274  uint area= PI * radius *radius */\n      swap1\n      pop\n        /* \"contracts/AreaofCircle.sol\":299:304  10000 */\n      0x2710\n        /* \"contracts/AreaofCircle.sol\":292:296  area */\n      dup2\n        /* \"contracts/AreaofCircle.sol\":292:304  area / 10000 */\n      tag_14\n      swap2\n      swap1\n      tag_15\n      jump\t// in\n    tag_14:\n        /* \"contracts/AreaofCircle.sol\":285:304  area = area / 10000 */\n      swap1\n      pop\n        /* \"contracts/AreaofCircle.sol\":322:326  area */\n      dup1\n        /* \"contracts/AreaofCircle.sol\":315:326  return area */\n      swap2\n      pop\n      pop\n        /* \"contracts/AreaofCircle.sol\":171:334  function calculateArea(uint radius) public pure returns (uint){... */\n      swap2\n      swap1\n      pop\n      jump\t// out\n        /* \"#utility.yul\":88:205   */\n    tag_17:\n        /* \"#utility.yul\":197:198   */\n      0x00\n        /* \"#utility.yul\":194:195   */\n      dup1\n        /* \"#utility.yul\":187:199   */\n      revert\n        /* \"#utility.yul\":334:411   */\n    tag_19:\n        /* \"#utility.yul\":371:378   */\n      0x00\n        /* \"#utility.yul\":400:405   */\n      dup2\n        /* \"#utility.yul\":389:405   */\n      swap1\n      pop\n        /* \"#utility.yul\":334:411   */\n      swap2\n      swap1\n      pop\n      jump\t// out\n        /* \"#utility.yul\":417:539   */\n    tag_20:\n        /* \"#utility.yul\":490:514   */\n      tag_31\n        /* \"#utility.yul\":508:513   */\n      dup2\n        /* \"#utility.yul\":490:514   */\n      tag_19\n      jump\t// in\n    tag_31:\n        /* \"#utility.yul\":483:488   */\n      dup2\n        /* \"#utility.yul\":480:515   */\n      eq\n        /* \"#utility.yul\":470:533   */\n      tag_32\n      jumpi\n        /* \"#utility.yul\":529:530   */\n      0x00\n        /* \"#utility.yul\":526:527   */\n      dup1\n        /* \"#utility.yul\":519:531   */\n      revert\n        /* \"#utility.yul\":470:533   */\n    tag_32:\n        /* \"#utility.yul\":417:539   */\n      pop\n      jump\t// out\n        /* \"#utility.yul\":545:684   */\n    tag_21:\n        /* \"#utility.yul\":591:596   */\n      0x00\n        /* \"#utility.yul\":629:635   */\n      dup2\n        /* \"#utility.yul\":616:636   */\n      calldataload\n        /* \"#utility.yul\":607:636   */\n      swap1\n      pop\n        /* \"#utility.yul\":645:678   */\n      tag_34\n        /* \"#utility.yul\":672:677   */\n      dup2\n        /* \"#utility.yul\":645:678   */\n      tag_20\n      jump\t// in\n    tag_34:\n        /* \"#utility.yul\":545:684   */\n      swap3\n      swap2\n      pop\n      pop\n      jump\t// out\n        /* \"#utility.yul\":690:1019   */\n    tag_6:\n        /* \"#utility.yul\":749:755   */\n      0x00\n        /* \"#utility.yul\":798:800   */\n      0x20\n        /* \"#utility.yul\":786:795   */\n      dup3\n        /* \"#utility.yul\":777:784   */\n      dup5\n        /* \"#utility.yul\":773:796   */\n      sub\n        /* \"#utility.yul\":769:801   */\n      slt\n        /* \"#utility.yul\":766:885   */\n      iszero\n      tag_36\n      jumpi\n        /* \"#utility.yul\":804:883   */\n      tag_37\n      tag_17\n      jump\t// in\n    tag_37:\n        /* \"#utility.yul\":766:885   */\n    tag_36:\n        /* \"#utility.yul\":924:925   */\n      0x00\n        /* \"#utility.yul\":949:1002   */\n      tag_38\n        /* \"#utility.yul\":994:1001   */\n      dup5\n        /* \"#utility.yul\":985:991   */\n      dup3\n        /* \"#utility.yul\":974:983   */\n      dup6\n        /* \"#utility.yul\":970:992   */\n      add\n        /* \"#utility.yul\":949:1002   */\n      tag_21\n      jump\t// in\n    tag_38:\n        /* \"#utility.yul\":939:1002   */\n      swap2\n      pop\n        /* \"#utility.yul\":895:1012   */\n      pop\n        /* \"#utility.yul\":690:1019   */\n      swap3\n      swap2\n      pop\n      pop\n      jump\t// out\n        /* \"#utility.yul\":1025:1143   */\n    tag_22:\n        /* \"#utility.yul\":1112:1136   */\n      tag_40\n        /* \"#utility.yul\":1130:1135   */\n      dup2\n        /* \"#utility.yul\":1112:1136   */\n      tag_19\n      jump\t// in\n    tag_40:\n        /* \"#utility.yul\":1107:1110   */\n      dup3\n        /* \"#utility.yul\":1100:1137   */\n      mstore\n        /* \"#utility.yul\":1025:1143   */\n      pop\n      pop\n      jump\t// out\n        /* \"#utility.yul\":1149:1371   */\n    tag_9:\n        /* \"#utility.yul\":1242:1246   */\n      0x00\n        /* \"#utility.yul\":1280:1282   */\n      0x20\n        /* \"#utility.yul\":1269:1278   */\n      dup3\n        /* \"#utility.yul\":1265:1283   */\n      add\n        /* \"#utility.yul\":1257:1283   */\n      swap1\n      pop\n        /* \"#utility.yul\":1293:1364   */\n      tag_42\n        /* \"#utility.yul\":1361:1362   */\n      0x00\n        /* \"#utility.yul\":1350:1359   */\n      dup4\n        /* \"#utility.yul\":1346:1363   */\n      add\n        /* \"#utility.yul\":1337:1343   */\n      dup5\n        /* \"#utility.yul\":1293:1364   */\n      tag_22\n      jump\t// in\n    tag_42:\n        /* \"#utility.yul\":1149:1371   */\n      swap3\n      swap2\n      pop\n      pop\n      jump\t// out\n        /* \"#utility.yul\":1377:1557   */\n    tag_23:\n        /* \"#utility.yul\":1425:1502   */\n      0x4e487b7100000000000000000000000000000000000000000000000000000000\n        /* \"#utility.yul\":1422:1423   */\n      0x00\n        /* \"#utility.yul\":1415:1503   */\n      mstore\n        /* \"#utility.yul\":1522:1526   */\n      0x11\n        /* \"#utility.yul\":1519:1520   */\n      0x04\n        /* \"#utility.yul\":1512:1527   */\n      mstore\n        /* \"#utility.yul\":1546:1550   */\n      0x24\n        /* \"#utility.yul\":1543:1544   */\n      0x00\n        /* \"#utility.yul\":1536:1551   */\n      revert\n        /* \"#utility.yul\":1563:1973   */\n    tag_12:\n        /* \"#utility.yul\":1603:1610   */\n      0x00\n        /* \"#utility.yul\":1626:1646   */\n      tag_45\n        /* \"#utility.yul\":1644:1645   */\n      dup3\n        /* \"#utility.yul\":1626:1646   */\n      tag_19\n      jump\t// in\n    tag_45:\n        /* \"#utility.yul\":1621:1646   */\n      swap2\n      pop\n        /* \"#utility.yul\":1660:1680   */\n      tag_46\n        /* \"#utility.yul\":1678:1679   */\n      dup4\n        /* \"#utility.yul\":1660:1680   */\n      tag_19\n      jump\t// in\n    tag_46:\n        /* \"#utility.yul\":1655:1680   */\n      swap3\n      pop\n        /* \"#utility.yul\":1715:1716   */\n      dup3\n        /* \"#utility.yul\":1712:1713   */\n      dup3\n        /* \"#utility.yul\":1708:1717   */\n      mul\n        /* \"#utility.yul\":1737:1767   */\n      tag_47\n        /* \"#utility.yul\":1755:1766   */\n      dup2\n        /* \"#utility.yul\":1737:1767   */\n      tag_19\n      jump\t// in\n    tag_47:\n        /* \"#utility.yul\":1726:1767   */\n      swap2\n      pop\n        /* \"#utility.yul\":1916:1917   */\n      dup3\n        /* \"#utility.yul\":1907:1914   */\n      dup3\n        /* \"#utility.yul\":1903:1918   */\n      div\n        /* \"#utility.yul\":1900:1901   */\n      dup5\n        /* \"#utility.yul\":1897:1919   */\n      eq\n        /* \"#utility.yul\":1877:1878   */\n      dup4\n        /* \"#utility.yul\":1870:1879   */\n      iszero\n        /* \"#utility.yul\":1850:1933   */\n      or\n        /* \"#utility.yul\":1827:1966   */\n      tag_48\n      jumpi\n        /* \"#utility.yul\":1946:1964   */\n      tag_49\n      tag_23\n      jump\t// in\n    tag_49:\n        /* \"#utility.yul\":1827:1966   */\n    tag_48:\n        /* \"#utility.yul\":1611:1973   */\n      pop\n        /* \"#utility.yul\":1563:1973   */\n      swap3\n      swap2\n      pop\n      pop\n      jump\t// out\n        /* \"#utility.yul\":1979:2159   */\n    tag_24:\n        /* \"#utility.yul\":2027:2104   */\n      0x4e487b7100000000000000000000000000000000000000000000000000000000\n        /* \"#utility.yul\":2024:2025   */\n      0x00\n        /* \"#utility.yul\":2017:2105   */\n      mstore\n        /* \"#utility.yul\":2124:2128   */\n      0x12\n        /* \"#utility.yul\":2121:2122   */\n      0x04\n        /* \"#utility.yul\":2114:2129   */\n      mstore\n        /* \"#utility.yul\":2148:2152   */\n      0x24\n        /* \"#utility.yul\":2145:2146   */\n      0x00\n        /* \"#utility.yul\":2138:2153   */\n      revert\n        /* \"#utility.yul\":2165:2350   */\n    tag_15:\n        /* \"#utility.yul\":2205:2206   */\n      0x00\n        /* \"#utility.yul\":2222:2242   */\n      tag_52\n        /* \"#utility.yul\":2240:2241   */\n      dup3\n        /* \"#utility.yul\":2222:2242   */\n      tag_19\n      jump\t// in\n    tag_52:\n        /* \"#utility.yul\":2217:2242   */\n      swap2\n      pop\n        /* \"#utility.yul\":2256:2276   */\n      tag_53\n        /* \"#utility.yul\":2274:2275   */\n      dup4\n        /* \"#utility.yul\":2256:2276   */\n      tag_19\n      jump\t// in\n    tag_53:\n        /* \"#utility.yul\":2251:2276   */\n      swap3\n      pop\n        /* \"#utility.yul\":2295:2296   */\n      dup3\n        /* \"#utility.yul\":2285:2320   */\n      tag_54\n      jumpi\n        /* \"#utility.yul\":2300:2318   */\n      tag_55\n      tag_24\n      jump\t// in\n    tag_55:\n        /* \"#utility.yul\":2285:2320   */\n    tag_54:\n        /* \"#utility.yul\":2342:2343   */\n      dup3\n        /* \"#utility.yul\":2339:2340   */\n      dup3\n        /* \"#utility.yul\":2335:2344   */\n      div\n        /* \"#utility.yul\":2330:2344   */\n      swap1\n      pop\n        /* \"#utility.yul\":2165:2350   */\n      swap3\n      swap2\n      pop\n      pop\n      jump\t// out\n\n    auxdata: 0xa26469706673582212209919461994ea4e8d5ef1e978763da9823635928818f5073c563b3144bd19cf6d64736f6c63430008120033\n}\n",
				"bytecode": {
					"linkReferences": {},
					"object": "608060405234801561001057600080fd5b50610230806100206000396000f3fe608060405234801561001057600080fd5b506004361061002b5760003560e01c806346348e0b14610030575b600080fd5b61004a600480360381019061004591906100d2565b610060565b604051610057919061010e565b60405180910390f35b6000808283617ab76100729190610158565b61007c9190610158565b90506127108161008c91906101c9565b905080915050919050565b600080fd5b6000819050919050565b6100af8161009c565b81146100ba57600080fd5b50565b6000813590506100cc816100a6565b92915050565b6000602082840312156100e8576100e7610097565b5b60006100f6848285016100bd565b91505092915050565b6101088161009c565b82525050565b600060208201905061012360008301846100ff565b92915050565b7f4e487b7100000000000000000000000000000000000000000000000000000000600052601160045260246000fd5b60006101638261009c565b915061016e8361009c565b925082820261017c8161009c565b9150828204841483151761019357610192610129565b5b5092915050565b7f4e487b7100000000000000000000000000000000000000000000000000000000600052601260045260246000fd5b60006101d48261009c565b91506101df8361009c565b9250826101ef576101ee61019a565b5b82820490509291505056fea26469706673582212209919461994ea4e8d5ef1e978763da9823635928818f5073c563b3144bd19cf6d64736f6c63430008120033",
					"opcodes": "PUSH1 0x80 PUSH1 0x40 MSTORE CALLVALUE DUP1 ISZERO PUSH2 0x10 JUMPI PUSH1 0x0 DUP1 REVERT JUMPDEST POP PUSH2 0x230 DUP1 PUSH2 0x20 PUSH1 0x0 CODECOPY PUSH1 0x0 RETURN INVALID PUSH1 0x80 PUSH1 0x40 MSTORE CALLVALUE DUP1 ISZERO PUSH2 0x10 JUMPI PUSH1 0x0 DUP1 REVERT JUMPDEST POP PUSH1 0x4 CALLDATASIZE LT PUSH2 0x2B JUMPI PUSH1 0x0 CALLDATALOAD PUSH1 0xE0 SHR DUP1 PUSH4 0x46348E0B EQ PUSH2 0x30 JUMPI JUMPDEST PUSH1 0x0 DUP1 REVERT JUMPDEST PUSH2 0x4A PUSH1 0x4 DUP1 CALLDATASIZE SUB DUP2 ADD SWAP1 PUSH2 0x45 SWAP2 SWAP1 PUSH2 0xD2 JUMP JUMPDEST PUSH2 0x60 JUMP JUMPDEST PUSH1 0x40 MLOAD PUSH2 0x57 SWAP2 SWAP1 PUSH2 0x10E JUMP JUMPDEST PUSH1 0x40 MLOAD DUP1 SWAP2 SUB SWAP1 RETURN JUMPDEST PUSH1 0x0 DUP1 DUP3 DUP4 PUSH2 0x7AB7 PUSH2 0x72 SWAP2 SWAP1 PUSH2 0x158 JUMP JUMPDEST PUSH2 0x7C SWAP2 SWAP1 PUSH2 0x158 JUMP JUMPDEST SWAP1 POP PUSH2 0x2710 DUP2 PUSH2 0x8C SWAP2 SWAP1 PUSH2 0x1C9 JUMP JUMPDEST SWAP1 POP DUP1 SWAP2 POP POP SWAP2 SWAP1 POP JUMP JUMPDEST PUSH1 0x0 DUP1 REVERT JUMPDEST PUSH1 0x0 DUP2 SWAP1 POP SWAP2 SWAP1 POP JUMP JUMPDEST PUSH2 0xAF DUP2 PUSH2 0x9C JUMP JUMPDEST DUP2 EQ PUSH2 0xBA JUMPI PUSH1 0x0 DUP1 REVERT JUMPDEST POP JUMP JUMPDEST PUSH1 0x0 DUP2 CALLDATALOAD SWAP1 POP PUSH2 0xCC DUP2 PUSH2 0xA6 JUMP JUMPDEST SWAP3 SWAP2 POP POP JUMP JUMPDEST PUSH1 0x0 PUSH1 0x20 DUP3 DUP5 SUB SLT ISZERO PUSH2 0xE8 JUMPI PUSH2 0xE7 PUSH2 0x97 JUMP JUMPDEST JUMPDEST PUSH1 0x0 PUSH2 0xF6 DUP5 DUP3 DUP6 ADD PUSH2 0xBD JUMP JUMPDEST SWAP2 POP POP SWAP3 SWAP2 POP POP JUMP JUMPDEST PUSH2 0x108 DUP2 PUSH2 0x9C JUMP JUMPDEST DUP3 MSTORE POP POP JUMP JUMPDEST PUSH1 0x0 PUSH1 0x20 DUP3 ADD SWAP1 POP PUSH2 0x123 PUSH1 0x0 DUP4 ADD DUP5 PUSH2 0xFF JUMP JUMPDEST SWAP3 SWAP2 POP POP JUMP JUMPDEST PUSH32 0x4E487B7100000000000000000000000000000000000000000000000000000000 PUSH1 0x0 MSTORE PUSH1 0x11 PUSH1 0x4 MSTORE PUSH1 0x24 PUSH1 0x0 REVERT JUMPDEST PUSH1 0x0 PUSH2 0x163 DUP3 PUSH2 0x9C JUMP JUMPDEST SWAP2 POP PUSH2 0x16E DUP4 PUSH2 0x9C JUMP JUMPDEST SWAP3 POP DUP3 DUP3 MUL PUSH2 0x17C DUP2 PUSH2 0x9C JUMP JUMPDEST SWAP2 POP DUP3 DUP3 DIV DUP5 EQ DUP4 ISZERO OR PUSH2 0x193 JUMPI PUSH2 0x192 PUSH2 0x129 JUMP JUMPDEST JUMPDEST POP SWAP3 SWAP2 POP POP JUMP JUMPDEST PUSH32 0x4E487B7100000000000000000000000000000000000000000000000000000000 PUSH1 0x0 MSTORE PUSH1 0x12 PUSH1 0x4 MSTORE PUSH1 0x24 PUSH1 0x0 REVERT JUMPDEST PUSH1 0x0 PUSH2 0x1D4 DUP3 PUSH2 0x9C JUMP JUMPDEST SWAP2 POP PUSH2 0x1DF DUP4 PUSH2 0x9C JUMP JUMPDEST SWAP3 POP DUP3 PUSH2 0x1EF JUMPI PUSH2 0x1EE PUSH2 0x19A JUMP JUMPDEST JUMPDEST DUP3 DUP3 DIV SWAP1 POP SWAP3 SWAP2 POP POP JUMP INVALID LOG2 PUSH5 0x6970667358 0x22 SLT KECCAK256 SWAP10 NOT CHAINID NOT SWAP5 0xEA 0x4E DUP14 0x5E CALL 0xE9 PUSH25 0x763DA9823635928818F5073C563B3144BD19CF6D64736F6C63 NUMBER STOP ADDMOD SLT STOP CALLER "
				},
				"gasEstimates": {
					"creation": {
						"codeDepositCost": "112000",
						"executionCost": "159",
						"totalCost": "112159"
					},
					"external": {
						"calculateArea(uint256)": "infinite"
					}
				},
				"methodIdentifiers": {
					"calculateArea(uint256)": "46348e0b"
				}
			},
			"storageLayout": {
				"storage": [],
				"types": null
			},
			"userdoc": {
				"kind": "user",
				"methods": {},
				"version": 1
			}
		}
	}
}