{
	"Labs (August)/VisibilityxInhertance/Marketplace_18.sol": {
		"PremiumSeller": {
			"abi": [
				{
					"inputs": [
						{
							"internalType": "uint256",
							"name": "_fee",
							"type": "uint256"
						}
					],
					"stateMutability": "nonpayable",
					"type": "constructor"
				},
				{
					"anonymous": false,
					"inputs": [
						{
							"indexed": false,
							"internalType": "address",
							"name": "buyer",
							"type": "address"
						},
						{
							"indexed": false,
							"internalType": "address",
							"name": "sender",
							"type": "address"
						},
						{
							"indexed": false,
							"internalType": "uint256",
							"name": "value",
							"type": "uint256"
						}
					],
					"name": "purchase",
					"type": "event"
				},
				{
					"inputs": [
						{
							"internalType": "address",
							"name": "",
							"type": "address"
						}
					],
					"name": "balance",
					"outputs": [
						{
							"internalType": "uint256",
							"name": "",
							"type": "uint256"
						}
					],
					"stateMutability": "view",
					"type": "function"
				},
				{
					"inputs": [
						{
							"internalType": "address",
							"name": "_buyer",
							"type": "address"
						},
						{
							"internalType": "address",
							"name": "_sender",
							"type": "address"
						},
						{
							"internalType": "uint256",
							"name": "cash",
							"type": "uint256"
						}
					],
					"name": "buy",
					"outputs": [],
					"stateMutability": "nonpayable",
					"type": "function"
				},
				{
					"inputs": [],
					"name": "fee",
					"outputs": [
						{
							"internalType": "uint256",
							"name": "",
							"type": "uint256"
						}
					],
					"stateMutability": "view",
					"type": "function"
				},
				{
					"inputs": [
						{
							"internalType": "string",
							"name": "",
							"type": "string"
						}
					],
					"name": "item",
					"outputs": [
						{
							"internalType": "uint256",
							"name": "",
							"type": "uint256"
						}
					],
					"stateMutability": "view",
					"type": "function"
				},
				{
					"inputs": [
						{
							"internalType": "address",
							"name": "_addr",
							"type": "address"
						},
						{
							"internalType": "uint256",
							"name": "amount",
							"type": "uint256"
						}
					],
					"name": "register",
					"outputs": [],
					"stateMutability": "nonpayable",
					"type": "function"
				},
				{
					"inputs": [
						{
							"internalType": "address",
							"name": "_seller",
							"type": "address"
						},
						{
							"internalType": "address",
							"name": "_buyer",
							"type": "address"
						},
						{
							"internalType": "uint256",
							"name": "_price",
							"type": "uint256"
						}
					],
					"name": "sell",
					"outputs": [
						{
							"internalType": "string",
							"name": "",
							"type": "string"
						}
					],
					"stateMutability": "nonpayable",
					"type": "function"
				},
				{
					"inputs": [
						{
							"internalType": "string",
							"name": "_item",
							"type": "string"
						},
						{
							"internalType": "uint256",
							"name": "price",
							"type": "uint256"
						}
					],
					"name": "setItem",
					"outputs": [],
					"stateMutability": "nonpayable",
					"type": "function"
				}
			],
			"devdoc": {
				"kind": "dev",
				"methods": {},
				"version": 1
			},
			"evm": {
				"assembly": "    /* \"Labs (August)/VisibilityxInhertance/Marketplace_18.sol\":1376:1757  contract PremiumSeller is marketPlace{... */\n  mstore(0x40, 0x80)\n    /* \"Labs (August)/VisibilityxInhertance/Marketplace_18.sol\":1442:1493  constructor(uint _fee){... */\n  callvalue\n  dup1\n  iszero\n  tag_1\n  jumpi\n  0x00\n  dup1\n  revert\ntag_1:\n  pop\n  mload(0x40)\n  sub(codesize, bytecodeSize)\n  dup1\n  bytecodeSize\n  dup4\n  codecopy\n  dup2\n  dup2\n  add\n  0x40\n  mstore\n  dup2\n  add\n  swap1\n  tag_2\n  swap2\n  swap1\n  tag_3\n  jump\t// in\ntag_2:\n    /* \"Labs (August)/VisibilityxInhertance/Marketplace_18.sol\":1481:1485  _fee */\n  dup1\n    /* \"Labs (August)/VisibilityxInhertance/Marketplace_18.sol\":1475:1478  fee */\n  0x02\n    /* \"Labs (August)/VisibilityxInhertance/Marketplace_18.sol\":1475:1485  fee=  _fee */\n  dup2\n  swap1\n  sstore\n  pop\n    /* \"Labs (August)/VisibilityxInhertance/Marketplace_18.sol\":1442:1493  constructor(uint _fee){... */\n  pop\n    /* \"Labs (August)/VisibilityxInhertance/Marketplace_18.sol\":1376:1757  contract PremiumSeller is marketPlace{... */\n  jump(tag_6)\n    /* \"#utility.yul\":88:205   */\ntag_8:\n    /* \"#utility.yul\":197:198   */\n  0x00\n    /* \"#utility.yul\":194:195   */\n  dup1\n    /* \"#utility.yul\":187:199   */\n  revert\n    /* \"#utility.yul\":334:411   */\ntag_10:\n    /* \"#utility.yul\":371:378   */\n  0x00\n    /* \"#utility.yul\":400:405   */\n  dup2\n    /* \"#utility.yul\":389:405   */\n  swap1\n  pop\n    /* \"#utility.yul\":334:411   */\n  swap2\n  swap1\n  pop\n  jump\t// out\n    /* \"#utility.yul\":417:539   */\ntag_11:\n    /* \"#utility.yul\":490:514   */\n  tag_19\n    /* \"#utility.yul\":508:513   */\n  dup2\n    /* \"#utility.yul\":490:514   */\n  tag_10\n  jump\t// in\ntag_19:\n    /* \"#utility.yul\":483:488   */\n  dup2\n    /* \"#utility.yul\":480:515   */\n  eq\n    /* \"#utility.yul\":470:533   */\n  tag_20\n  jumpi\n    /* \"#utility.yul\":529:530   */\n  0x00\n    /* \"#utility.yul\":526:527   */\n  dup1\n    /* \"#utility.yul\":519:531   */\n  revert\n    /* \"#utility.yul\":470:533   */\ntag_20:\n    /* \"#utility.yul\":417:539   */\n  pop\n  jump\t// out\n    /* \"#utility.yul\":545:688   */\ntag_12:\n    /* \"#utility.yul\":602:607   */\n  0x00\n    /* \"#utility.yul\":633:639   */\n  dup2\n    /* \"#utility.yul\":627:640   */\n  mload\n    /* \"#utility.yul\":618:640   */\n  swap1\n  pop\n    /* \"#utility.yul\":649:682   */\n  tag_22\n    /* \"#utility.yul\":676:681   */\n  dup2\n    /* \"#utility.yul\":649:682   */\n  tag_11\n  jump\t// in\ntag_22:\n    /* \"#utility.yul\":545:688   */\n  swap3\n  swap2\n  pop\n  pop\n  jump\t// out\n    /* \"#utility.yul\":694:1045   */\ntag_3:\n    /* \"#utility.yul\":764:770   */\n  0x00\n    /* \"#utility.yul\":813:815   */\n  0x20\n    /* \"#utility.yul\":801:810   */\n  dup3\n    /* \"#utility.yul\":792:799   */\n  dup5\n    /* \"#utility.yul\":788:811   */\n  sub\n    /* \"#utility.yul\":784:816   */\n  slt\n    /* \"#utility.yul\":781:900   */\n  iszero\n  tag_24\n  jumpi\n    /* \"#utility.yul\":819:898   */\n  tag_25\n  tag_8\n  jump\t// in\ntag_25:\n    /* \"#utility.yul\":781:900   */\ntag_24:\n    /* \"#utility.yul\":939:940   */\n  0x00\n    /* \"#utility.yul\":964:1028   */\n  tag_26\n    /* \"#utility.yul\":1020:1027   */\n  dup5\n    /* \"#utility.yul\":1011:1017   */\n  dup3\n    /* \"#utility.yul\":1000:1009   */\n  dup6\n    /* \"#utility.yul\":996:1018   */\n  add\n    /* \"#utility.yul\":964:1028   */\n  tag_12\n  jump\t// in\ntag_26:\n    /* \"#utility.yul\":954:1028   */\n  swap2\n  pop\n    /* \"#utility.yul\":910:1038   */\n  pop\n    /* \"#utility.yul\":694:1045   */\n  swap3\n  swap2\n  pop\n  pop\n  jump\t// out\n    /* \"Labs (August)/VisibilityxInhertance/Marketplace_18.sol\":1376:1757  contract PremiumSeller is marketPlace{... */\ntag_6:\n  dataSize(sub_0)\n  dup1\n  dataOffset(sub_0)\n  0x00\n  codecopy\n  0x00\n  return\nstop\n\nsub_0: assembly {\n        /* \"Labs (August)/VisibilityxInhertance/Marketplace_18.sol\":1376:1757  contract PremiumSeller is marketPlace{... */\n      mstore(0x40, 0x80)\n      callvalue\n      dup1\n      iszero\n      tag_1\n      jumpi\n      0x00\n      dup1\n      revert\n    tag_1:\n      pop\n      jumpi(tag_2, lt(calldatasize, 0x04))\n      shr(0xe0, calldataload(0x00))\n      dup1\n      0x6d705ebb\n      gt\n      tag_10\n      jumpi\n      dup1\n      0x6d705ebb\n      eq\n      tag_6\n      jumpi\n      dup1\n      0xcae270b6\n      eq\n      tag_7\n      jumpi\n      dup1\n      0xddca3f43\n      eq\n      tag_8\n      jumpi\n      dup1\n      0xe3d670d7\n      eq\n      tag_9\n      jumpi\n      jump(tag_2)\n    tag_10:\n      dup1\n      0x153e66e6\n      eq\n      tag_3\n      jumpi\n      dup1\n      0x389dc09b\n      eq\n      tag_4\n      jumpi\n      dup1\n      0x3c247c72\n      eq\n      tag_5\n      jumpi\n    tag_2:\n      0x00\n      dup1\n      revert\n        /* \"Labs (August)/VisibilityxInhertance/Marketplace_18.sol\":380:742  function buy(address _buyer, address _sender, uint cash)public virtual {... */\n    tag_3:\n      tag_11\n      0x04\n      dup1\n      calldatasize\n      sub\n      dup2\n      add\n      swap1\n      tag_12\n      swap2\n      swap1\n      tag_13\n      jump\t// in\n    tag_12:\n      tag_14\n      jump\t// in\n    tag_11:\n      stop\n        /* \"Labs (August)/VisibilityxInhertance/Marketplace_18.sol\":821:914  function setItem(string memory _item, uint price)public {... */\n    tag_4:\n      tag_15\n      0x04\n      dup1\n      calldatasize\n      sub\n      dup2\n      add\n      swap1\n      tag_16\n      swap2\n      swap1\n      tag_17\n      jump\t// in\n    tag_16:\n      tag_18\n      jump\t// in\n    tag_15:\n      stop\n        /* \"Labs (August)/VisibilityxInhertance/Marketplace_18.sol\":777:812  mapping (string =>uint) public item */\n    tag_5:\n      tag_19\n      0x04\n      dup1\n      calldatasize\n      sub\n      dup2\n      add\n      swap1\n      tag_20\n      swap2\n      swap1\n      tag_21\n      jump\t// in\n    tag_20:\n      tag_22\n      jump\t// in\n    tag_19:\n      mload(0x40)\n      tag_23\n      swap2\n      swap1\n      tag_24\n      jump\t// in\n    tag_23:\n      mload(0x40)\n      dup1\n      swap2\n      sub\n      swap1\n      return\n        /* \"Labs (August)/VisibilityxInhertance/Marketplace_18.sol\":210:372  function register(address _addr, uint amount) public {... */\n    tag_6:\n      tag_25\n      0x04\n      dup1\n      calldatasize\n      sub\n      dup2\n      add\n      swap1\n      tag_26\n      swap2\n      swap1\n      tag_27\n      jump\t// in\n    tag_26:\n      tag_28\n      jump\t// in\n    tag_25:\n      stop\n        /* \"Labs (August)/VisibilityxInhertance/Marketplace_18.sol\":1501:1750  function sell(address _seller, address _buyer, uint _price)public virtual override  returns (string memory){... */\n    tag_7:\n      tag_29\n      0x04\n      dup1\n      calldatasize\n      sub\n      dup2\n      add\n      swap1\n      tag_30\n      swap2\n      swap1\n      tag_13\n      jump\t// in\n    tag_30:\n      tag_31\n      jump\t// in\n    tag_29:\n      mload(0x40)\n      tag_32\n      swap2\n      swap1\n      tag_33\n      jump\t// in\n    tag_32:\n      mload(0x40)\n      dup1\n      swap2\n      sub\n      swap1\n      return\n        /* \"Labs (August)/VisibilityxInhertance/Marketplace_18.sol\":1420:1435  uint public fee */\n    tag_8:\n      tag_34\n      tag_35\n      jump\t// in\n    tag_34:\n      mload(0x40)\n      tag_36\n      swap2\n      swap1\n      tag_24\n      jump\t// in\n    tag_36:\n      mload(0x40)\n      dup1\n      swap2\n      sub\n      swap1\n      return\n        /* \"Labs (August)/VisibilityxInhertance/Marketplace_18.sol\":94:134  mapping (address => uint) public balance */\n    tag_9:\n      tag_37\n      0x04\n      dup1\n      calldatasize\n      sub\n      dup2\n      add\n      swap1\n      tag_38\n      swap2\n      swap1\n      tag_39\n      jump\t// in\n    tag_38:\n      tag_40\n      jump\t// in\n    tag_37:\n      mload(0x40)\n      tag_41\n      swap2\n      swap1\n      tag_24\n      jump\t// in\n    tag_41:\n      mload(0x40)\n      dup1\n      swap2\n      sub\n      swap1\n      return\n        /* \"Labs (August)/VisibilityxInhertance/Marketplace_18.sol\":380:742  function buy(address _buyer, address _sender, uint cash)public virtual {... */\n    tag_14:\n        /* \"Labs (August)/VisibilityxInhertance/Marketplace_18.sol\":486:487  0 */\n      0x00\n        /* \"Labs (August)/VisibilityxInhertance/Marketplace_18.sol\":470:477  balance */\n      dup1\n        /* \"Labs (August)/VisibilityxInhertance/Marketplace_18.sol\":470:485  balance[_buyer] */\n      0x00\n        /* \"Labs (August)/VisibilityxInhertance/Marketplace_18.sol\":478:484  _buyer */\n      dup6\n        /* \"Labs (August)/VisibilityxInhertance/Marketplace_18.sol\":470:485  balance[_buyer] */\n      0xffffffffffffffffffffffffffffffffffffffff\n      and\n      0xffffffffffffffffffffffffffffffffffffffff\n      and\n      dup2\n      mstore\n      0x20\n      add\n      swap1\n      dup2\n      mstore\n      0x20\n      add\n      0x00\n      keccak256\n      sload\n        /* \"Labs (August)/VisibilityxInhertance/Marketplace_18.sol\":470:487  balance[_buyer]>0 */\n      gt\n        /* \"Labs (August)/VisibilityxInhertance/Marketplace_18.sol\":462:513  require(balance[_buyer]>0,'account not registered') */\n      tag_43\n      jumpi\n      mload(0x40)\n      0x08c379a000000000000000000000000000000000000000000000000000000000\n      dup2\n      mstore\n      0x04\n      add\n      tag_44\n      swap1\n      tag_45\n      jump\t// in\n    tag_44:\n      mload(0x40)\n      dup1\n      swap2\n      sub\n      swap1\n      revert\n    tag_43:\n        /* \"Labs (August)/VisibilityxInhertance/Marketplace_18.sol\":583:584  0 */\n      0x00\n        /* \"Labs (August)/VisibilityxInhertance/Marketplace_18.sol\":575:579  cash */\n      dup2\n        /* \"Labs (August)/VisibilityxInhertance/Marketplace_18.sol\":575:584  cash != 0 */\n      sub\n        /* \"Labs (August)/VisibilityxInhertance/Marketplace_18.sol\":567:620  require(cash != 0, 'inserted amount should be valid') */\n      tag_46\n      jumpi\n      mload(0x40)\n      0x08c379a000000000000000000000000000000000000000000000000000000000\n      dup2\n      mstore\n      0x04\n      add\n      tag_47\n      swap1\n      tag_48\n      jump\t// in\n    tag_47:\n      mload(0x40)\n      dup1\n      swap2\n      sub\n      swap1\n      revert\n    tag_46:\n        /* \"Labs (August)/VisibilityxInhertance/Marketplace_18.sol\":649:653  cash */\n      dup1\n        /* \"Labs (August)/VisibilityxInhertance/Marketplace_18.sol\":631:638  balance */\n      0x00\n        /* \"Labs (August)/VisibilityxInhertance/Marketplace_18.sol\":631:646  balance[_buyer] */\n      dup1\n        /* \"Labs (August)/VisibilityxInhertance/Marketplace_18.sol\":639:645  _buyer */\n      dup6\n        /* \"Labs (August)/VisibilityxInhertance/Marketplace_18.sol\":631:646  balance[_buyer] */\n      0xffffffffffffffffffffffffffffffffffffffff\n      and\n      0xffffffffffffffffffffffffffffffffffffffff\n      and\n      dup2\n      mstore\n      0x20\n      add\n      swap1\n      dup2\n      mstore\n      0x20\n      add\n      0x00\n      keccak256\n      0x00\n        /* \"Labs (August)/VisibilityxInhertance/Marketplace_18.sol\":631:653  balance[_buyer] -=cash */\n      dup3\n      dup3\n      sload\n      tag_49\n      swap2\n      swap1\n      tag_50\n      jump\t// in\n    tag_49:\n      swap3\n      pop\n      pop\n      dup2\n      swap1\n      sstore\n      pop\n        /* \"Labs (August)/VisibilityxInhertance/Marketplace_18.sol\":683:687  cash */\n      dup1\n        /* \"Labs (August)/VisibilityxInhertance/Marketplace_18.sol\":664:671  balance */\n      0x00\n        /* \"Labs (August)/VisibilityxInhertance/Marketplace_18.sol\":664:680  balance[_sender] */\n      dup1\n        /* \"Labs (August)/VisibilityxInhertance/Marketplace_18.sol\":672:679  _sender */\n      dup5\n        /* \"Labs (August)/VisibilityxInhertance/Marketplace_18.sol\":664:680  balance[_sender] */\n      0xffffffffffffffffffffffffffffffffffffffff\n      and\n      0xffffffffffffffffffffffffffffffffffffffff\n      and\n      dup2\n      mstore\n      0x20\n      add\n      swap1\n      dup2\n      mstore\n      0x20\n      add\n      0x00\n      keccak256\n      0x00\n        /* \"Labs (August)/VisibilityxInhertance/Marketplace_18.sol\":664:687  balance[_sender] +=cash */\n      dup3\n      dup3\n      sload\n      tag_51\n      swap2\n      swap1\n      tag_52\n      jump\t// in\n    tag_51:\n      swap3\n      pop\n      pop\n      dup2\n      swap1\n      sstore\n      pop\n        /* \"Labs (August)/VisibilityxInhertance/Marketplace_18.sol\":703:734  purchase(_buyer, _sender, cash) */\n      0x640441567a63f93bb708d33df4fb558ccf2ec59f306cc74b9bed436c9354d203\n        /* \"Labs (August)/VisibilityxInhertance/Marketplace_18.sol\":712:718  _buyer */\n      dup4\n        /* \"Labs (August)/VisibilityxInhertance/Marketplace_18.sol\":720:727  _sender */\n      dup4\n        /* \"Labs (August)/VisibilityxInhertance/Marketplace_18.sol\":729:733  cash */\n      dup4\n        /* \"Labs (August)/VisibilityxInhertance/Marketplace_18.sol\":703:734  purchase(_buyer, _sender, cash) */\n      mload(0x40)\n      tag_53\n      swap4\n      swap3\n      swap2\n      swap1\n      tag_54\n      jump\t// in\n    tag_53:\n      mload(0x40)\n      dup1\n      swap2\n      sub\n      swap1\n      log1\n        /* \"Labs (August)/VisibilityxInhertance/Marketplace_18.sol\":380:742  function buy(address _buyer, address _sender, uint cash)public virtual {... */\n      pop\n      pop\n      pop\n      jump\t// out\n        /* \"Labs (August)/VisibilityxInhertance/Marketplace_18.sol\":821:914  function setItem(string memory _item, uint price)public {... */\n    tag_18:\n        /* \"Labs (August)/VisibilityxInhertance/Marketplace_18.sol\":901:906  price */\n      dup1\n        /* \"Labs (August)/VisibilityxInhertance/Marketplace_18.sol\":888:892  item */\n      0x01\n        /* \"Labs (August)/VisibilityxInhertance/Marketplace_18.sol\":893:898  _item */\n      dup4\n        /* \"Labs (August)/VisibilityxInhertance/Marketplace_18.sol\":888:899  item[_item] */\n      mload(0x40)\n      tag_56\n      swap2\n      swap1\n      tag_57\n      jump\t// in\n    tag_56:\n      swap1\n      dup2\n      mstore\n      0x20\n      add\n      mload(0x40)\n      dup1\n      swap2\n      sub\n      swap1\n      keccak256\n        /* \"Labs (August)/VisibilityxInhertance/Marketplace_18.sol\":888:906  item[_item]= price */\n      dup2\n      swap1\n      sstore\n      pop\n        /* \"Labs (August)/VisibilityxInhertance/Marketplace_18.sol\":821:914  function setItem(string memory _item, uint price)public {... */\n      pop\n      pop\n      jump\t// out\n        /* \"Labs (August)/VisibilityxInhertance/Marketplace_18.sol\":777:812  mapping (string =>uint) public item */\n    tag_22:\n      0x01\n      dup2\n      dup1\n      mload\n      0x20\n      dup2\n      add\n      dup3\n      add\n      dup1\n      mload\n      dup5\n      dup3\n      mstore\n      0x20\n      dup4\n      add\n      0x20\n      dup6\n      add\n      keccak256\n      dup2\n      dup4\n      mstore\n      dup1\n      swap6\n      pop\n      pop\n      pop\n      pop\n      pop\n      pop\n      0x00\n      swap2\n      pop\n      swap1\n      pop\n      sload\n      dup2\n      jump\t// out\n        /* \"Labs (August)/VisibilityxInhertance/Marketplace_18.sol\":210:372  function register(address _addr, uint amount) public {... */\n    tag_28:\n        /* \"Labs (August)/VisibilityxInhertance/Marketplace_18.sol\":292:293  0 */\n      0x00\n        /* \"Labs (August)/VisibilityxInhertance/Marketplace_18.sol\":282:288  amount */\n      dup2\n        /* \"Labs (August)/VisibilityxInhertance/Marketplace_18.sol\":282:293  amount != 0 */\n      sub\n        /* \"Labs (August)/VisibilityxInhertance/Marketplace_18.sol\":274:321  require(amount != 0, 'Balance should be valid') */\n      tag_59\n      jumpi\n      mload(0x40)\n      0x08c379a000000000000000000000000000000000000000000000000000000000\n      dup2\n      mstore\n      0x04\n      add\n      tag_60\n      swap1\n      tag_61\n      jump\t// in\n    tag_60:\n      mload(0x40)\n      dup1\n      swap2\n      sub\n      swap1\n      revert\n    tag_59:\n        /* \"Labs (August)/VisibilityxInhertance/Marketplace_18.sol\":348:354  amount */\n      dup1\n        /* \"Labs (August)/VisibilityxInhertance/Marketplace_18.sol\":332:339  balance */\n      0x00\n        /* \"Labs (August)/VisibilityxInhertance/Marketplace_18.sol\":332:346  balance[_addr] */\n      dup1\n        /* \"Labs (August)/VisibilityxInhertance/Marketplace_18.sol\":340:345  _addr */\n      dup5\n        /* \"Labs (August)/VisibilityxInhertance/Marketplace_18.sol\":332:346  balance[_addr] */\n      0xffffffffffffffffffffffffffffffffffffffff\n      and\n      0xffffffffffffffffffffffffffffffffffffffff\n      and\n      dup2\n      mstore\n      0x20\n      add\n      swap1\n      dup2\n      mstore\n      0x20\n      add\n      0x00\n      keccak256\n        /* \"Labs (August)/VisibilityxInhertance/Marketplace_18.sol\":332:354  balance[_addr]= amount */\n      dup2\n      swap1\n      sstore\n      pop\n        /* \"Labs (August)/VisibilityxInhertance/Marketplace_18.sol\":210:372  function register(address _addr, uint amount) public {... */\n      pop\n      pop\n      jump\t// out\n        /* \"Labs (August)/VisibilityxInhertance/Marketplace_18.sol\":1501:1750  function sell(address _seller, address _buyer, uint _price)public virtual override  returns (string memory){... */\n    tag_31:\n        /* \"Labs (August)/VisibilityxInhertance/Marketplace_18.sol\":1594:1607  string memory */\n      0x60\n        /* \"Labs (August)/VisibilityxInhertance/Marketplace_18.sol\":1619:1652  super.sell(_seller,_buyer,_price) */\n      tag_63\n        /* \"Labs (August)/VisibilityxInhertance/Marketplace_18.sol\":1630:1637  _seller */\n      dup5\n        /* \"Labs (August)/VisibilityxInhertance/Marketplace_18.sol\":1638:1644  _buyer */\n      dup5\n        /* \"Labs (August)/VisibilityxInhertance/Marketplace_18.sol\":1645:1651  _price */\n      dup5\n        /* \"Labs (August)/VisibilityxInhertance/Marketplace_18.sol\":1619:1629  super.sell */\n      tag_64\n        /* \"Labs (August)/VisibilityxInhertance/Marketplace_18.sol\":1619:1652  super.sell(_seller,_buyer,_price) */\n      jump\t// in\n    tag_63:\n      pop\n        /* \"Labs (August)/VisibilityxInhertance/Marketplace_18.sol\":1683:1689  _price */\n      dup2\n        /* \"Labs (August)/VisibilityxInhertance/Marketplace_18.sol\":1663:1670  balance */\n      0x00\n        /* \"Labs (August)/VisibilityxInhertance/Marketplace_18.sol\":1663:1679  balance[_seller] */\n      dup1\n        /* \"Labs (August)/VisibilityxInhertance/Marketplace_18.sol\":1671:1678  _seller */\n      dup7\n        /* \"Labs (August)/VisibilityxInhertance/Marketplace_18.sol\":1663:1679  balance[_seller] */\n      0xffffffffffffffffffffffffffffffffffffffff\n      and\n      0xffffffffffffffffffffffffffffffffffffffff\n      and\n      dup2\n      mstore\n      0x20\n      add\n      swap1\n      dup2\n      mstore\n      0x20\n      add\n      0x00\n      keccak256\n      0x00\n        /* \"Labs (August)/VisibilityxInhertance/Marketplace_18.sol\":1663:1689  balance[_seller] -= _price */\n      dup3\n      dup3\n      sload\n      tag_65\n      swap2\n      swap1\n      tag_50\n      jump\t// in\n    tag_65:\n      swap3\n      pop\n      pop\n      dup2\n      swap1\n      sstore\n      pop\n        /* \"Labs (August)/VisibilityxInhertance/Marketplace_18.sol\":1736:1739  100 */\n      0x64\n        /* \"Labs (August)/VisibilityxInhertance/Marketplace_18.sol\":1732:1735  fee */\n      sload(0x02)\n        /* \"Labs (August)/VisibilityxInhertance/Marketplace_18.sol\":1725:1731  _price */\n      dup4\n        /* \"Labs (August)/VisibilityxInhertance/Marketplace_18.sol\":1725:1735  _price*fee */\n      tag_66\n      swap2\n      swap1\n      tag_67\n      jump\t// in\n    tag_66:\n        /* \"Labs (August)/VisibilityxInhertance/Marketplace_18.sol\":1725:1739  _price*fee/100 */\n      tag_68\n      swap2\n      swap1\n      tag_69\n      jump\t// in\n    tag_68:\n        /* \"Labs (August)/VisibilityxInhertance/Marketplace_18.sol\":1700:1707  balance */\n      0x00\n        /* \"Labs (August)/VisibilityxInhertance/Marketplace_18.sol\":1700:1722  balance[address(this)] */\n      dup1\n        /* \"Labs (August)/VisibilityxInhertance/Marketplace_18.sol\":1716:1720  this */\n      address\n        /* \"Labs (August)/VisibilityxInhertance/Marketplace_18.sol\":1700:1722  balance[address(this)] */\n      0xffffffffffffffffffffffffffffffffffffffff\n      and\n      0xffffffffffffffffffffffffffffffffffffffff\n      and\n      dup2\n      mstore\n      0x20\n      add\n      swap1\n      dup2\n      mstore\n      0x20\n      add\n      0x00\n      keccak256\n      0x00\n        /* \"Labs (August)/VisibilityxInhertance/Marketplace_18.sol\":1700:1739  balance[address(this)] +=_price*fee/100 */\n      dup3\n      dup3\n      sload\n      tag_70\n      swap2\n      swap1\n      tag_52\n      jump\t// in\n    tag_70:\n      swap3\n      pop\n      pop\n      dup2\n      swap1\n      sstore\n      pop\n        /* \"Labs (August)/VisibilityxInhertance/Marketplace_18.sol\":1501:1750  function sell(address _seller, address _buyer, uint _price)public virtual override  returns (string memory){... */\n      swap4\n      swap3\n      pop\n      pop\n      pop\n      jump\t// out\n        /* \"Labs (August)/VisibilityxInhertance/Marketplace_18.sol\":1420:1435  uint public fee */\n    tag_35:\n      sload(0x02)\n      dup2\n      jump\t// out\n        /* \"Labs (August)/VisibilityxInhertance/Marketplace_18.sol\":94:134  mapping (address => uint) public balance */\n    tag_40:\n      mstore(0x20, 0x00)\n      dup1\n      0x00\n      mstore\n      keccak256(0x00, 0x40)\n      0x00\n      swap2\n      pop\n      swap1\n      pop\n      sload\n      dup2\n      jump\t// out\n        /* \"Labs (August)/VisibilityxInhertance/Marketplace_18.sol\":922:1314  function sell(address _seller, address _buyer, uint _price)public virtual  returns (string memory){... */\n    tag_64:\n        /* \"Labs (August)/VisibilityxInhertance/Marketplace_18.sol\":1006:1019  string memory */\n      0x60\n        /* \"Labs (August)/VisibilityxInhertance/Marketplace_18.sol\":1056:1057  0 */\n      0x00\n        /* \"Labs (August)/VisibilityxInhertance/Marketplace_18.sol\":1039:1046  balance */\n      dup1\n        /* \"Labs (August)/VisibilityxInhertance/Marketplace_18.sol\":1039:1055  balance[_seller] */\n      0x00\n        /* \"Labs (August)/VisibilityxInhertance/Marketplace_18.sol\":1047:1054  _seller */\n      dup7\n        /* \"Labs (August)/VisibilityxInhertance/Marketplace_18.sol\":1039:1055  balance[_seller] */\n      0xffffffffffffffffffffffffffffffffffffffff\n      and\n      0xffffffffffffffffffffffffffffffffffffffff\n      and\n      dup2\n      mstore\n      0x20\n      add\n      swap1\n      dup2\n      mstore\n      0x20\n      add\n      0x00\n      keccak256\n      sload\n        /* \"Labs (August)/VisibilityxInhertance/Marketplace_18.sol\":1039:1057  balance[_seller]>0 */\n      gt\n        /* \"Labs (August)/VisibilityxInhertance/Marketplace_18.sol\":1039:1076  balance[_seller]>0||balance[_buyer]>0 */\n      dup1\n      tag_72\n      jumpi\n      pop\n        /* \"Labs (August)/VisibilityxInhertance/Marketplace_18.sol\":1075:1076  0 */\n      0x00\n        /* \"Labs (August)/VisibilityxInhertance/Marketplace_18.sol\":1059:1066  balance */\n      dup1\n        /* \"Labs (August)/VisibilityxInhertance/Marketplace_18.sol\":1059:1074  balance[_buyer] */\n      0x00\n        /* \"Labs (August)/VisibilityxInhertance/Marketplace_18.sol\":1067:1073  _buyer */\n      dup6\n        /* \"Labs (August)/VisibilityxInhertance/Marketplace_18.sol\":1059:1074  balance[_buyer] */\n      0xffffffffffffffffffffffffffffffffffffffff\n      and\n      0xffffffffffffffffffffffffffffffffffffffff\n      and\n      dup2\n      mstore\n      0x20\n      add\n      swap1\n      dup2\n      mstore\n      0x20\n      add\n      0x00\n      keccak256\n      sload\n        /* \"Labs (August)/VisibilityxInhertance/Marketplace_18.sol\":1059:1076  balance[_buyer]>0 */\n      gt\n        /* \"Labs (August)/VisibilityxInhertance/Marketplace_18.sol\":1039:1076  balance[_seller]>0||balance[_buyer]>0 */\n    tag_72:\n        /* \"Labs (August)/VisibilityxInhertance/Marketplace_18.sol\":1031:1114  require(balance[_seller]>0||balance[_buyer]>0,\"one of the users is not registered\") */\n      tag_73\n      jumpi\n      mload(0x40)\n      0x08c379a000000000000000000000000000000000000000000000000000000000\n      dup2\n      mstore\n      0x04\n      add\n      tag_74\n      swap1\n      tag_75\n      jump\t// in\n    tag_74:\n      mload(0x40)\n      dup1\n      swap2\n      sub\n      swap1\n      revert\n    tag_73:\n        /* \"Labs (August)/VisibilityxInhertance/Marketplace_18.sol\":1140:1141  0 */\n      0x00\n        /* \"Labs (August)/VisibilityxInhertance/Marketplace_18.sol\":1133:1139  _price */\n      dup3\n        /* \"Labs (August)/VisibilityxInhertance/Marketplace_18.sol\":1133:1141  _price>0 */\n      gt\n        /* \"Labs (August)/VisibilityxInhertance/Marketplace_18.sol\":1125:1170  require(_price>0,\"the price should be valid\") */\n      tag_76\n      jumpi\n      mload(0x40)\n      0x08c379a000000000000000000000000000000000000000000000000000000000\n      dup2\n      mstore\n      0x04\n      add\n      tag_77\n      swap1\n      tag_78\n      jump\t// in\n    tag_77:\n      mload(0x40)\n      dup1\n      swap2\n      sub\n      swap1\n      revert\n    tag_76:\n        /* \"Labs (August)/VisibilityxInhertance/Marketplace_18.sol\":1207:1214  balance */\n      0x00\n        /* \"Labs (August)/VisibilityxInhertance/Marketplace_18.sol\":1207:1222  balance[_buyer] */\n      dup1\n        /* \"Labs (August)/VisibilityxInhertance/Marketplace_18.sol\":1215:1221  _buyer */\n      dup5\n        /* \"Labs (August)/VisibilityxInhertance/Marketplace_18.sol\":1207:1222  balance[_buyer] */\n      0xffffffffffffffffffffffffffffffffffffffff\n      and\n      0xffffffffffffffffffffffffffffffffffffffff\n      and\n      dup2\n      mstore\n      0x20\n      add\n      swap1\n      dup2\n      mstore\n      0x20\n      add\n      0x00\n      keccak256\n      sload\n        /* \"Labs (August)/VisibilityxInhertance/Marketplace_18.sol\":1189:1196  balance */\n      0x00\n        /* \"Labs (August)/VisibilityxInhertance/Marketplace_18.sol\":1189:1205  balance[_seller] */\n      dup1\n        /* \"Labs (August)/VisibilityxInhertance/Marketplace_18.sol\":1197:1204  _seller */\n      dup7\n        /* \"Labs (August)/VisibilityxInhertance/Marketplace_18.sol\":1189:1205  balance[_seller] */\n      0xffffffffffffffffffffffffffffffffffffffff\n      and\n      0xffffffffffffffffffffffffffffffffffffffff\n      and\n      dup2\n      mstore\n      0x20\n      add\n      swap1\n      dup2\n      mstore\n      0x20\n      add\n      0x00\n      keccak256\n      sload\n        /* \"Labs (August)/VisibilityxInhertance/Marketplace_18.sol\":1189:1222  balance[_seller]==balance[_buyer] */\n      eq\n        /* \"Labs (August)/VisibilityxInhertance/Marketplace_18.sol\":1181:1240  require(balance[_seller]==balance[_buyer],'users are same') */\n      tag_79\n      jumpi\n      mload(0x40)\n      0x08c379a000000000000000000000000000000000000000000000000000000000\n      dup2\n      mstore\n      0x04\n      add\n      tag_80\n      swap1\n      tag_81\n      jump\t// in\n    tag_80:\n      mload(0x40)\n      dup1\n      swap2\n      sub\n      swap1\n      revert\n    tag_79:\n        /* \"Labs (August)/VisibilityxInhertance/Marketplace_18.sol\":1251:1306  return (\"item will be shipped to the buyer's location\") */\n      mload(0x40)\n      dup1\n      0x60\n      add\n      0x40\n      mstore\n      dup1\n      0x2c\n      dup2\n      mstore\n      0x20\n      add\n      data_409e93cd1ed730715c18cba4caf24960c5904f17fed538fed7b13311d8e987cb\n      0x2c\n      swap2\n      codecopy\n      swap1\n      pop\n        /* \"Labs (August)/VisibilityxInhertance/Marketplace_18.sol\":922:1314  function sell(address _seller, address _buyer, uint _price)public virtual  returns (string memory){... */\n      swap4\n      swap3\n      pop\n      pop\n      pop\n      jump\t// out\n        /* \"#utility.yul\":7:82   */\n    tag_82:\n        /* \"#utility.yul\":40:46   */\n      0x00\n        /* \"#utility.yul\":73:75   */\n      0x40\n        /* \"#utility.yul\":67:76   */\n      mload\n        /* \"#utility.yul\":57:76   */\n      swap1\n      pop\n        /* \"#utility.yul\":7:82   */\n      swap1\n      jump\t// out\n        /* \"#utility.yul\":88:205   */\n    tag_83:\n        /* \"#utility.yul\":197:198   */\n      0x00\n        /* \"#utility.yul\":194:195   */\n      dup1\n        /* \"#utility.yul\":187:199   */\n      revert\n        /* \"#utility.yul\":211:328   */\n    tag_84:\n        /* \"#utility.yul\":320:321   */\n      0x00\n        /* \"#utility.yul\":317:318   */\n      dup1\n        /* \"#utility.yul\":310:322   */\n      revert\n        /* \"#utility.yul\":334:460   */\n    tag_85:\n        /* \"#utility.yul\":371:378   */\n      0x00\n        /* \"#utility.yul\":411:453   */\n      0xffffffffffffffffffffffffffffffffffffffff\n        /* \"#utility.yul\":404:409   */\n      dup3\n        /* \"#utility.yul\":400:454   */\n      and\n        /* \"#utility.yul\":389:454   */\n      swap1\n      pop\n        /* \"#utility.yul\":334:460   */\n      swap2\n      swap1\n      pop\n      jump\t// out\n        /* \"#utility.yul\":466:562   */\n    tag_86:\n        /* \"#utility.yul\":503:510   */\n      0x00\n        /* \"#utility.yul\":532:556   */\n      tag_130\n        /* \"#utility.yul\":550:555   */\n      dup3\n        /* \"#utility.yul\":532:556   */\n      tag_85\n      jump\t// in\n    tag_130:\n        /* \"#utility.yul\":521:556   */\n      swap1\n      pop\n        /* \"#utility.yul\":466:562   */\n      swap2\n      swap1\n      pop\n      jump\t// out\n        /* \"#utility.yul\":568:690   */\n    tag_87:\n        /* \"#utility.yul\":641:665   */\n      tag_132\n        /* \"#utility.yul\":659:664   */\n      dup2\n        /* \"#utility.yul\":641:665   */\n      tag_86\n      jump\t// in\n    tag_132:\n        /* \"#utility.yul\":634:639   */\n      dup2\n        /* \"#utility.yul\":631:666   */\n      eq\n        /* \"#utility.yul\":621:684   */\n      tag_133\n      jumpi\n        /* \"#utility.yul\":680:681   */\n      0x00\n        /* \"#utility.yul\":677:678   */\n      dup1\n        /* \"#utility.yul\":670:682   */\n      revert\n        /* \"#utility.yul\":621:684   */\n    tag_133:\n        /* \"#utility.yul\":568:690   */\n      pop\n      jump\t// out\n        /* \"#utility.yul\":696:835   */\n    tag_88:\n        /* \"#utility.yul\":742:747   */\n      0x00\n        /* \"#utility.yul\":780:786   */\n      dup2\n        /* \"#utility.yul\":767:787   */\n      calldataload\n        /* \"#utility.yul\":758:787   */\n      swap1\n      pop\n        /* \"#utility.yul\":796:829   */\n      tag_135\n        /* \"#utility.yul\":823:828   */\n      dup2\n        /* \"#utility.yul\":796:829   */\n      tag_87\n      jump\t// in\n    tag_135:\n        /* \"#utility.yul\":696:835   */\n      swap3\n      swap2\n      pop\n      pop\n      jump\t// out\n        /* \"#utility.yul\":841:918   */\n    tag_89:\n        /* \"#utility.yul\":878:885   */\n      0x00\n        /* \"#utility.yul\":907:912   */\n      dup2\n        /* \"#utility.yul\":896:912   */\n      swap1\n      pop\n        /* \"#utility.yul\":841:918   */\n      swap2\n      swap1\n      pop\n      jump\t// out\n        /* \"#utility.yul\":924:1046   */\n    tag_90:\n        /* \"#utility.yul\":997:1021   */\n      tag_138\n        /* \"#utility.yul\":1015:1020   */\n      dup2\n        /* \"#utility.yul\":997:1021   */\n      tag_89\n      jump\t// in\n    tag_138:\n        /* \"#utility.yul\":990:995   */\n      dup2\n        /* \"#utility.yul\":987:1022   */\n      eq\n        /* \"#utility.yul\":977:1040   */\n      tag_139\n      jumpi\n        /* \"#utility.yul\":1036:1037   */\n      0x00\n        /* \"#utility.yul\":1033:1034   */\n      dup1\n        /* \"#utility.yul\":1026:1038   */\n      revert\n        /* \"#utility.yul\":977:1040   */\n    tag_139:\n        /* \"#utility.yul\":924:1046   */\n      pop\n      jump\t// out\n        /* \"#utility.yul\":1052:1191   */\n    tag_91:\n        /* \"#utility.yul\":1098:1103   */\n      0x00\n        /* \"#utility.yul\":1136:1142   */\n      dup2\n        /* \"#utility.yul\":1123:1143   */\n      calldataload\n        /* \"#utility.yul\":1114:1143   */\n      swap1\n      pop\n        /* \"#utility.yul\":1152:1185   */\n      tag_141\n        /* \"#utility.yul\":1179:1184   */\n      dup2\n        /* \"#utility.yul\":1152:1185   */\n      tag_90\n      jump\t// in\n    tag_141:\n        /* \"#utility.yul\":1052:1191   */\n      swap3\n      swap2\n      pop\n      pop\n      jump\t// out\n        /* \"#utility.yul\":1197:1816   */\n    tag_13:\n        /* \"#utility.yul\":1274:1280   */\n      0x00\n        /* \"#utility.yul\":1282:1288   */\n      dup1\n        /* \"#utility.yul\":1290:1296   */\n      0x00\n        /* \"#utility.yul\":1339:1341   */\n      0x60\n        /* \"#utility.yul\":1327:1336   */\n      dup5\n        /* \"#utility.yul\":1318:1325   */\n      dup7\n        /* \"#utility.yul\":1314:1337   */\n      sub\n        /* \"#utility.yul\":1310:1342   */\n      slt\n        /* \"#utility.yul\":1307:1426   */\n      iszero\n      tag_143\n      jumpi\n        /* \"#utility.yul\":1345:1424   */\n      tag_144\n      tag_83\n      jump\t// in\n    tag_144:\n        /* \"#utility.yul\":1307:1426   */\n    tag_143:\n        /* \"#utility.yul\":1465:1466   */\n      0x00\n        /* \"#utility.yul\":1490:1543   */\n      tag_145\n        /* \"#utility.yul\":1535:1542   */\n      dup7\n        /* \"#utility.yul\":1526:1532   */\n      dup3\n        /* \"#utility.yul\":1515:1524   */\n      dup8\n        /* \"#utility.yul\":1511:1533   */\n      add\n        /* \"#utility.yul\":1490:1543   */\n      tag_88\n      jump\t// in\n    tag_145:\n        /* \"#utility.yul\":1480:1543   */\n      swap4\n      pop\n        /* \"#utility.yul\":1436:1553   */\n      pop\n        /* \"#utility.yul\":1592:1594   */\n      0x20\n        /* \"#utility.yul\":1618:1671   */\n      tag_146\n        /* \"#utility.yul\":1663:1670   */\n      dup7\n        /* \"#utility.yul\":1654:1660   */\n      dup3\n        /* \"#utility.yul\":1643:1652   */\n      dup8\n        /* \"#utility.yul\":1639:1661   */\n      add\n        /* \"#utility.yul\":1618:1671   */\n      tag_88\n      jump\t// in\n    tag_146:\n        /* \"#utility.yul\":1608:1671   */\n      swap3\n      pop\n        /* \"#utility.yul\":1563:1681   */\n      pop\n        /* \"#utility.yul\":1720:1722   */\n      0x40\n        /* \"#utility.yul\":1746:1799   */\n      tag_147\n        /* \"#utility.yul\":1791:1798   */\n      dup7\n        /* \"#utility.yul\":1782:1788   */\n      dup3\n        /* \"#utility.yul\":1771:1780   */\n      dup8\n        /* \"#utility.yul\":1767:1789   */\n      add\n        /* \"#utility.yul\":1746:1799   */\n      tag_91\n      jump\t// in\n    tag_147:\n        /* \"#utility.yul\":1736:1799   */\n      swap2\n      pop\n        /* \"#utility.yul\":1691:1809   */\n      pop\n        /* \"#utility.yul\":1197:1816   */\n      swap3\n      pop\n      swap3\n      pop\n      swap3\n      jump\t// out\n        /* \"#utility.yul\":1822:1939   */\n    tag_92:\n        /* \"#utility.yul\":1931:1932   */\n      0x00\n        /* \"#utility.yul\":1928:1929   */\n      dup1\n        /* \"#utility.yul\":1921:1933   */\n      revert\n        /* \"#utility.yul\":1945:2062   */\n    tag_93:\n        /* \"#utility.yul\":2054:2055   */\n      0x00\n        /* \"#utility.yul\":2051:2052   */\n      dup1\n        /* \"#utility.yul\":2044:2056   */\n      revert\n        /* \"#utility.yul\":2068:2170   */\n    tag_94:\n        /* \"#utility.yul\":2109:2115   */\n      0x00\n        /* \"#utility.yul\":2160:2162   */\n      0x1f\n        /* \"#utility.yul\":2156:2163   */\n      not\n        /* \"#utility.yul\":2151:2153   */\n      0x1f\n        /* \"#utility.yul\":2144:2149   */\n      dup4\n        /* \"#utility.yul\":2140:2154   */\n      add\n        /* \"#utility.yul\":2136:2164   */\n      and\n        /* \"#utility.yul\":2126:2164   */\n      swap1\n      pop\n        /* \"#utility.yul\":2068:2170   */\n      swap2\n      swap1\n      pop\n      jump\t// out\n        /* \"#utility.yul\":2176:2356   */\n    tag_95:\n        /* \"#utility.yul\":2224:2301   */\n      0x4e487b7100000000000000000000000000000000000000000000000000000000\n        /* \"#utility.yul\":2221:2222   */\n      0x00\n        /* \"#utility.yul\":2214:2302   */\n      mstore\n        /* \"#utility.yul\":2321:2325   */\n      0x41\n        /* \"#utility.yul\":2318:2319   */\n      0x04\n        /* \"#utility.yul\":2311:2326   */\n      mstore\n        /* \"#utility.yul\":2345:2349   */\n      0x24\n        /* \"#utility.yul\":2342:2343   */\n      0x00\n        /* \"#utility.yul\":2335:2350   */\n      revert\n        /* \"#utility.yul\":2362:2643   */\n    tag_96:\n        /* \"#utility.yul\":2445:2472   */\n      tag_153\n        /* \"#utility.yul\":2467:2471   */\n      dup3\n        /* \"#utility.yul\":2445:2472   */\n      tag_94\n      jump\t// in\n    tag_153:\n        /* \"#utility.yul\":2437:2443   */\n      dup2\n        /* \"#utility.yul\":2433:2473   */\n      add\n        /* \"#utility.yul\":2575:2581   */\n      dup2\n        /* \"#utility.yul\":2563:2573   */\n      dup2\n        /* \"#utility.yul\":2560:2582   */\n      lt\n        /* \"#utility.yul\":2539:2557   */\n      0xffffffffffffffff\n        /* \"#utility.yul\":2527:2537   */\n      dup3\n        /* \"#utility.yul\":2524:2558   */\n      gt\n        /* \"#utility.yul\":2521:2583   */\n      or\n        /* \"#utility.yul\":2518:2606   */\n      iszero\n      tag_154\n      jumpi\n        /* \"#utility.yul\":2586:2604   */\n      tag_155\n      tag_95\n      jump\t// in\n    tag_155:\n        /* \"#utility.yul\":2518:2606   */\n    tag_154:\n        /* \"#utility.yul\":2626:2636   */\n      dup1\n        /* \"#utility.yul\":2622:2624   */\n      0x40\n        /* \"#utility.yul\":2615:2637   */\n      mstore\n        /* \"#utility.yul\":2405:2643   */\n      pop\n        /* \"#utility.yul\":2362:2643   */\n      pop\n      pop\n      jump\t// out\n        /* \"#utility.yul\":2649:2778   */\n    tag_97:\n        /* \"#utility.yul\":2683:2689   */\n      0x00\n        /* \"#utility.yul\":2710:2730   */\n      tag_157\n      tag_82\n      jump\t// in\n    tag_157:\n        /* \"#utility.yul\":2700:2730   */\n      swap1\n      pop\n        /* \"#utility.yul\":2739:2772   */\n      tag_158\n        /* \"#utility.yul\":2767:2771   */\n      dup3\n        /* \"#utility.yul\":2759:2765   */\n      dup3\n        /* \"#utility.yul\":2739:2772   */\n      tag_96\n      jump\t// in\n    tag_158:\n        /* \"#utility.yul\":2649:2778   */\n      swap2\n      swap1\n      pop\n      jump\t// out\n        /* \"#utility.yul\":2784:3092   */\n    tag_98:\n        /* \"#utility.yul\":2846:2850   */\n      0x00\n        /* \"#utility.yul\":2936:2954   */\n      0xffffffffffffffff\n        /* \"#utility.yul\":2928:2934   */\n      dup3\n        /* \"#utility.yul\":2925:2955   */\n      gt\n        /* \"#utility.yul\":2922:2978   */\n      iszero\n      tag_160\n      jumpi\n        /* \"#utility.yul\":2958:2976   */\n      tag_161\n      tag_95\n      jump\t// in\n    tag_161:\n        /* \"#utility.yul\":2922:2978   */\n    tag_160:\n        /* \"#utility.yul\":2996:3025   */\n      tag_162\n        /* \"#utility.yul\":3018:3024   */\n      dup3\n        /* \"#utility.yul\":2996:3025   */\n      tag_94\n      jump\t// in\n    tag_162:\n        /* \"#utility.yul\":2988:3025   */\n      swap1\n      pop\n        /* \"#utility.yul\":3080:3084   */\n      0x20\n        /* \"#utility.yul\":3074:3078   */\n      dup2\n        /* \"#utility.yul\":3070:3085   */\n      add\n        /* \"#utility.yul\":3062:3085   */\n      swap1\n      pop\n        /* \"#utility.yul\":2784:3092   */\n      swap2\n      swap1\n      pop\n      jump\t// out\n        /* \"#utility.yul\":3098:3244   */\n    tag_99:\n        /* \"#utility.yul\":3195:3201   */\n      dup3\n        /* \"#utility.yul\":3190:3193   */\n      dup2\n        /* \"#utility.yul\":3185:3188   */\n      dup4\n        /* \"#utility.yul\":3172:3202   */\n      calldatacopy\n        /* \"#utility.yul\":3236:3237   */\n      0x00\n        /* \"#utility.yul\":3227:3233   */\n      dup4\n        /* \"#utility.yul\":3222:3225   */\n      dup4\n        /* \"#utility.yul\":3218:3234   */\n      add\n        /* \"#utility.yul\":3211:3238   */\n      mstore\n        /* \"#utility.yul\":3098:3244   */\n      pop\n      pop\n      pop\n      jump\t// out\n        /* \"#utility.yul\":3250:3675   */\n    tag_100:\n        /* \"#utility.yul\":3328:3333   */\n      0x00\n        /* \"#utility.yul\":3353:3419   */\n      tag_165\n        /* \"#utility.yul\":3369:3418   */\n      tag_166\n        /* \"#utility.yul\":3411:3417   */\n      dup5\n        /* \"#utility.yul\":3369:3418   */\n      tag_98\n      jump\t// in\n    tag_166:\n        /* \"#utility.yul\":3353:3419   */\n      tag_97\n      jump\t// in\n    tag_165:\n        /* \"#utility.yul\":3344:3419   */\n      swap1\n      pop\n        /* \"#utility.yul\":3442:3448   */\n      dup3\n        /* \"#utility.yul\":3435:3440   */\n      dup2\n        /* \"#utility.yul\":3428:3449   */\n      mstore\n        /* \"#utility.yul\":3480:3484   */\n      0x20\n        /* \"#utility.yul\":3473:3478   */\n      dup2\n        /* \"#utility.yul\":3469:3485   */\n      add\n        /* \"#utility.yul\":3518:3521   */\n      dup5\n        /* \"#utility.yul\":3509:3515   */\n      dup5\n        /* \"#utility.yul\":3504:3507   */\n      dup5\n        /* \"#utility.yul\":3500:3516   */\n      add\n        /* \"#utility.yul\":3497:3522   */\n      gt\n        /* \"#utility.yul\":3494:3606   */\n      iszero\n      tag_167\n      jumpi\n        /* \"#utility.yul\":3525:3604   */\n      tag_168\n      tag_93\n      jump\t// in\n    tag_168:\n        /* \"#utility.yul\":3494:3606   */\n    tag_167:\n        /* \"#utility.yul\":3615:3669   */\n      tag_169\n        /* \"#utility.yul\":3662:3668   */\n      dup5\n        /* \"#utility.yul\":3657:3660   */\n      dup3\n        /* \"#utility.yul\":3652:3655   */\n      dup6\n        /* \"#utility.yul\":3615:3669   */\n      tag_99\n      jump\t// in\n    tag_169:\n        /* \"#utility.yul\":3334:3675   */\n      pop\n        /* \"#utility.yul\":3250:3675   */\n      swap4\n      swap3\n      pop\n      pop\n      pop\n      jump\t// out\n        /* \"#utility.yul\":3695:4035   */\n    tag_101:\n        /* \"#utility.yul\":3751:3756   */\n      0x00\n        /* \"#utility.yul\":3800:3803   */\n      dup3\n        /* \"#utility.yul\":3793:3797   */\n      0x1f\n        /* \"#utility.yul\":3785:3791   */\n      dup4\n        /* \"#utility.yul\":3781:3798   */\n      add\n        /* \"#utility.yul\":3777:3804   */\n      slt\n        /* \"#utility.yul\":3767:3889   */\n      tag_171\n      jumpi\n        /* \"#utility.yul\":3808:3887   */\n      tag_172\n      tag_92\n      jump\t// in\n    tag_172:\n        /* \"#utility.yul\":3767:3889   */\n    tag_171:\n        /* \"#utility.yul\":3925:3931   */\n      dup2\n        /* \"#utility.yul\":3912:3932   */\n      calldataload\n        /* \"#utility.yul\":3950:4029   */\n      tag_173\n        /* \"#utility.yul\":4025:4028   */\n      dup5\n        /* \"#utility.yul\":4017:4023   */\n      dup3\n        /* \"#utility.yul\":4010:4014   */\n      0x20\n        /* \"#utility.yul\":4002:4008   */\n      dup7\n        /* \"#utility.yul\":3998:4015   */\n      add\n        /* \"#utility.yul\":3950:4029   */\n      tag_100\n      jump\t// in\n    tag_173:\n        /* \"#utility.yul\":3941:4029   */\n      swap2\n      pop\n        /* \"#utility.yul\":3757:4035   */\n      pop\n        /* \"#utility.yul\":3695:4035   */\n      swap3\n      swap2\n      pop\n      pop\n      jump\t// out\n        /* \"#utility.yul\":4041:4695   */\n    tag_17:\n        /* \"#utility.yul\":4119:4125   */\n      0x00\n        /* \"#utility.yul\":4127:4133   */\n      dup1\n        /* \"#utility.yul\":4176:4178   */\n      0x40\n        /* \"#utility.yul\":4164:4173   */\n      dup4\n        /* \"#utility.yul\":4155:4162   */\n      dup6\n        /* \"#utility.yul\":4151:4174   */\n      sub\n        /* \"#utility.yul\":4147:4179   */\n      slt\n        /* \"#utility.yul\":4144:4263   */\n      iszero\n      tag_175\n      jumpi\n        /* \"#utility.yul\":4182:4261   */\n      tag_176\n      tag_83\n      jump\t// in\n    tag_176:\n        /* \"#utility.yul\":4144:4263   */\n    tag_175:\n        /* \"#utility.yul\":4330:4331   */\n      0x00\n        /* \"#utility.yul\":4319:4328   */\n      dup4\n        /* \"#utility.yul\":4315:4332   */\n      add\n        /* \"#utility.yul\":4302:4333   */\n      calldataload\n        /* \"#utility.yul\":4360:4378   */\n      0xffffffffffffffff\n        /* \"#utility.yul\":4352:4358   */\n      dup2\n        /* \"#utility.yul\":4349:4379   */\n      gt\n        /* \"#utility.yul\":4346:4463   */\n      iszero\n      tag_177\n      jumpi\n        /* \"#utility.yul\":4382:4461   */\n      tag_178\n      tag_84\n      jump\t// in\n    tag_178:\n        /* \"#utility.yul\":4346:4463   */\n    tag_177:\n        /* \"#utility.yul\":4487:4550   */\n      tag_179\n        /* \"#utility.yul\":4542:4549   */\n      dup6\n        /* \"#utility.yul\":4533:4539   */\n      dup3\n        /* \"#utility.yul\":4522:4531   */\n      dup7\n        /* \"#utility.yul\":4518:4540   */\n      add\n        /* \"#utility.yul\":4487:4550   */\n      tag_101\n      jump\t// in\n    tag_179:\n        /* \"#utility.yul\":4477:4550   */\n      swap3\n      pop\n        /* \"#utility.yul\":4273:4560   */\n      pop\n        /* \"#utility.yul\":4599:4601   */\n      0x20\n        /* \"#utility.yul\":4625:4678   */\n      tag_180\n        /* \"#utility.yul\":4670:4677   */\n      dup6\n        /* \"#utility.yul\":4661:4667   */\n      dup3\n        /* \"#utility.yul\":4650:4659   */\n      dup7\n        /* \"#utility.yul\":4646:4668   */\n      add\n        /* \"#utility.yul\":4625:4678   */\n      tag_91\n      jump\t// in\n    tag_180:\n        /* \"#utility.yul\":4615:4678   */\n      swap2\n      pop\n        /* \"#utility.yul\":4570:4688   */\n      pop\n        /* \"#utility.yul\":4041:4695   */\n      swap3\n      pop\n      swap3\n      swap1\n      pop\n      jump\t// out\n        /* \"#utility.yul\":4701:5210   */\n    tag_21:\n        /* \"#utility.yul\":4770:4776   */\n      0x00\n        /* \"#utility.yul\":4819:4821   */\n      0x20\n        /* \"#utility.yul\":4807:4816   */\n      dup3\n        /* \"#utility.yul\":4798:4805   */\n      dup5\n        /* \"#utility.yul\":4794:4817   */\n      sub\n        /* \"#utility.yul\":4790:4822   */\n      slt\n        /* \"#utility.yul\":4787:4906   */\n      iszero\n      tag_182\n      jumpi\n        /* \"#utility.yul\":4825:4904   */\n      tag_183\n      tag_83\n      jump\t// in\n    tag_183:\n        /* \"#utility.yul\":4787:4906   */\n    tag_182:\n        /* \"#utility.yul\":4973:4974   */\n      0x00\n        /* \"#utility.yul\":4962:4971   */\n      dup3\n        /* \"#utility.yul\":4958:4975   */\n      add\n        /* \"#utility.yul\":4945:4976   */\n      calldataload\n        /* \"#utility.yul\":5003:5021   */\n      0xffffffffffffffff\n        /* \"#utility.yul\":4995:5001   */\n      dup2\n        /* \"#utility.yul\":4992:5022   */\n      gt\n        /* \"#utility.yul\":4989:5106   */\n      iszero\n      tag_184\n      jumpi\n        /* \"#utility.yul\":5025:5104   */\n      tag_185\n      tag_84\n      jump\t// in\n    tag_185:\n        /* \"#utility.yul\":4989:5106   */\n    tag_184:\n        /* \"#utility.yul\":5130:5193   */\n      tag_186\n        /* \"#utility.yul\":5185:5192   */\n      dup5\n        /* \"#utility.yul\":5176:5182   */\n      dup3\n        /* \"#utility.yul\":5165:5174   */\n      dup6\n        /* \"#utility.yul\":5161:5183   */\n      add\n        /* \"#utility.yul\":5130:5193   */\n      tag_101\n      jump\t// in\n    tag_186:\n        /* \"#utility.yul\":5120:5193   */\n      swap2\n      pop\n        /* \"#utility.yul\":4916:5203   */\n      pop\n        /* \"#utility.yul\":4701:5210   */\n      swap3\n      swap2\n      pop\n      pop\n      jump\t// out\n        /* \"#utility.yul\":5216:5334   */\n    tag_102:\n        /* \"#utility.yul\":5303:5327   */\n      tag_188\n        /* \"#utility.yul\":5321:5326   */\n      dup2\n        /* \"#utility.yul\":5303:5327   */\n      tag_89\n      jump\t// in\n    tag_188:\n        /* \"#utility.yul\":5298:5301   */\n      dup3\n        /* \"#utility.yul\":5291:5328   */\n      mstore\n        /* \"#utility.yul\":5216:5334   */\n      pop\n      pop\n      jump\t// out\n        /* \"#utility.yul\":5340:5562   */\n    tag_24:\n        /* \"#utility.yul\":5433:5437   */\n      0x00\n        /* \"#utility.yul\":5471:5473   */\n      0x20\n        /* \"#utility.yul\":5460:5469   */\n      dup3\n        /* \"#utility.yul\":5456:5474   */\n      add\n        /* \"#utility.yul\":5448:5474   */\n      swap1\n      pop\n        /* \"#utility.yul\":5484:5555   */\n      tag_190\n        /* \"#utility.yul\":5552:5553   */\n      0x00\n        /* \"#utility.yul\":5541:5550   */\n      dup4\n        /* \"#utility.yul\":5537:5554   */\n      add\n        /* \"#utility.yul\":5528:5534   */\n      dup5\n        /* \"#utility.yul\":5484:5555   */\n      tag_102\n      jump\t// in\n    tag_190:\n        /* \"#utility.yul\":5340:5562   */\n      swap3\n      swap2\n      pop\n      pop\n      jump\t// out\n        /* \"#utility.yul\":5568:6042   */\n    tag_27:\n        /* \"#utility.yul\":5636:5642   */\n      0x00\n        /* \"#utility.yul\":5644:5650   */\n      dup1\n        /* \"#utility.yul\":5693:5695   */\n      0x40\n        /* \"#utility.yul\":5681:5690   */\n      dup4\n        /* \"#utility.yul\":5672:5679   */\n      dup6\n        /* \"#utility.yul\":5668:5691   */\n      sub\n        /* \"#utility.yul\":5664:5696   */\n      slt\n        /* \"#utility.yul\":5661:5780   */\n      iszero\n      tag_192\n      jumpi\n        /* \"#utility.yul\":5699:5778   */\n      tag_193\n      tag_83\n      jump\t// in\n    tag_193:\n        /* \"#utility.yul\":5661:5780   */\n    tag_192:\n        /* \"#utility.yul\":5819:5820   */\n      0x00\n        /* \"#utility.yul\":5844:5897   */\n      tag_194\n        /* \"#utility.yul\":5889:5896   */\n      dup6\n        /* \"#utility.yul\":5880:5886   */\n      dup3\n        /* \"#utility.yul\":5869:5878   */\n      dup7\n        /* \"#utility.yul\":5865:5887   */\n      add\n        /* \"#utility.yul\":5844:5897   */\n      tag_88\n      jump\t// in\n    tag_194:\n        /* \"#utility.yul\":5834:5897   */\n      swap3\n      pop\n        /* \"#utility.yul\":5790:5907   */\n      pop\n        /* \"#utility.yul\":5946:5948   */\n      0x20\n        /* \"#utility.yul\":5972:6025   */\n      tag_195\n        /* \"#utility.yul\":6017:6024   */\n      dup6\n        /* \"#utility.yul\":6008:6014   */\n      dup3\n        /* \"#utility.yul\":5997:6006   */\n      dup7\n        /* \"#utility.yul\":5993:6015   */\n      add\n        /* \"#utility.yul\":5972:6025   */\n      tag_91\n      jump\t// in\n    tag_195:\n        /* \"#utility.yul\":5962:6025   */\n      swap2\n      pop\n        /* \"#utility.yul\":5917:6035   */\n      pop\n        /* \"#utility.yul\":5568:6042   */\n      swap3\n      pop\n      swap3\n      swap1\n      pop\n      jump\t// out\n        /* \"#utility.yul\":6048:6147   */\n    tag_103:\n        /* \"#utility.yul\":6100:6106   */\n      0x00\n        /* \"#utility.yul\":6134:6139   */\n      dup2\n        /* \"#utility.yul\":6128:6140   */\n      mload\n        /* \"#utility.yul\":6118:6140   */\n      swap1\n      pop\n        /* \"#utility.yul\":6048:6147   */\n      swap2\n      swap1\n      pop\n      jump\t// out\n        /* \"#utility.yul\":6153:6322   */\n    tag_104:\n        /* \"#utility.yul\":6237:6248   */\n      0x00\n        /* \"#utility.yul\":6271:6277   */\n      dup3\n        /* \"#utility.yul\":6266:6269   */\n      dup3\n        /* \"#utility.yul\":6259:6278   */\n      mstore\n        /* \"#utility.yul\":6311:6315   */\n      0x20\n        /* \"#utility.yul\":6306:6309   */\n      dup3\n        /* \"#utility.yul\":6302:6316   */\n      add\n        /* \"#utility.yul\":6287:6316   */\n      swap1\n      pop\n        /* \"#utility.yul\":6153:6322   */\n      swap3\n      swap2\n      pop\n      pop\n      jump\t// out\n        /* \"#utility.yul\":6328:6574   */\n    tag_105:\n        /* \"#utility.yul\":6409:6410   */\n      0x00\n        /* \"#utility.yul\":6419:6532   */\n    tag_199:\n        /* \"#utility.yul\":6433:6439   */\n      dup4\n        /* \"#utility.yul\":6430:6431   */\n      dup2\n        /* \"#utility.yul\":6427:6440   */\n      lt\n        /* \"#utility.yul\":6419:6532   */\n      iszero\n      tag_201\n      jumpi\n        /* \"#utility.yul\":6518:6519   */\n      dup1\n        /* \"#utility.yul\":6513:6516   */\n      dup3\n        /* \"#utility.yul\":6509:6520   */\n      add\n        /* \"#utility.yul\":6503:6521   */\n      mload\n        /* \"#utility.yul\":6499:6500   */\n      dup2\n        /* \"#utility.yul\":6494:6497   */\n      dup5\n        /* \"#utility.yul\":6490:6501   */\n      add\n        /* \"#utility.yul\":6483:6522   */\n      mstore\n        /* \"#utility.yul\":6455:6457   */\n      0x20\n        /* \"#utility.yul\":6452:6453   */\n      dup2\n        /* \"#utility.yul\":6448:6458   */\n      add\n        /* \"#utility.yul\":6443:6458   */\n      swap1\n      pop\n        /* \"#utility.yul\":6419:6532   */\n      jump(tag_199)\n    tag_201:\n        /* \"#utility.yul\":6566:6567   */\n      0x00\n        /* \"#utility.yul\":6557:6563   */\n      dup5\n        /* \"#utility.yul\":6552:6555   */\n      dup5\n        /* \"#utility.yul\":6548:6564   */\n      add\n        /* \"#utility.yul\":6541:6568   */\n      mstore\n        /* \"#utility.yul\":6390:6574   */\n      pop\n        /* \"#utility.yul\":6328:6574   */\n      pop\n      pop\n      pop\n      jump\t// out\n        /* \"#utility.yul\":6580:6957   */\n    tag_106:\n        /* \"#utility.yul\":6668:6671   */\n      0x00\n        /* \"#utility.yul\":6696:6735   */\n      tag_203\n        /* \"#utility.yul\":6729:6734   */\n      dup3\n        /* \"#utility.yul\":6696:6735   */\n      tag_103\n      jump\t// in\n    tag_203:\n        /* \"#utility.yul\":6751:6822   */\n      tag_204\n        /* \"#utility.yul\":6815:6821   */\n      dup2\n        /* \"#utility.yul\":6810:6813   */\n      dup6\n        /* \"#utility.yul\":6751:6822   */\n      tag_104\n      jump\t// in\n    tag_204:\n        /* \"#utility.yul\":6744:6822   */\n      swap4\n      pop\n        /* \"#utility.yul\":6831:6896   */\n      tag_205\n        /* \"#utility.yul\":6889:6895   */\n      dup2\n        /* \"#utility.yul\":6884:6887   */\n      dup6\n        /* \"#utility.yul\":6877:6881   */\n      0x20\n        /* \"#utility.yul\":6870:6875   */\n      dup7\n        /* \"#utility.yul\":6866:6882   */\n      add\n        /* \"#utility.yul\":6831:6896   */\n      tag_105\n      jump\t// in\n    tag_205:\n        /* \"#utility.yul\":6921:6950   */\n      tag_206\n        /* \"#utility.yul\":6943:6949   */\n      dup2\n        /* \"#utility.yul\":6921:6950   */\n      tag_94\n      jump\t// in\n    tag_206:\n        /* \"#utility.yul\":6916:6919   */\n      dup5\n        /* \"#utility.yul\":6912:6951   */\n      add\n        /* \"#utility.yul\":6905:6951   */\n      swap2\n      pop\n        /* \"#utility.yul\":6672:6957   */\n      pop\n        /* \"#utility.yul\":6580:6957   */\n      swap3\n      swap2\n      pop\n      pop\n      jump\t// out\n        /* \"#utility.yul\":6963:7276   */\n    tag_33:\n        /* \"#utility.yul\":7076:7080   */\n      0x00\n        /* \"#utility.yul\":7114:7116   */\n      0x20\n        /* \"#utility.yul\":7103:7112   */\n      dup3\n        /* \"#utility.yul\":7099:7117   */\n      add\n        /* \"#utility.yul\":7091:7117   */\n      swap1\n      pop\n        /* \"#utility.yul\":7163:7172   */\n      dup2\n        /* \"#utility.yul\":7157:7161   */\n      dup2\n        /* \"#utility.yul\":7153:7173   */\n      sub\n        /* \"#utility.yul\":7149:7150   */\n      0x00\n        /* \"#utility.yul\":7138:7147   */\n      dup4\n        /* \"#utility.yul\":7134:7151   */\n      add\n        /* \"#utility.yul\":7127:7174   */\n      mstore\n        /* \"#utility.yul\":7191:7269   */\n      tag_208\n        /* \"#utility.yul\":7264:7268   */\n      dup2\n        /* \"#utility.yul\":7255:7261   */\n      dup5\n        /* \"#utility.yul\":7191:7269   */\n      tag_106\n      jump\t// in\n    tag_208:\n        /* \"#utility.yul\":7183:7269   */\n      swap1\n      pop\n        /* \"#utility.yul\":6963:7276   */\n      swap3\n      swap2\n      pop\n      pop\n      jump\t// out\n        /* \"#utility.yul\":7282:7611   */\n    tag_39:\n        /* \"#utility.yul\":7341:7347   */\n      0x00\n        /* \"#utility.yul\":7390:7392   */\n      0x20\n        /* \"#utility.yul\":7378:7387   */\n      dup3\n        /* \"#utility.yul\":7369:7376   */\n      dup5\n        /* \"#utility.yul\":7365:7388   */\n      sub\n        /* \"#utility.yul\":7361:7393   */\n      slt\n        /* \"#utility.yul\":7358:7477   */\n      iszero\n      tag_210\n      jumpi\n        /* \"#utility.yul\":7396:7475   */\n      tag_211\n      tag_83\n      jump\t// in\n    tag_211:\n        /* \"#utility.yul\":7358:7477   */\n    tag_210:\n        /* \"#utility.yul\":7516:7517   */\n      0x00\n        /* \"#utility.yul\":7541:7594   */\n      tag_212\n        /* \"#utility.yul\":7586:7593   */\n      dup5\n        /* \"#utility.yul\":7577:7583   */\n      dup3\n        /* \"#utility.yul\":7566:7575   */\n      dup6\n        /* \"#utility.yul\":7562:7584   */\n      add\n        /* \"#utility.yul\":7541:7594   */\n      tag_88\n      jump\t// in\n    tag_212:\n        /* \"#utility.yul\":7531:7594   */\n      swap2\n      pop\n        /* \"#utility.yul\":7487:7604   */\n      pop\n        /* \"#utility.yul\":7282:7611   */\n      swap3\n      swap2\n      pop\n      pop\n      jump\t// out\n        /* \"#utility.yul\":7617:7789   */\n    tag_107:\n        /* \"#utility.yul\":7757:7781   */\n      0x6163636f756e74206e6f74207265676973746572656400000000000000000000\n        /* \"#utility.yul\":7753:7754   */\n      0x00\n        /* \"#utility.yul\":7745:7751   */\n      dup3\n        /* \"#utility.yul\":7741:7755   */\n      add\n        /* \"#utility.yul\":7734:7782   */\n      mstore\n        /* \"#utility.yul\":7617:7789   */\n      pop\n      jump\t// out\n        /* \"#utility.yul\":7795:8161   */\n    tag_108:\n        /* \"#utility.yul\":7937:7940   */\n      0x00\n        /* \"#utility.yul\":7958:8025   */\n      tag_215\n        /* \"#utility.yul\":8022:8024   */\n      0x16\n        /* \"#utility.yul\":8017:8020   */\n      dup4\n        /* \"#utility.yul\":7958:8025   */\n      tag_104\n      jump\t// in\n    tag_215:\n        /* \"#utility.yul\":7951:8025   */\n      swap2\n      pop\n        /* \"#utility.yul\":8034:8127   */\n      tag_216\n        /* \"#utility.yul\":8123:8126   */\n      dup3\n        /* \"#utility.yul\":8034:8127   */\n      tag_107\n      jump\t// in\n    tag_216:\n        /* \"#utility.yul\":8152:8154   */\n      0x20\n        /* \"#utility.yul\":8147:8150   */\n      dup3\n        /* \"#utility.yul\":8143:8155   */\n      add\n        /* \"#utility.yul\":8136:8155   */\n      swap1\n      pop\n        /* \"#utility.yul\":7795:8161   */\n      swap2\n      swap1\n      pop\n      jump\t// out\n        /* \"#utility.yul\":8167:8586   */\n    tag_45:\n        /* \"#utility.yul\":8333:8337   */\n      0x00\n        /* \"#utility.yul\":8371:8373   */\n      0x20\n        /* \"#utility.yul\":8360:8369   */\n      dup3\n        /* \"#utility.yul\":8356:8374   */\n      add\n        /* \"#utility.yul\":8348:8374   */\n      swap1\n      pop\n        /* \"#utility.yul\":8420:8429   */\n      dup2\n        /* \"#utility.yul\":8414:8418   */\n      dup2\n        /* \"#utility.yul\":8410:8430   */\n      sub\n        /* \"#utility.yul\":8406:8407   */\n      0x00\n        /* \"#utility.yul\":8395:8404   */\n      dup4\n        /* \"#utility.yul\":8391:8408   */\n      add\n        /* \"#utility.yul\":8384:8431   */\n      mstore\n        /* \"#utility.yul\":8448:8579   */\n      tag_218\n        /* \"#utility.yul\":8574:8578   */\n      dup2\n        /* \"#utility.yul\":8448:8579   */\n      tag_108\n      jump\t// in\n    tag_218:\n        /* \"#utility.yul\":8440:8579   */\n      swap1\n      pop\n        /* \"#utility.yul\":8167:8586   */\n      swap2\n      swap1\n      pop\n      jump\t// out\n        /* \"#utility.yul\":8592:8773   */\n    tag_109:\n        /* \"#utility.yul\":8732:8765   */\n      0x696e73657274656420616d6f756e742073686f756c642062652076616c696400\n        /* \"#utility.yul\":8728:8729   */\n      0x00\n        /* \"#utility.yul\":8720:8726   */\n      dup3\n        /* \"#utility.yul\":8716:8730   */\n      add\n        /* \"#utility.yul\":8709:8766   */\n      mstore\n        /* \"#utility.yul\":8592:8773   */\n      pop\n      jump\t// out\n        /* \"#utility.yul\":8779:9145   */\n    tag_110:\n        /* \"#utility.yul\":8921:8924   */\n      0x00\n        /* \"#utility.yul\":8942:9009   */\n      tag_221\n        /* \"#utility.yul\":9006:9008   */\n      0x1f\n        /* \"#utility.yul\":9001:9004   */\n      dup4\n        /* \"#utility.yul\":8942:9009   */\n      tag_104\n      jump\t// in\n    tag_221:\n        /* \"#utility.yul\":8935:9009   */\n      swap2\n      pop\n        /* \"#utility.yul\":9018:9111   */\n      tag_222\n        /* \"#utility.yul\":9107:9110   */\n      dup3\n        /* \"#utility.yul\":9018:9111   */\n      tag_109\n      jump\t// in\n    tag_222:\n        /* \"#utility.yul\":9136:9138   */\n      0x20\n        /* \"#utility.yul\":9131:9134   */\n      dup3\n        /* \"#utility.yul\":9127:9139   */\n      add\n        /* \"#utility.yul\":9120:9139   */\n      swap1\n      pop\n        /* \"#utility.yul\":8779:9145   */\n      swap2\n      swap1\n      pop\n      jump\t// out\n        /* \"#utility.yul\":9151:9570   */\n    tag_48:\n        /* \"#utility.yul\":9317:9321   */\n      0x00\n        /* \"#utility.yul\":9355:9357   */\n      0x20\n        /* \"#utility.yul\":9344:9353   */\n      dup3\n        /* \"#utility.yul\":9340:9358   */\n      add\n        /* \"#utility.yul\":9332:9358   */\n      swap1\n      pop\n        /* \"#utility.yul\":9404:9413   */\n      dup2\n        /* \"#utility.yul\":9398:9402   */\n      dup2\n        /* \"#utility.yul\":9394:9414   */\n      sub\n        /* \"#utility.yul\":9390:9391   */\n      0x00\n        /* \"#utility.yul\":9379:9388   */\n      dup4\n        /* \"#utility.yul\":9375:9392   */\n      add\n        /* \"#utility.yul\":9368:9415   */\n      mstore\n        /* \"#utility.yul\":9432:9563   */\n      tag_224\n        /* \"#utility.yul\":9558:9562   */\n      dup2\n        /* \"#utility.yul\":9432:9563   */\n      tag_110\n      jump\t// in\n    tag_224:\n        /* \"#utility.yul\":9424:9563   */\n      swap1\n      pop\n        /* \"#utility.yul\":9151:9570   */\n      swap2\n      swap1\n      pop\n      jump\t// out\n        /* \"#utility.yul\":9576:9756   */\n    tag_111:\n        /* \"#utility.yul\":9624:9701   */\n      0x4e487b7100000000000000000000000000000000000000000000000000000000\n        /* \"#utility.yul\":9621:9622   */\n      0x00\n        /* \"#utility.yul\":9614:9702   */\n      mstore\n        /* \"#utility.yul\":9721:9725   */\n      0x11\n        /* \"#utility.yul\":9718:9719   */\n      0x04\n        /* \"#utility.yul\":9711:9726   */\n      mstore\n        /* \"#utility.yul\":9745:9749   */\n      0x24\n        /* \"#utility.yul\":9742:9743   */\n      0x00\n        /* \"#utility.yul\":9735:9750   */\n      revert\n        /* \"#utility.yul\":9762:9956   */\n    tag_50:\n        /* \"#utility.yul\":9802:9806   */\n      0x00\n        /* \"#utility.yul\":9822:9842   */\n      tag_227\n        /* \"#utility.yul\":9840:9841   */\n      dup3\n        /* \"#utility.yul\":9822:9842   */\n      tag_89\n      jump\t// in\n    tag_227:\n        /* \"#utility.yul\":9817:9842   */\n      swap2\n      pop\n        /* \"#utility.yul\":9856:9876   */\n      tag_228\n        /* \"#utility.yul\":9874:9875   */\n      dup4\n        /* \"#utility.yul\":9856:9876   */\n      tag_89\n      jump\t// in\n    tag_228:\n        /* \"#utility.yul\":9851:9876   */\n      swap3\n      pop\n        /* \"#utility.yul\":9900:9901   */\n      dup3\n        /* \"#utility.yul\":9897:9898   */\n      dup3\n        /* \"#utility.yul\":9893:9902   */\n      sub\n        /* \"#utility.yul\":9885:9902   */\n      swap1\n      pop\n        /* \"#utility.yul\":9924:9925   */\n      dup2\n        /* \"#utility.yul\":9918:9922   */\n      dup2\n        /* \"#utility.yul\":9915:9926   */\n      gt\n        /* \"#utility.yul\":9912:9949   */\n      iszero\n      tag_229\n      jumpi\n        /* \"#utility.yul\":9929:9947   */\n      tag_230\n      tag_111\n      jump\t// in\n    tag_230:\n        /* \"#utility.yul\":9912:9949   */\n    tag_229:\n        /* \"#utility.yul\":9762:9956   */\n      swap3\n      swap2\n      pop\n      pop\n      jump\t// out\n        /* \"#utility.yul\":9962:10153   */\n    tag_52:\n        /* \"#utility.yul\":10002:10005   */\n      0x00\n        /* \"#utility.yul\":10021:10041   */\n      tag_232\n        /* \"#utility.yul\":10039:10040   */\n      dup3\n        /* \"#utility.yul\":10021:10041   */\n      tag_89\n      jump\t// in\n    tag_232:\n        /* \"#utility.yul\":10016:10041   */\n      swap2\n      pop\n        /* \"#utility.yul\":10055:10075   */\n      tag_233\n        /* \"#utility.yul\":10073:10074   */\n      dup4\n        /* \"#utility.yul\":10055:10075   */\n      tag_89\n      jump\t// in\n    tag_233:\n        /* \"#utility.yul\":10050:10075   */\n      swap3\n      pop\n        /* \"#utility.yul\":10098:10099   */\n      dup3\n        /* \"#utility.yul\":10095:10096   */\n      dup3\n        /* \"#utility.yul\":10091:10100   */\n      add\n        /* \"#utility.yul\":10084:10100   */\n      swap1\n      pop\n        /* \"#utility.yul\":10119:10122   */\n      dup1\n        /* \"#utility.yul\":10116:10117   */\n      dup3\n        /* \"#utility.yul\":10113:10123   */\n      gt\n        /* \"#utility.yul\":10110:10146   */\n      iszero\n      tag_234\n      jumpi\n        /* \"#utility.yul\":10126:10144   */\n      tag_235\n      tag_111\n      jump\t// in\n    tag_235:\n        /* \"#utility.yul\":10110:10146   */\n    tag_234:\n        /* \"#utility.yul\":9962:10153   */\n      swap3\n      swap2\n      pop\n      pop\n      jump\t// out\n        /* \"#utility.yul\":10159:10277   */\n    tag_112:\n        /* \"#utility.yul\":10246:10270   */\n      tag_237\n        /* \"#utility.yul\":10264:10269   */\n      dup2\n        /* \"#utility.yul\":10246:10270   */\n      tag_86\n      jump\t// in\n    tag_237:\n        /* \"#utility.yul\":10241:10244   */\n      dup3\n        /* \"#utility.yul\":10234:10271   */\n      mstore\n        /* \"#utility.yul\":10159:10277   */\n      pop\n      pop\n      jump\t// out\n        /* \"#utility.yul\":10283:10725   */\n    tag_54:\n        /* \"#utility.yul\":10432:10436   */\n      0x00\n        /* \"#utility.yul\":10470:10472   */\n      0x60\n        /* \"#utility.yul\":10459:10468   */\n      dup3\n        /* \"#utility.yul\":10455:10473   */\n      add\n        /* \"#utility.yul\":10447:10473   */\n      swap1\n      pop\n        /* \"#utility.yul\":10483:10554   */\n      tag_239\n        /* \"#utility.yul\":10551:10552   */\n      0x00\n        /* \"#utility.yul\":10540:10549   */\n      dup4\n        /* \"#utility.yul\":10536:10553   */\n      add\n        /* \"#utility.yul\":10527:10533   */\n      dup7\n        /* \"#utility.yul\":10483:10554   */\n      tag_112\n      jump\t// in\n    tag_239:\n        /* \"#utility.yul\":10564:10636   */\n      tag_240\n        /* \"#utility.yul\":10632:10634   */\n      0x20\n        /* \"#utility.yul\":10621:10630   */\n      dup4\n        /* \"#utility.yul\":10617:10635   */\n      add\n        /* \"#utility.yul\":10608:10614   */\n      dup6\n        /* \"#utility.yul\":10564:10636   */\n      tag_112\n      jump\t// in\n    tag_240:\n        /* \"#utility.yul\":10646:10718   */\n      tag_241\n        /* \"#utility.yul\":10714:10716   */\n      0x40\n        /* \"#utility.yul\":10703:10712   */\n      dup4\n        /* \"#utility.yul\":10699:10717   */\n      add\n        /* \"#utility.yul\":10690:10696   */\n      dup5\n        /* \"#utility.yul\":10646:10718   */\n      tag_102\n      jump\t// in\n    tag_241:\n        /* \"#utility.yul\":10283:10725   */\n      swap5\n      swap4\n      pop\n      pop\n      pop\n      pop\n      jump\t// out\n        /* \"#utility.yul\":10731:10879   */\n    tag_113:\n        /* \"#utility.yul\":10833:10844   */\n      0x00\n        /* \"#utility.yul\":10870:10873   */\n      dup2\n        /* \"#utility.yul\":10855:10873   */\n      swap1\n      pop\n        /* \"#utility.yul\":10731:10879   */\n      swap3\n      swap2\n      pop\n      pop\n      jump\t// out\n        /* \"#utility.yul\":10885:11275   */\n    tag_114:\n        /* \"#utility.yul\":10991:10994   */\n      0x00\n        /* \"#utility.yul\":11019:11058   */\n      tag_244\n        /* \"#utility.yul\":11052:11057   */\n      dup3\n        /* \"#utility.yul\":11019:11058   */\n      tag_103\n      jump\t// in\n    tag_244:\n        /* \"#utility.yul\":11074:11163   */\n      tag_245\n        /* \"#utility.yul\":11156:11162   */\n      dup2\n        /* \"#utility.yul\":11151:11154   */\n      dup6\n        /* \"#utility.yul\":11074:11163   */\n      tag_113\n      jump\t// in\n    tag_245:\n        /* \"#utility.yul\":11067:11163   */\n      swap4\n      pop\n        /* \"#utility.yul\":11172:11237   */\n      tag_246\n        /* \"#utility.yul\":11230:11236   */\n      dup2\n        /* \"#utility.yul\":11225:11228   */\n      dup6\n        /* \"#utility.yul\":11218:11222   */\n      0x20\n        /* \"#utility.yul\":11211:11216   */\n      dup7\n        /* \"#utility.yul\":11207:11223   */\n      add\n        /* \"#utility.yul\":11172:11237   */\n      tag_105\n      jump\t// in\n    tag_246:\n        /* \"#utility.yul\":11262:11268   */\n      dup1\n        /* \"#utility.yul\":11257:11260   */\n      dup5\n        /* \"#utility.yul\":11253:11269   */\n      add\n        /* \"#utility.yul\":11246:11269   */\n      swap2\n      pop\n        /* \"#utility.yul\":10995:11275   */\n      pop\n        /* \"#utility.yul\":10885:11275   */\n      swap3\n      swap2\n      pop\n      pop\n      jump\t// out\n        /* \"#utility.yul\":11281:11556   */\n    tag_57:\n        /* \"#utility.yul\":11413:11416   */\n      0x00\n        /* \"#utility.yul\":11435:11530   */\n      tag_248\n        /* \"#utility.yul\":11526:11529   */\n      dup3\n        /* \"#utility.yul\":11517:11523   */\n      dup5\n        /* \"#utility.yul\":11435:11530   */\n      tag_114\n      jump\t// in\n    tag_248:\n        /* \"#utility.yul\":11428:11530   */\n      swap2\n      pop\n        /* \"#utility.yul\":11547:11550   */\n      dup2\n        /* \"#utility.yul\":11540:11550   */\n      swap1\n      pop\n        /* \"#utility.yul\":11281:11556   */\n      swap3\n      swap2\n      pop\n      pop\n      jump\t// out\n        /* \"#utility.yul\":11562:11735   */\n    tag_115:\n        /* \"#utility.yul\":11702:11727   */\n      0x42616c616e63652073686f756c642062652076616c6964000000000000000000\n        /* \"#utility.yul\":11698:11699   */\n      0x00\n        /* \"#utility.yul\":11690:11696   */\n      dup3\n        /* \"#utility.yul\":11686:11700   */\n      add\n        /* \"#utility.yul\":11679:11728   */\n      mstore\n        /* \"#utility.yul\":11562:11735   */\n      pop\n      jump\t// out\n        /* \"#utility.yul\":11741:12107   */\n    tag_116:\n        /* \"#utility.yul\":11883:11886   */\n      0x00\n        /* \"#utility.yul\":11904:11971   */\n      tag_251\n        /* \"#utility.yul\":11968:11970   */\n      0x17\n        /* \"#utility.yul\":11963:11966   */\n      dup4\n        /* \"#utility.yul\":11904:11971   */\n      tag_104\n      jump\t// in\n    tag_251:\n        /* \"#utility.yul\":11897:11971   */\n      swap2\n      pop\n        /* \"#utility.yul\":11980:12073   */\n      tag_252\n        /* \"#utility.yul\":12069:12072   */\n      dup3\n        /* \"#utility.yul\":11980:12073   */\n      tag_115\n      jump\t// in\n    tag_252:\n        /* \"#utility.yul\":12098:12100   */\n      0x20\n        /* \"#utility.yul\":12093:12096   */\n      dup3\n        /* \"#utility.yul\":12089:12101   */\n      add\n        /* \"#utility.yul\":12082:12101   */\n      swap1\n      pop\n        /* \"#utility.yul\":11741:12107   */\n      swap2\n      swap1\n      pop\n      jump\t// out\n        /* \"#utility.yul\":12113:12532   */\n    tag_61:\n        /* \"#utility.yul\":12279:12283   */\n      0x00\n        /* \"#utility.yul\":12317:12319   */\n      0x20\n        /* \"#utility.yul\":12306:12315   */\n      dup3\n        /* \"#utility.yul\":12302:12320   */\n      add\n        /* \"#utility.yul\":12294:12320   */\n      swap1\n      pop\n        /* \"#utility.yul\":12366:12375   */\n      dup2\n        /* \"#utility.yul\":12360:12364   */\n      dup2\n        /* \"#utility.yul\":12356:12376   */\n      sub\n        /* \"#utility.yul\":12352:12353   */\n      0x00\n        /* \"#utility.yul\":12341:12350   */\n      dup4\n        /* \"#utility.yul\":12337:12354   */\n      add\n        /* \"#utility.yul\":12330:12377   */\n      mstore\n        /* \"#utility.yul\":12394:12525   */\n      tag_254\n        /* \"#utility.yul\":12520:12524   */\n      dup2\n        /* \"#utility.yul\":12394:12525   */\n      tag_116\n      jump\t// in\n    tag_254:\n        /* \"#utility.yul\":12386:12525   */\n      swap1\n      pop\n        /* \"#utility.yul\":12113:12532   */\n      swap2\n      swap1\n      pop\n      jump\t// out\n        /* \"#utility.yul\":12538:12948   */\n    tag_67:\n        /* \"#utility.yul\":12578:12585   */\n      0x00\n        /* \"#utility.yul\":12601:12621   */\n      tag_256\n        /* \"#utility.yul\":12619:12620   */\n      dup3\n        /* \"#utility.yul\":12601:12621   */\n      tag_89\n      jump\t// in\n    tag_256:\n        /* \"#utility.yul\":12596:12621   */\n      swap2\n      pop\n        /* \"#utility.yul\":12635:12655   */\n      tag_257\n        /* \"#utility.yul\":12653:12654   */\n      dup4\n        /* \"#utility.yul\":12635:12655   */\n      tag_89\n      jump\t// in\n    tag_257:\n        /* \"#utility.yul\":12630:12655   */\n      swap3\n      pop\n        /* \"#utility.yul\":12690:12691   */\n      dup3\n        /* \"#utility.yul\":12687:12688   */\n      dup3\n        /* \"#utility.yul\":12683:12692   */\n      mul\n        /* \"#utility.yul\":12712:12742   */\n      tag_258\n        /* \"#utility.yul\":12730:12741   */\n      dup2\n        /* \"#utility.yul\":12712:12742   */\n      tag_89\n      jump\t// in\n    tag_258:\n        /* \"#utility.yul\":12701:12742   */\n      swap2\n      pop\n        /* \"#utility.yul\":12891:12892   */\n      dup3\n        /* \"#utility.yul\":12882:12889   */\n      dup3\n        /* \"#utility.yul\":12878:12893   */\n      div\n        /* \"#utility.yul\":12875:12876   */\n      dup5\n        /* \"#utility.yul\":12872:12894   */\n      eq\n        /* \"#utility.yul\":12852:12853   */\n      dup4\n        /* \"#utility.yul\":12845:12854   */\n      iszero\n        /* \"#utility.yul\":12825:12908   */\n      or\n        /* \"#utility.yul\":12802:12941   */\n      tag_259\n      jumpi\n        /* \"#utility.yul\":12921:12939   */\n      tag_260\n      tag_111\n      jump\t// in\n    tag_260:\n        /* \"#utility.yul\":12802:12941   */\n    tag_259:\n        /* \"#utility.yul\":12586:12948   */\n      pop\n        /* \"#utility.yul\":12538:12948   */\n      swap3\n      swap2\n      pop\n      pop\n      jump\t// out\n        /* \"#utility.yul\":12954:13134   */\n    tag_117:\n        /* \"#utility.yul\":13002:13079   */\n      0x4e487b7100000000000000000000000000000000000000000000000000000000\n        /* \"#utility.yul\":12999:13000   */\n      0x00\n        /* \"#utility.yul\":12992:13080   */\n      mstore\n        /* \"#utility.yul\":13099:13103   */\n      0x12\n        /* \"#utility.yul\":13096:13097   */\n      0x04\n        /* \"#utility.yul\":13089:13104   */\n      mstore\n        /* \"#utility.yul\":13123:13127   */\n      0x24\n        /* \"#utility.yul\":13120:13121   */\n      0x00\n        /* \"#utility.yul\":13113:13128   */\n      revert\n        /* \"#utility.yul\":13140:13325   */\n    tag_69:\n        /* \"#utility.yul\":13180:13181   */\n      0x00\n        /* \"#utility.yul\":13197:13217   */\n      tag_263\n        /* \"#utility.yul\":13215:13216   */\n      dup3\n        /* \"#utility.yul\":13197:13217   */\n      tag_89\n      jump\t// in\n    tag_263:\n        /* \"#utility.yul\":13192:13217   */\n      swap2\n      pop\n        /* \"#utility.yul\":13231:13251   */\n      tag_264\n        /* \"#utility.yul\":13249:13250   */\n      dup4\n        /* \"#utility.yul\":13231:13251   */\n      tag_89\n      jump\t// in\n    tag_264:\n        /* \"#utility.yul\":13226:13251   */\n      swap3\n      pop\n        /* \"#utility.yul\":13270:13271   */\n      dup3\n        /* \"#utility.yul\":13260:13295   */\n      tag_265\n      jumpi\n        /* \"#utility.yul\":13275:13293   */\n      tag_266\n      tag_117\n      jump\t// in\n    tag_266:\n        /* \"#utility.yul\":13260:13295   */\n    tag_265:\n        /* \"#utility.yul\":13317:13318   */\n      dup3\n        /* \"#utility.yul\":13314:13315   */\n      dup3\n        /* \"#utility.yul\":13310:13319   */\n      div\n        /* \"#utility.yul\":13305:13319   */\n      swap1\n      pop\n        /* \"#utility.yul\":13140:13325   */\n      swap3\n      swap2\n      pop\n      pop\n      jump\t// out\n        /* \"#utility.yul\":13331:13552   */\n    tag_118:\n        /* \"#utility.yul\":13471:13505   */\n      0x6f6e65206f6620746865207573657273206973206e6f74207265676973746572\n        /* \"#utility.yul\":13467:13468   */\n      0x00\n        /* \"#utility.yul\":13459:13465   */\n      dup3\n        /* \"#utility.yul\":13455:13469   */\n      add\n        /* \"#utility.yul\":13448:13506   */\n      mstore\n        /* \"#utility.yul\":13540:13544   */\n      0x6564000000000000000000000000000000000000000000000000000000000000\n        /* \"#utility.yul\":13535:13537   */\n      0x20\n        /* \"#utility.yul\":13527:13533   */\n      dup3\n        /* \"#utility.yul\":13523:13538   */\n      add\n        /* \"#utility.yul\":13516:13545   */\n      mstore\n        /* \"#utility.yul\":13331:13552   */\n      pop\n      jump\t// out\n        /* \"#utility.yul\":13558:13924   */\n    tag_119:\n        /* \"#utility.yul\":13700:13703   */\n      0x00\n        /* \"#utility.yul\":13721:13788   */\n      tag_269\n        /* \"#utility.yul\":13785:13787   */\n      0x22\n        /* \"#utility.yul\":13780:13783   */\n      dup4\n        /* \"#utility.yul\":13721:13788   */\n      tag_104\n      jump\t// in\n    tag_269:\n        /* \"#utility.yul\":13714:13788   */\n      swap2\n      pop\n        /* \"#utility.yul\":13797:13890   */\n      tag_270\n        /* \"#utility.yul\":13886:13889   */\n      dup3\n        /* \"#utility.yul\":13797:13890   */\n      tag_118\n      jump\t// in\n    tag_270:\n        /* \"#utility.yul\":13915:13917   */\n      0x40\n        /* \"#utility.yul\":13910:13913   */\n      dup3\n        /* \"#utility.yul\":13906:13918   */\n      add\n        /* \"#utility.yul\":13899:13918   */\n      swap1\n      pop\n        /* \"#utility.yul\":13558:13924   */\n      swap2\n      swap1\n      pop\n      jump\t// out\n        /* \"#utility.yul\":13930:14349   */\n    tag_75:\n        /* \"#utility.yul\":14096:14100   */\n      0x00\n        /* \"#utility.yul\":14134:14136   */\n      0x20\n        /* \"#utility.yul\":14123:14132   */\n      dup3\n        /* \"#utility.yul\":14119:14137   */\n      add\n        /* \"#utility.yul\":14111:14137   */\n      swap1\n      pop\n        /* \"#utility.yul\":14183:14192   */\n      dup2\n        /* \"#utility.yul\":14177:14181   */\n      dup2\n        /* \"#utility.yul\":14173:14193   */\n      sub\n        /* \"#utility.yul\":14169:14170   */\n      0x00\n        /* \"#utility.yul\":14158:14167   */\n      dup4\n        /* \"#utility.yul\":14154:14171   */\n      add\n        /* \"#utility.yul\":14147:14194   */\n      mstore\n        /* \"#utility.yul\":14211:14342   */\n      tag_272\n        /* \"#utility.yul\":14337:14341   */\n      dup2\n        /* \"#utility.yul\":14211:14342   */\n      tag_119\n      jump\t// in\n    tag_272:\n        /* \"#utility.yul\":14203:14342   */\n      swap1\n      pop\n        /* \"#utility.yul\":13930:14349   */\n      swap2\n      swap1\n      pop\n      jump\t// out\n        /* \"#utility.yul\":14355:14530   */\n    tag_120:\n        /* \"#utility.yul\":14495:14522   */\n      0x7468652070726963652073686f756c642062652076616c696400000000000000\n        /* \"#utility.yul\":14491:14492   */\n      0x00\n        /* \"#utility.yul\":14483:14489   */\n      dup3\n        /* \"#utility.yul\":14479:14493   */\n      add\n        /* \"#utility.yul\":14472:14523   */\n      mstore\n        /* \"#utility.yul\":14355:14530   */\n      pop\n      jump\t// out\n        /* \"#utility.yul\":14536:14902   */\n    tag_121:\n        /* \"#utility.yul\":14678:14681   */\n      0x00\n        /* \"#utility.yul\":14699:14766   */\n      tag_275\n        /* \"#utility.yul\":14763:14765   */\n      0x19\n        /* \"#utility.yul\":14758:14761   */\n      dup4\n        /* \"#utility.yul\":14699:14766   */\n      tag_104\n      jump\t// in\n    tag_275:\n        /* \"#utility.yul\":14692:14766   */\n      swap2\n      pop\n        /* \"#utility.yul\":14775:14868   */\n      tag_276\n        /* \"#utility.yul\":14864:14867   */\n      dup3\n        /* \"#utility.yul\":14775:14868   */\n      tag_120\n      jump\t// in\n    tag_276:\n        /* \"#utility.yul\":14893:14895   */\n      0x20\n        /* \"#utility.yul\":14888:14891   */\n      dup3\n        /* \"#utility.yul\":14884:14896   */\n      add\n        /* \"#utility.yul\":14877:14896   */\n      swap1\n      pop\n        /* \"#utility.yul\":14536:14902   */\n      swap2\n      swap1\n      pop\n      jump\t// out\n        /* \"#utility.yul\":14908:15327   */\n    tag_78:\n        /* \"#utility.yul\":15074:15078   */\n      0x00\n        /* \"#utility.yul\":15112:15114   */\n      0x20\n        /* \"#utility.yul\":15101:15110   */\n      dup3\n        /* \"#utility.yul\":15097:15115   */\n      add\n        /* \"#utility.yul\":15089:15115   */\n      swap1\n      pop\n        /* \"#utility.yul\":15161:15170   */\n      dup2\n        /* \"#utility.yul\":15155:15159   */\n      dup2\n        /* \"#utility.yul\":15151:15171   */\n      sub\n        /* \"#utility.yul\":15147:15148   */\n      0x00\n        /* \"#utility.yul\":15136:15145   */\n      dup4\n        /* \"#utility.yul\":15132:15149   */\n      add\n        /* \"#utility.yul\":15125:15172   */\n      mstore\n        /* \"#utility.yul\":15189:15320   */\n      tag_278\n        /* \"#utility.yul\":15315:15319   */\n      dup2\n        /* \"#utility.yul\":15189:15320   */\n      tag_121\n      jump\t// in\n    tag_278:\n        /* \"#utility.yul\":15181:15320   */\n      swap1\n      pop\n        /* \"#utility.yul\":14908:15327   */\n      swap2\n      swap1\n      pop\n      jump\t// out\n        /* \"#utility.yul\":15333:15497   */\n    tag_122:\n        /* \"#utility.yul\":15473:15489   */\n      0x7573657273206172652073616d65000000000000000000000000000000000000\n        /* \"#utility.yul\":15469:15470   */\n      0x00\n        /* \"#utility.yul\":15461:15467   */\n      dup3\n        /* \"#utility.yul\":15457:15471   */\n      add\n        /* \"#utility.yul\":15450:15490   */\n      mstore\n        /* \"#utility.yul\":15333:15497   */\n      pop\n      jump\t// out\n        /* \"#utility.yul\":15503:15869   */\n    tag_123:\n        /* \"#utility.yul\":15645:15648   */\n      0x00\n        /* \"#utility.yul\":15666:15733   */\n      tag_281\n        /* \"#utility.yul\":15730:15732   */\n      0x0e\n        /* \"#utility.yul\":15725:15728   */\n      dup4\n        /* \"#utility.yul\":15666:15733   */\n      tag_104\n      jump\t// in\n    tag_281:\n        /* \"#utility.yul\":15659:15733   */\n      swap2\n      pop\n        /* \"#utility.yul\":15742:15835   */\n      tag_282\n        /* \"#utility.yul\":15831:15834   */\n      dup3\n        /* \"#utility.yul\":15742:15835   */\n      tag_122\n      jump\t// in\n    tag_282:\n        /* \"#utility.yul\":15860:15862   */\n      0x20\n        /* \"#utility.yul\":15855:15858   */\n      dup3\n        /* \"#utility.yul\":15851:15863   */\n      add\n        /* \"#utility.yul\":15844:15863   */\n      swap1\n      pop\n        /* \"#utility.yul\":15503:15869   */\n      swap2\n      swap1\n      pop\n      jump\t// out\n        /* \"#utility.yul\":15875:16294   */\n    tag_81:\n        /* \"#utility.yul\":16041:16045   */\n      0x00\n        /* \"#utility.yul\":16079:16081   */\n      0x20\n        /* \"#utility.yul\":16068:16077   */\n      dup3\n        /* \"#utility.yul\":16064:16082   */\n      add\n        /* \"#utility.yul\":16056:16082   */\n      swap1\n      pop\n        /* \"#utility.yul\":16128:16137   */\n      dup2\n        /* \"#utility.yul\":16122:16126   */\n      dup2\n        /* \"#utility.yul\":16118:16138   */\n      sub\n        /* \"#utility.yul\":16114:16115   */\n      0x00\n        /* \"#utility.yul\":16103:16112   */\n      dup4\n        /* \"#utility.yul\":16099:16116   */\n      add\n        /* \"#utility.yul\":16092:16139   */\n      mstore\n        /* \"#utility.yul\":16156:16287   */\n      tag_284\n        /* \"#utility.yul\":16282:16286   */\n      dup2\n        /* \"#utility.yul\":16156:16287   */\n      tag_123\n      jump\t// in\n    tag_284:\n        /* \"#utility.yul\":16148:16287   */\n      swap1\n      pop\n        /* \"#utility.yul\":15875:16294   */\n      swap2\n      swap1\n      pop\n      jump\t// out\n    stop\n    data_409e93cd1ed730715c18cba4caf24960c5904f17fed538fed7b13311d8e987cb 6974656d2077696c6c206265207368697070656420746f207468652062757965722773206c6f636174696f6e\n\n    auxdata: 0xa264697066735822122015e9e72ac67b113b3a01e5d7386cf26c84e195a0fa4a679042802bcf46763bcb64736f6c63430008150033\n}\n",
				"bytecode": {
					"linkReferences": {},
					"object": "608060405234801561000f575f80fd5b5060405161103038038061103083398181016040528101906100319190610075565b80600281905550506100a0565b5f80fd5b5f819050919050565b61005481610042565b811461005e575f80fd5b50565b5f8151905061006f8161004b565b92915050565b5f6020828403121561008a5761008961003e565b5b5f61009784828501610061565b91505092915050565b610f83806100ad5f395ff3fe608060405234801561000f575f80fd5b506004361061007b575f3560e01c80636d705ebb116100595780636d705ebb146100e7578063cae270b614610103578063ddca3f4314610133578063e3d670d7146101515761007b565b8063153e66e61461007f578063389dc09b1461009b5780633c247c72146100b7575b5f80fd5b6100996004803603810190610094919061076e565b610181565b005b6100b560048036038101906100b091906108fa565b610325565b005b6100d160048036038101906100cc9190610954565b61034c565b6040516100de91906109aa565b60405180910390f35b61010160048036038101906100fc91906109c3565b610379565b005b61011d6004803603810190610118919061076e565b610400565b60405161012a9190610a7b565b60405180910390f35b61013b6104d2565b60405161014891906109aa565b60405180910390f35b61016b60048036038101906101669190610a9b565b6104d8565b60405161017891906109aa565b60405180910390f35b5f805f8573ffffffffffffffffffffffffffffffffffffffff1673ffffffffffffffffffffffffffffffffffffffff1681526020019081526020015f2054116101ff576040517f08c379a00000000000000000000000000000000000000000000000000000000081526004016101f690610b10565b60405180910390fd5b5f8103610241576040517f08c379a000000000000000000000000000000000000000000000000000000000815260040161023890610b78565b60405180910390fd5b805f808573ffffffffffffffffffffffffffffffffffffffff1673ffffffffffffffffffffffffffffffffffffffff1681526020019081526020015f205f82825461028c9190610bc3565b92505081905550805f808473ffffffffffffffffffffffffffffffffffffffff1673ffffffffffffffffffffffffffffffffffffffff1681526020019081526020015f205f8282546102de9190610bf6565b925050819055507f640441567a63f93bb708d33df4fb558ccf2ec59f306cc74b9bed436c9354d20383838360405161031893929190610c38565b60405180910390a1505050565b806001836040516103369190610ca7565b9081526020016040518091039020819055505050565b6001818051602081018201805184825260208301602085012081835280955050505050505f915090505481565b5f81036103bb576040517f08c379a00000000000000000000000000000000000000000000000000000000081526004016103b290610d07565b60405180910390fd5b805f808473ffffffffffffffffffffffffffffffffffffffff1673ffffffffffffffffffffffffffffffffffffffff1681526020019081526020015f20819055505050565b606061040d8484846104ec565b50815f808673ffffffffffffffffffffffffffffffffffffffff1673ffffffffffffffffffffffffffffffffffffffff1681526020019081526020015f205f8282546104599190610bc3565b925050819055506064600254836104709190610d25565b61047a9190610d93565b5f803073ffffffffffffffffffffffffffffffffffffffff1673ffffffffffffffffffffffffffffffffffffffff1681526020019081526020015f205f8282546104c49190610bf6565b925050819055509392505050565b60025481565b5f602052805f5260405f205f915090505481565b60605f805f8673ffffffffffffffffffffffffffffffffffffffff1673ffffffffffffffffffffffffffffffffffffffff1681526020019081526020015f2054118061057357505f805f8573ffffffffffffffffffffffffffffffffffffffff1673ffffffffffffffffffffffffffffffffffffffff1681526020019081526020015f2054115b6105b2576040517f08c379a00000000000000000000000000000000000000000000000000000000081526004016105a990610e33565b60405180910390fd5b5f82116105f4576040517f08c379a00000000000000000000000000000000000000000000000000000000081526004016105eb90610e9b565b60405180910390fd5b5f808473ffffffffffffffffffffffffffffffffffffffff1673ffffffffffffffffffffffffffffffffffffffff1681526020019081526020015f20545f808673ffffffffffffffffffffffffffffffffffffffff1673ffffffffffffffffffffffffffffffffffffffff1681526020019081526020015f2054146106ae576040517f08c379a00000000000000000000000000000000000000000000000000000000081526004016106a590610f03565b60405180910390fd5b6040518060600160405280602c8152602001610f22602c913990509392505050565b5f604051905090565b5f80fd5b5f80fd5b5f73ffffffffffffffffffffffffffffffffffffffff82169050919050565b5f61070a826106e1565b9050919050565b61071a81610700565b8114610724575f80fd5b50565b5f8135905061073581610711565b92915050565b5f819050919050565b61074d8161073b565b8114610757575f80fd5b50565b5f8135905061076881610744565b92915050565b5f805f60608486031215610785576107846106d9565b5b5f61079286828701610727565b93505060206107a386828701610727565b92505060406107b48682870161075a565b9150509250925092565b5f80fd5b5f80fd5b5f601f19601f8301169050919050565b7f4e487b71000000000000000000000000000000000000000000000000000000005f52604160045260245ffd5b61080c826107c6565b810181811067ffffffffffffffff8211171561082b5761082a6107d6565b5b80604052505050565b5f61083d6106d0565b90506108498282610803565b919050565b5f67ffffffffffffffff821115610868576108676107d6565b5b610871826107c6565b9050602081019050919050565b828183375f83830152505050565b5f61089e6108998461084e565b610834565b9050828152602081018484840111156108ba576108b96107c2565b5b6108c584828561087e565b509392505050565b5f82601f8301126108e1576108e06107be565b5b81356108f184826020860161088c565b91505092915050565b5f80604083850312156109105761090f6106d9565b5b5f83013567ffffffffffffffff81111561092d5761092c6106dd565b5b610939858286016108cd565b925050602061094a8582860161075a565b9150509250929050565b5f60208284031215610969576109686106d9565b5b5f82013567ffffffffffffffff811115610986576109856106dd565b5b610992848285016108cd565b91505092915050565b6109a48161073b565b82525050565b5f6020820190506109bd5f83018461099b565b92915050565b5f80604083850312156109d9576109d86106d9565b5b5f6109e685828601610727565b92505060206109f78582860161075a565b9150509250929050565b5f81519050919050565b5f82825260208201905092915050565b5f5b83811015610a38578082015181840152602081019050610a1d565b5f8484015250505050565b5f610a4d82610a01565b610a578185610a0b565b9350610a67818560208601610a1b565b610a70816107c6565b840191505092915050565b5f6020820190508181035f830152610a938184610a43565b905092915050565b5f60208284031215610ab057610aaf6106d9565b5b5f610abd84828501610727565b91505092915050565b7f6163636f756e74206e6f742072656769737465726564000000000000000000005f82015250565b5f610afa601683610a0b565b9150610b0582610ac6565b602082019050919050565b5f6020820190508181035f830152610b2781610aee565b9050919050565b7f696e73657274656420616d6f756e742073686f756c642062652076616c6964005f82015250565b5f610b62601f83610a0b565b9150610b6d82610b2e565b602082019050919050565b5f6020820190508181035f830152610b8f81610b56565b9050919050565b7f4e487b71000000000000000000000000000000000000000000000000000000005f52601160045260245ffd5b5f610bcd8261073b565b9150610bd88361073b565b9250828203905081811115610bf057610bef610b96565b5b92915050565b5f610c008261073b565b9150610c0b8361073b565b9250828201905080821115610c2357610c22610b96565b5b92915050565b610c3281610700565b82525050565b5f606082019050610c4b5f830186610c29565b610c586020830185610c29565b610c65604083018461099b565b949350505050565b5f81905092915050565b5f610c8182610a01565b610c8b8185610c6d565b9350610c9b818560208601610a1b565b80840191505092915050565b5f610cb28284610c77565b915081905092915050565b7f42616c616e63652073686f756c642062652076616c69640000000000000000005f82015250565b5f610cf1601783610a0b565b9150610cfc82610cbd565b602082019050919050565b5f6020820190508181035f830152610d1e81610ce5565b9050919050565b5f610d2f8261073b565b9150610d3a8361073b565b9250828202610d488161073b565b91508282048414831517610d5f57610d5e610b96565b5b5092915050565b7f4e487b71000000000000000000000000000000000000000000000000000000005f52601260045260245ffd5b5f610d9d8261073b565b9150610da88361073b565b925082610db857610db7610d66565b5b828204905092915050565b7f6f6e65206f6620746865207573657273206973206e6f742072656769737465725f8201527f6564000000000000000000000000000000000000000000000000000000000000602082015250565b5f610e1d602283610a0b565b9150610e2882610dc3565b604082019050919050565b5f6020820190508181035f830152610e4a81610e11565b9050919050565b7f7468652070726963652073686f756c642062652076616c6964000000000000005f82015250565b5f610e85601983610a0b565b9150610e9082610e51565b602082019050919050565b5f6020820190508181035f830152610eb281610e79565b9050919050565b7f7573657273206172652073616d650000000000000000000000000000000000005f82015250565b5f610eed600e83610a0b565b9150610ef882610eb9565b602082019050919050565b5f6020820190508181035f830152610f1a81610ee1565b905091905056fe6974656d2077696c6c206265207368697070656420746f207468652062757965722773206c6f636174696f6ea264697066735822122015e9e72ac67b113b3a01e5d7386cf26c84e195a0fa4a679042802bcf46763bcb64736f6c63430008150033",
					"opcodes": "PUSH1 0x80 PUSH1 0x40 MSTORE CALLVALUE DUP1 ISZERO PUSH2 0xF JUMPI PUSH0 DUP1 REVERT JUMPDEST POP PUSH1 0x40 MLOAD PUSH2 0x1030 CODESIZE SUB DUP1 PUSH2 0x1030 DUP4 CODECOPY DUP2 DUP2 ADD PUSH1 0x40 MSTORE DUP2 ADD SWAP1 PUSH2 0x31 SWAP2 SWAP1 PUSH2 0x75 JUMP JUMPDEST DUP1 PUSH1 0x2 DUP2 SWAP1 SSTORE POP POP PUSH2 0xA0 JUMP JUMPDEST PUSH0 DUP1 REVERT JUMPDEST PUSH0 DUP2 SWAP1 POP SWAP2 SWAP1 POP JUMP JUMPDEST PUSH2 0x54 DUP2 PUSH2 0x42 JUMP JUMPDEST DUP2 EQ PUSH2 0x5E JUMPI PUSH0 DUP1 REVERT JUMPDEST POP JUMP JUMPDEST PUSH0 DUP2 MLOAD SWAP1 POP PUSH2 0x6F DUP2 PUSH2 0x4B JUMP JUMPDEST SWAP3 SWAP2 POP POP JUMP JUMPDEST PUSH0 PUSH1 0x20 DUP3 DUP5 SUB SLT ISZERO PUSH2 0x8A JUMPI PUSH2 0x89 PUSH2 0x3E JUMP JUMPDEST JUMPDEST PUSH0 PUSH2 0x97 DUP5 DUP3 DUP6 ADD PUSH2 0x61 JUMP JUMPDEST SWAP2 POP POP SWAP3 SWAP2 POP POP JUMP JUMPDEST PUSH2 0xF83 DUP1 PUSH2 0xAD PUSH0 CODECOPY PUSH0 RETURN INVALID PUSH1 0x80 PUSH1 0x40 MSTORE CALLVALUE DUP1 ISZERO PUSH2 0xF JUMPI PUSH0 DUP1 REVERT JUMPDEST POP PUSH1 0x4 CALLDATASIZE LT PUSH2 0x7B JUMPI PUSH0 CALLDATALOAD PUSH1 0xE0 SHR DUP1 PUSH4 0x6D705EBB GT PUSH2 0x59 JUMPI DUP1 PUSH4 0x6D705EBB EQ PUSH2 0xE7 JUMPI DUP1 PUSH4 0xCAE270B6 EQ PUSH2 0x103 JUMPI DUP1 PUSH4 0xDDCA3F43 EQ PUSH2 0x133 JUMPI DUP1 PUSH4 0xE3D670D7 EQ PUSH2 0x151 JUMPI PUSH2 0x7B JUMP JUMPDEST DUP1 PUSH4 0x153E66E6 EQ PUSH2 0x7F JUMPI DUP1 PUSH4 0x389DC09B EQ PUSH2 0x9B JUMPI DUP1 PUSH4 0x3C247C72 EQ PUSH2 0xB7 JUMPI JUMPDEST PUSH0 DUP1 REVERT JUMPDEST PUSH2 0x99 PUSH1 0x4 DUP1 CALLDATASIZE SUB DUP2 ADD SWAP1 PUSH2 0x94 SWAP2 SWAP1 PUSH2 0x76E JUMP JUMPDEST PUSH2 0x181 JUMP JUMPDEST STOP JUMPDEST PUSH2 0xB5 PUSH1 0x4 DUP1 CALLDATASIZE SUB DUP2 ADD SWAP1 PUSH2 0xB0 SWAP2 SWAP1 PUSH2 0x8FA JUMP JUMPDEST PUSH2 0x325 JUMP JUMPDEST STOP JUMPDEST PUSH2 0xD1 PUSH1 0x4 DUP1 CALLDATASIZE SUB DUP2 ADD SWAP1 PUSH2 0xCC SWAP2 SWAP1 PUSH2 0x954 JUMP JUMPDEST PUSH2 0x34C JUMP JUMPDEST PUSH1 0x40 MLOAD PUSH2 0xDE SWAP2 SWAP1 PUSH2 0x9AA JUMP JUMPDEST PUSH1 0x40 MLOAD DUP1 SWAP2 SUB SWAP1 RETURN JUMPDEST PUSH2 0x101 PUSH1 0x4 DUP1 CALLDATASIZE SUB DUP2 ADD SWAP1 PUSH2 0xFC SWAP2 SWAP1 PUSH2 0x9C3 JUMP JUMPDEST PUSH2 0x379 JUMP JUMPDEST STOP JUMPDEST PUSH2 0x11D PUSH1 0x4 DUP1 CALLDATASIZE SUB DUP2 ADD SWAP1 PUSH2 0x118 SWAP2 SWAP1 PUSH2 0x76E JUMP JUMPDEST PUSH2 0x400 JUMP JUMPDEST PUSH1 0x40 MLOAD PUSH2 0x12A SWAP2 SWAP1 PUSH2 0xA7B JUMP JUMPDEST PUSH1 0x40 MLOAD DUP1 SWAP2 SUB SWAP1 RETURN JUMPDEST PUSH2 0x13B PUSH2 0x4D2 JUMP JUMPDEST PUSH1 0x40 MLOAD PUSH2 0x148 SWAP2 SWAP1 PUSH2 0x9AA JUMP JUMPDEST PUSH1 0x40 MLOAD DUP1 SWAP2 SUB SWAP1 RETURN JUMPDEST PUSH2 0x16B PUSH1 0x4 DUP1 CALLDATASIZE SUB DUP2 ADD SWAP1 PUSH2 0x166 SWAP2 SWAP1 PUSH2 0xA9B JUMP JUMPDEST PUSH2 0x4D8 JUMP JUMPDEST PUSH1 0x40 MLOAD PUSH2 0x178 SWAP2 SWAP1 PUSH2 0x9AA JUMP JUMPDEST PUSH1 0x40 MLOAD DUP1 SWAP2 SUB SWAP1 RETURN JUMPDEST PUSH0 DUP1 PUSH0 DUP6 PUSH20 0xFFFFFFFFFFFFFFFFFFFFFFFFFFFFFFFFFFFFFFFF AND PUSH20 0xFFFFFFFFFFFFFFFFFFFFFFFFFFFFFFFFFFFFFFFF AND DUP2 MSTORE PUSH1 0x20 ADD SWAP1 DUP2 MSTORE PUSH1 0x20 ADD PUSH0 KECCAK256 SLOAD GT PUSH2 0x1FF JUMPI PUSH1 0x40 MLOAD PUSH32 0x8C379A000000000000000000000000000000000000000000000000000000000 DUP2 MSTORE PUSH1 0x4 ADD PUSH2 0x1F6 SWAP1 PUSH2 0xB10 JUMP JUMPDEST PUSH1 0x40 MLOAD DUP1 SWAP2 SUB SWAP1 REVERT JUMPDEST PUSH0 DUP2 SUB PUSH2 0x241 JUMPI PUSH1 0x40 MLOAD PUSH32 0x8C379A000000000000000000000000000000000000000000000000000000000 DUP2 MSTORE PUSH1 0x4 ADD PUSH2 0x238 SWAP1 PUSH2 0xB78 JUMP JUMPDEST PUSH1 0x40 MLOAD DUP1 SWAP2 SUB SWAP1 REVERT JUMPDEST DUP1 PUSH0 DUP1 DUP6 PUSH20 0xFFFFFFFFFFFFFFFFFFFFFFFFFFFFFFFFFFFFFFFF AND PUSH20 0xFFFFFFFFFFFFFFFFFFFFFFFFFFFFFFFFFFFFFFFF AND DUP2 MSTORE PUSH1 0x20 ADD SWAP1 DUP2 MSTORE PUSH1 0x20 ADD PUSH0 KECCAK256 PUSH0 DUP3 DUP3 SLOAD PUSH2 0x28C SWAP2 SWAP1 PUSH2 0xBC3 JUMP JUMPDEST SWAP3 POP POP DUP2 SWAP1 SSTORE POP DUP1 PUSH0 DUP1 DUP5 PUSH20 0xFFFFFFFFFFFFFFFFFFFFFFFFFFFFFFFFFFFFFFFF AND PUSH20 0xFFFFFFFFFFFFFFFFFFFFFFFFFFFFFFFFFFFFFFFF AND DUP2 MSTORE PUSH1 0x20 ADD SWAP1 DUP2 MSTORE PUSH1 0x20 ADD PUSH0 KECCAK256 PUSH0 DUP3 DUP3 SLOAD PUSH2 0x2DE SWAP2 SWAP1 PUSH2 0xBF6 JUMP JUMPDEST SWAP3 POP POP DUP2 SWAP1 SSTORE POP PUSH32 0x640441567A63F93BB708D33DF4FB558CCF2EC59F306CC74B9BED436C9354D203 DUP4 DUP4 DUP4 PUSH1 0x40 MLOAD PUSH2 0x318 SWAP4 SWAP3 SWAP2 SWAP1 PUSH2 0xC38 JUMP JUMPDEST PUSH1 0x40 MLOAD DUP1 SWAP2 SUB SWAP1 LOG1 POP POP POP JUMP JUMPDEST DUP1 PUSH1 0x1 DUP4 PUSH1 0x40 MLOAD PUSH2 0x336 SWAP2 SWAP1 PUSH2 0xCA7 JUMP JUMPDEST SWAP1 DUP2 MSTORE PUSH1 0x20 ADD PUSH1 0x40 MLOAD DUP1 SWAP2 SUB SWAP1 KECCAK256 DUP2 SWAP1 SSTORE POP POP POP JUMP JUMPDEST PUSH1 0x1 DUP2 DUP1 MLOAD PUSH1 0x20 DUP2 ADD DUP3 ADD DUP1 MLOAD DUP5 DUP3 MSTORE PUSH1 0x20 DUP4 ADD PUSH1 0x20 DUP6 ADD KECCAK256 DUP2 DUP4 MSTORE DUP1 SWAP6 POP POP POP POP POP POP PUSH0 SWAP2 POP SWAP1 POP SLOAD DUP2 JUMP JUMPDEST PUSH0 DUP2 SUB PUSH2 0x3BB JUMPI PUSH1 0x40 MLOAD PUSH32 0x8C379A000000000000000000000000000000000000000000000000000000000 DUP2 MSTORE PUSH1 0x4 ADD PUSH2 0x3B2 SWAP1 PUSH2 0xD07 JUMP JUMPDEST PUSH1 0x40 MLOAD DUP1 SWAP2 SUB SWAP1 REVERT JUMPDEST DUP1 PUSH0 DUP1 DUP5 PUSH20 0xFFFFFFFFFFFFFFFFFFFFFFFFFFFFFFFFFFFFFFFF AND PUSH20 0xFFFFFFFFFFFFFFFFFFFFFFFFFFFFFFFFFFFFFFFF AND DUP2 MSTORE PUSH1 0x20 ADD SWAP1 DUP2 MSTORE PUSH1 0x20 ADD PUSH0 KECCAK256 DUP2 SWAP1 SSTORE POP POP POP JUMP JUMPDEST PUSH1 0x60 PUSH2 0x40D DUP5 DUP5 DUP5 PUSH2 0x4EC JUMP JUMPDEST POP DUP2 PUSH0 DUP1 DUP7 PUSH20 0xFFFFFFFFFFFFFFFFFFFFFFFFFFFFFFFFFFFFFFFF AND PUSH20 0xFFFFFFFFFFFFFFFFFFFFFFFFFFFFFFFFFFFFFFFF AND DUP2 MSTORE PUSH1 0x20 ADD SWAP1 DUP2 MSTORE PUSH1 0x20 ADD PUSH0 KECCAK256 PUSH0 DUP3 DUP3 SLOAD PUSH2 0x459 SWAP2 SWAP1 PUSH2 0xBC3 JUMP JUMPDEST SWAP3 POP POP DUP2 SWAP1 SSTORE POP PUSH1 0x64 PUSH1 0x2 SLOAD DUP4 PUSH2 0x470 SWAP2 SWAP1 PUSH2 0xD25 JUMP JUMPDEST PUSH2 0x47A SWAP2 SWAP1 PUSH2 0xD93 JUMP JUMPDEST PUSH0 DUP1 ADDRESS PUSH20 0xFFFFFFFFFFFFFFFFFFFFFFFFFFFFFFFFFFFFFFFF AND PUSH20 0xFFFFFFFFFFFFFFFFFFFFFFFFFFFFFFFFFFFFFFFF AND DUP2 MSTORE PUSH1 0x20 ADD SWAP1 DUP2 MSTORE PUSH1 0x20 ADD PUSH0 KECCAK256 PUSH0 DUP3 DUP3 SLOAD PUSH2 0x4C4 SWAP2 SWAP1 PUSH2 0xBF6 JUMP JUMPDEST SWAP3 POP POP DUP2 SWAP1 SSTORE POP SWAP4 SWAP3 POP POP POP JUMP JUMPDEST PUSH1 0x2 SLOAD DUP2 JUMP JUMPDEST PUSH0 PUSH1 0x20 MSTORE DUP1 PUSH0 MSTORE PUSH1 0x40 PUSH0 KECCAK256 PUSH0 SWAP2 POP SWAP1 POP SLOAD DUP2 JUMP JUMPDEST PUSH1 0x60 PUSH0 DUP1 PUSH0 DUP7 PUSH20 0xFFFFFFFFFFFFFFFFFFFFFFFFFFFFFFFFFFFFFFFF AND PUSH20 0xFFFFFFFFFFFFFFFFFFFFFFFFFFFFFFFFFFFFFFFF AND DUP2 MSTORE PUSH1 0x20 ADD SWAP1 DUP2 MSTORE PUSH1 0x20 ADD PUSH0 KECCAK256 SLOAD GT DUP1 PUSH2 0x573 JUMPI POP PUSH0 DUP1 PUSH0 DUP6 PUSH20 0xFFFFFFFFFFFFFFFFFFFFFFFFFFFFFFFFFFFFFFFF AND PUSH20 0xFFFFFFFFFFFFFFFFFFFFFFFFFFFFFFFFFFFFFFFF AND DUP2 MSTORE PUSH1 0x20 ADD SWAP1 DUP2 MSTORE PUSH1 0x20 ADD PUSH0 KECCAK256 SLOAD GT JUMPDEST PUSH2 0x5B2 JUMPI PUSH1 0x40 MLOAD PUSH32 0x8C379A000000000000000000000000000000000000000000000000000000000 DUP2 MSTORE PUSH1 0x4 ADD PUSH2 0x5A9 SWAP1 PUSH2 0xE33 JUMP JUMPDEST PUSH1 0x40 MLOAD DUP1 SWAP2 SUB SWAP1 REVERT JUMPDEST PUSH0 DUP3 GT PUSH2 0x5F4 JUMPI PUSH1 0x40 MLOAD PUSH32 0x8C379A000000000000000000000000000000000000000000000000000000000 DUP2 MSTORE PUSH1 0x4 ADD PUSH2 0x5EB SWAP1 PUSH2 0xE9B JUMP JUMPDEST PUSH1 0x40 MLOAD DUP1 SWAP2 SUB SWAP1 REVERT JUMPDEST PUSH0 DUP1 DUP5 PUSH20 0xFFFFFFFFFFFFFFFFFFFFFFFFFFFFFFFFFFFFFFFF AND PUSH20 0xFFFFFFFFFFFFFFFFFFFFFFFFFFFFFFFFFFFFFFFF AND DUP2 MSTORE PUSH1 0x20 ADD SWAP1 DUP2 MSTORE PUSH1 0x20 ADD PUSH0 KECCAK256 SLOAD PUSH0 DUP1 DUP7 PUSH20 0xFFFFFFFFFFFFFFFFFFFFFFFFFFFFFFFFFFFFFFFF AND PUSH20 0xFFFFFFFFFFFFFFFFFFFFFFFFFFFFFFFFFFFFFFFF AND DUP2 MSTORE PUSH1 0x20 ADD SWAP1 DUP2 MSTORE PUSH1 0x20 ADD PUSH0 KECCAK256 SLOAD EQ PUSH2 0x6AE JUMPI PUSH1 0x40 MLOAD PUSH32 0x8C379A000000000000000000000000000000000000000000000000000000000 DUP2 MSTORE PUSH1 0x4 ADD PUSH2 0x6A5 SWAP1 PUSH2 0xF03 JUMP JUMPDEST PUSH1 0x40 MLOAD DUP1 SWAP2 SUB SWAP1 REVERT JUMPDEST PUSH1 0x40 MLOAD DUP1 PUSH1 0x60 ADD PUSH1 0x40 MSTORE DUP1 PUSH1 0x2C DUP2 MSTORE PUSH1 0x20 ADD PUSH2 0xF22 PUSH1 0x2C SWAP2 CODECOPY SWAP1 POP SWAP4 SWAP3 POP POP POP JUMP JUMPDEST PUSH0 PUSH1 0x40 MLOAD SWAP1 POP SWAP1 JUMP JUMPDEST PUSH0 DUP1 REVERT JUMPDEST PUSH0 DUP1 REVERT JUMPDEST PUSH0 PUSH20 0xFFFFFFFFFFFFFFFFFFFFFFFFFFFFFFFFFFFFFFFF DUP3 AND SWAP1 POP SWAP2 SWAP1 POP JUMP JUMPDEST PUSH0 PUSH2 0x70A DUP3 PUSH2 0x6E1 JUMP JUMPDEST SWAP1 POP SWAP2 SWAP1 POP JUMP JUMPDEST PUSH2 0x71A DUP2 PUSH2 0x700 JUMP JUMPDEST DUP2 EQ PUSH2 0x724 JUMPI PUSH0 DUP1 REVERT JUMPDEST POP JUMP JUMPDEST PUSH0 DUP2 CALLDATALOAD SWAP1 POP PUSH2 0x735 DUP2 PUSH2 0x711 JUMP JUMPDEST SWAP3 SWAP2 POP POP JUMP JUMPDEST PUSH0 DUP2 SWAP1 POP SWAP2 SWAP1 POP JUMP JUMPDEST PUSH2 0x74D DUP2 PUSH2 0x73B JUMP JUMPDEST DUP2 EQ PUSH2 0x757 JUMPI PUSH0 DUP1 REVERT JUMPDEST POP JUMP JUMPDEST PUSH0 DUP2 CALLDATALOAD SWAP1 POP PUSH2 0x768 DUP2 PUSH2 0x744 JUMP JUMPDEST SWAP3 SWAP2 POP POP JUMP JUMPDEST PUSH0 DUP1 PUSH0 PUSH1 0x60 DUP5 DUP7 SUB SLT ISZERO PUSH2 0x785 JUMPI PUSH2 0x784 PUSH2 0x6D9 JUMP JUMPDEST JUMPDEST PUSH0 PUSH2 0x792 DUP7 DUP3 DUP8 ADD PUSH2 0x727 JUMP JUMPDEST SWAP4 POP POP PUSH1 0x20 PUSH2 0x7A3 DUP7 DUP3 DUP8 ADD PUSH2 0x727 JUMP JUMPDEST SWAP3 POP POP PUSH1 0x40 PUSH2 0x7B4 DUP7 DUP3 DUP8 ADD PUSH2 0x75A JUMP JUMPDEST SWAP2 POP POP SWAP3 POP SWAP3 POP SWAP3 JUMP JUMPDEST PUSH0 DUP1 REVERT JUMPDEST PUSH0 DUP1 REVERT JUMPDEST PUSH0 PUSH1 0x1F NOT PUSH1 0x1F DUP4 ADD AND SWAP1 POP SWAP2 SWAP1 POP JUMP JUMPDEST PUSH32 0x4E487B7100000000000000000000000000000000000000000000000000000000 PUSH0 MSTORE PUSH1 0x41 PUSH1 0x4 MSTORE PUSH1 0x24 PUSH0 REVERT JUMPDEST PUSH2 0x80C DUP3 PUSH2 0x7C6 JUMP JUMPDEST DUP2 ADD DUP2 DUP2 LT PUSH8 0xFFFFFFFFFFFFFFFF DUP3 GT OR ISZERO PUSH2 0x82B JUMPI PUSH2 0x82A PUSH2 0x7D6 JUMP JUMPDEST JUMPDEST DUP1 PUSH1 0x40 MSTORE POP POP POP JUMP JUMPDEST PUSH0 PUSH2 0x83D PUSH2 0x6D0 JUMP JUMPDEST SWAP1 POP PUSH2 0x849 DUP3 DUP3 PUSH2 0x803 JUMP JUMPDEST SWAP2 SWAP1 POP JUMP JUMPDEST PUSH0 PUSH8 0xFFFFFFFFFFFFFFFF DUP3 GT ISZERO PUSH2 0x868 JUMPI PUSH2 0x867 PUSH2 0x7D6 JUMP JUMPDEST JUMPDEST PUSH2 0x871 DUP3 PUSH2 0x7C6 JUMP JUMPDEST SWAP1 POP PUSH1 0x20 DUP2 ADD SWAP1 POP SWAP2 SWAP1 POP JUMP JUMPDEST DUP3 DUP2 DUP4 CALLDATACOPY PUSH0 DUP4 DUP4 ADD MSTORE POP POP POP JUMP JUMPDEST PUSH0 PUSH2 0x89E PUSH2 0x899 DUP5 PUSH2 0x84E JUMP JUMPDEST PUSH2 0x834 JUMP JUMPDEST SWAP1 POP DUP3 DUP2 MSTORE PUSH1 0x20 DUP2 ADD DUP5 DUP5 DUP5 ADD GT ISZERO PUSH2 0x8BA JUMPI PUSH2 0x8B9 PUSH2 0x7C2 JUMP JUMPDEST JUMPDEST PUSH2 0x8C5 DUP5 DUP3 DUP6 PUSH2 0x87E JUMP JUMPDEST POP SWAP4 SWAP3 POP POP POP JUMP JUMPDEST PUSH0 DUP3 PUSH1 0x1F DUP4 ADD SLT PUSH2 0x8E1 JUMPI PUSH2 0x8E0 PUSH2 0x7BE JUMP JUMPDEST JUMPDEST DUP2 CALLDATALOAD PUSH2 0x8F1 DUP5 DUP3 PUSH1 0x20 DUP7 ADD PUSH2 0x88C JUMP JUMPDEST SWAP2 POP POP SWAP3 SWAP2 POP POP JUMP JUMPDEST PUSH0 DUP1 PUSH1 0x40 DUP4 DUP6 SUB SLT ISZERO PUSH2 0x910 JUMPI PUSH2 0x90F PUSH2 0x6D9 JUMP JUMPDEST JUMPDEST PUSH0 DUP4 ADD CALLDATALOAD PUSH8 0xFFFFFFFFFFFFFFFF DUP2 GT ISZERO PUSH2 0x92D JUMPI PUSH2 0x92C PUSH2 0x6DD JUMP JUMPDEST JUMPDEST PUSH2 0x939 DUP6 DUP3 DUP7 ADD PUSH2 0x8CD JUMP JUMPDEST SWAP3 POP POP PUSH1 0x20 PUSH2 0x94A DUP6 DUP3 DUP7 ADD PUSH2 0x75A JUMP JUMPDEST SWAP2 POP POP SWAP3 POP SWAP3 SWAP1 POP JUMP JUMPDEST PUSH0 PUSH1 0x20 DUP3 DUP5 SUB SLT ISZERO PUSH2 0x969 JUMPI PUSH2 0x968 PUSH2 0x6D9 JUMP JUMPDEST JUMPDEST PUSH0 DUP3 ADD CALLDATALOAD PUSH8 0xFFFFFFFFFFFFFFFF DUP2 GT ISZERO PUSH2 0x986 JUMPI PUSH2 0x985 PUSH2 0x6DD JUMP JUMPDEST JUMPDEST PUSH2 0x992 DUP5 DUP3 DUP6 ADD PUSH2 0x8CD JUMP JUMPDEST SWAP2 POP POP SWAP3 SWAP2 POP POP JUMP JUMPDEST PUSH2 0x9A4 DUP2 PUSH2 0x73B JUMP JUMPDEST DUP3 MSTORE POP POP JUMP JUMPDEST PUSH0 PUSH1 0x20 DUP3 ADD SWAP1 POP PUSH2 0x9BD PUSH0 DUP4 ADD DUP5 PUSH2 0x99B JUMP JUMPDEST SWAP3 SWAP2 POP POP JUMP JUMPDEST PUSH0 DUP1 PUSH1 0x40 DUP4 DUP6 SUB SLT ISZERO PUSH2 0x9D9 JUMPI PUSH2 0x9D8 PUSH2 0x6D9 JUMP JUMPDEST JUMPDEST PUSH0 PUSH2 0x9E6 DUP6 DUP3 DUP7 ADD PUSH2 0x727 JUMP JUMPDEST SWAP3 POP POP PUSH1 0x20 PUSH2 0x9F7 DUP6 DUP3 DUP7 ADD PUSH2 0x75A JUMP JUMPDEST SWAP2 POP POP SWAP3 POP SWAP3 SWAP1 POP JUMP JUMPDEST PUSH0 DUP2 MLOAD SWAP1 POP SWAP2 SWAP1 POP JUMP JUMPDEST PUSH0 DUP3 DUP3 MSTORE PUSH1 0x20 DUP3 ADD SWAP1 POP SWAP3 SWAP2 POP POP JUMP JUMPDEST PUSH0 JUMPDEST DUP4 DUP2 LT ISZERO PUSH2 0xA38 JUMPI DUP1 DUP3 ADD MLOAD DUP2 DUP5 ADD MSTORE PUSH1 0x20 DUP2 ADD SWAP1 POP PUSH2 0xA1D JUMP JUMPDEST PUSH0 DUP5 DUP5 ADD MSTORE POP POP POP POP JUMP JUMPDEST PUSH0 PUSH2 0xA4D DUP3 PUSH2 0xA01 JUMP JUMPDEST PUSH2 0xA57 DUP2 DUP6 PUSH2 0xA0B JUMP JUMPDEST SWAP4 POP PUSH2 0xA67 DUP2 DUP6 PUSH1 0x20 DUP7 ADD PUSH2 0xA1B JUMP JUMPDEST PUSH2 0xA70 DUP2 PUSH2 0x7C6 JUMP JUMPDEST DUP5 ADD SWAP2 POP POP SWAP3 SWAP2 POP POP JUMP JUMPDEST PUSH0 PUSH1 0x20 DUP3 ADD SWAP1 POP DUP2 DUP2 SUB PUSH0 DUP4 ADD MSTORE PUSH2 0xA93 DUP2 DUP5 PUSH2 0xA43 JUMP JUMPDEST SWAP1 POP SWAP3 SWAP2 POP POP JUMP JUMPDEST PUSH0 PUSH1 0x20 DUP3 DUP5 SUB SLT ISZERO PUSH2 0xAB0 JUMPI PUSH2 0xAAF PUSH2 0x6D9 JUMP JUMPDEST JUMPDEST PUSH0 PUSH2 0xABD DUP5 DUP3 DUP6 ADD PUSH2 0x727 JUMP JUMPDEST SWAP2 POP POP SWAP3 SWAP2 POP POP JUMP JUMPDEST PUSH32 0x6163636F756E74206E6F74207265676973746572656400000000000000000000 PUSH0 DUP3 ADD MSTORE POP JUMP JUMPDEST PUSH0 PUSH2 0xAFA PUSH1 0x16 DUP4 PUSH2 0xA0B JUMP JUMPDEST SWAP2 POP PUSH2 0xB05 DUP3 PUSH2 0xAC6 JUMP JUMPDEST PUSH1 0x20 DUP3 ADD SWAP1 POP SWAP2 SWAP1 POP JUMP JUMPDEST PUSH0 PUSH1 0x20 DUP3 ADD SWAP1 POP DUP2 DUP2 SUB PUSH0 DUP4 ADD MSTORE PUSH2 0xB27 DUP2 PUSH2 0xAEE JUMP JUMPDEST SWAP1 POP SWAP2 SWAP1 POP JUMP JUMPDEST PUSH32 0x696E73657274656420616D6F756E742073686F756C642062652076616C696400 PUSH0 DUP3 ADD MSTORE POP JUMP JUMPDEST PUSH0 PUSH2 0xB62 PUSH1 0x1F DUP4 PUSH2 0xA0B JUMP JUMPDEST SWAP2 POP PUSH2 0xB6D DUP3 PUSH2 0xB2E JUMP JUMPDEST PUSH1 0x20 DUP3 ADD SWAP1 POP SWAP2 SWAP1 POP JUMP JUMPDEST PUSH0 PUSH1 0x20 DUP3 ADD SWAP1 POP DUP2 DUP2 SUB PUSH0 DUP4 ADD MSTORE PUSH2 0xB8F DUP2 PUSH2 0xB56 JUMP JUMPDEST SWAP1 POP SWAP2 SWAP1 POP JUMP JUMPDEST PUSH32 0x4E487B7100000000000000000000000000000000000000000000000000000000 PUSH0 MSTORE PUSH1 0x11 PUSH1 0x4 MSTORE PUSH1 0x24 PUSH0 REVERT JUMPDEST PUSH0 PUSH2 0xBCD DUP3 PUSH2 0x73B JUMP JUMPDEST SWAP2 POP PUSH2 0xBD8 DUP4 PUSH2 0x73B JUMP JUMPDEST SWAP3 POP DUP3 DUP3 SUB SWAP1 POP DUP2 DUP2 GT ISZERO PUSH2 0xBF0 JUMPI PUSH2 0xBEF PUSH2 0xB96 JUMP JUMPDEST JUMPDEST SWAP3 SWAP2 POP POP JUMP JUMPDEST PUSH0 PUSH2 0xC00 DUP3 PUSH2 0x73B JUMP JUMPDEST SWAP2 POP PUSH2 0xC0B DUP4 PUSH2 0x73B JUMP JUMPDEST SWAP3 POP DUP3 DUP3 ADD SWAP1 POP DUP1 DUP3 GT ISZERO PUSH2 0xC23 JUMPI PUSH2 0xC22 PUSH2 0xB96 JUMP JUMPDEST JUMPDEST SWAP3 SWAP2 POP POP JUMP JUMPDEST PUSH2 0xC32 DUP2 PUSH2 0x700 JUMP JUMPDEST DUP3 MSTORE POP POP JUMP JUMPDEST PUSH0 PUSH1 0x60 DUP3 ADD SWAP1 POP PUSH2 0xC4B PUSH0 DUP4 ADD DUP7 PUSH2 0xC29 JUMP JUMPDEST PUSH2 0xC58 PUSH1 0x20 DUP4 ADD DUP6 PUSH2 0xC29 JUMP JUMPDEST PUSH2 0xC65 PUSH1 0x40 DUP4 ADD DUP5 PUSH2 0x99B JUMP JUMPDEST SWAP5 SWAP4 POP POP POP POP JUMP JUMPDEST PUSH0 DUP2 SWAP1 POP SWAP3 SWAP2 POP POP JUMP JUMPDEST PUSH0 PUSH2 0xC81 DUP3 PUSH2 0xA01 JUMP JUMPDEST PUSH2 0xC8B DUP2 DUP6 PUSH2 0xC6D JUMP JUMPDEST SWAP4 POP PUSH2 0xC9B DUP2 DUP6 PUSH1 0x20 DUP7 ADD PUSH2 0xA1B JUMP JUMPDEST DUP1 DUP5 ADD SWAP2 POP POP SWAP3 SWAP2 POP POP JUMP JUMPDEST PUSH0 PUSH2 0xCB2 DUP3 DUP5 PUSH2 0xC77 JUMP JUMPDEST SWAP2 POP DUP2 SWAP1 POP SWAP3 SWAP2 POP POP JUMP JUMPDEST PUSH32 0x42616C616E63652073686F756C642062652076616C6964000000000000000000 PUSH0 DUP3 ADD MSTORE POP JUMP JUMPDEST PUSH0 PUSH2 0xCF1 PUSH1 0x17 DUP4 PUSH2 0xA0B JUMP JUMPDEST SWAP2 POP PUSH2 0xCFC DUP3 PUSH2 0xCBD JUMP JUMPDEST PUSH1 0x20 DUP3 ADD SWAP1 POP SWAP2 SWAP1 POP JUMP JUMPDEST PUSH0 PUSH1 0x20 DUP3 ADD SWAP1 POP DUP2 DUP2 SUB PUSH0 DUP4 ADD MSTORE PUSH2 0xD1E DUP2 PUSH2 0xCE5 JUMP JUMPDEST SWAP1 POP SWAP2 SWAP1 POP JUMP JUMPDEST PUSH0 PUSH2 0xD2F DUP3 PUSH2 0x73B JUMP JUMPDEST SWAP2 POP PUSH2 0xD3A DUP4 PUSH2 0x73B JUMP JUMPDEST SWAP3 POP DUP3 DUP3 MUL PUSH2 0xD48 DUP2 PUSH2 0x73B JUMP JUMPDEST SWAP2 POP DUP3 DUP3 DIV DUP5 EQ DUP4 ISZERO OR PUSH2 0xD5F JUMPI PUSH2 0xD5E PUSH2 0xB96 JUMP JUMPDEST JUMPDEST POP SWAP3 SWAP2 POP POP JUMP JUMPDEST PUSH32 0x4E487B7100000000000000000000000000000000000000000000000000000000 PUSH0 MSTORE PUSH1 0x12 PUSH1 0x4 MSTORE PUSH1 0x24 PUSH0 REVERT JUMPDEST PUSH0 PUSH2 0xD9D DUP3 PUSH2 0x73B JUMP JUMPDEST SWAP2 POP PUSH2 0xDA8 DUP4 PUSH2 0x73B JUMP JUMPDEST SWAP3 POP DUP3 PUSH2 0xDB8 JUMPI PUSH2 0xDB7 PUSH2 0xD66 JUMP JUMPDEST JUMPDEST DUP3 DUP3 DIV SWAP1 POP SWAP3 SWAP2 POP POP JUMP JUMPDEST PUSH32 0x6F6E65206F6620746865207573657273206973206E6F74207265676973746572 PUSH0 DUP3 ADD MSTORE PUSH32 0x6564000000000000000000000000000000000000000000000000000000000000 PUSH1 0x20 DUP3 ADD MSTORE POP JUMP JUMPDEST PUSH0 PUSH2 0xE1D PUSH1 0x22 DUP4 PUSH2 0xA0B JUMP JUMPDEST SWAP2 POP PUSH2 0xE28 DUP3 PUSH2 0xDC3 JUMP JUMPDEST PUSH1 0x40 DUP3 ADD SWAP1 POP SWAP2 SWAP1 POP JUMP JUMPDEST PUSH0 PUSH1 0x20 DUP3 ADD SWAP1 POP DUP2 DUP2 SUB PUSH0 DUP4 ADD MSTORE PUSH2 0xE4A DUP2 PUSH2 0xE11 JUMP JUMPDEST SWAP1 POP SWAP2 SWAP1 POP JUMP JUMPDEST PUSH32 0x7468652070726963652073686F756C642062652076616C696400000000000000 PUSH0 DUP3 ADD MSTORE POP JUMP JUMPDEST PUSH0 PUSH2 0xE85 PUSH1 0x19 DUP4 PUSH2 0xA0B JUMP JUMPDEST SWAP2 POP PUSH2 0xE90 DUP3 PUSH2 0xE51 JUMP JUMPDEST PUSH1 0x20 DUP3 ADD SWAP1 POP SWAP2 SWAP1 POP JUMP JUMPDEST PUSH0 PUSH1 0x20 DUP3 ADD SWAP1 POP DUP2 DUP2 SUB PUSH0 DUP4 ADD MSTORE PUSH2 0xEB2 DUP2 PUSH2 0xE79 JUMP JUMPDEST SWAP1 POP SWAP2 SWAP1 POP JUMP JUMPDEST PUSH32 0x7573657273206172652073616D65000000000000000000000000000000000000 PUSH0 DUP3 ADD MSTORE POP JUMP JUMPDEST PUSH0 PUSH2 0xEED PUSH1 0xE DUP4 PUSH2 0xA0B JUMP JUMPDEST SWAP2 POP PUSH2 0xEF8 DUP3 PUSH2 0xEB9 JUMP JUMPDEST PUSH1 0x20 DUP3 ADD SWAP1 POP SWAP2 SWAP1 POP JUMP JUMPDEST PUSH0 PUSH1 0x20 DUP3 ADD SWAP1 POP DUP2 DUP2 SUB PUSH0 DUP4 ADD MSTORE PUSH2 0xF1A DUP2 PUSH2 0xEE1 JUMP JUMPDEST SWAP1 POP SWAP2 SWAP1 POP JUMP INVALID PUSH10 0x74656D2077696C6C2062 PUSH6 0x207368697070 PUSH6 0x6420746F2074 PUSH9 0x652062757965722773 KECCAK256 PUSH13 0x6F636174696F6EA26469706673 PC 0x22 SLT KECCAK256 ISZERO 0xE9 0xE7 0x2A 0xC6 PUSH28 0x113B3A01E5D7386CF26C84E195A0FA4A679042802BCF46763BCB6473 PUSH16 0x6C634300081500330000000000000000 "
				},
				"gasEstimates": {
					"creation": {
						"codeDepositCost": "794200",
						"executionCost": "infinite",
						"totalCost": "infinite"
					},
					"external": {
						"balance(address)": "2867",
						"buy(address,address,uint256)": "infinite",
						"fee()": "2469",
						"item(string)": "infinite",
						"register(address,uint256)": "22844",
						"sell(address,address,uint256)": "infinite",
						"setItem(string,uint256)": "infinite"
					}
				},
				"methodIdentifiers": {
					"balance(address)": "e3d670d7",
					"buy(address,address,uint256)": "153e66e6",
					"fee()": "ddca3f43",
					"item(string)": "3c247c72",
					"register(address,uint256)": "6d705ebb",
					"sell(address,address,uint256)": "cae270b6",
					"setItem(string,uint256)": "389dc09b"
				}
			},
			"storageLayout": {
				"storage": [
					{
						"astId": 5,
						"contract": "Labs (August)/VisibilityxInhertance/Marketplace_18.sol:PremiumSeller",
						"label": "balance",
						"offset": 0,
						"slot": "0",
						"type": "t_mapping(t_address,t_uint256)"
					},
					{
						"astId": 82,
						"contract": "Labs (August)/VisibilityxInhertance/Marketplace_18.sol:PremiumSeller",
						"label": "item",
						"offset": 0,
						"slot": "1",
						"type": "t_mapping(t_string_memory_ptr,t_uint256)"
					},
					{
						"astId": 149,
						"contract": "Labs (August)/VisibilityxInhertance/Marketplace_18.sol:PremiumSeller",
						"label": "fee",
						"offset": 0,
						"slot": "2",
						"type": "t_uint256"
					}
				],
				"types": {
					"t_address": {
						"encoding": "inplace",
						"label": "address",
						"numberOfBytes": "20"
					},
					"t_mapping(t_address,t_uint256)": {
						"encoding": "mapping",
						"key": "t_address",
						"label": "mapping(address => uint256)",
						"numberOfBytes": "32",
						"value": "t_uint256"
					},
					"t_mapping(t_string_memory_ptr,t_uint256)": {
						"encoding": "mapping",
						"key": "t_string_memory_ptr",
						"label": "mapping(string => uint256)",
						"numberOfBytes": "32",
						"value": "t_uint256"
					},
					"t_string_memory_ptr": {
						"encoding": "bytes",
						"label": "string",
						"numberOfBytes": "32"
					},
					"t_uint256": {
						"encoding": "inplace",
						"label": "uint256",
						"numberOfBytes": "32"
					}
				}
			},
			"userdoc": {
				"kind": "user",
				"methods": {},
				"version": 1
			}
		}
	}
}