{
	"Labs (August)/mapping/final_08.sol": {
		"SRS": {
			"abi": [
				{
					"inputs": [],
					"name": "DepartmentAI",
					"outputs": [
						{
							"internalType": "uint256",
							"name": "",
							"type": "uint256"
						},
						{
							"internalType": "uint256",
							"name": "",
							"type": "uint256"
						},
						{
							"internalType": "uint256",
							"name": "",
							"type": "uint256"
						},
						{
							"internalType": "uint256",
							"name": "",
							"type": "uint256"
						}
					],
					"stateMutability": "view",
					"type": "function"
				},
				{
					"inputs": [
						{
							"internalType": "enum SRS.Department",
							"name": "",
							"type": "uint8"
						}
					],
					"name": "counts",
					"outputs": [
						{
							"internalType": "uint256",
							"name": "",
							"type": "uint256"
						}
					],
					"stateMutability": "view",
					"type": "function"
				},
				{
					"inputs": [
						{
							"internalType": "uint256",
							"name": "i",
							"type": "uint256"
						}
					],
					"name": "get",
					"outputs": [
						{
							"components": [
								{
									"internalType": "string",
									"name": "name",
									"type": "string"
								},
								{
									"internalType": "uint256",
									"name": "age",
									"type": "uint256"
								},
								{
									"internalType": "uint256",
									"name": "registration_date",
									"type": "uint256"
								},
								{
									"internalType": "enum SRS.Department",
									"name": "_department",
									"type": "uint8"
								},
								{
									"internalType": "enum SRS.Status",
									"name": "_status",
									"type": "uint8"
								},
								{
									"internalType": "uint256",
									"name": "MarksObtained",
									"type": "uint256"
								}
							],
							"internalType": "struct SRS.Student",
							"name": "",
							"type": "tuple"
						}
					],
					"stateMutability": "view",
					"type": "function"
				},
				{
					"inputs": [
						{
							"internalType": "uint256",
							"name": "i",
							"type": "uint256"
						}
					],
					"name": "getName",
					"outputs": [
						{
							"internalType": "string",
							"name": "",
							"type": "string"
						}
					],
					"stateMutability": "view",
					"type": "function"
				},
				{
					"inputs": [
						{
							"internalType": "string",
							"name": "name",
							"type": "string"
						},
						{
							"internalType": "uint256",
							"name": "age",
							"type": "uint256"
						},
						{
							"internalType": "uint256",
							"name": "rollnumber",
							"type": "uint256"
						},
						{
							"internalType": "uint256",
							"name": "registration_date",
							"type": "uint256"
						},
						{
							"internalType": "enum SRS.Department",
							"name": "_department",
							"type": "uint8"
						},
						{
							"internalType": "enum SRS.Status",
							"name": "_status",
							"type": "uint8"
						},
						{
							"internalType": "uint256",
							"name": "MarksObtained",
							"type": "uint256"
						}
					],
					"name": "register",
					"outputs": [],
					"stateMutability": "nonpayable",
					"type": "function"
				},
				{
					"inputs": [
						{
							"internalType": "uint256",
							"name": "",
							"type": "uint256"
						}
					],
					"name": "stuRoll",
					"outputs": [
						{
							"internalType": "string",
							"name": "name",
							"type": "string"
						},
						{
							"internalType": "uint256",
							"name": "age",
							"type": "uint256"
						},
						{
							"internalType": "uint256",
							"name": "registration_date",
							"type": "uint256"
						},
						{
							"internalType": "enum SRS.Department",
							"name": "_department",
							"type": "uint8"
						},
						{
							"internalType": "enum SRS.Status",
							"name": "_status",
							"type": "uint8"
						},
						{
							"internalType": "uint256",
							"name": "MarksObtained",
							"type": "uint256"
						}
					],
					"stateMutability": "view",
					"type": "function"
				},
				{
					"inputs": [],
					"name": "topinBlock",
					"outputs": [
						{
							"components": [
								{
									"internalType": "string",
									"name": "name",
									"type": "string"
								},
								{
									"internalType": "uint256",
									"name": "age",
									"type": "uint256"
								},
								{
									"internalType": "uint256",
									"name": "registration_date",
									"type": "uint256"
								},
								{
									"internalType": "enum SRS.Department",
									"name": "_department",
									"type": "uint8"
								},
								{
									"internalType": "enum SRS.Status",
									"name": "_status",
									"type": "uint8"
								},
								{
									"internalType": "uint256",
									"name": "MarksObtained",
									"type": "uint256"
								}
							],
							"internalType": "struct SRS.Student",
							"name": "",
							"type": "tuple"
						},
						{
							"components": [
								{
									"internalType": "string",
									"name": "name",
									"type": "string"
								},
								{
									"internalType": "uint256",
									"name": "age",
									"type": "uint256"
								},
								{
									"internalType": "uint256",
									"name": "registration_date",
									"type": "uint256"
								},
								{
									"internalType": "enum SRS.Department",
									"name": "_department",
									"type": "uint8"
								},
								{
									"internalType": "enum SRS.Status",
									"name": "_status",
									"type": "uint8"
								},
								{
									"internalType": "uint256",
									"name": "MarksObtained",
									"type": "uint256"
								}
							],
							"internalType": "struct SRS.Student",
							"name": "",
							"type": "tuple"
						},
						{
							"components": [
								{
									"internalType": "string",
									"name": "name",
									"type": "string"
								},
								{
									"internalType": "uint256",
									"name": "age",
									"type": "uint256"
								},
								{
									"internalType": "uint256",
									"name": "registration_date",
									"type": "uint256"
								},
								{
									"internalType": "enum SRS.Department",
									"name": "_department",
									"type": "uint8"
								},
								{
									"internalType": "enum SRS.Status",
									"name": "_status",
									"type": "uint8"
								},
								{
									"internalType": "uint256",
									"name": "MarksObtained",
									"type": "uint256"
								}
							],
							"internalType": "struct SRS.Student",
							"name": "",
							"type": "tuple"
						}
					],
					"stateMutability": "view",
					"type": "function"
				},
				{
					"inputs": [
						{
							"internalType": "string",
							"name": "name",
							"type": "string"
						},
						{
							"internalType": "uint256",
							"name": "age",
							"type": "uint256"
						},
						{
							"internalType": "uint256",
							"name": "rollnumber",
							"type": "uint256"
						},
						{
							"internalType": "uint256",
							"name": "registration_date",
							"type": "uint256"
						},
						{
							"internalType": "enum SRS.Department",
							"name": "_department",
							"type": "uint8"
						},
						{
							"internalType": "enum SRS.Status",
							"name": "_status",
							"type": "uint8"
						},
						{
							"internalType": "uint256",
							"name": "MarksObtained",
							"type": "uint256"
						}
					],
					"name": "update",
					"outputs": [],
					"stateMutability": "nonpayable",
					"type": "function"
				}
			],
			"devdoc": {
				"kind": "dev",
				"methods": {},
				"version": 1
			},
			"evm": {
				"assembly": "    /* \"Labs (August)/mapping/final_08.sol\":61:2473  contract SRS{ //student registration system... */\n  mstore(0x40, 0x80)\n  callvalue\n  dup1\n  iszero\n  tag_1\n  jumpi\n  0x00\n  dup1\n  revert\ntag_1:\n  pop\n  dataSize(sub_0)\n  dup1\n  dataOffset(sub_0)\n  0x00\n  codecopy\n  0x00\n  return\nstop\n\nsub_0: assembly {\n        /* \"Labs (August)/mapping/final_08.sol\":61:2473  contract SRS{ //student registration system... */\n      mstore(0x40, 0x80)\n      callvalue\n      dup1\n      iszero\n      tag_1\n      jumpi\n      0x00\n      dup1\n      revert\n    tag_1:\n      pop\n      jumpi(tag_2, lt(calldatasize, 0x04))\n      shr(0xe0, calldataload(0x00))\n      dup1\n      0x9507d39a\n      gt\n      tag_11\n      jumpi\n      dup1\n      0x9507d39a\n      eq\n      tag_7\n      jumpi\n      dup1\n      0xa938f78d\n      eq\n      tag_8\n      jumpi\n      dup1\n      0xb52b4d50\n      eq\n      tag_9\n      jumpi\n      dup1\n      0xedb6f7e7\n      eq\n      tag_10\n      jumpi\n      jump(tag_2)\n    tag_11:\n      dup1\n      0x373bfc67\n      eq\n      tag_3\n      jumpi\n      dup1\n      0x45715674\n      eq\n      tag_4\n      jumpi\n      dup1\n      0x4a98f464\n      eq\n      tag_5\n      jumpi\n      dup1\n      0x6b8ff574\n      eq\n      tag_6\n      jumpi\n    tag_2:\n      0x00\n      dup1\n      revert\n        /* \"Labs (August)/mapping/final_08.sol\":529:569  mapping (uint => Student) public stuRoll */\n    tag_3:\n      tag_12\n      0x04\n      dup1\n      calldatasize\n      sub\n      dup2\n      add\n      swap1\n      tag_13\n      swap2\n      swap1\n      tag_14\n      jump\t// in\n    tag_13:\n      tag_15\n      jump\t// in\n    tag_12:\n      mload(0x40)\n      tag_16\n      swap7\n      swap6\n      swap5\n      swap4\n      swap3\n      swap2\n      swap1\n      tag_17\n      jump\t// in\n    tag_16:\n      mload(0x40)\n      dup1\n      swap2\n      sub\n      swap1\n      return\n        /* \"Labs (August)/mapping/final_08.sol\":709:1392  function register(... */\n    tag_4:\n      tag_18\n      0x04\n      dup1\n      calldatasize\n      sub\n      dup2\n      add\n      swap1\n      tag_19\n      swap2\n      swap1\n      tag_20\n      jump\t// in\n    tag_19:\n      tag_21\n      jump\t// in\n    tag_18:\n      stop\n        /* \"Labs (August)/mapping/final_08.sol\":2335:2464  function topinBlock() public view returns (Student memory,Student memory, Student memory){... */\n    tag_5:\n      tag_22\n      tag_23\n      jump\t// in\n    tag_22:\n      mload(0x40)\n      tag_24\n      swap4\n      swap3\n      swap2\n      swap1\n      tag_25\n      jump\t// in\n    tag_24:\n      mload(0x40)\n      dup1\n      swap2\n      sub\n      swap1\n      return\n        /* \"Labs (August)/mapping/final_08.sol\":1879:1980  function getName(uint i) public view returns (string memory){... */\n    tag_6:\n      tag_26\n      0x04\n      dup1\n      calldatasize\n      sub\n      dup2\n      add\n      swap1\n      tag_27\n      swap2\n      swap1\n      tag_14\n      jump\t// in\n    tag_27:\n      tag_28\n      jump\t// in\n    tag_26:\n      mload(0x40)\n      tag_29\n      swap2\n      swap1\n      tag_30\n      jump\t// in\n    tag_29:\n      mload(0x40)\n      dup1\n      swap2\n      sub\n      swap1\n      return\n        /* \"Labs (August)/mapping/final_08.sol\":1739:1832  function get(uint i) public view returns (Student memory){... */\n    tag_7:\n      tag_31\n      0x04\n      dup1\n      calldatasize\n      sub\n      dup2\n      add\n      swap1\n      tag_32\n      swap2\n      swap1\n      tag_14\n      jump\t// in\n    tag_32:\n      tag_33\n      jump\t// in\n    tag_31:\n      mload(0x40)\n      tag_34\n      swap2\n      swap1\n      tag_35\n      jump\t// in\n    tag_34:\n      mload(0x40)\n      dup1\n      swap2\n      sub\n      swap1\n      return\n        /* \"Labs (August)/mapping/final_08.sol\":1400:1731  function update(... */\n    tag_8:\n      tag_36\n      0x04\n      dup1\n      calldatasize\n      sub\n      dup2\n      add\n      swap1\n      tag_37\n      swap2\n      swap1\n      tag_20\n      jump\t// in\n    tag_37:\n      tag_38\n      jump\t// in\n    tag_36:\n      stop\n        /* \"Labs (August)/mapping/final_08.sol\":1988:2222  function DepartmentAI()public view returns (uint,uint,uint,uint){... */\n    tag_9:\n      tag_39\n      tag_40\n      jump\t// in\n    tag_39:\n      mload(0x40)\n      tag_41\n      swap5\n      swap4\n      swap3\n      swap2\n      swap1\n      tag_42\n      jump\t// in\n    tag_41:\n      mload(0x40)\n      dup1\n      swap2\n      sub\n      swap1\n      return\n        /* \"Labs (August)/mapping/final_08.sol\":576:618  mapping (Department => uint) public counts */\n    tag_10:\n      tag_43\n      0x04\n      dup1\n      calldatasize\n      sub\n      dup2\n      add\n      swap1\n      tag_44\n      swap2\n      swap1\n      tag_45\n      jump\t// in\n    tag_44:\n      tag_46\n      jump\t// in\n    tag_43:\n      mload(0x40)\n      tag_47\n      swap2\n      swap1\n      tag_48\n      jump\t// in\n    tag_47:\n      mload(0x40)\n      dup1\n      swap2\n      sub\n      swap1\n      return\n        /* \"Labs (August)/mapping/final_08.sol\":529:569  mapping (uint => Student) public stuRoll */\n    tag_15:\n      mstore(0x20, 0x00)\n      dup1\n      0x00\n      mstore\n      keccak256(0x00, 0x40)\n      0x00\n      swap2\n      pop\n      swap1\n      pop\n      dup1\n      0x00\n      add\n      dup1\n      sload\n      tag_49\n      swap1\n      tag_50\n      jump\t// in\n    tag_49:\n      dup1\n      0x1f\n      add\n      0x20\n      dup1\n      swap2\n      div\n      mul\n      0x20\n      add\n      mload(0x40)\n      swap1\n      dup2\n      add\n      0x40\n      mstore\n      dup1\n      swap3\n      swap2\n      swap1\n      dup2\n      dup2\n      mstore\n      0x20\n      add\n      dup3\n      dup1\n      sload\n      tag_51\n      swap1\n      tag_50\n      jump\t// in\n    tag_51:\n      dup1\n      iszero\n      tag_52\n      jumpi\n      dup1\n      0x1f\n      lt\n      tag_53\n      jumpi\n      0x0100\n      dup1\n      dup4\n      sload\n      div\n      mul\n      dup4\n      mstore\n      swap2\n      0x20\n      add\n      swap2\n      jump(tag_52)\n    tag_53:\n      dup3\n      add\n      swap2\n      swap1\n      0x00\n      mstore\n      keccak256(0x00, 0x20)\n      swap1\n    tag_54:\n      dup2\n      sload\n      dup2\n      mstore\n      swap1\n      0x01\n      add\n      swap1\n      0x20\n      add\n      dup1\n      dup4\n      gt\n      tag_54\n      jumpi\n      dup3\n      swap1\n      sub\n      0x1f\n      and\n      dup3\n      add\n      swap2\n    tag_52:\n      pop\n      pop\n      pop\n      pop\n      pop\n      swap1\n      dup1\n      0x01\n      add\n      sload\n      swap1\n      dup1\n      0x02\n      add\n      sload\n      swap1\n      dup1\n      0x03\n      add\n      0x00\n      swap1\n      sload\n      swap1\n      0x0100\n      exp\n      swap1\n      div\n      0xff\n      and\n      swap1\n      dup1\n      0x03\n      add\n      0x01\n      swap1\n      sload\n      swap1\n      0x0100\n      exp\n      swap1\n      div\n      0xff\n      and\n      swap1\n      dup1\n      0x04\n      add\n      sload\n      swap1\n      pop\n      dup7\n      jump\t// out\n        /* \"Labs (August)/mapping/final_08.sol\":709:1392  function register(... */\n    tag_21:\n        /* \"Labs (August)/mapping/final_08.sol\":968:1037  Student(name,age,registration_date,_department,_status,MarksObtained) */\n      mload(0x40)\n      dup1\n      0xc0\n      add\n      0x40\n      mstore\n      dup1\n        /* \"Labs (August)/mapping/final_08.sol\":976:980  name */\n      dup9\n        /* \"Labs (August)/mapping/final_08.sol\":968:1037  Student(name,age,registration_date,_department,_status,MarksObtained) */\n      dup2\n      mstore\n      0x20\n      add\n        /* \"Labs (August)/mapping/final_08.sol\":981:984  age */\n      dup8\n        /* \"Labs (August)/mapping/final_08.sol\":968:1037  Student(name,age,registration_date,_department,_status,MarksObtained) */\n      dup2\n      mstore\n      0x20\n      add\n        /* \"Labs (August)/mapping/final_08.sol\":985:1002  registration_date */\n      dup6\n        /* \"Labs (August)/mapping/final_08.sol\":968:1037  Student(name,age,registration_date,_department,_status,MarksObtained) */\n      dup2\n      mstore\n      0x20\n      add\n        /* \"Labs (August)/mapping/final_08.sol\":1003:1014  _department */\n      dup5\n        /* \"Labs (August)/mapping/final_08.sol\":968:1037  Student(name,age,registration_date,_department,_status,MarksObtained) */\n      0x03\n      dup2\n      gt\n      iszero\n      tag_56\n      jumpi\n      tag_57\n      tag_58\n      jump\t// in\n    tag_57:\n    tag_56:\n      dup2\n      mstore\n      0x20\n      add\n        /* \"Labs (August)/mapping/final_08.sol\":1015:1022  _status */\n      dup4\n        /* \"Labs (August)/mapping/final_08.sol\":968:1037  Student(name,age,registration_date,_department,_status,MarksObtained) */\n      0x03\n      dup2\n      gt\n      iszero\n      tag_59\n      jumpi\n      tag_60\n      tag_58\n      jump\t// in\n    tag_60:\n    tag_59:\n      dup2\n      mstore\n      0x20\n      add\n        /* \"Labs (August)/mapping/final_08.sol\":1023:1036  MarksObtained */\n      dup3\n        /* \"Labs (August)/mapping/final_08.sol\":968:1037  Student(name,age,registration_date,_department,_status,MarksObtained) */\n      dup2\n      mstore\n      pop\n        /* \"Labs (August)/mapping/final_08.sol\":946:953  stuRoll */\n      0x00\n        /* \"Labs (August)/mapping/final_08.sol\":946:965  stuRoll[rollnumber] */\n      dup1\n        /* \"Labs (August)/mapping/final_08.sol\":954:964  rollnumber */\n      dup8\n        /* \"Labs (August)/mapping/final_08.sol\":946:965  stuRoll[rollnumber] */\n      dup2\n      mstore\n      0x20\n      add\n      swap1\n      dup2\n      mstore\n      0x20\n      add\n      0x00\n      keccak256\n        /* \"Labs (August)/mapping/final_08.sol\":946:1037  stuRoll[rollnumber] = Student(name,age,registration_date,_department,_status,MarksObtained) */\n      0x00\n      dup3\n      add\n      mload\n      dup2\n      0x00\n      add\n      swap1\n      dup2\n      tag_61\n      swap2\n      swap1\n      tag_62\n      jump\t// in\n    tag_61:\n      pop\n      0x20\n      dup3\n      add\n      mload\n      dup2\n      0x01\n      add\n      sstore\n      0x40\n      dup3\n      add\n      mload\n      dup2\n      0x02\n      add\n      sstore\n      0x60\n      dup3\n      add\n      mload\n      dup2\n      0x03\n      add\n      exp(0x0100, 0x00)\n      dup2\n      sload\n      dup2\n      0xff\n      mul\n      not\n      and\n      swap1\n      dup4\n      0x03\n      dup2\n      gt\n      iszero\n      tag_63\n      jumpi\n      tag_64\n      tag_58\n      jump\t// in\n    tag_64:\n    tag_63:\n      mul\n      or\n      swap1\n      sstore\n      pop\n      0x80\n      dup3\n      add\n      mload\n      dup2\n      0x03\n      add\n      exp(0x0100, 0x01)\n      dup2\n      sload\n      dup2\n      0xff\n      mul\n      not\n      and\n      swap1\n      dup4\n      0x03\n      dup2\n      gt\n      iszero\n      tag_65\n      jumpi\n      tag_66\n      tag_58\n      jump\t// in\n    tag_66:\n    tag_65:\n      mul\n      or\n      swap1\n      sstore\n      pop\n      0xa0\n      dup3\n      add\n      mload\n      dup2\n      0x04\n      add\n      sstore\n      swap1\n      pop\n      pop\n        /* \"Labs (August)/mapping/final_08.sol\":1078:1079  0 */\n      0x00\n        /* \"Labs (August)/mapping/final_08.sol\":1067:1080  Department(0) */\n      0x03\n      dup2\n      gt\n      iszero\n      tag_67\n      jumpi\n      tag_68\n      tag_58\n      jump\t// in\n    tag_68:\n    tag_67:\n        /* \"Labs (August)/mapping/final_08.sol\":1053:1080  _department ==Department(0) */\n      0x03\n      dup2\n      gt\n      iszero\n      tag_69\n      jumpi\n      tag_70\n      tag_58\n      jump\t// in\n    tag_70:\n    tag_69:\n        /* \"Labs (August)/mapping/final_08.sol\":1053:1064  _department */\n      dup4\n        /* \"Labs (August)/mapping/final_08.sol\":1053:1080  _department ==Department(0) */\n      0x03\n      dup2\n      gt\n      iszero\n      tag_71\n      jumpi\n      tag_72\n      tag_58\n      jump\t// in\n    tag_72:\n    tag_71:\n      sub\n        /* \"Labs (August)/mapping/final_08.sol\":1050:1384  if(_department ==Department(0) ){... */\n      tag_73\n      jumpi\n        /* \"Labs (August)/mapping/final_08.sol\":1097:1103  counts */\n      0x01\n        /* \"Labs (August)/mapping/final_08.sol\":1097:1116  counts[_department] */\n      0x00\n        /* \"Labs (August)/mapping/final_08.sol\":1104:1115  _department */\n      dup5\n        /* \"Labs (August)/mapping/final_08.sol\":1097:1116  counts[_department] */\n      0x03\n      dup2\n      gt\n      iszero\n      tag_74\n      jumpi\n      tag_75\n      tag_58\n      jump\t// in\n    tag_75:\n    tag_74:\n      0x03\n      dup2\n      gt\n      iszero\n      tag_76\n      jumpi\n      tag_77\n      tag_58\n      jump\t// in\n    tag_77:\n    tag_76:\n      dup2\n      mstore\n      0x20\n      add\n      swap1\n      dup2\n      mstore\n      0x20\n      add\n      0x00\n      keccak256\n      0x00\n        /* \"Labs (August)/mapping/final_08.sol\":1097:1118  counts[_department]++ */\n      dup2\n      sload\n      dup1\n      swap3\n      swap2\n      swap1\n      tag_78\n      swap1\n      tag_79\n      jump\t// in\n    tag_78:\n      swap2\n      swap1\n      pop\n      sstore\n      pop\n        /* \"Labs (August)/mapping/final_08.sol\":1050:1384  if(_department ==Department(0) ){... */\n      jump(tag_80)\n    tag_73:\n        /* \"Labs (August)/mapping/final_08.sol\":1163:1164  1 */\n      0x01\n        /* \"Labs (August)/mapping/final_08.sol\":1152:1165  Department(1) */\n      0x03\n      dup2\n      gt\n      iszero\n      tag_81\n      jumpi\n      tag_82\n      tag_58\n      jump\t// in\n    tag_82:\n    tag_81:\n        /* \"Labs (August)/mapping/final_08.sol\":1138:1165  _department ==Department(1) */\n      0x03\n      dup2\n      gt\n      iszero\n      tag_83\n      jumpi\n      tag_84\n      tag_58\n      jump\t// in\n    tag_84:\n    tag_83:\n        /* \"Labs (August)/mapping/final_08.sol\":1138:1149  _department */\n      dup4\n        /* \"Labs (August)/mapping/final_08.sol\":1138:1165  _department ==Department(1) */\n      0x03\n      dup2\n      gt\n      iszero\n      tag_85\n      jumpi\n      tag_86\n      tag_58\n      jump\t// in\n    tag_86:\n    tag_85:\n      sub\n        /* \"Labs (August)/mapping/final_08.sol\":1135:1384  if(_department ==Department(1)){... */\n      tag_87\n      jumpi\n        /* \"Labs (August)/mapping/final_08.sol\":1181:1187  counts */\n      0x01\n        /* \"Labs (August)/mapping/final_08.sol\":1181:1200  counts[_department] */\n      0x00\n        /* \"Labs (August)/mapping/final_08.sol\":1188:1199  _department */\n      dup5\n        /* \"Labs (August)/mapping/final_08.sol\":1181:1200  counts[_department] */\n      0x03\n      dup2\n      gt\n      iszero\n      tag_88\n      jumpi\n      tag_89\n      tag_58\n      jump\t// in\n    tag_89:\n    tag_88:\n      0x03\n      dup2\n      gt\n      iszero\n      tag_90\n      jumpi\n      tag_91\n      tag_58\n      jump\t// in\n    tag_91:\n    tag_90:\n      dup2\n      mstore\n      0x20\n      add\n      swap1\n      dup2\n      mstore\n      0x20\n      add\n      0x00\n      keccak256\n      0x00\n        /* \"Labs (August)/mapping/final_08.sol\":1181:1202  counts[_department]++ */\n      dup2\n      sload\n      dup1\n      swap3\n      swap2\n      swap1\n      tag_92\n      swap1\n      tag_79\n      jump\t// in\n    tag_92:\n      swap2\n      swap1\n      pop\n      sstore\n      pop\n        /* \"Labs (August)/mapping/final_08.sol\":1135:1384  if(_department ==Department(1)){... */\n      jump(tag_93)\n    tag_87:\n        /* \"Labs (August)/mapping/final_08.sol\":1247:1248  2 */\n      0x02\n        /* \"Labs (August)/mapping/final_08.sol\":1236:1249  Department(2) */\n      0x03\n      dup2\n      gt\n      iszero\n      tag_94\n      jumpi\n      tag_95\n      tag_58\n      jump\t// in\n    tag_95:\n    tag_94:\n        /* \"Labs (August)/mapping/final_08.sol\":1222:1249  _department ==Department(2) */\n      0x03\n      dup2\n      gt\n      iszero\n      tag_96\n      jumpi\n      tag_97\n      tag_58\n      jump\t// in\n    tag_97:\n    tag_96:\n        /* \"Labs (August)/mapping/final_08.sol\":1222:1233  _department */\n      dup4\n        /* \"Labs (August)/mapping/final_08.sol\":1222:1249  _department ==Department(2) */\n      0x03\n      dup2\n      gt\n      iszero\n      tag_98\n      jumpi\n      tag_99\n      tag_58\n      jump\t// in\n    tag_99:\n    tag_98:\n      sub\n        /* \"Labs (August)/mapping/final_08.sol\":1219:1384  if(_department ==Department(2)){... */\n      tag_100\n      jumpi\n        /* \"Labs (August)/mapping/final_08.sol\":1265:1271  counts */\n      0x01\n        /* \"Labs (August)/mapping/final_08.sol\":1265:1284  counts[_department] */\n      0x00\n        /* \"Labs (August)/mapping/final_08.sol\":1272:1283  _department */\n      dup5\n        /* \"Labs (August)/mapping/final_08.sol\":1265:1284  counts[_department] */\n      0x03\n      dup2\n      gt\n      iszero\n      tag_101\n      jumpi\n      tag_102\n      tag_58\n      jump\t// in\n    tag_102:\n    tag_101:\n      0x03\n      dup2\n      gt\n      iszero\n      tag_103\n      jumpi\n      tag_104\n      tag_58\n      jump\t// in\n    tag_104:\n    tag_103:\n      dup2\n      mstore\n      0x20\n      add\n      swap1\n      dup2\n      mstore\n      0x20\n      add\n      0x00\n      keccak256\n      0x00\n        /* \"Labs (August)/mapping/final_08.sol\":1265:1286  counts[_department]++ */\n      dup2\n      sload\n      dup1\n      swap3\n      swap2\n      swap1\n      tag_105\n      swap1\n      tag_79\n      jump\t// in\n    tag_105:\n      swap2\n      swap1\n      pop\n      sstore\n      pop\n        /* \"Labs (August)/mapping/final_08.sol\":1219:1384  if(_department ==Department(2)){... */\n      jump(tag_106)\n    tag_100:\n        /* \"Labs (August)/mapping/final_08.sol\":1333:1334  3 */\n      0x03\n        /* \"Labs (August)/mapping/final_08.sol\":1322:1335  Department(3) */\n      dup1\n      dup2\n      gt\n      iszero\n      tag_107\n      jumpi\n      tag_108\n      tag_58\n      jump\t// in\n    tag_108:\n    tag_107:\n        /* \"Labs (August)/mapping/final_08.sol\":1307:1335  _department == Department(3) */\n      0x03\n      dup2\n      gt\n      iszero\n      tag_109\n      jumpi\n      tag_110\n      tag_58\n      jump\t// in\n    tag_110:\n    tag_109:\n        /* \"Labs (August)/mapping/final_08.sol\":1307:1318  _department */\n      dup4\n        /* \"Labs (August)/mapping/final_08.sol\":1307:1335  _department == Department(3) */\n      0x03\n      dup2\n      gt\n      iszero\n      tag_111\n      jumpi\n      tag_112\n      tag_58\n      jump\t// in\n    tag_112:\n    tag_111:\n      sub\n        /* \"Labs (August)/mapping/final_08.sol\":1304:1384  if(_department == Department(3)){... */\n      tag_113\n      jumpi\n        /* \"Labs (August)/mapping/final_08.sol\":1351:1357  counts */\n      0x01\n        /* \"Labs (August)/mapping/final_08.sol\":1351:1370  counts[_department] */\n      0x00\n        /* \"Labs (August)/mapping/final_08.sol\":1358:1369  _department */\n      dup5\n        /* \"Labs (August)/mapping/final_08.sol\":1351:1370  counts[_department] */\n      0x03\n      dup2\n      gt\n      iszero\n      tag_114\n      jumpi\n      tag_115\n      tag_58\n      jump\t// in\n    tag_115:\n    tag_114:\n      0x03\n      dup2\n      gt\n      iszero\n      tag_116\n      jumpi\n      tag_117\n      tag_58\n      jump\t// in\n    tag_117:\n    tag_116:\n      dup2\n      mstore\n      0x20\n      add\n      swap1\n      dup2\n      mstore\n      0x20\n      add\n      0x00\n      keccak256\n      0x00\n        /* \"Labs (August)/mapping/final_08.sol\":1351:1372  counts[_department]++ */\n      dup2\n      sload\n      dup1\n      swap3\n      swap2\n      swap1\n      tag_118\n      swap1\n      tag_79\n      jump\t// in\n    tag_118:\n      swap2\n      swap1\n      pop\n      sstore\n      pop\n        /* \"Labs (August)/mapping/final_08.sol\":1304:1384  if(_department == Department(3)){... */\n    tag_113:\n        /* \"Labs (August)/mapping/final_08.sol\":1219:1384  if(_department ==Department(2)){... */\n    tag_106:\n        /* \"Labs (August)/mapping/final_08.sol\":1135:1384  if(_department ==Department(1)){... */\n    tag_93:\n        /* \"Labs (August)/mapping/final_08.sol\":1050:1384  if(_department ==Department(0) ){... */\n    tag_80:\n        /* \"Labs (August)/mapping/final_08.sol\":709:1392  function register(... */\n      pop\n      pop\n      pop\n      pop\n      pop\n      pop\n      pop\n      jump\t// out\n        /* \"Labs (August)/mapping/final_08.sol\":2335:2464  function topinBlock() public view returns (Student memory,Student memory, Student memory){... */\n    tag_23:\n        /* \"Labs (August)/mapping/final_08.sol\":2378:2392  Student memory */\n      tag_119\n      tag_120\n      jump\t// in\n    tag_119:\n        /* \"Labs (August)/mapping/final_08.sol\":2393:2407  Student memory */\n      tag_121\n      tag_120\n      jump\t// in\n    tag_121:\n        /* \"Labs (August)/mapping/final_08.sol\":2409:2423  Student memory */\n      tag_122\n      tag_120\n      jump\t// in\n    tag_122:\n        /* \"Labs (August)/mapping/final_08.sol\":2335:2464  function topinBlock() public view returns (Student memory,Student memory, Student memory){... */\n      swap1\n      swap2\n      swap3\n      jump\t// out\n        /* \"Labs (August)/mapping/final_08.sol\":1879:1980  function getName(uint i) public view returns (string memory){... */\n    tag_28:\n        /* \"Labs (August)/mapping/final_08.sol\":1925:1938  string memory */\n      0x60\n        /* \"Labs (August)/mapping/final_08.sol\":1957:1964  stuRoll */\n      0x00\n        /* \"Labs (August)/mapping/final_08.sol\":1957:1967  stuRoll[i] */\n      dup1\n        /* \"Labs (August)/mapping/final_08.sol\":1965:1966  i */\n      dup4\n        /* \"Labs (August)/mapping/final_08.sol\":1957:1967  stuRoll[i] */\n      dup2\n      mstore\n      0x20\n      add\n      swap1\n      dup2\n      mstore\n      0x20\n      add\n      0x00\n      keccak256\n        /* \"Labs (August)/mapping/final_08.sol\":1957:1972  stuRoll[i].name */\n      0x00\n      add\n        /* \"Labs (August)/mapping/final_08.sol\":1950:1972  return stuRoll[i].name */\n      dup1\n      sload\n      tag_125\n      swap1\n      tag_50\n      jump\t// in\n    tag_125:\n      dup1\n      0x1f\n      add\n      0x20\n      dup1\n      swap2\n      div\n      mul\n      0x20\n      add\n      mload(0x40)\n      swap1\n      dup2\n      add\n      0x40\n      mstore\n      dup1\n      swap3\n      swap2\n      swap1\n      dup2\n      dup2\n      mstore\n      0x20\n      add\n      dup3\n      dup1\n      sload\n      tag_126\n      swap1\n      tag_50\n      jump\t// in\n    tag_126:\n      dup1\n      iszero\n      tag_127\n      jumpi\n      dup1\n      0x1f\n      lt\n      tag_128\n      jumpi\n      0x0100\n      dup1\n      dup4\n      sload\n      div\n      mul\n      dup4\n      mstore\n      swap2\n      0x20\n      add\n      swap2\n      jump(tag_127)\n    tag_128:\n      dup3\n      add\n      swap2\n      swap1\n      0x00\n      mstore\n      keccak256(0x00, 0x20)\n      swap1\n    tag_129:\n      dup2\n      sload\n      dup2\n      mstore\n      swap1\n      0x01\n      add\n      swap1\n      0x20\n      add\n      dup1\n      dup4\n      gt\n      tag_129\n      jumpi\n      dup3\n      swap1\n      sub\n      0x1f\n      and\n      dup3\n      add\n      swap2\n    tag_127:\n      pop\n      pop\n      pop\n      pop\n      pop\n      swap1\n      pop\n        /* \"Labs (August)/mapping/final_08.sol\":1879:1980  function getName(uint i) public view returns (string memory){... */\n      swap2\n      swap1\n      pop\n      jump\t// out\n        /* \"Labs (August)/mapping/final_08.sol\":1739:1832  function get(uint i) public view returns (Student memory){... */\n    tag_33:\n        /* \"Labs (August)/mapping/final_08.sol\":1781:1795  Student memory */\n      tag_130\n      tag_120\n      jump\t// in\n    tag_130:\n        /* \"Labs (August)/mapping/final_08.sol\":1814:1821  stuRoll */\n      0x00\n        /* \"Labs (August)/mapping/final_08.sol\":1814:1824  stuRoll[i] */\n      dup1\n        /* \"Labs (August)/mapping/final_08.sol\":1822:1823  i */\n      dup4\n        /* \"Labs (August)/mapping/final_08.sol\":1814:1824  stuRoll[i] */\n      dup2\n      mstore\n      0x20\n      add\n      swap1\n      dup2\n      mstore\n      0x20\n      add\n      0x00\n      keccak256\n        /* \"Labs (August)/mapping/final_08.sol\":1807:1824  return stuRoll[i] */\n      mload(0x40)\n      dup1\n      0xc0\n      add\n      0x40\n      mstore\n      swap1\n      dup2\n      0x00\n      dup3\n      add\n      dup1\n      sload\n      tag_132\n      swap1\n      tag_50\n      jump\t// in\n    tag_132:\n      dup1\n      0x1f\n      add\n      0x20\n      dup1\n      swap2\n      div\n      mul\n      0x20\n      add\n      mload(0x40)\n      swap1\n      dup2\n      add\n      0x40\n      mstore\n      dup1\n      swap3\n      swap2\n      swap1\n      dup2\n      dup2\n      mstore\n      0x20\n      add\n      dup3\n      dup1\n      sload\n      tag_133\n      swap1\n      tag_50\n      jump\t// in\n    tag_133:\n      dup1\n      iszero\n      tag_134\n      jumpi\n      dup1\n      0x1f\n      lt\n      tag_135\n      jumpi\n      0x0100\n      dup1\n      dup4\n      sload\n      div\n      mul\n      dup4\n      mstore\n      swap2\n      0x20\n      add\n      swap2\n      jump(tag_134)\n    tag_135:\n      dup3\n      add\n      swap2\n      swap1\n      0x00\n      mstore\n      keccak256(0x00, 0x20)\n      swap1\n    tag_136:\n      dup2\n      sload\n      dup2\n      mstore\n      swap1\n      0x01\n      add\n      swap1\n      0x20\n      add\n      dup1\n      dup4\n      gt\n      tag_136\n      jumpi\n      dup3\n      swap1\n      sub\n      0x1f\n      and\n      dup3\n      add\n      swap2\n    tag_134:\n      pop\n      pop\n      pop\n      pop\n      pop\n      dup2\n      mstore\n      0x20\n      add\n      0x01\n      dup3\n      add\n      sload\n      dup2\n      mstore\n      0x20\n      add\n      0x02\n      dup3\n      add\n      sload\n      dup2\n      mstore\n      0x20\n      add\n      0x03\n      dup3\n      add\n      0x00\n      swap1\n      sload\n      swap1\n      0x0100\n      exp\n      swap1\n      div\n      0xff\n      and\n      0x03\n      dup2\n      gt\n      iszero\n      tag_137\n      jumpi\n      tag_138\n      tag_58\n      jump\t// in\n    tag_138:\n    tag_137:\n      0x03\n      dup2\n      gt\n      iszero\n      tag_139\n      jumpi\n      tag_140\n      tag_58\n      jump\t// in\n    tag_140:\n    tag_139:\n      dup2\n      mstore\n      0x20\n      add\n      0x03\n      dup3\n      add\n      0x01\n      swap1\n      sload\n      swap1\n      0x0100\n      exp\n      swap1\n      div\n      0xff\n      and\n      0x03\n      dup2\n      gt\n      iszero\n      tag_141\n      jumpi\n      tag_142\n      tag_58\n      jump\t// in\n    tag_142:\n    tag_141:\n      0x03\n      dup2\n      gt\n      iszero\n      tag_143\n      jumpi\n      tag_144\n      tag_58\n      jump\t// in\n    tag_144:\n    tag_143:\n      dup2\n      mstore\n      0x20\n      add\n      0x04\n      dup3\n      add\n      sload\n      dup2\n      mstore\n      pop\n      pop\n      swap1\n      pop\n        /* \"Labs (August)/mapping/final_08.sol\":1739:1832  function get(uint i) public view returns (Student memory){... */\n      swap2\n      swap1\n      pop\n      jump\t// out\n        /* \"Labs (August)/mapping/final_08.sol\":1400:1731  function update(... */\n    tag_38:\n        /* \"Labs (August)/mapping/final_08.sol\":1650:1719  Student(name,age,registration_date,_department,_status,MarksObtained) */\n      mload(0x40)\n      dup1\n      0xc0\n      add\n      0x40\n      mstore\n      dup1\n        /* \"Labs (August)/mapping/final_08.sol\":1658:1662  name */\n      dup9\n        /* \"Labs (August)/mapping/final_08.sol\":1650:1719  Student(name,age,registration_date,_department,_status,MarksObtained) */\n      dup2\n      mstore\n      0x20\n      add\n        /* \"Labs (August)/mapping/final_08.sol\":1663:1666  age */\n      dup8\n        /* \"Labs (August)/mapping/final_08.sol\":1650:1719  Student(name,age,registration_date,_department,_status,MarksObtained) */\n      dup2\n      mstore\n      0x20\n      add\n        /* \"Labs (August)/mapping/final_08.sol\":1667:1684  registration_date */\n      dup6\n        /* \"Labs (August)/mapping/final_08.sol\":1650:1719  Student(name,age,registration_date,_department,_status,MarksObtained) */\n      dup2\n      mstore\n      0x20\n      add\n        /* \"Labs (August)/mapping/final_08.sol\":1685:1696  _department */\n      dup5\n        /* \"Labs (August)/mapping/final_08.sol\":1650:1719  Student(name,age,registration_date,_department,_status,MarksObtained) */\n      0x03\n      dup2\n      gt\n      iszero\n      tag_146\n      jumpi\n      tag_147\n      tag_58\n      jump\t// in\n    tag_147:\n    tag_146:\n      dup2\n      mstore\n      0x20\n      add\n        /* \"Labs (August)/mapping/final_08.sol\":1697:1704  _status */\n      dup4\n        /* \"Labs (August)/mapping/final_08.sol\":1650:1719  Student(name,age,registration_date,_department,_status,MarksObtained) */\n      0x03\n      dup2\n      gt\n      iszero\n      tag_148\n      jumpi\n      tag_149\n      tag_58\n      jump\t// in\n    tag_149:\n    tag_148:\n      dup2\n      mstore\n      0x20\n      add\n        /* \"Labs (August)/mapping/final_08.sol\":1705:1718  MarksObtained */\n      dup3\n        /* \"Labs (August)/mapping/final_08.sol\":1650:1719  Student(name,age,registration_date,_department,_status,MarksObtained) */\n      dup2\n      mstore\n      pop\n        /* \"Labs (August)/mapping/final_08.sol\":1628:1635  stuRoll */\n      0x00\n        /* \"Labs (August)/mapping/final_08.sol\":1628:1647  stuRoll[rollnumber] */\n      dup1\n        /* \"Labs (August)/mapping/final_08.sol\":1636:1646  rollnumber */\n      dup8\n        /* \"Labs (August)/mapping/final_08.sol\":1628:1647  stuRoll[rollnumber] */\n      dup2\n      mstore\n      0x20\n      add\n      swap1\n      dup2\n      mstore\n      0x20\n      add\n      0x00\n      keccak256\n        /* \"Labs (August)/mapping/final_08.sol\":1628:1719  stuRoll[rollnumber] = Student(name,age,registration_date,_department,_status,MarksObtained) */\n      0x00\n      dup3\n      add\n      mload\n      dup2\n      0x00\n      add\n      swap1\n      dup2\n      tag_150\n      swap2\n      swap1\n      tag_62\n      jump\t// in\n    tag_150:\n      pop\n      0x20\n      dup3\n      add\n      mload\n      dup2\n      0x01\n      add\n      sstore\n      0x40\n      dup3\n      add\n      mload\n      dup2\n      0x02\n      add\n      sstore\n      0x60\n      dup3\n      add\n      mload\n      dup2\n      0x03\n      add\n      exp(0x0100, 0x00)\n      dup2\n      sload\n      dup2\n      0xff\n      mul\n      not\n      and\n      swap1\n      dup4\n      0x03\n      dup2\n      gt\n      iszero\n      tag_151\n      jumpi\n      tag_152\n      tag_58\n      jump\t// in\n    tag_152:\n    tag_151:\n      mul\n      or\n      swap1\n      sstore\n      pop\n      0x80\n      dup3\n      add\n      mload\n      dup2\n      0x03\n      add\n      exp(0x0100, 0x01)\n      dup2\n      sload\n      dup2\n      0xff\n      mul\n      not\n      and\n      swap1\n      dup4\n      0x03\n      dup2\n      gt\n      iszero\n      tag_153\n      jumpi\n      tag_154\n      tag_58\n      jump\t// in\n    tag_154:\n    tag_153:\n      mul\n      or\n      swap1\n      sstore\n      pop\n      0xa0\n      dup3\n      add\n      mload\n      dup2\n      0x04\n      add\n      sstore\n      swap1\n      pop\n      pop\n        /* \"Labs (August)/mapping/final_08.sol\":1400:1731  function update(... */\n      pop\n      pop\n      pop\n      pop\n      pop\n      pop\n      pop\n      jump\t// out\n        /* \"Labs (August)/mapping/final_08.sol\":1988:2222  function DepartmentAI()public view returns (uint,uint,uint,uint){... */\n    tag_40:\n        /* \"Labs (August)/mapping/final_08.sol\":2032:2036  uint */\n      0x00\n        /* \"Labs (August)/mapping/final_08.sol\":2037:2041  uint */\n      dup1\n        /* \"Labs (August)/mapping/final_08.sol\":2042:2046  uint */\n      0x00\n        /* \"Labs (August)/mapping/final_08.sol\":2047:2051  uint */\n      dup1\n        /* \"Labs (August)/mapping/final_08.sol\":2071:2077  counts */\n      0x01\n        /* \"Labs (August)/mapping/final_08.sol\":2071:2092  counts[Department(0)] */\n      0x00\n        /* \"Labs (August)/mapping/final_08.sol\":2089:2090  0 */\n      dup1\n        /* \"Labs (August)/mapping/final_08.sol\":2078:2091  Department(0) */\n      0x03\n      dup2\n      gt\n      iszero\n      tag_156\n      jumpi\n      tag_157\n      tag_58\n      jump\t// in\n    tag_157:\n    tag_156:\n        /* \"Labs (August)/mapping/final_08.sol\":2071:2092  counts[Department(0)] */\n      0x03\n      dup2\n      gt\n      iszero\n      tag_158\n      jumpi\n      tag_159\n      tag_58\n      jump\t// in\n    tag_159:\n    tag_158:\n      0x03\n      dup2\n      gt\n      iszero\n      tag_160\n      jumpi\n      tag_161\n      tag_58\n      jump\t// in\n    tag_161:\n    tag_160:\n      dup2\n      mstore\n      0x20\n      add\n      swap1\n      dup2\n      mstore\n      0x20\n      add\n      0x00\n      keccak256\n      sload\n        /* \"Labs (August)/mapping/final_08.sol\":2111:2117  counts */\n      0x01\n        /* \"Labs (August)/mapping/final_08.sol\":2111:2132  counts[Department(1)] */\n      0x00\n        /* \"Labs (August)/mapping/final_08.sol\":2129:2130  1 */\n      0x01\n        /* \"Labs (August)/mapping/final_08.sol\":2118:2131  Department(1) */\n      0x03\n      dup2\n      gt\n      iszero\n      tag_162\n      jumpi\n      tag_163\n      tag_58\n      jump\t// in\n    tag_163:\n    tag_162:\n        /* \"Labs (August)/mapping/final_08.sol\":2111:2132  counts[Department(1)] */\n      0x03\n      dup2\n      gt\n      iszero\n      tag_164\n      jumpi\n      tag_165\n      tag_58\n      jump\t// in\n    tag_165:\n    tag_164:\n      0x03\n      dup2\n      gt\n      iszero\n      tag_166\n      jumpi\n      tag_167\n      tag_58\n      jump\t// in\n    tag_167:\n    tag_166:\n      dup2\n      mstore\n      0x20\n      add\n      swap1\n      dup2\n      mstore\n      0x20\n      add\n      0x00\n      keccak256\n      sload\n        /* \"Labs (August)/mapping/final_08.sol\":2151:2157  counts */\n      0x01\n        /* \"Labs (August)/mapping/final_08.sol\":2151:2172  counts[Department(2)] */\n      0x00\n        /* \"Labs (August)/mapping/final_08.sol\":2169:2170  2 */\n      0x02\n        /* \"Labs (August)/mapping/final_08.sol\":2158:2171  Department(2) */\n      0x03\n      dup2\n      gt\n      iszero\n      tag_168\n      jumpi\n      tag_169\n      tag_58\n      jump\t// in\n    tag_169:\n    tag_168:\n        /* \"Labs (August)/mapping/final_08.sol\":2151:2172  counts[Department(2)] */\n      0x03\n      dup2\n      gt\n      iszero\n      tag_170\n      jumpi\n      tag_171\n      tag_58\n      jump\t// in\n    tag_171:\n    tag_170:\n      0x03\n      dup2\n      gt\n      iszero\n      tag_172\n      jumpi\n      tag_173\n      tag_58\n      jump\t// in\n    tag_173:\n    tag_172:\n      dup2\n      mstore\n      0x20\n      add\n      swap1\n      dup2\n      mstore\n      0x20\n      add\n      0x00\n      keccak256\n      sload\n        /* \"Labs (August)/mapping/final_08.sol\":2191:2197  counts */\n      0x01\n        /* \"Labs (August)/mapping/final_08.sol\":2191:2212  counts[Department(3)] */\n      0x00\n        /* \"Labs (August)/mapping/final_08.sol\":2209:2210  3 */\n      0x03\n        /* \"Labs (August)/mapping/final_08.sol\":2198:2211  Department(3) */\n      dup1\n      dup2\n      gt\n      iszero\n      tag_174\n      jumpi\n      tag_175\n      tag_58\n      jump\t// in\n    tag_175:\n    tag_174:\n        /* \"Labs (August)/mapping/final_08.sol\":2191:2212  counts[Department(3)] */\n      0x03\n      dup2\n      gt\n      iszero\n      tag_176\n      jumpi\n      tag_177\n      tag_58\n      jump\t// in\n    tag_177:\n    tag_176:\n      0x03\n      dup2\n      gt\n      iszero\n      tag_178\n      jumpi\n      tag_179\n      tag_58\n      jump\t// in\n    tag_179:\n    tag_178:\n      dup2\n      mstore\n      0x20\n      add\n      swap1\n      dup2\n      mstore\n      0x20\n      add\n      0x00\n      keccak256\n      sload\n        /* \"Labs (August)/mapping/final_08.sol\":2063:2214  return (counts[Department(0)],... */\n      swap4\n      pop\n      swap4\n      pop\n      swap4\n      pop\n      swap4\n      pop\n        /* \"Labs (August)/mapping/final_08.sol\":1988:2222  function DepartmentAI()public view returns (uint,uint,uint,uint){... */\n      swap1\n      swap2\n      swap3\n      swap4\n      jump\t// out\n        /* \"Labs (August)/mapping/final_08.sol\":576:618  mapping (Department => uint) public counts */\n    tag_46:\n      mstore(0x20, 0x01)\n      dup1\n      0x00\n      mstore\n      keccak256(0x00, 0x40)\n      0x00\n      swap2\n      pop\n      swap1\n      pop\n      sload\n      dup2\n      jump\t// out\n    tag_120:\n      mload(0x40)\n      dup1\n      0xc0\n      add\n      0x40\n      mstore\n      dup1\n      0x60\n      dup2\n      mstore\n      0x20\n      add\n      0x00\n      dup2\n      mstore\n      0x20\n      add\n      0x00\n      dup2\n      mstore\n      0x20\n      add\n      0x00\n      0x03\n      dup2\n      gt\n      iszero\n      tag_180\n      jumpi\n      tag_181\n      tag_58\n      jump\t// in\n    tag_181:\n    tag_180:\n      dup2\n      mstore\n      0x20\n      add\n      0x00\n      0x03\n      dup2\n      gt\n      iszero\n      tag_182\n      jumpi\n      tag_183\n      tag_58\n      jump\t// in\n    tag_183:\n    tag_182:\n      dup2\n      mstore\n      0x20\n      add\n      0x00\n      dup2\n      mstore\n      pop\n      swap1\n      jump\t// out\n        /* \"#utility.yul\":7:82   */\n    tag_184:\n        /* \"#utility.yul\":40:46   */\n      0x00\n        /* \"#utility.yul\":73:75   */\n      0x40\n        /* \"#utility.yul\":67:76   */\n      mload\n        /* \"#utility.yul\":57:76   */\n      swap1\n      pop\n        /* \"#utility.yul\":7:82   */\n      swap1\n      jump\t// out\n        /* \"#utility.yul\":88:205   */\n    tag_185:\n        /* \"#utility.yul\":197:198   */\n      0x00\n        /* \"#utility.yul\":194:195   */\n      dup1\n        /* \"#utility.yul\":187:199   */\n      revert\n        /* \"#utility.yul\":211:328   */\n    tag_186:\n        /* \"#utility.yul\":320:321   */\n      0x00\n        /* \"#utility.yul\":317:318   */\n      dup1\n        /* \"#utility.yul\":310:322   */\n      revert\n        /* \"#utility.yul\":334:411   */\n    tag_187:\n        /* \"#utility.yul\":371:378   */\n      0x00\n        /* \"#utility.yul\":400:405   */\n      dup2\n        /* \"#utility.yul\":389:405   */\n      swap1\n      pop\n        /* \"#utility.yul\":334:411   */\n      swap2\n      swap1\n      pop\n      jump\t// out\n        /* \"#utility.yul\":417:539   */\n    tag_188:\n        /* \"#utility.yul\":490:514   */\n      tag_246\n        /* \"#utility.yul\":508:513   */\n      dup2\n        /* \"#utility.yul\":490:514   */\n      tag_187\n      jump\t// in\n    tag_246:\n        /* \"#utility.yul\":483:488   */\n      dup2\n        /* \"#utility.yul\":480:515   */\n      eq\n        /* \"#utility.yul\":470:533   */\n      tag_247\n      jumpi\n        /* \"#utility.yul\":529:530   */\n      0x00\n        /* \"#utility.yul\":526:527   */\n      dup1\n        /* \"#utility.yul\":519:531   */\n      revert\n        /* \"#utility.yul\":470:533   */\n    tag_247:\n        /* \"#utility.yul\":417:539   */\n      pop\n      jump\t// out\n        /* \"#utility.yul\":545:684   */\n    tag_189:\n        /* \"#utility.yul\":591:596   */\n      0x00\n        /* \"#utility.yul\":629:635   */\n      dup2\n        /* \"#utility.yul\":616:636   */\n      calldataload\n        /* \"#utility.yul\":607:636   */\n      swap1\n      pop\n        /* \"#utility.yul\":645:678   */\n      tag_249\n        /* \"#utility.yul\":672:677   */\n      dup2\n        /* \"#utility.yul\":645:678   */\n      tag_188\n      jump\t// in\n    tag_249:\n        /* \"#utility.yul\":545:684   */\n      swap3\n      swap2\n      pop\n      pop\n      jump\t// out\n        /* \"#utility.yul\":690:1019   */\n    tag_14:\n        /* \"#utility.yul\":749:755   */\n      0x00\n        /* \"#utility.yul\":798:800   */\n      0x20\n        /* \"#utility.yul\":786:795   */\n      dup3\n        /* \"#utility.yul\":777:784   */\n      dup5\n        /* \"#utility.yul\":773:796   */\n      sub\n        /* \"#utility.yul\":769:801   */\n      slt\n        /* \"#utility.yul\":766:885   */\n      iszero\n      tag_251\n      jumpi\n        /* \"#utility.yul\":804:883   */\n      tag_252\n      tag_185\n      jump\t// in\n    tag_252:\n        /* \"#utility.yul\":766:885   */\n    tag_251:\n        /* \"#utility.yul\":924:925   */\n      0x00\n        /* \"#utility.yul\":949:1002   */\n      tag_253\n        /* \"#utility.yul\":994:1001   */\n      dup5\n        /* \"#utility.yul\":985:991   */\n      dup3\n        /* \"#utility.yul\":974:983   */\n      dup6\n        /* \"#utility.yul\":970:992   */\n      add\n        /* \"#utility.yul\":949:1002   */\n      tag_189\n      jump\t// in\n    tag_253:\n        /* \"#utility.yul\":939:1002   */\n      swap2\n      pop\n        /* \"#utility.yul\":895:1012   */\n      pop\n        /* \"#utility.yul\":690:1019   */\n      swap3\n      swap2\n      pop\n      pop\n      jump\t// out\n        /* \"#utility.yul\":1025:1124   */\n    tag_190:\n        /* \"#utility.yul\":1077:1083   */\n      0x00\n        /* \"#utility.yul\":1111:1116   */\n      dup2\n        /* \"#utility.yul\":1105:1117   */\n      mload\n        /* \"#utility.yul\":1095:1117   */\n      swap1\n      pop\n        /* \"#utility.yul\":1025:1124   */\n      swap2\n      swap1\n      pop\n      jump\t// out\n        /* \"#utility.yul\":1130:1299   */\n    tag_191:\n        /* \"#utility.yul\":1214:1225   */\n      0x00\n        /* \"#utility.yul\":1248:1254   */\n      dup3\n        /* \"#utility.yul\":1243:1246   */\n      dup3\n        /* \"#utility.yul\":1236:1255   */\n      mstore\n        /* \"#utility.yul\":1288:1292   */\n      0x20\n        /* \"#utility.yul\":1283:1286   */\n      dup3\n        /* \"#utility.yul\":1279:1293   */\n      add\n        /* \"#utility.yul\":1264:1293   */\n      swap1\n      pop\n        /* \"#utility.yul\":1130:1299   */\n      swap3\n      swap2\n      pop\n      pop\n      jump\t// out\n        /* \"#utility.yul\":1305:1551   */\n    tag_192:\n        /* \"#utility.yul\":1386:1387   */\n      0x00\n        /* \"#utility.yul\":1396:1509   */\n    tag_257:\n        /* \"#utility.yul\":1410:1416   */\n      dup4\n        /* \"#utility.yul\":1407:1408   */\n      dup2\n        /* \"#utility.yul\":1404:1417   */\n      lt\n        /* \"#utility.yul\":1396:1509   */\n      iszero\n      tag_259\n      jumpi\n        /* \"#utility.yul\":1495:1496   */\n      dup1\n        /* \"#utility.yul\":1490:1493   */\n      dup3\n        /* \"#utility.yul\":1486:1497   */\n      add\n        /* \"#utility.yul\":1480:1498   */\n      mload\n        /* \"#utility.yul\":1476:1477   */\n      dup2\n        /* \"#utility.yul\":1471:1474   */\n      dup5\n        /* \"#utility.yul\":1467:1478   */\n      add\n        /* \"#utility.yul\":1460:1499   */\n      mstore\n        /* \"#utility.yul\":1432:1434   */\n      0x20\n        /* \"#utility.yul\":1429:1430   */\n      dup2\n        /* \"#utility.yul\":1425:1435   */\n      add\n        /* \"#utility.yul\":1420:1435   */\n      swap1\n      pop\n        /* \"#utility.yul\":1396:1509   */\n      jump(tag_257)\n    tag_259:\n        /* \"#utility.yul\":1543:1544   */\n      0x00\n        /* \"#utility.yul\":1534:1540   */\n      dup5\n        /* \"#utility.yul\":1529:1532   */\n      dup5\n        /* \"#utility.yul\":1525:1541   */\n      add\n        /* \"#utility.yul\":1518:1545   */\n      mstore\n        /* \"#utility.yul\":1367:1551   */\n      pop\n        /* \"#utility.yul\":1305:1551   */\n      pop\n      pop\n      pop\n      jump\t// out\n        /* \"#utility.yul\":1557:1659   */\n    tag_193:\n        /* \"#utility.yul\":1598:1604   */\n      0x00\n        /* \"#utility.yul\":1649:1651   */\n      0x1f\n        /* \"#utility.yul\":1645:1652   */\n      not\n        /* \"#utility.yul\":1640:1642   */\n      0x1f\n        /* \"#utility.yul\":1633:1638   */\n      dup4\n        /* \"#utility.yul\":1629:1643   */\n      add\n        /* \"#utility.yul\":1625:1653   */\n      and\n        /* \"#utility.yul\":1615:1653   */\n      swap1\n      pop\n        /* \"#utility.yul\":1557:1659   */\n      swap2\n      swap1\n      pop\n      jump\t// out\n        /* \"#utility.yul\":1665:2042   */\n    tag_194:\n        /* \"#utility.yul\":1753:1756   */\n      0x00\n        /* \"#utility.yul\":1781:1820   */\n      tag_262\n        /* \"#utility.yul\":1814:1819   */\n      dup3\n        /* \"#utility.yul\":1781:1820   */\n      tag_190\n      jump\t// in\n    tag_262:\n        /* \"#utility.yul\":1836:1907   */\n      tag_263\n        /* \"#utility.yul\":1900:1906   */\n      dup2\n        /* \"#utility.yul\":1895:1898   */\n      dup6\n        /* \"#utility.yul\":1836:1907   */\n      tag_191\n      jump\t// in\n    tag_263:\n        /* \"#utility.yul\":1829:1907   */\n      swap4\n      pop\n        /* \"#utility.yul\":1916:1981   */\n      tag_264\n        /* \"#utility.yul\":1974:1980   */\n      dup2\n        /* \"#utility.yul\":1969:1972   */\n      dup6\n        /* \"#utility.yul\":1962:1966   */\n      0x20\n        /* \"#utility.yul\":1955:1960   */\n      dup7\n        /* \"#utility.yul\":1951:1967   */\n      add\n        /* \"#utility.yul\":1916:1981   */\n      tag_192\n      jump\t// in\n    tag_264:\n        /* \"#utility.yul\":2006:2035   */\n      tag_265\n        /* \"#utility.yul\":2028:2034   */\n      dup2\n        /* \"#utility.yul\":2006:2035   */\n      tag_193\n      jump\t// in\n    tag_265:\n        /* \"#utility.yul\":2001:2004   */\n      dup5\n        /* \"#utility.yul\":1997:2036   */\n      add\n        /* \"#utility.yul\":1990:2036   */\n      swap2\n      pop\n        /* \"#utility.yul\":1757:2042   */\n      pop\n        /* \"#utility.yul\":1665:2042   */\n      swap3\n      swap2\n      pop\n      pop\n      jump\t// out\n        /* \"#utility.yul\":2048:2166   */\n    tag_195:\n        /* \"#utility.yul\":2135:2159   */\n      tag_267\n        /* \"#utility.yul\":2153:2158   */\n      dup2\n        /* \"#utility.yul\":2135:2159   */\n      tag_187\n      jump\t// in\n    tag_267:\n        /* \"#utility.yul\":2130:2133   */\n      dup3\n        /* \"#utility.yul\":2123:2160   */\n      mstore\n        /* \"#utility.yul\":2048:2166   */\n      pop\n      pop\n      jump\t// out\n        /* \"#utility.yul\":2172:2352   */\n    tag_58:\n        /* \"#utility.yul\":2220:2297   */\n      0x4e487b7100000000000000000000000000000000000000000000000000000000\n        /* \"#utility.yul\":2217:2218   */\n      0x00\n        /* \"#utility.yul\":2210:2298   */\n      mstore\n        /* \"#utility.yul\":2317:2321   */\n      0x21\n        /* \"#utility.yul\":2314:2315   */\n      0x04\n        /* \"#utility.yul\":2307:2322   */\n      mstore\n        /* \"#utility.yul\":2341:2345   */\n      0x24\n        /* \"#utility.yul\":2338:2339   */\n      0x00\n        /* \"#utility.yul\":2331:2346   */\n      revert\n        /* \"#utility.yul\":2358:2475   */\n    tag_196:\n        /* \"#utility.yul\":2443:2444   */\n      0x04\n        /* \"#utility.yul\":2436:2441   */\n      dup2\n        /* \"#utility.yul\":2433:2445   */\n      lt\n        /* \"#utility.yul\":2423:2469   */\n      tag_270\n      jumpi\n        /* \"#utility.yul\":2449:2467   */\n      tag_271\n      tag_58\n      jump\t// in\n    tag_271:\n        /* \"#utility.yul\":2423:2469   */\n    tag_270:\n        /* \"#utility.yul\":2358:2475   */\n      pop\n      jump\t// out\n        /* \"#utility.yul\":2481:2616   */\n    tag_197:\n        /* \"#utility.yul\":2530:2537   */\n      0x00\n        /* \"#utility.yul\":2559:2564   */\n      dup2\n        /* \"#utility.yul\":2548:2564   */\n      swap1\n      pop\n        /* \"#utility.yul\":2565:2610   */\n      tag_273\n        /* \"#utility.yul\":2604:2609   */\n      dup3\n        /* \"#utility.yul\":2565:2610   */\n      tag_196\n      jump\t// in\n    tag_273:\n        /* \"#utility.yul\":2481:2616   */\n      swap2\n      swap1\n      pop\n      jump\t// out\n        /* \"#utility.yul\":2622:2757   */\n    tag_198:\n        /* \"#utility.yul\":2682:2691   */\n      0x00\n        /* \"#utility.yul\":2715:2751   */\n      tag_275\n        /* \"#utility.yul\":2745:2750   */\n      dup3\n        /* \"#utility.yul\":2715:2751   */\n      tag_197\n      jump\t// in\n    tag_275:\n        /* \"#utility.yul\":2702:2751   */\n      swap1\n      pop\n        /* \"#utility.yul\":2622:2757   */\n      swap2\n      swap1\n      pop\n      jump\t// out\n        /* \"#utility.yul\":2763:2914   */\n    tag_199:\n        /* \"#utility.yul\":2860:2907   */\n      tag_277\n        /* \"#utility.yul\":2901:2906   */\n      dup2\n        /* \"#utility.yul\":2860:2907   */\n      tag_198\n      jump\t// in\n    tag_277:\n        /* \"#utility.yul\":2855:2858   */\n      dup3\n        /* \"#utility.yul\":2848:2908   */\n      mstore\n        /* \"#utility.yul\":2763:2914   */\n      pop\n      pop\n      jump\t// out\n        /* \"#utility.yul\":2920:3034   */\n    tag_200:\n        /* \"#utility.yul\":3002:3003   */\n      0x04\n        /* \"#utility.yul\":2995:3000   */\n      dup2\n        /* \"#utility.yul\":2992:3004   */\n      lt\n        /* \"#utility.yul\":2982:3028   */\n      tag_279\n      jumpi\n        /* \"#utility.yul\":3008:3026   */\n      tag_280\n      tag_58\n      jump\t// in\n    tag_280:\n        /* \"#utility.yul\":2982:3028   */\n    tag_279:\n        /* \"#utility.yul\":2920:3034   */\n      pop\n      jump\t// out\n        /* \"#utility.yul\":3040:3169   */\n    tag_201:\n        /* \"#utility.yul\":3086:3093   */\n      0x00\n        /* \"#utility.yul\":3115:3120   */\n      dup2\n        /* \"#utility.yul\":3104:3120   */\n      swap1\n      pop\n        /* \"#utility.yul\":3121:3163   */\n      tag_282\n        /* \"#utility.yul\":3157:3162   */\n      dup3\n        /* \"#utility.yul\":3121:3163   */\n      tag_200\n      jump\t// in\n    tag_282:\n        /* \"#utility.yul\":3040:3169   */\n      swap2\n      swap1\n      pop\n      jump\t// out\n        /* \"#utility.yul\":3175:3304   */\n    tag_202:\n        /* \"#utility.yul\":3232:3241   */\n      0x00\n        /* \"#utility.yul\":3265:3298   */\n      tag_284\n        /* \"#utility.yul\":3292:3297   */\n      dup3\n        /* \"#utility.yul\":3265:3298   */\n      tag_201\n      jump\t// in\n    tag_284:\n        /* \"#utility.yul\":3252:3298   */\n      swap1\n      pop\n        /* \"#utility.yul\":3175:3304   */\n      swap2\n      swap1\n      pop\n      jump\t// out\n        /* \"#utility.yul\":3310:3455   */\n    tag_203:\n        /* \"#utility.yul\":3404:3448   */\n      tag_286\n        /* \"#utility.yul\":3442:3447   */\n      dup2\n        /* \"#utility.yul\":3404:3448   */\n      tag_202\n      jump\t// in\n    tag_286:\n        /* \"#utility.yul\":3399:3402   */\n      dup3\n        /* \"#utility.yul\":3392:3449   */\n      mstore\n        /* \"#utility.yul\":3310:3455   */\n      pop\n      pop\n      jump\t// out\n        /* \"#utility.yul\":3461:4361   */\n    tag_17:\n        /* \"#utility.yul\":3731:3735   */\n      0x00\n        /* \"#utility.yul\":3769:3772   */\n      0xc0\n        /* \"#utility.yul\":3758:3767   */\n      dup3\n        /* \"#utility.yul\":3754:3773   */\n      add\n        /* \"#utility.yul\":3746:3773   */\n      swap1\n      pop\n        /* \"#utility.yul\":3819:3828   */\n      dup2\n        /* \"#utility.yul\":3813:3817   */\n      dup2\n        /* \"#utility.yul\":3809:3829   */\n      sub\n        /* \"#utility.yul\":3805:3806   */\n      0x00\n        /* \"#utility.yul\":3794:3803   */\n      dup4\n        /* \"#utility.yul\":3790:3807   */\n      add\n        /* \"#utility.yul\":3783:3830   */\n      mstore\n        /* \"#utility.yul\":3847:3925   */\n      tag_288\n        /* \"#utility.yul\":3920:3924   */\n      dup2\n        /* \"#utility.yul\":3911:3917   */\n      dup10\n        /* \"#utility.yul\":3847:3925   */\n      tag_194\n      jump\t// in\n    tag_288:\n        /* \"#utility.yul\":3839:3925   */\n      swap1\n      pop\n        /* \"#utility.yul\":3935:4007   */\n      tag_289\n        /* \"#utility.yul\":4003:4005   */\n      0x20\n        /* \"#utility.yul\":3992:4001   */\n      dup4\n        /* \"#utility.yul\":3988:4006   */\n      add\n        /* \"#utility.yul\":3979:3985   */\n      dup9\n        /* \"#utility.yul\":3935:4007   */\n      tag_195\n      jump\t// in\n    tag_289:\n        /* \"#utility.yul\":4017:4089   */\n      tag_290\n        /* \"#utility.yul\":4085:4087   */\n      0x40\n        /* \"#utility.yul\":4074:4083   */\n      dup4\n        /* \"#utility.yul\":4070:4088   */\n      add\n        /* \"#utility.yul\":4061:4067   */\n      dup8\n        /* \"#utility.yul\":4017:4089   */\n      tag_195\n      jump\t// in\n    tag_290:\n        /* \"#utility.yul\":4099:4181   */\n      tag_291\n        /* \"#utility.yul\":4177:4179   */\n      0x60\n        /* \"#utility.yul\":4166:4175   */\n      dup4\n        /* \"#utility.yul\":4162:4180   */\n      add\n        /* \"#utility.yul\":4153:4159   */\n      dup7\n        /* \"#utility.yul\":4099:4181   */\n      tag_199\n      jump\t// in\n    tag_291:\n        /* \"#utility.yul\":4191:4271   */\n      tag_292\n        /* \"#utility.yul\":4266:4269   */\n      0x80\n        /* \"#utility.yul\":4255:4264   */\n      dup4\n        /* \"#utility.yul\":4251:4270   */\n      add\n        /* \"#utility.yul\":4242:4248   */\n      dup6\n        /* \"#utility.yul\":4191:4271   */\n      tag_203\n      jump\t// in\n    tag_292:\n        /* \"#utility.yul\":4281:4354   */\n      tag_293\n        /* \"#utility.yul\":4349:4352   */\n      0xa0\n        /* \"#utility.yul\":4338:4347   */\n      dup4\n        /* \"#utility.yul\":4334:4353   */\n      add\n        /* \"#utility.yul\":4325:4331   */\n      dup5\n        /* \"#utility.yul\":4281:4354   */\n      tag_195\n      jump\t// in\n    tag_293:\n        /* \"#utility.yul\":3461:4361   */\n      swap8\n      swap7\n      pop\n      pop\n      pop\n      pop\n      pop\n      pop\n      pop\n      jump\t// out\n        /* \"#utility.yul\":4367:4484   */\n    tag_204:\n        /* \"#utility.yul\":4476:4477   */\n      0x00\n        /* \"#utility.yul\":4473:4474   */\n      dup1\n        /* \"#utility.yul\":4466:4478   */\n      revert\n        /* \"#utility.yul\":4490:4607   */\n    tag_205:\n        /* \"#utility.yul\":4599:4600   */\n      0x00\n        /* \"#utility.yul\":4596:4597   */\n      dup1\n        /* \"#utility.yul\":4589:4601   */\n      revert\n        /* \"#utility.yul\":4613:4793   */\n    tag_206:\n        /* \"#utility.yul\":4661:4738   */\n      0x4e487b7100000000000000000000000000000000000000000000000000000000\n        /* \"#utility.yul\":4658:4659   */\n      0x00\n        /* \"#utility.yul\":4651:4739   */\n      mstore\n        /* \"#utility.yul\":4758:4762   */\n      0x41\n        /* \"#utility.yul\":4755:4756   */\n      0x04\n        /* \"#utility.yul\":4748:4763   */\n      mstore\n        /* \"#utility.yul\":4782:4786   */\n      0x24\n        /* \"#utility.yul\":4779:4780   */\n      0x00\n        /* \"#utility.yul\":4772:4787   */\n      revert\n        /* \"#utility.yul\":4799:5080   */\n    tag_207:\n        /* \"#utility.yul\":4882:4909   */\n      tag_298\n        /* \"#utility.yul\":4904:4908   */\n      dup3\n        /* \"#utility.yul\":4882:4909   */\n      tag_193\n      jump\t// in\n    tag_298:\n        /* \"#utility.yul\":4874:4880   */\n      dup2\n        /* \"#utility.yul\":4870:4910   */\n      add\n        /* \"#utility.yul\":5012:5018   */\n      dup2\n        /* \"#utility.yul\":5000:5010   */\n      dup2\n        /* \"#utility.yul\":4997:5019   */\n      lt\n        /* \"#utility.yul\":4976:4994   */\n      0xffffffffffffffff\n        /* \"#utility.yul\":4964:4974   */\n      dup3\n        /* \"#utility.yul\":4961:4995   */\n      gt\n        /* \"#utility.yul\":4958:5020   */\n      or\n        /* \"#utility.yul\":4955:5043   */\n      iszero\n      tag_299\n      jumpi\n        /* \"#utility.yul\":5023:5041   */\n      tag_300\n      tag_206\n      jump\t// in\n    tag_300:\n        /* \"#utility.yul\":4955:5043   */\n    tag_299:\n        /* \"#utility.yul\":5063:5073   */\n      dup1\n        /* \"#utility.yul\":5059:5061   */\n      0x40\n        /* \"#utility.yul\":5052:5074   */\n      mstore\n        /* \"#utility.yul\":4842:5080   */\n      pop\n        /* \"#utility.yul\":4799:5080   */\n      pop\n      pop\n      jump\t// out\n        /* \"#utility.yul\":5086:5215   */\n    tag_208:\n        /* \"#utility.yul\":5120:5126   */\n      0x00\n        /* \"#utility.yul\":5147:5167   */\n      tag_302\n      tag_184\n      jump\t// in\n    tag_302:\n        /* \"#utility.yul\":5137:5167   */\n      swap1\n      pop\n        /* \"#utility.yul\":5176:5209   */\n      tag_303\n        /* \"#utility.yul\":5204:5208   */\n      dup3\n        /* \"#utility.yul\":5196:5202   */\n      dup3\n        /* \"#utility.yul\":5176:5209   */\n      tag_207\n      jump\t// in\n    tag_303:\n        /* \"#utility.yul\":5086:5215   */\n      swap2\n      swap1\n      pop\n      jump\t// out\n        /* \"#utility.yul\":5221:5529   */\n    tag_209:\n        /* \"#utility.yul\":5283:5287   */\n      0x00\n        /* \"#utility.yul\":5373:5391   */\n      0xffffffffffffffff\n        /* \"#utility.yul\":5365:5371   */\n      dup3\n        /* \"#utility.yul\":5362:5392   */\n      gt\n        /* \"#utility.yul\":5359:5415   */\n      iszero\n      tag_305\n      jumpi\n        /* \"#utility.yul\":5395:5413   */\n      tag_306\n      tag_206\n      jump\t// in\n    tag_306:\n        /* \"#utility.yul\":5359:5415   */\n    tag_305:\n        /* \"#utility.yul\":5433:5462   */\n      tag_307\n        /* \"#utility.yul\":5455:5461   */\n      dup3\n        /* \"#utility.yul\":5433:5462   */\n      tag_193\n      jump\t// in\n    tag_307:\n        /* \"#utility.yul\":5425:5462   */\n      swap1\n      pop\n        /* \"#utility.yul\":5517:5521   */\n      0x20\n        /* \"#utility.yul\":5511:5515   */\n      dup2\n        /* \"#utility.yul\":5507:5522   */\n      add\n        /* \"#utility.yul\":5499:5522   */\n      swap1\n      pop\n        /* \"#utility.yul\":5221:5529   */\n      swap2\n      swap1\n      pop\n      jump\t// out\n        /* \"#utility.yul\":5535:5681   */\n    tag_210:\n        /* \"#utility.yul\":5632:5638   */\n      dup3\n        /* \"#utility.yul\":5627:5630   */\n      dup2\n        /* \"#utility.yul\":5622:5625   */\n      dup4\n        /* \"#utility.yul\":5609:5639   */\n      calldatacopy\n        /* \"#utility.yul\":5673:5674   */\n      0x00\n        /* \"#utility.yul\":5664:5670   */\n      dup4\n        /* \"#utility.yul\":5659:5662   */\n      dup4\n        /* \"#utility.yul\":5655:5671   */\n      add\n        /* \"#utility.yul\":5648:5675   */\n      mstore\n        /* \"#utility.yul\":5535:5681   */\n      pop\n      pop\n      pop\n      jump\t// out\n        /* \"#utility.yul\":5687:6112   */\n    tag_211:\n        /* \"#utility.yul\":5765:5770   */\n      0x00\n        /* \"#utility.yul\":5790:5856   */\n      tag_310\n        /* \"#utility.yul\":5806:5855   */\n      tag_311\n        /* \"#utility.yul\":5848:5854   */\n      dup5\n        /* \"#utility.yul\":5806:5855   */\n      tag_209\n      jump\t// in\n    tag_311:\n        /* \"#utility.yul\":5790:5856   */\n      tag_208\n      jump\t// in\n    tag_310:\n        /* \"#utility.yul\":5781:5856   */\n      swap1\n      pop\n        /* \"#utility.yul\":5879:5885   */\n      dup3\n        /* \"#utility.yul\":5872:5877   */\n      dup2\n        /* \"#utility.yul\":5865:5886   */\n      mstore\n        /* \"#utility.yul\":5917:5921   */\n      0x20\n        /* \"#utility.yul\":5910:5915   */\n      dup2\n        /* \"#utility.yul\":5906:5922   */\n      add\n        /* \"#utility.yul\":5955:5958   */\n      dup5\n        /* \"#utility.yul\":5946:5952   */\n      dup5\n        /* \"#utility.yul\":5941:5944   */\n      dup5\n        /* \"#utility.yul\":5937:5953   */\n      add\n        /* \"#utility.yul\":5934:5959   */\n      gt\n        /* \"#utility.yul\":5931:6043   */\n      iszero\n      tag_312\n      jumpi\n        /* \"#utility.yul\":5962:6041   */\n      tag_313\n      tag_205\n      jump\t// in\n    tag_313:\n        /* \"#utility.yul\":5931:6043   */\n    tag_312:\n        /* \"#utility.yul\":6052:6106   */\n      tag_314\n        /* \"#utility.yul\":6099:6105   */\n      dup5\n        /* \"#utility.yul\":6094:6097   */\n      dup3\n        /* \"#utility.yul\":6089:6092   */\n      dup6\n        /* \"#utility.yul\":6052:6106   */\n      tag_210\n      jump\t// in\n    tag_314:\n        /* \"#utility.yul\":5771:6112   */\n      pop\n        /* \"#utility.yul\":5687:6112   */\n      swap4\n      swap3\n      pop\n      pop\n      pop\n      jump\t// out\n        /* \"#utility.yul\":6132:6472   */\n    tag_212:\n        /* \"#utility.yul\":6188:6193   */\n      0x00\n        /* \"#utility.yul\":6237:6240   */\n      dup3\n        /* \"#utility.yul\":6230:6234   */\n      0x1f\n        /* \"#utility.yul\":6222:6228   */\n      dup4\n        /* \"#utility.yul\":6218:6235   */\n      add\n        /* \"#utility.yul\":6214:6241   */\n      slt\n        /* \"#utility.yul\":6204:6326   */\n      tag_316\n      jumpi\n        /* \"#utility.yul\":6245:6324   */\n      tag_317\n      tag_204\n      jump\t// in\n    tag_317:\n        /* \"#utility.yul\":6204:6326   */\n    tag_316:\n        /* \"#utility.yul\":6362:6368   */\n      dup2\n        /* \"#utility.yul\":6349:6369   */\n      calldataload\n        /* \"#utility.yul\":6387:6466   */\n      tag_318\n        /* \"#utility.yul\":6462:6465   */\n      dup5\n        /* \"#utility.yul\":6454:6460   */\n      dup3\n        /* \"#utility.yul\":6447:6451   */\n      0x20\n        /* \"#utility.yul\":6439:6445   */\n      dup7\n        /* \"#utility.yul\":6435:6452   */\n      add\n        /* \"#utility.yul\":6387:6466   */\n      tag_211\n      jump\t// in\n    tag_318:\n        /* \"#utility.yul\":6378:6466   */\n      swap2\n      pop\n        /* \"#utility.yul\":6194:6472   */\n      pop\n        /* \"#utility.yul\":6132:6472   */\n      swap3\n      swap2\n      pop\n      pop\n      jump\t// out\n        /* \"#utility.yul\":6478:6589   */\n    tag_213:\n        /* \"#utility.yul\":6563:6564   */\n      0x04\n        /* \"#utility.yul\":6556:6561   */\n      dup2\n        /* \"#utility.yul\":6553:6565   */\n      lt\n        /* \"#utility.yul\":6543:6583   */\n      tag_320\n      jumpi\n        /* \"#utility.yul\":6579:6580   */\n      0x00\n        /* \"#utility.yul\":6576:6577   */\n      dup1\n        /* \"#utility.yul\":6569:6581   */\n      revert\n        /* \"#utility.yul\":6543:6583   */\n    tag_320:\n        /* \"#utility.yul\":6478:6589   */\n      pop\n      jump\t// out\n        /* \"#utility.yul\":6595:6758   */\n    tag_214:\n        /* \"#utility.yul\":6653:6658   */\n      0x00\n        /* \"#utility.yul\":6691:6697   */\n      dup2\n        /* \"#utility.yul\":6678:6698   */\n      calldataload\n        /* \"#utility.yul\":6669:6698   */\n      swap1\n      pop\n        /* \"#utility.yul\":6707:6752   */\n      tag_322\n        /* \"#utility.yul\":6746:6751   */\n      dup2\n        /* \"#utility.yul\":6707:6752   */\n      tag_213\n      jump\t// in\n    tag_322:\n        /* \"#utility.yul\":6595:6758   */\n      swap3\n      swap2\n      pop\n      pop\n      jump\t// out\n        /* \"#utility.yul\":6764:6872   */\n    tag_215:\n        /* \"#utility.yul\":6846:6847   */\n      0x04\n        /* \"#utility.yul\":6839:6844   */\n      dup2\n        /* \"#utility.yul\":6836:6848   */\n      lt\n        /* \"#utility.yul\":6826:6866   */\n      tag_324\n      jumpi\n        /* \"#utility.yul\":6862:6863   */\n      0x00\n        /* \"#utility.yul\":6859:6860   */\n      dup1\n        /* \"#utility.yul\":6852:6864   */\n      revert\n        /* \"#utility.yul\":6826:6866   */\n    tag_324:\n        /* \"#utility.yul\":6764:6872   */\n      pop\n      jump\t// out\n        /* \"#utility.yul\":6878:7035   */\n    tag_216:\n        /* \"#utility.yul\":6933:6938   */\n      0x00\n        /* \"#utility.yul\":6971:6977   */\n      dup2\n        /* \"#utility.yul\":6958:6978   */\n      calldataload\n        /* \"#utility.yul\":6949:6978   */\n      swap1\n      pop\n        /* \"#utility.yul\":6987:7029   */\n      tag_326\n        /* \"#utility.yul\":7023:7028   */\n      dup2\n        /* \"#utility.yul\":6987:7029   */\n      tag_215\n      jump\t// in\n    tag_326:\n        /* \"#utility.yul\":6878:7035   */\n      swap3\n      swap2\n      pop\n      pop\n      jump\t// out\n        /* \"#utility.yul\":7041:8466   */\n    tag_20:\n        /* \"#utility.yul\":7185:7191   */\n      0x00\n        /* \"#utility.yul\":7193:7199   */\n      dup1\n        /* \"#utility.yul\":7201:7207   */\n      0x00\n        /* \"#utility.yul\":7209:7215   */\n      dup1\n        /* \"#utility.yul\":7217:7223   */\n      0x00\n        /* \"#utility.yul\":7225:7231   */\n      dup1\n        /* \"#utility.yul\":7233:7239   */\n      0x00\n        /* \"#utility.yul\":7282:7285   */\n      0xe0\n        /* \"#utility.yul\":7270:7279   */\n      dup9\n        /* \"#utility.yul\":7261:7268   */\n      dup11\n        /* \"#utility.yul\":7257:7280   */\n      sub\n        /* \"#utility.yul\":7253:7286   */\n      slt\n        /* \"#utility.yul\":7250:7370   */\n      iszero\n      tag_328\n      jumpi\n        /* \"#utility.yul\":7289:7368   */\n      tag_329\n      tag_185\n      jump\t// in\n    tag_329:\n        /* \"#utility.yul\":7250:7370   */\n    tag_328:\n        /* \"#utility.yul\":7437:7438   */\n      0x00\n        /* \"#utility.yul\":7426:7435   */\n      dup9\n        /* \"#utility.yul\":7422:7439   */\n      add\n        /* \"#utility.yul\":7409:7440   */\n      calldataload\n        /* \"#utility.yul\":7467:7485   */\n      0xffffffffffffffff\n        /* \"#utility.yul\":7459:7465   */\n      dup2\n        /* \"#utility.yul\":7456:7486   */\n      gt\n        /* \"#utility.yul\":7453:7570   */\n      iszero\n      tag_330\n      jumpi\n        /* \"#utility.yul\":7489:7568   */\n      tag_331\n      tag_186\n      jump\t// in\n    tag_331:\n        /* \"#utility.yul\":7453:7570   */\n    tag_330:\n        /* \"#utility.yul\":7594:7657   */\n      tag_332\n        /* \"#utility.yul\":7649:7656   */\n      dup11\n        /* \"#utility.yul\":7640:7646   */\n      dup3\n        /* \"#utility.yul\":7629:7638   */\n      dup12\n        /* \"#utility.yul\":7625:7647   */\n      add\n        /* \"#utility.yul\":7594:7657   */\n      tag_212\n      jump\t// in\n    tag_332:\n        /* \"#utility.yul\":7584:7657   */\n      swap8\n      pop\n        /* \"#utility.yul\":7380:7667   */\n      pop\n        /* \"#utility.yul\":7706:7708   */\n      0x20\n        /* \"#utility.yul\":7732:7785   */\n      tag_333\n        /* \"#utility.yul\":7777:7784   */\n      dup11\n        /* \"#utility.yul\":7768:7774   */\n      dup3\n        /* \"#utility.yul\":7757:7766   */\n      dup12\n        /* \"#utility.yul\":7753:7775   */\n      add\n        /* \"#utility.yul\":7732:7785   */\n      tag_189\n      jump\t// in\n    tag_333:\n        /* \"#utility.yul\":7722:7785   */\n      swap7\n      pop\n        /* \"#utility.yul\":7677:7795   */\n      pop\n        /* \"#utility.yul\":7834:7836   */\n      0x40\n        /* \"#utility.yul\":7860:7913   */\n      tag_334\n        /* \"#utility.yul\":7905:7912   */\n      dup11\n        /* \"#utility.yul\":7896:7902   */\n      dup3\n        /* \"#utility.yul\":7885:7894   */\n      dup12\n        /* \"#utility.yul\":7881:7903   */\n      add\n        /* \"#utility.yul\":7860:7913   */\n      tag_189\n      jump\t// in\n    tag_334:\n        /* \"#utility.yul\":7850:7913   */\n      swap6\n      pop\n        /* \"#utility.yul\":7805:7923   */\n      pop\n        /* \"#utility.yul\":7962:7964   */\n      0x60\n        /* \"#utility.yul\":7988:8041   */\n      tag_335\n        /* \"#utility.yul\":8033:8040   */\n      dup11\n        /* \"#utility.yul\":8024:8030   */\n      dup3\n        /* \"#utility.yul\":8013:8022   */\n      dup12\n        /* \"#utility.yul\":8009:8031   */\n      add\n        /* \"#utility.yul\":7988:8041   */\n      tag_189\n      jump\t// in\n    tag_335:\n        /* \"#utility.yul\":7978:8041   */\n      swap5\n      pop\n        /* \"#utility.yul\":7933:8051   */\n      pop\n        /* \"#utility.yul\":8090:8093   */\n      0x80\n        /* \"#utility.yul\":8117:8182   */\n      tag_336\n        /* \"#utility.yul\":8174:8181   */\n      dup11\n        /* \"#utility.yul\":8165:8171   */\n      dup3\n        /* \"#utility.yul\":8154:8163   */\n      dup12\n        /* \"#utility.yul\":8150:8172   */\n      add\n        /* \"#utility.yul\":8117:8182   */\n      tag_214\n      jump\t// in\n    tag_336:\n        /* \"#utility.yul\":8107:8182   */\n      swap4\n      pop\n        /* \"#utility.yul\":8061:8192   */\n      pop\n        /* \"#utility.yul\":8231:8234   */\n      0xa0\n        /* \"#utility.yul\":8258:8320   */\n      tag_337\n        /* \"#utility.yul\":8312:8319   */\n      dup11\n        /* \"#utility.yul\":8303:8309   */\n      dup3\n        /* \"#utility.yul\":8292:8301   */\n      dup12\n        /* \"#utility.yul\":8288:8310   */\n      add\n        /* \"#utility.yul\":8258:8320   */\n      tag_216\n      jump\t// in\n    tag_337:\n        /* \"#utility.yul\":8248:8320   */\n      swap3\n      pop\n        /* \"#utility.yul\":8202:8330   */\n      pop\n        /* \"#utility.yul\":8369:8372   */\n      0xc0\n        /* \"#utility.yul\":8396:8449   */\n      tag_338\n        /* \"#utility.yul\":8441:8448   */\n      dup11\n        /* \"#utility.yul\":8432:8438   */\n      dup3\n        /* \"#utility.yul\":8421:8430   */\n      dup12\n        /* \"#utility.yul\":8417:8439   */\n      add\n        /* \"#utility.yul\":8396:8449   */\n      tag_189\n      jump\t// in\n    tag_338:\n        /* \"#utility.yul\":8386:8449   */\n      swap2\n      pop\n        /* \"#utility.yul\":8340:8459   */\n      pop\n        /* \"#utility.yul\":7041:8466   */\n      swap3\n      swap6\n      swap9\n      swap2\n      swap5\n      swap8\n      pop\n      swap3\n      swap6\n      pop\n      jump\t// out\n        /* \"#utility.yul\":8472:8631   */\n    tag_217:\n        /* \"#utility.yul\":8546:8557   */\n      0x00\n        /* \"#utility.yul\":8580:8586   */\n      dup3\n        /* \"#utility.yul\":8575:8578   */\n      dup3\n        /* \"#utility.yul\":8568:8587   */\n      mstore\n        /* \"#utility.yul\":8620:8624   */\n      0x20\n        /* \"#utility.yul\":8615:8618   */\n      dup3\n        /* \"#utility.yul\":8611:8625   */\n      add\n        /* \"#utility.yul\":8596:8625   */\n      swap1\n      pop\n        /* \"#utility.yul\":8472:8631   */\n      swap3\n      swap2\n      pop\n      pop\n      jump\t// out\n        /* \"#utility.yul\":8637:8994   */\n    tag_218:\n        /* \"#utility.yul\":8715:8718   */\n      0x00\n        /* \"#utility.yul\":8743:8782   */\n      tag_341\n        /* \"#utility.yul\":8776:8781   */\n      dup3\n        /* \"#utility.yul\":8743:8782   */\n      tag_190\n      jump\t// in\n    tag_341:\n        /* \"#utility.yul\":8798:8859   */\n      tag_342\n        /* \"#utility.yul\":8852:8858   */\n      dup2\n        /* \"#utility.yul\":8847:8850   */\n      dup6\n        /* \"#utility.yul\":8798:8859   */\n      tag_217\n      jump\t// in\n    tag_342:\n        /* \"#utility.yul\":8791:8859   */\n      swap4\n      pop\n        /* \"#utility.yul\":8868:8933   */\n      tag_343\n        /* \"#utility.yul\":8926:8932   */\n      dup2\n        /* \"#utility.yul\":8921:8924   */\n      dup6\n        /* \"#utility.yul\":8914:8918   */\n      0x20\n        /* \"#utility.yul\":8907:8912   */\n      dup7\n        /* \"#utility.yul\":8903:8919   */\n      add\n        /* \"#utility.yul\":8868:8933   */\n      tag_192\n      jump\t// in\n    tag_343:\n        /* \"#utility.yul\":8958:8987   */\n      tag_344\n        /* \"#utility.yul\":8980:8986   */\n      dup2\n        /* \"#utility.yul\":8958:8987   */\n      tag_193\n      jump\t// in\n    tag_344:\n        /* \"#utility.yul\":8953:8956   */\n      dup5\n        /* \"#utility.yul\":8949:8988   */\n      add\n        /* \"#utility.yul\":8942:8988   */\n      swap2\n      pop\n        /* \"#utility.yul\":8719:8994   */\n      pop\n        /* \"#utility.yul\":8637:8994   */\n      swap3\n      swap2\n      pop\n      pop\n      jump\t// out\n        /* \"#utility.yul\":9000:9108   */\n    tag_219:\n        /* \"#utility.yul\":9077:9101   */\n      tag_346\n        /* \"#utility.yul\":9095:9100   */\n      dup2\n        /* \"#utility.yul\":9077:9101   */\n      tag_187\n      jump\t// in\n    tag_346:\n        /* \"#utility.yul\":9072:9075   */\n      dup3\n        /* \"#utility.yul\":9065:9102   */\n      mstore\n        /* \"#utility.yul\":9000:9108   */\n      pop\n      pop\n      jump\t// out\n        /* \"#utility.yul\":9114:9255   */\n    tag_220:\n        /* \"#utility.yul\":9201:9248   */\n      tag_348\n        /* \"#utility.yul\":9242:9247   */\n      dup2\n        /* \"#utility.yul\":9201:9248   */\n      tag_198\n      jump\t// in\n    tag_348:\n        /* \"#utility.yul\":9196:9199   */\n      dup3\n        /* \"#utility.yul\":9189:9249   */\n      mstore\n        /* \"#utility.yul\":9114:9255   */\n      pop\n      pop\n      jump\t// out\n        /* \"#utility.yul\":9261:9396   */\n    tag_221:\n        /* \"#utility.yul\":9345:9389   */\n      tag_350\n        /* \"#utility.yul\":9383:9388   */\n      dup2\n        /* \"#utility.yul\":9345:9389   */\n      tag_202\n      jump\t// in\n    tag_350:\n        /* \"#utility.yul\":9340:9343   */\n      dup3\n        /* \"#utility.yul\":9333:9390   */\n      mstore\n        /* \"#utility.yul\":9261:9396   */\n      pop\n      pop\n      jump\t// out\n        /* \"#utility.yul\":9450:10796   */\n    tag_222:\n        /* \"#utility.yul\":9565:9568   */\n      0x00\n        /* \"#utility.yul\":9601:9605   */\n      0xc0\n        /* \"#utility.yul\":9596:9599   */\n      dup4\n        /* \"#utility.yul\":9592:9606   */\n      add\n        /* \"#utility.yul\":9688:9692   */\n      0x00\n        /* \"#utility.yul\":9681:9686   */\n      dup4\n        /* \"#utility.yul\":9677:9693   */\n      add\n        /* \"#utility.yul\":9671:9694   */\n      mload\n        /* \"#utility.yul\":9741:9744   */\n      dup5\n        /* \"#utility.yul\":9735:9739   */\n      dup3\n        /* \"#utility.yul\":9731:9745   */\n      sub\n        /* \"#utility.yul\":9724:9728   */\n      0x00\n        /* \"#utility.yul\":9719:9722   */\n      dup7\n        /* \"#utility.yul\":9715:9729   */\n      add\n        /* \"#utility.yul\":9708:9746   */\n      mstore\n        /* \"#utility.yul\":9767:9840   */\n      tag_352\n        /* \"#utility.yul\":9835:9839   */\n      dup3\n        /* \"#utility.yul\":9821:9833   */\n      dup3\n        /* \"#utility.yul\":9767:9840   */\n      tag_218\n      jump\t// in\n    tag_352:\n        /* \"#utility.yul\":9759:9840   */\n      swap2\n      pop\n        /* \"#utility.yul\":9616:9851   */\n      pop\n        /* \"#utility.yul\":9932:9936   */\n      0x20\n        /* \"#utility.yul\":9925:9930   */\n      dup4\n        /* \"#utility.yul\":9921:9937   */\n      add\n        /* \"#utility.yul\":9915:9938   */\n      mload\n        /* \"#utility.yul\":9951:10014   */\n      tag_353\n        /* \"#utility.yul\":10008:10012   */\n      0x20\n        /* \"#utility.yul\":10003:10006   */\n      dup7\n        /* \"#utility.yul\":9999:10013   */\n      add\n        /* \"#utility.yul\":9985:9997   */\n      dup3\n        /* \"#utility.yul\":9951:10014   */\n      tag_219\n      jump\t// in\n    tag_353:\n        /* \"#utility.yul\":9861:10024   */\n      pop\n        /* \"#utility.yul\":10119:10123   */\n      0x40\n        /* \"#utility.yul\":10112:10117   */\n      dup4\n        /* \"#utility.yul\":10108:10124   */\n      add\n        /* \"#utility.yul\":10102:10125   */\n      mload\n        /* \"#utility.yul\":10138:10201   */\n      tag_354\n        /* \"#utility.yul\":10195:10199   */\n      0x40\n        /* \"#utility.yul\":10190:10193   */\n      dup7\n        /* \"#utility.yul\":10186:10200   */\n      add\n        /* \"#utility.yul\":10172:10184   */\n      dup3\n        /* \"#utility.yul\":10138:10201   */\n      tag_219\n      jump\t// in\n    tag_354:\n        /* \"#utility.yul\":10034:10211   */\n      pop\n        /* \"#utility.yul\":10300:10304   */\n      0x60\n        /* \"#utility.yul\":10293:10298   */\n      dup4\n        /* \"#utility.yul\":10289:10305   */\n      add\n        /* \"#utility.yul\":10283:10306   */\n      mload\n        /* \"#utility.yul\":10319:10392   */\n      tag_355\n        /* \"#utility.yul\":10386:10390   */\n      0x60\n        /* \"#utility.yul\":10381:10384   */\n      dup7\n        /* \"#utility.yul\":10377:10391   */\n      add\n        /* \"#utility.yul\":10363:10375   */\n      dup3\n        /* \"#utility.yul\":10319:10392   */\n      tag_220\n      jump\t// in\n    tag_355:\n        /* \"#utility.yul\":10221:10402   */\n      pop\n        /* \"#utility.yul\":10487:10491   */\n      0x80\n        /* \"#utility.yul\":10480:10485   */\n      dup4\n        /* \"#utility.yul\":10476:10492   */\n      add\n        /* \"#utility.yul\":10470:10493   */\n      mload\n        /* \"#utility.yul\":10506:10576   */\n      tag_356\n        /* \"#utility.yul\":10570:10574   */\n      0x80\n        /* \"#utility.yul\":10565:10568   */\n      dup7\n        /* \"#utility.yul\":10561:10575   */\n      add\n        /* \"#utility.yul\":10547:10559   */\n      dup3\n        /* \"#utility.yul\":10506:10576   */\n      tag_221\n      jump\t// in\n    tag_356:\n        /* \"#utility.yul\":10412:10586   */\n      pop\n        /* \"#utility.yul\":10677:10681   */\n      0xa0\n        /* \"#utility.yul\":10670:10675   */\n      dup4\n        /* \"#utility.yul\":10666:10682   */\n      add\n        /* \"#utility.yul\":10660:10683   */\n      mload\n        /* \"#utility.yul\":10696:10759   */\n      tag_357\n        /* \"#utility.yul\":10753:10757   */\n      0xa0\n        /* \"#utility.yul\":10748:10751   */\n      dup7\n        /* \"#utility.yul\":10744:10758   */\n      add\n        /* \"#utility.yul\":10730:10742   */\n      dup3\n        /* \"#utility.yul\":10696:10759   */\n      tag_219\n      jump\t// in\n    tag_357:\n        /* \"#utility.yul\":10596:10769   */\n      pop\n        /* \"#utility.yul\":10786:10790   */\n      dup1\n        /* \"#utility.yul\":10779:10790   */\n      swap2\n      pop\n        /* \"#utility.yul\":9570:10796   */\n      pop\n        /* \"#utility.yul\":9450:10796   */\n      swap3\n      swap2\n      pop\n      pop\n      jump\t// out\n        /* \"#utility.yul\":10802:11673   */\n    tag_25:\n        /* \"#utility.yul\":11089:11093   */\n      0x00\n        /* \"#utility.yul\":11127:11129   */\n      0x60\n        /* \"#utility.yul\":11116:11125   */\n      dup3\n        /* \"#utility.yul\":11112:11130   */\n      add\n        /* \"#utility.yul\":11104:11130   */\n      swap1\n      pop\n        /* \"#utility.yul\":11176:11185   */\n      dup2\n        /* \"#utility.yul\":11170:11174   */\n      dup2\n        /* \"#utility.yul\":11166:11186   */\n      sub\n        /* \"#utility.yul\":11162:11163   */\n      0x00\n        /* \"#utility.yul\":11151:11160   */\n      dup4\n        /* \"#utility.yul\":11147:11164   */\n      add\n        /* \"#utility.yul\":11140:11187   */\n      mstore\n        /* \"#utility.yul\":11204:11308   */\n      tag_359\n        /* \"#utility.yul\":11303:11307   */\n      dup2\n        /* \"#utility.yul\":11294:11300   */\n      dup7\n        /* \"#utility.yul\":11204:11308   */\n      tag_222\n      jump\t// in\n    tag_359:\n        /* \"#utility.yul\":11196:11308   */\n      swap1\n      pop\n        /* \"#utility.yul\":11355:11364   */\n      dup2\n        /* \"#utility.yul\":11349:11353   */\n      dup2\n        /* \"#utility.yul\":11345:11365   */\n      sub\n        /* \"#utility.yul\":11340:11342   */\n      0x20\n        /* \"#utility.yul\":11329:11338   */\n      dup4\n        /* \"#utility.yul\":11325:11343   */\n      add\n        /* \"#utility.yul\":11318:11366   */\n      mstore\n        /* \"#utility.yul\":11383:11487   */\n      tag_360\n        /* \"#utility.yul\":11482:11486   */\n      dup2\n        /* \"#utility.yul\":11473:11479   */\n      dup6\n        /* \"#utility.yul\":11383:11487   */\n      tag_222\n      jump\t// in\n    tag_360:\n        /* \"#utility.yul\":11375:11487   */\n      swap1\n      pop\n        /* \"#utility.yul\":11534:11543   */\n      dup2\n        /* \"#utility.yul\":11528:11532   */\n      dup2\n        /* \"#utility.yul\":11524:11544   */\n      sub\n        /* \"#utility.yul\":11519:11521   */\n      0x40\n        /* \"#utility.yul\":11508:11517   */\n      dup4\n        /* \"#utility.yul\":11504:11522   */\n      add\n        /* \"#utility.yul\":11497:11545   */\n      mstore\n        /* \"#utility.yul\":11562:11666   */\n      tag_361\n        /* \"#utility.yul\":11661:11665   */\n      dup2\n        /* \"#utility.yul\":11652:11658   */\n      dup5\n        /* \"#utility.yul\":11562:11666   */\n      tag_222\n      jump\t// in\n    tag_361:\n        /* \"#utility.yul\":11554:11666   */\n      swap1\n      pop\n        /* \"#utility.yul\":10802:11673   */\n      swap5\n      swap4\n      pop\n      pop\n      pop\n      pop\n      jump\t// out\n        /* \"#utility.yul\":11679:11992   */\n    tag_30:\n        /* \"#utility.yul\":11792:11796   */\n      0x00\n        /* \"#utility.yul\":11830:11832   */\n      0x20\n        /* \"#utility.yul\":11819:11828   */\n      dup3\n        /* \"#utility.yul\":11815:11833   */\n      add\n        /* \"#utility.yul\":11807:11833   */\n      swap1\n      pop\n        /* \"#utility.yul\":11879:11888   */\n      dup2\n        /* \"#utility.yul\":11873:11877   */\n      dup2\n        /* \"#utility.yul\":11869:11889   */\n      sub\n        /* \"#utility.yul\":11865:11866   */\n      0x00\n        /* \"#utility.yul\":11854:11863   */\n      dup4\n        /* \"#utility.yul\":11850:11867   */\n      add\n        /* \"#utility.yul\":11843:11890   */\n      mstore\n        /* \"#utility.yul\":11907:11985   */\n      tag_363\n        /* \"#utility.yul\":11980:11984   */\n      dup2\n        /* \"#utility.yul\":11971:11977   */\n      dup5\n        /* \"#utility.yul\":11907:11985   */\n      tag_194\n      jump\t// in\n    tag_363:\n        /* \"#utility.yul\":11899:11985   */\n      swap1\n      pop\n        /* \"#utility.yul\":11679:11992   */\n      swap3\n      swap2\n      pop\n      pop\n      jump\t// out\n        /* \"#utility.yul\":11998:12363   */\n    tag_35:\n        /* \"#utility.yul\":12137:12141   */\n      0x00\n        /* \"#utility.yul\":12175:12177   */\n      0x20\n        /* \"#utility.yul\":12164:12173   */\n      dup3\n        /* \"#utility.yul\":12160:12178   */\n      add\n        /* \"#utility.yul\":12152:12178   */\n      swap1\n      pop\n        /* \"#utility.yul\":12224:12233   */\n      dup2\n        /* \"#utility.yul\":12218:12222   */\n      dup2\n        /* \"#utility.yul\":12214:12234   */\n      sub\n        /* \"#utility.yul\":12210:12211   */\n      0x00\n        /* \"#utility.yul\":12199:12208   */\n      dup4\n        /* \"#utility.yul\":12195:12212   */\n      add\n        /* \"#utility.yul\":12188:12235   */\n      mstore\n        /* \"#utility.yul\":12252:12356   */\n      tag_365\n        /* \"#utility.yul\":12351:12355   */\n      dup2\n        /* \"#utility.yul\":12342:12348   */\n      dup5\n        /* \"#utility.yul\":12252:12356   */\n      tag_222\n      jump\t// in\n    tag_365:\n        /* \"#utility.yul\":12244:12356   */\n      swap1\n      pop\n        /* \"#utility.yul\":11998:12363   */\n      swap3\n      swap2\n      pop\n      pop\n      jump\t// out\n        /* \"#utility.yul\":12369:12922   */\n    tag_42:\n        /* \"#utility.yul\":12546:12550   */\n      0x00\n        /* \"#utility.yul\":12584:12587   */\n      0x80\n        /* \"#utility.yul\":12573:12582   */\n      dup3\n        /* \"#utility.yul\":12569:12588   */\n      add\n        /* \"#utility.yul\":12561:12588   */\n      swap1\n      pop\n        /* \"#utility.yul\":12598:12669   */\n      tag_367\n        /* \"#utility.yul\":12666:12667   */\n      0x00\n        /* \"#utility.yul\":12655:12664   */\n      dup4\n        /* \"#utility.yul\":12651:12668   */\n      add\n        /* \"#utility.yul\":12642:12648   */\n      dup8\n        /* \"#utility.yul\":12598:12669   */\n      tag_195\n      jump\t// in\n    tag_367:\n        /* \"#utility.yul\":12679:12751   */\n      tag_368\n        /* \"#utility.yul\":12747:12749   */\n      0x20\n        /* \"#utility.yul\":12736:12745   */\n      dup4\n        /* \"#utility.yul\":12732:12750   */\n      add\n        /* \"#utility.yul\":12723:12729   */\n      dup7\n        /* \"#utility.yul\":12679:12751   */\n      tag_195\n      jump\t// in\n    tag_368:\n        /* \"#utility.yul\":12761:12833   */\n      tag_369\n        /* \"#utility.yul\":12829:12831   */\n      0x40\n        /* \"#utility.yul\":12818:12827   */\n      dup4\n        /* \"#utility.yul\":12814:12832   */\n      add\n        /* \"#utility.yul\":12805:12811   */\n      dup6\n        /* \"#utility.yul\":12761:12833   */\n      tag_195\n      jump\t// in\n    tag_369:\n        /* \"#utility.yul\":12843:12915   */\n      tag_370\n        /* \"#utility.yul\":12911:12913   */\n      0x60\n        /* \"#utility.yul\":12900:12909   */\n      dup4\n        /* \"#utility.yul\":12896:12914   */\n      add\n        /* \"#utility.yul\":12887:12893   */\n      dup5\n        /* \"#utility.yul\":12843:12915   */\n      tag_195\n      jump\t// in\n    tag_370:\n        /* \"#utility.yul\":12369:12922   */\n      swap6\n      swap5\n      pop\n      pop\n      pop\n      pop\n      pop\n      jump\t// out\n        /* \"#utility.yul\":12928:13281   */\n    tag_45:\n        /* \"#utility.yul\":12999:13005   */\n      0x00\n        /* \"#utility.yul\":13048:13050   */\n      0x20\n        /* \"#utility.yul\":13036:13045   */\n      dup3\n        /* \"#utility.yul\":13027:13034   */\n      dup5\n        /* \"#utility.yul\":13023:13046   */\n      sub\n        /* \"#utility.yul\":13019:13051   */\n      slt\n        /* \"#utility.yul\":13016:13135   */\n      iszero\n      tag_372\n      jumpi\n        /* \"#utility.yul\":13054:13133   */\n      tag_373\n      tag_185\n      jump\t// in\n    tag_373:\n        /* \"#utility.yul\":13016:13135   */\n    tag_372:\n        /* \"#utility.yul\":13174:13175   */\n      0x00\n        /* \"#utility.yul\":13199:13264   */\n      tag_374\n        /* \"#utility.yul\":13256:13263   */\n      dup5\n        /* \"#utility.yul\":13247:13253   */\n      dup3\n        /* \"#utility.yul\":13236:13245   */\n      dup6\n        /* \"#utility.yul\":13232:13254   */\n      add\n        /* \"#utility.yul\":13199:13264   */\n      tag_214\n      jump\t// in\n    tag_374:\n        /* \"#utility.yul\":13189:13264   */\n      swap2\n      pop\n        /* \"#utility.yul\":13145:13274   */\n      pop\n        /* \"#utility.yul\":12928:13281   */\n      swap3\n      swap2\n      pop\n      pop\n      jump\t// out\n        /* \"#utility.yul\":13287:13509   */\n    tag_48:\n        /* \"#utility.yul\":13380:13384   */\n      0x00\n        /* \"#utility.yul\":13418:13420   */\n      0x20\n        /* \"#utility.yul\":13407:13416   */\n      dup3\n        /* \"#utility.yul\":13403:13421   */\n      add\n        /* \"#utility.yul\":13395:13421   */\n      swap1\n      pop\n        /* \"#utility.yul\":13431:13502   */\n      tag_376\n        /* \"#utility.yul\":13499:13500   */\n      0x00\n        /* \"#utility.yul\":13488:13497   */\n      dup4\n        /* \"#utility.yul\":13484:13501   */\n      add\n        /* \"#utility.yul\":13475:13481   */\n      dup5\n        /* \"#utility.yul\":13431:13502   */\n      tag_195\n      jump\t// in\n    tag_376:\n        /* \"#utility.yul\":13287:13509   */\n      swap3\n      swap2\n      pop\n      pop\n      jump\t// out\n        /* \"#utility.yul\":13515:13695   */\n    tag_223:\n        /* \"#utility.yul\":13563:13640   */\n      0x4e487b7100000000000000000000000000000000000000000000000000000000\n        /* \"#utility.yul\":13560:13561   */\n      0x00\n        /* \"#utility.yul\":13553:13641   */\n      mstore\n        /* \"#utility.yul\":13660:13664   */\n      0x22\n        /* \"#utility.yul\":13657:13658   */\n      0x04\n        /* \"#utility.yul\":13650:13665   */\n      mstore\n        /* \"#utility.yul\":13684:13688   */\n      0x24\n        /* \"#utility.yul\":13681:13682   */\n      0x00\n        /* \"#utility.yul\":13674:13689   */\n      revert\n        /* \"#utility.yul\":13701:14021   */\n    tag_50:\n        /* \"#utility.yul\":13745:13751   */\n      0x00\n        /* \"#utility.yul\":13782:13783   */\n      0x02\n        /* \"#utility.yul\":13776:13780   */\n      dup3\n        /* \"#utility.yul\":13772:13784   */\n      div\n        /* \"#utility.yul\":13762:13784   */\n      swap1\n      pop\n        /* \"#utility.yul\":13829:13830   */\n      0x01\n        /* \"#utility.yul\":13823:13827   */\n      dup3\n        /* \"#utility.yul\":13819:13831   */\n      and\n        /* \"#utility.yul\":13850:13868   */\n      dup1\n        /* \"#utility.yul\":13840:13921   */\n      tag_379\n      jumpi\n        /* \"#utility.yul\":13906:13910   */\n      0x7f\n        /* \"#utility.yul\":13898:13904   */\n      dup3\n        /* \"#utility.yul\":13894:13911   */\n      and\n        /* \"#utility.yul\":13884:13911   */\n      swap2\n      pop\n        /* \"#utility.yul\":13840:13921   */\n    tag_379:\n        /* \"#utility.yul\":13968:13970   */\n      0x20\n        /* \"#utility.yul\":13960:13966   */\n      dup3\n        /* \"#utility.yul\":13957:13971   */\n      lt\n        /* \"#utility.yul\":13937:13955   */\n      dup2\n        /* \"#utility.yul\":13934:13972   */\n      sub\n        /* \"#utility.yul\":13931:14015   */\n      tag_380\n      jumpi\n        /* \"#utility.yul\":13987:14005   */\n      tag_381\n      tag_223\n      jump\t// in\n    tag_381:\n        /* \"#utility.yul\":13931:14015   */\n    tag_380:\n        /* \"#utility.yul\":13752:14021   */\n      pop\n        /* \"#utility.yul\":13701:14021   */\n      swap2\n      swap1\n      pop\n      jump\t// out\n        /* \"#utility.yul\":14027:14168   */\n    tag_224:\n        /* \"#utility.yul\":14076:14080   */\n      0x00\n        /* \"#utility.yul\":14099:14102   */\n      dup2\n        /* \"#utility.yul\":14091:14102   */\n      swap1\n      pop\n        /* \"#utility.yul\":14122:14125   */\n      dup2\n        /* \"#utility.yul\":14119:14120   */\n      0x00\n        /* \"#utility.yul\":14112:14126   */\n      mstore\n        /* \"#utility.yul\":14156:14160   */\n      0x20\n        /* \"#utility.yul\":14153:14154   */\n      0x00\n        /* \"#utility.yul\":14143:14161   */\n      keccak256\n        /* \"#utility.yul\":14135:14161   */\n      swap1\n      pop\n        /* \"#utility.yul\":14027:14168   */\n      swap2\n      swap1\n      pop\n      jump\t// out\n        /* \"#utility.yul\":14174:14267   */\n    tag_225:\n        /* \"#utility.yul\":14211:14217   */\n      0x00\n        /* \"#utility.yul\":14258:14260   */\n      0x20\n        /* \"#utility.yul\":14253:14255   */\n      0x1f\n        /* \"#utility.yul\":14246:14251   */\n      dup4\n        /* \"#utility.yul\":14242:14256   */\n      add\n        /* \"#utility.yul\":14238:14261   */\n      div\n        /* \"#utility.yul\":14228:14261   */\n      swap1\n      pop\n        /* \"#utility.yul\":14174:14267   */\n      swap2\n      swap1\n      pop\n      jump\t// out\n        /* \"#utility.yul\":14273:14380   */\n    tag_226:\n        /* \"#utility.yul\":14317:14325   */\n      0x00\n        /* \"#utility.yul\":14367:14372   */\n      dup3\n        /* \"#utility.yul\":14361:14365   */\n      dup3\n        /* \"#utility.yul\":14357:14373   */\n      shl\n        /* \"#utility.yul\":14336:14373   */\n      swap1\n      pop\n        /* \"#utility.yul\":14273:14380   */\n      swap3\n      swap2\n      pop\n      pop\n      jump\t// out\n        /* \"#utility.yul\":14386:14779   */\n    tag_227:\n        /* \"#utility.yul\":14455:14461   */\n      0x00\n        /* \"#utility.yul\":14505:14506   */\n      0x08\n        /* \"#utility.yul\":14493:14503   */\n      dup4\n        /* \"#utility.yul\":14489:14507   */\n      mul\n        /* \"#utility.yul\":14528:14625   */\n      tag_386\n        /* \"#utility.yul\":14558:14624   */\n      0xffffffffffffffffffffffffffffffffffffffffffffffffffffffffffffffff\n        /* \"#utility.yul\":14547:14556   */\n      dup3\n        /* \"#utility.yul\":14528:14625   */\n      tag_226\n      jump\t// in\n    tag_386:\n        /* \"#utility.yul\":14646:14685   */\n      tag_387\n        /* \"#utility.yul\":14676:14684   */\n      dup7\n        /* \"#utility.yul\":14665:14674   */\n      dup4\n        /* \"#utility.yul\":14646:14685   */\n      tag_226\n      jump\t// in\n    tag_387:\n        /* \"#utility.yul\":14634:14685   */\n      swap6\n      pop\n        /* \"#utility.yul\":14718:14722   */\n      dup1\n        /* \"#utility.yul\":14714:14723   */\n      not\n        /* \"#utility.yul\":14707:14712   */\n      dup5\n        /* \"#utility.yul\":14703:14724   */\n      and\n        /* \"#utility.yul\":14694:14724   */\n      swap4\n      pop\n        /* \"#utility.yul\":14767:14771   */\n      dup1\n        /* \"#utility.yul\":14757:14765   */\n      dup7\n        /* \"#utility.yul\":14753:14772   */\n      and\n        /* \"#utility.yul\":14746:14751   */\n      dup5\n        /* \"#utility.yul\":14743:14773   */\n      or\n        /* \"#utility.yul\":14733:14773   */\n      swap3\n      pop\n        /* \"#utility.yul\":14462:14779   */\n      pop\n      pop\n        /* \"#utility.yul\":14386:14779   */\n      swap4\n      swap3\n      pop\n      pop\n      pop\n      jump\t// out\n        /* \"#utility.yul\":14785:14845   */\n    tag_228:\n        /* \"#utility.yul\":14813:14816   */\n      0x00\n        /* \"#utility.yul\":14834:14839   */\n      dup2\n        /* \"#utility.yul\":14827:14839   */\n      swap1\n      pop\n        /* \"#utility.yul\":14785:14845   */\n      swap2\n      swap1\n      pop\n      jump\t// out\n        /* \"#utility.yul\":14851:14993   */\n    tag_229:\n        /* \"#utility.yul\":14901:14910   */\n      0x00\n        /* \"#utility.yul\":14934:14987   */\n      tag_390\n        /* \"#utility.yul\":14952:14986   */\n      tag_391\n        /* \"#utility.yul\":14961:14985   */\n      tag_392\n        /* \"#utility.yul\":14979:14984   */\n      dup5\n        /* \"#utility.yul\":14961:14985   */\n      tag_187\n      jump\t// in\n    tag_392:\n        /* \"#utility.yul\":14952:14986   */\n      tag_228\n      jump\t// in\n    tag_391:\n        /* \"#utility.yul\":14934:14987   */\n      tag_187\n      jump\t// in\n    tag_390:\n        /* \"#utility.yul\":14921:14987   */\n      swap1\n      pop\n        /* \"#utility.yul\":14851:14993   */\n      swap2\n      swap1\n      pop\n      jump\t// out\n        /* \"#utility.yul\":14999:15074   */\n    tag_230:\n        /* \"#utility.yul\":15042:15045   */\n      0x00\n        /* \"#utility.yul\":15063:15068   */\n      dup2\n        /* \"#utility.yul\":15056:15068   */\n      swap1\n      pop\n        /* \"#utility.yul\":14999:15074   */\n      swap2\n      swap1\n      pop\n      jump\t// out\n        /* \"#utility.yul\":15080:15349   */\n    tag_231:\n        /* \"#utility.yul\":15190:15229   */\n      tag_395\n        /* \"#utility.yul\":15221:15228   */\n      dup4\n        /* \"#utility.yul\":15190:15229   */\n      tag_229\n      jump\t// in\n    tag_395:\n        /* \"#utility.yul\":15251:15342   */\n      tag_396\n        /* \"#utility.yul\":15300:15341   */\n      tag_397\n        /* \"#utility.yul\":15324:15340   */\n      dup3\n        /* \"#utility.yul\":15300:15341   */\n      tag_230\n      jump\t// in\n    tag_397:\n        /* \"#utility.yul\":15292:15298   */\n      dup5\n        /* \"#utility.yul\":15285:15289   */\n      dup5\n        /* \"#utility.yul\":15279:15290   */\n      sload\n        /* \"#utility.yul\":15251:15342   */\n      tag_227\n      jump\t// in\n    tag_396:\n        /* \"#utility.yul\":15245:15249   */\n      dup3\n        /* \"#utility.yul\":15238:15343   */\n      sstore\n        /* \"#utility.yul\":15156:15349   */\n      pop\n        /* \"#utility.yul\":15080:15349   */\n      pop\n      pop\n      pop\n      jump\t// out\n        /* \"#utility.yul\":15355:15428   */\n    tag_232:\n        /* \"#utility.yul\":15400:15403   */\n      0x00\n        /* \"#utility.yul\":15355:15428   */\n      swap1\n      jump\t// out\n        /* \"#utility.yul\":15434:15623   */\n    tag_233:\n        /* \"#utility.yul\":15511:15543   */\n      tag_400\n      tag_232\n      jump\t// in\n    tag_400:\n        /* \"#utility.yul\":15552:15617   */\n      tag_401\n        /* \"#utility.yul\":15610:15616   */\n      dup2\n        /* \"#utility.yul\":15602:15608   */\n      dup5\n        /* \"#utility.yul\":15596:15600   */\n      dup5\n        /* \"#utility.yul\":15552:15617   */\n      tag_231\n      jump\t// in\n    tag_401:\n        /* \"#utility.yul\":15487:15623   */\n      pop\n        /* \"#utility.yul\":15434:15623   */\n      pop\n      pop\n      jump\t// out\n        /* \"#utility.yul\":15629:15815   */\n    tag_234:\n        /* \"#utility.yul\":15689:15809   */\n    tag_403:\n        /* \"#utility.yul\":15706:15709   */\n      dup2\n        /* \"#utility.yul\":15699:15704   */\n      dup2\n        /* \"#utility.yul\":15696:15710   */\n      lt\n        /* \"#utility.yul\":15689:15809   */\n      iszero\n      tag_405\n      jumpi\n        /* \"#utility.yul\":15760:15799   */\n      tag_406\n        /* \"#utility.yul\":15797:15798   */\n      0x00\n        /* \"#utility.yul\":15790:15795   */\n      dup3\n        /* \"#utility.yul\":15760:15799   */\n      tag_233\n      jump\t// in\n    tag_406:\n        /* \"#utility.yul\":15733:15734   */\n      0x01\n        /* \"#utility.yul\":15726:15731   */\n      dup2\n        /* \"#utility.yul\":15722:15735   */\n      add\n        /* \"#utility.yul\":15713:15735   */\n      swap1\n      pop\n        /* \"#utility.yul\":15689:15809   */\n      jump(tag_403)\n    tag_405:\n        /* \"#utility.yul\":15629:15815   */\n      pop\n      pop\n      jump\t// out\n        /* \"#utility.yul\":15821:16364   */\n    tag_235:\n        /* \"#utility.yul\":15922:15924   */\n      0x1f\n        /* \"#utility.yul\":15917:15920   */\n      dup3\n        /* \"#utility.yul\":15914:15925   */\n      gt\n        /* \"#utility.yul\":15911:16357   */\n      iszero\n      tag_408\n      jumpi\n        /* \"#utility.yul\":15956:15994   */\n      tag_409\n        /* \"#utility.yul\":15988:15993   */\n      dup2\n        /* \"#utility.yul\":15956:15994   */\n      tag_224\n      jump\t// in\n    tag_409:\n        /* \"#utility.yul\":16040:16069   */\n      tag_410\n        /* \"#utility.yul\":16058:16068   */\n      dup5\n        /* \"#utility.yul\":16040:16069   */\n      tag_225\n      jump\t// in\n    tag_410:\n        /* \"#utility.yul\":16030:16038   */\n      dup2\n        /* \"#utility.yul\":16026:16070   */\n      add\n        /* \"#utility.yul\":16223:16225   */\n      0x20\n        /* \"#utility.yul\":16211:16221   */\n      dup6\n        /* \"#utility.yul\":16208:16226   */\n      lt\n        /* \"#utility.yul\":16205:16254   */\n      iszero\n      tag_411\n      jumpi\n        /* \"#utility.yul\":16244:16252   */\n      dup2\n        /* \"#utility.yul\":16229:16252   */\n      swap1\n      pop\n        /* \"#utility.yul\":16205:16254   */\n    tag_411:\n        /* \"#utility.yul\":16267:16347   */\n      tag_412\n        /* \"#utility.yul\":16323:16345   */\n      tag_413\n        /* \"#utility.yul\":16341:16344   */\n      dup6\n        /* \"#utility.yul\":16323:16345   */\n      tag_225\n      jump\t// in\n    tag_413:\n        /* \"#utility.yul\":16313:16321   */\n      dup4\n        /* \"#utility.yul\":16309:16346   */\n      add\n        /* \"#utility.yul\":16296:16307   */\n      dup3\n        /* \"#utility.yul\":16267:16347   */\n      tag_234\n      jump\t// in\n    tag_412:\n        /* \"#utility.yul\":15926:16357   */\n      pop\n      pop\n        /* \"#utility.yul\":15911:16357   */\n    tag_408:\n        /* \"#utility.yul\":15821:16364   */\n      pop\n      pop\n      pop\n      jump\t// out\n        /* \"#utility.yul\":16370:16487   */\n    tag_236:\n        /* \"#utility.yul\":16424:16432   */\n      0x00\n        /* \"#utility.yul\":16474:16479   */\n      dup3\n        /* \"#utility.yul\":16468:16472   */\n      dup3\n        /* \"#utility.yul\":16464:16480   */\n      shr\n        /* \"#utility.yul\":16443:16480   */\n      swap1\n      pop\n        /* \"#utility.yul\":16370:16487   */\n      swap3\n      swap2\n      pop\n      pop\n      jump\t// out\n        /* \"#utility.yul\":16493:16662   */\n    tag_237:\n        /* \"#utility.yul\":16537:16543   */\n      0x00\n        /* \"#utility.yul\":16570:16621   */\n      tag_416\n        /* \"#utility.yul\":16618:16619   */\n      0x00\n        /* \"#utility.yul\":16614:16620   */\n      not\n        /* \"#utility.yul\":16606:16611   */\n      dup5\n        /* \"#utility.yul\":16603:16604   */\n      0x08\n        /* \"#utility.yul\":16599:16612   */\n      mul\n        /* \"#utility.yul\":16570:16621   */\n      tag_236\n      jump\t// in\n    tag_416:\n        /* \"#utility.yul\":16566:16622   */\n      not\n        /* \"#utility.yul\":16651:16655   */\n      dup1\n        /* \"#utility.yul\":16645:16649   */\n      dup4\n        /* \"#utility.yul\":16641:16656   */\n      and\n        /* \"#utility.yul\":16631:16656   */\n      swap2\n      pop\n        /* \"#utility.yul\":16544:16662   */\n      pop\n        /* \"#utility.yul\":16493:16662   */\n      swap3\n      swap2\n      pop\n      pop\n      jump\t// out\n        /* \"#utility.yul\":16667:16962   */\n    tag_238:\n        /* \"#utility.yul\":16743:16747   */\n      0x00\n        /* \"#utility.yul\":16889:16918   */\n      tag_418\n        /* \"#utility.yul\":16914:16917   */\n      dup4\n        /* \"#utility.yul\":16908:16912   */\n      dup4\n        /* \"#utility.yul\":16889:16918   */\n      tag_237\n      jump\t// in\n    tag_418:\n        /* \"#utility.yul\":16881:16918   */\n      swap2\n      pop\n        /* \"#utility.yul\":16951:16954   */\n      dup3\n        /* \"#utility.yul\":16948:16949   */\n      0x02\n        /* \"#utility.yul\":16944:16955   */\n      mul\n        /* \"#utility.yul\":16938:16942   */\n      dup3\n        /* \"#utility.yul\":16935:16956   */\n      or\n        /* \"#utility.yul\":16927:16956   */\n      swap1\n      pop\n        /* \"#utility.yul\":16667:16962   */\n      swap3\n      swap2\n      pop\n      pop\n      jump\t// out\n        /* \"#utility.yul\":16967:18362   */\n    tag_62:\n        /* \"#utility.yul\":17084:17121   */\n      tag_420\n        /* \"#utility.yul\":17117:17120   */\n      dup3\n        /* \"#utility.yul\":17084:17121   */\n      tag_190\n      jump\t// in\n    tag_420:\n        /* \"#utility.yul\":17186:17204   */\n      0xffffffffffffffff\n        /* \"#utility.yul\":17178:17184   */\n      dup2\n        /* \"#utility.yul\":17175:17205   */\n      gt\n        /* \"#utility.yul\":17172:17228   */\n      iszero\n      tag_421\n      jumpi\n        /* \"#utility.yul\":17208:17226   */\n      tag_422\n      tag_206\n      jump\t// in\n    tag_422:\n        /* \"#utility.yul\":17172:17228   */\n    tag_421:\n        /* \"#utility.yul\":17252:17290   */\n      tag_423\n        /* \"#utility.yul\":17284:17288   */\n      dup3\n        /* \"#utility.yul\":17278:17289   */\n      sload\n        /* \"#utility.yul\":17252:17290   */\n      tag_50\n      jump\t// in\n    tag_423:\n        /* \"#utility.yul\":17337:17404   */\n      tag_424\n        /* \"#utility.yul\":17397:17403   */\n      dup3\n        /* \"#utility.yul\":17389:17395   */\n      dup3\n        /* \"#utility.yul\":17383:17387   */\n      dup6\n        /* \"#utility.yul\":17337:17404   */\n      tag_235\n      jump\t// in\n    tag_424:\n        /* \"#utility.yul\":17431:17432   */\n      0x00\n        /* \"#utility.yul\":17455:17459   */\n      0x20\n        /* \"#utility.yul\":17442:17459   */\n      swap1\n      pop\n        /* \"#utility.yul\":17487:17489   */\n      0x1f\n        /* \"#utility.yul\":17479:17485   */\n      dup4\n        /* \"#utility.yul\":17476:17490   */\n      gt\n        /* \"#utility.yul\":17504:17505   */\n      0x01\n        /* \"#utility.yul\":17499:18117   */\n      dup2\n      eq\n      tag_426\n      jumpi\n        /* \"#utility.yul\":18161:18162   */\n      0x00\n        /* \"#utility.yul\":18178:18184   */\n      dup5\n        /* \"#utility.yul\":18175:18252   */\n      iszero\n      tag_427\n      jumpi\n        /* \"#utility.yul\":18227:18236   */\n      dup3\n        /* \"#utility.yul\":18222:18225   */\n      dup8\n        /* \"#utility.yul\":18218:18237   */\n      add\n        /* \"#utility.yul\":18212:18238   */\n      mload\n        /* \"#utility.yul\":18203:18238   */\n      swap1\n      pop\n        /* \"#utility.yul\":18175:18252   */\n    tag_427:\n        /* \"#utility.yul\":18278:18345   */\n      tag_428\n        /* \"#utility.yul\":18338:18344   */\n      dup6\n        /* \"#utility.yul\":18331:18336   */\n      dup3\n        /* \"#utility.yul\":18278:18345   */\n      tag_238\n      jump\t// in\n    tag_428:\n        /* \"#utility.yul\":18272:18276   */\n      dup7\n        /* \"#utility.yul\":18265:18346   */\n      sstore\n        /* \"#utility.yul\":18134:18356   */\n      pop\n        /* \"#utility.yul\":17469:18356   */\n      jump(tag_425)\n        /* \"#utility.yul\":17499:18117   */\n    tag_426:\n        /* \"#utility.yul\":17551:17555   */\n      0x1f\n        /* \"#utility.yul\":17547:17556   */\n      not\n        /* \"#utility.yul\":17539:17545   */\n      dup5\n        /* \"#utility.yul\":17535:17557   */\n      and\n        /* \"#utility.yul\":17585:17622   */\n      tag_429\n        /* \"#utility.yul\":17617:17621   */\n      dup7\n        /* \"#utility.yul\":17585:17622   */\n      tag_224\n      jump\t// in\n    tag_429:\n        /* \"#utility.yul\":17644:17645   */\n      0x00\n        /* \"#utility.yul\":17658:17866   */\n    tag_430:\n        /* \"#utility.yul\":17672:17679   */\n      dup3\n        /* \"#utility.yul\":17669:17670   */\n      dup2\n        /* \"#utility.yul\":17666:17680   */\n      lt\n        /* \"#utility.yul\":17658:17866   */\n      iszero\n      tag_432\n      jumpi\n        /* \"#utility.yul\":17751:17760   */\n      dup5\n        /* \"#utility.yul\":17746:17749   */\n      dup10\n        /* \"#utility.yul\":17742:17761   */\n      add\n        /* \"#utility.yul\":17736:17762   */\n      mload\n        /* \"#utility.yul\":17728:17734   */\n      dup3\n        /* \"#utility.yul\":17721:17763   */\n      sstore\n        /* \"#utility.yul\":17802:17803   */\n      0x01\n        /* \"#utility.yul\":17794:17800   */\n      dup3\n        /* \"#utility.yul\":17790:17804   */\n      add\n        /* \"#utility.yul\":17780:17804   */\n      swap2\n      pop\n        /* \"#utility.yul\":17849:17851   */\n      0x20\n        /* \"#utility.yul\":17838:17847   */\n      dup6\n        /* \"#utility.yul\":17834:17852   */\n      add\n        /* \"#utility.yul\":17821:17852   */\n      swap5\n      pop\n        /* \"#utility.yul\":17695:17699   */\n      0x20\n        /* \"#utility.yul\":17692:17693   */\n      dup2\n        /* \"#utility.yul\":17688:17700   */\n      add\n        /* \"#utility.yul\":17683:17700   */\n      swap1\n      pop\n        /* \"#utility.yul\":17658:17866   */\n      jump(tag_430)\n    tag_432:\n        /* \"#utility.yul\":17894:17900   */\n      dup7\n        /* \"#utility.yul\":17885:17892   */\n      dup4\n        /* \"#utility.yul\":17882:17901   */\n      lt\n        /* \"#utility.yul\":17879:18058   */\n      iszero\n      tag_433\n      jumpi\n        /* \"#utility.yul\":17952:17961   */\n      dup5\n        /* \"#utility.yul\":17947:17950   */\n      dup10\n        /* \"#utility.yul\":17943:17962   */\n      add\n        /* \"#utility.yul\":17937:17963   */\n      mload\n        /* \"#utility.yul\":17995:18043   */\n      tag_434\n        /* \"#utility.yul\":18037:18041   */\n      0x1f\n        /* \"#utility.yul\":18029:18035   */\n      dup10\n        /* \"#utility.yul\":18025:18042   */\n      and\n        /* \"#utility.yul\":18014:18023   */\n      dup3\n        /* \"#utility.yul\":17995:18043   */\n      tag_237\n      jump\t// in\n    tag_434:\n        /* \"#utility.yul\":17987:17993   */\n      dup4\n        /* \"#utility.yul\":17980:18044   */\n      sstore\n        /* \"#utility.yul\":17902:18058   */\n      pop\n        /* \"#utility.yul\":17879:18058   */\n    tag_433:\n        /* \"#utility.yul\":18104:18105   */\n      0x01\n        /* \"#utility.yul\":18100:18101   */\n      0x02\n        /* \"#utility.yul\":18092:18098   */\n      dup9\n        /* \"#utility.yul\":18088:18102   */\n      mul\n        /* \"#utility.yul\":18084:18106   */\n      add\n        /* \"#utility.yul\":18078:18082   */\n      dup9\n        /* \"#utility.yul\":18071:18107   */\n      sstore\n        /* \"#utility.yul\":17506:18117   */\n      pop\n      pop\n      pop\n        /* \"#utility.yul\":17469:18356   */\n    tag_425:\n      pop\n        /* \"#utility.yul\":17059:18362   */\n      pop\n      pop\n      pop\n        /* \"#utility.yul\":16967:18362   */\n      pop\n      pop\n      jump\t// out\n        /* \"#utility.yul\":18368:18548   */\n    tag_239:\n        /* \"#utility.yul\":18416:18493   */\n      0x4e487b7100000000000000000000000000000000000000000000000000000000\n        /* \"#utility.yul\":18413:18414   */\n      0x00\n        /* \"#utility.yul\":18406:18494   */\n      mstore\n        /* \"#utility.yul\":18513:18517   */\n      0x11\n        /* \"#utility.yul\":18510:18511   */\n      0x04\n        /* \"#utility.yul\":18503:18518   */\n      mstore\n        /* \"#utility.yul\":18537:18541   */\n      0x24\n        /* \"#utility.yul\":18534:18535   */\n      0x00\n        /* \"#utility.yul\":18527:18542   */\n      revert\n        /* \"#utility.yul\":18554:18787   */\n    tag_79:\n        /* \"#utility.yul\":18593:18596   */\n      0x00\n        /* \"#utility.yul\":18616:18640   */\n      tag_437\n        /* \"#utility.yul\":18634:18639   */\n      dup3\n        /* \"#utility.yul\":18616:18640   */\n      tag_187\n      jump\t// in\n    tag_437:\n        /* \"#utility.yul\":18607:18640   */\n      swap2\n      pop\n        /* \"#utility.yul\":18662:18728   */\n      0xffffffffffffffffffffffffffffffffffffffffffffffffffffffffffffffff\n        /* \"#utility.yul\":18655:18660   */\n      dup3\n        /* \"#utility.yul\":18652:18729   */\n      sub\n        /* \"#utility.yul\":18649:18752   */\n      tag_438\n      jumpi\n        /* \"#utility.yul\":18732:18750   */\n      tag_439\n      tag_239\n      jump\t// in\n    tag_439:\n        /* \"#utility.yul\":18649:18752   */\n    tag_438:\n        /* \"#utility.yul\":18779:18780   */\n      0x01\n        /* \"#utility.yul\":18772:18777   */\n      dup3\n        /* \"#utility.yul\":18768:18781   */\n      add\n        /* \"#utility.yul\":18761:18781   */\n      swap1\n      pop\n        /* \"#utility.yul\":18554:18787   */\n      swap2\n      swap1\n      pop\n      jump\t// out\n\n    auxdata: 0xa264697066735822122060d5664f90da6b0cdd3335e771efe7a4480000fc5287e4ad6a54891ea4cb502f64736f6c63430008120033\n}\n",
				"bytecode": {
					"linkReferences": {},
					"object": "608060405234801561001057600080fd5b506114d5806100206000396000f3fe608060405234801561001057600080fd5b50600436106100885760003560e01c80639507d39a1161005b5780639507d39a1461012e578063a938f78d1461015e578063b52b4d501461017a578063edb6f7e71461019b57610088565b8063373bfc671461008d57806345715674146100c25780634a98f464146100de5780636b8ff574146100fe575b600080fd5b6100a760048036038101906100a29190610afd565b6101cb565b6040516100b996959493929190610c88565b60405180910390f35b6100dc60048036038101906100d79190610e6f565b6102a9565b005b6100e66105ea565b6040516100f59392919061102d565b60405180910390f35b61011860048036038101906101139190610afd565b610607565b6040516101259190611079565b60405180910390f35b61014860048036038101906101439190610afd565b6106ae565b604051610155919061109b565b60405180910390f35b61017860048036038101906101739190610e6f565b610800565b005b610182610903565b60405161019294939291906110bd565b60405180910390f35b6101b560048036038101906101b09190611102565b610a41565b6040516101c2919061112f565b60405180910390f35b60006020528060005260406000206000915090508060000180546101ee90611179565b80601f016020809104026020016040519081016040528092919081815260200182805461021a90611179565b80156102675780601f1061023c57610100808354040283529160200191610267565b820191906000526020600020905b81548152906001019060200180831161024a57829003601f168201915b5050505050908060010154908060020154908060030160009054906101000a900460ff16908060030160019054906101000a900460ff16908060040154905086565b6040518060c001604052808881526020018781526020018581526020018460038111156102d9576102d8610bc9565b5b81526020018360038111156102f1576102f0610bc9565b5b81526020018281525060008087815260200190815260200160002060008201518160000190816103219190611356565b50602082015181600101556040820151816002015560608201518160030160006101000a81548160ff0219169083600381111561036157610360610bc9565b5b021790555060808201518160030160016101000a81548160ff0219169083600381111561039157610390610bc9565b5b021790555060a08201518160040155905050600060038111156103b7576103b6610bc9565b5b60038111156103c9576103c8610bc9565b5b8360038111156103dc576103db610bc9565b5b0361043357600160008460038111156103f8576103f7610bc9565b5b600381111561040a57610409610bc9565b5b8152602001908152602001600020600081548092919061042990611457565b91905055506105e1565b6001600381111561044757610446610bc9565b5b600381111561045957610458610bc9565b5b83600381111561046c5761046b610bc9565b5b036104c3576001600084600381111561048857610487610bc9565b5b600381111561049a57610499610bc9565b5b815260200190815260200160002060008154809291906104b990611457565b91905055506105e0565b600260038111156104d7576104d6610bc9565b5b60038111156104e9576104e8610bc9565b5b8360038111156104fc576104fb610bc9565b5b03610553576001600084600381111561051857610517610bc9565b5b600381111561052a57610529610bc9565b5b8152602001908152602001600020600081548092919061054990611457565b91905055506105df565b60038081111561056657610565610bc9565b5b600381111561057857610577610bc9565b5b83600381111561058b5761058a610bc9565b5b036105de57600160008460038111156105a7576105a6610bc9565b5b60038111156105b9576105b8610bc9565b5b815260200190815260200160002060008154809291906105d890611457565b91905055505b5b5b5b50505050505050565b6105f2610a59565b6105fa610a59565b610602610a59565b909192565b6060600080838152602001908152602001600020600001805461062990611179565b80601f016020809104026020016040519081016040528092919081815260200182805461065590611179565b80156106a25780601f10610677576101008083540402835291602001916106a2565b820191906000526020600020905b81548152906001019060200180831161068557829003601f168201915b50505050509050919050565b6106b6610a59565b6000808381526020019081526020016000206040518060c00160405290816000820180546106e390611179565b80601f016020809104026020016040519081016040528092919081815260200182805461070f90611179565b801561075c5780601f106107315761010080835404028352916020019161075c565b820191906000526020600020905b81548152906001019060200180831161073f57829003601f168201915b5050505050815260200160018201548152602001600282015481526020016003820160009054906101000a900460ff16600381111561079e5761079d610bc9565b5b60038111156107b0576107af610bc9565b5b81526020016003820160019054906101000a900460ff1660038111156107d9576107d8610bc9565b5b60038111156107eb576107ea610bc9565b5b81526020016004820154815250509050919050565b6040518060c001604052808881526020018781526020018581526020018460038111156108305761082f610bc9565b5b815260200183600381111561084857610847610bc9565b5b81526020018281525060008087815260200190815260200160002060008201518160000190816108789190611356565b50602082015181600101556040820151816002015560608201518160030160006101000a81548160ff021916908360038111156108b8576108b7610bc9565b5b021790555060808201518160030160016101000a81548160ff021916908360038111156108e8576108e7610bc9565b5b021790555060a0820151816004015590505050505050505050565b600080600080600160008060038111156109205761091f610bc9565b5b600381111561093257610931610bc9565b5b600381111561094457610943610bc9565b5b815260200190815260200160002054600160006001600381111561096b5761096a610bc9565b5b600381111561097d5761097c610bc9565b5b600381111561098f5761098e610bc9565b5b81526020019081526020016000205460016000600260038111156109b6576109b5610bc9565b5b60038111156109c8576109c7610bc9565b5b60038111156109da576109d9610bc9565b5b81526020019081526020016000205460016000600380811115610a00576109ff610bc9565b5b6003811115610a1257610a11610bc9565b5b6003811115610a2457610a23610bc9565b5b815260200190815260200160002054935093509350935090919293565b60016020528060005260406000206000915090505481565b6040518060c0016040528060608152602001600081526020016000815260200160006003811115610a8d57610a8c610bc9565b5b815260200160006003811115610aa657610aa5610bc9565b5b8152602001600081525090565b6000604051905090565b600080fd5b600080fd5b6000819050919050565b610ada81610ac7565b8114610ae557600080fd5b50565b600081359050610af781610ad1565b92915050565b600060208284031215610b1357610b12610abd565b5b6000610b2184828501610ae8565b91505092915050565b600081519050919050565b600082825260208201905092915050565b60005b83811015610b64578082015181840152602081019050610b49565b60008484015250505050565b6000601f19601f8301169050919050565b6000610b8c82610b2a565b610b968185610b35565b9350610ba6818560208601610b46565b610baf81610b70565b840191505092915050565b610bc381610ac7565b82525050565b7f4e487b7100000000000000000000000000000000000000000000000000000000600052602160045260246000fd5b60048110610c0957610c08610bc9565b5b50565b6000819050610c1a82610bf8565b919050565b6000610c2a82610c0c565b9050919050565b610c3a81610c1f565b82525050565b60048110610c5157610c50610bc9565b5b50565b6000819050610c6282610c40565b919050565b6000610c7282610c54565b9050919050565b610c8281610c67565b82525050565b600060c0820190508181036000830152610ca28189610b81565b9050610cb16020830188610bba565b610cbe6040830187610bba565b610ccb6060830186610c31565b610cd86080830185610c79565b610ce560a0830184610bba565b979650505050505050565b600080fd5b600080fd5b7f4e487b7100000000000000000000000000000000000000000000000000000000600052604160045260246000fd5b610d3282610b70565b810181811067ffffffffffffffff82111715610d5157610d50610cfa565b5b80604052505050565b6000610d64610ab3565b9050610d708282610d29565b919050565b600067ffffffffffffffff821115610d9057610d8f610cfa565b5b610d9982610b70565b9050602081019050919050565b82818337600083830152505050565b6000610dc8610dc384610d75565b610d5a565b905082815260208101848484011115610de457610de3610cf5565b5b610def848285610da6565b509392505050565b600082601f830112610e0c57610e0b610cf0565b5b8135610e1c848260208601610db5565b91505092915050565b60048110610e3257600080fd5b50565b600081359050610e4481610e25565b92915050565b60048110610e5757600080fd5b50565b600081359050610e6981610e4a565b92915050565b600080600080600080600060e0888a031215610e8e57610e8d610abd565b5b600088013567ffffffffffffffff811115610eac57610eab610ac2565b5b610eb88a828b01610df7565b9750506020610ec98a828b01610ae8565b9650506040610eda8a828b01610ae8565b9550506060610eeb8a828b01610ae8565b9450506080610efc8a828b01610e35565b93505060a0610f0d8a828b01610e5a565b92505060c0610f1e8a828b01610ae8565b91505092959891949750929550565b600082825260208201905092915050565b6000610f4982610b2a565b610f538185610f2d565b9350610f63818560208601610b46565b610f6c81610b70565b840191505092915050565b610f8081610ac7565b82525050565b610f8f81610c1f565b82525050565b610f9e81610c67565b82525050565b600060c0830160008301518482036000860152610fc18282610f3e565b9150506020830151610fd66020860182610f77565b506040830151610fe96040860182610f77565b506060830151610ffc6060860182610f86565b50608083015161100f6080860182610f95565b5060a083015161102260a0860182610f77565b508091505092915050565b600060608201905081810360008301526110478186610fa4565b9050818103602083015261105b8185610fa4565b9050818103604083015261106f8184610fa4565b9050949350505050565b600060208201905081810360008301526110938184610b81565b905092915050565b600060208201905081810360008301526110b58184610fa4565b905092915050565b60006080820190506110d26000830187610bba565b6110df6020830186610bba565b6110ec6040830185610bba565b6110f96060830184610bba565b95945050505050565b60006020828403121561111857611117610abd565b5b600061112684828501610e35565b91505092915050565b60006020820190506111446000830184610bba565b92915050565b7f4e487b7100000000000000000000000000000000000000000000000000000000600052602260045260246000fd5b6000600282049050600182168061119157607f821691505b6020821081036111a4576111a361114a565b5b50919050565b60008190508160005260206000209050919050565b60006020601f8301049050919050565b600082821b905092915050565b60006008830261120c7fffffffffffffffffffffffffffffffffffffffffffffffffffffffffffffffff826111cf565b61121686836111cf565b95508019841693508086168417925050509392505050565b6000819050919050565b600061125361124e61124984610ac7565b61122e565b610ac7565b9050919050565b6000819050919050565b61126d83611238565b6112816112798261125a565b8484546111dc565b825550505050565b600090565b611296611289565b6112a1818484611264565b505050565b5b818110156112c5576112ba60008261128e565b6001810190506112a7565b5050565b601f82111561130a576112db816111aa565b6112e4846111bf565b810160208510156112f3578190505b6113076112ff856111bf565b8301826112a6565b50505b505050565b600082821c905092915050565b600061132d6000198460080261130f565b1980831691505092915050565b6000611346838361131c565b9150826002028217905092915050565b61135f82610b2a565b67ffffffffffffffff81111561137857611377610cfa565b5b6113828254611179565b61138d8282856112c9565b600060209050601f8311600181146113c057600084156113ae578287015190505b6113b8858261133a565b865550611420565b601f1984166113ce866111aa565b60005b828110156113f6578489015182556001820191506020850194506020810190506113d1565b86831015611413578489015161140f601f89168261131c565b8355505b6001600288020188555050505b505050505050565b7f4e487b7100000000000000000000000000000000000000000000000000000000600052601160045260246000fd5b600061146282610ac7565b91507fffffffffffffffffffffffffffffffffffffffffffffffffffffffffffffffff820361149457611493611428565b5b60018201905091905056fea264697066735822122060d5664f90da6b0cdd3335e771efe7a4480000fc5287e4ad6a54891ea4cb502f64736f6c63430008120033",
					"opcodes": "PUSH1 0x80 PUSH1 0x40 MSTORE CALLVALUE DUP1 ISZERO PUSH2 0x10 JUMPI PUSH1 0x0 DUP1 REVERT JUMPDEST POP PUSH2 0x14D5 DUP1 PUSH2 0x20 PUSH1 0x0 CODECOPY PUSH1 0x0 RETURN INVALID PUSH1 0x80 PUSH1 0x40 MSTORE CALLVALUE DUP1 ISZERO PUSH2 0x10 JUMPI PUSH1 0x0 DUP1 REVERT JUMPDEST POP PUSH1 0x4 CALLDATASIZE LT PUSH2 0x88 JUMPI PUSH1 0x0 CALLDATALOAD PUSH1 0xE0 SHR DUP1 PUSH4 0x9507D39A GT PUSH2 0x5B JUMPI DUP1 PUSH4 0x9507D39A EQ PUSH2 0x12E JUMPI DUP1 PUSH4 0xA938F78D EQ PUSH2 0x15E JUMPI DUP1 PUSH4 0xB52B4D50 EQ PUSH2 0x17A JUMPI DUP1 PUSH4 0xEDB6F7E7 EQ PUSH2 0x19B JUMPI PUSH2 0x88 JUMP JUMPDEST DUP1 PUSH4 0x373BFC67 EQ PUSH2 0x8D JUMPI DUP1 PUSH4 0x45715674 EQ PUSH2 0xC2 JUMPI DUP1 PUSH4 0x4A98F464 EQ PUSH2 0xDE JUMPI DUP1 PUSH4 0x6B8FF574 EQ PUSH2 0xFE JUMPI JUMPDEST PUSH1 0x0 DUP1 REVERT JUMPDEST PUSH2 0xA7 PUSH1 0x4 DUP1 CALLDATASIZE SUB DUP2 ADD SWAP1 PUSH2 0xA2 SWAP2 SWAP1 PUSH2 0xAFD JUMP JUMPDEST PUSH2 0x1CB JUMP JUMPDEST PUSH1 0x40 MLOAD PUSH2 0xB9 SWAP7 SWAP6 SWAP5 SWAP4 SWAP3 SWAP2 SWAP1 PUSH2 0xC88 JUMP JUMPDEST PUSH1 0x40 MLOAD DUP1 SWAP2 SUB SWAP1 RETURN JUMPDEST PUSH2 0xDC PUSH1 0x4 DUP1 CALLDATASIZE SUB DUP2 ADD SWAP1 PUSH2 0xD7 SWAP2 SWAP1 PUSH2 0xE6F JUMP JUMPDEST PUSH2 0x2A9 JUMP JUMPDEST STOP JUMPDEST PUSH2 0xE6 PUSH2 0x5EA JUMP JUMPDEST PUSH1 0x40 MLOAD PUSH2 0xF5 SWAP4 SWAP3 SWAP2 SWAP1 PUSH2 0x102D JUMP JUMPDEST PUSH1 0x40 MLOAD DUP1 SWAP2 SUB SWAP1 RETURN JUMPDEST PUSH2 0x118 PUSH1 0x4 DUP1 CALLDATASIZE SUB DUP2 ADD SWAP1 PUSH2 0x113 SWAP2 SWAP1 PUSH2 0xAFD JUMP JUMPDEST PUSH2 0x607 JUMP JUMPDEST PUSH1 0x40 MLOAD PUSH2 0x125 SWAP2 SWAP1 PUSH2 0x1079 JUMP JUMPDEST PUSH1 0x40 MLOAD DUP1 SWAP2 SUB SWAP1 RETURN JUMPDEST PUSH2 0x148 PUSH1 0x4 DUP1 CALLDATASIZE SUB DUP2 ADD SWAP1 PUSH2 0x143 SWAP2 SWAP1 PUSH2 0xAFD JUMP JUMPDEST PUSH2 0x6AE JUMP JUMPDEST PUSH1 0x40 MLOAD PUSH2 0x155 SWAP2 SWAP1 PUSH2 0x109B JUMP JUMPDEST PUSH1 0x40 MLOAD DUP1 SWAP2 SUB SWAP1 RETURN JUMPDEST PUSH2 0x178 PUSH1 0x4 DUP1 CALLDATASIZE SUB DUP2 ADD SWAP1 PUSH2 0x173 SWAP2 SWAP1 PUSH2 0xE6F JUMP JUMPDEST PUSH2 0x800 JUMP JUMPDEST STOP JUMPDEST PUSH2 0x182 PUSH2 0x903 JUMP JUMPDEST PUSH1 0x40 MLOAD PUSH2 0x192 SWAP5 SWAP4 SWAP3 SWAP2 SWAP1 PUSH2 0x10BD JUMP JUMPDEST PUSH1 0x40 MLOAD DUP1 SWAP2 SUB SWAP1 RETURN JUMPDEST PUSH2 0x1B5 PUSH1 0x4 DUP1 CALLDATASIZE SUB DUP2 ADD SWAP1 PUSH2 0x1B0 SWAP2 SWAP1 PUSH2 0x1102 JUMP JUMPDEST PUSH2 0xA41 JUMP JUMPDEST PUSH1 0x40 MLOAD PUSH2 0x1C2 SWAP2 SWAP1 PUSH2 0x112F JUMP JUMPDEST PUSH1 0x40 MLOAD DUP1 SWAP2 SUB SWAP1 RETURN JUMPDEST PUSH1 0x0 PUSH1 0x20 MSTORE DUP1 PUSH1 0x0 MSTORE PUSH1 0x40 PUSH1 0x0 KECCAK256 PUSH1 0x0 SWAP2 POP SWAP1 POP DUP1 PUSH1 0x0 ADD DUP1 SLOAD PUSH2 0x1EE SWAP1 PUSH2 0x1179 JUMP JUMPDEST DUP1 PUSH1 0x1F ADD PUSH1 0x20 DUP1 SWAP2 DIV MUL PUSH1 0x20 ADD PUSH1 0x40 MLOAD SWAP1 DUP2 ADD PUSH1 0x40 MSTORE DUP1 SWAP3 SWAP2 SWAP1 DUP2 DUP2 MSTORE PUSH1 0x20 ADD DUP3 DUP1 SLOAD PUSH2 0x21A SWAP1 PUSH2 0x1179 JUMP JUMPDEST DUP1 ISZERO PUSH2 0x267 JUMPI DUP1 PUSH1 0x1F LT PUSH2 0x23C JUMPI PUSH2 0x100 DUP1 DUP4 SLOAD DIV MUL DUP4 MSTORE SWAP2 PUSH1 0x20 ADD SWAP2 PUSH2 0x267 JUMP JUMPDEST DUP3 ADD SWAP2 SWAP1 PUSH1 0x0 MSTORE PUSH1 0x20 PUSH1 0x0 KECCAK256 SWAP1 JUMPDEST DUP2 SLOAD DUP2 MSTORE SWAP1 PUSH1 0x1 ADD SWAP1 PUSH1 0x20 ADD DUP1 DUP4 GT PUSH2 0x24A JUMPI DUP3 SWAP1 SUB PUSH1 0x1F AND DUP3 ADD SWAP2 JUMPDEST POP POP POP POP POP SWAP1 DUP1 PUSH1 0x1 ADD SLOAD SWAP1 DUP1 PUSH1 0x2 ADD SLOAD SWAP1 DUP1 PUSH1 0x3 ADD PUSH1 0x0 SWAP1 SLOAD SWAP1 PUSH2 0x100 EXP SWAP1 DIV PUSH1 0xFF AND SWAP1 DUP1 PUSH1 0x3 ADD PUSH1 0x1 SWAP1 SLOAD SWAP1 PUSH2 0x100 EXP SWAP1 DIV PUSH1 0xFF AND SWAP1 DUP1 PUSH1 0x4 ADD SLOAD SWAP1 POP DUP7 JUMP JUMPDEST PUSH1 0x40 MLOAD DUP1 PUSH1 0xC0 ADD PUSH1 0x40 MSTORE DUP1 DUP9 DUP2 MSTORE PUSH1 0x20 ADD DUP8 DUP2 MSTORE PUSH1 0x20 ADD DUP6 DUP2 MSTORE PUSH1 0x20 ADD DUP5 PUSH1 0x3 DUP2 GT ISZERO PUSH2 0x2D9 JUMPI PUSH2 0x2D8 PUSH2 0xBC9 JUMP JUMPDEST JUMPDEST DUP2 MSTORE PUSH1 0x20 ADD DUP4 PUSH1 0x3 DUP2 GT ISZERO PUSH2 0x2F1 JUMPI PUSH2 0x2F0 PUSH2 0xBC9 JUMP JUMPDEST JUMPDEST DUP2 MSTORE PUSH1 0x20 ADD DUP3 DUP2 MSTORE POP PUSH1 0x0 DUP1 DUP8 DUP2 MSTORE PUSH1 0x20 ADD SWAP1 DUP2 MSTORE PUSH1 0x20 ADD PUSH1 0x0 KECCAK256 PUSH1 0x0 DUP3 ADD MLOAD DUP2 PUSH1 0x0 ADD SWAP1 DUP2 PUSH2 0x321 SWAP2 SWAP1 PUSH2 0x1356 JUMP JUMPDEST POP PUSH1 0x20 DUP3 ADD MLOAD DUP2 PUSH1 0x1 ADD SSTORE PUSH1 0x40 DUP3 ADD MLOAD DUP2 PUSH1 0x2 ADD SSTORE PUSH1 0x60 DUP3 ADD MLOAD DUP2 PUSH1 0x3 ADD PUSH1 0x0 PUSH2 0x100 EXP DUP2 SLOAD DUP2 PUSH1 0xFF MUL NOT AND SWAP1 DUP4 PUSH1 0x3 DUP2 GT ISZERO PUSH2 0x361 JUMPI PUSH2 0x360 PUSH2 0xBC9 JUMP JUMPDEST JUMPDEST MUL OR SWAP1 SSTORE POP PUSH1 0x80 DUP3 ADD MLOAD DUP2 PUSH1 0x3 ADD PUSH1 0x1 PUSH2 0x100 EXP DUP2 SLOAD DUP2 PUSH1 0xFF MUL NOT AND SWAP1 DUP4 PUSH1 0x3 DUP2 GT ISZERO PUSH2 0x391 JUMPI PUSH2 0x390 PUSH2 0xBC9 JUMP JUMPDEST JUMPDEST MUL OR SWAP1 SSTORE POP PUSH1 0xA0 DUP3 ADD MLOAD DUP2 PUSH1 0x4 ADD SSTORE SWAP1 POP POP PUSH1 0x0 PUSH1 0x3 DUP2 GT ISZERO PUSH2 0x3B7 JUMPI PUSH2 0x3B6 PUSH2 0xBC9 JUMP JUMPDEST JUMPDEST PUSH1 0x3 DUP2 GT ISZERO PUSH2 0x3C9 JUMPI PUSH2 0x3C8 PUSH2 0xBC9 JUMP JUMPDEST JUMPDEST DUP4 PUSH1 0x3 DUP2 GT ISZERO PUSH2 0x3DC JUMPI PUSH2 0x3DB PUSH2 0xBC9 JUMP JUMPDEST JUMPDEST SUB PUSH2 0x433 JUMPI PUSH1 0x1 PUSH1 0x0 DUP5 PUSH1 0x3 DUP2 GT ISZERO PUSH2 0x3F8 JUMPI PUSH2 0x3F7 PUSH2 0xBC9 JUMP JUMPDEST JUMPDEST PUSH1 0x3 DUP2 GT ISZERO PUSH2 0x40A JUMPI PUSH2 0x409 PUSH2 0xBC9 JUMP JUMPDEST JUMPDEST DUP2 MSTORE PUSH1 0x20 ADD SWAP1 DUP2 MSTORE PUSH1 0x20 ADD PUSH1 0x0 KECCAK256 PUSH1 0x0 DUP2 SLOAD DUP1 SWAP3 SWAP2 SWAP1 PUSH2 0x429 SWAP1 PUSH2 0x1457 JUMP JUMPDEST SWAP2 SWAP1 POP SSTORE POP PUSH2 0x5E1 JUMP JUMPDEST PUSH1 0x1 PUSH1 0x3 DUP2 GT ISZERO PUSH2 0x447 JUMPI PUSH2 0x446 PUSH2 0xBC9 JUMP JUMPDEST JUMPDEST PUSH1 0x3 DUP2 GT ISZERO PUSH2 0x459 JUMPI PUSH2 0x458 PUSH2 0xBC9 JUMP JUMPDEST JUMPDEST DUP4 PUSH1 0x3 DUP2 GT ISZERO PUSH2 0x46C JUMPI PUSH2 0x46B PUSH2 0xBC9 JUMP JUMPDEST JUMPDEST SUB PUSH2 0x4C3 JUMPI PUSH1 0x1 PUSH1 0x0 DUP5 PUSH1 0x3 DUP2 GT ISZERO PUSH2 0x488 JUMPI PUSH2 0x487 PUSH2 0xBC9 JUMP JUMPDEST JUMPDEST PUSH1 0x3 DUP2 GT ISZERO PUSH2 0x49A JUMPI PUSH2 0x499 PUSH2 0xBC9 JUMP JUMPDEST JUMPDEST DUP2 MSTORE PUSH1 0x20 ADD SWAP1 DUP2 MSTORE PUSH1 0x20 ADD PUSH1 0x0 KECCAK256 PUSH1 0x0 DUP2 SLOAD DUP1 SWAP3 SWAP2 SWAP1 PUSH2 0x4B9 SWAP1 PUSH2 0x1457 JUMP JUMPDEST SWAP2 SWAP1 POP SSTORE POP PUSH2 0x5E0 JUMP JUMPDEST PUSH1 0x2 PUSH1 0x3 DUP2 GT ISZERO PUSH2 0x4D7 JUMPI PUSH2 0x4D6 PUSH2 0xBC9 JUMP JUMPDEST JUMPDEST PUSH1 0x3 DUP2 GT ISZERO PUSH2 0x4E9 JUMPI PUSH2 0x4E8 PUSH2 0xBC9 JUMP JUMPDEST JUMPDEST DUP4 PUSH1 0x3 DUP2 GT ISZERO PUSH2 0x4FC JUMPI PUSH2 0x4FB PUSH2 0xBC9 JUMP JUMPDEST JUMPDEST SUB PUSH2 0x553 JUMPI PUSH1 0x1 PUSH1 0x0 DUP5 PUSH1 0x3 DUP2 GT ISZERO PUSH2 0x518 JUMPI PUSH2 0x517 PUSH2 0xBC9 JUMP JUMPDEST JUMPDEST PUSH1 0x3 DUP2 GT ISZERO PUSH2 0x52A JUMPI PUSH2 0x529 PUSH2 0xBC9 JUMP JUMPDEST JUMPDEST DUP2 MSTORE PUSH1 0x20 ADD SWAP1 DUP2 MSTORE PUSH1 0x20 ADD PUSH1 0x0 KECCAK256 PUSH1 0x0 DUP2 SLOAD DUP1 SWAP3 SWAP2 SWAP1 PUSH2 0x549 SWAP1 PUSH2 0x1457 JUMP JUMPDEST SWAP2 SWAP1 POP SSTORE POP PUSH2 0x5DF JUMP JUMPDEST PUSH1 0x3 DUP1 DUP2 GT ISZERO PUSH2 0x566 JUMPI PUSH2 0x565 PUSH2 0xBC9 JUMP JUMPDEST JUMPDEST PUSH1 0x3 DUP2 GT ISZERO PUSH2 0x578 JUMPI PUSH2 0x577 PUSH2 0xBC9 JUMP JUMPDEST JUMPDEST DUP4 PUSH1 0x3 DUP2 GT ISZERO PUSH2 0x58B JUMPI PUSH2 0x58A PUSH2 0xBC9 JUMP JUMPDEST JUMPDEST SUB PUSH2 0x5DE JUMPI PUSH1 0x1 PUSH1 0x0 DUP5 PUSH1 0x3 DUP2 GT ISZERO PUSH2 0x5A7 JUMPI PUSH2 0x5A6 PUSH2 0xBC9 JUMP JUMPDEST JUMPDEST PUSH1 0x3 DUP2 GT ISZERO PUSH2 0x5B9 JUMPI PUSH2 0x5B8 PUSH2 0xBC9 JUMP JUMPDEST JUMPDEST DUP2 MSTORE PUSH1 0x20 ADD SWAP1 DUP2 MSTORE PUSH1 0x20 ADD PUSH1 0x0 KECCAK256 PUSH1 0x0 DUP2 SLOAD DUP1 SWAP3 SWAP2 SWAP1 PUSH2 0x5D8 SWAP1 PUSH2 0x1457 JUMP JUMPDEST SWAP2 SWAP1 POP SSTORE POP JUMPDEST JUMPDEST JUMPDEST JUMPDEST POP POP POP POP POP POP POP JUMP JUMPDEST PUSH2 0x5F2 PUSH2 0xA59 JUMP JUMPDEST PUSH2 0x5FA PUSH2 0xA59 JUMP JUMPDEST PUSH2 0x602 PUSH2 0xA59 JUMP JUMPDEST SWAP1 SWAP2 SWAP3 JUMP JUMPDEST PUSH1 0x60 PUSH1 0x0 DUP1 DUP4 DUP2 MSTORE PUSH1 0x20 ADD SWAP1 DUP2 MSTORE PUSH1 0x20 ADD PUSH1 0x0 KECCAK256 PUSH1 0x0 ADD DUP1 SLOAD PUSH2 0x629 SWAP1 PUSH2 0x1179 JUMP JUMPDEST DUP1 PUSH1 0x1F ADD PUSH1 0x20 DUP1 SWAP2 DIV MUL PUSH1 0x20 ADD PUSH1 0x40 MLOAD SWAP1 DUP2 ADD PUSH1 0x40 MSTORE DUP1 SWAP3 SWAP2 SWAP1 DUP2 DUP2 MSTORE PUSH1 0x20 ADD DUP3 DUP1 SLOAD PUSH2 0x655 SWAP1 PUSH2 0x1179 JUMP JUMPDEST DUP1 ISZERO PUSH2 0x6A2 JUMPI DUP1 PUSH1 0x1F LT PUSH2 0x677 JUMPI PUSH2 0x100 DUP1 DUP4 SLOAD DIV MUL DUP4 MSTORE SWAP2 PUSH1 0x20 ADD SWAP2 PUSH2 0x6A2 JUMP JUMPDEST DUP3 ADD SWAP2 SWAP1 PUSH1 0x0 MSTORE PUSH1 0x20 PUSH1 0x0 KECCAK256 SWAP1 JUMPDEST DUP2 SLOAD DUP2 MSTORE SWAP1 PUSH1 0x1 ADD SWAP1 PUSH1 0x20 ADD DUP1 DUP4 GT PUSH2 0x685 JUMPI DUP3 SWAP1 SUB PUSH1 0x1F AND DUP3 ADD SWAP2 JUMPDEST POP POP POP POP POP SWAP1 POP SWAP2 SWAP1 POP JUMP JUMPDEST PUSH2 0x6B6 PUSH2 0xA59 JUMP JUMPDEST PUSH1 0x0 DUP1 DUP4 DUP2 MSTORE PUSH1 0x20 ADD SWAP1 DUP2 MSTORE PUSH1 0x20 ADD PUSH1 0x0 KECCAK256 PUSH1 0x40 MLOAD DUP1 PUSH1 0xC0 ADD PUSH1 0x40 MSTORE SWAP1 DUP2 PUSH1 0x0 DUP3 ADD DUP1 SLOAD PUSH2 0x6E3 SWAP1 PUSH2 0x1179 JUMP JUMPDEST DUP1 PUSH1 0x1F ADD PUSH1 0x20 DUP1 SWAP2 DIV MUL PUSH1 0x20 ADD PUSH1 0x40 MLOAD SWAP1 DUP2 ADD PUSH1 0x40 MSTORE DUP1 SWAP3 SWAP2 SWAP1 DUP2 DUP2 MSTORE PUSH1 0x20 ADD DUP3 DUP1 SLOAD PUSH2 0x70F SWAP1 PUSH2 0x1179 JUMP JUMPDEST DUP1 ISZERO PUSH2 0x75C JUMPI DUP1 PUSH1 0x1F LT PUSH2 0x731 JUMPI PUSH2 0x100 DUP1 DUP4 SLOAD DIV MUL DUP4 MSTORE SWAP2 PUSH1 0x20 ADD SWAP2 PUSH2 0x75C JUMP JUMPDEST DUP3 ADD SWAP2 SWAP1 PUSH1 0x0 MSTORE PUSH1 0x20 PUSH1 0x0 KECCAK256 SWAP1 JUMPDEST DUP2 SLOAD DUP2 MSTORE SWAP1 PUSH1 0x1 ADD SWAP1 PUSH1 0x20 ADD DUP1 DUP4 GT PUSH2 0x73F JUMPI DUP3 SWAP1 SUB PUSH1 0x1F AND DUP3 ADD SWAP2 JUMPDEST POP POP POP POP POP DUP2 MSTORE PUSH1 0x20 ADD PUSH1 0x1 DUP3 ADD SLOAD DUP2 MSTORE PUSH1 0x20 ADD PUSH1 0x2 DUP3 ADD SLOAD DUP2 MSTORE PUSH1 0x20 ADD PUSH1 0x3 DUP3 ADD PUSH1 0x0 SWAP1 SLOAD SWAP1 PUSH2 0x100 EXP SWAP1 DIV PUSH1 0xFF AND PUSH1 0x3 DUP2 GT ISZERO PUSH2 0x79E JUMPI PUSH2 0x79D PUSH2 0xBC9 JUMP JUMPDEST JUMPDEST PUSH1 0x3 DUP2 GT ISZERO PUSH2 0x7B0 JUMPI PUSH2 0x7AF PUSH2 0xBC9 JUMP JUMPDEST JUMPDEST DUP2 MSTORE PUSH1 0x20 ADD PUSH1 0x3 DUP3 ADD PUSH1 0x1 SWAP1 SLOAD SWAP1 PUSH2 0x100 EXP SWAP1 DIV PUSH1 0xFF AND PUSH1 0x3 DUP2 GT ISZERO PUSH2 0x7D9 JUMPI PUSH2 0x7D8 PUSH2 0xBC9 JUMP JUMPDEST JUMPDEST PUSH1 0x3 DUP2 GT ISZERO PUSH2 0x7EB JUMPI PUSH2 0x7EA PUSH2 0xBC9 JUMP JUMPDEST JUMPDEST DUP2 MSTORE PUSH1 0x20 ADD PUSH1 0x4 DUP3 ADD SLOAD DUP2 MSTORE POP POP SWAP1 POP SWAP2 SWAP1 POP JUMP JUMPDEST PUSH1 0x40 MLOAD DUP1 PUSH1 0xC0 ADD PUSH1 0x40 MSTORE DUP1 DUP9 DUP2 MSTORE PUSH1 0x20 ADD DUP8 DUP2 MSTORE PUSH1 0x20 ADD DUP6 DUP2 MSTORE PUSH1 0x20 ADD DUP5 PUSH1 0x3 DUP2 GT ISZERO PUSH2 0x830 JUMPI PUSH2 0x82F PUSH2 0xBC9 JUMP JUMPDEST JUMPDEST DUP2 MSTORE PUSH1 0x20 ADD DUP4 PUSH1 0x3 DUP2 GT ISZERO PUSH2 0x848 JUMPI PUSH2 0x847 PUSH2 0xBC9 JUMP JUMPDEST JUMPDEST DUP2 MSTORE PUSH1 0x20 ADD DUP3 DUP2 MSTORE POP PUSH1 0x0 DUP1 DUP8 DUP2 MSTORE PUSH1 0x20 ADD SWAP1 DUP2 MSTORE PUSH1 0x20 ADD PUSH1 0x0 KECCAK256 PUSH1 0x0 DUP3 ADD MLOAD DUP2 PUSH1 0x0 ADD SWAP1 DUP2 PUSH2 0x878 SWAP2 SWAP1 PUSH2 0x1356 JUMP JUMPDEST POP PUSH1 0x20 DUP3 ADD MLOAD DUP2 PUSH1 0x1 ADD SSTORE PUSH1 0x40 DUP3 ADD MLOAD DUP2 PUSH1 0x2 ADD SSTORE PUSH1 0x60 DUP3 ADD MLOAD DUP2 PUSH1 0x3 ADD PUSH1 0x0 PUSH2 0x100 EXP DUP2 SLOAD DUP2 PUSH1 0xFF MUL NOT AND SWAP1 DUP4 PUSH1 0x3 DUP2 GT ISZERO PUSH2 0x8B8 JUMPI PUSH2 0x8B7 PUSH2 0xBC9 JUMP JUMPDEST JUMPDEST MUL OR SWAP1 SSTORE POP PUSH1 0x80 DUP3 ADD MLOAD DUP2 PUSH1 0x3 ADD PUSH1 0x1 PUSH2 0x100 EXP DUP2 SLOAD DUP2 PUSH1 0xFF MUL NOT AND SWAP1 DUP4 PUSH1 0x3 DUP2 GT ISZERO PUSH2 0x8E8 JUMPI PUSH2 0x8E7 PUSH2 0xBC9 JUMP JUMPDEST JUMPDEST MUL OR SWAP1 SSTORE POP PUSH1 0xA0 DUP3 ADD MLOAD DUP2 PUSH1 0x4 ADD SSTORE SWAP1 POP POP POP POP POP POP POP POP POP JUMP JUMPDEST PUSH1 0x0 DUP1 PUSH1 0x0 DUP1 PUSH1 0x1 PUSH1 0x0 DUP1 PUSH1 0x3 DUP2 GT ISZERO PUSH2 0x920 JUMPI PUSH2 0x91F PUSH2 0xBC9 JUMP JUMPDEST JUMPDEST PUSH1 0x3 DUP2 GT ISZERO PUSH2 0x932 JUMPI PUSH2 0x931 PUSH2 0xBC9 JUMP JUMPDEST JUMPDEST PUSH1 0x3 DUP2 GT ISZERO PUSH2 0x944 JUMPI PUSH2 0x943 PUSH2 0xBC9 JUMP JUMPDEST JUMPDEST DUP2 MSTORE PUSH1 0x20 ADD SWAP1 DUP2 MSTORE PUSH1 0x20 ADD PUSH1 0x0 KECCAK256 SLOAD PUSH1 0x1 PUSH1 0x0 PUSH1 0x1 PUSH1 0x3 DUP2 GT ISZERO PUSH2 0x96B JUMPI PUSH2 0x96A PUSH2 0xBC9 JUMP JUMPDEST JUMPDEST PUSH1 0x3 DUP2 GT ISZERO PUSH2 0x97D JUMPI PUSH2 0x97C PUSH2 0xBC9 JUMP JUMPDEST JUMPDEST PUSH1 0x3 DUP2 GT ISZERO PUSH2 0x98F JUMPI PUSH2 0x98E PUSH2 0xBC9 JUMP JUMPDEST JUMPDEST DUP2 MSTORE PUSH1 0x20 ADD SWAP1 DUP2 MSTORE PUSH1 0x20 ADD PUSH1 0x0 KECCAK256 SLOAD PUSH1 0x1 PUSH1 0x0 PUSH1 0x2 PUSH1 0x3 DUP2 GT ISZERO PUSH2 0x9B6 JUMPI PUSH2 0x9B5 PUSH2 0xBC9 JUMP JUMPDEST JUMPDEST PUSH1 0x3 DUP2 GT ISZERO PUSH2 0x9C8 JUMPI PUSH2 0x9C7 PUSH2 0xBC9 JUMP JUMPDEST JUMPDEST PUSH1 0x3 DUP2 GT ISZERO PUSH2 0x9DA JUMPI PUSH2 0x9D9 PUSH2 0xBC9 JUMP JUMPDEST JUMPDEST DUP2 MSTORE PUSH1 0x20 ADD SWAP1 DUP2 MSTORE PUSH1 0x20 ADD PUSH1 0x0 KECCAK256 SLOAD PUSH1 0x1 PUSH1 0x0 PUSH1 0x3 DUP1 DUP2 GT ISZERO PUSH2 0xA00 JUMPI PUSH2 0x9FF PUSH2 0xBC9 JUMP JUMPDEST JUMPDEST PUSH1 0x3 DUP2 GT ISZERO PUSH2 0xA12 JUMPI PUSH2 0xA11 PUSH2 0xBC9 JUMP JUMPDEST JUMPDEST PUSH1 0x3 DUP2 GT ISZERO PUSH2 0xA24 JUMPI PUSH2 0xA23 PUSH2 0xBC9 JUMP JUMPDEST JUMPDEST DUP2 MSTORE PUSH1 0x20 ADD SWAP1 DUP2 MSTORE PUSH1 0x20 ADD PUSH1 0x0 KECCAK256 SLOAD SWAP4 POP SWAP4 POP SWAP4 POP SWAP4 POP SWAP1 SWAP2 SWAP3 SWAP4 JUMP JUMPDEST PUSH1 0x1 PUSH1 0x20 MSTORE DUP1 PUSH1 0x0 MSTORE PUSH1 0x40 PUSH1 0x0 KECCAK256 PUSH1 0x0 SWAP2 POP SWAP1 POP SLOAD DUP2 JUMP JUMPDEST PUSH1 0x40 MLOAD DUP1 PUSH1 0xC0 ADD PUSH1 0x40 MSTORE DUP1 PUSH1 0x60 DUP2 MSTORE PUSH1 0x20 ADD PUSH1 0x0 DUP2 MSTORE PUSH1 0x20 ADD PUSH1 0x0 DUP2 MSTORE PUSH1 0x20 ADD PUSH1 0x0 PUSH1 0x3 DUP2 GT ISZERO PUSH2 0xA8D JUMPI PUSH2 0xA8C PUSH2 0xBC9 JUMP JUMPDEST JUMPDEST DUP2 MSTORE PUSH1 0x20 ADD PUSH1 0x0 PUSH1 0x3 DUP2 GT ISZERO PUSH2 0xAA6 JUMPI PUSH2 0xAA5 PUSH2 0xBC9 JUMP JUMPDEST JUMPDEST DUP2 MSTORE PUSH1 0x20 ADD PUSH1 0x0 DUP2 MSTORE POP SWAP1 JUMP JUMPDEST PUSH1 0x0 PUSH1 0x40 MLOAD SWAP1 POP SWAP1 JUMP JUMPDEST PUSH1 0x0 DUP1 REVERT JUMPDEST PUSH1 0x0 DUP1 REVERT JUMPDEST PUSH1 0x0 DUP2 SWAP1 POP SWAP2 SWAP1 POP JUMP JUMPDEST PUSH2 0xADA DUP2 PUSH2 0xAC7 JUMP JUMPDEST DUP2 EQ PUSH2 0xAE5 JUMPI PUSH1 0x0 DUP1 REVERT JUMPDEST POP JUMP JUMPDEST PUSH1 0x0 DUP2 CALLDATALOAD SWAP1 POP PUSH2 0xAF7 DUP2 PUSH2 0xAD1 JUMP JUMPDEST SWAP3 SWAP2 POP POP JUMP JUMPDEST PUSH1 0x0 PUSH1 0x20 DUP3 DUP5 SUB SLT ISZERO PUSH2 0xB13 JUMPI PUSH2 0xB12 PUSH2 0xABD JUMP JUMPDEST JUMPDEST PUSH1 0x0 PUSH2 0xB21 DUP5 DUP3 DUP6 ADD PUSH2 0xAE8 JUMP JUMPDEST SWAP2 POP POP SWAP3 SWAP2 POP POP JUMP JUMPDEST PUSH1 0x0 DUP2 MLOAD SWAP1 POP SWAP2 SWAP1 POP JUMP JUMPDEST PUSH1 0x0 DUP3 DUP3 MSTORE PUSH1 0x20 DUP3 ADD SWAP1 POP SWAP3 SWAP2 POP POP JUMP JUMPDEST PUSH1 0x0 JUMPDEST DUP4 DUP2 LT ISZERO PUSH2 0xB64 JUMPI DUP1 DUP3 ADD MLOAD DUP2 DUP5 ADD MSTORE PUSH1 0x20 DUP2 ADD SWAP1 POP PUSH2 0xB49 JUMP JUMPDEST PUSH1 0x0 DUP5 DUP5 ADD MSTORE POP POP POP POP JUMP JUMPDEST PUSH1 0x0 PUSH1 0x1F NOT PUSH1 0x1F DUP4 ADD AND SWAP1 POP SWAP2 SWAP1 POP JUMP JUMPDEST PUSH1 0x0 PUSH2 0xB8C DUP3 PUSH2 0xB2A JUMP JUMPDEST PUSH2 0xB96 DUP2 DUP6 PUSH2 0xB35 JUMP JUMPDEST SWAP4 POP PUSH2 0xBA6 DUP2 DUP6 PUSH1 0x20 DUP7 ADD PUSH2 0xB46 JUMP JUMPDEST PUSH2 0xBAF DUP2 PUSH2 0xB70 JUMP JUMPDEST DUP5 ADD SWAP2 POP POP SWAP3 SWAP2 POP POP JUMP JUMPDEST PUSH2 0xBC3 DUP2 PUSH2 0xAC7 JUMP JUMPDEST DUP3 MSTORE POP POP JUMP JUMPDEST PUSH32 0x4E487B7100000000000000000000000000000000000000000000000000000000 PUSH1 0x0 MSTORE PUSH1 0x21 PUSH1 0x4 MSTORE PUSH1 0x24 PUSH1 0x0 REVERT JUMPDEST PUSH1 0x4 DUP2 LT PUSH2 0xC09 JUMPI PUSH2 0xC08 PUSH2 0xBC9 JUMP JUMPDEST JUMPDEST POP JUMP JUMPDEST PUSH1 0x0 DUP2 SWAP1 POP PUSH2 0xC1A DUP3 PUSH2 0xBF8 JUMP JUMPDEST SWAP2 SWAP1 POP JUMP JUMPDEST PUSH1 0x0 PUSH2 0xC2A DUP3 PUSH2 0xC0C JUMP JUMPDEST SWAP1 POP SWAP2 SWAP1 POP JUMP JUMPDEST PUSH2 0xC3A DUP2 PUSH2 0xC1F JUMP JUMPDEST DUP3 MSTORE POP POP JUMP JUMPDEST PUSH1 0x4 DUP2 LT PUSH2 0xC51 JUMPI PUSH2 0xC50 PUSH2 0xBC9 JUMP JUMPDEST JUMPDEST POP JUMP JUMPDEST PUSH1 0x0 DUP2 SWAP1 POP PUSH2 0xC62 DUP3 PUSH2 0xC40 JUMP JUMPDEST SWAP2 SWAP1 POP JUMP JUMPDEST PUSH1 0x0 PUSH2 0xC72 DUP3 PUSH2 0xC54 JUMP JUMPDEST SWAP1 POP SWAP2 SWAP1 POP JUMP JUMPDEST PUSH2 0xC82 DUP2 PUSH2 0xC67 JUMP JUMPDEST DUP3 MSTORE POP POP JUMP JUMPDEST PUSH1 0x0 PUSH1 0xC0 DUP3 ADD SWAP1 POP DUP2 DUP2 SUB PUSH1 0x0 DUP4 ADD MSTORE PUSH2 0xCA2 DUP2 DUP10 PUSH2 0xB81 JUMP JUMPDEST SWAP1 POP PUSH2 0xCB1 PUSH1 0x20 DUP4 ADD DUP9 PUSH2 0xBBA JUMP JUMPDEST PUSH2 0xCBE PUSH1 0x40 DUP4 ADD DUP8 PUSH2 0xBBA JUMP JUMPDEST PUSH2 0xCCB PUSH1 0x60 DUP4 ADD DUP7 PUSH2 0xC31 JUMP JUMPDEST PUSH2 0xCD8 PUSH1 0x80 DUP4 ADD DUP6 PUSH2 0xC79 JUMP JUMPDEST PUSH2 0xCE5 PUSH1 0xA0 DUP4 ADD DUP5 PUSH2 0xBBA JUMP JUMPDEST SWAP8 SWAP7 POP POP POP POP POP POP POP JUMP JUMPDEST PUSH1 0x0 DUP1 REVERT JUMPDEST PUSH1 0x0 DUP1 REVERT JUMPDEST PUSH32 0x4E487B7100000000000000000000000000000000000000000000000000000000 PUSH1 0x0 MSTORE PUSH1 0x41 PUSH1 0x4 MSTORE PUSH1 0x24 PUSH1 0x0 REVERT JUMPDEST PUSH2 0xD32 DUP3 PUSH2 0xB70 JUMP JUMPDEST DUP2 ADD DUP2 DUP2 LT PUSH8 0xFFFFFFFFFFFFFFFF DUP3 GT OR ISZERO PUSH2 0xD51 JUMPI PUSH2 0xD50 PUSH2 0xCFA JUMP JUMPDEST JUMPDEST DUP1 PUSH1 0x40 MSTORE POP POP POP JUMP JUMPDEST PUSH1 0x0 PUSH2 0xD64 PUSH2 0xAB3 JUMP JUMPDEST SWAP1 POP PUSH2 0xD70 DUP3 DUP3 PUSH2 0xD29 JUMP JUMPDEST SWAP2 SWAP1 POP JUMP JUMPDEST PUSH1 0x0 PUSH8 0xFFFFFFFFFFFFFFFF DUP3 GT ISZERO PUSH2 0xD90 JUMPI PUSH2 0xD8F PUSH2 0xCFA JUMP JUMPDEST JUMPDEST PUSH2 0xD99 DUP3 PUSH2 0xB70 JUMP JUMPDEST SWAP1 POP PUSH1 0x20 DUP2 ADD SWAP1 POP SWAP2 SWAP1 POP JUMP JUMPDEST DUP3 DUP2 DUP4 CALLDATACOPY PUSH1 0x0 DUP4 DUP4 ADD MSTORE POP POP POP JUMP JUMPDEST PUSH1 0x0 PUSH2 0xDC8 PUSH2 0xDC3 DUP5 PUSH2 0xD75 JUMP JUMPDEST PUSH2 0xD5A JUMP JUMPDEST SWAP1 POP DUP3 DUP2 MSTORE PUSH1 0x20 DUP2 ADD DUP5 DUP5 DUP5 ADD GT ISZERO PUSH2 0xDE4 JUMPI PUSH2 0xDE3 PUSH2 0xCF5 JUMP JUMPDEST JUMPDEST PUSH2 0xDEF DUP5 DUP3 DUP6 PUSH2 0xDA6 JUMP JUMPDEST POP SWAP4 SWAP3 POP POP POP JUMP JUMPDEST PUSH1 0x0 DUP3 PUSH1 0x1F DUP4 ADD SLT PUSH2 0xE0C JUMPI PUSH2 0xE0B PUSH2 0xCF0 JUMP JUMPDEST JUMPDEST DUP2 CALLDATALOAD PUSH2 0xE1C DUP5 DUP3 PUSH1 0x20 DUP7 ADD PUSH2 0xDB5 JUMP JUMPDEST SWAP2 POP POP SWAP3 SWAP2 POP POP JUMP JUMPDEST PUSH1 0x4 DUP2 LT PUSH2 0xE32 JUMPI PUSH1 0x0 DUP1 REVERT JUMPDEST POP JUMP JUMPDEST PUSH1 0x0 DUP2 CALLDATALOAD SWAP1 POP PUSH2 0xE44 DUP2 PUSH2 0xE25 JUMP JUMPDEST SWAP3 SWAP2 POP POP JUMP JUMPDEST PUSH1 0x4 DUP2 LT PUSH2 0xE57 JUMPI PUSH1 0x0 DUP1 REVERT JUMPDEST POP JUMP JUMPDEST PUSH1 0x0 DUP2 CALLDATALOAD SWAP1 POP PUSH2 0xE69 DUP2 PUSH2 0xE4A JUMP JUMPDEST SWAP3 SWAP2 POP POP JUMP JUMPDEST PUSH1 0x0 DUP1 PUSH1 0x0 DUP1 PUSH1 0x0 DUP1 PUSH1 0x0 PUSH1 0xE0 DUP9 DUP11 SUB SLT ISZERO PUSH2 0xE8E JUMPI PUSH2 0xE8D PUSH2 0xABD JUMP JUMPDEST JUMPDEST PUSH1 0x0 DUP9 ADD CALLDATALOAD PUSH8 0xFFFFFFFFFFFFFFFF DUP2 GT ISZERO PUSH2 0xEAC JUMPI PUSH2 0xEAB PUSH2 0xAC2 JUMP JUMPDEST JUMPDEST PUSH2 0xEB8 DUP11 DUP3 DUP12 ADD PUSH2 0xDF7 JUMP JUMPDEST SWAP8 POP POP PUSH1 0x20 PUSH2 0xEC9 DUP11 DUP3 DUP12 ADD PUSH2 0xAE8 JUMP JUMPDEST SWAP7 POP POP PUSH1 0x40 PUSH2 0xEDA DUP11 DUP3 DUP12 ADD PUSH2 0xAE8 JUMP JUMPDEST SWAP6 POP POP PUSH1 0x60 PUSH2 0xEEB DUP11 DUP3 DUP12 ADD PUSH2 0xAE8 JUMP JUMPDEST SWAP5 POP POP PUSH1 0x80 PUSH2 0xEFC DUP11 DUP3 DUP12 ADD PUSH2 0xE35 JUMP JUMPDEST SWAP4 POP POP PUSH1 0xA0 PUSH2 0xF0D DUP11 DUP3 DUP12 ADD PUSH2 0xE5A JUMP JUMPDEST SWAP3 POP POP PUSH1 0xC0 PUSH2 0xF1E DUP11 DUP3 DUP12 ADD PUSH2 0xAE8 JUMP JUMPDEST SWAP2 POP POP SWAP3 SWAP6 SWAP9 SWAP2 SWAP5 SWAP8 POP SWAP3 SWAP6 POP JUMP JUMPDEST PUSH1 0x0 DUP3 DUP3 MSTORE PUSH1 0x20 DUP3 ADD SWAP1 POP SWAP3 SWAP2 POP POP JUMP JUMPDEST PUSH1 0x0 PUSH2 0xF49 DUP3 PUSH2 0xB2A JUMP JUMPDEST PUSH2 0xF53 DUP2 DUP6 PUSH2 0xF2D JUMP JUMPDEST SWAP4 POP PUSH2 0xF63 DUP2 DUP6 PUSH1 0x20 DUP7 ADD PUSH2 0xB46 JUMP JUMPDEST PUSH2 0xF6C DUP2 PUSH2 0xB70 JUMP JUMPDEST DUP5 ADD SWAP2 POP POP SWAP3 SWAP2 POP POP JUMP JUMPDEST PUSH2 0xF80 DUP2 PUSH2 0xAC7 JUMP JUMPDEST DUP3 MSTORE POP POP JUMP JUMPDEST PUSH2 0xF8F DUP2 PUSH2 0xC1F JUMP JUMPDEST DUP3 MSTORE POP POP JUMP JUMPDEST PUSH2 0xF9E DUP2 PUSH2 0xC67 JUMP JUMPDEST DUP3 MSTORE POP POP JUMP JUMPDEST PUSH1 0x0 PUSH1 0xC0 DUP4 ADD PUSH1 0x0 DUP4 ADD MLOAD DUP5 DUP3 SUB PUSH1 0x0 DUP7 ADD MSTORE PUSH2 0xFC1 DUP3 DUP3 PUSH2 0xF3E JUMP JUMPDEST SWAP2 POP POP PUSH1 0x20 DUP4 ADD MLOAD PUSH2 0xFD6 PUSH1 0x20 DUP7 ADD DUP3 PUSH2 0xF77 JUMP JUMPDEST POP PUSH1 0x40 DUP4 ADD MLOAD PUSH2 0xFE9 PUSH1 0x40 DUP7 ADD DUP3 PUSH2 0xF77 JUMP JUMPDEST POP PUSH1 0x60 DUP4 ADD MLOAD PUSH2 0xFFC PUSH1 0x60 DUP7 ADD DUP3 PUSH2 0xF86 JUMP JUMPDEST POP PUSH1 0x80 DUP4 ADD MLOAD PUSH2 0x100F PUSH1 0x80 DUP7 ADD DUP3 PUSH2 0xF95 JUMP JUMPDEST POP PUSH1 0xA0 DUP4 ADD MLOAD PUSH2 0x1022 PUSH1 0xA0 DUP7 ADD DUP3 PUSH2 0xF77 JUMP JUMPDEST POP DUP1 SWAP2 POP POP SWAP3 SWAP2 POP POP JUMP JUMPDEST PUSH1 0x0 PUSH1 0x60 DUP3 ADD SWAP1 POP DUP2 DUP2 SUB PUSH1 0x0 DUP4 ADD MSTORE PUSH2 0x1047 DUP2 DUP7 PUSH2 0xFA4 JUMP JUMPDEST SWAP1 POP DUP2 DUP2 SUB PUSH1 0x20 DUP4 ADD MSTORE PUSH2 0x105B DUP2 DUP6 PUSH2 0xFA4 JUMP JUMPDEST SWAP1 POP DUP2 DUP2 SUB PUSH1 0x40 DUP4 ADD MSTORE PUSH2 0x106F DUP2 DUP5 PUSH2 0xFA4 JUMP JUMPDEST SWAP1 POP SWAP5 SWAP4 POP POP POP POP JUMP JUMPDEST PUSH1 0x0 PUSH1 0x20 DUP3 ADD SWAP1 POP DUP2 DUP2 SUB PUSH1 0x0 DUP4 ADD MSTORE PUSH2 0x1093 DUP2 DUP5 PUSH2 0xB81 JUMP JUMPDEST SWAP1 POP SWAP3 SWAP2 POP POP JUMP JUMPDEST PUSH1 0x0 PUSH1 0x20 DUP3 ADD SWAP1 POP DUP2 DUP2 SUB PUSH1 0x0 DUP4 ADD MSTORE PUSH2 0x10B5 DUP2 DUP5 PUSH2 0xFA4 JUMP JUMPDEST SWAP1 POP SWAP3 SWAP2 POP POP JUMP JUMPDEST PUSH1 0x0 PUSH1 0x80 DUP3 ADD SWAP1 POP PUSH2 0x10D2 PUSH1 0x0 DUP4 ADD DUP8 PUSH2 0xBBA JUMP JUMPDEST PUSH2 0x10DF PUSH1 0x20 DUP4 ADD DUP7 PUSH2 0xBBA JUMP JUMPDEST PUSH2 0x10EC PUSH1 0x40 DUP4 ADD DUP6 PUSH2 0xBBA JUMP JUMPDEST PUSH2 0x10F9 PUSH1 0x60 DUP4 ADD DUP5 PUSH2 0xBBA JUMP JUMPDEST SWAP6 SWAP5 POP POP POP POP POP JUMP JUMPDEST PUSH1 0x0 PUSH1 0x20 DUP3 DUP5 SUB SLT ISZERO PUSH2 0x1118 JUMPI PUSH2 0x1117 PUSH2 0xABD JUMP JUMPDEST JUMPDEST PUSH1 0x0 PUSH2 0x1126 DUP5 DUP3 DUP6 ADD PUSH2 0xE35 JUMP JUMPDEST SWAP2 POP POP SWAP3 SWAP2 POP POP JUMP JUMPDEST PUSH1 0x0 PUSH1 0x20 DUP3 ADD SWAP1 POP PUSH2 0x1144 PUSH1 0x0 DUP4 ADD DUP5 PUSH2 0xBBA JUMP JUMPDEST SWAP3 SWAP2 POP POP JUMP JUMPDEST PUSH32 0x4E487B7100000000000000000000000000000000000000000000000000000000 PUSH1 0x0 MSTORE PUSH1 0x22 PUSH1 0x4 MSTORE PUSH1 0x24 PUSH1 0x0 REVERT JUMPDEST PUSH1 0x0 PUSH1 0x2 DUP3 DIV SWAP1 POP PUSH1 0x1 DUP3 AND DUP1 PUSH2 0x1191 JUMPI PUSH1 0x7F DUP3 AND SWAP2 POP JUMPDEST PUSH1 0x20 DUP3 LT DUP2 SUB PUSH2 0x11A4 JUMPI PUSH2 0x11A3 PUSH2 0x114A JUMP JUMPDEST JUMPDEST POP SWAP2 SWAP1 POP JUMP JUMPDEST PUSH1 0x0 DUP2 SWAP1 POP DUP2 PUSH1 0x0 MSTORE PUSH1 0x20 PUSH1 0x0 KECCAK256 SWAP1 POP SWAP2 SWAP1 POP JUMP JUMPDEST PUSH1 0x0 PUSH1 0x20 PUSH1 0x1F DUP4 ADD DIV SWAP1 POP SWAP2 SWAP1 POP JUMP JUMPDEST PUSH1 0x0 DUP3 DUP3 SHL SWAP1 POP SWAP3 SWAP2 POP POP JUMP JUMPDEST PUSH1 0x0 PUSH1 0x8 DUP4 MUL PUSH2 0x120C PUSH32 0xFFFFFFFFFFFFFFFFFFFFFFFFFFFFFFFFFFFFFFFFFFFFFFFFFFFFFFFFFFFFFFFF DUP3 PUSH2 0x11CF JUMP JUMPDEST PUSH2 0x1216 DUP7 DUP4 PUSH2 0x11CF JUMP JUMPDEST SWAP6 POP DUP1 NOT DUP5 AND SWAP4 POP DUP1 DUP7 AND DUP5 OR SWAP3 POP POP POP SWAP4 SWAP3 POP POP POP JUMP JUMPDEST PUSH1 0x0 DUP2 SWAP1 POP SWAP2 SWAP1 POP JUMP JUMPDEST PUSH1 0x0 PUSH2 0x1253 PUSH2 0x124E PUSH2 0x1249 DUP5 PUSH2 0xAC7 JUMP JUMPDEST PUSH2 0x122E JUMP JUMPDEST PUSH2 0xAC7 JUMP JUMPDEST SWAP1 POP SWAP2 SWAP1 POP JUMP JUMPDEST PUSH1 0x0 DUP2 SWAP1 POP SWAP2 SWAP1 POP JUMP JUMPDEST PUSH2 0x126D DUP4 PUSH2 0x1238 JUMP JUMPDEST PUSH2 0x1281 PUSH2 0x1279 DUP3 PUSH2 0x125A JUMP JUMPDEST DUP5 DUP5 SLOAD PUSH2 0x11DC JUMP JUMPDEST DUP3 SSTORE POP POP POP POP JUMP JUMPDEST PUSH1 0x0 SWAP1 JUMP JUMPDEST PUSH2 0x1296 PUSH2 0x1289 JUMP JUMPDEST PUSH2 0x12A1 DUP2 DUP5 DUP5 PUSH2 0x1264 JUMP JUMPDEST POP POP POP JUMP JUMPDEST JUMPDEST DUP2 DUP2 LT ISZERO PUSH2 0x12C5 JUMPI PUSH2 0x12BA PUSH1 0x0 DUP3 PUSH2 0x128E JUMP JUMPDEST PUSH1 0x1 DUP2 ADD SWAP1 POP PUSH2 0x12A7 JUMP JUMPDEST POP POP JUMP JUMPDEST PUSH1 0x1F DUP3 GT ISZERO PUSH2 0x130A JUMPI PUSH2 0x12DB DUP2 PUSH2 0x11AA JUMP JUMPDEST PUSH2 0x12E4 DUP5 PUSH2 0x11BF JUMP JUMPDEST DUP2 ADD PUSH1 0x20 DUP6 LT ISZERO PUSH2 0x12F3 JUMPI DUP2 SWAP1 POP JUMPDEST PUSH2 0x1307 PUSH2 0x12FF DUP6 PUSH2 0x11BF JUMP JUMPDEST DUP4 ADD DUP3 PUSH2 0x12A6 JUMP JUMPDEST POP POP JUMPDEST POP POP POP JUMP JUMPDEST PUSH1 0x0 DUP3 DUP3 SHR SWAP1 POP SWAP3 SWAP2 POP POP JUMP JUMPDEST PUSH1 0x0 PUSH2 0x132D PUSH1 0x0 NOT DUP5 PUSH1 0x8 MUL PUSH2 0x130F JUMP JUMPDEST NOT DUP1 DUP4 AND SWAP2 POP POP SWAP3 SWAP2 POP POP JUMP JUMPDEST PUSH1 0x0 PUSH2 0x1346 DUP4 DUP4 PUSH2 0x131C JUMP JUMPDEST SWAP2 POP DUP3 PUSH1 0x2 MUL DUP3 OR SWAP1 POP SWAP3 SWAP2 POP POP JUMP JUMPDEST PUSH2 0x135F DUP3 PUSH2 0xB2A JUMP JUMPDEST PUSH8 0xFFFFFFFFFFFFFFFF DUP2 GT ISZERO PUSH2 0x1378 JUMPI PUSH2 0x1377 PUSH2 0xCFA JUMP JUMPDEST JUMPDEST PUSH2 0x1382 DUP3 SLOAD PUSH2 0x1179 JUMP JUMPDEST PUSH2 0x138D DUP3 DUP3 DUP6 PUSH2 0x12C9 JUMP JUMPDEST PUSH1 0x0 PUSH1 0x20 SWAP1 POP PUSH1 0x1F DUP4 GT PUSH1 0x1 DUP2 EQ PUSH2 0x13C0 JUMPI PUSH1 0x0 DUP5 ISZERO PUSH2 0x13AE JUMPI DUP3 DUP8 ADD MLOAD SWAP1 POP JUMPDEST PUSH2 0x13B8 DUP6 DUP3 PUSH2 0x133A JUMP JUMPDEST DUP7 SSTORE POP PUSH2 0x1420 JUMP JUMPDEST PUSH1 0x1F NOT DUP5 AND PUSH2 0x13CE DUP7 PUSH2 0x11AA JUMP JUMPDEST PUSH1 0x0 JUMPDEST DUP3 DUP2 LT ISZERO PUSH2 0x13F6 JUMPI DUP5 DUP10 ADD MLOAD DUP3 SSTORE PUSH1 0x1 DUP3 ADD SWAP2 POP PUSH1 0x20 DUP6 ADD SWAP5 POP PUSH1 0x20 DUP2 ADD SWAP1 POP PUSH2 0x13D1 JUMP JUMPDEST DUP7 DUP4 LT ISZERO PUSH2 0x1413 JUMPI DUP5 DUP10 ADD MLOAD PUSH2 0x140F PUSH1 0x1F DUP10 AND DUP3 PUSH2 0x131C JUMP JUMPDEST DUP4 SSTORE POP JUMPDEST PUSH1 0x1 PUSH1 0x2 DUP9 MUL ADD DUP9 SSTORE POP POP POP JUMPDEST POP POP POP POP POP POP JUMP JUMPDEST PUSH32 0x4E487B7100000000000000000000000000000000000000000000000000000000 PUSH1 0x0 MSTORE PUSH1 0x11 PUSH1 0x4 MSTORE PUSH1 0x24 PUSH1 0x0 REVERT JUMPDEST PUSH1 0x0 PUSH2 0x1462 DUP3 PUSH2 0xAC7 JUMP JUMPDEST SWAP2 POP PUSH32 0xFFFFFFFFFFFFFFFFFFFFFFFFFFFFFFFFFFFFFFFFFFFFFFFFFFFFFFFFFFFFFFFF DUP3 SUB PUSH2 0x1494 JUMPI PUSH2 0x1493 PUSH2 0x1428 JUMP JUMPDEST JUMPDEST PUSH1 0x1 DUP3 ADD SWAP1 POP SWAP2 SWAP1 POP JUMP INVALID LOG2 PUSH5 0x6970667358 0x22 SLT KECCAK256 PUSH1 0xD5 PUSH7 0x4F90DA6B0CDD33 CALLDATALOAD 0xE7 PUSH18 0xEFE7A4480000FC5287E4AD6A54891EA4CB50 0x2F PUSH5 0x736F6C6343 STOP ADDMOD SLT STOP CALLER "
				},
				"gasEstimates": {
					"creation": {
						"codeDepositCost": "1066600",
						"executionCost": "1107",
						"totalCost": "1067707"
					},
					"external": {
						"DepartmentAI()": "infinite",
						"counts(uint8)": "2788",
						"get(uint256)": "infinite",
						"getName(uint256)": "infinite",
						"register(string,uint256,uint256,uint256,uint8,uint8,uint256)": "infinite",
						"stuRoll(uint256)": "infinite",
						"topinBlock()": "infinite",
						"update(string,uint256,uint256,uint256,uint8,uint8,uint256)": "infinite"
					}
				},
				"methodIdentifiers": {
					"DepartmentAI()": "b52b4d50",
					"counts(uint8)": "edb6f7e7",
					"get(uint256)": "9507d39a",
					"getName(uint256)": "6b8ff574",
					"register(string,uint256,uint256,uint256,uint8,uint8,uint256)": "45715674",
					"stuRoll(uint256)": "373bfc67",
					"topinBlock()": "4a98f464",
					"update(string,uint256,uint256,uint256,uint8,uint8,uint256)": "a938f78d"
				}
			},
			"storageLayout": {
				"storage": [
					{
						"astId": 31,
						"contract": "Labs (August)/mapping/final_08.sol:SRS",
						"label": "stuRoll",
						"offset": 0,
						"slot": "0",
						"type": "t_mapping(t_uint256,t_struct(Student)26_storage)"
					},
					{
						"astId": 36,
						"contract": "Labs (August)/mapping/final_08.sol:SRS",
						"label": "counts",
						"offset": 0,
						"slot": "1",
						"type": "t_mapping(t_enum(Department)6,t_uint256)"
					}
				],
				"types": {
					"t_enum(Department)6": {
						"encoding": "inplace",
						"label": "enum SRS.Department",
						"numberOfBytes": "1"
					},
					"t_enum(Status)11": {
						"encoding": "inplace",
						"label": "enum SRS.Status",
						"numberOfBytes": "1"
					},
					"t_mapping(t_enum(Department)6,t_uint256)": {
						"encoding": "mapping",
						"key": "t_enum(Department)6",
						"label": "mapping(enum SRS.Department => uint256)",
						"numberOfBytes": "32",
						"value": "t_uint256"
					},
					"t_mapping(t_uint256,t_struct(Student)26_storage)": {
						"encoding": "mapping",
						"key": "t_uint256",
						"label": "mapping(uint256 => struct SRS.Student)",
						"numberOfBytes": "32",
						"value": "t_struct(Student)26_storage"
					},
					"t_string_storage": {
						"encoding": "bytes",
						"label": "string",
						"numberOfBytes": "32"
					},
					"t_struct(Student)26_storage": {
						"encoding": "inplace",
						"label": "struct SRS.Student",
						"members": [
							{
								"astId": 13,
								"contract": "Labs (August)/mapping/final_08.sol:SRS",
								"label": "name",
								"offset": 0,
								"slot": "0",
								"type": "t_string_storage"
							},
							{
								"astId": 15,
								"contract": "Labs (August)/mapping/final_08.sol:SRS",
								"label": "age",
								"offset": 0,
								"slot": "1",
								"type": "t_uint256"
							},
							{
								"astId": 17,
								"contract": "Labs (August)/mapping/final_08.sol:SRS",
								"label": "registration_date",
								"offset": 0,
								"slot": "2",
								"type": "t_uint256"
							},
							{
								"astId": 20,
								"contract": "Labs (August)/mapping/final_08.sol:SRS",
								"label": "_department",
								"offset": 0,
								"slot": "3",
								"type": "t_enum(Department)6"
							},
							{
								"astId": 23,
								"contract": "Labs (August)/mapping/final_08.sol:SRS",
								"label": "_status",
								"offset": 1,
								"slot": "3",
								"type": "t_enum(Status)11"
							},
							{
								"astId": 25,
								"contract": "Labs (August)/mapping/final_08.sol:SRS",
								"label": "MarksObtained",
								"offset": 0,
								"slot": "4",
								"type": "t_uint256"
							}
						],
						"numberOfBytes": "160"
					},
					"t_uint256": {
						"encoding": "inplace",
						"label": "uint256",
						"numberOfBytes": "32"
					}
				}
			},
			"userdoc": {
				"kind": "user",
				"methods": {},
				"version": 1
			}
		}
	}
}