{
	"data": {
		"bytecode": {
			"linkReferences": {},
			"object": "608060405234801561000f575f80fd5b506101db8061001d5f395ff3fe608060405234801561000f575f80fd5b5060043610610034575f3560e01c8063919840ad14610038578063b3e7e5af14610042575b5f80fd5b610040610073565b005b61005c600480360381019061005791906100c8565b610075565b60405161006a92919061017e565b60405180910390f35b565b6001602052805f5260405f205f91509050805f015f9054906101000a900460ff16908060010154905082565b5f80fd5b600381106100b1575f80fd5b50565b5f813590506100c2816100a5565b92915050565b5f602082840312156100dd576100dc6100a1565b5b5f6100ea848285016100b4565b91505092915050565b7f4e487b71000000000000000000000000000000000000000000000000000000005f52602160045260245ffd5b60038110610131576101306100f3565b5b50565b5f81905061014182610120565b919050565b5f61015082610134565b9050919050565b61016081610146565b82525050565b5f819050919050565b61017881610166565b82525050565b5f6040820190506101915f830185610157565b61019e602083018461016f565b939250505056fea2646970667358221220cccf4f55ffb50b6cffd98cd98f64bf7ef6f335951fe4397a8b35c7aad6ba8b8d64736f6c63430008150033",
			"opcodes": "PUSH1 0x80 PUSH1 0x40 MSTORE CALLVALUE DUP1 ISZERO PUSH2 0xF JUMPI PUSH0 DUP1 REVERT JUMPDEST POP PUSH2 0x1DB DUP1 PUSH2 0x1D PUSH0 CODECOPY PUSH0 RETURN INVALID PUSH1 0x80 PUSH1 0x40 MSTORE CALLVALUE DUP1 ISZERO PUSH2 0xF JUMPI PUSH0 DUP1 REVERT JUMPDEST POP PUSH1 0x4 CALLDATASIZE LT PUSH2 0x34 JUMPI PUSH0 CALLDATALOAD PUSH1 0xE0 SHR DUP1 PUSH4 0x919840AD EQ PUSH2 0x38 JUMPI DUP1 PUSH4 0xB3E7E5AF EQ PUSH2 0x42 JUMPI JUMPDEST PUSH0 DUP1 REVERT JUMPDEST PUSH2 0x40 PUSH2 0x73 JUMP JUMPDEST STOP JUMPDEST PUSH2 0x5C PUSH1 0x4 DUP1 CALLDATASIZE SUB DUP2 ADD SWAP1 PUSH2 0x57 SWAP2 SWAP1 PUSH2 0xC8 JUMP JUMPDEST PUSH2 0x75 JUMP JUMPDEST PUSH1 0x40 MLOAD PUSH2 0x6A SWAP3 SWAP2 SWAP1 PUSH2 0x17E JUMP JUMPDEST PUSH1 0x40 MLOAD DUP1 SWAP2 SUB SWAP1 RETURN JUMPDEST JUMP JUMPDEST PUSH1 0x1 PUSH1 0x20 MSTORE DUP1 PUSH0 MSTORE PUSH1 0x40 PUSH0 KECCAK256 PUSH0 SWAP2 POP SWAP1 POP DUP1 PUSH0 ADD PUSH0 SWAP1 SLOAD SWAP1 PUSH2 0x100 EXP SWAP1 DIV PUSH1 0xFF AND SWAP1 DUP1 PUSH1 0x1 ADD SLOAD SWAP1 POP DUP3 JUMP JUMPDEST PUSH0 DUP1 REVERT JUMPDEST PUSH1 0x3 DUP2 LT PUSH2 0xB1 JUMPI PUSH0 DUP1 REVERT JUMPDEST POP JUMP JUMPDEST PUSH0 DUP2 CALLDATALOAD SWAP1 POP PUSH2 0xC2 DUP2 PUSH2 0xA5 JUMP JUMPDEST SWAP3 SWAP2 POP POP JUMP JUMPDEST PUSH0 PUSH1 0x20 DUP3 DUP5 SUB SLT ISZERO PUSH2 0xDD JUMPI PUSH2 0xDC PUSH2 0xA1 JUMP JUMPDEST JUMPDEST PUSH0 PUSH2 0xEA DUP5 DUP3 DUP6 ADD PUSH2 0xB4 JUMP JUMPDEST SWAP2 POP POP SWAP3 SWAP2 POP POP JUMP JUMPDEST PUSH32 0x4E487B7100000000000000000000000000000000000000000000000000000000 PUSH0 MSTORE PUSH1 0x21 PUSH1 0x4 MSTORE PUSH1 0x24 PUSH0 REVERT JUMPDEST PUSH1 0x3 DUP2 LT PUSH2 0x131 JUMPI PUSH2 0x130 PUSH2 0xF3 JUMP JUMPDEST JUMPDEST POP JUMP JUMPDEST PUSH0 DUP2 SWAP1 POP PUSH2 0x141 DUP3 PUSH2 0x120 JUMP JUMPDEST SWAP2 SWAP1 POP JUMP JUMPDEST PUSH0 PUSH2 0x150 DUP3 PUSH2 0x134 JUMP JUMPDEST SWAP1 POP SWAP2 SWAP1 POP JUMP JUMPDEST PUSH2 0x160 DUP2 PUSH2 0x146 JUMP JUMPDEST DUP3 MSTORE POP POP JUMP JUMPDEST PUSH0 DUP2 SWAP1 POP SWAP2 SWAP1 POP JUMP JUMPDEST PUSH2 0x178 DUP2 PUSH2 0x166 JUMP JUMPDEST DUP3 MSTORE POP POP JUMP JUMPDEST PUSH0 PUSH1 0x40 DUP3 ADD SWAP1 POP PUSH2 0x191 PUSH0 DUP4 ADD DUP6 PUSH2 0x157 JUMP JUMPDEST PUSH2 0x19E PUSH1 0x20 DUP4 ADD DUP5 PUSH2 0x16F JUMP JUMPDEST SWAP4 SWAP3 POP POP POP JUMP INVALID LOG2 PUSH5 0x6970667358 0x22 SLT KECCAK256 0xCC 0xCF 0x4F SSTORE SELFDESTRUCT 0xB5 SIGNEXTEND PUSH13 0xFFD98CD98F64BF7EF6F335951F 0xE4 CODECOPY PUSH27 0x8B35C7AAD6BA8B8D64736F6C634300081500330000000000000000 "
		},
		"gasEstimates": {
			"creation": {
				"codeDepositCost": "95000",
				"executionCost": "139",
				"totalCost": "95139"
			},
			"external": {
				"check()": "121",
				"map(uint8)": "5065"
			}
		},
		"methodIdentifiers": {
			"check()": "919840ad",
			"map(uint8)": "b3e7e5af"
		}
	},
	"abi": [
		{
			"inputs": [],
			"name": "check",
			"outputs": [],
			"stateMutability": "nonpayable",
			"type": "function"
		},
		{
			"inputs": [
				{
					"internalType": "enum EnSt.RoomSize",
					"name": "",
					"type": "uint8"
				}
			],
			"name": "map",
			"outputs": [
				{
					"internalType": "enum EnSt.RoomSize",
					"name": "rs",
					"type": "uint8"
				},
				{
					"internalType": "uint256",
					"name": "roomnum",
					"type": "uint256"
				}
			],
			"stateMutability": "view",
			"type": "function"
		}
	]
}