{
	"data": {
		"bytecode": {
			"linkReferences": {},
			"object": "608060405234801561000f575f80fd5b506102e78061001d5f395ff3fe608060405234801561000f575f80fd5b5060043610610029575f3560e01c8063ee26fac31461002d575b5f80fd5b61003561004d565b60405161004493929190610211565b60405180910390f35b5f805f01805461005c90610281565b80601f016020809104026020016040519081016040528092919081815260200182805461008890610281565b80156100d35780601f106100aa576101008083540402835291602001916100d3565b820191905f5260205f20905b8154815290600101906020018083116100b657829003601f168201915b5050505050908060010180546100e890610281565b80601f016020809104026020016040519081016040528092919081815260200182805461011490610281565b801561015f5780601f106101365761010080835404028352916020019161015f565b820191905f5260205f20905b81548152906001019060200180831161014257829003601f168201915b5050505050908060020154905083565b5f81519050919050565b5f82825260208201905092915050565b5f5b838110156101a657808201518184015260208101905061018b565b5f8484015250505050565b5f601f19601f8301169050919050565b5f6101cb8261016f565b6101d58185610179565b93506101e5818560208601610189565b6101ee816101b1565b840191505092915050565b5f819050919050565b61020b816101f9565b82525050565b5f6060820190508181035f83015261022981866101c1565b9050818103602083015261023d81856101c1565b905061024c6040830184610202565b949350505050565b7f4e487b71000000000000000000000000000000000000000000000000000000005f52602260045260245ffd5b5f600282049050600182168061029857607f821691505b6020821081036102ab576102aa610254565b5b5091905056fea2646970667358221220361564fc535710d9594fa977099d2225f1fb5794a24b73622f6fdb69bc703bdf64736f6c63430008150033",
			"opcodes": "PUSH1 0x80 PUSH1 0x40 MSTORE CALLVALUE DUP1 ISZERO PUSH2 0xF JUMPI PUSH0 DUP1 REVERT JUMPDEST POP PUSH2 0x2E7 DUP1 PUSH2 0x1D PUSH0 CODECOPY PUSH0 RETURN INVALID PUSH1 0x80 PUSH1 0x40 MSTORE CALLVALUE DUP1 ISZERO PUSH2 0xF JUMPI PUSH0 DUP1 REVERT JUMPDEST POP PUSH1 0x4 CALLDATASIZE LT PUSH2 0x29 JUMPI PUSH0 CALLDATALOAD PUSH1 0xE0 SHR DUP1 PUSH4 0xEE26FAC3 EQ PUSH2 0x2D JUMPI JUMPDEST PUSH0 DUP1 REVERT JUMPDEST PUSH2 0x35 PUSH2 0x4D JUMP JUMPDEST PUSH1 0x40 MLOAD PUSH2 0x44 SWAP4 SWAP3 SWAP2 SWAP1 PUSH2 0x211 JUMP JUMPDEST PUSH1 0x40 MLOAD DUP1 SWAP2 SUB SWAP1 RETURN JUMPDEST PUSH0 DUP1 PUSH0 ADD DUP1 SLOAD PUSH2 0x5C SWAP1 PUSH2 0x281 JUMP JUMPDEST DUP1 PUSH1 0x1F ADD PUSH1 0x20 DUP1 SWAP2 DIV MUL PUSH1 0x20 ADD PUSH1 0x40 MLOAD SWAP1 DUP2 ADD PUSH1 0x40 MSTORE DUP1 SWAP3 SWAP2 SWAP1 DUP2 DUP2 MSTORE PUSH1 0x20 ADD DUP3 DUP1 SLOAD PUSH2 0x88 SWAP1 PUSH2 0x281 JUMP JUMPDEST DUP1 ISZERO PUSH2 0xD3 JUMPI DUP1 PUSH1 0x1F LT PUSH2 0xAA JUMPI PUSH2 0x100 DUP1 DUP4 SLOAD DIV MUL DUP4 MSTORE SWAP2 PUSH1 0x20 ADD SWAP2 PUSH2 0xD3 JUMP JUMPDEST DUP3 ADD SWAP2 SWAP1 PUSH0 MSTORE PUSH1 0x20 PUSH0 KECCAK256 SWAP1 JUMPDEST DUP2 SLOAD DUP2 MSTORE SWAP1 PUSH1 0x1 ADD SWAP1 PUSH1 0x20 ADD DUP1 DUP4 GT PUSH2 0xB6 JUMPI DUP3 SWAP1 SUB PUSH1 0x1F AND DUP3 ADD SWAP2 JUMPDEST POP POP POP POP POP SWAP1 DUP1 PUSH1 0x1 ADD DUP1 SLOAD PUSH2 0xE8 SWAP1 PUSH2 0x281 JUMP JUMPDEST DUP1 PUSH1 0x1F ADD PUSH1 0x20 DUP1 SWAP2 DIV MUL PUSH1 0x20 ADD PUSH1 0x40 MLOAD SWAP1 DUP2 ADD PUSH1 0x40 MSTORE DUP1 SWAP3 SWAP2 SWAP1 DUP2 DUP2 MSTORE PUSH1 0x20 ADD DUP3 DUP1 SLOAD PUSH2 0x114 SWAP1 PUSH2 0x281 JUMP JUMPDEST DUP1 ISZERO PUSH2 0x15F JUMPI DUP1 PUSH1 0x1F LT PUSH2 0x136 JUMPI PUSH2 0x100 DUP1 DUP4 SLOAD DIV MUL DUP4 MSTORE SWAP2 PUSH1 0x20 ADD SWAP2 PUSH2 0x15F JUMP JUMPDEST DUP3 ADD SWAP2 SWAP1 PUSH0 MSTORE PUSH1 0x20 PUSH0 KECCAK256 SWAP1 JUMPDEST DUP2 SLOAD DUP2 MSTORE SWAP1 PUSH1 0x1 ADD SWAP1 PUSH1 0x20 ADD DUP1 DUP4 GT PUSH2 0x142 JUMPI DUP3 SWAP1 SUB PUSH1 0x1F AND DUP3 ADD SWAP2 JUMPDEST POP POP POP POP POP SWAP1 DUP1 PUSH1 0x2 ADD SLOAD SWAP1 POP DUP4 JUMP JUMPDEST PUSH0 DUP2 MLOAD SWAP1 POP SWAP2 SWAP1 POP JUMP JUMPDEST PUSH0 DUP3 DUP3 MSTORE PUSH1 0x20 DUP3 ADD SWAP1 POP SWAP3 SWAP2 POP POP JUMP JUMPDEST PUSH0 JUMPDEST DUP4 DUP2 LT ISZERO PUSH2 0x1A6 JUMPI DUP1 DUP3 ADD MLOAD DUP2 DUP5 ADD MSTORE PUSH1 0x20 DUP2 ADD SWAP1 POP PUSH2 0x18B JUMP JUMPDEST PUSH0 DUP5 DUP5 ADD MSTORE POP POP POP POP JUMP JUMPDEST PUSH0 PUSH1 0x1F NOT PUSH1 0x1F DUP4 ADD AND SWAP1 POP SWAP2 SWAP1 POP JUMP JUMPDEST PUSH0 PUSH2 0x1CB DUP3 PUSH2 0x16F JUMP JUMPDEST PUSH2 0x1D5 DUP2 DUP6 PUSH2 0x179 JUMP JUMPDEST SWAP4 POP PUSH2 0x1E5 DUP2 DUP6 PUSH1 0x20 DUP7 ADD PUSH2 0x189 JUMP JUMPDEST PUSH2 0x1EE DUP2 PUSH2 0x1B1 JUMP JUMPDEST DUP5 ADD SWAP2 POP POP SWAP3 SWAP2 POP POP JUMP JUMPDEST PUSH0 DUP2 SWAP1 POP SWAP2 SWAP1 POP JUMP JUMPDEST PUSH2 0x20B DUP2 PUSH2 0x1F9 JUMP JUMPDEST DUP3 MSTORE POP POP JUMP JUMPDEST PUSH0 PUSH1 0x60 DUP3 ADD SWAP1 POP DUP2 DUP2 SUB PUSH0 DUP4 ADD MSTORE PUSH2 0x229 DUP2 DUP7 PUSH2 0x1C1 JUMP JUMPDEST SWAP1 POP DUP2 DUP2 SUB PUSH1 0x20 DUP4 ADD MSTORE PUSH2 0x23D DUP2 DUP6 PUSH2 0x1C1 JUMP JUMPDEST SWAP1 POP PUSH2 0x24C PUSH1 0x40 DUP4 ADD DUP5 PUSH2 0x202 JUMP JUMPDEST SWAP5 SWAP4 POP POP POP POP JUMP JUMPDEST PUSH32 0x4E487B7100000000000000000000000000000000000000000000000000000000 PUSH0 MSTORE PUSH1 0x22 PUSH1 0x4 MSTORE PUSH1 0x24 PUSH0 REVERT JUMPDEST PUSH0 PUSH1 0x2 DUP3 DIV SWAP1 POP PUSH1 0x1 DUP3 AND DUP1 PUSH2 0x298 JUMPI PUSH1 0x7F DUP3 AND SWAP2 POP JUMPDEST PUSH1 0x20 DUP3 LT DUP2 SUB PUSH2 0x2AB JUMPI PUSH2 0x2AA PUSH2 0x254 JUMP JUMPDEST JUMPDEST POP SWAP2 SWAP1 POP JUMP INVALID LOG2 PUSH5 0x6970667358 0x22 SLT KECCAK256 CALLDATASIZE ISZERO PUSH5 0xFC535710D9 MSIZE 0x4F 0xA9 PUSH24 0x99D2225F1FB5794A24B73622F6FDB69BC703BDF64736F6C PUSH4 0x43000815 STOP CALLER "
		},
		"gasEstimates": {
			"creation": {
				"codeDepositCost": "148600",
				"executionCost": "194",
				"totalCost": "148794"
			},
			"external": {
				"car()": "infinite"
			}
		},
		"methodIdentifiers": {
			"car()": "ee26fac3"
		}
	},
	"abi": [
		{
			"inputs": [],
			"name": "car",
			"outputs": [
				{
					"internalType": "string",
					"name": "make",
					"type": "string"
				},
				{
					"internalType": "string",
					"name": "cars",
					"type": "string"
				},
				{
					"internalType": "uint256",
					"name": "price",
					"type": "uint256"
				}
			],
			"stateMutability": "view",
			"type": "function"
		}
	]
}