{
	"Labs (August)/Error_handling/file01.sol": {
		"qoutient_calc": {
			"abi": [
				{
					"inputs": [
						{
							"internalType": "int256",
							"name": "numerator",
							"type": "int256"
						},
						{
							"internalType": "int256",
							"name": "denominator",
							"type": "int256"
						}
					],
					"name": "calcQoutient",
					"outputs": [
						{
							"internalType": "int256",
							"name": "",
							"type": "int256"
						}
					],
					"stateMutability": "nonpayable",
					"type": "function"
				},
				{
					"inputs": [],
					"name": "calnum",
					"outputs": [
						{
							"internalType": "int256",
							"name": "",
							"type": "int256"
						}
					],
					"stateMutability": "view",
					"type": "function"
				}
			],
			"devdoc": {
				"kind": "dev",
				"methods": {},
				"version": 1
			},
			"evm": {
				"assembly": "    /* \"Labs (August)/Error_handling/file01.sol\":768:1057  contract qoutient_calc{... */\n  mstore(0x40, 0x80)\n  callvalue\n  dup1\n  iszero\n  tag_1\n  jumpi\n  0x00\n  dup1\n  revert\ntag_1:\n  pop\n  dataSize(sub_0)\n  dup1\n  dataOffset(sub_0)\n  0x00\n  codecopy\n  0x00\n  return\nstop\n\nsub_0: assembly {\n        /* \"Labs (August)/Error_handling/file01.sol\":768:1057  contract qoutient_calc{... */\n      mstore(0x40, 0x80)\n      callvalue\n      dup1\n      iszero\n      tag_1\n      jumpi\n      0x00\n      dup1\n      revert\n    tag_1:\n      pop\n      jumpi(tag_2, lt(calldatasize, 0x04))\n      shr(0xe0, calldataload(0x00))\n      dup1\n      0x75852bc0\n      eq\n      tag_3\n      jumpi\n      dup1\n      0xce727f87\n      eq\n      tag_4\n      jumpi\n    tag_2:\n      0x00\n      dup1\n      revert\n        /* \"Labs (August)/Error_handling/file01.sol\":805:822  int public calnum */\n    tag_3:\n      tag_5\n      tag_6\n      jump\t// in\n    tag_5:\n      mload(0x40)\n      tag_7\n      swap2\n      swap1\n      tag_8\n      jump\t// in\n    tag_7:\n      mload(0x40)\n      dup1\n      swap2\n      sub\n      swap1\n      return\n        /* \"Labs (August)/Error_handling/file01.sol\":835:1052  function calcQoutient(int numerator , int denominator)public returns(int){... */\n    tag_4:\n      tag_9\n      0x04\n      dup1\n      calldatasize\n      sub\n      dup2\n      add\n      swap1\n      tag_10\n      swap2\n      swap1\n      tag_11\n      jump\t// in\n    tag_10:\n      tag_12\n      jump\t// in\n    tag_9:\n      mload(0x40)\n      tag_13\n      swap2\n      swap1\n      tag_8\n      jump\t// in\n    tag_13:\n      mload(0x40)\n      dup1\n      swap2\n      sub\n      swap1\n      return\n        /* \"Labs (August)/Error_handling/file01.sol\":805:822  int public calnum */\n    tag_6:\n      sload(0x00)\n      dup2\n      jump\t// out\n        /* \"Labs (August)/Error_handling/file01.sol\":835:1052  function calcQoutient(int numerator , int denominator)public returns(int){... */\n    tag_12:\n        /* \"Labs (August)/Error_handling/file01.sol\":904:907  int */\n      0x00\n        /* \"Labs (August)/Error_handling/file01.sol\":941:942  0 */\n      dup1\n        /* \"Labs (August)/Error_handling/file01.sol\":927:938  denominator */\n      dup3\n        /* \"Labs (August)/Error_handling/file01.sol\":927:942  denominator !=0 */\n      sub\n        /* \"Labs (August)/Error_handling/file01.sol\":919:977  require(denominator !=0 ,\"denominator should not be zero\") */\n      tag_15\n      jumpi\n      mload(0x40)\n      0x08c379a000000000000000000000000000000000000000000000000000000000\n      dup2\n      mstore\n      0x04\n      add\n      tag_16\n      swap1\n      tag_17\n      jump\t// in\n    tag_16:\n      mload(0x40)\n      dup1\n      swap2\n      sub\n      swap1\n      revert\n    tag_15:\n        /* \"Labs (August)/Error_handling/file01.sol\":1007:1018  denominator */\n      dup2\n        /* \"Labs (August)/Error_handling/file01.sol\":997:1006  numerator */\n      dup4\n        /* \"Labs (August)/Error_handling/file01.sol\":997:1018  numerator/denominator */\n      tag_18\n      swap2\n      swap1\n      tag_19\n      jump\t// in\n    tag_18:\n        /* \"Labs (August)/Error_handling/file01.sol\":988:994  calnum */\n      0x00\n        /* \"Labs (August)/Error_handling/file01.sol\":988:1018  calnum = numerator/denominator */\n      dup2\n      swap1\n      sstore\n      pop\n        /* \"Labs (August)/Error_handling/file01.sol\":1036:1042  calnum */\n      sload(0x00)\n        /* \"Labs (August)/Error_handling/file01.sol\":1029:1042  return calnum */\n      swap1\n      pop\n        /* \"Labs (August)/Error_handling/file01.sol\":835:1052  function calcQoutient(int numerator , int denominator)public returns(int){... */\n      swap3\n      swap2\n      pop\n      pop\n      jump\t// out\n        /* \"#utility.yul\":7:83   */\n    tag_20:\n        /* \"#utility.yul\":43:50   */\n      0x00\n        /* \"#utility.yul\":72:77   */\n      dup2\n        /* \"#utility.yul\":61:77   */\n      swap1\n      pop\n        /* \"#utility.yul\":7:83   */\n      swap2\n      swap1\n      pop\n      jump\t// out\n        /* \"#utility.yul\":89:204   */\n    tag_21:\n        /* \"#utility.yul\":174:197   */\n      tag_35\n        /* \"#utility.yul\":191:196   */\n      dup2\n        /* \"#utility.yul\":174:197   */\n      tag_20\n      jump\t// in\n    tag_35:\n        /* \"#utility.yul\":169:172   */\n      dup3\n        /* \"#utility.yul\":162:198   */\n      mstore\n        /* \"#utility.yul\":89:204   */\n      pop\n      pop\n      jump\t// out\n        /* \"#utility.yul\":210:428   */\n    tag_8:\n        /* \"#utility.yul\":301:305   */\n      0x00\n        /* \"#utility.yul\":339:341   */\n      0x20\n        /* \"#utility.yul\":328:337   */\n      dup3\n        /* \"#utility.yul\":324:342   */\n      add\n        /* \"#utility.yul\":316:342   */\n      swap1\n      pop\n        /* \"#utility.yul\":352:421   */\n      tag_37\n        /* \"#utility.yul\":418:419   */\n      0x00\n        /* \"#utility.yul\":407:416   */\n      dup4\n        /* \"#utility.yul\":403:420   */\n      add\n        /* \"#utility.yul\":394:400   */\n      dup5\n        /* \"#utility.yul\":352:421   */\n      tag_21\n      jump\t// in\n    tag_37:\n        /* \"#utility.yul\":210:428   */\n      swap3\n      swap2\n      pop\n      pop\n      jump\t// out\n        /* \"#utility.yul\":515:632   */\n    tag_23:\n        /* \"#utility.yul\":624:625   */\n      0x00\n        /* \"#utility.yul\":621:622   */\n      dup1\n        /* \"#utility.yul\":614:626   */\n      revert\n        /* \"#utility.yul\":761:881   */\n    tag_25:\n        /* \"#utility.yul\":833:856   */\n      tag_42\n        /* \"#utility.yul\":850:855   */\n      dup2\n        /* \"#utility.yul\":833:856   */\n      tag_20\n      jump\t// in\n    tag_42:\n        /* \"#utility.yul\":826:831   */\n      dup2\n        /* \"#utility.yul\":823:857   */\n      eq\n        /* \"#utility.yul\":813:875   */\n      tag_43\n      jumpi\n        /* \"#utility.yul\":871:872   */\n      0x00\n        /* \"#utility.yul\":868:869   */\n      dup1\n        /* \"#utility.yul\":861:873   */\n      revert\n        /* \"#utility.yul\":813:875   */\n    tag_43:\n        /* \"#utility.yul\":761:881   */\n      pop\n      jump\t// out\n        /* \"#utility.yul\":887:1024   */\n    tag_26:\n        /* \"#utility.yul\":932:937   */\n      0x00\n        /* \"#utility.yul\":970:976   */\n      dup2\n        /* \"#utility.yul\":957:977   */\n      calldataload\n        /* \"#utility.yul\":948:977   */\n      swap1\n      pop\n        /* \"#utility.yul\":986:1018   */\n      tag_45\n        /* \"#utility.yul\":1012:1017   */\n      dup2\n        /* \"#utility.yul\":986:1018   */\n      tag_25\n      jump\t// in\n    tag_45:\n        /* \"#utility.yul\":887:1024   */\n      swap3\n      swap2\n      pop\n      pop\n      jump\t// out\n        /* \"#utility.yul\":1030:1500   */\n    tag_11:\n        /* \"#utility.yul\":1096:1102   */\n      0x00\n        /* \"#utility.yul\":1104:1110   */\n      dup1\n        /* \"#utility.yul\":1153:1155   */\n      0x40\n        /* \"#utility.yul\":1141:1150   */\n      dup4\n        /* \"#utility.yul\":1132:1139   */\n      dup6\n        /* \"#utility.yul\":1128:1151   */\n      sub\n        /* \"#utility.yul\":1124:1156   */\n      slt\n        /* \"#utility.yul\":1121:1240   */\n      iszero\n      tag_47\n      jumpi\n        /* \"#utility.yul\":1159:1238   */\n      tag_48\n      tag_23\n      jump\t// in\n    tag_48:\n        /* \"#utility.yul\":1121:1240   */\n    tag_47:\n        /* \"#utility.yul\":1279:1280   */\n      0x00\n        /* \"#utility.yul\":1304:1356   */\n      tag_49\n        /* \"#utility.yul\":1348:1355   */\n      dup6\n        /* \"#utility.yul\":1339:1345   */\n      dup3\n        /* \"#utility.yul\":1328:1337   */\n      dup7\n        /* \"#utility.yul\":1324:1346   */\n      add\n        /* \"#utility.yul\":1304:1356   */\n      tag_26\n      jump\t// in\n    tag_49:\n        /* \"#utility.yul\":1294:1356   */\n      swap3\n      pop\n        /* \"#utility.yul\":1250:1366   */\n      pop\n        /* \"#utility.yul\":1405:1407   */\n      0x20\n        /* \"#utility.yul\":1431:1483   */\n      tag_50\n        /* \"#utility.yul\":1475:1482   */\n      dup6\n        /* \"#utility.yul\":1466:1472   */\n      dup3\n        /* \"#utility.yul\":1455:1464   */\n      dup7\n        /* \"#utility.yul\":1451:1473   */\n      add\n        /* \"#utility.yul\":1431:1483   */\n      tag_26\n      jump\t// in\n    tag_50:\n        /* \"#utility.yul\":1421:1483   */\n      swap2\n      pop\n        /* \"#utility.yul\":1376:1493   */\n      pop\n        /* \"#utility.yul\":1030:1500   */\n      swap3\n      pop\n      swap3\n      swap1\n      pop\n      jump\t// out\n        /* \"#utility.yul\":1506:1675   */\n    tag_27:\n        /* \"#utility.yul\":1590:1601   */\n      0x00\n        /* \"#utility.yul\":1624:1630   */\n      dup3\n        /* \"#utility.yul\":1619:1622   */\n      dup3\n        /* \"#utility.yul\":1612:1631   */\n      mstore\n        /* \"#utility.yul\":1664:1668   */\n      0x20\n        /* \"#utility.yul\":1659:1662   */\n      dup3\n        /* \"#utility.yul\":1655:1669   */\n      add\n        /* \"#utility.yul\":1640:1669   */\n      swap1\n      pop\n        /* \"#utility.yul\":1506:1675   */\n      swap3\n      swap2\n      pop\n      pop\n      jump\t// out\n        /* \"#utility.yul\":1681:1861   */\n    tag_28:\n        /* \"#utility.yul\":1821:1853   */\n      0x64656e6f6d696e61746f722073686f756c64206e6f74206265207a65726f0000\n        /* \"#utility.yul\":1817:1818   */\n      0x00\n        /* \"#utility.yul\":1809:1815   */\n      dup3\n        /* \"#utility.yul\":1805:1819   */\n      add\n        /* \"#utility.yul\":1798:1854   */\n      mstore\n        /* \"#utility.yul\":1681:1861   */\n      pop\n      jump\t// out\n        /* \"#utility.yul\":1867:2233   */\n    tag_29:\n        /* \"#utility.yul\":2009:2012   */\n      0x00\n        /* \"#utility.yul\":2030:2097   */\n      tag_54\n        /* \"#utility.yul\":2094:2096   */\n      0x1e\n        /* \"#utility.yul\":2089:2092   */\n      dup4\n        /* \"#utility.yul\":2030:2097   */\n      tag_27\n      jump\t// in\n    tag_54:\n        /* \"#utility.yul\":2023:2097   */\n      swap2\n      pop\n        /* \"#utility.yul\":2106:2199   */\n      tag_55\n        /* \"#utility.yul\":2195:2198   */\n      dup3\n        /* \"#utility.yul\":2106:2199   */\n      tag_28\n      jump\t// in\n    tag_55:\n        /* \"#utility.yul\":2224:2226   */\n      0x20\n        /* \"#utility.yul\":2219:2222   */\n      dup3\n        /* \"#utility.yul\":2215:2227   */\n      add\n        /* \"#utility.yul\":2208:2227   */\n      swap1\n      pop\n        /* \"#utility.yul\":1867:2233   */\n      swap2\n      swap1\n      pop\n      jump\t// out\n        /* \"#utility.yul\":2239:2658   */\n    tag_17:\n        /* \"#utility.yul\":2405:2409   */\n      0x00\n        /* \"#utility.yul\":2443:2445   */\n      0x20\n        /* \"#utility.yul\":2432:2441   */\n      dup3\n        /* \"#utility.yul\":2428:2446   */\n      add\n        /* \"#utility.yul\":2420:2446   */\n      swap1\n      pop\n        /* \"#utility.yul\":2492:2501   */\n      dup2\n        /* \"#utility.yul\":2486:2490   */\n      dup2\n        /* \"#utility.yul\":2482:2502   */\n      sub\n        /* \"#utility.yul\":2478:2479   */\n      0x00\n        /* \"#utility.yul\":2467:2476   */\n      dup4\n        /* \"#utility.yul\":2463:2480   */\n      add\n        /* \"#utility.yul\":2456:2503   */\n      mstore\n        /* \"#utility.yul\":2520:2651   */\n      tag_57\n        /* \"#utility.yul\":2646:2650   */\n      dup2\n        /* \"#utility.yul\":2520:2651   */\n      tag_29\n      jump\t// in\n    tag_57:\n        /* \"#utility.yul\":2512:2651   */\n      swap1\n      pop\n        /* \"#utility.yul\":2239:2658   */\n      swap2\n      swap1\n      pop\n      jump\t// out\n        /* \"#utility.yul\":2664:2844   */\n    tag_30:\n        /* \"#utility.yul\":2712:2789   */\n      0x4e487b7100000000000000000000000000000000000000000000000000000000\n        /* \"#utility.yul\":2709:2710   */\n      0x00\n        /* \"#utility.yul\":2702:2790   */\n      mstore\n        /* \"#utility.yul\":2809:2813   */\n      0x12\n        /* \"#utility.yul\":2806:2807   */\n      0x04\n        /* \"#utility.yul\":2799:2814   */\n      mstore\n        /* \"#utility.yul\":2833:2837   */\n      0x24\n        /* \"#utility.yul\":2830:2831   */\n      0x00\n        /* \"#utility.yul\":2823:2838   */\n      revert\n        /* \"#utility.yul\":2850:3030   */\n    tag_31:\n        /* \"#utility.yul\":2898:2975   */\n      0x4e487b7100000000000000000000000000000000000000000000000000000000\n        /* \"#utility.yul\":2895:2896   */\n      0x00\n        /* \"#utility.yul\":2888:2976   */\n      mstore\n        /* \"#utility.yul\":2995:2999   */\n      0x11\n        /* \"#utility.yul\":2992:2993   */\n      0x04\n        /* \"#utility.yul\":2985:3000   */\n      mstore\n        /* \"#utility.yul\":3019:3023   */\n      0x24\n        /* \"#utility.yul\":3016:3017   */\n      0x00\n        /* \"#utility.yul\":3009:3024   */\n      revert\n        /* \"#utility.yul\":3036:3421   */\n    tag_19:\n        /* \"#utility.yul\":3075:3076   */\n      0x00\n        /* \"#utility.yul\":3092:3111   */\n      tag_61\n        /* \"#utility.yul\":3109:3110   */\n      dup3\n        /* \"#utility.yul\":3092:3111   */\n      tag_20\n      jump\t// in\n    tag_61:\n        /* \"#utility.yul\":3087:3111   */\n      swap2\n      pop\n        /* \"#utility.yul\":3125:3144   */\n      tag_62\n        /* \"#utility.yul\":3142:3143   */\n      dup4\n        /* \"#utility.yul\":3125:3144   */\n      tag_20\n      jump\t// in\n    tag_62:\n        /* \"#utility.yul\":3120:3144   */\n      swap3\n      pop\n        /* \"#utility.yul\":3163:3164   */\n      dup3\n        /* \"#utility.yul\":3153:3188   */\n      tag_63\n      jumpi\n        /* \"#utility.yul\":3168:3186   */\n      tag_64\n      tag_30\n      jump\t// in\n    tag_64:\n        /* \"#utility.yul\":3153:3188   */\n    tag_63:\n        /* \"#utility.yul\":3354:3355   */\n      0x01\n        /* \"#utility.yul\":3351:3352   */\n      0x00\n        /* \"#utility.yul\":3347:3356   */\n      sub\n        /* \"#utility.yul\":3344:3345   */\n      dup4\n        /* \"#utility.yul\":3341:3357   */\n      eq\n        /* \"#utility.yul\":3260:3326   */\n      0x8000000000000000000000000000000000000000000000000000000000000000\n        /* \"#utility.yul\":3257:3258   */\n      dup4\n        /* \"#utility.yul\":3254:3327   */\n      eq\n        /* \"#utility.yul\":3237:3367   */\n      and\n        /* \"#utility.yul\":3234:3390   */\n      iszero\n      tag_65\n      jumpi\n        /* \"#utility.yul\":3370:3388   */\n      tag_66\n      tag_31\n      jump\t// in\n    tag_66:\n        /* \"#utility.yul\":3234:3390   */\n    tag_65:\n        /* \"#utility.yul\":3413:3414   */\n      dup3\n        /* \"#utility.yul\":3410:3411   */\n      dup3\n        /* \"#utility.yul\":3405:3415   */\n      sdiv\n        /* \"#utility.yul\":3400:3415   */\n      swap1\n      pop\n        /* \"#utility.yul\":3036:3421   */\n      swap3\n      swap2\n      pop\n      pop\n      jump\t// out\n\n    auxdata: 0xa2646970667358221220e41927b593a3a25c9584808140e38c35a20cc6f0f4005d12dedb98df46c173b764736f6c63430008150033\n}\n",
				"bytecode": {
					"linkReferences": {},
					"object": "608060405234801561000f575f80fd5b506102f68061001d5f395ff3fe608060405234801561000f575f80fd5b5060043610610034575f3560e01c806375852bc014610038578063ce727f8714610056575b5f80fd5b610040610086565b60405161004d9190610101565b60405180910390f35b610070600480360381019061006b9190610148565b61008b565b60405161007d9190610101565b60405180910390f35b5f5481565b5f8082036100ce576040517f08c379a00000000000000000000000000000000000000000000000000000000081526004016100c5906101e0565b60405180910390fd5b81836100da9190610258565b5f819055505f54905092915050565b5f819050919050565b6100fb816100e9565b82525050565b5f6020820190506101145f8301846100f2565b92915050565b5f80fd5b610127816100e9565b8114610131575f80fd5b50565b5f813590506101428161011e565b92915050565b5f806040838503121561015e5761015d61011a565b5b5f61016b85828601610134565b925050602061017c85828601610134565b9150509250929050565b5f82825260208201905092915050565b7f64656e6f6d696e61746f722073686f756c64206e6f74206265207a65726f00005f82015250565b5f6101ca601e83610186565b91506101d582610196565b602082019050919050565b5f6020820190508181035f8301526101f7816101be565b9050919050565b7f4e487b71000000000000000000000000000000000000000000000000000000005f52601260045260245ffd5b7f4e487b71000000000000000000000000000000000000000000000000000000005f52601160045260245ffd5b5f610262826100e9565b915061026d836100e9565b92508261027d5761027c6101fe565b5b60015f0383147f8000000000000000000000000000000000000000000000000000000000000000831416156102b5576102b461022b565b5b82820590509291505056fea2646970667358221220e41927b593a3a25c9584808140e38c35a20cc6f0f4005d12dedb98df46c173b764736f6c63430008150033",
					"opcodes": "PUSH1 0x80 PUSH1 0x40 MSTORE CALLVALUE DUP1 ISZERO PUSH2 0xF JUMPI PUSH0 DUP1 REVERT JUMPDEST POP PUSH2 0x2F6 DUP1 PUSH2 0x1D PUSH0 CODECOPY PUSH0 RETURN INVALID PUSH1 0x80 PUSH1 0x40 MSTORE CALLVALUE DUP1 ISZERO PUSH2 0xF JUMPI PUSH0 DUP1 REVERT JUMPDEST POP PUSH1 0x4 CALLDATASIZE LT PUSH2 0x34 JUMPI PUSH0 CALLDATALOAD PUSH1 0xE0 SHR DUP1 PUSH4 0x75852BC0 EQ PUSH2 0x38 JUMPI DUP1 PUSH4 0xCE727F87 EQ PUSH2 0x56 JUMPI JUMPDEST PUSH0 DUP1 REVERT JUMPDEST PUSH2 0x40 PUSH2 0x86 JUMP JUMPDEST PUSH1 0x40 MLOAD PUSH2 0x4D SWAP2 SWAP1 PUSH2 0x101 JUMP JUMPDEST PUSH1 0x40 MLOAD DUP1 SWAP2 SUB SWAP1 RETURN JUMPDEST PUSH2 0x70 PUSH1 0x4 DUP1 CALLDATASIZE SUB DUP2 ADD SWAP1 PUSH2 0x6B SWAP2 SWAP1 PUSH2 0x148 JUMP JUMPDEST PUSH2 0x8B JUMP JUMPDEST PUSH1 0x40 MLOAD PUSH2 0x7D SWAP2 SWAP1 PUSH2 0x101 JUMP JUMPDEST PUSH1 0x40 MLOAD DUP1 SWAP2 SUB SWAP1 RETURN JUMPDEST PUSH0 SLOAD DUP2 JUMP JUMPDEST PUSH0 DUP1 DUP3 SUB PUSH2 0xCE JUMPI PUSH1 0x40 MLOAD PUSH32 0x8C379A000000000000000000000000000000000000000000000000000000000 DUP2 MSTORE PUSH1 0x4 ADD PUSH2 0xC5 SWAP1 PUSH2 0x1E0 JUMP JUMPDEST PUSH1 0x40 MLOAD DUP1 SWAP2 SUB SWAP1 REVERT JUMPDEST DUP2 DUP4 PUSH2 0xDA SWAP2 SWAP1 PUSH2 0x258 JUMP JUMPDEST PUSH0 DUP2 SWAP1 SSTORE POP PUSH0 SLOAD SWAP1 POP SWAP3 SWAP2 POP POP JUMP JUMPDEST PUSH0 DUP2 SWAP1 POP SWAP2 SWAP1 POP JUMP JUMPDEST PUSH2 0xFB DUP2 PUSH2 0xE9 JUMP JUMPDEST DUP3 MSTORE POP POP JUMP JUMPDEST PUSH0 PUSH1 0x20 DUP3 ADD SWAP1 POP PUSH2 0x114 PUSH0 DUP4 ADD DUP5 PUSH2 0xF2 JUMP JUMPDEST SWAP3 SWAP2 POP POP JUMP JUMPDEST PUSH0 DUP1 REVERT JUMPDEST PUSH2 0x127 DUP2 PUSH2 0xE9 JUMP JUMPDEST DUP2 EQ PUSH2 0x131 JUMPI PUSH0 DUP1 REVERT JUMPDEST POP JUMP JUMPDEST PUSH0 DUP2 CALLDATALOAD SWAP1 POP PUSH2 0x142 DUP2 PUSH2 0x11E JUMP JUMPDEST SWAP3 SWAP2 POP POP JUMP JUMPDEST PUSH0 DUP1 PUSH1 0x40 DUP4 DUP6 SUB SLT ISZERO PUSH2 0x15E JUMPI PUSH2 0x15D PUSH2 0x11A JUMP JUMPDEST JUMPDEST PUSH0 PUSH2 0x16B DUP6 DUP3 DUP7 ADD PUSH2 0x134 JUMP JUMPDEST SWAP3 POP POP PUSH1 0x20 PUSH2 0x17C DUP6 DUP3 DUP7 ADD PUSH2 0x134 JUMP JUMPDEST SWAP2 POP POP SWAP3 POP SWAP3 SWAP1 POP JUMP JUMPDEST PUSH0 DUP3 DUP3 MSTORE PUSH1 0x20 DUP3 ADD SWAP1 POP SWAP3 SWAP2 POP POP JUMP JUMPDEST PUSH32 0x64656E6F6D696E61746F722073686F756C64206E6F74206265207A65726F0000 PUSH0 DUP3 ADD MSTORE POP JUMP JUMPDEST PUSH0 PUSH2 0x1CA PUSH1 0x1E DUP4 PUSH2 0x186 JUMP JUMPDEST SWAP2 POP PUSH2 0x1D5 DUP3 PUSH2 0x196 JUMP JUMPDEST PUSH1 0x20 DUP3 ADD SWAP1 POP SWAP2 SWAP1 POP JUMP JUMPDEST PUSH0 PUSH1 0x20 DUP3 ADD SWAP1 POP DUP2 DUP2 SUB PUSH0 DUP4 ADD MSTORE PUSH2 0x1F7 DUP2 PUSH2 0x1BE JUMP JUMPDEST SWAP1 POP SWAP2 SWAP1 POP JUMP JUMPDEST PUSH32 0x4E487B7100000000000000000000000000000000000000000000000000000000 PUSH0 MSTORE PUSH1 0x12 PUSH1 0x4 MSTORE PUSH1 0x24 PUSH0 REVERT JUMPDEST PUSH32 0x4E487B7100000000000000000000000000000000000000000000000000000000 PUSH0 MSTORE PUSH1 0x11 PUSH1 0x4 MSTORE PUSH1 0x24 PUSH0 REVERT JUMPDEST PUSH0 PUSH2 0x262 DUP3 PUSH2 0xE9 JUMP JUMPDEST SWAP2 POP PUSH2 0x26D DUP4 PUSH2 0xE9 JUMP JUMPDEST SWAP3 POP DUP3 PUSH2 0x27D JUMPI PUSH2 0x27C PUSH2 0x1FE JUMP JUMPDEST JUMPDEST PUSH1 0x1 PUSH0 SUB DUP4 EQ PUSH32 0x8000000000000000000000000000000000000000000000000000000000000000 DUP4 EQ AND ISZERO PUSH2 0x2B5 JUMPI PUSH2 0x2B4 PUSH2 0x22B JUMP JUMPDEST JUMPDEST DUP3 DUP3 SDIV SWAP1 POP SWAP3 SWAP2 POP POP JUMP INVALID LOG2 PUSH5 0x6970667358 0x22 SLT KECCAK256 0xE4 NOT 0x27 0xB5 SWAP4 LOG3 LOG2 0x5C SWAP6 DUP5 DUP1 DUP2 BLOCKHASH 0xE3 DUP13 CALLDATALOAD LOG2 0xC 0xC6 CREATE DELEGATECALL STOP 0x5D SLT 0xDE 0xDB SWAP9 0xDF CHAINID 0xC1 PUSH20 0xB764736F6C634300081500330000000000000000 "
				},
				"gasEstimates": {
					"creation": {
						"codeDepositCost": "151600",
						"executionCost": "194",
						"totalCost": "151794"
					},
					"external": {
						"calcQoutient(int256,int256)": "infinite",
						"calnum()": "2402"
					}
				},
				"methodIdentifiers": {
					"calcQoutient(int256,int256)": "ce727f87",
					"calnum()": "75852bc0"
				}
			},
			"storageLayout": {
				"storage": [
					{
						"astId": 84,
						"contract": "Labs (August)/Error_handling/file01.sol:qoutient_calc",
						"label": "calnum",
						"offset": 0,
						"slot": "0",
						"type": "t_int256"
					}
				],
				"types": {
					"t_int256": {
						"encoding": "inplace",
						"label": "int256",
						"numberOfBytes": "32"
					}
				}
			},
			"userdoc": {
				"kind": "user",
				"methods": {},
				"version": 1
			}
		}
	}
}