{
	"Labs (August)/Error_handling/file_revert.sol": {
		"VS": {
			"abi": [
				{
					"inputs": [
						{
							"internalType": "uint256",
							"name": "_candidateId",
							"type": "uint256"
						}
					],
					"name": "vote",
					"outputs": [],
					"stateMutability": "nonpayable",
					"type": "function"
				},
				{
					"inputs": [
						{
							"internalType": "uint256",
							"name": "",
							"type": "uint256"
						}
					],
					"name": "votinglist",
					"outputs": [
						{
							"internalType": "bool",
							"name": "",
							"type": "bool"
						}
					],
					"stateMutability": "view",
					"type": "function"
				}
			],
			"devdoc": {
				"kind": "dev",
				"methods": {},
				"version": 1
			},
			"evm": {
				"assembly": "    /* \"Labs (August)/Error_handling/file_revert.sol\":801:1189  contract VS{          //Voting System... */\n  mstore(0x40, 0x80)\n  callvalue\n  dup1\n  iszero\n  tag_1\n  jumpi\n  0x00\n  dup1\n  revert\ntag_1:\n  pop\n  dataSize(sub_0)\n  dup1\n  dataOffset(sub_0)\n  0x00\n  codecopy\n  0x00\n  return\nstop\n\nsub_0: assembly {\n        /* \"Labs (August)/Error_handling/file_revert.sol\":801:1189  contract VS{          //Voting System... */\n      mstore(0x40, 0x80)\n      callvalue\n      dup1\n      iszero\n      tag_1\n      jumpi\n      0x00\n      dup1\n      revert\n    tag_1:\n      pop\n      jumpi(tag_2, lt(calldatasize, 0x04))\n      shr(0xe0, calldataload(0x00))\n      dup1\n      0x0121b93f\n      eq\n      tag_3\n      jumpi\n      dup1\n      0xed794ddc\n      eq\n      tag_4\n      jumpi\n    tag_2:\n      0x00\n      dup1\n      revert\n        /* \"Labs (August)/Error_handling/file_revert.sol\":966:1184  function vote(uint256 _candidateId) public {... */\n    tag_3:\n      tag_5\n      0x04\n      dup1\n      calldatasize\n      sub\n      dup2\n      add\n      swap1\n      tag_6\n      swap2\n      swap1\n      tag_7\n      jump\t// in\n    tag_6:\n      tag_8\n      jump\t// in\n    tag_5:\n      stop\n        /* \"Labs (August)/Error_handling/file_revert.sol\":846:889  mapping (uint256 => bool) public votinglist */\n    tag_4:\n      tag_9\n      0x04\n      dup1\n      calldatasize\n      sub\n      dup2\n      add\n      swap1\n      tag_10\n      swap2\n      swap1\n      tag_7\n      jump\t// in\n    tag_10:\n      tag_11\n      jump\t// in\n    tag_9:\n      mload(0x40)\n      tag_12\n      swap2\n      swap1\n      tag_13\n      jump\t// in\n    tag_12:\n      mload(0x40)\n      dup1\n      swap2\n      sub\n      swap1\n      return\n        /* \"Labs (August)/Error_handling/file_revert.sol\":966:1184  function vote(uint256 _candidateId) public {... */\n    tag_8:\n        /* \"Labs (August)/Error_handling/file_revert.sol\":1050:1054  true */\n      0x01\n        /* \"Labs (August)/Error_handling/file_revert.sol\":1023:1054  votinglist[_candidateId]== true */\n      iszero\n      iszero\n        /* \"Labs (August)/Error_handling/file_revert.sol\":1023:1033  votinglist */\n      0x00\n        /* \"Labs (August)/Error_handling/file_revert.sol\":1023:1047  votinglist[_candidateId] */\n      dup1\n        /* \"Labs (August)/Error_handling/file_revert.sol\":1034:1046  _candidateId */\n      dup4\n        /* \"Labs (August)/Error_handling/file_revert.sol\":1023:1047  votinglist[_candidateId] */\n      dup2\n      mstore\n      0x20\n      add\n      swap1\n      dup2\n      mstore\n      0x20\n      add\n      0x00\n      keccak256\n      0x00\n      swap1\n      sload\n      swap1\n      0x0100\n      exp\n      swap1\n      div\n      0xff\n      and\n        /* \"Labs (August)/Error_handling/file_revert.sol\":1023:1054  votinglist[_candidateId]== true */\n      iszero\n      iszero\n      eq\n        /* \"Labs (August)/Error_handling/file_revert.sol\":1023:1073  votinglist[_candidateId]== true && _candidateId >0 */\n      dup1\n      iszero\n      tag_15\n      jumpi\n      pop\n        /* \"Labs (August)/Error_handling/file_revert.sol\":1072:1073  0 */\n      0x00\n        /* \"Labs (August)/Error_handling/file_revert.sol\":1058:1070  _candidateId */\n      dup2\n        /* \"Labs (August)/Error_handling/file_revert.sol\":1058:1073  _candidateId >0 */\n      gt\n        /* \"Labs (August)/Error_handling/file_revert.sol\":1023:1073  votinglist[_candidateId]== true && _candidateId >0 */\n    tag_15:\n        /* \"Labs (August)/Error_handling/file_revert.sol\":1020:1136  if(votinglist[_candidateId]== true && _candidateId >0){ ... */\n      iszero\n      tag_16\n      jumpi\n        /* \"Labs (August)/Error_handling/file_revert.sol\":1090:1124  revert('the person already voted') */\n      mload(0x40)\n      0x08c379a000000000000000000000000000000000000000000000000000000000\n      dup2\n      mstore\n      0x04\n      add\n      tag_17\n      swap1\n      tag_18\n      jump\t// in\n    tag_17:\n      mload(0x40)\n      dup1\n      swap2\n      sub\n      swap1\n      revert\n        /* \"Labs (August)/Error_handling/file_revert.sol\":1020:1136  if(votinglist[_candidateId]== true && _candidateId >0){ ... */\n    tag_16:\n        /* \"Labs (August)/Error_handling/file_revert.sol\":1172:1176  true */\n      0x01\n        /* \"Labs (August)/Error_handling/file_revert.sol\":1146:1156  votinglist */\n      0x00\n        /* \"Labs (August)/Error_handling/file_revert.sol\":1146:1170  votinglist[_candidateId] */\n      dup1\n        /* \"Labs (August)/Error_handling/file_revert.sol\":1157:1169  _candidateId */\n      dup4\n        /* \"Labs (August)/Error_handling/file_revert.sol\":1146:1170  votinglist[_candidateId] */\n      dup2\n      mstore\n      0x20\n      add\n      swap1\n      dup2\n      mstore\n      0x20\n      add\n      0x00\n      keccak256\n      0x00\n        /* \"Labs (August)/Error_handling/file_revert.sol\":1146:1176  votinglist[_candidateId]= true */\n      0x0100\n      exp\n      dup2\n      sload\n      dup2\n      0xff\n      mul\n      not\n      and\n      swap1\n      dup4\n      iszero\n      iszero\n      mul\n      or\n      swap1\n      sstore\n      pop\n        /* \"Labs (August)/Error_handling/file_revert.sol\":966:1184  function vote(uint256 _candidateId) public {... */\n      pop\n      jump\t// out\n        /* \"Labs (August)/Error_handling/file_revert.sol\":846:889  mapping (uint256 => bool) public votinglist */\n    tag_11:\n      mstore(0x20, 0x00)\n      dup1\n      0x00\n      mstore\n      keccak256(0x00, 0x40)\n      0x00\n      swap2\n      pop\n      sload\n      swap1\n      0x0100\n      exp\n      swap1\n      div\n      0xff\n      and\n      dup2\n      jump\t// out\n        /* \"#utility.yul\":88:205   */\n    tag_20:\n        /* \"#utility.yul\":197:198   */\n      0x00\n        /* \"#utility.yul\":194:195   */\n      dup1\n        /* \"#utility.yul\":187:199   */\n      revert\n        /* \"#utility.yul\":334:411   */\n    tag_22:\n        /* \"#utility.yul\":371:378   */\n      0x00\n        /* \"#utility.yul\":400:405   */\n      dup2\n        /* \"#utility.yul\":389:405   */\n      swap1\n      pop\n        /* \"#utility.yul\":334:411   */\n      swap2\n      swap1\n      pop\n      jump\t// out\n        /* \"#utility.yul\":417:539   */\n    tag_23:\n        /* \"#utility.yul\":490:514   */\n      tag_36\n        /* \"#utility.yul\":508:513   */\n      dup2\n        /* \"#utility.yul\":490:514   */\n      tag_22\n      jump\t// in\n    tag_36:\n        /* \"#utility.yul\":483:488   */\n      dup2\n        /* \"#utility.yul\":480:515   */\n      eq\n        /* \"#utility.yul\":470:533   */\n      tag_37\n      jumpi\n        /* \"#utility.yul\":529:530   */\n      0x00\n        /* \"#utility.yul\":526:527   */\n      dup1\n        /* \"#utility.yul\":519:531   */\n      revert\n        /* \"#utility.yul\":470:533   */\n    tag_37:\n        /* \"#utility.yul\":417:539   */\n      pop\n      jump\t// out\n        /* \"#utility.yul\":545:684   */\n    tag_24:\n        /* \"#utility.yul\":591:596   */\n      0x00\n        /* \"#utility.yul\":629:635   */\n      dup2\n        /* \"#utility.yul\":616:636   */\n      calldataload\n        /* \"#utility.yul\":607:636   */\n      swap1\n      pop\n        /* \"#utility.yul\":645:678   */\n      tag_39\n        /* \"#utility.yul\":672:677   */\n      dup2\n        /* \"#utility.yul\":645:678   */\n      tag_23\n      jump\t// in\n    tag_39:\n        /* \"#utility.yul\":545:684   */\n      swap3\n      swap2\n      pop\n      pop\n      jump\t// out\n        /* \"#utility.yul\":690:1019   */\n    tag_7:\n        /* \"#utility.yul\":749:755   */\n      0x00\n        /* \"#utility.yul\":798:800   */\n      0x20\n        /* \"#utility.yul\":786:795   */\n      dup3\n        /* \"#utility.yul\":777:784   */\n      dup5\n        /* \"#utility.yul\":773:796   */\n      sub\n        /* \"#utility.yul\":769:801   */\n      slt\n        /* \"#utility.yul\":766:885   */\n      iszero\n      tag_41\n      jumpi\n        /* \"#utility.yul\":804:883   */\n      tag_42\n      tag_20\n      jump\t// in\n    tag_42:\n        /* \"#utility.yul\":766:885   */\n    tag_41:\n        /* \"#utility.yul\":924:925   */\n      0x00\n        /* \"#utility.yul\":949:1002   */\n      tag_43\n        /* \"#utility.yul\":994:1001   */\n      dup5\n        /* \"#utility.yul\":985:991   */\n      dup3\n        /* \"#utility.yul\":974:983   */\n      dup6\n        /* \"#utility.yul\":970:992   */\n      add\n        /* \"#utility.yul\":949:1002   */\n      tag_24\n      jump\t// in\n    tag_43:\n        /* \"#utility.yul\":939:1002   */\n      swap2\n      pop\n        /* \"#utility.yul\":895:1012   */\n      pop\n        /* \"#utility.yul\":690:1019   */\n      swap3\n      swap2\n      pop\n      pop\n      jump\t// out\n        /* \"#utility.yul\":1025:1115   */\n    tag_25:\n        /* \"#utility.yul\":1059:1066   */\n      0x00\n        /* \"#utility.yul\":1102:1107   */\n      dup2\n        /* \"#utility.yul\":1095:1108   */\n      iszero\n        /* \"#utility.yul\":1088:1109   */\n      iszero\n        /* \"#utility.yul\":1077:1109   */\n      swap1\n      pop\n        /* \"#utility.yul\":1025:1115   */\n      swap2\n      swap1\n      pop\n      jump\t// out\n        /* \"#utility.yul\":1121:1230   */\n    tag_26:\n        /* \"#utility.yul\":1202:1223   */\n      tag_46\n        /* \"#utility.yul\":1217:1222   */\n      dup2\n        /* \"#utility.yul\":1202:1223   */\n      tag_25\n      jump\t// in\n    tag_46:\n        /* \"#utility.yul\":1197:1200   */\n      dup3\n        /* \"#utility.yul\":1190:1224   */\n      mstore\n        /* \"#utility.yul\":1121:1230   */\n      pop\n      pop\n      jump\t// out\n        /* \"#utility.yul\":1236:1446   */\n    tag_13:\n        /* \"#utility.yul\":1323:1327   */\n      0x00\n        /* \"#utility.yul\":1361:1363   */\n      0x20\n        /* \"#utility.yul\":1350:1359   */\n      dup3\n        /* \"#utility.yul\":1346:1364   */\n      add\n        /* \"#utility.yul\":1338:1364   */\n      swap1\n      pop\n        /* \"#utility.yul\":1374:1439   */\n      tag_48\n        /* \"#utility.yul\":1436:1437   */\n      0x00\n        /* \"#utility.yul\":1425:1434   */\n      dup4\n        /* \"#utility.yul\":1421:1438   */\n      add\n        /* \"#utility.yul\":1412:1418   */\n      dup5\n        /* \"#utility.yul\":1374:1439   */\n      tag_26\n      jump\t// in\n    tag_48:\n        /* \"#utility.yul\":1236:1446   */\n      swap3\n      swap2\n      pop\n      pop\n      jump\t// out\n        /* \"#utility.yul\":1452:1621   */\n    tag_27:\n        /* \"#utility.yul\":1536:1547   */\n      0x00\n        /* \"#utility.yul\":1570:1576   */\n      dup3\n        /* \"#utility.yul\":1565:1568   */\n      dup3\n        /* \"#utility.yul\":1558:1577   */\n      mstore\n        /* \"#utility.yul\":1610:1614   */\n      0x20\n        /* \"#utility.yul\":1605:1608   */\n      dup3\n        /* \"#utility.yul\":1601:1615   */\n      add\n        /* \"#utility.yul\":1586:1615   */\n      swap1\n      pop\n        /* \"#utility.yul\":1452:1621   */\n      swap3\n      swap2\n      pop\n      pop\n      jump\t// out\n        /* \"#utility.yul\":1627:1801   */\n    tag_28:\n        /* \"#utility.yul\":1767:1793   */\n      0x74686520706572736f6e20616c726561647920766f7465640000000000000000\n        /* \"#utility.yul\":1763:1764   */\n      0x00\n        /* \"#utility.yul\":1755:1761   */\n      dup3\n        /* \"#utility.yul\":1751:1765   */\n      add\n        /* \"#utility.yul\":1744:1794   */\n      mstore\n        /* \"#utility.yul\":1627:1801   */\n      pop\n      jump\t// out\n        /* \"#utility.yul\":1807:2173   */\n    tag_29:\n        /* \"#utility.yul\":1949:1952   */\n      0x00\n        /* \"#utility.yul\":1970:2037   */\n      tag_52\n        /* \"#utility.yul\":2034:2036   */\n      0x18\n        /* \"#utility.yul\":2029:2032   */\n      dup4\n        /* \"#utility.yul\":1970:2037   */\n      tag_27\n      jump\t// in\n    tag_52:\n        /* \"#utility.yul\":1963:2037   */\n      swap2\n      pop\n        /* \"#utility.yul\":2046:2139   */\n      tag_53\n        /* \"#utility.yul\":2135:2138   */\n      dup3\n        /* \"#utility.yul\":2046:2139   */\n      tag_28\n      jump\t// in\n    tag_53:\n        /* \"#utility.yul\":2164:2166   */\n      0x20\n        /* \"#utility.yul\":2159:2162   */\n      dup3\n        /* \"#utility.yul\":2155:2167   */\n      add\n        /* \"#utility.yul\":2148:2167   */\n      swap1\n      pop\n        /* \"#utility.yul\":1807:2173   */\n      swap2\n      swap1\n      pop\n      jump\t// out\n        /* \"#utility.yul\":2179:2598   */\n    tag_18:\n        /* \"#utility.yul\":2345:2349   */\n      0x00\n        /* \"#utility.yul\":2383:2385   */\n      0x20\n        /* \"#utility.yul\":2372:2381   */\n      dup3\n        /* \"#utility.yul\":2368:2386   */\n      add\n        /* \"#utility.yul\":2360:2386   */\n      swap1\n      pop\n        /* \"#utility.yul\":2432:2441   */\n      dup2\n        /* \"#utility.yul\":2426:2430   */\n      dup2\n        /* \"#utility.yul\":2422:2442   */\n      sub\n        /* \"#utility.yul\":2418:2419   */\n      0x00\n        /* \"#utility.yul\":2407:2416   */\n      dup4\n        /* \"#utility.yul\":2403:2420   */\n      add\n        /* \"#utility.yul\":2396:2443   */\n      mstore\n        /* \"#utility.yul\":2460:2591   */\n      tag_55\n        /* \"#utility.yul\":2586:2590   */\n      dup2\n        /* \"#utility.yul\":2460:2591   */\n      tag_29\n      jump\t// in\n    tag_55:\n        /* \"#utility.yul\":2452:2591   */\n      swap1\n      pop\n        /* \"#utility.yul\":2179:2598   */\n      swap2\n      swap1\n      pop\n      jump\t// out\n\n    auxdata: 0xa264697066735822122090c8e845196ceaa20b421e2ba22eaf20eab85399eb29f7c2586bbca09589057a64736f6c63430008120033\n}\n",
				"bytecode": {
					"linkReferences": {},
					"object": "608060405234801561001057600080fd5b50610299806100206000396000f3fe608060405234801561001057600080fd5b50600436106100365760003560e01c80630121b93f1461003b578063ed794ddc14610057575b600080fd5b61005560048036038101906100509190610183565b610087565b005b610071600480360381019061006c9190610183565b610128565b60405161007e91906101cb565b60405180910390f35b6001151560008083815260200190815260200160002060009054906101000a900460ff1615151480156100ba5750600081115b156100fa576040517f08c379a00000000000000000000000000000000000000000000000000000000081526004016100f190610243565b60405180910390fd5b600160008083815260200190815260200160002060006101000a81548160ff02191690831515021790555050565b60006020528060005260406000206000915054906101000a900460ff1681565b600080fd5b6000819050919050565b6101608161014d565b811461016b57600080fd5b50565b60008135905061017d81610157565b92915050565b60006020828403121561019957610198610148565b5b60006101a78482850161016e565b91505092915050565b60008115159050919050565b6101c5816101b0565b82525050565b60006020820190506101e060008301846101bc565b92915050565b600082825260208201905092915050565b7f74686520706572736f6e20616c726561647920766f7465640000000000000000600082015250565b600061022d6018836101e6565b9150610238826101f7565b602082019050919050565b6000602082019050818103600083015261025c81610220565b905091905056fea264697066735822122090c8e845196ceaa20b421e2ba22eaf20eab85399eb29f7c2586bbca09589057a64736f6c63430008120033",
					"opcodes": "PUSH1 0x80 PUSH1 0x40 MSTORE CALLVALUE DUP1 ISZERO PUSH2 0x10 JUMPI PUSH1 0x0 DUP1 REVERT JUMPDEST POP PUSH2 0x299 DUP1 PUSH2 0x20 PUSH1 0x0 CODECOPY PUSH1 0x0 RETURN INVALID PUSH1 0x80 PUSH1 0x40 MSTORE CALLVALUE DUP1 ISZERO PUSH2 0x10 JUMPI PUSH1 0x0 DUP1 REVERT JUMPDEST POP PUSH1 0x4 CALLDATASIZE LT PUSH2 0x36 JUMPI PUSH1 0x0 CALLDATALOAD PUSH1 0xE0 SHR DUP1 PUSH4 0x121B93F EQ PUSH2 0x3B JUMPI DUP1 PUSH4 0xED794DDC EQ PUSH2 0x57 JUMPI JUMPDEST PUSH1 0x0 DUP1 REVERT JUMPDEST PUSH2 0x55 PUSH1 0x4 DUP1 CALLDATASIZE SUB DUP2 ADD SWAP1 PUSH2 0x50 SWAP2 SWAP1 PUSH2 0x183 JUMP JUMPDEST PUSH2 0x87 JUMP JUMPDEST STOP JUMPDEST PUSH2 0x71 PUSH1 0x4 DUP1 CALLDATASIZE SUB DUP2 ADD SWAP1 PUSH2 0x6C SWAP2 SWAP1 PUSH2 0x183 JUMP JUMPDEST PUSH2 0x128 JUMP JUMPDEST PUSH1 0x40 MLOAD PUSH2 0x7E SWAP2 SWAP1 PUSH2 0x1CB JUMP JUMPDEST PUSH1 0x40 MLOAD DUP1 SWAP2 SUB SWAP1 RETURN JUMPDEST PUSH1 0x1 ISZERO ISZERO PUSH1 0x0 DUP1 DUP4 DUP2 MSTORE PUSH1 0x20 ADD SWAP1 DUP2 MSTORE PUSH1 0x20 ADD PUSH1 0x0 KECCAK256 PUSH1 0x0 SWAP1 SLOAD SWAP1 PUSH2 0x100 EXP SWAP1 DIV PUSH1 0xFF AND ISZERO ISZERO EQ DUP1 ISZERO PUSH2 0xBA JUMPI POP PUSH1 0x0 DUP2 GT JUMPDEST ISZERO PUSH2 0xFA JUMPI PUSH1 0x40 MLOAD PUSH32 0x8C379A000000000000000000000000000000000000000000000000000000000 DUP2 MSTORE PUSH1 0x4 ADD PUSH2 0xF1 SWAP1 PUSH2 0x243 JUMP JUMPDEST PUSH1 0x40 MLOAD DUP1 SWAP2 SUB SWAP1 REVERT JUMPDEST PUSH1 0x1 PUSH1 0x0 DUP1 DUP4 DUP2 MSTORE PUSH1 0x20 ADD SWAP1 DUP2 MSTORE PUSH1 0x20 ADD PUSH1 0x0 KECCAK256 PUSH1 0x0 PUSH2 0x100 EXP DUP2 SLOAD DUP2 PUSH1 0xFF MUL NOT AND SWAP1 DUP4 ISZERO ISZERO MUL OR SWAP1 SSTORE POP POP JUMP JUMPDEST PUSH1 0x0 PUSH1 0x20 MSTORE DUP1 PUSH1 0x0 MSTORE PUSH1 0x40 PUSH1 0x0 KECCAK256 PUSH1 0x0 SWAP2 POP SLOAD SWAP1 PUSH2 0x100 EXP SWAP1 DIV PUSH1 0xFF AND DUP2 JUMP JUMPDEST PUSH1 0x0 DUP1 REVERT JUMPDEST PUSH1 0x0 DUP2 SWAP1 POP SWAP2 SWAP1 POP JUMP JUMPDEST PUSH2 0x160 DUP2 PUSH2 0x14D JUMP JUMPDEST DUP2 EQ PUSH2 0x16B JUMPI PUSH1 0x0 DUP1 REVERT JUMPDEST POP JUMP JUMPDEST PUSH1 0x0 DUP2 CALLDATALOAD SWAP1 POP PUSH2 0x17D DUP2 PUSH2 0x157 JUMP JUMPDEST SWAP3 SWAP2 POP POP JUMP JUMPDEST PUSH1 0x0 PUSH1 0x20 DUP3 DUP5 SUB SLT ISZERO PUSH2 0x199 JUMPI PUSH2 0x198 PUSH2 0x148 JUMP JUMPDEST JUMPDEST PUSH1 0x0 PUSH2 0x1A7 DUP5 DUP3 DUP6 ADD PUSH2 0x16E JUMP JUMPDEST SWAP2 POP POP SWAP3 SWAP2 POP POP JUMP JUMPDEST PUSH1 0x0 DUP2 ISZERO ISZERO SWAP1 POP SWAP2 SWAP1 POP JUMP JUMPDEST PUSH2 0x1C5 DUP2 PUSH2 0x1B0 JUMP JUMPDEST DUP3 MSTORE POP POP JUMP JUMPDEST PUSH1 0x0 PUSH1 0x20 DUP3 ADD SWAP1 POP PUSH2 0x1E0 PUSH1 0x0 DUP4 ADD DUP5 PUSH2 0x1BC JUMP JUMPDEST SWAP3 SWAP2 POP POP JUMP JUMPDEST PUSH1 0x0 DUP3 DUP3 MSTORE PUSH1 0x20 DUP3 ADD SWAP1 POP SWAP3 SWAP2 POP POP JUMP JUMPDEST PUSH32 0x74686520706572736F6E20616C726561647920766F7465640000000000000000 PUSH1 0x0 DUP3 ADD MSTORE POP JUMP JUMPDEST PUSH1 0x0 PUSH2 0x22D PUSH1 0x18 DUP4 PUSH2 0x1E6 JUMP JUMPDEST SWAP2 POP PUSH2 0x238 DUP3 PUSH2 0x1F7 JUMP JUMPDEST PUSH1 0x20 DUP3 ADD SWAP1 POP SWAP2 SWAP1 POP JUMP JUMPDEST PUSH1 0x0 PUSH1 0x20 DUP3 ADD SWAP1 POP DUP2 DUP2 SUB PUSH1 0x0 DUP4 ADD MSTORE PUSH2 0x25C DUP2 PUSH2 0x220 JUMP JUMPDEST SWAP1 POP SWAP2 SWAP1 POP JUMP INVALID LOG2 PUSH5 0x6970667358 0x22 SLT KECCAK256 SWAP1 0xC8 0xE8 GASLIMIT NOT PUSH13 0xEAA20B421E2BA22EAF20EAB853 SWAP10 0xEB 0x29 0xF7 0xC2 PC PUSH12 0xBCA09589057A64736F6C6343 STOP ADDMOD SLT STOP CALLER "
				},
				"gasEstimates": {
					"creation": {
						"codeDepositCost": "133000",
						"executionCost": "177",
						"totalCost": "133177"
					},
					"external": {
						"vote(uint256)": "27012",
						"votinglist(uint256)": "2796"
					}
				},
				"methodIdentifiers": {
					"vote(uint256)": "0121b93f",
					"votinglist(uint256)": "ed794ddc"
				}
			},
			"storageLayout": {
				"storage": [
					{
						"astId": 66,
						"contract": "Labs (August)/Error_handling/file_revert.sol:VS",
						"label": "votinglist",
						"offset": 0,
						"slot": "0",
						"type": "t_mapping(t_uint256,t_bool)"
					}
				],
				"types": {
					"t_bool": {
						"encoding": "inplace",
						"label": "bool",
						"numberOfBytes": "1"
					},
					"t_mapping(t_uint256,t_bool)": {
						"encoding": "mapping",
						"key": "t_uint256",
						"label": "mapping(uint256 => bool)",
						"numberOfBytes": "32",
						"value": "t_bool"
					},
					"t_uint256": {
						"encoding": "inplace",
						"label": "uint256",
						"numberOfBytes": "32"
					}
				}
			},
			"userdoc": {
				"kind": "user",
				"methods": {},
				"version": 1
			}
		}
	}
}