{
	"Labs (August)/Error_handling/assert.sol": {
		"admissionPortal": {
			"abi": [
				{
					"inputs": [
						{
							"internalType": "uint256",
							"name": "",
							"type": "uint256"
						}
					],
					"name": "_department",
					"outputs": [
						{
							"internalType": "enum admissionPortal.Dep",
							"name": "",
							"type": "uint8"
						}
					],
					"stateMutability": "view",
					"type": "function"
				},
				{
					"inputs": [
						{
							"internalType": "uint256",
							"name": "",
							"type": "uint256"
						}
					],
					"name": "admission_status",
					"outputs": [
						{
							"internalType": "bool",
							"name": "",
							"type": "bool"
						}
					],
					"stateMutability": "view",
					"type": "function"
				},
				{
					"inputs": [
						{
							"internalType": "uint256",
							"name": "studentId",
							"type": "uint256"
						},
						{
							"internalType": "enum admissionPortal.Dep",
							"name": "selectdep",
							"type": "uint8"
						}
					],
					"name": "chooseDep",
					"outputs": [],
					"stateMutability": "nonpayable",
					"type": "function"
				},
				{
					"inputs": [
						{
							"internalType": "uint256",
							"name": "studentid",
							"type": "uint256"
						},
						{
							"internalType": "bool",
							"name": "query",
							"type": "bool"
						}
					],
					"name": "set_status",
					"outputs": [],
					"stateMutability": "nonpayable",
					"type": "function"
				}
			],
			"devdoc": {
				"kind": "dev",
				"methods": {},
				"version": 1
			},
			"evm": {
				"assembly": "    /* \"Labs (August)/Error_handling/assert.sol\":996:1475  contract admissionPortal{... */\n  mstore(0x40, 0x80)\n  callvalue\n  dup1\n  iszero\n  tag_1\n  jumpi\n  0x00\n  dup1\n  revert\ntag_1:\n  pop\n  dataSize(sub_0)\n  dup1\n  dataOffset(sub_0)\n  0x00\n  codecopy\n  0x00\n  return\nstop\n\nsub_0: assembly {\n        /* \"Labs (August)/Error_handling/assert.sol\":996:1475  contract admissionPortal{... */\n      mstore(0x40, 0x80)\n      callvalue\n      dup1\n      iszero\n      tag_1\n      jumpi\n      0x00\n      dup1\n      revert\n    tag_1:\n      pop\n      jumpi(tag_2, lt(calldatasize, 0x04))\n      shr(0xe0, calldataload(0x00))\n      dup1\n      0x865d35f9\n      eq\n      tag_3\n      jumpi\n      dup1\n      0x8894c29b\n      eq\n      tag_4\n      jumpi\n      dup1\n      0xb7d6e7a5\n      eq\n      tag_5\n      jumpi\n      dup1\n      0xd7daffed\n      eq\n      tag_6\n      jumpi\n    tag_2:\n      0x00\n      dup1\n      revert\n        /* \"Labs (August)/Error_handling/assert.sol\":1309:1470  function chooseDep(uint studentId, Dep selectdep) public {... */\n    tag_3:\n      tag_7\n      0x04\n      dup1\n      calldatasize\n      sub\n      dup2\n      add\n      swap1\n      tag_8\n      swap2\n      swap1\n      tag_9\n      jump\t// in\n    tag_8:\n      tag_10\n      jump\t// in\n    tag_7:\n      stop\n        /* \"Labs (August)/Error_handling/assert.sol\":1197:1303  function set_status(uint studentid, bool query)public{... */\n    tag_4:\n      tag_11\n      0x04\n      dup1\n      calldatasize\n      sub\n      dup2\n      add\n      swap1\n      tag_12\n      swap2\n      swap1\n      tag_13\n      jump\t// in\n    tag_12:\n      tag_14\n      jump\t// in\n    tag_11:\n      stop\n        /* \"Labs (August)/Error_handling/assert.sol\":1147:1188  mapping  (uint => Dep) public _department */\n    tag_5:\n      tag_15\n      0x04\n      dup1\n      calldatasize\n      sub\n      dup2\n      add\n      swap1\n      tag_16\n      swap2\n      swap1\n      tag_17\n      jump\t// in\n    tag_16:\n      tag_18\n      jump\t// in\n    tag_15:\n      mload(0x40)\n      tag_19\n      swap2\n      swap1\n      tag_20\n      jump\t// in\n    tag_19:\n      mload(0x40)\n      dup1\n      swap2\n      sub\n      swap1\n      return\n        /* \"Labs (August)/Error_handling/assert.sol\":1094:1140  mapping (uint => bool) public admission_status */\n    tag_6:\n      tag_21\n      0x04\n      dup1\n      calldatasize\n      sub\n      dup2\n      add\n      swap1\n      tag_22\n      swap2\n      swap1\n      tag_17\n      jump\t// in\n    tag_22:\n      tag_23\n      jump\t// in\n    tag_21:\n      mload(0x40)\n      tag_24\n      swap2\n      swap1\n      tag_25\n      jump\t// in\n    tag_24:\n      mload(0x40)\n      dup1\n      swap2\n      sub\n      swap1\n      return\n        /* \"Labs (August)/Error_handling/assert.sol\":1309:1470  function chooseDep(uint studentId, Dep selectdep) public {... */\n    tag_10:\n        /* \"Labs (August)/Error_handling/assert.sol\":1413:1417  true */\n      0x01\n        /* \"Labs (August)/Error_handling/assert.sol\":1384:1417  admission_status[studentId]==true */\n      iszero\n      iszero\n        /* \"Labs (August)/Error_handling/assert.sol\":1384:1400  admission_status */\n      0x00\n        /* \"Labs (August)/Error_handling/assert.sol\":1384:1411  admission_status[studentId] */\n      dup1\n        /* \"Labs (August)/Error_handling/assert.sol\":1401:1410  studentId */\n      dup5\n        /* \"Labs (August)/Error_handling/assert.sol\":1384:1411  admission_status[studentId] */\n      dup2\n      mstore\n      0x20\n      add\n      swap1\n      dup2\n      mstore\n      0x20\n      add\n      0x00\n      keccak256\n      0x00\n      swap1\n      sload\n      swap1\n      0x0100\n      exp\n      swap1\n      div\n      0xff\n      and\n        /* \"Labs (August)/Error_handling/assert.sol\":1384:1417  admission_status[studentId]==true */\n      iszero\n      iszero\n      eq\n        /* \"Labs (August)/Error_handling/assert.sol\":1377:1418  assert(admission_status[studentId]==true) */\n      tag_27\n      jumpi\n      tag_28\n      tag_29\n      jump\t// in\n    tag_28:\n    tag_27:\n        /* \"Labs (August)/Error_handling/assert.sol\":1453:1462  selectdep */\n      dup1\n        /* \"Labs (August)/Error_handling/assert.sol\":1429:1440  _department */\n      0x01\n        /* \"Labs (August)/Error_handling/assert.sol\":1429:1451  _department[studentId] */\n      0x00\n        /* \"Labs (August)/Error_handling/assert.sol\":1441:1450  studentId */\n      dup5\n        /* \"Labs (August)/Error_handling/assert.sol\":1429:1451  _department[studentId] */\n      dup2\n      mstore\n      0x20\n      add\n      swap1\n      dup2\n      mstore\n      0x20\n      add\n      0x00\n      keccak256\n      0x00\n        /* \"Labs (August)/Error_handling/assert.sol\":1429:1462  _department[studentId]= selectdep */\n      0x0100\n      exp\n      dup2\n      sload\n      dup2\n      0xff\n      mul\n      not\n      and\n      swap1\n      dup4\n      0x03\n      dup2\n      gt\n      iszero\n      tag_30\n      jumpi\n      tag_31\n      tag_32\n      jump\t// in\n    tag_31:\n    tag_30:\n      mul\n      or\n      swap1\n      sstore\n      pop\n        /* \"Labs (August)/Error_handling/assert.sol\":1309:1470  function chooseDep(uint studentId, Dep selectdep) public {... */\n      pop\n      pop\n      jump\t// out\n        /* \"Labs (August)/Error_handling/assert.sol\":1197:1303  function set_status(uint studentid, bool query)public{... */\n    tag_14:\n        /* \"Labs (August)/Error_handling/assert.sol\":1290:1295  query */\n      dup1\n        /* \"Labs (August)/Error_handling/assert.sol\":1261:1277  admission_status */\n      0x00\n        /* \"Labs (August)/Error_handling/assert.sol\":1261:1288  admission_status[studentid] */\n      dup1\n        /* \"Labs (August)/Error_handling/assert.sol\":1278:1287  studentid */\n      dup5\n        /* \"Labs (August)/Error_handling/assert.sol\":1261:1288  admission_status[studentid] */\n      dup2\n      mstore\n      0x20\n      add\n      swap1\n      dup2\n      mstore\n      0x20\n      add\n      0x00\n      keccak256\n      0x00\n        /* \"Labs (August)/Error_handling/assert.sol\":1261:1295  admission_status[studentid]= query */\n      0x0100\n      exp\n      dup2\n      sload\n      dup2\n      0xff\n      mul\n      not\n      and\n      swap1\n      dup4\n      iszero\n      iszero\n      mul\n      or\n      swap1\n      sstore\n      pop\n        /* \"Labs (August)/Error_handling/assert.sol\":1197:1303  function set_status(uint studentid, bool query)public{... */\n      pop\n      pop\n      jump\t// out\n        /* \"Labs (August)/Error_handling/assert.sol\":1147:1188  mapping  (uint => Dep) public _department */\n    tag_18:\n      mstore(0x20, 0x01)\n      dup1\n      0x00\n      mstore\n      keccak256(0x00, 0x40)\n      0x00\n      swap2\n      pop\n      sload\n      swap1\n      0x0100\n      exp\n      swap1\n      div\n      0xff\n      and\n      dup2\n      jump\t// out\n        /* \"Labs (August)/Error_handling/assert.sol\":1094:1140  mapping (uint => bool) public admission_status */\n    tag_23:\n      mstore(0x20, 0x00)\n      dup1\n      0x00\n      mstore\n      keccak256(0x00, 0x40)\n      0x00\n      swap2\n      pop\n      sload\n      swap1\n      0x0100\n      exp\n      swap1\n      div\n      0xff\n      and\n      dup2\n      jump\t// out\n        /* \"#utility.yul\":88:205   */\n    tag_35:\n        /* \"#utility.yul\":197:198   */\n      0x00\n        /* \"#utility.yul\":194:195   */\n      dup1\n        /* \"#utility.yul\":187:199   */\n      revert\n        /* \"#utility.yul\":334:411   */\n    tag_37:\n        /* \"#utility.yul\":371:378   */\n      0x00\n        /* \"#utility.yul\":400:405   */\n      dup2\n        /* \"#utility.yul\":389:405   */\n      swap1\n      pop\n        /* \"#utility.yul\":334:411   */\n      swap2\n      swap1\n      pop\n      jump\t// out\n        /* \"#utility.yul\":417:539   */\n    tag_38:\n        /* \"#utility.yul\":490:514   */\n      tag_56\n        /* \"#utility.yul\":508:513   */\n      dup2\n        /* \"#utility.yul\":490:514   */\n      tag_37\n      jump\t// in\n    tag_56:\n        /* \"#utility.yul\":483:488   */\n      dup2\n        /* \"#utility.yul\":480:515   */\n      eq\n        /* \"#utility.yul\":470:533   */\n      tag_57\n      jumpi\n        /* \"#utility.yul\":529:530   */\n      0x00\n        /* \"#utility.yul\":526:527   */\n      dup1\n        /* \"#utility.yul\":519:531   */\n      revert\n        /* \"#utility.yul\":470:533   */\n    tag_57:\n        /* \"#utility.yul\":417:539   */\n      pop\n      jump\t// out\n        /* \"#utility.yul\":545:684   */\n    tag_39:\n        /* \"#utility.yul\":591:596   */\n      0x00\n        /* \"#utility.yul\":629:635   */\n      dup2\n        /* \"#utility.yul\":616:636   */\n      calldataload\n        /* \"#utility.yul\":607:636   */\n      swap1\n      pop\n        /* \"#utility.yul\":645:678   */\n      tag_59\n        /* \"#utility.yul\":672:677   */\n      dup2\n        /* \"#utility.yul\":645:678   */\n      tag_38\n      jump\t// in\n    tag_59:\n        /* \"#utility.yul\":545:684   */\n      swap3\n      swap2\n      pop\n      pop\n      jump\t// out\n        /* \"#utility.yul\":690:796   */\n    tag_40:\n        /* \"#utility.yul\":770:771   */\n      0x04\n        /* \"#utility.yul\":763:768   */\n      dup2\n        /* \"#utility.yul\":760:772   */\n      lt\n        /* \"#utility.yul\":750:790   */\n      tag_61\n      jumpi\n        /* \"#utility.yul\":786:787   */\n      0x00\n        /* \"#utility.yul\":783:784   */\n      dup1\n        /* \"#utility.yul\":776:788   */\n      revert\n        /* \"#utility.yul\":750:790   */\n    tag_61:\n        /* \"#utility.yul\":690:796   */\n      pop\n      jump\t// out\n        /* \"#utility.yul\":802:955   */\n    tag_41:\n        /* \"#utility.yul\":855:860   */\n      0x00\n        /* \"#utility.yul\":893:899   */\n      dup2\n        /* \"#utility.yul\":880:900   */\n      calldataload\n        /* \"#utility.yul\":871:900   */\n      swap1\n      pop\n        /* \"#utility.yul\":909:949   */\n      tag_63\n        /* \"#utility.yul\":943:948   */\n      dup2\n        /* \"#utility.yul\":909:949   */\n      tag_40\n      jump\t// in\n    tag_63:\n        /* \"#utility.yul\":802:955   */\n      swap3\n      swap2\n      pop\n      pop\n      jump\t// out\n        /* \"#utility.yul\":961:1449   */\n    tag_9:\n        /* \"#utility.yul\":1036:1042   */\n      0x00\n        /* \"#utility.yul\":1044:1050   */\n      dup1\n        /* \"#utility.yul\":1093:1095   */\n      0x40\n        /* \"#utility.yul\":1081:1090   */\n      dup4\n        /* \"#utility.yul\":1072:1079   */\n      dup6\n        /* \"#utility.yul\":1068:1091   */\n      sub\n        /* \"#utility.yul\":1064:1096   */\n      slt\n        /* \"#utility.yul\":1061:1180   */\n      iszero\n      tag_65\n      jumpi\n        /* \"#utility.yul\":1099:1178   */\n      tag_66\n      tag_35\n      jump\t// in\n    tag_66:\n        /* \"#utility.yul\":1061:1180   */\n    tag_65:\n        /* \"#utility.yul\":1219:1220   */\n      0x00\n        /* \"#utility.yul\":1244:1297   */\n      tag_67\n        /* \"#utility.yul\":1289:1296   */\n      dup6\n        /* \"#utility.yul\":1280:1286   */\n      dup3\n        /* \"#utility.yul\":1269:1278   */\n      dup7\n        /* \"#utility.yul\":1265:1287   */\n      add\n        /* \"#utility.yul\":1244:1297   */\n      tag_39\n      jump\t// in\n    tag_67:\n        /* \"#utility.yul\":1234:1297   */\n      swap3\n      pop\n        /* \"#utility.yul\":1190:1307   */\n      pop\n        /* \"#utility.yul\":1346:1348   */\n      0x20\n        /* \"#utility.yul\":1372:1432   */\n      tag_68\n        /* \"#utility.yul\":1424:1431   */\n      dup6\n        /* \"#utility.yul\":1415:1421   */\n      dup3\n        /* \"#utility.yul\":1404:1413   */\n      dup7\n        /* \"#utility.yul\":1400:1422   */\n      add\n        /* \"#utility.yul\":1372:1432   */\n      tag_41\n      jump\t// in\n    tag_68:\n        /* \"#utility.yul\":1362:1432   */\n      swap2\n      pop\n        /* \"#utility.yul\":1317:1442   */\n      pop\n        /* \"#utility.yul\":961:1449   */\n      swap3\n      pop\n      swap3\n      swap1\n      pop\n      jump\t// out\n        /* \"#utility.yul\":1455:1545   */\n    tag_42:\n        /* \"#utility.yul\":1489:1496   */\n      0x00\n        /* \"#utility.yul\":1532:1537   */\n      dup2\n        /* \"#utility.yul\":1525:1538   */\n      iszero\n        /* \"#utility.yul\":1518:1539   */\n      iszero\n        /* \"#utility.yul\":1507:1539   */\n      swap1\n      pop\n        /* \"#utility.yul\":1455:1545   */\n      swap2\n      swap1\n      pop\n      jump\t// out\n        /* \"#utility.yul\":1551:1667   */\n    tag_43:\n        /* \"#utility.yul\":1621:1642   */\n      tag_71\n        /* \"#utility.yul\":1636:1641   */\n      dup2\n        /* \"#utility.yul\":1621:1642   */\n      tag_42\n      jump\t// in\n    tag_71:\n        /* \"#utility.yul\":1614:1619   */\n      dup2\n        /* \"#utility.yul\":1611:1643   */\n      eq\n        /* \"#utility.yul\":1601:1661   */\n      tag_72\n      jumpi\n        /* \"#utility.yul\":1657:1658   */\n      0x00\n        /* \"#utility.yul\":1654:1655   */\n      dup1\n        /* \"#utility.yul\":1647:1659   */\n      revert\n        /* \"#utility.yul\":1601:1661   */\n    tag_72:\n        /* \"#utility.yul\":1551:1667   */\n      pop\n      jump\t// out\n        /* \"#utility.yul\":1673:1806   */\n    tag_44:\n        /* \"#utility.yul\":1716:1721   */\n      0x00\n        /* \"#utility.yul\":1754:1760   */\n      dup2\n        /* \"#utility.yul\":1741:1761   */\n      calldataload\n        /* \"#utility.yul\":1732:1761   */\n      swap1\n      pop\n        /* \"#utility.yul\":1770:1800   */\n      tag_74\n        /* \"#utility.yul\":1794:1799   */\n      dup2\n        /* \"#utility.yul\":1770:1800   */\n      tag_43\n      jump\t// in\n    tag_74:\n        /* \"#utility.yul\":1673:1806   */\n      swap3\n      swap2\n      pop\n      pop\n      jump\t// out\n        /* \"#utility.yul\":1812:2280   */\n    tag_13:\n        /* \"#utility.yul\":1877:1883   */\n      0x00\n        /* \"#utility.yul\":1885:1891   */\n      dup1\n        /* \"#utility.yul\":1934:1936   */\n      0x40\n        /* \"#utility.yul\":1922:1931   */\n      dup4\n        /* \"#utility.yul\":1913:1920   */\n      dup6\n        /* \"#utility.yul\":1909:1932   */\n      sub\n        /* \"#utility.yul\":1905:1937   */\n      slt\n        /* \"#utility.yul\":1902:2021   */\n      iszero\n      tag_76\n      jumpi\n        /* \"#utility.yul\":1940:2019   */\n      tag_77\n      tag_35\n      jump\t// in\n    tag_77:\n        /* \"#utility.yul\":1902:2021   */\n    tag_76:\n        /* \"#utility.yul\":2060:2061   */\n      0x00\n        /* \"#utility.yul\":2085:2138   */\n      tag_78\n        /* \"#utility.yul\":2130:2137   */\n      dup6\n        /* \"#utility.yul\":2121:2127   */\n      dup3\n        /* \"#utility.yul\":2110:2119   */\n      dup7\n        /* \"#utility.yul\":2106:2128   */\n      add\n        /* \"#utility.yul\":2085:2138   */\n      tag_39\n      jump\t// in\n    tag_78:\n        /* \"#utility.yul\":2075:2138   */\n      swap3\n      pop\n        /* \"#utility.yul\":2031:2148   */\n      pop\n        /* \"#utility.yul\":2187:2189   */\n      0x20\n        /* \"#utility.yul\":2213:2263   */\n      tag_79\n        /* \"#utility.yul\":2255:2262   */\n      dup6\n        /* \"#utility.yul\":2246:2252   */\n      dup3\n        /* \"#utility.yul\":2235:2244   */\n      dup7\n        /* \"#utility.yul\":2231:2253   */\n      add\n        /* \"#utility.yul\":2213:2263   */\n      tag_44\n      jump\t// in\n    tag_79:\n        /* \"#utility.yul\":2203:2263   */\n      swap2\n      pop\n        /* \"#utility.yul\":2158:2273   */\n      pop\n        /* \"#utility.yul\":1812:2280   */\n      swap3\n      pop\n      swap3\n      swap1\n      pop\n      jump\t// out\n        /* \"#utility.yul\":2286:2615   */\n    tag_17:\n        /* \"#utility.yul\":2345:2351   */\n      0x00\n        /* \"#utility.yul\":2394:2396   */\n      0x20\n        /* \"#utility.yul\":2382:2391   */\n      dup3\n        /* \"#utility.yul\":2373:2380   */\n      dup5\n        /* \"#utility.yul\":2369:2392   */\n      sub\n        /* \"#utility.yul\":2365:2397   */\n      slt\n        /* \"#utility.yul\":2362:2481   */\n      iszero\n      tag_81\n      jumpi\n        /* \"#utility.yul\":2400:2479   */\n      tag_82\n      tag_35\n      jump\t// in\n    tag_82:\n        /* \"#utility.yul\":2362:2481   */\n    tag_81:\n        /* \"#utility.yul\":2520:2521   */\n      0x00\n        /* \"#utility.yul\":2545:2598   */\n      tag_83\n        /* \"#utility.yul\":2590:2597   */\n      dup5\n        /* \"#utility.yul\":2581:2587   */\n      dup3\n        /* \"#utility.yul\":2570:2579   */\n      dup6\n        /* \"#utility.yul\":2566:2588   */\n      add\n        /* \"#utility.yul\":2545:2598   */\n      tag_39\n      jump\t// in\n    tag_83:\n        /* \"#utility.yul\":2535:2598   */\n      swap2\n      pop\n        /* \"#utility.yul\":2491:2608   */\n      pop\n        /* \"#utility.yul\":2286:2615   */\n      swap3\n      swap2\n      pop\n      pop\n      jump\t// out\n        /* \"#utility.yul\":2621:2801   */\n    tag_32:\n        /* \"#utility.yul\":2669:2746   */\n      0x4e487b7100000000000000000000000000000000000000000000000000000000\n        /* \"#utility.yul\":2666:2667   */\n      0x00\n        /* \"#utility.yul\":2659:2747   */\n      mstore\n        /* \"#utility.yul\":2766:2770   */\n      0x21\n        /* \"#utility.yul\":2763:2764   */\n      0x04\n        /* \"#utility.yul\":2756:2771   */\n      mstore\n        /* \"#utility.yul\":2790:2794   */\n      0x24\n        /* \"#utility.yul\":2787:2788   */\n      0x00\n        /* \"#utility.yul\":2780:2795   */\n      revert\n        /* \"#utility.yul\":2807:2919   */\n    tag_45:\n        /* \"#utility.yul\":2887:2888   */\n      0x04\n        /* \"#utility.yul\":2880:2885   */\n      dup2\n        /* \"#utility.yul\":2877:2889   */\n      lt\n        /* \"#utility.yul\":2867:2913   */\n      tag_86\n      jumpi\n        /* \"#utility.yul\":2893:2911   */\n      tag_87\n      tag_32\n      jump\t// in\n    tag_87:\n        /* \"#utility.yul\":2867:2913   */\n    tag_86:\n        /* \"#utility.yul\":2807:2919   */\n      pop\n      jump\t// out\n        /* \"#utility.yul\":2925:3050   */\n    tag_46:\n        /* \"#utility.yul\":2969:2976   */\n      0x00\n        /* \"#utility.yul\":2998:3003   */\n      dup2\n        /* \"#utility.yul\":2987:3003   */\n      swap1\n      pop\n        /* \"#utility.yul\":3004:3044   */\n      tag_89\n        /* \"#utility.yul\":3038:3043   */\n      dup3\n        /* \"#utility.yul\":3004:3044   */\n      tag_45\n      jump\t// in\n    tag_89:\n        /* \"#utility.yul\":2925:3050   */\n      swap2\n      swap1\n      pop\n      jump\t// out\n        /* \"#utility.yul\":3056:3181   */\n    tag_47:\n        /* \"#utility.yul\":3111:3120   */\n      0x00\n        /* \"#utility.yul\":3144:3175   */\n      tag_91\n        /* \"#utility.yul\":3169:3174   */\n      dup3\n        /* \"#utility.yul\":3144:3175   */\n      tag_46\n      jump\t// in\n    tag_91:\n        /* \"#utility.yul\":3131:3175   */\n      swap1\n      pop\n        /* \"#utility.yul\":3056:3181   */\n      swap2\n      swap1\n      pop\n      jump\t// out\n        /* \"#utility.yul\":3187:3328   */\n    tag_48:\n        /* \"#utility.yul\":3279:3321   */\n      tag_93\n        /* \"#utility.yul\":3315:3320   */\n      dup2\n        /* \"#utility.yul\":3279:3321   */\n      tag_47\n      jump\t// in\n    tag_93:\n        /* \"#utility.yul\":3274:3277   */\n      dup3\n        /* \"#utility.yul\":3267:3322   */\n      mstore\n        /* \"#utility.yul\":3187:3328   */\n      pop\n      pop\n      jump\t// out\n        /* \"#utility.yul\":3334:3566   */\n    tag_20:\n        /* \"#utility.yul\":3432:3436   */\n      0x00\n        /* \"#utility.yul\":3470:3472   */\n      0x20\n        /* \"#utility.yul\":3459:3468   */\n      dup3\n        /* \"#utility.yul\":3455:3473   */\n      add\n        /* \"#utility.yul\":3447:3473   */\n      swap1\n      pop\n        /* \"#utility.yul\":3483:3559   */\n      tag_95\n        /* \"#utility.yul\":3556:3557   */\n      0x00\n        /* \"#utility.yul\":3545:3554   */\n      dup4\n        /* \"#utility.yul\":3541:3558   */\n      add\n        /* \"#utility.yul\":3532:3538   */\n      dup5\n        /* \"#utility.yul\":3483:3559   */\n      tag_48\n      jump\t// in\n    tag_95:\n        /* \"#utility.yul\":3334:3566   */\n      swap3\n      swap2\n      pop\n      pop\n      jump\t// out\n        /* \"#utility.yul\":3572:3681   */\n    tag_49:\n        /* \"#utility.yul\":3653:3674   */\n      tag_97\n        /* \"#utility.yul\":3668:3673   */\n      dup2\n        /* \"#utility.yul\":3653:3674   */\n      tag_42\n      jump\t// in\n    tag_97:\n        /* \"#utility.yul\":3648:3651   */\n      dup3\n        /* \"#utility.yul\":3641:3675   */\n      mstore\n        /* \"#utility.yul\":3572:3681   */\n      pop\n      pop\n      jump\t// out\n        /* \"#utility.yul\":3687:3897   */\n    tag_25:\n        /* \"#utility.yul\":3774:3778   */\n      0x00\n        /* \"#utility.yul\":3812:3814   */\n      0x20\n        /* \"#utility.yul\":3801:3810   */\n      dup3\n        /* \"#utility.yul\":3797:3815   */\n      add\n        /* \"#utility.yul\":3789:3815   */\n      swap1\n      pop\n        /* \"#utility.yul\":3825:3890   */\n      tag_99\n        /* \"#utility.yul\":3887:3888   */\n      0x00\n        /* \"#utility.yul\":3876:3885   */\n      dup4\n        /* \"#utility.yul\":3872:3889   */\n      add\n        /* \"#utility.yul\":3863:3869   */\n      dup5\n        /* \"#utility.yul\":3825:3890   */\n      tag_49\n      jump\t// in\n    tag_99:\n        /* \"#utility.yul\":3687:3897   */\n      swap3\n      swap2\n      pop\n      pop\n      jump\t// out\n        /* \"#utility.yul\":3903:4083   */\n    tag_29:\n        /* \"#utility.yul\":3951:4028   */\n      0x4e487b7100000000000000000000000000000000000000000000000000000000\n        /* \"#utility.yul\":3948:3949   */\n      0x00\n        /* \"#utility.yul\":3941:4029   */\n      mstore\n        /* \"#utility.yul\":4048:4052   */\n      0x01\n        /* \"#utility.yul\":4045:4046   */\n      0x04\n        /* \"#utility.yul\":4038:4053   */\n      mstore\n        /* \"#utility.yul\":4072:4076   */\n      0x24\n        /* \"#utility.yul\":4069:4070   */\n      0x00\n        /* \"#utility.yul\":4062:4077   */\n      revert\n\n    auxdata: 0xa26469706673582212206f2f60114dbec8fc1706301ea8c0588603a75c93a77c088422bf30a77440bb1964736f6c63430008150033\n}\n",
				"bytecode": {
					"linkReferences": {},
					"object": "608060405234801561000f575f80fd5b506104048061001d5f395ff3fe608060405234801561000f575f80fd5b506004361061004a575f3560e01c8063865d35f91461004e5780638894c29b1461006a578063b7d6e7a514610086578063d7daffed146100b6575b5f80fd5b61006860048036038101906100639190610211565b6100e6565b005b610084600480360381019061007f9190610284565b610153565b005b6100a0600480360381019061009b91906102c2565b61017e565b6040516100ad9190610360565b60405180910390f35b6100d060048036038101906100cb91906102c2565b61019b565b6040516100dd9190610388565b60405180910390f35b600115155f808481526020019081526020015f205f9054906101000a900460ff16151514610117576101166103a1565b5b8060015f8481526020019081526020015f205f6101000a81548160ff0219169083600381111561014a576101496102ed565b5b02179055505050565b805f808481526020019081526020015f205f6101000a81548160ff0219169083151502179055505050565b6001602052805f5260405f205f915054906101000a900460ff1681565b5f602052805f5260405f205f915054906101000a900460ff1681565b5f80fd5b5f819050919050565b6101cd816101bb565b81146101d7575f80fd5b50565b5f813590506101e8816101c4565b92915050565b600481106101fa575f80fd5b50565b5f8135905061020b816101ee565b92915050565b5f8060408385031215610227576102266101b7565b5b5f610234858286016101da565b9250506020610245858286016101fd565b9150509250929050565b5f8115159050919050565b6102638161024f565b811461026d575f80fd5b50565b5f8135905061027e8161025a565b92915050565b5f806040838503121561029a576102996101b7565b5b5f6102a7858286016101da565b92505060206102b885828601610270565b9150509250929050565b5f602082840312156102d7576102d66101b7565b5b5f6102e4848285016101da565b91505092915050565b7f4e487b71000000000000000000000000000000000000000000000000000000005f52602160045260245ffd5b6004811061032b5761032a6102ed565b5b50565b5f81905061033b8261031a565b919050565b5f61034a8261032e565b9050919050565b61035a81610340565b82525050565b5f6020820190506103735f830184610351565b92915050565b6103828161024f565b82525050565b5f60208201905061039b5f830184610379565b92915050565b7f4e487b71000000000000000000000000000000000000000000000000000000005f52600160045260245ffdfea26469706673582212206f2f60114dbec8fc1706301ea8c0588603a75c93a77c088422bf30a77440bb1964736f6c63430008150033",
					"opcodes": "PUSH1 0x80 PUSH1 0x40 MSTORE CALLVALUE DUP1 ISZERO PUSH2 0xF JUMPI PUSH0 DUP1 REVERT JUMPDEST POP PUSH2 0x404 DUP1 PUSH2 0x1D PUSH0 CODECOPY PUSH0 RETURN INVALID PUSH1 0x80 PUSH1 0x40 MSTORE CALLVALUE DUP1 ISZERO PUSH2 0xF JUMPI PUSH0 DUP1 REVERT JUMPDEST POP PUSH1 0x4 CALLDATASIZE LT PUSH2 0x4A JUMPI PUSH0 CALLDATALOAD PUSH1 0xE0 SHR DUP1 PUSH4 0x865D35F9 EQ PUSH2 0x4E JUMPI DUP1 PUSH4 0x8894C29B EQ PUSH2 0x6A JUMPI DUP1 PUSH4 0xB7D6E7A5 EQ PUSH2 0x86 JUMPI DUP1 PUSH4 0xD7DAFFED EQ PUSH2 0xB6 JUMPI JUMPDEST PUSH0 DUP1 REVERT JUMPDEST PUSH2 0x68 PUSH1 0x4 DUP1 CALLDATASIZE SUB DUP2 ADD SWAP1 PUSH2 0x63 SWAP2 SWAP1 PUSH2 0x211 JUMP JUMPDEST PUSH2 0xE6 JUMP JUMPDEST STOP JUMPDEST PUSH2 0x84 PUSH1 0x4 DUP1 CALLDATASIZE SUB DUP2 ADD SWAP1 PUSH2 0x7F SWAP2 SWAP1 PUSH2 0x284 JUMP JUMPDEST PUSH2 0x153 JUMP JUMPDEST STOP JUMPDEST PUSH2 0xA0 PUSH1 0x4 DUP1 CALLDATASIZE SUB DUP2 ADD SWAP1 PUSH2 0x9B SWAP2 SWAP1 PUSH2 0x2C2 JUMP JUMPDEST PUSH2 0x17E JUMP JUMPDEST PUSH1 0x40 MLOAD PUSH2 0xAD SWAP2 SWAP1 PUSH2 0x360 JUMP JUMPDEST PUSH1 0x40 MLOAD DUP1 SWAP2 SUB SWAP1 RETURN JUMPDEST PUSH2 0xD0 PUSH1 0x4 DUP1 CALLDATASIZE SUB DUP2 ADD SWAP1 PUSH2 0xCB SWAP2 SWAP1 PUSH2 0x2C2 JUMP JUMPDEST PUSH2 0x19B JUMP JUMPDEST PUSH1 0x40 MLOAD PUSH2 0xDD SWAP2 SWAP1 PUSH2 0x388 JUMP JUMPDEST PUSH1 0x40 MLOAD DUP1 SWAP2 SUB SWAP1 RETURN JUMPDEST PUSH1 0x1 ISZERO ISZERO PUSH0 DUP1 DUP5 DUP2 MSTORE PUSH1 0x20 ADD SWAP1 DUP2 MSTORE PUSH1 0x20 ADD PUSH0 KECCAK256 PUSH0 SWAP1 SLOAD SWAP1 PUSH2 0x100 EXP SWAP1 DIV PUSH1 0xFF AND ISZERO ISZERO EQ PUSH2 0x117 JUMPI PUSH2 0x116 PUSH2 0x3A1 JUMP JUMPDEST JUMPDEST DUP1 PUSH1 0x1 PUSH0 DUP5 DUP2 MSTORE PUSH1 0x20 ADD SWAP1 DUP2 MSTORE PUSH1 0x20 ADD PUSH0 KECCAK256 PUSH0 PUSH2 0x100 EXP DUP2 SLOAD DUP2 PUSH1 0xFF MUL NOT AND SWAP1 DUP4 PUSH1 0x3 DUP2 GT ISZERO PUSH2 0x14A JUMPI PUSH2 0x149 PUSH2 0x2ED JUMP JUMPDEST JUMPDEST MUL OR SWAP1 SSTORE POP POP POP JUMP JUMPDEST DUP1 PUSH0 DUP1 DUP5 DUP2 MSTORE PUSH1 0x20 ADD SWAP1 DUP2 MSTORE PUSH1 0x20 ADD PUSH0 KECCAK256 PUSH0 PUSH2 0x100 EXP DUP2 SLOAD DUP2 PUSH1 0xFF MUL NOT AND SWAP1 DUP4 ISZERO ISZERO MUL OR SWAP1 SSTORE POP POP POP JUMP JUMPDEST PUSH1 0x1 PUSH1 0x20 MSTORE DUP1 PUSH0 MSTORE PUSH1 0x40 PUSH0 KECCAK256 PUSH0 SWAP2 POP SLOAD SWAP1 PUSH2 0x100 EXP SWAP1 DIV PUSH1 0xFF AND DUP2 JUMP JUMPDEST PUSH0 PUSH1 0x20 MSTORE DUP1 PUSH0 MSTORE PUSH1 0x40 PUSH0 KECCAK256 PUSH0 SWAP2 POP SLOAD SWAP1 PUSH2 0x100 EXP SWAP1 DIV PUSH1 0xFF AND DUP2 JUMP JUMPDEST PUSH0 DUP1 REVERT JUMPDEST PUSH0 DUP2 SWAP1 POP SWAP2 SWAP1 POP JUMP JUMPDEST PUSH2 0x1CD DUP2 PUSH2 0x1BB JUMP JUMPDEST DUP2 EQ PUSH2 0x1D7 JUMPI PUSH0 DUP1 REVERT JUMPDEST POP JUMP JUMPDEST PUSH0 DUP2 CALLDATALOAD SWAP1 POP PUSH2 0x1E8 DUP2 PUSH2 0x1C4 JUMP JUMPDEST SWAP3 SWAP2 POP POP JUMP JUMPDEST PUSH1 0x4 DUP2 LT PUSH2 0x1FA JUMPI PUSH0 DUP1 REVERT JUMPDEST POP JUMP JUMPDEST PUSH0 DUP2 CALLDATALOAD SWAP1 POP PUSH2 0x20B DUP2 PUSH2 0x1EE JUMP JUMPDEST SWAP3 SWAP2 POP POP JUMP JUMPDEST PUSH0 DUP1 PUSH1 0x40 DUP4 DUP6 SUB SLT ISZERO PUSH2 0x227 JUMPI PUSH2 0x226 PUSH2 0x1B7 JUMP JUMPDEST JUMPDEST PUSH0 PUSH2 0x234 DUP6 DUP3 DUP7 ADD PUSH2 0x1DA JUMP JUMPDEST SWAP3 POP POP PUSH1 0x20 PUSH2 0x245 DUP6 DUP3 DUP7 ADD PUSH2 0x1FD JUMP JUMPDEST SWAP2 POP POP SWAP3 POP SWAP3 SWAP1 POP JUMP JUMPDEST PUSH0 DUP2 ISZERO ISZERO SWAP1 POP SWAP2 SWAP1 POP JUMP JUMPDEST PUSH2 0x263 DUP2 PUSH2 0x24F JUMP JUMPDEST DUP2 EQ PUSH2 0x26D JUMPI PUSH0 DUP1 REVERT JUMPDEST POP JUMP JUMPDEST PUSH0 DUP2 CALLDATALOAD SWAP1 POP PUSH2 0x27E DUP2 PUSH2 0x25A JUMP JUMPDEST SWAP3 SWAP2 POP POP JUMP JUMPDEST PUSH0 DUP1 PUSH1 0x40 DUP4 DUP6 SUB SLT ISZERO PUSH2 0x29A JUMPI PUSH2 0x299 PUSH2 0x1B7 JUMP JUMPDEST JUMPDEST PUSH0 PUSH2 0x2A7 DUP6 DUP3 DUP7 ADD PUSH2 0x1DA JUMP JUMPDEST SWAP3 POP POP PUSH1 0x20 PUSH2 0x2B8 DUP6 DUP3 DUP7 ADD PUSH2 0x270 JUMP JUMPDEST SWAP2 POP POP SWAP3 POP SWAP3 SWAP1 POP JUMP JUMPDEST PUSH0 PUSH1 0x20 DUP3 DUP5 SUB SLT ISZERO PUSH2 0x2D7 JUMPI PUSH2 0x2D6 PUSH2 0x1B7 JUMP JUMPDEST JUMPDEST PUSH0 PUSH2 0x2E4 DUP5 DUP3 DUP6 ADD PUSH2 0x1DA JUMP JUMPDEST SWAP2 POP POP SWAP3 SWAP2 POP POP JUMP JUMPDEST PUSH32 0x4E487B7100000000000000000000000000000000000000000000000000000000 PUSH0 MSTORE PUSH1 0x21 PUSH1 0x4 MSTORE PUSH1 0x24 PUSH0 REVERT JUMPDEST PUSH1 0x4 DUP2 LT PUSH2 0x32B JUMPI PUSH2 0x32A PUSH2 0x2ED JUMP JUMPDEST JUMPDEST POP JUMP JUMPDEST PUSH0 DUP2 SWAP1 POP PUSH2 0x33B DUP3 PUSH2 0x31A JUMP JUMPDEST SWAP2 SWAP1 POP JUMP JUMPDEST PUSH0 PUSH2 0x34A DUP3 PUSH2 0x32E JUMP JUMPDEST SWAP1 POP SWAP2 SWAP1 POP JUMP JUMPDEST PUSH2 0x35A DUP2 PUSH2 0x340 JUMP JUMPDEST DUP3 MSTORE POP POP JUMP JUMPDEST PUSH0 PUSH1 0x20 DUP3 ADD SWAP1 POP PUSH2 0x373 PUSH0 DUP4 ADD DUP5 PUSH2 0x351 JUMP JUMPDEST SWAP3 SWAP2 POP POP JUMP JUMPDEST PUSH2 0x382 DUP2 PUSH2 0x24F JUMP JUMPDEST DUP3 MSTORE POP POP JUMP JUMPDEST PUSH0 PUSH1 0x20 DUP3 ADD SWAP1 POP PUSH2 0x39B PUSH0 DUP4 ADD DUP5 PUSH2 0x379 JUMP JUMPDEST SWAP3 SWAP2 POP POP JUMP JUMPDEST PUSH32 0x4E487B7100000000000000000000000000000000000000000000000000000000 PUSH0 MSTORE PUSH1 0x1 PUSH1 0x4 MSTORE PUSH1 0x24 PUSH0 REVERT INVALID LOG2 PUSH5 0x6970667358 0x22 SLT KECCAK256 PUSH16 0x2F60114DBEC8FC1706301EA8C0588603 0xA7 0x5C SWAP4 0xA7 PUSH29 0x88422BF30A77440BB1964736F6C634300081500330000000000000000 "
				},
				"gasEstimates": {
					"creation": {
						"codeDepositCost": "205600",
						"executionCost": "249",
						"totalCost": "205849"
					},
					"external": {
						"_department(uint256)": "2895",
						"admission_status(uint256)": "2828",
						"chooseDep(uint256,uint8)": "27116",
						"set_status(uint256,bool)": "24920"
					}
				},
				"methodIdentifiers": {
					"_department(uint256)": "b7d6e7a5",
					"admission_status(uint256)": "d7daffed",
					"chooseDep(uint256,uint8)": "865d35f9",
					"set_status(uint256,bool)": "8894c29b"
				}
			},
			"storageLayout": {
				"storage": [
					{
						"astId": 128,
						"contract": "Labs (August)/Error_handling/assert.sol:admissionPortal",
						"label": "admission_status",
						"offset": 0,
						"slot": "0",
						"type": "t_mapping(t_uint256,t_bool)"
					},
					{
						"astId": 133,
						"contract": "Labs (August)/Error_handling/assert.sol:admissionPortal",
						"label": "_department",
						"offset": 0,
						"slot": "1",
						"type": "t_mapping(t_uint256,t_enum(Dep)124)"
					}
				],
				"types": {
					"t_bool": {
						"encoding": "inplace",
						"label": "bool",
						"numberOfBytes": "1"
					},
					"t_enum(Dep)124": {
						"encoding": "inplace",
						"label": "enum admissionPortal.Dep",
						"numberOfBytes": "1"
					},
					"t_mapping(t_uint256,t_bool)": {
						"encoding": "mapping",
						"key": "t_uint256",
						"label": "mapping(uint256 => bool)",
						"numberOfBytes": "32",
						"value": "t_bool"
					},
					"t_mapping(t_uint256,t_enum(Dep)124)": {
						"encoding": "mapping",
						"key": "t_uint256",
						"label": "mapping(uint256 => enum admissionPortal.Dep)",
						"numberOfBytes": "32",
						"value": "t_enum(Dep)124"
					},
					"t_uint256": {
						"encoding": "inplace",
						"label": "uint256",
						"numberOfBytes": "32"
					}
				}
			},
			"userdoc": {
				"kind": "user",
				"methods": {},
				"version": 1
			}
		}
	}
}