{
	"Labs (August)/Error_handling/assert.sol": {
		"StopEP": {
			"abi": [
				{
					"inputs": [
						{
							"internalType": "uint256",
							"name": "",
							"type": "uint256"
						}
					],
					"name": "array",
					"outputs": [
						{
							"internalType": "int256",
							"name": "",
							"type": "int256"
						}
					],
					"stateMutability": "view",
					"type": "function"
				},
				{
					"inputs": [],
					"name": "pop",
					"outputs": [],
					"stateMutability": "nonpayable",
					"type": "function"
				},
				{
					"inputs": [
						{
							"internalType": "int256",
							"name": "value",
							"type": "int256"
						}
					],
					"name": "push",
					"outputs": [],
					"stateMutability": "nonpayable",
					"type": "function"
				}
			],
			"devdoc": {
				"kind": "dev",
				"methods": {},
				"version": 1
			},
			"evm": {
				"assembly": "    /* \"Labs (August)/Error_handling/assert.sol\":723:990  contract StopEP{                // cant be able to push in empty array... */\n  mstore(0x40, 0x80)\n  callvalue\n  dup1\n  iszero\n  tag_1\n  jumpi\n  0x00\n  dup1\n  revert\ntag_1:\n  pop\n  dataSize(sub_0)\n  dup1\n  dataOffset(sub_0)\n  0x00\n  codecopy\n  0x00\n  return\nstop\n\nsub_0: assembly {\n        /* \"Labs (August)/Error_handling/assert.sol\":723:990  contract StopEP{                // cant be able to push in empty array... */\n      mstore(0x40, 0x80)\n      callvalue\n      dup1\n      iszero\n      tag_1\n      jumpi\n      0x00\n      dup1\n      revert\n    tag_1:\n      pop\n      jumpi(tag_2, lt(calldatasize, 0x04))\n      shr(0xe0, calldataload(0x00))\n      dup1\n      0x35c457db\n      eq\n      tag_3\n      jumpi\n      dup1\n      0x38d94193\n      eq\n      tag_4\n      jumpi\n      dup1\n      0xa4ece52c\n      eq\n      tag_5\n      jumpi\n    tag_2:\n      0x00\n      dup1\n      revert\n        /* \"Labs (August)/Error_handling/assert.sol\":828:896  function push(int value) public {... */\n    tag_3:\n      tag_6\n      0x04\n      dup1\n      calldatasize\n      sub\n      dup2\n      add\n      swap1\n      tag_7\n      swap2\n      swap1\n      tag_8\n      jump\t// in\n    tag_7:\n      tag_9\n      jump\t// in\n    tag_6:\n      stop\n        /* \"Labs (August)/Error_handling/assert.sol\":801:819  int[] public array */\n    tag_4:\n      tag_10\n      0x04\n      dup1\n      calldatasize\n      sub\n      dup2\n      add\n      swap1\n      tag_11\n      swap2\n      swap1\n      tag_12\n      jump\t// in\n    tag_11:\n      tag_13\n      jump\t// in\n    tag_10:\n      mload(0x40)\n      tag_14\n      swap2\n      swap1\n      tag_15\n      jump\t// in\n    tag_14:\n      mload(0x40)\n      dup1\n      swap2\n      sub\n      swap1\n      return\n        /* \"Labs (August)/Error_handling/assert.sol\":902:987  function pop() public {... */\n    tag_5:\n      tag_16\n      tag_17\n      jump\t// in\n    tag_16:\n      stop\n        /* \"Labs (August)/Error_handling/assert.sol\":828:896  function push(int value) public {... */\n    tag_9:\n        /* \"Labs (August)/Error_handling/assert.sol\":871:876  array */\n      0x00\n        /* \"Labs (August)/Error_handling/assert.sol\":882:887  value */\n      dup2\n        /* \"Labs (August)/Error_handling/assert.sol\":871:888  array.push(value) */\n      swap1\n      dup1\n      0x01\n      dup2\n      sload\n      add\n      dup1\n      dup3\n      sstore\n      dup1\n      swap2\n      pop\n      pop\n      0x01\n      swap1\n      sub\n      swap1\n      0x00\n      mstore\n      keccak256(0x00, 0x20)\n      add\n      0x00\n      swap1\n      swap2\n      swap1\n      swap2\n      swap1\n      swap2\n      pop\n      sstore\n        /* \"Labs (August)/Error_handling/assert.sol\":828:896  function push(int value) public {... */\n      pop\n      jump\t// out\n        /* \"Labs (August)/Error_handling/assert.sol\":801:819  int[] public array */\n    tag_13:\n      0x00\n      dup2\n      dup2\n      sload\n      dup2\n      lt\n      tag_20\n      jumpi\n      0x00\n      dup1\n      revert\n    tag_20:\n      swap1\n      0x00\n      mstore\n      keccak256(0x00, 0x20)\n      add\n      0x00\n      swap2\n      pop\n      swap1\n      pop\n      sload\n      dup2\n      jump\t// out\n        /* \"Labs (August)/Error_handling/assert.sol\":902:987  function pop() public {... */\n    tag_17:\n        /* \"Labs (August)/Error_handling/assert.sol\":955:956  0 */\n      0x00\n        /* \"Labs (August)/Error_handling/assert.sol\":942:947  array */\n      dup1\n        /* \"Labs (August)/Error_handling/assert.sol\":942:954  array.length */\n      dup1\n      sload\n      swap1\n      pop\n        /* \"Labs (August)/Error_handling/assert.sol\":942:956  array.length>0 */\n      gt\n        /* \"Labs (August)/Error_handling/assert.sol\":935:957  assert(array.length>0) */\n      tag_23\n      jumpi\n      tag_24\n      tag_25\n      jump\t// in\n    tag_24:\n    tag_23:\n        /* \"Labs (August)/Error_handling/assert.sol\":968:973  array */\n      0x00\n        /* \"Labs (August)/Error_handling/assert.sol\":968:979  array.pop() */\n      dup1\n      sload\n      dup1\n      tag_26\n      jumpi\n      tag_27\n      tag_28\n      jump\t// in\n    tag_27:\n    tag_26:\n      0x01\n      swap1\n      sub\n      dup2\n      dup2\n      swap1\n      0x00\n      mstore\n      keccak256(0x00, 0x20)\n      add\n      0x00\n      swap1\n      sstore\n      swap1\n      sstore\n        /* \"Labs (August)/Error_handling/assert.sol\":902:987  function pop() public {... */\n      jump\t// out\n        /* \"#utility.yul\":88:205   */\n    tag_31:\n        /* \"#utility.yul\":197:198   */\n      0x00\n        /* \"#utility.yul\":194:195   */\n      dup1\n        /* \"#utility.yul\":187:199   */\n      revert\n        /* \"#utility.yul\":334:410   */\n    tag_33:\n        /* \"#utility.yul\":370:377   */\n      0x00\n        /* \"#utility.yul\":399:404   */\n      dup2\n        /* \"#utility.yul\":388:404   */\n      swap1\n      pop\n        /* \"#utility.yul\":334:410   */\n      swap2\n      swap1\n      pop\n      jump\t// out\n        /* \"#utility.yul\":416:536   */\n    tag_34:\n        /* \"#utility.yul\":488:511   */\n      tag_46\n        /* \"#utility.yul\":505:510   */\n      dup2\n        /* \"#utility.yul\":488:511   */\n      tag_33\n      jump\t// in\n    tag_46:\n        /* \"#utility.yul\":481:486   */\n      dup2\n        /* \"#utility.yul\":478:512   */\n      eq\n        /* \"#utility.yul\":468:530   */\n      tag_47\n      jumpi\n        /* \"#utility.yul\":526:527   */\n      0x00\n        /* \"#utility.yul\":523:524   */\n      dup1\n        /* \"#utility.yul\":516:528   */\n      revert\n        /* \"#utility.yul\":468:530   */\n    tag_47:\n        /* \"#utility.yul\":416:536   */\n      pop\n      jump\t// out\n        /* \"#utility.yul\":542:679   */\n    tag_35:\n        /* \"#utility.yul\":587:592   */\n      0x00\n        /* \"#utility.yul\":625:631   */\n      dup2\n        /* \"#utility.yul\":612:632   */\n      calldataload\n        /* \"#utility.yul\":603:632   */\n      swap1\n      pop\n        /* \"#utility.yul\":641:673   */\n      tag_49\n        /* \"#utility.yul\":667:672   */\n      dup2\n        /* \"#utility.yul\":641:673   */\n      tag_34\n      jump\t// in\n    tag_49:\n        /* \"#utility.yul\":542:679   */\n      swap3\n      swap2\n      pop\n      pop\n      jump\t// out\n        /* \"#utility.yul\":685:1012   */\n    tag_8:\n        /* \"#utility.yul\":743:749   */\n      0x00\n        /* \"#utility.yul\":792:794   */\n      0x20\n        /* \"#utility.yul\":780:789   */\n      dup3\n        /* \"#utility.yul\":771:778   */\n      dup5\n        /* \"#utility.yul\":767:790   */\n      sub\n        /* \"#utility.yul\":763:795   */\n      slt\n        /* \"#utility.yul\":760:879   */\n      iszero\n      tag_51\n      jumpi\n        /* \"#utility.yul\":798:877   */\n      tag_52\n      tag_31\n      jump\t// in\n    tag_52:\n        /* \"#utility.yul\":760:879   */\n    tag_51:\n        /* \"#utility.yul\":918:919   */\n      0x00\n        /* \"#utility.yul\":943:995   */\n      tag_53\n        /* \"#utility.yul\":987:994   */\n      dup5\n        /* \"#utility.yul\":978:984   */\n      dup3\n        /* \"#utility.yul\":967:976   */\n      dup6\n        /* \"#utility.yul\":963:985   */\n      add\n        /* \"#utility.yul\":943:995   */\n      tag_35\n      jump\t// in\n    tag_53:\n        /* \"#utility.yul\":933:995   */\n      swap2\n      pop\n        /* \"#utility.yul\":889:1005   */\n      pop\n        /* \"#utility.yul\":685:1012   */\n      swap3\n      swap2\n      pop\n      pop\n      jump\t// out\n        /* \"#utility.yul\":1018:1095   */\n    tag_36:\n        /* \"#utility.yul\":1055:1062   */\n      0x00\n        /* \"#utility.yul\":1084:1089   */\n      dup2\n        /* \"#utility.yul\":1073:1089   */\n      swap1\n      pop\n        /* \"#utility.yul\":1018:1095   */\n      swap2\n      swap1\n      pop\n      jump\t// out\n        /* \"#utility.yul\":1101:1223   */\n    tag_37:\n        /* \"#utility.yul\":1174:1198   */\n      tag_56\n        /* \"#utility.yul\":1192:1197   */\n      dup2\n        /* \"#utility.yul\":1174:1198   */\n      tag_36\n      jump\t// in\n    tag_56:\n        /* \"#utility.yul\":1167:1172   */\n      dup2\n        /* \"#utility.yul\":1164:1199   */\n      eq\n        /* \"#utility.yul\":1154:1217   */\n      tag_57\n      jumpi\n        /* \"#utility.yul\":1213:1214   */\n      0x00\n        /* \"#utility.yul\":1210:1211   */\n      dup1\n        /* \"#utility.yul\":1203:1215   */\n      revert\n        /* \"#utility.yul\":1154:1217   */\n    tag_57:\n        /* \"#utility.yul\":1101:1223   */\n      pop\n      jump\t// out\n        /* \"#utility.yul\":1229:1368   */\n    tag_38:\n        /* \"#utility.yul\":1275:1280   */\n      0x00\n        /* \"#utility.yul\":1313:1319   */\n      dup2\n        /* \"#utility.yul\":1300:1320   */\n      calldataload\n        /* \"#utility.yul\":1291:1320   */\n      swap1\n      pop\n        /* \"#utility.yul\":1329:1362   */\n      tag_59\n        /* \"#utility.yul\":1356:1361   */\n      dup2\n        /* \"#utility.yul\":1329:1362   */\n      tag_37\n      jump\t// in\n    tag_59:\n        /* \"#utility.yul\":1229:1368   */\n      swap3\n      swap2\n      pop\n      pop\n      jump\t// out\n        /* \"#utility.yul\":1374:1703   */\n    tag_12:\n        /* \"#utility.yul\":1433:1439   */\n      0x00\n        /* \"#utility.yul\":1482:1484   */\n      0x20\n        /* \"#utility.yul\":1470:1479   */\n      dup3\n        /* \"#utility.yul\":1461:1468   */\n      dup5\n        /* \"#utility.yul\":1457:1480   */\n      sub\n        /* \"#utility.yul\":1453:1485   */\n      slt\n        /* \"#utility.yul\":1450:1569   */\n      iszero\n      tag_61\n      jumpi\n        /* \"#utility.yul\":1488:1567   */\n      tag_62\n      tag_31\n      jump\t// in\n    tag_62:\n        /* \"#utility.yul\":1450:1569   */\n    tag_61:\n        /* \"#utility.yul\":1608:1609   */\n      0x00\n        /* \"#utility.yul\":1633:1686   */\n      tag_63\n        /* \"#utility.yul\":1678:1685   */\n      dup5\n        /* \"#utility.yul\":1669:1675   */\n      dup3\n        /* \"#utility.yul\":1658:1667   */\n      dup6\n        /* \"#utility.yul\":1654:1676   */\n      add\n        /* \"#utility.yul\":1633:1686   */\n      tag_38\n      jump\t// in\n    tag_63:\n        /* \"#utility.yul\":1623:1686   */\n      swap2\n      pop\n        /* \"#utility.yul\":1579:1696   */\n      pop\n        /* \"#utility.yul\":1374:1703   */\n      swap3\n      swap2\n      pop\n      pop\n      jump\t// out\n        /* \"#utility.yul\":1709:1824   */\n    tag_39:\n        /* \"#utility.yul\":1794:1817   */\n      tag_65\n        /* \"#utility.yul\":1811:1816   */\n      dup2\n        /* \"#utility.yul\":1794:1817   */\n      tag_33\n      jump\t// in\n    tag_65:\n        /* \"#utility.yul\":1789:1792   */\n      dup3\n        /* \"#utility.yul\":1782:1818   */\n      mstore\n        /* \"#utility.yul\":1709:1824   */\n      pop\n      pop\n      jump\t// out\n        /* \"#utility.yul\":1830:2048   */\n    tag_15:\n        /* \"#utility.yul\":1921:1925   */\n      0x00\n        /* \"#utility.yul\":1959:1961   */\n      0x20\n        /* \"#utility.yul\":1948:1957   */\n      dup3\n        /* \"#utility.yul\":1944:1962   */\n      add\n        /* \"#utility.yul\":1936:1962   */\n      swap1\n      pop\n        /* \"#utility.yul\":1972:2041   */\n      tag_67\n        /* \"#utility.yul\":2038:2039   */\n      0x00\n        /* \"#utility.yul\":2027:2036   */\n      dup4\n        /* \"#utility.yul\":2023:2040   */\n      add\n        /* \"#utility.yul\":2014:2020   */\n      dup5\n        /* \"#utility.yul\":1972:2041   */\n      tag_39\n      jump\t// in\n    tag_67:\n        /* \"#utility.yul\":1830:2048   */\n      swap3\n      swap2\n      pop\n      pop\n      jump\t// out\n        /* \"#utility.yul\":2054:2234   */\n    tag_25:\n        /* \"#utility.yul\":2102:2179   */\n      0x4e487b7100000000000000000000000000000000000000000000000000000000\n        /* \"#utility.yul\":2099:2100   */\n      0x00\n        /* \"#utility.yul\":2092:2180   */\n      mstore\n        /* \"#utility.yul\":2199:2203   */\n      0x01\n        /* \"#utility.yul\":2196:2197   */\n      0x04\n        /* \"#utility.yul\":2189:2204   */\n      mstore\n        /* \"#utility.yul\":2223:2227   */\n      0x24\n        /* \"#utility.yul\":2220:2221   */\n      0x00\n        /* \"#utility.yul\":2213:2228   */\n      revert\n        /* \"#utility.yul\":2240:2420   */\n    tag_28:\n        /* \"#utility.yul\":2288:2365   */\n      0x4e487b7100000000000000000000000000000000000000000000000000000000\n        /* \"#utility.yul\":2285:2286   */\n      0x00\n        /* \"#utility.yul\":2278:2366   */\n      mstore\n        /* \"#utility.yul\":2385:2389   */\n      0x31\n        /* \"#utility.yul\":2382:2383   */\n      0x04\n        /* \"#utility.yul\":2375:2390   */\n      mstore\n        /* \"#utility.yul\":2409:2413   */\n      0x24\n        /* \"#utility.yul\":2406:2407   */\n      0x00\n        /* \"#utility.yul\":2399:2414   */\n      revert\n\n    auxdata: 0xa2646970667358221220a90bdb7770bc18037fb5d6369e7fe7a42f3e0d81f8df571388338ff2f26e176564736f6c63430008150033\n}\n",
				"bytecode": {
					"linkReferences": {},
					"object": "608060405234801561000f575f80fd5b506102928061001d5f395ff3fe608060405234801561000f575f80fd5b506004361061003f575f3560e01c806335c457db1461004357806338d941931461005f578063a4ece52c1461008f575b5f80fd5b61005d60048036038101906100589190610151565b610099565b005b610079600480360381019061007491906101af565b6100c1565b60405161008691906101e9565b60405180910390f35b6100976100e0565b005b5f81908060018154018082558091505060019003905f5260205f20015f909190919091505550565b5f81815481106100cf575f80fd5b905f5260205f20015f915090505481565b5f8080549050116100f4576100f3610202565b5b5f8054806101055761010461022f565b5b600190038181905f5260205f20015f90559055565b5f80fd5b5f819050919050565b6101308161011e565b811461013a575f80fd5b50565b5f8135905061014b81610127565b92915050565b5f602082840312156101665761016561011a565b5b5f6101738482850161013d565b91505092915050565b5f819050919050565b61018e8161017c565b8114610198575f80fd5b50565b5f813590506101a981610185565b92915050565b5f602082840312156101c4576101c361011a565b5b5f6101d18482850161019b565b91505092915050565b6101e38161011e565b82525050565b5f6020820190506101fc5f8301846101da565b92915050565b7f4e487b71000000000000000000000000000000000000000000000000000000005f52600160045260245ffd5b7f4e487b71000000000000000000000000000000000000000000000000000000005f52603160045260245ffdfea2646970667358221220a90bdb7770bc18037fb5d6369e7fe7a42f3e0d81f8df571388338ff2f26e176564736f6c63430008150033",
					"opcodes": "PUSH1 0x80 PUSH1 0x40 MSTORE CALLVALUE DUP1 ISZERO PUSH2 0xF JUMPI PUSH0 DUP1 REVERT JUMPDEST POP PUSH2 0x292 DUP1 PUSH2 0x1D PUSH0 CODECOPY PUSH0 RETURN INVALID PUSH1 0x80 PUSH1 0x40 MSTORE CALLVALUE DUP1 ISZERO PUSH2 0xF JUMPI PUSH0 DUP1 REVERT JUMPDEST POP PUSH1 0x4 CALLDATASIZE LT PUSH2 0x3F JUMPI PUSH0 CALLDATALOAD PUSH1 0xE0 SHR DUP1 PUSH4 0x35C457DB EQ PUSH2 0x43 JUMPI DUP1 PUSH4 0x38D94193 EQ PUSH2 0x5F JUMPI DUP1 PUSH4 0xA4ECE52C EQ PUSH2 0x8F JUMPI JUMPDEST PUSH0 DUP1 REVERT JUMPDEST PUSH2 0x5D PUSH1 0x4 DUP1 CALLDATASIZE SUB DUP2 ADD SWAP1 PUSH2 0x58 SWAP2 SWAP1 PUSH2 0x151 JUMP JUMPDEST PUSH2 0x99 JUMP JUMPDEST STOP JUMPDEST PUSH2 0x79 PUSH1 0x4 DUP1 CALLDATASIZE SUB DUP2 ADD SWAP1 PUSH2 0x74 SWAP2 SWAP1 PUSH2 0x1AF JUMP JUMPDEST PUSH2 0xC1 JUMP JUMPDEST PUSH1 0x40 MLOAD PUSH2 0x86 SWAP2 SWAP1 PUSH2 0x1E9 JUMP JUMPDEST PUSH1 0x40 MLOAD DUP1 SWAP2 SUB SWAP1 RETURN JUMPDEST PUSH2 0x97 PUSH2 0xE0 JUMP JUMPDEST STOP JUMPDEST PUSH0 DUP2 SWAP1 DUP1 PUSH1 0x1 DUP2 SLOAD ADD DUP1 DUP3 SSTORE DUP1 SWAP2 POP POP PUSH1 0x1 SWAP1 SUB SWAP1 PUSH0 MSTORE PUSH1 0x20 PUSH0 KECCAK256 ADD PUSH0 SWAP1 SWAP2 SWAP1 SWAP2 SWAP1 SWAP2 POP SSTORE POP JUMP JUMPDEST PUSH0 DUP2 DUP2 SLOAD DUP2 LT PUSH2 0xCF JUMPI PUSH0 DUP1 REVERT JUMPDEST SWAP1 PUSH0 MSTORE PUSH1 0x20 PUSH0 KECCAK256 ADD PUSH0 SWAP2 POP SWAP1 POP SLOAD DUP2 JUMP JUMPDEST PUSH0 DUP1 DUP1 SLOAD SWAP1 POP GT PUSH2 0xF4 JUMPI PUSH2 0xF3 PUSH2 0x202 JUMP JUMPDEST JUMPDEST PUSH0 DUP1 SLOAD DUP1 PUSH2 0x105 JUMPI PUSH2 0x104 PUSH2 0x22F JUMP JUMPDEST JUMPDEST PUSH1 0x1 SWAP1 SUB DUP2 DUP2 SWAP1 PUSH0 MSTORE PUSH1 0x20 PUSH0 KECCAK256 ADD PUSH0 SWAP1 SSTORE SWAP1 SSTORE JUMP JUMPDEST PUSH0 DUP1 REVERT JUMPDEST PUSH0 DUP2 SWAP1 POP SWAP2 SWAP1 POP JUMP JUMPDEST PUSH2 0x130 DUP2 PUSH2 0x11E JUMP JUMPDEST DUP2 EQ PUSH2 0x13A JUMPI PUSH0 DUP1 REVERT JUMPDEST POP JUMP JUMPDEST PUSH0 DUP2 CALLDATALOAD SWAP1 POP PUSH2 0x14B DUP2 PUSH2 0x127 JUMP JUMPDEST SWAP3 SWAP2 POP POP JUMP JUMPDEST PUSH0 PUSH1 0x20 DUP3 DUP5 SUB SLT ISZERO PUSH2 0x166 JUMPI PUSH2 0x165 PUSH2 0x11A JUMP JUMPDEST JUMPDEST PUSH0 PUSH2 0x173 DUP5 DUP3 DUP6 ADD PUSH2 0x13D JUMP JUMPDEST SWAP2 POP POP SWAP3 SWAP2 POP POP JUMP JUMPDEST PUSH0 DUP2 SWAP1 POP SWAP2 SWAP1 POP JUMP JUMPDEST PUSH2 0x18E DUP2 PUSH2 0x17C JUMP JUMPDEST DUP2 EQ PUSH2 0x198 JUMPI PUSH0 DUP1 REVERT JUMPDEST POP JUMP JUMPDEST PUSH0 DUP2 CALLDATALOAD SWAP1 POP PUSH2 0x1A9 DUP2 PUSH2 0x185 JUMP JUMPDEST SWAP3 SWAP2 POP POP JUMP JUMPDEST PUSH0 PUSH1 0x20 DUP3 DUP5 SUB SLT ISZERO PUSH2 0x1C4 JUMPI PUSH2 0x1C3 PUSH2 0x11A JUMP JUMPDEST JUMPDEST PUSH0 PUSH2 0x1D1 DUP5 DUP3 DUP6 ADD PUSH2 0x19B JUMP JUMPDEST SWAP2 POP POP SWAP3 SWAP2 POP POP JUMP JUMPDEST PUSH2 0x1E3 DUP2 PUSH2 0x11E JUMP JUMPDEST DUP3 MSTORE POP POP JUMP JUMPDEST PUSH0 PUSH1 0x20 DUP3 ADD SWAP1 POP PUSH2 0x1FC PUSH0 DUP4 ADD DUP5 PUSH2 0x1DA JUMP JUMPDEST SWAP3 SWAP2 POP POP JUMP JUMPDEST PUSH32 0x4E487B7100000000000000000000000000000000000000000000000000000000 PUSH0 MSTORE PUSH1 0x1 PUSH1 0x4 MSTORE PUSH1 0x24 PUSH0 REVERT JUMPDEST PUSH32 0x4E487B7100000000000000000000000000000000000000000000000000000000 PUSH0 MSTORE PUSH1 0x31 PUSH1 0x4 MSTORE PUSH1 0x24 PUSH0 REVERT INVALID LOG2 PUSH5 0x6970667358 0x22 SLT KECCAK256 0xA9 SIGNEXTEND 0xDB PUSH24 0x70BC18037FB5D6369E7FE7A42F3E0D81F8DF571388338FF2 CALLCODE PUSH15 0x176564736F6C634300081500330000 "
				},
				"gasEstimates": {
					"creation": {
						"codeDepositCost": "131600",
						"executionCost": "175",
						"totalCost": "131775"
					},
					"external": {
						"array(uint256)": "4870",
						"pop()": "31592",
						"push(int256)": "46798"
					}
				},
				"methodIdentifiers": {
					"array(uint256)": "38d94193",
					"pop()": "a4ece52c",
					"push(int256)": "35c457db"
				}
			},
			"storageLayout": {
				"storage": [
					{
						"astId": 90,
						"contract": "Labs (August)/Error_handling/assert.sol:StopEP",
						"label": "array",
						"offset": 0,
						"slot": "0",
						"type": "t_array(t_int256)dyn_storage"
					}
				],
				"types": {
					"t_array(t_int256)dyn_storage": {
						"base": "t_int256",
						"encoding": "dynamic_array",
						"label": "int256[]",
						"numberOfBytes": "32"
					},
					"t_int256": {
						"encoding": "inplace",
						"label": "int256",
						"numberOfBytes": "32"
					}
				}
			},
			"userdoc": {
				"kind": "user",
				"methods": {},
				"version": 1
			}
		}
	}
}