{
	"Labs (August)/Error_handling/custom_errors.sol": {
		"Error_custom": {
			"abi": [
				{
					"inputs": [
						{
							"internalType": "string",
							"name": "message",
							"type": "string"
						},
						{
							"internalType": "uint256",
							"name": "number",
							"type": "uint256"
						}
					],
					"name": "custom",
					"type": "error"
				},
				{
					"inputs": [
						{
							"internalType": "uint256",
							"name": "num",
							"type": "uint256"
						}
					],
					"name": "IsPrime",
					"outputs": [
						{
							"internalType": "bool",
							"name": "",
							"type": "bool"
						}
					],
					"stateMutability": "pure",
					"type": "function"
				},
				{
					"inputs": [
						{
							"internalType": "uint256",
							"name": "",
							"type": "uint256"
						}
					],
					"name": "arr",
					"outputs": [
						{
							"internalType": "uint256",
							"name": "",
							"type": "uint256"
						}
					],
					"stateMutability": "view",
					"type": "function"
				},
				{
					"inputs": [
						{
							"internalType": "uint256",
							"name": "num",
							"type": "uint256"
						}
					],
					"name": "upush",
					"outputs": [],
					"stateMutability": "nonpayable",
					"type": "function"
				}
			],
			"devdoc": {
				"kind": "dev",
				"methods": {},
				"version": 1
			},
			"evm": {
				"assembly": "    /* \"Labs (August)/Error_handling/custom_errors.sol\":1020:1589  contract Error_custom{... */\n  mstore(0x40, 0x80)\n  callvalue\n  dup1\n  iszero\n  tag_1\n  jumpi\n  0x00\n  dup1\n  revert\ntag_1:\n  pop\n  dataSize(sub_0)\n  dup1\n  dataOffset(sub_0)\n  0x00\n  codecopy\n  0x00\n  return\nstop\n\nsub_0: assembly {\n        /* \"Labs (August)/Error_handling/custom_errors.sol\":1020:1589  contract Error_custom{... */\n      mstore(0x40, 0x80)\n      callvalue\n      dup1\n      iszero\n      tag_1\n      jumpi\n      0x00\n      dup1\n      revert\n    tag_1:\n      pop\n      jumpi(tag_2, lt(calldatasize, 0x04))\n      shr(0xe0, calldataload(0x00))\n      dup1\n      0x234f0ec5\n      eq\n      tag_3\n      jumpi\n      dup1\n      0x71e5ee5f\n      eq\n      tag_4\n      jumpi\n      dup1\n      0xa8d4eb27\n      eq\n      tag_5\n      jumpi\n    tag_2:\n      0x00\n      dup1\n      revert\n        /* \"Labs (August)/Error_handling/custom_errors.sol\":1130:1296  function upush(uint num) public{... */\n    tag_3:\n      tag_6\n      0x04\n      dup1\n      calldatasize\n      sub\n      dup2\n      add\n      swap1\n      tag_7\n      swap2\n      swap1\n      tag_8\n      jump\t// in\n    tag_7:\n      tag_9\n      jump\t// in\n    tag_6:\n      stop\n        /* \"Labs (August)/Error_handling/custom_errors.sol\":1050:1067  uint[] public arr */\n    tag_4:\n      tag_10\n      0x04\n      dup1\n      calldatasize\n      sub\n      dup2\n      add\n      swap1\n      tag_11\n      swap2\n      swap1\n      tag_8\n      jump\t// in\n    tag_11:\n      tag_12\n      jump\t// in\n    tag_10:\n      mload(0x40)\n      tag_13\n      swap2\n      swap1\n      tag_14\n      jump\t// in\n    tag_13:\n      mload(0x40)\n      dup1\n      swap2\n      sub\n      swap1\n      return\n        /* \"Labs (August)/Error_handling/custom_errors.sol\":1304:1586  function IsPrime(uint num) public pure returns(bool){... */\n    tag_5:\n      tag_15\n      0x04\n      dup1\n      calldatasize\n      sub\n      dup2\n      add\n      swap1\n      tag_16\n      swap2\n      swap1\n      tag_8\n      jump\t// in\n    tag_16:\n      tag_17\n      jump\t// in\n    tag_15:\n      mload(0x40)\n      tag_18\n      swap2\n      swap1\n      tag_19\n      jump\t// in\n    tag_18:\n      mload(0x40)\n      dup1\n      swap2\n      sub\n      swap1\n      return\n        /* \"Labs (August)/Error_handling/custom_errors.sol\":1130:1296  function upush(uint num) public{... */\n    tag_9:\n        /* \"Labs (August)/Error_handling/custom_errors.sol\":1175:1187  IsPrime(num) */\n      tag_21\n        /* \"Labs (August)/Error_handling/custom_errors.sol\":1183:1186  num */\n      dup2\n        /* \"Labs (August)/Error_handling/custom_errors.sol\":1175:1182  IsPrime */\n      tag_17\n        /* \"Labs (August)/Error_handling/custom_errors.sol\":1175:1187  IsPrime(num) */\n      jump\t// in\n    tag_21:\n        /* \"Labs (August)/Error_handling/custom_errors.sol\":1172:1265  if(IsPrime(num)){... */\n      iszero\n      tag_22\n      jumpi\n        /* \"Labs (August)/Error_handling/custom_errors.sol\":1249:1252  num */\n      dup1\n        /* \"Labs (August)/Error_handling/custom_errors.sol\":1206:1253  custom(\"the number is not a prime number\", num) */\n      mload(0x40)\n      0x3936847d00000000000000000000000000000000000000000000000000000000\n      dup2\n      mstore\n      0x04\n      add\n      tag_23\n      swap2\n      swap1\n      tag_24\n      jump\t// in\n    tag_23:\n      mload(0x40)\n      dup1\n      swap2\n      sub\n      swap1\n      revert\n        /* \"Labs (August)/Error_handling/custom_errors.sol\":1172:1265  if(IsPrime(num)){... */\n    tag_22:\n        /* \"Labs (August)/Error_handling/custom_errors.sol\":1275:1278  arr */\n      0x00\n        /* \"Labs (August)/Error_handling/custom_errors.sol\":1284:1287  num */\n      dup2\n        /* \"Labs (August)/Error_handling/custom_errors.sol\":1275:1288  arr.push(num) */\n      swap1\n      dup1\n      0x01\n      dup2\n      sload\n      add\n      dup1\n      dup3\n      sstore\n      dup1\n      swap2\n      pop\n      pop\n      0x01\n      swap1\n      sub\n      swap1\n      0x00\n      mstore\n      keccak256(0x00, 0x20)\n      add\n      0x00\n      swap1\n      swap2\n      swap1\n      swap2\n      swap1\n      swap2\n      pop\n      sstore\n        /* \"Labs (August)/Error_handling/custom_errors.sol\":1130:1296  function upush(uint num) public{... */\n      pop\n      jump\t// out\n        /* \"Labs (August)/Error_handling/custom_errors.sol\":1050:1067  uint[] public arr */\n    tag_12:\n      0x00\n      dup2\n      dup2\n      sload\n      dup2\n      lt\n      tag_26\n      jumpi\n      0x00\n      dup1\n      revert\n    tag_26:\n      swap1\n      0x00\n      mstore\n      keccak256(0x00, 0x20)\n      add\n      0x00\n      swap2\n      pop\n      swap1\n      pop\n      sload\n      dup2\n      jump\t// out\n        /* \"Labs (August)/Error_handling/custom_errors.sol\":1304:1586  function IsPrime(uint num) public pure returns(bool){... */\n    tag_17:\n        /* \"Labs (August)/Error_handling/custom_errors.sol\":1351:1355  bool */\n      0x00\n        /* \"Labs (August)/Error_handling/custom_errors.sol\":1377:1378  0 */\n      dup1\n        /* \"Labs (August)/Error_handling/custom_errors.sol\":1370:1373  num */\n      dup3\n        /* \"Labs (August)/Error_handling/custom_errors.sol\":1370:1378  num == 0 */\n      eq\n        /* \"Labs (August)/Error_handling/custom_errors.sol\":1370:1390  num == 0 || num == 1 */\n      dup1\n      tag_29\n      jumpi\n      pop\n        /* \"Labs (August)/Error_handling/custom_errors.sol\":1389:1390  1 */\n      0x01\n        /* \"Labs (August)/Error_handling/custom_errors.sol\":1382:1385  num */\n      dup3\n        /* \"Labs (August)/Error_handling/custom_errors.sol\":1382:1390  num == 1 */\n      eq\n        /* \"Labs (August)/Error_handling/custom_errors.sol\":1370:1390  num == 0 || num == 1 */\n    tag_29:\n        /* \"Labs (August)/Error_handling/custom_errors.sol\":1367:1430  if(num == 0 || num == 1){... */\n      iszero\n      tag_30\n      jumpi\n        /* \"Labs (August)/Error_handling/custom_errors.sol\":1413:1418  false */\n      0x00\n        /* \"Labs (August)/Error_handling/custom_errors.sol\":1406:1418  return false */\n      swap1\n      pop\n      jump(tag_28)\n        /* \"Labs (August)/Error_handling/custom_errors.sol\":1367:1430  if(num == 0 || num == 1){... */\n    tag_30:\n        /* \"Labs (August)/Error_handling/custom_errors.sol\":1444:1450  uint i */\n      0x00\n        /* \"Labs (August)/Error_handling/custom_errors.sol\":1453:1454  2 */\n      0x02\n        /* \"Labs (August)/Error_handling/custom_errors.sol\":1444:1454  uint i = 2 */\n      swap1\n      pop\n        /* \"Labs (August)/Error_handling/custom_errors.sol\":1440:1556  for(uint i = 2; i <= num/2; i++){... */\n    tag_31:\n        /* \"Labs (August)/Error_handling/custom_errors.sol\":1465:1466  2 */\n      0x02\n        /* \"Labs (August)/Error_handling/custom_errors.sol\":1461:1464  num */\n      dup4\n        /* \"Labs (August)/Error_handling/custom_errors.sol\":1461:1466  num/2 */\n      tag_34\n      swap2\n      swap1\n      tag_35\n      jump\t// in\n    tag_34:\n        /* \"Labs (August)/Error_handling/custom_errors.sol\":1456:1457  i */\n      dup2\n        /* \"Labs (August)/Error_handling/custom_errors.sol\":1456:1466  i <= num/2 */\n      gt\n        /* \"Labs (August)/Error_handling/custom_errors.sol\":1440:1556  for(uint i = 2; i <= num/2; i++){... */\n      tag_32\n      jumpi\n        /* \"Labs (August)/Error_handling/custom_errors.sol\":1501:1502  0 */\n      0x00\n        /* \"Labs (August)/Error_handling/custom_errors.sol\":1496:1497  i */\n      dup2\n        /* \"Labs (August)/Error_handling/custom_errors.sol\":1490:1493  num */\n      dup5\n        /* \"Labs (August)/Error_handling/custom_errors.sol\":1490:1497  num % i */\n      tag_36\n      swap2\n      swap1\n      tag_37\n      jump\t// in\n    tag_36:\n        /* \"Labs (August)/Error_handling/custom_errors.sol\":1490:1502  num % i == 0 */\n      sub\n        /* \"Labs (August)/Error_handling/custom_errors.sol\":1487:1545  if(num % i == 0){... */\n      tag_38\n      jumpi\n        /* \"Labs (August)/Error_handling/custom_errors.sol\":1525:1529  true */\n      0x01\n        /* \"Labs (August)/Error_handling/custom_errors.sol\":1518:1529  return true */\n      swap2\n      pop\n      pop\n      jump(tag_28)\n        /* \"Labs (August)/Error_handling/custom_errors.sol\":1487:1545  if(num % i == 0){... */\n    tag_38:\n        /* \"Labs (August)/Error_handling/custom_errors.sol\":1468:1471  i++ */\n      dup1\n      dup1\n      tag_39\n      swap1\n      tag_40\n      jump\t// in\n    tag_39:\n      swap2\n      pop\n      pop\n        /* \"Labs (August)/Error_handling/custom_errors.sol\":1440:1556  for(uint i = 2; i <= num/2; i++){... */\n      jump(tag_31)\n    tag_32:\n      pop\n        /* \"Labs (August)/Error_handling/custom_errors.sol\":1573:1578  false */\n      0x00\n        /* \"Labs (August)/Error_handling/custom_errors.sol\":1566:1578  return false */\n      swap1\n      pop\n        /* \"Labs (August)/Error_handling/custom_errors.sol\":1304:1586  function IsPrime(uint num) public pure returns(bool){... */\n    tag_28:\n      swap2\n      swap1\n      pop\n      jump\t// out\n        /* \"#utility.yul\":88:205   */\n    tag_42:\n        /* \"#utility.yul\":197:198   */\n      0x00\n        /* \"#utility.yul\":194:195   */\n      dup1\n        /* \"#utility.yul\":187:199   */\n      revert\n        /* \"#utility.yul\":334:411   */\n    tag_44:\n        /* \"#utility.yul\":371:378   */\n      0x00\n        /* \"#utility.yul\":400:405   */\n      dup2\n        /* \"#utility.yul\":389:405   */\n      swap1\n      pop\n        /* \"#utility.yul\":334:411   */\n      swap2\n      swap1\n      pop\n      jump\t// out\n        /* \"#utility.yul\":417:539   */\n    tag_45:\n        /* \"#utility.yul\":490:514   */\n      tag_61\n        /* \"#utility.yul\":508:513   */\n      dup2\n        /* \"#utility.yul\":490:514   */\n      tag_44\n      jump\t// in\n    tag_61:\n        /* \"#utility.yul\":483:488   */\n      dup2\n        /* \"#utility.yul\":480:515   */\n      eq\n        /* \"#utility.yul\":470:533   */\n      tag_62\n      jumpi\n        /* \"#utility.yul\":529:530   */\n      0x00\n        /* \"#utility.yul\":526:527   */\n      dup1\n        /* \"#utility.yul\":519:531   */\n      revert\n        /* \"#utility.yul\":470:533   */\n    tag_62:\n        /* \"#utility.yul\":417:539   */\n      pop\n      jump\t// out\n        /* \"#utility.yul\":545:684   */\n    tag_46:\n        /* \"#utility.yul\":591:596   */\n      0x00\n        /* \"#utility.yul\":629:635   */\n      dup2\n        /* \"#utility.yul\":616:636   */\n      calldataload\n        /* \"#utility.yul\":607:636   */\n      swap1\n      pop\n        /* \"#utility.yul\":645:678   */\n      tag_64\n        /* \"#utility.yul\":672:677   */\n      dup2\n        /* \"#utility.yul\":645:678   */\n      tag_45\n      jump\t// in\n    tag_64:\n        /* \"#utility.yul\":545:684   */\n      swap3\n      swap2\n      pop\n      pop\n      jump\t// out\n        /* \"#utility.yul\":690:1019   */\n    tag_8:\n        /* \"#utility.yul\":749:755   */\n      0x00\n        /* \"#utility.yul\":798:800   */\n      0x20\n        /* \"#utility.yul\":786:795   */\n      dup3\n        /* \"#utility.yul\":777:784   */\n      dup5\n        /* \"#utility.yul\":773:796   */\n      sub\n        /* \"#utility.yul\":769:801   */\n      slt\n        /* \"#utility.yul\":766:885   */\n      iszero\n      tag_66\n      jumpi\n        /* \"#utility.yul\":804:883   */\n      tag_67\n      tag_42\n      jump\t// in\n    tag_67:\n        /* \"#utility.yul\":766:885   */\n    tag_66:\n        /* \"#utility.yul\":924:925   */\n      0x00\n        /* \"#utility.yul\":949:1002   */\n      tag_68\n        /* \"#utility.yul\":994:1001   */\n      dup5\n        /* \"#utility.yul\":985:991   */\n      dup3\n        /* \"#utility.yul\":974:983   */\n      dup6\n        /* \"#utility.yul\":970:992   */\n      add\n        /* \"#utility.yul\":949:1002   */\n      tag_46\n      jump\t// in\n    tag_68:\n        /* \"#utility.yul\":939:1002   */\n      swap2\n      pop\n        /* \"#utility.yul\":895:1012   */\n      pop\n        /* \"#utility.yul\":690:1019   */\n      swap3\n      swap2\n      pop\n      pop\n      jump\t// out\n        /* \"#utility.yul\":1025:1143   */\n    tag_47:\n        /* \"#utility.yul\":1112:1136   */\n      tag_70\n        /* \"#utility.yul\":1130:1135   */\n      dup2\n        /* \"#utility.yul\":1112:1136   */\n      tag_44\n      jump\t// in\n    tag_70:\n        /* \"#utility.yul\":1107:1110   */\n      dup3\n        /* \"#utility.yul\":1100:1137   */\n      mstore\n        /* \"#utility.yul\":1025:1143   */\n      pop\n      pop\n      jump\t// out\n        /* \"#utility.yul\":1149:1371   */\n    tag_14:\n        /* \"#utility.yul\":1242:1246   */\n      0x00\n        /* \"#utility.yul\":1280:1282   */\n      0x20\n        /* \"#utility.yul\":1269:1278   */\n      dup3\n        /* \"#utility.yul\":1265:1283   */\n      add\n        /* \"#utility.yul\":1257:1283   */\n      swap1\n      pop\n        /* \"#utility.yul\":1293:1364   */\n      tag_72\n        /* \"#utility.yul\":1361:1362   */\n      0x00\n        /* \"#utility.yul\":1350:1359   */\n      dup4\n        /* \"#utility.yul\":1346:1363   */\n      add\n        /* \"#utility.yul\":1337:1343   */\n      dup5\n        /* \"#utility.yul\":1293:1364   */\n      tag_47\n      jump\t// in\n    tag_72:\n        /* \"#utility.yul\":1149:1371   */\n      swap3\n      swap2\n      pop\n      pop\n      jump\t// out\n        /* \"#utility.yul\":1377:1467   */\n    tag_48:\n        /* \"#utility.yul\":1411:1418   */\n      0x00\n        /* \"#utility.yul\":1454:1459   */\n      dup2\n        /* \"#utility.yul\":1447:1460   */\n      iszero\n        /* \"#utility.yul\":1440:1461   */\n      iszero\n        /* \"#utility.yul\":1429:1461   */\n      swap1\n      pop\n        /* \"#utility.yul\":1377:1467   */\n      swap2\n      swap1\n      pop\n      jump\t// out\n        /* \"#utility.yul\":1473:1582   */\n    tag_49:\n        /* \"#utility.yul\":1554:1575   */\n      tag_75\n        /* \"#utility.yul\":1569:1574   */\n      dup2\n        /* \"#utility.yul\":1554:1575   */\n      tag_48\n      jump\t// in\n    tag_75:\n        /* \"#utility.yul\":1549:1552   */\n      dup3\n        /* \"#utility.yul\":1542:1576   */\n      mstore\n        /* \"#utility.yul\":1473:1582   */\n      pop\n      pop\n      jump\t// out\n        /* \"#utility.yul\":1588:1798   */\n    tag_19:\n        /* \"#utility.yul\":1675:1679   */\n      0x00\n        /* \"#utility.yul\":1713:1715   */\n      0x20\n        /* \"#utility.yul\":1702:1711   */\n      dup3\n        /* \"#utility.yul\":1698:1716   */\n      add\n        /* \"#utility.yul\":1690:1716   */\n      swap1\n      pop\n        /* \"#utility.yul\":1726:1791   */\n      tag_77\n        /* \"#utility.yul\":1788:1789   */\n      0x00\n        /* \"#utility.yul\":1777:1786   */\n      dup4\n        /* \"#utility.yul\":1773:1790   */\n      add\n        /* \"#utility.yul\":1764:1770   */\n      dup5\n        /* \"#utility.yul\":1726:1791   */\n      tag_49\n      jump\t// in\n    tag_77:\n        /* \"#utility.yul\":1588:1798   */\n      swap3\n      swap2\n      pop\n      pop\n      jump\t// out\n        /* \"#utility.yul\":1804:1973   */\n    tag_50:\n        /* \"#utility.yul\":1888:1899   */\n      0x00\n        /* \"#utility.yul\":1922:1928   */\n      dup3\n        /* \"#utility.yul\":1917:1920   */\n      dup3\n        /* \"#utility.yul\":1910:1929   */\n      mstore\n        /* \"#utility.yul\":1962:1966   */\n      0x20\n        /* \"#utility.yul\":1957:1960   */\n      dup3\n        /* \"#utility.yul\":1953:1967   */\n      add\n        /* \"#utility.yul\":1938:1967   */\n      swap1\n      pop\n        /* \"#utility.yul\":1804:1973   */\n      swap3\n      swap2\n      pop\n      pop\n      jump\t// out\n        /* \"#utility.yul\":1979:2161   */\n    tag_51:\n        /* \"#utility.yul\":2119:2153   */\n      0x746865206e756d626572206973206e6f742061207072696d65206e756d626572\n        /* \"#utility.yul\":2115:2116   */\n      0x00\n        /* \"#utility.yul\":2107:2113   */\n      dup3\n        /* \"#utility.yul\":2103:2117   */\n      add\n        /* \"#utility.yul\":2096:2154   */\n      mstore\n        /* \"#utility.yul\":1979:2161   */\n      pop\n      jump\t// out\n        /* \"#utility.yul\":2167:2533   */\n    tag_52:\n        /* \"#utility.yul\":2309:2312   */\n      0x00\n        /* \"#utility.yul\":2330:2397   */\n      tag_81\n        /* \"#utility.yul\":2394:2396   */\n      0x20\n        /* \"#utility.yul\":2389:2392   */\n      dup4\n        /* \"#utility.yul\":2330:2397   */\n      tag_50\n      jump\t// in\n    tag_81:\n        /* \"#utility.yul\":2323:2397   */\n      swap2\n      pop\n        /* \"#utility.yul\":2406:2499   */\n      tag_82\n        /* \"#utility.yul\":2495:2498   */\n      dup3\n        /* \"#utility.yul\":2406:2499   */\n      tag_51\n      jump\t// in\n    tag_82:\n        /* \"#utility.yul\":2524:2526   */\n      0x20\n        /* \"#utility.yul\":2519:2522   */\n      dup3\n        /* \"#utility.yul\":2515:2527   */\n      add\n        /* \"#utility.yul\":2508:2527   */\n      swap1\n      pop\n        /* \"#utility.yul\":2167:2533   */\n      swap2\n      swap1\n      pop\n      jump\t// out\n        /* \"#utility.yul\":2539:3068   */\n    tag_24:\n        /* \"#utility.yul\":2733:2737   */\n      0x00\n        /* \"#utility.yul\":2771:2773   */\n      0x40\n        /* \"#utility.yul\":2760:2769   */\n      dup3\n        /* \"#utility.yul\":2756:2774   */\n      add\n        /* \"#utility.yul\":2748:2774   */\n      swap1\n      pop\n        /* \"#utility.yul\":2820:2829   */\n      dup2\n        /* \"#utility.yul\":2814:2818   */\n      dup2\n        /* \"#utility.yul\":2810:2830   */\n      sub\n        /* \"#utility.yul\":2806:2807   */\n      0x00\n        /* \"#utility.yul\":2795:2804   */\n      dup4\n        /* \"#utility.yul\":2791:2808   */\n      add\n        /* \"#utility.yul\":2784:2831   */\n      mstore\n        /* \"#utility.yul\":2848:2979   */\n      tag_84\n        /* \"#utility.yul\":2974:2978   */\n      dup2\n        /* \"#utility.yul\":2848:2979   */\n      tag_52\n      jump\t// in\n    tag_84:\n        /* \"#utility.yul\":2840:2979   */\n      swap1\n      pop\n        /* \"#utility.yul\":2989:3061   */\n      tag_85\n        /* \"#utility.yul\":3057:3059   */\n      0x20\n        /* \"#utility.yul\":3046:3055   */\n      dup4\n        /* \"#utility.yul\":3042:3060   */\n      add\n        /* \"#utility.yul\":3033:3039   */\n      dup5\n        /* \"#utility.yul\":2989:3061   */\n      tag_47\n      jump\t// in\n    tag_85:\n        /* \"#utility.yul\":2539:3068   */\n      swap3\n      swap2\n      pop\n      pop\n      jump\t// out\n        /* \"#utility.yul\":3074:3254   */\n    tag_53:\n        /* \"#utility.yul\":3122:3199   */\n      0x4e487b7100000000000000000000000000000000000000000000000000000000\n        /* \"#utility.yul\":3119:3120   */\n      0x00\n        /* \"#utility.yul\":3112:3200   */\n      mstore\n        /* \"#utility.yul\":3219:3223   */\n      0x12\n        /* \"#utility.yul\":3216:3217   */\n      0x04\n        /* \"#utility.yul\":3209:3224   */\n      mstore\n        /* \"#utility.yul\":3243:3247   */\n      0x24\n        /* \"#utility.yul\":3240:3241   */\n      0x00\n        /* \"#utility.yul\":3233:3248   */\n      revert\n        /* \"#utility.yul\":3260:3440   */\n    tag_54:\n        /* \"#utility.yul\":3308:3385   */\n      0x4e487b7100000000000000000000000000000000000000000000000000000000\n        /* \"#utility.yul\":3305:3306   */\n      0x00\n        /* \"#utility.yul\":3298:3386   */\n      mstore\n        /* \"#utility.yul\":3405:3409   */\n      0x11\n        /* \"#utility.yul\":3402:3403   */\n      0x04\n        /* \"#utility.yul\":3395:3410   */\n      mstore\n        /* \"#utility.yul\":3429:3433   */\n      0x24\n        /* \"#utility.yul\":3426:3427   */\n      0x00\n        /* \"#utility.yul\":3419:3434   */\n      revert\n        /* \"#utility.yul\":3446:3631   */\n    tag_35:\n        /* \"#utility.yul\":3486:3487   */\n      0x00\n        /* \"#utility.yul\":3503:3523   */\n      tag_89\n        /* \"#utility.yul\":3521:3522   */\n      dup3\n        /* \"#utility.yul\":3503:3523   */\n      tag_44\n      jump\t// in\n    tag_89:\n        /* \"#utility.yul\":3498:3523   */\n      swap2\n      pop\n        /* \"#utility.yul\":3537:3557   */\n      tag_90\n        /* \"#utility.yul\":3555:3556   */\n      dup4\n        /* \"#utility.yul\":3537:3557   */\n      tag_44\n      jump\t// in\n    tag_90:\n        /* \"#utility.yul\":3532:3557   */\n      swap3\n      pop\n        /* \"#utility.yul\":3576:3577   */\n      dup3\n        /* \"#utility.yul\":3566:3601   */\n      tag_91\n      jumpi\n        /* \"#utility.yul\":3581:3599   */\n      tag_92\n      tag_53\n      jump\t// in\n    tag_92:\n        /* \"#utility.yul\":3566:3601   */\n    tag_91:\n        /* \"#utility.yul\":3623:3624   */\n      dup3\n        /* \"#utility.yul\":3620:3621   */\n      dup3\n        /* \"#utility.yul\":3616:3625   */\n      div\n        /* \"#utility.yul\":3611:3625   */\n      swap1\n      pop\n        /* \"#utility.yul\":3446:3631   */\n      swap3\n      swap2\n      pop\n      pop\n      jump\t// out\n        /* \"#utility.yul\":3637:3813   */\n    tag_37:\n        /* \"#utility.yul\":3669:3670   */\n      0x00\n        /* \"#utility.yul\":3686:3706   */\n      tag_94\n        /* \"#utility.yul\":3704:3705   */\n      dup3\n        /* \"#utility.yul\":3686:3706   */\n      tag_44\n      jump\t// in\n    tag_94:\n        /* \"#utility.yul\":3681:3706   */\n      swap2\n      pop\n        /* \"#utility.yul\":3720:3740   */\n      tag_95\n        /* \"#utility.yul\":3738:3739   */\n      dup4\n        /* \"#utility.yul\":3720:3740   */\n      tag_44\n      jump\t// in\n    tag_95:\n        /* \"#utility.yul\":3715:3740   */\n      swap3\n      pop\n        /* \"#utility.yul\":3759:3760   */\n      dup3\n        /* \"#utility.yul\":3749:3784   */\n      tag_96\n      jumpi\n        /* \"#utility.yul\":3764:3782   */\n      tag_97\n      tag_53\n      jump\t// in\n    tag_97:\n        /* \"#utility.yul\":3749:3784   */\n    tag_96:\n        /* \"#utility.yul\":3805:3806   */\n      dup3\n        /* \"#utility.yul\":3802:3803   */\n      dup3\n        /* \"#utility.yul\":3798:3807   */\n      mod\n        /* \"#utility.yul\":3793:3807   */\n      swap1\n      pop\n        /* \"#utility.yul\":3637:3813   */\n      swap3\n      swap2\n      pop\n      pop\n      jump\t// out\n        /* \"#utility.yul\":3819:4052   */\n    tag_40:\n        /* \"#utility.yul\":3858:3861   */\n      0x00\n        /* \"#utility.yul\":3881:3905   */\n      tag_99\n        /* \"#utility.yul\":3899:3904   */\n      dup3\n        /* \"#utility.yul\":3881:3905   */\n      tag_44\n      jump\t// in\n    tag_99:\n        /* \"#utility.yul\":3872:3905   */\n      swap2\n      pop\n        /* \"#utility.yul\":3927:3993   */\n      0xffffffffffffffffffffffffffffffffffffffffffffffffffffffffffffffff\n        /* \"#utility.yul\":3920:3925   */\n      dup3\n        /* \"#utility.yul\":3917:3994   */\n      sub\n        /* \"#utility.yul\":3914:4017   */\n      tag_100\n      jumpi\n        /* \"#utility.yul\":3997:4015   */\n      tag_101\n      tag_54\n      jump\t// in\n    tag_101:\n        /* \"#utility.yul\":3914:4017   */\n    tag_100:\n        /* \"#utility.yul\":4044:4045   */\n      0x01\n        /* \"#utility.yul\":4037:4042   */\n      dup3\n        /* \"#utility.yul\":4033:4046   */\n      add\n        /* \"#utility.yul\":4026:4046   */\n      swap1\n      pop\n        /* \"#utility.yul\":3819:4052   */\n      swap2\n      swap1\n      pop\n      jump\t// out\n\n    auxdata: 0xa26469706673582212209f936688893c65e8e0a7e74961d8b36434beca460c2242c447aad2510935ff5164736f6c63430008150033\n}\n",
				"bytecode": {
					"linkReferences": {},
					"object": "608060405234801561000f575f80fd5b506104398061001d5f395ff3fe608060405234801561000f575f80fd5b506004361061003f575f3560e01c8063234f0ec51461004357806371e5ee5f1461005f578063a8d4eb271461008f575b5f80fd5b61005d600480360381019061005891906101f6565b6100bf565b005b610079600480360381019061007491906101f6565b610132565b6040516100869190610230565b60405180910390f35b6100a960048036038101906100a491906101f6565b610151565b6040516100b69190610263565b60405180910390f35b6100c881610151565b1561010a57806040517f3936847d00000000000000000000000000000000000000000000000000000000815260040161010191906102d6565b60405180910390fd5b5f81908060018154018082558091505060019003905f5260205f20015f909190919091505550565b5f8181548110610140575f80fd5b905f5260205f20015f915090505481565b5f808214806101605750600182145b1561016d575f90506101ba565b5f600290505b600283610180919061035c565b81116101b5575f8184610193919061038c565b036101a25760019150506101ba565b80806101ad906103bc565b915050610173565b505f90505b919050565b5f80fd5b5f819050919050565b6101d5816101c3565b81146101df575f80fd5b50565b5f813590506101f0816101cc565b92915050565b5f6020828403121561020b5761020a6101bf565b5b5f610218848285016101e2565b91505092915050565b61022a816101c3565b82525050565b5f6020820190506102435f830184610221565b92915050565b5f8115159050919050565b61025d81610249565b82525050565b5f6020820190506102765f830184610254565b92915050565b5f82825260208201905092915050565b7f746865206e756d626572206973206e6f742061207072696d65206e756d6265725f82015250565b5f6102c060208361027c565b91506102cb8261028c565b602082019050919050565b5f6040820190508181035f8301526102ed816102b4565b90506102fc6020830184610221565b92915050565b7f4e487b71000000000000000000000000000000000000000000000000000000005f52601260045260245ffd5b7f4e487b71000000000000000000000000000000000000000000000000000000005f52601160045260245ffd5b5f610366826101c3565b9150610371836101c3565b92508261038157610380610302565b5b828204905092915050565b5f610396826101c3565b91506103a1836101c3565b9250826103b1576103b0610302565b5b828206905092915050565b5f6103c6826101c3565b91507fffffffffffffffffffffffffffffffffffffffffffffffffffffffffffffffff82036103f8576103f761032f565b5b60018201905091905056fea26469706673582212209f936688893c65e8e0a7e74961d8b36434beca460c2242c447aad2510935ff5164736f6c63430008150033",
					"opcodes": "PUSH1 0x80 PUSH1 0x40 MSTORE CALLVALUE DUP1 ISZERO PUSH2 0xF JUMPI PUSH0 DUP1 REVERT JUMPDEST POP PUSH2 0x439 DUP1 PUSH2 0x1D PUSH0 CODECOPY PUSH0 RETURN INVALID PUSH1 0x80 PUSH1 0x40 MSTORE CALLVALUE DUP1 ISZERO PUSH2 0xF JUMPI PUSH0 DUP1 REVERT JUMPDEST POP PUSH1 0x4 CALLDATASIZE LT PUSH2 0x3F JUMPI PUSH0 CALLDATALOAD PUSH1 0xE0 SHR DUP1 PUSH4 0x234F0EC5 EQ PUSH2 0x43 JUMPI DUP1 PUSH4 0x71E5EE5F EQ PUSH2 0x5F JUMPI DUP1 PUSH4 0xA8D4EB27 EQ PUSH2 0x8F JUMPI JUMPDEST PUSH0 DUP1 REVERT JUMPDEST PUSH2 0x5D PUSH1 0x4 DUP1 CALLDATASIZE SUB DUP2 ADD SWAP1 PUSH2 0x58 SWAP2 SWAP1 PUSH2 0x1F6 JUMP JUMPDEST PUSH2 0xBF JUMP JUMPDEST STOP JUMPDEST PUSH2 0x79 PUSH1 0x4 DUP1 CALLDATASIZE SUB DUP2 ADD SWAP1 PUSH2 0x74 SWAP2 SWAP1 PUSH2 0x1F6 JUMP JUMPDEST PUSH2 0x132 JUMP JUMPDEST PUSH1 0x40 MLOAD PUSH2 0x86 SWAP2 SWAP1 PUSH2 0x230 JUMP JUMPDEST PUSH1 0x40 MLOAD DUP1 SWAP2 SUB SWAP1 RETURN JUMPDEST PUSH2 0xA9 PUSH1 0x4 DUP1 CALLDATASIZE SUB DUP2 ADD SWAP1 PUSH2 0xA4 SWAP2 SWAP1 PUSH2 0x1F6 JUMP JUMPDEST PUSH2 0x151 JUMP JUMPDEST PUSH1 0x40 MLOAD PUSH2 0xB6 SWAP2 SWAP1 PUSH2 0x263 JUMP JUMPDEST PUSH1 0x40 MLOAD DUP1 SWAP2 SUB SWAP1 RETURN JUMPDEST PUSH2 0xC8 DUP2 PUSH2 0x151 JUMP JUMPDEST ISZERO PUSH2 0x10A JUMPI DUP1 PUSH1 0x40 MLOAD PUSH32 0x3936847D00000000000000000000000000000000000000000000000000000000 DUP2 MSTORE PUSH1 0x4 ADD PUSH2 0x101 SWAP2 SWAP1 PUSH2 0x2D6 JUMP JUMPDEST PUSH1 0x40 MLOAD DUP1 SWAP2 SUB SWAP1 REVERT JUMPDEST PUSH0 DUP2 SWAP1 DUP1 PUSH1 0x1 DUP2 SLOAD ADD DUP1 DUP3 SSTORE DUP1 SWAP2 POP POP PUSH1 0x1 SWAP1 SUB SWAP1 PUSH0 MSTORE PUSH1 0x20 PUSH0 KECCAK256 ADD PUSH0 SWAP1 SWAP2 SWAP1 SWAP2 SWAP1 SWAP2 POP SSTORE POP JUMP JUMPDEST PUSH0 DUP2 DUP2 SLOAD DUP2 LT PUSH2 0x140 JUMPI PUSH0 DUP1 REVERT JUMPDEST SWAP1 PUSH0 MSTORE PUSH1 0x20 PUSH0 KECCAK256 ADD PUSH0 SWAP2 POP SWAP1 POP SLOAD DUP2 JUMP JUMPDEST PUSH0 DUP1 DUP3 EQ DUP1 PUSH2 0x160 JUMPI POP PUSH1 0x1 DUP3 EQ JUMPDEST ISZERO PUSH2 0x16D JUMPI PUSH0 SWAP1 POP PUSH2 0x1BA JUMP JUMPDEST PUSH0 PUSH1 0x2 SWAP1 POP JUMPDEST PUSH1 0x2 DUP4 PUSH2 0x180 SWAP2 SWAP1 PUSH2 0x35C JUMP JUMPDEST DUP2 GT PUSH2 0x1B5 JUMPI PUSH0 DUP2 DUP5 PUSH2 0x193 SWAP2 SWAP1 PUSH2 0x38C JUMP JUMPDEST SUB PUSH2 0x1A2 JUMPI PUSH1 0x1 SWAP2 POP POP PUSH2 0x1BA JUMP JUMPDEST DUP1 DUP1 PUSH2 0x1AD SWAP1 PUSH2 0x3BC JUMP JUMPDEST SWAP2 POP POP PUSH2 0x173 JUMP JUMPDEST POP PUSH0 SWAP1 POP JUMPDEST SWAP2 SWAP1 POP JUMP JUMPDEST PUSH0 DUP1 REVERT JUMPDEST PUSH0 DUP2 SWAP1 POP SWAP2 SWAP1 POP JUMP JUMPDEST PUSH2 0x1D5 DUP2 PUSH2 0x1C3 JUMP JUMPDEST DUP2 EQ PUSH2 0x1DF JUMPI PUSH0 DUP1 REVERT JUMPDEST POP JUMP JUMPDEST PUSH0 DUP2 CALLDATALOAD SWAP1 POP PUSH2 0x1F0 DUP2 PUSH2 0x1CC JUMP JUMPDEST SWAP3 SWAP2 POP POP JUMP JUMPDEST PUSH0 PUSH1 0x20 DUP3 DUP5 SUB SLT ISZERO PUSH2 0x20B JUMPI PUSH2 0x20A PUSH2 0x1BF JUMP JUMPDEST JUMPDEST PUSH0 PUSH2 0x218 DUP5 DUP3 DUP6 ADD PUSH2 0x1E2 JUMP JUMPDEST SWAP2 POP POP SWAP3 SWAP2 POP POP JUMP JUMPDEST PUSH2 0x22A DUP2 PUSH2 0x1C3 JUMP JUMPDEST DUP3 MSTORE POP POP JUMP JUMPDEST PUSH0 PUSH1 0x20 DUP3 ADD SWAP1 POP PUSH2 0x243 PUSH0 DUP4 ADD DUP5 PUSH2 0x221 JUMP JUMPDEST SWAP3 SWAP2 POP POP JUMP JUMPDEST PUSH0 DUP2 ISZERO ISZERO SWAP1 POP SWAP2 SWAP1 POP JUMP JUMPDEST PUSH2 0x25D DUP2 PUSH2 0x249 JUMP JUMPDEST DUP3 MSTORE POP POP JUMP JUMPDEST PUSH0 PUSH1 0x20 DUP3 ADD SWAP1 POP PUSH2 0x276 PUSH0 DUP4 ADD DUP5 PUSH2 0x254 JUMP JUMPDEST SWAP3 SWAP2 POP POP JUMP JUMPDEST PUSH0 DUP3 DUP3 MSTORE PUSH1 0x20 DUP3 ADD SWAP1 POP SWAP3 SWAP2 POP POP JUMP JUMPDEST PUSH32 0x746865206E756D626572206973206E6F742061207072696D65206E756D626572 PUSH0 DUP3 ADD MSTORE POP JUMP JUMPDEST PUSH0 PUSH2 0x2C0 PUSH1 0x20 DUP4 PUSH2 0x27C JUMP JUMPDEST SWAP2 POP PUSH2 0x2CB DUP3 PUSH2 0x28C JUMP JUMPDEST PUSH1 0x20 DUP3 ADD SWAP1 POP SWAP2 SWAP1 POP JUMP JUMPDEST PUSH0 PUSH1 0x40 DUP3 ADD SWAP1 POP DUP2 DUP2 SUB PUSH0 DUP4 ADD MSTORE PUSH2 0x2ED DUP2 PUSH2 0x2B4 JUMP JUMPDEST SWAP1 POP PUSH2 0x2FC PUSH1 0x20 DUP4 ADD DUP5 PUSH2 0x221 JUMP JUMPDEST SWAP3 SWAP2 POP POP JUMP JUMPDEST PUSH32 0x4E487B7100000000000000000000000000000000000000000000000000000000 PUSH0 MSTORE PUSH1 0x12 PUSH1 0x4 MSTORE PUSH1 0x24 PUSH0 REVERT JUMPDEST PUSH32 0x4E487B7100000000000000000000000000000000000000000000000000000000 PUSH0 MSTORE PUSH1 0x11 PUSH1 0x4 MSTORE PUSH1 0x24 PUSH0 REVERT JUMPDEST PUSH0 PUSH2 0x366 DUP3 PUSH2 0x1C3 JUMP JUMPDEST SWAP2 POP PUSH2 0x371 DUP4 PUSH2 0x1C3 JUMP JUMPDEST SWAP3 POP DUP3 PUSH2 0x381 JUMPI PUSH2 0x380 PUSH2 0x302 JUMP JUMPDEST JUMPDEST DUP3 DUP3 DIV SWAP1 POP SWAP3 SWAP2 POP POP JUMP JUMPDEST PUSH0 PUSH2 0x396 DUP3 PUSH2 0x1C3 JUMP JUMPDEST SWAP2 POP PUSH2 0x3A1 DUP4 PUSH2 0x1C3 JUMP JUMPDEST SWAP3 POP DUP3 PUSH2 0x3B1 JUMPI PUSH2 0x3B0 PUSH2 0x302 JUMP JUMPDEST JUMPDEST DUP3 DUP3 MOD SWAP1 POP SWAP3 SWAP2 POP POP JUMP JUMPDEST PUSH0 PUSH2 0x3C6 DUP3 PUSH2 0x1C3 JUMP JUMPDEST SWAP2 POP PUSH32 0xFFFFFFFFFFFFFFFFFFFFFFFFFFFFFFFFFFFFFFFFFFFFFFFFFFFFFFFFFFFFFFFF DUP3 SUB PUSH2 0x3F8 JUMPI PUSH2 0x3F7 PUSH2 0x32F JUMP JUMPDEST JUMPDEST PUSH1 0x1 DUP3 ADD SWAP1 POP SWAP2 SWAP1 POP JUMP INVALID LOG2 PUSH5 0x6970667358 0x22 SLT KECCAK256 SWAP16 SWAP4 PUSH7 0x88893C65E8E0A7 0xE7 0x49 PUSH2 0xD8B3 PUSH5 0x34BECA460C 0x22 TIMESTAMP 0xC4 SELFBALANCE 0xAA 0xD2 MLOAD MULMOD CALLDATALOAD SELFDESTRUCT MLOAD PUSH5 0x736F6C6343 STOP ADDMOD ISZERO STOP CALLER "
				},
				"gasEstimates": {
					"creation": {
						"codeDepositCost": "216200",
						"executionCost": "255",
						"totalCost": "216455"
					},
					"external": {
						"IsPrime(uint256)": "infinite",
						"arr(uint256)": "infinite",
						"upush(uint256)": "infinite"
					}
				},
				"methodIdentifiers": {
					"IsPrime(uint256)": "a8d4eb27",
					"arr(uint256)": "71e5ee5f",
					"upush(uint256)": "234f0ec5"
				}
			},
			"storageLayout": {
				"storage": [
					{
						"astId": 70,
						"contract": "Labs (August)/Error_handling/custom_errors.sol:Error_custom",
						"label": "arr",
						"offset": 0,
						"slot": "0",
						"type": "t_array(t_uint256)dyn_storage"
					}
				],
				"types": {
					"t_array(t_uint256)dyn_storage": {
						"base": "t_uint256",
						"encoding": "dynamic_array",
						"label": "uint256[]",
						"numberOfBytes": "32"
					},
					"t_uint256": {
						"encoding": "inplace",
						"label": "uint256",
						"numberOfBytes": "32"
					}
				}
			},
			"userdoc": {
				"kind": "user",
				"methods": {},
				"version": 1
			}
		}
	}
}