{
	"Labs (August)/try_catch_library/newKeyword.sol": {
		"patientlist": {
			"abi": [
				{
					"inputs": [],
					"stateMutability": "nonpayable",
					"type": "constructor"
				},
				{
					"inputs": [
						{
							"internalType": "uint256",
							"name": "",
							"type": "uint256"
						}
					],
					"name": "list",
					"outputs": [
						{
							"internalType": "contract HMS",
							"name": "",
							"type": "address"
						}
					],
					"stateMutability": "view",
					"type": "function"
				},
				{
					"inputs": [
						{
							"internalType": "string",
							"name": "_name",
							"type": "string"
						},
						{
							"internalType": "uint256",
							"name": "_age",
							"type": "uint256"
						},
						{
							"internalType": "string",
							"name": "_disease",
							"type": "string"
						}
					],
					"name": "newIn",
					"outputs": [],
					"stateMutability": "nonpayable",
					"type": "function"
				}
			],
			"devdoc": {
				"kind": "dev",
				"methods": {},
				"version": 1
			},
			"evm": {
				"assembly": "    /* \"Labs (August)/try_catch_library/newKeyword.sol\":854:1185  contract patientlist{... */\n  mstore(0x40, 0x80)\n    /* \"Labs (August)/try_catch_library/newKeyword.sol\":1056:1058  33 */\n  0x21\n    /* \"Labs (August)/try_catch_library/newKeyword.sol\":1041:1067  new HMS('John',33,'fever') */\n  mload(0x40)\n  tag_1\n  swap1\n  tag_2\n  jump\t// in\ntag_1:\n  tag_3\n  swap2\n  swap1\n  tag_4\n  jump\t// in\ntag_3:\n  mload(0x40)\n  dup1\n  swap2\n  sub\n  swap1\n  0x00\n  create\n  dup1\n  iszero\n  dup1\n  iszero\n  tag_5\n  jumpi\n  returndatasize\n  0x00\n  dup1\n  returndatacopy\n  revert(0x00, returndatasize)\ntag_5:\n  pop\n    /* \"Labs (August)/try_catch_library/newKeyword.sol\":1023:1067  HMS newpatients = new HMS('John',33,'fever') */\n  0x01\n  exp(0x0100, 0x00)\n  dup2\n  sload\n  dup2\n  0xffffffffffffffffffffffffffffffffffffffff\n  mul\n  not\n  and\n  swap1\n  dup4\n  0xffffffffffffffffffffffffffffffffffffffff\n  and\n  mul\n  or\n  swap1\n  sstore\n  pop\n    /* \"Labs (August)/try_catch_library/newKeyword.sol\":918:1015  constructor (){... */\n  callvalue\n  dup1\n  iszero\n  tag_6\n  jumpi\n  0x00\n  dup1\n  revert\ntag_6:\n  pop\n    /* \"Labs (August)/try_catch_library/newKeyword.sol\":939:950  HMS newpati */\n  0x00\n    /* \"Labs (August)/try_catch_library/newKeyword.sol\":968:970  33 */\n  0x21\n    /* \"Labs (August)/try_catch_library/newKeyword.sol\":953:982  new HMS('John',33,'headache') */\n  mload(0x40)\n  tag_9\n  swap1\n  tag_2\n  jump\t// in\ntag_9:\n  tag_10\n  swap2\n  swap1\n  tag_11\n  jump\t// in\ntag_10:\n  mload(0x40)\n  dup1\n  swap2\n  sub\n  swap1\n  0x00\n  create\n  dup1\n  iszero\n  dup1\n  iszero\n  tag_12\n  jumpi\n  returndatasize\n  0x00\n  dup1\n  returndatacopy\n  revert(0x00, returndatasize)\ntag_12:\n  pop\n    /* \"Labs (August)/try_catch_library/newKeyword.sol\":939:982  HMS newpati = new HMS('John',33,'headache') */\n  swap1\n  pop\n    /* \"Labs (August)/try_catch_library/newKeyword.sol\":989:993  list */\n  0x00\n    /* \"Labs (August)/try_catch_library/newKeyword.sol\":999:1006  newpati */\n  dup2\n    /* \"Labs (August)/try_catch_library/newKeyword.sol\":989:1007  list.push(newpati) */\n  swap1\n  dup1\n  0x01\n  dup2\n  sload\n  add\n  dup1\n  dup3\n  sstore\n  dup1\n  swap2\n  pop\n  pop\n  0x01\n  swap1\n  sub\n  swap1\n  0x00\n  mstore\n  keccak256(0x00, 0x20)\n  add\n  0x00\n  swap1\n  swap2\n  swap1\n  swap2\n  swap1\n  swap2\n  0x0100\n  exp\n  dup2\n  sload\n  dup2\n  0xffffffffffffffffffffffffffffffffffffffff\n  mul\n  not\n  and\n  swap1\n  dup4\n  0xffffffffffffffffffffffffffffffffffffffff\n  and\n  mul\n  or\n  swap1\n  sstore\n  pop\n    /* \"Labs (August)/try_catch_library/newKeyword.sol\":932:1015  {... */\n  pop\n    /* \"Labs (August)/try_catch_library/newKeyword.sol\":854:1185  contract patientlist{... */\n  jump(tag_14)\ntag_2:\n  dataSize(sub_1)\n  dup1\n  dataOffset(sub_1)\n  dup4\n  codecopy\n  add\n  swap1\n  jump\t// out\n    /* \"#utility.yul\":7:176   */\ntag_15:\n    /* \"#utility.yul\":91:102   */\n  0x00\n    /* \"#utility.yul\":125:131   */\n  dup3\n    /* \"#utility.yul\":120:123   */\n  dup3\n    /* \"#utility.yul\":113:132   */\n  mstore\n    /* \"#utility.yul\":165:169   */\n  0x20\n    /* \"#utility.yul\":160:163   */\n  dup3\n    /* \"#utility.yul\":156:170   */\n  add\n    /* \"#utility.yul\":141:170   */\n  swap1\n  pop\n    /* \"#utility.yul\":7:176   */\n  swap3\n  swap2\n  pop\n  pop\n  jump\t// out\n    /* \"#utility.yul\":182:336   */\ntag_16:\n    /* \"#utility.yul\":322:328   */\n  0x4a6f686e00000000000000000000000000000000000000000000000000000000\n    /* \"#utility.yul\":318:319   */\n  0x00\n    /* \"#utility.yul\":310:316   */\n  dup3\n    /* \"#utility.yul\":306:320   */\n  add\n    /* \"#utility.yul\":299:329   */\n  mstore\n    /* \"#utility.yul\":182:336   */\n  pop\n  jump\t// out\n    /* \"#utility.yul\":342:707   */\ntag_17:\n    /* \"#utility.yul\":484:487   */\n  0x00\n    /* \"#utility.yul\":505:571   */\n  tag_31\n    /* \"#utility.yul\":569:570   */\n  0x04\n    /* \"#utility.yul\":564:567   */\n  dup4\n    /* \"#utility.yul\":505:571   */\n  tag_15\n  jump\t// in\ntag_31:\n    /* \"#utility.yul\":498:571   */\n  swap2\n  pop\n    /* \"#utility.yul\":580:673   */\n  tag_32\n    /* \"#utility.yul\":669:672   */\n  dup3\n    /* \"#utility.yul\":580:673   */\n  tag_16\n  jump\t// in\ntag_32:\n    /* \"#utility.yul\":698:700   */\n  0x20\n    /* \"#utility.yul\":693:696   */\n  dup3\n    /* \"#utility.yul\":689:701   */\n  add\n    /* \"#utility.yul\":682:701   */\n  swap1\n  pop\n    /* \"#utility.yul\":342:707   */\n  swap2\n  swap1\n  pop\n  jump\t// out\n    /* \"#utility.yul\":713:799   */\ntag_18:\n    /* \"#utility.yul\":759:766   */\n  0x00\n    /* \"#utility.yul\":788:793   */\n  dup2\n    /* \"#utility.yul\":777:793   */\n  swap1\n  pop\n    /* \"#utility.yul\":713:799   */\n  swap2\n  swap1\n  pop\n  jump\t// out\n    /* \"#utility.yul\":805:882   */\ntag_19:\n    /* \"#utility.yul\":842:849   */\n  0x00\n    /* \"#utility.yul\":871:876   */\n  dup2\n    /* \"#utility.yul\":860:876   */\n  swap1\n  pop\n    /* \"#utility.yul\":805:882   */\n  swap2\n  swap1\n  pop\n  jump\t// out\n    /* \"#utility.yul\":888:948   */\ntag_20:\n    /* \"#utility.yul\":916:919   */\n  0x00\n    /* \"#utility.yul\":937:942   */\n  dup2\n    /* \"#utility.yul\":930:942   */\n  swap1\n  pop\n    /* \"#utility.yul\":888:948   */\n  swap2\n  swap1\n  pop\n  jump\t// out\n    /* \"#utility.yul\":954:1114   */\ntag_21:\n    /* \"#utility.yul\":1013:1022   */\n  0x00\n    /* \"#utility.yul\":1046:1108   */\n  tag_37\n    /* \"#utility.yul\":1064:1107   */\n  tag_38\n    /* \"#utility.yul\":1073:1106   */\n  tag_39\n    /* \"#utility.yul\":1100:1105   */\n  dup5\n    /* \"#utility.yul\":1073:1106   */\n  tag_18\n  jump\t// in\ntag_39:\n    /* \"#utility.yul\":1064:1107   */\n  tag_20\n  jump\t// in\ntag_38:\n    /* \"#utility.yul\":1046:1108   */\n  tag_19\n  jump\t// in\ntag_37:\n    /* \"#utility.yul\":1033:1108   */\n  swap1\n  pop\n    /* \"#utility.yul\":954:1114   */\n  swap2\n  swap1\n  pop\n  jump\t// out\n    /* \"#utility.yul\":1120:1269   */\ntag_22:\n    /* \"#utility.yul\":1216:1262   */\n  tag_41\n    /* \"#utility.yul\":1256:1261   */\n  dup2\n    /* \"#utility.yul\":1216:1262   */\n  tag_21\n  jump\t// in\ntag_41:\n    /* \"#utility.yul\":1211:1214   */\n  dup3\n    /* \"#utility.yul\":1204:1263   */\n  mstore\n    /* \"#utility.yul\":1120:1269   */\n  pop\n  pop\n  jump\t// out\n    /* \"#utility.yul\":1275:1430   */\ntag_23:\n    /* \"#utility.yul\":1415:1422   */\n  0x6665766572000000000000000000000000000000000000000000000000000000\n    /* \"#utility.yul\":1411:1412   */\n  0x00\n    /* \"#utility.yul\":1403:1409   */\n  dup3\n    /* \"#utility.yul\":1399:1413   */\n  add\n    /* \"#utility.yul\":1392:1423   */\n  mstore\n    /* \"#utility.yul\":1275:1430   */\n  pop\n  jump\t// out\n    /* \"#utility.yul\":1436:1801   */\ntag_24:\n    /* \"#utility.yul\":1578:1581   */\n  0x00\n    /* \"#utility.yul\":1599:1665   */\n  tag_44\n    /* \"#utility.yul\":1663:1664   */\n  0x05\n    /* \"#utility.yul\":1658:1661   */\n  dup4\n    /* \"#utility.yul\":1599:1665   */\n  tag_15\n  jump\t// in\ntag_44:\n    /* \"#utility.yul\":1592:1665   */\n  swap2\n  pop\n    /* \"#utility.yul\":1674:1767   */\n  tag_45\n    /* \"#utility.yul\":1763:1766   */\n  dup3\n    /* \"#utility.yul\":1674:1767   */\n  tag_23\n  jump\t// in\ntag_45:\n    /* \"#utility.yul\":1792:1794   */\n  0x20\n    /* \"#utility.yul\":1787:1790   */\n  dup3\n    /* \"#utility.yul\":1783:1795   */\n  add\n    /* \"#utility.yul\":1776:1795   */\n  swap1\n  pop\n    /* \"#utility.yul\":1436:1801   */\n  swap2\n  swap1\n  pop\n  jump\t// out\n    /* \"#utility.yul\":1807:2661   */\ntag_4:\n    /* \"#utility.yul\":2111:2115   */\n  0x00\n    /* \"#utility.yul\":2149:2151   */\n  0x60\n    /* \"#utility.yul\":2138:2147   */\n  dup3\n    /* \"#utility.yul\":2134:2152   */\n  add\n    /* \"#utility.yul\":2126:2152   */\n  swap1\n  pop\n    /* \"#utility.yul\":2198:2207   */\n  dup2\n    /* \"#utility.yul\":2192:2196   */\n  dup2\n    /* \"#utility.yul\":2188:2208   */\n  sub\n    /* \"#utility.yul\":2184:2185   */\n  0x00\n    /* \"#utility.yul\":2173:2182   */\n  dup4\n    /* \"#utility.yul\":2169:2186   */\n  add\n    /* \"#utility.yul\":2162:2209   */\n  mstore\n    /* \"#utility.yul\":2226:2357   */\n  tag_47\n    /* \"#utility.yul\":2352:2356   */\n  dup2\n    /* \"#utility.yul\":2226:2357   */\n  tag_17\n  jump\t// in\ntag_47:\n    /* \"#utility.yul\":2218:2357   */\n  swap1\n  pop\n    /* \"#utility.yul\":2367:2448   */\n  tag_48\n    /* \"#utility.yul\":2444:2446   */\n  0x20\n    /* \"#utility.yul\":2433:2442   */\n  dup4\n    /* \"#utility.yul\":2429:2447   */\n  add\n    /* \"#utility.yul\":2420:2426   */\n  dup5\n    /* \"#utility.yul\":2367:2448   */\n  tag_22\n  jump\t// in\ntag_48:\n    /* \"#utility.yul\":2495:2504   */\n  dup2\n    /* \"#utility.yul\":2489:2493   */\n  dup2\n    /* \"#utility.yul\":2485:2505   */\n  sub\n    /* \"#utility.yul\":2480:2482   */\n  0x40\n    /* \"#utility.yul\":2469:2478   */\n  dup4\n    /* \"#utility.yul\":2465:2483   */\n  add\n    /* \"#utility.yul\":2458:2506   */\n  mstore\n    /* \"#utility.yul\":2523:2654   */\n  tag_49\n    /* \"#utility.yul\":2649:2653   */\n  dup2\n    /* \"#utility.yul\":2523:2654   */\n  tag_24\n  jump\t// in\ntag_49:\n    /* \"#utility.yul\":2515:2654   */\n  swap1\n  pop\n    /* \"#utility.yul\":1807:2661   */\n  swap3\n  swap2\n  pop\n  pop\n  jump\t// out\n    /* \"#utility.yul\":2667:2825   */\ntag_25:\n    /* \"#utility.yul\":2807:2817   */\n  0x6865616461636865000000000000000000000000000000000000000000000000\n    /* \"#utility.yul\":2803:2804   */\n  0x00\n    /* \"#utility.yul\":2795:2801   */\n  dup3\n    /* \"#utility.yul\":2791:2805   */\n  add\n    /* \"#utility.yul\":2784:2818   */\n  mstore\n    /* \"#utility.yul\":2667:2825   */\n  pop\n  jump\t// out\n    /* \"#utility.yul\":2831:3196   */\ntag_26:\n    /* \"#utility.yul\":2973:2976   */\n  0x00\n    /* \"#utility.yul\":2994:3060   */\n  tag_52\n    /* \"#utility.yul\":3058:3059   */\n  0x08\n    /* \"#utility.yul\":3053:3056   */\n  dup4\n    /* \"#utility.yul\":2994:3060   */\n  tag_15\n  jump\t// in\ntag_52:\n    /* \"#utility.yul\":2987:3060   */\n  swap2\n  pop\n    /* \"#utility.yul\":3069:3162   */\n  tag_53\n    /* \"#utility.yul\":3158:3161   */\n  dup3\n    /* \"#utility.yul\":3069:3162   */\n  tag_25\n  jump\t// in\ntag_53:\n    /* \"#utility.yul\":3187:3189   */\n  0x20\n    /* \"#utility.yul\":3182:3185   */\n  dup3\n    /* \"#utility.yul\":3178:3190   */\n  add\n    /* \"#utility.yul\":3171:3190   */\n  swap1\n  pop\n    /* \"#utility.yul\":2831:3196   */\n  swap2\n  swap1\n  pop\n  jump\t// out\n    /* \"#utility.yul\":3202:4056   */\ntag_11:\n    /* \"#utility.yul\":3506:3510   */\n  0x00\n    /* \"#utility.yul\":3544:3546   */\n  0x60\n    /* \"#utility.yul\":3533:3542   */\n  dup3\n    /* \"#utility.yul\":3529:3547   */\n  add\n    /* \"#utility.yul\":3521:3547   */\n  swap1\n  pop\n    /* \"#utility.yul\":3593:3602   */\n  dup2\n    /* \"#utility.yul\":3587:3591   */\n  dup2\n    /* \"#utility.yul\":3583:3603   */\n  sub\n    /* \"#utility.yul\":3579:3580   */\n  0x00\n    /* \"#utility.yul\":3568:3577   */\n  dup4\n    /* \"#utility.yul\":3564:3581   */\n  add\n    /* \"#utility.yul\":3557:3604   */\n  mstore\n    /* \"#utility.yul\":3621:3752   */\n  tag_55\n    /* \"#utility.yul\":3747:3751   */\n  dup2\n    /* \"#utility.yul\":3621:3752   */\n  tag_17\n  jump\t// in\ntag_55:\n    /* \"#utility.yul\":3613:3752   */\n  swap1\n  pop\n    /* \"#utility.yul\":3762:3843   */\n  tag_56\n    /* \"#utility.yul\":3839:3841   */\n  0x20\n    /* \"#utility.yul\":3828:3837   */\n  dup4\n    /* \"#utility.yul\":3824:3842   */\n  add\n    /* \"#utility.yul\":3815:3821   */\n  dup5\n    /* \"#utility.yul\":3762:3843   */\n  tag_22\n  jump\t// in\ntag_56:\n    /* \"#utility.yul\":3890:3899   */\n  dup2\n    /* \"#utility.yul\":3884:3888   */\n  dup2\n    /* \"#utility.yul\":3880:3900   */\n  sub\n    /* \"#utility.yul\":3875:3877   */\n  0x40\n    /* \"#utility.yul\":3864:3873   */\n  dup4\n    /* \"#utility.yul\":3860:3878   */\n  add\n    /* \"#utility.yul\":3853:3901   */\n  mstore\n    /* \"#utility.yul\":3918:4049   */\n  tag_57\n    /* \"#utility.yul\":4044:4048   */\n  dup2\n    /* \"#utility.yul\":3918:4049   */\n  tag_26\n  jump\t// in\ntag_57:\n    /* \"#utility.yul\":3910:4049   */\n  swap1\n  pop\n    /* \"#utility.yul\":3202:4056   */\n  swap3\n  swap2\n  pop\n  pop\n  jump\t// out\n    /* \"Labs (August)/try_catch_library/newKeyword.sol\":854:1185  contract patientlist{... */\ntag_14:\n  dataSize(sub_0)\n  dup1\n  dataOffset(sub_0)\n  0x00\n  codecopy\n  0x00\n  return\nstop\n\nsub_0: assembly {\n        /* \"Labs (August)/try_catch_library/newKeyword.sol\":854:1185  contract patientlist{... */\n      mstore(0x40, 0x80)\n      callvalue\n      dup1\n      iszero\n      tag_1\n      jumpi\n      0x00\n      dup1\n      revert\n    tag_1:\n      pop\n      jumpi(tag_2, lt(calldatasize, 0x04))\n      shr(0xe0, calldataload(0x00))\n      dup1\n      0x80c9419e\n      eq\n      tag_3\n      jumpi\n      dup1\n      0x8956645e\n      eq\n      tag_4\n      jumpi\n    tag_2:\n      0x00\n      dup1\n      revert\n        /* \"Labs (August)/try_catch_library/newKeyword.sol\":887:904  HMS[] public list */\n    tag_3:\n      tag_5\n      0x04\n      dup1\n      calldatasize\n      sub\n      dup2\n      add\n      swap1\n      tag_6\n      swap2\n      swap1\n      tag_7\n      jump\t// in\n    tag_6:\n      tag_8\n      jump\t// in\n    tag_5:\n      mload(0x40)\n      tag_9\n      swap2\n      swap1\n      tag_10\n      jump\t// in\n    tag_9:\n      mload(0x40)\n      dup1\n      swap2\n      sub\n      swap1\n      return\n        /* \"Labs (August)/try_catch_library/newKeyword.sol\":1080:1180  function newIn(string memory _name,uint _age, string memory _disease)public {... */\n    tag_4:\n      tag_11\n      0x04\n      dup1\n      calldatasize\n      sub\n      dup2\n      add\n      swap1\n      tag_12\n      swap2\n      swap1\n      tag_13\n      jump\t// in\n    tag_12:\n      tag_14\n      jump\t// in\n    tag_11:\n      stop\n        /* \"Labs (August)/try_catch_library/newKeyword.sol\":887:904  HMS[] public list */\n    tag_8:\n      0x00\n      dup2\n      dup2\n      sload\n      dup2\n      lt\n      tag_15\n      jumpi\n      0x00\n      dup1\n      revert\n    tag_15:\n      swap1\n      0x00\n      mstore\n      keccak256(0x00, 0x20)\n      add\n      0x00\n      swap2\n      pop\n      sload\n      swap1\n      0x0100\n      exp\n      swap1\n      div\n      0xffffffffffffffffffffffffffffffffffffffff\n      and\n      dup2\n      jump\t// out\n        /* \"Labs (August)/try_catch_library/newKeyword.sol\":1080:1180  function newIn(string memory _name,uint _age, string memory _disease)public {... */\n    tag_14:\n      pop\n      pop\n      pop\n      jump\t// out\n        /* \"#utility.yul\":7:82   */\n    tag_18:\n        /* \"#utility.yul\":40:46   */\n      0x00\n        /* \"#utility.yul\":73:75   */\n      0x40\n        /* \"#utility.yul\":67:76   */\n      mload\n        /* \"#utility.yul\":57:76   */\n      swap1\n      pop\n        /* \"#utility.yul\":7:82   */\n      swap1\n      jump\t// out\n        /* \"#utility.yul\":88:205   */\n    tag_19:\n        /* \"#utility.yul\":197:198   */\n      0x00\n        /* \"#utility.yul\":194:195   */\n      dup1\n        /* \"#utility.yul\":187:199   */\n      revert\n        /* \"#utility.yul\":211:328   */\n    tag_20:\n        /* \"#utility.yul\":320:321   */\n      0x00\n        /* \"#utility.yul\":317:318   */\n      dup1\n        /* \"#utility.yul\":310:322   */\n      revert\n        /* \"#utility.yul\":334:411   */\n    tag_21:\n        /* \"#utility.yul\":371:378   */\n      0x00\n        /* \"#utility.yul\":400:405   */\n      dup2\n        /* \"#utility.yul\":389:405   */\n      swap1\n      pop\n        /* \"#utility.yul\":334:411   */\n      swap2\n      swap1\n      pop\n      jump\t// out\n        /* \"#utility.yul\":417:539   */\n    tag_22:\n        /* \"#utility.yul\":490:514   */\n      tag_46\n        /* \"#utility.yul\":508:513   */\n      dup2\n        /* \"#utility.yul\":490:514   */\n      tag_21\n      jump\t// in\n    tag_46:\n        /* \"#utility.yul\":483:488   */\n      dup2\n        /* \"#utility.yul\":480:515   */\n      eq\n        /* \"#utility.yul\":470:533   */\n      tag_47\n      jumpi\n        /* \"#utility.yul\":529:530   */\n      0x00\n        /* \"#utility.yul\":526:527   */\n      dup1\n        /* \"#utility.yul\":519:531   */\n      revert\n        /* \"#utility.yul\":470:533   */\n    tag_47:\n        /* \"#utility.yul\":417:539   */\n      pop\n      jump\t// out\n        /* \"#utility.yul\":545:684   */\n    tag_23:\n        /* \"#utility.yul\":591:596   */\n      0x00\n        /* \"#utility.yul\":629:635   */\n      dup2\n        /* \"#utility.yul\":616:636   */\n      calldataload\n        /* \"#utility.yul\":607:636   */\n      swap1\n      pop\n        /* \"#utility.yul\":645:678   */\n      tag_49\n        /* \"#utility.yul\":672:677   */\n      dup2\n        /* \"#utility.yul\":645:678   */\n      tag_22\n      jump\t// in\n    tag_49:\n        /* \"#utility.yul\":545:684   */\n      swap3\n      swap2\n      pop\n      pop\n      jump\t// out\n        /* \"#utility.yul\":690:1019   */\n    tag_7:\n        /* \"#utility.yul\":749:755   */\n      0x00\n        /* \"#utility.yul\":798:800   */\n      0x20\n        /* \"#utility.yul\":786:795   */\n      dup3\n        /* \"#utility.yul\":777:784   */\n      dup5\n        /* \"#utility.yul\":773:796   */\n      sub\n        /* \"#utility.yul\":769:801   */\n      slt\n        /* \"#utility.yul\":766:885   */\n      iszero\n      tag_51\n      jumpi\n        /* \"#utility.yul\":804:883   */\n      tag_52\n      tag_19\n      jump\t// in\n    tag_52:\n        /* \"#utility.yul\":766:885   */\n    tag_51:\n        /* \"#utility.yul\":924:925   */\n      0x00\n        /* \"#utility.yul\":949:1002   */\n      tag_53\n        /* \"#utility.yul\":994:1001   */\n      dup5\n        /* \"#utility.yul\":985:991   */\n      dup3\n        /* \"#utility.yul\":974:983   */\n      dup6\n        /* \"#utility.yul\":970:992   */\n      add\n        /* \"#utility.yul\":949:1002   */\n      tag_23\n      jump\t// in\n    tag_53:\n        /* \"#utility.yul\":939:1002   */\n      swap2\n      pop\n        /* \"#utility.yul\":895:1012   */\n      pop\n        /* \"#utility.yul\":690:1019   */\n      swap3\n      swap2\n      pop\n      pop\n      jump\t// out\n        /* \"#utility.yul\":1025:1151   */\n    tag_24:\n        /* \"#utility.yul\":1062:1069   */\n      0x00\n        /* \"#utility.yul\":1102:1144   */\n      0xffffffffffffffffffffffffffffffffffffffff\n        /* \"#utility.yul\":1095:1100   */\n      dup3\n        /* \"#utility.yul\":1091:1145   */\n      and\n        /* \"#utility.yul\":1080:1145   */\n      swap1\n      pop\n        /* \"#utility.yul\":1025:1151   */\n      swap2\n      swap1\n      pop\n      jump\t// out\n        /* \"#utility.yul\":1157:1217   */\n    tag_25:\n        /* \"#utility.yul\":1185:1188   */\n      0x00\n        /* \"#utility.yul\":1206:1211   */\n      dup2\n        /* \"#utility.yul\":1199:1211   */\n      swap1\n      pop\n        /* \"#utility.yul\":1157:1217   */\n      swap2\n      swap1\n      pop\n      jump\t// out\n        /* \"#utility.yul\":1223:1365   */\n    tag_26:\n        /* \"#utility.yul\":1273:1282   */\n      0x00\n        /* \"#utility.yul\":1306:1359   */\n      tag_57\n        /* \"#utility.yul\":1324:1358   */\n      tag_58\n        /* \"#utility.yul\":1333:1357   */\n      tag_59\n        /* \"#utility.yul\":1351:1356   */\n      dup5\n        /* \"#utility.yul\":1333:1357   */\n      tag_24\n      jump\t// in\n    tag_59:\n        /* \"#utility.yul\":1324:1358   */\n      tag_25\n      jump\t// in\n    tag_58:\n        /* \"#utility.yul\":1306:1359   */\n      tag_24\n      jump\t// in\n    tag_57:\n        /* \"#utility.yul\":1293:1359   */\n      swap1\n      pop\n        /* \"#utility.yul\":1223:1365   */\n      swap2\n      swap1\n      pop\n      jump\t// out\n        /* \"#utility.yul\":1371:1497   */\n    tag_27:\n        /* \"#utility.yul\":1421:1430   */\n      0x00\n        /* \"#utility.yul\":1454:1491   */\n      tag_61\n        /* \"#utility.yul\":1485:1490   */\n      dup3\n        /* \"#utility.yul\":1454:1491   */\n      tag_26\n      jump\t// in\n    tag_61:\n        /* \"#utility.yul\":1441:1491   */\n      swap1\n      pop\n        /* \"#utility.yul\":1371:1497   */\n      swap2\n      swap1\n      pop\n      jump\t// out\n        /* \"#utility.yul\":1503:1639   */\n    tag_28:\n        /* \"#utility.yul\":1563:1572   */\n      0x00\n        /* \"#utility.yul\":1596:1633   */\n      tag_63\n        /* \"#utility.yul\":1627:1632   */\n      dup3\n        /* \"#utility.yul\":1596:1633   */\n      tag_27\n      jump\t// in\n    tag_63:\n        /* \"#utility.yul\":1583:1633   */\n      swap1\n      pop\n        /* \"#utility.yul\":1503:1639   */\n      swap2\n      swap1\n      pop\n      jump\t// out\n        /* \"#utility.yul\":1645:1796   */\n    tag_29:\n        /* \"#utility.yul\":1742:1789   */\n      tag_65\n        /* \"#utility.yul\":1783:1788   */\n      dup2\n        /* \"#utility.yul\":1742:1789   */\n      tag_28\n      jump\t// in\n    tag_65:\n        /* \"#utility.yul\":1737:1740   */\n      dup3\n        /* \"#utility.yul\":1730:1790   */\n      mstore\n        /* \"#utility.yul\":1645:1796   */\n      pop\n      pop\n      jump\t// out\n        /* \"#utility.yul\":1802:2044   */\n    tag_10:\n        /* \"#utility.yul\":1905:1909   */\n      0x00\n        /* \"#utility.yul\":1943:1945   */\n      0x20\n        /* \"#utility.yul\":1932:1941   */\n      dup3\n        /* \"#utility.yul\":1928:1946   */\n      add\n        /* \"#utility.yul\":1920:1946   */\n      swap1\n      pop\n        /* \"#utility.yul\":1956:2037   */\n      tag_67\n        /* \"#utility.yul\":2034:2035   */\n      0x00\n        /* \"#utility.yul\":2023:2032   */\n      dup4\n        /* \"#utility.yul\":2019:2036   */\n      add\n        /* \"#utility.yul\":2010:2016   */\n      dup5\n        /* \"#utility.yul\":1956:2037   */\n      tag_29\n      jump\t// in\n    tag_67:\n        /* \"#utility.yul\":1802:2044   */\n      swap3\n      swap2\n      pop\n      pop\n      jump\t// out\n        /* \"#utility.yul\":2050:2167   */\n    tag_30:\n        /* \"#utility.yul\":2159:2160   */\n      0x00\n        /* \"#utility.yul\":2156:2157   */\n      dup1\n        /* \"#utility.yul\":2149:2161   */\n      revert\n        /* \"#utility.yul\":2173:2290   */\n    tag_31:\n        /* \"#utility.yul\":2282:2283   */\n      0x00\n        /* \"#utility.yul\":2279:2280   */\n      dup1\n        /* \"#utility.yul\":2272:2284   */\n      revert\n        /* \"#utility.yul\":2296:2398   */\n    tag_32:\n        /* \"#utility.yul\":2337:2343   */\n      0x00\n        /* \"#utility.yul\":2388:2390   */\n      0x1f\n        /* \"#utility.yul\":2384:2391   */\n      not\n        /* \"#utility.yul\":2379:2381   */\n      0x1f\n        /* \"#utility.yul\":2372:2377   */\n      dup4\n        /* \"#utility.yul\":2368:2382   */\n      add\n        /* \"#utility.yul\":2364:2392   */\n      and\n        /* \"#utility.yul\":2354:2392   */\n      swap1\n      pop\n        /* \"#utility.yul\":2296:2398   */\n      swap2\n      swap1\n      pop\n      jump\t// out\n        /* \"#utility.yul\":2404:2584   */\n    tag_33:\n        /* \"#utility.yul\":2452:2529   */\n      0x4e487b7100000000000000000000000000000000000000000000000000000000\n        /* \"#utility.yul\":2449:2450   */\n      0x00\n        /* \"#utility.yul\":2442:2530   */\n      mstore\n        /* \"#utility.yul\":2549:2553   */\n      0x41\n        /* \"#utility.yul\":2546:2547   */\n      0x04\n        /* \"#utility.yul\":2539:2554   */\n      mstore\n        /* \"#utility.yul\":2573:2577   */\n      0x24\n        /* \"#utility.yul\":2570:2571   */\n      0x00\n        /* \"#utility.yul\":2563:2578   */\n      revert\n        /* \"#utility.yul\":2590:2871   */\n    tag_34:\n        /* \"#utility.yul\":2673:2700   */\n      tag_73\n        /* \"#utility.yul\":2695:2699   */\n      dup3\n        /* \"#utility.yul\":2673:2700   */\n      tag_32\n      jump\t// in\n    tag_73:\n        /* \"#utility.yul\":2665:2671   */\n      dup2\n        /* \"#utility.yul\":2661:2701   */\n      add\n        /* \"#utility.yul\":2803:2809   */\n      dup2\n        /* \"#utility.yul\":2791:2801   */\n      dup2\n        /* \"#utility.yul\":2788:2810   */\n      lt\n        /* \"#utility.yul\":2767:2785   */\n      0xffffffffffffffff\n        /* \"#utility.yul\":2755:2765   */\n      dup3\n        /* \"#utility.yul\":2752:2786   */\n      gt\n        /* \"#utility.yul\":2749:2811   */\n      or\n        /* \"#utility.yul\":2746:2834   */\n      iszero\n      tag_74\n      jumpi\n        /* \"#utility.yul\":2814:2832   */\n      tag_75\n      tag_33\n      jump\t// in\n    tag_75:\n        /* \"#utility.yul\":2746:2834   */\n    tag_74:\n        /* \"#utility.yul\":2854:2864   */\n      dup1\n        /* \"#utility.yul\":2850:2852   */\n      0x40\n        /* \"#utility.yul\":2843:2865   */\n      mstore\n        /* \"#utility.yul\":2633:2871   */\n      pop\n        /* \"#utility.yul\":2590:2871   */\n      pop\n      pop\n      jump\t// out\n        /* \"#utility.yul\":2877:3006   */\n    tag_35:\n        /* \"#utility.yul\":2911:2917   */\n      0x00\n        /* \"#utility.yul\":2938:2958   */\n      tag_77\n      tag_18\n      jump\t// in\n    tag_77:\n        /* \"#utility.yul\":2928:2958   */\n      swap1\n      pop\n        /* \"#utility.yul\":2967:3000   */\n      tag_78\n        /* \"#utility.yul\":2995:2999   */\n      dup3\n        /* \"#utility.yul\":2987:2993   */\n      dup3\n        /* \"#utility.yul\":2967:3000   */\n      tag_34\n      jump\t// in\n    tag_78:\n        /* \"#utility.yul\":2877:3006   */\n      swap2\n      swap1\n      pop\n      jump\t// out\n        /* \"#utility.yul\":3012:3320   */\n    tag_36:\n        /* \"#utility.yul\":3074:3078   */\n      0x00\n        /* \"#utility.yul\":3164:3182   */\n      0xffffffffffffffff\n        /* \"#utility.yul\":3156:3162   */\n      dup3\n        /* \"#utility.yul\":3153:3183   */\n      gt\n        /* \"#utility.yul\":3150:3206   */\n      iszero\n      tag_80\n      jumpi\n        /* \"#utility.yul\":3186:3204   */\n      tag_81\n      tag_33\n      jump\t// in\n    tag_81:\n        /* \"#utility.yul\":3150:3206   */\n    tag_80:\n        /* \"#utility.yul\":3224:3253   */\n      tag_82\n        /* \"#utility.yul\":3246:3252   */\n      dup3\n        /* \"#utility.yul\":3224:3253   */\n      tag_32\n      jump\t// in\n    tag_82:\n        /* \"#utility.yul\":3216:3253   */\n      swap1\n      pop\n        /* \"#utility.yul\":3308:3312   */\n      0x20\n        /* \"#utility.yul\":3302:3306   */\n      dup2\n        /* \"#utility.yul\":3298:3313   */\n      add\n        /* \"#utility.yul\":3290:3313   */\n      swap1\n      pop\n        /* \"#utility.yul\":3012:3320   */\n      swap2\n      swap1\n      pop\n      jump\t// out\n        /* \"#utility.yul\":3326:3472   */\n    tag_37:\n        /* \"#utility.yul\":3423:3429   */\n      dup3\n        /* \"#utility.yul\":3418:3421   */\n      dup2\n        /* \"#utility.yul\":3413:3416   */\n      dup4\n        /* \"#utility.yul\":3400:3430   */\n      calldatacopy\n        /* \"#utility.yul\":3464:3465   */\n      0x00\n        /* \"#utility.yul\":3455:3461   */\n      dup4\n        /* \"#utility.yul\":3450:3453   */\n      dup4\n        /* \"#utility.yul\":3446:3462   */\n      add\n        /* \"#utility.yul\":3439:3466   */\n      mstore\n        /* \"#utility.yul\":3326:3472   */\n      pop\n      pop\n      pop\n      jump\t// out\n        /* \"#utility.yul\":3478:3903   */\n    tag_38:\n        /* \"#utility.yul\":3556:3561   */\n      0x00\n        /* \"#utility.yul\":3581:3647   */\n      tag_85\n        /* \"#utility.yul\":3597:3646   */\n      tag_86\n        /* \"#utility.yul\":3639:3645   */\n      dup5\n        /* \"#utility.yul\":3597:3646   */\n      tag_36\n      jump\t// in\n    tag_86:\n        /* \"#utility.yul\":3581:3647   */\n      tag_35\n      jump\t// in\n    tag_85:\n        /* \"#utility.yul\":3572:3647   */\n      swap1\n      pop\n        /* \"#utility.yul\":3670:3676   */\n      dup3\n        /* \"#utility.yul\":3663:3668   */\n      dup2\n        /* \"#utility.yul\":3656:3677   */\n      mstore\n        /* \"#utility.yul\":3708:3712   */\n      0x20\n        /* \"#utility.yul\":3701:3706   */\n      dup2\n        /* \"#utility.yul\":3697:3713   */\n      add\n        /* \"#utility.yul\":3746:3749   */\n      dup5\n        /* \"#utility.yul\":3737:3743   */\n      dup5\n        /* \"#utility.yul\":3732:3735   */\n      dup5\n        /* \"#utility.yul\":3728:3744   */\n      add\n        /* \"#utility.yul\":3725:3750   */\n      gt\n        /* \"#utility.yul\":3722:3834   */\n      iszero\n      tag_87\n      jumpi\n        /* \"#utility.yul\":3753:3832   */\n      tag_88\n      tag_31\n      jump\t// in\n    tag_88:\n        /* \"#utility.yul\":3722:3834   */\n    tag_87:\n        /* \"#utility.yul\":3843:3897   */\n      tag_89\n        /* \"#utility.yul\":3890:3896   */\n      dup5\n        /* \"#utility.yul\":3885:3888   */\n      dup3\n        /* \"#utility.yul\":3880:3883   */\n      dup6\n        /* \"#utility.yul\":3843:3897   */\n      tag_37\n      jump\t// in\n    tag_89:\n        /* \"#utility.yul\":3562:3903   */\n      pop\n        /* \"#utility.yul\":3478:3903   */\n      swap4\n      swap3\n      pop\n      pop\n      pop\n      jump\t// out\n        /* \"#utility.yul\":3923:4263   */\n    tag_39:\n        /* \"#utility.yul\":3979:3984   */\n      0x00\n        /* \"#utility.yul\":4028:4031   */\n      dup3\n        /* \"#utility.yul\":4021:4025   */\n      0x1f\n        /* \"#utility.yul\":4013:4019   */\n      dup4\n        /* \"#utility.yul\":4009:4026   */\n      add\n        /* \"#utility.yul\":4005:4032   */\n      slt\n        /* \"#utility.yul\":3995:4117   */\n      tag_91\n      jumpi\n        /* \"#utility.yul\":4036:4115   */\n      tag_92\n      tag_30\n      jump\t// in\n    tag_92:\n        /* \"#utility.yul\":3995:4117   */\n    tag_91:\n        /* \"#utility.yul\":4153:4159   */\n      dup2\n        /* \"#utility.yul\":4140:4160   */\n      calldataload\n        /* \"#utility.yul\":4178:4257   */\n      tag_93\n        /* \"#utility.yul\":4253:4256   */\n      dup5\n        /* \"#utility.yul\":4245:4251   */\n      dup3\n        /* \"#utility.yul\":4238:4242   */\n      0x20\n        /* \"#utility.yul\":4230:4236   */\n      dup7\n        /* \"#utility.yul\":4226:4243   */\n      add\n        /* \"#utility.yul\":4178:4257   */\n      tag_38\n      jump\t// in\n    tag_93:\n        /* \"#utility.yul\":4169:4257   */\n      swap2\n      pop\n        /* \"#utility.yul\":3985:4263   */\n      pop\n        /* \"#utility.yul\":3923:4263   */\n      swap3\n      swap2\n      pop\n      pop\n      jump\t// out\n        /* \"#utility.yul\":4269:5248   */\n    tag_13:\n        /* \"#utility.yul\":4366:4372   */\n      0x00\n        /* \"#utility.yul\":4374:4380   */\n      dup1\n        /* \"#utility.yul\":4382:4388   */\n      0x00\n        /* \"#utility.yul\":4431:4433   */\n      0x60\n        /* \"#utility.yul\":4419:4428   */\n      dup5\n        /* \"#utility.yul\":4410:4417   */\n      dup7\n        /* \"#utility.yul\":4406:4429   */\n      sub\n        /* \"#utility.yul\":4402:4434   */\n      slt\n        /* \"#utility.yul\":4399:4518   */\n      iszero\n      tag_95\n      jumpi\n        /* \"#utility.yul\":4437:4516   */\n      tag_96\n      tag_19\n      jump\t// in\n    tag_96:\n        /* \"#utility.yul\":4399:4518   */\n    tag_95:\n        /* \"#utility.yul\":4585:4586   */\n      0x00\n        /* \"#utility.yul\":4574:4583   */\n      dup5\n        /* \"#utility.yul\":4570:4587   */\n      add\n        /* \"#utility.yul\":4557:4588   */\n      calldataload\n        /* \"#utility.yul\":4615:4633   */\n      0xffffffffffffffff\n        /* \"#utility.yul\":4607:4613   */\n      dup2\n        /* \"#utility.yul\":4604:4634   */\n      gt\n        /* \"#utility.yul\":4601:4718   */\n      iszero\n      tag_97\n      jumpi\n        /* \"#utility.yul\":4637:4716   */\n      tag_98\n      tag_20\n      jump\t// in\n    tag_98:\n        /* \"#utility.yul\":4601:4718   */\n    tag_97:\n        /* \"#utility.yul\":4742:4805   */\n      tag_99\n        /* \"#utility.yul\":4797:4804   */\n      dup7\n        /* \"#utility.yul\":4788:4794   */\n      dup3\n        /* \"#utility.yul\":4777:4786   */\n      dup8\n        /* \"#utility.yul\":4773:4795   */\n      add\n        /* \"#utility.yul\":4742:4805   */\n      tag_39\n      jump\t// in\n    tag_99:\n        /* \"#utility.yul\":4732:4805   */\n      swap4\n      pop\n        /* \"#utility.yul\":4528:4815   */\n      pop\n        /* \"#utility.yul\":4854:4856   */\n      0x20\n        /* \"#utility.yul\":4880:4933   */\n      tag_100\n        /* \"#utility.yul\":4925:4932   */\n      dup7\n        /* \"#utility.yul\":4916:4922   */\n      dup3\n        /* \"#utility.yul\":4905:4914   */\n      dup8\n        /* \"#utility.yul\":4901:4923   */\n      add\n        /* \"#utility.yul\":4880:4933   */\n      tag_23\n      jump\t// in\n    tag_100:\n        /* \"#utility.yul\":4870:4933   */\n      swap3\n      pop\n        /* \"#utility.yul\":4825:4943   */\n      pop\n        /* \"#utility.yul\":5010:5012   */\n      0x40\n        /* \"#utility.yul\":4999:5008   */\n      dup5\n        /* \"#utility.yul\":4995:5013   */\n      add\n        /* \"#utility.yul\":4982:5014   */\n      calldataload\n        /* \"#utility.yul\":5041:5059   */\n      0xffffffffffffffff\n        /* \"#utility.yul\":5033:5039   */\n      dup2\n        /* \"#utility.yul\":5030:5060   */\n      gt\n        /* \"#utility.yul\":5027:5144   */\n      iszero\n      tag_101\n      jumpi\n        /* \"#utility.yul\":5063:5142   */\n      tag_102\n      tag_20\n      jump\t// in\n    tag_102:\n        /* \"#utility.yul\":5027:5144   */\n    tag_101:\n        /* \"#utility.yul\":5168:5231   */\n      tag_103\n        /* \"#utility.yul\":5223:5230   */\n      dup7\n        /* \"#utility.yul\":5214:5220   */\n      dup3\n        /* \"#utility.yul\":5203:5212   */\n      dup8\n        /* \"#utility.yul\":5199:5221   */\n      add\n        /* \"#utility.yul\":5168:5231   */\n      tag_39\n      jump\t// in\n    tag_103:\n        /* \"#utility.yul\":5158:5231   */\n      swap2\n      pop\n        /* \"#utility.yul\":4953:5241   */\n      pop\n        /* \"#utility.yul\":4269:5248   */\n      swap3\n      pop\n      swap3\n      pop\n      swap3\n      jump\t// out\n\n    auxdata: 0xa264697066735822122079a6ce6f896b790ec1339a85a21238fb45000b0c7502128d724b6c78f4d1d41864736f6c63430008120033\n}\n\nsub_1: assembly {\n        /* \"Labs (August)/try_catch_library/newKeyword.sol\":568:850  contract HMS{       //Hospital Management System... */\n      mstore(0x40, 0x80)\n        /* \"Labs (August)/try_catch_library/newKeyword.sol\":700:845  constructor(string memory _name,uint _age, string memory _disease){... */\n      callvalue\n      dup1\n      iszero\n      tag_1\n      jumpi\n      0x00\n      dup1\n      revert\n    tag_1:\n      pop\n      mload(0x40)\n      sub(codesize, bytecodeSize)\n      dup1\n      bytecodeSize\n      dup4\n      codecopy\n      dup2\n      dup2\n      add\n      0x40\n      mstore\n      dup2\n      add\n      swap1\n      tag_2\n      swap2\n      swap1\n      tag_3\n      jump\t// in\n    tag_2:\n        /* \"Labs (August)/try_catch_library/newKeyword.sol\":783:788  _name */\n      dup3\n        /* \"Labs (August)/try_catch_library/newKeyword.sol\":777:781  name */\n      0x00\n        /* \"Labs (August)/try_catch_library/newKeyword.sol\":777:788  name= _name */\n      swap1\n      dup2\n      tag_6\n      swap2\n      swap1\n      tag_7\n      jump\t// in\n    tag_6:\n      pop\n        /* \"Labs (August)/try_catch_library/newKeyword.sol\":805:809  _age */\n      dup2\n        /* \"Labs (August)/try_catch_library/newKeyword.sol\":799:802  age */\n      0x01\n        /* \"Labs (August)/try_catch_library/newKeyword.sol\":799:809  age = _age */\n      dup2\n      swap1\n      sstore\n      pop\n        /* \"Labs (August)/try_catch_library/newKeyword.sol\":829:837  _disease */\n      dup1\n        /* \"Labs (August)/try_catch_library/newKeyword.sol\":820:827  disease */\n      0x02\n        /* \"Labs (August)/try_catch_library/newKeyword.sol\":820:837  disease= _disease */\n      swap1\n      dup2\n      tag_8\n      swap2\n      swap1\n      tag_7\n      jump\t// in\n    tag_8:\n      pop\n        /* \"Labs (August)/try_catch_library/newKeyword.sol\":700:845  constructor(string memory _name,uint _age, string memory _disease){... */\n      pop\n      pop\n      pop\n        /* \"Labs (August)/try_catch_library/newKeyword.sol\":568:850  contract HMS{       //Hospital Management System... */\n      jump(tag_9)\n        /* \"#utility.yul\":7:82   */\n    tag_10:\n        /* \"#utility.yul\":40:46   */\n      0x00\n        /* \"#utility.yul\":73:75   */\n      0x40\n        /* \"#utility.yul\":67:76   */\n      mload\n        /* \"#utility.yul\":57:76   */\n      swap1\n      pop\n        /* \"#utility.yul\":7:82   */\n      swap1\n      jump\t// out\n        /* \"#utility.yul\":88:205   */\n    tag_11:\n        /* \"#utility.yul\":197:198   */\n      0x00\n        /* \"#utility.yul\":194:195   */\n      dup1\n        /* \"#utility.yul\":187:199   */\n      revert\n        /* \"#utility.yul\":211:328   */\n    tag_12:\n        /* \"#utility.yul\":320:321   */\n      0x00\n        /* \"#utility.yul\":317:318   */\n      dup1\n        /* \"#utility.yul\":310:322   */\n      revert\n        /* \"#utility.yul\":334:451   */\n    tag_13:\n        /* \"#utility.yul\":443:444   */\n      0x00\n        /* \"#utility.yul\":440:441   */\n      dup1\n        /* \"#utility.yul\":433:445   */\n      revert\n        /* \"#utility.yul\":457:574   */\n    tag_14:\n        /* \"#utility.yul\":566:567   */\n      0x00\n        /* \"#utility.yul\":563:564   */\n      dup1\n        /* \"#utility.yul\":556:568   */\n      revert\n        /* \"#utility.yul\":580:682   */\n    tag_15:\n        /* \"#utility.yul\":621:627   */\n      0x00\n        /* \"#utility.yul\":672:674   */\n      0x1f\n        /* \"#utility.yul\":668:675   */\n      not\n        /* \"#utility.yul\":663:665   */\n      0x1f\n        /* \"#utility.yul\":656:661   */\n      dup4\n        /* \"#utility.yul\":652:666   */\n      add\n        /* \"#utility.yul\":648:676   */\n      and\n        /* \"#utility.yul\":638:676   */\n      swap1\n      pop\n        /* \"#utility.yul\":580:682   */\n      swap2\n      swap1\n      pop\n      jump\t// out\n        /* \"#utility.yul\":688:868   */\n    tag_16:\n        /* \"#utility.yul\":736:813   */\n      0x4e487b7100000000000000000000000000000000000000000000000000000000\n        /* \"#utility.yul\":733:734   */\n      0x00\n        /* \"#utility.yul\":726:814   */\n      mstore\n        /* \"#utility.yul\":833:837   */\n      0x41\n        /* \"#utility.yul\":830:831   */\n      0x04\n        /* \"#utility.yul\":823:838   */\n      mstore\n        /* \"#utility.yul\":857:861   */\n      0x24\n        /* \"#utility.yul\":854:855   */\n      0x00\n        /* \"#utility.yul\":847:862   */\n      revert\n        /* \"#utility.yul\":874:1155   */\n    tag_17:\n        /* \"#utility.yul\":957:984   */\n      tag_53\n        /* \"#utility.yul\":979:983   */\n      dup3\n        /* \"#utility.yul\":957:984   */\n      tag_15\n      jump\t// in\n    tag_53:\n        /* \"#utility.yul\":949:955   */\n      dup2\n        /* \"#utility.yul\":945:985   */\n      add\n        /* \"#utility.yul\":1087:1093   */\n      dup2\n        /* \"#utility.yul\":1075:1085   */\n      dup2\n        /* \"#utility.yul\":1072:1094   */\n      lt\n        /* \"#utility.yul\":1051:1069   */\n      0xffffffffffffffff\n        /* \"#utility.yul\":1039:1049   */\n      dup3\n        /* \"#utility.yul\":1036:1070   */\n      gt\n        /* \"#utility.yul\":1033:1095   */\n      or\n        /* \"#utility.yul\":1030:1118   */\n      iszero\n      tag_54\n      jumpi\n        /* \"#utility.yul\":1098:1116   */\n      tag_55\n      tag_16\n      jump\t// in\n    tag_55:\n        /* \"#utility.yul\":1030:1118   */\n    tag_54:\n        /* \"#utility.yul\":1138:1148   */\n      dup1\n        /* \"#utility.yul\":1134:1136   */\n      0x40\n        /* \"#utility.yul\":1127:1149   */\n      mstore\n        /* \"#utility.yul\":917:1155   */\n      pop\n        /* \"#utility.yul\":874:1155   */\n      pop\n      pop\n      jump\t// out\n        /* \"#utility.yul\":1161:1290   */\n    tag_18:\n        /* \"#utility.yul\":1195:1201   */\n      0x00\n        /* \"#utility.yul\":1222:1242   */\n      tag_57\n      tag_10\n      jump\t// in\n    tag_57:\n        /* \"#utility.yul\":1212:1242   */\n      swap1\n      pop\n        /* \"#utility.yul\":1251:1284   */\n      tag_58\n        /* \"#utility.yul\":1279:1283   */\n      dup3\n        /* \"#utility.yul\":1271:1277   */\n      dup3\n        /* \"#utility.yul\":1251:1284   */\n      tag_17\n      jump\t// in\n    tag_58:\n        /* \"#utility.yul\":1161:1290   */\n      swap2\n      swap1\n      pop\n      jump\t// out\n        /* \"#utility.yul\":1296:1604   */\n    tag_19:\n        /* \"#utility.yul\":1358:1362   */\n      0x00\n        /* \"#utility.yul\":1448:1466   */\n      0xffffffffffffffff\n        /* \"#utility.yul\":1440:1446   */\n      dup3\n        /* \"#utility.yul\":1437:1467   */\n      gt\n        /* \"#utility.yul\":1434:1490   */\n      iszero\n      tag_60\n      jumpi\n        /* \"#utility.yul\":1470:1488   */\n      tag_61\n      tag_16\n      jump\t// in\n    tag_61:\n        /* \"#utility.yul\":1434:1490   */\n    tag_60:\n        /* \"#utility.yul\":1508:1537   */\n      tag_62\n        /* \"#utility.yul\":1530:1536   */\n      dup3\n        /* \"#utility.yul\":1508:1537   */\n      tag_15\n      jump\t// in\n    tag_62:\n        /* \"#utility.yul\":1500:1537   */\n      swap1\n      pop\n        /* \"#utility.yul\":1592:1596   */\n      0x20\n        /* \"#utility.yul\":1586:1590   */\n      dup2\n        /* \"#utility.yul\":1582:1597   */\n      add\n        /* \"#utility.yul\":1574:1597   */\n      swap1\n      pop\n        /* \"#utility.yul\":1296:1604   */\n      swap2\n      swap1\n      pop\n      jump\t// out\n        /* \"#utility.yul\":1610:1856   */\n    tag_20:\n        /* \"#utility.yul\":1691:1692   */\n      0x00\n        /* \"#utility.yul\":1701:1814   */\n    tag_64:\n        /* \"#utility.yul\":1715:1721   */\n      dup4\n        /* \"#utility.yul\":1712:1713   */\n      dup2\n        /* \"#utility.yul\":1709:1722   */\n      lt\n        /* \"#utility.yul\":1701:1814   */\n      iszero\n      tag_66\n      jumpi\n        /* \"#utility.yul\":1800:1801   */\n      dup1\n        /* \"#utility.yul\":1795:1798   */\n      dup3\n        /* \"#utility.yul\":1791:1802   */\n      add\n        /* \"#utility.yul\":1785:1803   */\n      mload\n        /* \"#utility.yul\":1781:1782   */\n      dup2\n        /* \"#utility.yul\":1776:1779   */\n      dup5\n        /* \"#utility.yul\":1772:1783   */\n      add\n        /* \"#utility.yul\":1765:1804   */\n      mstore\n        /* \"#utility.yul\":1737:1739   */\n      0x20\n        /* \"#utility.yul\":1734:1735   */\n      dup2\n        /* \"#utility.yul\":1730:1740   */\n      add\n        /* \"#utility.yul\":1725:1740   */\n      swap1\n      pop\n        /* \"#utility.yul\":1701:1814   */\n      jump(tag_64)\n    tag_66:\n        /* \"#utility.yul\":1848:1849   */\n      0x00\n        /* \"#utility.yul\":1839:1845   */\n      dup5\n        /* \"#utility.yul\":1834:1837   */\n      dup5\n        /* \"#utility.yul\":1830:1846   */\n      add\n        /* \"#utility.yul\":1823:1850   */\n      mstore\n        /* \"#utility.yul\":1672:1856   */\n      pop\n        /* \"#utility.yul\":1610:1856   */\n      pop\n      pop\n      pop\n      jump\t// out\n        /* \"#utility.yul\":1862:2296   */\n    tag_21:\n        /* \"#utility.yul\":1951:1956   */\n      0x00\n        /* \"#utility.yul\":1976:2042   */\n      tag_68\n        /* \"#utility.yul\":1992:2041   */\n      tag_69\n        /* \"#utility.yul\":2034:2040   */\n      dup5\n        /* \"#utility.yul\":1992:2041   */\n      tag_19\n      jump\t// in\n    tag_69:\n        /* \"#utility.yul\":1976:2042   */\n      tag_18\n      jump\t// in\n    tag_68:\n        /* \"#utility.yul\":1967:2042   */\n      swap1\n      pop\n        /* \"#utility.yul\":2065:2071   */\n      dup3\n        /* \"#utility.yul\":2058:2063   */\n      dup2\n        /* \"#utility.yul\":2051:2072   */\n      mstore\n        /* \"#utility.yul\":2103:2107   */\n      0x20\n        /* \"#utility.yul\":2096:2101   */\n      dup2\n        /* \"#utility.yul\":2092:2108   */\n      add\n        /* \"#utility.yul\":2141:2144   */\n      dup5\n        /* \"#utility.yul\":2132:2138   */\n      dup5\n        /* \"#utility.yul\":2127:2130   */\n      dup5\n        /* \"#utility.yul\":2123:2139   */\n      add\n        /* \"#utility.yul\":2120:2145   */\n      gt\n        /* \"#utility.yul\":2117:2229   */\n      iszero\n      tag_70\n      jumpi\n        /* \"#utility.yul\":2148:2227   */\n      tag_71\n      tag_14\n      jump\t// in\n    tag_71:\n        /* \"#utility.yul\":2117:2229   */\n    tag_70:\n        /* \"#utility.yul\":2238:2290   */\n      tag_72\n        /* \"#utility.yul\":2283:2289   */\n      dup5\n        /* \"#utility.yul\":2278:2281   */\n      dup3\n        /* \"#utility.yul\":2273:2276   */\n      dup6\n        /* \"#utility.yul\":2238:2290   */\n      tag_20\n      jump\t// in\n    tag_72:\n        /* \"#utility.yul\":1957:2296   */\n      pop\n        /* \"#utility.yul\":1862:2296   */\n      swap4\n      swap3\n      pop\n      pop\n      pop\n      jump\t// out\n        /* \"#utility.yul\":2316:2671   */\n    tag_22:\n        /* \"#utility.yul\":2383:2388   */\n      0x00\n        /* \"#utility.yul\":2432:2435   */\n      dup3\n        /* \"#utility.yul\":2425:2429   */\n      0x1f\n        /* \"#utility.yul\":2417:2423   */\n      dup4\n        /* \"#utility.yul\":2413:2430   */\n      add\n        /* \"#utility.yul\":2409:2436   */\n      slt\n        /* \"#utility.yul\":2399:2521   */\n      tag_74\n      jumpi\n        /* \"#utility.yul\":2440:2519   */\n      tag_75\n      tag_13\n      jump\t// in\n    tag_75:\n        /* \"#utility.yul\":2399:2521   */\n    tag_74:\n        /* \"#utility.yul\":2550:2556   */\n      dup2\n        /* \"#utility.yul\":2544:2557   */\n      mload\n        /* \"#utility.yul\":2575:2665   */\n      tag_76\n        /* \"#utility.yul\":2661:2664   */\n      dup5\n        /* \"#utility.yul\":2653:2659   */\n      dup3\n        /* \"#utility.yul\":2646:2650   */\n      0x20\n        /* \"#utility.yul\":2638:2644   */\n      dup7\n        /* \"#utility.yul\":2634:2651   */\n      add\n        /* \"#utility.yul\":2575:2665   */\n      tag_21\n      jump\t// in\n    tag_76:\n        /* \"#utility.yul\":2566:2665   */\n      swap2\n      pop\n        /* \"#utility.yul\":2389:2671   */\n      pop\n        /* \"#utility.yul\":2316:2671   */\n      swap3\n      swap2\n      pop\n      pop\n      jump\t// out\n        /* \"#utility.yul\":2677:2754   */\n    tag_23:\n        /* \"#utility.yul\":2714:2721   */\n      0x00\n        /* \"#utility.yul\":2743:2748   */\n      dup2\n        /* \"#utility.yul\":2732:2748   */\n      swap1\n      pop\n        /* \"#utility.yul\":2677:2754   */\n      swap2\n      swap1\n      pop\n      jump\t// out\n        /* \"#utility.yul\":2760:2882   */\n    tag_24:\n        /* \"#utility.yul\":2833:2857   */\n      tag_79\n        /* \"#utility.yul\":2851:2856   */\n      dup2\n        /* \"#utility.yul\":2833:2857   */\n      tag_23\n      jump\t// in\n    tag_79:\n        /* \"#utility.yul\":2826:2831   */\n      dup2\n        /* \"#utility.yul\":2823:2858   */\n      eq\n        /* \"#utility.yul\":2813:2876   */\n      tag_80\n      jumpi\n        /* \"#utility.yul\":2872:2873   */\n      0x00\n        /* \"#utility.yul\":2869:2870   */\n      dup1\n        /* \"#utility.yul\":2862:2874   */\n      revert\n        /* \"#utility.yul\":2813:2876   */\n    tag_80:\n        /* \"#utility.yul\":2760:2882   */\n      pop\n      jump\t// out\n        /* \"#utility.yul\":2888:3031   */\n    tag_25:\n        /* \"#utility.yul\":2945:2950   */\n      0x00\n        /* \"#utility.yul\":2976:2982   */\n      dup2\n        /* \"#utility.yul\":2970:2983   */\n      mload\n        /* \"#utility.yul\":2961:2983   */\n      swap1\n      pop\n        /* \"#utility.yul\":2992:3025   */\n      tag_82\n        /* \"#utility.yul\":3019:3024   */\n      dup2\n        /* \"#utility.yul\":2992:3025   */\n      tag_24\n      jump\t// in\n    tag_82:\n        /* \"#utility.yul\":2888:3031   */\n      swap3\n      swap2\n      pop\n      pop\n      jump\t// out\n        /* \"#utility.yul\":3037:4046   */\n    tag_3:\n        /* \"#utility.yul\":3145:3151   */\n      0x00\n        /* \"#utility.yul\":3153:3159   */\n      dup1\n        /* \"#utility.yul\":3161:3167   */\n      0x00\n        /* \"#utility.yul\":3210:3212   */\n      0x60\n        /* \"#utility.yul\":3198:3207   */\n      dup5\n        /* \"#utility.yul\":3189:3196   */\n      dup7\n        /* \"#utility.yul\":3185:3208   */\n      sub\n        /* \"#utility.yul\":3181:3213   */\n      slt\n        /* \"#utility.yul\":3178:3297   */\n      iszero\n      tag_84\n      jumpi\n        /* \"#utility.yul\":3216:3295   */\n      tag_85\n      tag_11\n      jump\t// in\n    tag_85:\n        /* \"#utility.yul\":3178:3297   */\n    tag_84:\n        /* \"#utility.yul\":3357:3358   */\n      0x00\n        /* \"#utility.yul\":3346:3355   */\n      dup5\n        /* \"#utility.yul\":3342:3359   */\n      add\n        /* \"#utility.yul\":3336:3360   */\n      mload\n        /* \"#utility.yul\":3387:3405   */\n      0xffffffffffffffff\n        /* \"#utility.yul\":3379:3385   */\n      dup2\n        /* \"#utility.yul\":3376:3406   */\n      gt\n        /* \"#utility.yul\":3373:3490   */\n      iszero\n      tag_86\n      jumpi\n        /* \"#utility.yul\":3409:3488   */\n      tag_87\n      tag_12\n      jump\t// in\n    tag_87:\n        /* \"#utility.yul\":3373:3490   */\n    tag_86:\n        /* \"#utility.yul\":3514:3588   */\n      tag_88\n        /* \"#utility.yul\":3580:3587   */\n      dup7\n        /* \"#utility.yul\":3571:3577   */\n      dup3\n        /* \"#utility.yul\":3560:3569   */\n      dup8\n        /* \"#utility.yul\":3556:3578   */\n      add\n        /* \"#utility.yul\":3514:3588   */\n      tag_22\n      jump\t// in\n    tag_88:\n        /* \"#utility.yul\":3504:3588   */\n      swap4\n      pop\n        /* \"#utility.yul\":3307:3598   */\n      pop\n        /* \"#utility.yul\":3637:3639   */\n      0x20\n        /* \"#utility.yul\":3663:3727   */\n      tag_89\n        /* \"#utility.yul\":3719:3726   */\n      dup7\n        /* \"#utility.yul\":3710:3716   */\n      dup3\n        /* \"#utility.yul\":3699:3708   */\n      dup8\n        /* \"#utility.yul\":3695:3717   */\n      add\n        /* \"#utility.yul\":3663:3727   */\n      tag_25\n      jump\t// in\n    tag_89:\n        /* \"#utility.yul\":3653:3727   */\n      swap3\n      pop\n        /* \"#utility.yul\":3608:3737   */\n      pop\n        /* \"#utility.yul\":3797:3799   */\n      0x40\n        /* \"#utility.yul\":3786:3795   */\n      dup5\n        /* \"#utility.yul\":3782:3800   */\n      add\n        /* \"#utility.yul\":3776:3801   */\n      mload\n        /* \"#utility.yul\":3828:3846   */\n      0xffffffffffffffff\n        /* \"#utility.yul\":3820:3826   */\n      dup2\n        /* \"#utility.yul\":3817:3847   */\n      gt\n        /* \"#utility.yul\":3814:3931   */\n      iszero\n      tag_90\n      jumpi\n        /* \"#utility.yul\":3850:3929   */\n      tag_91\n      tag_12\n      jump\t// in\n    tag_91:\n        /* \"#utility.yul\":3814:3931   */\n    tag_90:\n        /* \"#utility.yul\":3955:4029   */\n      tag_92\n        /* \"#utility.yul\":4021:4028   */\n      dup7\n        /* \"#utility.yul\":4012:4018   */\n      dup3\n        /* \"#utility.yul\":4001:4010   */\n      dup8\n        /* \"#utility.yul\":3997:4019   */\n      add\n        /* \"#utility.yul\":3955:4029   */\n      tag_22\n      jump\t// in\n    tag_92:\n        /* \"#utility.yul\":3945:4029   */\n      swap2\n      pop\n        /* \"#utility.yul\":3747:4039   */\n      pop\n        /* \"#utility.yul\":3037:4046   */\n      swap3\n      pop\n      swap3\n      pop\n      swap3\n      jump\t// out\n        /* \"#utility.yul\":4052:4151   */\n    tag_26:\n        /* \"#utility.yul\":4104:4110   */\n      0x00\n        /* \"#utility.yul\":4138:4143   */\n      dup2\n        /* \"#utility.yul\":4132:4144   */\n      mload\n        /* \"#utility.yul\":4122:4144   */\n      swap1\n      pop\n        /* \"#utility.yul\":4052:4151   */\n      swap2\n      swap1\n      pop\n      jump\t// out\n        /* \"#utility.yul\":4157:4337   */\n    tag_27:\n        /* \"#utility.yul\":4205:4282   */\n      0x4e487b7100000000000000000000000000000000000000000000000000000000\n        /* \"#utility.yul\":4202:4203   */\n      0x00\n        /* \"#utility.yul\":4195:4283   */\n      mstore\n        /* \"#utility.yul\":4302:4306   */\n      0x22\n        /* \"#utility.yul\":4299:4300   */\n      0x04\n        /* \"#utility.yul\":4292:4307   */\n      mstore\n        /* \"#utility.yul\":4326:4330   */\n      0x24\n        /* \"#utility.yul\":4323:4324   */\n      0x00\n        /* \"#utility.yul\":4316:4331   */\n      revert\n        /* \"#utility.yul\":4343:4663   */\n    tag_28:\n        /* \"#utility.yul\":4387:4393   */\n      0x00\n        /* \"#utility.yul\":4424:4425   */\n      0x02\n        /* \"#utility.yul\":4418:4422   */\n      dup3\n        /* \"#utility.yul\":4414:4426   */\n      div\n        /* \"#utility.yul\":4404:4426   */\n      swap1\n      pop\n        /* \"#utility.yul\":4471:4472   */\n      0x01\n        /* \"#utility.yul\":4465:4469   */\n      dup3\n        /* \"#utility.yul\":4461:4473   */\n      and\n        /* \"#utility.yul\":4492:4510   */\n      dup1\n        /* \"#utility.yul\":4482:4563   */\n      tag_96\n      jumpi\n        /* \"#utility.yul\":4548:4552   */\n      0x7f\n        /* \"#utility.yul\":4540:4546   */\n      dup3\n        /* \"#utility.yul\":4536:4553   */\n      and\n        /* \"#utility.yul\":4526:4553   */\n      swap2\n      pop\n        /* \"#utility.yul\":4482:4563   */\n    tag_96:\n        /* \"#utility.yul\":4610:4612   */\n      0x20\n        /* \"#utility.yul\":4602:4608   */\n      dup3\n        /* \"#utility.yul\":4599:4613   */\n      lt\n        /* \"#utility.yul\":4579:4597   */\n      dup2\n        /* \"#utility.yul\":4576:4614   */\n      sub\n        /* \"#utility.yul\":4573:4657   */\n      tag_97\n      jumpi\n        /* \"#utility.yul\":4629:4647   */\n      tag_98\n      tag_27\n      jump\t// in\n    tag_98:\n        /* \"#utility.yul\":4573:4657   */\n    tag_97:\n        /* \"#utility.yul\":4394:4663   */\n      pop\n        /* \"#utility.yul\":4343:4663   */\n      swap2\n      swap1\n      pop\n      jump\t// out\n        /* \"#utility.yul\":4669:4810   */\n    tag_29:\n        /* \"#utility.yul\":4718:4722   */\n      0x00\n        /* \"#utility.yul\":4741:4744   */\n      dup2\n        /* \"#utility.yul\":4733:4744   */\n      swap1\n      pop\n        /* \"#utility.yul\":4764:4767   */\n      dup2\n        /* \"#utility.yul\":4761:4762   */\n      0x00\n        /* \"#utility.yul\":4754:4768   */\n      mstore\n        /* \"#utility.yul\":4798:4802   */\n      0x20\n        /* \"#utility.yul\":4795:4796   */\n      0x00\n        /* \"#utility.yul\":4785:4803   */\n      keccak256\n        /* \"#utility.yul\":4777:4803   */\n      swap1\n      pop\n        /* \"#utility.yul\":4669:4810   */\n      swap2\n      swap1\n      pop\n      jump\t// out\n        /* \"#utility.yul\":4816:4909   */\n    tag_30:\n        /* \"#utility.yul\":4853:4859   */\n      0x00\n        /* \"#utility.yul\":4900:4902   */\n      0x20\n        /* \"#utility.yul\":4895:4897   */\n      0x1f\n        /* \"#utility.yul\":4888:4893   */\n      dup4\n        /* \"#utility.yul\":4884:4898   */\n      add\n        /* \"#utility.yul\":4880:4903   */\n      div\n        /* \"#utility.yul\":4870:4903   */\n      swap1\n      pop\n        /* \"#utility.yul\":4816:4909   */\n      swap2\n      swap1\n      pop\n      jump\t// out\n        /* \"#utility.yul\":4915:5022   */\n    tag_31:\n        /* \"#utility.yul\":4959:4967   */\n      0x00\n        /* \"#utility.yul\":5009:5014   */\n      dup3\n        /* \"#utility.yul\":5003:5007   */\n      dup3\n        /* \"#utility.yul\":4999:5015   */\n      shl\n        /* \"#utility.yul\":4978:5015   */\n      swap1\n      pop\n        /* \"#utility.yul\":4915:5022   */\n      swap3\n      swap2\n      pop\n      pop\n      jump\t// out\n        /* \"#utility.yul\":5028:5421   */\n    tag_32:\n        /* \"#utility.yul\":5097:5103   */\n      0x00\n        /* \"#utility.yul\":5147:5148   */\n      0x08\n        /* \"#utility.yul\":5135:5145   */\n      dup4\n        /* \"#utility.yul\":5131:5149   */\n      mul\n        /* \"#utility.yul\":5170:5267   */\n      tag_103\n        /* \"#utility.yul\":5200:5266   */\n      0xffffffffffffffffffffffffffffffffffffffffffffffffffffffffffffffff\n        /* \"#utility.yul\":5189:5198   */\n      dup3\n        /* \"#utility.yul\":5170:5267   */\n      tag_31\n      jump\t// in\n    tag_103:\n        /* \"#utility.yul\":5288:5327   */\n      tag_104\n        /* \"#utility.yul\":5318:5326   */\n      dup7\n        /* \"#utility.yul\":5307:5316   */\n      dup4\n        /* \"#utility.yul\":5288:5327   */\n      tag_31\n      jump\t// in\n    tag_104:\n        /* \"#utility.yul\":5276:5327   */\n      swap6\n      pop\n        /* \"#utility.yul\":5360:5364   */\n      dup1\n        /* \"#utility.yul\":5356:5365   */\n      not\n        /* \"#utility.yul\":5349:5354   */\n      dup5\n        /* \"#utility.yul\":5345:5366   */\n      and\n        /* \"#utility.yul\":5336:5366   */\n      swap4\n      pop\n        /* \"#utility.yul\":5409:5413   */\n      dup1\n        /* \"#utility.yul\":5399:5407   */\n      dup7\n        /* \"#utility.yul\":5395:5414   */\n      and\n        /* \"#utility.yul\":5388:5393   */\n      dup5\n        /* \"#utility.yul\":5385:5415   */\n      or\n        /* \"#utility.yul\":5375:5415   */\n      swap3\n      pop\n        /* \"#utility.yul\":5104:5421   */\n      pop\n      pop\n        /* \"#utility.yul\":5028:5421   */\n      swap4\n      swap3\n      pop\n      pop\n      pop\n      jump\t// out\n        /* \"#utility.yul\":5427:5487   */\n    tag_33:\n        /* \"#utility.yul\":5455:5458   */\n      0x00\n        /* \"#utility.yul\":5476:5481   */\n      dup2\n        /* \"#utility.yul\":5469:5481   */\n      swap1\n      pop\n        /* \"#utility.yul\":5427:5487   */\n      swap2\n      swap1\n      pop\n      jump\t// out\n        /* \"#utility.yul\":5493:5635   */\n    tag_34:\n        /* \"#utility.yul\":5543:5552   */\n      0x00\n        /* \"#utility.yul\":5576:5629   */\n      tag_107\n        /* \"#utility.yul\":5594:5628   */\n      tag_108\n        /* \"#utility.yul\":5603:5627   */\n      tag_109\n        /* \"#utility.yul\":5621:5626   */\n      dup5\n        /* \"#utility.yul\":5603:5627   */\n      tag_23\n      jump\t// in\n    tag_109:\n        /* \"#utility.yul\":5594:5628   */\n      tag_33\n      jump\t// in\n    tag_108:\n        /* \"#utility.yul\":5576:5629   */\n      tag_23\n      jump\t// in\n    tag_107:\n        /* \"#utility.yul\":5563:5629   */\n      swap1\n      pop\n        /* \"#utility.yul\":5493:5635   */\n      swap2\n      swap1\n      pop\n      jump\t// out\n        /* \"#utility.yul\":5641:5716   */\n    tag_35:\n        /* \"#utility.yul\":5684:5687   */\n      0x00\n        /* \"#utility.yul\":5705:5710   */\n      dup2\n        /* \"#utility.yul\":5698:5710   */\n      swap1\n      pop\n        /* \"#utility.yul\":5641:5716   */\n      swap2\n      swap1\n      pop\n      jump\t// out\n        /* \"#utility.yul\":5722:5991   */\n    tag_36:\n        /* \"#utility.yul\":5832:5871   */\n      tag_112\n        /* \"#utility.yul\":5863:5870   */\n      dup4\n        /* \"#utility.yul\":5832:5871   */\n      tag_34\n      jump\t// in\n    tag_112:\n        /* \"#utility.yul\":5893:5984   */\n      tag_113\n        /* \"#utility.yul\":5942:5983   */\n      tag_114\n        /* \"#utility.yul\":5966:5982   */\n      dup3\n        /* \"#utility.yul\":5942:5983   */\n      tag_35\n      jump\t// in\n    tag_114:\n        /* \"#utility.yul\":5934:5940   */\n      dup5\n        /* \"#utility.yul\":5927:5931   */\n      dup5\n        /* \"#utility.yul\":5921:5932   */\n      sload\n        /* \"#utility.yul\":5893:5984   */\n      tag_32\n      jump\t// in\n    tag_113:\n        /* \"#utility.yul\":5887:5891   */\n      dup3\n        /* \"#utility.yul\":5880:5985   */\n      sstore\n        /* \"#utility.yul\":5798:5991   */\n      pop\n        /* \"#utility.yul\":5722:5991   */\n      pop\n      pop\n      pop\n      jump\t// out\n        /* \"#utility.yul\":5997:6070   */\n    tag_37:\n        /* \"#utility.yul\":6042:6045   */\n      0x00\n        /* \"#utility.yul\":5997:6070   */\n      swap1\n      jump\t// out\n        /* \"#utility.yul\":6076:6265   */\n    tag_38:\n        /* \"#utility.yul\":6153:6185   */\n      tag_117\n      tag_37\n      jump\t// in\n    tag_117:\n        /* \"#utility.yul\":6194:6259   */\n      tag_118\n        /* \"#utility.yul\":6252:6258   */\n      dup2\n        /* \"#utility.yul\":6244:6250   */\n      dup5\n        /* \"#utility.yul\":6238:6242   */\n      dup5\n        /* \"#utility.yul\":6194:6259   */\n      tag_36\n      jump\t// in\n    tag_118:\n        /* \"#utility.yul\":6129:6265   */\n      pop\n        /* \"#utility.yul\":6076:6265   */\n      pop\n      pop\n      jump\t// out\n        /* \"#utility.yul\":6271:6457   */\n    tag_39:\n        /* \"#utility.yul\":6331:6451   */\n    tag_120:\n        /* \"#utility.yul\":6348:6351   */\n      dup2\n        /* \"#utility.yul\":6341:6346   */\n      dup2\n        /* \"#utility.yul\":6338:6352   */\n      lt\n        /* \"#utility.yul\":6331:6451   */\n      iszero\n      tag_122\n      jumpi\n        /* \"#utility.yul\":6402:6441   */\n      tag_123\n        /* \"#utility.yul\":6439:6440   */\n      0x00\n        /* \"#utility.yul\":6432:6437   */\n      dup3\n        /* \"#utility.yul\":6402:6441   */\n      tag_38\n      jump\t// in\n    tag_123:\n        /* \"#utility.yul\":6375:6376   */\n      0x01\n        /* \"#utility.yul\":6368:6373   */\n      dup2\n        /* \"#utility.yul\":6364:6377   */\n      add\n        /* \"#utility.yul\":6355:6377   */\n      swap1\n      pop\n        /* \"#utility.yul\":6331:6451   */\n      jump(tag_120)\n    tag_122:\n        /* \"#utility.yul\":6271:6457   */\n      pop\n      pop\n      jump\t// out\n        /* \"#utility.yul\":6463:7006   */\n    tag_40:\n        /* \"#utility.yul\":6564:6566   */\n      0x1f\n        /* \"#utility.yul\":6559:6562   */\n      dup3\n        /* \"#utility.yul\":6556:6567   */\n      gt\n        /* \"#utility.yul\":6553:6999   */\n      iszero\n      tag_125\n      jumpi\n        /* \"#utility.yul\":6598:6636   */\n      tag_126\n        /* \"#utility.yul\":6630:6635   */\n      dup2\n        /* \"#utility.yul\":6598:6636   */\n      tag_29\n      jump\t// in\n    tag_126:\n        /* \"#utility.yul\":6682:6711   */\n      tag_127\n        /* \"#utility.yul\":6700:6710   */\n      dup5\n        /* \"#utility.yul\":6682:6711   */\n      tag_30\n      jump\t// in\n    tag_127:\n        /* \"#utility.yul\":6672:6680   */\n      dup2\n        /* \"#utility.yul\":6668:6712   */\n      add\n        /* \"#utility.yul\":6865:6867   */\n      0x20\n        /* \"#utility.yul\":6853:6863   */\n      dup6\n        /* \"#utility.yul\":6850:6868   */\n      lt\n        /* \"#utility.yul\":6847:6896   */\n      iszero\n      tag_128\n      jumpi\n        /* \"#utility.yul\":6886:6894   */\n      dup2\n        /* \"#utility.yul\":6871:6894   */\n      swap1\n      pop\n        /* \"#utility.yul\":6847:6896   */\n    tag_128:\n        /* \"#utility.yul\":6909:6989   */\n      tag_129\n        /* \"#utility.yul\":6965:6987   */\n      tag_130\n        /* \"#utility.yul\":6983:6986   */\n      dup6\n        /* \"#utility.yul\":6965:6987   */\n      tag_30\n      jump\t// in\n    tag_130:\n        /* \"#utility.yul\":6955:6963   */\n      dup4\n        /* \"#utility.yul\":6951:6988   */\n      add\n        /* \"#utility.yul\":6938:6949   */\n      dup3\n        /* \"#utility.yul\":6909:6989   */\n      tag_39\n      jump\t// in\n    tag_129:\n        /* \"#utility.yul\":6568:6999   */\n      pop\n      pop\n        /* \"#utility.yul\":6553:6999   */\n    tag_125:\n        /* \"#utility.yul\":6463:7006   */\n      pop\n      pop\n      pop\n      jump\t// out\n        /* \"#utility.yul\":7012:7129   */\n    tag_41:\n        /* \"#utility.yul\":7066:7074   */\n      0x00\n        /* \"#utility.yul\":7116:7121   */\n      dup3\n        /* \"#utility.yul\":7110:7114   */\n      dup3\n        /* \"#utility.yul\":7106:7122   */\n      shr\n        /* \"#utility.yul\":7085:7122   */\n      swap1\n      pop\n        /* \"#utility.yul\":7012:7129   */\n      swap3\n      swap2\n      pop\n      pop\n      jump\t// out\n        /* \"#utility.yul\":7135:7304   */\n    tag_42:\n        /* \"#utility.yul\":7179:7185   */\n      0x00\n        /* \"#utility.yul\":7212:7263   */\n      tag_133\n        /* \"#utility.yul\":7260:7261   */\n      0x00\n        /* \"#utility.yul\":7256:7262   */\n      not\n        /* \"#utility.yul\":7248:7253   */\n      dup5\n        /* \"#utility.yul\":7245:7246   */\n      0x08\n        /* \"#utility.yul\":7241:7254   */\n      mul\n        /* \"#utility.yul\":7212:7263   */\n      tag_41\n      jump\t// in\n    tag_133:\n        /* \"#utility.yul\":7208:7264   */\n      not\n        /* \"#utility.yul\":7293:7297   */\n      dup1\n        /* \"#utility.yul\":7287:7291   */\n      dup4\n        /* \"#utility.yul\":7283:7298   */\n      and\n        /* \"#utility.yul\":7273:7298   */\n      swap2\n      pop\n        /* \"#utility.yul\":7186:7304   */\n      pop\n        /* \"#utility.yul\":7135:7304   */\n      swap3\n      swap2\n      pop\n      pop\n      jump\t// out\n        /* \"#utility.yul\":7309:7604   */\n    tag_43:\n        /* \"#utility.yul\":7385:7389   */\n      0x00\n        /* \"#utility.yul\":7531:7560   */\n      tag_135\n        /* \"#utility.yul\":7556:7559   */\n      dup4\n        /* \"#utility.yul\":7550:7554   */\n      dup4\n        /* \"#utility.yul\":7531:7560   */\n      tag_42\n      jump\t// in\n    tag_135:\n        /* \"#utility.yul\":7523:7560   */\n      swap2\n      pop\n        /* \"#utility.yul\":7593:7596   */\n      dup3\n        /* \"#utility.yul\":7590:7591   */\n      0x02\n        /* \"#utility.yul\":7586:7597   */\n      mul\n        /* \"#utility.yul\":7580:7584   */\n      dup3\n        /* \"#utility.yul\":7577:7598   */\n      or\n        /* \"#utility.yul\":7569:7598   */\n      swap1\n      pop\n        /* \"#utility.yul\":7309:7604   */\n      swap3\n      swap2\n      pop\n      pop\n      jump\t// out\n        /* \"#utility.yul\":7609:9004   */\n    tag_7:\n        /* \"#utility.yul\":7726:7763   */\n      tag_137\n        /* \"#utility.yul\":7759:7762   */\n      dup3\n        /* \"#utility.yul\":7726:7763   */\n      tag_26\n      jump\t// in\n    tag_137:\n        /* \"#utility.yul\":7828:7846   */\n      0xffffffffffffffff\n        /* \"#utility.yul\":7820:7826   */\n      dup2\n        /* \"#utility.yul\":7817:7847   */\n      gt\n        /* \"#utility.yul\":7814:7870   */\n      iszero\n      tag_138\n      jumpi\n        /* \"#utility.yul\":7850:7868   */\n      tag_139\n      tag_16\n      jump\t// in\n    tag_139:\n        /* \"#utility.yul\":7814:7870   */\n    tag_138:\n        /* \"#utility.yul\":7894:7932   */\n      tag_140\n        /* \"#utility.yul\":7926:7930   */\n      dup3\n        /* \"#utility.yul\":7920:7931   */\n      sload\n        /* \"#utility.yul\":7894:7932   */\n      tag_28\n      jump\t// in\n    tag_140:\n        /* \"#utility.yul\":7979:8046   */\n      tag_141\n        /* \"#utility.yul\":8039:8045   */\n      dup3\n        /* \"#utility.yul\":8031:8037   */\n      dup3\n        /* \"#utility.yul\":8025:8029   */\n      dup6\n        /* \"#utility.yul\":7979:8046   */\n      tag_40\n      jump\t// in\n    tag_141:\n        /* \"#utility.yul\":8073:8074   */\n      0x00\n        /* \"#utility.yul\":8097:8101   */\n      0x20\n        /* \"#utility.yul\":8084:8101   */\n      swap1\n      pop\n        /* \"#utility.yul\":8129:8131   */\n      0x1f\n        /* \"#utility.yul\":8121:8127   */\n      dup4\n        /* \"#utility.yul\":8118:8132   */\n      gt\n        /* \"#utility.yul\":8146:8147   */\n      0x01\n        /* \"#utility.yul\":8141:8759   */\n      dup2\n      eq\n      tag_143\n      jumpi\n        /* \"#utility.yul\":8803:8804   */\n      0x00\n        /* \"#utility.yul\":8820:8826   */\n      dup5\n        /* \"#utility.yul\":8817:8894   */\n      iszero\n      tag_144\n      jumpi\n        /* \"#utility.yul\":8869:8878   */\n      dup3\n        /* \"#utility.yul\":8864:8867   */\n      dup8\n        /* \"#utility.yul\":8860:8879   */\n      add\n        /* \"#utility.yul\":8854:8880   */\n      mload\n        /* \"#utility.yul\":8845:8880   */\n      swap1\n      pop\n        /* \"#utility.yul\":8817:8894   */\n    tag_144:\n        /* \"#utility.yul\":8920:8987   */\n      tag_145\n        /* \"#utility.yul\":8980:8986   */\n      dup6\n        /* \"#utility.yul\":8973:8978   */\n      dup3\n        /* \"#utility.yul\":8920:8987   */\n      tag_43\n      jump\t// in\n    tag_145:\n        /* \"#utility.yul\":8914:8918   */\n      dup7\n        /* \"#utility.yul\":8907:8988   */\n      sstore\n        /* \"#utility.yul\":8776:8998   */\n      pop\n        /* \"#utility.yul\":8111:8998   */\n      jump(tag_142)\n        /* \"#utility.yul\":8141:8759   */\n    tag_143:\n        /* \"#utility.yul\":8193:8197   */\n      0x1f\n        /* \"#utility.yul\":8189:8198   */\n      not\n        /* \"#utility.yul\":8181:8187   */\n      dup5\n        /* \"#utility.yul\":8177:8199   */\n      and\n        /* \"#utility.yul\":8227:8264   */\n      tag_146\n        /* \"#utility.yul\":8259:8263   */\n      dup7\n        /* \"#utility.yul\":8227:8264   */\n      tag_29\n      jump\t// in\n    tag_146:\n        /* \"#utility.yul\":8286:8287   */\n      0x00\n        /* \"#utility.yul\":8300:8508   */\n    tag_147:\n        /* \"#utility.yul\":8314:8321   */\n      dup3\n        /* \"#utility.yul\":8311:8312   */\n      dup2\n        /* \"#utility.yul\":8308:8322   */\n      lt\n        /* \"#utility.yul\":8300:8508   */\n      iszero\n      tag_149\n      jumpi\n        /* \"#utility.yul\":8393:8402   */\n      dup5\n        /* \"#utility.yul\":8388:8391   */\n      dup10\n        /* \"#utility.yul\":8384:8403   */\n      add\n        /* \"#utility.yul\":8378:8404   */\n      mload\n        /* \"#utility.yul\":8370:8376   */\n      dup3\n        /* \"#utility.yul\":8363:8405   */\n      sstore\n        /* \"#utility.yul\":8444:8445   */\n      0x01\n        /* \"#utility.yul\":8436:8442   */\n      dup3\n        /* \"#utility.yul\":8432:8446   */\n      add\n        /* \"#utility.yul\":8422:8446   */\n      swap2\n      pop\n        /* \"#utility.yul\":8491:8493   */\n      0x20\n        /* \"#utility.yul\":8480:8489   */\n      dup6\n        /* \"#utility.yul\":8476:8494   */\n      add\n        /* \"#utility.yul\":8463:8494   */\n      swap5\n      pop\n        /* \"#utility.yul\":8337:8341   */\n      0x20\n        /* \"#utility.yul\":8334:8335   */\n      dup2\n        /* \"#utility.yul\":8330:8342   */\n      add\n        /* \"#utility.yul\":8325:8342   */\n      swap1\n      pop\n        /* \"#utility.yul\":8300:8508   */\n      jump(tag_147)\n    tag_149:\n        /* \"#utility.yul\":8536:8542   */\n      dup7\n        /* \"#utility.yul\":8527:8534   */\n      dup4\n        /* \"#utility.yul\":8524:8543   */\n      lt\n        /* \"#utility.yul\":8521:8700   */\n      iszero\n      tag_150\n      jumpi\n        /* \"#utility.yul\":8594:8603   */\n      dup5\n        /* \"#utility.yul\":8589:8592   */\n      dup10\n        /* \"#utility.yul\":8585:8604   */\n      add\n        /* \"#utility.yul\":8579:8605   */\n      mload\n        /* \"#utility.yul\":8637:8685   */\n      tag_151\n        /* \"#utility.yul\":8679:8683   */\n      0x1f\n        /* \"#utility.yul\":8671:8677   */\n      dup10\n        /* \"#utility.yul\":8667:8684   */\n      and\n        /* \"#utility.yul\":8656:8665   */\n      dup3\n        /* \"#utility.yul\":8637:8685   */\n      tag_42\n      jump\t// in\n    tag_151:\n        /* \"#utility.yul\":8629:8635   */\n      dup4\n        /* \"#utility.yul\":8622:8686   */\n      sstore\n        /* \"#utility.yul\":8544:8700   */\n      pop\n        /* \"#utility.yul\":8521:8700   */\n    tag_150:\n        /* \"#utility.yul\":8746:8747   */\n      0x01\n        /* \"#utility.yul\":8742:8743   */\n      0x02\n        /* \"#utility.yul\":8734:8740   */\n      dup9\n        /* \"#utility.yul\":8730:8744   */\n      mul\n        /* \"#utility.yul\":8726:8748   */\n      add\n        /* \"#utility.yul\":8720:8724   */\n      dup9\n        /* \"#utility.yul\":8713:8749   */\n      sstore\n        /* \"#utility.yul\":8148:8759   */\n      pop\n      pop\n      pop\n        /* \"#utility.yul\":8111:8998   */\n    tag_142:\n      pop\n        /* \"#utility.yul\":7701:9004   */\n      pop\n      pop\n      pop\n        /* \"#utility.yul\":7609:9004   */\n      pop\n      pop\n      jump\t// out\n        /* \"Labs (August)/try_catch_library/newKeyword.sol\":568:850  contract HMS{       //Hospital Management System... */\n    tag_9:\n      dataSize(sub_0)\n      dup1\n      dataOffset(sub_0)\n      0x00\n      codecopy\n      0x00\n      return\n    stop\n\n    sub_0: assembly {\n            /* \"Labs (August)/try_catch_library/newKeyword.sol\":568:850  contract HMS{       //Hospital Management System... */\n          mstore(0x40, 0x80)\n          callvalue\n          dup1\n          iszero\n          tag_1\n          jumpi\n          0x00\n          dup1\n          revert\n        tag_1:\n          pop\n          jumpi(tag_2, lt(calldatasize, 0x04))\n          shr(0xe0, calldataload(0x00))\n          dup1\n          0x06fdde03\n          eq\n          tag_3\n          jumpi\n          dup1\n          0x262a9dff\n          eq\n          tag_4\n          jumpi\n          dup1\n          0x7c014f80\n          eq\n          tag_5\n          jumpi\n        tag_2:\n          0x00\n          dup1\n          revert\n            /* \"Labs (August)/try_catch_library/newKeyword.sol\":622:640  string public name */\n        tag_3:\n          tag_6\n          tag_7\n          jump\t// in\n        tag_6:\n          mload(0x40)\n          tag_8\n          swap2\n          swap1\n          tag_9\n          jump\t// in\n        tag_8:\n          mload(0x40)\n          dup1\n          swap2\n          sub\n          swap1\n          return\n            /* \"Labs (August)/try_catch_library/newKeyword.sol\":648:663  uint public age */\n        tag_4:\n          tag_10\n          tag_11\n          jump\t// in\n        tag_10:\n          mload(0x40)\n          tag_12\n          swap2\n          swap1\n          tag_13\n          jump\t// in\n        tag_12:\n          mload(0x40)\n          dup1\n          swap2\n          sub\n          swap1\n          return\n            /* \"Labs (August)/try_catch_library/newKeyword.sol\":670:691  string public disease */\n        tag_5:\n          tag_14\n          tag_15\n          jump\t// in\n        tag_14:\n          mload(0x40)\n          tag_16\n          swap2\n          swap1\n          tag_9\n          jump\t// in\n        tag_16:\n          mload(0x40)\n          dup1\n          swap2\n          sub\n          swap1\n          return\n            /* \"Labs (August)/try_catch_library/newKeyword.sol\":622:640  string public name */\n        tag_7:\n          0x00\n          dup1\n          sload\n          tag_17\n          swap1\n          tag_18\n          jump\t// in\n        tag_17:\n          dup1\n          0x1f\n          add\n          0x20\n          dup1\n          swap2\n          div\n          mul\n          0x20\n          add\n          mload(0x40)\n          swap1\n          dup2\n          add\n          0x40\n          mstore\n          dup1\n          swap3\n          swap2\n          swap1\n          dup2\n          dup2\n          mstore\n          0x20\n          add\n          dup3\n          dup1\n          sload\n          tag_19\n          swap1\n          tag_18\n          jump\t// in\n        tag_19:\n          dup1\n          iszero\n          tag_20\n          jumpi\n          dup1\n          0x1f\n          lt\n          tag_21\n          jumpi\n          0x0100\n          dup1\n          dup4\n          sload\n          div\n          mul\n          dup4\n          mstore\n          swap2\n          0x20\n          add\n          swap2\n          jump(tag_20)\n        tag_21:\n          dup3\n          add\n          swap2\n          swap1\n          0x00\n          mstore\n          keccak256(0x00, 0x20)\n          swap1\n        tag_22:\n          dup2\n          sload\n          dup2\n          mstore\n          swap1\n          0x01\n          add\n          swap1\n          0x20\n          add\n          dup1\n          dup4\n          gt\n          tag_22\n          jumpi\n          dup3\n          swap1\n          sub\n          0x1f\n          and\n          dup3\n          add\n          swap2\n        tag_20:\n          pop\n          pop\n          pop\n          pop\n          pop\n          dup2\n          jump\t// out\n            /* \"Labs (August)/try_catch_library/newKeyword.sol\":648:663  uint public age */\n        tag_11:\n          sload(0x01)\n          dup2\n          jump\t// out\n            /* \"Labs (August)/try_catch_library/newKeyword.sol\":670:691  string public disease */\n        tag_15:\n          0x02\n          dup1\n          sload\n          tag_23\n          swap1\n          tag_18\n          jump\t// in\n        tag_23:\n          dup1\n          0x1f\n          add\n          0x20\n          dup1\n          swap2\n          div\n          mul\n          0x20\n          add\n          mload(0x40)\n          swap1\n          dup2\n          add\n          0x40\n          mstore\n          dup1\n          swap3\n          swap2\n          swap1\n          dup2\n          dup2\n          mstore\n          0x20\n          add\n          dup3\n          dup1\n          sload\n          tag_24\n          swap1\n          tag_18\n          jump\t// in\n        tag_24:\n          dup1\n          iszero\n          tag_25\n          jumpi\n          dup1\n          0x1f\n          lt\n          tag_26\n          jumpi\n          0x0100\n          dup1\n          dup4\n          sload\n          div\n          mul\n          dup4\n          mstore\n          swap2\n          0x20\n          add\n          swap2\n          jump(tag_25)\n        tag_26:\n          dup3\n          add\n          swap2\n          swap1\n          0x00\n          mstore\n          keccak256(0x00, 0x20)\n          swap1\n        tag_27:\n          dup2\n          sload\n          dup2\n          mstore\n          swap1\n          0x01\n          add\n          swap1\n          0x20\n          add\n          dup1\n          dup4\n          gt\n          tag_27\n          jumpi\n          dup3\n          swap1\n          sub\n          0x1f\n          and\n          dup3\n          add\n          swap2\n        tag_25:\n          pop\n          pop\n          pop\n          pop\n          pop\n          dup2\n          jump\t// out\n            /* \"#utility.yul\":7:106   */\n        tag_28:\n            /* \"#utility.yul\":59:65   */\n          0x00\n            /* \"#utility.yul\":93:98   */\n          dup2\n            /* \"#utility.yul\":87:99   */\n          mload\n            /* \"#utility.yul\":77:99   */\n          swap1\n          pop\n            /* \"#utility.yul\":7:106   */\n          swap2\n          swap1\n          pop\n          jump\t// out\n            /* \"#utility.yul\":112:281   */\n        tag_29:\n            /* \"#utility.yul\":196:207   */\n          0x00\n            /* \"#utility.yul\":230:236   */\n          dup3\n            /* \"#utility.yul\":225:228   */\n          dup3\n            /* \"#utility.yul\":218:237   */\n          mstore\n            /* \"#utility.yul\":270:274   */\n          0x20\n            /* \"#utility.yul\":265:268   */\n          dup3\n            /* \"#utility.yul\":261:275   */\n          add\n            /* \"#utility.yul\":246:275   */\n          swap1\n          pop\n            /* \"#utility.yul\":112:281   */\n          swap3\n          swap2\n          pop\n          pop\n          jump\t// out\n            /* \"#utility.yul\":287:533   */\n        tag_30:\n            /* \"#utility.yul\":368:369   */\n          0x00\n            /* \"#utility.yul\":378:491   */\n        tag_40:\n            /* \"#utility.yul\":392:398   */\n          dup4\n            /* \"#utility.yul\":389:390   */\n          dup2\n            /* \"#utility.yul\":386:399   */\n          lt\n            /* \"#utility.yul\":378:491   */\n          iszero\n          tag_42\n          jumpi\n            /* \"#utility.yul\":477:478   */\n          dup1\n            /* \"#utility.yul\":472:475   */\n          dup3\n            /* \"#utility.yul\":468:479   */\n          add\n            /* \"#utility.yul\":462:480   */\n          mload\n            /* \"#utility.yul\":458:459   */\n          dup2\n            /* \"#utility.yul\":453:456   */\n          dup5\n            /* \"#utility.yul\":449:460   */\n          add\n            /* \"#utility.yul\":442:481   */\n          mstore\n            /* \"#utility.yul\":414:416   */\n          0x20\n            /* \"#utility.yul\":411:412   */\n          dup2\n            /* \"#utility.yul\":407:417   */\n          add\n            /* \"#utility.yul\":402:417   */\n          swap1\n          pop\n            /* \"#utility.yul\":378:491   */\n          jump(tag_40)\n        tag_42:\n            /* \"#utility.yul\":525:526   */\n          0x00\n            /* \"#utility.yul\":516:522   */\n          dup5\n            /* \"#utility.yul\":511:514   */\n          dup5\n            /* \"#utility.yul\":507:523   */\n          add\n            /* \"#utility.yul\":500:527   */\n          mstore\n            /* \"#utility.yul\":349:533   */\n          pop\n            /* \"#utility.yul\":287:533   */\n          pop\n          pop\n          pop\n          jump\t// out\n            /* \"#utility.yul\":539:641   */\n        tag_31:\n            /* \"#utility.yul\":580:586   */\n          0x00\n            /* \"#utility.yul\":631:633   */\n          0x1f\n            /* \"#utility.yul\":627:634   */\n          not\n            /* \"#utility.yul\":622:624   */\n          0x1f\n            /* \"#utility.yul\":615:620   */\n          dup4\n            /* \"#utility.yul\":611:625   */\n          add\n            /* \"#utility.yul\":607:635   */\n          and\n            /* \"#utility.yul\":597:635   */\n          swap1\n          pop\n            /* \"#utility.yul\":539:641   */\n          swap2\n          swap1\n          pop\n          jump\t// out\n            /* \"#utility.yul\":647:1024   */\n        tag_32:\n            /* \"#utility.yul\":735:738   */\n          0x00\n            /* \"#utility.yul\":763:802   */\n          tag_45\n            /* \"#utility.yul\":796:801   */\n          dup3\n            /* \"#utility.yul\":763:802   */\n          tag_28\n          jump\t// in\n        tag_45:\n            /* \"#utility.yul\":818:889   */\n          tag_46\n            /* \"#utility.yul\":882:888   */\n          dup2\n            /* \"#utility.yul\":877:880   */\n          dup6\n            /* \"#utility.yul\":818:889   */\n          tag_29\n          jump\t// in\n        tag_46:\n            /* \"#utility.yul\":811:889   */\n          swap4\n          pop\n            /* \"#utility.yul\":898:963   */\n          tag_47\n            /* \"#utility.yul\":956:962   */\n          dup2\n            /* \"#utility.yul\":951:954   */\n          dup6\n            /* \"#utility.yul\":944:948   */\n          0x20\n            /* \"#utility.yul\":937:942   */\n          dup7\n            /* \"#utility.yul\":933:949   */\n          add\n            /* \"#utility.yul\":898:963   */\n          tag_30\n          jump\t// in\n        tag_47:\n            /* \"#utility.yul\":988:1017   */\n          tag_48\n            /* \"#utility.yul\":1010:1016   */\n          dup2\n            /* \"#utility.yul\":988:1017   */\n          tag_31\n          jump\t// in\n        tag_48:\n            /* \"#utility.yul\":983:986   */\n          dup5\n            /* \"#utility.yul\":979:1018   */\n          add\n            /* \"#utility.yul\":972:1018   */\n          swap2\n          pop\n            /* \"#utility.yul\":739:1024   */\n          pop\n            /* \"#utility.yul\":647:1024   */\n          swap3\n          swap2\n          pop\n          pop\n          jump\t// out\n            /* \"#utility.yul\":1030:1343   */\n        tag_9:\n            /* \"#utility.yul\":1143:1147   */\n          0x00\n            /* \"#utility.yul\":1181:1183   */\n          0x20\n            /* \"#utility.yul\":1170:1179   */\n          dup3\n            /* \"#utility.yul\":1166:1184   */\n          add\n            /* \"#utility.yul\":1158:1184   */\n          swap1\n          pop\n            /* \"#utility.yul\":1230:1239   */\n          dup2\n            /* \"#utility.yul\":1224:1228   */\n          dup2\n            /* \"#utility.yul\":1220:1240   */\n          sub\n            /* \"#utility.yul\":1216:1217   */\n          0x00\n            /* \"#utility.yul\":1205:1214   */\n          dup4\n            /* \"#utility.yul\":1201:1218   */\n          add\n            /* \"#utility.yul\":1194:1241   */\n          mstore\n            /* \"#utility.yul\":1258:1336   */\n          tag_50\n            /* \"#utility.yul\":1331:1335   */\n          dup2\n            /* \"#utility.yul\":1322:1328   */\n          dup5\n            /* \"#utility.yul\":1258:1336   */\n          tag_32\n          jump\t// in\n        tag_50:\n            /* \"#utility.yul\":1250:1336   */\n          swap1\n          pop\n            /* \"#utility.yul\":1030:1343   */\n          swap3\n          swap2\n          pop\n          pop\n          jump\t// out\n            /* \"#utility.yul\":1349:1426   */\n        tag_33:\n            /* \"#utility.yul\":1386:1393   */\n          0x00\n            /* \"#utility.yul\":1415:1420   */\n          dup2\n            /* \"#utility.yul\":1404:1420   */\n          swap1\n          pop\n            /* \"#utility.yul\":1349:1426   */\n          swap2\n          swap1\n          pop\n          jump\t// out\n            /* \"#utility.yul\":1432:1550   */\n        tag_34:\n            /* \"#utility.yul\":1519:1543   */\n          tag_53\n            /* \"#utility.yul\":1537:1542   */\n          dup2\n            /* \"#utility.yul\":1519:1543   */\n          tag_33\n          jump\t// in\n        tag_53:\n            /* \"#utility.yul\":1514:1517   */\n          dup3\n            /* \"#utility.yul\":1507:1544   */\n          mstore\n            /* \"#utility.yul\":1432:1550   */\n          pop\n          pop\n          jump\t// out\n            /* \"#utility.yul\":1556:1778   */\n        tag_13:\n            /* \"#utility.yul\":1649:1653   */\n          0x00\n            /* \"#utility.yul\":1687:1689   */\n          0x20\n            /* \"#utility.yul\":1676:1685   */\n          dup3\n            /* \"#utility.yul\":1672:1690   */\n          add\n            /* \"#utility.yul\":1664:1690   */\n          swap1\n          pop\n            /* \"#utility.yul\":1700:1771   */\n          tag_55\n            /* \"#utility.yul\":1768:1769   */\n          0x00\n            /* \"#utility.yul\":1757:1766   */\n          dup4\n            /* \"#utility.yul\":1753:1770   */\n          add\n            /* \"#utility.yul\":1744:1750   */\n          dup5\n            /* \"#utility.yul\":1700:1771   */\n          tag_34\n          jump\t// in\n        tag_55:\n            /* \"#utility.yul\":1556:1778   */\n          swap3\n          swap2\n          pop\n          pop\n          jump\t// out\n            /* \"#utility.yul\":1784:1964   */\n        tag_35:\n            /* \"#utility.yul\":1832:1909   */\n          0x4e487b7100000000000000000000000000000000000000000000000000000000\n            /* \"#utility.yul\":1829:1830   */\n          0x00\n            /* \"#utility.yul\":1822:1910   */\n          mstore\n            /* \"#utility.yul\":1929:1933   */\n          0x22\n            /* \"#utility.yul\":1926:1927   */\n          0x04\n            /* \"#utility.yul\":1919:1934   */\n          mstore\n            /* \"#utility.yul\":1953:1957   */\n          0x24\n            /* \"#utility.yul\":1950:1951   */\n          0x00\n            /* \"#utility.yul\":1943:1958   */\n          revert\n            /* \"#utility.yul\":1970:2290   */\n        tag_18:\n            /* \"#utility.yul\":2014:2020   */\n          0x00\n            /* \"#utility.yul\":2051:2052   */\n          0x02\n            /* \"#utility.yul\":2045:2049   */\n          dup3\n            /* \"#utility.yul\":2041:2053   */\n          div\n            /* \"#utility.yul\":2031:2053   */\n          swap1\n          pop\n            /* \"#utility.yul\":2098:2099   */\n          0x01\n            /* \"#utility.yul\":2092:2096   */\n          dup3\n            /* \"#utility.yul\":2088:2100   */\n          and\n            /* \"#utility.yul\":2119:2137   */\n          dup1\n            /* \"#utility.yul\":2109:2190   */\n          tag_58\n          jumpi\n            /* \"#utility.yul\":2175:2179   */\n          0x7f\n            /* \"#utility.yul\":2167:2173   */\n          dup3\n            /* \"#utility.yul\":2163:2180   */\n          and\n            /* \"#utility.yul\":2153:2180   */\n          swap2\n          pop\n            /* \"#utility.yul\":2109:2190   */\n        tag_58:\n            /* \"#utility.yul\":2237:2239   */\n          0x20\n            /* \"#utility.yul\":2229:2235   */\n          dup3\n            /* \"#utility.yul\":2226:2240   */\n          lt\n            /* \"#utility.yul\":2206:2224   */\n          dup2\n            /* \"#utility.yul\":2203:2241   */\n          sub\n            /* \"#utility.yul\":2200:2284   */\n          tag_59\n          jumpi\n            /* \"#utility.yul\":2256:2274   */\n          tag_60\n          tag_35\n          jump\t// in\n        tag_60:\n            /* \"#utility.yul\":2200:2284   */\n        tag_59:\n            /* \"#utility.yul\":2021:2290   */\n          pop\n            /* \"#utility.yul\":1970:2290   */\n          swap2\n          swap1\n          pop\n          jump\t// out\n\n        auxdata: 0xa26469706673582212205e9bf297657b1d5585d6769d90aba0909984c6d496deff93adf6af0a09a9467c64736f6c63430008120033\n    }\n}\n",
				"bytecode": {
					"linkReferences": {},
					"object": "60806040526021604051620000149062000134565b6200002091906200024a565b604051809103906000f0801580156200003d573d6000803e3d6000fd5b50600160006101000a81548173ffffffffffffffffffffffffffffffffffffffff021916908373ffffffffffffffffffffffffffffffffffffffff1602179055503480156200008b57600080fd5b50600060216040516200009e9062000134565b620000aa9190620002e1565b604051809103906000f080158015620000c7573d6000803e3d6000fd5b5090506000819080600181540180825580915050600190039060005260206000200160009091909190916101000a81548173ffffffffffffffffffffffffffffffffffffffff021916908373ffffffffffffffffffffffffffffffffffffffff1602179055505062000328565b610949806200071b83390190565b600082825260208201905092915050565b7f4a6f686e00000000000000000000000000000000000000000000000000000000600082015250565b60006200018b60048362000142565b9150620001988262000153565b602082019050919050565b6000819050919050565b6000819050919050565b6000819050919050565b6000620001e2620001dc620001d684620001a3565b620001b7565b620001ad565b9050919050565b620001f481620001c1565b82525050565b7f6665766572000000000000000000000000000000000000000000000000000000600082015250565b60006200023260058362000142565b91506200023f82620001fa565b602082019050919050565b6000606082019050818103600083015262000265816200017c565b9050620002766020830184620001e9565b8181036040830152620002898162000223565b905092915050565b7f6865616461636865000000000000000000000000000000000000000000000000600082015250565b6000620002c960088362000142565b9150620002d68262000291565b602082019050919050565b60006060820190508181036000830152620002fc816200017c565b90506200030d6020830184620001e9565b81810360408301526200032081620002ba565b905092915050565b6103e380620003386000396000f3fe608060405234801561001057600080fd5b50600436106100365760003560e01c806380c9419e1461003b5780638956645e1461006b575b600080fd5b61005560048036038101906100509190610115565b610087565b60405161006291906101c1565b60405180910390f35b61008560048036038101906100809190610322565b6100c6565b005b6000818154811061009757600080fd5b906000526020600020016000915054906101000a900473ffffffffffffffffffffffffffffffffffffffff1681565b505050565b6000604051905090565b600080fd5b600080fd5b6000819050919050565b6100f2816100df565b81146100fd57600080fd5b50565b60008135905061010f816100e9565b92915050565b60006020828403121561012b5761012a6100d5565b5b600061013984828501610100565b91505092915050565b600073ffffffffffffffffffffffffffffffffffffffff82169050919050565b6000819050919050565b600061018761018261017d84610142565b610162565b610142565b9050919050565b60006101998261016c565b9050919050565b60006101ab8261018e565b9050919050565b6101bb816101a0565b82525050565b60006020820190506101d660008301846101b2565b92915050565b600080fd5b600080fd5b6000601f19601f8301169050919050565b7f4e487b7100000000000000000000000000000000000000000000000000000000600052604160045260246000fd5b61022f826101e6565b810181811067ffffffffffffffff8211171561024e5761024d6101f7565b5b80604052505050565b60006102616100cb565b905061026d8282610226565b919050565b600067ffffffffffffffff82111561028d5761028c6101f7565b5b610296826101e6565b9050602081019050919050565b82818337600083830152505050565b60006102c56102c084610272565b610257565b9050828152602081018484840111156102e1576102e06101e1565b5b6102ec8482856102a3565b509392505050565b600082601f830112610309576103086101dc565b5b81356103198482602086016102b2565b91505092915050565b60008060006060848603121561033b5761033a6100d5565b5b600084013567ffffffffffffffff811115610359576103586100da565b5b610365868287016102f4565b935050602061037686828701610100565b925050604084013567ffffffffffffffff811115610397576103966100da565b5b6103a3868287016102f4565b915050925092509256fea264697066735822122079a6ce6f896b790ec1339a85a21238fb45000b0c7502128d724b6c78f4d1d41864736f6c6343000812003360806040523480156200001157600080fd5b506040516200094938038062000949833981810160405281019062000037919062000239565b826000908162000048919062000514565b5081600181905550806002908162000061919062000514565b50505050620005fb565b6000604051905090565b600080fd5b600080fd5b600080fd5b600080fd5b6000601f19601f8301169050919050565b7f4e487b7100000000000000000000000000000000000000000000000000000000600052604160045260246000fd5b620000d48262000089565b810181811067ffffffffffffffff82111715620000f657620000f56200009a565b5b80604052505050565b60006200010b6200006b565b9050620001198282620000c9565b919050565b600067ffffffffffffffff8211156200013c576200013b6200009a565b5b620001478262000089565b9050602081019050919050565b60005b838110156200017457808201518184015260208101905062000157565b60008484015250505050565b60006200019762000191846200011e565b620000ff565b905082815260208101848484011115620001b657620001b562000084565b5b620001c384828562000154565b509392505050565b600082601f830112620001e357620001e26200007f565b5b8151620001f584826020860162000180565b91505092915050565b6000819050919050565b6200021381620001fe565b81146200021f57600080fd5b50565b600081519050620002338162000208565b92915050565b60008060006060848603121562000255576200025462000075565b5b600084015167ffffffffffffffff8111156200027657620002756200007a565b5b6200028486828701620001cb565b9350506020620002978682870162000222565b925050604084015167ffffffffffffffff811115620002bb57620002ba6200007a565b5b620002c986828701620001cb565b9150509250925092565b600081519050919050565b7f4e487b7100000000000000000000000000000000000000000000000000000000600052602260045260246000fd5b600060028204905060018216806200032657607f821691505b6020821081036200033c576200033b620002de565b5b50919050565b60008190508160005260206000209050919050565b60006020601f8301049050919050565b600082821b905092915050565b600060088302620003a67fffffffffffffffffffffffffffffffffffffffffffffffffffffffffffffffff8262000367565b620003b2868362000367565b95508019841693508086168417925050509392505050565b6000819050919050565b6000620003f5620003ef620003e984620001fe565b620003ca565b620001fe565b9050919050565b6000819050919050565b6200041183620003d4565b620004296200042082620003fc565b84845462000374565b825550505050565b600090565b6200044062000431565b6200044d81848462000406565b505050565b5b8181101562000475576200046960008262000436565b60018101905062000453565b5050565b601f821115620004c4576200048e8162000342565b620004998462000357565b81016020851015620004a9578190505b620004c1620004b88562000357565b83018262000452565b50505b505050565b600082821c905092915050565b6000620004e960001984600802620004c9565b1980831691505092915050565b6000620005048383620004d6565b9150826002028217905092915050565b6200051f82620002d3565b67ffffffffffffffff8111156200053b576200053a6200009a565b5b6200054782546200030d565b6200055482828562000479565b600060209050601f8311600181146200058c576000841562000577578287015190505b620005838582620004f6565b865550620005f3565b601f1984166200059c8662000342565b60005b82811015620005c6578489015182556001820191506020850194506020810190506200059f565b86831015620005e65784890151620005e2601f891682620004d6565b8355505b6001600288020188555050505b505050505050565b61033e806200060b6000396000f3fe608060405234801561001057600080fd5b50600436106100415760003560e01c806306fdde0314610046578063262a9dff146100645780637c014f8014610082575b600080fd5b61004e6100a0565b60405161005b9190610252565b60405180910390f35b61006c61012e565b604051610079919061028d565b60405180910390f35b61008a610134565b6040516100979190610252565b60405180910390f35b600080546100ad906102d7565b80601f01602080910402602001604051908101604052809291908181526020018280546100d9906102d7565b80156101265780601f106100fb57610100808354040283529160200191610126565b820191906000526020600020905b81548152906001019060200180831161010957829003601f168201915b505050505081565b60015481565b60028054610141906102d7565b80601f016020809104026020016040519081016040528092919081815260200182805461016d906102d7565b80156101ba5780601f1061018f576101008083540402835291602001916101ba565b820191906000526020600020905b81548152906001019060200180831161019d57829003601f168201915b505050505081565b600081519050919050565b600082825260208201905092915050565b60005b838110156101fc5780820151818401526020810190506101e1565b60008484015250505050565b6000601f19601f8301169050919050565b6000610224826101c2565b61022e81856101cd565b935061023e8185602086016101de565b61024781610208565b840191505092915050565b6000602082019050818103600083015261026c8184610219565b905092915050565b6000819050919050565b61028781610274565b82525050565b60006020820190506102a2600083018461027e565b92915050565b7f4e487b7100000000000000000000000000000000000000000000000000000000600052602260045260246000fd5b600060028204905060018216806102ef57607f821691505b602082108103610302576103016102a8565b5b5091905056fea26469706673582212205e9bf297657b1d5585d6769d90aba0909984c6d496deff93adf6af0a09a9467c64736f6c63430008120033",
					"opcodes": "PUSH1 0x80 PUSH1 0x40 MSTORE PUSH1 0x21 PUSH1 0x40 MLOAD PUSH3 0x14 SWAP1 PUSH3 0x134 JUMP JUMPDEST PUSH3 0x20 SWAP2 SWAP1 PUSH3 0x24A JUMP JUMPDEST PUSH1 0x40 MLOAD DUP1 SWAP2 SUB SWAP1 PUSH1 0x0 CREATE DUP1 ISZERO DUP1 ISZERO PUSH3 0x3D JUMPI RETURNDATASIZE PUSH1 0x0 DUP1 RETURNDATACOPY RETURNDATASIZE PUSH1 0x0 REVERT JUMPDEST POP PUSH1 0x1 PUSH1 0x0 PUSH2 0x100 EXP DUP2 SLOAD DUP2 PUSH20 0xFFFFFFFFFFFFFFFFFFFFFFFFFFFFFFFFFFFFFFFF MUL NOT AND SWAP1 DUP4 PUSH20 0xFFFFFFFFFFFFFFFFFFFFFFFFFFFFFFFFFFFFFFFF AND MUL OR SWAP1 SSTORE POP CALLVALUE DUP1 ISZERO PUSH3 0x8B JUMPI PUSH1 0x0 DUP1 REVERT JUMPDEST POP PUSH1 0x0 PUSH1 0x21 PUSH1 0x40 MLOAD PUSH3 0x9E SWAP1 PUSH3 0x134 JUMP JUMPDEST PUSH3 0xAA SWAP2 SWAP1 PUSH3 0x2E1 JUMP JUMPDEST PUSH1 0x40 MLOAD DUP1 SWAP2 SUB SWAP1 PUSH1 0x0 CREATE DUP1 ISZERO DUP1 ISZERO PUSH3 0xC7 JUMPI RETURNDATASIZE PUSH1 0x0 DUP1 RETURNDATACOPY RETURNDATASIZE PUSH1 0x0 REVERT JUMPDEST POP SWAP1 POP PUSH1 0x0 DUP2 SWAP1 DUP1 PUSH1 0x1 DUP2 SLOAD ADD DUP1 DUP3 SSTORE DUP1 SWAP2 POP POP PUSH1 0x1 SWAP1 SUB SWAP1 PUSH1 0x0 MSTORE PUSH1 0x20 PUSH1 0x0 KECCAK256 ADD PUSH1 0x0 SWAP1 SWAP2 SWAP1 SWAP2 SWAP1 SWAP2 PUSH2 0x100 EXP DUP2 SLOAD DUP2 PUSH20 0xFFFFFFFFFFFFFFFFFFFFFFFFFFFFFFFFFFFFFFFF MUL NOT AND SWAP1 DUP4 PUSH20 0xFFFFFFFFFFFFFFFFFFFFFFFFFFFFFFFFFFFFFFFF AND MUL OR SWAP1 SSTORE POP POP PUSH3 0x328 JUMP JUMPDEST PUSH2 0x949 DUP1 PUSH3 0x71B DUP4 CODECOPY ADD SWAP1 JUMP JUMPDEST PUSH1 0x0 DUP3 DUP3 MSTORE PUSH1 0x20 DUP3 ADD SWAP1 POP SWAP3 SWAP2 POP POP JUMP JUMPDEST PUSH32 0x4A6F686E00000000000000000000000000000000000000000000000000000000 PUSH1 0x0 DUP3 ADD MSTORE POP JUMP JUMPDEST PUSH1 0x0 PUSH3 0x18B PUSH1 0x4 DUP4 PUSH3 0x142 JUMP JUMPDEST SWAP2 POP PUSH3 0x198 DUP3 PUSH3 0x153 JUMP JUMPDEST PUSH1 0x20 DUP3 ADD SWAP1 POP SWAP2 SWAP1 POP JUMP JUMPDEST PUSH1 0x0 DUP2 SWAP1 POP SWAP2 SWAP1 POP JUMP JUMPDEST PUSH1 0x0 DUP2 SWAP1 POP SWAP2 SWAP1 POP JUMP JUMPDEST PUSH1 0x0 DUP2 SWAP1 POP SWAP2 SWAP1 POP JUMP JUMPDEST PUSH1 0x0 PUSH3 0x1E2 PUSH3 0x1DC PUSH3 0x1D6 DUP5 PUSH3 0x1A3 JUMP JUMPDEST PUSH3 0x1B7 JUMP JUMPDEST PUSH3 0x1AD JUMP JUMPDEST SWAP1 POP SWAP2 SWAP1 POP JUMP JUMPDEST PUSH3 0x1F4 DUP2 PUSH3 0x1C1 JUMP JUMPDEST DUP3 MSTORE POP POP JUMP JUMPDEST PUSH32 0x6665766572000000000000000000000000000000000000000000000000000000 PUSH1 0x0 DUP3 ADD MSTORE POP JUMP JUMPDEST PUSH1 0x0 PUSH3 0x232 PUSH1 0x5 DUP4 PUSH3 0x142 JUMP JUMPDEST SWAP2 POP PUSH3 0x23F DUP3 PUSH3 0x1FA JUMP JUMPDEST PUSH1 0x20 DUP3 ADD SWAP1 POP SWAP2 SWAP1 POP JUMP JUMPDEST PUSH1 0x0 PUSH1 0x60 DUP3 ADD SWAP1 POP DUP2 DUP2 SUB PUSH1 0x0 DUP4 ADD MSTORE PUSH3 0x265 DUP2 PUSH3 0x17C JUMP JUMPDEST SWAP1 POP PUSH3 0x276 PUSH1 0x20 DUP4 ADD DUP5 PUSH3 0x1E9 JUMP JUMPDEST DUP2 DUP2 SUB PUSH1 0x40 DUP4 ADD MSTORE PUSH3 0x289 DUP2 PUSH3 0x223 JUMP JUMPDEST SWAP1 POP SWAP3 SWAP2 POP POP JUMP JUMPDEST PUSH32 0x6865616461636865000000000000000000000000000000000000000000000000 PUSH1 0x0 DUP3 ADD MSTORE POP JUMP JUMPDEST PUSH1 0x0 PUSH3 0x2C9 PUSH1 0x8 DUP4 PUSH3 0x142 JUMP JUMPDEST SWAP2 POP PUSH3 0x2D6 DUP3 PUSH3 0x291 JUMP JUMPDEST PUSH1 0x20 DUP3 ADD SWAP1 POP SWAP2 SWAP1 POP JUMP JUMPDEST PUSH1 0x0 PUSH1 0x60 DUP3 ADD SWAP1 POP DUP2 DUP2 SUB PUSH1 0x0 DUP4 ADD MSTORE PUSH3 0x2FC DUP2 PUSH3 0x17C JUMP JUMPDEST SWAP1 POP PUSH3 0x30D PUSH1 0x20 DUP4 ADD DUP5 PUSH3 0x1E9 JUMP JUMPDEST DUP2 DUP2 SUB PUSH1 0x40 DUP4 ADD MSTORE PUSH3 0x320 DUP2 PUSH3 0x2BA JUMP JUMPDEST SWAP1 POP SWAP3 SWAP2 POP POP JUMP JUMPDEST PUSH2 0x3E3 DUP1 PUSH3 0x338 PUSH1 0x0 CODECOPY PUSH1 0x0 RETURN INVALID PUSH1 0x80 PUSH1 0x40 MSTORE CALLVALUE DUP1 ISZERO PUSH2 0x10 JUMPI PUSH1 0x0 DUP1 REVERT JUMPDEST POP PUSH1 0x4 CALLDATASIZE LT PUSH2 0x36 JUMPI PUSH1 0x0 CALLDATALOAD PUSH1 0xE0 SHR DUP1 PUSH4 0x80C9419E EQ PUSH2 0x3B JUMPI DUP1 PUSH4 0x8956645E EQ PUSH2 0x6B JUMPI JUMPDEST PUSH1 0x0 DUP1 REVERT JUMPDEST PUSH2 0x55 PUSH1 0x4 DUP1 CALLDATASIZE SUB DUP2 ADD SWAP1 PUSH2 0x50 SWAP2 SWAP1 PUSH2 0x115 JUMP JUMPDEST PUSH2 0x87 JUMP JUMPDEST PUSH1 0x40 MLOAD PUSH2 0x62 SWAP2 SWAP1 PUSH2 0x1C1 JUMP JUMPDEST PUSH1 0x40 MLOAD DUP1 SWAP2 SUB SWAP1 RETURN JUMPDEST PUSH2 0x85 PUSH1 0x4 DUP1 CALLDATASIZE SUB DUP2 ADD SWAP1 PUSH2 0x80 SWAP2 SWAP1 PUSH2 0x322 JUMP JUMPDEST PUSH2 0xC6 JUMP JUMPDEST STOP JUMPDEST PUSH1 0x0 DUP2 DUP2 SLOAD DUP2 LT PUSH2 0x97 JUMPI PUSH1 0x0 DUP1 REVERT JUMPDEST SWAP1 PUSH1 0x0 MSTORE PUSH1 0x20 PUSH1 0x0 KECCAK256 ADD PUSH1 0x0 SWAP2 POP SLOAD SWAP1 PUSH2 0x100 EXP SWAP1 DIV PUSH20 0xFFFFFFFFFFFFFFFFFFFFFFFFFFFFFFFFFFFFFFFF AND DUP2 JUMP JUMPDEST POP POP POP JUMP JUMPDEST PUSH1 0x0 PUSH1 0x40 MLOAD SWAP1 POP SWAP1 JUMP JUMPDEST PUSH1 0x0 DUP1 REVERT JUMPDEST PUSH1 0x0 DUP1 REVERT JUMPDEST PUSH1 0x0 DUP2 SWAP1 POP SWAP2 SWAP1 POP JUMP JUMPDEST PUSH2 0xF2 DUP2 PUSH2 0xDF JUMP JUMPDEST DUP2 EQ PUSH2 0xFD JUMPI PUSH1 0x0 DUP1 REVERT JUMPDEST POP JUMP JUMPDEST PUSH1 0x0 DUP2 CALLDATALOAD SWAP1 POP PUSH2 0x10F DUP2 PUSH2 0xE9 JUMP JUMPDEST SWAP3 SWAP2 POP POP JUMP JUMPDEST PUSH1 0x0 PUSH1 0x20 DUP3 DUP5 SUB SLT ISZERO PUSH2 0x12B JUMPI PUSH2 0x12A PUSH2 0xD5 JUMP JUMPDEST JUMPDEST PUSH1 0x0 PUSH2 0x139 DUP5 DUP3 DUP6 ADD PUSH2 0x100 JUMP JUMPDEST SWAP2 POP POP SWAP3 SWAP2 POP POP JUMP JUMPDEST PUSH1 0x0 PUSH20 0xFFFFFFFFFFFFFFFFFFFFFFFFFFFFFFFFFFFFFFFF DUP3 AND SWAP1 POP SWAP2 SWAP1 POP JUMP JUMPDEST PUSH1 0x0 DUP2 SWAP1 POP SWAP2 SWAP1 POP JUMP JUMPDEST PUSH1 0x0 PUSH2 0x187 PUSH2 0x182 PUSH2 0x17D DUP5 PUSH2 0x142 JUMP JUMPDEST PUSH2 0x162 JUMP JUMPDEST PUSH2 0x142 JUMP JUMPDEST SWAP1 POP SWAP2 SWAP1 POP JUMP JUMPDEST PUSH1 0x0 PUSH2 0x199 DUP3 PUSH2 0x16C JUMP JUMPDEST SWAP1 POP SWAP2 SWAP1 POP JUMP JUMPDEST PUSH1 0x0 PUSH2 0x1AB DUP3 PUSH2 0x18E JUMP JUMPDEST SWAP1 POP SWAP2 SWAP1 POP JUMP JUMPDEST PUSH2 0x1BB DUP2 PUSH2 0x1A0 JUMP JUMPDEST DUP3 MSTORE POP POP JUMP JUMPDEST PUSH1 0x0 PUSH1 0x20 DUP3 ADD SWAP1 POP PUSH2 0x1D6 PUSH1 0x0 DUP4 ADD DUP5 PUSH2 0x1B2 JUMP JUMPDEST SWAP3 SWAP2 POP POP JUMP JUMPDEST PUSH1 0x0 DUP1 REVERT JUMPDEST PUSH1 0x0 DUP1 REVERT JUMPDEST PUSH1 0x0 PUSH1 0x1F NOT PUSH1 0x1F DUP4 ADD AND SWAP1 POP SWAP2 SWAP1 POP JUMP JUMPDEST PUSH32 0x4E487B7100000000000000000000000000000000000000000000000000000000 PUSH1 0x0 MSTORE PUSH1 0x41 PUSH1 0x4 MSTORE PUSH1 0x24 PUSH1 0x0 REVERT JUMPDEST PUSH2 0x22F DUP3 PUSH2 0x1E6 JUMP JUMPDEST DUP2 ADD DUP2 DUP2 LT PUSH8 0xFFFFFFFFFFFFFFFF DUP3 GT OR ISZERO PUSH2 0x24E JUMPI PUSH2 0x24D PUSH2 0x1F7 JUMP JUMPDEST JUMPDEST DUP1 PUSH1 0x40 MSTORE POP POP POP JUMP JUMPDEST PUSH1 0x0 PUSH2 0x261 PUSH2 0xCB JUMP JUMPDEST SWAP1 POP PUSH2 0x26D DUP3 DUP3 PUSH2 0x226 JUMP JUMPDEST SWAP2 SWAP1 POP JUMP JUMPDEST PUSH1 0x0 PUSH8 0xFFFFFFFFFFFFFFFF DUP3 GT ISZERO PUSH2 0x28D JUMPI PUSH2 0x28C PUSH2 0x1F7 JUMP JUMPDEST JUMPDEST PUSH2 0x296 DUP3 PUSH2 0x1E6 JUMP JUMPDEST SWAP1 POP PUSH1 0x20 DUP2 ADD SWAP1 POP SWAP2 SWAP1 POP JUMP JUMPDEST DUP3 DUP2 DUP4 CALLDATACOPY PUSH1 0x0 DUP4 DUP4 ADD MSTORE POP POP POP JUMP JUMPDEST PUSH1 0x0 PUSH2 0x2C5 PUSH2 0x2C0 DUP5 PUSH2 0x272 JUMP JUMPDEST PUSH2 0x257 JUMP JUMPDEST SWAP1 POP DUP3 DUP2 MSTORE PUSH1 0x20 DUP2 ADD DUP5 DUP5 DUP5 ADD GT ISZERO PUSH2 0x2E1 JUMPI PUSH2 0x2E0 PUSH2 0x1E1 JUMP JUMPDEST JUMPDEST PUSH2 0x2EC DUP5 DUP3 DUP6 PUSH2 0x2A3 JUMP JUMPDEST POP SWAP4 SWAP3 POP POP POP JUMP JUMPDEST PUSH1 0x0 DUP3 PUSH1 0x1F DUP4 ADD SLT PUSH2 0x309 JUMPI PUSH2 0x308 PUSH2 0x1DC JUMP JUMPDEST JUMPDEST DUP2 CALLDATALOAD PUSH2 0x319 DUP5 DUP3 PUSH1 0x20 DUP7 ADD PUSH2 0x2B2 JUMP JUMPDEST SWAP2 POP POP SWAP3 SWAP2 POP POP JUMP JUMPDEST PUSH1 0x0 DUP1 PUSH1 0x0 PUSH1 0x60 DUP5 DUP7 SUB SLT ISZERO PUSH2 0x33B JUMPI PUSH2 0x33A PUSH2 0xD5 JUMP JUMPDEST JUMPDEST PUSH1 0x0 DUP5 ADD CALLDATALOAD PUSH8 0xFFFFFFFFFFFFFFFF DUP2 GT ISZERO PUSH2 0x359 JUMPI PUSH2 0x358 PUSH2 0xDA JUMP JUMPDEST JUMPDEST PUSH2 0x365 DUP7 DUP3 DUP8 ADD PUSH2 0x2F4 JUMP JUMPDEST SWAP4 POP POP PUSH1 0x20 PUSH2 0x376 DUP7 DUP3 DUP8 ADD PUSH2 0x100 JUMP JUMPDEST SWAP3 POP POP PUSH1 0x40 DUP5 ADD CALLDATALOAD PUSH8 0xFFFFFFFFFFFFFFFF DUP2 GT ISZERO PUSH2 0x397 JUMPI PUSH2 0x396 PUSH2 0xDA JUMP JUMPDEST JUMPDEST PUSH2 0x3A3 DUP7 DUP3 DUP8 ADD PUSH2 0x2F4 JUMP JUMPDEST SWAP2 POP POP SWAP3 POP SWAP3 POP SWAP3 JUMP INVALID LOG2 PUSH5 0x6970667358 0x22 SLT KECCAK256 PUSH26 0xA6CE6F896B790EC1339A85A21238FB45000B0C7502128D724B6C PUSH25 0xF4D1D41864736F6C6343000812003360806040523480156200 STOP GT JUMPI PUSH1 0x0 DUP1 REVERT JUMPDEST POP PUSH1 0x40 MLOAD PUSH3 0x949 CODESIZE SUB DUP1 PUSH3 0x949 DUP4 CODECOPY DUP2 DUP2 ADD PUSH1 0x40 MSTORE DUP2 ADD SWAP1 PUSH3 0x37 SWAP2 SWAP1 PUSH3 0x239 JUMP JUMPDEST DUP3 PUSH1 0x0 SWAP1 DUP2 PUSH3 0x48 SWAP2 SWAP1 PUSH3 0x514 JUMP JUMPDEST POP DUP2 PUSH1 0x1 DUP2 SWAP1 SSTORE POP DUP1 PUSH1 0x2 SWAP1 DUP2 PUSH3 0x61 SWAP2 SWAP1 PUSH3 0x514 JUMP JUMPDEST POP POP POP POP PUSH3 0x5FB JUMP JUMPDEST PUSH1 0x0 PUSH1 0x40 MLOAD SWAP1 POP SWAP1 JUMP JUMPDEST PUSH1 0x0 DUP1 REVERT JUMPDEST PUSH1 0x0 DUP1 REVERT JUMPDEST PUSH1 0x0 DUP1 REVERT JUMPDEST PUSH1 0x0 DUP1 REVERT JUMPDEST PUSH1 0x0 PUSH1 0x1F NOT PUSH1 0x1F DUP4 ADD AND SWAP1 POP SWAP2 SWAP1 POP JUMP JUMPDEST PUSH32 0x4E487B7100000000000000000000000000000000000000000000000000000000 PUSH1 0x0 MSTORE PUSH1 0x41 PUSH1 0x4 MSTORE PUSH1 0x24 PUSH1 0x0 REVERT JUMPDEST PUSH3 0xD4 DUP3 PUSH3 0x89 JUMP JUMPDEST DUP2 ADD DUP2 DUP2 LT PUSH8 0xFFFFFFFFFFFFFFFF DUP3 GT OR ISZERO PUSH3 0xF6 JUMPI PUSH3 0xF5 PUSH3 0x9A JUMP JUMPDEST JUMPDEST DUP1 PUSH1 0x40 MSTORE POP POP POP JUMP JUMPDEST PUSH1 0x0 PUSH3 0x10B PUSH3 0x6B JUMP JUMPDEST SWAP1 POP PUSH3 0x119 DUP3 DUP3 PUSH3 0xC9 JUMP JUMPDEST SWAP2 SWAP1 POP JUMP JUMPDEST PUSH1 0x0 PUSH8 0xFFFFFFFFFFFFFFFF DUP3 GT ISZERO PUSH3 0x13C JUMPI PUSH3 0x13B PUSH3 0x9A JUMP JUMPDEST JUMPDEST PUSH3 0x147 DUP3 PUSH3 0x89 JUMP JUMPDEST SWAP1 POP PUSH1 0x20 DUP2 ADD SWAP1 POP SWAP2 SWAP1 POP JUMP JUMPDEST PUSH1 0x0 JUMPDEST DUP4 DUP2 LT ISZERO PUSH3 0x174 JUMPI DUP1 DUP3 ADD MLOAD DUP2 DUP5 ADD MSTORE PUSH1 0x20 DUP2 ADD SWAP1 POP PUSH3 0x157 JUMP JUMPDEST PUSH1 0x0 DUP5 DUP5 ADD MSTORE POP POP POP POP JUMP JUMPDEST PUSH1 0x0 PUSH3 0x197 PUSH3 0x191 DUP5 PUSH3 0x11E JUMP JUMPDEST PUSH3 0xFF JUMP JUMPDEST SWAP1 POP DUP3 DUP2 MSTORE PUSH1 0x20 DUP2 ADD DUP5 DUP5 DUP5 ADD GT ISZERO PUSH3 0x1B6 JUMPI PUSH3 0x1B5 PUSH3 0x84 JUMP JUMPDEST JUMPDEST PUSH3 0x1C3 DUP5 DUP3 DUP6 PUSH3 0x154 JUMP JUMPDEST POP SWAP4 SWAP3 POP POP POP JUMP JUMPDEST PUSH1 0x0 DUP3 PUSH1 0x1F DUP4 ADD SLT PUSH3 0x1E3 JUMPI PUSH3 0x1E2 PUSH3 0x7F JUMP JUMPDEST JUMPDEST DUP2 MLOAD PUSH3 0x1F5 DUP5 DUP3 PUSH1 0x20 DUP7 ADD PUSH3 0x180 JUMP JUMPDEST SWAP2 POP POP SWAP3 SWAP2 POP POP JUMP JUMPDEST PUSH1 0x0 DUP2 SWAP1 POP SWAP2 SWAP1 POP JUMP JUMPDEST PUSH3 0x213 DUP2 PUSH3 0x1FE JUMP JUMPDEST DUP2 EQ PUSH3 0x21F JUMPI PUSH1 0x0 DUP1 REVERT JUMPDEST POP JUMP JUMPDEST PUSH1 0x0 DUP2 MLOAD SWAP1 POP PUSH3 0x233 DUP2 PUSH3 0x208 JUMP JUMPDEST SWAP3 SWAP2 POP POP JUMP JUMPDEST PUSH1 0x0 DUP1 PUSH1 0x0 PUSH1 0x60 DUP5 DUP7 SUB SLT ISZERO PUSH3 0x255 JUMPI PUSH3 0x254 PUSH3 0x75 JUMP JUMPDEST JUMPDEST PUSH1 0x0 DUP5 ADD MLOAD PUSH8 0xFFFFFFFFFFFFFFFF DUP2 GT ISZERO PUSH3 0x276 JUMPI PUSH3 0x275 PUSH3 0x7A JUMP JUMPDEST JUMPDEST PUSH3 0x284 DUP7 DUP3 DUP8 ADD PUSH3 0x1CB JUMP JUMPDEST SWAP4 POP POP PUSH1 0x20 PUSH3 0x297 DUP7 DUP3 DUP8 ADD PUSH3 0x222 JUMP JUMPDEST SWAP3 POP POP PUSH1 0x40 DUP5 ADD MLOAD PUSH8 0xFFFFFFFFFFFFFFFF DUP2 GT ISZERO PUSH3 0x2BB JUMPI PUSH3 0x2BA PUSH3 0x7A JUMP JUMPDEST JUMPDEST PUSH3 0x2C9 DUP7 DUP3 DUP8 ADD PUSH3 0x1CB JUMP JUMPDEST SWAP2 POP POP SWAP3 POP SWAP3 POP SWAP3 JUMP JUMPDEST PUSH1 0x0 DUP2 MLOAD SWAP1 POP SWAP2 SWAP1 POP JUMP JUMPDEST PUSH32 0x4E487B7100000000000000000000000000000000000000000000000000000000 PUSH1 0x0 MSTORE PUSH1 0x22 PUSH1 0x4 MSTORE PUSH1 0x24 PUSH1 0x0 REVERT JUMPDEST PUSH1 0x0 PUSH1 0x2 DUP3 DIV SWAP1 POP PUSH1 0x1 DUP3 AND DUP1 PUSH3 0x326 JUMPI PUSH1 0x7F DUP3 AND SWAP2 POP JUMPDEST PUSH1 0x20 DUP3 LT DUP2 SUB PUSH3 0x33C JUMPI PUSH3 0x33B PUSH3 0x2DE JUMP JUMPDEST JUMPDEST POP SWAP2 SWAP1 POP JUMP JUMPDEST PUSH1 0x0 DUP2 SWAP1 POP DUP2 PUSH1 0x0 MSTORE PUSH1 0x20 PUSH1 0x0 KECCAK256 SWAP1 POP SWAP2 SWAP1 POP JUMP JUMPDEST PUSH1 0x0 PUSH1 0x20 PUSH1 0x1F DUP4 ADD DIV SWAP1 POP SWAP2 SWAP1 POP JUMP JUMPDEST PUSH1 0x0 DUP3 DUP3 SHL SWAP1 POP SWAP3 SWAP2 POP POP JUMP JUMPDEST PUSH1 0x0 PUSH1 0x8 DUP4 MUL PUSH3 0x3A6 PUSH32 0xFFFFFFFFFFFFFFFFFFFFFFFFFFFFFFFFFFFFFFFFFFFFFFFFFFFFFFFFFFFFFFFF DUP3 PUSH3 0x367 JUMP JUMPDEST PUSH3 0x3B2 DUP7 DUP4 PUSH3 0x367 JUMP JUMPDEST SWAP6 POP DUP1 NOT DUP5 AND SWAP4 POP DUP1 DUP7 AND DUP5 OR SWAP3 POP POP POP SWAP4 SWAP3 POP POP POP JUMP JUMPDEST PUSH1 0x0 DUP2 SWAP1 POP SWAP2 SWAP1 POP JUMP JUMPDEST PUSH1 0x0 PUSH3 0x3F5 PUSH3 0x3EF PUSH3 0x3E9 DUP5 PUSH3 0x1FE JUMP JUMPDEST PUSH3 0x3CA JUMP JUMPDEST PUSH3 0x1FE JUMP JUMPDEST SWAP1 POP SWAP2 SWAP1 POP JUMP JUMPDEST PUSH1 0x0 DUP2 SWAP1 POP SWAP2 SWAP1 POP JUMP JUMPDEST PUSH3 0x411 DUP4 PUSH3 0x3D4 JUMP JUMPDEST PUSH3 0x429 PUSH3 0x420 DUP3 PUSH3 0x3FC JUMP JUMPDEST DUP5 DUP5 SLOAD PUSH3 0x374 JUMP JUMPDEST DUP3 SSTORE POP POP POP POP JUMP JUMPDEST PUSH1 0x0 SWAP1 JUMP JUMPDEST PUSH3 0x440 PUSH3 0x431 JUMP JUMPDEST PUSH3 0x44D DUP2 DUP5 DUP5 PUSH3 0x406 JUMP JUMPDEST POP POP POP JUMP JUMPDEST JUMPDEST DUP2 DUP2 LT ISZERO PUSH3 0x475 JUMPI PUSH3 0x469 PUSH1 0x0 DUP3 PUSH3 0x436 JUMP JUMPDEST PUSH1 0x1 DUP2 ADD SWAP1 POP PUSH3 0x453 JUMP JUMPDEST POP POP JUMP JUMPDEST PUSH1 0x1F DUP3 GT ISZERO PUSH3 0x4C4 JUMPI PUSH3 0x48E DUP2 PUSH3 0x342 JUMP JUMPDEST PUSH3 0x499 DUP5 PUSH3 0x357 JUMP JUMPDEST DUP2 ADD PUSH1 0x20 DUP6 LT ISZERO PUSH3 0x4A9 JUMPI DUP2 SWAP1 POP JUMPDEST PUSH3 0x4C1 PUSH3 0x4B8 DUP6 PUSH3 0x357 JUMP JUMPDEST DUP4 ADD DUP3 PUSH3 0x452 JUMP JUMPDEST POP POP JUMPDEST POP POP POP JUMP JUMPDEST PUSH1 0x0 DUP3 DUP3 SHR SWAP1 POP SWAP3 SWAP2 POP POP JUMP JUMPDEST PUSH1 0x0 PUSH3 0x4E9 PUSH1 0x0 NOT DUP5 PUSH1 0x8 MUL PUSH3 0x4C9 JUMP JUMPDEST NOT DUP1 DUP4 AND SWAP2 POP POP SWAP3 SWAP2 POP POP JUMP JUMPDEST PUSH1 0x0 PUSH3 0x504 DUP4 DUP4 PUSH3 0x4D6 JUMP JUMPDEST SWAP2 POP DUP3 PUSH1 0x2 MUL DUP3 OR SWAP1 POP SWAP3 SWAP2 POP POP JUMP JUMPDEST PUSH3 0x51F DUP3 PUSH3 0x2D3 JUMP JUMPDEST PUSH8 0xFFFFFFFFFFFFFFFF DUP2 GT ISZERO PUSH3 0x53B JUMPI PUSH3 0x53A PUSH3 0x9A JUMP JUMPDEST JUMPDEST PUSH3 0x547 DUP3 SLOAD PUSH3 0x30D JUMP JUMPDEST PUSH3 0x554 DUP3 DUP3 DUP6 PUSH3 0x479 JUMP JUMPDEST PUSH1 0x0 PUSH1 0x20 SWAP1 POP PUSH1 0x1F DUP4 GT PUSH1 0x1 DUP2 EQ PUSH3 0x58C JUMPI PUSH1 0x0 DUP5 ISZERO PUSH3 0x577 JUMPI DUP3 DUP8 ADD MLOAD SWAP1 POP JUMPDEST PUSH3 0x583 DUP6 DUP3 PUSH3 0x4F6 JUMP JUMPDEST DUP7 SSTORE POP PUSH3 0x5F3 JUMP JUMPDEST PUSH1 0x1F NOT DUP5 AND PUSH3 0x59C DUP7 PUSH3 0x342 JUMP JUMPDEST PUSH1 0x0 JUMPDEST DUP3 DUP2 LT ISZERO PUSH3 0x5C6 JUMPI DUP5 DUP10 ADD MLOAD DUP3 SSTORE PUSH1 0x1 DUP3 ADD SWAP2 POP PUSH1 0x20 DUP6 ADD SWAP5 POP PUSH1 0x20 DUP2 ADD SWAP1 POP PUSH3 0x59F JUMP JUMPDEST DUP7 DUP4 LT ISZERO PUSH3 0x5E6 JUMPI DUP5 DUP10 ADD MLOAD PUSH3 0x5E2 PUSH1 0x1F DUP10 AND DUP3 PUSH3 0x4D6 JUMP JUMPDEST DUP4 SSTORE POP JUMPDEST PUSH1 0x1 PUSH1 0x2 DUP9 MUL ADD DUP9 SSTORE POP POP POP JUMPDEST POP POP POP POP POP POP JUMP JUMPDEST PUSH2 0x33E DUP1 PUSH3 0x60B PUSH1 0x0 CODECOPY PUSH1 0x0 RETURN INVALID PUSH1 0x80 PUSH1 0x40 MSTORE CALLVALUE DUP1 ISZERO PUSH2 0x10 JUMPI PUSH1 0x0 DUP1 REVERT JUMPDEST POP PUSH1 0x4 CALLDATASIZE LT PUSH2 0x41 JUMPI PUSH1 0x0 CALLDATALOAD PUSH1 0xE0 SHR DUP1 PUSH4 0x6FDDE03 EQ PUSH2 0x46 JUMPI DUP1 PUSH4 0x262A9DFF EQ PUSH2 0x64 JUMPI DUP1 PUSH4 0x7C014F80 EQ PUSH2 0x82 JUMPI JUMPDEST PUSH1 0x0 DUP1 REVERT JUMPDEST PUSH2 0x4E PUSH2 0xA0 JUMP JUMPDEST PUSH1 0x40 MLOAD PUSH2 0x5B SWAP2 SWAP1 PUSH2 0x252 JUMP JUMPDEST PUSH1 0x40 MLOAD DUP1 SWAP2 SUB SWAP1 RETURN JUMPDEST PUSH2 0x6C PUSH2 0x12E JUMP JUMPDEST PUSH1 0x40 MLOAD PUSH2 0x79 SWAP2 SWAP1 PUSH2 0x28D JUMP JUMPDEST PUSH1 0x40 MLOAD DUP1 SWAP2 SUB SWAP1 RETURN JUMPDEST PUSH2 0x8A PUSH2 0x134 JUMP JUMPDEST PUSH1 0x40 MLOAD PUSH2 0x97 SWAP2 SWAP1 PUSH2 0x252 JUMP JUMPDEST PUSH1 0x40 MLOAD DUP1 SWAP2 SUB SWAP1 RETURN JUMPDEST PUSH1 0x0 DUP1 SLOAD PUSH2 0xAD SWAP1 PUSH2 0x2D7 JUMP JUMPDEST DUP1 PUSH1 0x1F ADD PUSH1 0x20 DUP1 SWAP2 DIV MUL PUSH1 0x20 ADD PUSH1 0x40 MLOAD SWAP1 DUP2 ADD PUSH1 0x40 MSTORE DUP1 SWAP3 SWAP2 SWAP1 DUP2 DUP2 MSTORE PUSH1 0x20 ADD DUP3 DUP1 SLOAD PUSH2 0xD9 SWAP1 PUSH2 0x2D7 JUMP JUMPDEST DUP1 ISZERO PUSH2 0x126 JUMPI DUP1 PUSH1 0x1F LT PUSH2 0xFB JUMPI PUSH2 0x100 DUP1 DUP4 SLOAD DIV MUL DUP4 MSTORE SWAP2 PUSH1 0x20 ADD SWAP2 PUSH2 0x126 JUMP JUMPDEST DUP3 ADD SWAP2 SWAP1 PUSH1 0x0 MSTORE PUSH1 0x20 PUSH1 0x0 KECCAK256 SWAP1 JUMPDEST DUP2 SLOAD DUP2 MSTORE SWAP1 PUSH1 0x1 ADD SWAP1 PUSH1 0x20 ADD DUP1 DUP4 GT PUSH2 0x109 JUMPI DUP3 SWAP1 SUB PUSH1 0x1F AND DUP3 ADD SWAP2 JUMPDEST POP POP POP POP POP DUP2 JUMP JUMPDEST PUSH1 0x1 SLOAD DUP2 JUMP JUMPDEST PUSH1 0x2 DUP1 SLOAD PUSH2 0x141 SWAP1 PUSH2 0x2D7 JUMP JUMPDEST DUP1 PUSH1 0x1F ADD PUSH1 0x20 DUP1 SWAP2 DIV MUL PUSH1 0x20 ADD PUSH1 0x40 MLOAD SWAP1 DUP2 ADD PUSH1 0x40 MSTORE DUP1 SWAP3 SWAP2 SWAP1 DUP2 DUP2 MSTORE PUSH1 0x20 ADD DUP3 DUP1 SLOAD PUSH2 0x16D SWAP1 PUSH2 0x2D7 JUMP JUMPDEST DUP1 ISZERO PUSH2 0x1BA JUMPI DUP1 PUSH1 0x1F LT PUSH2 0x18F JUMPI PUSH2 0x100 DUP1 DUP4 SLOAD DIV MUL DUP4 MSTORE SWAP2 PUSH1 0x20 ADD SWAP2 PUSH2 0x1BA JUMP JUMPDEST DUP3 ADD SWAP2 SWAP1 PUSH1 0x0 MSTORE PUSH1 0x20 PUSH1 0x0 KECCAK256 SWAP1 JUMPDEST DUP2 SLOAD DUP2 MSTORE SWAP1 PUSH1 0x1 ADD SWAP1 PUSH1 0x20 ADD DUP1 DUP4 GT PUSH2 0x19D JUMPI DUP3 SWAP1 SUB PUSH1 0x1F AND DUP3 ADD SWAP2 JUMPDEST POP POP POP POP POP DUP2 JUMP JUMPDEST PUSH1 0x0 DUP2 MLOAD SWAP1 POP SWAP2 SWAP1 POP JUMP JUMPDEST PUSH1 0x0 DUP3 DUP3 MSTORE PUSH1 0x20 DUP3 ADD SWAP1 POP SWAP3 SWAP2 POP POP JUMP JUMPDEST PUSH1 0x0 JUMPDEST DUP4 DUP2 LT ISZERO PUSH2 0x1FC JUMPI DUP1 DUP3 ADD MLOAD DUP2 DUP5 ADD MSTORE PUSH1 0x20 DUP2 ADD SWAP1 POP PUSH2 0x1E1 JUMP JUMPDEST PUSH1 0x0 DUP5 DUP5 ADD MSTORE POP POP POP POP JUMP JUMPDEST PUSH1 0x0 PUSH1 0x1F NOT PUSH1 0x1F DUP4 ADD AND SWAP1 POP SWAP2 SWAP1 POP JUMP JUMPDEST PUSH1 0x0 PUSH2 0x224 DUP3 PUSH2 0x1C2 JUMP JUMPDEST PUSH2 0x22E DUP2 DUP6 PUSH2 0x1CD JUMP JUMPDEST SWAP4 POP PUSH2 0x23E DUP2 DUP6 PUSH1 0x20 DUP7 ADD PUSH2 0x1DE JUMP JUMPDEST PUSH2 0x247 DUP2 PUSH2 0x208 JUMP JUMPDEST DUP5 ADD SWAP2 POP POP SWAP3 SWAP2 POP POP JUMP JUMPDEST PUSH1 0x0 PUSH1 0x20 DUP3 ADD SWAP1 POP DUP2 DUP2 SUB PUSH1 0x0 DUP4 ADD MSTORE PUSH2 0x26C DUP2 DUP5 PUSH2 0x219 JUMP JUMPDEST SWAP1 POP SWAP3 SWAP2 POP POP JUMP JUMPDEST PUSH1 0x0 DUP2 SWAP1 POP SWAP2 SWAP1 POP JUMP JUMPDEST PUSH2 0x287 DUP2 PUSH2 0x274 JUMP JUMPDEST DUP3 MSTORE POP POP JUMP JUMPDEST PUSH1 0x0 PUSH1 0x20 DUP3 ADD SWAP1 POP PUSH2 0x2A2 PUSH1 0x0 DUP4 ADD DUP5 PUSH2 0x27E JUMP JUMPDEST SWAP3 SWAP2 POP POP JUMP JUMPDEST PUSH32 0x4E487B7100000000000000000000000000000000000000000000000000000000 PUSH1 0x0 MSTORE PUSH1 0x22 PUSH1 0x4 MSTORE PUSH1 0x24 PUSH1 0x0 REVERT JUMPDEST PUSH1 0x0 PUSH1 0x2 DUP3 DIV SWAP1 POP PUSH1 0x1 DUP3 AND DUP1 PUSH2 0x2EF JUMPI PUSH1 0x7F DUP3 AND SWAP2 POP JUMPDEST PUSH1 0x20 DUP3 LT DUP2 SUB PUSH2 0x302 JUMPI PUSH2 0x301 PUSH2 0x2A8 JUMP JUMPDEST JUMPDEST POP SWAP2 SWAP1 POP JUMP INVALID LOG2 PUSH5 0x6970667358 0x22 SLT KECCAK256 0x5E SWAP12 CALLCODE SWAP8 PUSH6 0x7B1D5585D676 SWAP14 SWAP1 0xAB LOG0 SWAP1 SWAP10 DUP5 0xC6 0xD4 SWAP7 0xDE SELFDESTRUCT SWAP4 0xAD 0xF6 0xAF EXP MULMOD 0xA9 CHAINID PUSH29 0x64736F6C63430008120033000000000000000000000000000000000000 "
				},
				"gasEstimates": {
					"creation": {
						"codeDepositCost": "199000",
						"executionCost": "infinite",
						"totalCost": "infinite"
					},
					"external": {
						"list(uint256)": "infinite",
						"newIn(string,uint256,string)": "infinite"
					}
				},
				"methodIdentifiers": {
					"list(uint256)": "80c9419e",
					"newIn(string,uint256,string)": "8956645e"
				}
			},
			"storageLayout": {
				"storage": [
					{
						"astId": 82,
						"contract": "Labs (August)/try_catch_library/newKeyword.sol:patientlist",
						"label": "list",
						"offset": 0,
						"slot": "0",
						"type": "t_array(t_contract(HMS)78)dyn_storage"
					},
					{
						"astId": 113,
						"contract": "Labs (August)/try_catch_library/newKeyword.sol:patientlist",
						"label": "newpatients",
						"offset": 0,
						"slot": "1",
						"type": "t_contract(HMS)78"
					}
				],
				"types": {
					"t_array(t_contract(HMS)78)dyn_storage": {
						"base": "t_contract(HMS)78",
						"encoding": "dynamic_array",
						"label": "contract HMS[]",
						"numberOfBytes": "32"
					},
					"t_contract(HMS)78": {
						"encoding": "inplace",
						"label": "contract HMS",
						"numberOfBytes": "20"
					}
				}
			},
			"userdoc": {
				"kind": "user",
				"methods": {},
				"version": 1
			}
		}
	}
}