{
	"Labs (August)/try_catch_library/newKeyword.sol": {
		"StudentsList": {
			"abi": [
				{
					"inputs": [],
					"stateMutability": "nonpayable",
					"type": "constructor"
				},
				{
					"inputs": [
						{
							"internalType": "uint256",
							"name": "",
							"type": "uint256"
						}
					],
					"name": "students",
					"outputs": [
						{
							"internalType": "contract Student",
							"name": "",
							"type": "address"
						}
					],
					"stateMutability": "view",
					"type": "function"
				}
			],
			"devdoc": {
				"kind": "dev",
				"methods": {},
				"version": 1
			},
			"evm": {
				"assembly": "    /* \"Labs (August)/try_catch_library/newKeyword.sol\":321:553  contract StudentsList {... */\n  mstore(0x40, 0x80)\n    /* \"Labs (August)/try_catch_library/newKeyword.sol\":434:542  constructor () {... */\n  callvalue\n  dup1\n  iszero\n  tag_1\n  jumpi\n  0x00\n  dup1\n  revert\ntag_1:\n  pop\n    /* \"Labs (August)/try_catch_library/newKeyword.sol\":456:474  Student newStudent */\n  0x00\n    /* \"Labs (August)/try_catch_library/newKeyword.sol\":498:500  20 */\n  0x14\n    /* \"Labs (August)/try_catch_library/newKeyword.sol\":477:501  new Student(\"Burak\", 20) */\n  mload(0x40)\n  tag_4\n  swap1\n  tag_5\n  jump\t// in\ntag_4:\n  tag_6\n  swap2\n  swap1\n  tag_7\n  jump\t// in\ntag_6:\n  mload(0x40)\n  dup1\n  swap2\n  sub\n  swap1\n  0x00\n  create\n  dup1\n  iszero\n  dup1\n  iszero\n  tag_8\n  jumpi\n  returndatasize\n  0x00\n  dup1\n  returndatacopy\n  revert(0x00, returndatasize)\ntag_8:\n  pop\n    /* \"Labs (August)/try_catch_library/newKeyword.sol\":456:501  Student newStudent = new Student(\"Burak\", 20) */\n  swap1\n  pop\n    /* \"Labs (August)/try_catch_library/newKeyword.sol\":508:516  students */\n  0x00\n    /* \"Labs (August)/try_catch_library/newKeyword.sol\":522:532  newStudent */\n  dup2\n    /* \"Labs (August)/try_catch_library/newKeyword.sol\":508:533  students.push(newStudent) */\n  swap1\n  dup1\n  0x01\n  dup2\n  sload\n  add\n  dup1\n  dup3\n  sstore\n  dup1\n  swap2\n  pop\n  pop\n  0x01\n  swap1\n  sub\n  swap1\n  0x00\n  mstore\n  keccak256(0x00, 0x20)\n  add\n  0x00\n  swap1\n  swap2\n  swap1\n  swap2\n  swap1\n  swap2\n  0x0100\n  exp\n  dup2\n  sload\n  dup2\n  0xffffffffffffffffffffffffffffffffffffffff\n  mul\n  not\n  and\n  swap1\n  dup4\n  0xffffffffffffffffffffffffffffffffffffffff\n  and\n  mul\n  or\n  swap1\n  sstore\n  pop\n    /* \"Labs (August)/try_catch_library/newKeyword.sol\":449:542  {... */\n  pop\n    /* \"Labs (August)/try_catch_library/newKeyword.sol\":321:553  contract StudentsList {... */\n  jump(tag_10)\ntag_5:\n  dataSize(sub_1)\n  dup1\n  dataOffset(sub_1)\n  dup4\n  codecopy\n  add\n  swap1\n  jump\t// out\n    /* \"#utility.yul\":7:176   */\ntag_11:\n    /* \"#utility.yul\":91:102   */\n  0x00\n    /* \"#utility.yul\":125:131   */\n  dup3\n    /* \"#utility.yul\":120:123   */\n  dup3\n    /* \"#utility.yul\":113:132   */\n  mstore\n    /* \"#utility.yul\":165:169   */\n  0x20\n    /* \"#utility.yul\":160:163   */\n  dup3\n    /* \"#utility.yul\":156:170   */\n  add\n    /* \"#utility.yul\":141:170   */\n  swap1\n  pop\n    /* \"#utility.yul\":7:176   */\n  swap3\n  swap2\n  pop\n  pop\n  jump\t// out\n    /* \"#utility.yul\":182:337   */\ntag_12:\n    /* \"#utility.yul\":322:329   */\n  0x427572616b000000000000000000000000000000000000000000000000000000\n    /* \"#utility.yul\":318:319   */\n  0x00\n    /* \"#utility.yul\":310:316   */\n  dup3\n    /* \"#utility.yul\":306:320   */\n  add\n    /* \"#utility.yul\":299:330   */\n  mstore\n    /* \"#utility.yul\":182:337   */\n  pop\n  jump\t// out\n    /* \"#utility.yul\":343:708   */\ntag_13:\n    /* \"#utility.yul\":485:488   */\n  0x00\n    /* \"#utility.yul\":506:572   */\n  tag_23\n    /* \"#utility.yul\":570:571   */\n  0x05\n    /* \"#utility.yul\":565:568   */\n  dup4\n    /* \"#utility.yul\":506:572   */\n  tag_11\n  jump\t// in\ntag_23:\n    /* \"#utility.yul\":499:572   */\n  swap2\n  pop\n    /* \"#utility.yul\":581:674   */\n  tag_24\n    /* \"#utility.yul\":670:673   */\n  dup3\n    /* \"#utility.yul\":581:674   */\n  tag_12\n  jump\t// in\ntag_24:\n    /* \"#utility.yul\":699:701   */\n  0x20\n    /* \"#utility.yul\":694:697   */\n  dup3\n    /* \"#utility.yul\":690:702   */\n  add\n    /* \"#utility.yul\":683:702   */\n  swap1\n  pop\n    /* \"#utility.yul\":343:708   */\n  swap2\n  swap1\n  pop\n  jump\t// out\n    /* \"#utility.yul\":714:800   */\ntag_14:\n    /* \"#utility.yul\":760:767   */\n  0x00\n    /* \"#utility.yul\":789:794   */\n  dup2\n    /* \"#utility.yul\":778:794   */\n  swap1\n  pop\n    /* \"#utility.yul\":714:800   */\n  swap2\n  swap1\n  pop\n  jump\t// out\n    /* \"#utility.yul\":806:883   */\ntag_15:\n    /* \"#utility.yul\":843:850   */\n  0x00\n    /* \"#utility.yul\":872:877   */\n  dup2\n    /* \"#utility.yul\":861:877   */\n  swap1\n  pop\n    /* \"#utility.yul\":806:883   */\n  swap2\n  swap1\n  pop\n  jump\t// out\n    /* \"#utility.yul\":889:949   */\ntag_16:\n    /* \"#utility.yul\":917:920   */\n  0x00\n    /* \"#utility.yul\":938:943   */\n  dup2\n    /* \"#utility.yul\":931:943   */\n  swap1\n  pop\n    /* \"#utility.yul\":889:949   */\n  swap2\n  swap1\n  pop\n  jump\t// out\n    /* \"#utility.yul\":955:1115   */\ntag_17:\n    /* \"#utility.yul\":1014:1023   */\n  0x00\n    /* \"#utility.yul\":1047:1109   */\n  tag_29\n    /* \"#utility.yul\":1065:1108   */\n  tag_30\n    /* \"#utility.yul\":1074:1107   */\n  tag_31\n    /* \"#utility.yul\":1101:1106   */\n  dup5\n    /* \"#utility.yul\":1074:1107   */\n  tag_14\n  jump\t// in\ntag_31:\n    /* \"#utility.yul\":1065:1108   */\n  tag_16\n  jump\t// in\ntag_30:\n    /* \"#utility.yul\":1047:1109   */\n  tag_15\n  jump\t// in\ntag_29:\n    /* \"#utility.yul\":1034:1109   */\n  swap1\n  pop\n    /* \"#utility.yul\":955:1115   */\n  swap2\n  swap1\n  pop\n  jump\t// out\n    /* \"#utility.yul\":1121:1270   */\ntag_18:\n    /* \"#utility.yul\":1217:1263   */\n  tag_33\n    /* \"#utility.yul\":1257:1262   */\n  dup2\n    /* \"#utility.yul\":1217:1263   */\n  tag_17\n  jump\t// in\ntag_33:\n    /* \"#utility.yul\":1212:1215   */\n  dup3\n    /* \"#utility.yul\":1205:1264   */\n  mstore\n    /* \"#utility.yul\":1121:1270   */\n  pop\n  pop\n  jump\t// out\n    /* \"#utility.yul\":1276:1823   */\ntag_7:\n    /* \"#utility.yul\":1479:1483   */\n  0x00\n    /* \"#utility.yul\":1517:1519   */\n  0x40\n    /* \"#utility.yul\":1506:1515   */\n  dup3\n    /* \"#utility.yul\":1502:1520   */\n  add\n    /* \"#utility.yul\":1494:1520   */\n  swap1\n  pop\n    /* \"#utility.yul\":1566:1575   */\n  dup2\n    /* \"#utility.yul\":1560:1564   */\n  dup2\n    /* \"#utility.yul\":1556:1576   */\n  sub\n    /* \"#utility.yul\":1552:1553   */\n  0x00\n    /* \"#utility.yul\":1541:1550   */\n  dup4\n    /* \"#utility.yul\":1537:1554   */\n  add\n    /* \"#utility.yul\":1530:1577   */\n  mstore\n    /* \"#utility.yul\":1594:1725   */\n  tag_35\n    /* \"#utility.yul\":1720:1724   */\n  dup2\n    /* \"#utility.yul\":1594:1725   */\n  tag_13\n  jump\t// in\ntag_35:\n    /* \"#utility.yul\":1586:1725   */\n  swap1\n  pop\n    /* \"#utility.yul\":1735:1816   */\n  tag_36\n    /* \"#utility.yul\":1812:1814   */\n  0x20\n    /* \"#utility.yul\":1801:1810   */\n  dup4\n    /* \"#utility.yul\":1797:1815   */\n  add\n    /* \"#utility.yul\":1788:1794   */\n  dup5\n    /* \"#utility.yul\":1735:1816   */\n  tag_18\n  jump\t// in\ntag_36:\n    /* \"#utility.yul\":1276:1823   */\n  swap3\n  swap2\n  pop\n  pop\n  jump\t// out\n    /* \"Labs (August)/try_catch_library/newKeyword.sol\":321:553  contract StudentsList {... */\ntag_10:\n  dataSize(sub_0)\n  dup1\n  dataOffset(sub_0)\n  0x00\n  codecopy\n  0x00\n  return\nstop\n\nsub_0: assembly {\n        /* \"Labs (August)/try_catch_library/newKeyword.sol\":321:553  contract StudentsList {... */\n      mstore(0x40, 0x80)\n      callvalue\n      dup1\n      iszero\n      tag_1\n      jumpi\n      0x00\n      dup1\n      revert\n    tag_1:\n      pop\n      jumpi(tag_2, lt(calldatasize, 0x04))\n      shr(0xe0, calldataload(0x00))\n      dup1\n      0x06ead22e\n      eq\n      tag_3\n      jumpi\n    tag_2:\n      0x00\n      dup1\n      revert\n        /* \"Labs (August)/try_catch_library/newKeyword.sol\":400:425  Student[] public students */\n    tag_3:\n      tag_4\n      0x04\n      dup1\n      calldatasize\n      sub\n      dup2\n      add\n      swap1\n      tag_5\n      swap2\n      swap1\n      tag_6\n      jump\t// in\n    tag_5:\n      tag_7\n      jump\t// in\n    tag_4:\n      mload(0x40)\n      tag_8\n      swap2\n      swap1\n      tag_9\n      jump\t// in\n    tag_8:\n      mload(0x40)\n      dup1\n      swap2\n      sub\n      swap1\n      return\n    tag_7:\n      0x00\n      dup2\n      dup2\n      sload\n      dup2\n      lt\n      tag_10\n      jumpi\n      0x00\n      dup1\n      revert\n    tag_10:\n      swap1\n      0x00\n      mstore\n      keccak256(0x00, 0x20)\n      add\n      0x00\n      swap2\n      pop\n      sload\n      swap1\n      0x0100\n      exp\n      swap1\n      div\n      0xffffffffffffffffffffffffffffffffffffffff\n      and\n      dup2\n      jump\t// out\n        /* \"#utility.yul\":88:205   */\n    tag_13:\n        /* \"#utility.yul\":197:198   */\n      0x00\n        /* \"#utility.yul\":194:195   */\n      dup1\n        /* \"#utility.yul\":187:199   */\n      revert\n        /* \"#utility.yul\":334:411   */\n    tag_15:\n        /* \"#utility.yul\":371:378   */\n      0x00\n        /* \"#utility.yul\":400:405   */\n      dup2\n        /* \"#utility.yul\":389:405   */\n      swap1\n      pop\n        /* \"#utility.yul\":334:411   */\n      swap2\n      swap1\n      pop\n      jump\t// out\n        /* \"#utility.yul\":417:539   */\n    tag_16:\n        /* \"#utility.yul\":490:514   */\n      tag_30\n        /* \"#utility.yul\":508:513   */\n      dup2\n        /* \"#utility.yul\":490:514   */\n      tag_15\n      jump\t// in\n    tag_30:\n        /* \"#utility.yul\":483:488   */\n      dup2\n        /* \"#utility.yul\":480:515   */\n      eq\n        /* \"#utility.yul\":470:533   */\n      tag_31\n      jumpi\n        /* \"#utility.yul\":529:530   */\n      0x00\n        /* \"#utility.yul\":526:527   */\n      dup1\n        /* \"#utility.yul\":519:531   */\n      revert\n        /* \"#utility.yul\":470:533   */\n    tag_31:\n        /* \"#utility.yul\":417:539   */\n      pop\n      jump\t// out\n        /* \"#utility.yul\":545:684   */\n    tag_17:\n        /* \"#utility.yul\":591:596   */\n      0x00\n        /* \"#utility.yul\":629:635   */\n      dup2\n        /* \"#utility.yul\":616:636   */\n      calldataload\n        /* \"#utility.yul\":607:636   */\n      swap1\n      pop\n        /* \"#utility.yul\":645:678   */\n      tag_33\n        /* \"#utility.yul\":672:677   */\n      dup2\n        /* \"#utility.yul\":645:678   */\n      tag_16\n      jump\t// in\n    tag_33:\n        /* \"#utility.yul\":545:684   */\n      swap3\n      swap2\n      pop\n      pop\n      jump\t// out\n        /* \"#utility.yul\":690:1019   */\n    tag_6:\n        /* \"#utility.yul\":749:755   */\n      0x00\n        /* \"#utility.yul\":798:800   */\n      0x20\n        /* \"#utility.yul\":786:795   */\n      dup3\n        /* \"#utility.yul\":777:784   */\n      dup5\n        /* \"#utility.yul\":773:796   */\n      sub\n        /* \"#utility.yul\":769:801   */\n      slt\n        /* \"#utility.yul\":766:885   */\n      iszero\n      tag_35\n      jumpi\n        /* \"#utility.yul\":804:883   */\n      tag_36\n      tag_13\n      jump\t// in\n    tag_36:\n        /* \"#utility.yul\":766:885   */\n    tag_35:\n        /* \"#utility.yul\":924:925   */\n      0x00\n        /* \"#utility.yul\":949:1002   */\n      tag_37\n        /* \"#utility.yul\":994:1001   */\n      dup5\n        /* \"#utility.yul\":985:991   */\n      dup3\n        /* \"#utility.yul\":974:983   */\n      dup6\n        /* \"#utility.yul\":970:992   */\n      add\n        /* \"#utility.yul\":949:1002   */\n      tag_17\n      jump\t// in\n    tag_37:\n        /* \"#utility.yul\":939:1002   */\n      swap2\n      pop\n        /* \"#utility.yul\":895:1012   */\n      pop\n        /* \"#utility.yul\":690:1019   */\n      swap3\n      swap2\n      pop\n      pop\n      jump\t// out\n        /* \"#utility.yul\":1025:1151   */\n    tag_18:\n        /* \"#utility.yul\":1062:1069   */\n      0x00\n        /* \"#utility.yul\":1102:1144   */\n      0xffffffffffffffffffffffffffffffffffffffff\n        /* \"#utility.yul\":1095:1100   */\n      dup3\n        /* \"#utility.yul\":1091:1145   */\n      and\n        /* \"#utility.yul\":1080:1145   */\n      swap1\n      pop\n        /* \"#utility.yul\":1025:1151   */\n      swap2\n      swap1\n      pop\n      jump\t// out\n        /* \"#utility.yul\":1157:1217   */\n    tag_19:\n        /* \"#utility.yul\":1185:1188   */\n      0x00\n        /* \"#utility.yul\":1206:1211   */\n      dup2\n        /* \"#utility.yul\":1199:1211   */\n      swap1\n      pop\n        /* \"#utility.yul\":1157:1217   */\n      swap2\n      swap1\n      pop\n      jump\t// out\n        /* \"#utility.yul\":1223:1365   */\n    tag_20:\n        /* \"#utility.yul\":1273:1282   */\n      0x00\n        /* \"#utility.yul\":1306:1359   */\n      tag_41\n        /* \"#utility.yul\":1324:1358   */\n      tag_42\n        /* \"#utility.yul\":1333:1357   */\n      tag_43\n        /* \"#utility.yul\":1351:1356   */\n      dup5\n        /* \"#utility.yul\":1333:1357   */\n      tag_18\n      jump\t// in\n    tag_43:\n        /* \"#utility.yul\":1324:1358   */\n      tag_19\n      jump\t// in\n    tag_42:\n        /* \"#utility.yul\":1306:1359   */\n      tag_18\n      jump\t// in\n    tag_41:\n        /* \"#utility.yul\":1293:1359   */\n      swap1\n      pop\n        /* \"#utility.yul\":1223:1365   */\n      swap2\n      swap1\n      pop\n      jump\t// out\n        /* \"#utility.yul\":1371:1497   */\n    tag_21:\n        /* \"#utility.yul\":1421:1430   */\n      0x00\n        /* \"#utility.yul\":1454:1491   */\n      tag_45\n        /* \"#utility.yul\":1485:1490   */\n      dup3\n        /* \"#utility.yul\":1454:1491   */\n      tag_20\n      jump\t// in\n    tag_45:\n        /* \"#utility.yul\":1441:1491   */\n      swap1\n      pop\n        /* \"#utility.yul\":1371:1497   */\n      swap2\n      swap1\n      pop\n      jump\t// out\n        /* \"#utility.yul\":1503:1643   */\n    tag_22:\n        /* \"#utility.yul\":1567:1576   */\n      0x00\n        /* \"#utility.yul\":1600:1637   */\n      tag_47\n        /* \"#utility.yul\":1631:1636   */\n      dup3\n        /* \"#utility.yul\":1600:1637   */\n      tag_21\n      jump\t// in\n    tag_47:\n        /* \"#utility.yul\":1587:1637   */\n      swap1\n      pop\n        /* \"#utility.yul\":1503:1643   */\n      swap2\n      swap1\n      pop\n      jump\t// out\n        /* \"#utility.yul\":1649:1808   */\n    tag_23:\n        /* \"#utility.yul\":1750:1801   */\n      tag_49\n        /* \"#utility.yul\":1795:1800   */\n      dup2\n        /* \"#utility.yul\":1750:1801   */\n      tag_22\n      jump\t// in\n    tag_49:\n        /* \"#utility.yul\":1745:1748   */\n      dup3\n        /* \"#utility.yul\":1738:1802   */\n      mstore\n        /* \"#utility.yul\":1649:1808   */\n      pop\n      pop\n      jump\t// out\n        /* \"#utility.yul\":1814:2064   */\n    tag_9:\n        /* \"#utility.yul\":1921:1925   */\n      0x00\n        /* \"#utility.yul\":1959:1961   */\n      0x20\n        /* \"#utility.yul\":1948:1957   */\n      dup3\n        /* \"#utility.yul\":1944:1962   */\n      add\n        /* \"#utility.yul\":1936:1962   */\n      swap1\n      pop\n        /* \"#utility.yul\":1972:2057   */\n      tag_51\n        /* \"#utility.yul\":2054:2055   */\n      0x00\n        /* \"#utility.yul\":2043:2052   */\n      dup4\n        /* \"#utility.yul\":2039:2056   */\n      add\n        /* \"#utility.yul\":2030:2036   */\n      dup5\n        /* \"#utility.yul\":1972:2057   */\n      tag_23\n      jump\t// in\n    tag_51:\n        /* \"#utility.yul\":1814:2064   */\n      swap3\n      swap2\n      pop\n      pop\n      jump\t// out\n\n    auxdata: 0xa26469706673582212207900098ddf605d8ea4bed02002a5c151e65236167346f69f8b08576547b50dae64736f6c63430008120033\n}\n\nsub_1: assembly {\n        /* \"Labs (August)/try_catch_library/newKeyword.sol\":63:319  contract Student {... */\n      mstore(0x40, 0x80)\n        /* \"Labs (August)/try_catch_library/newKeyword.sol\":217:314  constructor (string memory name,uint rollNum) {... */\n      callvalue\n      dup1\n      iszero\n      tag_1\n      jumpi\n      0x00\n      dup1\n      revert\n    tag_1:\n      pop\n      mload(0x40)\n      sub(codesize, bytecodeSize)\n      dup1\n      bytecodeSize\n      dup4\n      codecopy\n      dup2\n      dup2\n      add\n      0x40\n      mstore\n      dup2\n      add\n      swap1\n      tag_2\n      swap2\n      swap1\n      tag_3\n      jump\t// in\n    tag_2:\n        /* \"Labs (August)/try_catch_library/newKeyword.sol\":280:284  name */\n      dup2\n        /* \"Labs (August)/try_catch_library/newKeyword.sol\":270:277  stdName */\n      0x00\n        /* \"Labs (August)/try_catch_library/newKeyword.sol\":270:284  stdName = name */\n      swap1\n      dup2\n      tag_6\n      swap2\n      swap1\n      tag_7\n      jump\t// in\n    tag_6:\n      pop\n        /* \"Labs (August)/try_catch_library/newKeyword.sol\":304:311  rollNum */\n      dup1\n        /* \"Labs (August)/try_catch_library/newKeyword.sol\":291:301  stdRollNum */\n      0x01\n        /* \"Labs (August)/try_catch_library/newKeyword.sol\":291:311  stdRollNum = rollNum */\n      dup2\n      swap1\n      sstore\n      pop\n        /* \"Labs (August)/try_catch_library/newKeyword.sol\":217:314  constructor (string memory name,uint rollNum) {... */\n      pop\n      pop\n        /* \"Labs (August)/try_catch_library/newKeyword.sol\":63:319  contract Student {... */\n      jump(tag_8)\n        /* \"#utility.yul\":7:82   */\n    tag_9:\n        /* \"#utility.yul\":40:46   */\n      0x00\n        /* \"#utility.yul\":73:75   */\n      0x40\n        /* \"#utility.yul\":67:76   */\n      mload\n        /* \"#utility.yul\":57:76   */\n      swap1\n      pop\n        /* \"#utility.yul\":7:82   */\n      swap1\n      jump\t// out\n        /* \"#utility.yul\":88:205   */\n    tag_10:\n        /* \"#utility.yul\":197:198   */\n      0x00\n        /* \"#utility.yul\":194:195   */\n      dup1\n        /* \"#utility.yul\":187:199   */\n      revert\n        /* \"#utility.yul\":211:328   */\n    tag_11:\n        /* \"#utility.yul\":320:321   */\n      0x00\n        /* \"#utility.yul\":317:318   */\n      dup1\n        /* \"#utility.yul\":310:322   */\n      revert\n        /* \"#utility.yul\":334:451   */\n    tag_12:\n        /* \"#utility.yul\":443:444   */\n      0x00\n        /* \"#utility.yul\":440:441   */\n      dup1\n        /* \"#utility.yul\":433:445   */\n      revert\n        /* \"#utility.yul\":457:574   */\n    tag_13:\n        /* \"#utility.yul\":566:567   */\n      0x00\n        /* \"#utility.yul\":563:564   */\n      dup1\n        /* \"#utility.yul\":556:568   */\n      revert\n        /* \"#utility.yul\":580:682   */\n    tag_14:\n        /* \"#utility.yul\":621:627   */\n      0x00\n        /* \"#utility.yul\":672:674   */\n      0x1f\n        /* \"#utility.yul\":668:675   */\n      not\n        /* \"#utility.yul\":663:665   */\n      0x1f\n        /* \"#utility.yul\":656:661   */\n      dup4\n        /* \"#utility.yul\":652:666   */\n      add\n        /* \"#utility.yul\":648:676   */\n      and\n        /* \"#utility.yul\":638:676   */\n      swap1\n      pop\n        /* \"#utility.yul\":580:682   */\n      swap2\n      swap1\n      pop\n      jump\t// out\n        /* \"#utility.yul\":688:868   */\n    tag_15:\n        /* \"#utility.yul\":736:813   */\n      0x4e487b7100000000000000000000000000000000000000000000000000000000\n        /* \"#utility.yul\":733:734   */\n      0x00\n        /* \"#utility.yul\":726:814   */\n      mstore\n        /* \"#utility.yul\":833:837   */\n      0x41\n        /* \"#utility.yul\":830:831   */\n      0x04\n        /* \"#utility.yul\":823:838   */\n      mstore\n        /* \"#utility.yul\":857:861   */\n      0x24\n        /* \"#utility.yul\":854:855   */\n      0x00\n        /* \"#utility.yul\":847:862   */\n      revert\n        /* \"#utility.yul\":874:1155   */\n    tag_16:\n        /* \"#utility.yul\":957:984   */\n      tag_52\n        /* \"#utility.yul\":979:983   */\n      dup3\n        /* \"#utility.yul\":957:984   */\n      tag_14\n      jump\t// in\n    tag_52:\n        /* \"#utility.yul\":949:955   */\n      dup2\n        /* \"#utility.yul\":945:985   */\n      add\n        /* \"#utility.yul\":1087:1093   */\n      dup2\n        /* \"#utility.yul\":1075:1085   */\n      dup2\n        /* \"#utility.yul\":1072:1094   */\n      lt\n        /* \"#utility.yul\":1051:1069   */\n      0xffffffffffffffff\n        /* \"#utility.yul\":1039:1049   */\n      dup3\n        /* \"#utility.yul\":1036:1070   */\n      gt\n        /* \"#utility.yul\":1033:1095   */\n      or\n        /* \"#utility.yul\":1030:1118   */\n      iszero\n      tag_53\n      jumpi\n        /* \"#utility.yul\":1098:1116   */\n      tag_54\n      tag_15\n      jump\t// in\n    tag_54:\n        /* \"#utility.yul\":1030:1118   */\n    tag_53:\n        /* \"#utility.yul\":1138:1148   */\n      dup1\n        /* \"#utility.yul\":1134:1136   */\n      0x40\n        /* \"#utility.yul\":1127:1149   */\n      mstore\n        /* \"#utility.yul\":917:1155   */\n      pop\n        /* \"#utility.yul\":874:1155   */\n      pop\n      pop\n      jump\t// out\n        /* \"#utility.yul\":1161:1290   */\n    tag_17:\n        /* \"#utility.yul\":1195:1201   */\n      0x00\n        /* \"#utility.yul\":1222:1242   */\n      tag_56\n      tag_9\n      jump\t// in\n    tag_56:\n        /* \"#utility.yul\":1212:1242   */\n      swap1\n      pop\n        /* \"#utility.yul\":1251:1284   */\n      tag_57\n        /* \"#utility.yul\":1279:1283   */\n      dup3\n        /* \"#utility.yul\":1271:1277   */\n      dup3\n        /* \"#utility.yul\":1251:1284   */\n      tag_16\n      jump\t// in\n    tag_57:\n        /* \"#utility.yul\":1161:1290   */\n      swap2\n      swap1\n      pop\n      jump\t// out\n        /* \"#utility.yul\":1296:1604   */\n    tag_18:\n        /* \"#utility.yul\":1358:1362   */\n      0x00\n        /* \"#utility.yul\":1448:1466   */\n      0xffffffffffffffff\n        /* \"#utility.yul\":1440:1446   */\n      dup3\n        /* \"#utility.yul\":1437:1467   */\n      gt\n        /* \"#utility.yul\":1434:1490   */\n      iszero\n      tag_59\n      jumpi\n        /* \"#utility.yul\":1470:1488   */\n      tag_60\n      tag_15\n      jump\t// in\n    tag_60:\n        /* \"#utility.yul\":1434:1490   */\n    tag_59:\n        /* \"#utility.yul\":1508:1537   */\n      tag_61\n        /* \"#utility.yul\":1530:1536   */\n      dup3\n        /* \"#utility.yul\":1508:1537   */\n      tag_14\n      jump\t// in\n    tag_61:\n        /* \"#utility.yul\":1500:1537   */\n      swap1\n      pop\n        /* \"#utility.yul\":1592:1596   */\n      0x20\n        /* \"#utility.yul\":1586:1590   */\n      dup2\n        /* \"#utility.yul\":1582:1597   */\n      add\n        /* \"#utility.yul\":1574:1597   */\n      swap1\n      pop\n        /* \"#utility.yul\":1296:1604   */\n      swap2\n      swap1\n      pop\n      jump\t// out\n        /* \"#utility.yul\":1610:1856   */\n    tag_19:\n        /* \"#utility.yul\":1691:1692   */\n      0x00\n        /* \"#utility.yul\":1701:1814   */\n    tag_63:\n        /* \"#utility.yul\":1715:1721   */\n      dup4\n        /* \"#utility.yul\":1712:1713   */\n      dup2\n        /* \"#utility.yul\":1709:1722   */\n      lt\n        /* \"#utility.yul\":1701:1814   */\n      iszero\n      tag_65\n      jumpi\n        /* \"#utility.yul\":1800:1801   */\n      dup1\n        /* \"#utility.yul\":1795:1798   */\n      dup3\n        /* \"#utility.yul\":1791:1802   */\n      add\n        /* \"#utility.yul\":1785:1803   */\n      mload\n        /* \"#utility.yul\":1781:1782   */\n      dup2\n        /* \"#utility.yul\":1776:1779   */\n      dup5\n        /* \"#utility.yul\":1772:1783   */\n      add\n        /* \"#utility.yul\":1765:1804   */\n      mstore\n        /* \"#utility.yul\":1737:1739   */\n      0x20\n        /* \"#utility.yul\":1734:1735   */\n      dup2\n        /* \"#utility.yul\":1730:1740   */\n      add\n        /* \"#utility.yul\":1725:1740   */\n      swap1\n      pop\n        /* \"#utility.yul\":1701:1814   */\n      jump(tag_63)\n    tag_65:\n        /* \"#utility.yul\":1848:1849   */\n      0x00\n        /* \"#utility.yul\":1839:1845   */\n      dup5\n        /* \"#utility.yul\":1834:1837   */\n      dup5\n        /* \"#utility.yul\":1830:1846   */\n      add\n        /* \"#utility.yul\":1823:1850   */\n      mstore\n        /* \"#utility.yul\":1672:1856   */\n      pop\n        /* \"#utility.yul\":1610:1856   */\n      pop\n      pop\n      pop\n      jump\t// out\n        /* \"#utility.yul\":1862:2296   */\n    tag_20:\n        /* \"#utility.yul\":1951:1956   */\n      0x00\n        /* \"#utility.yul\":1976:2042   */\n      tag_67\n        /* \"#utility.yul\":1992:2041   */\n      tag_68\n        /* \"#utility.yul\":2034:2040   */\n      dup5\n        /* \"#utility.yul\":1992:2041   */\n      tag_18\n      jump\t// in\n    tag_68:\n        /* \"#utility.yul\":1976:2042   */\n      tag_17\n      jump\t// in\n    tag_67:\n        /* \"#utility.yul\":1967:2042   */\n      swap1\n      pop\n        /* \"#utility.yul\":2065:2071   */\n      dup3\n        /* \"#utility.yul\":2058:2063   */\n      dup2\n        /* \"#utility.yul\":2051:2072   */\n      mstore\n        /* \"#utility.yul\":2103:2107   */\n      0x20\n        /* \"#utility.yul\":2096:2101   */\n      dup2\n        /* \"#utility.yul\":2092:2108   */\n      add\n        /* \"#utility.yul\":2141:2144   */\n      dup5\n        /* \"#utility.yul\":2132:2138   */\n      dup5\n        /* \"#utility.yul\":2127:2130   */\n      dup5\n        /* \"#utility.yul\":2123:2139   */\n      add\n        /* \"#utility.yul\":2120:2145   */\n      gt\n        /* \"#utility.yul\":2117:2229   */\n      iszero\n      tag_69\n      jumpi\n        /* \"#utility.yul\":2148:2227   */\n      tag_70\n      tag_13\n      jump\t// in\n    tag_70:\n        /* \"#utility.yul\":2117:2229   */\n    tag_69:\n        /* \"#utility.yul\":2238:2290   */\n      tag_71\n        /* \"#utility.yul\":2283:2289   */\n      dup5\n        /* \"#utility.yul\":2278:2281   */\n      dup3\n        /* \"#utility.yul\":2273:2276   */\n      dup6\n        /* \"#utility.yul\":2238:2290   */\n      tag_19\n      jump\t// in\n    tag_71:\n        /* \"#utility.yul\":1957:2296   */\n      pop\n        /* \"#utility.yul\":1862:2296   */\n      swap4\n      swap3\n      pop\n      pop\n      pop\n      jump\t// out\n        /* \"#utility.yul\":2316:2671   */\n    tag_21:\n        /* \"#utility.yul\":2383:2388   */\n      0x00\n        /* \"#utility.yul\":2432:2435   */\n      dup3\n        /* \"#utility.yul\":2425:2429   */\n      0x1f\n        /* \"#utility.yul\":2417:2423   */\n      dup4\n        /* \"#utility.yul\":2413:2430   */\n      add\n        /* \"#utility.yul\":2409:2436   */\n      slt\n        /* \"#utility.yul\":2399:2521   */\n      tag_73\n      jumpi\n        /* \"#utility.yul\":2440:2519   */\n      tag_74\n      tag_12\n      jump\t// in\n    tag_74:\n        /* \"#utility.yul\":2399:2521   */\n    tag_73:\n        /* \"#utility.yul\":2550:2556   */\n      dup2\n        /* \"#utility.yul\":2544:2557   */\n      mload\n        /* \"#utility.yul\":2575:2665   */\n      tag_75\n        /* \"#utility.yul\":2661:2664   */\n      dup5\n        /* \"#utility.yul\":2653:2659   */\n      dup3\n        /* \"#utility.yul\":2646:2650   */\n      0x20\n        /* \"#utility.yul\":2638:2644   */\n      dup7\n        /* \"#utility.yul\":2634:2651   */\n      add\n        /* \"#utility.yul\":2575:2665   */\n      tag_20\n      jump\t// in\n    tag_75:\n        /* \"#utility.yul\":2566:2665   */\n      swap2\n      pop\n        /* \"#utility.yul\":2389:2671   */\n      pop\n        /* \"#utility.yul\":2316:2671   */\n      swap3\n      swap2\n      pop\n      pop\n      jump\t// out\n        /* \"#utility.yul\":2677:2754   */\n    tag_22:\n        /* \"#utility.yul\":2714:2721   */\n      0x00\n        /* \"#utility.yul\":2743:2748   */\n      dup2\n        /* \"#utility.yul\":2732:2748   */\n      swap1\n      pop\n        /* \"#utility.yul\":2677:2754   */\n      swap2\n      swap1\n      pop\n      jump\t// out\n        /* \"#utility.yul\":2760:2882   */\n    tag_23:\n        /* \"#utility.yul\":2833:2857   */\n      tag_78\n        /* \"#utility.yul\":2851:2856   */\n      dup2\n        /* \"#utility.yul\":2833:2857   */\n      tag_22\n      jump\t// in\n    tag_78:\n        /* \"#utility.yul\":2826:2831   */\n      dup2\n        /* \"#utility.yul\":2823:2858   */\n      eq\n        /* \"#utility.yul\":2813:2876   */\n      tag_79\n      jumpi\n        /* \"#utility.yul\":2872:2873   */\n      0x00\n        /* \"#utility.yul\":2869:2870   */\n      dup1\n        /* \"#utility.yul\":2862:2874   */\n      revert\n        /* \"#utility.yul\":2813:2876   */\n    tag_79:\n        /* \"#utility.yul\":2760:2882   */\n      pop\n      jump\t// out\n        /* \"#utility.yul\":2888:3031   */\n    tag_24:\n        /* \"#utility.yul\":2945:2950   */\n      0x00\n        /* \"#utility.yul\":2976:2982   */\n      dup2\n        /* \"#utility.yul\":2970:2983   */\n      mload\n        /* \"#utility.yul\":2961:2983   */\n      swap1\n      pop\n        /* \"#utility.yul\":2992:3025   */\n      tag_81\n        /* \"#utility.yul\":3019:3024   */\n      dup2\n        /* \"#utility.yul\":2992:3025   */\n      tag_23\n      jump\t// in\n    tag_81:\n        /* \"#utility.yul\":2888:3031   */\n      swap3\n      swap2\n      pop\n      pop\n      jump\t// out\n        /* \"#utility.yul\":3037:3717   */\n    tag_3:\n        /* \"#utility.yul\":3126:3132   */\n      0x00\n        /* \"#utility.yul\":3134:3140   */\n      dup1\n        /* \"#utility.yul\":3183:3185   */\n      0x40\n        /* \"#utility.yul\":3171:3180   */\n      dup4\n        /* \"#utility.yul\":3162:3169   */\n      dup6\n        /* \"#utility.yul\":3158:3181   */\n      sub\n        /* \"#utility.yul\":3154:3186   */\n      slt\n        /* \"#utility.yul\":3151:3270   */\n      iszero\n      tag_83\n      jumpi\n        /* \"#utility.yul\":3189:3268   */\n      tag_84\n      tag_10\n      jump\t// in\n    tag_84:\n        /* \"#utility.yul\":3151:3270   */\n    tag_83:\n        /* \"#utility.yul\":3330:3331   */\n      0x00\n        /* \"#utility.yul\":3319:3328   */\n      dup4\n        /* \"#utility.yul\":3315:3332   */\n      add\n        /* \"#utility.yul\":3309:3333   */\n      mload\n        /* \"#utility.yul\":3360:3378   */\n      0xffffffffffffffff\n        /* \"#utility.yul\":3352:3358   */\n      dup2\n        /* \"#utility.yul\":3349:3379   */\n      gt\n        /* \"#utility.yul\":3346:3463   */\n      iszero\n      tag_85\n      jumpi\n        /* \"#utility.yul\":3382:3461   */\n      tag_86\n      tag_11\n      jump\t// in\n    tag_86:\n        /* \"#utility.yul\":3346:3463   */\n    tag_85:\n        /* \"#utility.yul\":3487:3561   */\n      tag_87\n        /* \"#utility.yul\":3553:3560   */\n      dup6\n        /* \"#utility.yul\":3544:3550   */\n      dup3\n        /* \"#utility.yul\":3533:3542   */\n      dup7\n        /* \"#utility.yul\":3529:3551   */\n      add\n        /* \"#utility.yul\":3487:3561   */\n      tag_21\n      jump\t// in\n    tag_87:\n        /* \"#utility.yul\":3477:3561   */\n      swap3\n      pop\n        /* \"#utility.yul\":3280:3571   */\n      pop\n        /* \"#utility.yul\":3610:3612   */\n      0x20\n        /* \"#utility.yul\":3636:3700   */\n      tag_88\n        /* \"#utility.yul\":3692:3699   */\n      dup6\n        /* \"#utility.yul\":3683:3689   */\n      dup3\n        /* \"#utility.yul\":3672:3681   */\n      dup7\n        /* \"#utility.yul\":3668:3690   */\n      add\n        /* \"#utility.yul\":3636:3700   */\n      tag_24\n      jump\t// in\n    tag_88:\n        /* \"#utility.yul\":3626:3700   */\n      swap2\n      pop\n        /* \"#utility.yul\":3581:3710   */\n      pop\n        /* \"#utility.yul\":3037:3717   */\n      swap3\n      pop\n      swap3\n      swap1\n      pop\n      jump\t// out\n        /* \"#utility.yul\":3723:3822   */\n    tag_25:\n        /* \"#utility.yul\":3775:3781   */\n      0x00\n        /* \"#utility.yul\":3809:3814   */\n      dup2\n        /* \"#utility.yul\":3803:3815   */\n      mload\n        /* \"#utility.yul\":3793:3815   */\n      swap1\n      pop\n        /* \"#utility.yul\":3723:3822   */\n      swap2\n      swap1\n      pop\n      jump\t// out\n        /* \"#utility.yul\":3828:4008   */\n    tag_26:\n        /* \"#utility.yul\":3876:3953   */\n      0x4e487b7100000000000000000000000000000000000000000000000000000000\n        /* \"#utility.yul\":3873:3874   */\n      0x00\n        /* \"#utility.yul\":3866:3954   */\n      mstore\n        /* \"#utility.yul\":3973:3977   */\n      0x22\n        /* \"#utility.yul\":3970:3971   */\n      0x04\n        /* \"#utility.yul\":3963:3978   */\n      mstore\n        /* \"#utility.yul\":3997:4001   */\n      0x24\n        /* \"#utility.yul\":3994:3995   */\n      0x00\n        /* \"#utility.yul\":3987:4002   */\n      revert\n        /* \"#utility.yul\":4014:4334   */\n    tag_27:\n        /* \"#utility.yul\":4058:4064   */\n      0x00\n        /* \"#utility.yul\":4095:4096   */\n      0x02\n        /* \"#utility.yul\":4089:4093   */\n      dup3\n        /* \"#utility.yul\":4085:4097   */\n      div\n        /* \"#utility.yul\":4075:4097   */\n      swap1\n      pop\n        /* \"#utility.yul\":4142:4143   */\n      0x01\n        /* \"#utility.yul\":4136:4140   */\n      dup3\n        /* \"#utility.yul\":4132:4144   */\n      and\n        /* \"#utility.yul\":4163:4181   */\n      dup1\n        /* \"#utility.yul\":4153:4234   */\n      tag_92\n      jumpi\n        /* \"#utility.yul\":4219:4223   */\n      0x7f\n        /* \"#utility.yul\":4211:4217   */\n      dup3\n        /* \"#utility.yul\":4207:4224   */\n      and\n        /* \"#utility.yul\":4197:4224   */\n      swap2\n      pop\n        /* \"#utility.yul\":4153:4234   */\n    tag_92:\n        /* \"#utility.yul\":4281:4283   */\n      0x20\n        /* \"#utility.yul\":4273:4279   */\n      dup3\n        /* \"#utility.yul\":4270:4284   */\n      lt\n        /* \"#utility.yul\":4250:4268   */\n      dup2\n        /* \"#utility.yul\":4247:4285   */\n      sub\n        /* \"#utility.yul\":4244:4328   */\n      tag_93\n      jumpi\n        /* \"#utility.yul\":4300:4318   */\n      tag_94\n      tag_26\n      jump\t// in\n    tag_94:\n        /* \"#utility.yul\":4244:4328   */\n    tag_93:\n        /* \"#utility.yul\":4065:4334   */\n      pop\n        /* \"#utility.yul\":4014:4334   */\n      swap2\n      swap1\n      pop\n      jump\t// out\n        /* \"#utility.yul\":4340:4481   */\n    tag_28:\n        /* \"#utility.yul\":4389:4393   */\n      0x00\n        /* \"#utility.yul\":4412:4415   */\n      dup2\n        /* \"#utility.yul\":4404:4415   */\n      swap1\n      pop\n        /* \"#utility.yul\":4435:4438   */\n      dup2\n        /* \"#utility.yul\":4432:4433   */\n      0x00\n        /* \"#utility.yul\":4425:4439   */\n      mstore\n        /* \"#utility.yul\":4469:4473   */\n      0x20\n        /* \"#utility.yul\":4466:4467   */\n      0x00\n        /* \"#utility.yul\":4456:4474   */\n      keccak256\n        /* \"#utility.yul\":4448:4474   */\n      swap1\n      pop\n        /* \"#utility.yul\":4340:4481   */\n      swap2\n      swap1\n      pop\n      jump\t// out\n        /* \"#utility.yul\":4487:4580   */\n    tag_29:\n        /* \"#utility.yul\":4524:4530   */\n      0x00\n        /* \"#utility.yul\":4571:4573   */\n      0x20\n        /* \"#utility.yul\":4566:4568   */\n      0x1f\n        /* \"#utility.yul\":4559:4564   */\n      dup4\n        /* \"#utility.yul\":4555:4569   */\n      add\n        /* \"#utility.yul\":4551:4574   */\n      div\n        /* \"#utility.yul\":4541:4574   */\n      swap1\n      pop\n        /* \"#utility.yul\":4487:4580   */\n      swap2\n      swap1\n      pop\n      jump\t// out\n        /* \"#utility.yul\":4586:4693   */\n    tag_30:\n        /* \"#utility.yul\":4630:4638   */\n      0x00\n        /* \"#utility.yul\":4680:4685   */\n      dup3\n        /* \"#utility.yul\":4674:4678   */\n      dup3\n        /* \"#utility.yul\":4670:4686   */\n      shl\n        /* \"#utility.yul\":4649:4686   */\n      swap1\n      pop\n        /* \"#utility.yul\":4586:4693   */\n      swap3\n      swap2\n      pop\n      pop\n      jump\t// out\n        /* \"#utility.yul\":4699:5092   */\n    tag_31:\n        /* \"#utility.yul\":4768:4774   */\n      0x00\n        /* \"#utility.yul\":4818:4819   */\n      0x08\n        /* \"#utility.yul\":4806:4816   */\n      dup4\n        /* \"#utility.yul\":4802:4820   */\n      mul\n        /* \"#utility.yul\":4841:4938   */\n      tag_99\n        /* \"#utility.yul\":4871:4937   */\n      0xffffffffffffffffffffffffffffffffffffffffffffffffffffffffffffffff\n        /* \"#utility.yul\":4860:4869   */\n      dup3\n        /* \"#utility.yul\":4841:4938   */\n      tag_30\n      jump\t// in\n    tag_99:\n        /* \"#utility.yul\":4959:4998   */\n      tag_100\n        /* \"#utility.yul\":4989:4997   */\n      dup7\n        /* \"#utility.yul\":4978:4987   */\n      dup4\n        /* \"#utility.yul\":4959:4998   */\n      tag_30\n      jump\t// in\n    tag_100:\n        /* \"#utility.yul\":4947:4998   */\n      swap6\n      pop\n        /* \"#utility.yul\":5031:5035   */\n      dup1\n        /* \"#utility.yul\":5027:5036   */\n      not\n        /* \"#utility.yul\":5020:5025   */\n      dup5\n        /* \"#utility.yul\":5016:5037   */\n      and\n        /* \"#utility.yul\":5007:5037   */\n      swap4\n      pop\n        /* \"#utility.yul\":5080:5084   */\n      dup1\n        /* \"#utility.yul\":5070:5078   */\n      dup7\n        /* \"#utility.yul\":5066:5085   */\n      and\n        /* \"#utility.yul\":5059:5064   */\n      dup5\n        /* \"#utility.yul\":5056:5086   */\n      or\n        /* \"#utility.yul\":5046:5086   */\n      swap3\n      pop\n        /* \"#utility.yul\":4775:5092   */\n      pop\n      pop\n        /* \"#utility.yul\":4699:5092   */\n      swap4\n      swap3\n      pop\n      pop\n      pop\n      jump\t// out\n        /* \"#utility.yul\":5098:5158   */\n    tag_32:\n        /* \"#utility.yul\":5126:5129   */\n      0x00\n        /* \"#utility.yul\":5147:5152   */\n      dup2\n        /* \"#utility.yul\":5140:5152   */\n      swap1\n      pop\n        /* \"#utility.yul\":5098:5158   */\n      swap2\n      swap1\n      pop\n      jump\t// out\n        /* \"#utility.yul\":5164:5306   */\n    tag_33:\n        /* \"#utility.yul\":5214:5223   */\n      0x00\n        /* \"#utility.yul\":5247:5300   */\n      tag_103\n        /* \"#utility.yul\":5265:5299   */\n      tag_104\n        /* \"#utility.yul\":5274:5298   */\n      tag_105\n        /* \"#utility.yul\":5292:5297   */\n      dup5\n        /* \"#utility.yul\":5274:5298   */\n      tag_22\n      jump\t// in\n    tag_105:\n        /* \"#utility.yul\":5265:5299   */\n      tag_32\n      jump\t// in\n    tag_104:\n        /* \"#utility.yul\":5247:5300   */\n      tag_22\n      jump\t// in\n    tag_103:\n        /* \"#utility.yul\":5234:5300   */\n      swap1\n      pop\n        /* \"#utility.yul\":5164:5306   */\n      swap2\n      swap1\n      pop\n      jump\t// out\n        /* \"#utility.yul\":5312:5387   */\n    tag_34:\n        /* \"#utility.yul\":5355:5358   */\n      0x00\n        /* \"#utility.yul\":5376:5381   */\n      dup2\n        /* \"#utility.yul\":5369:5381   */\n      swap1\n      pop\n        /* \"#utility.yul\":5312:5387   */\n      swap2\n      swap1\n      pop\n      jump\t// out\n        /* \"#utility.yul\":5393:5662   */\n    tag_35:\n        /* \"#utility.yul\":5503:5542   */\n      tag_108\n        /* \"#utility.yul\":5534:5541   */\n      dup4\n        /* \"#utility.yul\":5503:5542   */\n      tag_33\n      jump\t// in\n    tag_108:\n        /* \"#utility.yul\":5564:5655   */\n      tag_109\n        /* \"#utility.yul\":5613:5654   */\n      tag_110\n        /* \"#utility.yul\":5637:5653   */\n      dup3\n        /* \"#utility.yul\":5613:5654   */\n      tag_34\n      jump\t// in\n    tag_110:\n        /* \"#utility.yul\":5605:5611   */\n      dup5\n        /* \"#utility.yul\":5598:5602   */\n      dup5\n        /* \"#utility.yul\":5592:5603   */\n      sload\n        /* \"#utility.yul\":5564:5655   */\n      tag_31\n      jump\t// in\n    tag_109:\n        /* \"#utility.yul\":5558:5562   */\n      dup3\n        /* \"#utility.yul\":5551:5656   */\n      sstore\n        /* \"#utility.yul\":5469:5662   */\n      pop\n        /* \"#utility.yul\":5393:5662   */\n      pop\n      pop\n      pop\n      jump\t// out\n        /* \"#utility.yul\":5668:5741   */\n    tag_36:\n        /* \"#utility.yul\":5713:5716   */\n      0x00\n        /* \"#utility.yul\":5668:5741   */\n      swap1\n      jump\t// out\n        /* \"#utility.yul\":5747:5936   */\n    tag_37:\n        /* \"#utility.yul\":5824:5856   */\n      tag_113\n      tag_36\n      jump\t// in\n    tag_113:\n        /* \"#utility.yul\":5865:5930   */\n      tag_114\n        /* \"#utility.yul\":5923:5929   */\n      dup2\n        /* \"#utility.yul\":5915:5921   */\n      dup5\n        /* \"#utility.yul\":5909:5913   */\n      dup5\n        /* \"#utility.yul\":5865:5930   */\n      tag_35\n      jump\t// in\n    tag_114:\n        /* \"#utility.yul\":5800:5936   */\n      pop\n        /* \"#utility.yul\":5747:5936   */\n      pop\n      pop\n      jump\t// out\n        /* \"#utility.yul\":5942:6128   */\n    tag_38:\n        /* \"#utility.yul\":6002:6122   */\n    tag_116:\n        /* \"#utility.yul\":6019:6022   */\n      dup2\n        /* \"#utility.yul\":6012:6017   */\n      dup2\n        /* \"#utility.yul\":6009:6023   */\n      lt\n        /* \"#utility.yul\":6002:6122   */\n      iszero\n      tag_118\n      jumpi\n        /* \"#utility.yul\":6073:6112   */\n      tag_119\n        /* \"#utility.yul\":6110:6111   */\n      0x00\n        /* \"#utility.yul\":6103:6108   */\n      dup3\n        /* \"#utility.yul\":6073:6112   */\n      tag_37\n      jump\t// in\n    tag_119:\n        /* \"#utility.yul\":6046:6047   */\n      0x01\n        /* \"#utility.yul\":6039:6044   */\n      dup2\n        /* \"#utility.yul\":6035:6048   */\n      add\n        /* \"#utility.yul\":6026:6048   */\n      swap1\n      pop\n        /* \"#utility.yul\":6002:6122   */\n      jump(tag_116)\n    tag_118:\n        /* \"#utility.yul\":5942:6128   */\n      pop\n      pop\n      jump\t// out\n        /* \"#utility.yul\":6134:6677   */\n    tag_39:\n        /* \"#utility.yul\":6235:6237   */\n      0x1f\n        /* \"#utility.yul\":6230:6233   */\n      dup3\n        /* \"#utility.yul\":6227:6238   */\n      gt\n        /* \"#utility.yul\":6224:6670   */\n      iszero\n      tag_121\n      jumpi\n        /* \"#utility.yul\":6269:6307   */\n      tag_122\n        /* \"#utility.yul\":6301:6306   */\n      dup2\n        /* \"#utility.yul\":6269:6307   */\n      tag_28\n      jump\t// in\n    tag_122:\n        /* \"#utility.yul\":6353:6382   */\n      tag_123\n        /* \"#utility.yul\":6371:6381   */\n      dup5\n        /* \"#utility.yul\":6353:6382   */\n      tag_29\n      jump\t// in\n    tag_123:\n        /* \"#utility.yul\":6343:6351   */\n      dup2\n        /* \"#utility.yul\":6339:6383   */\n      add\n        /* \"#utility.yul\":6536:6538   */\n      0x20\n        /* \"#utility.yul\":6524:6534   */\n      dup6\n        /* \"#utility.yul\":6521:6539   */\n      lt\n        /* \"#utility.yul\":6518:6567   */\n      iszero\n      tag_124\n      jumpi\n        /* \"#utility.yul\":6557:6565   */\n      dup2\n        /* \"#utility.yul\":6542:6565   */\n      swap1\n      pop\n        /* \"#utility.yul\":6518:6567   */\n    tag_124:\n        /* \"#utility.yul\":6580:6660   */\n      tag_125\n        /* \"#utility.yul\":6636:6658   */\n      tag_126\n        /* \"#utility.yul\":6654:6657   */\n      dup6\n        /* \"#utility.yul\":6636:6658   */\n      tag_29\n      jump\t// in\n    tag_126:\n        /* \"#utility.yul\":6626:6634   */\n      dup4\n        /* \"#utility.yul\":6622:6659   */\n      add\n        /* \"#utility.yul\":6609:6620   */\n      dup3\n        /* \"#utility.yul\":6580:6660   */\n      tag_38\n      jump\t// in\n    tag_125:\n        /* \"#utility.yul\":6239:6670   */\n      pop\n      pop\n        /* \"#utility.yul\":6224:6670   */\n    tag_121:\n        /* \"#utility.yul\":6134:6677   */\n      pop\n      pop\n      pop\n      jump\t// out\n        /* \"#utility.yul\":6683:6800   */\n    tag_40:\n        /* \"#utility.yul\":6737:6745   */\n      0x00\n        /* \"#utility.yul\":6787:6792   */\n      dup3\n        /* \"#utility.yul\":6781:6785   */\n      dup3\n        /* \"#utility.yul\":6777:6793   */\n      shr\n        /* \"#utility.yul\":6756:6793   */\n      swap1\n      pop\n        /* \"#utility.yul\":6683:6800   */\n      swap3\n      swap2\n      pop\n      pop\n      jump\t// out\n        /* \"#utility.yul\":6806:6975   */\n    tag_41:\n        /* \"#utility.yul\":6850:6856   */\n      0x00\n        /* \"#utility.yul\":6883:6934   */\n      tag_129\n        /* \"#utility.yul\":6931:6932   */\n      0x00\n        /* \"#utility.yul\":6927:6933   */\n      not\n        /* \"#utility.yul\":6919:6924   */\n      dup5\n        /* \"#utility.yul\":6916:6917   */\n      0x08\n        /* \"#utility.yul\":6912:6925   */\n      mul\n        /* \"#utility.yul\":6883:6934   */\n      tag_40\n      jump\t// in\n    tag_129:\n        /* \"#utility.yul\":6879:6935   */\n      not\n        /* \"#utility.yul\":6964:6968   */\n      dup1\n        /* \"#utility.yul\":6958:6962   */\n      dup4\n        /* \"#utility.yul\":6954:6969   */\n      and\n        /* \"#utility.yul\":6944:6969   */\n      swap2\n      pop\n        /* \"#utility.yul\":6857:6975   */\n      pop\n        /* \"#utility.yul\":6806:6975   */\n      swap3\n      swap2\n      pop\n      pop\n      jump\t// out\n        /* \"#utility.yul\":6980:7275   */\n    tag_42:\n        /* \"#utility.yul\":7056:7060   */\n      0x00\n        /* \"#utility.yul\":7202:7231   */\n      tag_131\n        /* \"#utility.yul\":7227:7230   */\n      dup4\n        /* \"#utility.yul\":7221:7225   */\n      dup4\n        /* \"#utility.yul\":7202:7231   */\n      tag_41\n      jump\t// in\n    tag_131:\n        /* \"#utility.yul\":7194:7231   */\n      swap2\n      pop\n        /* \"#utility.yul\":7264:7267   */\n      dup3\n        /* \"#utility.yul\":7261:7262   */\n      0x02\n        /* \"#utility.yul\":7257:7268   */\n      mul\n        /* \"#utility.yul\":7251:7255   */\n      dup3\n        /* \"#utility.yul\":7248:7269   */\n      or\n        /* \"#utility.yul\":7240:7269   */\n      swap1\n      pop\n        /* \"#utility.yul\":6980:7275   */\n      swap3\n      swap2\n      pop\n      pop\n      jump\t// out\n        /* \"#utility.yul\":7280:8675   */\n    tag_7:\n        /* \"#utility.yul\":7397:7434   */\n      tag_133\n        /* \"#utility.yul\":7430:7433   */\n      dup3\n        /* \"#utility.yul\":7397:7434   */\n      tag_25\n      jump\t// in\n    tag_133:\n        /* \"#utility.yul\":7499:7517   */\n      0xffffffffffffffff\n        /* \"#utility.yul\":7491:7497   */\n      dup2\n        /* \"#utility.yul\":7488:7518   */\n      gt\n        /* \"#utility.yul\":7485:7541   */\n      iszero\n      tag_134\n      jumpi\n        /* \"#utility.yul\":7521:7539   */\n      tag_135\n      tag_15\n      jump\t// in\n    tag_135:\n        /* \"#utility.yul\":7485:7541   */\n    tag_134:\n        /* \"#utility.yul\":7565:7603   */\n      tag_136\n        /* \"#utility.yul\":7597:7601   */\n      dup3\n        /* \"#utility.yul\":7591:7602   */\n      sload\n        /* \"#utility.yul\":7565:7603   */\n      tag_27\n      jump\t// in\n    tag_136:\n        /* \"#utility.yul\":7650:7717   */\n      tag_137\n        /* \"#utility.yul\":7710:7716   */\n      dup3\n        /* \"#utility.yul\":7702:7708   */\n      dup3\n        /* \"#utility.yul\":7696:7700   */\n      dup6\n        /* \"#utility.yul\":7650:7717   */\n      tag_39\n      jump\t// in\n    tag_137:\n        /* \"#utility.yul\":7744:7745   */\n      0x00\n        /* \"#utility.yul\":7768:7772   */\n      0x20\n        /* \"#utility.yul\":7755:7772   */\n      swap1\n      pop\n        /* \"#utility.yul\":7800:7802   */\n      0x1f\n        /* \"#utility.yul\":7792:7798   */\n      dup4\n        /* \"#utility.yul\":7789:7803   */\n      gt\n        /* \"#utility.yul\":7817:7818   */\n      0x01\n        /* \"#utility.yul\":7812:8430   */\n      dup2\n      eq\n      tag_139\n      jumpi\n        /* \"#utility.yul\":8474:8475   */\n      0x00\n        /* \"#utility.yul\":8491:8497   */\n      dup5\n        /* \"#utility.yul\":8488:8565   */\n      iszero\n      tag_140\n      jumpi\n        /* \"#utility.yul\":8540:8549   */\n      dup3\n        /* \"#utility.yul\":8535:8538   */\n      dup8\n        /* \"#utility.yul\":8531:8550   */\n      add\n        /* \"#utility.yul\":8525:8551   */\n      mload\n        /* \"#utility.yul\":8516:8551   */\n      swap1\n      pop\n        /* \"#utility.yul\":8488:8565   */\n    tag_140:\n        /* \"#utility.yul\":8591:8658   */\n      tag_141\n        /* \"#utility.yul\":8651:8657   */\n      dup6\n        /* \"#utility.yul\":8644:8649   */\n      dup3\n        /* \"#utility.yul\":8591:8658   */\n      tag_42\n      jump\t// in\n    tag_141:\n        /* \"#utility.yul\":8585:8589   */\n      dup7\n        /* \"#utility.yul\":8578:8659   */\n      sstore\n        /* \"#utility.yul\":8447:8669   */\n      pop\n        /* \"#utility.yul\":7782:8669   */\n      jump(tag_138)\n        /* \"#utility.yul\":7812:8430   */\n    tag_139:\n        /* \"#utility.yul\":7864:7868   */\n      0x1f\n        /* \"#utility.yul\":7860:7869   */\n      not\n        /* \"#utility.yul\":7852:7858   */\n      dup5\n        /* \"#utility.yul\":7848:7870   */\n      and\n        /* \"#utility.yul\":7898:7935   */\n      tag_142\n        /* \"#utility.yul\":7930:7934   */\n      dup7\n        /* \"#utility.yul\":7898:7935   */\n      tag_28\n      jump\t// in\n    tag_142:\n        /* \"#utility.yul\":7957:7958   */\n      0x00\n        /* \"#utility.yul\":7971:8179   */\n    tag_143:\n        /* \"#utility.yul\":7985:7992   */\n      dup3\n        /* \"#utility.yul\":7982:7983   */\n      dup2\n        /* \"#utility.yul\":7979:7993   */\n      lt\n        /* \"#utility.yul\":7971:8179   */\n      iszero\n      tag_145\n      jumpi\n        /* \"#utility.yul\":8064:8073   */\n      dup5\n        /* \"#utility.yul\":8059:8062   */\n      dup10\n        /* \"#utility.yul\":8055:8074   */\n      add\n        /* \"#utility.yul\":8049:8075   */\n      mload\n        /* \"#utility.yul\":8041:8047   */\n      dup3\n        /* \"#utility.yul\":8034:8076   */\n      sstore\n        /* \"#utility.yul\":8115:8116   */\n      0x01\n        /* \"#utility.yul\":8107:8113   */\n      dup3\n        /* \"#utility.yul\":8103:8117   */\n      add\n        /* \"#utility.yul\":8093:8117   */\n      swap2\n      pop\n        /* \"#utility.yul\":8162:8164   */\n      0x20\n        /* \"#utility.yul\":8151:8160   */\n      dup6\n        /* \"#utility.yul\":8147:8165   */\n      add\n        /* \"#utility.yul\":8134:8165   */\n      swap5\n      pop\n        /* \"#utility.yul\":8008:8012   */\n      0x20\n        /* \"#utility.yul\":8005:8006   */\n      dup2\n        /* \"#utility.yul\":8001:8013   */\n      add\n        /* \"#utility.yul\":7996:8013   */\n      swap1\n      pop\n        /* \"#utility.yul\":7971:8179   */\n      jump(tag_143)\n    tag_145:\n        /* \"#utility.yul\":8207:8213   */\n      dup7\n        /* \"#utility.yul\":8198:8205   */\n      dup4\n        /* \"#utility.yul\":8195:8214   */\n      lt\n        /* \"#utility.yul\":8192:8371   */\n      iszero\n      tag_146\n      jumpi\n        /* \"#utility.yul\":8265:8274   */\n      dup5\n        /* \"#utility.yul\":8260:8263   */\n      dup10\n        /* \"#utility.yul\":8256:8275   */\n      add\n        /* \"#utility.yul\":8250:8276   */\n      mload\n        /* \"#utility.yul\":8308:8356   */\n      tag_147\n        /* \"#utility.yul\":8350:8354   */\n      0x1f\n        /* \"#utility.yul\":8342:8348   */\n      dup10\n        /* \"#utility.yul\":8338:8355   */\n      and\n        /* \"#utility.yul\":8327:8336   */\n      dup3\n        /* \"#utility.yul\":8308:8356   */\n      tag_41\n      jump\t// in\n    tag_147:\n        /* \"#utility.yul\":8300:8306   */\n      dup4\n        /* \"#utility.yul\":8293:8357   */\n      sstore\n        /* \"#utility.yul\":8215:8371   */\n      pop\n        /* \"#utility.yul\":8192:8371   */\n    tag_146:\n        /* \"#utility.yul\":8417:8418   */\n      0x01\n        /* \"#utility.yul\":8413:8414   */\n      0x02\n        /* \"#utility.yul\":8405:8411   */\n      dup9\n        /* \"#utility.yul\":8401:8415   */\n      mul\n        /* \"#utility.yul\":8397:8419   */\n      add\n        /* \"#utility.yul\":8391:8395   */\n      dup9\n        /* \"#utility.yul\":8384:8420   */\n      sstore\n        /* \"#utility.yul\":7819:8430   */\n      pop\n      pop\n      pop\n        /* \"#utility.yul\":7782:8669   */\n    tag_138:\n      pop\n        /* \"#utility.yul\":7372:8675   */\n      pop\n      pop\n      pop\n        /* \"#utility.yul\":7280:8675   */\n      pop\n      pop\n      jump\t// out\n        /* \"Labs (August)/try_catch_library/newKeyword.sol\":63:319  contract Student {... */\n    tag_8:\n      dataSize(sub_0)\n      dup1\n      dataOffset(sub_0)\n      0x00\n      codecopy\n      0x00\n      return\n    stop\n\n    sub_0: assembly {\n            /* \"Labs (August)/try_catch_library/newKeyword.sol\":63:319  contract Student {... */\n          mstore(0x40, 0x80)\n          callvalue\n          dup1\n          iszero\n          tag_1\n          jumpi\n          0x00\n          dup1\n          revert\n        tag_1:\n          pop\n          jumpi(tag_2, lt(calldatasize, 0x04))\n          shr(0xe0, calldataload(0x00))\n          dup1\n          0xcf21c293\n          eq\n          tag_3\n          jumpi\n        tag_2:\n          0x00\n          dup1\n          revert\n            /* \"Labs (August)/try_catch_library/newKeyword.sol\":149:165  uint public fine */\n        tag_3:\n          tag_4\n          tag_5\n          jump\t// in\n        tag_4:\n          mload(0x40)\n          tag_6\n          swap2\n          swap1\n          tag_7\n          jump\t// in\n        tag_6:\n          mload(0x40)\n          dup1\n          swap2\n          sub\n          swap1\n          return\n        tag_5:\n          sload(0x02)\n          dup2\n          jump\t// out\n            /* \"#utility.yul\":7:84   */\n        tag_8:\n            /* \"#utility.yul\":44:51   */\n          0x00\n            /* \"#utility.yul\":73:78   */\n          dup2\n            /* \"#utility.yul\":62:78   */\n          swap1\n          pop\n            /* \"#utility.yul\":7:84   */\n          swap2\n          swap1\n          pop\n          jump\t// out\n            /* \"#utility.yul\":90:208   */\n        tag_9:\n            /* \"#utility.yul\":177:201   */\n          tag_13\n            /* \"#utility.yul\":195:200   */\n          dup2\n            /* \"#utility.yul\":177:201   */\n          tag_8\n          jump\t// in\n        tag_13:\n            /* \"#utility.yul\":172:175   */\n          dup3\n            /* \"#utility.yul\":165:202   */\n          mstore\n            /* \"#utility.yul\":90:208   */\n          pop\n          pop\n          jump\t// out\n            /* \"#utility.yul\":214:436   */\n        tag_7:\n            /* \"#utility.yul\":307:311   */\n          0x00\n            /* \"#utility.yul\":345:347   */\n          0x20\n            /* \"#utility.yul\":334:343   */\n          dup3\n            /* \"#utility.yul\":330:348   */\n          add\n            /* \"#utility.yul\":322:348   */\n          swap1\n          pop\n            /* \"#utility.yul\":358:429   */\n          tag_15\n            /* \"#utility.yul\":426:427   */\n          0x00\n            /* \"#utility.yul\":415:424   */\n          dup4\n            /* \"#utility.yul\":411:428   */\n          add\n            /* \"#utility.yul\":402:408   */\n          dup5\n            /* \"#utility.yul\":358:429   */\n          tag_9\n          jump\t// in\n        tag_15:\n            /* \"#utility.yul\":214:436   */\n          swap3\n          swap2\n          pop\n          pop\n          jump\t// out\n\n        auxdata: 0xa2646970667358221220d80aaeff08bd077b30e7273d6271e6a1b9693463efdc93a7697bb7dd77e7b34f64736f6c63430008120033\n    }\n}\n",
				"bytecode": {
					"linkReferences": {},
					"object": "608060405234801561001057600080fd5b5060006014604051610021906100b3565b61002b919061016c565b604051809103906000f080158015610047573d6000803e3d6000fd5b5090506000819080600181540180825580915050600190039060005260206000200160009091909190916101000a81548173ffffffffffffffffffffffffffffffffffffffff021916908373ffffffffffffffffffffffffffffffffffffffff1602179055505061019a565b6106018061038083390190565b600082825260208201905092915050565b7f427572616b000000000000000000000000000000000000000000000000000000600082015250565b60006101076005836100c0565b9150610112826100d1565b602082019050919050565b6000819050919050565b6000819050919050565b6000819050919050565b600061015661015161014c8461011d565b610131565b610127565b9050919050565b6101668161013b565b82525050565b60006040820190508181036000830152610185816100fa565b9050610194602083018461015d565b92915050565b6101d7806101a96000396000f3fe608060405234801561001057600080fd5b506004361061002b5760003560e01c806306ead22e14610030575b600080fd5b61004a600480360381019061004591906100da565b610060565b6040516100579190610186565b60405180910390f35b6000818154811061007057600080fd5b906000526020600020016000915054906101000a900473ffffffffffffffffffffffffffffffffffffffff1681565b600080fd5b6000819050919050565b6100b7816100a4565b81146100c257600080fd5b50565b6000813590506100d4816100ae565b92915050565b6000602082840312156100f0576100ef61009f565b5b60006100fe848285016100c5565b91505092915050565b600073ffffffffffffffffffffffffffffffffffffffff82169050919050565b6000819050919050565b600061014c61014761014284610107565b610127565b610107565b9050919050565b600061015e82610131565b9050919050565b600061017082610153565b9050919050565b61018081610165565b82525050565b600060208201905061019b6000830184610177565b9291505056fea26469706673582212207900098ddf605d8ea4bed02002a5c151e65236167346f69f8b08576547b50dae64736f6c63430008120033608060405234801561001057600080fd5b50604051610601380380610601833981810160405281019061003291906101fb565b8160009081610041919061046e565b50806001819055505050610540565b6000604051905090565b600080fd5b600080fd5b600080fd5b600080fd5b6000601f19601f8301169050919050565b7f4e487b7100000000000000000000000000000000000000000000000000000000600052604160045260246000fd5b6100b78261006e565b810181811067ffffffffffffffff821117156100d6576100d561007f565b5b80604052505050565b60006100e9610050565b90506100f582826100ae565b919050565b600067ffffffffffffffff8211156101155761011461007f565b5b61011e8261006e565b9050602081019050919050565b60005b8381101561014957808201518184015260208101905061012e565b60008484015250505050565b6000610168610163846100fa565b6100df565b90508281526020810184848401111561018457610183610069565b5b61018f84828561012b565b509392505050565b600082601f8301126101ac576101ab610064565b5b81516101bc848260208601610155565b91505092915050565b6000819050919050565b6101d8816101c5565b81146101e357600080fd5b50565b6000815190506101f5816101cf565b92915050565b600080604083850312156102125761021161005a565b5b600083015167ffffffffffffffff8111156102305761022f61005f565b5b61023c85828601610197565b925050602061024d858286016101e6565b9150509250929050565b600081519050919050565b7f4e487b7100000000000000000000000000000000000000000000000000000000600052602260045260246000fd5b600060028204905060018216806102a957607f821691505b6020821081036102bc576102bb610262565b5b50919050565b60008190508160005260206000209050919050565b60006020601f8301049050919050565b600082821b905092915050565b6000600883026103247fffffffffffffffffffffffffffffffffffffffffffffffffffffffffffffffff826102e7565b61032e86836102e7565b95508019841693508086168417925050509392505050565b6000819050919050565b600061036b610366610361846101c5565b610346565b6101c5565b9050919050565b6000819050919050565b61038583610350565b61039961039182610372565b8484546102f4565b825550505050565b600090565b6103ae6103a1565b6103b981848461037c565b505050565b5b818110156103dd576103d26000826103a6565b6001810190506103bf565b5050565b601f821115610422576103f3816102c2565b6103fc846102d7565b8101602085101561040b578190505b61041f610417856102d7565b8301826103be565b50505b505050565b600082821c905092915050565b600061044560001984600802610427565b1980831691505092915050565b600061045e8383610434565b9150826002028217905092915050565b61047782610257565b67ffffffffffffffff8111156104905761048f61007f565b5b61049a8254610291565b6104a58282856103e1565b600060209050601f8311600181146104d857600084156104c6578287015190505b6104d08582610452565b865550610538565b601f1984166104e6866102c2565b60005b8281101561050e578489015182556001820191506020850194506020810190506104e9565b8683101561052b5784890151610527601f891682610434565b8355505b6001600288020188555050505b505050505050565b60b38061054e6000396000f3fe6080604052348015600f57600080fd5b506004361060285760003560e01c8063cf21c29314602d575b600080fd5b60336047565b604051603e91906064565b60405180910390f35b60025481565b6000819050919050565b605e81604d565b82525050565b6000602082019050607760008301846057565b9291505056fea2646970667358221220d80aaeff08bd077b30e7273d6271e6a1b9693463efdc93a7697bb7dd77e7b34f64736f6c63430008120033",
					"opcodes": "PUSH1 0x80 PUSH1 0x40 MSTORE CALLVALUE DUP1 ISZERO PUSH2 0x10 JUMPI PUSH1 0x0 DUP1 REVERT JUMPDEST POP PUSH1 0x0 PUSH1 0x14 PUSH1 0x40 MLOAD PUSH2 0x21 SWAP1 PUSH2 0xB3 JUMP JUMPDEST PUSH2 0x2B SWAP2 SWAP1 PUSH2 0x16C JUMP JUMPDEST PUSH1 0x40 MLOAD DUP1 SWAP2 SUB SWAP1 PUSH1 0x0 CREATE DUP1 ISZERO DUP1 ISZERO PUSH2 0x47 JUMPI RETURNDATASIZE PUSH1 0x0 DUP1 RETURNDATACOPY RETURNDATASIZE PUSH1 0x0 REVERT JUMPDEST POP SWAP1 POP PUSH1 0x0 DUP2 SWAP1 DUP1 PUSH1 0x1 DUP2 SLOAD ADD DUP1 DUP3 SSTORE DUP1 SWAP2 POP POP PUSH1 0x1 SWAP1 SUB SWAP1 PUSH1 0x0 MSTORE PUSH1 0x20 PUSH1 0x0 KECCAK256 ADD PUSH1 0x0 SWAP1 SWAP2 SWAP1 SWAP2 SWAP1 SWAP2 PUSH2 0x100 EXP DUP2 SLOAD DUP2 PUSH20 0xFFFFFFFFFFFFFFFFFFFFFFFFFFFFFFFFFFFFFFFF MUL NOT AND SWAP1 DUP4 PUSH20 0xFFFFFFFFFFFFFFFFFFFFFFFFFFFFFFFFFFFFFFFF AND MUL OR SWAP1 SSTORE POP POP PUSH2 0x19A JUMP JUMPDEST PUSH2 0x601 DUP1 PUSH2 0x380 DUP4 CODECOPY ADD SWAP1 JUMP JUMPDEST PUSH1 0x0 DUP3 DUP3 MSTORE PUSH1 0x20 DUP3 ADD SWAP1 POP SWAP3 SWAP2 POP POP JUMP JUMPDEST PUSH32 0x427572616B000000000000000000000000000000000000000000000000000000 PUSH1 0x0 DUP3 ADD MSTORE POP JUMP JUMPDEST PUSH1 0x0 PUSH2 0x107 PUSH1 0x5 DUP4 PUSH2 0xC0 JUMP JUMPDEST SWAP2 POP PUSH2 0x112 DUP3 PUSH2 0xD1 JUMP JUMPDEST PUSH1 0x20 DUP3 ADD SWAP1 POP SWAP2 SWAP1 POP JUMP JUMPDEST PUSH1 0x0 DUP2 SWAP1 POP SWAP2 SWAP1 POP JUMP JUMPDEST PUSH1 0x0 DUP2 SWAP1 POP SWAP2 SWAP1 POP JUMP JUMPDEST PUSH1 0x0 DUP2 SWAP1 POP SWAP2 SWAP1 POP JUMP JUMPDEST PUSH1 0x0 PUSH2 0x156 PUSH2 0x151 PUSH2 0x14C DUP5 PUSH2 0x11D JUMP JUMPDEST PUSH2 0x131 JUMP JUMPDEST PUSH2 0x127 JUMP JUMPDEST SWAP1 POP SWAP2 SWAP1 POP JUMP JUMPDEST PUSH2 0x166 DUP2 PUSH2 0x13B JUMP JUMPDEST DUP3 MSTORE POP POP JUMP JUMPDEST PUSH1 0x0 PUSH1 0x40 DUP3 ADD SWAP1 POP DUP2 DUP2 SUB PUSH1 0x0 DUP4 ADD MSTORE PUSH2 0x185 DUP2 PUSH2 0xFA JUMP JUMPDEST SWAP1 POP PUSH2 0x194 PUSH1 0x20 DUP4 ADD DUP5 PUSH2 0x15D JUMP JUMPDEST SWAP3 SWAP2 POP POP JUMP JUMPDEST PUSH2 0x1D7 DUP1 PUSH2 0x1A9 PUSH1 0x0 CODECOPY PUSH1 0x0 RETURN INVALID PUSH1 0x80 PUSH1 0x40 MSTORE CALLVALUE DUP1 ISZERO PUSH2 0x10 JUMPI PUSH1 0x0 DUP1 REVERT JUMPDEST POP PUSH1 0x4 CALLDATASIZE LT PUSH2 0x2B JUMPI PUSH1 0x0 CALLDATALOAD PUSH1 0xE0 SHR DUP1 PUSH4 0x6EAD22E EQ PUSH2 0x30 JUMPI JUMPDEST PUSH1 0x0 DUP1 REVERT JUMPDEST PUSH2 0x4A PUSH1 0x4 DUP1 CALLDATASIZE SUB DUP2 ADD SWAP1 PUSH2 0x45 SWAP2 SWAP1 PUSH2 0xDA JUMP JUMPDEST PUSH2 0x60 JUMP JUMPDEST PUSH1 0x40 MLOAD PUSH2 0x57 SWAP2 SWAP1 PUSH2 0x186 JUMP JUMPDEST PUSH1 0x40 MLOAD DUP1 SWAP2 SUB SWAP1 RETURN JUMPDEST PUSH1 0x0 DUP2 DUP2 SLOAD DUP2 LT PUSH2 0x70 JUMPI PUSH1 0x0 DUP1 REVERT JUMPDEST SWAP1 PUSH1 0x0 MSTORE PUSH1 0x20 PUSH1 0x0 KECCAK256 ADD PUSH1 0x0 SWAP2 POP SLOAD SWAP1 PUSH2 0x100 EXP SWAP1 DIV PUSH20 0xFFFFFFFFFFFFFFFFFFFFFFFFFFFFFFFFFFFFFFFF AND DUP2 JUMP JUMPDEST PUSH1 0x0 DUP1 REVERT JUMPDEST PUSH1 0x0 DUP2 SWAP1 POP SWAP2 SWAP1 POP JUMP JUMPDEST PUSH2 0xB7 DUP2 PUSH2 0xA4 JUMP JUMPDEST DUP2 EQ PUSH2 0xC2 JUMPI PUSH1 0x0 DUP1 REVERT JUMPDEST POP JUMP JUMPDEST PUSH1 0x0 DUP2 CALLDATALOAD SWAP1 POP PUSH2 0xD4 DUP2 PUSH2 0xAE JUMP JUMPDEST SWAP3 SWAP2 POP POP JUMP JUMPDEST PUSH1 0x0 PUSH1 0x20 DUP3 DUP5 SUB SLT ISZERO PUSH2 0xF0 JUMPI PUSH2 0xEF PUSH2 0x9F JUMP JUMPDEST JUMPDEST PUSH1 0x0 PUSH2 0xFE DUP5 DUP3 DUP6 ADD PUSH2 0xC5 JUMP JUMPDEST SWAP2 POP POP SWAP3 SWAP2 POP POP JUMP JUMPDEST PUSH1 0x0 PUSH20 0xFFFFFFFFFFFFFFFFFFFFFFFFFFFFFFFFFFFFFFFF DUP3 AND SWAP1 POP SWAP2 SWAP1 POP JUMP JUMPDEST PUSH1 0x0 DUP2 SWAP1 POP SWAP2 SWAP1 POP JUMP JUMPDEST PUSH1 0x0 PUSH2 0x14C PUSH2 0x147 PUSH2 0x142 DUP5 PUSH2 0x107 JUMP JUMPDEST PUSH2 0x127 JUMP JUMPDEST PUSH2 0x107 JUMP JUMPDEST SWAP1 POP SWAP2 SWAP1 POP JUMP JUMPDEST PUSH1 0x0 PUSH2 0x15E DUP3 PUSH2 0x131 JUMP JUMPDEST SWAP1 POP SWAP2 SWAP1 POP JUMP JUMPDEST PUSH1 0x0 PUSH2 0x170 DUP3 PUSH2 0x153 JUMP JUMPDEST SWAP1 POP SWAP2 SWAP1 POP JUMP JUMPDEST PUSH2 0x180 DUP2 PUSH2 0x165 JUMP JUMPDEST DUP3 MSTORE POP POP JUMP JUMPDEST PUSH1 0x0 PUSH1 0x20 DUP3 ADD SWAP1 POP PUSH2 0x19B PUSH1 0x0 DUP4 ADD DUP5 PUSH2 0x177 JUMP JUMPDEST SWAP3 SWAP2 POP POP JUMP INVALID LOG2 PUSH5 0x6970667358 0x22 SLT KECCAK256 PUSH26 0x98DDF605D8EA4BED02002A5C151E65236167346F69F8B0857 PUSH6 0x47B50DAE6473 PUSH16 0x6C634300081200336080604052348015 PUSH2 0x10 JUMPI PUSH1 0x0 DUP1 REVERT JUMPDEST POP PUSH1 0x40 MLOAD PUSH2 0x601 CODESIZE SUB DUP1 PUSH2 0x601 DUP4 CODECOPY DUP2 DUP2 ADD PUSH1 0x40 MSTORE DUP2 ADD SWAP1 PUSH2 0x32 SWAP2 SWAP1 PUSH2 0x1FB JUMP JUMPDEST DUP2 PUSH1 0x0 SWAP1 DUP2 PUSH2 0x41 SWAP2 SWAP1 PUSH2 0x46E JUMP JUMPDEST POP DUP1 PUSH1 0x1 DUP2 SWAP1 SSTORE POP POP POP PUSH2 0x540 JUMP JUMPDEST PUSH1 0x0 PUSH1 0x40 MLOAD SWAP1 POP SWAP1 JUMP JUMPDEST PUSH1 0x0 DUP1 REVERT JUMPDEST PUSH1 0x0 DUP1 REVERT JUMPDEST PUSH1 0x0 DUP1 REVERT JUMPDEST PUSH1 0x0 DUP1 REVERT JUMPDEST PUSH1 0x0 PUSH1 0x1F NOT PUSH1 0x1F DUP4 ADD AND SWAP1 POP SWAP2 SWAP1 POP JUMP JUMPDEST PUSH32 0x4E487B7100000000000000000000000000000000000000000000000000000000 PUSH1 0x0 MSTORE PUSH1 0x41 PUSH1 0x4 MSTORE PUSH1 0x24 PUSH1 0x0 REVERT JUMPDEST PUSH2 0xB7 DUP3 PUSH2 0x6E JUMP JUMPDEST DUP2 ADD DUP2 DUP2 LT PUSH8 0xFFFFFFFFFFFFFFFF DUP3 GT OR ISZERO PUSH2 0xD6 JUMPI PUSH2 0xD5 PUSH2 0x7F JUMP JUMPDEST JUMPDEST DUP1 PUSH1 0x40 MSTORE POP POP POP JUMP JUMPDEST PUSH1 0x0 PUSH2 0xE9 PUSH2 0x50 JUMP JUMPDEST SWAP1 POP PUSH2 0xF5 DUP3 DUP3 PUSH2 0xAE JUMP JUMPDEST SWAP2 SWAP1 POP JUMP JUMPDEST PUSH1 0x0 PUSH8 0xFFFFFFFFFFFFFFFF DUP3 GT ISZERO PUSH2 0x115 JUMPI PUSH2 0x114 PUSH2 0x7F JUMP JUMPDEST JUMPDEST PUSH2 0x11E DUP3 PUSH2 0x6E JUMP JUMPDEST SWAP1 POP PUSH1 0x20 DUP2 ADD SWAP1 POP SWAP2 SWAP1 POP JUMP JUMPDEST PUSH1 0x0 JUMPDEST DUP4 DUP2 LT ISZERO PUSH2 0x149 JUMPI DUP1 DUP3 ADD MLOAD DUP2 DUP5 ADD MSTORE PUSH1 0x20 DUP2 ADD SWAP1 POP PUSH2 0x12E JUMP JUMPDEST PUSH1 0x0 DUP5 DUP5 ADD MSTORE POP POP POP POP JUMP JUMPDEST PUSH1 0x0 PUSH2 0x168 PUSH2 0x163 DUP5 PUSH2 0xFA JUMP JUMPDEST PUSH2 0xDF JUMP JUMPDEST SWAP1 POP DUP3 DUP2 MSTORE PUSH1 0x20 DUP2 ADD DUP5 DUP5 DUP5 ADD GT ISZERO PUSH2 0x184 JUMPI PUSH2 0x183 PUSH2 0x69 JUMP JUMPDEST JUMPDEST PUSH2 0x18F DUP5 DUP3 DUP6 PUSH2 0x12B JUMP JUMPDEST POP SWAP4 SWAP3 POP POP POP JUMP JUMPDEST PUSH1 0x0 DUP3 PUSH1 0x1F DUP4 ADD SLT PUSH2 0x1AC JUMPI PUSH2 0x1AB PUSH2 0x64 JUMP JUMPDEST JUMPDEST DUP2 MLOAD PUSH2 0x1BC DUP5 DUP3 PUSH1 0x20 DUP7 ADD PUSH2 0x155 JUMP JUMPDEST SWAP2 POP POP SWAP3 SWAP2 POP POP JUMP JUMPDEST PUSH1 0x0 DUP2 SWAP1 POP SWAP2 SWAP1 POP JUMP JUMPDEST PUSH2 0x1D8 DUP2 PUSH2 0x1C5 JUMP JUMPDEST DUP2 EQ PUSH2 0x1E3 JUMPI PUSH1 0x0 DUP1 REVERT JUMPDEST POP JUMP JUMPDEST PUSH1 0x0 DUP2 MLOAD SWAP1 POP PUSH2 0x1F5 DUP2 PUSH2 0x1CF JUMP JUMPDEST SWAP3 SWAP2 POP POP JUMP JUMPDEST PUSH1 0x0 DUP1 PUSH1 0x40 DUP4 DUP6 SUB SLT ISZERO PUSH2 0x212 JUMPI PUSH2 0x211 PUSH2 0x5A JUMP JUMPDEST JUMPDEST PUSH1 0x0 DUP4 ADD MLOAD PUSH8 0xFFFFFFFFFFFFFFFF DUP2 GT ISZERO PUSH2 0x230 JUMPI PUSH2 0x22F PUSH2 0x5F JUMP JUMPDEST JUMPDEST PUSH2 0x23C DUP6 DUP3 DUP7 ADD PUSH2 0x197 JUMP JUMPDEST SWAP3 POP POP PUSH1 0x20 PUSH2 0x24D DUP6 DUP3 DUP7 ADD PUSH2 0x1E6 JUMP JUMPDEST SWAP2 POP POP SWAP3 POP SWAP3 SWAP1 POP JUMP JUMPDEST PUSH1 0x0 DUP2 MLOAD SWAP1 POP SWAP2 SWAP1 POP JUMP JUMPDEST PUSH32 0x4E487B7100000000000000000000000000000000000000000000000000000000 PUSH1 0x0 MSTORE PUSH1 0x22 PUSH1 0x4 MSTORE PUSH1 0x24 PUSH1 0x0 REVERT JUMPDEST PUSH1 0x0 PUSH1 0x2 DUP3 DIV SWAP1 POP PUSH1 0x1 DUP3 AND DUP1 PUSH2 0x2A9 JUMPI PUSH1 0x7F DUP3 AND SWAP2 POP JUMPDEST PUSH1 0x20 DUP3 LT DUP2 SUB PUSH2 0x2BC JUMPI PUSH2 0x2BB PUSH2 0x262 JUMP JUMPDEST JUMPDEST POP SWAP2 SWAP1 POP JUMP JUMPDEST PUSH1 0x0 DUP2 SWAP1 POP DUP2 PUSH1 0x0 MSTORE PUSH1 0x20 PUSH1 0x0 KECCAK256 SWAP1 POP SWAP2 SWAP1 POP JUMP JUMPDEST PUSH1 0x0 PUSH1 0x20 PUSH1 0x1F DUP4 ADD DIV SWAP1 POP SWAP2 SWAP1 POP JUMP JUMPDEST PUSH1 0x0 DUP3 DUP3 SHL SWAP1 POP SWAP3 SWAP2 POP POP JUMP JUMPDEST PUSH1 0x0 PUSH1 0x8 DUP4 MUL PUSH2 0x324 PUSH32 0xFFFFFFFFFFFFFFFFFFFFFFFFFFFFFFFFFFFFFFFFFFFFFFFFFFFFFFFFFFFFFFFF DUP3 PUSH2 0x2E7 JUMP JUMPDEST PUSH2 0x32E DUP7 DUP4 PUSH2 0x2E7 JUMP JUMPDEST SWAP6 POP DUP1 NOT DUP5 AND SWAP4 POP DUP1 DUP7 AND DUP5 OR SWAP3 POP POP POP SWAP4 SWAP3 POP POP POP JUMP JUMPDEST PUSH1 0x0 DUP2 SWAP1 POP SWAP2 SWAP1 POP JUMP JUMPDEST PUSH1 0x0 PUSH2 0x36B PUSH2 0x366 PUSH2 0x361 DUP5 PUSH2 0x1C5 JUMP JUMPDEST PUSH2 0x346 JUMP JUMPDEST PUSH2 0x1C5 JUMP JUMPDEST SWAP1 POP SWAP2 SWAP1 POP JUMP JUMPDEST PUSH1 0x0 DUP2 SWAP1 POP SWAP2 SWAP1 POP JUMP JUMPDEST PUSH2 0x385 DUP4 PUSH2 0x350 JUMP JUMPDEST PUSH2 0x399 PUSH2 0x391 DUP3 PUSH2 0x372 JUMP JUMPDEST DUP5 DUP5 SLOAD PUSH2 0x2F4 JUMP JUMPDEST DUP3 SSTORE POP POP POP POP JUMP JUMPDEST PUSH1 0x0 SWAP1 JUMP JUMPDEST PUSH2 0x3AE PUSH2 0x3A1 JUMP JUMPDEST PUSH2 0x3B9 DUP2 DUP5 DUP5 PUSH2 0x37C JUMP JUMPDEST POP POP POP JUMP JUMPDEST JUMPDEST DUP2 DUP2 LT ISZERO PUSH2 0x3DD JUMPI PUSH2 0x3D2 PUSH1 0x0 DUP3 PUSH2 0x3A6 JUMP JUMPDEST PUSH1 0x1 DUP2 ADD SWAP1 POP PUSH2 0x3BF JUMP JUMPDEST POP POP JUMP JUMPDEST PUSH1 0x1F DUP3 GT ISZERO PUSH2 0x422 JUMPI PUSH2 0x3F3 DUP2 PUSH2 0x2C2 JUMP JUMPDEST PUSH2 0x3FC DUP5 PUSH2 0x2D7 JUMP JUMPDEST DUP2 ADD PUSH1 0x20 DUP6 LT ISZERO PUSH2 0x40B JUMPI DUP2 SWAP1 POP JUMPDEST PUSH2 0x41F PUSH2 0x417 DUP6 PUSH2 0x2D7 JUMP JUMPDEST DUP4 ADD DUP3 PUSH2 0x3BE JUMP JUMPDEST POP POP JUMPDEST POP POP POP JUMP JUMPDEST PUSH1 0x0 DUP3 DUP3 SHR SWAP1 POP SWAP3 SWAP2 POP POP JUMP JUMPDEST PUSH1 0x0 PUSH2 0x445 PUSH1 0x0 NOT DUP5 PUSH1 0x8 MUL PUSH2 0x427 JUMP JUMPDEST NOT DUP1 DUP4 AND SWAP2 POP POP SWAP3 SWAP2 POP POP JUMP JUMPDEST PUSH1 0x0 PUSH2 0x45E DUP4 DUP4 PUSH2 0x434 JUMP JUMPDEST SWAP2 POP DUP3 PUSH1 0x2 MUL DUP3 OR SWAP1 POP SWAP3 SWAP2 POP POP JUMP JUMPDEST PUSH2 0x477 DUP3 PUSH2 0x257 JUMP JUMPDEST PUSH8 0xFFFFFFFFFFFFFFFF DUP2 GT ISZERO PUSH2 0x490 JUMPI PUSH2 0x48F PUSH2 0x7F JUMP JUMPDEST JUMPDEST PUSH2 0x49A DUP3 SLOAD PUSH2 0x291 JUMP JUMPDEST PUSH2 0x4A5 DUP3 DUP3 DUP6 PUSH2 0x3E1 JUMP JUMPDEST PUSH1 0x0 PUSH1 0x20 SWAP1 POP PUSH1 0x1F DUP4 GT PUSH1 0x1 DUP2 EQ PUSH2 0x4D8 JUMPI PUSH1 0x0 DUP5 ISZERO PUSH2 0x4C6 JUMPI DUP3 DUP8 ADD MLOAD SWAP1 POP JUMPDEST PUSH2 0x4D0 DUP6 DUP3 PUSH2 0x452 JUMP JUMPDEST DUP7 SSTORE POP PUSH2 0x538 JUMP JUMPDEST PUSH1 0x1F NOT DUP5 AND PUSH2 0x4E6 DUP7 PUSH2 0x2C2 JUMP JUMPDEST PUSH1 0x0 JUMPDEST DUP3 DUP2 LT ISZERO PUSH2 0x50E JUMPI DUP5 DUP10 ADD MLOAD DUP3 SSTORE PUSH1 0x1 DUP3 ADD SWAP2 POP PUSH1 0x20 DUP6 ADD SWAP5 POP PUSH1 0x20 DUP2 ADD SWAP1 POP PUSH2 0x4E9 JUMP JUMPDEST DUP7 DUP4 LT ISZERO PUSH2 0x52B JUMPI DUP5 DUP10 ADD MLOAD PUSH2 0x527 PUSH1 0x1F DUP10 AND DUP3 PUSH2 0x434 JUMP JUMPDEST DUP4 SSTORE POP JUMPDEST PUSH1 0x1 PUSH1 0x2 DUP9 MUL ADD DUP9 SSTORE POP POP POP JUMPDEST POP POP POP POP POP POP JUMP JUMPDEST PUSH1 0xB3 DUP1 PUSH2 0x54E PUSH1 0x0 CODECOPY PUSH1 0x0 RETURN INVALID PUSH1 0x80 PUSH1 0x40 MSTORE CALLVALUE DUP1 ISZERO PUSH1 0xF JUMPI PUSH1 0x0 DUP1 REVERT JUMPDEST POP PUSH1 0x4 CALLDATASIZE LT PUSH1 0x28 JUMPI PUSH1 0x0 CALLDATALOAD PUSH1 0xE0 SHR DUP1 PUSH4 0xCF21C293 EQ PUSH1 0x2D JUMPI JUMPDEST PUSH1 0x0 DUP1 REVERT JUMPDEST PUSH1 0x33 PUSH1 0x47 JUMP JUMPDEST PUSH1 0x40 MLOAD PUSH1 0x3E SWAP2 SWAP1 PUSH1 0x64 JUMP JUMPDEST PUSH1 0x40 MLOAD DUP1 SWAP2 SUB SWAP1 RETURN JUMPDEST PUSH1 0x2 SLOAD DUP2 JUMP JUMPDEST PUSH1 0x0 DUP2 SWAP1 POP SWAP2 SWAP1 POP JUMP JUMPDEST PUSH1 0x5E DUP2 PUSH1 0x4D JUMP JUMPDEST DUP3 MSTORE POP POP JUMP JUMPDEST PUSH1 0x0 PUSH1 0x20 DUP3 ADD SWAP1 POP PUSH1 0x77 PUSH1 0x0 DUP4 ADD DUP5 PUSH1 0x57 JUMP JUMPDEST SWAP3 SWAP2 POP POP JUMP INVALID LOG2 PUSH5 0x6970667358 0x22 SLT KECCAK256 0xD8 EXP 0xAE SELFDESTRUCT ADDMOD 0xBD SMOD PUSH28 0x30E7273D6271E6A1B9693463EFDC93A7697BB7DD77E7B34F64736F6C PUSH4 0x43000812 STOP CALLER "
				},
				"gasEstimates": {
					"creation": {
						"codeDepositCost": "94200",
						"executionCost": "infinite",
						"totalCost": "infinite"
					},
					"external": {
						"students(uint256)": "infinite"
					}
				},
				"methodIdentifiers": {
					"students(uint256)": "06ead22e"
				}
			},
			"storageLayout": {
				"storage": [
					{
						"astId": 28,
						"contract": "Labs (August)/try_catch_library/newKeyword.sol:StudentsList",
						"label": "students",
						"offset": 0,
						"slot": "0",
						"type": "t_array(t_contract(Student)24)dyn_storage"
					}
				],
				"types": {
					"t_array(t_contract(Student)24)dyn_storage": {
						"base": "t_contract(Student)24",
						"encoding": "dynamic_array",
						"label": "contract Student[]",
						"numberOfBytes": "32"
					},
					"t_contract(Student)24": {
						"encoding": "inplace",
						"label": "contract Student",
						"numberOfBytes": "20"
					}
				}
			},
			"userdoc": {
				"kind": "user",
				"methods": {},
				"version": 1
			}
		}
	}
}