{
	"Labs (August)/try_catch_library/try_catch.sol": {
		"Try": {
			"abi": [
				{
					"anonymous": false,
					"inputs": [
						{
							"indexed": false,
							"internalType": "bytes",
							"name": "data",
							"type": "bytes"
						}
					],
					"name": "CatchByte",
					"type": "event"
				},
				{
					"anonymous": false,
					"inputs": [
						{
							"indexed": false,
							"internalType": "string",
							"name": "reason",
							"type": "string"
						}
					],
					"name": "failure",
					"type": "event"
				},
				{
					"anonymous": false,
					"inputs": [],
					"name": "reg",
					"type": "event"
				},
				{
					"anonymous": false,
					"inputs": [
						{
							"indexed": false,
							"internalType": "uint256",
							"name": "number",
							"type": "uint256"
						}
					],
					"name": "regnum",
					"type": "event"
				},
				{
					"inputs": [
						{
							"internalType": "uint256",
							"name": "a",
							"type": "uint256"
						},
						{
							"internalType": "uint256",
							"name": "b",
							"type": "uint256"
						}
					],
					"name": "calldivide",
					"outputs": [],
					"stateMutability": "nonpayable",
					"type": "function"
				},
				{
					"inputs": [],
					"name": "div",
					"outputs": [
						{
							"internalType": "contract SDiv",
							"name": "",
							"type": "address"
						}
					],
					"stateMutability": "view",
					"type": "function"
				}
			],
			"devdoc": {
				"kind": "dev",
				"methods": {},
				"version": 1
			},
			"evm": {
				"assembly": "    /* \"Labs (August)/try_catch_library/try_catch.sol\":2122:2593  contract Try{... */\n  mstore(0x40, 0x80)\n  callvalue\n  dup1\n  iszero\n  tag_1\n  jumpi\n  0x00\n  dup1\n  revert\ntag_1:\n  pop\n  dataSize(sub_0)\n  dup1\n  dataOffset(sub_0)\n  0x00\n  codecopy\n  0x00\n  return\nstop\n\nsub_0: assembly {\n        /* \"Labs (August)/try_catch_library/try_catch.sol\":2122:2593  contract Try{... */\n      mstore(0x40, 0x80)\n      callvalue\n      dup1\n      iszero\n      tag_1\n      jumpi\n      0x00\n      dup1\n      revert\n    tag_1:\n      pop\n      jumpi(tag_2, lt(calldatasize, 0x04))\n      shr(0xe0, calldataload(0x00))\n      dup1\n      0x3fd32257\n      eq\n      tag_3\n      jumpi\n      dup1\n      0xf9fa48c3\n      eq\n      tag_4\n      jumpi\n    tag_2:\n      0x00\n      dup1\n      revert\n        /* \"Labs (August)/try_catch_library/try_catch.sol\":2288:2590  function calldivide(uint a , uint b)external{... */\n    tag_3:\n      tag_5\n      0x04\n      dup1\n      calldatasize\n      sub\n      dup2\n      add\n      swap1\n      tag_6\n      swap2\n      swap1\n      tag_7\n      jump\t// in\n    tag_6:\n      tag_8\n      jump\t// in\n    tag_5:\n      stop\n        /* \"Labs (August)/try_catch_library/try_catch.sol\":2143:2158  SDiv public div */\n    tag_4:\n      tag_9\n      tag_10\n      jump\t// in\n    tag_9:\n      mload(0x40)\n      tag_11\n      swap2\n      swap1\n      tag_12\n      jump\t// in\n    tag_11:\n      mload(0x40)\n      dup1\n      swap2\n      sub\n      swap1\n      return\n        /* \"Labs (August)/try_catch_library/try_catch.sol\":2288:2590  function calldivide(uint a , uint b)external{... */\n    tag_8:\n        /* \"Labs (August)/try_catch_library/try_catch.sol\":2347:2350  div */\n      0x00\n      dup1\n      sload\n      swap1\n      0x0100\n      exp\n      swap1\n      div\n      0xffffffffffffffffffffffffffffffffffffffff\n      and\n        /* \"Labs (August)/try_catch_library/try_catch.sol\":2347:2357  div.divide */\n      0xffffffffffffffffffffffffffffffffffffffff\n      and\n      0xf88e9fbf\n        /* \"Labs (August)/try_catch_library/try_catch.sol\":2358:2359  a */\n      dup4\n        /* \"Labs (August)/try_catch_library/try_catch.sol\":2361:2362  b */\n      dup4\n        /* \"Labs (August)/try_catch_library/try_catch.sol\":2347:2363  div.divide(a, b) */\n      mload(0x40)\n      dup4\n      0xffffffff\n      and\n      0xe0\n      shl\n      dup2\n      mstore\n      0x04\n      add\n      tag_14\n      swap3\n      swap2\n      swap1\n      tag_15\n      jump\t// in\n    tag_14:\n      0x20\n      mload(0x40)\n      dup1\n      dup4\n      sub\n      dup2\n      dup7\n      gas\n      staticcall\n      swap3\n      pop\n      pop\n      pop\n      dup1\n      iszero\n      tag_16\n      jumpi\n      pop\n      mload(0x40)\n      returndatasize\n      not(0x1f)\n      0x1f\n      dup3\n      add\n      and\n      dup3\n      add\n      dup1\n      0x40\n      mstore\n      pop\n      dup2\n      add\n      swap1\n      tag_17\n      swap2\n      swap1\n      tag_18\n      jump\t// in\n    tag_17:\n      0x01\n    tag_16:\n        /* \"Labs (August)/try_catch_library/try_catch.sol\":2343:2583  try div.divide(a, b) returns(uint num){... */\n      tag_19\n      jumpi\n      tag_23\n      tag_24\n      jump\t// in\n    tag_23:\n      dup1\n      0x08c379a0\n      sub\n      tag_22\n      jumpi\n      pop\n      tag_25\n      tag_26\n      jump\t// in\n    tag_25:\n      dup1\n      tag_27\n      jumpi\n      pop\n      jump(tag_21)\n    tag_27:\n        /* \"Labs (August)/try_catch_library/try_catch.sol\":2478:2494  failure(message) */\n      0x6d0daf83c3a38f2fe33a4861490a8fe4cab88346a8ec28ff62af066611392cbb\n        /* \"Labs (August)/try_catch_library/try_catch.sol\":2486:2493  message */\n      dup2\n        /* \"Labs (August)/try_catch_library/try_catch.sol\":2478:2494  failure(message) */\n      mload(0x40)\n      tag_28\n      swap2\n      swap1\n      tag_29\n      jump\t// in\n    tag_28:\n      mload(0x40)\n      dup1\n      swap2\n      sub\n      swap1\n      log1\n        /* \"Labs (August)/try_catch_library/try_catch.sol\":2424:2506  catch Error(string memory message){... */\n      pop\n        /* \"Labs (August)/try_catch_library/try_catch.sol\":2343:2583  try div.divide(a, b) returns(uint num){... */\n      jump(tag_20)\n    tag_22:\n      pop\n    tag_21:\n      returndatasize\n      dup1\n      0x00\n      dup2\n      eq\n      tag_31\n      jumpi\n      mload(0x40)\n      swap2\n      pop\n      and(add(returndatasize, 0x3f), not(0x1f))\n      dup3\n      add\n      0x40\n      mstore\n      returndatasize\n      dup3\n      mstore\n      returndatasize\n      0x00\n      0x20\n      dup5\n      add\n      returndatacopy\n      jump(tag_30)\n    tag_31:\n      0x60\n      swap2\n      pop\n    tag_30:\n      pop\n        /* \"Labs (August)/try_catch_library/try_catch.sol\":2554:2571  CatchByte(reason) */\n      0xb6f66868478aebcea8c7a15c8c7dd37a513a4127424642ee3573117b52fa3e39\n        /* \"Labs (August)/try_catch_library/try_catch.sol\":2564:2570  reason */\n      dup2\n        /* \"Labs (August)/try_catch_library/try_catch.sol\":2554:2571  CatchByte(reason) */\n      mload(0x40)\n      tag_32\n      swap2\n      swap1\n      tag_33\n      jump\t// in\n    tag_32:\n      mload(0x40)\n      dup1\n      swap2\n      sub\n      swap1\n      log1\n        /* \"Labs (August)/try_catch_library/try_catch.sol\":2506:2583  catch (bytes memory reason) {... */\n      pop\n        /* \"Labs (August)/try_catch_library/try_catch.sol\":2343:2583  try div.divide(a, b) returns(uint num){... */\n    tag_20:\n      jump(tag_34)\n    tag_19:\n        /* \"Labs (August)/try_catch_library/try_catch.sol\":2401:2412  regnum(num) */\n      0xc51486e2bea95298ff1f7a8e07be54c6624c5c7dc738d5f7b8b872559202b755\n        /* \"Labs (August)/try_catch_library/try_catch.sol\":2408:2411  num */\n      dup2\n        /* \"Labs (August)/try_catch_library/try_catch.sol\":2401:2412  regnum(num) */\n      mload(0x40)\n      tag_35\n      swap2\n      swap1\n      tag_36\n      jump\t// in\n    tag_35:\n      mload(0x40)\n      dup1\n      swap2\n      sub\n      swap1\n      log1\n        /* \"Labs (August)/try_catch_library/try_catch.sol\":2364:2424  returns(uint num){... */\n      pop\n        /* \"Labs (August)/try_catch_library/try_catch.sol\":2343:2583  try div.divide(a, b) returns(uint num){... */\n    tag_34:\n        /* \"Labs (August)/try_catch_library/try_catch.sol\":2288:2590  function calldivide(uint a , uint b)external{... */\n      pop\n      pop\n      jump\t// out\n        /* \"Labs (August)/try_catch_library/try_catch.sol\":2143:2158  SDiv public div */\n    tag_10:\n      0x00\n      dup1\n      sload\n      swap1\n      0x0100\n      exp\n      swap1\n      div\n      0xffffffffffffffffffffffffffffffffffffffff\n      and\n      dup2\n      jump\t// out\n        /* \"#utility.yul\":7:82   */\n    tag_37:\n        /* \"#utility.yul\":40:46   */\n      0x00\n        /* \"#utility.yul\":73:75   */\n      0x40\n        /* \"#utility.yul\":67:76   */\n      mload\n        /* \"#utility.yul\":57:76   */\n      swap1\n      pop\n        /* \"#utility.yul\":7:82   */\n      swap1\n      jump\t// out\n        /* \"#utility.yul\":88:205   */\n    tag_38:\n        /* \"#utility.yul\":197:198   */\n      0x00\n        /* \"#utility.yul\":194:195   */\n      dup1\n        /* \"#utility.yul\":187:199   */\n      revert\n        /* \"#utility.yul\":334:411   */\n    tag_40:\n        /* \"#utility.yul\":371:378   */\n      0x00\n        /* \"#utility.yul\":400:405   */\n      dup2\n        /* \"#utility.yul\":389:405   */\n      swap1\n      pop\n        /* \"#utility.yul\":334:411   */\n      swap2\n      swap1\n      pop\n      jump\t// out\n        /* \"#utility.yul\":417:539   */\n    tag_41:\n        /* \"#utility.yul\":490:514   */\n      tag_68\n        /* \"#utility.yul\":508:513   */\n      dup2\n        /* \"#utility.yul\":490:514   */\n      tag_40\n      jump\t// in\n    tag_68:\n        /* \"#utility.yul\":483:488   */\n      dup2\n        /* \"#utility.yul\":480:515   */\n      eq\n        /* \"#utility.yul\":470:533   */\n      tag_69\n      jumpi\n        /* \"#utility.yul\":529:530   */\n      0x00\n        /* \"#utility.yul\":526:527   */\n      dup1\n        /* \"#utility.yul\":519:531   */\n      revert\n        /* \"#utility.yul\":470:533   */\n    tag_69:\n        /* \"#utility.yul\":417:539   */\n      pop\n      jump\t// out\n        /* \"#utility.yul\":545:684   */\n    tag_42:\n        /* \"#utility.yul\":591:596   */\n      0x00\n        /* \"#utility.yul\":629:635   */\n      dup2\n        /* \"#utility.yul\":616:636   */\n      calldataload\n        /* \"#utility.yul\":607:636   */\n      swap1\n      pop\n        /* \"#utility.yul\":645:678   */\n      tag_71\n        /* \"#utility.yul\":672:677   */\n      dup2\n        /* \"#utility.yul\":645:678   */\n      tag_41\n      jump\t// in\n    tag_71:\n        /* \"#utility.yul\":545:684   */\n      swap3\n      swap2\n      pop\n      pop\n      jump\t// out\n        /* \"#utility.yul\":690:1164   */\n    tag_7:\n        /* \"#utility.yul\":758:764   */\n      0x00\n        /* \"#utility.yul\":766:772   */\n      dup1\n        /* \"#utility.yul\":815:817   */\n      0x40\n        /* \"#utility.yul\":803:812   */\n      dup4\n        /* \"#utility.yul\":794:801   */\n      dup6\n        /* \"#utility.yul\":790:813   */\n      sub\n        /* \"#utility.yul\":786:818   */\n      slt\n        /* \"#utility.yul\":783:902   */\n      iszero\n      tag_73\n      jumpi\n        /* \"#utility.yul\":821:900   */\n      tag_74\n      tag_38\n      jump\t// in\n    tag_74:\n        /* \"#utility.yul\":783:902   */\n    tag_73:\n        /* \"#utility.yul\":941:942   */\n      0x00\n        /* \"#utility.yul\":966:1019   */\n      tag_75\n        /* \"#utility.yul\":1011:1018   */\n      dup6\n        /* \"#utility.yul\":1002:1008   */\n      dup3\n        /* \"#utility.yul\":991:1000   */\n      dup7\n        /* \"#utility.yul\":987:1009   */\n      add\n        /* \"#utility.yul\":966:1019   */\n      tag_42\n      jump\t// in\n    tag_75:\n        /* \"#utility.yul\":956:1019   */\n      swap3\n      pop\n        /* \"#utility.yul\":912:1029   */\n      pop\n        /* \"#utility.yul\":1068:1070   */\n      0x20\n        /* \"#utility.yul\":1094:1147   */\n      tag_76\n        /* \"#utility.yul\":1139:1146   */\n      dup6\n        /* \"#utility.yul\":1130:1136   */\n      dup3\n        /* \"#utility.yul\":1119:1128   */\n      dup7\n        /* \"#utility.yul\":1115:1137   */\n      add\n        /* \"#utility.yul\":1094:1147   */\n      tag_42\n      jump\t// in\n    tag_76:\n        /* \"#utility.yul\":1084:1147   */\n      swap2\n      pop\n        /* \"#utility.yul\":1039:1157   */\n      pop\n        /* \"#utility.yul\":690:1164   */\n      swap3\n      pop\n      swap3\n      swap1\n      pop\n      jump\t// out\n        /* \"#utility.yul\":1170:1296   */\n    tag_43:\n        /* \"#utility.yul\":1207:1214   */\n      0x00\n        /* \"#utility.yul\":1247:1289   */\n      0xffffffffffffffffffffffffffffffffffffffff\n        /* \"#utility.yul\":1240:1245   */\n      dup3\n        /* \"#utility.yul\":1236:1290   */\n      and\n        /* \"#utility.yul\":1225:1290   */\n      swap1\n      pop\n        /* \"#utility.yul\":1170:1296   */\n      swap2\n      swap1\n      pop\n      jump\t// out\n        /* \"#utility.yul\":1302:1362   */\n    tag_44:\n        /* \"#utility.yul\":1330:1333   */\n      0x00\n        /* \"#utility.yul\":1351:1356   */\n      dup2\n        /* \"#utility.yul\":1344:1356   */\n      swap1\n      pop\n        /* \"#utility.yul\":1302:1362   */\n      swap2\n      swap1\n      pop\n      jump\t// out\n        /* \"#utility.yul\":1368:1510   */\n    tag_45:\n        /* \"#utility.yul\":1418:1427   */\n      0x00\n        /* \"#utility.yul\":1451:1504   */\n      tag_80\n        /* \"#utility.yul\":1469:1503   */\n      tag_81\n        /* \"#utility.yul\":1478:1502   */\n      tag_82\n        /* \"#utility.yul\":1496:1501   */\n      dup5\n        /* \"#utility.yul\":1478:1502   */\n      tag_43\n      jump\t// in\n    tag_82:\n        /* \"#utility.yul\":1469:1503   */\n      tag_44\n      jump\t// in\n    tag_81:\n        /* \"#utility.yul\":1451:1504   */\n      tag_43\n      jump\t// in\n    tag_80:\n        /* \"#utility.yul\":1438:1504   */\n      swap1\n      pop\n        /* \"#utility.yul\":1368:1510   */\n      swap2\n      swap1\n      pop\n      jump\t// out\n        /* \"#utility.yul\":1516:1642   */\n    tag_46:\n        /* \"#utility.yul\":1566:1575   */\n      0x00\n        /* \"#utility.yul\":1599:1636   */\n      tag_84\n        /* \"#utility.yul\":1630:1635   */\n      dup3\n        /* \"#utility.yul\":1599:1636   */\n      tag_45\n      jump\t// in\n    tag_84:\n        /* \"#utility.yul\":1586:1636   */\n      swap1\n      pop\n        /* \"#utility.yul\":1516:1642   */\n      swap2\n      swap1\n      pop\n      jump\t// out\n        /* \"#utility.yul\":1648:1786   */\n    tag_47:\n        /* \"#utility.yul\":1710:1719   */\n      0x00\n        /* \"#utility.yul\":1743:1780   */\n      tag_86\n        /* \"#utility.yul\":1774:1779   */\n      dup3\n        /* \"#utility.yul\":1743:1780   */\n      tag_46\n      jump\t// in\n    tag_86:\n        /* \"#utility.yul\":1730:1780   */\n      swap1\n      pop\n        /* \"#utility.yul\":1648:1786   */\n      swap2\n      swap1\n      pop\n      jump\t// out\n        /* \"#utility.yul\":1792:1947   */\n    tag_48:\n        /* \"#utility.yul\":1891:1940   */\n      tag_88\n        /* \"#utility.yul\":1934:1939   */\n      dup2\n        /* \"#utility.yul\":1891:1940   */\n      tag_47\n      jump\t// in\n    tag_88:\n        /* \"#utility.yul\":1886:1889   */\n      dup3\n        /* \"#utility.yul\":1879:1941   */\n      mstore\n        /* \"#utility.yul\":1792:1947   */\n      pop\n      pop\n      jump\t// out\n        /* \"#utility.yul\":1953:2199   */\n    tag_12:\n        /* \"#utility.yul\":2058:2062   */\n      0x00\n        /* \"#utility.yul\":2096:2098   */\n      0x20\n        /* \"#utility.yul\":2085:2094   */\n      dup3\n        /* \"#utility.yul\":2081:2099   */\n      add\n        /* \"#utility.yul\":2073:2099   */\n      swap1\n      pop\n        /* \"#utility.yul\":2109:2192   */\n      tag_90\n        /* \"#utility.yul\":2189:2190   */\n      0x00\n        /* \"#utility.yul\":2178:2187   */\n      dup4\n        /* \"#utility.yul\":2174:2191   */\n      add\n        /* \"#utility.yul\":2165:2171   */\n      dup5\n        /* \"#utility.yul\":2109:2192   */\n      tag_48\n      jump\t// in\n    tag_90:\n        /* \"#utility.yul\":1953:2199   */\n      swap3\n      swap2\n      pop\n      pop\n      jump\t// out\n        /* \"#utility.yul\":2205:2323   */\n    tag_49:\n        /* \"#utility.yul\":2292:2316   */\n      tag_92\n        /* \"#utility.yul\":2310:2315   */\n      dup2\n        /* \"#utility.yul\":2292:2316   */\n      tag_40\n      jump\t// in\n    tag_92:\n        /* \"#utility.yul\":2287:2290   */\n      dup3\n        /* \"#utility.yul\":2280:2317   */\n      mstore\n        /* \"#utility.yul\":2205:2323   */\n      pop\n      pop\n      jump\t// out\n        /* \"#utility.yul\":2329:2661   */\n    tag_15:\n        /* \"#utility.yul\":2450:2454   */\n      0x00\n        /* \"#utility.yul\":2488:2490   */\n      0x40\n        /* \"#utility.yul\":2477:2486   */\n      dup3\n        /* \"#utility.yul\":2473:2491   */\n      add\n        /* \"#utility.yul\":2465:2491   */\n      swap1\n      pop\n        /* \"#utility.yul\":2501:2572   */\n      tag_94\n        /* \"#utility.yul\":2569:2570   */\n      0x00\n        /* \"#utility.yul\":2558:2567   */\n      dup4\n        /* \"#utility.yul\":2554:2571   */\n      add\n        /* \"#utility.yul\":2545:2551   */\n      dup6\n        /* \"#utility.yul\":2501:2572   */\n      tag_49\n      jump\t// in\n    tag_94:\n        /* \"#utility.yul\":2582:2654   */\n      tag_95\n        /* \"#utility.yul\":2650:2652   */\n      0x20\n        /* \"#utility.yul\":2639:2648   */\n      dup4\n        /* \"#utility.yul\":2635:2653   */\n      add\n        /* \"#utility.yul\":2626:2632   */\n      dup5\n        /* \"#utility.yul\":2582:2654   */\n      tag_49\n      jump\t// in\n    tag_95:\n        /* \"#utility.yul\":2329:2661   */\n      swap4\n      swap3\n      pop\n      pop\n      pop\n      jump\t// out\n        /* \"#utility.yul\":2667:2810   */\n    tag_50:\n        /* \"#utility.yul\":2724:2729   */\n      0x00\n        /* \"#utility.yul\":2755:2761   */\n      dup2\n        /* \"#utility.yul\":2749:2762   */\n      mload\n        /* \"#utility.yul\":2740:2762   */\n      swap1\n      pop\n        /* \"#utility.yul\":2771:2804   */\n      tag_97\n        /* \"#utility.yul\":2798:2803   */\n      dup2\n        /* \"#utility.yul\":2771:2804   */\n      tag_41\n      jump\t// in\n    tag_97:\n        /* \"#utility.yul\":2667:2810   */\n      swap3\n      swap2\n      pop\n      pop\n      jump\t// out\n        /* \"#utility.yul\":2816:3167   */\n    tag_18:\n        /* \"#utility.yul\":2886:2892   */\n      0x00\n        /* \"#utility.yul\":2935:2937   */\n      0x20\n        /* \"#utility.yul\":2923:2932   */\n      dup3\n        /* \"#utility.yul\":2914:2921   */\n      dup5\n        /* \"#utility.yul\":2910:2933   */\n      sub\n        /* \"#utility.yul\":2906:2938   */\n      slt\n        /* \"#utility.yul\":2903:3022   */\n      iszero\n      tag_99\n      jumpi\n        /* \"#utility.yul\":2941:3020   */\n      tag_100\n      tag_38\n      jump\t// in\n    tag_100:\n        /* \"#utility.yul\":2903:3022   */\n    tag_99:\n        /* \"#utility.yul\":3061:3062   */\n      0x00\n        /* \"#utility.yul\":3086:3150   */\n      tag_101\n        /* \"#utility.yul\":3142:3149   */\n      dup5\n        /* \"#utility.yul\":3133:3139   */\n      dup3\n        /* \"#utility.yul\":3122:3131   */\n      dup6\n        /* \"#utility.yul\":3118:3140   */\n      add\n        /* \"#utility.yul\":3086:3150   */\n      tag_50\n      jump\t// in\n    tag_101:\n        /* \"#utility.yul\":3076:3150   */\n      swap2\n      pop\n        /* \"#utility.yul\":3032:3160   */\n      pop\n        /* \"#utility.yul\":2816:3167   */\n      swap3\n      swap2\n      pop\n      pop\n      jump\t// out\n        /* \"#utility.yul\":3173:3279   */\n    tag_51:\n        /* \"#utility.yul\":3217:3225   */\n      0x00\n        /* \"#utility.yul\":3266:3271   */\n      dup2\n        /* \"#utility.yul\":3261:3264   */\n      0xe0\n        /* \"#utility.yul\":3257:3272   */\n      shr\n        /* \"#utility.yul\":3236:3272   */\n      swap1\n      pop\n        /* \"#utility.yul\":3173:3279   */\n      swap2\n      swap1\n      pop\n      jump\t// out\n        /* \"#utility.yul\":3285:3468   */\n    tag_24:\n        /* \"#utility.yul\":3320:3323   */\n      0x00\n        /* \"#utility.yul\":3358:3359   */\n      0x03\n        /* \"#utility.yul\":3340:3356   */\n      returndatasize\n        /* \"#utility.yul\":3337:3360   */\n      gt\n        /* \"#utility.yul\":3334:3462   */\n      iszero\n      tag_104\n      jumpi\n        /* \"#utility.yul\":3396:3397   */\n      0x04\n        /* \"#utility.yul\":3393:3394   */\n      0x00\n        /* \"#utility.yul\":3390:3391   */\n      dup1\n        /* \"#utility.yul\":3375:3398   */\n      returndatacopy\n        /* \"#utility.yul\":3418:3452   */\n      tag_105\n        /* \"#utility.yul\":3449:3450   */\n      0x00\n        /* \"#utility.yul\":3443:3451   */\n      mload\n        /* \"#utility.yul\":3418:3452   */\n      tag_51\n      jump\t// in\n    tag_105:\n        /* \"#utility.yul\":3411:3452   */\n      swap1\n      pop\n        /* \"#utility.yul\":3334:3462   */\n    tag_104:\n        /* \"#utility.yul\":3285:3468   */\n      swap1\n      jump\t// out\n        /* \"#utility.yul\":3474:3576   */\n    tag_52:\n        /* \"#utility.yul\":3515:3521   */\n      0x00\n        /* \"#utility.yul\":3566:3568   */\n      0x1f\n        /* \"#utility.yul\":3562:3569   */\n      not\n        /* \"#utility.yul\":3557:3559   */\n      0x1f\n        /* \"#utility.yul\":3550:3555   */\n      dup4\n        /* \"#utility.yul\":3546:3560   */\n      add\n        /* \"#utility.yul\":3542:3570   */\n      and\n        /* \"#utility.yul\":3532:3570   */\n      swap1\n      pop\n        /* \"#utility.yul\":3474:3576   */\n      swap2\n      swap1\n      pop\n      jump\t// out\n        /* \"#utility.yul\":3582:3762   */\n    tag_53:\n        /* \"#utility.yul\":3630:3707   */\n      0x4e487b7100000000000000000000000000000000000000000000000000000000\n        /* \"#utility.yul\":3627:3628   */\n      0x00\n        /* \"#utility.yul\":3620:3708   */\n      mstore\n        /* \"#utility.yul\":3727:3731   */\n      0x41\n        /* \"#utility.yul\":3724:3725   */\n      0x04\n        /* \"#utility.yul\":3717:3732   */\n      mstore\n        /* \"#utility.yul\":3751:3755   */\n      0x24\n        /* \"#utility.yul\":3748:3749   */\n      0x00\n        /* \"#utility.yul\":3741:3756   */\n      revert\n        /* \"#utility.yul\":3768:4049   */\n    tag_54:\n        /* \"#utility.yul\":3851:3878   */\n      tag_109\n        /* \"#utility.yul\":3873:3877   */\n      dup3\n        /* \"#utility.yul\":3851:3878   */\n      tag_52\n      jump\t// in\n    tag_109:\n        /* \"#utility.yul\":3843:3849   */\n      dup2\n        /* \"#utility.yul\":3839:3879   */\n      add\n        /* \"#utility.yul\":3981:3987   */\n      dup2\n        /* \"#utility.yul\":3969:3979   */\n      dup2\n        /* \"#utility.yul\":3966:3988   */\n      lt\n        /* \"#utility.yul\":3945:3963   */\n      0xffffffffffffffff\n        /* \"#utility.yul\":3933:3943   */\n      dup3\n        /* \"#utility.yul\":3930:3964   */\n      gt\n        /* \"#utility.yul\":3927:3989   */\n      or\n        /* \"#utility.yul\":3924:4012   */\n      iszero\n      tag_110\n      jumpi\n        /* \"#utility.yul\":3992:4010   */\n      tag_111\n      tag_53\n      jump\t// in\n    tag_111:\n        /* \"#utility.yul\":3924:4012   */\n    tag_110:\n        /* \"#utility.yul\":4032:4042   */\n      dup1\n        /* \"#utility.yul\":4028:4030   */\n      0x40\n        /* \"#utility.yul\":4021:4043   */\n      mstore\n        /* \"#utility.yul\":3811:4049   */\n      pop\n        /* \"#utility.yul\":3768:4049   */\n      pop\n      pop\n      jump\t// out\n        /* \"#utility.yul\":4055:4766   */\n    tag_26:\n        /* \"#utility.yul\":4094:4097   */\n      0x00\n        /* \"#utility.yul\":4132:4136   */\n      0x44\n        /* \"#utility.yul\":4114:4130   */\n      returndatasize\n        /* \"#utility.yul\":4111:4137   */\n      lt\n        /* \"#utility.yul\":4140:4145   */\n      tag_112\n        /* \"#utility.yul\":4108:4147   */\n      jumpi\n        /* \"#utility.yul\":4169:4189   */\n      tag_114\n      tag_37\n      jump\t// in\n    tag_114:\n        /* \"#utility.yul\":4244:4245   */\n      0x04\n        /* \"#utility.yul\":4226:4242   */\n      returndatasize\n        /* \"#utility.yul\":4222:4246   */\n      sub\n        /* \"#utility.yul\":4219:4220   */\n      0x04\n        /* \"#utility.yul\":4213:4217   */\n      dup3\n        /* \"#utility.yul\":4198:4247   */\n      returndatacopy\n        /* \"#utility.yul\":4277:4281   */\n      dup1\n        /* \"#utility.yul\":4271:4282   */\n      mload\n        /* \"#utility.yul\":4376:4392   */\n      returndatasize\n        /* \"#utility.yul\":4369:4373   */\n      0x24\n        /* \"#utility.yul\":4361:4367   */\n      dup3\n        /* \"#utility.yul\":4357:4374   */\n      add\n        /* \"#utility.yul\":4354:4393   */\n      gt\n        /* \"#utility.yul\":4321:4339   */\n      0xffffffffffffffff\n        /* \"#utility.yul\":4313:4319   */\n      dup3\n        /* \"#utility.yul\":4310:4340   */\n      gt\n        /* \"#utility.yul\":4294:4407   */\n      or\n        /* \"#utility.yul\":4291:4437   */\n      iszero\n      tag_115\n      jumpi\n        /* \"#utility.yul\":4422:4427   */\n      pop\n      pop\n      jump(tag_112)\n        /* \"#utility.yul\":4291:4437   */\n    tag_115:\n        /* \"#utility.yul\":4468:4474   */\n      dup1\n        /* \"#utility.yul\":4462:4466   */\n      dup3\n        /* \"#utility.yul\":4458:4475   */\n      add\n        /* \"#utility.yul\":4504:4507   */\n      dup1\n        /* \"#utility.yul\":4498:4508   */\n      mload\n        /* \"#utility.yul\":4531:4549   */\n      0xffffffffffffffff\n        /* \"#utility.yul\":4523:4529   */\n      dup2\n        /* \"#utility.yul\":4520:4550   */\n      gt\n        /* \"#utility.yul\":4517:4560   */\n      iszero\n      tag_116\n      jumpi\n        /* \"#utility.yul\":4553:4558   */\n      pop\n      pop\n      pop\n      pop\n      jump(tag_112)\n        /* \"#utility.yul\":4517:4560   */\n    tag_116:\n        /* \"#utility.yul\":4601:4607   */\n      dup1\n        /* \"#utility.yul\":4594:4598   */\n      0x20\n        /* \"#utility.yul\":4589:4592   */\n      dup4\n        /* \"#utility.yul\":4585:4599   */\n      add\n        /* \"#utility.yul\":4581:4608   */\n      add\n        /* \"#utility.yul\":4660:4661   */\n      0x04\n        /* \"#utility.yul\":4642:4658   */\n      returndatasize\n        /* \"#utility.yul\":4638:4662   */\n      sub\n        /* \"#utility.yul\":4632:4636   */\n      dup6\n        /* \"#utility.yul\":4628:4663   */\n      add\n        /* \"#utility.yul\":4623:4626   */\n      dup2\n        /* \"#utility.yul\":4620:4664   */\n      gt\n        /* \"#utility.yul\":4617:4674   */\n      iszero\n      tag_117\n      jumpi\n        /* \"#utility.yul\":4667:4672   */\n      pop\n      pop\n      pop\n      pop\n      pop\n      jump(tag_112)\n        /* \"#utility.yul\":4617:4674   */\n    tag_117:\n        /* \"#utility.yul\":4684:4741   */\n      tag_118\n        /* \"#utility.yul\":4732:4738   */\n      dup3\n        /* \"#utility.yul\":4726:4730   */\n      0x20\n        /* \"#utility.yul\":4722:4739   */\n      add\n        /* \"#utility.yul\":4714:4720   */\n      dup6\n        /* \"#utility.yul\":4710:4740   */\n      add\n        /* \"#utility.yul\":4704:4708   */\n      dup7\n        /* \"#utility.yul\":4684:4741   */\n      tag_54\n      jump\t// in\n    tag_118:\n        /* \"#utility.yul\":4757:4760   */\n      dup3\n        /* \"#utility.yul\":4750:4760   */\n      swap6\n      pop\n        /* \"#utility.yul\":4098:4766   */\n      pop\n      pop\n      pop\n      pop\n      pop\n        /* \"#utility.yul\":4055:4766   */\n    tag_112:\n      swap1\n      jump\t// out\n        /* \"#utility.yul\":4772:4871   */\n    tag_55:\n        /* \"#utility.yul\":4824:4830   */\n      0x00\n        /* \"#utility.yul\":4858:4863   */\n      dup2\n        /* \"#utility.yul\":4852:4864   */\n      mload\n        /* \"#utility.yul\":4842:4864   */\n      swap1\n      pop\n        /* \"#utility.yul\":4772:4871   */\n      swap2\n      swap1\n      pop\n      jump\t// out\n        /* \"#utility.yul\":4877:5046   */\n    tag_56:\n        /* \"#utility.yul\":4961:4972   */\n      0x00\n        /* \"#utility.yul\":4995:5001   */\n      dup3\n        /* \"#utility.yul\":4990:4993   */\n      dup3\n        /* \"#utility.yul\":4983:5002   */\n      mstore\n        /* \"#utility.yul\":5035:5039   */\n      0x20\n        /* \"#utility.yul\":5030:5033   */\n      dup3\n        /* \"#utility.yul\":5026:5040   */\n      add\n        /* \"#utility.yul\":5011:5040   */\n      swap1\n      pop\n        /* \"#utility.yul\":4877:5046   */\n      swap3\n      swap2\n      pop\n      pop\n      jump\t// out\n        /* \"#utility.yul\":5052:5298   */\n    tag_57:\n        /* \"#utility.yul\":5133:5134   */\n      0x00\n        /* \"#utility.yul\":5143:5256   */\n    tag_122:\n        /* \"#utility.yul\":5157:5163   */\n      dup4\n        /* \"#utility.yul\":5154:5155   */\n      dup2\n        /* \"#utility.yul\":5151:5164   */\n      lt\n        /* \"#utility.yul\":5143:5256   */\n      iszero\n      tag_124\n      jumpi\n        /* \"#utility.yul\":5242:5243   */\n      dup1\n        /* \"#utility.yul\":5237:5240   */\n      dup3\n        /* \"#utility.yul\":5233:5244   */\n      add\n        /* \"#utility.yul\":5227:5245   */\n      mload\n        /* \"#utility.yul\":5223:5224   */\n      dup2\n        /* \"#utility.yul\":5218:5221   */\n      dup5\n        /* \"#utility.yul\":5214:5225   */\n      add\n        /* \"#utility.yul\":5207:5246   */\n      mstore\n        /* \"#utility.yul\":5179:5181   */\n      0x20\n        /* \"#utility.yul\":5176:5177   */\n      dup2\n        /* \"#utility.yul\":5172:5182   */\n      add\n        /* \"#utility.yul\":5167:5182   */\n      swap1\n      pop\n        /* \"#utility.yul\":5143:5256   */\n      jump(tag_122)\n    tag_124:\n        /* \"#utility.yul\":5290:5291   */\n      0x00\n        /* \"#utility.yul\":5281:5287   */\n      dup5\n        /* \"#utility.yul\":5276:5279   */\n      dup5\n        /* \"#utility.yul\":5272:5288   */\n      add\n        /* \"#utility.yul\":5265:5292   */\n      mstore\n        /* \"#utility.yul\":5114:5298   */\n      pop\n        /* \"#utility.yul\":5052:5298   */\n      pop\n      pop\n      pop\n      jump\t// out\n        /* \"#utility.yul\":5304:5681   */\n    tag_58:\n        /* \"#utility.yul\":5392:5395   */\n      0x00\n        /* \"#utility.yul\":5420:5459   */\n      tag_126\n        /* \"#utility.yul\":5453:5458   */\n      dup3\n        /* \"#utility.yul\":5420:5459   */\n      tag_55\n      jump\t// in\n    tag_126:\n        /* \"#utility.yul\":5475:5546   */\n      tag_127\n        /* \"#utility.yul\":5539:5545   */\n      dup2\n        /* \"#utility.yul\":5534:5537   */\n      dup6\n        /* \"#utility.yul\":5475:5546   */\n      tag_56\n      jump\t// in\n    tag_127:\n        /* \"#utility.yul\":5468:5546   */\n      swap4\n      pop\n        /* \"#utility.yul\":5555:5620   */\n      tag_128\n        /* \"#utility.yul\":5613:5619   */\n      dup2\n        /* \"#utility.yul\":5608:5611   */\n      dup6\n        /* \"#utility.yul\":5601:5605   */\n      0x20\n        /* \"#utility.yul\":5594:5599   */\n      dup7\n        /* \"#utility.yul\":5590:5606   */\n      add\n        /* \"#utility.yul\":5555:5620   */\n      tag_57\n      jump\t// in\n    tag_128:\n        /* \"#utility.yul\":5645:5674   */\n      tag_129\n        /* \"#utility.yul\":5667:5673   */\n      dup2\n        /* \"#utility.yul\":5645:5674   */\n      tag_52\n      jump\t// in\n    tag_129:\n        /* \"#utility.yul\":5640:5643   */\n      dup5\n        /* \"#utility.yul\":5636:5675   */\n      add\n        /* \"#utility.yul\":5629:5675   */\n      swap2\n      pop\n        /* \"#utility.yul\":5396:5681   */\n      pop\n        /* \"#utility.yul\":5304:5681   */\n      swap3\n      swap2\n      pop\n      pop\n      jump\t// out\n        /* \"#utility.yul\":5687:6000   */\n    tag_29:\n        /* \"#utility.yul\":5800:5804   */\n      0x00\n        /* \"#utility.yul\":5838:5840   */\n      0x20\n        /* \"#utility.yul\":5827:5836   */\n      dup3\n        /* \"#utility.yul\":5823:5841   */\n      add\n        /* \"#utility.yul\":5815:5841   */\n      swap1\n      pop\n        /* \"#utility.yul\":5887:5896   */\n      dup2\n        /* \"#utility.yul\":5881:5885   */\n      dup2\n        /* \"#utility.yul\":5877:5897   */\n      sub\n        /* \"#utility.yul\":5873:5874   */\n      0x00\n        /* \"#utility.yul\":5862:5871   */\n      dup4\n        /* \"#utility.yul\":5858:5875   */\n      add\n        /* \"#utility.yul\":5851:5898   */\n      mstore\n        /* \"#utility.yul\":5915:5993   */\n      tag_131\n        /* \"#utility.yul\":5988:5992   */\n      dup2\n        /* \"#utility.yul\":5979:5985   */\n      dup5\n        /* \"#utility.yul\":5915:5993   */\n      tag_58\n      jump\t// in\n    tag_131:\n        /* \"#utility.yul\":5907:5993   */\n      swap1\n      pop\n        /* \"#utility.yul\":5687:6000   */\n      swap3\n      swap2\n      pop\n      pop\n      jump\t// out\n        /* \"#utility.yul\":6006:6104   */\n    tag_59:\n        /* \"#utility.yul\":6057:6063   */\n      0x00\n        /* \"#utility.yul\":6091:6096   */\n      dup2\n        /* \"#utility.yul\":6085:6097   */\n      mload\n        /* \"#utility.yul\":6075:6097   */\n      swap1\n      pop\n        /* \"#utility.yul\":6006:6104   */\n      swap2\n      swap1\n      pop\n      jump\t// out\n        /* \"#utility.yul\":6110:6278   */\n    tag_60:\n        /* \"#utility.yul\":6193:6204   */\n      0x00\n        /* \"#utility.yul\":6227:6233   */\n      dup3\n        /* \"#utility.yul\":6222:6225   */\n      dup3\n        /* \"#utility.yul\":6215:6234   */\n      mstore\n        /* \"#utility.yul\":6267:6271   */\n      0x20\n        /* \"#utility.yul\":6262:6265   */\n      dup3\n        /* \"#utility.yul\":6258:6272   */\n      add\n        /* \"#utility.yul\":6243:6272   */\n      swap1\n      pop\n        /* \"#utility.yul\":6110:6278   */\n      swap3\n      swap2\n      pop\n      pop\n      jump\t// out\n        /* \"#utility.yul\":6284:6657   */\n    tag_61:\n        /* \"#utility.yul\":6370:6373   */\n      0x00\n        /* \"#utility.yul\":6398:6436   */\n      tag_135\n        /* \"#utility.yul\":6430:6435   */\n      dup3\n        /* \"#utility.yul\":6398:6436   */\n      tag_59\n      jump\t// in\n    tag_135:\n        /* \"#utility.yul\":6452:6522   */\n      tag_136\n        /* \"#utility.yul\":6515:6521   */\n      dup2\n        /* \"#utility.yul\":6510:6513   */\n      dup6\n        /* \"#utility.yul\":6452:6522   */\n      tag_60\n      jump\t// in\n    tag_136:\n        /* \"#utility.yul\":6445:6522   */\n      swap4\n      pop\n        /* \"#utility.yul\":6531:6596   */\n      tag_137\n        /* \"#utility.yul\":6589:6595   */\n      dup2\n        /* \"#utility.yul\":6584:6587   */\n      dup6\n        /* \"#utility.yul\":6577:6581   */\n      0x20\n        /* \"#utility.yul\":6570:6575   */\n      dup7\n        /* \"#utility.yul\":6566:6582   */\n      add\n        /* \"#utility.yul\":6531:6596   */\n      tag_57\n      jump\t// in\n    tag_137:\n        /* \"#utility.yul\":6621:6650   */\n      tag_138\n        /* \"#utility.yul\":6643:6649   */\n      dup2\n        /* \"#utility.yul\":6621:6650   */\n      tag_52\n      jump\t// in\n    tag_138:\n        /* \"#utility.yul\":6616:6619   */\n      dup5\n        /* \"#utility.yul\":6612:6651   */\n      add\n        /* \"#utility.yul\":6605:6651   */\n      swap2\n      pop\n        /* \"#utility.yul\":6374:6657   */\n      pop\n        /* \"#utility.yul\":6284:6657   */\n      swap3\n      swap2\n      pop\n      pop\n      jump\t// out\n        /* \"#utility.yul\":6663:6972   */\n    tag_33:\n        /* \"#utility.yul\":6774:6778   */\n      0x00\n        /* \"#utility.yul\":6812:6814   */\n      0x20\n        /* \"#utility.yul\":6801:6810   */\n      dup3\n        /* \"#utility.yul\":6797:6815   */\n      add\n        /* \"#utility.yul\":6789:6815   */\n      swap1\n      pop\n        /* \"#utility.yul\":6861:6870   */\n      dup2\n        /* \"#utility.yul\":6855:6859   */\n      dup2\n        /* \"#utility.yul\":6851:6871   */\n      sub\n        /* \"#utility.yul\":6847:6848   */\n      0x00\n        /* \"#utility.yul\":6836:6845   */\n      dup4\n        /* \"#utility.yul\":6832:6849   */\n      add\n        /* \"#utility.yul\":6825:6872   */\n      mstore\n        /* \"#utility.yul\":6889:6965   */\n      tag_140\n        /* \"#utility.yul\":6960:6964   */\n      dup2\n        /* \"#utility.yul\":6951:6957   */\n      dup5\n        /* \"#utility.yul\":6889:6965   */\n      tag_61\n      jump\t// in\n    tag_140:\n        /* \"#utility.yul\":6881:6965   */\n      swap1\n      pop\n        /* \"#utility.yul\":6663:6972   */\n      swap3\n      swap2\n      pop\n      pop\n      jump\t// out\n        /* \"#utility.yul\":6978:7200   */\n    tag_36:\n        /* \"#utility.yul\":7071:7075   */\n      0x00\n        /* \"#utility.yul\":7109:7111   */\n      0x20\n        /* \"#utility.yul\":7098:7107   */\n      dup3\n        /* \"#utility.yul\":7094:7112   */\n      add\n        /* \"#utility.yul\":7086:7112   */\n      swap1\n      pop\n        /* \"#utility.yul\":7122:7193   */\n      tag_142\n        /* \"#utility.yul\":7190:7191   */\n      0x00\n        /* \"#utility.yul\":7179:7188   */\n      dup4\n        /* \"#utility.yul\":7175:7192   */\n      add\n        /* \"#utility.yul\":7166:7172   */\n      dup5\n        /* \"#utility.yul\":7122:7193   */\n      tag_49\n      jump\t// in\n    tag_142:\n        /* \"#utility.yul\":6978:7200   */\n      swap3\n      swap2\n      pop\n      pop\n      jump\t// out\n\n    auxdata: 0xa2646970667358221220247aad9305f3ca4acbb8c35adf29215ce69bb0a58c739373127ee176c2c7155764736f6c63430008120033\n}\n",
				"bytecode": {
					"linkReferences": {},
					"object": "608060405234801561001057600080fd5b50610677806100206000396000f3fe608060405234801561001057600080fd5b50600436106100365760003560e01c80633fd322571461003b578063f9fa48c314610057575b600080fd5b6100556004803603810190610050919061028a565b610075565b005b61005f610221565b60405161006c9190610349565b60405180910390f35b60008054906101000a900473ffffffffffffffffffffffffffffffffffffffff1673ffffffffffffffffffffffffffffffffffffffff1663f88e9fbf83836040518363ffffffff1660e01b81526004016100d0929190610373565b602060405180830381865afa92505050801561010a57506040513d601f19601f8201168201806040525081019061010791906103b1565b60015b6101e4576101166103eb565b806308c379a003610172575061012a61047e565b806101355750610174565b7f6d0daf83c3a38f2fe33a4861490a8fe4cab88346a8ec28ff62af066611392cbb81604051610164919061058d565b60405180910390a1506101df565b505b3d80600081146101a0576040519150601f19603f3d011682016040523d82523d6000602084013e6101a5565b606091505b507fb6f66868478aebcea8c7a15c8c7dd37a513a4127424642ee3573117b52fa3e39816040516101d59190610604565b60405180910390a1505b61021d565b7fc51486e2bea95298ff1f7a8e07be54c6624c5c7dc738d5f7b8b872559202b755816040516102139190610626565b60405180910390a1505b5050565b60008054906101000a900473ffffffffffffffffffffffffffffffffffffffff1681565b6000604051905090565b600080fd5b6000819050919050565b61026781610254565b811461027257600080fd5b50565b6000813590506102848161025e565b92915050565b600080604083850312156102a1576102a061024f565b5b60006102af85828601610275565b92505060206102c085828601610275565b9150509250929050565b600073ffffffffffffffffffffffffffffffffffffffff82169050919050565b6000819050919050565b600061030f61030a610305846102ca565b6102ea565b6102ca565b9050919050565b6000610321826102f4565b9050919050565b600061033382610316565b9050919050565b61034381610328565b82525050565b600060208201905061035e600083018461033a565b92915050565b61036d81610254565b82525050565b60006040820190506103886000830185610364565b6103956020830184610364565b9392505050565b6000815190506103ab8161025e565b92915050565b6000602082840312156103c7576103c661024f565b5b60006103d58482850161039c565b91505092915050565b60008160e01c9050919050565b600060033d111561040a5760046000803e6104076000516103de565b90505b90565b6000601f19601f8301169050919050565b7f4e487b7100000000000000000000000000000000000000000000000000000000600052604160045260246000fd5b6104568261040d565b810181811067ffffffffffffffff821117156104755761047461041e565b5b80604052505050565b600060443d1061050b57610490610245565b60043d036004823e80513d602482011167ffffffffffffffff821117156104b857505061050b565b808201805167ffffffffffffffff8111156104d6575050505061050b565b80602083010160043d0385018111156104f357505050505061050b565b6105028260200185018661044d565b82955050505050505b90565b600081519050919050565b600082825260208201905092915050565b60005b8381101561054857808201518184015260208101905061052d565b60008484015250505050565b600061055f8261050e565b6105698185610519565b935061057981856020860161052a565b6105828161040d565b840191505092915050565b600060208201905081810360008301526105a78184610554565b905092915050565b600081519050919050565b600082825260208201905092915050565b60006105d6826105af565b6105e081856105ba565b93506105f081856020860161052a565b6105f98161040d565b840191505092915050565b6000602082019050818103600083015261061e81846105cb565b905092915050565b600060208201905061063b6000830184610364565b9291505056fea2646970667358221220247aad9305f3ca4acbb8c35adf29215ce69bb0a58c739373127ee176c2c7155764736f6c63430008120033",
					"opcodes": "PUSH1 0x80 PUSH1 0x40 MSTORE CALLVALUE DUP1 ISZERO PUSH2 0x10 JUMPI PUSH1 0x0 DUP1 REVERT JUMPDEST POP PUSH2 0x677 DUP1 PUSH2 0x20 PUSH1 0x0 CODECOPY PUSH1 0x0 RETURN INVALID PUSH1 0x80 PUSH1 0x40 MSTORE CALLVALUE DUP1 ISZERO PUSH2 0x10 JUMPI PUSH1 0x0 DUP1 REVERT JUMPDEST POP PUSH1 0x4 CALLDATASIZE LT PUSH2 0x36 JUMPI PUSH1 0x0 CALLDATALOAD PUSH1 0xE0 SHR DUP1 PUSH4 0x3FD32257 EQ PUSH2 0x3B JUMPI DUP1 PUSH4 0xF9FA48C3 EQ PUSH2 0x57 JUMPI JUMPDEST PUSH1 0x0 DUP1 REVERT JUMPDEST PUSH2 0x55 PUSH1 0x4 DUP1 CALLDATASIZE SUB DUP2 ADD SWAP1 PUSH2 0x50 SWAP2 SWAP1 PUSH2 0x28A JUMP JUMPDEST PUSH2 0x75 JUMP JUMPDEST STOP JUMPDEST PUSH2 0x5F PUSH2 0x221 JUMP JUMPDEST PUSH1 0x40 MLOAD PUSH2 0x6C SWAP2 SWAP1 PUSH2 0x349 JUMP JUMPDEST PUSH1 0x40 MLOAD DUP1 SWAP2 SUB SWAP1 RETURN JUMPDEST PUSH1 0x0 DUP1 SLOAD SWAP1 PUSH2 0x100 EXP SWAP1 DIV PUSH20 0xFFFFFFFFFFFFFFFFFFFFFFFFFFFFFFFFFFFFFFFF AND PUSH20 0xFFFFFFFFFFFFFFFFFFFFFFFFFFFFFFFFFFFFFFFF AND PUSH4 0xF88E9FBF DUP4 DUP4 PUSH1 0x40 MLOAD DUP4 PUSH4 0xFFFFFFFF AND PUSH1 0xE0 SHL DUP2 MSTORE PUSH1 0x4 ADD PUSH2 0xD0 SWAP3 SWAP2 SWAP1 PUSH2 0x373 JUMP JUMPDEST PUSH1 0x20 PUSH1 0x40 MLOAD DUP1 DUP4 SUB DUP2 DUP7 GAS STATICCALL SWAP3 POP POP POP DUP1 ISZERO PUSH2 0x10A JUMPI POP PUSH1 0x40 MLOAD RETURNDATASIZE PUSH1 0x1F NOT PUSH1 0x1F DUP3 ADD AND DUP3 ADD DUP1 PUSH1 0x40 MSTORE POP DUP2 ADD SWAP1 PUSH2 0x107 SWAP2 SWAP1 PUSH2 0x3B1 JUMP JUMPDEST PUSH1 0x1 JUMPDEST PUSH2 0x1E4 JUMPI PUSH2 0x116 PUSH2 0x3EB JUMP JUMPDEST DUP1 PUSH4 0x8C379A0 SUB PUSH2 0x172 JUMPI POP PUSH2 0x12A PUSH2 0x47E JUMP JUMPDEST DUP1 PUSH2 0x135 JUMPI POP PUSH2 0x174 JUMP JUMPDEST PUSH32 0x6D0DAF83C3A38F2FE33A4861490A8FE4CAB88346A8EC28FF62AF066611392CBB DUP2 PUSH1 0x40 MLOAD PUSH2 0x164 SWAP2 SWAP1 PUSH2 0x58D JUMP JUMPDEST PUSH1 0x40 MLOAD DUP1 SWAP2 SUB SWAP1 LOG1 POP PUSH2 0x1DF JUMP JUMPDEST POP JUMPDEST RETURNDATASIZE DUP1 PUSH1 0x0 DUP2 EQ PUSH2 0x1A0 JUMPI PUSH1 0x40 MLOAD SWAP2 POP PUSH1 0x1F NOT PUSH1 0x3F RETURNDATASIZE ADD AND DUP3 ADD PUSH1 0x40 MSTORE RETURNDATASIZE DUP3 MSTORE RETURNDATASIZE PUSH1 0x0 PUSH1 0x20 DUP5 ADD RETURNDATACOPY PUSH2 0x1A5 JUMP JUMPDEST PUSH1 0x60 SWAP2 POP JUMPDEST POP PUSH32 0xB6F66868478AEBCEA8C7A15C8C7DD37A513A4127424642EE3573117B52FA3E39 DUP2 PUSH1 0x40 MLOAD PUSH2 0x1D5 SWAP2 SWAP1 PUSH2 0x604 JUMP JUMPDEST PUSH1 0x40 MLOAD DUP1 SWAP2 SUB SWAP1 LOG1 POP JUMPDEST PUSH2 0x21D JUMP JUMPDEST PUSH32 0xC51486E2BEA95298FF1F7A8E07BE54C6624C5C7DC738D5F7B8B872559202B755 DUP2 PUSH1 0x40 MLOAD PUSH2 0x213 SWAP2 SWAP1 PUSH2 0x626 JUMP JUMPDEST PUSH1 0x40 MLOAD DUP1 SWAP2 SUB SWAP1 LOG1 POP JUMPDEST POP POP JUMP JUMPDEST PUSH1 0x0 DUP1 SLOAD SWAP1 PUSH2 0x100 EXP SWAP1 DIV PUSH20 0xFFFFFFFFFFFFFFFFFFFFFFFFFFFFFFFFFFFFFFFF AND DUP2 JUMP JUMPDEST PUSH1 0x0 PUSH1 0x40 MLOAD SWAP1 POP SWAP1 JUMP JUMPDEST PUSH1 0x0 DUP1 REVERT JUMPDEST PUSH1 0x0 DUP2 SWAP1 POP SWAP2 SWAP1 POP JUMP JUMPDEST PUSH2 0x267 DUP2 PUSH2 0x254 JUMP JUMPDEST DUP2 EQ PUSH2 0x272 JUMPI PUSH1 0x0 DUP1 REVERT JUMPDEST POP JUMP JUMPDEST PUSH1 0x0 DUP2 CALLDATALOAD SWAP1 POP PUSH2 0x284 DUP2 PUSH2 0x25E JUMP JUMPDEST SWAP3 SWAP2 POP POP JUMP JUMPDEST PUSH1 0x0 DUP1 PUSH1 0x40 DUP4 DUP6 SUB SLT ISZERO PUSH2 0x2A1 JUMPI PUSH2 0x2A0 PUSH2 0x24F JUMP JUMPDEST JUMPDEST PUSH1 0x0 PUSH2 0x2AF DUP6 DUP3 DUP7 ADD PUSH2 0x275 JUMP JUMPDEST SWAP3 POP POP PUSH1 0x20 PUSH2 0x2C0 DUP6 DUP3 DUP7 ADD PUSH2 0x275 JUMP JUMPDEST SWAP2 POP POP SWAP3 POP SWAP3 SWAP1 POP JUMP JUMPDEST PUSH1 0x0 PUSH20 0xFFFFFFFFFFFFFFFFFFFFFFFFFFFFFFFFFFFFFFFF DUP3 AND SWAP1 POP SWAP2 SWAP1 POP JUMP JUMPDEST PUSH1 0x0 DUP2 SWAP1 POP SWAP2 SWAP1 POP JUMP JUMPDEST PUSH1 0x0 PUSH2 0x30F PUSH2 0x30A PUSH2 0x305 DUP5 PUSH2 0x2CA JUMP JUMPDEST PUSH2 0x2EA JUMP JUMPDEST PUSH2 0x2CA JUMP JUMPDEST SWAP1 POP SWAP2 SWAP1 POP JUMP JUMPDEST PUSH1 0x0 PUSH2 0x321 DUP3 PUSH2 0x2F4 JUMP JUMPDEST SWAP1 POP SWAP2 SWAP1 POP JUMP JUMPDEST PUSH1 0x0 PUSH2 0x333 DUP3 PUSH2 0x316 JUMP JUMPDEST SWAP1 POP SWAP2 SWAP1 POP JUMP JUMPDEST PUSH2 0x343 DUP2 PUSH2 0x328 JUMP JUMPDEST DUP3 MSTORE POP POP JUMP JUMPDEST PUSH1 0x0 PUSH1 0x20 DUP3 ADD SWAP1 POP PUSH2 0x35E PUSH1 0x0 DUP4 ADD DUP5 PUSH2 0x33A JUMP JUMPDEST SWAP3 SWAP2 POP POP JUMP JUMPDEST PUSH2 0x36D DUP2 PUSH2 0x254 JUMP JUMPDEST DUP3 MSTORE POP POP JUMP JUMPDEST PUSH1 0x0 PUSH1 0x40 DUP3 ADD SWAP1 POP PUSH2 0x388 PUSH1 0x0 DUP4 ADD DUP6 PUSH2 0x364 JUMP JUMPDEST PUSH2 0x395 PUSH1 0x20 DUP4 ADD DUP5 PUSH2 0x364 JUMP JUMPDEST SWAP4 SWAP3 POP POP POP JUMP JUMPDEST PUSH1 0x0 DUP2 MLOAD SWAP1 POP PUSH2 0x3AB DUP2 PUSH2 0x25E JUMP JUMPDEST SWAP3 SWAP2 POP POP JUMP JUMPDEST PUSH1 0x0 PUSH1 0x20 DUP3 DUP5 SUB SLT ISZERO PUSH2 0x3C7 JUMPI PUSH2 0x3C6 PUSH2 0x24F JUMP JUMPDEST JUMPDEST PUSH1 0x0 PUSH2 0x3D5 DUP5 DUP3 DUP6 ADD PUSH2 0x39C JUMP JUMPDEST SWAP2 POP POP SWAP3 SWAP2 POP POP JUMP JUMPDEST PUSH1 0x0 DUP2 PUSH1 0xE0 SHR SWAP1 POP SWAP2 SWAP1 POP JUMP JUMPDEST PUSH1 0x0 PUSH1 0x3 RETURNDATASIZE GT ISZERO PUSH2 0x40A JUMPI PUSH1 0x4 PUSH1 0x0 DUP1 RETURNDATACOPY PUSH2 0x407 PUSH1 0x0 MLOAD PUSH2 0x3DE JUMP JUMPDEST SWAP1 POP JUMPDEST SWAP1 JUMP JUMPDEST PUSH1 0x0 PUSH1 0x1F NOT PUSH1 0x1F DUP4 ADD AND SWAP1 POP SWAP2 SWAP1 POP JUMP JUMPDEST PUSH32 0x4E487B7100000000000000000000000000000000000000000000000000000000 PUSH1 0x0 MSTORE PUSH1 0x41 PUSH1 0x4 MSTORE PUSH1 0x24 PUSH1 0x0 REVERT JUMPDEST PUSH2 0x456 DUP3 PUSH2 0x40D JUMP JUMPDEST DUP2 ADD DUP2 DUP2 LT PUSH8 0xFFFFFFFFFFFFFFFF DUP3 GT OR ISZERO PUSH2 0x475 JUMPI PUSH2 0x474 PUSH2 0x41E JUMP JUMPDEST JUMPDEST DUP1 PUSH1 0x40 MSTORE POP POP POP JUMP JUMPDEST PUSH1 0x0 PUSH1 0x44 RETURNDATASIZE LT PUSH2 0x50B JUMPI PUSH2 0x490 PUSH2 0x245 JUMP JUMPDEST PUSH1 0x4 RETURNDATASIZE SUB PUSH1 0x4 DUP3 RETURNDATACOPY DUP1 MLOAD RETURNDATASIZE PUSH1 0x24 DUP3 ADD GT PUSH8 0xFFFFFFFFFFFFFFFF DUP3 GT OR ISZERO PUSH2 0x4B8 JUMPI POP POP PUSH2 0x50B JUMP JUMPDEST DUP1 DUP3 ADD DUP1 MLOAD PUSH8 0xFFFFFFFFFFFFFFFF DUP2 GT ISZERO PUSH2 0x4D6 JUMPI POP POP POP POP PUSH2 0x50B JUMP JUMPDEST DUP1 PUSH1 0x20 DUP4 ADD ADD PUSH1 0x4 RETURNDATASIZE SUB DUP6 ADD DUP2 GT ISZERO PUSH2 0x4F3 JUMPI POP POP POP POP POP PUSH2 0x50B JUMP JUMPDEST PUSH2 0x502 DUP3 PUSH1 0x20 ADD DUP6 ADD DUP7 PUSH2 0x44D JUMP JUMPDEST DUP3 SWAP6 POP POP POP POP POP POP JUMPDEST SWAP1 JUMP JUMPDEST PUSH1 0x0 DUP2 MLOAD SWAP1 POP SWAP2 SWAP1 POP JUMP JUMPDEST PUSH1 0x0 DUP3 DUP3 MSTORE PUSH1 0x20 DUP3 ADD SWAP1 POP SWAP3 SWAP2 POP POP JUMP JUMPDEST PUSH1 0x0 JUMPDEST DUP4 DUP2 LT ISZERO PUSH2 0x548 JUMPI DUP1 DUP3 ADD MLOAD DUP2 DUP5 ADD MSTORE PUSH1 0x20 DUP2 ADD SWAP1 POP PUSH2 0x52D JUMP JUMPDEST PUSH1 0x0 DUP5 DUP5 ADD MSTORE POP POP POP POP JUMP JUMPDEST PUSH1 0x0 PUSH2 0x55F DUP3 PUSH2 0x50E JUMP JUMPDEST PUSH2 0x569 DUP2 DUP6 PUSH2 0x519 JUMP JUMPDEST SWAP4 POP PUSH2 0x579 DUP2 DUP6 PUSH1 0x20 DUP7 ADD PUSH2 0x52A JUMP JUMPDEST PUSH2 0x582 DUP2 PUSH2 0x40D JUMP JUMPDEST DUP5 ADD SWAP2 POP POP SWAP3 SWAP2 POP POP JUMP JUMPDEST PUSH1 0x0 PUSH1 0x20 DUP3 ADD SWAP1 POP DUP2 DUP2 SUB PUSH1 0x0 DUP4 ADD MSTORE PUSH2 0x5A7 DUP2 DUP5 PUSH2 0x554 JUMP JUMPDEST SWAP1 POP SWAP3 SWAP2 POP POP JUMP JUMPDEST PUSH1 0x0 DUP2 MLOAD SWAP1 POP SWAP2 SWAP1 POP JUMP JUMPDEST PUSH1 0x0 DUP3 DUP3 MSTORE PUSH1 0x20 DUP3 ADD SWAP1 POP SWAP3 SWAP2 POP POP JUMP JUMPDEST PUSH1 0x0 PUSH2 0x5D6 DUP3 PUSH2 0x5AF JUMP JUMPDEST PUSH2 0x5E0 DUP2 DUP6 PUSH2 0x5BA JUMP JUMPDEST SWAP4 POP PUSH2 0x5F0 DUP2 DUP6 PUSH1 0x20 DUP7 ADD PUSH2 0x52A JUMP JUMPDEST PUSH2 0x5F9 DUP2 PUSH2 0x40D JUMP JUMPDEST DUP5 ADD SWAP2 POP POP SWAP3 SWAP2 POP POP JUMP JUMPDEST PUSH1 0x0 PUSH1 0x20 DUP3 ADD SWAP1 POP DUP2 DUP2 SUB PUSH1 0x0 DUP4 ADD MSTORE PUSH2 0x61E DUP2 DUP5 PUSH2 0x5CB JUMP JUMPDEST SWAP1 POP SWAP3 SWAP2 POP POP JUMP JUMPDEST PUSH1 0x0 PUSH1 0x20 DUP3 ADD SWAP1 POP PUSH2 0x63B PUSH1 0x0 DUP4 ADD DUP5 PUSH2 0x364 JUMP JUMPDEST SWAP3 SWAP2 POP POP JUMP INVALID LOG2 PUSH5 0x6970667358 0x22 SLT KECCAK256 0x24 PUSH27 0xAD9305F3CA4ACBB8C35ADF29215CE69BB0A58C739373127EE176C2 0xC7 ISZERO JUMPI PUSH5 0x736F6C6343 STOP ADDMOD SLT STOP CALLER "
				},
				"gasEstimates": {
					"creation": {
						"codeDepositCost": "331000",
						"executionCost": "368",
						"totalCost": "331368"
					},
					"external": {
						"calldivide(uint256,uint256)": "infinite",
						"div()": "infinite"
					}
				},
				"methodIdentifiers": {
					"calldivide(uint256,uint256)": "3fd32257",
					"div()": "f9fa48c3"
				}
			},
			"storageLayout": {
				"storage": [
					{
						"astId": 243,
						"contract": "Labs (August)/try_catch_library/try_catch.sol:Try",
						"label": "div",
						"offset": 0,
						"slot": "0",
						"type": "t_contract(SDiv)240"
					}
				],
				"types": {
					"t_contract(SDiv)240": {
						"encoding": "inplace",
						"label": "contract SDiv",
						"numberOfBytes": "20"
					}
				}
			},
			"userdoc": {
				"kind": "user",
				"methods": {},
				"version": 1
			}
		}
	}
}