{
	"Labs (August)/try_catch_library/library.sol": {
		"Explibrary": {
			"abi": [
				{
					"inputs": [
						{
							"internalType": "uint256",
							"name": "a",
							"type": "uint256"
						},
						{
							"internalType": "uint256",
							"name": "b",
							"type": "uint256"
						}
					],
					"name": "exponential",
					"outputs": [
						{
							"internalType": "uint256",
							"name": "",
							"type": "uint256"
						}
					],
					"stateMutability": "pure",
					"type": "function"
				}
			],
			"devdoc": {
				"kind": "dev",
				"methods": {},
				"version": 1
			},
			"evm": {
				"assembly": "    /* \"Labs (August)/try_catch_library/library.sol\":87:238  library Explibrary {... */\n  dataSize(sub_0)\n  dataOffset(sub_0)\n  0x0b\n  dup3\n  dup3\n  dup3\n  codecopy\n  dup1\n  mload\n  0x00\n  byte\n  0x73\n  eq\n  tag_1\n  jumpi\n  mstore(0x00, 0x4e487b7100000000000000000000000000000000000000000000000000000000)\n  mstore(0x04, 0x00)\n  revert(0x00, 0x24)\ntag_1:\n  mstore(0x00, address)\n  0x73\n  dup2\n  mstore8\n  dup3\n  dup2\n  return\nstop\n\nsub_0: assembly {\n        /* \"Labs (August)/try_catch_library/library.sol\":87:238  library Explibrary {... */\n      eq(address, deployTimeAddress())\n      mstore(0x40, 0x80)\n      jumpi(tag_1, lt(calldatasize, 0x04))\n      shr(0xe0, calldataload(0x00))\n      dup1\n      0xd9b5b5ca\n      eq\n      tag_2\n      jumpi\n    tag_1:\n      0x00\n      dup1\n      revert\n        /* \"Labs (August)/try_catch_library/library.sol\":119:235  function exponential( uint256 a, uint256 b) public pure returns... */\n    tag_2:\n      tag_3\n      0x04\n      dup1\n      calldatasize\n      sub\n      dup2\n      add\n      swap1\n      tag_4\n      swap2\n      swap1\n      tag_5\n      jump\t// in\n    tag_4:\n      tag_6\n      jump\t// in\n    tag_3:\n      mload(0x40)\n      tag_7\n      swap2\n      swap1\n      tag_8\n      jump\t// in\n    tag_7:\n      mload(0x40)\n      dup1\n      swap2\n      sub\n      swap1\n      return\n    tag_6:\n        /* \"Labs (August)/try_catch_library/library.sol\":193:200  uint256 */\n      0x00\n        /* \"Labs (August)/try_catch_library/library.sol\":225:226  b */\n      dup2\n        /* \"Labs (August)/try_catch_library/library.sol\":220:221  a */\n      dup4\n        /* \"Labs (August)/try_catch_library/library.sol\":220:226  a ** b */\n      tag_10\n      swap2\n      swap1\n      tag_11\n      jump\t// in\n    tag_10:\n        /* \"Labs (August)/try_catch_library/library.sol\":213:226  return a ** b */\n      swap1\n      pop\n        /* \"Labs (August)/try_catch_library/library.sol\":119:235  function exponential( uint256 a, uint256 b) public pure returns... */\n      swap3\n      swap2\n      pop\n      pop\n      jump\t// out\n        /* \"#utility.yul\":88:205   */\n    tag_13:\n        /* \"#utility.yul\":197:198   */\n      0x00\n        /* \"#utility.yul\":194:195   */\n      dup1\n        /* \"#utility.yul\":187:199   */\n      revert\n        /* \"#utility.yul\":334:411   */\n    tag_15:\n        /* \"#utility.yul\":371:378   */\n      0x00\n        /* \"#utility.yul\":400:405   */\n      dup2\n        /* \"#utility.yul\":389:405   */\n      swap1\n      pop\n        /* \"#utility.yul\":334:411   */\n      swap2\n      swap1\n      pop\n      jump\t// out\n        /* \"#utility.yul\":417:539   */\n    tag_16:\n        /* \"#utility.yul\":490:514   */\n      tag_29\n        /* \"#utility.yul\":508:513   */\n      dup2\n        /* \"#utility.yul\":490:514   */\n      tag_15\n      jump\t// in\n    tag_29:\n        /* \"#utility.yul\":483:488   */\n      dup2\n        /* \"#utility.yul\":480:515   */\n      eq\n        /* \"#utility.yul\":470:533   */\n      tag_30\n      jumpi\n        /* \"#utility.yul\":529:530   */\n      0x00\n        /* \"#utility.yul\":526:527   */\n      dup1\n        /* \"#utility.yul\":519:531   */\n      revert\n        /* \"#utility.yul\":470:533   */\n    tag_30:\n        /* \"#utility.yul\":417:539   */\n      pop\n      jump\t// out\n        /* \"#utility.yul\":545:684   */\n    tag_17:\n        /* \"#utility.yul\":591:596   */\n      0x00\n        /* \"#utility.yul\":629:635   */\n      dup2\n        /* \"#utility.yul\":616:636   */\n      calldataload\n        /* \"#utility.yul\":607:636   */\n      swap1\n      pop\n        /* \"#utility.yul\":645:678   */\n      tag_32\n        /* \"#utility.yul\":672:677   */\n      dup2\n        /* \"#utility.yul\":645:678   */\n      tag_16\n      jump\t// in\n    tag_32:\n        /* \"#utility.yul\":545:684   */\n      swap3\n      swap2\n      pop\n      pop\n      jump\t// out\n        /* \"#utility.yul\":690:1164   */\n    tag_5:\n        /* \"#utility.yul\":758:764   */\n      0x00\n        /* \"#utility.yul\":766:772   */\n      dup1\n        /* \"#utility.yul\":815:817   */\n      0x40\n        /* \"#utility.yul\":803:812   */\n      dup4\n        /* \"#utility.yul\":794:801   */\n      dup6\n        /* \"#utility.yul\":790:813   */\n      sub\n        /* \"#utility.yul\":786:818   */\n      slt\n        /* \"#utility.yul\":783:902   */\n      iszero\n      tag_34\n      jumpi\n        /* \"#utility.yul\":821:900   */\n      tag_35\n      tag_13\n      jump\t// in\n    tag_35:\n        /* \"#utility.yul\":783:902   */\n    tag_34:\n        /* \"#utility.yul\":941:942   */\n      0x00\n        /* \"#utility.yul\":966:1019   */\n      tag_36\n        /* \"#utility.yul\":1011:1018   */\n      dup6\n        /* \"#utility.yul\":1002:1008   */\n      dup3\n        /* \"#utility.yul\":991:1000   */\n      dup7\n        /* \"#utility.yul\":987:1009   */\n      add\n        /* \"#utility.yul\":966:1019   */\n      tag_17\n      jump\t// in\n    tag_36:\n        /* \"#utility.yul\":956:1019   */\n      swap3\n      pop\n        /* \"#utility.yul\":912:1029   */\n      pop\n        /* \"#utility.yul\":1068:1070   */\n      0x20\n        /* \"#utility.yul\":1094:1147   */\n      tag_37\n        /* \"#utility.yul\":1139:1146   */\n      dup6\n        /* \"#utility.yul\":1130:1136   */\n      dup3\n        /* \"#utility.yul\":1119:1128   */\n      dup7\n        /* \"#utility.yul\":1115:1137   */\n      add\n        /* \"#utility.yul\":1094:1147   */\n      tag_17\n      jump\t// in\n    tag_37:\n        /* \"#utility.yul\":1084:1147   */\n      swap2\n      pop\n        /* \"#utility.yul\":1039:1157   */\n      pop\n        /* \"#utility.yul\":690:1164   */\n      swap3\n      pop\n      swap3\n      swap1\n      pop\n      jump\t// out\n        /* \"#utility.yul\":1170:1296   */\n    tag_18:\n        /* \"#utility.yul\":1265:1289   */\n      tag_39\n        /* \"#utility.yul\":1283:1288   */\n      dup2\n        /* \"#utility.yul\":1265:1289   */\n      tag_15\n      jump\t// in\n    tag_39:\n        /* \"#utility.yul\":1260:1263   */\n      dup3\n        /* \"#utility.yul\":1253:1290   */\n      mstore\n        /* \"#utility.yul\":1170:1296   */\n      pop\n      pop\n      jump\t// out\n        /* \"#utility.yul\":1302:1540   */\n    tag_8:\n        /* \"#utility.yul\":1403:1407   */\n      0x00\n        /* \"#utility.yul\":1441:1443   */\n      0x20\n        /* \"#utility.yul\":1430:1439   */\n      dup3\n        /* \"#utility.yul\":1426:1444   */\n      add\n        /* \"#utility.yul\":1418:1444   */\n      swap1\n      pop\n        /* \"#utility.yul\":1454:1533   */\n      tag_41\n        /* \"#utility.yul\":1530:1531   */\n      0x00\n        /* \"#utility.yul\":1519:1528   */\n      dup4\n        /* \"#utility.yul\":1515:1532   */\n      add\n        /* \"#utility.yul\":1506:1512   */\n      dup5\n        /* \"#utility.yul\":1454:1533   */\n      tag_18\n      jump\t// in\n    tag_41:\n        /* \"#utility.yul\":1302:1540   */\n      swap3\n      swap2\n      pop\n      pop\n      jump\t// out\n        /* \"#utility.yul\":1546:1726   */\n    tag_19:\n        /* \"#utility.yul\":1594:1671   */\n      0x4e487b7100000000000000000000000000000000000000000000000000000000\n        /* \"#utility.yul\":1591:1592   */\n      0x00\n        /* \"#utility.yul\":1584:1672   */\n      mstore\n        /* \"#utility.yul\":1691:1695   */\n      0x11\n        /* \"#utility.yul\":1688:1689   */\n      0x04\n        /* \"#utility.yul\":1681:1696   */\n      mstore\n        /* \"#utility.yul\":1715:1719   */\n      0x24\n        /* \"#utility.yul\":1712:1713   */\n      0x00\n        /* \"#utility.yul\":1705:1720   */\n      revert\n        /* \"#utility.yul\":1732:1834   */\n    tag_20:\n        /* \"#utility.yul\":1774:1782   */\n      0x00\n        /* \"#utility.yul\":1821:1826   */\n      dup2\n        /* \"#utility.yul\":1818:1819   */\n      0x01\n        /* \"#utility.yul\":1814:1827   */\n      shr\n        /* \"#utility.yul\":1793:1827   */\n      swap1\n      pop\n        /* \"#utility.yul\":1732:1834   */\n      swap2\n      swap1\n      pop\n      jump\t// out\n        /* \"#utility.yul\":1840:2688   */\n    tag_21:\n        /* \"#utility.yul\":1901:1906   */\n      0x00\n        /* \"#utility.yul\":1908:1912   */\n      dup1\n        /* \"#utility.yul\":1932:1938   */\n      dup3\n        /* \"#utility.yul\":1923:1938   */\n      swap2\n      pop\n        /* \"#utility.yul\":1956:1961   */\n      dup4\n        /* \"#utility.yul\":1947:1961   */\n      swap1\n      pop\n        /* \"#utility.yul\":1970:2682   */\n    tag_45:\n        /* \"#utility.yul\":1991:1992   */\n      0x01\n        /* \"#utility.yul\":1981:1989   */\n      dup6\n        /* \"#utility.yul\":1978:1993   */\n      gt\n        /* \"#utility.yul\":1970:2682   */\n      iszero\n      tag_47\n      jumpi\n        /* \"#utility.yul\":2086:2090   */\n      dup1\n        /* \"#utility.yul\":2081:2084   */\n      dup7\n        /* \"#utility.yul\":2077:2091   */\n      div\n        /* \"#utility.yul\":2071:2075   */\n      dup2\n        /* \"#utility.yul\":2068:2092   */\n      gt\n        /* \"#utility.yul\":2065:2115   */\n      iszero\n      tag_48\n      jumpi\n        /* \"#utility.yul\":2095:2113   */\n      tag_49\n      tag_19\n      jump\t// in\n    tag_49:\n        /* \"#utility.yul\":2065:2115   */\n    tag_48:\n        /* \"#utility.yul\":2145:2146   */\n      0x01\n        /* \"#utility.yul\":2135:2143   */\n      dup6\n        /* \"#utility.yul\":2131:2147   */\n      and\n        /* \"#utility.yul\":2128:2579   */\n      iszero\n      tag_50\n      jumpi\n        /* \"#utility.yul\":2560:2564   */\n      dup1\n        /* \"#utility.yul\":2553:2558   */\n      dup3\n        /* \"#utility.yul\":2549:2565   */\n      mul\n        /* \"#utility.yul\":2540:2565   */\n      swap2\n      pop\n        /* \"#utility.yul\":2128:2579   */\n    tag_50:\n        /* \"#utility.yul\":2610:2614   */\n      dup1\n        /* \"#utility.yul\":2604:2608   */\n      dup2\n        /* \"#utility.yul\":2600:2615   */\n      mul\n        /* \"#utility.yul\":2592:2615   */\n      swap1\n      pop\n        /* \"#utility.yul\":2640:2672   */\n      tag_51\n        /* \"#utility.yul\":2663:2671   */\n      dup6\n        /* \"#utility.yul\":2640:2672   */\n      tag_20\n      jump\t// in\n    tag_51:\n        /* \"#utility.yul\":2628:2672   */\n      swap5\n      pop\n        /* \"#utility.yul\":1970:2682   */\n      jump(tag_45)\n    tag_47:\n        /* \"#utility.yul\":1840:2688   */\n      swap5\n      pop\n      swap5\n      swap3\n      pop\n      pop\n      pop\n      jump\t// out\n        /* \"#utility.yul\":2694:3767   */\n    tag_22:\n        /* \"#utility.yul\":2748:2753   */\n      0x00\n        /* \"#utility.yul\":2939:2947   */\n      dup3\n        /* \"#utility.yul\":2929:2969   */\n      tag_53\n      jumpi\n        /* \"#utility.yul\":2960:2961   */\n      0x01\n        /* \"#utility.yul\":2951:2961   */\n      swap1\n      pop\n        /* \"#utility.yul\":2962:2967   */\n      jump(tag_52)\n        /* \"#utility.yul\":2929:2969   */\n    tag_53:\n        /* \"#utility.yul\":2988:2992   */\n      dup2\n        /* \"#utility.yul\":2978:3014   */\n      tag_54\n      jumpi\n        /* \"#utility.yul\":3005:3006   */\n      0x00\n        /* \"#utility.yul\":2996:3006   */\n      swap1\n      pop\n        /* \"#utility.yul\":3007:3012   */\n      jump(tag_52)\n        /* \"#utility.yul\":2978:3014   */\n    tag_54:\n        /* \"#utility.yul\":3074:3078   */\n      dup2\n        /* \"#utility.yul\":3122:3123   */\n      0x01\n        /* \"#utility.yul\":3117:3144   */\n      dup2\n      eq\n      tag_56\n      jumpi\n        /* \"#utility.yul\":3158:3159   */\n      0x02\n        /* \"#utility.yul\":3153:3344   */\n      dup2\n      eq\n      tag_57\n      jumpi\n        /* \"#utility.yul\":3067:3344   */\n      jump(tag_55)\n        /* \"#utility.yul\":3117:3144   */\n    tag_56:\n        /* \"#utility.yul\":3135:3136   */\n      0x01\n        /* \"#utility.yul\":3126:3136   */\n      swap2\n      pop\n        /* \"#utility.yul\":3137:3142   */\n      pop\n      jump(tag_52)\n        /* \"#utility.yul\":3153:3344   */\n    tag_57:\n        /* \"#utility.yul\":3198:3201   */\n      0xff\n        /* \"#utility.yul\":3188:3196   */\n      dup5\n        /* \"#utility.yul\":3185:3202   */\n      gt\n        /* \"#utility.yul\":3182:3225   */\n      iszero\n      tag_58\n      jumpi\n        /* \"#utility.yul\":3205:3223   */\n      tag_59\n      tag_19\n      jump\t// in\n    tag_59:\n        /* \"#utility.yul\":3182:3225   */\n    tag_58:\n        /* \"#utility.yul\":3254:3262   */\n      dup4\n        /* \"#utility.yul\":3251:3252   */\n      0x02\n        /* \"#utility.yul\":3247:3263   */\n      exp\n        /* \"#utility.yul\":3238:3263   */\n      swap2\n      pop\n        /* \"#utility.yul\":3289:3292   */\n      dup5\n        /* \"#utility.yul\":3282:3287   */\n      dup3\n        /* \"#utility.yul\":3279:3293   */\n      gt\n        /* \"#utility.yul\":3276:3316   */\n      iszero\n      tag_60\n      jumpi\n        /* \"#utility.yul\":3296:3314   */\n      tag_61\n      tag_19\n      jump\t// in\n    tag_61:\n        /* \"#utility.yul\":3276:3316   */\n    tag_60:\n        /* \"#utility.yul\":3329:3334   */\n      pop\n      jump(tag_52)\n        /* \"#utility.yul\":3067:3344   */\n    tag_55:\n      pop\n        /* \"#utility.yul\":3453:3455   */\n      0x20\n        /* \"#utility.yul\":3443:3451   */\n      dup4\n        /* \"#utility.yul\":3440:3456   */\n      lt\n        /* \"#utility.yul\":3434:3437   */\n      0x0133\n        /* \"#utility.yul\":3428:3432   */\n      dup4\n        /* \"#utility.yul\":3425:3438   */\n      lt\n        /* \"#utility.yul\":3421:3457   */\n      and\n        /* \"#utility.yul\":3403:3405   */\n      0x4e\n        /* \"#utility.yul\":3393:3401   */\n      dup5\n        /* \"#utility.yul\":3390:3406   */\n      lt\n        /* \"#utility.yul\":3385:3387   */\n      0x0b\n        /* \"#utility.yul\":3379:3383   */\n      dup5\n        /* \"#utility.yul\":3376:3388   */\n      lt\n        /* \"#utility.yul\":3372:3407   */\n      and\n        /* \"#utility.yul\":3356:3467   */\n      or\n        /* \"#utility.yul\":3353:3599   */\n      iszero\n      tag_62\n      jumpi\n        /* \"#utility.yul\":3509:3517   */\n      dup3\n        /* \"#utility.yul\":3503:3507   */\n      dup3\n        /* \"#utility.yul\":3499:3518   */\n      exp\n        /* \"#utility.yul\":3490:3518   */\n      swap1\n      pop\n        /* \"#utility.yul\":3544:3547   */\n      dup4\n        /* \"#utility.yul\":3537:3542   */\n      dup2\n        /* \"#utility.yul\":3534:3548   */\n      gt\n        /* \"#utility.yul\":3531:3571   */\n      iszero\n      tag_63\n      jumpi\n        /* \"#utility.yul\":3551:3569   */\n      tag_64\n      tag_19\n      jump\t// in\n    tag_64:\n        /* \"#utility.yul\":3531:3571   */\n    tag_63:\n        /* \"#utility.yul\":3584:3589   */\n      jump(tag_52)\n        /* \"#utility.yul\":3353:3599   */\n    tag_62:\n        /* \"#utility.yul\":3624:3666   */\n      tag_65\n        /* \"#utility.yul\":3662:3665   */\n      dup5\n        /* \"#utility.yul\":3652:3660   */\n      dup5\n        /* \"#utility.yul\":3646:3650   */\n      dup5\n        /* \"#utility.yul\":3643:3644   */\n      0x01\n        /* \"#utility.yul\":3624:3666   */\n      tag_21\n      jump\t// in\n    tag_65:\n        /* \"#utility.yul\":3609:3666   */\n      swap3\n      pop\n      swap1\n      pop\n        /* \"#utility.yul\":3698:3702   */\n      dup2\n        /* \"#utility.yul\":3693:3696   */\n      dup5\n        /* \"#utility.yul\":3689:3703   */\n      div\n        /* \"#utility.yul\":3682:3687   */\n      dup2\n        /* \"#utility.yul\":3679:3704   */\n      gt\n        /* \"#utility.yul\":3676:3727   */\n      iszero\n      tag_66\n      jumpi\n        /* \"#utility.yul\":3707:3725   */\n      tag_67\n      tag_19\n      jump\t// in\n    tag_67:\n        /* \"#utility.yul\":3676:3727   */\n    tag_66:\n        /* \"#utility.yul\":3756:3760   */\n      dup2\n        /* \"#utility.yul\":3749:3754   */\n      dup2\n        /* \"#utility.yul\":3745:3761   */\n      mul\n        /* \"#utility.yul\":3736:3761   */\n      swap1\n      pop\n        /* \"#utility.yul\":2694:3767   */\n    tag_52:\n      swap4\n      swap3\n      pop\n      pop\n      pop\n      jump\t// out\n        /* \"#utility.yul\":3773:4058   */\n    tag_11:\n        /* \"#utility.yul\":3833:3838   */\n      0x00\n        /* \"#utility.yul\":3857:3880   */\n      tag_69\n        /* \"#utility.yul\":3875:3879   */\n      dup3\n        /* \"#utility.yul\":3857:3880   */\n      tag_15\n      jump\t// in\n    tag_69:\n        /* \"#utility.yul\":3849:3880   */\n      swap2\n      pop\n        /* \"#utility.yul\":3901:3928   */\n      tag_70\n        /* \"#utility.yul\":3919:3927   */\n      dup4\n        /* \"#utility.yul\":3901:3928   */\n      tag_15\n      jump\t// in\n    tag_70:\n        /* \"#utility.yul\":3889:3928   */\n      swap3\n      pop\n        /* \"#utility.yul\":3947:4051   */\n      tag_71\n        /* \"#utility.yul\":3984:4050   */\n      0xffffffffffffffffffffffffffffffffffffffffffffffffffffffffffffffff\n        /* \"#utility.yul\":3974:3982   */\n      dup5\n        /* \"#utility.yul\":3968:3972   */\n      dup5\n        /* \"#utility.yul\":3947:4051   */\n      tag_22\n      jump\t// in\n    tag_71:\n        /* \"#utility.yul\":3938:4051   */\n      swap1\n      pop\n        /* \"#utility.yul\":3773:4058   */\n      swap3\n      swap2\n      pop\n      pop\n      jump\t// out\n\n    auxdata: 0xa2646970667358221220319e4cecd103240cf09a9b34991db07ba4984d9a994422e6f77e30924794423364736f6c63430008110033\n}\n",
				"bytecode": {
					"linkReferences": {},
					"object": "610308610053600b82828239805160001a607314610046577f4e487b7100000000000000000000000000000000000000000000000000000000600052600060045260246000fd5b30600052607381538281f3fe73000000000000000000000000000000000000000030146080604052600436106100355760003560e01c8063d9b5b5ca1461003a575b600080fd5b610054600480360381019061004f91906100bb565b61006a565b604051610061919061010a565b60405180910390f35b600081836100789190610287565b905092915050565b600080fd5b6000819050919050565b61009881610085565b81146100a357600080fd5b50565b6000813590506100b58161008f565b92915050565b600080604083850312156100d2576100d1610080565b5b60006100e0858286016100a6565b92505060206100f1858286016100a6565b9150509250929050565b61010481610085565b82525050565b600060208201905061011f60008301846100fb565b92915050565b7f4e487b7100000000000000000000000000000000000000000000000000000000600052601160045260246000fd5b60008160011c9050919050565b6000808291508390505b60018511156101ab5780860481111561018757610186610125565b5b60018516156101965780820291505b80810290506101a485610154565b945061016b565b94509492505050565b6000826101c45760019050610280565b816101d25760009050610280565b81600181146101e857600281146101f257610221565b6001915050610280565b60ff84111561020457610203610125565b5b8360020a91508482111561021b5761021a610125565b5b50610280565b5060208310610133831016604e8410600b84101617156102565782820a90508381111561025157610250610125565b5b610280565b6102638484846001610161565b9250905081840481111561027a57610279610125565b5b81810290505b9392505050565b600061029282610085565b915061029d83610085565b92506102ca7fffffffffffffffffffffffffffffffffffffffffffffffffffffffffffffffff84846101b4565b90509291505056fea2646970667358221220319e4cecd103240cf09a9b34991db07ba4984d9a994422e6f77e30924794423364736f6c63430008110033",
					"opcodes": "PUSH2 0x308 PUSH2 0x53 PUSH1 0xB DUP3 DUP3 DUP3 CODECOPY DUP1 MLOAD PUSH1 0x0 BYTE PUSH1 0x73 EQ PUSH2 0x46 JUMPI PUSH32 0x4E487B7100000000000000000000000000000000000000000000000000000000 PUSH1 0x0 MSTORE PUSH1 0x0 PUSH1 0x4 MSTORE PUSH1 0x24 PUSH1 0x0 REVERT JUMPDEST ADDRESS PUSH1 0x0 MSTORE PUSH1 0x73 DUP2 MSTORE8 DUP3 DUP2 RETURN INVALID PUSH20 0x0 ADDRESS EQ PUSH1 0x80 PUSH1 0x40 MSTORE PUSH1 0x4 CALLDATASIZE LT PUSH2 0x35 JUMPI PUSH1 0x0 CALLDATALOAD PUSH1 0xE0 SHR DUP1 PUSH4 0xD9B5B5CA EQ PUSH2 0x3A JUMPI JUMPDEST PUSH1 0x0 DUP1 REVERT JUMPDEST PUSH2 0x54 PUSH1 0x4 DUP1 CALLDATASIZE SUB DUP2 ADD SWAP1 PUSH2 0x4F SWAP2 SWAP1 PUSH2 0xBB JUMP JUMPDEST PUSH2 0x6A JUMP JUMPDEST PUSH1 0x40 MLOAD PUSH2 0x61 SWAP2 SWAP1 PUSH2 0x10A JUMP JUMPDEST PUSH1 0x40 MLOAD DUP1 SWAP2 SUB SWAP1 RETURN JUMPDEST PUSH1 0x0 DUP2 DUP4 PUSH2 0x78 SWAP2 SWAP1 PUSH2 0x287 JUMP JUMPDEST SWAP1 POP SWAP3 SWAP2 POP POP JUMP JUMPDEST PUSH1 0x0 DUP1 REVERT JUMPDEST PUSH1 0x0 DUP2 SWAP1 POP SWAP2 SWAP1 POP JUMP JUMPDEST PUSH2 0x98 DUP2 PUSH2 0x85 JUMP JUMPDEST DUP2 EQ PUSH2 0xA3 JUMPI PUSH1 0x0 DUP1 REVERT JUMPDEST POP JUMP JUMPDEST PUSH1 0x0 DUP2 CALLDATALOAD SWAP1 POP PUSH2 0xB5 DUP2 PUSH2 0x8F JUMP JUMPDEST SWAP3 SWAP2 POP POP JUMP JUMPDEST PUSH1 0x0 DUP1 PUSH1 0x40 DUP4 DUP6 SUB SLT ISZERO PUSH2 0xD2 JUMPI PUSH2 0xD1 PUSH2 0x80 JUMP JUMPDEST JUMPDEST PUSH1 0x0 PUSH2 0xE0 DUP6 DUP3 DUP7 ADD PUSH2 0xA6 JUMP JUMPDEST SWAP3 POP POP PUSH1 0x20 PUSH2 0xF1 DUP6 DUP3 DUP7 ADD PUSH2 0xA6 JUMP JUMPDEST SWAP2 POP POP SWAP3 POP SWAP3 SWAP1 POP JUMP JUMPDEST PUSH2 0x104 DUP2 PUSH2 0x85 JUMP JUMPDEST DUP3 MSTORE POP POP JUMP JUMPDEST PUSH1 0x0 PUSH1 0x20 DUP3 ADD SWAP1 POP PUSH2 0x11F PUSH1 0x0 DUP4 ADD DUP5 PUSH2 0xFB JUMP JUMPDEST SWAP3 SWAP2 POP POP JUMP JUMPDEST PUSH32 0x4E487B7100000000000000000000000000000000000000000000000000000000 PUSH1 0x0 MSTORE PUSH1 0x11 PUSH1 0x4 MSTORE PUSH1 0x24 PUSH1 0x0 REVERT JUMPDEST PUSH1 0x0 DUP2 PUSH1 0x1 SHR SWAP1 POP SWAP2 SWAP1 POP JUMP JUMPDEST PUSH1 0x0 DUP1 DUP3 SWAP2 POP DUP4 SWAP1 POP JUMPDEST PUSH1 0x1 DUP6 GT ISZERO PUSH2 0x1AB JUMPI DUP1 DUP7 DIV DUP2 GT ISZERO PUSH2 0x187 JUMPI PUSH2 0x186 PUSH2 0x125 JUMP JUMPDEST JUMPDEST PUSH1 0x1 DUP6 AND ISZERO PUSH2 0x196 JUMPI DUP1 DUP3 MUL SWAP2 POP JUMPDEST DUP1 DUP2 MUL SWAP1 POP PUSH2 0x1A4 DUP6 PUSH2 0x154 JUMP JUMPDEST SWAP5 POP PUSH2 0x16B JUMP JUMPDEST SWAP5 POP SWAP5 SWAP3 POP POP POP JUMP JUMPDEST PUSH1 0x0 DUP3 PUSH2 0x1C4 JUMPI PUSH1 0x1 SWAP1 POP PUSH2 0x280 JUMP JUMPDEST DUP2 PUSH2 0x1D2 JUMPI PUSH1 0x0 SWAP1 POP PUSH2 0x280 JUMP JUMPDEST DUP2 PUSH1 0x1 DUP2 EQ PUSH2 0x1E8 JUMPI PUSH1 0x2 DUP2 EQ PUSH2 0x1F2 JUMPI PUSH2 0x221 JUMP JUMPDEST PUSH1 0x1 SWAP2 POP POP PUSH2 0x280 JUMP JUMPDEST PUSH1 0xFF DUP5 GT ISZERO PUSH2 0x204 JUMPI PUSH2 0x203 PUSH2 0x125 JUMP JUMPDEST JUMPDEST DUP4 PUSH1 0x2 EXP SWAP2 POP DUP5 DUP3 GT ISZERO PUSH2 0x21B JUMPI PUSH2 0x21A PUSH2 0x125 JUMP JUMPDEST JUMPDEST POP PUSH2 0x280 JUMP JUMPDEST POP PUSH1 0x20 DUP4 LT PUSH2 0x133 DUP4 LT AND PUSH1 0x4E DUP5 LT PUSH1 0xB DUP5 LT AND OR ISZERO PUSH2 0x256 JUMPI DUP3 DUP3 EXP SWAP1 POP DUP4 DUP2 GT ISZERO PUSH2 0x251 JUMPI PUSH2 0x250 PUSH2 0x125 JUMP JUMPDEST JUMPDEST PUSH2 0x280 JUMP JUMPDEST PUSH2 0x263 DUP5 DUP5 DUP5 PUSH1 0x1 PUSH2 0x161 JUMP JUMPDEST SWAP3 POP SWAP1 POP DUP2 DUP5 DIV DUP2 GT ISZERO PUSH2 0x27A JUMPI PUSH2 0x279 PUSH2 0x125 JUMP JUMPDEST JUMPDEST DUP2 DUP2 MUL SWAP1 POP JUMPDEST SWAP4 SWAP3 POP POP POP JUMP JUMPDEST PUSH1 0x0 PUSH2 0x292 DUP3 PUSH2 0x85 JUMP JUMPDEST SWAP2 POP PUSH2 0x29D DUP4 PUSH2 0x85 JUMP JUMPDEST SWAP3 POP PUSH2 0x2CA PUSH32 0xFFFFFFFFFFFFFFFFFFFFFFFFFFFFFFFFFFFFFFFFFFFFFFFFFFFFFFFFFFFFFFFF DUP5 DUP5 PUSH2 0x1B4 JUMP JUMPDEST SWAP1 POP SWAP3 SWAP2 POP POP JUMP INVALID LOG2 PUSH5 0x6970667358 0x22 SLT KECCAK256 BALANCE SWAP15 0x4C 0xEC 0xD1 SUB 0x24 0xC CREATE SWAP11 SWAP12 CALLVALUE SWAP10 SAR 0xB0 PUSH28 0xA4984D9A994422E6F77E30924794423364736F6C6343000811003300 "
				},
				"gasEstimates": {
					"creation": {
						"codeDepositCost": "155200",
						"executionCost": "227",
						"totalCost": "155427"
					},
					"external": {
						"exponential(uint256,uint256)": "infinite"
					}
				},
				"methodIdentifiers": {
					"exponential(uint256,uint256)": "d9b5b5ca"
				}
			},
			"storageLayout": {
				"storage": [],
				"types": null
			},
			"userdoc": {
				"kind": "user",
				"methods": {},
				"version": 1
			}
		}
	}
}