{
	"Labs (August)/try_catch_library/library.sol": {
		"calculation": {
			"abi": [
				{
					"inputs": [
						{
							"internalType": "int256",
							"name": "a",
							"type": "int256"
						},
						{
							"internalType": "int256",
							"name": "b",
							"type": "int256"
						}
					],
					"name": "diff",
					"outputs": [
						{
							"internalType": "int256",
							"name": "",
							"type": "int256"
						}
					],
					"stateMutability": "pure",
					"type": "function"
				},
				{
					"inputs": [
						{
							"internalType": "uint256",
							"name": "a",
							"type": "uint256"
						},
						{
							"internalType": "uint256",
							"name": "b",
							"type": "uint256"
						}
					],
					"name": "expo",
					"outputs": [
						{
							"internalType": "uint256",
							"name": "",
							"type": "uint256"
						}
					],
					"stateMutability": "pure",
					"type": "function"
				},
				{
					"inputs": [
						{
							"internalType": "uint256",
							"name": "a",
							"type": "uint256"
						},
						{
							"internalType": "uint256",
							"name": "b",
							"type": "uint256"
						}
					],
					"name": "sum",
					"outputs": [
						{
							"internalType": "uint256",
							"name": "",
							"type": "uint256"
						}
					],
					"stateMutability": "pure",
					"type": "function"
				}
			],
			"devdoc": {
				"kind": "dev",
				"methods": {},
				"version": 1
			},
			"evm": {
				"assembly": "    /* \"Labs (August)/try_catch_library/library.sol\":910:1210  library calculation{... */\n  dataSize(sub_0)\n  dataOffset(sub_0)\n  0x0b\n  dup3\n  dup3\n  dup3\n  codecopy\n  dup1\n  mload\n  0x00\n  byte\n  0x73\n  eq\n  tag_1\n  jumpi\n  mstore(0x00, 0x4e487b7100000000000000000000000000000000000000000000000000000000)\n  mstore(0x04, 0x00)\n  revert(0x00, 0x24)\ntag_1:\n  mstore(0x00, address)\n  0x73\n  dup2\n  mstore8\n  dup3\n  dup2\n  return\nstop\n\nsub_0: assembly {\n        /* \"Labs (August)/try_catch_library/library.sol\":910:1210  library calculation{... */\n      eq(address, deployTimeAddress())\n      mstore(0x40, 0x80)\n      jumpi(tag_1, lt(calldatasize, 0x04))\n      shr(0xe0, calldataload(0x00))\n      dup1\n      0x4f4752ba\n      eq\n      tag_2\n      jumpi\n      dup1\n      0x568c1385\n      eq\n      tag_3\n      jumpi\n      dup1\n      0xcad0899b\n      eq\n      tag_4\n      jumpi\n    tag_1:\n      0x00\n      dup1\n      revert\n        /* \"Labs (August)/try_catch_library/library.sol\":1120:1205  function expo(uint a, uint b) public pure returns(uint){... */\n    tag_2:\n      tag_5\n      0x04\n      dup1\n      calldatasize\n      sub\n      dup2\n      add\n      swap1\n      tag_6\n      swap2\n      swap1\n      tag_7\n      jump\t// in\n    tag_6:\n      tag_8\n      jump\t// in\n    tag_5:\n      mload(0x40)\n      tag_9\n      swap2\n      swap1\n      tag_10\n      jump\t// in\n    tag_9:\n      mload(0x40)\n      dup1\n      swap2\n      sub\n      swap1\n      return\n        /* \"Labs (August)/try_catch_library/library.sol\":1029:1112  function diff(int a , int b) public pure returns (int){... */\n    tag_3:\n      tag_11\n      0x04\n      dup1\n      calldatasize\n      sub\n      dup2\n      add\n      swap1\n      tag_12\n      swap2\n      swap1\n      tag_13\n      jump\t// in\n    tag_12:\n      tag_14\n      jump\t// in\n    tag_11:\n      mload(0x40)\n      tag_15\n      swap2\n      swap1\n      tag_16\n      jump\t// in\n    tag_15:\n      mload(0x40)\n      dup1\n      swap2\n      sub\n      swap1\n      return\n        /* \"Labs (August)/try_catch_library/library.sol\":936:1021  function sum(uint a , uint b )public pure returns (uint){... */\n    tag_4:\n      tag_17\n      0x04\n      dup1\n      calldatasize\n      sub\n      dup2\n      add\n      swap1\n      tag_18\n      swap2\n      swap1\n      tag_7\n      jump\t// in\n    tag_18:\n      tag_19\n      jump\t// in\n    tag_17:\n      mload(0x40)\n      tag_20\n      swap2\n      swap1\n      tag_10\n      jump\t// in\n    tag_20:\n      mload(0x40)\n      dup1\n      swap2\n      sub\n      swap1\n      return\n        /* \"Labs (August)/try_catch_library/library.sol\":1120:1205  function expo(uint a, uint b) public pure returns(uint){... */\n    tag_8:\n        /* \"Labs (August)/try_catch_library/library.sol\":1170:1174  uint */\n      0x00\n        /* \"Labs (August)/try_catch_library/library.sol\":1196:1197  b */\n      dup2\n        /* \"Labs (August)/try_catch_library/library.sol\":1193:1194  a */\n      dup4\n        /* \"Labs (August)/try_catch_library/library.sol\":1193:1197  a**b */\n      tag_22\n      swap2\n      swap1\n      tag_23\n      jump\t// in\n    tag_22:\n        /* \"Labs (August)/try_catch_library/library.sol\":1186:1197  return a**b */\n      swap1\n      pop\n        /* \"Labs (August)/try_catch_library/library.sol\":1120:1205  function expo(uint a, uint b) public pure returns(uint){... */\n      swap3\n      swap2\n      pop\n      pop\n      jump\t// out\n        /* \"Labs (August)/try_catch_library/library.sol\":1029:1112  function diff(int a , int b) public pure returns (int){... */\n    tag_14:\n        /* \"Labs (August)/try_catch_library/library.sol\":1079:1082  int */\n      0x00\n        /* \"Labs (August)/try_catch_library/library.sol\":1103:1104  b */\n      dup2\n        /* \"Labs (August)/try_catch_library/library.sol\":1101:1102  a */\n      dup4\n        /* \"Labs (August)/try_catch_library/library.sol\":1101:1104  a-b */\n      tag_25\n      swap2\n      swap1\n      tag_26\n      jump\t// in\n    tag_25:\n        /* \"Labs (August)/try_catch_library/library.sol\":1094:1104  return a-b */\n      swap1\n      pop\n        /* \"Labs (August)/try_catch_library/library.sol\":1029:1112  function diff(int a , int b) public pure returns (int){... */\n      swap3\n      swap2\n      pop\n      pop\n      jump\t// out\n        /* \"Labs (August)/try_catch_library/library.sol\":936:1021  function sum(uint a , uint b )public pure returns (uint){... */\n    tag_19:\n        /* \"Labs (August)/try_catch_library/library.sol\":987:991  uint */\n      0x00\n        /* \"Labs (August)/try_catch_library/library.sol\":1012:1013  b */\n      dup2\n        /* \"Labs (August)/try_catch_library/library.sol\":1010:1011  a */\n      dup4\n        /* \"Labs (August)/try_catch_library/library.sol\":1010:1013  a+b */\n      tag_28\n      swap2\n      swap1\n      tag_29\n      jump\t// in\n    tag_28:\n        /* \"Labs (August)/try_catch_library/library.sol\":1003:1013  return a+b */\n      swap1\n      pop\n        /* \"Labs (August)/try_catch_library/library.sol\":936:1021  function sum(uint a , uint b )public pure returns (uint){... */\n      swap3\n      swap2\n      pop\n      pop\n      jump\t// out\n        /* \"#utility.yul\":88:205   */\n    tag_31:\n        /* \"#utility.yul\":197:198   */\n      0x00\n        /* \"#utility.yul\":194:195   */\n      dup1\n        /* \"#utility.yul\":187:199   */\n      revert\n        /* \"#utility.yul\":334:411   */\n    tag_33:\n        /* \"#utility.yul\":371:378   */\n      0x00\n        /* \"#utility.yul\":400:405   */\n      dup2\n        /* \"#utility.yul\":389:405   */\n      swap1\n      pop\n        /* \"#utility.yul\":334:411   */\n      swap2\n      swap1\n      pop\n      jump\t// out\n        /* \"#utility.yul\":417:539   */\n    tag_34:\n        /* \"#utility.yul\":490:514   */\n      tag_51\n        /* \"#utility.yul\":508:513   */\n      dup2\n        /* \"#utility.yul\":490:514   */\n      tag_33\n      jump\t// in\n    tag_51:\n        /* \"#utility.yul\":483:488   */\n      dup2\n        /* \"#utility.yul\":480:515   */\n      eq\n        /* \"#utility.yul\":470:533   */\n      tag_52\n      jumpi\n        /* \"#utility.yul\":529:530   */\n      0x00\n        /* \"#utility.yul\":526:527   */\n      dup1\n        /* \"#utility.yul\":519:531   */\n      revert\n        /* \"#utility.yul\":470:533   */\n    tag_52:\n        /* \"#utility.yul\":417:539   */\n      pop\n      jump\t// out\n        /* \"#utility.yul\":545:684   */\n    tag_35:\n        /* \"#utility.yul\":591:596   */\n      0x00\n        /* \"#utility.yul\":629:635   */\n      dup2\n        /* \"#utility.yul\":616:636   */\n      calldataload\n        /* \"#utility.yul\":607:636   */\n      swap1\n      pop\n        /* \"#utility.yul\":645:678   */\n      tag_54\n        /* \"#utility.yul\":672:677   */\n      dup2\n        /* \"#utility.yul\":645:678   */\n      tag_34\n      jump\t// in\n    tag_54:\n        /* \"#utility.yul\":545:684   */\n      swap3\n      swap2\n      pop\n      pop\n      jump\t// out\n        /* \"#utility.yul\":690:1164   */\n    tag_7:\n        /* \"#utility.yul\":758:764   */\n      0x00\n        /* \"#utility.yul\":766:772   */\n      dup1\n        /* \"#utility.yul\":815:817   */\n      0x40\n        /* \"#utility.yul\":803:812   */\n      dup4\n        /* \"#utility.yul\":794:801   */\n      dup6\n        /* \"#utility.yul\":790:813   */\n      sub\n        /* \"#utility.yul\":786:818   */\n      slt\n        /* \"#utility.yul\":783:902   */\n      iszero\n      tag_56\n      jumpi\n        /* \"#utility.yul\":821:900   */\n      tag_57\n      tag_31\n      jump\t// in\n    tag_57:\n        /* \"#utility.yul\":783:902   */\n    tag_56:\n        /* \"#utility.yul\":941:942   */\n      0x00\n        /* \"#utility.yul\":966:1019   */\n      tag_58\n        /* \"#utility.yul\":1011:1018   */\n      dup6\n        /* \"#utility.yul\":1002:1008   */\n      dup3\n        /* \"#utility.yul\":991:1000   */\n      dup7\n        /* \"#utility.yul\":987:1009   */\n      add\n        /* \"#utility.yul\":966:1019   */\n      tag_35\n      jump\t// in\n    tag_58:\n        /* \"#utility.yul\":956:1019   */\n      swap3\n      pop\n        /* \"#utility.yul\":912:1029   */\n      pop\n        /* \"#utility.yul\":1068:1070   */\n      0x20\n        /* \"#utility.yul\":1094:1147   */\n      tag_59\n        /* \"#utility.yul\":1139:1146   */\n      dup6\n        /* \"#utility.yul\":1130:1136   */\n      dup3\n        /* \"#utility.yul\":1119:1128   */\n      dup7\n        /* \"#utility.yul\":1115:1137   */\n      add\n        /* \"#utility.yul\":1094:1147   */\n      tag_35\n      jump\t// in\n    tag_59:\n        /* \"#utility.yul\":1084:1147   */\n      swap2\n      pop\n        /* \"#utility.yul\":1039:1157   */\n      pop\n        /* \"#utility.yul\":690:1164   */\n      swap3\n      pop\n      swap3\n      swap1\n      pop\n      jump\t// out\n        /* \"#utility.yul\":1170:1296   */\n    tag_36:\n        /* \"#utility.yul\":1265:1289   */\n      tag_61\n        /* \"#utility.yul\":1283:1288   */\n      dup2\n        /* \"#utility.yul\":1265:1289   */\n      tag_33\n      jump\t// in\n    tag_61:\n        /* \"#utility.yul\":1260:1263   */\n      dup3\n        /* \"#utility.yul\":1253:1290   */\n      mstore\n        /* \"#utility.yul\":1170:1296   */\n      pop\n      pop\n      jump\t// out\n        /* \"#utility.yul\":1302:1540   */\n    tag_10:\n        /* \"#utility.yul\":1403:1407   */\n      0x00\n        /* \"#utility.yul\":1441:1443   */\n      0x20\n        /* \"#utility.yul\":1430:1439   */\n      dup3\n        /* \"#utility.yul\":1426:1444   */\n      add\n        /* \"#utility.yul\":1418:1444   */\n      swap1\n      pop\n        /* \"#utility.yul\":1454:1533   */\n      tag_63\n        /* \"#utility.yul\":1530:1531   */\n      0x00\n        /* \"#utility.yul\":1519:1528   */\n      dup4\n        /* \"#utility.yul\":1515:1532   */\n      add\n        /* \"#utility.yul\":1506:1512   */\n      dup5\n        /* \"#utility.yul\":1454:1533   */\n      tag_36\n      jump\t// in\n    tag_63:\n        /* \"#utility.yul\":1302:1540   */\n      swap3\n      swap2\n      pop\n      pop\n      jump\t// out\n        /* \"#utility.yul\":1546:1622   */\n    tag_37:\n        /* \"#utility.yul\":1582:1589   */\n      0x00\n        /* \"#utility.yul\":1611:1616   */\n      dup2\n        /* \"#utility.yul\":1600:1616   */\n      swap1\n      pop\n        /* \"#utility.yul\":1546:1622   */\n      swap2\n      swap1\n      pop\n      jump\t// out\n        /* \"#utility.yul\":1628:1748   */\n    tag_38:\n        /* \"#utility.yul\":1700:1723   */\n      tag_66\n        /* \"#utility.yul\":1717:1722   */\n      dup2\n        /* \"#utility.yul\":1700:1723   */\n      tag_37\n      jump\t// in\n    tag_66:\n        /* \"#utility.yul\":1693:1698   */\n      dup2\n        /* \"#utility.yul\":1690:1724   */\n      eq\n        /* \"#utility.yul\":1680:1742   */\n      tag_67\n      jumpi\n        /* \"#utility.yul\":1738:1739   */\n      0x00\n        /* \"#utility.yul\":1735:1736   */\n      dup1\n        /* \"#utility.yul\":1728:1740   */\n      revert\n        /* \"#utility.yul\":1680:1742   */\n    tag_67:\n        /* \"#utility.yul\":1628:1748   */\n      pop\n      jump\t// out\n        /* \"#utility.yul\":1754:1891   */\n    tag_39:\n        /* \"#utility.yul\":1799:1804   */\n      0x00\n        /* \"#utility.yul\":1837:1843   */\n      dup2\n        /* \"#utility.yul\":1824:1844   */\n      calldataload\n        /* \"#utility.yul\":1815:1844   */\n      swap1\n      pop\n        /* \"#utility.yul\":1853:1885   */\n      tag_69\n        /* \"#utility.yul\":1879:1884   */\n      dup2\n        /* \"#utility.yul\":1853:1885   */\n      tag_38\n      jump\t// in\n    tag_69:\n        /* \"#utility.yul\":1754:1891   */\n      swap3\n      swap2\n      pop\n      pop\n      jump\t// out\n        /* \"#utility.yul\":1897:2367   */\n    tag_13:\n        /* \"#utility.yul\":1963:1969   */\n      0x00\n        /* \"#utility.yul\":1971:1977   */\n      dup1\n        /* \"#utility.yul\":2020:2022   */\n      0x40\n        /* \"#utility.yul\":2008:2017   */\n      dup4\n        /* \"#utility.yul\":1999:2006   */\n      dup6\n        /* \"#utility.yul\":1995:2018   */\n      sub\n        /* \"#utility.yul\":1991:2023   */\n      slt\n        /* \"#utility.yul\":1988:2107   */\n      iszero\n      tag_71\n      jumpi\n        /* \"#utility.yul\":2026:2105   */\n      tag_72\n      tag_31\n      jump\t// in\n    tag_72:\n        /* \"#utility.yul\":1988:2107   */\n    tag_71:\n        /* \"#utility.yul\":2146:2147   */\n      0x00\n        /* \"#utility.yul\":2171:2223   */\n      tag_73\n        /* \"#utility.yul\":2215:2222   */\n      dup6\n        /* \"#utility.yul\":2206:2212   */\n      dup3\n        /* \"#utility.yul\":2195:2204   */\n      dup7\n        /* \"#utility.yul\":2191:2213   */\n      add\n        /* \"#utility.yul\":2171:2223   */\n      tag_39\n      jump\t// in\n    tag_73:\n        /* \"#utility.yul\":2161:2223   */\n      swap3\n      pop\n        /* \"#utility.yul\":2117:2233   */\n      pop\n        /* \"#utility.yul\":2272:2274   */\n      0x20\n        /* \"#utility.yul\":2298:2350   */\n      tag_74\n        /* \"#utility.yul\":2342:2349   */\n      dup6\n        /* \"#utility.yul\":2333:2339   */\n      dup3\n        /* \"#utility.yul\":2322:2331   */\n      dup7\n        /* \"#utility.yul\":2318:2340   */\n      add\n        /* \"#utility.yul\":2298:2350   */\n      tag_39\n      jump\t// in\n    tag_74:\n        /* \"#utility.yul\":2288:2350   */\n      swap2\n      pop\n        /* \"#utility.yul\":2243:2360   */\n      pop\n        /* \"#utility.yul\":1897:2367   */\n      swap3\n      pop\n      swap3\n      swap1\n      pop\n      jump\t// out\n        /* \"#utility.yul\":2373:2496   */\n    tag_40:\n        /* \"#utility.yul\":2466:2489   */\n      tag_76\n        /* \"#utility.yul\":2483:2488   */\n      dup2\n        /* \"#utility.yul\":2466:2489   */\n      tag_37\n      jump\t// in\n    tag_76:\n        /* \"#utility.yul\":2461:2464   */\n      dup3\n        /* \"#utility.yul\":2454:2490   */\n      mstore\n        /* \"#utility.yul\":2373:2496   */\n      pop\n      pop\n      jump\t// out\n        /* \"#utility.yul\":2502:2736   */\n    tag_16:\n        /* \"#utility.yul\":2601:2605   */\n      0x00\n        /* \"#utility.yul\":2639:2641   */\n      0x20\n        /* \"#utility.yul\":2628:2637   */\n      dup3\n        /* \"#utility.yul\":2624:2642   */\n      add\n        /* \"#utility.yul\":2616:2642   */\n      swap1\n      pop\n        /* \"#utility.yul\":2652:2729   */\n      tag_78\n        /* \"#utility.yul\":2726:2727   */\n      0x00\n        /* \"#utility.yul\":2715:2724   */\n      dup4\n        /* \"#utility.yul\":2711:2728   */\n      add\n        /* \"#utility.yul\":2702:2708   */\n      dup5\n        /* \"#utility.yul\":2652:2729   */\n      tag_40\n      jump\t// in\n    tag_78:\n        /* \"#utility.yul\":2502:2736   */\n      swap3\n      swap2\n      pop\n      pop\n      jump\t// out\n        /* \"#utility.yul\":2742:2922   */\n    tag_41:\n        /* \"#utility.yul\":2790:2867   */\n      0x4e487b7100000000000000000000000000000000000000000000000000000000\n        /* \"#utility.yul\":2787:2788   */\n      0x00\n        /* \"#utility.yul\":2780:2868   */\n      mstore\n        /* \"#utility.yul\":2887:2891   */\n      0x11\n        /* \"#utility.yul\":2884:2885   */\n      0x04\n        /* \"#utility.yul\":2877:2892   */\n      mstore\n        /* \"#utility.yul\":2911:2915   */\n      0x24\n        /* \"#utility.yul\":2908:2909   */\n      0x00\n        /* \"#utility.yul\":2901:2916   */\n      revert\n        /* \"#utility.yul\":2928:3030   */\n    tag_42:\n        /* \"#utility.yul\":2970:2978   */\n      0x00\n        /* \"#utility.yul\":3017:3022   */\n      dup2\n        /* \"#utility.yul\":3014:3015   */\n      0x01\n        /* \"#utility.yul\":3010:3023   */\n      shr\n        /* \"#utility.yul\":2989:3023   */\n      swap1\n      pop\n        /* \"#utility.yul\":2928:3030   */\n      swap2\n      swap1\n      pop\n      jump\t// out\n        /* \"#utility.yul\":3036:3884   */\n    tag_43:\n        /* \"#utility.yul\":3097:3102   */\n      0x00\n        /* \"#utility.yul\":3104:3108   */\n      dup1\n        /* \"#utility.yul\":3128:3134   */\n      dup3\n        /* \"#utility.yul\":3119:3134   */\n      swap2\n      pop\n        /* \"#utility.yul\":3152:3157   */\n      dup4\n        /* \"#utility.yul\":3143:3157   */\n      swap1\n      pop\n        /* \"#utility.yul\":3166:3878   */\n    tag_82:\n        /* \"#utility.yul\":3187:3188   */\n      0x01\n        /* \"#utility.yul\":3177:3185   */\n      dup6\n        /* \"#utility.yul\":3174:3189   */\n      gt\n        /* \"#utility.yul\":3166:3878   */\n      iszero\n      tag_84\n      jumpi\n        /* \"#utility.yul\":3282:3286   */\n      dup1\n        /* \"#utility.yul\":3277:3280   */\n      dup7\n        /* \"#utility.yul\":3273:3287   */\n      div\n        /* \"#utility.yul\":3267:3271   */\n      dup2\n        /* \"#utility.yul\":3264:3288   */\n      gt\n        /* \"#utility.yul\":3261:3311   */\n      iszero\n      tag_85\n      jumpi\n        /* \"#utility.yul\":3291:3309   */\n      tag_86\n      tag_41\n      jump\t// in\n    tag_86:\n        /* \"#utility.yul\":3261:3311   */\n    tag_85:\n        /* \"#utility.yul\":3341:3342   */\n      0x01\n        /* \"#utility.yul\":3331:3339   */\n      dup6\n        /* \"#utility.yul\":3327:3343   */\n      and\n        /* \"#utility.yul\":3324:3775   */\n      iszero\n      tag_87\n      jumpi\n        /* \"#utility.yul\":3756:3760   */\n      dup1\n        /* \"#utility.yul\":3749:3754   */\n      dup3\n        /* \"#utility.yul\":3745:3761   */\n      mul\n        /* \"#utility.yul\":3736:3761   */\n      swap2\n      pop\n        /* \"#utility.yul\":3324:3775   */\n    tag_87:\n        /* \"#utility.yul\":3806:3810   */\n      dup1\n        /* \"#utility.yul\":3800:3804   */\n      dup2\n        /* \"#utility.yul\":3796:3811   */\n      mul\n        /* \"#utility.yul\":3788:3811   */\n      swap1\n      pop\n        /* \"#utility.yul\":3836:3868   */\n      tag_88\n        /* \"#utility.yul\":3859:3867   */\n      dup6\n        /* \"#utility.yul\":3836:3868   */\n      tag_42\n      jump\t// in\n    tag_88:\n        /* \"#utility.yul\":3824:3868   */\n      swap5\n      pop\n        /* \"#utility.yul\":3166:3878   */\n      jump(tag_82)\n    tag_84:\n        /* \"#utility.yul\":3036:3884   */\n      swap5\n      pop\n      swap5\n      swap3\n      pop\n      pop\n      pop\n      jump\t// out\n        /* \"#utility.yul\":3890:4963   */\n    tag_44:\n        /* \"#utility.yul\":3944:3949   */\n      0x00\n        /* \"#utility.yul\":4135:4143   */\n      dup3\n        /* \"#utility.yul\":4125:4165   */\n      tag_90\n      jumpi\n        /* \"#utility.yul\":4156:4157   */\n      0x01\n        /* \"#utility.yul\":4147:4157   */\n      swap1\n      pop\n        /* \"#utility.yul\":4158:4163   */\n      jump(tag_89)\n        /* \"#utility.yul\":4125:4165   */\n    tag_90:\n        /* \"#utility.yul\":4184:4188   */\n      dup2\n        /* \"#utility.yul\":4174:4210   */\n      tag_91\n      jumpi\n        /* \"#utility.yul\":4201:4202   */\n      0x00\n        /* \"#utility.yul\":4192:4202   */\n      swap1\n      pop\n        /* \"#utility.yul\":4203:4208   */\n      jump(tag_89)\n        /* \"#utility.yul\":4174:4210   */\n    tag_91:\n        /* \"#utility.yul\":4270:4274   */\n      dup2\n        /* \"#utility.yul\":4318:4319   */\n      0x01\n        /* \"#utility.yul\":4313:4340   */\n      dup2\n      eq\n      tag_93\n      jumpi\n        /* \"#utility.yul\":4354:4355   */\n      0x02\n        /* \"#utility.yul\":4349:4540   */\n      dup2\n      eq\n      tag_94\n      jumpi\n        /* \"#utility.yul\":4263:4540   */\n      jump(tag_92)\n        /* \"#utility.yul\":4313:4340   */\n    tag_93:\n        /* \"#utility.yul\":4331:4332   */\n      0x01\n        /* \"#utility.yul\":4322:4332   */\n      swap2\n      pop\n        /* \"#utility.yul\":4333:4338   */\n      pop\n      jump(tag_89)\n        /* \"#utility.yul\":4349:4540   */\n    tag_94:\n        /* \"#utility.yul\":4394:4397   */\n      0xff\n        /* \"#utility.yul\":4384:4392   */\n      dup5\n        /* \"#utility.yul\":4381:4398   */\n      gt\n        /* \"#utility.yul\":4378:4421   */\n      iszero\n      tag_95\n      jumpi\n        /* \"#utility.yul\":4401:4419   */\n      tag_96\n      tag_41\n      jump\t// in\n    tag_96:\n        /* \"#utility.yul\":4378:4421   */\n    tag_95:\n        /* \"#utility.yul\":4450:4458   */\n      dup4\n        /* \"#utility.yul\":4447:4448   */\n      0x02\n        /* \"#utility.yul\":4443:4459   */\n      exp\n        /* \"#utility.yul\":4434:4459   */\n      swap2\n      pop\n        /* \"#utility.yul\":4485:4488   */\n      dup5\n        /* \"#utility.yul\":4478:4483   */\n      dup3\n        /* \"#utility.yul\":4475:4489   */\n      gt\n        /* \"#utility.yul\":4472:4512   */\n      iszero\n      tag_97\n      jumpi\n        /* \"#utility.yul\":4492:4510   */\n      tag_98\n      tag_41\n      jump\t// in\n    tag_98:\n        /* \"#utility.yul\":4472:4512   */\n    tag_97:\n        /* \"#utility.yul\":4525:4530   */\n      pop\n      jump(tag_89)\n        /* \"#utility.yul\":4263:4540   */\n    tag_92:\n      pop\n        /* \"#utility.yul\":4649:4651   */\n      0x20\n        /* \"#utility.yul\":4639:4647   */\n      dup4\n        /* \"#utility.yul\":4636:4652   */\n      lt\n        /* \"#utility.yul\":4630:4633   */\n      0x0133\n        /* \"#utility.yul\":4624:4628   */\n      dup4\n        /* \"#utility.yul\":4621:4634   */\n      lt\n        /* \"#utility.yul\":4617:4653   */\n      and\n        /* \"#utility.yul\":4599:4601   */\n      0x4e\n        /* \"#utility.yul\":4589:4597   */\n      dup5\n        /* \"#utility.yul\":4586:4602   */\n      lt\n        /* \"#utility.yul\":4581:4583   */\n      0x0b\n        /* \"#utility.yul\":4575:4579   */\n      dup5\n        /* \"#utility.yul\":4572:4584   */\n      lt\n        /* \"#utility.yul\":4568:4603   */\n      and\n        /* \"#utility.yul\":4552:4663   */\n      or\n        /* \"#utility.yul\":4549:4795   */\n      iszero\n      tag_99\n      jumpi\n        /* \"#utility.yul\":4705:4713   */\n      dup3\n        /* \"#utility.yul\":4699:4703   */\n      dup3\n        /* \"#utility.yul\":4695:4714   */\n      exp\n        /* \"#utility.yul\":4686:4714   */\n      swap1\n      pop\n        /* \"#utility.yul\":4740:4743   */\n      dup4\n        /* \"#utility.yul\":4733:4738   */\n      dup2\n        /* \"#utility.yul\":4730:4744   */\n      gt\n        /* \"#utility.yul\":4727:4767   */\n      iszero\n      tag_100\n      jumpi\n        /* \"#utility.yul\":4747:4765   */\n      tag_101\n      tag_41\n      jump\t// in\n    tag_101:\n        /* \"#utility.yul\":4727:4767   */\n    tag_100:\n        /* \"#utility.yul\":4780:4785   */\n      jump(tag_89)\n        /* \"#utility.yul\":4549:4795   */\n    tag_99:\n        /* \"#utility.yul\":4820:4862   */\n      tag_102\n        /* \"#utility.yul\":4858:4861   */\n      dup5\n        /* \"#utility.yul\":4848:4856   */\n      dup5\n        /* \"#utility.yul\":4842:4846   */\n      dup5\n        /* \"#utility.yul\":4839:4840   */\n      0x01\n        /* \"#utility.yul\":4820:4862   */\n      tag_43\n      jump\t// in\n    tag_102:\n        /* \"#utility.yul\":4805:4862   */\n      swap3\n      pop\n      swap1\n      pop\n        /* \"#utility.yul\":4894:4898   */\n      dup2\n        /* \"#utility.yul\":4889:4892   */\n      dup5\n        /* \"#utility.yul\":4885:4899   */\n      div\n        /* \"#utility.yul\":4878:4883   */\n      dup2\n        /* \"#utility.yul\":4875:4900   */\n      gt\n        /* \"#utility.yul\":4872:4923   */\n      iszero\n      tag_103\n      jumpi\n        /* \"#utility.yul\":4903:4921   */\n      tag_104\n      tag_41\n      jump\t// in\n    tag_104:\n        /* \"#utility.yul\":4872:4923   */\n    tag_103:\n        /* \"#utility.yul\":4952:4956   */\n      dup2\n        /* \"#utility.yul\":4945:4950   */\n      dup2\n        /* \"#utility.yul\":4941:4957   */\n      mul\n        /* \"#utility.yul\":4932:4957   */\n      swap1\n      pop\n        /* \"#utility.yul\":3890:4963   */\n    tag_89:\n      swap4\n      swap3\n      pop\n      pop\n      pop\n      jump\t// out\n        /* \"#utility.yul\":4969:5254   */\n    tag_23:\n        /* \"#utility.yul\":5029:5034   */\n      0x00\n        /* \"#utility.yul\":5053:5076   */\n      tag_106\n        /* \"#utility.yul\":5071:5075   */\n      dup3\n        /* \"#utility.yul\":5053:5076   */\n      tag_33\n      jump\t// in\n    tag_106:\n        /* \"#utility.yul\":5045:5076   */\n      swap2\n      pop\n        /* \"#utility.yul\":5097:5124   */\n      tag_107\n        /* \"#utility.yul\":5115:5123   */\n      dup4\n        /* \"#utility.yul\":5097:5124   */\n      tag_33\n      jump\t// in\n    tag_107:\n        /* \"#utility.yul\":5085:5124   */\n      swap3\n      pop\n        /* \"#utility.yul\":5143:5247   */\n      tag_108\n        /* \"#utility.yul\":5180:5246   */\n      0xffffffffffffffffffffffffffffffffffffffffffffffffffffffffffffffff\n        /* \"#utility.yul\":5170:5178   */\n      dup5\n        /* \"#utility.yul\":5164:5168   */\n      dup5\n        /* \"#utility.yul\":5143:5247   */\n      tag_44\n      jump\t// in\n    tag_108:\n        /* \"#utility.yul\":5134:5247   */\n      swap1\n      pop\n        /* \"#utility.yul\":4969:5254   */\n      swap3\n      swap2\n      pop\n      pop\n      jump\t// out\n        /* \"#utility.yul\":5260:5632   */\n    tag_26:\n        /* \"#utility.yul\":5299:5303   */\n      0x00\n        /* \"#utility.yul\":5319:5338   */\n      tag_110\n        /* \"#utility.yul\":5336:5337   */\n      dup3\n        /* \"#utility.yul\":5319:5338   */\n      tag_37\n      jump\t// in\n    tag_110:\n        /* \"#utility.yul\":5314:5338   */\n      swap2\n      pop\n        /* \"#utility.yul\":5352:5371   */\n      tag_111\n        /* \"#utility.yul\":5369:5370   */\n      dup4\n        /* \"#utility.yul\":5352:5371   */\n      tag_37\n      jump\t// in\n    tag_111:\n        /* \"#utility.yul\":5347:5371   */\n      swap3\n      pop\n        /* \"#utility.yul\":5395:5396   */\n      dup3\n        /* \"#utility.yul\":5392:5393   */\n      dup3\n        /* \"#utility.yul\":5388:5397   */\n      sub\n        /* \"#utility.yul\":5380:5397   */\n      swap1\n      pop\n        /* \"#utility.yul\":5589:5590   */\n      dup2\n        /* \"#utility.yul\":5583:5587   */\n      dup2\n        /* \"#utility.yul\":5579:5591   */\n      slt\n        /* \"#utility.yul\":5575:5576   */\n      0x00\n        /* \"#utility.yul\":5572:5573   */\n      dup5\n        /* \"#utility.yul\":5568:5577   */\n      slt\n        /* \"#utility.yul\":5564:5592   */\n      and\n        /* \"#utility.yul\":5547:5548   */\n      dup3\n        /* \"#utility.yul\":5541:5545   */\n      dup3\n        /* \"#utility.yul\":5537:5549   */\n      sgt\n        /* \"#utility.yul\":5532:5533   */\n      0x00\n        /* \"#utility.yul\":5529:5530   */\n      dup6\n        /* \"#utility.yul\":5525:5534   */\n      slt\n        /* \"#utility.yul\":5518:5535   */\n      iszero\n        /* \"#utility.yul\":5514:5550   */\n      and\n        /* \"#utility.yul\":5498:5602   */\n      or\n        /* \"#utility.yul\":5495:5625   */\n      iszero\n      tag_112\n      jumpi\n        /* \"#utility.yul\":5605:5623   */\n      tag_113\n      tag_41\n      jump\t// in\n    tag_113:\n        /* \"#utility.yul\":5495:5625   */\n    tag_112:\n        /* \"#utility.yul\":5260:5632   */\n      swap3\n      swap2\n      pop\n      pop\n      jump\t// out\n        /* \"#utility.yul\":5638:5829   */\n    tag_29:\n        /* \"#utility.yul\":5678:5681   */\n      0x00\n        /* \"#utility.yul\":5697:5717   */\n      tag_115\n        /* \"#utility.yul\":5715:5716   */\n      dup3\n        /* \"#utility.yul\":5697:5717   */\n      tag_33\n      jump\t// in\n    tag_115:\n        /* \"#utility.yul\":5692:5717   */\n      swap2\n      pop\n        /* \"#utility.yul\":5731:5751   */\n      tag_116\n        /* \"#utility.yul\":5749:5750   */\n      dup4\n        /* \"#utility.yul\":5731:5751   */\n      tag_33\n      jump\t// in\n    tag_116:\n        /* \"#utility.yul\":5726:5751   */\n      swap3\n      pop\n        /* \"#utility.yul\":5774:5775   */\n      dup3\n        /* \"#utility.yul\":5771:5772   */\n      dup3\n        /* \"#utility.yul\":5767:5776   */\n      add\n        /* \"#utility.yul\":5760:5776   */\n      swap1\n      pop\n        /* \"#utility.yul\":5795:5798   */\n      dup1\n        /* \"#utility.yul\":5792:5793   */\n      dup3\n        /* \"#utility.yul\":5789:5799   */\n      gt\n        /* \"#utility.yul\":5786:5822   */\n      iszero\n      tag_117\n      jumpi\n        /* \"#utility.yul\":5802:5820   */\n      tag_118\n      tag_41\n      jump\t// in\n    tag_118:\n        /* \"#utility.yul\":5786:5822   */\n    tag_117:\n        /* \"#utility.yul\":5638:5829   */\n      swap3\n      swap2\n      pop\n      pop\n      jump\t// out\n\n    auxdata: 0xa26469706673582212201f14bb1ebd8fe02728a9a5c55f87b9e79236d5c2e3fc903bf3515df34fe0a19f64736f6c63430008110033\n}\n",
				"bytecode": {
					"linkReferences": {},
					"object": "6104c1610053600b82828239805160001a607314610046577f4e487b7100000000000000000000000000000000000000000000000000000000600052600060045260246000fd5b30600052607381538281f3fe730000000000000000000000000000000000000000301460806040526004361061004b5760003560e01c80634f4752ba14610050578063568c138514610080578063cad0899b146100b0575b600080fd5b61006a6004803603810190610065919061015d565b6100e0565b60405161007791906101ac565b60405180910390f35b61009a600480360381019061009591906101fd565b6100f6565b6040516100a7919061024c565b60405180910390f35b6100ca60048036038101906100c5919061015d565b61010c565b6040516100d791906101ac565b60405180910390f35b600081836100ee91906103c9565b905092915050565b600081836101049190610414565b905092915050565b6000818361011a9190610457565b905092915050565b600080fd5b6000819050919050565b61013a81610127565b811461014557600080fd5b50565b60008135905061015781610131565b92915050565b6000806040838503121561017457610173610122565b5b600061018285828601610148565b925050602061019385828601610148565b9150509250929050565b6101a681610127565b82525050565b60006020820190506101c1600083018461019d565b92915050565b6000819050919050565b6101da816101c7565b81146101e557600080fd5b50565b6000813590506101f7816101d1565b92915050565b6000806040838503121561021457610213610122565b5b6000610222858286016101e8565b9250506020610233858286016101e8565b9150509250929050565b610246816101c7565b82525050565b6000602082019050610261600083018461023d565b92915050565b7f4e487b7100000000000000000000000000000000000000000000000000000000600052601160045260246000fd5b60008160011c9050919050565b6000808291508390505b60018511156102ed578086048111156102c9576102c8610267565b5b60018516156102d85780820291505b80810290506102e685610296565b94506102ad565b94509492505050565b60008261030657600190506103c2565b8161031457600090506103c2565b816001811461032a576002811461033457610363565b60019150506103c2565b60ff84111561034657610345610267565b5b8360020a91508482111561035d5761035c610267565b5b506103c2565b5060208310610133831016604e8410600b84101617156103985782820a90508381111561039357610392610267565b5b6103c2565b6103a584848460016102a3565b925090508184048111156103bc576103bb610267565b5b81810290505b9392505050565b60006103d482610127565b91506103df83610127565b925061040c7fffffffffffffffffffffffffffffffffffffffffffffffffffffffffffffffff84846102f6565b905092915050565b600061041f826101c7565b915061042a836101c7565b925082820390508181126000841216828213600085121516171561045157610450610267565b5b92915050565b600061046282610127565b915061046d83610127565b925082820190508082111561048557610484610267565b5b9291505056fea26469706673582212201f14bb1ebd8fe02728a9a5c55f87b9e79236d5c2e3fc903bf3515df34fe0a19f64736f6c63430008110033",
					"opcodes": "PUSH2 0x4C1 PUSH2 0x53 PUSH1 0xB DUP3 DUP3 DUP3 CODECOPY DUP1 MLOAD PUSH1 0x0 BYTE PUSH1 0x73 EQ PUSH2 0x46 JUMPI PUSH32 0x4E487B7100000000000000000000000000000000000000000000000000000000 PUSH1 0x0 MSTORE PUSH1 0x0 PUSH1 0x4 MSTORE PUSH1 0x24 PUSH1 0x0 REVERT JUMPDEST ADDRESS PUSH1 0x0 MSTORE PUSH1 0x73 DUP2 MSTORE8 DUP3 DUP2 RETURN INVALID PUSH20 0x0 ADDRESS EQ PUSH1 0x80 PUSH1 0x40 MSTORE PUSH1 0x4 CALLDATASIZE LT PUSH2 0x4B JUMPI PUSH1 0x0 CALLDATALOAD PUSH1 0xE0 SHR DUP1 PUSH4 0x4F4752BA EQ PUSH2 0x50 JUMPI DUP1 PUSH4 0x568C1385 EQ PUSH2 0x80 JUMPI DUP1 PUSH4 0xCAD0899B EQ PUSH2 0xB0 JUMPI JUMPDEST PUSH1 0x0 DUP1 REVERT JUMPDEST PUSH2 0x6A PUSH1 0x4 DUP1 CALLDATASIZE SUB DUP2 ADD SWAP1 PUSH2 0x65 SWAP2 SWAP1 PUSH2 0x15D JUMP JUMPDEST PUSH2 0xE0 JUMP JUMPDEST PUSH1 0x40 MLOAD PUSH2 0x77 SWAP2 SWAP1 PUSH2 0x1AC JUMP JUMPDEST PUSH1 0x40 MLOAD DUP1 SWAP2 SUB SWAP1 RETURN JUMPDEST PUSH2 0x9A PUSH1 0x4 DUP1 CALLDATASIZE SUB DUP2 ADD SWAP1 PUSH2 0x95 SWAP2 SWAP1 PUSH2 0x1FD JUMP JUMPDEST PUSH2 0xF6 JUMP JUMPDEST PUSH1 0x40 MLOAD PUSH2 0xA7 SWAP2 SWAP1 PUSH2 0x24C JUMP JUMPDEST PUSH1 0x40 MLOAD DUP1 SWAP2 SUB SWAP1 RETURN JUMPDEST PUSH2 0xCA PUSH1 0x4 DUP1 CALLDATASIZE SUB DUP2 ADD SWAP1 PUSH2 0xC5 SWAP2 SWAP1 PUSH2 0x15D JUMP JUMPDEST PUSH2 0x10C JUMP JUMPDEST PUSH1 0x40 MLOAD PUSH2 0xD7 SWAP2 SWAP1 PUSH2 0x1AC JUMP JUMPDEST PUSH1 0x40 MLOAD DUP1 SWAP2 SUB SWAP1 RETURN JUMPDEST PUSH1 0x0 DUP2 DUP4 PUSH2 0xEE SWAP2 SWAP1 PUSH2 0x3C9 JUMP JUMPDEST SWAP1 POP SWAP3 SWAP2 POP POP JUMP JUMPDEST PUSH1 0x0 DUP2 DUP4 PUSH2 0x104 SWAP2 SWAP1 PUSH2 0x414 JUMP JUMPDEST SWAP1 POP SWAP3 SWAP2 POP POP JUMP JUMPDEST PUSH1 0x0 DUP2 DUP4 PUSH2 0x11A SWAP2 SWAP1 PUSH2 0x457 JUMP JUMPDEST SWAP1 POP SWAP3 SWAP2 POP POP JUMP JUMPDEST PUSH1 0x0 DUP1 REVERT JUMPDEST PUSH1 0x0 DUP2 SWAP1 POP SWAP2 SWAP1 POP JUMP JUMPDEST PUSH2 0x13A DUP2 PUSH2 0x127 JUMP JUMPDEST DUP2 EQ PUSH2 0x145 JUMPI PUSH1 0x0 DUP1 REVERT JUMPDEST POP JUMP JUMPDEST PUSH1 0x0 DUP2 CALLDATALOAD SWAP1 POP PUSH2 0x157 DUP2 PUSH2 0x131 JUMP JUMPDEST SWAP3 SWAP2 POP POP JUMP JUMPDEST PUSH1 0x0 DUP1 PUSH1 0x40 DUP4 DUP6 SUB SLT ISZERO PUSH2 0x174 JUMPI PUSH2 0x173 PUSH2 0x122 JUMP JUMPDEST JUMPDEST PUSH1 0x0 PUSH2 0x182 DUP6 DUP3 DUP7 ADD PUSH2 0x148 JUMP JUMPDEST SWAP3 POP POP PUSH1 0x20 PUSH2 0x193 DUP6 DUP3 DUP7 ADD PUSH2 0x148 JUMP JUMPDEST SWAP2 POP POP SWAP3 POP SWAP3 SWAP1 POP JUMP JUMPDEST PUSH2 0x1A6 DUP2 PUSH2 0x127 JUMP JUMPDEST DUP3 MSTORE POP POP JUMP JUMPDEST PUSH1 0x0 PUSH1 0x20 DUP3 ADD SWAP1 POP PUSH2 0x1C1 PUSH1 0x0 DUP4 ADD DUP5 PUSH2 0x19D JUMP JUMPDEST SWAP3 SWAP2 POP POP JUMP JUMPDEST PUSH1 0x0 DUP2 SWAP1 POP SWAP2 SWAP1 POP JUMP JUMPDEST PUSH2 0x1DA DUP2 PUSH2 0x1C7 JUMP JUMPDEST DUP2 EQ PUSH2 0x1E5 JUMPI PUSH1 0x0 DUP1 REVERT JUMPDEST POP JUMP JUMPDEST PUSH1 0x0 DUP2 CALLDATALOAD SWAP1 POP PUSH2 0x1F7 DUP2 PUSH2 0x1D1 JUMP JUMPDEST SWAP3 SWAP2 POP POP JUMP JUMPDEST PUSH1 0x0 DUP1 PUSH1 0x40 DUP4 DUP6 SUB SLT ISZERO PUSH2 0x214 JUMPI PUSH2 0x213 PUSH2 0x122 JUMP JUMPDEST JUMPDEST PUSH1 0x0 PUSH2 0x222 DUP6 DUP3 DUP7 ADD PUSH2 0x1E8 JUMP JUMPDEST SWAP3 POP POP PUSH1 0x20 PUSH2 0x233 DUP6 DUP3 DUP7 ADD PUSH2 0x1E8 JUMP JUMPDEST SWAP2 POP POP SWAP3 POP SWAP3 SWAP1 POP JUMP JUMPDEST PUSH2 0x246 DUP2 PUSH2 0x1C7 JUMP JUMPDEST DUP3 MSTORE POP POP JUMP JUMPDEST PUSH1 0x0 PUSH1 0x20 DUP3 ADD SWAP1 POP PUSH2 0x261 PUSH1 0x0 DUP4 ADD DUP5 PUSH2 0x23D JUMP JUMPDEST SWAP3 SWAP2 POP POP JUMP JUMPDEST PUSH32 0x4E487B7100000000000000000000000000000000000000000000000000000000 PUSH1 0x0 MSTORE PUSH1 0x11 PUSH1 0x4 MSTORE PUSH1 0x24 PUSH1 0x0 REVERT JUMPDEST PUSH1 0x0 DUP2 PUSH1 0x1 SHR SWAP1 POP SWAP2 SWAP1 POP JUMP JUMPDEST PUSH1 0x0 DUP1 DUP3 SWAP2 POP DUP4 SWAP1 POP JUMPDEST PUSH1 0x1 DUP6 GT ISZERO PUSH2 0x2ED JUMPI DUP1 DUP7 DIV DUP2 GT ISZERO PUSH2 0x2C9 JUMPI PUSH2 0x2C8 PUSH2 0x267 JUMP JUMPDEST JUMPDEST PUSH1 0x1 DUP6 AND ISZERO PUSH2 0x2D8 JUMPI DUP1 DUP3 MUL SWAP2 POP JUMPDEST DUP1 DUP2 MUL SWAP1 POP PUSH2 0x2E6 DUP6 PUSH2 0x296 JUMP JUMPDEST SWAP5 POP PUSH2 0x2AD JUMP JUMPDEST SWAP5 POP SWAP5 SWAP3 POP POP POP JUMP JUMPDEST PUSH1 0x0 DUP3 PUSH2 0x306 JUMPI PUSH1 0x1 SWAP1 POP PUSH2 0x3C2 JUMP JUMPDEST DUP2 PUSH2 0x314 JUMPI PUSH1 0x0 SWAP1 POP PUSH2 0x3C2 JUMP JUMPDEST DUP2 PUSH1 0x1 DUP2 EQ PUSH2 0x32A JUMPI PUSH1 0x2 DUP2 EQ PUSH2 0x334 JUMPI PUSH2 0x363 JUMP JUMPDEST PUSH1 0x1 SWAP2 POP POP PUSH2 0x3C2 JUMP JUMPDEST PUSH1 0xFF DUP5 GT ISZERO PUSH2 0x346 JUMPI PUSH2 0x345 PUSH2 0x267 JUMP JUMPDEST JUMPDEST DUP4 PUSH1 0x2 EXP SWAP2 POP DUP5 DUP3 GT ISZERO PUSH2 0x35D JUMPI PUSH2 0x35C PUSH2 0x267 JUMP JUMPDEST JUMPDEST POP PUSH2 0x3C2 JUMP JUMPDEST POP PUSH1 0x20 DUP4 LT PUSH2 0x133 DUP4 LT AND PUSH1 0x4E DUP5 LT PUSH1 0xB DUP5 LT AND OR ISZERO PUSH2 0x398 JUMPI DUP3 DUP3 EXP SWAP1 POP DUP4 DUP2 GT ISZERO PUSH2 0x393 JUMPI PUSH2 0x392 PUSH2 0x267 JUMP JUMPDEST JUMPDEST PUSH2 0x3C2 JUMP JUMPDEST PUSH2 0x3A5 DUP5 DUP5 DUP5 PUSH1 0x1 PUSH2 0x2A3 JUMP JUMPDEST SWAP3 POP SWAP1 POP DUP2 DUP5 DIV DUP2 GT ISZERO PUSH2 0x3BC JUMPI PUSH2 0x3BB PUSH2 0x267 JUMP JUMPDEST JUMPDEST DUP2 DUP2 MUL SWAP1 POP JUMPDEST SWAP4 SWAP3 POP POP POP JUMP JUMPDEST PUSH1 0x0 PUSH2 0x3D4 DUP3 PUSH2 0x127 JUMP JUMPDEST SWAP2 POP PUSH2 0x3DF DUP4 PUSH2 0x127 JUMP JUMPDEST SWAP3 POP PUSH2 0x40C PUSH32 0xFFFFFFFFFFFFFFFFFFFFFFFFFFFFFFFFFFFFFFFFFFFFFFFFFFFFFFFFFFFFFFFF DUP5 DUP5 PUSH2 0x2F6 JUMP JUMPDEST SWAP1 POP SWAP3 SWAP2 POP POP JUMP JUMPDEST PUSH1 0x0 PUSH2 0x41F DUP3 PUSH2 0x1C7 JUMP JUMPDEST SWAP2 POP PUSH2 0x42A DUP4 PUSH2 0x1C7 JUMP JUMPDEST SWAP3 POP DUP3 DUP3 SUB SWAP1 POP DUP2 DUP2 SLT PUSH1 0x0 DUP5 SLT AND DUP3 DUP3 SGT PUSH1 0x0 DUP6 SLT ISZERO AND OR ISZERO PUSH2 0x451 JUMPI PUSH2 0x450 PUSH2 0x267 JUMP JUMPDEST JUMPDEST SWAP3 SWAP2 POP POP JUMP JUMPDEST PUSH1 0x0 PUSH2 0x462 DUP3 PUSH2 0x127 JUMP JUMPDEST SWAP2 POP PUSH2 0x46D DUP4 PUSH2 0x127 JUMP JUMPDEST SWAP3 POP DUP3 DUP3 ADD SWAP1 POP DUP1 DUP3 GT ISZERO PUSH2 0x485 JUMPI PUSH2 0x484 PUSH2 0x267 JUMP JUMPDEST JUMPDEST SWAP3 SWAP2 POP POP JUMP INVALID LOG2 PUSH5 0x6970667358 0x22 SLT KECCAK256 0x1F EQ 0xBB 0x1E 0xBD DUP16 0xE0 0x27 0x28 0xA9 0xA5 0xC5 0x5F DUP8 0xB9 0xE7 SWAP3 CALLDATASIZE 0xD5 0xC2 0xE3 0xFC SWAP1 EXTCODESIZE RETURN MLOAD 0x5D RETURN 0x4F 0xE0 LOG1 SWAP16 PUSH5 0x736F6C6343 STOP ADDMOD GT STOP CALLER "
				},
				"gasEstimates": {
					"creation": {
						"codeDepositCost": "243400",
						"executionCost": "312",
						"totalCost": "243712"
					},
					"external": {
						"diff(int256,int256)": "infinite",
						"expo(uint256,uint256)": "infinite",
						"sum(uint256,uint256)": "infinite"
					}
				},
				"methodIdentifiers": {
					"diff(int256,int256)": "568c1385",
					"expo(uint256,uint256)": "4f4752ba",
					"sum(uint256,uint256)": "cad0899b"
				}
			},
			"storageLayout": {
				"storage": [],
				"types": null
			},
			"userdoc": {
				"kind": "user",
				"methods": {},
				"version": 1
			}
		}
	}
}