{
	"Labs (August)/try_catch_library/encode_decode.sol": {
		"AEencoding": {
			"abi": [
				{
					"inputs": [
						{
							"internalType": "string",
							"name": "_make",
							"type": "string"
						},
						{
							"internalType": "uint256",
							"name": "_year",
							"type": "uint256"
						},
						{
							"internalType": "uint256",
							"name": "gen",
							"type": "uint256"
						}
					],
					"name": "Packed",
					"outputs": [
						{
							"internalType": "bytes",
							"name": "concatinate",
							"type": "bytes"
						}
					],
					"stateMutability": "pure",
					"type": "function"
				},
				{
					"inputs": [
						{
							"internalType": "string",
							"name": "_make",
							"type": "string"
						},
						{
							"internalType": "uint256",
							"name": "_year",
							"type": "uint256"
						},
						{
							"internalType": "uint256",
							"name": "gen",
							"type": "uint256"
						}
					],
					"name": "lap",
					"outputs": [
						{
							"internalType": "bytes",
							"name": "concatinate",
							"type": "bytes"
						}
					],
					"stateMutability": "pure",
					"type": "function"
				}
			],
			"devdoc": {
				"kind": "dev",
				"methods": {},
				"version": 1
			},
			"evm": {
				"assembly": "    /* \"Labs (August)/try_catch_library/encode_decode.sol\":2201:2823  contract AEencoding{... */\n  mstore(0x40, 0x80)\n  callvalue\n  dup1\n  iszero\n  tag_1\n  jumpi\n  0x00\n  dup1\n  revert\ntag_1:\n  pop\n  dataSize(sub_0)\n  dup1\n  dataOffset(sub_0)\n  0x00\n  codecopy\n  0x00\n  return\nstop\n\nsub_0: assembly {\n        /* \"Labs (August)/try_catch_library/encode_decode.sol\":2201:2823  contract AEencoding{... */\n      mstore(0x40, 0x80)\n      callvalue\n      dup1\n      iszero\n      tag_1\n      jumpi\n      0x00\n      dup1\n      revert\n    tag_1:\n      pop\n      jumpi(tag_2, lt(calldatasize, 0x04))\n      shr(0xe0, calldataload(0x00))\n      dup1\n      0xcb877884\n      eq\n      tag_3\n      jumpi\n      dup1\n      0xf45b835a\n      eq\n      tag_4\n      jumpi\n    tag_2:\n      0x00\n      dup1\n      revert\n        /* \"Labs (August)/try_catch_library/encode_decode.sol\":2568:2812  function Packed(string memory _make, uint _year, uint gen)public pure  returns (bytes memory concatinate){... */\n    tag_3:\n      tag_5\n      0x04\n      dup1\n      calldatasize\n      sub\n      dup2\n      add\n      swap1\n      tag_6\n      swap2\n      swap1\n      tag_7\n      jump\t// in\n    tag_6:\n      tag_8\n      jump\t// in\n    tag_5:\n      mload(0x40)\n      tag_9\n      swap2\n      swap1\n      tag_10\n      jump\t// in\n    tag_9:\n      mload(0x40)\n      dup1\n      swap2\n      sub\n      swap1\n      return\n        /* \"Labs (August)/try_catch_library/encode_decode.sol\":2333:2556  function lap(string memory _make, uint _year, uint gen)public pure  returns (bytes memory concatinate){... */\n    tag_4:\n      tag_11\n      0x04\n      dup1\n      calldatasize\n      sub\n      dup2\n      add\n      swap1\n      tag_12\n      swap2\n      swap1\n      tag_7\n      jump\t// in\n    tag_12:\n      tag_13\n      jump\t// in\n    tag_11:\n      mload(0x40)\n      tag_14\n      swap2\n      swap1\n      tag_10\n      jump\t// in\n    tag_14:\n      mload(0x40)\n      dup1\n      swap2\n      sub\n      swap1\n      return\n        /* \"Labs (August)/try_catch_library/encode_decode.sol\":2568:2812  function Packed(string memory _make, uint _year, uint gen)public pure  returns (bytes memory concatinate){... */\n    tag_8:\n        /* \"Labs (August)/try_catch_library/encode_decode.sol\":2648:2672  bytes memory concatinate */\n      0x60\n        /* \"Labs (August)/try_catch_library/encode_decode.sol\":2684:2705  Laptop memory newlaps */\n      tag_16\n      tag_17\n      jump\t// in\n    tag_16:\n        /* \"Labs (August)/try_catch_library/encode_decode.sol\":2725:2750  Laptop(_make,_year , gen) */\n      mload(0x40)\n      dup1\n      0x60\n      add\n      0x40\n      mstore\n      dup1\n        /* \"Labs (August)/try_catch_library/encode_decode.sol\":2732:2737  _make */\n      dup7\n        /* \"Labs (August)/try_catch_library/encode_decode.sol\":2725:2750  Laptop(_make,_year , gen) */\n      dup2\n      mstore\n      0x20\n      add\n        /* \"Labs (August)/try_catch_library/encode_decode.sol\":2738:2743  _year */\n      dup6\n        /* \"Labs (August)/try_catch_library/encode_decode.sol\":2725:2750  Laptop(_make,_year , gen) */\n      dup2\n      mstore\n      0x20\n      add\n        /* \"Labs (August)/try_catch_library/encode_decode.sol\":2746:2749  gen */\n      dup5\n        /* \"Labs (August)/try_catch_library/encode_decode.sol\":2725:2750  Laptop(_make,_year , gen) */\n      dup2\n      mstore\n      pop\n        /* \"Labs (August)/try_catch_library/encode_decode.sol\":2716:2750  newlaps= Laptop(_make,_year , gen) */\n      swap1\n      pop\n        /* \"Labs (August)/try_catch_library/encode_decode.sol\":2785:2790  _make */\n      dup5\n        /* \"Labs (August)/try_catch_library/encode_decode.sol\":2791:2796  _year */\n      dup5\n        /* \"Labs (August)/try_catch_library/encode_decode.sol\":2798:2801  gen */\n      dup5\n        /* \"Labs (August)/try_catch_library/encode_decode.sol\":2768:2802  abi.encodePacked(_make,_year, gen) */\n      add(0x20, mload(0x40))\n      tag_18\n      swap4\n      swap3\n      swap2\n      swap1\n      tag_19\n      jump\t// in\n    tag_18:\n      mload(0x40)\n      0x20\n      dup2\n      dup4\n      sub\n      sub\n      dup2\n      mstore\n      swap1\n      0x40\n      mstore\n        /* \"Labs (August)/try_catch_library/encode_decode.sol\":2761:2802  return abi.encodePacked(_make,_year, gen) */\n      swap2\n      pop\n      pop\n        /* \"Labs (August)/try_catch_library/encode_decode.sol\":2568:2812  function Packed(string memory _make, uint _year, uint gen)public pure  returns (bytes memory concatinate){... */\n      swap4\n      swap3\n      pop\n      pop\n      pop\n      jump\t// out\n        /* \"Labs (August)/try_catch_library/encode_decode.sol\":2333:2556  function lap(string memory _make, uint _year, uint gen)public pure  returns (bytes memory concatinate){... */\n    tag_13:\n        /* \"Labs (August)/try_catch_library/encode_decode.sol\":2410:2434  bytes memory concatinate */\n      0x60\n        /* \"Labs (August)/try_catch_library/encode_decode.sol\":2446:2466  Laptop memory newlap */\n      tag_21\n      tag_17\n      jump\t// in\n    tag_21:\n        /* \"Labs (August)/try_catch_library/encode_decode.sol\":2485:2510  Laptop(_make,_year , gen) */\n      mload(0x40)\n      dup1\n      0x60\n      add\n      0x40\n      mstore\n      dup1\n        /* \"Labs (August)/try_catch_library/encode_decode.sol\":2492:2497  _make */\n      dup7\n        /* \"Labs (August)/try_catch_library/encode_decode.sol\":2485:2510  Laptop(_make,_year , gen) */\n      dup2\n      mstore\n      0x20\n      add\n        /* \"Labs (August)/try_catch_library/encode_decode.sol\":2498:2503  _year */\n      dup6\n        /* \"Labs (August)/try_catch_library/encode_decode.sol\":2485:2510  Laptop(_make,_year , gen) */\n      dup2\n      mstore\n      0x20\n      add\n        /* \"Labs (August)/try_catch_library/encode_decode.sol\":2506:2509  gen */\n      dup5\n        /* \"Labs (August)/try_catch_library/encode_decode.sol\":2485:2510  Laptop(_make,_year , gen) */\n      dup2\n      mstore\n      pop\n        /* \"Labs (August)/try_catch_library/encode_decode.sol\":2477:2510  newlap= Laptop(_make,_year , gen) */\n      swap1\n      pop\n        /* \"Labs (August)/try_catch_library/encode_decode.sol\":2539:2545  newlap */\n      dup1\n        /* \"Labs (August)/try_catch_library/encode_decode.sol\":2528:2546  abi.encode(newlap) */\n      add(0x20, mload(0x40))\n      tag_22\n      swap2\n      swap1\n      tag_23\n      jump\t// in\n    tag_22:\n      mload(0x40)\n      0x20\n      dup2\n      dup4\n      sub\n      sub\n      dup2\n      mstore\n      swap1\n      0x40\n      mstore\n        /* \"Labs (August)/try_catch_library/encode_decode.sol\":2521:2546  return abi.encode(newlap) */\n      swap2\n      pop\n      pop\n        /* \"Labs (August)/try_catch_library/encode_decode.sol\":2333:2556  function lap(string memory _make, uint _year, uint gen)public pure  returns (bytes memory concatinate){... */\n      swap4\n      swap3\n      pop\n      pop\n      pop\n      jump\t// out\n    tag_17:\n      mload(0x40)\n      dup1\n      0x60\n      add\n      0x40\n      mstore\n      dup1\n      0x60\n      dup2\n      mstore\n      0x20\n      add\n      0x00\n      dup2\n      mstore\n      0x20\n      add\n      0x00\n      dup2\n      mstore\n      pop\n      swap1\n      jump\t// out\n        /* \"#utility.yul\":7:82   */\n    tag_24:\n        /* \"#utility.yul\":40:46   */\n      0x00\n        /* \"#utility.yul\":73:75   */\n      0x40\n        /* \"#utility.yul\":67:76   */\n      mload\n        /* \"#utility.yul\":57:76   */\n      swap1\n      pop\n        /* \"#utility.yul\":7:82   */\n      swap1\n      jump\t// out\n        /* \"#utility.yul\":88:205   */\n    tag_25:\n        /* \"#utility.yul\":197:198   */\n      0x00\n        /* \"#utility.yul\":194:195   */\n      dup1\n        /* \"#utility.yul\":187:199   */\n      revert\n        /* \"#utility.yul\":211:328   */\n    tag_26:\n        /* \"#utility.yul\":320:321   */\n      0x00\n        /* \"#utility.yul\":317:318   */\n      dup1\n        /* \"#utility.yul\":310:322   */\n      revert\n        /* \"#utility.yul\":334:451   */\n    tag_27:\n        /* \"#utility.yul\":443:444   */\n      0x00\n        /* \"#utility.yul\":440:441   */\n      dup1\n        /* \"#utility.yul\":433:445   */\n      revert\n        /* \"#utility.yul\":457:574   */\n    tag_28:\n        /* \"#utility.yul\":566:567   */\n      0x00\n        /* \"#utility.yul\":563:564   */\n      dup1\n        /* \"#utility.yul\":556:568   */\n      revert\n        /* \"#utility.yul\":580:682   */\n    tag_29:\n        /* \"#utility.yul\":621:627   */\n      0x00\n        /* \"#utility.yul\":672:674   */\n      0x1f\n        /* \"#utility.yul\":668:675   */\n      not\n        /* \"#utility.yul\":663:665   */\n      0x1f\n        /* \"#utility.yul\":656:661   */\n      dup4\n        /* \"#utility.yul\":652:666   */\n      add\n        /* \"#utility.yul\":648:676   */\n      and\n        /* \"#utility.yul\":638:676   */\n      swap1\n      pop\n        /* \"#utility.yul\":580:682   */\n      swap2\n      swap1\n      pop\n      jump\t// out\n        /* \"#utility.yul\":688:868   */\n    tag_30:\n        /* \"#utility.yul\":736:813   */\n      0x4e487b7100000000000000000000000000000000000000000000000000000000\n        /* \"#utility.yul\":733:734   */\n      0x00\n        /* \"#utility.yul\":726:814   */\n      mstore\n        /* \"#utility.yul\":833:837   */\n      0x41\n        /* \"#utility.yul\":830:831   */\n      0x04\n        /* \"#utility.yul\":823:838   */\n      mstore\n        /* \"#utility.yul\":857:861   */\n      0x24\n        /* \"#utility.yul\":854:855   */\n      0x00\n        /* \"#utility.yul\":847:862   */\n      revert\n        /* \"#utility.yul\":874:1155   */\n    tag_31:\n        /* \"#utility.yul\":957:984   */\n      tag_62\n        /* \"#utility.yul\":979:983   */\n      dup3\n        /* \"#utility.yul\":957:984   */\n      tag_29\n      jump\t// in\n    tag_62:\n        /* \"#utility.yul\":949:955   */\n      dup2\n        /* \"#utility.yul\":945:985   */\n      add\n        /* \"#utility.yul\":1087:1093   */\n      dup2\n        /* \"#utility.yul\":1075:1085   */\n      dup2\n        /* \"#utility.yul\":1072:1094   */\n      lt\n        /* \"#utility.yul\":1051:1069   */\n      0xffffffffffffffff\n        /* \"#utility.yul\":1039:1049   */\n      dup3\n        /* \"#utility.yul\":1036:1070   */\n      gt\n        /* \"#utility.yul\":1033:1095   */\n      or\n        /* \"#utility.yul\":1030:1118   */\n      iszero\n      tag_63\n      jumpi\n        /* \"#utility.yul\":1098:1116   */\n      tag_64\n      tag_30\n      jump\t// in\n    tag_64:\n        /* \"#utility.yul\":1030:1118   */\n    tag_63:\n        /* \"#utility.yul\":1138:1148   */\n      dup1\n        /* \"#utility.yul\":1134:1136   */\n      0x40\n        /* \"#utility.yul\":1127:1149   */\n      mstore\n        /* \"#utility.yul\":917:1155   */\n      pop\n        /* \"#utility.yul\":874:1155   */\n      pop\n      pop\n      jump\t// out\n        /* \"#utility.yul\":1161:1290   */\n    tag_32:\n        /* \"#utility.yul\":1195:1201   */\n      0x00\n        /* \"#utility.yul\":1222:1242   */\n      tag_66\n      tag_24\n      jump\t// in\n    tag_66:\n        /* \"#utility.yul\":1212:1242   */\n      swap1\n      pop\n        /* \"#utility.yul\":1251:1284   */\n      tag_67\n        /* \"#utility.yul\":1279:1283   */\n      dup3\n        /* \"#utility.yul\":1271:1277   */\n      dup3\n        /* \"#utility.yul\":1251:1284   */\n      tag_31\n      jump\t// in\n    tag_67:\n        /* \"#utility.yul\":1161:1290   */\n      swap2\n      swap1\n      pop\n      jump\t// out\n        /* \"#utility.yul\":1296:1604   */\n    tag_33:\n        /* \"#utility.yul\":1358:1362   */\n      0x00\n        /* \"#utility.yul\":1448:1466   */\n      0xffffffffffffffff\n        /* \"#utility.yul\":1440:1446   */\n      dup3\n        /* \"#utility.yul\":1437:1467   */\n      gt\n        /* \"#utility.yul\":1434:1490   */\n      iszero\n      tag_69\n      jumpi\n        /* \"#utility.yul\":1470:1488   */\n      tag_70\n      tag_30\n      jump\t// in\n    tag_70:\n        /* \"#utility.yul\":1434:1490   */\n    tag_69:\n        /* \"#utility.yul\":1508:1537   */\n      tag_71\n        /* \"#utility.yul\":1530:1536   */\n      dup3\n        /* \"#utility.yul\":1508:1537   */\n      tag_29\n      jump\t// in\n    tag_71:\n        /* \"#utility.yul\":1500:1537   */\n      swap1\n      pop\n        /* \"#utility.yul\":1592:1596   */\n      0x20\n        /* \"#utility.yul\":1586:1590   */\n      dup2\n        /* \"#utility.yul\":1582:1597   */\n      add\n        /* \"#utility.yul\":1574:1597   */\n      swap1\n      pop\n        /* \"#utility.yul\":1296:1604   */\n      swap2\n      swap1\n      pop\n      jump\t// out\n        /* \"#utility.yul\":1610:1756   */\n    tag_34:\n        /* \"#utility.yul\":1707:1713   */\n      dup3\n        /* \"#utility.yul\":1702:1705   */\n      dup2\n        /* \"#utility.yul\":1697:1700   */\n      dup4\n        /* \"#utility.yul\":1684:1714   */\n      calldatacopy\n        /* \"#utility.yul\":1748:1749   */\n      0x00\n        /* \"#utility.yul\":1739:1745   */\n      dup4\n        /* \"#utility.yul\":1734:1737   */\n      dup4\n        /* \"#utility.yul\":1730:1746   */\n      add\n        /* \"#utility.yul\":1723:1750   */\n      mstore\n        /* \"#utility.yul\":1610:1756   */\n      pop\n      pop\n      pop\n      jump\t// out\n        /* \"#utility.yul\":1762:2187   */\n    tag_35:\n        /* \"#utility.yul\":1840:1845   */\n      0x00\n        /* \"#utility.yul\":1865:1931   */\n      tag_74\n        /* \"#utility.yul\":1881:1930   */\n      tag_75\n        /* \"#utility.yul\":1923:1929   */\n      dup5\n        /* \"#utility.yul\":1881:1930   */\n      tag_33\n      jump\t// in\n    tag_75:\n        /* \"#utility.yul\":1865:1931   */\n      tag_32\n      jump\t// in\n    tag_74:\n        /* \"#utility.yul\":1856:1931   */\n      swap1\n      pop\n        /* \"#utility.yul\":1954:1960   */\n      dup3\n        /* \"#utility.yul\":1947:1952   */\n      dup2\n        /* \"#utility.yul\":1940:1961   */\n      mstore\n        /* \"#utility.yul\":1992:1996   */\n      0x20\n        /* \"#utility.yul\":1985:1990   */\n      dup2\n        /* \"#utility.yul\":1981:1997   */\n      add\n        /* \"#utility.yul\":2030:2033   */\n      dup5\n        /* \"#utility.yul\":2021:2027   */\n      dup5\n        /* \"#utility.yul\":2016:2019   */\n      dup5\n        /* \"#utility.yul\":2012:2028   */\n      add\n        /* \"#utility.yul\":2009:2034   */\n      gt\n        /* \"#utility.yul\":2006:2118   */\n      iszero\n      tag_76\n      jumpi\n        /* \"#utility.yul\":2037:2116   */\n      tag_77\n      tag_28\n      jump\t// in\n    tag_77:\n        /* \"#utility.yul\":2006:2118   */\n    tag_76:\n        /* \"#utility.yul\":2127:2181   */\n      tag_78\n        /* \"#utility.yul\":2174:2180   */\n      dup5\n        /* \"#utility.yul\":2169:2172   */\n      dup3\n        /* \"#utility.yul\":2164:2167   */\n      dup6\n        /* \"#utility.yul\":2127:2181   */\n      tag_34\n      jump\t// in\n    tag_78:\n        /* \"#utility.yul\":1846:2187   */\n      pop\n        /* \"#utility.yul\":1762:2187   */\n      swap4\n      swap3\n      pop\n      pop\n      pop\n      jump\t// out\n        /* \"#utility.yul\":2207:2547   */\n    tag_36:\n        /* \"#utility.yul\":2263:2268   */\n      0x00\n        /* \"#utility.yul\":2312:2315   */\n      dup3\n        /* \"#utility.yul\":2305:2309   */\n      0x1f\n        /* \"#utility.yul\":2297:2303   */\n      dup4\n        /* \"#utility.yul\":2293:2310   */\n      add\n        /* \"#utility.yul\":2289:2316   */\n      slt\n        /* \"#utility.yul\":2279:2401   */\n      tag_80\n      jumpi\n        /* \"#utility.yul\":2320:2399   */\n      tag_81\n      tag_27\n      jump\t// in\n    tag_81:\n        /* \"#utility.yul\":2279:2401   */\n    tag_80:\n        /* \"#utility.yul\":2437:2443   */\n      dup2\n        /* \"#utility.yul\":2424:2444   */\n      calldataload\n        /* \"#utility.yul\":2462:2541   */\n      tag_82\n        /* \"#utility.yul\":2537:2540   */\n      dup5\n        /* \"#utility.yul\":2529:2535   */\n      dup3\n        /* \"#utility.yul\":2522:2526   */\n      0x20\n        /* \"#utility.yul\":2514:2520   */\n      dup7\n        /* \"#utility.yul\":2510:2527   */\n      add\n        /* \"#utility.yul\":2462:2541   */\n      tag_35\n      jump\t// in\n    tag_82:\n        /* \"#utility.yul\":2453:2541   */\n      swap2\n      pop\n        /* \"#utility.yul\":2269:2547   */\n      pop\n        /* \"#utility.yul\":2207:2547   */\n      swap3\n      swap2\n      pop\n      pop\n      jump\t// out\n        /* \"#utility.yul\":2553:2630   */\n    tag_37:\n        /* \"#utility.yul\":2590:2597   */\n      0x00\n        /* \"#utility.yul\":2619:2624   */\n      dup2\n        /* \"#utility.yul\":2608:2624   */\n      swap1\n      pop\n        /* \"#utility.yul\":2553:2630   */\n      swap2\n      swap1\n      pop\n      jump\t// out\n        /* \"#utility.yul\":2636:2758   */\n    tag_38:\n        /* \"#utility.yul\":2709:2733   */\n      tag_85\n        /* \"#utility.yul\":2727:2732   */\n      dup2\n        /* \"#utility.yul\":2709:2733   */\n      tag_37\n      jump\t// in\n    tag_85:\n        /* \"#utility.yul\":2702:2707   */\n      dup2\n        /* \"#utility.yul\":2699:2734   */\n      eq\n        /* \"#utility.yul\":2689:2752   */\n      tag_86\n      jumpi\n        /* \"#utility.yul\":2748:2749   */\n      0x00\n        /* \"#utility.yul\":2745:2746   */\n      dup1\n        /* \"#utility.yul\":2738:2750   */\n      revert\n        /* \"#utility.yul\":2689:2752   */\n    tag_86:\n        /* \"#utility.yul\":2636:2758   */\n      pop\n      jump\t// out\n        /* \"#utility.yul\":2764:2903   */\n    tag_39:\n        /* \"#utility.yul\":2810:2815   */\n      0x00\n        /* \"#utility.yul\":2848:2854   */\n      dup2\n        /* \"#utility.yul\":2835:2855   */\n      calldataload\n        /* \"#utility.yul\":2826:2855   */\n      swap1\n      pop\n        /* \"#utility.yul\":2864:2897   */\n      tag_88\n        /* \"#utility.yul\":2891:2896   */\n      dup2\n        /* \"#utility.yul\":2864:2897   */\n      tag_38\n      jump\t// in\n    tag_88:\n        /* \"#utility.yul\":2764:2903   */\n      swap3\n      swap2\n      pop\n      pop\n      jump\t// out\n        /* \"#utility.yul\":2909:3708   */\n    tag_7:\n        /* \"#utility.yul\":2996:3002   */\n      0x00\n        /* \"#utility.yul\":3004:3010   */\n      dup1\n        /* \"#utility.yul\":3012:3018   */\n      0x00\n        /* \"#utility.yul\":3061:3063   */\n      0x60\n        /* \"#utility.yul\":3049:3058   */\n      dup5\n        /* \"#utility.yul\":3040:3047   */\n      dup7\n        /* \"#utility.yul\":3036:3059   */\n      sub\n        /* \"#utility.yul\":3032:3064   */\n      slt\n        /* \"#utility.yul\":3029:3148   */\n      iszero\n      tag_90\n      jumpi\n        /* \"#utility.yul\":3067:3146   */\n      tag_91\n      tag_25\n      jump\t// in\n    tag_91:\n        /* \"#utility.yul\":3029:3148   */\n    tag_90:\n        /* \"#utility.yul\":3215:3216   */\n      0x00\n        /* \"#utility.yul\":3204:3213   */\n      dup5\n        /* \"#utility.yul\":3200:3217   */\n      add\n        /* \"#utility.yul\":3187:3218   */\n      calldataload\n        /* \"#utility.yul\":3245:3263   */\n      0xffffffffffffffff\n        /* \"#utility.yul\":3237:3243   */\n      dup2\n        /* \"#utility.yul\":3234:3264   */\n      gt\n        /* \"#utility.yul\":3231:3348   */\n      iszero\n      tag_92\n      jumpi\n        /* \"#utility.yul\":3267:3346   */\n      tag_93\n      tag_26\n      jump\t// in\n    tag_93:\n        /* \"#utility.yul\":3231:3348   */\n    tag_92:\n        /* \"#utility.yul\":3372:3435   */\n      tag_94\n        /* \"#utility.yul\":3427:3434   */\n      dup7\n        /* \"#utility.yul\":3418:3424   */\n      dup3\n        /* \"#utility.yul\":3407:3416   */\n      dup8\n        /* \"#utility.yul\":3403:3425   */\n      add\n        /* \"#utility.yul\":3372:3435   */\n      tag_36\n      jump\t// in\n    tag_94:\n        /* \"#utility.yul\":3362:3435   */\n      swap4\n      pop\n        /* \"#utility.yul\":3158:3445   */\n      pop\n        /* \"#utility.yul\":3484:3486   */\n      0x20\n        /* \"#utility.yul\":3510:3563   */\n      tag_95\n        /* \"#utility.yul\":3555:3562   */\n      dup7\n        /* \"#utility.yul\":3546:3552   */\n      dup3\n        /* \"#utility.yul\":3535:3544   */\n      dup8\n        /* \"#utility.yul\":3531:3553   */\n      add\n        /* \"#utility.yul\":3510:3563   */\n      tag_39\n      jump\t// in\n    tag_95:\n        /* \"#utility.yul\":3500:3563   */\n      swap3\n      pop\n        /* \"#utility.yul\":3455:3573   */\n      pop\n        /* \"#utility.yul\":3612:3614   */\n      0x40\n        /* \"#utility.yul\":3638:3691   */\n      tag_96\n        /* \"#utility.yul\":3683:3690   */\n      dup7\n        /* \"#utility.yul\":3674:3680   */\n      dup3\n        /* \"#utility.yul\":3663:3672   */\n      dup8\n        /* \"#utility.yul\":3659:3681   */\n      add\n        /* \"#utility.yul\":3638:3691   */\n      tag_39\n      jump\t// in\n    tag_96:\n        /* \"#utility.yul\":3628:3691   */\n      swap2\n      pop\n        /* \"#utility.yul\":3583:3701   */\n      pop\n        /* \"#utility.yul\":2909:3708   */\n      swap3\n      pop\n      swap3\n      pop\n      swap3\n      jump\t// out\n        /* \"#utility.yul\":3714:3812   */\n    tag_40:\n        /* \"#utility.yul\":3765:3771   */\n      0x00\n        /* \"#utility.yul\":3799:3804   */\n      dup2\n        /* \"#utility.yul\":3793:3805   */\n      mload\n        /* \"#utility.yul\":3783:3805   */\n      swap1\n      pop\n        /* \"#utility.yul\":3714:3812   */\n      swap2\n      swap1\n      pop\n      jump\t// out\n        /* \"#utility.yul\":3818:3986   */\n    tag_41:\n        /* \"#utility.yul\":3901:3912   */\n      0x00\n        /* \"#utility.yul\":3935:3941   */\n      dup3\n        /* \"#utility.yul\":3930:3933   */\n      dup3\n        /* \"#utility.yul\":3923:3942   */\n      mstore\n        /* \"#utility.yul\":3975:3979   */\n      0x20\n        /* \"#utility.yul\":3970:3973   */\n      dup3\n        /* \"#utility.yul\":3966:3980   */\n      add\n        /* \"#utility.yul\":3951:3980   */\n      swap1\n      pop\n        /* \"#utility.yul\":3818:3986   */\n      swap3\n      swap2\n      pop\n      pop\n      jump\t// out\n        /* \"#utility.yul\":3992:4238   */\n    tag_42:\n        /* \"#utility.yul\":4073:4074   */\n      0x00\n        /* \"#utility.yul\":4083:4196   */\n    tag_100:\n        /* \"#utility.yul\":4097:4103   */\n      dup4\n        /* \"#utility.yul\":4094:4095   */\n      dup2\n        /* \"#utility.yul\":4091:4104   */\n      lt\n        /* \"#utility.yul\":4083:4196   */\n      iszero\n      tag_102\n      jumpi\n        /* \"#utility.yul\":4182:4183   */\n      dup1\n        /* \"#utility.yul\":4177:4180   */\n      dup3\n        /* \"#utility.yul\":4173:4184   */\n      add\n        /* \"#utility.yul\":4167:4185   */\n      mload\n        /* \"#utility.yul\":4163:4164   */\n      dup2\n        /* \"#utility.yul\":4158:4161   */\n      dup5\n        /* \"#utility.yul\":4154:4165   */\n      add\n        /* \"#utility.yul\":4147:4186   */\n      mstore\n        /* \"#utility.yul\":4119:4121   */\n      0x20\n        /* \"#utility.yul\":4116:4117   */\n      dup2\n        /* \"#utility.yul\":4112:4122   */\n      add\n        /* \"#utility.yul\":4107:4122   */\n      swap1\n      pop\n        /* \"#utility.yul\":4083:4196   */\n      jump(tag_100)\n    tag_102:\n        /* \"#utility.yul\":4230:4231   */\n      0x00\n        /* \"#utility.yul\":4221:4227   */\n      dup5\n        /* \"#utility.yul\":4216:4219   */\n      dup5\n        /* \"#utility.yul\":4212:4228   */\n      add\n        /* \"#utility.yul\":4205:4232   */\n      mstore\n        /* \"#utility.yul\":4054:4238   */\n      pop\n        /* \"#utility.yul\":3992:4238   */\n      pop\n      pop\n      pop\n      jump\t// out\n        /* \"#utility.yul\":4244:4617   */\n    tag_43:\n        /* \"#utility.yul\":4330:4333   */\n      0x00\n        /* \"#utility.yul\":4358:4396   */\n      tag_104\n        /* \"#utility.yul\":4390:4395   */\n      dup3\n        /* \"#utility.yul\":4358:4396   */\n      tag_40\n      jump\t// in\n    tag_104:\n        /* \"#utility.yul\":4412:4482   */\n      tag_105\n        /* \"#utility.yul\":4475:4481   */\n      dup2\n        /* \"#utility.yul\":4470:4473   */\n      dup6\n        /* \"#utility.yul\":4412:4482   */\n      tag_41\n      jump\t// in\n    tag_105:\n        /* \"#utility.yul\":4405:4482   */\n      swap4\n      pop\n        /* \"#utility.yul\":4491:4556   */\n      tag_106\n        /* \"#utility.yul\":4549:4555   */\n      dup2\n        /* \"#utility.yul\":4544:4547   */\n      dup6\n        /* \"#utility.yul\":4537:4541   */\n      0x20\n        /* \"#utility.yul\":4530:4535   */\n      dup7\n        /* \"#utility.yul\":4526:4542   */\n      add\n        /* \"#utility.yul\":4491:4556   */\n      tag_42\n      jump\t// in\n    tag_106:\n        /* \"#utility.yul\":4581:4610   */\n      tag_107\n        /* \"#utility.yul\":4603:4609   */\n      dup2\n        /* \"#utility.yul\":4581:4610   */\n      tag_29\n      jump\t// in\n    tag_107:\n        /* \"#utility.yul\":4576:4579   */\n      dup5\n        /* \"#utility.yul\":4572:4611   */\n      add\n        /* \"#utility.yul\":4565:4611   */\n      swap2\n      pop\n        /* \"#utility.yul\":4334:4617   */\n      pop\n        /* \"#utility.yul\":4244:4617   */\n      swap3\n      swap2\n      pop\n      pop\n      jump\t// out\n        /* \"#utility.yul\":4623:4932   */\n    tag_10:\n        /* \"#utility.yul\":4734:4738   */\n      0x00\n        /* \"#utility.yul\":4772:4774   */\n      0x20\n        /* \"#utility.yul\":4761:4770   */\n      dup3\n        /* \"#utility.yul\":4757:4775   */\n      add\n        /* \"#utility.yul\":4749:4775   */\n      swap1\n      pop\n        /* \"#utility.yul\":4821:4830   */\n      dup2\n        /* \"#utility.yul\":4815:4819   */\n      dup2\n        /* \"#utility.yul\":4811:4831   */\n      sub\n        /* \"#utility.yul\":4807:4808   */\n      0x00\n        /* \"#utility.yul\":4796:4805   */\n      dup4\n        /* \"#utility.yul\":4792:4809   */\n      add\n        /* \"#utility.yul\":4785:4832   */\n      mstore\n        /* \"#utility.yul\":4849:4925   */\n      tag_109\n        /* \"#utility.yul\":4920:4924   */\n      dup2\n        /* \"#utility.yul\":4911:4917   */\n      dup5\n        /* \"#utility.yul\":4849:4925   */\n      tag_43\n      jump\t// in\n    tag_109:\n        /* \"#utility.yul\":4841:4925   */\n      swap1\n      pop\n        /* \"#utility.yul\":4623:4932   */\n      swap3\n      swap2\n      pop\n      pop\n      jump\t// out\n        /* \"#utility.yul\":4938:5037   */\n    tag_44:\n        /* \"#utility.yul\":4990:4996   */\n      0x00\n        /* \"#utility.yul\":5024:5029   */\n      dup2\n        /* \"#utility.yul\":5018:5030   */\n      mload\n        /* \"#utility.yul\":5008:5030   */\n      swap1\n      pop\n        /* \"#utility.yul\":4938:5037   */\n      swap2\n      swap1\n      pop\n      jump\t// out\n        /* \"#utility.yul\":5043:5191   */\n    tag_45:\n        /* \"#utility.yul\":5145:5156   */\n      0x00\n        /* \"#utility.yul\":5182:5185   */\n      dup2\n        /* \"#utility.yul\":5167:5185   */\n      swap1\n      pop\n        /* \"#utility.yul\":5043:5191   */\n      swap3\n      swap2\n      pop\n      pop\n      jump\t// out\n        /* \"#utility.yul\":5197:5587   */\n    tag_46:\n        /* \"#utility.yul\":5303:5306   */\n      0x00\n        /* \"#utility.yul\":5331:5370   */\n      tag_113\n        /* \"#utility.yul\":5364:5369   */\n      dup3\n        /* \"#utility.yul\":5331:5370   */\n      tag_44\n      jump\t// in\n    tag_113:\n        /* \"#utility.yul\":5386:5475   */\n      tag_114\n        /* \"#utility.yul\":5468:5474   */\n      dup2\n        /* \"#utility.yul\":5463:5466   */\n      dup6\n        /* \"#utility.yul\":5386:5475   */\n      tag_45\n      jump\t// in\n    tag_114:\n        /* \"#utility.yul\":5379:5475   */\n      swap4\n      pop\n        /* \"#utility.yul\":5484:5549   */\n      tag_115\n        /* \"#utility.yul\":5542:5548   */\n      dup2\n        /* \"#utility.yul\":5537:5540   */\n      dup6\n        /* \"#utility.yul\":5530:5534   */\n      0x20\n        /* \"#utility.yul\":5523:5528   */\n      dup7\n        /* \"#utility.yul\":5519:5535   */\n      add\n        /* \"#utility.yul\":5484:5549   */\n      tag_42\n      jump\t// in\n    tag_115:\n        /* \"#utility.yul\":5574:5580   */\n      dup1\n        /* \"#utility.yul\":5569:5572   */\n      dup5\n        /* \"#utility.yul\":5565:5581   */\n      add\n        /* \"#utility.yul\":5558:5581   */\n      swap2\n      pop\n        /* \"#utility.yul\":5307:5587   */\n      pop\n        /* \"#utility.yul\":5197:5587   */\n      swap3\n      swap2\n      pop\n      pop\n      jump\t// out\n        /* \"#utility.yul\":5593:5672   */\n    tag_47:\n        /* \"#utility.yul\":5632:5639   */\n      0x00\n        /* \"#utility.yul\":5661:5666   */\n      dup2\n        /* \"#utility.yul\":5650:5666   */\n      swap1\n      pop\n        /* \"#utility.yul\":5593:5672   */\n      swap2\n      swap1\n      pop\n      jump\t// out\n        /* \"#utility.yul\":5678:5835   */\n    tag_48:\n        /* \"#utility.yul\":5783:5828   */\n      tag_118\n        /* \"#utility.yul\":5803:5827   */\n      tag_119\n        /* \"#utility.yul\":5821:5826   */\n      dup3\n        /* \"#utility.yul\":5803:5827   */\n      tag_37\n      jump\t// in\n    tag_119:\n        /* \"#utility.yul\":5783:5828   */\n      tag_47\n      jump\t// in\n    tag_118:\n        /* \"#utility.yul\":5778:5781   */\n      dup3\n        /* \"#utility.yul\":5771:5829   */\n      mstore\n        /* \"#utility.yul\":5678:5835   */\n      pop\n      pop\n      jump\t// out\n        /* \"#utility.yul\":5841:6398   */\n    tag_19:\n        /* \"#utility.yul\":6029:6032   */\n      0x00\n        /* \"#utility.yul\":6051:6146   */\n      tag_121\n        /* \"#utility.yul\":6142:6145   */\n      dup3\n        /* \"#utility.yul\":6133:6139   */\n      dup7\n        /* \"#utility.yul\":6051:6146   */\n      tag_46\n      jump\t// in\n    tag_121:\n        /* \"#utility.yul\":6044:6146   */\n      swap2\n      pop\n        /* \"#utility.yul\":6156:6231   */\n      tag_122\n        /* \"#utility.yul\":6227:6230   */\n      dup3\n        /* \"#utility.yul\":6218:6224   */\n      dup6\n        /* \"#utility.yul\":6156:6231   */\n      tag_48\n      jump\t// in\n    tag_122:\n        /* \"#utility.yul\":6256:6258   */\n      0x20\n        /* \"#utility.yul\":6251:6254   */\n      dup3\n        /* \"#utility.yul\":6247:6259   */\n      add\n        /* \"#utility.yul\":6240:6259   */\n      swap2\n      pop\n        /* \"#utility.yul\":6269:6344   */\n      tag_123\n        /* \"#utility.yul\":6340:6343   */\n      dup3\n        /* \"#utility.yul\":6331:6337   */\n      dup5\n        /* \"#utility.yul\":6269:6344   */\n      tag_48\n      jump\t// in\n    tag_123:\n        /* \"#utility.yul\":6369:6371   */\n      0x20\n        /* \"#utility.yul\":6364:6367   */\n      dup3\n        /* \"#utility.yul\":6360:6372   */\n      add\n        /* \"#utility.yul\":6353:6372   */\n      swap2\n      pop\n        /* \"#utility.yul\":6389:6392   */\n      dup2\n        /* \"#utility.yul\":6382:6392   */\n      swap1\n      pop\n        /* \"#utility.yul\":5841:6398   */\n      swap5\n      swap4\n      pop\n      pop\n      pop\n      pop\n      jump\t// out\n        /* \"#utility.yul\":6404:6563   */\n    tag_49:\n        /* \"#utility.yul\":6478:6489   */\n      0x00\n        /* \"#utility.yul\":6512:6518   */\n      dup3\n        /* \"#utility.yul\":6507:6510   */\n      dup3\n        /* \"#utility.yul\":6500:6519   */\n      mstore\n        /* \"#utility.yul\":6552:6556   */\n      0x20\n        /* \"#utility.yul\":6547:6550   */\n      dup3\n        /* \"#utility.yul\":6543:6557   */\n      add\n        /* \"#utility.yul\":6528:6557   */\n      swap1\n      pop\n        /* \"#utility.yul\":6404:6563   */\n      swap3\n      swap2\n      pop\n      pop\n      jump\t// out\n        /* \"#utility.yul\":6569:6926   */\n    tag_50:\n        /* \"#utility.yul\":6647:6650   */\n      0x00\n        /* \"#utility.yul\":6675:6714   */\n      tag_126\n        /* \"#utility.yul\":6708:6713   */\n      dup3\n        /* \"#utility.yul\":6675:6714   */\n      tag_44\n      jump\t// in\n    tag_126:\n        /* \"#utility.yul\":6730:6791   */\n      tag_127\n        /* \"#utility.yul\":6784:6790   */\n      dup2\n        /* \"#utility.yul\":6779:6782   */\n      dup6\n        /* \"#utility.yul\":6730:6791   */\n      tag_49\n      jump\t// in\n    tag_127:\n        /* \"#utility.yul\":6723:6791   */\n      swap4\n      pop\n        /* \"#utility.yul\":6800:6865   */\n      tag_128\n        /* \"#utility.yul\":6858:6864   */\n      dup2\n        /* \"#utility.yul\":6853:6856   */\n      dup6\n        /* \"#utility.yul\":6846:6850   */\n      0x20\n        /* \"#utility.yul\":6839:6844   */\n      dup7\n        /* \"#utility.yul\":6835:6851   */\n      add\n        /* \"#utility.yul\":6800:6865   */\n      tag_42\n      jump\t// in\n    tag_128:\n        /* \"#utility.yul\":6890:6919   */\n      tag_129\n        /* \"#utility.yul\":6912:6918   */\n      dup2\n        /* \"#utility.yul\":6890:6919   */\n      tag_29\n      jump\t// in\n    tag_129:\n        /* \"#utility.yul\":6885:6888   */\n      dup5\n        /* \"#utility.yul\":6881:6920   */\n      add\n        /* \"#utility.yul\":6874:6920   */\n      swap2\n      pop\n        /* \"#utility.yul\":6651:6926   */\n      pop\n        /* \"#utility.yul\":6569:6926   */\n      swap3\n      swap2\n      pop\n      pop\n      jump\t// out\n        /* \"#utility.yul\":6932:7040   */\n    tag_51:\n        /* \"#utility.yul\":7009:7033   */\n      tag_131\n        /* \"#utility.yul\":7027:7032   */\n      dup2\n        /* \"#utility.yul\":7009:7033   */\n      tag_37\n      jump\t// in\n    tag_131:\n        /* \"#utility.yul\":7004:7007   */\n      dup3\n        /* \"#utility.yul\":6997:7034   */\n      mstore\n        /* \"#utility.yul\":6932:7040   */\n      pop\n      pop\n      jump\t// out\n        /* \"#utility.yul\":7106:7891   */\n    tag_52:\n        /* \"#utility.yul\":7219:7222   */\n      0x00\n        /* \"#utility.yul\":7255:7259   */\n      0x60\n        /* \"#utility.yul\":7250:7253   */\n      dup4\n        /* \"#utility.yul\":7246:7260   */\n      add\n        /* \"#utility.yul\":7342:7346   */\n      0x00\n        /* \"#utility.yul\":7335:7340   */\n      dup4\n        /* \"#utility.yul\":7331:7347   */\n      add\n        /* \"#utility.yul\":7325:7348   */\n      mload\n        /* \"#utility.yul\":7395:7398   */\n      dup5\n        /* \"#utility.yul\":7389:7393   */\n      dup3\n        /* \"#utility.yul\":7385:7399   */\n      sub\n        /* \"#utility.yul\":7378:7382   */\n      0x00\n        /* \"#utility.yul\":7373:7376   */\n      dup7\n        /* \"#utility.yul\":7369:7383   */\n      add\n        /* \"#utility.yul\":7362:7400   */\n      mstore\n        /* \"#utility.yul\":7421:7494   */\n      tag_133\n        /* \"#utility.yul\":7489:7493   */\n      dup3\n        /* \"#utility.yul\":7475:7487   */\n      dup3\n        /* \"#utility.yul\":7421:7494   */\n      tag_50\n      jump\t// in\n    tag_133:\n        /* \"#utility.yul\":7413:7494   */\n      swap2\n      pop\n        /* \"#utility.yul\":7270:7505   */\n      pop\n        /* \"#utility.yul\":7592:7596   */\n      0x20\n        /* \"#utility.yul\":7585:7590   */\n      dup4\n        /* \"#utility.yul\":7581:7597   */\n      add\n        /* \"#utility.yul\":7575:7598   */\n      mload\n        /* \"#utility.yul\":7611:7674   */\n      tag_134\n        /* \"#utility.yul\":7668:7672   */\n      0x20\n        /* \"#utility.yul\":7663:7666   */\n      dup7\n        /* \"#utility.yul\":7659:7673   */\n      add\n        /* \"#utility.yul\":7645:7657   */\n      dup3\n        /* \"#utility.yul\":7611:7674   */\n      tag_51\n      jump\t// in\n    tag_134:\n        /* \"#utility.yul\":7515:7684   */\n      pop\n        /* \"#utility.yul\":7772:7776   */\n      0x40\n        /* \"#utility.yul\":7765:7770   */\n      dup4\n        /* \"#utility.yul\":7761:7777   */\n      add\n        /* \"#utility.yul\":7755:7778   */\n      mload\n        /* \"#utility.yul\":7791:7854   */\n      tag_135\n        /* \"#utility.yul\":7848:7852   */\n      0x40\n        /* \"#utility.yul\":7843:7846   */\n      dup7\n        /* \"#utility.yul\":7839:7853   */\n      add\n        /* \"#utility.yul\":7825:7837   */\n      dup3\n        /* \"#utility.yul\":7791:7854   */\n      tag_51\n      jump\t// in\n    tag_135:\n        /* \"#utility.yul\":7694:7864   */\n      pop\n        /* \"#utility.yul\":7881:7885   */\n      dup1\n        /* \"#utility.yul\":7874:7885   */\n      swap2\n      pop\n        /* \"#utility.yul\":7224:7891   */\n      pop\n        /* \"#utility.yul\":7106:7891   */\n      swap3\n      swap2\n      pop\n      pop\n      jump\t// out\n        /* \"#utility.yul\":7897:8258   */\n    tag_23:\n        /* \"#utility.yul\":8034:8038   */\n      0x00\n        /* \"#utility.yul\":8072:8074   */\n      0x20\n        /* \"#utility.yul\":8061:8070   */\n      dup3\n        /* \"#utility.yul\":8057:8075   */\n      add\n        /* \"#utility.yul\":8049:8075   */\n      swap1\n      pop\n        /* \"#utility.yul\":8121:8130   */\n      dup2\n        /* \"#utility.yul\":8115:8119   */\n      dup2\n        /* \"#utility.yul\":8111:8131   */\n      sub\n        /* \"#utility.yul\":8107:8108   */\n      0x00\n        /* \"#utility.yul\":8096:8105   */\n      dup4\n        /* \"#utility.yul\":8092:8109   */\n      add\n        /* \"#utility.yul\":8085:8132   */\n      mstore\n        /* \"#utility.yul\":8149:8251   */\n      tag_137\n        /* \"#utility.yul\":8246:8250   */\n      dup2\n        /* \"#utility.yul\":8237:8243   */\n      dup5\n        /* \"#utility.yul\":8149:8251   */\n      tag_52\n      jump\t// in\n    tag_137:\n        /* \"#utility.yul\":8141:8251   */\n      swap1\n      pop\n        /* \"#utility.yul\":7897:8258   */\n      swap3\n      swap2\n      pop\n      pop\n      jump\t// out\n\n    auxdata: 0xa26469706673582212206bbe9f57add84a55bfc671c686f8960e33060a343d45b294cac6f9a7bd3ffabf64736f6c63430008120033\n}\n",
				"bytecode": {
					"linkReferences": {},
					"object": "608060405234801561001057600080fd5b506105a4806100206000396000f3fe608060405234801561001057600080fd5b50600436106100365760003560e01c8063cb8778841461003b578063f45b835a1461006b575b600080fd5b610055600480360381019061005091906102f2565b61009b565b60405161006291906103e0565b60405180910390f35b610085600480360381019061008091906102f2565b6100f0565b60405161009291906103e0565b60405180910390f35b60606100a5610141565b60405180606001604052808681526020018581526020018481525090508484846040516020016100d79392919061046a565b6040516020818303038152906040529150509392505050565b60606100fa610141565b604051806060016040528086815260200185815260200184815250905080604051602001610128919061054c565b6040516020818303038152906040529150509392505050565b60405180606001604052806060815260200160008152602001600081525090565b6000604051905090565b600080fd5b600080fd5b600080fd5b600080fd5b6000601f19601f8301169050919050565b7f4e487b7100000000000000000000000000000000000000000000000000000000600052604160045260246000fd5b6101c982610180565b810181811067ffffffffffffffff821117156101e8576101e7610191565b5b80604052505050565b60006101fb610162565b905061020782826101c0565b919050565b600067ffffffffffffffff82111561022757610226610191565b5b61023082610180565b9050602081019050919050565b82818337600083830152505050565b600061025f61025a8461020c565b6101f1565b90508281526020810184848401111561027b5761027a61017b565b5b61028684828561023d565b509392505050565b600082601f8301126102a3576102a2610176565b5b81356102b384826020860161024c565b91505092915050565b6000819050919050565b6102cf816102bc565b81146102da57600080fd5b50565b6000813590506102ec816102c6565b92915050565b60008060006060848603121561030b5761030a61016c565b5b600084013567ffffffffffffffff81111561032957610328610171565b5b6103358682870161028e565b9350506020610346868287016102dd565b9250506040610357868287016102dd565b9150509250925092565b600081519050919050565b600082825260208201905092915050565b60005b8381101561039b578082015181840152602081019050610380565b60008484015250505050565b60006103b282610361565b6103bc818561036c565b93506103cc81856020860161037d565b6103d581610180565b840191505092915050565b600060208201905081810360008301526103fa81846103a7565b905092915050565b600081519050919050565b600081905092915050565b600061042382610402565b61042d818561040d565b935061043d81856020860161037d565b80840191505092915050565b6000819050919050565b61046461045f826102bc565b610449565b82525050565b60006104768286610418565b91506104828285610453565b6020820191506104928284610453565b602082019150819050949350505050565b600082825260208201905092915050565b60006104bf82610402565b6104c981856104a3565b93506104d981856020860161037d565b6104e281610180565b840191505092915050565b6104f6816102bc565b82525050565b6000606083016000830151848203600086015261051982826104b4565b915050602083015161052e60208601826104ed565b50604083015161054160408601826104ed565b508091505092915050565b6000602082019050818103600083015261056681846104fc565b90509291505056fea26469706673582212206bbe9f57add84a55bfc671c686f8960e33060a343d45b294cac6f9a7bd3ffabf64736f6c63430008120033",
					"opcodes": "PUSH1 0x80 PUSH1 0x40 MSTORE CALLVALUE DUP1 ISZERO PUSH2 0x10 JUMPI PUSH1 0x0 DUP1 REVERT JUMPDEST POP PUSH2 0x5A4 DUP1 PUSH2 0x20 PUSH1 0x0 CODECOPY PUSH1 0x0 RETURN INVALID PUSH1 0x80 PUSH1 0x40 MSTORE CALLVALUE DUP1 ISZERO PUSH2 0x10 JUMPI PUSH1 0x0 DUP1 REVERT JUMPDEST POP PUSH1 0x4 CALLDATASIZE LT PUSH2 0x36 JUMPI PUSH1 0x0 CALLDATALOAD PUSH1 0xE0 SHR DUP1 PUSH4 0xCB877884 EQ PUSH2 0x3B JUMPI DUP1 PUSH4 0xF45B835A EQ PUSH2 0x6B JUMPI JUMPDEST PUSH1 0x0 DUP1 REVERT JUMPDEST PUSH2 0x55 PUSH1 0x4 DUP1 CALLDATASIZE SUB DUP2 ADD SWAP1 PUSH2 0x50 SWAP2 SWAP1 PUSH2 0x2F2 JUMP JUMPDEST PUSH2 0x9B JUMP JUMPDEST PUSH1 0x40 MLOAD PUSH2 0x62 SWAP2 SWAP1 PUSH2 0x3E0 JUMP JUMPDEST PUSH1 0x40 MLOAD DUP1 SWAP2 SUB SWAP1 RETURN JUMPDEST PUSH2 0x85 PUSH1 0x4 DUP1 CALLDATASIZE SUB DUP2 ADD SWAP1 PUSH2 0x80 SWAP2 SWAP1 PUSH2 0x2F2 JUMP JUMPDEST PUSH2 0xF0 JUMP JUMPDEST PUSH1 0x40 MLOAD PUSH2 0x92 SWAP2 SWAP1 PUSH2 0x3E0 JUMP JUMPDEST PUSH1 0x40 MLOAD DUP1 SWAP2 SUB SWAP1 RETURN JUMPDEST PUSH1 0x60 PUSH2 0xA5 PUSH2 0x141 JUMP JUMPDEST PUSH1 0x40 MLOAD DUP1 PUSH1 0x60 ADD PUSH1 0x40 MSTORE DUP1 DUP7 DUP2 MSTORE PUSH1 0x20 ADD DUP6 DUP2 MSTORE PUSH1 0x20 ADD DUP5 DUP2 MSTORE POP SWAP1 POP DUP5 DUP5 DUP5 PUSH1 0x40 MLOAD PUSH1 0x20 ADD PUSH2 0xD7 SWAP4 SWAP3 SWAP2 SWAP1 PUSH2 0x46A JUMP JUMPDEST PUSH1 0x40 MLOAD PUSH1 0x20 DUP2 DUP4 SUB SUB DUP2 MSTORE SWAP1 PUSH1 0x40 MSTORE SWAP2 POP POP SWAP4 SWAP3 POP POP POP JUMP JUMPDEST PUSH1 0x60 PUSH2 0xFA PUSH2 0x141 JUMP JUMPDEST PUSH1 0x40 MLOAD DUP1 PUSH1 0x60 ADD PUSH1 0x40 MSTORE DUP1 DUP7 DUP2 MSTORE PUSH1 0x20 ADD DUP6 DUP2 MSTORE PUSH1 0x20 ADD DUP5 DUP2 MSTORE POP SWAP1 POP DUP1 PUSH1 0x40 MLOAD PUSH1 0x20 ADD PUSH2 0x128 SWAP2 SWAP1 PUSH2 0x54C JUMP JUMPDEST PUSH1 0x40 MLOAD PUSH1 0x20 DUP2 DUP4 SUB SUB DUP2 MSTORE SWAP1 PUSH1 0x40 MSTORE SWAP2 POP POP SWAP4 SWAP3 POP POP POP JUMP JUMPDEST PUSH1 0x40 MLOAD DUP1 PUSH1 0x60 ADD PUSH1 0x40 MSTORE DUP1 PUSH1 0x60 DUP2 MSTORE PUSH1 0x20 ADD PUSH1 0x0 DUP2 MSTORE PUSH1 0x20 ADD PUSH1 0x0 DUP2 MSTORE POP SWAP1 JUMP JUMPDEST PUSH1 0x0 PUSH1 0x40 MLOAD SWAP1 POP SWAP1 JUMP JUMPDEST PUSH1 0x0 DUP1 REVERT JUMPDEST PUSH1 0x0 DUP1 REVERT JUMPDEST PUSH1 0x0 DUP1 REVERT JUMPDEST PUSH1 0x0 DUP1 REVERT JUMPDEST PUSH1 0x0 PUSH1 0x1F NOT PUSH1 0x1F DUP4 ADD AND SWAP1 POP SWAP2 SWAP1 POP JUMP JUMPDEST PUSH32 0x4E487B7100000000000000000000000000000000000000000000000000000000 PUSH1 0x0 MSTORE PUSH1 0x41 PUSH1 0x4 MSTORE PUSH1 0x24 PUSH1 0x0 REVERT JUMPDEST PUSH2 0x1C9 DUP3 PUSH2 0x180 JUMP JUMPDEST DUP2 ADD DUP2 DUP2 LT PUSH8 0xFFFFFFFFFFFFFFFF DUP3 GT OR ISZERO PUSH2 0x1E8 JUMPI PUSH2 0x1E7 PUSH2 0x191 JUMP JUMPDEST JUMPDEST DUP1 PUSH1 0x40 MSTORE POP POP POP JUMP JUMPDEST PUSH1 0x0 PUSH2 0x1FB PUSH2 0x162 JUMP JUMPDEST SWAP1 POP PUSH2 0x207 DUP3 DUP3 PUSH2 0x1C0 JUMP JUMPDEST SWAP2 SWAP1 POP JUMP JUMPDEST PUSH1 0x0 PUSH8 0xFFFFFFFFFFFFFFFF DUP3 GT ISZERO PUSH2 0x227 JUMPI PUSH2 0x226 PUSH2 0x191 JUMP JUMPDEST JUMPDEST PUSH2 0x230 DUP3 PUSH2 0x180 JUMP JUMPDEST SWAP1 POP PUSH1 0x20 DUP2 ADD SWAP1 POP SWAP2 SWAP1 POP JUMP JUMPDEST DUP3 DUP2 DUP4 CALLDATACOPY PUSH1 0x0 DUP4 DUP4 ADD MSTORE POP POP POP JUMP JUMPDEST PUSH1 0x0 PUSH2 0x25F PUSH2 0x25A DUP5 PUSH2 0x20C JUMP JUMPDEST PUSH2 0x1F1 JUMP JUMPDEST SWAP1 POP DUP3 DUP2 MSTORE PUSH1 0x20 DUP2 ADD DUP5 DUP5 DUP5 ADD GT ISZERO PUSH2 0x27B JUMPI PUSH2 0x27A PUSH2 0x17B JUMP JUMPDEST JUMPDEST PUSH2 0x286 DUP5 DUP3 DUP6 PUSH2 0x23D JUMP JUMPDEST POP SWAP4 SWAP3 POP POP POP JUMP JUMPDEST PUSH1 0x0 DUP3 PUSH1 0x1F DUP4 ADD SLT PUSH2 0x2A3 JUMPI PUSH2 0x2A2 PUSH2 0x176 JUMP JUMPDEST JUMPDEST DUP2 CALLDATALOAD PUSH2 0x2B3 DUP5 DUP3 PUSH1 0x20 DUP7 ADD PUSH2 0x24C JUMP JUMPDEST SWAP2 POP POP SWAP3 SWAP2 POP POP JUMP JUMPDEST PUSH1 0x0 DUP2 SWAP1 POP SWAP2 SWAP1 POP JUMP JUMPDEST PUSH2 0x2CF DUP2 PUSH2 0x2BC JUMP JUMPDEST DUP2 EQ PUSH2 0x2DA JUMPI PUSH1 0x0 DUP1 REVERT JUMPDEST POP JUMP JUMPDEST PUSH1 0x0 DUP2 CALLDATALOAD SWAP1 POP PUSH2 0x2EC DUP2 PUSH2 0x2C6 JUMP JUMPDEST SWAP3 SWAP2 POP POP JUMP JUMPDEST PUSH1 0x0 DUP1 PUSH1 0x0 PUSH1 0x60 DUP5 DUP7 SUB SLT ISZERO PUSH2 0x30B JUMPI PUSH2 0x30A PUSH2 0x16C JUMP JUMPDEST JUMPDEST PUSH1 0x0 DUP5 ADD CALLDATALOAD PUSH8 0xFFFFFFFFFFFFFFFF DUP2 GT ISZERO PUSH2 0x329 JUMPI PUSH2 0x328 PUSH2 0x171 JUMP JUMPDEST JUMPDEST PUSH2 0x335 DUP7 DUP3 DUP8 ADD PUSH2 0x28E JUMP JUMPDEST SWAP4 POP POP PUSH1 0x20 PUSH2 0x346 DUP7 DUP3 DUP8 ADD PUSH2 0x2DD JUMP JUMPDEST SWAP3 POP POP PUSH1 0x40 PUSH2 0x357 DUP7 DUP3 DUP8 ADD PUSH2 0x2DD JUMP JUMPDEST SWAP2 POP POP SWAP3 POP SWAP3 POP SWAP3 JUMP JUMPDEST PUSH1 0x0 DUP2 MLOAD SWAP1 POP SWAP2 SWAP1 POP JUMP JUMPDEST PUSH1 0x0 DUP3 DUP3 MSTORE PUSH1 0x20 DUP3 ADD SWAP1 POP SWAP3 SWAP2 POP POP JUMP JUMPDEST PUSH1 0x0 JUMPDEST DUP4 DUP2 LT ISZERO PUSH2 0x39B JUMPI DUP1 DUP3 ADD MLOAD DUP2 DUP5 ADD MSTORE PUSH1 0x20 DUP2 ADD SWAP1 POP PUSH2 0x380 JUMP JUMPDEST PUSH1 0x0 DUP5 DUP5 ADD MSTORE POP POP POP POP JUMP JUMPDEST PUSH1 0x0 PUSH2 0x3B2 DUP3 PUSH2 0x361 JUMP JUMPDEST PUSH2 0x3BC DUP2 DUP6 PUSH2 0x36C JUMP JUMPDEST SWAP4 POP PUSH2 0x3CC DUP2 DUP6 PUSH1 0x20 DUP7 ADD PUSH2 0x37D JUMP JUMPDEST PUSH2 0x3D5 DUP2 PUSH2 0x180 JUMP JUMPDEST DUP5 ADD SWAP2 POP POP SWAP3 SWAP2 POP POP JUMP JUMPDEST PUSH1 0x0 PUSH1 0x20 DUP3 ADD SWAP1 POP DUP2 DUP2 SUB PUSH1 0x0 DUP4 ADD MSTORE PUSH2 0x3FA DUP2 DUP5 PUSH2 0x3A7 JUMP JUMPDEST SWAP1 POP SWAP3 SWAP2 POP POP JUMP JUMPDEST PUSH1 0x0 DUP2 MLOAD SWAP1 POP SWAP2 SWAP1 POP JUMP JUMPDEST PUSH1 0x0 DUP2 SWAP1 POP SWAP3 SWAP2 POP POP JUMP JUMPDEST PUSH1 0x0 PUSH2 0x423 DUP3 PUSH2 0x402 JUMP JUMPDEST PUSH2 0x42D DUP2 DUP6 PUSH2 0x40D JUMP JUMPDEST SWAP4 POP PUSH2 0x43D DUP2 DUP6 PUSH1 0x20 DUP7 ADD PUSH2 0x37D JUMP JUMPDEST DUP1 DUP5 ADD SWAP2 POP POP SWAP3 SWAP2 POP POP JUMP JUMPDEST PUSH1 0x0 DUP2 SWAP1 POP SWAP2 SWAP1 POP JUMP JUMPDEST PUSH2 0x464 PUSH2 0x45F DUP3 PUSH2 0x2BC JUMP JUMPDEST PUSH2 0x449 JUMP JUMPDEST DUP3 MSTORE POP POP JUMP JUMPDEST PUSH1 0x0 PUSH2 0x476 DUP3 DUP7 PUSH2 0x418 JUMP JUMPDEST SWAP2 POP PUSH2 0x482 DUP3 DUP6 PUSH2 0x453 JUMP JUMPDEST PUSH1 0x20 DUP3 ADD SWAP2 POP PUSH2 0x492 DUP3 DUP5 PUSH2 0x453 JUMP JUMPDEST PUSH1 0x20 DUP3 ADD SWAP2 POP DUP2 SWAP1 POP SWAP5 SWAP4 POP POP POP POP JUMP JUMPDEST PUSH1 0x0 DUP3 DUP3 MSTORE PUSH1 0x20 DUP3 ADD SWAP1 POP SWAP3 SWAP2 POP POP JUMP JUMPDEST PUSH1 0x0 PUSH2 0x4BF DUP3 PUSH2 0x402 JUMP JUMPDEST PUSH2 0x4C9 DUP2 DUP6 PUSH2 0x4A3 JUMP JUMPDEST SWAP4 POP PUSH2 0x4D9 DUP2 DUP6 PUSH1 0x20 DUP7 ADD PUSH2 0x37D JUMP JUMPDEST PUSH2 0x4E2 DUP2 PUSH2 0x180 JUMP JUMPDEST DUP5 ADD SWAP2 POP POP SWAP3 SWAP2 POP POP JUMP JUMPDEST PUSH2 0x4F6 DUP2 PUSH2 0x2BC JUMP JUMPDEST DUP3 MSTORE POP POP JUMP JUMPDEST PUSH1 0x0 PUSH1 0x60 DUP4 ADD PUSH1 0x0 DUP4 ADD MLOAD DUP5 DUP3 SUB PUSH1 0x0 DUP7 ADD MSTORE PUSH2 0x519 DUP3 DUP3 PUSH2 0x4B4 JUMP JUMPDEST SWAP2 POP POP PUSH1 0x20 DUP4 ADD MLOAD PUSH2 0x52E PUSH1 0x20 DUP7 ADD DUP3 PUSH2 0x4ED JUMP JUMPDEST POP PUSH1 0x40 DUP4 ADD MLOAD PUSH2 0x541 PUSH1 0x40 DUP7 ADD DUP3 PUSH2 0x4ED JUMP JUMPDEST POP DUP1 SWAP2 POP POP SWAP3 SWAP2 POP POP JUMP JUMPDEST PUSH1 0x0 PUSH1 0x20 DUP3 ADD SWAP1 POP DUP2 DUP2 SUB PUSH1 0x0 DUP4 ADD MSTORE PUSH2 0x566 DUP2 DUP5 PUSH2 0x4FC JUMP JUMPDEST SWAP1 POP SWAP3 SWAP2 POP POP JUMP INVALID LOG2 PUSH5 0x6970667358 0x22 SLT KECCAK256 PUSH12 0xBE9F57ADD84A55BFC671C686 0xF8 SWAP7 0xE CALLER MOD EXP CALLVALUE RETURNDATASIZE GASLIMIT 0xB2 SWAP5 0xCA 0xC6 0xF9 0xA7 0xBD EXTCODEHASH STATICCALL 0xBF PUSH5 0x736F6C6343 STOP ADDMOD SLT STOP CALLER "
				},
				"gasEstimates": {
					"creation": {
						"codeDepositCost": "288800",
						"executionCost": "331",
						"totalCost": "289131"
					},
					"external": {
						"Packed(string,uint256,uint256)": "infinite",
						"lap(string,uint256,uint256)": "infinite"
					}
				},
				"methodIdentifiers": {
					"Packed(string,uint256,uint256)": "cb877884",
					"lap(string,uint256,uint256)": "f45b835a"
				}
			},
			"storageLayout": {
				"storage": [],
				"types": null
			},
			"userdoc": {
				"kind": "user",
				"methods": {},
				"version": 1
			}
		}
	}
}