{
	"data": {
		"bytecode": {
			"linkReferences": {},
			"object": "608060405234801561001057600080fd5b50610a5a806100206000396000f3fe608060405234801561001057600080fd5b50600436106100365760003560e01c806392f0105b1461003b578063ccaeb78a1461006e575b600080fd5b61005560048036038101906100509190610253565b61009e565b6040516100659493929190610433565b60405180910390f35b61008860048036038101906100839190610635565b6100c7565b604051610095919061070d565b60405180910390f35b600080606080848060200190518101906100b891906108b5565b93509350935093509193509193565b6060848484846040516020016100e094939291906109d8565b6040516020818303038152906040529050949350505050565b6000604051905090565b600080fd5b600080fd5b600080fd5b600080fd5b6000601f19601f8301169050919050565b7f4e487b7100000000000000000000000000000000000000000000000000000000600052604160045260246000fd5b61016082610117565b810181811067ffffffffffffffff8211171561017f5761017e610128565b5b80604052505050565b60006101926100f9565b905061019e8282610157565b919050565b600067ffffffffffffffff8211156101be576101bd610128565b5b6101c782610117565b9050602081019050919050565b82818337600083830152505050565b60006101f66101f1846101a3565b610188565b90508281526020810184848401111561021257610211610112565b5b61021d8482856101d4565b509392505050565b600082601f83011261023a5761023961010d565b5b813561024a8482602086016101e3565b91505092915050565b60006020828403121561026957610268610103565b5b600082013567ffffffffffffffff81111561028757610286610108565b5b61029384828501610225565b91505092915050565b600073ffffffffffffffffffffffffffffffffffffffff82169050919050565b60006102c78261029c565b9050919050565b6102d7816102bc565b82525050565b6000819050919050565b6102f0816102dd565b82525050565b600081519050919050565b600082825260208201905092915050565b60005b83811015610330578082015181840152602081019050610315565b60008484015250505050565b6000610347826102f6565b6103518185610301565b9350610361818560208601610312565b61036a81610117565b840191505092915050565b600081519050919050565b600082825260208201905092915050565b6000819050602082019050919050565b6103aa816102dd565b82525050565b60006103bc83836103a1565b60208301905092915050565b6000602082019050919050565b60006103e082610375565b6103ea8185610380565b93506103f583610391565b8060005b8381101561042657815161040d88826103b0565b9750610418836103c8565b9250506001810190506103f9565b5085935050505092915050565b600060808201905061044860008301876102ce565b61045560208301866102e7565b8181036040830152610467818561033c565b9050818103606083015261047b81846103d5565b905095945050505050565b61048f816102bc565b811461049a57600080fd5b50565b6000813590506104ac81610486565b92915050565b6104bb816102dd565b81146104c657600080fd5b50565b6000813590506104d8816104b2565b92915050565b600067ffffffffffffffff8211156104f9576104f8610128565b5b61050282610117565b9050602081019050919050565b600061052261051d846104de565b610188565b90508281526020810184848401111561053e5761053d610112565b5b6105498482856101d4565b509392505050565b600082601f8301126105665761056561010d565b5b813561057684826020860161050f565b91505092915050565b600067ffffffffffffffff82111561059a57610599610128565b5b602082029050919050565b600080fd5b60006105bd6105b88461057f565b610188565b905080602084028301858111156105d7576105d66105a5565b5b835b8181101561060057806105ec88826104c9565b8452602084019350506020810190506105d9565b5050509392505050565b600082601f83011261061f5761061e61010d565b5b600361062c8482856105aa565b91505092915050565b60008060008060c0858703121561064f5761064e610103565b5b600061065d8782880161049d565b945050602061066e878288016104c9565b935050604085013567ffffffffffffffff81111561068f5761068e610108565b5b61069b87828801610551565b92505060606106ac8782880161060a565b91505092959194509250565b600081519050919050565b600082825260208201905092915050565b60006106df826106b8565b6106e981856106c3565b93506106f9818560208601610312565b61070281610117565b840191505092915050565b6000602082019050818103600083015261072781846106d4565b905092915050565b600061073a8261029c565b9050919050565b61074a8161072f565b811461075557600080fd5b50565b60008151905061076781610741565b92915050565b60008151905061077c816104b2565b92915050565b6000610795610790846104de565b610188565b9050828152602081018484840111156107b1576107b0610112565b5b6107bc848285610312565b509392505050565b600082601f8301126107d9576107d861010d565b5b81516107e9848260208601610782565b91505092915050565b600067ffffffffffffffff82111561080d5761080c610128565b5b602082029050602081019050919050565b600061083161082c846107f2565b610188565b90508083825260208201905060208402830185811115610854576108536105a5565b5b835b8181101561087d5780610869888261076d565b845260208401935050602081019050610856565b5050509392505050565b600082601f83011261089c5761089b61010d565b5b81516108ac84826020860161081e565b91505092915050565b600080600080608085870312156108cf576108ce610103565b5b60006108dd87828801610758565b94505060206108ee8782880161076d565b935050604085015167ffffffffffffffff81111561090f5761090e610108565b5b61091b878288016107c4565b925050606085015167ffffffffffffffff81111561093c5761093b610108565b5b61094887828801610887565b91505092959194509250565b600060039050919050565b600081905092915050565b6000819050919050565b6000602082019050919050565b61098a81610954565b610994818461095f565b925061099f8261096a565b8060005b838110156109d05781516109b787826103b0565b96506109c283610974565b9250506001810190506109a3565b505050505050565b600060c0820190506109ed60008301876102ce565b6109fa60208301866102e7565b8181036040830152610a0c818561033c565b9050610a1b6060830184610981565b9594505050505056fea26469706673582212205427ae08ec1732b43c52896cc65f571cdc787113d86c1f729748926173be27ec64736f6c63430008120033",
			"opcodes": "PUSH1 0x80 PUSH1 0x40 MSTORE CALLVALUE DUP1 ISZERO PUSH2 0x10 JUMPI PUSH1 0x0 DUP1 REVERT JUMPDEST POP PUSH2 0xA5A DUP1 PUSH2 0x20 PUSH1 0x0 CODECOPY PUSH1 0x0 RETURN INVALID PUSH1 0x80 PUSH1 0x40 MSTORE CALLVALUE DUP1 ISZERO PUSH2 0x10 JUMPI PUSH1 0x0 DUP1 REVERT JUMPDEST POP PUSH1 0x4 CALLDATASIZE LT PUSH2 0x36 JUMPI PUSH1 0x0 CALLDATALOAD PUSH1 0xE0 SHR DUP1 PUSH4 0x92F0105B EQ PUSH2 0x3B JUMPI DUP1 PUSH4 0xCCAEB78A EQ PUSH2 0x6E JUMPI JUMPDEST PUSH1 0x0 DUP1 REVERT JUMPDEST PUSH2 0x55 PUSH1 0x4 DUP1 CALLDATASIZE SUB DUP2 ADD SWAP1 PUSH2 0x50 SWAP2 SWAP1 PUSH2 0x253 JUMP JUMPDEST PUSH2 0x9E JUMP JUMPDEST PUSH1 0x40 MLOAD PUSH2 0x65 SWAP5 SWAP4 SWAP3 SWAP2 SWAP1 PUSH2 0x433 JUMP JUMPDEST PUSH1 0x40 MLOAD DUP1 SWAP2 SUB SWAP1 RETURN JUMPDEST PUSH2 0x88 PUSH1 0x4 DUP1 CALLDATASIZE SUB DUP2 ADD SWAP1 PUSH2 0x83 SWAP2 SWAP1 PUSH2 0x635 JUMP JUMPDEST PUSH2 0xC7 JUMP JUMPDEST PUSH1 0x40 MLOAD PUSH2 0x95 SWAP2 SWAP1 PUSH2 0x70D JUMP JUMPDEST PUSH1 0x40 MLOAD DUP1 SWAP2 SUB SWAP1 RETURN JUMPDEST PUSH1 0x0 DUP1 PUSH1 0x60 DUP1 DUP5 DUP1 PUSH1 0x20 ADD SWAP1 MLOAD DUP2 ADD SWAP1 PUSH2 0xB8 SWAP2 SWAP1 PUSH2 0x8B5 JUMP JUMPDEST SWAP4 POP SWAP4 POP SWAP4 POP SWAP4 POP SWAP2 SWAP4 POP SWAP2 SWAP4 JUMP JUMPDEST PUSH1 0x60 DUP5 DUP5 DUP5 DUP5 PUSH1 0x40 MLOAD PUSH1 0x20 ADD PUSH2 0xE0 SWAP5 SWAP4 SWAP3 SWAP2 SWAP1 PUSH2 0x9D8 JUMP JUMPDEST PUSH1 0x40 MLOAD PUSH1 0x20 DUP2 DUP4 SUB SUB DUP2 MSTORE SWAP1 PUSH1 0x40 MSTORE SWAP1 POP SWAP5 SWAP4 POP POP POP POP JUMP JUMPDEST PUSH1 0x0 PUSH1 0x40 MLOAD SWAP1 POP SWAP1 JUMP JUMPDEST PUSH1 0x0 DUP1 REVERT JUMPDEST PUSH1 0x0 DUP1 REVERT JUMPDEST PUSH1 0x0 DUP1 REVERT JUMPDEST PUSH1 0x0 DUP1 REVERT JUMPDEST PUSH1 0x0 PUSH1 0x1F NOT PUSH1 0x1F DUP4 ADD AND SWAP1 POP SWAP2 SWAP1 POP JUMP JUMPDEST PUSH32 0x4E487B7100000000000000000000000000000000000000000000000000000000 PUSH1 0x0 MSTORE PUSH1 0x41 PUSH1 0x4 MSTORE PUSH1 0x24 PUSH1 0x0 REVERT JUMPDEST PUSH2 0x160 DUP3 PUSH2 0x117 JUMP JUMPDEST DUP2 ADD DUP2 DUP2 LT PUSH8 0xFFFFFFFFFFFFFFFF DUP3 GT OR ISZERO PUSH2 0x17F JUMPI PUSH2 0x17E PUSH2 0x128 JUMP JUMPDEST JUMPDEST DUP1 PUSH1 0x40 MSTORE POP POP POP JUMP JUMPDEST PUSH1 0x0 PUSH2 0x192 PUSH2 0xF9 JUMP JUMPDEST SWAP1 POP PUSH2 0x19E DUP3 DUP3 PUSH2 0x157 JUMP JUMPDEST SWAP2 SWAP1 POP JUMP JUMPDEST PUSH1 0x0 PUSH8 0xFFFFFFFFFFFFFFFF DUP3 GT ISZERO PUSH2 0x1BE JUMPI PUSH2 0x1BD PUSH2 0x128 JUMP JUMPDEST JUMPDEST PUSH2 0x1C7 DUP3 PUSH2 0x117 JUMP JUMPDEST SWAP1 POP PUSH1 0x20 DUP2 ADD SWAP1 POP SWAP2 SWAP1 POP JUMP JUMPDEST DUP3 DUP2 DUP4 CALLDATACOPY PUSH1 0x0 DUP4 DUP4 ADD MSTORE POP POP POP JUMP JUMPDEST PUSH1 0x0 PUSH2 0x1F6 PUSH2 0x1F1 DUP5 PUSH2 0x1A3 JUMP JUMPDEST PUSH2 0x188 JUMP JUMPDEST SWAP1 POP DUP3 DUP2 MSTORE PUSH1 0x20 DUP2 ADD DUP5 DUP5 DUP5 ADD GT ISZERO PUSH2 0x212 JUMPI PUSH2 0x211 PUSH2 0x112 JUMP JUMPDEST JUMPDEST PUSH2 0x21D DUP5 DUP3 DUP6 PUSH2 0x1D4 JUMP JUMPDEST POP SWAP4 SWAP3 POP POP POP JUMP JUMPDEST PUSH1 0x0 DUP3 PUSH1 0x1F DUP4 ADD SLT PUSH2 0x23A JUMPI PUSH2 0x239 PUSH2 0x10D JUMP JUMPDEST JUMPDEST DUP2 CALLDATALOAD PUSH2 0x24A DUP5 DUP3 PUSH1 0x20 DUP7 ADD PUSH2 0x1E3 JUMP JUMPDEST SWAP2 POP POP SWAP3 SWAP2 POP POP JUMP JUMPDEST PUSH1 0x0 PUSH1 0x20 DUP3 DUP5 SUB SLT ISZERO PUSH2 0x269 JUMPI PUSH2 0x268 PUSH2 0x103 JUMP JUMPDEST JUMPDEST PUSH1 0x0 DUP3 ADD CALLDATALOAD PUSH8 0xFFFFFFFFFFFFFFFF DUP2 GT ISZERO PUSH2 0x287 JUMPI PUSH2 0x286 PUSH2 0x108 JUMP JUMPDEST JUMPDEST PUSH2 0x293 DUP5 DUP3 DUP6 ADD PUSH2 0x225 JUMP JUMPDEST SWAP2 POP POP SWAP3 SWAP2 POP POP JUMP JUMPDEST PUSH1 0x0 PUSH20 0xFFFFFFFFFFFFFFFFFFFFFFFFFFFFFFFFFFFFFFFF DUP3 AND SWAP1 POP SWAP2 SWAP1 POP JUMP JUMPDEST PUSH1 0x0 PUSH2 0x2C7 DUP3 PUSH2 0x29C JUMP JUMPDEST SWAP1 POP SWAP2 SWAP1 POP JUMP JUMPDEST PUSH2 0x2D7 DUP2 PUSH2 0x2BC JUMP JUMPDEST DUP3 MSTORE POP POP JUMP JUMPDEST PUSH1 0x0 DUP2 SWAP1 POP SWAP2 SWAP1 POP JUMP JUMPDEST PUSH2 0x2F0 DUP2 PUSH2 0x2DD JUMP JUMPDEST DUP3 MSTORE POP POP JUMP JUMPDEST PUSH1 0x0 DUP2 MLOAD SWAP1 POP SWAP2 SWAP1 POP JUMP JUMPDEST PUSH1 0x0 DUP3 DUP3 MSTORE PUSH1 0x20 DUP3 ADD SWAP1 POP SWAP3 SWAP2 POP POP JUMP JUMPDEST PUSH1 0x0 JUMPDEST DUP4 DUP2 LT ISZERO PUSH2 0x330 JUMPI DUP1 DUP3 ADD MLOAD DUP2 DUP5 ADD MSTORE PUSH1 0x20 DUP2 ADD SWAP1 POP PUSH2 0x315 JUMP JUMPDEST PUSH1 0x0 DUP5 DUP5 ADD MSTORE POP POP POP POP JUMP JUMPDEST PUSH1 0x0 PUSH2 0x347 DUP3 PUSH2 0x2F6 JUMP JUMPDEST PUSH2 0x351 DUP2 DUP6 PUSH2 0x301 JUMP JUMPDEST SWAP4 POP PUSH2 0x361 DUP2 DUP6 PUSH1 0x20 DUP7 ADD PUSH2 0x312 JUMP JUMPDEST PUSH2 0x36A DUP2 PUSH2 0x117 JUMP JUMPDEST DUP5 ADD SWAP2 POP POP SWAP3 SWAP2 POP POP JUMP JUMPDEST PUSH1 0x0 DUP2 MLOAD SWAP1 POP SWAP2 SWAP1 POP JUMP JUMPDEST PUSH1 0x0 DUP3 DUP3 MSTORE PUSH1 0x20 DUP3 ADD SWAP1 POP SWAP3 SWAP2 POP POP JUMP JUMPDEST PUSH1 0x0 DUP2 SWAP1 POP PUSH1 0x20 DUP3 ADD SWAP1 POP SWAP2 SWAP1 POP JUMP JUMPDEST PUSH2 0x3AA DUP2 PUSH2 0x2DD JUMP JUMPDEST DUP3 MSTORE POP POP JUMP JUMPDEST PUSH1 0x0 PUSH2 0x3BC DUP4 DUP4 PUSH2 0x3A1 JUMP JUMPDEST PUSH1 0x20 DUP4 ADD SWAP1 POP SWAP3 SWAP2 POP POP JUMP JUMPDEST PUSH1 0x0 PUSH1 0x20 DUP3 ADD SWAP1 POP SWAP2 SWAP1 POP JUMP JUMPDEST PUSH1 0x0 PUSH2 0x3E0 DUP3 PUSH2 0x375 JUMP JUMPDEST PUSH2 0x3EA DUP2 DUP6 PUSH2 0x380 JUMP JUMPDEST SWAP4 POP PUSH2 0x3F5 DUP4 PUSH2 0x391 JUMP JUMPDEST DUP1 PUSH1 0x0 JUMPDEST DUP4 DUP2 LT ISZERO PUSH2 0x426 JUMPI DUP2 MLOAD PUSH2 0x40D DUP9 DUP3 PUSH2 0x3B0 JUMP JUMPDEST SWAP8 POP PUSH2 0x418 DUP4 PUSH2 0x3C8 JUMP JUMPDEST SWAP3 POP POP PUSH1 0x1 DUP2 ADD SWAP1 POP PUSH2 0x3F9 JUMP JUMPDEST POP DUP6 SWAP4 POP POP POP POP SWAP3 SWAP2 POP POP JUMP JUMPDEST PUSH1 0x0 PUSH1 0x80 DUP3 ADD SWAP1 POP PUSH2 0x448 PUSH1 0x0 DUP4 ADD DUP8 PUSH2 0x2CE JUMP JUMPDEST PUSH2 0x455 PUSH1 0x20 DUP4 ADD DUP7 PUSH2 0x2E7 JUMP JUMPDEST DUP2 DUP2 SUB PUSH1 0x40 DUP4 ADD MSTORE PUSH2 0x467 DUP2 DUP6 PUSH2 0x33C JUMP JUMPDEST SWAP1 POP DUP2 DUP2 SUB PUSH1 0x60 DUP4 ADD MSTORE PUSH2 0x47B DUP2 DUP5 PUSH2 0x3D5 JUMP JUMPDEST SWAP1 POP SWAP6 SWAP5 POP POP POP POP POP JUMP JUMPDEST PUSH2 0x48F DUP2 PUSH2 0x2BC JUMP JUMPDEST DUP2 EQ PUSH2 0x49A JUMPI PUSH1 0x0 DUP1 REVERT JUMPDEST POP JUMP JUMPDEST PUSH1 0x0 DUP2 CALLDATALOAD SWAP1 POP PUSH2 0x4AC DUP2 PUSH2 0x486 JUMP JUMPDEST SWAP3 SWAP2 POP POP JUMP JUMPDEST PUSH2 0x4BB DUP2 PUSH2 0x2DD JUMP JUMPDEST DUP2 EQ PUSH2 0x4C6 JUMPI PUSH1 0x0 DUP1 REVERT JUMPDEST POP JUMP JUMPDEST PUSH1 0x0 DUP2 CALLDATALOAD SWAP1 POP PUSH2 0x4D8 DUP2 PUSH2 0x4B2 JUMP JUMPDEST SWAP3 SWAP2 POP POP JUMP JUMPDEST PUSH1 0x0 PUSH8 0xFFFFFFFFFFFFFFFF DUP3 GT ISZERO PUSH2 0x4F9 JUMPI PUSH2 0x4F8 PUSH2 0x128 JUMP JUMPDEST JUMPDEST PUSH2 0x502 DUP3 PUSH2 0x117 JUMP JUMPDEST SWAP1 POP PUSH1 0x20 DUP2 ADD SWAP1 POP SWAP2 SWAP1 POP JUMP JUMPDEST PUSH1 0x0 PUSH2 0x522 PUSH2 0x51D DUP5 PUSH2 0x4DE JUMP JUMPDEST PUSH2 0x188 JUMP JUMPDEST SWAP1 POP DUP3 DUP2 MSTORE PUSH1 0x20 DUP2 ADD DUP5 DUP5 DUP5 ADD GT ISZERO PUSH2 0x53E JUMPI PUSH2 0x53D PUSH2 0x112 JUMP JUMPDEST JUMPDEST PUSH2 0x549 DUP5 DUP3 DUP6 PUSH2 0x1D4 JUMP JUMPDEST POP SWAP4 SWAP3 POP POP POP JUMP JUMPDEST PUSH1 0x0 DUP3 PUSH1 0x1F DUP4 ADD SLT PUSH2 0x566 JUMPI PUSH2 0x565 PUSH2 0x10D JUMP JUMPDEST JUMPDEST DUP2 CALLDATALOAD PUSH2 0x576 DUP5 DUP3 PUSH1 0x20 DUP7 ADD PUSH2 0x50F JUMP JUMPDEST SWAP2 POP POP SWAP3 SWAP2 POP POP JUMP JUMPDEST PUSH1 0x0 PUSH8 0xFFFFFFFFFFFFFFFF DUP3 GT ISZERO PUSH2 0x59A JUMPI PUSH2 0x599 PUSH2 0x128 JUMP JUMPDEST JUMPDEST PUSH1 0x20 DUP3 MUL SWAP1 POP SWAP2 SWAP1 POP JUMP JUMPDEST PUSH1 0x0 DUP1 REVERT JUMPDEST PUSH1 0x0 PUSH2 0x5BD PUSH2 0x5B8 DUP5 PUSH2 0x57F JUMP JUMPDEST PUSH2 0x188 JUMP JUMPDEST SWAP1 POP DUP1 PUSH1 0x20 DUP5 MUL DUP4 ADD DUP6 DUP2 GT ISZERO PUSH2 0x5D7 JUMPI PUSH2 0x5D6 PUSH2 0x5A5 JUMP JUMPDEST JUMPDEST DUP4 JUMPDEST DUP2 DUP2 LT ISZERO PUSH2 0x600 JUMPI DUP1 PUSH2 0x5EC DUP9 DUP3 PUSH2 0x4C9 JUMP JUMPDEST DUP5 MSTORE PUSH1 0x20 DUP5 ADD SWAP4 POP POP PUSH1 0x20 DUP2 ADD SWAP1 POP PUSH2 0x5D9 JUMP JUMPDEST POP POP POP SWAP4 SWAP3 POP POP POP JUMP JUMPDEST PUSH1 0x0 DUP3 PUSH1 0x1F DUP4 ADD SLT PUSH2 0x61F JUMPI PUSH2 0x61E PUSH2 0x10D JUMP JUMPDEST JUMPDEST PUSH1 0x3 PUSH2 0x62C DUP5 DUP3 DUP6 PUSH2 0x5AA JUMP JUMPDEST SWAP2 POP POP SWAP3 SWAP2 POP POP JUMP JUMPDEST PUSH1 0x0 DUP1 PUSH1 0x0 DUP1 PUSH1 0xC0 DUP6 DUP8 SUB SLT ISZERO PUSH2 0x64F JUMPI PUSH2 0x64E PUSH2 0x103 JUMP JUMPDEST JUMPDEST PUSH1 0x0 PUSH2 0x65D DUP8 DUP3 DUP9 ADD PUSH2 0x49D JUMP JUMPDEST SWAP5 POP POP PUSH1 0x20 PUSH2 0x66E DUP8 DUP3 DUP9 ADD PUSH2 0x4C9 JUMP JUMPDEST SWAP4 POP POP PUSH1 0x40 DUP6 ADD CALLDATALOAD PUSH8 0xFFFFFFFFFFFFFFFF DUP2 GT ISZERO PUSH2 0x68F JUMPI PUSH2 0x68E PUSH2 0x108 JUMP JUMPDEST JUMPDEST PUSH2 0x69B DUP8 DUP3 DUP9 ADD PUSH2 0x551 JUMP JUMPDEST SWAP3 POP POP PUSH1 0x60 PUSH2 0x6AC DUP8 DUP3 DUP9 ADD PUSH2 0x60A JUMP JUMPDEST SWAP2 POP POP SWAP3 SWAP6 SWAP2 SWAP5 POP SWAP3 POP JUMP JUMPDEST PUSH1 0x0 DUP2 MLOAD SWAP1 POP SWAP2 SWAP1 POP JUMP JUMPDEST PUSH1 0x0 DUP3 DUP3 MSTORE PUSH1 0x20 DUP3 ADD SWAP1 POP SWAP3 SWAP2 POP POP JUMP JUMPDEST PUSH1 0x0 PUSH2 0x6DF DUP3 PUSH2 0x6B8 JUMP JUMPDEST PUSH2 0x6E9 DUP2 DUP6 PUSH2 0x6C3 JUMP JUMPDEST SWAP4 POP PUSH2 0x6F9 DUP2 DUP6 PUSH1 0x20 DUP7 ADD PUSH2 0x312 JUMP JUMPDEST PUSH2 0x702 DUP2 PUSH2 0x117 JUMP JUMPDEST DUP5 ADD SWAP2 POP POP SWAP3 SWAP2 POP POP JUMP JUMPDEST PUSH1 0x0 PUSH1 0x20 DUP3 ADD SWAP1 POP DUP2 DUP2 SUB PUSH1 0x0 DUP4 ADD MSTORE PUSH2 0x727 DUP2 DUP5 PUSH2 0x6D4 JUMP JUMPDEST SWAP1 POP SWAP3 SWAP2 POP POP JUMP JUMPDEST PUSH1 0x0 PUSH2 0x73A DUP3 PUSH2 0x29C JUMP JUMPDEST SWAP1 POP SWAP2 SWAP1 POP JUMP JUMPDEST PUSH2 0x74A DUP2 PUSH2 0x72F JUMP JUMPDEST DUP2 EQ PUSH2 0x755 JUMPI PUSH1 0x0 DUP1 REVERT JUMPDEST POP JUMP JUMPDEST PUSH1 0x0 DUP2 MLOAD SWAP1 POP PUSH2 0x767 DUP2 PUSH2 0x741 JUMP JUMPDEST SWAP3 SWAP2 POP POP JUMP JUMPDEST PUSH1 0x0 DUP2 MLOAD SWAP1 POP PUSH2 0x77C DUP2 PUSH2 0x4B2 JUMP JUMPDEST SWAP3 SWAP2 POP POP JUMP JUMPDEST PUSH1 0x0 PUSH2 0x795 PUSH2 0x790 DUP5 PUSH2 0x4DE JUMP JUMPDEST PUSH2 0x188 JUMP JUMPDEST SWAP1 POP DUP3 DUP2 MSTORE PUSH1 0x20 DUP2 ADD DUP5 DUP5 DUP5 ADD GT ISZERO PUSH2 0x7B1 JUMPI PUSH2 0x7B0 PUSH2 0x112 JUMP JUMPDEST JUMPDEST PUSH2 0x7BC DUP5 DUP3 DUP6 PUSH2 0x312 JUMP JUMPDEST POP SWAP4 SWAP3 POP POP POP JUMP JUMPDEST PUSH1 0x0 DUP3 PUSH1 0x1F DUP4 ADD SLT PUSH2 0x7D9 JUMPI PUSH2 0x7D8 PUSH2 0x10D JUMP JUMPDEST JUMPDEST DUP2 MLOAD PUSH2 0x7E9 DUP5 DUP3 PUSH1 0x20 DUP7 ADD PUSH2 0x782 JUMP JUMPDEST SWAP2 POP POP SWAP3 SWAP2 POP POP JUMP JUMPDEST PUSH1 0x0 PUSH8 0xFFFFFFFFFFFFFFFF DUP3 GT ISZERO PUSH2 0x80D JUMPI PUSH2 0x80C PUSH2 0x128 JUMP JUMPDEST JUMPDEST PUSH1 0x20 DUP3 MUL SWAP1 POP PUSH1 0x20 DUP2 ADD SWAP1 POP SWAP2 SWAP1 POP JUMP JUMPDEST PUSH1 0x0 PUSH2 0x831 PUSH2 0x82C DUP5 PUSH2 0x7F2 JUMP JUMPDEST PUSH2 0x188 JUMP JUMPDEST SWAP1 POP DUP1 DUP4 DUP3 MSTORE PUSH1 0x20 DUP3 ADD SWAP1 POP PUSH1 0x20 DUP5 MUL DUP4 ADD DUP6 DUP2 GT ISZERO PUSH2 0x854 JUMPI PUSH2 0x853 PUSH2 0x5A5 JUMP JUMPDEST JUMPDEST DUP4 JUMPDEST DUP2 DUP2 LT ISZERO PUSH2 0x87D JUMPI DUP1 PUSH2 0x869 DUP9 DUP3 PUSH2 0x76D JUMP JUMPDEST DUP5 MSTORE PUSH1 0x20 DUP5 ADD SWAP4 POP POP PUSH1 0x20 DUP2 ADD SWAP1 POP PUSH2 0x856 JUMP JUMPDEST POP POP POP SWAP4 SWAP3 POP POP POP JUMP JUMPDEST PUSH1 0x0 DUP3 PUSH1 0x1F DUP4 ADD SLT PUSH2 0x89C JUMPI PUSH2 0x89B PUSH2 0x10D JUMP JUMPDEST JUMPDEST DUP2 MLOAD PUSH2 0x8AC DUP5 DUP3 PUSH1 0x20 DUP7 ADD PUSH2 0x81E JUMP JUMPDEST SWAP2 POP POP SWAP3 SWAP2 POP POP JUMP JUMPDEST PUSH1 0x0 DUP1 PUSH1 0x0 DUP1 PUSH1 0x80 DUP6 DUP8 SUB SLT ISZERO PUSH2 0x8CF JUMPI PUSH2 0x8CE PUSH2 0x103 JUMP JUMPDEST JUMPDEST PUSH1 0x0 PUSH2 0x8DD DUP8 DUP3 DUP9 ADD PUSH2 0x758 JUMP JUMPDEST SWAP5 POP POP PUSH1 0x20 PUSH2 0x8EE DUP8 DUP3 DUP9 ADD PUSH2 0x76D JUMP JUMPDEST SWAP4 POP POP PUSH1 0x40 DUP6 ADD MLOAD PUSH8 0xFFFFFFFFFFFFFFFF DUP2 GT ISZERO PUSH2 0x90F JUMPI PUSH2 0x90E PUSH2 0x108 JUMP JUMPDEST JUMPDEST PUSH2 0x91B DUP8 DUP3 DUP9 ADD PUSH2 0x7C4 JUMP JUMPDEST SWAP3 POP POP PUSH1 0x60 DUP6 ADD MLOAD PUSH8 0xFFFFFFFFFFFFFFFF DUP2 GT ISZERO PUSH2 0x93C JUMPI PUSH2 0x93B PUSH2 0x108 JUMP JUMPDEST JUMPDEST PUSH2 0x948 DUP8 DUP3 DUP9 ADD PUSH2 0x887 JUMP JUMPDEST SWAP2 POP POP SWAP3 SWAP6 SWAP2 SWAP5 POP SWAP3 POP JUMP JUMPDEST PUSH1 0x0 PUSH1 0x3 SWAP1 POP SWAP2 SWAP1 POP JUMP JUMPDEST PUSH1 0x0 DUP2 SWAP1 POP SWAP3 SWAP2 POP POP JUMP JUMPDEST PUSH1 0x0 DUP2 SWAP1 POP SWAP2 SWAP1 POP JUMP JUMPDEST PUSH1 0x0 PUSH1 0x20 DUP3 ADD SWAP1 POP SWAP2 SWAP1 POP JUMP JUMPDEST PUSH2 0x98A DUP2 PUSH2 0x954 JUMP JUMPDEST PUSH2 0x994 DUP2 DUP5 PUSH2 0x95F JUMP JUMPDEST SWAP3 POP PUSH2 0x99F DUP3 PUSH2 0x96A JUMP JUMPDEST DUP1 PUSH1 0x0 JUMPDEST DUP4 DUP2 LT ISZERO PUSH2 0x9D0 JUMPI DUP2 MLOAD PUSH2 0x9B7 DUP8 DUP3 PUSH2 0x3B0 JUMP JUMPDEST SWAP7 POP PUSH2 0x9C2 DUP4 PUSH2 0x974 JUMP JUMPDEST SWAP3 POP POP PUSH1 0x1 DUP2 ADD SWAP1 POP PUSH2 0x9A3 JUMP JUMPDEST POP POP POP POP POP POP JUMP JUMPDEST PUSH1 0x0 PUSH1 0xC0 DUP3 ADD SWAP1 POP PUSH2 0x9ED PUSH1 0x0 DUP4 ADD DUP8 PUSH2 0x2CE JUMP JUMPDEST PUSH2 0x9FA PUSH1 0x20 DUP4 ADD DUP7 PUSH2 0x2E7 JUMP JUMPDEST DUP2 DUP2 SUB PUSH1 0x40 DUP4 ADD MSTORE PUSH2 0xA0C DUP2 DUP6 PUSH2 0x33C JUMP JUMPDEST SWAP1 POP PUSH2 0xA1B PUSH1 0x60 DUP4 ADD DUP5 PUSH2 0x981 JUMP JUMPDEST SWAP6 SWAP5 POP POP POP POP POP JUMP INVALID LOG2 PUSH5 0x6970667358 0x22 SLT KECCAK256 SLOAD 0x27 0xAE ADDMOD 0xEC OR ORIGIN 0xB4 EXTCODECOPY MSTORE DUP10 PUSH13 0xC65F571CDC787113D86C1F7297 BASEFEE SWAP3 PUSH2 0x73BE 0x27 0xEC PUSH5 0x736F6C6343 STOP ADDMOD SLT STOP CALLER "
		},
		"gasEstimates": {
			"creation": {
				"codeDepositCost": "530000",
				"executionCost": "562",
				"totalCost": "530562"
			},
			"external": {
				"voteEncoder(address,uint256,string,uint256[3])": "infinite",
				"voterID(bytes)": "infinite"
			}
		},
		"methodIdentifiers": {
			"voteEncoder(address,uint256,string,uint256[3])": "ccaeb78a",
			"voterID(bytes)": "92f0105b"
		}
	},
	"abi": [
		{
			"inputs": [
				{
					"internalType": "address",
					"name": "addr",
					"type": "address"
				},
				{
					"internalType": "uint256",
					"name": "id",
					"type": "uint256"
				},
				{
					"internalType": "string",
					"name": "name",
					"type": "string"
				},
				{
					"internalType": "uint256[3]",
					"name": "DOB",
					"type": "uint256[3]"
				}
			],
			"name": "voteEncoder",
			"outputs": [
				{
					"internalType": "bytes",
					"name": "file",
					"type": "bytes"
				}
			],
			"stateMutability": "pure",
			"type": "function"
		},
		{
			"inputs": [
				{
					"internalType": "bytes",
					"name": "data",
					"type": "bytes"
				}
			],
			"name": "voterID",
			"outputs": [
				{
					"internalType": "address",
					"name": "",
					"type": "address"
				},
				{
					"internalType": "uint256",
					"name": "",
					"type": "uint256"
				},
				{
					"internalType": "string",
					"name": "",
					"type": "string"
				},
				{
					"internalType": "uint256[]",
					"name": "",
					"type": "uint256[]"
				}
			],
			"stateMutability": "pure",
			"type": "function"
		}
	]
}