{
	"lab31_7/array_excercise.sol": {
		"arrays": {
			"abi": [
				{
					"inputs": [
						{
							"internalType": "uint256",
							"name": "",
							"type": "uint256"
						}
					],
					"name": "arr1",
					"outputs": [
						{
							"internalType": "uint256",
							"name": "",
							"type": "uint256"
						}
					],
					"stateMutability": "view",
					"type": "function"
				},
				{
					"inputs": [],
					"name": "get1",
					"outputs": [
						{
							"internalType": "uint256[4]",
							"name": "",
							"type": "uint256[4]"
						}
					],
					"stateMutability": "view",
					"type": "function"
				},
				{
					"inputs": [],
					"name": "replace",
					"outputs": [],
					"stateMutability": "nonpayable",
					"type": "function"
				}
			],
			"devdoc": {
				"kind": "dev",
				"methods": {},
				"version": 1
			},
			"evm": {
				"assembly": "    /* \"lab31_7/array_excercise.sol\":61:355  contract arrays {... */\n  mstore(0x40, 0x80)\n  callvalue\n  dup1\n  iszero\n  tag_1\n  jumpi\n  0x00\n  dup1\n  revert\ntag_1:\n  pop\n  dataSize(sub_0)\n  dup1\n  dataOffset(sub_0)\n  0x00\n  codecopy\n  0x00\n  return\nstop\n\nsub_0: assembly {\n        /* \"lab31_7/array_excercise.sol\":61:355  contract arrays {... */\n      mstore(0x40, 0x80)\n      callvalue\n      dup1\n      iszero\n      tag_1\n      jumpi\n      0x00\n      dup1\n      revert\n    tag_1:\n      pop\n      jumpi(tag_2, lt(calldatasize, 0x04))\n      shr(0xe0, calldataload(0x00))\n      dup1\n      0x054c1a75\n      eq\n      tag_3\n      jumpi\n      dup1\n      0x497c69b1\n      eq\n      tag_4\n      jumpi\n      dup1\n      0x6987b1fb\n      eq\n      tag_5\n      jumpi\n    tag_2:\n      0x00\n      dup1\n      revert\n        /* \"lab31_7/array_excercise.sol\":248:325  function get1() public view returns(uint[4] memory){... */\n    tag_3:\n      tag_6\n      tag_7\n      jump\t// in\n    tag_6:\n      mload(0x40)\n      tag_8\n      swap2\n      swap1\n      tag_9\n      jump\t// in\n    tag_8:\n      mload(0x40)\n      dup1\n      swap2\n      sub\n      swap1\n      return\n        /* \"lab31_7/array_excercise.sol\":110:240  function replace() public{... */\n    tag_4:\n      tag_10\n      tag_11\n      jump\t// in\n    tag_10:\n      stop\n        /* \"lab31_7/array_excercise.sol\":82:101  uint[4] public arr1 */\n    tag_5:\n      tag_12\n      0x04\n      dup1\n      calldatasize\n      sub\n      dup2\n      add\n      swap1\n      tag_13\n      swap2\n      swap1\n      tag_14\n      jump\t// in\n    tag_13:\n      tag_15\n      jump\t// in\n    tag_12:\n      mload(0x40)\n      tag_16\n      swap2\n      swap1\n      tag_17\n      jump\t// in\n    tag_16:\n      mload(0x40)\n      dup1\n      swap2\n      sub\n      swap1\n      return\n        /* \"lab31_7/array_excercise.sol\":248:325  function get1() public view returns(uint[4] memory){... */\n    tag_7:\n        /* \"lab31_7/array_excercise.sol\":284:298  uint[4] memory */\n      tag_18\n      tag_19\n      jump\t// in\n    tag_18:\n        /* \"lab31_7/array_excercise.sol\":313:317  arr1 */\n      0x00\n        /* \"lab31_7/array_excercise.sol\":306:317  return arr1 */\n      0x04\n      dup1\n      0x20\n      mul\n      mload(0x40)\n      swap1\n      dup2\n      add\n      0x40\n      mstore\n      dup1\n      swap3\n      swap2\n      swap1\n      dup3\n      0x04\n      dup1\n      iszero\n      tag_21\n      jumpi\n      0x20\n      mul\n      dup3\n      add\n      swap2\n    tag_22:\n      dup2\n      sload\n      dup2\n      mstore\n      0x20\n      add\n      swap1\n      0x01\n      add\n      swap1\n      dup1\n      dup4\n      gt\n      tag_22\n      jumpi\n    tag_21:\n      pop\n      pop\n      pop\n      pop\n      pop\n      swap1\n      pop\n        /* \"lab31_7/array_excercise.sol\":248:325  function get1() public view returns(uint[4] memory){... */\n      swap1\n      jump\t// out\n        /* \"lab31_7/array_excercise.sol\":110:240  function replace() public{... */\n    tag_11:\n        /* \"lab31_7/array_excercise.sol\":153:157  arr1 */\n      0x00\n        /* \"lab31_7/array_excercise.sol\":158:159  0 */\n      dup1\n        /* \"lab31_7/array_excercise.sol\":153:160  arr1[0] */\n      0x04\n      dup2\n      lt\n      tag_24\n      jumpi\n      tag_25\n      tag_26\n      jump\t// in\n    tag_25:\n    tag_24:\n      add\n        /* \"lab31_7/array_excercise.sol\":146:160  delete arr1[0] */\n      0x00\n      swap1\n      sstore\n        /* \"lab31_7/array_excercise.sol\":178:182  arr1 */\n      0x00\n        /* \"lab31_7/array_excercise.sol\":183:184  3 */\n      0x03\n        /* \"lab31_7/array_excercise.sol\":178:185  arr1[3] */\n      0x04\n      dup2\n      lt\n      tag_28\n      jumpi\n      tag_29\n      tag_26\n      jump\t// in\n    tag_29:\n    tag_28:\n      add\n        /* \"lab31_7/array_excercise.sol\":171:185  delete arr1[3] */\n      0x00\n      swap1\n      sstore\n        /* \"lab31_7/array_excercise.sol\":206:207  2 */\n      0x02\n        /* \"lab31_7/array_excercise.sol\":196:200  arr1 */\n      0x00\n        /* \"lab31_7/array_excercise.sol\":201:202  0 */\n      dup1\n        /* \"lab31_7/array_excercise.sol\":196:203  arr1[0] */\n      0x04\n      dup2\n      lt\n      tag_31\n      jumpi\n      tag_32\n      tag_26\n      jump\t// in\n    tag_32:\n    tag_31:\n      add\n        /* \"lab31_7/array_excercise.sol\":196:207  arr1[0] = 2 */\n      dup2\n      swap1\n      sstore\n      pop\n        /* \"lab31_7/array_excercise.sol\":228:230  10 */\n      0x0a\n        /* \"lab31_7/array_excercise.sol\":218:222  arr1 */\n      0x00\n        /* \"lab31_7/array_excercise.sol\":223:224  3 */\n      0x03\n        /* \"lab31_7/array_excercise.sol\":218:225  arr1[3] */\n      0x04\n      dup2\n      lt\n      tag_34\n      jumpi\n      tag_35\n      tag_26\n      jump\t// in\n    tag_35:\n    tag_34:\n      add\n        /* \"lab31_7/array_excercise.sol\":218:230  arr1[3] = 10 */\n      dup2\n      swap1\n      sstore\n      pop\n        /* \"lab31_7/array_excercise.sol\":110:240  function replace() public{... */\n      jump\t// out\n        /* \"lab31_7/array_excercise.sol\":82:101  uint[4] public arr1 */\n    tag_15:\n      0x00\n      dup2\n      0x04\n      dup2\n      lt\n      tag_37\n      jumpi\n      0x00\n      dup1\n      revert\n    tag_37:\n      add\n      0x00\n      swap2\n      pop\n      swap1\n      pop\n      sload\n      dup2\n      jump\t// out\n    tag_19:\n      mload(0x40)\n      dup1\n      0x80\n      add\n      0x40\n      mstore\n      dup1\n      0x04\n      swap1\n      0x20\n      dup3\n      mul\n      dup1\n      calldatasize\n      dup4\n      calldatacopy\n      dup1\n      dup3\n      add\n      swap2\n      pop\n      pop\n      swap1\n      pop\n      pop\n      swap1\n      jump\t// out\n        /* \"#utility.yul\":7:111   */\n    tag_39:\n        /* \"#utility.yul\":72:78   */\n      0x00\n        /* \"#utility.yul\":100:104   */\n      0x04\n        /* \"#utility.yul\":90:104   */\n      swap1\n      pop\n        /* \"#utility.yul\":7:111   */\n      swap2\n      swap1\n      pop\n      jump\t// out\n        /* \"#utility.yul\":117:260   */\n    tag_40:\n        /* \"#utility.yul\":214:225   */\n      0x00\n        /* \"#utility.yul\":251:254   */\n      dup2\n        /* \"#utility.yul\":236:254   */\n      swap1\n      pop\n        /* \"#utility.yul\":117:260   */\n      swap3\n      swap2\n      pop\n      pop\n      jump\t// out\n        /* \"#utility.yul\":266:364   */\n    tag_41:\n        /* \"#utility.yul\":331:335   */\n      0x00\n        /* \"#utility.yul\":354:357   */\n      dup2\n        /* \"#utility.yul\":346:357   */\n      swap1\n      pop\n        /* \"#utility.yul\":266:364   */\n      swap2\n      swap1\n      pop\n      jump\t// out\n        /* \"#utility.yul\":370:447   */\n    tag_42:\n        /* \"#utility.yul\":407:414   */\n      0x00\n        /* \"#utility.yul\":436:441   */\n      dup2\n        /* \"#utility.yul\":425:441   */\n      swap1\n      pop\n        /* \"#utility.yul\":370:447   */\n      swap2\n      swap1\n      pop\n      jump\t// out\n        /* \"#utility.yul\":453:561   */\n    tag_43:\n        /* \"#utility.yul\":530:554   */\n      tag_59\n        /* \"#utility.yul\":548:553   */\n      dup2\n        /* \"#utility.yul\":530:554   */\n      tag_42\n      jump\t// in\n    tag_59:\n        /* \"#utility.yul\":525:528   */\n      dup3\n        /* \"#utility.yul\":518:555   */\n      mstore\n        /* \"#utility.yul\":453:561   */\n      pop\n      pop\n      jump\t// out\n        /* \"#utility.yul\":567:746   */\n    tag_44:\n        /* \"#utility.yul\":636:646   */\n      0x00\n        /* \"#utility.yul\":657:703   */\n      tag_61\n        /* \"#utility.yul\":699:702   */\n      dup4\n        /* \"#utility.yul\":691:697   */\n      dup4\n        /* \"#utility.yul\":657:703   */\n      tag_43\n      jump\t// in\n    tag_61:\n        /* \"#utility.yul\":735:739   */\n      0x20\n        /* \"#utility.yul\":730:733   */\n      dup4\n        /* \"#utility.yul\":726:740   */\n      add\n        /* \"#utility.yul\":712:740   */\n      swap1\n      pop\n        /* \"#utility.yul\":567:746   */\n      swap3\n      swap2\n      pop\n      pop\n      jump\t// out\n        /* \"#utility.yul\":752:863   */\n    tag_45:\n        /* \"#utility.yul\":820:824   */\n      0x00\n        /* \"#utility.yul\":852:856   */\n      0x20\n        /* \"#utility.yul\":847:850   */\n      dup3\n        /* \"#utility.yul\":843:857   */\n      add\n        /* \"#utility.yul\":835:857   */\n      swap1\n      pop\n        /* \"#utility.yul\":752:863   */\n      swap2\n      swap1\n      pop\n      jump\t// out\n        /* \"#utility.yul\":901:1595   */\n    tag_46:\n        /* \"#utility.yul\":1037:1089   */\n      tag_64\n        /* \"#utility.yul\":1083:1088   */\n      dup2\n        /* \"#utility.yul\":1037:1089   */\n      tag_39\n      jump\t// in\n    tag_64:\n        /* \"#utility.yul\":1105:1189   */\n      tag_65\n        /* \"#utility.yul\":1182:1188   */\n      dup2\n        /* \"#utility.yul\":1177:1180   */\n      dup5\n        /* \"#utility.yul\":1105:1189   */\n      tag_40\n      jump\t// in\n    tag_65:\n        /* \"#utility.yul\":1098:1189   */\n      swap3\n      pop\n        /* \"#utility.yul\":1213:1267   */\n      tag_66\n        /* \"#utility.yul\":1261:1266   */\n      dup3\n        /* \"#utility.yul\":1213:1267   */\n      tag_41\n      jump\t// in\n    tag_66:\n        /* \"#utility.yul\":1290:1297   */\n      dup1\n        /* \"#utility.yul\":1321:1322   */\n      0x00\n        /* \"#utility.yul\":1306:1588   */\n    tag_67:\n        /* \"#utility.yul\":1331:1337   */\n      dup4\n        /* \"#utility.yul\":1328:1329   */\n      dup2\n        /* \"#utility.yul\":1325:1338   */\n      lt\n        /* \"#utility.yul\":1306:1588   */\n      iszero\n      tag_69\n      jumpi\n        /* \"#utility.yul\":1407:1413   */\n      dup2\n        /* \"#utility.yul\":1401:1414   */\n      mload\n        /* \"#utility.yul\":1434:1497   */\n      tag_70\n        /* \"#utility.yul\":1493:1496   */\n      dup8\n        /* \"#utility.yul\":1478:1491   */\n      dup3\n        /* \"#utility.yul\":1434:1497   */\n      tag_44\n      jump\t// in\n    tag_70:\n        /* \"#utility.yul\":1427:1497   */\n      swap7\n      pop\n        /* \"#utility.yul\":1520:1578   */\n      tag_71\n        /* \"#utility.yul\":1571:1577   */\n      dup4\n        /* \"#utility.yul\":1520:1578   */\n      tag_45\n      jump\t// in\n    tag_71:\n        /* \"#utility.yul\":1510:1578   */\n      swap3\n      pop\n        /* \"#utility.yul\":1366:1588   */\n      pop\n        /* \"#utility.yul\":1353:1354   */\n      0x01\n        /* \"#utility.yul\":1350:1351   */\n      dup2\n        /* \"#utility.yul\":1346:1355   */\n      add\n        /* \"#utility.yul\":1341:1355   */\n      swap1\n      pop\n        /* \"#utility.yul\":1306:1588   */\n      jump(tag_67)\n    tag_69:\n        /* \"#utility.yul\":1310:1324   */\n      pop\n        /* \"#utility.yul\":1013:1595   */\n      pop\n      pop\n      pop\n        /* \"#utility.yul\":901:1595   */\n      pop\n      pop\n      jump\t// out\n        /* \"#utility.yul\":1601:1916   */\n    tag_9:\n        /* \"#utility.yul\":1740:1744   */\n      0x00\n        /* \"#utility.yul\":1778:1781   */\n      0x80\n        /* \"#utility.yul\":1767:1776   */\n      dup3\n        /* \"#utility.yul\":1763:1782   */\n      add\n        /* \"#utility.yul\":1755:1782   */\n      swap1\n      pop\n        /* \"#utility.yul\":1792:1909   */\n      tag_73\n        /* \"#utility.yul\":1906:1907   */\n      0x00\n        /* \"#utility.yul\":1895:1904   */\n      dup4\n        /* \"#utility.yul\":1891:1908   */\n      add\n        /* \"#utility.yul\":1882:1888   */\n      dup5\n        /* \"#utility.yul\":1792:1909   */\n      tag_46\n      jump\t// in\n    tag_73:\n        /* \"#utility.yul\":1601:1916   */\n      swap3\n      swap2\n      pop\n      pop\n      jump\t// out\n        /* \"#utility.yul\":2003:2120   */\n    tag_48:\n        /* \"#utility.yul\":2112:2113   */\n      0x00\n        /* \"#utility.yul\":2109:2110   */\n      dup1\n        /* \"#utility.yul\":2102:2114   */\n      revert\n        /* \"#utility.yul\":2249:2371   */\n    tag_50:\n        /* \"#utility.yul\":2322:2346   */\n      tag_78\n        /* \"#utility.yul\":2340:2345   */\n      dup2\n        /* \"#utility.yul\":2322:2346   */\n      tag_42\n      jump\t// in\n    tag_78:\n        /* \"#utility.yul\":2315:2320   */\n      dup2\n        /* \"#utility.yul\":2312:2347   */\n      eq\n        /* \"#utility.yul\":2302:2365   */\n      tag_79\n      jumpi\n        /* \"#utility.yul\":2361:2362   */\n      0x00\n        /* \"#utility.yul\":2358:2359   */\n      dup1\n        /* \"#utility.yul\":2351:2363   */\n      revert\n        /* \"#utility.yul\":2302:2365   */\n    tag_79:\n        /* \"#utility.yul\":2249:2371   */\n      pop\n      jump\t// out\n        /* \"#utility.yul\":2377:2516   */\n    tag_51:\n        /* \"#utility.yul\":2423:2428   */\n      0x00\n        /* \"#utility.yul\":2461:2467   */\n      dup2\n        /* \"#utility.yul\":2448:2468   */\n      calldataload\n        /* \"#utility.yul\":2439:2468   */\n      swap1\n      pop\n        /* \"#utility.yul\":2477:2510   */\n      tag_81\n        /* \"#utility.yul\":2504:2509   */\n      dup2\n        /* \"#utility.yul\":2477:2510   */\n      tag_50\n      jump\t// in\n    tag_81:\n        /* \"#utility.yul\":2377:2516   */\n      swap3\n      swap2\n      pop\n      pop\n      jump\t// out\n        /* \"#utility.yul\":2522:2851   */\n    tag_14:\n        /* \"#utility.yul\":2581:2587   */\n      0x00\n        /* \"#utility.yul\":2630:2632   */\n      0x20\n        /* \"#utility.yul\":2618:2627   */\n      dup3\n        /* \"#utility.yul\":2609:2616   */\n      dup5\n        /* \"#utility.yul\":2605:2628   */\n      sub\n        /* \"#utility.yul\":2601:2633   */\n      slt\n        /* \"#utility.yul\":2598:2717   */\n      iszero\n      tag_83\n      jumpi\n        /* \"#utility.yul\":2636:2715   */\n      tag_84\n      tag_48\n      jump\t// in\n    tag_84:\n        /* \"#utility.yul\":2598:2717   */\n    tag_83:\n        /* \"#utility.yul\":2756:2757   */\n      0x00\n        /* \"#utility.yul\":2781:2834   */\n      tag_85\n        /* \"#utility.yul\":2826:2833   */\n      dup5\n        /* \"#utility.yul\":2817:2823   */\n      dup3\n        /* \"#utility.yul\":2806:2815   */\n      dup6\n        /* \"#utility.yul\":2802:2824   */\n      add\n        /* \"#utility.yul\":2781:2834   */\n      tag_51\n      jump\t// in\n    tag_85:\n        /* \"#utility.yul\":2771:2834   */\n      swap2\n      pop\n        /* \"#utility.yul\":2727:2844   */\n      pop\n        /* \"#utility.yul\":2522:2851   */\n      swap3\n      swap2\n      pop\n      pop\n      jump\t// out\n        /* \"#utility.yul\":2857:2975   */\n    tag_52:\n        /* \"#utility.yul\":2944:2968   */\n      tag_87\n        /* \"#utility.yul\":2962:2967   */\n      dup2\n        /* \"#utility.yul\":2944:2968   */\n      tag_42\n      jump\t// in\n    tag_87:\n        /* \"#utility.yul\":2939:2942   */\n      dup3\n        /* \"#utility.yul\":2932:2969   */\n      mstore\n        /* \"#utility.yul\":2857:2975   */\n      pop\n      pop\n      jump\t// out\n        /* \"#utility.yul\":2981:3203   */\n    tag_17:\n        /* \"#utility.yul\":3074:3078   */\n      0x00\n        /* \"#utility.yul\":3112:3114   */\n      0x20\n        /* \"#utility.yul\":3101:3110   */\n      dup3\n        /* \"#utility.yul\":3097:3115   */\n      add\n        /* \"#utility.yul\":3089:3115   */\n      swap1\n      pop\n        /* \"#utility.yul\":3125:3196   */\n      tag_89\n        /* \"#utility.yul\":3193:3194   */\n      0x00\n        /* \"#utility.yul\":3182:3191   */\n      dup4\n        /* \"#utility.yul\":3178:3195   */\n      add\n        /* \"#utility.yul\":3169:3175   */\n      dup5\n        /* \"#utility.yul\":3125:3196   */\n      tag_52\n      jump\t// in\n    tag_89:\n        /* \"#utility.yul\":2981:3203   */\n      swap3\n      swap2\n      pop\n      pop\n      jump\t// out\n        /* \"#utility.yul\":3209:3389   */\n    tag_26:\n        /* \"#utility.yul\":3257:3334   */\n      0x4e487b7100000000000000000000000000000000000000000000000000000000\n        /* \"#utility.yul\":3254:3255   */\n      0x00\n        /* \"#utility.yul\":3247:3335   */\n      mstore\n        /* \"#utility.yul\":3354:3358   */\n      0x32\n        /* \"#utility.yul\":3351:3352   */\n      0x04\n        /* \"#utility.yul\":3344:3359   */\n      mstore\n        /* \"#utility.yul\":3378:3382   */\n      0x24\n        /* \"#utility.yul\":3375:3376   */\n      0x00\n        /* \"#utility.yul\":3368:3383   */\n      revert\n\n    auxdata: 0xa2646970667358221220198f2992dc305d948aa29e7472a74d5e5ea03887c458bfb0d9c5ba87ef17a12064736f6c63430008120033\n}\n",
				"bytecode": {
					"linkReferences": {},
					"object": "608060405234801561001057600080fd5b5061034f806100206000396000f3fe608060405234801561001057600080fd5b50600436106100415760003560e01c8063054c1a7514610046578063497c69b1146100645780636987b1fb1461006e575b600080fd5b61004e61009e565b60405161005b9190610247565b60405180910390f35b61006c6100e9565b005b61008860048036038101906100839190610293565b610155565b60405161009591906102cf565b60405180910390f35b6100a6610170565b60006004806020026040519081016040528092919082600480156100df576020028201915b8154815260200190600101908083116100cb575b5050505050905090565b600080600481106100fd576100fc6102ea565b5b01600090556000600360048110610117576101166102ea565b5b0160009055600260008060048110610132576101316102ea565b5b0181905550600a600060036004811061014e5761014d6102ea565b5b0181905550565b6000816004811061016557600080fd5b016000915090505481565b6040518060800160405280600490602082028036833780820191505090505090565b600060049050919050565b600081905092915050565b6000819050919050565b6000819050919050565b6101c5816101b2565b82525050565b60006101d783836101bc565b60208301905092915050565b6000602082019050919050565b6101f981610192565b610203818461019d565b925061020e826101a8565b8060005b8381101561023f57815161022687826101cb565b9650610231836101e3565b925050600181019050610212565b505050505050565b600060808201905061025c60008301846101f0565b92915050565b600080fd5b610270816101b2565b811461027b57600080fd5b50565b60008135905061028d81610267565b92915050565b6000602082840312156102a9576102a8610262565b5b60006102b78482850161027e565b91505092915050565b6102c9816101b2565b82525050565b60006020820190506102e460008301846102c0565b92915050565b7f4e487b7100000000000000000000000000000000000000000000000000000000600052603260045260246000fdfea2646970667358221220198f2992dc305d948aa29e7472a74d5e5ea03887c458bfb0d9c5ba87ef17a12064736f6c63430008120033",
					"opcodes": "PUSH1 0x80 PUSH1 0x40 MSTORE CALLVALUE DUP1 ISZERO PUSH2 0x10 JUMPI PUSH1 0x0 DUP1 REVERT JUMPDEST POP PUSH2 0x34F DUP1 PUSH2 0x20 PUSH1 0x0 CODECOPY PUSH1 0x0 RETURN INVALID PUSH1 0x80 PUSH1 0x40 MSTORE CALLVALUE DUP1 ISZERO PUSH2 0x10 JUMPI PUSH1 0x0 DUP1 REVERT JUMPDEST POP PUSH1 0x4 CALLDATASIZE LT PUSH2 0x41 JUMPI PUSH1 0x0 CALLDATALOAD PUSH1 0xE0 SHR DUP1 PUSH4 0x54C1A75 EQ PUSH2 0x46 JUMPI DUP1 PUSH4 0x497C69B1 EQ PUSH2 0x64 JUMPI DUP1 PUSH4 0x6987B1FB EQ PUSH2 0x6E JUMPI JUMPDEST PUSH1 0x0 DUP1 REVERT JUMPDEST PUSH2 0x4E PUSH2 0x9E JUMP JUMPDEST PUSH1 0x40 MLOAD PUSH2 0x5B SWAP2 SWAP1 PUSH2 0x247 JUMP JUMPDEST PUSH1 0x40 MLOAD DUP1 SWAP2 SUB SWAP1 RETURN JUMPDEST PUSH2 0x6C PUSH2 0xE9 JUMP JUMPDEST STOP JUMPDEST PUSH2 0x88 PUSH1 0x4 DUP1 CALLDATASIZE SUB DUP2 ADD SWAP1 PUSH2 0x83 SWAP2 SWAP1 PUSH2 0x293 JUMP JUMPDEST PUSH2 0x155 JUMP JUMPDEST PUSH1 0x40 MLOAD PUSH2 0x95 SWAP2 SWAP1 PUSH2 0x2CF JUMP JUMPDEST PUSH1 0x40 MLOAD DUP1 SWAP2 SUB SWAP1 RETURN JUMPDEST PUSH2 0xA6 PUSH2 0x170 JUMP JUMPDEST PUSH1 0x0 PUSH1 0x4 DUP1 PUSH1 0x20 MUL PUSH1 0x40 MLOAD SWAP1 DUP2 ADD PUSH1 0x40 MSTORE DUP1 SWAP3 SWAP2 SWAP1 DUP3 PUSH1 0x4 DUP1 ISZERO PUSH2 0xDF JUMPI PUSH1 0x20 MUL DUP3 ADD SWAP2 JUMPDEST DUP2 SLOAD DUP2 MSTORE PUSH1 0x20 ADD SWAP1 PUSH1 0x1 ADD SWAP1 DUP1 DUP4 GT PUSH2 0xCB JUMPI JUMPDEST POP POP POP POP POP SWAP1 POP SWAP1 JUMP JUMPDEST PUSH1 0x0 DUP1 PUSH1 0x4 DUP2 LT PUSH2 0xFD JUMPI PUSH2 0xFC PUSH2 0x2EA JUMP JUMPDEST JUMPDEST ADD PUSH1 0x0 SWAP1 SSTORE PUSH1 0x0 PUSH1 0x3 PUSH1 0x4 DUP2 LT PUSH2 0x117 JUMPI PUSH2 0x116 PUSH2 0x2EA JUMP JUMPDEST JUMPDEST ADD PUSH1 0x0 SWAP1 SSTORE PUSH1 0x2 PUSH1 0x0 DUP1 PUSH1 0x4 DUP2 LT PUSH2 0x132 JUMPI PUSH2 0x131 PUSH2 0x2EA JUMP JUMPDEST JUMPDEST ADD DUP2 SWAP1 SSTORE POP PUSH1 0xA PUSH1 0x0 PUSH1 0x3 PUSH1 0x4 DUP2 LT PUSH2 0x14E JUMPI PUSH2 0x14D PUSH2 0x2EA JUMP JUMPDEST JUMPDEST ADD DUP2 SWAP1 SSTORE POP JUMP JUMPDEST PUSH1 0x0 DUP2 PUSH1 0x4 DUP2 LT PUSH2 0x165 JUMPI PUSH1 0x0 DUP1 REVERT JUMPDEST ADD PUSH1 0x0 SWAP2 POP SWAP1 POP SLOAD DUP2 JUMP JUMPDEST PUSH1 0x40 MLOAD DUP1 PUSH1 0x80 ADD PUSH1 0x40 MSTORE DUP1 PUSH1 0x4 SWAP1 PUSH1 0x20 DUP3 MUL DUP1 CALLDATASIZE DUP4 CALLDATACOPY DUP1 DUP3 ADD SWAP2 POP POP SWAP1 POP POP SWAP1 JUMP JUMPDEST PUSH1 0x0 PUSH1 0x4 SWAP1 POP SWAP2 SWAP1 POP JUMP JUMPDEST PUSH1 0x0 DUP2 SWAP1 POP SWAP3 SWAP2 POP POP JUMP JUMPDEST PUSH1 0x0 DUP2 SWAP1 POP SWAP2 SWAP1 POP JUMP JUMPDEST PUSH1 0x0 DUP2 SWAP1 POP SWAP2 SWAP1 POP JUMP JUMPDEST PUSH2 0x1C5 DUP2 PUSH2 0x1B2 JUMP JUMPDEST DUP3 MSTORE POP POP JUMP JUMPDEST PUSH1 0x0 PUSH2 0x1D7 DUP4 DUP4 PUSH2 0x1BC JUMP JUMPDEST PUSH1 0x20 DUP4 ADD SWAP1 POP SWAP3 SWAP2 POP POP JUMP JUMPDEST PUSH1 0x0 PUSH1 0x20 DUP3 ADD SWAP1 POP SWAP2 SWAP1 POP JUMP JUMPDEST PUSH2 0x1F9 DUP2 PUSH2 0x192 JUMP JUMPDEST PUSH2 0x203 DUP2 DUP5 PUSH2 0x19D JUMP JUMPDEST SWAP3 POP PUSH2 0x20E DUP3 PUSH2 0x1A8 JUMP JUMPDEST DUP1 PUSH1 0x0 JUMPDEST DUP4 DUP2 LT ISZERO PUSH2 0x23F JUMPI DUP2 MLOAD PUSH2 0x226 DUP8 DUP3 PUSH2 0x1CB JUMP JUMPDEST SWAP7 POP PUSH2 0x231 DUP4 PUSH2 0x1E3 JUMP JUMPDEST SWAP3 POP POP PUSH1 0x1 DUP2 ADD SWAP1 POP PUSH2 0x212 JUMP JUMPDEST POP POP POP POP POP POP JUMP JUMPDEST PUSH1 0x0 PUSH1 0x80 DUP3 ADD SWAP1 POP PUSH2 0x25C PUSH1 0x0 DUP4 ADD DUP5 PUSH2 0x1F0 JUMP JUMPDEST SWAP3 SWAP2 POP POP JUMP JUMPDEST PUSH1 0x0 DUP1 REVERT JUMPDEST PUSH2 0x270 DUP2 PUSH2 0x1B2 JUMP JUMPDEST DUP2 EQ PUSH2 0x27B JUMPI PUSH1 0x0 DUP1 REVERT JUMPDEST POP JUMP JUMPDEST PUSH1 0x0 DUP2 CALLDATALOAD SWAP1 POP PUSH2 0x28D DUP2 PUSH2 0x267 JUMP JUMPDEST SWAP3 SWAP2 POP POP JUMP JUMPDEST PUSH1 0x0 PUSH1 0x20 DUP3 DUP5 SUB SLT ISZERO PUSH2 0x2A9 JUMPI PUSH2 0x2A8 PUSH2 0x262 JUMP JUMPDEST JUMPDEST PUSH1 0x0 PUSH2 0x2B7 DUP5 DUP3 DUP6 ADD PUSH2 0x27E JUMP JUMPDEST SWAP2 POP POP SWAP3 SWAP2 POP POP JUMP JUMPDEST PUSH2 0x2C9 DUP2 PUSH2 0x1B2 JUMP JUMPDEST DUP3 MSTORE POP POP JUMP JUMPDEST PUSH1 0x0 PUSH1 0x20 DUP3 ADD SWAP1 POP PUSH2 0x2E4 PUSH1 0x0 DUP4 ADD DUP5 PUSH2 0x2C0 JUMP JUMPDEST SWAP3 SWAP2 POP POP JUMP JUMPDEST PUSH32 0x4E487B7100000000000000000000000000000000000000000000000000000000 PUSH1 0x0 MSTORE PUSH1 0x32 PUSH1 0x4 MSTORE PUSH1 0x24 PUSH1 0x0 REVERT INVALID LOG2 PUSH5 0x6970667358 0x22 SLT KECCAK256 NOT DUP16 0x29 SWAP3 0xDC ADDRESS 0x5D SWAP5 DUP11 LOG2 SWAP15 PUSH21 0x72A74D5E5EA03887C458BFB0D9C5BA87EF17A12064 PUSH20 0x6F6C634300081200330000000000000000000000 "
				},
				"gasEstimates": {
					"creation": {
						"codeDepositCost": "169400",
						"executionCost": "214",
						"totalCost": "169614"
					},
					"external": {
						"arr1(uint256)": "infinite",
						"get1()": "infinite",
						"replace()": "54506"
					}
				},
				"methodIdentifiers": {
					"arr1(uint256)": "6987b1fb",
					"get1()": "054c1a75",
					"replace()": "497c69b1"
				}
			},
			"storageLayout": {
				"storage": [
					{
						"astId": 5,
						"contract": "lab31_7/array_excercise.sol:arrays",
						"label": "arr1",
						"offset": 0,
						"slot": "0",
						"type": "t_array(t_uint256)4_storage"
					}
				],
				"types": {
					"t_array(t_uint256)4_storage": {
						"base": "t_uint256",
						"encoding": "inplace",
						"label": "uint256[4]",
						"numberOfBytes": "128"
					},
					"t_uint256": {
						"encoding": "inplace",
						"label": "uint256",
						"numberOfBytes": "32"
					}
				}
			},
			"userdoc": {
				"kind": "user",
				"methods": {},
				"version": 1
			}
		}
	}
}