{
	"lab31_7/array_excercise.sol": {
		"integers": {
			"abi": [
				{
					"inputs": [
						{
							"internalType": "uint256",
							"name": "_i",
							"type": "uint256"
						}
					],
					"name": "del",
					"outputs": [],
					"stateMutability": "nonpayable",
					"type": "function"
				},
				{
					"inputs": [
						{
							"internalType": "uint256",
							"name": "",
							"type": "uint256"
						}
					],
					"name": "int_array",
					"outputs": [
						{
							"internalType": "int256",
							"name": "",
							"type": "int256"
						}
					],
					"stateMutability": "view",
					"type": "function"
				},
				{
					"inputs": [],
					"name": "poping",
					"outputs": [],
					"stateMutability": "nonpayable",
					"type": "function"
				},
				{
					"inputs": [
						{
							"internalType": "uint256",
							"name": "index",
							"type": "uint256"
						}
					],
					"name": "retrive",
					"outputs": [
						{
							"internalType": "int256",
							"name": "",
							"type": "int256"
						}
					],
					"stateMutability": "view",
					"type": "function"
				},
				{
					"inputs": [
						{
							"internalType": "int256",
							"name": "number",
							"type": "int256"
						}
					],
					"name": "to_add",
					"outputs": [],
					"stateMutability": "nonpayable",
					"type": "function"
				}
			],
			"devdoc": {
				"kind": "dev",
				"methods": {},
				"version": 1
			},
			"evm": {
				"assembly": "    /* \"lab31_7/array_excercise.sol\":1238:1617  contract integers{... */\n  mstore(0x40, 0x80)\n  callvalue\n  dup1\n  iszero\n  tag_1\n  jumpi\n  0x00\n  dup1\n  revert\ntag_1:\n  pop\n  dataSize(sub_0)\n  dup1\n  dataOffset(sub_0)\n  0x00\n  codecopy\n  0x00\n  return\nstop\n\nsub_0: assembly {\n        /* \"lab31_7/array_excercise.sol\":1238:1617  contract integers{... */\n      mstore(0x40, 0x80)\n      callvalue\n      dup1\n      iszero\n      tag_1\n      jumpi\n      0x00\n      dup1\n      revert\n    tag_1:\n      pop\n      jumpi(tag_2, lt(calldatasize, 0x04))\n      shr(0xe0, calldataload(0x00))\n      dup1\n      0x1944ea15\n      eq\n      tag_3\n      jumpi\n      dup1\n      0x57771a23\n      eq\n      tag_4\n      jumpi\n      dup1\n      0x70ad2316\n      eq\n      tag_5\n      jumpi\n      dup1\n      0x822ec897\n      eq\n      tag_6\n      jumpi\n      dup1\n      0x9e803801\n      eq\n      tag_7\n      jumpi\n    tag_2:\n      0x00\n      dup1\n      revert\n        /* \"lab31_7/array_excercise.sol\":1553:1611  function poping()public {... */\n    tag_3:\n      tag_8\n      tag_9\n      jump\t// in\n    tag_8:\n      stop\n        /* \"lab31_7/array_excercise.sol\":1479:1547  function del(uint _i) public {... */\n    tag_4:\n      tag_10\n      0x04\n      dup1\n      calldatasize\n      sub\n      dup2\n      add\n      swap1\n      tag_11\n      swap2\n      swap1\n      tag_12\n      jump\t// in\n    tag_11:\n      tag_13\n      jump\t// in\n    tag_10:\n      stop\n        /* \"lab31_7/array_excercise.sol\":1293:1368  function to_add(int number) public{... */\n    tag_5:\n      tag_14\n      0x04\n      dup1\n      calldatasize\n      sub\n      dup2\n      add\n      swap1\n      tag_15\n      swap2\n      swap1\n      tag_16\n      jump\t// in\n    tag_15:\n      tag_17\n      jump\t// in\n    tag_14:\n      stop\n        /* \"lab31_7/array_excercise.sol\":1264:1286  int[] public int_array */\n    tag_6:\n      tag_18\n      0x04\n      dup1\n      calldatasize\n      sub\n      dup2\n      add\n      swap1\n      tag_19\n      swap2\n      swap1\n      tag_12\n      jump\t// in\n    tag_19:\n      tag_20\n      jump\t// in\n    tag_18:\n      mload(0x40)\n      tag_21\n      swap2\n      swap1\n      tag_22\n      jump\t// in\n    tag_21:\n      mload(0x40)\n      dup1\n      swap2\n      sub\n      swap1\n      return\n        /* \"lab31_7/array_excercise.sol\":1375:1473  function retrive(uint index) public view returns (int){... */\n    tag_7:\n      tag_23\n      0x04\n      dup1\n      calldatasize\n      sub\n      dup2\n      add\n      swap1\n      tag_24\n      swap2\n      swap1\n      tag_12\n      jump\t// in\n    tag_24:\n      tag_25\n      jump\t// in\n    tag_23:\n      mload(0x40)\n      tag_26\n      swap2\n      swap1\n      tag_22\n      jump\t// in\n    tag_26:\n      mload(0x40)\n      dup1\n      swap2\n      sub\n      swap1\n      return\n        /* \"lab31_7/array_excercise.sol\":1553:1611  function poping()public {... */\n    tag_9:\n        /* \"lab31_7/array_excercise.sol\":1588:1597  int_array */\n      0x00\n        /* \"lab31_7/array_excercise.sol\":1588:1603  int_array.pop() */\n      dup1\n      sload\n      dup1\n      tag_28\n      jumpi\n      tag_29\n      tag_30\n      jump\t// in\n    tag_29:\n    tag_28:\n      0x01\n      swap1\n      sub\n      dup2\n      dup2\n      swap1\n      0x00\n      mstore\n      keccak256(0x00, 0x20)\n      add\n      0x00\n      swap1\n      sstore\n      swap1\n      sstore\n        /* \"lab31_7/array_excercise.sol\":1553:1611  function poping()public {... */\n      jump\t// out\n        /* \"lab31_7/array_excercise.sol\":1479:1547  function del(uint _i) public {... */\n    tag_13:\n        /* \"lab31_7/array_excercise.sol\":1526:1535  int_array */\n      0x00\n        /* \"lab31_7/array_excercise.sol\":1536:1538  _i */\n      dup2\n        /* \"lab31_7/array_excercise.sol\":1526:1539  int_array[_i] */\n      dup2\n      sload\n      dup2\n      lt\n      tag_33\n      jumpi\n      tag_34\n      tag_35\n      jump\t// in\n    tag_34:\n    tag_33:\n      swap1\n      0x00\n      mstore\n      keccak256(0x00, 0x20)\n      add\n        /* \"lab31_7/array_excercise.sol\":1519:1539  delete int_array[_i] */\n      0x00\n      swap1\n      sstore\n        /* \"lab31_7/array_excercise.sol\":1479:1547  function del(uint _i) public {... */\n      pop\n      jump\t// out\n        /* \"lab31_7/array_excercise.sol\":1293:1368  function to_add(int number) public{... */\n    tag_17:\n        /* \"lab31_7/array_excercise.sol\":1338:1347  int_array */\n      0x00\n        /* \"lab31_7/array_excercise.sol\":1353:1359  number */\n      dup2\n        /* \"lab31_7/array_excercise.sol\":1338:1360  int_array.push(number) */\n      swap1\n      dup1\n      0x01\n      dup2\n      sload\n      add\n      dup1\n      dup3\n      sstore\n      dup1\n      swap2\n      pop\n      pop\n      0x01\n      swap1\n      sub\n      swap1\n      0x00\n      mstore\n      keccak256(0x00, 0x20)\n      add\n      0x00\n      swap1\n      swap2\n      swap1\n      swap2\n      swap1\n      swap2\n      pop\n      sstore\n        /* \"lab31_7/array_excercise.sol\":1293:1368  function to_add(int number) public{... */\n      pop\n      jump\t// out\n        /* \"lab31_7/array_excercise.sol\":1264:1286  int[] public int_array */\n    tag_20:\n      0x00\n      dup2\n      dup2\n      sload\n      dup2\n      lt\n      tag_39\n      jumpi\n      0x00\n      dup1\n      revert\n    tag_39:\n      swap1\n      0x00\n      mstore\n      keccak256(0x00, 0x20)\n      add\n      0x00\n      swap2\n      pop\n      swap1\n      pop\n      sload\n      dup2\n      jump\t// out\n        /* \"lab31_7/array_excercise.sol\":1375:1473  function retrive(uint index) public view returns (int){... */\n    tag_25:\n        /* \"lab31_7/array_excercise.sol\":1425:1428  int */\n      0x00\n        /* \"lab31_7/array_excercise.sol\":1449:1458  int_array */\n      dup1\n        /* \"lab31_7/array_excercise.sol\":1459:1464  index */\n      dup3\n        /* \"lab31_7/array_excercise.sol\":1449:1465  int_array[index] */\n      dup2\n      sload\n      dup2\n      lt\n      tag_42\n      jumpi\n      tag_43\n      tag_35\n      jump\t// in\n    tag_43:\n    tag_42:\n      swap1\n      0x00\n      mstore\n      keccak256(0x00, 0x20)\n      add\n      sload\n        /* \"lab31_7/array_excercise.sol\":1442:1465  return int_array[index] */\n      swap1\n      pop\n        /* \"lab31_7/array_excercise.sol\":1375:1473  function retrive(uint index) public view returns (int){... */\n      swap2\n      swap1\n      pop\n      jump\t// out\n        /* \"#utility.yul\":88:205   */\n    tag_46:\n        /* \"#utility.yul\":197:198   */\n      0x00\n        /* \"#utility.yul\":194:195   */\n      dup1\n        /* \"#utility.yul\":187:199   */\n      revert\n        /* \"#utility.yul\":334:411   */\n    tag_48:\n        /* \"#utility.yul\":371:378   */\n      0x00\n        /* \"#utility.yul\":400:405   */\n      dup2\n        /* \"#utility.yul\":389:405   */\n      swap1\n      pop\n        /* \"#utility.yul\":334:411   */\n      swap2\n      swap1\n      pop\n      jump\t// out\n        /* \"#utility.yul\":417:539   */\n    tag_49:\n        /* \"#utility.yul\":490:514   */\n      tag_61\n        /* \"#utility.yul\":508:513   */\n      dup2\n        /* \"#utility.yul\":490:514   */\n      tag_48\n      jump\t// in\n    tag_61:\n        /* \"#utility.yul\":483:488   */\n      dup2\n        /* \"#utility.yul\":480:515   */\n      eq\n        /* \"#utility.yul\":470:533   */\n      tag_62\n      jumpi\n        /* \"#utility.yul\":529:530   */\n      0x00\n        /* \"#utility.yul\":526:527   */\n      dup1\n        /* \"#utility.yul\":519:531   */\n      revert\n        /* \"#utility.yul\":470:533   */\n    tag_62:\n        /* \"#utility.yul\":417:539   */\n      pop\n      jump\t// out\n        /* \"#utility.yul\":545:684   */\n    tag_50:\n        /* \"#utility.yul\":591:596   */\n      0x00\n        /* \"#utility.yul\":629:635   */\n      dup2\n        /* \"#utility.yul\":616:636   */\n      calldataload\n        /* \"#utility.yul\":607:636   */\n      swap1\n      pop\n        /* \"#utility.yul\":645:678   */\n      tag_64\n        /* \"#utility.yul\":672:677   */\n      dup2\n        /* \"#utility.yul\":645:678   */\n      tag_49\n      jump\t// in\n    tag_64:\n        /* \"#utility.yul\":545:684   */\n      swap3\n      swap2\n      pop\n      pop\n      jump\t// out\n        /* \"#utility.yul\":690:1019   */\n    tag_12:\n        /* \"#utility.yul\":749:755   */\n      0x00\n        /* \"#utility.yul\":798:800   */\n      0x20\n        /* \"#utility.yul\":786:795   */\n      dup3\n        /* \"#utility.yul\":777:784   */\n      dup5\n        /* \"#utility.yul\":773:796   */\n      sub\n        /* \"#utility.yul\":769:801   */\n      slt\n        /* \"#utility.yul\":766:885   */\n      iszero\n      tag_66\n      jumpi\n        /* \"#utility.yul\":804:883   */\n      tag_67\n      tag_46\n      jump\t// in\n    tag_67:\n        /* \"#utility.yul\":766:885   */\n    tag_66:\n        /* \"#utility.yul\":924:925   */\n      0x00\n        /* \"#utility.yul\":949:1002   */\n      tag_68\n        /* \"#utility.yul\":994:1001   */\n      dup5\n        /* \"#utility.yul\":985:991   */\n      dup3\n        /* \"#utility.yul\":974:983   */\n      dup6\n        /* \"#utility.yul\":970:992   */\n      add\n        /* \"#utility.yul\":949:1002   */\n      tag_50\n      jump\t// in\n    tag_68:\n        /* \"#utility.yul\":939:1002   */\n      swap2\n      pop\n        /* \"#utility.yul\":895:1012   */\n      pop\n        /* \"#utility.yul\":690:1019   */\n      swap3\n      swap2\n      pop\n      pop\n      jump\t// out\n        /* \"#utility.yul\":1025:1101   */\n    tag_51:\n        /* \"#utility.yul\":1061:1068   */\n      0x00\n        /* \"#utility.yul\":1090:1095   */\n      dup2\n        /* \"#utility.yul\":1079:1095   */\n      swap1\n      pop\n        /* \"#utility.yul\":1025:1101   */\n      swap2\n      swap1\n      pop\n      jump\t// out\n        /* \"#utility.yul\":1107:1227   */\n    tag_52:\n        /* \"#utility.yul\":1179:1202   */\n      tag_71\n        /* \"#utility.yul\":1196:1201   */\n      dup2\n        /* \"#utility.yul\":1179:1202   */\n      tag_51\n      jump\t// in\n    tag_71:\n        /* \"#utility.yul\":1172:1177   */\n      dup2\n        /* \"#utility.yul\":1169:1203   */\n      eq\n        /* \"#utility.yul\":1159:1221   */\n      tag_72\n      jumpi\n        /* \"#utility.yul\":1217:1218   */\n      0x00\n        /* \"#utility.yul\":1214:1215   */\n      dup1\n        /* \"#utility.yul\":1207:1219   */\n      revert\n        /* \"#utility.yul\":1159:1221   */\n    tag_72:\n        /* \"#utility.yul\":1107:1227   */\n      pop\n      jump\t// out\n        /* \"#utility.yul\":1233:1370   */\n    tag_53:\n        /* \"#utility.yul\":1278:1283   */\n      0x00\n        /* \"#utility.yul\":1316:1322   */\n      dup2\n        /* \"#utility.yul\":1303:1323   */\n      calldataload\n        /* \"#utility.yul\":1294:1323   */\n      swap1\n      pop\n        /* \"#utility.yul\":1332:1364   */\n      tag_74\n        /* \"#utility.yul\":1358:1363   */\n      dup2\n        /* \"#utility.yul\":1332:1364   */\n      tag_52\n      jump\t// in\n    tag_74:\n        /* \"#utility.yul\":1233:1370   */\n      swap3\n      swap2\n      pop\n      pop\n      jump\t// out\n        /* \"#utility.yul\":1376:1703   */\n    tag_16:\n        /* \"#utility.yul\":1434:1440   */\n      0x00\n        /* \"#utility.yul\":1483:1485   */\n      0x20\n        /* \"#utility.yul\":1471:1480   */\n      dup3\n        /* \"#utility.yul\":1462:1469   */\n      dup5\n        /* \"#utility.yul\":1458:1481   */\n      sub\n        /* \"#utility.yul\":1454:1486   */\n      slt\n        /* \"#utility.yul\":1451:1570   */\n      iszero\n      tag_76\n      jumpi\n        /* \"#utility.yul\":1489:1568   */\n      tag_77\n      tag_46\n      jump\t// in\n    tag_77:\n        /* \"#utility.yul\":1451:1570   */\n    tag_76:\n        /* \"#utility.yul\":1609:1610   */\n      0x00\n        /* \"#utility.yul\":1634:1686   */\n      tag_78\n        /* \"#utility.yul\":1678:1685   */\n      dup5\n        /* \"#utility.yul\":1669:1675   */\n      dup3\n        /* \"#utility.yul\":1658:1667   */\n      dup6\n        /* \"#utility.yul\":1654:1676   */\n      add\n        /* \"#utility.yul\":1634:1686   */\n      tag_53\n      jump\t// in\n    tag_78:\n        /* \"#utility.yul\":1624:1686   */\n      swap2\n      pop\n        /* \"#utility.yul\":1580:1696   */\n      pop\n        /* \"#utility.yul\":1376:1703   */\n      swap3\n      swap2\n      pop\n      pop\n      jump\t// out\n        /* \"#utility.yul\":1709:1824   */\n    tag_54:\n        /* \"#utility.yul\":1794:1817   */\n      tag_80\n        /* \"#utility.yul\":1811:1816   */\n      dup2\n        /* \"#utility.yul\":1794:1817   */\n      tag_51\n      jump\t// in\n    tag_80:\n        /* \"#utility.yul\":1789:1792   */\n      dup3\n        /* \"#utility.yul\":1782:1818   */\n      mstore\n        /* \"#utility.yul\":1709:1824   */\n      pop\n      pop\n      jump\t// out\n        /* \"#utility.yul\":1830:2048   */\n    tag_22:\n        /* \"#utility.yul\":1921:1925   */\n      0x00\n        /* \"#utility.yul\":1959:1961   */\n      0x20\n        /* \"#utility.yul\":1948:1957   */\n      dup3\n        /* \"#utility.yul\":1944:1962   */\n      add\n        /* \"#utility.yul\":1936:1962   */\n      swap1\n      pop\n        /* \"#utility.yul\":1972:2041   */\n      tag_82\n        /* \"#utility.yul\":2038:2039   */\n      0x00\n        /* \"#utility.yul\":2027:2036   */\n      dup4\n        /* \"#utility.yul\":2023:2040   */\n      add\n        /* \"#utility.yul\":2014:2020   */\n      dup5\n        /* \"#utility.yul\":1972:2041   */\n      tag_54\n      jump\t// in\n    tag_82:\n        /* \"#utility.yul\":1830:2048   */\n      swap3\n      swap2\n      pop\n      pop\n      jump\t// out\n        /* \"#utility.yul\":2054:2234   */\n    tag_30:\n        /* \"#utility.yul\":2102:2179   */\n      0x4e487b7100000000000000000000000000000000000000000000000000000000\n        /* \"#utility.yul\":2099:2100   */\n      0x00\n        /* \"#utility.yul\":2092:2180   */\n      mstore\n        /* \"#utility.yul\":2199:2203   */\n      0x31\n        /* \"#utility.yul\":2196:2197   */\n      0x04\n        /* \"#utility.yul\":2189:2204   */\n      mstore\n        /* \"#utility.yul\":2223:2227   */\n      0x24\n        /* \"#utility.yul\":2220:2221   */\n      0x00\n        /* \"#utility.yul\":2213:2228   */\n      revert\n        /* \"#utility.yul\":2240:2420   */\n    tag_35:\n        /* \"#utility.yul\":2288:2365   */\n      0x4e487b7100000000000000000000000000000000000000000000000000000000\n        /* \"#utility.yul\":2285:2286   */\n      0x00\n        /* \"#utility.yul\":2278:2366   */\n      mstore\n        /* \"#utility.yul\":2385:2389   */\n      0x32\n        /* \"#utility.yul\":2382:2383   */\n      0x04\n        /* \"#utility.yul\":2375:2390   */\n      mstore\n        /* \"#utility.yul\":2409:2413   */\n      0x24\n        /* \"#utility.yul\":2406:2407   */\n      0x00\n        /* \"#utility.yul\":2399:2414   */\n      revert\n\n    auxdata: 0xa26469706673582212208fc5ee0f03195f504b295563931bf02ad35864ecff31995ff319a7335ee35c3864736f6c63430008120033\n}\n",
				"bytecode": {
					"linkReferences": {},
					"object": "608060405234801561001057600080fd5b5061034d806100206000396000f3fe608060405234801561001057600080fd5b50600436106100575760003560e01c80631944ea151461005c57806357771a231461006657806370ad231614610082578063822ec8971461009e5780639e803801146100ce575b600080fd5b6100646100fe565b005b610080600480360381019061007b91906101ff565b610128565b005b61009c60048036038101906100979190610262565b61014d565b005b6100b860048036038101906100b391906101ff565b610179565b6040516100c5919061029e565b60405180910390f35b6100e860048036038101906100e391906101ff565b61019d565b6040516100f5919061029e565b60405180910390f35b60008054806101105761010f6102b9565b5b60019003818190600052602060002001600090559055565b6000818154811061013c5761013b6102e8565b5b906000526020600020016000905550565b600081908060018154018082558091505060019003906000526020600020016000909190919091505550565b6000818154811061018957600080fd5b906000526020600020016000915090505481565b60008082815481106101b2576101b16102e8565b5b90600052602060002001549050919050565b600080fd5b6000819050919050565b6101dc816101c9565b81146101e757600080fd5b50565b6000813590506101f9816101d3565b92915050565b600060208284031215610215576102146101c4565b5b6000610223848285016101ea565b91505092915050565b6000819050919050565b61023f8161022c565b811461024a57600080fd5b50565b60008135905061025c81610236565b92915050565b600060208284031215610278576102776101c4565b5b60006102868482850161024d565b91505092915050565b6102988161022c565b82525050565b60006020820190506102b3600083018461028f565b92915050565b7f4e487b7100000000000000000000000000000000000000000000000000000000600052603160045260246000fd5b7f4e487b7100000000000000000000000000000000000000000000000000000000600052603260045260246000fdfea26469706673582212208fc5ee0f03195f504b295563931bf02ad35864ecff31995ff319a7335ee35c3864736f6c63430008120033",
					"opcodes": "PUSH1 0x80 PUSH1 0x40 MSTORE CALLVALUE DUP1 ISZERO PUSH2 0x10 JUMPI PUSH1 0x0 DUP1 REVERT JUMPDEST POP PUSH2 0x34D DUP1 PUSH2 0x20 PUSH1 0x0 CODECOPY PUSH1 0x0 RETURN INVALID PUSH1 0x80 PUSH1 0x40 MSTORE CALLVALUE DUP1 ISZERO PUSH2 0x10 JUMPI PUSH1 0x0 DUP1 REVERT JUMPDEST POP PUSH1 0x4 CALLDATASIZE LT PUSH2 0x57 JUMPI PUSH1 0x0 CALLDATALOAD PUSH1 0xE0 SHR DUP1 PUSH4 0x1944EA15 EQ PUSH2 0x5C JUMPI DUP1 PUSH4 0x57771A23 EQ PUSH2 0x66 JUMPI DUP1 PUSH4 0x70AD2316 EQ PUSH2 0x82 JUMPI DUP1 PUSH4 0x822EC897 EQ PUSH2 0x9E JUMPI DUP1 PUSH4 0x9E803801 EQ PUSH2 0xCE JUMPI JUMPDEST PUSH1 0x0 DUP1 REVERT JUMPDEST PUSH2 0x64 PUSH2 0xFE JUMP JUMPDEST STOP JUMPDEST PUSH2 0x80 PUSH1 0x4 DUP1 CALLDATASIZE SUB DUP2 ADD SWAP1 PUSH2 0x7B SWAP2 SWAP1 PUSH2 0x1FF JUMP JUMPDEST PUSH2 0x128 JUMP JUMPDEST STOP JUMPDEST PUSH2 0x9C PUSH1 0x4 DUP1 CALLDATASIZE SUB DUP2 ADD SWAP1 PUSH2 0x97 SWAP2 SWAP1 PUSH2 0x262 JUMP JUMPDEST PUSH2 0x14D JUMP JUMPDEST STOP JUMPDEST PUSH2 0xB8 PUSH1 0x4 DUP1 CALLDATASIZE SUB DUP2 ADD SWAP1 PUSH2 0xB3 SWAP2 SWAP1 PUSH2 0x1FF JUMP JUMPDEST PUSH2 0x179 JUMP JUMPDEST PUSH1 0x40 MLOAD PUSH2 0xC5 SWAP2 SWAP1 PUSH2 0x29E JUMP JUMPDEST PUSH1 0x40 MLOAD DUP1 SWAP2 SUB SWAP1 RETURN JUMPDEST PUSH2 0xE8 PUSH1 0x4 DUP1 CALLDATASIZE SUB DUP2 ADD SWAP1 PUSH2 0xE3 SWAP2 SWAP1 PUSH2 0x1FF JUMP JUMPDEST PUSH2 0x19D JUMP JUMPDEST PUSH1 0x40 MLOAD PUSH2 0xF5 SWAP2 SWAP1 PUSH2 0x29E JUMP JUMPDEST PUSH1 0x40 MLOAD DUP1 SWAP2 SUB SWAP1 RETURN JUMPDEST PUSH1 0x0 DUP1 SLOAD DUP1 PUSH2 0x110 JUMPI PUSH2 0x10F PUSH2 0x2B9 JUMP JUMPDEST JUMPDEST PUSH1 0x1 SWAP1 SUB DUP2 DUP2 SWAP1 PUSH1 0x0 MSTORE PUSH1 0x20 PUSH1 0x0 KECCAK256 ADD PUSH1 0x0 SWAP1 SSTORE SWAP1 SSTORE JUMP JUMPDEST PUSH1 0x0 DUP2 DUP2 SLOAD DUP2 LT PUSH2 0x13C JUMPI PUSH2 0x13B PUSH2 0x2E8 JUMP JUMPDEST JUMPDEST SWAP1 PUSH1 0x0 MSTORE PUSH1 0x20 PUSH1 0x0 KECCAK256 ADD PUSH1 0x0 SWAP1 SSTORE POP JUMP JUMPDEST PUSH1 0x0 DUP2 SWAP1 DUP1 PUSH1 0x1 DUP2 SLOAD ADD DUP1 DUP3 SSTORE DUP1 SWAP2 POP POP PUSH1 0x1 SWAP1 SUB SWAP1 PUSH1 0x0 MSTORE PUSH1 0x20 PUSH1 0x0 KECCAK256 ADD PUSH1 0x0 SWAP1 SWAP2 SWAP1 SWAP2 SWAP1 SWAP2 POP SSTORE POP JUMP JUMPDEST PUSH1 0x0 DUP2 DUP2 SLOAD DUP2 LT PUSH2 0x189 JUMPI PUSH1 0x0 DUP1 REVERT JUMPDEST SWAP1 PUSH1 0x0 MSTORE PUSH1 0x20 PUSH1 0x0 KECCAK256 ADD PUSH1 0x0 SWAP2 POP SWAP1 POP SLOAD DUP2 JUMP JUMPDEST PUSH1 0x0 DUP1 DUP3 DUP2 SLOAD DUP2 LT PUSH2 0x1B2 JUMPI PUSH2 0x1B1 PUSH2 0x2E8 JUMP JUMPDEST JUMPDEST SWAP1 PUSH1 0x0 MSTORE PUSH1 0x20 PUSH1 0x0 KECCAK256 ADD SLOAD SWAP1 POP SWAP2 SWAP1 POP JUMP JUMPDEST PUSH1 0x0 DUP1 REVERT JUMPDEST PUSH1 0x0 DUP2 SWAP1 POP SWAP2 SWAP1 POP JUMP JUMPDEST PUSH2 0x1DC DUP2 PUSH2 0x1C9 JUMP JUMPDEST DUP2 EQ PUSH2 0x1E7 JUMPI PUSH1 0x0 DUP1 REVERT JUMPDEST POP JUMP JUMPDEST PUSH1 0x0 DUP2 CALLDATALOAD SWAP1 POP PUSH2 0x1F9 DUP2 PUSH2 0x1D3 JUMP JUMPDEST SWAP3 SWAP2 POP POP JUMP JUMPDEST PUSH1 0x0 PUSH1 0x20 DUP3 DUP5 SUB SLT ISZERO PUSH2 0x215 JUMPI PUSH2 0x214 PUSH2 0x1C4 JUMP JUMPDEST JUMPDEST PUSH1 0x0 PUSH2 0x223 DUP5 DUP3 DUP6 ADD PUSH2 0x1EA JUMP JUMPDEST SWAP2 POP POP SWAP3 SWAP2 POP POP JUMP JUMPDEST PUSH1 0x0 DUP2 SWAP1 POP SWAP2 SWAP1 POP JUMP JUMPDEST PUSH2 0x23F DUP2 PUSH2 0x22C JUMP JUMPDEST DUP2 EQ PUSH2 0x24A JUMPI PUSH1 0x0 DUP1 REVERT JUMPDEST POP JUMP JUMPDEST PUSH1 0x0 DUP2 CALLDATALOAD SWAP1 POP PUSH2 0x25C DUP2 PUSH2 0x236 JUMP JUMPDEST SWAP3 SWAP2 POP POP JUMP JUMPDEST PUSH1 0x0 PUSH1 0x20 DUP3 DUP5 SUB SLT ISZERO PUSH2 0x278 JUMPI PUSH2 0x277 PUSH2 0x1C4 JUMP JUMPDEST JUMPDEST PUSH1 0x0 PUSH2 0x286 DUP5 DUP3 DUP6 ADD PUSH2 0x24D JUMP JUMPDEST SWAP2 POP POP SWAP3 SWAP2 POP POP JUMP JUMPDEST PUSH2 0x298 DUP2 PUSH2 0x22C JUMP JUMPDEST DUP3 MSTORE POP POP JUMP JUMPDEST PUSH1 0x0 PUSH1 0x20 DUP3 ADD SWAP1 POP PUSH2 0x2B3 PUSH1 0x0 DUP4 ADD DUP5 PUSH2 0x28F JUMP JUMPDEST SWAP3 SWAP2 POP POP JUMP JUMPDEST PUSH32 0x4E487B7100000000000000000000000000000000000000000000000000000000 PUSH1 0x0 MSTORE PUSH1 0x31 PUSH1 0x4 MSTORE PUSH1 0x24 PUSH1 0x0 REVERT JUMPDEST PUSH32 0x4E487B7100000000000000000000000000000000000000000000000000000000 PUSH1 0x0 MSTORE PUSH1 0x32 PUSH1 0x4 MSTORE PUSH1 0x24 PUSH1 0x0 REVERT INVALID LOG2 PUSH5 0x6970667358 0x22 SLT KECCAK256 DUP16 0xC5 0xEE 0xF SUB NOT 0x5F POP 0x4B 0x29 SSTORE PUSH4 0x931BF02A 0xD3 PC PUSH5 0xECFF31995F RETURN NOT 0xA7 CALLER 0x5E 0xE3 0x5C CODESIZE PUSH5 0x736F6C6343 STOP ADDMOD SLT STOP CALLER "
				},
				"gasEstimates": {
					"creation": {
						"codeDepositCost": "169000",
						"executionCost": "214",
						"totalCost": "169214"
					},
					"external": {
						"del(uint256)": "7595",
						"int_array(uint256)": "4926",
						"poping()": "29423",
						"retrive(uint256)": "4948",
						"to_add(int256)": "46851"
					}
				},
				"methodIdentifiers": {
					"del(uint256)": "57771a23",
					"int_array(uint256)": "822ec897",
					"poping()": "1944ea15",
					"retrive(uint256)": "9e803801",
					"to_add(int256)": "70ad2316"
				}
			},
			"storageLayout": {
				"storage": [
					{
						"astId": 162,
						"contract": "lab31_7/array_excercise.sol:integers",
						"label": "int_array",
						"offset": 0,
						"slot": "0",
						"type": "t_array(t_int256)dyn_storage"
					}
				],
				"types": {
					"t_array(t_int256)dyn_storage": {
						"base": "t_int256",
						"encoding": "dynamic_array",
						"label": "int256[]",
						"numberOfBytes": "32"
					},
					"t_int256": {
						"encoding": "inplace",
						"label": "int256",
						"numberOfBytes": "32"
					}
				}
			},
			"userdoc": {
				"kind": "user",
				"methods": {},
				"version": 1
			}
		}
	}
}