{
	"lab31_7/array_excercise.sol": {
		"dynamic": {
			"abi": [
				{
					"inputs": [
						{
							"internalType": "uint256",
							"name": "",
							"type": "uint256"
						}
					],
					"name": "arr2",
					"outputs": [
						{
							"internalType": "string",
							"name": "",
							"type": "string"
						}
					],
					"stateMutability": "view",
					"type": "function"
				},
				{
					"inputs": [],
					"name": "get2",
					"outputs": [
						{
							"internalType": "string[]",
							"name": "",
							"type": "string[]"
						}
					],
					"stateMutability": "view",
					"type": "function"
				},
				{
					"inputs": [],
					"name": "getName",
					"outputs": [
						{
							"internalType": "string",
							"name": "",
							"type": "string"
						}
					],
					"stateMutability": "view",
					"type": "function"
				},
				{
					"inputs": [],
					"name": "pop",
					"outputs": [],
					"stateMutability": "nonpayable",
					"type": "function"
				},
				{
					"inputs": [
						{
							"internalType": "string",
							"name": "firstName",
							"type": "string"
						},
						{
							"internalType": "string",
							"name": "lastName",
							"type": "string"
						},
						{
							"internalType": "string",
							"name": "surname",
							"type": "string"
						}
					],
					"name": "spush",
					"outputs": [],
					"stateMutability": "nonpayable",
					"type": "function"
				}
			],
			"devdoc": {
				"kind": "dev",
				"methods": {},
				"version": 1
			},
			"evm": {
				"assembly": "    /* \"lab31_7/array_excercise.sol\":341:846  contract dynamic{... */\n  mstore(0x40, 0x80)\n  callvalue\n  dup1\n  iszero\n  tag_1\n  jumpi\n  0x00\n  dup1\n  revert\ntag_1:\n  pop\n  dataSize(sub_0)\n  dup1\n  dataOffset(sub_0)\n  0x00\n  codecopy\n  0x00\n  return\nstop\n\nsub_0: assembly {\n        /* \"lab31_7/array_excercise.sol\":341:846  contract dynamic{... */\n      mstore(0x40, 0x80)\n      callvalue\n      dup1\n      iszero\n      tag_1\n      jumpi\n      0x00\n      dup1\n      revert\n    tag_1:\n      pop\n      jumpi(tag_2, lt(calldatasize, 0x04))\n      shr(0xe0, calldataload(0x00))\n      dup1\n      0x11be71ec\n      eq\n      tag_3\n      jumpi\n      dup1\n      0x17d7de7c\n      eq\n      tag_4\n      jumpi\n      dup1\n      0xa4ece52c\n      eq\n      tag_5\n      jumpi\n      dup1\n      0xd2178b08\n      eq\n      tag_6\n      jumpi\n      dup1\n      0xedf0099b\n      eq\n      tag_7\n      jumpi\n    tag_2:\n      0x00\n      dup1\n      revert\n        /* \"lab31_7/array_excercise.sol\":414:606  function spush(string memory firstName, string memory lastName, string memory surname) public {... */\n    tag_3:\n      tag_8\n      0x04\n      dup1\n      calldatasize\n      sub\n      dup2\n      add\n      swap1\n      tag_9\n      swap2\n      swap1\n      tag_10\n      jump\t// in\n    tag_9:\n      tag_11\n      jump\t// in\n    tag_8:\n      stop\n        /* \"lab31_7/array_excercise.sol\":755:841  function getName()public view returns (string memory){... */\n    tag_4:\n      tag_12\n      tag_13\n      jump\t// in\n    tag_12:\n      mload(0x40)\n      tag_14\n      swap2\n      swap1\n      tag_15\n      jump\t// in\n    tag_14:\n      mload(0x40)\n      dup1\n      swap2\n      sub\n      swap1\n      return\n        /* \"lab31_7/array_excercise.sol\":700:749  function pop()public{... */\n    tag_5:\n      tag_16\n      tag_17\n      jump\t// in\n    tag_16:\n      stop\n        /* \"lab31_7/array_excercise.sol\":612:694  function get2()public view returns (string[] memory){... */\n    tag_6:\n      tag_18\n      tag_19\n      jump\t// in\n    tag_18:\n      mload(0x40)\n      tag_20\n      swap2\n      swap1\n      tag_21\n      jump\t// in\n    tag_20:\n      mload(0x40)\n      dup1\n      swap2\n      sub\n      swap1\n      return\n        /* \"lab31_7/array_excercise.sol\":387:407  string[] public arr2 */\n    tag_7:\n      tag_22\n      0x04\n      dup1\n      calldatasize\n      sub\n      dup2\n      add\n      swap1\n      tag_23\n      swap2\n      swap1\n      tag_24\n      jump\t// in\n    tag_23:\n      tag_25\n      jump\t// in\n    tag_22:\n      mload(0x40)\n      tag_26\n      swap2\n      swap1\n      tag_15\n      jump\t// in\n    tag_26:\n      mload(0x40)\n      dup1\n      swap2\n      sub\n      swap1\n      return\n        /* \"lab31_7/array_excercise.sol\":414:606  function spush(string memory firstName, string memory lastName, string memory surname) public {... */\n    tag_11:\n        /* \"lab31_7/array_excercise.sol\":519:523  arr2 */\n      0x00\n        /* \"lab31_7/array_excercise.sol\":529:538  firstName */\n      dup4\n        /* \"lab31_7/array_excercise.sol\":519:539  arr2.push(firstName) */\n      swap1\n      dup1\n      0x01\n      dup2\n      sload\n      add\n      dup1\n      dup3\n      sstore\n      dup1\n      swap2\n      pop\n      pop\n      0x01\n      swap1\n      sub\n      swap1\n      0x00\n      mstore\n      keccak256(0x00, 0x20)\n      add\n      0x00\n      swap1\n      swap2\n      swap1\n      swap2\n      swap1\n      swap2\n      pop\n      swap1\n      dup2\n      tag_29\n      swap2\n      swap1\n      tag_30\n      jump\t// in\n    tag_29:\n      pop\n        /* \"lab31_7/array_excercise.sol\":550:554  arr2 */\n      0x00\n        /* \"lab31_7/array_excercise.sol\":560:568  lastName */\n      dup3\n        /* \"lab31_7/array_excercise.sol\":550:569  arr2.push(lastName) */\n      swap1\n      dup1\n      0x01\n      dup2\n      sload\n      add\n      dup1\n      dup3\n      sstore\n      dup1\n      swap2\n      pop\n      pop\n      0x01\n      swap1\n      sub\n      swap1\n      0x00\n      mstore\n      keccak256(0x00, 0x20)\n      add\n      0x00\n      swap1\n      swap2\n      swap1\n      swap2\n      swap1\n      swap2\n      pop\n      swap1\n      dup2\n      tag_32\n      swap2\n      swap1\n      tag_30\n      jump\t// in\n    tag_32:\n      pop\n        /* \"lab31_7/array_excercise.sol\":580:584  arr2 */\n      0x00\n        /* \"lab31_7/array_excercise.sol\":590:597  surname */\n      dup2\n        /* \"lab31_7/array_excercise.sol\":580:598  arr2.push(surname) */\n      swap1\n      dup1\n      0x01\n      dup2\n      sload\n      add\n      dup1\n      dup3\n      sstore\n      dup1\n      swap2\n      pop\n      pop\n      0x01\n      swap1\n      sub\n      swap1\n      0x00\n      mstore\n      keccak256(0x00, 0x20)\n      add\n      0x00\n      swap1\n      swap2\n      swap1\n      swap2\n      swap1\n      swap2\n      pop\n      swap1\n      dup2\n      tag_34\n      swap2\n      swap1\n      tag_30\n      jump\t// in\n    tag_34:\n      pop\n        /* \"lab31_7/array_excercise.sol\":414:606  function spush(string memory firstName, string memory lastName, string memory surname) public {... */\n      pop\n      pop\n      pop\n      jump\t// out\n        /* \"lab31_7/array_excercise.sol\":755:841  function getName()public view returns (string memory){... */\n    tag_13:\n        /* \"lab31_7/array_excercise.sol\":794:807  string memory */\n      0x60\n        /* \"lab31_7/array_excercise.sol\":826:830  arr2 */\n      0x00\n        /* \"lab31_7/array_excercise.sol\":831:832  0 */\n      dup1\n        /* \"lab31_7/array_excercise.sol\":826:833  arr2[0] */\n      dup2\n      sload\n      dup2\n      lt\n      tag_36\n      jumpi\n      tag_37\n      tag_38\n      jump\t// in\n    tag_37:\n    tag_36:\n      swap1\n      0x00\n      mstore\n      keccak256(0x00, 0x20)\n      add\n        /* \"lab31_7/array_excercise.sol\":819:833  return arr2[0] */\n      dup1\n      sload\n      tag_40\n      swap1\n      tag_41\n      jump\t// in\n    tag_40:\n      dup1\n      0x1f\n      add\n      0x20\n      dup1\n      swap2\n      div\n      mul\n      0x20\n      add\n      mload(0x40)\n      swap1\n      dup2\n      add\n      0x40\n      mstore\n      dup1\n      swap3\n      swap2\n      swap1\n      dup2\n      dup2\n      mstore\n      0x20\n      add\n      dup3\n      dup1\n      sload\n      tag_42\n      swap1\n      tag_41\n      jump\t// in\n    tag_42:\n      dup1\n      iszero\n      tag_43\n      jumpi\n      dup1\n      0x1f\n      lt\n      tag_44\n      jumpi\n      0x0100\n      dup1\n      dup4\n      sload\n      div\n      mul\n      dup4\n      mstore\n      swap2\n      0x20\n      add\n      swap2\n      jump(tag_43)\n    tag_44:\n      dup3\n      add\n      swap2\n      swap1\n      0x00\n      mstore\n      keccak256(0x00, 0x20)\n      swap1\n    tag_45:\n      dup2\n      sload\n      dup2\n      mstore\n      swap1\n      0x01\n      add\n      swap1\n      0x20\n      add\n      dup1\n      dup4\n      gt\n      tag_45\n      jumpi\n      dup3\n      swap1\n      sub\n      0x1f\n      and\n      dup3\n      add\n      swap2\n    tag_43:\n      pop\n      pop\n      pop\n      pop\n      pop\n      swap1\n      pop\n        /* \"lab31_7/array_excercise.sol\":755:841  function getName()public view returns (string memory){... */\n      swap1\n      jump\t// out\n        /* \"lab31_7/array_excercise.sol\":700:749  function pop()public{... */\n    tag_17:\n        /* \"lab31_7/array_excercise.sol\":731:735  arr2 */\n      0x00\n        /* \"lab31_7/array_excercise.sol\":731:741  arr2.pop() */\n      dup1\n      sload\n      dup1\n      tag_47\n      jumpi\n      tag_48\n      tag_49\n      jump\t// in\n    tag_48:\n    tag_47:\n      0x01\n      swap1\n      sub\n      dup2\n      dup2\n      swap1\n      0x00\n      mstore\n      keccak256(0x00, 0x20)\n      add\n      0x00\n      tag_51\n      swap2\n      swap1\n      tag_52\n      jump\t// in\n    tag_51:\n      swap1\n      sstore\n        /* \"lab31_7/array_excercise.sol\":700:749  function pop()public{... */\n      jump\t// out\n        /* \"lab31_7/array_excercise.sol\":612:694  function get2()public view returns (string[] memory){... */\n    tag_19:\n        /* \"lab31_7/array_excercise.sol\":648:663  string[] memory */\n      0x60\n        /* \"lab31_7/array_excercise.sol\":682:686  arr2 */\n      0x00\n        /* \"lab31_7/array_excercise.sol\":675:686  return arr2 */\n      dup1\n      sload\n      dup1\n      0x20\n      mul\n      0x20\n      add\n      mload(0x40)\n      swap1\n      dup2\n      add\n      0x40\n      mstore\n      dup1\n      swap3\n      swap2\n      swap1\n      dup2\n      dup2\n      mstore\n      0x20\n      add\n      0x00\n      swap1\n    tag_54:\n      dup3\n      dup3\n      lt\n      iszero\n      tag_55\n      jumpi\n      dup4\n      dup3\n      swap1\n      0x00\n      mstore\n      keccak256(0x00, 0x20)\n      add\n      dup1\n      sload\n      tag_57\n      swap1\n      tag_41\n      jump\t// in\n    tag_57:\n      dup1\n      0x1f\n      add\n      0x20\n      dup1\n      swap2\n      div\n      mul\n      0x20\n      add\n      mload(0x40)\n      swap1\n      dup2\n      add\n      0x40\n      mstore\n      dup1\n      swap3\n      swap2\n      swap1\n      dup2\n      dup2\n      mstore\n      0x20\n      add\n      dup3\n      dup1\n      sload\n      tag_58\n      swap1\n      tag_41\n      jump\t// in\n    tag_58:\n      dup1\n      iszero\n      tag_59\n      jumpi\n      dup1\n      0x1f\n      lt\n      tag_60\n      jumpi\n      0x0100\n      dup1\n      dup4\n      sload\n      div\n      mul\n      dup4\n      mstore\n      swap2\n      0x20\n      add\n      swap2\n      jump(tag_59)\n    tag_60:\n      dup3\n      add\n      swap2\n      swap1\n      0x00\n      mstore\n      keccak256(0x00, 0x20)\n      swap1\n    tag_61:\n      dup2\n      sload\n      dup2\n      mstore\n      swap1\n      0x01\n      add\n      swap1\n      0x20\n      add\n      dup1\n      dup4\n      gt\n      tag_61\n      jumpi\n      dup3\n      swap1\n      sub\n      0x1f\n      and\n      dup3\n      add\n      swap2\n    tag_59:\n      pop\n      pop\n      pop\n      pop\n      pop\n      dup2\n      mstore\n      0x20\n      add\n      swap1\n      0x01\n      add\n      swap1\n      jump(tag_54)\n    tag_55:\n      pop\n      pop\n      pop\n      pop\n      swap1\n      pop\n        /* \"lab31_7/array_excercise.sol\":612:694  function get2()public view returns (string[] memory){... */\n      swap1\n      jump\t// out\n        /* \"lab31_7/array_excercise.sol\":387:407  string[] public arr2 */\n    tag_25:\n      0x00\n      dup2\n      dup2\n      sload\n      dup2\n      lt\n      tag_62\n      jumpi\n      0x00\n      dup1\n      revert\n    tag_62:\n      swap1\n      0x00\n      mstore\n      keccak256(0x00, 0x20)\n      add\n      0x00\n      swap2\n      pop\n      swap1\n      pop\n      dup1\n      sload\n      tag_64\n      swap1\n      tag_41\n      jump\t// in\n    tag_64:\n      dup1\n      0x1f\n      add\n      0x20\n      dup1\n      swap2\n      div\n      mul\n      0x20\n      add\n      mload(0x40)\n      swap1\n      dup2\n      add\n      0x40\n      mstore\n      dup1\n      swap3\n      swap2\n      swap1\n      dup2\n      dup2\n      mstore\n      0x20\n      add\n      dup3\n      dup1\n      sload\n      tag_65\n      swap1\n      tag_41\n      jump\t// in\n    tag_65:\n      dup1\n      iszero\n      tag_66\n      jumpi\n      dup1\n      0x1f\n      lt\n      tag_67\n      jumpi\n      0x0100\n      dup1\n      dup4\n      sload\n      div\n      mul\n      dup4\n      mstore\n      swap2\n      0x20\n      add\n      swap2\n      jump(tag_66)\n    tag_67:\n      dup3\n      add\n      swap2\n      swap1\n      0x00\n      mstore\n      keccak256(0x00, 0x20)\n      swap1\n    tag_68:\n      dup2\n      sload\n      dup2\n      mstore\n      swap1\n      0x01\n      add\n      swap1\n      0x20\n      add\n      dup1\n      dup4\n      gt\n      tag_68\n      jumpi\n      dup3\n      swap1\n      sub\n      0x1f\n      and\n      dup3\n      add\n      swap2\n    tag_66:\n      pop\n      pop\n      pop\n      pop\n      pop\n      dup2\n      jump\t// out\n    tag_52:\n      pop\n      dup1\n      sload\n      tag_69\n      swap1\n      tag_41\n      jump\t// in\n    tag_69:\n      0x00\n      dup3\n      sstore\n      dup1\n      0x1f\n      lt\n      tag_71\n      jumpi\n      pop\n      jump(tag_70)\n    tag_71:\n      0x1f\n      add\n      0x20\n      swap1\n      div\n      swap1\n      0x00\n      mstore\n      keccak256(0x00, 0x20)\n      swap1\n      dup2\n      add\n      swap1\n      tag_72\n      swap2\n      swap1\n      tag_73\n      jump\t// in\n    tag_72:\n    tag_70:\n      pop\n      jump\t// out\n    tag_73:\n    tag_74:\n      dup1\n      dup3\n      gt\n      iszero\n      tag_75\n      jumpi\n      0x00\n      dup2\n      0x00\n      swap1\n      sstore\n      pop\n      0x01\n      add\n      jump(tag_74)\n    tag_75:\n      pop\n      swap1\n      jump\t// out\n        /* \"#utility.yul\":7:82   */\n    tag_76:\n        /* \"#utility.yul\":40:46   */\n      0x00\n        /* \"#utility.yul\":73:75   */\n      0x40\n        /* \"#utility.yul\":67:76   */\n      mload\n        /* \"#utility.yul\":57:76   */\n      swap1\n      pop\n        /* \"#utility.yul\":7:82   */\n      swap1\n      jump\t// out\n        /* \"#utility.yul\":88:205   */\n    tag_77:\n        /* \"#utility.yul\":197:198   */\n      0x00\n        /* \"#utility.yul\":194:195   */\n      dup1\n        /* \"#utility.yul\":187:199   */\n      revert\n        /* \"#utility.yul\":211:328   */\n    tag_78:\n        /* \"#utility.yul\":320:321   */\n      0x00\n        /* \"#utility.yul\":317:318   */\n      dup1\n        /* \"#utility.yul\":310:322   */\n      revert\n        /* \"#utility.yul\":334:451   */\n    tag_79:\n        /* \"#utility.yul\":443:444   */\n      0x00\n        /* \"#utility.yul\":440:441   */\n      dup1\n        /* \"#utility.yul\":433:445   */\n      revert\n        /* \"#utility.yul\":457:574   */\n    tag_80:\n        /* \"#utility.yul\":566:567   */\n      0x00\n        /* \"#utility.yul\":563:564   */\n      dup1\n        /* \"#utility.yul\":556:568   */\n      revert\n        /* \"#utility.yul\":580:682   */\n    tag_81:\n        /* \"#utility.yul\":621:627   */\n      0x00\n        /* \"#utility.yul\":672:674   */\n      0x1f\n        /* \"#utility.yul\":668:675   */\n      not\n        /* \"#utility.yul\":663:665   */\n      0x1f\n        /* \"#utility.yul\":656:661   */\n      dup4\n        /* \"#utility.yul\":652:666   */\n      add\n        /* \"#utility.yul\":648:676   */\n      and\n        /* \"#utility.yul\":638:676   */\n      swap1\n      pop\n        /* \"#utility.yul\":580:682   */\n      swap2\n      swap1\n      pop\n      jump\t// out\n        /* \"#utility.yul\":688:868   */\n    tag_82:\n        /* \"#utility.yul\":736:813   */\n      0x4e487b7100000000000000000000000000000000000000000000000000000000\n        /* \"#utility.yul\":733:734   */\n      0x00\n        /* \"#utility.yul\":726:814   */\n      mstore\n        /* \"#utility.yul\":833:837   */\n      0x41\n        /* \"#utility.yul\":830:831   */\n      0x04\n        /* \"#utility.yul\":823:838   */\n      mstore\n        /* \"#utility.yul\":857:861   */\n      0x24\n        /* \"#utility.yul\":854:855   */\n      0x00\n        /* \"#utility.yul\":847:862   */\n      revert\n        /* \"#utility.yul\":874:1155   */\n    tag_83:\n        /* \"#utility.yul\":957:984   */\n      tag_129\n        /* \"#utility.yul\":979:983   */\n      dup3\n        /* \"#utility.yul\":957:984   */\n      tag_81\n      jump\t// in\n    tag_129:\n        /* \"#utility.yul\":949:955   */\n      dup2\n        /* \"#utility.yul\":945:985   */\n      add\n        /* \"#utility.yul\":1087:1093   */\n      dup2\n        /* \"#utility.yul\":1075:1085   */\n      dup2\n        /* \"#utility.yul\":1072:1094   */\n      lt\n        /* \"#utility.yul\":1051:1069   */\n      0xffffffffffffffff\n        /* \"#utility.yul\":1039:1049   */\n      dup3\n        /* \"#utility.yul\":1036:1070   */\n      gt\n        /* \"#utility.yul\":1033:1095   */\n      or\n        /* \"#utility.yul\":1030:1118   */\n      iszero\n      tag_130\n      jumpi\n        /* \"#utility.yul\":1098:1116   */\n      tag_131\n      tag_82\n      jump\t// in\n    tag_131:\n        /* \"#utility.yul\":1030:1118   */\n    tag_130:\n        /* \"#utility.yul\":1138:1148   */\n      dup1\n        /* \"#utility.yul\":1134:1136   */\n      0x40\n        /* \"#utility.yul\":1127:1149   */\n      mstore\n        /* \"#utility.yul\":917:1155   */\n      pop\n        /* \"#utility.yul\":874:1155   */\n      pop\n      pop\n      jump\t// out\n        /* \"#utility.yul\":1161:1290   */\n    tag_84:\n        /* \"#utility.yul\":1195:1201   */\n      0x00\n        /* \"#utility.yul\":1222:1242   */\n      tag_133\n      tag_76\n      jump\t// in\n    tag_133:\n        /* \"#utility.yul\":1212:1242   */\n      swap1\n      pop\n        /* \"#utility.yul\":1251:1284   */\n      tag_134\n        /* \"#utility.yul\":1279:1283   */\n      dup3\n        /* \"#utility.yul\":1271:1277   */\n      dup3\n        /* \"#utility.yul\":1251:1284   */\n      tag_83\n      jump\t// in\n    tag_134:\n        /* \"#utility.yul\":1161:1290   */\n      swap2\n      swap1\n      pop\n      jump\t// out\n        /* \"#utility.yul\":1296:1604   */\n    tag_85:\n        /* \"#utility.yul\":1358:1362   */\n      0x00\n        /* \"#utility.yul\":1448:1466   */\n      0xffffffffffffffff\n        /* \"#utility.yul\":1440:1446   */\n      dup3\n        /* \"#utility.yul\":1437:1467   */\n      gt\n        /* \"#utility.yul\":1434:1490   */\n      iszero\n      tag_136\n      jumpi\n        /* \"#utility.yul\":1470:1488   */\n      tag_137\n      tag_82\n      jump\t// in\n    tag_137:\n        /* \"#utility.yul\":1434:1490   */\n    tag_136:\n        /* \"#utility.yul\":1508:1537   */\n      tag_138\n        /* \"#utility.yul\":1530:1536   */\n      dup3\n        /* \"#utility.yul\":1508:1537   */\n      tag_81\n      jump\t// in\n    tag_138:\n        /* \"#utility.yul\":1500:1537   */\n      swap1\n      pop\n        /* \"#utility.yul\":1592:1596   */\n      0x20\n        /* \"#utility.yul\":1586:1590   */\n      dup2\n        /* \"#utility.yul\":1582:1597   */\n      add\n        /* \"#utility.yul\":1574:1597   */\n      swap1\n      pop\n        /* \"#utility.yul\":1296:1604   */\n      swap2\n      swap1\n      pop\n      jump\t// out\n        /* \"#utility.yul\":1610:1756   */\n    tag_86:\n        /* \"#utility.yul\":1707:1713   */\n      dup3\n        /* \"#utility.yul\":1702:1705   */\n      dup2\n        /* \"#utility.yul\":1697:1700   */\n      dup4\n        /* \"#utility.yul\":1684:1714   */\n      calldatacopy\n        /* \"#utility.yul\":1748:1749   */\n      0x00\n        /* \"#utility.yul\":1739:1745   */\n      dup4\n        /* \"#utility.yul\":1734:1737   */\n      dup4\n        /* \"#utility.yul\":1730:1746   */\n      add\n        /* \"#utility.yul\":1723:1750   */\n      mstore\n        /* \"#utility.yul\":1610:1756   */\n      pop\n      pop\n      pop\n      jump\t// out\n        /* \"#utility.yul\":1762:2187   */\n    tag_87:\n        /* \"#utility.yul\":1840:1845   */\n      0x00\n        /* \"#utility.yul\":1865:1931   */\n      tag_141\n        /* \"#utility.yul\":1881:1930   */\n      tag_142\n        /* \"#utility.yul\":1923:1929   */\n      dup5\n        /* \"#utility.yul\":1881:1930   */\n      tag_85\n      jump\t// in\n    tag_142:\n        /* \"#utility.yul\":1865:1931   */\n      tag_84\n      jump\t// in\n    tag_141:\n        /* \"#utility.yul\":1856:1931   */\n      swap1\n      pop\n        /* \"#utility.yul\":1954:1960   */\n      dup3\n        /* \"#utility.yul\":1947:1952   */\n      dup2\n        /* \"#utility.yul\":1940:1961   */\n      mstore\n        /* \"#utility.yul\":1992:1996   */\n      0x20\n        /* \"#utility.yul\":1985:1990   */\n      dup2\n        /* \"#utility.yul\":1981:1997   */\n      add\n        /* \"#utility.yul\":2030:2033   */\n      dup5\n        /* \"#utility.yul\":2021:2027   */\n      dup5\n        /* \"#utility.yul\":2016:2019   */\n      dup5\n        /* \"#utility.yul\":2012:2028   */\n      add\n        /* \"#utility.yul\":2009:2034   */\n      gt\n        /* \"#utility.yul\":2006:2118   */\n      iszero\n      tag_143\n      jumpi\n        /* \"#utility.yul\":2037:2116   */\n      tag_144\n      tag_80\n      jump\t// in\n    tag_144:\n        /* \"#utility.yul\":2006:2118   */\n    tag_143:\n        /* \"#utility.yul\":2127:2181   */\n      tag_145\n        /* \"#utility.yul\":2174:2180   */\n      dup5\n        /* \"#utility.yul\":2169:2172   */\n      dup3\n        /* \"#utility.yul\":2164:2167   */\n      dup6\n        /* \"#utility.yul\":2127:2181   */\n      tag_86\n      jump\t// in\n    tag_145:\n        /* \"#utility.yul\":1846:2187   */\n      pop\n        /* \"#utility.yul\":1762:2187   */\n      swap4\n      swap3\n      pop\n      pop\n      pop\n      jump\t// out\n        /* \"#utility.yul\":2207:2547   */\n    tag_88:\n        /* \"#utility.yul\":2263:2268   */\n      0x00\n        /* \"#utility.yul\":2312:2315   */\n      dup3\n        /* \"#utility.yul\":2305:2309   */\n      0x1f\n        /* \"#utility.yul\":2297:2303   */\n      dup4\n        /* \"#utility.yul\":2293:2310   */\n      add\n        /* \"#utility.yul\":2289:2316   */\n      slt\n        /* \"#utility.yul\":2279:2401   */\n      tag_147\n      jumpi\n        /* \"#utility.yul\":2320:2399   */\n      tag_148\n      tag_79\n      jump\t// in\n    tag_148:\n        /* \"#utility.yul\":2279:2401   */\n    tag_147:\n        /* \"#utility.yul\":2437:2443   */\n      dup2\n        /* \"#utility.yul\":2424:2444   */\n      calldataload\n        /* \"#utility.yul\":2462:2541   */\n      tag_149\n        /* \"#utility.yul\":2537:2540   */\n      dup5\n        /* \"#utility.yul\":2529:2535   */\n      dup3\n        /* \"#utility.yul\":2522:2526   */\n      0x20\n        /* \"#utility.yul\":2514:2520   */\n      dup7\n        /* \"#utility.yul\":2510:2527   */\n      add\n        /* \"#utility.yul\":2462:2541   */\n      tag_87\n      jump\t// in\n    tag_149:\n        /* \"#utility.yul\":2453:2541   */\n      swap2\n      pop\n        /* \"#utility.yul\":2269:2547   */\n      pop\n        /* \"#utility.yul\":2207:2547   */\n      swap3\n      swap2\n      pop\n      pop\n      jump\t// out\n        /* \"#utility.yul\":2553:3712   */\n    tag_10:\n        /* \"#utility.yul\":2660:2666   */\n      0x00\n        /* \"#utility.yul\":2668:2674   */\n      dup1\n        /* \"#utility.yul\":2676:2682   */\n      0x00\n        /* \"#utility.yul\":2725:2727   */\n      0x60\n        /* \"#utility.yul\":2713:2722   */\n      dup5\n        /* \"#utility.yul\":2704:2711   */\n      dup7\n        /* \"#utility.yul\":2700:2723   */\n      sub\n        /* \"#utility.yul\":2696:2728   */\n      slt\n        /* \"#utility.yul\":2693:2812   */\n      iszero\n      tag_151\n      jumpi\n        /* \"#utility.yul\":2731:2810   */\n      tag_152\n      tag_77\n      jump\t// in\n    tag_152:\n        /* \"#utility.yul\":2693:2812   */\n    tag_151:\n        /* \"#utility.yul\":2879:2880   */\n      0x00\n        /* \"#utility.yul\":2868:2877   */\n      dup5\n        /* \"#utility.yul\":2864:2881   */\n      add\n        /* \"#utility.yul\":2851:2882   */\n      calldataload\n        /* \"#utility.yul\":2909:2927   */\n      0xffffffffffffffff\n        /* \"#utility.yul\":2901:2907   */\n      dup2\n        /* \"#utility.yul\":2898:2928   */\n      gt\n        /* \"#utility.yul\":2895:3012   */\n      iszero\n      tag_153\n      jumpi\n        /* \"#utility.yul\":2931:3010   */\n      tag_154\n      tag_78\n      jump\t// in\n    tag_154:\n        /* \"#utility.yul\":2895:3012   */\n    tag_153:\n        /* \"#utility.yul\":3036:3099   */\n      tag_155\n        /* \"#utility.yul\":3091:3098   */\n      dup7\n        /* \"#utility.yul\":3082:3088   */\n      dup3\n        /* \"#utility.yul\":3071:3080   */\n      dup8\n        /* \"#utility.yul\":3067:3089   */\n      add\n        /* \"#utility.yul\":3036:3099   */\n      tag_88\n      jump\t// in\n    tag_155:\n        /* \"#utility.yul\":3026:3099   */\n      swap4\n      pop\n        /* \"#utility.yul\":2822:3109   */\n      pop\n        /* \"#utility.yul\":3176:3178   */\n      0x20\n        /* \"#utility.yul\":3165:3174   */\n      dup5\n        /* \"#utility.yul\":3161:3179   */\n      add\n        /* \"#utility.yul\":3148:3180   */\n      calldataload\n        /* \"#utility.yul\":3207:3225   */\n      0xffffffffffffffff\n        /* \"#utility.yul\":3199:3205   */\n      dup2\n        /* \"#utility.yul\":3196:3226   */\n      gt\n        /* \"#utility.yul\":3193:3310   */\n      iszero\n      tag_156\n      jumpi\n        /* \"#utility.yul\":3229:3308   */\n      tag_157\n      tag_78\n      jump\t// in\n    tag_157:\n        /* \"#utility.yul\":3193:3310   */\n    tag_156:\n        /* \"#utility.yul\":3334:3397   */\n      tag_158\n        /* \"#utility.yul\":3389:3396   */\n      dup7\n        /* \"#utility.yul\":3380:3386   */\n      dup3\n        /* \"#utility.yul\":3369:3378   */\n      dup8\n        /* \"#utility.yul\":3365:3387   */\n      add\n        /* \"#utility.yul\":3334:3397   */\n      tag_88\n      jump\t// in\n    tag_158:\n        /* \"#utility.yul\":3324:3397   */\n      swap3\n      pop\n        /* \"#utility.yul\":3119:3407   */\n      pop\n        /* \"#utility.yul\":3474:3476   */\n      0x40\n        /* \"#utility.yul\":3463:3472   */\n      dup5\n        /* \"#utility.yul\":3459:3477   */\n      add\n        /* \"#utility.yul\":3446:3478   */\n      calldataload\n        /* \"#utility.yul\":3505:3523   */\n      0xffffffffffffffff\n        /* \"#utility.yul\":3497:3503   */\n      dup2\n        /* \"#utility.yul\":3494:3524   */\n      gt\n        /* \"#utility.yul\":3491:3608   */\n      iszero\n      tag_159\n      jumpi\n        /* \"#utility.yul\":3527:3606   */\n      tag_160\n      tag_78\n      jump\t// in\n    tag_160:\n        /* \"#utility.yul\":3491:3608   */\n    tag_159:\n        /* \"#utility.yul\":3632:3695   */\n      tag_161\n        /* \"#utility.yul\":3687:3694   */\n      dup7\n        /* \"#utility.yul\":3678:3684   */\n      dup3\n        /* \"#utility.yul\":3667:3676   */\n      dup8\n        /* \"#utility.yul\":3663:3685   */\n      add\n        /* \"#utility.yul\":3632:3695   */\n      tag_88\n      jump\t// in\n    tag_161:\n        /* \"#utility.yul\":3622:3695   */\n      swap2\n      pop\n        /* \"#utility.yul\":3417:3705   */\n      pop\n        /* \"#utility.yul\":2553:3712   */\n      swap3\n      pop\n      swap3\n      pop\n      swap3\n      jump\t// out\n        /* \"#utility.yul\":3718:3817   */\n    tag_89:\n        /* \"#utility.yul\":3770:3776   */\n      0x00\n        /* \"#utility.yul\":3804:3809   */\n      dup2\n        /* \"#utility.yul\":3798:3810   */\n      mload\n        /* \"#utility.yul\":3788:3810   */\n      swap1\n      pop\n        /* \"#utility.yul\":3718:3817   */\n      swap2\n      swap1\n      pop\n      jump\t// out\n        /* \"#utility.yul\":3823:3992   */\n    tag_90:\n        /* \"#utility.yul\":3907:3918   */\n      0x00\n        /* \"#utility.yul\":3941:3947   */\n      dup3\n        /* \"#utility.yul\":3936:3939   */\n      dup3\n        /* \"#utility.yul\":3929:3948   */\n      mstore\n        /* \"#utility.yul\":3981:3985   */\n      0x20\n        /* \"#utility.yul\":3976:3979   */\n      dup3\n        /* \"#utility.yul\":3972:3986   */\n      add\n        /* \"#utility.yul\":3957:3986   */\n      swap1\n      pop\n        /* \"#utility.yul\":3823:3992   */\n      swap3\n      swap2\n      pop\n      pop\n      jump\t// out\n        /* \"#utility.yul\":3998:4244   */\n    tag_91:\n        /* \"#utility.yul\":4079:4080   */\n      0x00\n        /* \"#utility.yul\":4089:4202   */\n    tag_165:\n        /* \"#utility.yul\":4103:4109   */\n      dup4\n        /* \"#utility.yul\":4100:4101   */\n      dup2\n        /* \"#utility.yul\":4097:4110   */\n      lt\n        /* \"#utility.yul\":4089:4202   */\n      iszero\n      tag_167\n      jumpi\n        /* \"#utility.yul\":4188:4189   */\n      dup1\n        /* \"#utility.yul\":4183:4186   */\n      dup3\n        /* \"#utility.yul\":4179:4190   */\n      add\n        /* \"#utility.yul\":4173:4191   */\n      mload\n        /* \"#utility.yul\":4169:4170   */\n      dup2\n        /* \"#utility.yul\":4164:4167   */\n      dup5\n        /* \"#utility.yul\":4160:4171   */\n      add\n        /* \"#utility.yul\":4153:4192   */\n      mstore\n        /* \"#utility.yul\":4125:4127   */\n      0x20\n        /* \"#utility.yul\":4122:4123   */\n      dup2\n        /* \"#utility.yul\":4118:4128   */\n      add\n        /* \"#utility.yul\":4113:4128   */\n      swap1\n      pop\n        /* \"#utility.yul\":4089:4202   */\n      jump(tag_165)\n    tag_167:\n        /* \"#utility.yul\":4236:4237   */\n      0x00\n        /* \"#utility.yul\":4227:4233   */\n      dup5\n        /* \"#utility.yul\":4222:4225   */\n      dup5\n        /* \"#utility.yul\":4218:4234   */\n      add\n        /* \"#utility.yul\":4211:4238   */\n      mstore\n        /* \"#utility.yul\":4060:4244   */\n      pop\n        /* \"#utility.yul\":3998:4244   */\n      pop\n      pop\n      pop\n      jump\t// out\n        /* \"#utility.yul\":4250:4627   */\n    tag_92:\n        /* \"#utility.yul\":4338:4341   */\n      0x00\n        /* \"#utility.yul\":4366:4405   */\n      tag_169\n        /* \"#utility.yul\":4399:4404   */\n      dup3\n        /* \"#utility.yul\":4366:4405   */\n      tag_89\n      jump\t// in\n    tag_169:\n        /* \"#utility.yul\":4421:4492   */\n      tag_170\n        /* \"#utility.yul\":4485:4491   */\n      dup2\n        /* \"#utility.yul\":4480:4483   */\n      dup6\n        /* \"#utility.yul\":4421:4492   */\n      tag_90\n      jump\t// in\n    tag_170:\n        /* \"#utility.yul\":4414:4492   */\n      swap4\n      pop\n        /* \"#utility.yul\":4501:4566   */\n      tag_171\n        /* \"#utility.yul\":4559:4565   */\n      dup2\n        /* \"#utility.yul\":4554:4557   */\n      dup6\n        /* \"#utility.yul\":4547:4551   */\n      0x20\n        /* \"#utility.yul\":4540:4545   */\n      dup7\n        /* \"#utility.yul\":4536:4552   */\n      add\n        /* \"#utility.yul\":4501:4566   */\n      tag_91\n      jump\t// in\n    tag_171:\n        /* \"#utility.yul\":4591:4620   */\n      tag_172\n        /* \"#utility.yul\":4613:4619   */\n      dup2\n        /* \"#utility.yul\":4591:4620   */\n      tag_81\n      jump\t// in\n    tag_172:\n        /* \"#utility.yul\":4586:4589   */\n      dup5\n        /* \"#utility.yul\":4582:4621   */\n      add\n        /* \"#utility.yul\":4575:4621   */\n      swap2\n      pop\n        /* \"#utility.yul\":4342:4627   */\n      pop\n        /* \"#utility.yul\":4250:4627   */\n      swap3\n      swap2\n      pop\n      pop\n      jump\t// out\n        /* \"#utility.yul\":4633:4946   */\n    tag_15:\n        /* \"#utility.yul\":4746:4750   */\n      0x00\n        /* \"#utility.yul\":4784:4786   */\n      0x20\n        /* \"#utility.yul\":4773:4782   */\n      dup3\n        /* \"#utility.yul\":4769:4787   */\n      add\n        /* \"#utility.yul\":4761:4787   */\n      swap1\n      pop\n        /* \"#utility.yul\":4833:4842   */\n      dup2\n        /* \"#utility.yul\":4827:4831   */\n      dup2\n        /* \"#utility.yul\":4823:4843   */\n      sub\n        /* \"#utility.yul\":4819:4820   */\n      0x00\n        /* \"#utility.yul\":4808:4817   */\n      dup4\n        /* \"#utility.yul\":4804:4821   */\n      add\n        /* \"#utility.yul\":4797:4844   */\n      mstore\n        /* \"#utility.yul\":4861:4939   */\n      tag_174\n        /* \"#utility.yul\":4934:4938   */\n      dup2\n        /* \"#utility.yul\":4925:4931   */\n      dup5\n        /* \"#utility.yul\":4861:4939   */\n      tag_92\n      jump\t// in\n    tag_174:\n        /* \"#utility.yul\":4853:4939   */\n      swap1\n      pop\n        /* \"#utility.yul\":4633:4946   */\n      swap3\n      swap2\n      pop\n      pop\n      jump\t// out\n        /* \"#utility.yul\":4952:5076   */\n    tag_93:\n        /* \"#utility.yul\":5029:5035   */\n      0x00\n        /* \"#utility.yul\":5063:5068   */\n      dup2\n        /* \"#utility.yul\":5057:5069   */\n      mload\n        /* \"#utility.yul\":5047:5069   */\n      swap1\n      pop\n        /* \"#utility.yul\":4952:5076   */\n      swap2\n      swap1\n      pop\n      jump\t// out\n        /* \"#utility.yul\":5082:5276   */\n    tag_94:\n        /* \"#utility.yul\":5191:5202   */\n      0x00\n        /* \"#utility.yul\":5225:5231   */\n      dup3\n        /* \"#utility.yul\":5220:5223   */\n      dup3\n        /* \"#utility.yul\":5213:5232   */\n      mstore\n        /* \"#utility.yul\":5265:5269   */\n      0x20\n        /* \"#utility.yul\":5260:5263   */\n      dup3\n        /* \"#utility.yul\":5256:5270   */\n      add\n        /* \"#utility.yul\":5241:5270   */\n      swap1\n      pop\n        /* \"#utility.yul\":5082:5276   */\n      swap3\n      swap2\n      pop\n      pop\n      jump\t// out\n        /* \"#utility.yul\":5282:5424   */\n    tag_95:\n        /* \"#utility.yul\":5359:5363   */\n      0x00\n        /* \"#utility.yul\":5382:5385   */\n      dup2\n        /* \"#utility.yul\":5374:5385   */\n      swap1\n      pop\n        /* \"#utility.yul\":5412:5416   */\n      0x20\n        /* \"#utility.yul\":5407:5410   */\n      dup3\n        /* \"#utility.yul\":5403:5417   */\n      add\n        /* \"#utility.yul\":5395:5417   */\n      swap1\n      pop\n        /* \"#utility.yul\":5282:5424   */\n      swap2\n      swap1\n      pop\n      jump\t// out\n        /* \"#utility.yul\":5430:5589   */\n    tag_96:\n        /* \"#utility.yul\":5504:5515   */\n      0x00\n        /* \"#utility.yul\":5538:5544   */\n      dup3\n        /* \"#utility.yul\":5533:5536   */\n      dup3\n        /* \"#utility.yul\":5526:5545   */\n      mstore\n        /* \"#utility.yul\":5578:5582   */\n      0x20\n        /* \"#utility.yul\":5573:5576   */\n      dup3\n        /* \"#utility.yul\":5569:5583   */\n      add\n        /* \"#utility.yul\":5554:5583   */\n      swap1\n      pop\n        /* \"#utility.yul\":5430:5589   */\n      swap3\n      swap2\n      pop\n      pop\n      jump\t// out\n        /* \"#utility.yul\":5595:5952   */\n    tag_97:\n        /* \"#utility.yul\":5673:5676   */\n      0x00\n        /* \"#utility.yul\":5701:5740   */\n      tag_180\n        /* \"#utility.yul\":5734:5739   */\n      dup3\n        /* \"#utility.yul\":5701:5740   */\n      tag_89\n      jump\t// in\n    tag_180:\n        /* \"#utility.yul\":5756:5817   */\n      tag_181\n        /* \"#utility.yul\":5810:5816   */\n      dup2\n        /* \"#utility.yul\":5805:5808   */\n      dup6\n        /* \"#utility.yul\":5756:5817   */\n      tag_96\n      jump\t// in\n    tag_181:\n        /* \"#utility.yul\":5749:5817   */\n      swap4\n      pop\n        /* \"#utility.yul\":5826:5891   */\n      tag_182\n        /* \"#utility.yul\":5884:5890   */\n      dup2\n        /* \"#utility.yul\":5879:5882   */\n      dup6\n        /* \"#utility.yul\":5872:5876   */\n      0x20\n        /* \"#utility.yul\":5865:5870   */\n      dup7\n        /* \"#utility.yul\":5861:5877   */\n      add\n        /* \"#utility.yul\":5826:5891   */\n      tag_91\n      jump\t// in\n    tag_182:\n        /* \"#utility.yul\":5916:5945   */\n      tag_183\n        /* \"#utility.yul\":5938:5944   */\n      dup2\n        /* \"#utility.yul\":5916:5945   */\n      tag_81\n      jump\t// in\n    tag_183:\n        /* \"#utility.yul\":5911:5914   */\n      dup5\n        /* \"#utility.yul\":5907:5946   */\n      add\n        /* \"#utility.yul\":5900:5946   */\n      swap2\n      pop\n        /* \"#utility.yul\":5677:5952   */\n      pop\n        /* \"#utility.yul\":5595:5952   */\n      swap3\n      swap2\n      pop\n      pop\n      jump\t// out\n        /* \"#utility.yul\":5958:6154   */\n    tag_98:\n        /* \"#utility.yul\":6047:6057   */\n      0x00\n        /* \"#utility.yul\":6082:6148   */\n      tag_185\n        /* \"#utility.yul\":6144:6147   */\n      dup4\n        /* \"#utility.yul\":6136:6142   */\n      dup4\n        /* \"#utility.yul\":6082:6148   */\n      tag_97\n      jump\t// in\n    tag_185:\n        /* \"#utility.yul\":6068:6148   */\n      swap1\n      pop\n        /* \"#utility.yul\":5958:6154   */\n      swap3\n      swap2\n      pop\n      pop\n      jump\t// out\n        /* \"#utility.yul\":6160:6283   */\n    tag_99:\n        /* \"#utility.yul\":6240:6244   */\n      0x00\n        /* \"#utility.yul\":6272:6276   */\n      0x20\n        /* \"#utility.yul\":6267:6270   */\n      dup3\n        /* \"#utility.yul\":6263:6277   */\n      add\n        /* \"#utility.yul\":6255:6277   */\n      swap1\n      pop\n        /* \"#utility.yul\":6160:6283   */\n      swap2\n      swap1\n      pop\n      jump\t// out\n        /* \"#utility.yul\":6317:7308   */\n    tag_100:\n        /* \"#utility.yul\":6456:6459   */\n      0x00\n        /* \"#utility.yul\":6485:6549   */\n      tag_188\n        /* \"#utility.yul\":6543:6548   */\n      dup3\n        /* \"#utility.yul\":6485:6549   */\n      tag_93\n      jump\t// in\n    tag_188:\n        /* \"#utility.yul\":6565:6661   */\n      tag_189\n        /* \"#utility.yul\":6654:6660   */\n      dup2\n        /* \"#utility.yul\":6649:6652   */\n      dup6\n        /* \"#utility.yul\":6565:6661   */\n      tag_94\n      jump\t// in\n    tag_189:\n        /* \"#utility.yul\":6558:6661   */\n      swap4\n      pop\n        /* \"#utility.yul\":6687:6690   */\n      dup4\n        /* \"#utility.yul\":6732:6736   */\n      0x20\n        /* \"#utility.yul\":6724:6730   */\n      dup3\n        /* \"#utility.yul\":6720:6737   */\n      mul\n        /* \"#utility.yul\":6715:6718   */\n      dup6\n        /* \"#utility.yul\":6711:6738   */\n      add\n        /* \"#utility.yul\":6762:6828   */\n      tag_190\n        /* \"#utility.yul\":6822:6827   */\n      dup6\n        /* \"#utility.yul\":6762:6828   */\n      tag_95\n      jump\t// in\n    tag_190:\n        /* \"#utility.yul\":6851:6858   */\n      dup1\n        /* \"#utility.yul\":6882:6883   */\n      0x00\n        /* \"#utility.yul\":6867:7263   */\n    tag_191:\n        /* \"#utility.yul\":6892:6898   */\n      dup6\n        /* \"#utility.yul\":6889:6890   */\n      dup2\n        /* \"#utility.yul\":6886:6899   */\n      lt\n        /* \"#utility.yul\":6867:7263   */\n      iszero\n      tag_193\n      jumpi\n        /* \"#utility.yul\":6963:6972   */\n      dup5\n        /* \"#utility.yul\":6957:6961   */\n      dup5\n        /* \"#utility.yul\":6953:6973   */\n      sub\n        /* \"#utility.yul\":6948:6951   */\n      dup10\n        /* \"#utility.yul\":6941:6974   */\n      mstore\n        /* \"#utility.yul\":7014:7020   */\n      dup2\n        /* \"#utility.yul\":7008:7021   */\n      mload\n        /* \"#utility.yul\":7042:7126   */\n      tag_194\n        /* \"#utility.yul\":7121:7125   */\n      dup6\n        /* \"#utility.yul\":7106:7119   */\n      dup3\n        /* \"#utility.yul\":7042:7126   */\n      tag_98\n      jump\t// in\n    tag_194:\n        /* \"#utility.yul\":7034:7126   */\n      swap5\n      pop\n        /* \"#utility.yul\":7149:7219   */\n      tag_195\n        /* \"#utility.yul\":7212:7218   */\n      dup4\n        /* \"#utility.yul\":7149:7219   */\n      tag_99\n      jump\t// in\n    tag_195:\n        /* \"#utility.yul\":7139:7219   */\n      swap3\n      pop\n        /* \"#utility.yul\":7248:7252   */\n      0x20\n        /* \"#utility.yul\":7243:7246   */\n      dup11\n        /* \"#utility.yul\":7239:7253   */\n      add\n        /* \"#utility.yul\":7232:7253   */\n      swap10\n      pop\n        /* \"#utility.yul\":6927:7263   */\n      pop\n        /* \"#utility.yul\":6914:6915   */\n      0x01\n        /* \"#utility.yul\":6911:6912   */\n      dup2\n        /* \"#utility.yul\":6907:6916   */\n      add\n        /* \"#utility.yul\":6902:6916   */\n      swap1\n      pop\n        /* \"#utility.yul\":6867:7263   */\n      jump(tag_191)\n    tag_193:\n        /* \"#utility.yul\":6871:6885   */\n      pop\n        /* \"#utility.yul\":7279:7283   */\n      dup3\n        /* \"#utility.yul\":7272:7283   */\n      swap8\n      pop\n        /* \"#utility.yul\":7299:7302   */\n      dup8\n        /* \"#utility.yul\":7292:7302   */\n      swap6\n      pop\n        /* \"#utility.yul\":6461:7308   */\n      pop\n      pop\n      pop\n      pop\n      pop\n        /* \"#utility.yul\":6317:7308   */\n      swap3\n      swap2\n      pop\n      pop\n      jump\t// out\n        /* \"#utility.yul\":7314:7727   */\n    tag_21:\n        /* \"#utility.yul\":7477:7481   */\n      0x00\n        /* \"#utility.yul\":7515:7517   */\n      0x20\n        /* \"#utility.yul\":7504:7513   */\n      dup3\n        /* \"#utility.yul\":7500:7518   */\n      add\n        /* \"#utility.yul\":7492:7518   */\n      swap1\n      pop\n        /* \"#utility.yul\":7564:7573   */\n      dup2\n        /* \"#utility.yul\":7558:7562   */\n      dup2\n        /* \"#utility.yul\":7554:7574   */\n      sub\n        /* \"#utility.yul\":7550:7551   */\n      0x00\n        /* \"#utility.yul\":7539:7548   */\n      dup4\n        /* \"#utility.yul\":7535:7552   */\n      add\n        /* \"#utility.yul\":7528:7575   */\n      mstore\n        /* \"#utility.yul\":7592:7720   */\n      tag_197\n        /* \"#utility.yul\":7715:7719   */\n      dup2\n        /* \"#utility.yul\":7706:7712   */\n      dup5\n        /* \"#utility.yul\":7592:7720   */\n      tag_100\n      jump\t// in\n    tag_197:\n        /* \"#utility.yul\":7584:7720   */\n      swap1\n      pop\n        /* \"#utility.yul\":7314:7727   */\n      swap3\n      swap2\n      pop\n      pop\n      jump\t// out\n        /* \"#utility.yul\":7733:7810   */\n    tag_101:\n        /* \"#utility.yul\":7770:7777   */\n      0x00\n        /* \"#utility.yul\":7799:7804   */\n      dup2\n        /* \"#utility.yul\":7788:7804   */\n      swap1\n      pop\n        /* \"#utility.yul\":7733:7810   */\n      swap2\n      swap1\n      pop\n      jump\t// out\n        /* \"#utility.yul\":7816:7938   */\n    tag_102:\n        /* \"#utility.yul\":7889:7913   */\n      tag_200\n        /* \"#utility.yul\":7907:7912   */\n      dup2\n        /* \"#utility.yul\":7889:7913   */\n      tag_101\n      jump\t// in\n    tag_200:\n        /* \"#utility.yul\":7882:7887   */\n      dup2\n        /* \"#utility.yul\":7879:7914   */\n      eq\n        /* \"#utility.yul\":7869:7932   */\n      tag_201\n      jumpi\n        /* \"#utility.yul\":7928:7929   */\n      0x00\n        /* \"#utility.yul\":7925:7926   */\n      dup1\n        /* \"#utility.yul\":7918:7930   */\n      revert\n        /* \"#utility.yul\":7869:7932   */\n    tag_201:\n        /* \"#utility.yul\":7816:7938   */\n      pop\n      jump\t// out\n        /* \"#utility.yul\":7944:8083   */\n    tag_103:\n        /* \"#utility.yul\":7990:7995   */\n      0x00\n        /* \"#utility.yul\":8028:8034   */\n      dup2\n        /* \"#utility.yul\":8015:8035   */\n      calldataload\n        /* \"#utility.yul\":8006:8035   */\n      swap1\n      pop\n        /* \"#utility.yul\":8044:8077   */\n      tag_203\n        /* \"#utility.yul\":8071:8076   */\n      dup2\n        /* \"#utility.yul\":8044:8077   */\n      tag_102\n      jump\t// in\n    tag_203:\n        /* \"#utility.yul\":7944:8083   */\n      swap3\n      swap2\n      pop\n      pop\n      jump\t// out\n        /* \"#utility.yul\":8089:8418   */\n    tag_24:\n        /* \"#utility.yul\":8148:8154   */\n      0x00\n        /* \"#utility.yul\":8197:8199   */\n      0x20\n        /* \"#utility.yul\":8185:8194   */\n      dup3\n        /* \"#utility.yul\":8176:8183   */\n      dup5\n        /* \"#utility.yul\":8172:8195   */\n      sub\n        /* \"#utility.yul\":8168:8200   */\n      slt\n        /* \"#utility.yul\":8165:8284   */\n      iszero\n      tag_205\n      jumpi\n        /* \"#utility.yul\":8203:8282   */\n      tag_206\n      tag_77\n      jump\t// in\n    tag_206:\n        /* \"#utility.yul\":8165:8284   */\n    tag_205:\n        /* \"#utility.yul\":8323:8324   */\n      0x00\n        /* \"#utility.yul\":8348:8401   */\n      tag_207\n        /* \"#utility.yul\":8393:8400   */\n      dup5\n        /* \"#utility.yul\":8384:8390   */\n      dup3\n        /* \"#utility.yul\":8373:8382   */\n      dup6\n        /* \"#utility.yul\":8369:8391   */\n      add\n        /* \"#utility.yul\":8348:8401   */\n      tag_103\n      jump\t// in\n    tag_207:\n        /* \"#utility.yul\":8338:8401   */\n      swap2\n      pop\n        /* \"#utility.yul\":8294:8411   */\n      pop\n        /* \"#utility.yul\":8089:8418   */\n      swap3\n      swap2\n      pop\n      pop\n      jump\t// out\n        /* \"#utility.yul\":8424:8604   */\n    tag_104:\n        /* \"#utility.yul\":8472:8549   */\n      0x4e487b7100000000000000000000000000000000000000000000000000000000\n        /* \"#utility.yul\":8469:8470   */\n      0x00\n        /* \"#utility.yul\":8462:8550   */\n      mstore\n        /* \"#utility.yul\":8569:8573   */\n      0x22\n        /* \"#utility.yul\":8566:8567   */\n      0x04\n        /* \"#utility.yul\":8559:8574   */\n      mstore\n        /* \"#utility.yul\":8593:8597   */\n      0x24\n        /* \"#utility.yul\":8590:8591   */\n      0x00\n        /* \"#utility.yul\":8583:8598   */\n      revert\n        /* \"#utility.yul\":8610:8930   */\n    tag_41:\n        /* \"#utility.yul\":8654:8660   */\n      0x00\n        /* \"#utility.yul\":8691:8692   */\n      0x02\n        /* \"#utility.yul\":8685:8689   */\n      dup3\n        /* \"#utility.yul\":8681:8693   */\n      div\n        /* \"#utility.yul\":8671:8693   */\n      swap1\n      pop\n        /* \"#utility.yul\":8738:8739   */\n      0x01\n        /* \"#utility.yul\":8732:8736   */\n      dup3\n        /* \"#utility.yul\":8728:8740   */\n      and\n        /* \"#utility.yul\":8759:8777   */\n      dup1\n        /* \"#utility.yul\":8749:8830   */\n      tag_210\n      jumpi\n        /* \"#utility.yul\":8815:8819   */\n      0x7f\n        /* \"#utility.yul\":8807:8813   */\n      dup3\n        /* \"#utility.yul\":8803:8820   */\n      and\n        /* \"#utility.yul\":8793:8820   */\n      swap2\n      pop\n        /* \"#utility.yul\":8749:8830   */\n    tag_210:\n        /* \"#utility.yul\":8877:8879   */\n      0x20\n        /* \"#utility.yul\":8869:8875   */\n      dup3\n        /* \"#utility.yul\":8866:8880   */\n      lt\n        /* \"#utility.yul\":8846:8864   */\n      dup2\n        /* \"#utility.yul\":8843:8881   */\n      sub\n        /* \"#utility.yul\":8840:8924   */\n      tag_211\n      jumpi\n        /* \"#utility.yul\":8896:8914   */\n      tag_212\n      tag_104\n      jump\t// in\n    tag_212:\n        /* \"#utility.yul\":8840:8924   */\n    tag_211:\n        /* \"#utility.yul\":8661:8930   */\n      pop\n        /* \"#utility.yul\":8610:8930   */\n      swap2\n      swap1\n      pop\n      jump\t// out\n        /* \"#utility.yul\":8936:9077   */\n    tag_105:\n        /* \"#utility.yul\":8985:8989   */\n      0x00\n        /* \"#utility.yul\":9008:9011   */\n      dup2\n        /* \"#utility.yul\":9000:9011   */\n      swap1\n      pop\n        /* \"#utility.yul\":9031:9034   */\n      dup2\n        /* \"#utility.yul\":9028:9029   */\n      0x00\n        /* \"#utility.yul\":9021:9035   */\n      mstore\n        /* \"#utility.yul\":9065:9069   */\n      0x20\n        /* \"#utility.yul\":9062:9063   */\n      0x00\n        /* \"#utility.yul\":9052:9070   */\n      keccak256\n        /* \"#utility.yul\":9044:9070   */\n      swap1\n      pop\n        /* \"#utility.yul\":8936:9077   */\n      swap2\n      swap1\n      pop\n      jump\t// out\n        /* \"#utility.yul\":9083:9176   */\n    tag_106:\n        /* \"#utility.yul\":9120:9126   */\n      0x00\n        /* \"#utility.yul\":9167:9169   */\n      0x20\n        /* \"#utility.yul\":9162:9164   */\n      0x1f\n        /* \"#utility.yul\":9155:9160   */\n      dup4\n        /* \"#utility.yul\":9151:9165   */\n      add\n        /* \"#utility.yul\":9147:9170   */\n      div\n        /* \"#utility.yul\":9137:9170   */\n      swap1\n      pop\n        /* \"#utility.yul\":9083:9176   */\n      swap2\n      swap1\n      pop\n      jump\t// out\n        /* \"#utility.yul\":9182:9289   */\n    tag_107:\n        /* \"#utility.yul\":9226:9234   */\n      0x00\n        /* \"#utility.yul\":9276:9281   */\n      dup3\n        /* \"#utility.yul\":9270:9274   */\n      dup3\n        /* \"#utility.yul\":9266:9282   */\n      shl\n        /* \"#utility.yul\":9245:9282   */\n      swap1\n      pop\n        /* \"#utility.yul\":9182:9289   */\n      swap3\n      swap2\n      pop\n      pop\n      jump\t// out\n        /* \"#utility.yul\":9295:9688   */\n    tag_108:\n        /* \"#utility.yul\":9364:9370   */\n      0x00\n        /* \"#utility.yul\":9414:9415   */\n      0x08\n        /* \"#utility.yul\":9402:9412   */\n      dup4\n        /* \"#utility.yul\":9398:9416   */\n      mul\n        /* \"#utility.yul\":9437:9534   */\n      tag_217\n        /* \"#utility.yul\":9467:9533   */\n      0xffffffffffffffffffffffffffffffffffffffffffffffffffffffffffffffff\n        /* \"#utility.yul\":9456:9465   */\n      dup3\n        /* \"#utility.yul\":9437:9534   */\n      tag_107\n      jump\t// in\n    tag_217:\n        /* \"#utility.yul\":9555:9594   */\n      tag_218\n        /* \"#utility.yul\":9585:9593   */\n      dup7\n        /* \"#utility.yul\":9574:9583   */\n      dup4\n        /* \"#utility.yul\":9555:9594   */\n      tag_107\n      jump\t// in\n    tag_218:\n        /* \"#utility.yul\":9543:9594   */\n      swap6\n      pop\n        /* \"#utility.yul\":9627:9631   */\n      dup1\n        /* \"#utility.yul\":9623:9632   */\n      not\n        /* \"#utility.yul\":9616:9621   */\n      dup5\n        /* \"#utility.yul\":9612:9633   */\n      and\n        /* \"#utility.yul\":9603:9633   */\n      swap4\n      pop\n        /* \"#utility.yul\":9676:9680   */\n      dup1\n        /* \"#utility.yul\":9666:9674   */\n      dup7\n        /* \"#utility.yul\":9662:9681   */\n      and\n        /* \"#utility.yul\":9655:9660   */\n      dup5\n        /* \"#utility.yul\":9652:9682   */\n      or\n        /* \"#utility.yul\":9642:9682   */\n      swap3\n      pop\n        /* \"#utility.yul\":9371:9688   */\n      pop\n      pop\n        /* \"#utility.yul\":9295:9688   */\n      swap4\n      swap3\n      pop\n      pop\n      pop\n      jump\t// out\n        /* \"#utility.yul\":9694:9754   */\n    tag_109:\n        /* \"#utility.yul\":9722:9725   */\n      0x00\n        /* \"#utility.yul\":9743:9748   */\n      dup2\n        /* \"#utility.yul\":9736:9748   */\n      swap1\n      pop\n        /* \"#utility.yul\":9694:9754   */\n      swap2\n      swap1\n      pop\n      jump\t// out\n        /* \"#utility.yul\":9760:9902   */\n    tag_110:\n        /* \"#utility.yul\":9810:9819   */\n      0x00\n        /* \"#utility.yul\":9843:9896   */\n      tag_221\n        /* \"#utility.yul\":9861:9895   */\n      tag_222\n        /* \"#utility.yul\":9870:9894   */\n      tag_223\n        /* \"#utility.yul\":9888:9893   */\n      dup5\n        /* \"#utility.yul\":9870:9894   */\n      tag_101\n      jump\t// in\n    tag_223:\n        /* \"#utility.yul\":9861:9895   */\n      tag_109\n      jump\t// in\n    tag_222:\n        /* \"#utility.yul\":9843:9896   */\n      tag_101\n      jump\t// in\n    tag_221:\n        /* \"#utility.yul\":9830:9896   */\n      swap1\n      pop\n        /* \"#utility.yul\":9760:9902   */\n      swap2\n      swap1\n      pop\n      jump\t// out\n        /* \"#utility.yul\":9908:9983   */\n    tag_111:\n        /* \"#utility.yul\":9951:9954   */\n      0x00\n        /* \"#utility.yul\":9972:9977   */\n      dup2\n        /* \"#utility.yul\":9965:9977   */\n      swap1\n      pop\n        /* \"#utility.yul\":9908:9983   */\n      swap2\n      swap1\n      pop\n      jump\t// out\n        /* \"#utility.yul\":9989:10258   */\n    tag_112:\n        /* \"#utility.yul\":10099:10138   */\n      tag_226\n        /* \"#utility.yul\":10130:10137   */\n      dup4\n        /* \"#utility.yul\":10099:10138   */\n      tag_110\n      jump\t// in\n    tag_226:\n        /* \"#utility.yul\":10160:10251   */\n      tag_227\n        /* \"#utility.yul\":10209:10250   */\n      tag_228\n        /* \"#utility.yul\":10233:10249   */\n      dup3\n        /* \"#utility.yul\":10209:10250   */\n      tag_111\n      jump\t// in\n    tag_228:\n        /* \"#utility.yul\":10201:10207   */\n      dup5\n        /* \"#utility.yul\":10194:10198   */\n      dup5\n        /* \"#utility.yul\":10188:10199   */\n      sload\n        /* \"#utility.yul\":10160:10251   */\n      tag_108\n      jump\t// in\n    tag_227:\n        /* \"#utility.yul\":10154:10158   */\n      dup3\n        /* \"#utility.yul\":10147:10252   */\n      sstore\n        /* \"#utility.yul\":10065:10258   */\n      pop\n        /* \"#utility.yul\":9989:10258   */\n      pop\n      pop\n      pop\n      jump\t// out\n        /* \"#utility.yul\":10264:10337   */\n    tag_113:\n        /* \"#utility.yul\":10309:10312   */\n      0x00\n        /* \"#utility.yul\":10264:10337   */\n      swap1\n      jump\t// out\n        /* \"#utility.yul\":10343:10532   */\n    tag_114:\n        /* \"#utility.yul\":10420:10452   */\n      tag_231\n      tag_113\n      jump\t// in\n    tag_231:\n        /* \"#utility.yul\":10461:10526   */\n      tag_232\n        /* \"#utility.yul\":10519:10525   */\n      dup2\n        /* \"#utility.yul\":10511:10517   */\n      dup5\n        /* \"#utility.yul\":10505:10509   */\n      dup5\n        /* \"#utility.yul\":10461:10526   */\n      tag_112\n      jump\t// in\n    tag_232:\n        /* \"#utility.yul\":10396:10532   */\n      pop\n        /* \"#utility.yul\":10343:10532   */\n      pop\n      pop\n      jump\t// out\n        /* \"#utility.yul\":10538:10724   */\n    tag_115:\n        /* \"#utility.yul\":10598:10718   */\n    tag_234:\n        /* \"#utility.yul\":10615:10618   */\n      dup2\n        /* \"#utility.yul\":10608:10613   */\n      dup2\n        /* \"#utility.yul\":10605:10619   */\n      lt\n        /* \"#utility.yul\":10598:10718   */\n      iszero\n      tag_236\n      jumpi\n        /* \"#utility.yul\":10669:10708   */\n      tag_237\n        /* \"#utility.yul\":10706:10707   */\n      0x00\n        /* \"#utility.yul\":10699:10704   */\n      dup3\n        /* \"#utility.yul\":10669:10708   */\n      tag_114\n      jump\t// in\n    tag_237:\n        /* \"#utility.yul\":10642:10643   */\n      0x01\n        /* \"#utility.yul\":10635:10640   */\n      dup2\n        /* \"#utility.yul\":10631:10644   */\n      add\n        /* \"#utility.yul\":10622:10644   */\n      swap1\n      pop\n        /* \"#utility.yul\":10598:10718   */\n      jump(tag_234)\n    tag_236:\n        /* \"#utility.yul\":10538:10724   */\n      pop\n      pop\n      jump\t// out\n        /* \"#utility.yul\":10730:11273   */\n    tag_116:\n        /* \"#utility.yul\":10831:10833   */\n      0x1f\n        /* \"#utility.yul\":10826:10829   */\n      dup3\n        /* \"#utility.yul\":10823:10834   */\n      gt\n        /* \"#utility.yul\":10820:11266   */\n      iszero\n      tag_239\n      jumpi\n        /* \"#utility.yul\":10865:10903   */\n      tag_240\n        /* \"#utility.yul\":10897:10902   */\n      dup2\n        /* \"#utility.yul\":10865:10903   */\n      tag_105\n      jump\t// in\n    tag_240:\n        /* \"#utility.yul\":10949:10978   */\n      tag_241\n        /* \"#utility.yul\":10967:10977   */\n      dup5\n        /* \"#utility.yul\":10949:10978   */\n      tag_106\n      jump\t// in\n    tag_241:\n        /* \"#utility.yul\":10939:10947   */\n      dup2\n        /* \"#utility.yul\":10935:10979   */\n      add\n        /* \"#utility.yul\":11132:11134   */\n      0x20\n        /* \"#utility.yul\":11120:11130   */\n      dup6\n        /* \"#utility.yul\":11117:11135   */\n      lt\n        /* \"#utility.yul\":11114:11163   */\n      iszero\n      tag_242\n      jumpi\n        /* \"#utility.yul\":11153:11161   */\n      dup2\n        /* \"#utility.yul\":11138:11161   */\n      swap1\n      pop\n        /* \"#utility.yul\":11114:11163   */\n    tag_242:\n        /* \"#utility.yul\":11176:11256   */\n      tag_243\n        /* \"#utility.yul\":11232:11254   */\n      tag_244\n        /* \"#utility.yul\":11250:11253   */\n      dup6\n        /* \"#utility.yul\":11232:11254   */\n      tag_106\n      jump\t// in\n    tag_244:\n        /* \"#utility.yul\":11222:11230   */\n      dup4\n        /* \"#utility.yul\":11218:11255   */\n      add\n        /* \"#utility.yul\":11205:11216   */\n      dup3\n        /* \"#utility.yul\":11176:11256   */\n      tag_115\n      jump\t// in\n    tag_243:\n        /* \"#utility.yul\":10835:11266   */\n      pop\n      pop\n        /* \"#utility.yul\":10820:11266   */\n    tag_239:\n        /* \"#utility.yul\":10730:11273   */\n      pop\n      pop\n      pop\n      jump\t// out\n        /* \"#utility.yul\":11279:11396   */\n    tag_117:\n        /* \"#utility.yul\":11333:11341   */\n      0x00\n        /* \"#utility.yul\":11383:11388   */\n      dup3\n        /* \"#utility.yul\":11377:11381   */\n      dup3\n        /* \"#utility.yul\":11373:11389   */\n      shr\n        /* \"#utility.yul\":11352:11389   */\n      swap1\n      pop\n        /* \"#utility.yul\":11279:11396   */\n      swap3\n      swap2\n      pop\n      pop\n      jump\t// out\n        /* \"#utility.yul\":11402:11571   */\n    tag_118:\n        /* \"#utility.yul\":11446:11452   */\n      0x00\n        /* \"#utility.yul\":11479:11530   */\n      tag_247\n        /* \"#utility.yul\":11527:11528   */\n      0x00\n        /* \"#utility.yul\":11523:11529   */\n      not\n        /* \"#utility.yul\":11515:11520   */\n      dup5\n        /* \"#utility.yul\":11512:11513   */\n      0x08\n        /* \"#utility.yul\":11508:11521   */\n      mul\n        /* \"#utility.yul\":11479:11530   */\n      tag_117\n      jump\t// in\n    tag_247:\n        /* \"#utility.yul\":11475:11531   */\n      not\n        /* \"#utility.yul\":11560:11564   */\n      dup1\n        /* \"#utility.yul\":11554:11558   */\n      dup4\n        /* \"#utility.yul\":11550:11565   */\n      and\n        /* \"#utility.yul\":11540:11565   */\n      swap2\n      pop\n        /* \"#utility.yul\":11453:11571   */\n      pop\n        /* \"#utility.yul\":11402:11571   */\n      swap3\n      swap2\n      pop\n      pop\n      jump\t// out\n        /* \"#utility.yul\":11576:11871   */\n    tag_119:\n        /* \"#utility.yul\":11652:11656   */\n      0x00\n        /* \"#utility.yul\":11798:11827   */\n      tag_249\n        /* \"#utility.yul\":11823:11826   */\n      dup4\n        /* \"#utility.yul\":11817:11821   */\n      dup4\n        /* \"#utility.yul\":11798:11827   */\n      tag_118\n      jump\t// in\n    tag_249:\n        /* \"#utility.yul\":11790:11827   */\n      swap2\n      pop\n        /* \"#utility.yul\":11860:11863   */\n      dup3\n        /* \"#utility.yul\":11857:11858   */\n      0x02\n        /* \"#utility.yul\":11853:11864   */\n      mul\n        /* \"#utility.yul\":11847:11851   */\n      dup3\n        /* \"#utility.yul\":11844:11865   */\n      or\n        /* \"#utility.yul\":11836:11865   */\n      swap1\n      pop\n        /* \"#utility.yul\":11576:11871   */\n      swap3\n      swap2\n      pop\n      pop\n      jump\t// out\n        /* \"#utility.yul\":11876:13271   */\n    tag_30:\n        /* \"#utility.yul\":11993:12030   */\n      tag_251\n        /* \"#utility.yul\":12026:12029   */\n      dup3\n        /* \"#utility.yul\":11993:12030   */\n      tag_89\n      jump\t// in\n    tag_251:\n        /* \"#utility.yul\":12095:12113   */\n      0xffffffffffffffff\n        /* \"#utility.yul\":12087:12093   */\n      dup2\n        /* \"#utility.yul\":12084:12114   */\n      gt\n        /* \"#utility.yul\":12081:12137   */\n      iszero\n      tag_252\n      jumpi\n        /* \"#utility.yul\":12117:12135   */\n      tag_253\n      tag_82\n      jump\t// in\n    tag_253:\n        /* \"#utility.yul\":12081:12137   */\n    tag_252:\n        /* \"#utility.yul\":12161:12199   */\n      tag_254\n        /* \"#utility.yul\":12193:12197   */\n      dup3\n        /* \"#utility.yul\":12187:12198   */\n      sload\n        /* \"#utility.yul\":12161:12199   */\n      tag_41\n      jump\t// in\n    tag_254:\n        /* \"#utility.yul\":12246:12313   */\n      tag_255\n        /* \"#utility.yul\":12306:12312   */\n      dup3\n        /* \"#utility.yul\":12298:12304   */\n      dup3\n        /* \"#utility.yul\":12292:12296   */\n      dup6\n        /* \"#utility.yul\":12246:12313   */\n      tag_116\n      jump\t// in\n    tag_255:\n        /* \"#utility.yul\":12340:12341   */\n      0x00\n        /* \"#utility.yul\":12364:12368   */\n      0x20\n        /* \"#utility.yul\":12351:12368   */\n      swap1\n      pop\n        /* \"#utility.yul\":12396:12398   */\n      0x1f\n        /* \"#utility.yul\":12388:12394   */\n      dup4\n        /* \"#utility.yul\":12385:12399   */\n      gt\n        /* \"#utility.yul\":12413:12414   */\n      0x01\n        /* \"#utility.yul\":12408:13026   */\n      dup2\n      eq\n      tag_257\n      jumpi\n        /* \"#utility.yul\":13070:13071   */\n      0x00\n        /* \"#utility.yul\":13087:13093   */\n      dup5\n        /* \"#utility.yul\":13084:13161   */\n      iszero\n      tag_258\n      jumpi\n        /* \"#utility.yul\":13136:13145   */\n      dup3\n        /* \"#utility.yul\":13131:13134   */\n      dup8\n        /* \"#utility.yul\":13127:13146   */\n      add\n        /* \"#utility.yul\":13121:13147   */\n      mload\n        /* \"#utility.yul\":13112:13147   */\n      swap1\n      pop\n        /* \"#utility.yul\":13084:13161   */\n    tag_258:\n        /* \"#utility.yul\":13187:13254   */\n      tag_259\n        /* \"#utility.yul\":13247:13253   */\n      dup6\n        /* \"#utility.yul\":13240:13245   */\n      dup3\n        /* \"#utility.yul\":13187:13254   */\n      tag_119\n      jump\t// in\n    tag_259:\n        /* \"#utility.yul\":13181:13185   */\n      dup7\n        /* \"#utility.yul\":13174:13255   */\n      sstore\n        /* \"#utility.yul\":13043:13265   */\n      pop\n        /* \"#utility.yul\":12378:13265   */\n      jump(tag_256)\n        /* \"#utility.yul\":12408:13026   */\n    tag_257:\n        /* \"#utility.yul\":12460:12464   */\n      0x1f\n        /* \"#utility.yul\":12456:12465   */\n      not\n        /* \"#utility.yul\":12448:12454   */\n      dup5\n        /* \"#utility.yul\":12444:12466   */\n      and\n        /* \"#utility.yul\":12494:12531   */\n      tag_260\n        /* \"#utility.yul\":12526:12530   */\n      dup7\n        /* \"#utility.yul\":12494:12531   */\n      tag_105\n      jump\t// in\n    tag_260:\n        /* \"#utility.yul\":12553:12554   */\n      0x00\n        /* \"#utility.yul\":12567:12775   */\n    tag_261:\n        /* \"#utility.yul\":12581:12588   */\n      dup3\n        /* \"#utility.yul\":12578:12579   */\n      dup2\n        /* \"#utility.yul\":12575:12589   */\n      lt\n        /* \"#utility.yul\":12567:12775   */\n      iszero\n      tag_263\n      jumpi\n        /* \"#utility.yul\":12660:12669   */\n      dup5\n        /* \"#utility.yul\":12655:12658   */\n      dup10\n        /* \"#utility.yul\":12651:12670   */\n      add\n        /* \"#utility.yul\":12645:12671   */\n      mload\n        /* \"#utility.yul\":12637:12643   */\n      dup3\n        /* \"#utility.yul\":12630:12672   */\n      sstore\n        /* \"#utility.yul\":12711:12712   */\n      0x01\n        /* \"#utility.yul\":12703:12709   */\n      dup3\n        /* \"#utility.yul\":12699:12713   */\n      add\n        /* \"#utility.yul\":12689:12713   */\n      swap2\n      pop\n        /* \"#utility.yul\":12758:12760   */\n      0x20\n        /* \"#utility.yul\":12747:12756   */\n      dup6\n        /* \"#utility.yul\":12743:12761   */\n      add\n        /* \"#utility.yul\":12730:12761   */\n      swap5\n      pop\n        /* \"#utility.yul\":12604:12608   */\n      0x20\n        /* \"#utility.yul\":12601:12602   */\n      dup2\n        /* \"#utility.yul\":12597:12609   */\n      add\n        /* \"#utility.yul\":12592:12609   */\n      swap1\n      pop\n        /* \"#utility.yul\":12567:12775   */\n      jump(tag_261)\n    tag_263:\n        /* \"#utility.yul\":12803:12809   */\n      dup7\n        /* \"#utility.yul\":12794:12801   */\n      dup4\n        /* \"#utility.yul\":12791:12810   */\n      lt\n        /* \"#utility.yul\":12788:12967   */\n      iszero\n      tag_264\n      jumpi\n        /* \"#utility.yul\":12861:12870   */\n      dup5\n        /* \"#utility.yul\":12856:12859   */\n      dup10\n        /* \"#utility.yul\":12852:12871   */\n      add\n        /* \"#utility.yul\":12846:12872   */\n      mload\n        /* \"#utility.yul\":12904:12952   */\n      tag_265\n        /* \"#utility.yul\":12946:12950   */\n      0x1f\n        /* \"#utility.yul\":12938:12944   */\n      dup10\n        /* \"#utility.yul\":12934:12951   */\n      and\n        /* \"#utility.yul\":12923:12932   */\n      dup3\n        /* \"#utility.yul\":12904:12952   */\n      tag_118\n      jump\t// in\n    tag_265:\n        /* \"#utility.yul\":12896:12902   */\n      dup4\n        /* \"#utility.yul\":12889:12953   */\n      sstore\n        /* \"#utility.yul\":12811:12967   */\n      pop\n        /* \"#utility.yul\":12788:12967   */\n    tag_264:\n        /* \"#utility.yul\":13013:13014   */\n      0x01\n        /* \"#utility.yul\":13009:13010   */\n      0x02\n        /* \"#utility.yul\":13001:13007   */\n      dup9\n        /* \"#utility.yul\":12997:13011   */\n      mul\n        /* \"#utility.yul\":12993:13015   */\n      add\n        /* \"#utility.yul\":12987:12991   */\n      dup9\n        /* \"#utility.yul\":12980:13016   */\n      sstore\n        /* \"#utility.yul\":12415:13026   */\n      pop\n      pop\n      pop\n        /* \"#utility.yul\":12378:13265   */\n    tag_256:\n      pop\n        /* \"#utility.yul\":11968:13271   */\n      pop\n      pop\n      pop\n        /* \"#utility.yul\":11876:13271   */\n      pop\n      pop\n      jump\t// out\n        /* \"#utility.yul\":13277:13457   */\n    tag_38:\n        /* \"#utility.yul\":13325:13402   */\n      0x4e487b7100000000000000000000000000000000000000000000000000000000\n        /* \"#utility.yul\":13322:13323   */\n      0x00\n        /* \"#utility.yul\":13315:13403   */\n      mstore\n        /* \"#utility.yul\":13422:13426   */\n      0x32\n        /* \"#utility.yul\":13419:13420   */\n      0x04\n        /* \"#utility.yul\":13412:13427   */\n      mstore\n        /* \"#utility.yul\":13446:13450   */\n      0x24\n        /* \"#utility.yul\":13443:13444   */\n      0x00\n        /* \"#utility.yul\":13436:13451   */\n      revert\n        /* \"#utility.yul\":13463:13643   */\n    tag_49:\n        /* \"#utility.yul\":13511:13588   */\n      0x4e487b7100000000000000000000000000000000000000000000000000000000\n        /* \"#utility.yul\":13508:13509   */\n      0x00\n        /* \"#utility.yul\":13501:13589   */\n      mstore\n        /* \"#utility.yul\":13608:13612   */\n      0x31\n        /* \"#utility.yul\":13605:13606   */\n      0x04\n        /* \"#utility.yul\":13598:13613   */\n      mstore\n        /* \"#utility.yul\":13632:13636   */\n      0x24\n        /* \"#utility.yul\":13629:13630   */\n      0x00\n        /* \"#utility.yul\":13622:13637   */\n      revert\n\n    auxdata: 0xa26469706673582212205b21afbd46ef8ce4a6be1fb047d66a1be110a38ba2974b207856cac6f609f7bd64736f6c63430008120033\n}\n",
				"bytecode": {
					"linkReferences": {},
					"object": "608060405234801561001057600080fd5b50610bf9806100206000396000f3fe608060405234801561001057600080fd5b50600436106100575760003560e01c806311be71ec1461005c57806317d7de7c14610078578063a4ece52c14610096578063d2178b08146100a0578063edf0099b146100be575b600080fd5b610076600480360381019061007191906105ae565b6100ee565b005b610080610192565b60405161008d91906106d4565b60405180910390f35b61009e610240565b005b6100a8610272565b6040516100b59190610802565b60405180910390f35b6100d860048036038101906100d3919061085a565b61034b565b6040516100e591906106d4565b60405180910390f35b6000839080600181540180825580915050600190039060005260206000200160009091909190915090816101229190610a93565b506000829080600181540180825580915050600190039060005260206000200160009091909190915090816101579190610a93565b5060008190806001815401808255809150506001900390600052602060002001600090919091909150908161018c9190610a93565b50505050565b6060600080815481106101a8576101a7610b65565b5b9060005260206000200180546101bd906108b6565b80601f01602080910402602001604051908101604052809291908181526020018280546101e9906108b6565b80156102365780601f1061020b57610100808354040283529160200191610236565b820191906000526020600020905b81548152906001019060200180831161021957829003601f168201915b5050505050905090565b600080548061025257610251610b94565b5b60019003818190600052602060002001600061026e91906103f7565b9055565b60606000805480602002602001604051908101604052809291908181526020016000905b828210156103425783829060005260206000200180546102b5906108b6565b80601f01602080910402602001604051908101604052809291908181526020018280546102e1906108b6565b801561032e5780601f106103035761010080835404028352916020019161032e565b820191906000526020600020905b81548152906001019060200180831161031157829003601f168201915b505050505081526020019060010190610296565b50505050905090565b6000818154811061035b57600080fd5b906000526020600020016000915090508054610376906108b6565b80601f01602080910402602001604051908101604052809291908181526020018280546103a2906108b6565b80156103ef5780601f106103c4576101008083540402835291602001916103ef565b820191906000526020600020905b8154815290600101906020018083116103d257829003601f168201915b505050505081565b508054610403906108b6565b6000825580601f106104155750610434565b601f0160209004906000526020600020908101906104339190610437565b5b50565b5b80821115610450576000816000905550600101610438565b5090565b6000604051905090565b600080fd5b600080fd5b600080fd5b600080fd5b6000601f19601f8301169050919050565b7f4e487b7100000000000000000000000000000000000000000000000000000000600052604160045260246000fd5b6104bb82610472565b810181811067ffffffffffffffff821117156104da576104d9610483565b5b80604052505050565b60006104ed610454565b90506104f982826104b2565b919050565b600067ffffffffffffffff82111561051957610518610483565b5b61052282610472565b9050602081019050919050565b82818337600083830152505050565b600061055161054c846104fe565b6104e3565b90508281526020810184848401111561056d5761056c61046d565b5b61057884828561052f565b509392505050565b600082601f83011261059557610594610468565b5b81356105a584826020860161053e565b91505092915050565b6000806000606084860312156105c7576105c661045e565b5b600084013567ffffffffffffffff8111156105e5576105e4610463565b5b6105f186828701610580565b935050602084013567ffffffffffffffff81111561061257610611610463565b5b61061e86828701610580565b925050604084013567ffffffffffffffff81111561063f5761063e610463565b5b61064b86828701610580565b9150509250925092565b600081519050919050565b600082825260208201905092915050565b60005b8381101561068f578082015181840152602081019050610674565b60008484015250505050565b60006106a682610655565b6106b08185610660565b93506106c0818560208601610671565b6106c981610472565b840191505092915050565b600060208201905081810360008301526106ee818461069b565b905092915050565b600081519050919050565b600082825260208201905092915050565b6000819050602082019050919050565b600082825260208201905092915050565b600061073e82610655565b6107488185610722565b9350610758818560208601610671565b61076181610472565b840191505092915050565b60006107788383610733565b905092915050565b6000602082019050919050565b6000610798826106f6565b6107a28185610701565b9350836020820285016107b485610712565b8060005b858110156107f057848403895281516107d1858261076c565b94506107dc83610780565b925060208a019950506001810190506107b8565b50829750879550505050505092915050565b6000602082019050818103600083015261081c818461078d565b905092915050565b6000819050919050565b61083781610824565b811461084257600080fd5b50565b6000813590506108548161082e565b92915050565b6000602082840312156108705761086f61045e565b5b600061087e84828501610845565b91505092915050565b7f4e487b7100000000000000000000000000000000000000000000000000000000600052602260045260246000fd5b600060028204905060018216806108ce57607f821691505b6020821081036108e1576108e0610887565b5b50919050565b60008190508160005260206000209050919050565b60006020601f8301049050919050565b600082821b905092915050565b6000600883026109497fffffffffffffffffffffffffffffffffffffffffffffffffffffffffffffffff8261090c565b610953868361090c565b95508019841693508086168417925050509392505050565b6000819050919050565b600061099061098b61098684610824565b61096b565b610824565b9050919050565b6000819050919050565b6109aa83610975565b6109be6109b682610997565b848454610919565b825550505050565b600090565b6109d36109c6565b6109de8184846109a1565b505050565b5b81811015610a02576109f76000826109cb565b6001810190506109e4565b5050565b601f821115610a4757610a18816108e7565b610a21846108fc565b81016020851015610a30578190505b610a44610a3c856108fc565b8301826109e3565b50505b505050565b600082821c905092915050565b6000610a6a60001984600802610a4c565b1980831691505092915050565b6000610a838383610a59565b9150826002028217905092915050565b610a9c82610655565b67ffffffffffffffff811115610ab557610ab4610483565b5b610abf82546108b6565b610aca828285610a06565b600060209050601f831160018114610afd5760008415610aeb578287015190505b610af58582610a77565b865550610b5d565b601f198416610b0b866108e7565b60005b82811015610b3357848901518255600182019150602085019450602081019050610b0e565b86831015610b505784890151610b4c601f891682610a59565b8355505b6001600288020188555050505b505050505050565b7f4e487b7100000000000000000000000000000000000000000000000000000000600052603260045260246000fd5b7f4e487b7100000000000000000000000000000000000000000000000000000000600052603160045260246000fdfea26469706673582212205b21afbd46ef8ce4a6be1fb047d66a1be110a38ba2974b207856cac6f609f7bd64736f6c63430008120033",
					"opcodes": "PUSH1 0x80 PUSH1 0x40 MSTORE CALLVALUE DUP1 ISZERO PUSH2 0x10 JUMPI PUSH1 0x0 DUP1 REVERT JUMPDEST POP PUSH2 0xBF9 DUP1 PUSH2 0x20 PUSH1 0x0 CODECOPY PUSH1 0x0 RETURN INVALID PUSH1 0x80 PUSH1 0x40 MSTORE CALLVALUE DUP1 ISZERO PUSH2 0x10 JUMPI PUSH1 0x0 DUP1 REVERT JUMPDEST POP PUSH1 0x4 CALLDATASIZE LT PUSH2 0x57 JUMPI PUSH1 0x0 CALLDATALOAD PUSH1 0xE0 SHR DUP1 PUSH4 0x11BE71EC EQ PUSH2 0x5C JUMPI DUP1 PUSH4 0x17D7DE7C EQ PUSH2 0x78 JUMPI DUP1 PUSH4 0xA4ECE52C EQ PUSH2 0x96 JUMPI DUP1 PUSH4 0xD2178B08 EQ PUSH2 0xA0 JUMPI DUP1 PUSH4 0xEDF0099B EQ PUSH2 0xBE JUMPI JUMPDEST PUSH1 0x0 DUP1 REVERT JUMPDEST PUSH2 0x76 PUSH1 0x4 DUP1 CALLDATASIZE SUB DUP2 ADD SWAP1 PUSH2 0x71 SWAP2 SWAP1 PUSH2 0x5AE JUMP JUMPDEST PUSH2 0xEE JUMP JUMPDEST STOP JUMPDEST PUSH2 0x80 PUSH2 0x192 JUMP JUMPDEST PUSH1 0x40 MLOAD PUSH2 0x8D SWAP2 SWAP1 PUSH2 0x6D4 JUMP JUMPDEST PUSH1 0x40 MLOAD DUP1 SWAP2 SUB SWAP1 RETURN JUMPDEST PUSH2 0x9E PUSH2 0x240 JUMP JUMPDEST STOP JUMPDEST PUSH2 0xA8 PUSH2 0x272 JUMP JUMPDEST PUSH1 0x40 MLOAD PUSH2 0xB5 SWAP2 SWAP1 PUSH2 0x802 JUMP JUMPDEST PUSH1 0x40 MLOAD DUP1 SWAP2 SUB SWAP1 RETURN JUMPDEST PUSH2 0xD8 PUSH1 0x4 DUP1 CALLDATASIZE SUB DUP2 ADD SWAP1 PUSH2 0xD3 SWAP2 SWAP1 PUSH2 0x85A JUMP JUMPDEST PUSH2 0x34B JUMP JUMPDEST PUSH1 0x40 MLOAD PUSH2 0xE5 SWAP2 SWAP1 PUSH2 0x6D4 JUMP JUMPDEST PUSH1 0x40 MLOAD DUP1 SWAP2 SUB SWAP1 RETURN JUMPDEST PUSH1 0x0 DUP4 SWAP1 DUP1 PUSH1 0x1 DUP2 SLOAD ADD DUP1 DUP3 SSTORE DUP1 SWAP2 POP POP PUSH1 0x1 SWAP1 SUB SWAP1 PUSH1 0x0 MSTORE PUSH1 0x20 PUSH1 0x0 KECCAK256 ADD PUSH1 0x0 SWAP1 SWAP2 SWAP1 SWAP2 SWAP1 SWAP2 POP SWAP1 DUP2 PUSH2 0x122 SWAP2 SWAP1 PUSH2 0xA93 JUMP JUMPDEST POP PUSH1 0x0 DUP3 SWAP1 DUP1 PUSH1 0x1 DUP2 SLOAD ADD DUP1 DUP3 SSTORE DUP1 SWAP2 POP POP PUSH1 0x1 SWAP1 SUB SWAP1 PUSH1 0x0 MSTORE PUSH1 0x20 PUSH1 0x0 KECCAK256 ADD PUSH1 0x0 SWAP1 SWAP2 SWAP1 SWAP2 SWAP1 SWAP2 POP SWAP1 DUP2 PUSH2 0x157 SWAP2 SWAP1 PUSH2 0xA93 JUMP JUMPDEST POP PUSH1 0x0 DUP2 SWAP1 DUP1 PUSH1 0x1 DUP2 SLOAD ADD DUP1 DUP3 SSTORE DUP1 SWAP2 POP POP PUSH1 0x1 SWAP1 SUB SWAP1 PUSH1 0x0 MSTORE PUSH1 0x20 PUSH1 0x0 KECCAK256 ADD PUSH1 0x0 SWAP1 SWAP2 SWAP1 SWAP2 SWAP1 SWAP2 POP SWAP1 DUP2 PUSH2 0x18C SWAP2 SWAP1 PUSH2 0xA93 JUMP JUMPDEST POP POP POP POP JUMP JUMPDEST PUSH1 0x60 PUSH1 0x0 DUP1 DUP2 SLOAD DUP2 LT PUSH2 0x1A8 JUMPI PUSH2 0x1A7 PUSH2 0xB65 JUMP JUMPDEST JUMPDEST SWAP1 PUSH1 0x0 MSTORE PUSH1 0x20 PUSH1 0x0 KECCAK256 ADD DUP1 SLOAD PUSH2 0x1BD SWAP1 PUSH2 0x8B6 JUMP JUMPDEST DUP1 PUSH1 0x1F ADD PUSH1 0x20 DUP1 SWAP2 DIV MUL PUSH1 0x20 ADD PUSH1 0x40 MLOAD SWAP1 DUP2 ADD PUSH1 0x40 MSTORE DUP1 SWAP3 SWAP2 SWAP1 DUP2 DUP2 MSTORE PUSH1 0x20 ADD DUP3 DUP1 SLOAD PUSH2 0x1E9 SWAP1 PUSH2 0x8B6 JUMP JUMPDEST DUP1 ISZERO PUSH2 0x236 JUMPI DUP1 PUSH1 0x1F LT PUSH2 0x20B JUMPI PUSH2 0x100 DUP1 DUP4 SLOAD DIV MUL DUP4 MSTORE SWAP2 PUSH1 0x20 ADD SWAP2 PUSH2 0x236 JUMP JUMPDEST DUP3 ADD SWAP2 SWAP1 PUSH1 0x0 MSTORE PUSH1 0x20 PUSH1 0x0 KECCAK256 SWAP1 JUMPDEST DUP2 SLOAD DUP2 MSTORE SWAP1 PUSH1 0x1 ADD SWAP1 PUSH1 0x20 ADD DUP1 DUP4 GT PUSH2 0x219 JUMPI DUP3 SWAP1 SUB PUSH1 0x1F AND DUP3 ADD SWAP2 JUMPDEST POP POP POP POP POP SWAP1 POP SWAP1 JUMP JUMPDEST PUSH1 0x0 DUP1 SLOAD DUP1 PUSH2 0x252 JUMPI PUSH2 0x251 PUSH2 0xB94 JUMP JUMPDEST JUMPDEST PUSH1 0x1 SWAP1 SUB DUP2 DUP2 SWAP1 PUSH1 0x0 MSTORE PUSH1 0x20 PUSH1 0x0 KECCAK256 ADD PUSH1 0x0 PUSH2 0x26E SWAP2 SWAP1 PUSH2 0x3F7 JUMP JUMPDEST SWAP1 SSTORE JUMP JUMPDEST PUSH1 0x60 PUSH1 0x0 DUP1 SLOAD DUP1 PUSH1 0x20 MUL PUSH1 0x20 ADD PUSH1 0x40 MLOAD SWAP1 DUP2 ADD PUSH1 0x40 MSTORE DUP1 SWAP3 SWAP2 SWAP1 DUP2 DUP2 MSTORE PUSH1 0x20 ADD PUSH1 0x0 SWAP1 JUMPDEST DUP3 DUP3 LT ISZERO PUSH2 0x342 JUMPI DUP4 DUP3 SWAP1 PUSH1 0x0 MSTORE PUSH1 0x20 PUSH1 0x0 KECCAK256 ADD DUP1 SLOAD PUSH2 0x2B5 SWAP1 PUSH2 0x8B6 JUMP JUMPDEST DUP1 PUSH1 0x1F ADD PUSH1 0x20 DUP1 SWAP2 DIV MUL PUSH1 0x20 ADD PUSH1 0x40 MLOAD SWAP1 DUP2 ADD PUSH1 0x40 MSTORE DUP1 SWAP3 SWAP2 SWAP1 DUP2 DUP2 MSTORE PUSH1 0x20 ADD DUP3 DUP1 SLOAD PUSH2 0x2E1 SWAP1 PUSH2 0x8B6 JUMP JUMPDEST DUP1 ISZERO PUSH2 0x32E JUMPI DUP1 PUSH1 0x1F LT PUSH2 0x303 JUMPI PUSH2 0x100 DUP1 DUP4 SLOAD DIV MUL DUP4 MSTORE SWAP2 PUSH1 0x20 ADD SWAP2 PUSH2 0x32E JUMP JUMPDEST DUP3 ADD SWAP2 SWAP1 PUSH1 0x0 MSTORE PUSH1 0x20 PUSH1 0x0 KECCAK256 SWAP1 JUMPDEST DUP2 SLOAD DUP2 MSTORE SWAP1 PUSH1 0x1 ADD SWAP1 PUSH1 0x20 ADD DUP1 DUP4 GT PUSH2 0x311 JUMPI DUP3 SWAP1 SUB PUSH1 0x1F AND DUP3 ADD SWAP2 JUMPDEST POP POP POP POP POP DUP2 MSTORE PUSH1 0x20 ADD SWAP1 PUSH1 0x1 ADD SWAP1 PUSH2 0x296 JUMP JUMPDEST POP POP POP POP SWAP1 POP SWAP1 JUMP JUMPDEST PUSH1 0x0 DUP2 DUP2 SLOAD DUP2 LT PUSH2 0x35B JUMPI PUSH1 0x0 DUP1 REVERT JUMPDEST SWAP1 PUSH1 0x0 MSTORE PUSH1 0x20 PUSH1 0x0 KECCAK256 ADD PUSH1 0x0 SWAP2 POP SWAP1 POP DUP1 SLOAD PUSH2 0x376 SWAP1 PUSH2 0x8B6 JUMP JUMPDEST DUP1 PUSH1 0x1F ADD PUSH1 0x20 DUP1 SWAP2 DIV MUL PUSH1 0x20 ADD PUSH1 0x40 MLOAD SWAP1 DUP2 ADD PUSH1 0x40 MSTORE DUP1 SWAP3 SWAP2 SWAP1 DUP2 DUP2 MSTORE PUSH1 0x20 ADD DUP3 DUP1 SLOAD PUSH2 0x3A2 SWAP1 PUSH2 0x8B6 JUMP JUMPDEST DUP1 ISZERO PUSH2 0x3EF JUMPI DUP1 PUSH1 0x1F LT PUSH2 0x3C4 JUMPI PUSH2 0x100 DUP1 DUP4 SLOAD DIV MUL DUP4 MSTORE SWAP2 PUSH1 0x20 ADD SWAP2 PUSH2 0x3EF JUMP JUMPDEST DUP3 ADD SWAP2 SWAP1 PUSH1 0x0 MSTORE PUSH1 0x20 PUSH1 0x0 KECCAK256 SWAP1 JUMPDEST DUP2 SLOAD DUP2 MSTORE SWAP1 PUSH1 0x1 ADD SWAP1 PUSH1 0x20 ADD DUP1 DUP4 GT PUSH2 0x3D2 JUMPI DUP3 SWAP1 SUB PUSH1 0x1F AND DUP3 ADD SWAP2 JUMPDEST POP POP POP POP POP DUP2 JUMP JUMPDEST POP DUP1 SLOAD PUSH2 0x403 SWAP1 PUSH2 0x8B6 JUMP JUMPDEST PUSH1 0x0 DUP3 SSTORE DUP1 PUSH1 0x1F LT PUSH2 0x415 JUMPI POP PUSH2 0x434 JUMP JUMPDEST PUSH1 0x1F ADD PUSH1 0x20 SWAP1 DIV SWAP1 PUSH1 0x0 MSTORE PUSH1 0x20 PUSH1 0x0 KECCAK256 SWAP1 DUP2 ADD SWAP1 PUSH2 0x433 SWAP2 SWAP1 PUSH2 0x437 JUMP JUMPDEST JUMPDEST POP JUMP JUMPDEST JUMPDEST DUP1 DUP3 GT ISZERO PUSH2 0x450 JUMPI PUSH1 0x0 DUP2 PUSH1 0x0 SWAP1 SSTORE POP PUSH1 0x1 ADD PUSH2 0x438 JUMP JUMPDEST POP SWAP1 JUMP JUMPDEST PUSH1 0x0 PUSH1 0x40 MLOAD SWAP1 POP SWAP1 JUMP JUMPDEST PUSH1 0x0 DUP1 REVERT JUMPDEST PUSH1 0x0 DUP1 REVERT JUMPDEST PUSH1 0x0 DUP1 REVERT JUMPDEST PUSH1 0x0 DUP1 REVERT JUMPDEST PUSH1 0x0 PUSH1 0x1F NOT PUSH1 0x1F DUP4 ADD AND SWAP1 POP SWAP2 SWAP1 POP JUMP JUMPDEST PUSH32 0x4E487B7100000000000000000000000000000000000000000000000000000000 PUSH1 0x0 MSTORE PUSH1 0x41 PUSH1 0x4 MSTORE PUSH1 0x24 PUSH1 0x0 REVERT JUMPDEST PUSH2 0x4BB DUP3 PUSH2 0x472 JUMP JUMPDEST DUP2 ADD DUP2 DUP2 LT PUSH8 0xFFFFFFFFFFFFFFFF DUP3 GT OR ISZERO PUSH2 0x4DA JUMPI PUSH2 0x4D9 PUSH2 0x483 JUMP JUMPDEST JUMPDEST DUP1 PUSH1 0x40 MSTORE POP POP POP JUMP JUMPDEST PUSH1 0x0 PUSH2 0x4ED PUSH2 0x454 JUMP JUMPDEST SWAP1 POP PUSH2 0x4F9 DUP3 DUP3 PUSH2 0x4B2 JUMP JUMPDEST SWAP2 SWAP1 POP JUMP JUMPDEST PUSH1 0x0 PUSH8 0xFFFFFFFFFFFFFFFF DUP3 GT ISZERO PUSH2 0x519 JUMPI PUSH2 0x518 PUSH2 0x483 JUMP JUMPDEST JUMPDEST PUSH2 0x522 DUP3 PUSH2 0x472 JUMP JUMPDEST SWAP1 POP PUSH1 0x20 DUP2 ADD SWAP1 POP SWAP2 SWAP1 POP JUMP JUMPDEST DUP3 DUP2 DUP4 CALLDATACOPY PUSH1 0x0 DUP4 DUP4 ADD MSTORE POP POP POP JUMP JUMPDEST PUSH1 0x0 PUSH2 0x551 PUSH2 0x54C DUP5 PUSH2 0x4FE JUMP JUMPDEST PUSH2 0x4E3 JUMP JUMPDEST SWAP1 POP DUP3 DUP2 MSTORE PUSH1 0x20 DUP2 ADD DUP5 DUP5 DUP5 ADD GT ISZERO PUSH2 0x56D JUMPI PUSH2 0x56C PUSH2 0x46D JUMP JUMPDEST JUMPDEST PUSH2 0x578 DUP5 DUP3 DUP6 PUSH2 0x52F JUMP JUMPDEST POP SWAP4 SWAP3 POP POP POP JUMP JUMPDEST PUSH1 0x0 DUP3 PUSH1 0x1F DUP4 ADD SLT PUSH2 0x595 JUMPI PUSH2 0x594 PUSH2 0x468 JUMP JUMPDEST JUMPDEST DUP2 CALLDATALOAD PUSH2 0x5A5 DUP5 DUP3 PUSH1 0x20 DUP7 ADD PUSH2 0x53E JUMP JUMPDEST SWAP2 POP POP SWAP3 SWAP2 POP POP JUMP JUMPDEST PUSH1 0x0 DUP1 PUSH1 0x0 PUSH1 0x60 DUP5 DUP7 SUB SLT ISZERO PUSH2 0x5C7 JUMPI PUSH2 0x5C6 PUSH2 0x45E JUMP JUMPDEST JUMPDEST PUSH1 0x0 DUP5 ADD CALLDATALOAD PUSH8 0xFFFFFFFFFFFFFFFF DUP2 GT ISZERO PUSH2 0x5E5 JUMPI PUSH2 0x5E4 PUSH2 0x463 JUMP JUMPDEST JUMPDEST PUSH2 0x5F1 DUP7 DUP3 DUP8 ADD PUSH2 0x580 JUMP JUMPDEST SWAP4 POP POP PUSH1 0x20 DUP5 ADD CALLDATALOAD PUSH8 0xFFFFFFFFFFFFFFFF DUP2 GT ISZERO PUSH2 0x612 JUMPI PUSH2 0x611 PUSH2 0x463 JUMP JUMPDEST JUMPDEST PUSH2 0x61E DUP7 DUP3 DUP8 ADD PUSH2 0x580 JUMP JUMPDEST SWAP3 POP POP PUSH1 0x40 DUP5 ADD CALLDATALOAD PUSH8 0xFFFFFFFFFFFFFFFF DUP2 GT ISZERO PUSH2 0x63F JUMPI PUSH2 0x63E PUSH2 0x463 JUMP JUMPDEST JUMPDEST PUSH2 0x64B DUP7 DUP3 DUP8 ADD PUSH2 0x580 JUMP JUMPDEST SWAP2 POP POP SWAP3 POP SWAP3 POP SWAP3 JUMP JUMPDEST PUSH1 0x0 DUP2 MLOAD SWAP1 POP SWAP2 SWAP1 POP JUMP JUMPDEST PUSH1 0x0 DUP3 DUP3 MSTORE PUSH1 0x20 DUP3 ADD SWAP1 POP SWAP3 SWAP2 POP POP JUMP JUMPDEST PUSH1 0x0 JUMPDEST DUP4 DUP2 LT ISZERO PUSH2 0x68F JUMPI DUP1 DUP3 ADD MLOAD DUP2 DUP5 ADD MSTORE PUSH1 0x20 DUP2 ADD SWAP1 POP PUSH2 0x674 JUMP JUMPDEST PUSH1 0x0 DUP5 DUP5 ADD MSTORE POP POP POP POP JUMP JUMPDEST PUSH1 0x0 PUSH2 0x6A6 DUP3 PUSH2 0x655 JUMP JUMPDEST PUSH2 0x6B0 DUP2 DUP6 PUSH2 0x660 JUMP JUMPDEST SWAP4 POP PUSH2 0x6C0 DUP2 DUP6 PUSH1 0x20 DUP7 ADD PUSH2 0x671 JUMP JUMPDEST PUSH2 0x6C9 DUP2 PUSH2 0x472 JUMP JUMPDEST DUP5 ADD SWAP2 POP POP SWAP3 SWAP2 POP POP JUMP JUMPDEST PUSH1 0x0 PUSH1 0x20 DUP3 ADD SWAP1 POP DUP2 DUP2 SUB PUSH1 0x0 DUP4 ADD MSTORE PUSH2 0x6EE DUP2 DUP5 PUSH2 0x69B JUMP JUMPDEST SWAP1 POP SWAP3 SWAP2 POP POP JUMP JUMPDEST PUSH1 0x0 DUP2 MLOAD SWAP1 POP SWAP2 SWAP1 POP JUMP JUMPDEST PUSH1 0x0 DUP3 DUP3 MSTORE PUSH1 0x20 DUP3 ADD SWAP1 POP SWAP3 SWAP2 POP POP JUMP JUMPDEST PUSH1 0x0 DUP2 SWAP1 POP PUSH1 0x20 DUP3 ADD SWAP1 POP SWAP2 SWAP1 POP JUMP JUMPDEST PUSH1 0x0 DUP3 DUP3 MSTORE PUSH1 0x20 DUP3 ADD SWAP1 POP SWAP3 SWAP2 POP POP JUMP JUMPDEST PUSH1 0x0 PUSH2 0x73E DUP3 PUSH2 0x655 JUMP JUMPDEST PUSH2 0x748 DUP2 DUP6 PUSH2 0x722 JUMP JUMPDEST SWAP4 POP PUSH2 0x758 DUP2 DUP6 PUSH1 0x20 DUP7 ADD PUSH2 0x671 JUMP JUMPDEST PUSH2 0x761 DUP2 PUSH2 0x472 JUMP JUMPDEST DUP5 ADD SWAP2 POP POP SWAP3 SWAP2 POP POP JUMP JUMPDEST PUSH1 0x0 PUSH2 0x778 DUP4 DUP4 PUSH2 0x733 JUMP JUMPDEST SWAP1 POP SWAP3 SWAP2 POP POP JUMP JUMPDEST PUSH1 0x0 PUSH1 0x20 DUP3 ADD SWAP1 POP SWAP2 SWAP1 POP JUMP JUMPDEST PUSH1 0x0 PUSH2 0x798 DUP3 PUSH2 0x6F6 JUMP JUMPDEST PUSH2 0x7A2 DUP2 DUP6 PUSH2 0x701 JUMP JUMPDEST SWAP4 POP DUP4 PUSH1 0x20 DUP3 MUL DUP6 ADD PUSH2 0x7B4 DUP6 PUSH2 0x712 JUMP JUMPDEST DUP1 PUSH1 0x0 JUMPDEST DUP6 DUP2 LT ISZERO PUSH2 0x7F0 JUMPI DUP5 DUP5 SUB DUP10 MSTORE DUP2 MLOAD PUSH2 0x7D1 DUP6 DUP3 PUSH2 0x76C JUMP JUMPDEST SWAP5 POP PUSH2 0x7DC DUP4 PUSH2 0x780 JUMP JUMPDEST SWAP3 POP PUSH1 0x20 DUP11 ADD SWAP10 POP POP PUSH1 0x1 DUP2 ADD SWAP1 POP PUSH2 0x7B8 JUMP JUMPDEST POP DUP3 SWAP8 POP DUP8 SWAP6 POP POP POP POP POP POP SWAP3 SWAP2 POP POP JUMP JUMPDEST PUSH1 0x0 PUSH1 0x20 DUP3 ADD SWAP1 POP DUP2 DUP2 SUB PUSH1 0x0 DUP4 ADD MSTORE PUSH2 0x81C DUP2 DUP5 PUSH2 0x78D JUMP JUMPDEST SWAP1 POP SWAP3 SWAP2 POP POP JUMP JUMPDEST PUSH1 0x0 DUP2 SWAP1 POP SWAP2 SWAP1 POP JUMP JUMPDEST PUSH2 0x837 DUP2 PUSH2 0x824 JUMP JUMPDEST DUP2 EQ PUSH2 0x842 JUMPI PUSH1 0x0 DUP1 REVERT JUMPDEST POP JUMP JUMPDEST PUSH1 0x0 DUP2 CALLDATALOAD SWAP1 POP PUSH2 0x854 DUP2 PUSH2 0x82E JUMP JUMPDEST SWAP3 SWAP2 POP POP JUMP JUMPDEST PUSH1 0x0 PUSH1 0x20 DUP3 DUP5 SUB SLT ISZERO PUSH2 0x870 JUMPI PUSH2 0x86F PUSH2 0x45E JUMP JUMPDEST JUMPDEST PUSH1 0x0 PUSH2 0x87E DUP5 DUP3 DUP6 ADD PUSH2 0x845 JUMP JUMPDEST SWAP2 POP POP SWAP3 SWAP2 POP POP JUMP JUMPDEST PUSH32 0x4E487B7100000000000000000000000000000000000000000000000000000000 PUSH1 0x0 MSTORE PUSH1 0x22 PUSH1 0x4 MSTORE PUSH1 0x24 PUSH1 0x0 REVERT JUMPDEST PUSH1 0x0 PUSH1 0x2 DUP3 DIV SWAP1 POP PUSH1 0x1 DUP3 AND DUP1 PUSH2 0x8CE JUMPI PUSH1 0x7F DUP3 AND SWAP2 POP JUMPDEST PUSH1 0x20 DUP3 LT DUP2 SUB PUSH2 0x8E1 JUMPI PUSH2 0x8E0 PUSH2 0x887 JUMP JUMPDEST JUMPDEST POP SWAP2 SWAP1 POP JUMP JUMPDEST PUSH1 0x0 DUP2 SWAP1 POP DUP2 PUSH1 0x0 MSTORE PUSH1 0x20 PUSH1 0x0 KECCAK256 SWAP1 POP SWAP2 SWAP1 POP JUMP JUMPDEST PUSH1 0x0 PUSH1 0x20 PUSH1 0x1F DUP4 ADD DIV SWAP1 POP SWAP2 SWAP1 POP JUMP JUMPDEST PUSH1 0x0 DUP3 DUP3 SHL SWAP1 POP SWAP3 SWAP2 POP POP JUMP JUMPDEST PUSH1 0x0 PUSH1 0x8 DUP4 MUL PUSH2 0x949 PUSH32 0xFFFFFFFFFFFFFFFFFFFFFFFFFFFFFFFFFFFFFFFFFFFFFFFFFFFFFFFFFFFFFFFF DUP3 PUSH2 0x90C JUMP JUMPDEST PUSH2 0x953 DUP7 DUP4 PUSH2 0x90C JUMP JUMPDEST SWAP6 POP DUP1 NOT DUP5 AND SWAP4 POP DUP1 DUP7 AND DUP5 OR SWAP3 POP POP POP SWAP4 SWAP3 POP POP POP JUMP JUMPDEST PUSH1 0x0 DUP2 SWAP1 POP SWAP2 SWAP1 POP JUMP JUMPDEST PUSH1 0x0 PUSH2 0x990 PUSH2 0x98B PUSH2 0x986 DUP5 PUSH2 0x824 JUMP JUMPDEST PUSH2 0x96B JUMP JUMPDEST PUSH2 0x824 JUMP JUMPDEST SWAP1 POP SWAP2 SWAP1 POP JUMP JUMPDEST PUSH1 0x0 DUP2 SWAP1 POP SWAP2 SWAP1 POP JUMP JUMPDEST PUSH2 0x9AA DUP4 PUSH2 0x975 JUMP JUMPDEST PUSH2 0x9BE PUSH2 0x9B6 DUP3 PUSH2 0x997 JUMP JUMPDEST DUP5 DUP5 SLOAD PUSH2 0x919 JUMP JUMPDEST DUP3 SSTORE POP POP POP POP JUMP JUMPDEST PUSH1 0x0 SWAP1 JUMP JUMPDEST PUSH2 0x9D3 PUSH2 0x9C6 JUMP JUMPDEST PUSH2 0x9DE DUP2 DUP5 DUP5 PUSH2 0x9A1 JUMP JUMPDEST POP POP POP JUMP JUMPDEST JUMPDEST DUP2 DUP2 LT ISZERO PUSH2 0xA02 JUMPI PUSH2 0x9F7 PUSH1 0x0 DUP3 PUSH2 0x9CB JUMP JUMPDEST PUSH1 0x1 DUP2 ADD SWAP1 POP PUSH2 0x9E4 JUMP JUMPDEST POP POP JUMP JUMPDEST PUSH1 0x1F DUP3 GT ISZERO PUSH2 0xA47 JUMPI PUSH2 0xA18 DUP2 PUSH2 0x8E7 JUMP JUMPDEST PUSH2 0xA21 DUP5 PUSH2 0x8FC JUMP JUMPDEST DUP2 ADD PUSH1 0x20 DUP6 LT ISZERO PUSH2 0xA30 JUMPI DUP2 SWAP1 POP JUMPDEST PUSH2 0xA44 PUSH2 0xA3C DUP6 PUSH2 0x8FC JUMP JUMPDEST DUP4 ADD DUP3 PUSH2 0x9E3 JUMP JUMPDEST POP POP JUMPDEST POP POP POP JUMP JUMPDEST PUSH1 0x0 DUP3 DUP3 SHR SWAP1 POP SWAP3 SWAP2 POP POP JUMP JUMPDEST PUSH1 0x0 PUSH2 0xA6A PUSH1 0x0 NOT DUP5 PUSH1 0x8 MUL PUSH2 0xA4C JUMP JUMPDEST NOT DUP1 DUP4 AND SWAP2 POP POP SWAP3 SWAP2 POP POP JUMP JUMPDEST PUSH1 0x0 PUSH2 0xA83 DUP4 DUP4 PUSH2 0xA59 JUMP JUMPDEST SWAP2 POP DUP3 PUSH1 0x2 MUL DUP3 OR SWAP1 POP SWAP3 SWAP2 POP POP JUMP JUMPDEST PUSH2 0xA9C DUP3 PUSH2 0x655 JUMP JUMPDEST PUSH8 0xFFFFFFFFFFFFFFFF DUP2 GT ISZERO PUSH2 0xAB5 JUMPI PUSH2 0xAB4 PUSH2 0x483 JUMP JUMPDEST JUMPDEST PUSH2 0xABF DUP3 SLOAD PUSH2 0x8B6 JUMP JUMPDEST PUSH2 0xACA DUP3 DUP3 DUP6 PUSH2 0xA06 JUMP JUMPDEST PUSH1 0x0 PUSH1 0x20 SWAP1 POP PUSH1 0x1F DUP4 GT PUSH1 0x1 DUP2 EQ PUSH2 0xAFD JUMPI PUSH1 0x0 DUP5 ISZERO PUSH2 0xAEB JUMPI DUP3 DUP8 ADD MLOAD SWAP1 POP JUMPDEST PUSH2 0xAF5 DUP6 DUP3 PUSH2 0xA77 JUMP JUMPDEST DUP7 SSTORE POP PUSH2 0xB5D JUMP JUMPDEST PUSH1 0x1F NOT DUP5 AND PUSH2 0xB0B DUP7 PUSH2 0x8E7 JUMP JUMPDEST PUSH1 0x0 JUMPDEST DUP3 DUP2 LT ISZERO PUSH2 0xB33 JUMPI DUP5 DUP10 ADD MLOAD DUP3 SSTORE PUSH1 0x1 DUP3 ADD SWAP2 POP PUSH1 0x20 DUP6 ADD SWAP5 POP PUSH1 0x20 DUP2 ADD SWAP1 POP PUSH2 0xB0E JUMP JUMPDEST DUP7 DUP4 LT ISZERO PUSH2 0xB50 JUMPI DUP5 DUP10 ADD MLOAD PUSH2 0xB4C PUSH1 0x1F DUP10 AND DUP3 PUSH2 0xA59 JUMP JUMPDEST DUP4 SSTORE POP JUMPDEST PUSH1 0x1 PUSH1 0x2 DUP9 MUL ADD DUP9 SSTORE POP POP POP JUMPDEST POP POP POP POP POP POP JUMP JUMPDEST PUSH32 0x4E487B7100000000000000000000000000000000000000000000000000000000 PUSH1 0x0 MSTORE PUSH1 0x32 PUSH1 0x4 MSTORE PUSH1 0x24 PUSH1 0x0 REVERT JUMPDEST PUSH32 0x4E487B7100000000000000000000000000000000000000000000000000000000 PUSH1 0x0 MSTORE PUSH1 0x31 PUSH1 0x4 MSTORE PUSH1 0x24 PUSH1 0x0 REVERT INVALID LOG2 PUSH5 0x6970667358 0x22 SLT KECCAK256 JUMPDEST 0x21 0xAF 0xBD CHAINID 0xEF DUP13 0xE4 0xA6 0xBE 0x1F 0xB0 SELFBALANCE 0xD6 PUSH11 0x1BE110A38BA2974B207856 0xCA 0xC6 0xF6 MULMOD 0xF7 0xBD PUSH5 0x736F6C6343 STOP ADDMOD SLT STOP CALLER "
				},
				"gasEstimates": {
					"creation": {
						"codeDepositCost": "613000",
						"executionCost": "645",
						"totalCost": "613645"
					},
					"external": {
						"arr2(uint256)": "infinite",
						"get2()": "infinite",
						"getName()": "infinite",
						"pop()": "infinite",
						"spush(string,string,string)": "infinite"
					}
				},
				"methodIdentifiers": {
					"arr2(uint256)": "edf0099b",
					"get2()": "d2178b08",
					"getName()": "17d7de7c",
					"pop()": "a4ece52c",
					"spush(string,string,string)": "11be71ec"
				}
			},
			"storageLayout": {
				"storage": [
					{
						"astId": 46,
						"contract": "lab31_7/array_excercise.sol:dynamic",
						"label": "arr2",
						"offset": 0,
						"slot": "0",
						"type": "t_array(t_string_storage)dyn_storage"
					}
				],
				"types": {
					"t_array(t_string_storage)dyn_storage": {
						"base": "t_string_storage",
						"encoding": "dynamic_array",
						"label": "string[]",
						"numberOfBytes": "32"
					},
					"t_string_storage": {
						"encoding": "bytes",
						"label": "string",
						"numberOfBytes": "32"
					}
				}
			},
			"userdoc": {
				"kind": "user",
				"methods": {
					"arr2(uint256)": {
						"notice": "dynamic array"
					}
				},
				"version": 1
			}
		}
	}
}