{
	"lab31_7/array_excercise.sol": {
		"Arrayed": {
			"abi": [
				{
					"inputs": [
						{
							"internalType": "uint256",
							"name": "",
							"type": "uint256"
						}
					],
					"name": "arr3",
					"outputs": [
						{
							"internalType": "int256",
							"name": "",
							"type": "int256"
						}
					],
					"stateMutability": "view",
					"type": "function"
				},
				{
					"inputs": [],
					"name": "del_declare",
					"outputs": [],
					"stateMutability": "nonpayable",
					"type": "function"
				},
				{
					"inputs": [],
					"name": "get",
					"outputs": [
						{
							"internalType": "int256[4]",
							"name": "",
							"type": "int256[4]"
						}
					],
					"stateMutability": "view",
					"type": "function"
				},
				{
					"inputs": [],
					"name": "getlength",
					"outputs": [
						{
							"internalType": "uint256",
							"name": "",
							"type": "uint256"
						}
					],
					"stateMutability": "view",
					"type": "function"
				}
			],
			"devdoc": {
				"kind": "dev",
				"methods": {},
				"version": 1
			},
			"evm": {
				"assembly": "    /* \"lab31_7/array_excercise.sol\":854:1228  contract Arrayed{... */\n  mstore(0x40, 0x80)\n  callvalue\n  dup1\n  iszero\n  tag_1\n  jumpi\n  0x00\n  dup1\n  revert\ntag_1:\n  pop\n  dataSize(sub_0)\n  dup1\n  dataOffset(sub_0)\n  0x00\n  codecopy\n  0x00\n  return\nstop\n\nsub_0: assembly {\n        /* \"lab31_7/array_excercise.sol\":854:1228  contract Arrayed{... */\n      mstore(0x40, 0x80)\n      callvalue\n      dup1\n      iszero\n      tag_1\n      jumpi\n      0x00\n      dup1\n      revert\n    tag_1:\n      pop\n      jumpi(tag_2, lt(calldatasize, 0x04))\n      shr(0xe0, calldataload(0x00))\n      dup1\n      0x6d4ce63c\n      eq\n      tag_3\n      jumpi\n      dup1\n      0x8732ded8\n      eq\n      tag_4\n      jumpi\n      dup1\n      0xa16d3598\n      eq\n      tag_5\n      jumpi\n      dup1\n      0xecd210e6\n      eq\n      tag_6\n      jumpi\n    tag_2:\n      0x00\n      dup1\n      revert\n        /* \"lab31_7/array_excercise.sol\":1056:1136  function get() public view returns(int[4] memory){... */\n    tag_3:\n      tag_7\n      tag_8\n      jump\t// in\n    tag_7:\n      mload(0x40)\n      tag_9\n      swap2\n      swap1\n      tag_10\n      jump\t// in\n    tag_9:\n      mload(0x40)\n      dup1\n      swap2\n      sub\n      swap1\n      return\n        /* \"lab31_7/array_excercise.sol\":877:895  int[4] public arr3 */\n    tag_4:\n      tag_11\n      0x04\n      dup1\n      calldatasize\n      sub\n      dup2\n      add\n      swap1\n      tag_12\n      swap2\n      swap1\n      tag_13\n      jump\t// in\n    tag_12:\n      tag_14\n      jump\t// in\n    tag_11:\n      mload(0x40)\n      tag_15\n      swap2\n      swap1\n      tag_16\n      jump\t// in\n    tag_15:\n      mload(0x40)\n      dup1\n      swap2\n      sub\n      swap1\n      return\n        /* \"lab31_7/array_excercise.sol\":1142:1225  function getlength() public view returns(uint){... */\n    tag_5:\n      tag_17\n      tag_18\n      jump\t// in\n    tag_17:\n      mload(0x40)\n      tag_19\n      swap2\n      swap1\n      tag_20\n      jump\t// in\n    tag_19:\n      mload(0x40)\n      dup1\n      swap2\n      sub\n      swap1\n      return\n        /* \"lab31_7/array_excercise.sol\":902:1050  function del_declare() public{... */\n    tag_6:\n      tag_21\n      tag_22\n      jump\t// in\n    tag_21:\n      stop\n        /* \"lab31_7/array_excercise.sol\":1056:1136  function get() public view returns(int[4] memory){... */\n    tag_8:\n        /* \"lab31_7/array_excercise.sol\":1091:1104  int[4] memory */\n      tag_23\n      tag_24\n      jump\t// in\n    tag_23:\n        /* \"lab31_7/array_excercise.sol\":1124:1128  arr3 */\n      0x00\n        /* \"lab31_7/array_excercise.sol\":1117:1128  return arr3 */\n      0x04\n      dup1\n      0x20\n      mul\n      mload(0x40)\n      swap1\n      dup2\n      add\n      0x40\n      mstore\n      dup1\n      swap3\n      swap2\n      swap1\n      dup3\n      0x04\n      dup1\n      iszero\n      tag_26\n      jumpi\n      0x20\n      mul\n      dup3\n      add\n      swap2\n    tag_27:\n      dup2\n      sload\n      dup2\n      mstore\n      0x20\n      add\n      swap1\n      0x01\n      add\n      swap1\n      dup1\n      dup4\n      gt\n      tag_27\n      jumpi\n    tag_26:\n      pop\n      pop\n      pop\n      pop\n      pop\n      swap1\n      pop\n        /* \"lab31_7/array_excercise.sol\":1056:1136  function get() public view returns(int[4] memory){... */\n      swap1\n      jump\t// out\n        /* \"lab31_7/array_excercise.sol\":877:895  int[4] public arr3 */\n    tag_14:\n      0x00\n      dup2\n      0x04\n      dup2\n      lt\n      tag_28\n      jumpi\n      0x00\n      dup1\n      revert\n    tag_28:\n      add\n      0x00\n      swap2\n      pop\n      swap1\n      pop\n      sload\n      dup2\n      jump\t// out\n        /* \"lab31_7/array_excercise.sol\":1142:1225  function getlength() public view returns(uint){... */\n    tag_18:\n        /* \"lab31_7/array_excercise.sol\":1183:1187  uint */\n      0x00\n        /* \"lab31_7/array_excercise.sol\":1206:1217  arr3.length */\n      0x04\n        /* \"lab31_7/array_excercise.sol\":1199:1217  return arr3.length */\n      swap1\n      pop\n        /* \"lab31_7/array_excercise.sol\":1142:1225  function getlength() public view returns(uint){... */\n      swap1\n      jump\t// out\n        /* \"lab31_7/array_excercise.sol\":902:1050  function del_declare() public{... */\n    tag_22:\n        /* \"lab31_7/array_excercise.sol\":949:953  arr3 */\n      0x00\n      dup1\n        /* \"lab31_7/array_excercise.sol\":942:953  delete arr3 */\n      tag_32\n      swap2\n      swap1\n      tag_33\n      jump\t// in\n    tag_32:\n        /* \"lab31_7/array_excercise.sol\":973:975  -5 */\n      0xfffffffffffffffffffffffffffffffffffffffffffffffffffffffffffffffb\n        /* \"lab31_7/array_excercise.sol\":964:968  arr3 */\n      0x00\n        /* \"lab31_7/array_excercise.sol\":969:970  0 */\n      dup1\n        /* \"lab31_7/array_excercise.sol\":964:971  arr3[0] */\n      0x04\n      dup2\n      lt\n      tag_34\n      jumpi\n      tag_35\n      tag_36\n      jump\t// in\n    tag_35:\n    tag_34:\n      add\n        /* \"lab31_7/array_excercise.sol\":964:975  arr3[0]= -5 */\n      dup2\n      swap1\n      sstore\n      pop\n        /* \"lab31_7/array_excercise.sol\":996:997  0 */\n      0x00\n        /* \"lab31_7/array_excercise.sol\":986:990  arr3 */\n      dup1\n        /* \"lab31_7/array_excercise.sol\":991:992  1 */\n      0x01\n        /* \"lab31_7/array_excercise.sol\":986:993  arr3[1] */\n      0x04\n      dup2\n      lt\n      tag_38\n      jumpi\n      tag_39\n      tag_36\n      jump\t// in\n    tag_39:\n    tag_38:\n      add\n        /* \"lab31_7/array_excercise.sol\":986:997  arr3[1] = 0 */\n      dup2\n      swap1\n      sstore\n      pop\n        /* \"lab31_7/array_excercise.sol\":1018:1019  5 */\n      0x05\n        /* \"lab31_7/array_excercise.sol\":1008:1012  arr3 */\n      0x00\n        /* \"lab31_7/array_excercise.sol\":1013:1014  2 */\n      0x02\n        /* \"lab31_7/array_excercise.sol\":1008:1015  arr3[2] */\n      0x04\n      dup2\n      lt\n      tag_41\n      jumpi\n      tag_42\n      tag_36\n      jump\t// in\n    tag_42:\n    tag_41:\n      add\n        /* \"lab31_7/array_excercise.sol\":1008:1019  arr3[2] = 5 */\n      dup2\n      swap1\n      sstore\n      pop\n        /* \"lab31_7/array_excercise.sol\":1040:1042  10 */\n      0x0a\n        /* \"lab31_7/array_excercise.sol\":1030:1034  arr3 */\n      0x00\n        /* \"lab31_7/array_excercise.sol\":1035:1036  3 */\n      0x03\n        /* \"lab31_7/array_excercise.sol\":1030:1037  arr3[3] */\n      0x04\n      dup2\n      lt\n      tag_44\n      jumpi\n      tag_45\n      tag_36\n      jump\t// in\n    tag_45:\n    tag_44:\n      add\n        /* \"lab31_7/array_excercise.sol\":1030:1042  arr3[3] = 10 */\n      dup2\n      swap1\n      sstore\n      pop\n        /* \"lab31_7/array_excercise.sol\":902:1050  function del_declare() public{... */\n      jump\t// out\n    tag_24:\n      mload(0x40)\n      dup1\n      0x80\n      add\n      0x40\n      mstore\n      dup1\n      0x04\n      swap1\n      0x20\n      dup3\n      mul\n      dup1\n      calldatasize\n      dup4\n      calldatacopy\n      dup1\n      dup3\n      add\n      swap2\n      pop\n      pop\n      swap1\n      pop\n      pop\n      swap1\n      jump\t// out\n    tag_33:\n      pop\n      0x00\n      dup2\n      sstore\n      0x01\n      add\n      0x00\n      dup2\n      sstore\n      0x01\n      add\n      0x00\n      dup2\n      sstore\n      0x01\n      add\n      0x00\n      swap1\n      sstore\n      jump\t// out\n        /* \"#utility.yul\":7:110   */\n    tag_47:\n        /* \"#utility.yul\":71:77   */\n      0x00\n        /* \"#utility.yul\":99:103   */\n      0x04\n        /* \"#utility.yul\":89:103   */\n      swap1\n      pop\n        /* \"#utility.yul\":7:110   */\n      swap2\n      swap1\n      pop\n      jump\t// out\n        /* \"#utility.yul\":116:258   */\n    tag_48:\n        /* \"#utility.yul\":212:223   */\n      0x00\n        /* \"#utility.yul\":249:252   */\n      dup2\n        /* \"#utility.yul\":234:252   */\n      swap1\n      pop\n        /* \"#utility.yul\":116:258   */\n      swap3\n      swap2\n      pop\n      pop\n      jump\t// out\n        /* \"#utility.yul\":264:361   */\n    tag_49:\n        /* \"#utility.yul\":328:332   */\n      0x00\n        /* \"#utility.yul\":351:354   */\n      dup2\n        /* \"#utility.yul\":343:354   */\n      swap1\n      pop\n        /* \"#utility.yul\":264:361   */\n      swap2\n      swap1\n      pop\n      jump\t// out\n        /* \"#utility.yul\":367:443   */\n    tag_50:\n        /* \"#utility.yul\":403:410   */\n      0x00\n        /* \"#utility.yul\":432:437   */\n      dup2\n        /* \"#utility.yul\":421:437   */\n      swap1\n      pop\n        /* \"#utility.yul\":367:443   */\n      swap2\n      swap1\n      pop\n      jump\t// out\n        /* \"#utility.yul\":449:554   */\n    tag_51:\n        /* \"#utility.yul\":524:547   */\n      tag_69\n        /* \"#utility.yul\":541:546   */\n      dup2\n        /* \"#utility.yul\":524:547   */\n      tag_50\n      jump\t// in\n    tag_69:\n        /* \"#utility.yul\":519:522   */\n      dup3\n        /* \"#utility.yul\":512:548   */\n      mstore\n        /* \"#utility.yul\":449:554   */\n      pop\n      pop\n      jump\t// out\n        /* \"#utility.yul\":560:735   */\n    tag_52:\n        /* \"#utility.yul\":627:637   */\n      0x00\n        /* \"#utility.yul\":648:692   */\n      tag_71\n        /* \"#utility.yul\":688:691   */\n      dup4\n        /* \"#utility.yul\":680:686   */\n      dup4\n        /* \"#utility.yul\":648:692   */\n      tag_51\n      jump\t// in\n    tag_71:\n        /* \"#utility.yul\":724:728   */\n      0x20\n        /* \"#utility.yul\":719:722   */\n      dup4\n        /* \"#utility.yul\":715:729   */\n      add\n        /* \"#utility.yul\":701:729   */\n      swap1\n      pop\n        /* \"#utility.yul\":560:735   */\n      swap3\n      swap2\n      pop\n      pop\n      jump\t// out\n        /* \"#utility.yul\":741:851   */\n    tag_53:\n        /* \"#utility.yul\":808:812   */\n      0x00\n        /* \"#utility.yul\":840:844   */\n      0x20\n        /* \"#utility.yul\":835:838   */\n      dup3\n        /* \"#utility.yul\":831:845   */\n      add\n        /* \"#utility.yul\":823:845   */\n      swap1\n      pop\n        /* \"#utility.yul\":741:851   */\n      swap2\n      swap1\n      pop\n      jump\t// out\n        /* \"#utility.yul\":887:1573   */\n    tag_54:\n        /* \"#utility.yul\":1021:1072   */\n      tag_74\n        /* \"#utility.yul\":1066:1071   */\n      dup2\n        /* \"#utility.yul\":1021:1072   */\n      tag_47\n      jump\t// in\n    tag_74:\n        /* \"#utility.yul\":1088:1171   */\n      tag_75\n        /* \"#utility.yul\":1164:1170   */\n      dup2\n        /* \"#utility.yul\":1159:1162   */\n      dup5\n        /* \"#utility.yul\":1088:1171   */\n      tag_48\n      jump\t// in\n    tag_75:\n        /* \"#utility.yul\":1081:1171   */\n      swap3\n      pop\n        /* \"#utility.yul\":1195:1248   */\n      tag_76\n        /* \"#utility.yul\":1242:1247   */\n      dup3\n        /* \"#utility.yul\":1195:1248   */\n      tag_49\n      jump\t// in\n    tag_76:\n        /* \"#utility.yul\":1271:1278   */\n      dup1\n        /* \"#utility.yul\":1302:1303   */\n      0x00\n        /* \"#utility.yul\":1287:1566   */\n    tag_77:\n        /* \"#utility.yul\":1312:1318   */\n      dup4\n        /* \"#utility.yul\":1309:1310   */\n      dup2\n        /* \"#utility.yul\":1306:1319   */\n      lt\n        /* \"#utility.yul\":1287:1566   */\n      iszero\n      tag_79\n      jumpi\n        /* \"#utility.yul\":1388:1394   */\n      dup2\n        /* \"#utility.yul\":1382:1395   */\n      mload\n        /* \"#utility.yul\":1415:1476   */\n      tag_80\n        /* \"#utility.yul\":1472:1475   */\n      dup8\n        /* \"#utility.yul\":1457:1470   */\n      dup3\n        /* \"#utility.yul\":1415:1476   */\n      tag_52\n      jump\t// in\n    tag_80:\n        /* \"#utility.yul\":1408:1476   */\n      swap7\n      pop\n        /* \"#utility.yul\":1499:1556   */\n      tag_81\n        /* \"#utility.yul\":1549:1555   */\n      dup4\n        /* \"#utility.yul\":1499:1556   */\n      tag_53\n      jump\t// in\n    tag_81:\n        /* \"#utility.yul\":1489:1556   */\n      swap3\n      pop\n        /* \"#utility.yul\":1347:1566   */\n      pop\n        /* \"#utility.yul\":1334:1335   */\n      0x01\n        /* \"#utility.yul\":1331:1332   */\n      dup2\n        /* \"#utility.yul\":1327:1336   */\n      add\n        /* \"#utility.yul\":1322:1336   */\n      swap1\n      pop\n        /* \"#utility.yul\":1287:1566   */\n      jump(tag_77)\n    tag_79:\n        /* \"#utility.yul\":1291:1305   */\n      pop\n        /* \"#utility.yul\":997:1573   */\n      pop\n      pop\n      pop\n        /* \"#utility.yul\":887:1573   */\n      pop\n      pop\n      jump\t// out\n        /* \"#utility.yul\":1579:1890   */\n    tag_10:\n        /* \"#utility.yul\":1716:1720   */\n      0x00\n        /* \"#utility.yul\":1754:1757   */\n      0x80\n        /* \"#utility.yul\":1743:1752   */\n      dup3\n        /* \"#utility.yul\":1739:1758   */\n      add\n        /* \"#utility.yul\":1731:1758   */\n      swap1\n      pop\n        /* \"#utility.yul\":1768:1883   */\n      tag_83\n        /* \"#utility.yul\":1880:1881   */\n      0x00\n        /* \"#utility.yul\":1869:1878   */\n      dup4\n        /* \"#utility.yul\":1865:1882   */\n      add\n        /* \"#utility.yul\":1856:1862   */\n      dup5\n        /* \"#utility.yul\":1768:1883   */\n      tag_54\n      jump\t// in\n    tag_83:\n        /* \"#utility.yul\":1579:1890   */\n      swap3\n      swap2\n      pop\n      pop\n      jump\t// out\n        /* \"#utility.yul\":1977:2094   */\n    tag_56:\n        /* \"#utility.yul\":2086:2087   */\n      0x00\n        /* \"#utility.yul\":2083:2084   */\n      dup1\n        /* \"#utility.yul\":2076:2088   */\n      revert\n        /* \"#utility.yul\":2223:2300   */\n    tag_58:\n        /* \"#utility.yul\":2260:2267   */\n      0x00\n        /* \"#utility.yul\":2289:2294   */\n      dup2\n        /* \"#utility.yul\":2278:2294   */\n      swap1\n      pop\n        /* \"#utility.yul\":2223:2300   */\n      swap2\n      swap1\n      pop\n      jump\t// out\n        /* \"#utility.yul\":2306:2428   */\n    tag_59:\n        /* \"#utility.yul\":2379:2403   */\n      tag_89\n        /* \"#utility.yul\":2397:2402   */\n      dup2\n        /* \"#utility.yul\":2379:2403   */\n      tag_58\n      jump\t// in\n    tag_89:\n        /* \"#utility.yul\":2372:2377   */\n      dup2\n        /* \"#utility.yul\":2369:2404   */\n      eq\n        /* \"#utility.yul\":2359:2422   */\n      tag_90\n      jumpi\n        /* \"#utility.yul\":2418:2419   */\n      0x00\n        /* \"#utility.yul\":2415:2416   */\n      dup1\n        /* \"#utility.yul\":2408:2420   */\n      revert\n        /* \"#utility.yul\":2359:2422   */\n    tag_90:\n        /* \"#utility.yul\":2306:2428   */\n      pop\n      jump\t// out\n        /* \"#utility.yul\":2434:2573   */\n    tag_60:\n        /* \"#utility.yul\":2480:2485   */\n      0x00\n        /* \"#utility.yul\":2518:2524   */\n      dup2\n        /* \"#utility.yul\":2505:2525   */\n      calldataload\n        /* \"#utility.yul\":2496:2525   */\n      swap1\n      pop\n        /* \"#utility.yul\":2534:2567   */\n      tag_92\n        /* \"#utility.yul\":2561:2566   */\n      dup2\n        /* \"#utility.yul\":2534:2567   */\n      tag_59\n      jump\t// in\n    tag_92:\n        /* \"#utility.yul\":2434:2573   */\n      swap3\n      swap2\n      pop\n      pop\n      jump\t// out\n        /* \"#utility.yul\":2579:2908   */\n    tag_13:\n        /* \"#utility.yul\":2638:2644   */\n      0x00\n        /* \"#utility.yul\":2687:2689   */\n      0x20\n        /* \"#utility.yul\":2675:2684   */\n      dup3\n        /* \"#utility.yul\":2666:2673   */\n      dup5\n        /* \"#utility.yul\":2662:2685   */\n      sub\n        /* \"#utility.yul\":2658:2690   */\n      slt\n        /* \"#utility.yul\":2655:2774   */\n      iszero\n      tag_94\n      jumpi\n        /* \"#utility.yul\":2693:2772   */\n      tag_95\n      tag_56\n      jump\t// in\n    tag_95:\n        /* \"#utility.yul\":2655:2774   */\n    tag_94:\n        /* \"#utility.yul\":2813:2814   */\n      0x00\n        /* \"#utility.yul\":2838:2891   */\n      tag_96\n        /* \"#utility.yul\":2883:2890   */\n      dup5\n        /* \"#utility.yul\":2874:2880   */\n      dup3\n        /* \"#utility.yul\":2863:2872   */\n      dup6\n        /* \"#utility.yul\":2859:2881   */\n      add\n        /* \"#utility.yul\":2838:2891   */\n      tag_60\n      jump\t// in\n    tag_96:\n        /* \"#utility.yul\":2828:2891   */\n      swap2\n      pop\n        /* \"#utility.yul\":2784:2901   */\n      pop\n        /* \"#utility.yul\":2579:2908   */\n      swap3\n      swap2\n      pop\n      pop\n      jump\t// out\n        /* \"#utility.yul\":2914:3029   */\n    tag_61:\n        /* \"#utility.yul\":2999:3022   */\n      tag_98\n        /* \"#utility.yul\":3016:3021   */\n      dup2\n        /* \"#utility.yul\":2999:3022   */\n      tag_50\n      jump\t// in\n    tag_98:\n        /* \"#utility.yul\":2994:2997   */\n      dup3\n        /* \"#utility.yul\":2987:3023   */\n      mstore\n        /* \"#utility.yul\":2914:3029   */\n      pop\n      pop\n      jump\t// out\n        /* \"#utility.yul\":3035:3253   */\n    tag_16:\n        /* \"#utility.yul\":3126:3130   */\n      0x00\n        /* \"#utility.yul\":3164:3166   */\n      0x20\n        /* \"#utility.yul\":3153:3162   */\n      dup3\n        /* \"#utility.yul\":3149:3167   */\n      add\n        /* \"#utility.yul\":3141:3167   */\n      swap1\n      pop\n        /* \"#utility.yul\":3177:3246   */\n      tag_100\n        /* \"#utility.yul\":3243:3244   */\n      0x00\n        /* \"#utility.yul\":3232:3241   */\n      dup4\n        /* \"#utility.yul\":3228:3245   */\n      add\n        /* \"#utility.yul\":3219:3225   */\n      dup5\n        /* \"#utility.yul\":3177:3246   */\n      tag_61\n      jump\t// in\n    tag_100:\n        /* \"#utility.yul\":3035:3253   */\n      swap3\n      swap2\n      pop\n      pop\n      jump\t// out\n        /* \"#utility.yul\":3259:3377   */\n    tag_62:\n        /* \"#utility.yul\":3346:3370   */\n      tag_102\n        /* \"#utility.yul\":3364:3369   */\n      dup2\n        /* \"#utility.yul\":3346:3370   */\n      tag_58\n      jump\t// in\n    tag_102:\n        /* \"#utility.yul\":3341:3344   */\n      dup3\n        /* \"#utility.yul\":3334:3371   */\n      mstore\n        /* \"#utility.yul\":3259:3377   */\n      pop\n      pop\n      jump\t// out\n        /* \"#utility.yul\":3383:3605   */\n    tag_20:\n        /* \"#utility.yul\":3476:3480   */\n      0x00\n        /* \"#utility.yul\":3514:3516   */\n      0x20\n        /* \"#utility.yul\":3503:3512   */\n      dup3\n        /* \"#utility.yul\":3499:3517   */\n      add\n        /* \"#utility.yul\":3491:3517   */\n      swap1\n      pop\n        /* \"#utility.yul\":3527:3598   */\n      tag_104\n        /* \"#utility.yul\":3595:3596   */\n      0x00\n        /* \"#utility.yul\":3584:3593   */\n      dup4\n        /* \"#utility.yul\":3580:3597   */\n      add\n        /* \"#utility.yul\":3571:3577   */\n      dup5\n        /* \"#utility.yul\":3527:3598   */\n      tag_62\n      jump\t// in\n    tag_104:\n        /* \"#utility.yul\":3383:3605   */\n      swap3\n      swap2\n      pop\n      pop\n      jump\t// out\n        /* \"#utility.yul\":3611:3791   */\n    tag_36:\n        /* \"#utility.yul\":3659:3736   */\n      0x4e487b7100000000000000000000000000000000000000000000000000000000\n        /* \"#utility.yul\":3656:3657   */\n      0x00\n        /* \"#utility.yul\":3649:3737   */\n      mstore\n        /* \"#utility.yul\":3756:3760   */\n      0x32\n        /* \"#utility.yul\":3753:3754   */\n      0x04\n        /* \"#utility.yul\":3746:3761   */\n      mstore\n        /* \"#utility.yul\":3780:3784   */\n      0x24\n        /* \"#utility.yul\":3777:3778   */\n      0x00\n        /* \"#utility.yul\":3770:3785   */\n      revert\n\n    auxdata: 0xa2646970667358221220251ad2b429f8d04bb71d4261a36f5783774f4a44382c577ebef76d9e7866871364736f6c63430008120033\n}\n",
				"bytecode": {
					"linkReferences": {},
					"object": "608060405234801561001057600080fd5b50610401806100206000396000f3fe608060405234801561001057600080fd5b506004361061004c5760003560e01c80636d4ce63c146100515780638732ded81461006f578063a16d35981461009f578063ecd210e6146100bd575b600080fd5b6100596100c7565b60405161006691906102c5565b60405180910390f35b6100896004803603810190610084919061031b565b610112565b6040516100969190610357565b60405180910390f35b6100a761012d565b6040516100b49190610381565b60405180910390f35b6100c5610136565b005b6100cf6101d2565b6000600480602002604051908101604052809291908260048015610108576020028201915b8154815260200190600101908083116100f4575b5050505050905090565b6000816004811061012257600080fd5b016000915090505481565b60006004905090565b60008061014391906101f4565b7ffffffffffffffffffffffffffffffffffffffffffffffffffffffffffffffffb600080600481106101785761017761039c565b5b01819055506000806001600481106101935761019261039c565b5b0181905550600560006002600481106101af576101ae61039c565b5b0181905550600a60006003600481106101cb576101ca61039c565b5b0181905550565b6040518060800160405280600490602082028036833780820191505090505090565b5060008155600101600081556001016000815560010160009055565b600060049050919050565b600081905092915050565b6000819050919050565b6000819050919050565b61024381610230565b82525050565b6000610255838361023a565b60208301905092915050565b6000602082019050919050565b61027781610210565b610281818461021b565b925061028c82610226565b8060005b838110156102bd5781516102a48782610249565b96506102af83610261565b925050600181019050610290565b505050505050565b60006080820190506102da600083018461026e565b92915050565b600080fd5b6000819050919050565b6102f8816102e5565b811461030357600080fd5b50565b600081359050610315816102ef565b92915050565b600060208284031215610331576103306102e0565b5b600061033f84828501610306565b91505092915050565b61035181610230565b82525050565b600060208201905061036c6000830184610348565b92915050565b61037b816102e5565b82525050565b60006020820190506103966000830184610372565b92915050565b7f4e487b7100000000000000000000000000000000000000000000000000000000600052603260045260246000fdfea2646970667358221220251ad2b429f8d04bb71d4261a36f5783774f4a44382c577ebef76d9e7866871364736f6c63430008120033",
					"opcodes": "PUSH1 0x80 PUSH1 0x40 MSTORE CALLVALUE DUP1 ISZERO PUSH2 0x10 JUMPI PUSH1 0x0 DUP1 REVERT JUMPDEST POP PUSH2 0x401 DUP1 PUSH2 0x20 PUSH1 0x0 CODECOPY PUSH1 0x0 RETURN INVALID PUSH1 0x80 PUSH1 0x40 MSTORE CALLVALUE DUP1 ISZERO PUSH2 0x10 JUMPI PUSH1 0x0 DUP1 REVERT JUMPDEST POP PUSH1 0x4 CALLDATASIZE LT PUSH2 0x4C JUMPI PUSH1 0x0 CALLDATALOAD PUSH1 0xE0 SHR DUP1 PUSH4 0x6D4CE63C EQ PUSH2 0x51 JUMPI DUP1 PUSH4 0x8732DED8 EQ PUSH2 0x6F JUMPI DUP1 PUSH4 0xA16D3598 EQ PUSH2 0x9F JUMPI DUP1 PUSH4 0xECD210E6 EQ PUSH2 0xBD JUMPI JUMPDEST PUSH1 0x0 DUP1 REVERT JUMPDEST PUSH2 0x59 PUSH2 0xC7 JUMP JUMPDEST PUSH1 0x40 MLOAD PUSH2 0x66 SWAP2 SWAP1 PUSH2 0x2C5 JUMP JUMPDEST PUSH1 0x40 MLOAD DUP1 SWAP2 SUB SWAP1 RETURN JUMPDEST PUSH2 0x89 PUSH1 0x4 DUP1 CALLDATASIZE SUB DUP2 ADD SWAP1 PUSH2 0x84 SWAP2 SWAP1 PUSH2 0x31B JUMP JUMPDEST PUSH2 0x112 JUMP JUMPDEST PUSH1 0x40 MLOAD PUSH2 0x96 SWAP2 SWAP1 PUSH2 0x357 JUMP JUMPDEST PUSH1 0x40 MLOAD DUP1 SWAP2 SUB SWAP1 RETURN JUMPDEST PUSH2 0xA7 PUSH2 0x12D JUMP JUMPDEST PUSH1 0x40 MLOAD PUSH2 0xB4 SWAP2 SWAP1 PUSH2 0x381 JUMP JUMPDEST PUSH1 0x40 MLOAD DUP1 SWAP2 SUB SWAP1 RETURN JUMPDEST PUSH2 0xC5 PUSH2 0x136 JUMP JUMPDEST STOP JUMPDEST PUSH2 0xCF PUSH2 0x1D2 JUMP JUMPDEST PUSH1 0x0 PUSH1 0x4 DUP1 PUSH1 0x20 MUL PUSH1 0x40 MLOAD SWAP1 DUP2 ADD PUSH1 0x40 MSTORE DUP1 SWAP3 SWAP2 SWAP1 DUP3 PUSH1 0x4 DUP1 ISZERO PUSH2 0x108 JUMPI PUSH1 0x20 MUL DUP3 ADD SWAP2 JUMPDEST DUP2 SLOAD DUP2 MSTORE PUSH1 0x20 ADD SWAP1 PUSH1 0x1 ADD SWAP1 DUP1 DUP4 GT PUSH2 0xF4 JUMPI JUMPDEST POP POP POP POP POP SWAP1 POP SWAP1 JUMP JUMPDEST PUSH1 0x0 DUP2 PUSH1 0x4 DUP2 LT PUSH2 0x122 JUMPI PUSH1 0x0 DUP1 REVERT JUMPDEST ADD PUSH1 0x0 SWAP2 POP SWAP1 POP SLOAD DUP2 JUMP JUMPDEST PUSH1 0x0 PUSH1 0x4 SWAP1 POP SWAP1 JUMP JUMPDEST PUSH1 0x0 DUP1 PUSH2 0x143 SWAP2 SWAP1 PUSH2 0x1F4 JUMP JUMPDEST PUSH32 0xFFFFFFFFFFFFFFFFFFFFFFFFFFFFFFFFFFFFFFFFFFFFFFFFFFFFFFFFFFFFFFFB PUSH1 0x0 DUP1 PUSH1 0x4 DUP2 LT PUSH2 0x178 JUMPI PUSH2 0x177 PUSH2 0x39C JUMP JUMPDEST JUMPDEST ADD DUP2 SWAP1 SSTORE POP PUSH1 0x0 DUP1 PUSH1 0x1 PUSH1 0x4 DUP2 LT PUSH2 0x193 JUMPI PUSH2 0x192 PUSH2 0x39C JUMP JUMPDEST JUMPDEST ADD DUP2 SWAP1 SSTORE POP PUSH1 0x5 PUSH1 0x0 PUSH1 0x2 PUSH1 0x4 DUP2 LT PUSH2 0x1AF JUMPI PUSH2 0x1AE PUSH2 0x39C JUMP JUMPDEST JUMPDEST ADD DUP2 SWAP1 SSTORE POP PUSH1 0xA PUSH1 0x0 PUSH1 0x3 PUSH1 0x4 DUP2 LT PUSH2 0x1CB JUMPI PUSH2 0x1CA PUSH2 0x39C JUMP JUMPDEST JUMPDEST ADD DUP2 SWAP1 SSTORE POP JUMP JUMPDEST PUSH1 0x40 MLOAD DUP1 PUSH1 0x80 ADD PUSH1 0x40 MSTORE DUP1 PUSH1 0x4 SWAP1 PUSH1 0x20 DUP3 MUL DUP1 CALLDATASIZE DUP4 CALLDATACOPY DUP1 DUP3 ADD SWAP2 POP POP SWAP1 POP POP SWAP1 JUMP JUMPDEST POP PUSH1 0x0 DUP2 SSTORE PUSH1 0x1 ADD PUSH1 0x0 DUP2 SSTORE PUSH1 0x1 ADD PUSH1 0x0 DUP2 SSTORE PUSH1 0x1 ADD PUSH1 0x0 SWAP1 SSTORE JUMP JUMPDEST PUSH1 0x0 PUSH1 0x4 SWAP1 POP SWAP2 SWAP1 POP JUMP JUMPDEST PUSH1 0x0 DUP2 SWAP1 POP SWAP3 SWAP2 POP POP JUMP JUMPDEST PUSH1 0x0 DUP2 SWAP1 POP SWAP2 SWAP1 POP JUMP JUMPDEST PUSH1 0x0 DUP2 SWAP1 POP SWAP2 SWAP1 POP JUMP JUMPDEST PUSH2 0x243 DUP2 PUSH2 0x230 JUMP JUMPDEST DUP3 MSTORE POP POP JUMP JUMPDEST PUSH1 0x0 PUSH2 0x255 DUP4 DUP4 PUSH2 0x23A JUMP JUMPDEST PUSH1 0x20 DUP4 ADD SWAP1 POP SWAP3 SWAP2 POP POP JUMP JUMPDEST PUSH1 0x0 PUSH1 0x20 DUP3 ADD SWAP1 POP SWAP2 SWAP1 POP JUMP JUMPDEST PUSH2 0x277 DUP2 PUSH2 0x210 JUMP JUMPDEST PUSH2 0x281 DUP2 DUP5 PUSH2 0x21B JUMP JUMPDEST SWAP3 POP PUSH2 0x28C DUP3 PUSH2 0x226 JUMP JUMPDEST DUP1 PUSH1 0x0 JUMPDEST DUP4 DUP2 LT ISZERO PUSH2 0x2BD JUMPI DUP2 MLOAD PUSH2 0x2A4 DUP8 DUP3 PUSH2 0x249 JUMP JUMPDEST SWAP7 POP PUSH2 0x2AF DUP4 PUSH2 0x261 JUMP JUMPDEST SWAP3 POP POP PUSH1 0x1 DUP2 ADD SWAP1 POP PUSH2 0x290 JUMP JUMPDEST POP POP POP POP POP POP JUMP JUMPDEST PUSH1 0x0 PUSH1 0x80 DUP3 ADD SWAP1 POP PUSH2 0x2DA PUSH1 0x0 DUP4 ADD DUP5 PUSH2 0x26E JUMP JUMPDEST SWAP3 SWAP2 POP POP JUMP JUMPDEST PUSH1 0x0 DUP1 REVERT JUMPDEST PUSH1 0x0 DUP2 SWAP1 POP SWAP2 SWAP1 POP JUMP JUMPDEST PUSH2 0x2F8 DUP2 PUSH2 0x2E5 JUMP JUMPDEST DUP2 EQ PUSH2 0x303 JUMPI PUSH1 0x0 DUP1 REVERT JUMPDEST POP JUMP JUMPDEST PUSH1 0x0 DUP2 CALLDATALOAD SWAP1 POP PUSH2 0x315 DUP2 PUSH2 0x2EF JUMP JUMPDEST SWAP3 SWAP2 POP POP JUMP JUMPDEST PUSH1 0x0 PUSH1 0x20 DUP3 DUP5 SUB SLT ISZERO PUSH2 0x331 JUMPI PUSH2 0x330 PUSH2 0x2E0 JUMP JUMPDEST JUMPDEST PUSH1 0x0 PUSH2 0x33F DUP5 DUP3 DUP6 ADD PUSH2 0x306 JUMP JUMPDEST SWAP2 POP POP SWAP3 SWAP2 POP POP JUMP JUMPDEST PUSH2 0x351 DUP2 PUSH2 0x230 JUMP JUMPDEST DUP3 MSTORE POP POP JUMP JUMPDEST PUSH1 0x0 PUSH1 0x20 DUP3 ADD SWAP1 POP PUSH2 0x36C PUSH1 0x0 DUP4 ADD DUP5 PUSH2 0x348 JUMP JUMPDEST SWAP3 SWAP2 POP POP JUMP JUMPDEST PUSH2 0x37B DUP2 PUSH2 0x2E5 JUMP JUMPDEST DUP3 MSTORE POP POP JUMP JUMPDEST PUSH1 0x0 PUSH1 0x20 DUP3 ADD SWAP1 POP PUSH2 0x396 PUSH1 0x0 DUP4 ADD DUP5 PUSH2 0x372 JUMP JUMPDEST SWAP3 SWAP2 POP POP JUMP JUMPDEST PUSH32 0x4E487B7100000000000000000000000000000000000000000000000000000000 PUSH1 0x0 MSTORE PUSH1 0x32 PUSH1 0x4 MSTORE PUSH1 0x24 PUSH1 0x0 REVERT INVALID LOG2 PUSH5 0x6970667358 0x22 SLT KECCAK256 0x25 BYTE 0xD2 0xB4 0x29 0xF8 0xD0 0x4B 0xB7 SAR TIMESTAMP PUSH2 0xA36F JUMPI DUP4 PUSH24 0x4F4A44382C577EBEF76D9E7866871364736F6C6343000812 STOP CALLER "
				},
				"gasEstimates": {
					"creation": {
						"codeDepositCost": "205000",
						"executionCost": "251",
						"totalCost": "205251"
					},
					"external": {
						"arr3(uint256)": "2731",
						"del_declare()": "91740",
						"get()": "infinite",
						"getlength()": "359"
					}
				},
				"methodIdentifiers": {
					"arr3(uint256)": "8732ded8",
					"del_declare()": "ecd210e6",
					"get()": "6d4ce63c",
					"getlength()": "a16d3598"
				}
			},
			"storageLayout": {
				"storage": [
					{
						"astId": 107,
						"contract": "lab31_7/array_excercise.sol:Arrayed",
						"label": "arr3",
						"offset": 0,
						"slot": "0",
						"type": "t_array(t_int256)4_storage"
					}
				],
				"types": {
					"t_array(t_int256)4_storage": {
						"base": "t_int256",
						"encoding": "inplace",
						"label": "int256[4]",
						"numberOfBytes": "128"
					},
					"t_int256": {
						"encoding": "inplace",
						"label": "int256",
						"numberOfBytes": "32"
					}
				}
			},
			"userdoc": {
				"kind": "user",
				"methods": {},
				"version": 1
			}
		}
	}
}