{
	"data": {
		"bytecode": {
			"linkReferences": {},
			"object": "60806040527f686768676768676768676800000000000000000000000000000000000000000060005560005460066020811061003e5761003d61006e565b5b1a60f81b600160006101000a81548160ff021916908360f81c021790555034801561006857600080fd5b5061009d565b7f4e487b7100000000000000000000000000000000000000000000000000000000600052603260045260246000fd5b610150806100ac6000396000f3fe608060405234801561001057600080fd5b50600436106100365760003560e01c80635124e5541461003b578063ee49500214610059575b600080fd5b610043610077565b60405161005091906100a9565b60405180910390f35b61006161007d565b60405161006e91906100ff565b60405180910390f35b60005481565b600160009054906101000a900460f81b81565b6000819050919050565b6100a381610090565b82525050565b60006020820190506100be600083018461009a565b92915050565b60007fff0000000000000000000000000000000000000000000000000000000000000082169050919050565b6100f9816100c4565b82525050565b600060208201905061011460008301846100f0565b9291505056fea2646970667358221220cca78c589bae9fc642a9ea50cd701ecb45f3ba401bb280de6e4ab5dbb59ee02764736f6c63430008120033",
			"opcodes": "PUSH1 0x80 PUSH1 0x40 MSTORE PUSH32 0x6867686767686767686768000000000000000000000000000000000000000000 PUSH1 0x0 SSTORE PUSH1 0x0 SLOAD PUSH1 0x6 PUSH1 0x20 DUP2 LT PUSH2 0x3E JUMPI PUSH2 0x3D PUSH2 0x6E JUMP JUMPDEST JUMPDEST BYTE PUSH1 0xF8 SHL PUSH1 0x1 PUSH1 0x0 PUSH2 0x100 EXP DUP2 SLOAD DUP2 PUSH1 0xFF MUL NOT AND SWAP1 DUP4 PUSH1 0xF8 SHR MUL OR SWAP1 SSTORE POP CALLVALUE DUP1 ISZERO PUSH2 0x68 JUMPI PUSH1 0x0 DUP1 REVERT JUMPDEST POP PUSH2 0x9D JUMP JUMPDEST PUSH32 0x4E487B7100000000000000000000000000000000000000000000000000000000 PUSH1 0x0 MSTORE PUSH1 0x32 PUSH1 0x4 MSTORE PUSH1 0x24 PUSH1 0x0 REVERT JUMPDEST PUSH2 0x150 DUP1 PUSH2 0xAC PUSH1 0x0 CODECOPY PUSH1 0x0 RETURN INVALID PUSH1 0x80 PUSH1 0x40 MSTORE CALLVALUE DUP1 ISZERO PUSH2 0x10 JUMPI PUSH1 0x0 DUP1 REVERT JUMPDEST POP PUSH1 0x4 CALLDATASIZE LT PUSH2 0x36 JUMPI PUSH1 0x0 CALLDATALOAD PUSH1 0xE0 SHR DUP1 PUSH4 0x5124E554 EQ PUSH2 0x3B JUMPI DUP1 PUSH4 0xEE495002 EQ PUSH2 0x59 JUMPI JUMPDEST PUSH1 0x0 DUP1 REVERT JUMPDEST PUSH2 0x43 PUSH2 0x77 JUMP JUMPDEST PUSH1 0x40 MLOAD PUSH2 0x50 SWAP2 SWAP1 PUSH2 0xA9 JUMP JUMPDEST PUSH1 0x40 MLOAD DUP1 SWAP2 SUB SWAP1 RETURN JUMPDEST PUSH2 0x61 PUSH2 0x7D JUMP JUMPDEST PUSH1 0x40 MLOAD PUSH2 0x6E SWAP2 SWAP1 PUSH2 0xFF JUMP JUMPDEST PUSH1 0x40 MLOAD DUP1 SWAP2 SUB SWAP1 RETURN JUMPDEST PUSH1 0x0 SLOAD DUP2 JUMP JUMPDEST PUSH1 0x1 PUSH1 0x0 SWAP1 SLOAD SWAP1 PUSH2 0x100 EXP SWAP1 DIV PUSH1 0xF8 SHL DUP2 JUMP JUMPDEST PUSH1 0x0 DUP2 SWAP1 POP SWAP2 SWAP1 POP JUMP JUMPDEST PUSH2 0xA3 DUP2 PUSH2 0x90 JUMP JUMPDEST DUP3 MSTORE POP POP JUMP JUMPDEST PUSH1 0x0 PUSH1 0x20 DUP3 ADD SWAP1 POP PUSH2 0xBE PUSH1 0x0 DUP4 ADD DUP5 PUSH2 0x9A JUMP JUMPDEST SWAP3 SWAP2 POP POP JUMP JUMPDEST PUSH1 0x0 PUSH32 0xFF00000000000000000000000000000000000000000000000000000000000000 DUP3 AND SWAP1 POP SWAP2 SWAP1 POP JUMP JUMPDEST PUSH2 0xF9 DUP2 PUSH2 0xC4 JUMP JUMPDEST DUP3 MSTORE POP POP JUMP JUMPDEST PUSH1 0x0 PUSH1 0x20 DUP3 ADD SWAP1 POP PUSH2 0x114 PUSH1 0x0 DUP4 ADD DUP5 PUSH2 0xF0 JUMP JUMPDEST SWAP3 SWAP2 POP POP JUMP INVALID LOG2 PUSH5 0x6970667358 0x22 SLT KECCAK256 0xCC 0xA7 DUP13 PC SWAP12 0xAE SWAP16 0xC6 TIMESTAMP 0xA9 0xEA POP 0xCD PUSH17 0x1ECB45F3BA401BB280DE6E4AB5DBB59EE0 0x27 PUSH5 0x736F6C6343 STOP ADDMOD SLT STOP CALLER "
		},
		"gasEstimates": {
			"creation": {
				"codeDepositCost": "67200",
				"executionCost": "48637",
				"totalCost": "115837"
			},
			"external": {
				"b1()": "2471",
				"byte32()": "2407"
			}
		},
		"methodIdentifiers": {
			"b1()": "ee495002",
			"byte32()": "5124e554"
		}
	},
	"abi": [
		{
			"inputs": [],
			"name": "b1",
			"outputs": [
				{
					"internalType": "bytes1",
					"name": "",
					"type": "bytes1"
				}
			],
			"stateMutability": "view",
			"type": "function"
		},
		{
			"inputs": [],
			"name": "byte32",
			"outputs": [
				{
					"internalType": "bytes32",
					"name": "",
					"type": "bytes32"
				}
			],
			"stateMutability": "view",
			"type": "function"
		}
	]
}