{
	"contracts/Lab15/ternary.sol": {
		"score": {
			"abi": [
				{
					"inputs": [
						{
							"internalType": "uint8",
							"name": "total",
							"type": "uint8"
						}
					],
					"name": "demo",
					"outputs": [
						{
							"internalType": "bool",
							"name": "",
							"type": "bool"
						},
						{
							"internalType": "string",
							"name": "",
							"type": "string"
						}
					],
					"stateMutability": "pure",
					"type": "function"
				}
			],
			"devdoc": {
				"kind": "dev",
				"methods": {},
				"version": 1
			},
			"evm": {
				"assembly": "    /* \"contracts/Lab15/ternary.sol\":239:731  contract score {... */\n  mstore(0x40, 0x80)\n  callvalue\n  dup1\n  iszero\n  tag_1\n  jumpi\n  0x00\n  dup1\n  revert\ntag_1:\n  pop\n  dataSize(sub_0)\n  dup1\n  dataOffset(sub_0)\n  0x00\n  codecopy\n  0x00\n  return\nstop\n\nsub_0: assembly {\n        /* \"contracts/Lab15/ternary.sol\":239:731  contract score {... */\n      mstore(0x40, 0x80)\n      callvalue\n      dup1\n      iszero\n      tag_1\n      jumpi\n      0x00\n      dup1\n      revert\n    tag_1:\n      pop\n      jumpi(tag_2, lt(calldatasize, 0x04))\n      shr(0xe0, calldataload(0x00))\n      dup1\n      0xe3ecdd71\n      eq\n      tag_3\n      jumpi\n    tag_2:\n      0x00\n      dup1\n      revert\n        /* \"contracts/Lab15/ternary.sol\":263:728  function demo (uint8 total) public pure returns (bool, string memory) {... */\n    tag_3:\n      tag_4\n      0x04\n      dup1\n      calldatasize\n      sub\n      dup2\n      add\n      swap1\n      tag_5\n      swap2\n      swap1\n      tag_6\n      jump\t// in\n    tag_5:\n      tag_7\n      jump\t// in\n    tag_4:\n      mload(0x40)\n      tag_8\n      swap3\n      swap2\n      swap1\n      tag_9\n      jump\t// in\n    tag_8:\n      mload(0x40)\n      dup1\n      swap2\n      sub\n      swap1\n      return\n    tag_7:\n        /* \"contracts/Lab15/ternary.sol\":312:316  bool */\n      0x00\n        /* \"contracts/Lab15/ternary.sol\":318:331  string memory */\n      0x60\n        /* \"contracts/Lab15/ternary.sol\":355:357  80 */\n      0x50\n        /* \"contracts/Lab15/ternary.sol\":347:352  total */\n      dup4\n        /* \"contracts/Lab15/ternary.sol\":347:357  total >=80 */\n      0xff\n      and\n      lt\n        /* \"contracts/Lab15/ternary.sol\":344:719  if(total >=80){... */\n      tag_11\n      jumpi\n        /* \"contracts/Lab15/ternary.sol\":381:385  true */\n      0x01\n        /* \"contracts/Lab15/ternary.sol\":373:407  return (true, \"Achieved Gade : A\") */\n      mload(0x40)\n      dup1\n      0x40\n      add\n      0x40\n      mstore\n      dup1\n      0x11\n      dup2\n      mstore\n      0x20\n      add\n      0x41636869657665642047616465203a2041000000000000000000000000000000\n      dup2\n      mstore\n      pop\n      swap2\n      pop\n      swap2\n      pop\n      jump(tag_10)\n        /* \"contracts/Lab15/ternary.sol\":344:719  if(total >=80){... */\n    tag_11:\n        /* \"contracts/Lab15/ternary.sol\":450:452  60 */\n      0x3c\n        /* \"contracts/Lab15/ternary.sol\":442:447  total */\n      dup4\n        /* \"contracts/Lab15/ternary.sol\":442:452  total >=60 */\n      0xff\n      and\n      lt\n      iszero\n        /* \"contracts/Lab15/ternary.sol\":442:466  total >=60 && total <=79 */\n      dup1\n      iszero\n      tag_13\n      jumpi\n      pop\n        /* \"contracts/Lab15/ternary.sol\":464:466  79 */\n      0x4f\n        /* \"contracts/Lab15/ternary.sol\":456:461  total */\n      dup4\n        /* \"contracts/Lab15/ternary.sol\":456:466  total <=79 */\n      0xff\n      and\n      gt\n      iszero\n        /* \"contracts/Lab15/ternary.sol\":442:466  total >=60 && total <=79 */\n    tag_13:\n        /* \"contracts/Lab15/ternary.sol\":438:719  if (total >=60 && total <=79){... */\n      iszero\n      tag_14\n      jumpi\n        /* \"contracts/Lab15/ternary.sol\":490:494  true */\n      0x01\n        /* \"contracts/Lab15/ternary.sol\":482:516  return (true, \"Achieved Gade : B\") */\n      mload(0x40)\n      dup1\n      0x40\n      add\n      0x40\n      mstore\n      dup1\n      0x11\n      dup2\n      mstore\n      0x20\n      add\n      0x41636869657665642047616465203a2042000000000000000000000000000000\n      dup2\n      mstore\n      pop\n      swap2\n      pop\n      swap2\n      pop\n      jump(tag_10)\n        /* \"contracts/Lab15/ternary.sol\":438:719  if (total >=60 && total <=79){... */\n    tag_14:\n        /* \"contracts/Lab15/ternary.sol\":559:561  41 */\n      0x29\n        /* \"contracts/Lab15/ternary.sol\":551:556  total */\n      dup4\n        /* \"contracts/Lab15/ternary.sol\":551:561  total >=41 */\n      0xff\n      and\n      lt\n      iszero\n        /* \"contracts/Lab15/ternary.sol\":551:574  total >=41 && total <59 */\n      dup1\n      iszero\n      tag_16\n      jumpi\n      pop\n        /* \"contracts/Lab15/ternary.sol\":572:574  59 */\n      0x3b\n        /* \"contracts/Lab15/ternary.sol\":565:570  total */\n      dup4\n        /* \"contracts/Lab15/ternary.sol\":565:574  total <59 */\n      0xff\n      and\n      lt\n        /* \"contracts/Lab15/ternary.sol\":551:574  total >=41 && total <59 */\n    tag_16:\n        /* \"contracts/Lab15/ternary.sol\":547:719  if (total >=41 && total <59){... */\n      iszero\n      tag_17\n      jumpi\n        /* \"contracts/Lab15/ternary.sol\":598:603  false */\n      0x00\n        /* \"contracts/Lab15/ternary.sol\":590:624  return (false,\"Achieved Gade : C\") */\n      mload(0x40)\n      dup1\n      0x40\n      add\n      0x40\n      mstore\n      dup1\n      0x11\n      dup2\n      mstore\n      0x20\n      add\n      0x41636869657665642047616465203a2043000000000000000000000000000000\n      dup2\n      mstore\n      pop\n      swap2\n      pop\n      swap2\n      pop\n      jump(tag_10)\n        /* \"contracts/Lab15/ternary.sol\":547:719  if (total >=41 && total <59){... */\n    tag_17:\n        /* \"contracts/Lab15/ternary.sol\":677:682  false */\n      0x00\n        /* \"contracts/Lab15/ternary.sol\":669:707  return (false,\"Better Luck Next Time\") */\n      mload(0x40)\n      dup1\n      0x40\n      add\n      0x40\n      mstore\n      dup1\n      0x15\n      dup2\n      mstore\n      0x20\n      add\n      0x426574746572204c75636b204e6578742054696d650000000000000000000000\n      dup2\n      mstore\n      pop\n      swap2\n      pop\n      swap2\n      pop\n        /* \"contracts/Lab15/ternary.sol\":263:728  function demo (uint8 total) public pure returns (bool, string memory) {... */\n    tag_10:\n      swap2\n      pop\n      swap2\n      jump\t// out\n        /* \"#utility.yul\":88:205   */\n    tag_20:\n        /* \"#utility.yul\":197:198   */\n      0x00\n        /* \"#utility.yul\":194:195   */\n      dup1\n        /* \"#utility.yul\":187:199   */\n      revert\n        /* \"#utility.yul\":334:420   */\n    tag_22:\n        /* \"#utility.yul\":369:376   */\n      0x00\n        /* \"#utility.yul\":409:413   */\n      0xff\n        /* \"#utility.yul\":402:407   */\n      dup3\n        /* \"#utility.yul\":398:414   */\n      and\n        /* \"#utility.yul\":387:414   */\n      swap1\n      pop\n        /* \"#utility.yul\":334:420   */\n      swap2\n      swap1\n      pop\n      jump\t// out\n        /* \"#utility.yul\":426:544   */\n    tag_23:\n        /* \"#utility.yul\":497:519   */\n      tag_38\n        /* \"#utility.yul\":513:518   */\n      dup2\n        /* \"#utility.yul\":497:519   */\n      tag_22\n      jump\t// in\n    tag_38:\n        /* \"#utility.yul\":490:495   */\n      dup2\n        /* \"#utility.yul\":487:520   */\n      eq\n        /* \"#utility.yul\":477:538   */\n      tag_39\n      jumpi\n        /* \"#utility.yul\":534:535   */\n      0x00\n        /* \"#utility.yul\":531:532   */\n      dup1\n        /* \"#utility.yul\":524:536   */\n      revert\n        /* \"#utility.yul\":477:538   */\n    tag_39:\n        /* \"#utility.yul\":426:544   */\n      pop\n      jump\t// out\n        /* \"#utility.yul\":550:685   */\n    tag_24:\n        /* \"#utility.yul\":594:599   */\n      0x00\n        /* \"#utility.yul\":632:638   */\n      dup2\n        /* \"#utility.yul\":619:639   */\n      calldataload\n        /* \"#utility.yul\":610:639   */\n      swap1\n      pop\n        /* \"#utility.yul\":648:679   */\n      tag_41\n        /* \"#utility.yul\":673:678   */\n      dup2\n        /* \"#utility.yul\":648:679   */\n      tag_23\n      jump\t// in\n    tag_41:\n        /* \"#utility.yul\":550:685   */\n      swap3\n      swap2\n      pop\n      pop\n      jump\t// out\n        /* \"#utility.yul\":691:1016   */\n    tag_6:\n        /* \"#utility.yul\":748:754   */\n      0x00\n        /* \"#utility.yul\":797:799   */\n      0x20\n        /* \"#utility.yul\":785:794   */\n      dup3\n        /* \"#utility.yul\":776:783   */\n      dup5\n        /* \"#utility.yul\":772:795   */\n      sub\n        /* \"#utility.yul\":768:800   */\n      slt\n        /* \"#utility.yul\":765:884   */\n      iszero\n      tag_43\n      jumpi\n        /* \"#utility.yul\":803:882   */\n      tag_44\n      tag_20\n      jump\t// in\n    tag_44:\n        /* \"#utility.yul\":765:884   */\n    tag_43:\n        /* \"#utility.yul\":923:924   */\n      0x00\n        /* \"#utility.yul\":948:999   */\n      tag_45\n        /* \"#utility.yul\":991:998   */\n      dup5\n        /* \"#utility.yul\":982:988   */\n      dup3\n        /* \"#utility.yul\":971:980   */\n      dup6\n        /* \"#utility.yul\":967:989   */\n      add\n        /* \"#utility.yul\":948:999   */\n      tag_24\n      jump\t// in\n    tag_45:\n        /* \"#utility.yul\":938:999   */\n      swap2\n      pop\n        /* \"#utility.yul\":894:1009   */\n      pop\n        /* \"#utility.yul\":691:1016   */\n      swap3\n      swap2\n      pop\n      pop\n      jump\t// out\n        /* \"#utility.yul\":1022:1112   */\n    tag_25:\n        /* \"#utility.yul\":1056:1063   */\n      0x00\n        /* \"#utility.yul\":1099:1104   */\n      dup2\n        /* \"#utility.yul\":1092:1105   */\n      iszero\n        /* \"#utility.yul\":1085:1106   */\n      iszero\n        /* \"#utility.yul\":1074:1106   */\n      swap1\n      pop\n        /* \"#utility.yul\":1022:1112   */\n      swap2\n      swap1\n      pop\n      jump\t// out\n        /* \"#utility.yul\":1118:1227   */\n    tag_26:\n        /* \"#utility.yul\":1199:1220   */\n      tag_48\n        /* \"#utility.yul\":1214:1219   */\n      dup2\n        /* \"#utility.yul\":1199:1220   */\n      tag_25\n      jump\t// in\n    tag_48:\n        /* \"#utility.yul\":1194:1197   */\n      dup3\n        /* \"#utility.yul\":1187:1221   */\n      mstore\n        /* \"#utility.yul\":1118:1227   */\n      pop\n      pop\n      jump\t// out\n        /* \"#utility.yul\":1233:1332   */\n    tag_27:\n        /* \"#utility.yul\":1285:1291   */\n      0x00\n        /* \"#utility.yul\":1319:1324   */\n      dup2\n        /* \"#utility.yul\":1313:1325   */\n      mload\n        /* \"#utility.yul\":1303:1325   */\n      swap1\n      pop\n        /* \"#utility.yul\":1233:1332   */\n      swap2\n      swap1\n      pop\n      jump\t// out\n        /* \"#utility.yul\":1338:1507   */\n    tag_28:\n        /* \"#utility.yul\":1422:1433   */\n      0x00\n        /* \"#utility.yul\":1456:1462   */\n      dup3\n        /* \"#utility.yul\":1451:1454   */\n      dup3\n        /* \"#utility.yul\":1444:1463   */\n      mstore\n        /* \"#utility.yul\":1496:1500   */\n      0x20\n        /* \"#utility.yul\":1491:1494   */\n      dup3\n        /* \"#utility.yul\":1487:1501   */\n      add\n        /* \"#utility.yul\":1472:1501   */\n      swap1\n      pop\n        /* \"#utility.yul\":1338:1507   */\n      swap3\n      swap2\n      pop\n      pop\n      jump\t// out\n        /* \"#utility.yul\":1513:1759   */\n    tag_29:\n        /* \"#utility.yul\":1594:1595   */\n      0x00\n        /* \"#utility.yul\":1604:1717   */\n    tag_52:\n        /* \"#utility.yul\":1618:1624   */\n      dup4\n        /* \"#utility.yul\":1615:1616   */\n      dup2\n        /* \"#utility.yul\":1612:1625   */\n      lt\n        /* \"#utility.yul\":1604:1717   */\n      iszero\n      tag_54\n      jumpi\n        /* \"#utility.yul\":1703:1704   */\n      dup1\n        /* \"#utility.yul\":1698:1701   */\n      dup3\n        /* \"#utility.yul\":1694:1705   */\n      add\n        /* \"#utility.yul\":1688:1706   */\n      mload\n        /* \"#utility.yul\":1684:1685   */\n      dup2\n        /* \"#utility.yul\":1679:1682   */\n      dup5\n        /* \"#utility.yul\":1675:1686   */\n      add\n        /* \"#utility.yul\":1668:1707   */\n      mstore\n        /* \"#utility.yul\":1640:1642   */\n      0x20\n        /* \"#utility.yul\":1637:1638   */\n      dup2\n        /* \"#utility.yul\":1633:1643   */\n      add\n        /* \"#utility.yul\":1628:1643   */\n      swap1\n      pop\n        /* \"#utility.yul\":1604:1717   */\n      jump(tag_52)\n    tag_54:\n        /* \"#utility.yul\":1751:1752   */\n      0x00\n        /* \"#utility.yul\":1742:1748   */\n      dup5\n        /* \"#utility.yul\":1737:1740   */\n      dup5\n        /* \"#utility.yul\":1733:1749   */\n      add\n        /* \"#utility.yul\":1726:1753   */\n      mstore\n        /* \"#utility.yul\":1575:1759   */\n      pop\n        /* \"#utility.yul\":1513:1759   */\n      pop\n      pop\n      pop\n      jump\t// out\n        /* \"#utility.yul\":1765:1867   */\n    tag_30:\n        /* \"#utility.yul\":1806:1812   */\n      0x00\n        /* \"#utility.yul\":1857:1859   */\n      0x1f\n        /* \"#utility.yul\":1853:1860   */\n      not\n        /* \"#utility.yul\":1848:1850   */\n      0x1f\n        /* \"#utility.yul\":1841:1846   */\n      dup4\n        /* \"#utility.yul\":1837:1851   */\n      add\n        /* \"#utility.yul\":1833:1861   */\n      and\n        /* \"#utility.yul\":1823:1861   */\n      swap1\n      pop\n        /* \"#utility.yul\":1765:1867   */\n      swap2\n      swap1\n      pop\n      jump\t// out\n        /* \"#utility.yul\":1873:2250   */\n    tag_31:\n        /* \"#utility.yul\":1961:1964   */\n      0x00\n        /* \"#utility.yul\":1989:2028   */\n      tag_57\n        /* \"#utility.yul\":2022:2027   */\n      dup3\n        /* \"#utility.yul\":1989:2028   */\n      tag_27\n      jump\t// in\n    tag_57:\n        /* \"#utility.yul\":2044:2115   */\n      tag_58\n        /* \"#utility.yul\":2108:2114   */\n      dup2\n        /* \"#utility.yul\":2103:2106   */\n      dup6\n        /* \"#utility.yul\":2044:2115   */\n      tag_28\n      jump\t// in\n    tag_58:\n        /* \"#utility.yul\":2037:2115   */\n      swap4\n      pop\n        /* \"#utility.yul\":2124:2189   */\n      tag_59\n        /* \"#utility.yul\":2182:2188   */\n      dup2\n        /* \"#utility.yul\":2177:2180   */\n      dup6\n        /* \"#utility.yul\":2170:2174   */\n      0x20\n        /* \"#utility.yul\":2163:2168   */\n      dup7\n        /* \"#utility.yul\":2159:2175   */\n      add\n        /* \"#utility.yul\":2124:2189   */\n      tag_29\n      jump\t// in\n    tag_59:\n        /* \"#utility.yul\":2214:2243   */\n      tag_60\n        /* \"#utility.yul\":2236:2242   */\n      dup2\n        /* \"#utility.yul\":2214:2243   */\n      tag_30\n      jump\t// in\n    tag_60:\n        /* \"#utility.yul\":2209:2212   */\n      dup5\n        /* \"#utility.yul\":2205:2244   */\n      add\n        /* \"#utility.yul\":2198:2244   */\n      swap2\n      pop\n        /* \"#utility.yul\":1965:2250   */\n      pop\n        /* \"#utility.yul\":1873:2250   */\n      swap3\n      swap2\n      pop\n      pop\n      jump\t// out\n        /* \"#utility.yul\":2256:2667   */\n    tag_9:\n        /* \"#utility.yul\":2391:2395   */\n      0x00\n        /* \"#utility.yul\":2429:2431   */\n      0x40\n        /* \"#utility.yul\":2418:2427   */\n      dup3\n        /* \"#utility.yul\":2414:2432   */\n      add\n        /* \"#utility.yul\":2406:2432   */\n      swap1\n      pop\n        /* \"#utility.yul\":2442:2507   */\n      tag_62\n        /* \"#utility.yul\":2504:2505   */\n      0x00\n        /* \"#utility.yul\":2493:2502   */\n      dup4\n        /* \"#utility.yul\":2489:2506   */\n      add\n        /* \"#utility.yul\":2480:2486   */\n      dup6\n        /* \"#utility.yul\":2442:2507   */\n      tag_26\n      jump\t// in\n    tag_62:\n        /* \"#utility.yul\":2554:2563   */\n      dup2\n        /* \"#utility.yul\":2548:2552   */\n      dup2\n        /* \"#utility.yul\":2544:2564   */\n      sub\n        /* \"#utility.yul\":2539:2541   */\n      0x20\n        /* \"#utility.yul\":2528:2537   */\n      dup4\n        /* \"#utility.yul\":2524:2542   */\n      add\n        /* \"#utility.yul\":2517:2565   */\n      mstore\n        /* \"#utility.yul\":2582:2660   */\n      tag_63\n        /* \"#utility.yul\":2655:2659   */\n      dup2\n        /* \"#utility.yul\":2646:2652   */\n      dup5\n        /* \"#utility.yul\":2582:2660   */\n      tag_31\n      jump\t// in\n    tag_63:\n        /* \"#utility.yul\":2574:2660   */\n      swap1\n      pop\n        /* \"#utility.yul\":2256:2667   */\n      swap4\n      swap3\n      pop\n      pop\n      pop\n      jump\t// out\n\n    auxdata: 0xa264697066735822122029f9f563d4f8d0e2bf4e93b654d9ff2a8b701e96bbf7de82fcd76fe556e64b7c64736f6c63430008120033\n}\n",
				"bytecode": {
					"linkReferences": {},
					"object": "608060405234801561001057600080fd5b5061032a806100206000396000f3fe608060405234801561001057600080fd5b506004361061002b5760003560e01c8063e3ecdd7114610030575b600080fd5b61004a600480360381019061004591906101ec565b610061565b6040516100589291906102c4565b60405180910390f35b6000606060508360ff16106100b15760016040518060400160405280601181526020017f41636869657665642047616465203a2041000000000000000000000000000000815250915091506101a9565b603c8360ff16101580156100c95750604f8360ff1611155b1561010f5760016040518060400160405280601181526020017f41636869657665642047616465203a2042000000000000000000000000000000815250915091506101a9565b60298360ff16101580156101265750603b8360ff16105b1561016c5760006040518060400160405280601181526020017f41636869657665642047616465203a2043000000000000000000000000000000815250915091506101a9565b60006040518060400160405280601581526020017f426574746572204c75636b204e6578742054696d650000000000000000000000815250915091505b915091565b600080fd5b600060ff82169050919050565b6101c9816101b3565b81146101d457600080fd5b50565b6000813590506101e6816101c0565b92915050565b600060208284031215610202576102016101ae565b5b6000610210848285016101d7565b91505092915050565b60008115159050919050565b61022e81610219565b82525050565b600081519050919050565b600082825260208201905092915050565b60005b8381101561026e578082015181840152602081019050610253565b60008484015250505050565b6000601f19601f8301169050919050565b600061029682610234565b6102a0818561023f565b93506102b0818560208601610250565b6102b98161027a565b840191505092915050565b60006040820190506102d96000830185610225565b81810360208301526102eb818461028b565b9050939250505056fea264697066735822122029f9f563d4f8d0e2bf4e93b654d9ff2a8b701e96bbf7de82fcd76fe556e64b7c64736f6c63430008120033",
					"opcodes": "PUSH1 0x80 PUSH1 0x40 MSTORE CALLVALUE DUP1 ISZERO PUSH2 0x10 JUMPI PUSH1 0x0 DUP1 REVERT JUMPDEST POP PUSH2 0x32A DUP1 PUSH2 0x20 PUSH1 0x0 CODECOPY PUSH1 0x0 RETURN INVALID PUSH1 0x80 PUSH1 0x40 MSTORE CALLVALUE DUP1 ISZERO PUSH2 0x10 JUMPI PUSH1 0x0 DUP1 REVERT JUMPDEST POP PUSH1 0x4 CALLDATASIZE LT PUSH2 0x2B JUMPI PUSH1 0x0 CALLDATALOAD PUSH1 0xE0 SHR DUP1 PUSH4 0xE3ECDD71 EQ PUSH2 0x30 JUMPI JUMPDEST PUSH1 0x0 DUP1 REVERT JUMPDEST PUSH2 0x4A PUSH1 0x4 DUP1 CALLDATASIZE SUB DUP2 ADD SWAP1 PUSH2 0x45 SWAP2 SWAP1 PUSH2 0x1EC JUMP JUMPDEST PUSH2 0x61 JUMP JUMPDEST PUSH1 0x40 MLOAD PUSH2 0x58 SWAP3 SWAP2 SWAP1 PUSH2 0x2C4 JUMP JUMPDEST PUSH1 0x40 MLOAD DUP1 SWAP2 SUB SWAP1 RETURN JUMPDEST PUSH1 0x0 PUSH1 0x60 PUSH1 0x50 DUP4 PUSH1 0xFF AND LT PUSH2 0xB1 JUMPI PUSH1 0x1 PUSH1 0x40 MLOAD DUP1 PUSH1 0x40 ADD PUSH1 0x40 MSTORE DUP1 PUSH1 0x11 DUP2 MSTORE PUSH1 0x20 ADD PUSH32 0x41636869657665642047616465203A2041000000000000000000000000000000 DUP2 MSTORE POP SWAP2 POP SWAP2 POP PUSH2 0x1A9 JUMP JUMPDEST PUSH1 0x3C DUP4 PUSH1 0xFF AND LT ISZERO DUP1 ISZERO PUSH2 0xC9 JUMPI POP PUSH1 0x4F DUP4 PUSH1 0xFF AND GT ISZERO JUMPDEST ISZERO PUSH2 0x10F JUMPI PUSH1 0x1 PUSH1 0x40 MLOAD DUP1 PUSH1 0x40 ADD PUSH1 0x40 MSTORE DUP1 PUSH1 0x11 DUP2 MSTORE PUSH1 0x20 ADD PUSH32 0x41636869657665642047616465203A2042000000000000000000000000000000 DUP2 MSTORE POP SWAP2 POP SWAP2 POP PUSH2 0x1A9 JUMP JUMPDEST PUSH1 0x29 DUP4 PUSH1 0xFF AND LT ISZERO DUP1 ISZERO PUSH2 0x126 JUMPI POP PUSH1 0x3B DUP4 PUSH1 0xFF AND LT JUMPDEST ISZERO PUSH2 0x16C JUMPI PUSH1 0x0 PUSH1 0x40 MLOAD DUP1 PUSH1 0x40 ADD PUSH1 0x40 MSTORE DUP1 PUSH1 0x11 DUP2 MSTORE PUSH1 0x20 ADD PUSH32 0x41636869657665642047616465203A2043000000000000000000000000000000 DUP2 MSTORE POP SWAP2 POP SWAP2 POP PUSH2 0x1A9 JUMP JUMPDEST PUSH1 0x0 PUSH1 0x40 MLOAD DUP1 PUSH1 0x40 ADD PUSH1 0x40 MSTORE DUP1 PUSH1 0x15 DUP2 MSTORE PUSH1 0x20 ADD PUSH32 0x426574746572204C75636B204E6578742054696D650000000000000000000000 DUP2 MSTORE POP SWAP2 POP SWAP2 POP JUMPDEST SWAP2 POP SWAP2 JUMP JUMPDEST PUSH1 0x0 DUP1 REVERT JUMPDEST PUSH1 0x0 PUSH1 0xFF DUP3 AND SWAP1 POP SWAP2 SWAP1 POP JUMP JUMPDEST PUSH2 0x1C9 DUP2 PUSH2 0x1B3 JUMP JUMPDEST DUP2 EQ PUSH2 0x1D4 JUMPI PUSH1 0x0 DUP1 REVERT JUMPDEST POP JUMP JUMPDEST PUSH1 0x0 DUP2 CALLDATALOAD SWAP1 POP PUSH2 0x1E6 DUP2 PUSH2 0x1C0 JUMP JUMPDEST SWAP3 SWAP2 POP POP JUMP JUMPDEST PUSH1 0x0 PUSH1 0x20 DUP3 DUP5 SUB SLT ISZERO PUSH2 0x202 JUMPI PUSH2 0x201 PUSH2 0x1AE JUMP JUMPDEST JUMPDEST PUSH1 0x0 PUSH2 0x210 DUP5 DUP3 DUP6 ADD PUSH2 0x1D7 JUMP JUMPDEST SWAP2 POP POP SWAP3 SWAP2 POP POP JUMP JUMPDEST PUSH1 0x0 DUP2 ISZERO ISZERO SWAP1 POP SWAP2 SWAP1 POP JUMP JUMPDEST PUSH2 0x22E DUP2 PUSH2 0x219 JUMP JUMPDEST DUP3 MSTORE POP POP JUMP JUMPDEST PUSH1 0x0 DUP2 MLOAD SWAP1 POP SWAP2 SWAP1 POP JUMP JUMPDEST PUSH1 0x0 DUP3 DUP3 MSTORE PUSH1 0x20 DUP3 ADD SWAP1 POP SWAP3 SWAP2 POP POP JUMP JUMPDEST PUSH1 0x0 JUMPDEST DUP4 DUP2 LT ISZERO PUSH2 0x26E JUMPI DUP1 DUP3 ADD MLOAD DUP2 DUP5 ADD MSTORE PUSH1 0x20 DUP2 ADD SWAP1 POP PUSH2 0x253 JUMP JUMPDEST PUSH1 0x0 DUP5 DUP5 ADD MSTORE POP POP POP POP JUMP JUMPDEST PUSH1 0x0 PUSH1 0x1F NOT PUSH1 0x1F DUP4 ADD AND SWAP1 POP SWAP2 SWAP1 POP JUMP JUMPDEST PUSH1 0x0 PUSH2 0x296 DUP3 PUSH2 0x234 JUMP JUMPDEST PUSH2 0x2A0 DUP2 DUP6 PUSH2 0x23F JUMP JUMPDEST SWAP4 POP PUSH2 0x2B0 DUP2 DUP6 PUSH1 0x20 DUP7 ADD PUSH2 0x250 JUMP JUMPDEST PUSH2 0x2B9 DUP2 PUSH2 0x27A JUMP JUMPDEST DUP5 ADD SWAP2 POP POP SWAP3 SWAP2 POP POP JUMP JUMPDEST PUSH1 0x0 PUSH1 0x40 DUP3 ADD SWAP1 POP PUSH2 0x2D9 PUSH1 0x0 DUP4 ADD DUP6 PUSH2 0x225 JUMP JUMPDEST DUP2 DUP2 SUB PUSH1 0x20 DUP4 ADD MSTORE PUSH2 0x2EB DUP2 DUP5 PUSH2 0x28B JUMP JUMPDEST SWAP1 POP SWAP4 SWAP3 POP POP POP JUMP INVALID LOG2 PUSH5 0x6970667358 0x22 SLT KECCAK256 0x29 0xF9 CREATE2 PUSH4 0xD4F8D0E2 0xBF 0x4E SWAP4 0xB6 SLOAD 0xD9 SELFDESTRUCT 0x2A DUP12 PUSH17 0x1E96BBF7DE82FCD76FE556E64B7C64736F PUSH13 0x63430008120033000000000000 "
				},
				"gasEstimates": {
					"creation": {
						"codeDepositCost": "162000",
						"executionCost": "208",
						"totalCost": "162208"
					},
					"external": {
						"demo(uint8)": "infinite"
					}
				},
				"methodIdentifiers": {
					"demo(uint8)": "e3ecdd71"
				}
			},
			"storageLayout": {
				"storage": [],
				"types": null
			},
			"userdoc": {
				"kind": "user",
				"methods": {},
				"version": 1
			}
		}
	}
}