{
	"lab(Enums)/file.sol": {
		"PizzaDeli": {
			"abi": [
				{
					"inputs": [],
					"name": "del",
					"outputs": [],
					"stateMutability": "nonpayable",
					"type": "function"
				},
				{
					"inputs": [],
					"name": "e2",
					"outputs": [
						{
							"internalType": "enum PizzaDeli.pizzaOrder",
							"name": "",
							"type": "uint8"
						}
					],
					"stateMutability": "view",
					"type": "function"
				},
				{
					"inputs": [],
					"name": "e3",
					"outputs": [
						{
							"internalType": "enum PizzaDeli.pizzaOrder",
							"name": "",
							"type": "uint8"
						}
					],
					"stateMutability": "view",
					"type": "function"
				},
				{
					"inputs": [],
					"name": "e4",
					"outputs": [
						{
							"internalType": "enum PizzaDeli.pizzaOrder",
							"name": "",
							"type": "uint8"
						}
					],
					"stateMutability": "view",
					"type": "function"
				},
				{
					"inputs": [],
					"name": "e5",
					"outputs": [
						{
							"internalType": "enum PizzaDeli.pizzaOrder",
							"name": "",
							"type": "uint8"
						}
					],
					"stateMutability": "view",
					"type": "function"
				},
				{
					"inputs": [],
					"name": "get",
					"outputs": [
						{
							"internalType": "enum PizzaDeli.pizzaOrder",
							"name": "",
							"type": "uint8"
						}
					],
					"stateMutability": "view",
					"type": "function"
				},
				{
					"inputs": [],
					"name": "get01",
					"outputs": [
						{
							"internalType": "enum PizzaDeli.pizzaOrder",
							"name": "",
							"type": "uint8"
						},
						{
							"internalType": "enum PizzaDeli.pizzaOrder",
							"name": "",
							"type": "uint8"
						},
						{
							"internalType": "enum PizzaDeli.pizzaOrder",
							"name": "",
							"type": "uint8"
						},
						{
							"internalType": "enum PizzaDeli.pizzaOrder",
							"name": "",
							"type": "uint8"
						}
					],
					"stateMutability": "view",
					"type": "function"
				},
				{
					"inputs": [
						{
							"internalType": "enum PizzaDeli.pizzaOrder",
							"name": "y",
							"type": "uint8"
						}
					],
					"name": "setting",
					"outputs": [],
					"stateMutability": "nonpayable",
					"type": "function"
				},
				{
					"inputs": [
						{
							"internalType": "enum PizzaDeli.pizzaOrder",
							"name": "_i",
							"type": "uint8"
						}
					],
					"name": "to_set",
					"outputs": [],
					"stateMutability": "nonpayable",
					"type": "function"
				}
			],
			"devdoc": {
				"kind": "dev",
				"methods": {},
				"version": 1
			},
			"evm": {
				"assembly": "    /* \"lab(Enums)/file.sol\":748:1636  contract PizzaDeli{... */\n  mstore(0x40, 0x80)\n    /* \"lab(Enums)/file.sol\":972:992  pizzaOrder.Preparing */\n  0x01\n    /* \"lab(Enums)/file.sol\":949:992  pizzaOrder public e3 = pizzaOrder.Preparing */\n  0x00\n  exp(0x0100, 0x01)\n  dup2\n  sload\n  dup2\n  0xff\n  mul\n  not\n  and\n  swap1\n  dup4\n  0x03\n  dup2\n  gt\n  iszero\n  tag_1\n  jumpi\n  tag_2\n  tag_3\n  jump\t// in\ntag_2:\ntag_1:\n  mul\n  or\n  swap1\n  sstore\n  pop\n    /* \"lab(Enums)/file.sol\":1033:1034  3 */\n  0x03\n    /* \"lab(Enums)/file.sol\":1022:1035  pizzaOrder(3) */\n  dup1\n  dup2\n  gt\n  iszero\n  tag_4\n  jumpi\n  tag_5\n  tag_3\n  jump\t// in\ntag_5:\ntag_4:\n    /* \"lab(Enums)/file.sol\":999:1035  pizzaOrder public e4 = pizzaOrder(3) */\n  0x00\n  exp(0x0100, 0x02)\n  dup2\n  sload\n  dup2\n  0xff\n  mul\n  not\n  and\n  swap1\n  dup4\n  0x03\n  dup2\n  gt\n  iszero\n  tag_6\n  jumpi\n  tag_7\n  tag_3\n  jump\t// in\ntag_7:\ntag_6:\n  mul\n  or\n  swap1\n  sstore\n  pop\n    /* \"lab(Enums)/file.sol\":748:1636  contract PizzaDeli{... */\n  callvalue\n  dup1\n  iszero\n  tag_8\n  jumpi\n  0x00\n  dup1\n  revert\ntag_8:\n  pop\n  jump(tag_9)\n    /* \"#utility.yul\":7:187   */\ntag_3:\n    /* \"#utility.yul\":55:132   */\n  0x4e487b7100000000000000000000000000000000000000000000000000000000\n    /* \"#utility.yul\":52:53   */\n  0x00\n    /* \"#utility.yul\":45:133   */\n  mstore\n    /* \"#utility.yul\":152:156   */\n  0x21\n    /* \"#utility.yul\":149:150   */\n  0x04\n    /* \"#utility.yul\":142:157   */\n  mstore\n    /* \"#utility.yul\":176:180   */\n  0x24\n    /* \"#utility.yul\":173:174   */\n  0x00\n    /* \"#utility.yul\":166:181   */\n  revert\n    /* \"lab(Enums)/file.sol\":748:1636  contract PizzaDeli{... */\ntag_9:\n  dataSize(sub_0)\n  dup1\n  dataOffset(sub_0)\n  0x00\n  codecopy\n  0x00\n  return\nstop\n\nsub_0: assembly {\n        /* \"lab(Enums)/file.sol\":748:1636  contract PizzaDeli{... */\n      mstore(0x40, 0x80)\n      callvalue\n      dup1\n      iszero\n      tag_1\n      jumpi\n      0x00\n      dup1\n      revert\n    tag_1:\n      pop\n      jumpi(tag_2, lt(calldatasize, 0x04))\n      shr(0xe0, calldataload(0x00))\n      dup1\n      0x79e5f054\n      gt\n      tag_12\n      jumpi\n      dup1\n      0x79e5f054\n      eq\n      tag_7\n      jumpi\n      dup1\n      0x972a2ec2\n      eq\n      tag_8\n      jumpi\n      dup1\n      0x9b31f9e8\n      eq\n      tag_9\n      jumpi\n      dup1\n      0xb644ac27\n      eq\n      tag_10\n      jumpi\n      dup1\n      0xb6588ffd\n      eq\n      tag_11\n      jumpi\n      jump(tag_2)\n    tag_12:\n      dup1\n      0x207be3\n      eq\n      tag_3\n      jumpi\n      dup1\n      0x3e8d7a30\n      eq\n      tag_4\n      jumpi\n      dup1\n      0x56800b52\n      eq\n      tag_5\n      jumpi\n      dup1\n      0x6d4ce63c\n      eq\n      tag_6\n      jumpi\n    tag_2:\n      0x00\n      dup1\n      revert\n        /* \"lab(Enums)/file.sol\":1176:1240  function to_set(pizzaOrder _i) public {... */\n    tag_3:\n      tag_13\n      0x04\n      dup1\n      calldatasize\n      sub\n      dup2\n      add\n      swap1\n      tag_14\n      swap2\n      swap1\n      tag_15\n      jump\t// in\n    tag_14:\n      tag_16\n      jump\t// in\n    tag_13:\n      stop\n        /* \"lab(Enums)/file.sol\":1378:1500  function get01()public view returns (pizzaOrder, pizzaOrder, pizzaOrder,pizzaOrder){... */\n    tag_4:\n      tag_17\n      tag_18\n      jump\t// in\n    tag_17:\n      mload(0x40)\n      tag_19\n      swap5\n      swap4\n      swap3\n      swap2\n      swap1\n      tag_20\n      jump\t// in\n    tag_19:\n      mload(0x40)\n      dup1\n      swap2\n      sub\n      swap1\n      return\n        /* \"lab(Enums)/file.sol\":949:992  pizzaOrder public e3 = pizzaOrder.Preparing */\n    tag_5:\n      tag_21\n      tag_22\n      jump\t// in\n    tag_21:\n      mload(0x40)\n      tag_23\n      swap2\n      swap1\n      tag_24\n      jump\t// in\n    tag_23:\n      mload(0x40)\n      dup1\n      swap2\n      sub\n      swap1\n      return\n        /* \"lab(Enums)/file.sol\":1297:1372  function get() public view returns (pizzaOrder){... */\n    tag_6:\n      tag_25\n      tag_26\n      jump\t// in\n    tag_25:\n      mload(0x40)\n      tag_27\n      swap2\n      swap1\n      tag_24\n      jump\t// in\n    tag_27:\n      mload(0x40)\n      dup1\n      swap2\n      sub\n      swap1\n      return\n        /* \"lab(Enums)/file.sol\":999:1035  pizzaOrder public e4 = pizzaOrder(3) */\n    tag_7:\n      tag_28\n      tag_29\n      jump\t// in\n    tag_28:\n      mload(0x40)\n      tag_30\n      swap2\n      swap1\n      tag_24\n      jump\t// in\n    tag_30:\n      mload(0x40)\n      dup1\n      swap2\n      sub\n      swap1\n      return\n        /* \"lab(Enums)/file.sol\":1108:1170  function setting(pizzaOrder y)public {... */\n    tag_8:\n      tag_31\n      0x04\n      dup1\n      calldatasize\n      sub\n      dup2\n      add\n      swap1\n      tag_32\n      swap2\n      swap1\n      tag_15\n      jump\t// in\n    tag_32:\n      tag_33\n      jump\t// in\n    tag_31:\n      stop\n        /* \"lab(Enums)/file.sol\":922:942  pizzaOrder public e2 */\n    tag_9:\n      tag_34\n      tag_35\n      jump\t// in\n    tag_34:\n      mload(0x40)\n      tag_36\n      swap2\n      swap1\n      tag_24\n      jump\t// in\n    tag_36:\n      mload(0x40)\n      dup1\n      swap2\n      sub\n      swap1\n      return\n        /* \"lab(Enums)/file.sol\":1080:1100  pizzaOrder public e5 */\n    tag_10:\n      tag_37\n      tag_38\n      jump\t// in\n    tag_37:\n      mload(0x40)\n      tag_39\n      swap2\n      swap1\n      tag_24\n      jump\t// in\n    tag_39:\n      mload(0x40)\n      dup1\n      swap2\n      sub\n      swap1\n      return\n        /* \"lab(Enums)/file.sol\":1580:1629  function del()public {... */\n    tag_11:\n      tag_40\n      tag_41\n      jump\t// in\n    tag_40:\n      stop\n        /* \"lab(Enums)/file.sol\":1176:1240  function to_set(pizzaOrder _i) public {... */\n    tag_16:\n        /* \"lab(Enums)/file.sol\":1230:1232  _i */\n      dup1\n        /* \"lab(Enums)/file.sol\":1225:1227  e2 */\n      0x00\n      dup1\n        /* \"lab(Enums)/file.sol\":1225:1232  e2 = _i */\n      0x0100\n      exp\n      dup2\n      sload\n      dup2\n      0xff\n      mul\n      not\n      and\n      swap1\n      dup4\n      0x03\n      dup2\n      gt\n      iszero\n      tag_43\n      jumpi\n      tag_44\n      tag_45\n      jump\t// in\n    tag_44:\n    tag_43:\n      mul\n      or\n      swap1\n      sstore\n      pop\n        /* \"lab(Enums)/file.sol\":1176:1240  function to_set(pizzaOrder _i) public {... */\n      pop\n      jump\t// out\n        /* \"lab(Enums)/file.sol\":1378:1500  function get01()public view returns (pizzaOrder, pizzaOrder, pizzaOrder,pizzaOrder){... */\n    tag_18:\n        /* \"lab(Enums)/file.sol\":1415:1425  pizzaOrder */\n      0x00\n        /* \"lab(Enums)/file.sol\":1427:1437  pizzaOrder */\n      dup1\n        /* \"lab(Enums)/file.sol\":1439:1449  pizzaOrder */\n      0x00\n        /* \"lab(Enums)/file.sol\":1450:1460  pizzaOrder */\n      dup1\n        /* \"lab(Enums)/file.sol\":1480:1482  e2 */\n      0x00\n      dup1\n      sload\n      swap1\n      0x0100\n      exp\n      swap1\n      div\n      0xff\n      and\n        /* \"lab(Enums)/file.sol\":1483:1485  e3 */\n      0x00\n      0x01\n      swap1\n      sload\n      swap1\n      0x0100\n      exp\n      swap1\n      div\n      0xff\n      and\n        /* \"lab(Enums)/file.sol\":1486:1488  e4 */\n      0x00\n      0x02\n      swap1\n      sload\n      swap1\n      0x0100\n      exp\n      swap1\n      div\n      0xff\n      and\n        /* \"lab(Enums)/file.sol\":1489:1491  e5 */\n      0x00\n      0x03\n      swap1\n      sload\n      swap1\n      0x0100\n      exp\n      swap1\n      div\n      0xff\n      and\n        /* \"lab(Enums)/file.sol\":1472:1492  return (e2,e3,e4,e5) */\n      swap4\n      pop\n      swap4\n      pop\n      swap4\n      pop\n      swap4\n      pop\n        /* \"lab(Enums)/file.sol\":1378:1500  function get01()public view returns (pizzaOrder, pizzaOrder, pizzaOrder,pizzaOrder){... */\n      swap1\n      swap2\n      swap3\n      swap4\n      jump\t// out\n        /* \"lab(Enums)/file.sol\":949:992  pizzaOrder public e3 = pizzaOrder.Preparing */\n    tag_22:\n      0x00\n      0x01\n      swap1\n      sload\n      swap1\n      0x0100\n      exp\n      swap1\n      div\n      0xff\n      and\n      dup2\n      jump\t// out\n        /* \"lab(Enums)/file.sol\":1297:1372  function get() public view returns (pizzaOrder){... */\n    tag_26:\n        /* \"lab(Enums)/file.sol\":1333:1343  pizzaOrder */\n      0x00\n        /* \"lab(Enums)/file.sol\":1362:1364  e5 */\n      dup1\n      0x03\n      swap1\n      sload\n      swap1\n      0x0100\n      exp\n      swap1\n      div\n      0xff\n      and\n        /* \"lab(Enums)/file.sol\":1355:1364  return e5 */\n      swap1\n      pop\n        /* \"lab(Enums)/file.sol\":1297:1372  function get() public view returns (pizzaOrder){... */\n      swap1\n      jump\t// out\n        /* \"lab(Enums)/file.sol\":999:1035  pizzaOrder public e4 = pizzaOrder(3) */\n    tag_29:\n      0x00\n      0x02\n      swap1\n      sload\n      swap1\n      0x0100\n      exp\n      swap1\n      div\n      0xff\n      and\n      dup2\n      jump\t// out\n        /* \"lab(Enums)/file.sol\":1108:1170  function setting(pizzaOrder y)public {... */\n    tag_33:\n        /* \"lab(Enums)/file.sol\":1161:1162  y */\n      dup1\n        /* \"lab(Enums)/file.sol\":1156:1158  e5 */\n      0x00\n      0x03\n        /* \"lab(Enums)/file.sol\":1156:1162  e5 = y */\n      0x0100\n      exp\n      dup2\n      sload\n      dup2\n      0xff\n      mul\n      not\n      and\n      swap1\n      dup4\n      0x03\n      dup2\n      gt\n      iszero\n      tag_49\n      jumpi\n      tag_50\n      tag_45\n      jump\t// in\n    tag_50:\n    tag_49:\n      mul\n      or\n      swap1\n      sstore\n      pop\n        /* \"lab(Enums)/file.sol\":1108:1170  function setting(pizzaOrder y)public {... */\n      pop\n      jump\t// out\n        /* \"lab(Enums)/file.sol\":922:942  pizzaOrder public e2 */\n    tag_35:\n      0x00\n      dup1\n      sload\n      swap1\n      0x0100\n      exp\n      swap1\n      div\n      0xff\n      and\n      dup2\n      jump\t// out\n        /* \"lab(Enums)/file.sol\":1080:1100  pizzaOrder public e5 */\n    tag_38:\n      0x00\n      0x03\n      swap1\n      sload\n      swap1\n      0x0100\n      exp\n      swap1\n      div\n      0xff\n      and\n      dup2\n      jump\t// out\n        /* \"lab(Enums)/file.sol\":1580:1629  function del()public {... */\n    tag_41:\n        /* \"lab(Enums)/file.sol\":1619:1621  e5 */\n      0x00\n      0x03\n        /* \"lab(Enums)/file.sol\":1612:1621  delete e5 */\n      0x0100\n      exp\n      dup2\n      sload\n      swap1\n      0xff\n      mul\n      not\n      and\n      swap1\n      sstore\n        /* \"lab(Enums)/file.sol\":1580:1629  function del()public {... */\n      jump\t// out\n        /* \"#utility.yul\":88:205   */\n    tag_53:\n        /* \"#utility.yul\":197:198   */\n      0x00\n        /* \"#utility.yul\":194:195   */\n      dup1\n        /* \"#utility.yul\":187:199   */\n      revert\n        /* \"#utility.yul\":334:446   */\n    tag_55:\n        /* \"#utility.yul\":420:421   */\n      0x04\n        /* \"#utility.yul\":413:418   */\n      dup2\n        /* \"#utility.yul\":410:422   */\n      lt\n        /* \"#utility.yul\":400:440   */\n      tag_66\n      jumpi\n        /* \"#utility.yul\":436:437   */\n      0x00\n        /* \"#utility.yul\":433:434   */\n      dup1\n        /* \"#utility.yul\":426:438   */\n      revert\n        /* \"#utility.yul\":400:440   */\n    tag_66:\n        /* \"#utility.yul\":334:446   */\n      pop\n      jump\t// out\n        /* \"#utility.yul\":452:617   */\n    tag_56:\n        /* \"#utility.yul\":511:516   */\n      0x00\n        /* \"#utility.yul\":549:555   */\n      dup2\n        /* \"#utility.yul\":536:556   */\n      calldataload\n        /* \"#utility.yul\":527:556   */\n      swap1\n      pop\n        /* \"#utility.yul\":565:611   */\n      tag_68\n        /* \"#utility.yul\":605:610   */\n      dup2\n        /* \"#utility.yul\":565:611   */\n      tag_55\n      jump\t// in\n    tag_68:\n        /* \"#utility.yul\":452:617   */\n      swap3\n      swap2\n      pop\n      pop\n      jump\t// out\n        /* \"#utility.yul\":623:978   */\n    tag_15:\n        /* \"#utility.yul\":695:701   */\n      0x00\n        /* \"#utility.yul\":744:746   */\n      0x20\n        /* \"#utility.yul\":732:741   */\n      dup3\n        /* \"#utility.yul\":723:730   */\n      dup5\n        /* \"#utility.yul\":719:742   */\n      sub\n        /* \"#utility.yul\":715:747   */\n      slt\n        /* \"#utility.yul\":712:831   */\n      iszero\n      tag_70\n      jumpi\n        /* \"#utility.yul\":750:829   */\n      tag_71\n      tag_53\n      jump\t// in\n    tag_71:\n        /* \"#utility.yul\":712:831   */\n    tag_70:\n        /* \"#utility.yul\":870:871   */\n      0x00\n        /* \"#utility.yul\":895:961   */\n      tag_72\n        /* \"#utility.yul\":953:960   */\n      dup5\n        /* \"#utility.yul\":944:950   */\n      dup3\n        /* \"#utility.yul\":933:942   */\n      dup6\n        /* \"#utility.yul\":929:951   */\n      add\n        /* \"#utility.yul\":895:961   */\n      tag_56\n      jump\t// in\n    tag_72:\n        /* \"#utility.yul\":885:961   */\n      swap2\n      pop\n        /* \"#utility.yul\":841:971   */\n      pop\n        /* \"#utility.yul\":623:978   */\n      swap3\n      swap2\n      pop\n      pop\n      jump\t// out\n        /* \"#utility.yul\":984:1164   */\n    tag_45:\n        /* \"#utility.yul\":1032:1109   */\n      0x4e487b7100000000000000000000000000000000000000000000000000000000\n        /* \"#utility.yul\":1029:1030   */\n      0x00\n        /* \"#utility.yul\":1022:1110   */\n      mstore\n        /* \"#utility.yul\":1129:1133   */\n      0x21\n        /* \"#utility.yul\":1126:1127   */\n      0x04\n        /* \"#utility.yul\":1119:1134   */\n      mstore\n        /* \"#utility.yul\":1153:1157   */\n      0x24\n        /* \"#utility.yul\":1150:1151   */\n      0x00\n        /* \"#utility.yul\":1143:1158   */\n      revert\n        /* \"#utility.yul\":1170:1288   */\n    tag_57:\n        /* \"#utility.yul\":1256:1257   */\n      0x04\n        /* \"#utility.yul\":1249:1254   */\n      dup2\n        /* \"#utility.yul\":1246:1258   */\n      lt\n        /* \"#utility.yul\":1236:1282   */\n      tag_75\n      jumpi\n        /* \"#utility.yul\":1262:1280   */\n      tag_76\n      tag_45\n      jump\t// in\n    tag_76:\n        /* \"#utility.yul\":1236:1282   */\n    tag_75:\n        /* \"#utility.yul\":1170:1288   */\n      pop\n      jump\t// out\n        /* \"#utility.yul\":1294:1431   */\n    tag_58:\n        /* \"#utility.yul\":1344:1351   */\n      0x00\n        /* \"#utility.yul\":1373:1378   */\n      dup2\n        /* \"#utility.yul\":1362:1378   */\n      swap1\n      pop\n        /* \"#utility.yul\":1379:1425   */\n      tag_78\n        /* \"#utility.yul\":1419:1424   */\n      dup3\n        /* \"#utility.yul\":1379:1425   */\n      tag_57\n      jump\t// in\n    tag_78:\n        /* \"#utility.yul\":1294:1431   */\n      swap2\n      swap1\n      pop\n      jump\t// out\n        /* \"#utility.yul\":1437:1574   */\n    tag_59:\n        /* \"#utility.yul\":1498:1507   */\n      0x00\n        /* \"#utility.yul\":1531:1568   */\n      tag_80\n        /* \"#utility.yul\":1562:1567   */\n      dup3\n        /* \"#utility.yul\":1531:1568   */\n      tag_58\n      jump\t// in\n    tag_80:\n        /* \"#utility.yul\":1518:1568   */\n      swap1\n      pop\n        /* \"#utility.yul\":1437:1574   */\n      swap2\n      swap1\n      pop\n      jump\t// out\n        /* \"#utility.yul\":1580:1733   */\n    tag_60:\n        /* \"#utility.yul\":1678:1726   */\n      tag_82\n        /* \"#utility.yul\":1720:1725   */\n      dup2\n        /* \"#utility.yul\":1678:1726   */\n      tag_59\n      jump\t// in\n    tag_82:\n        /* \"#utility.yul\":1673:1676   */\n      dup3\n        /* \"#utility.yul\":1666:1727   */\n      mstore\n        /* \"#utility.yul\":1580:1733   */\n      pop\n      pop\n      jump\t// out\n        /* \"#utility.yul\":1739:2380   */\n    tag_20:\n        /* \"#utility.yul\":1960:1964   */\n      0x00\n        /* \"#utility.yul\":1998:2001   */\n      0x80\n        /* \"#utility.yul\":1987:1996   */\n      dup3\n        /* \"#utility.yul\":1983:2002   */\n      add\n        /* \"#utility.yul\":1975:2002   */\n      swap1\n      pop\n        /* \"#utility.yul\":2012:2094   */\n      tag_84\n        /* \"#utility.yul\":2091:2092   */\n      0x00\n        /* \"#utility.yul\":2080:2089   */\n      dup4\n        /* \"#utility.yul\":2076:2093   */\n      add\n        /* \"#utility.yul\":2067:2073   */\n      dup8\n        /* \"#utility.yul\":2012:2094   */\n      tag_60\n      jump\t// in\n    tag_84:\n        /* \"#utility.yul\":2104:2187   */\n      tag_85\n        /* \"#utility.yul\":2183:2185   */\n      0x20\n        /* \"#utility.yul\":2172:2181   */\n      dup4\n        /* \"#utility.yul\":2168:2186   */\n      add\n        /* \"#utility.yul\":2159:2165   */\n      dup7\n        /* \"#utility.yul\":2104:2187   */\n      tag_60\n      jump\t// in\n    tag_85:\n        /* \"#utility.yul\":2197:2280   */\n      tag_86\n        /* \"#utility.yul\":2276:2278   */\n      0x40\n        /* \"#utility.yul\":2265:2274   */\n      dup4\n        /* \"#utility.yul\":2261:2279   */\n      add\n        /* \"#utility.yul\":2252:2258   */\n      dup6\n        /* \"#utility.yul\":2197:2280   */\n      tag_60\n      jump\t// in\n    tag_86:\n        /* \"#utility.yul\":2290:2373   */\n      tag_87\n        /* \"#utility.yul\":2369:2371   */\n      0x60\n        /* \"#utility.yul\":2358:2367   */\n      dup4\n        /* \"#utility.yul\":2354:2372   */\n      add\n        /* \"#utility.yul\":2345:2351   */\n      dup5\n        /* \"#utility.yul\":2290:2373   */\n      tag_60\n      jump\t// in\n    tag_87:\n        /* \"#utility.yul\":1739:2380   */\n      swap6\n      swap5\n      pop\n      pop\n      pop\n      pop\n      pop\n      jump\t// out\n        /* \"#utility.yul\":2386:2630   */\n    tag_24:\n        /* \"#utility.yul\":2490:2494   */\n      0x00\n        /* \"#utility.yul\":2528:2530   */\n      0x20\n        /* \"#utility.yul\":2517:2526   */\n      dup3\n        /* \"#utility.yul\":2513:2531   */\n      add\n        /* \"#utility.yul\":2505:2531   */\n      swap1\n      pop\n        /* \"#utility.yul\":2541:2623   */\n      tag_89\n        /* \"#utility.yul\":2620:2621   */\n      0x00\n        /* \"#utility.yul\":2609:2618   */\n      dup4\n        /* \"#utility.yul\":2605:2622   */\n      add\n        /* \"#utility.yul\":2596:2602   */\n      dup5\n        /* \"#utility.yul\":2541:2623   */\n      tag_60\n      jump\t// in\n    tag_89:\n        /* \"#utility.yul\":2386:2630   */\n      swap3\n      swap2\n      pop\n      pop\n      jump\t// out\n\n    auxdata: 0xa2646970667358221220efdf75023da12cd834a43388a5cd0176d869905848f76de0600a05dbd1f6f04c64736f6c63430008120033\n}\n",
				"bytecode": {
					"linkReferences": {},
					"object": "60806040526001600060016101000a81548160ff0219169083600381111561002a5761002961007d565b5b02179055506003808111156100425761004161007d565b5b600060026101000a81548160ff021916908360038111156100665761006561007d565b5b021790555034801561007757600080fd5b506100ac565b7f4e487b7100000000000000000000000000000000000000000000000000000000600052602160045260246000fd5b610413806100bb6000396000f3fe608060405234801561001057600080fd5b50600436106100925760003560e01c806379e5f0541161006657806379e5f05414610110578063972a2ec21461012e5780639b31f9e81461014a578063b644ac2714610168578063b6588ffd1461018657610092565b8062207be3146100975780633e8d7a30146100b357806356800b52146100d45780636d4ce63c146100f2575b600080fd5b6100b160048036038101906100ac91906102d9565b610190565b005b6100bb6101bc565b6040516100cb949392919061037d565b60405180910390f35b6100dc61020e565b6040516100e991906103c2565b60405180910390f35b6100fa610221565b60405161010791906103c2565b60405180910390f35b610118610237565b60405161012591906103c2565b60405180910390f35b610148600480360381019061014391906102d9565b61024a565b005b610152610277565b60405161015f91906103c2565b60405180910390f35b610170610288565b60405161017d91906103c2565b60405180910390f35b61018e61029b565b005b806000806101000a81548160ff021916908360038111156101b4576101b3610306565b5b021790555050565b60008060008060008054906101000a900460ff16600060019054906101000a900460ff16600060029054906101000a900460ff16600060039054906101000a900460ff16935093509350935090919293565b600060019054906101000a900460ff1681565b60008060039054906101000a900460ff16905090565b600060029054906101000a900460ff1681565b80600060036101000a81548160ff0219169083600381111561026f5761026e610306565b5b021790555050565b60008054906101000a900460ff1681565b600060039054906101000a900460ff1681565b600060036101000a81549060ff0219169055565b600080fd5b600481106102c157600080fd5b50565b6000813590506102d3816102b4565b92915050565b6000602082840312156102ef576102ee6102af565b5b60006102fd848285016102c4565b91505092915050565b7f4e487b7100000000000000000000000000000000000000000000000000000000600052602160045260246000fd5b6004811061034657610345610306565b5b50565b600081905061035782610335565b919050565b600061036782610349565b9050919050565b6103778161035c565b82525050565b6000608082019050610392600083018761036e565b61039f602083018661036e565b6103ac604083018561036e565b6103b9606083018461036e565b95945050505050565b60006020820190506103d7600083018461036e565b9291505056fea2646970667358221220efdf75023da12cd834a43388a5cd0176d869905848f76de0600a05dbd1f6f04c64736f6c63430008120033",
					"opcodes": "PUSH1 0x80 PUSH1 0x40 MSTORE PUSH1 0x1 PUSH1 0x0 PUSH1 0x1 PUSH2 0x100 EXP DUP2 SLOAD DUP2 PUSH1 0xFF MUL NOT AND SWAP1 DUP4 PUSH1 0x3 DUP2 GT ISZERO PUSH2 0x2A JUMPI PUSH2 0x29 PUSH2 0x7D JUMP JUMPDEST JUMPDEST MUL OR SWAP1 SSTORE POP PUSH1 0x3 DUP1 DUP2 GT ISZERO PUSH2 0x42 JUMPI PUSH2 0x41 PUSH2 0x7D JUMP JUMPDEST JUMPDEST PUSH1 0x0 PUSH1 0x2 PUSH2 0x100 EXP DUP2 SLOAD DUP2 PUSH1 0xFF MUL NOT AND SWAP1 DUP4 PUSH1 0x3 DUP2 GT ISZERO PUSH2 0x66 JUMPI PUSH2 0x65 PUSH2 0x7D JUMP JUMPDEST JUMPDEST MUL OR SWAP1 SSTORE POP CALLVALUE DUP1 ISZERO PUSH2 0x77 JUMPI PUSH1 0x0 DUP1 REVERT JUMPDEST POP PUSH2 0xAC JUMP JUMPDEST PUSH32 0x4E487B7100000000000000000000000000000000000000000000000000000000 PUSH1 0x0 MSTORE PUSH1 0x21 PUSH1 0x4 MSTORE PUSH1 0x24 PUSH1 0x0 REVERT JUMPDEST PUSH2 0x413 DUP1 PUSH2 0xBB PUSH1 0x0 CODECOPY PUSH1 0x0 RETURN INVALID PUSH1 0x80 PUSH1 0x40 MSTORE CALLVALUE DUP1 ISZERO PUSH2 0x10 JUMPI PUSH1 0x0 DUP1 REVERT JUMPDEST POP PUSH1 0x4 CALLDATASIZE LT PUSH2 0x92 JUMPI PUSH1 0x0 CALLDATALOAD PUSH1 0xE0 SHR DUP1 PUSH4 0x79E5F054 GT PUSH2 0x66 JUMPI DUP1 PUSH4 0x79E5F054 EQ PUSH2 0x110 JUMPI DUP1 PUSH4 0x972A2EC2 EQ PUSH2 0x12E JUMPI DUP1 PUSH4 0x9B31F9E8 EQ PUSH2 0x14A JUMPI DUP1 PUSH4 0xB644AC27 EQ PUSH2 0x168 JUMPI DUP1 PUSH4 0xB6588FFD EQ PUSH2 0x186 JUMPI PUSH2 0x92 JUMP JUMPDEST DUP1 PUSH3 0x207BE3 EQ PUSH2 0x97 JUMPI DUP1 PUSH4 0x3E8D7A30 EQ PUSH2 0xB3 JUMPI DUP1 PUSH4 0x56800B52 EQ PUSH2 0xD4 JUMPI DUP1 PUSH4 0x6D4CE63C EQ PUSH2 0xF2 JUMPI JUMPDEST PUSH1 0x0 DUP1 REVERT JUMPDEST PUSH2 0xB1 PUSH1 0x4 DUP1 CALLDATASIZE SUB DUP2 ADD SWAP1 PUSH2 0xAC SWAP2 SWAP1 PUSH2 0x2D9 JUMP JUMPDEST PUSH2 0x190 JUMP JUMPDEST STOP JUMPDEST PUSH2 0xBB PUSH2 0x1BC JUMP JUMPDEST PUSH1 0x40 MLOAD PUSH2 0xCB SWAP5 SWAP4 SWAP3 SWAP2 SWAP1 PUSH2 0x37D JUMP JUMPDEST PUSH1 0x40 MLOAD DUP1 SWAP2 SUB SWAP1 RETURN JUMPDEST PUSH2 0xDC PUSH2 0x20E JUMP JUMPDEST PUSH1 0x40 MLOAD PUSH2 0xE9 SWAP2 SWAP1 PUSH2 0x3C2 JUMP JUMPDEST PUSH1 0x40 MLOAD DUP1 SWAP2 SUB SWAP1 RETURN JUMPDEST PUSH2 0xFA PUSH2 0x221 JUMP JUMPDEST PUSH1 0x40 MLOAD PUSH2 0x107 SWAP2 SWAP1 PUSH2 0x3C2 JUMP JUMPDEST PUSH1 0x40 MLOAD DUP1 SWAP2 SUB SWAP1 RETURN JUMPDEST PUSH2 0x118 PUSH2 0x237 JUMP JUMPDEST PUSH1 0x40 MLOAD PUSH2 0x125 SWAP2 SWAP1 PUSH2 0x3C2 JUMP JUMPDEST PUSH1 0x40 MLOAD DUP1 SWAP2 SUB SWAP1 RETURN JUMPDEST PUSH2 0x148 PUSH1 0x4 DUP1 CALLDATASIZE SUB DUP2 ADD SWAP1 PUSH2 0x143 SWAP2 SWAP1 PUSH2 0x2D9 JUMP JUMPDEST PUSH2 0x24A JUMP JUMPDEST STOP JUMPDEST PUSH2 0x152 PUSH2 0x277 JUMP JUMPDEST PUSH1 0x40 MLOAD PUSH2 0x15F SWAP2 SWAP1 PUSH2 0x3C2 JUMP JUMPDEST PUSH1 0x40 MLOAD DUP1 SWAP2 SUB SWAP1 RETURN JUMPDEST PUSH2 0x170 PUSH2 0x288 JUMP JUMPDEST PUSH1 0x40 MLOAD PUSH2 0x17D SWAP2 SWAP1 PUSH2 0x3C2 JUMP JUMPDEST PUSH1 0x40 MLOAD DUP1 SWAP2 SUB SWAP1 RETURN JUMPDEST PUSH2 0x18E PUSH2 0x29B JUMP JUMPDEST STOP JUMPDEST DUP1 PUSH1 0x0 DUP1 PUSH2 0x100 EXP DUP2 SLOAD DUP2 PUSH1 0xFF MUL NOT AND SWAP1 DUP4 PUSH1 0x3 DUP2 GT ISZERO PUSH2 0x1B4 JUMPI PUSH2 0x1B3 PUSH2 0x306 JUMP JUMPDEST JUMPDEST MUL OR SWAP1 SSTORE POP POP JUMP JUMPDEST PUSH1 0x0 DUP1 PUSH1 0x0 DUP1 PUSH1 0x0 DUP1 SLOAD SWAP1 PUSH2 0x100 EXP SWAP1 DIV PUSH1 0xFF AND PUSH1 0x0 PUSH1 0x1 SWAP1 SLOAD SWAP1 PUSH2 0x100 EXP SWAP1 DIV PUSH1 0xFF AND PUSH1 0x0 PUSH1 0x2 SWAP1 SLOAD SWAP1 PUSH2 0x100 EXP SWAP1 DIV PUSH1 0xFF AND PUSH1 0x0 PUSH1 0x3 SWAP1 SLOAD SWAP1 PUSH2 0x100 EXP SWAP1 DIV PUSH1 0xFF AND SWAP4 POP SWAP4 POP SWAP4 POP SWAP4 POP SWAP1 SWAP2 SWAP3 SWAP4 JUMP JUMPDEST PUSH1 0x0 PUSH1 0x1 SWAP1 SLOAD SWAP1 PUSH2 0x100 EXP SWAP1 DIV PUSH1 0xFF AND DUP2 JUMP JUMPDEST PUSH1 0x0 DUP1 PUSH1 0x3 SWAP1 SLOAD SWAP1 PUSH2 0x100 EXP SWAP1 DIV PUSH1 0xFF AND SWAP1 POP SWAP1 JUMP JUMPDEST PUSH1 0x0 PUSH1 0x2 SWAP1 SLOAD SWAP1 PUSH2 0x100 EXP SWAP1 DIV PUSH1 0xFF AND DUP2 JUMP JUMPDEST DUP1 PUSH1 0x0 PUSH1 0x3 PUSH2 0x100 EXP DUP2 SLOAD DUP2 PUSH1 0xFF MUL NOT AND SWAP1 DUP4 PUSH1 0x3 DUP2 GT ISZERO PUSH2 0x26F JUMPI PUSH2 0x26E PUSH2 0x306 JUMP JUMPDEST JUMPDEST MUL OR SWAP1 SSTORE POP POP JUMP JUMPDEST PUSH1 0x0 DUP1 SLOAD SWAP1 PUSH2 0x100 EXP SWAP1 DIV PUSH1 0xFF AND DUP2 JUMP JUMPDEST PUSH1 0x0 PUSH1 0x3 SWAP1 SLOAD SWAP1 PUSH2 0x100 EXP SWAP1 DIV PUSH1 0xFF AND DUP2 JUMP JUMPDEST PUSH1 0x0 PUSH1 0x3 PUSH2 0x100 EXP DUP2 SLOAD SWAP1 PUSH1 0xFF MUL NOT AND SWAP1 SSTORE JUMP JUMPDEST PUSH1 0x0 DUP1 REVERT JUMPDEST PUSH1 0x4 DUP2 LT PUSH2 0x2C1 JUMPI PUSH1 0x0 DUP1 REVERT JUMPDEST POP JUMP JUMPDEST PUSH1 0x0 DUP2 CALLDATALOAD SWAP1 POP PUSH2 0x2D3 DUP2 PUSH2 0x2B4 JUMP JUMPDEST SWAP3 SWAP2 POP POP JUMP JUMPDEST PUSH1 0x0 PUSH1 0x20 DUP3 DUP5 SUB SLT ISZERO PUSH2 0x2EF JUMPI PUSH2 0x2EE PUSH2 0x2AF JUMP JUMPDEST JUMPDEST PUSH1 0x0 PUSH2 0x2FD DUP5 DUP3 DUP6 ADD PUSH2 0x2C4 JUMP JUMPDEST SWAP2 POP POP SWAP3 SWAP2 POP POP JUMP JUMPDEST PUSH32 0x4E487B7100000000000000000000000000000000000000000000000000000000 PUSH1 0x0 MSTORE PUSH1 0x21 PUSH1 0x4 MSTORE PUSH1 0x24 PUSH1 0x0 REVERT JUMPDEST PUSH1 0x4 DUP2 LT PUSH2 0x346 JUMPI PUSH2 0x345 PUSH2 0x306 JUMP JUMPDEST JUMPDEST POP JUMP JUMPDEST PUSH1 0x0 DUP2 SWAP1 POP PUSH2 0x357 DUP3 PUSH2 0x335 JUMP JUMPDEST SWAP2 SWAP1 POP JUMP JUMPDEST PUSH1 0x0 PUSH2 0x367 DUP3 PUSH2 0x349 JUMP JUMPDEST SWAP1 POP SWAP2 SWAP1 POP JUMP JUMPDEST PUSH2 0x377 DUP2 PUSH2 0x35C JUMP JUMPDEST DUP3 MSTORE POP POP JUMP JUMPDEST PUSH1 0x0 PUSH1 0x80 DUP3 ADD SWAP1 POP PUSH2 0x392 PUSH1 0x0 DUP4 ADD DUP8 PUSH2 0x36E JUMP JUMPDEST PUSH2 0x39F PUSH1 0x20 DUP4 ADD DUP7 PUSH2 0x36E JUMP JUMPDEST PUSH2 0x3AC PUSH1 0x40 DUP4 ADD DUP6 PUSH2 0x36E JUMP JUMPDEST PUSH2 0x3B9 PUSH1 0x60 DUP4 ADD DUP5 PUSH2 0x36E JUMP JUMPDEST SWAP6 SWAP5 POP POP POP POP POP JUMP JUMPDEST PUSH1 0x0 PUSH1 0x20 DUP3 ADD SWAP1 POP PUSH2 0x3D7 PUSH1 0x0 DUP4 ADD DUP5 PUSH2 0x36E JUMP JUMPDEST SWAP3 SWAP2 POP POP JUMP INVALID LOG2 PUSH5 0x6970667358 0x22 SLT KECCAK256 0xEF 0xDF PUSH22 0x23DA12CD834A43388A5CD0176D869905848F76DE060 EXP SDIV 0xDB 0xD1 0xF6 CREATE 0x4C PUSH5 0x736F6C6343 STOP ADDMOD SLT STOP CALLER "
				},
				"gasEstimates": {
					"creation": {
						"codeDepositCost": "208600",
						"executionCost": "48963",
						"totalCost": "257563"
					},
					"external": {
						"del()": "24524",
						"e2()": "2601",
						"e3()": "2655",
						"e4()": "2610",
						"e5()": "2676",
						"get()": "2685",
						"get01()": "infinite",
						"setting(uint8)": "24722",
						"to_set(uint8)": "24651"
					}
				},
				"methodIdentifiers": {
					"del()": "b6588ffd",
					"e2()": "9b31f9e8",
					"e3()": "56800b52",
					"e4()": "79e5f054",
					"e5()": "b644ac27",
					"get()": "6d4ce63c",
					"get01()": "3e8d7a30",
					"setting(uint8)": "972a2ec2",
					"to_set(uint8)": "00207be3"
				}
			},
			"storageLayout": {
				"storage": [
					{
						"astId": 72,
						"contract": "lab(Enums)/file.sol:PizzaDeli",
						"label": "e2",
						"offset": 0,
						"slot": "0",
						"type": "t_enum(pizzaOrder)69"
					},
					{
						"astId": 77,
						"contract": "lab(Enums)/file.sol:PizzaDeli",
						"label": "e3",
						"offset": 1,
						"slot": "0",
						"type": "t_enum(pizzaOrder)69"
					},
					{
						"astId": 83,
						"contract": "lab(Enums)/file.sol:PizzaDeli",
						"label": "e4",
						"offset": 2,
						"slot": "0",
						"type": "t_enum(pizzaOrder)69"
					},
					{
						"astId": 86,
						"contract": "lab(Enums)/file.sol:PizzaDeli",
						"label": "e5",
						"offset": 3,
						"slot": "0",
						"type": "t_enum(pizzaOrder)69"
					}
				],
				"types": {
					"t_enum(pizzaOrder)69": {
						"encoding": "inplace",
						"label": "enum PizzaDeli.pizzaOrder",
						"numberOfBytes": "1"
					}
				}
			},
			"userdoc": {
				"kind": "user",
				"methods": {},
				"version": 1
			}
		}
	}
}