{
	"lab(Enums)/file.sol": {
		"Enum": {
			"abi": [
				{
					"inputs": [],
					"name": "Pass",
					"outputs": [],
					"stateMutability": "nonpayable",
					"type": "function"
				},
				{
					"inputs": [],
					"name": "del",
					"outputs": [],
					"stateMutability": "nonpayable",
					"type": "function"
				},
				{
					"inputs": [],
					"name": "e1",
					"outputs": [
						{
							"internalType": "enum Enum.Exam",
							"name": "",
							"type": "uint8"
						}
					],
					"stateMutability": "view",
					"type": "function"
				},
				{
					"inputs": [],
					"name": "fail",
					"outputs": [],
					"stateMutability": "nonpayable",
					"type": "function"
				},
				{
					"inputs": [],
					"name": "scholarship",
					"outputs": [],
					"stateMutability": "nonpayable",
					"type": "function"
				}
			],
			"devdoc": {
				"kind": "dev",
				"methods": {},
				"version": 1
			},
			"evm": {
				"assembly": "    /* \"lab(Enums)/file.sol\":61:746  contract Enum{... */\n  mstore(0x40, 0x80)\n  callvalue\n  dup1\n  iszero\n  tag_1\n  jumpi\n  0x00\n  dup1\n  revert\ntag_1:\n  pop\n  dataSize(sub_0)\n  dup1\n  dataOffset(sub_0)\n  0x00\n  codecopy\n  0x00\n  return\nstop\n\nsub_0: assembly {\n        /* \"lab(Enums)/file.sol\":61:746  contract Enum{... */\n      mstore(0x40, 0x80)\n      callvalue\n      dup1\n      iszero\n      tag_1\n      jumpi\n      0x00\n      dup1\n      revert\n    tag_1:\n      pop\n      jumpi(tag_2, lt(calldatasize, 0x04))\n      shr(0xe0, calldataload(0x00))\n      dup1\n      0x60595433\n      eq\n      tag_3\n      jumpi\n      dup1\n      0xa2c2d666\n      eq\n      tag_4\n      jumpi\n      dup1\n      0xa7539775\n      eq\n      tag_5\n      jumpi\n      dup1\n      0xa9cc4718\n      eq\n      tag_6\n      jumpi\n      dup1\n      0xb6588ffd\n      eq\n      tag_7\n      jumpi\n    tag_2:\n      0x00\n      dup1\n      revert\n        /* \"lab(Enums)/file.sol\":215:362  function Pass() public{... */\n    tag_3:\n      tag_8\n      tag_9\n      jump\t// in\n    tag_8:\n      stop\n        /* \"lab(Enums)/file.sol\":194:208  Exam public e1 */\n    tag_4:\n      tag_10\n      tag_11\n      jump\t// in\n    tag_10:\n      mload(0x40)\n      tag_12\n      swap2\n      swap1\n      tag_13\n      jump\t// in\n    tag_12:\n      mload(0x40)\n      dup1\n      swap2\n      sub\n      swap1\n      return\n        /* \"lab(Enums)/file.sol\":473:643  function scholarship()public {... */\n    tag_5:\n      tag_14\n      tag_15\n      jump\t// in\n    tag_14:\n      stop\n        /* \"lab(Enums)/file.sol\":368:467  function fail() public {... */\n    tag_6:\n      tag_16\n      tag_17\n      jump\t// in\n    tag_16:\n      stop\n        /* \"lab(Enums)/file.sol\":691:741  function del() public {... */\n    tag_7:\n      tag_18\n      tag_19\n      jump\t// in\n    tag_18:\n      stop\n        /* \"lab(Enums)/file.sol\":215:362  function Pass() public{... */\n    tag_9:\n        /* \"lab(Enums)/file.sol\":257:270  Exam.Checking */\n      0x00\n        /* \"lab(Enums)/file.sol\":251:270  e1 == Exam.Checking */\n      0x03\n      dup2\n      gt\n      iszero\n      tag_21\n      jumpi\n      tag_22\n      tag_23\n      jump\t// in\n    tag_22:\n    tag_21:\n        /* \"lab(Enums)/file.sol\":251:253  e1 */\n      0x00\n      dup1\n      sload\n      swap1\n      0x0100\n      exp\n      swap1\n      div\n      0xff\n      and\n        /* \"lab(Enums)/file.sol\":251:270  e1 == Exam.Checking */\n      0x03\n      dup2\n      gt\n      iszero\n      tag_24\n      jumpi\n      tag_25\n      tag_23\n      jump\t// in\n    tag_25:\n    tag_24:\n      sub\n        /* \"lab(Enums)/file.sol\":248:355  if(e1 == Exam.Checking){... */\n      tag_26\n      jumpi\n        /* \"lab(Enums)/file.sol\":291:300  Exam.Pass */\n      0x01\n        /* \"lab(Enums)/file.sol\":286:288  e1 */\n      0x00\n      dup1\n        /* \"lab(Enums)/file.sol\":286:300  e1 = Exam.Pass */\n      0x0100\n      exp\n      dup2\n      sload\n      dup2\n      0xff\n      mul\n      not\n      and\n      swap1\n      dup4\n      0x03\n      dup2\n      gt\n      iszero\n      tag_27\n      jumpi\n      tag_28\n      tag_23\n      jump\t// in\n    tag_28:\n    tag_27:\n      mul\n      or\n      swap1\n      sstore\n      pop\n        /* \"lab(Enums)/file.sol\":248:355  if(e1 == Exam.Checking){... */\n    tag_26:\n        /* \"lab(Enums)/file.sol\":215:362  function Pass() public{... */\n      jump\t// out\n        /* \"lab(Enums)/file.sol\":194:208  Exam public e1 */\n    tag_11:\n      0x00\n      dup1\n      sload\n      swap1\n      0x0100\n      exp\n      swap1\n      div\n      0xff\n      and\n      dup2\n      jump\t// out\n        /* \"lab(Enums)/file.sol\":473:643  function scholarship()public {... */\n    tag_15:\n        /* \"lab(Enums)/file.sol\":523:532  Exam.Pass */\n      0x01\n        /* \"lab(Enums)/file.sol\":517:532  e1 == Exam.Pass */\n      0x03\n      dup2\n      gt\n      iszero\n      tag_30\n      jumpi\n      tag_31\n      tag_23\n      jump\t// in\n    tag_31:\n    tag_30:\n        /* \"lab(Enums)/file.sol\":517:519  e1 */\n      0x00\n      dup1\n      sload\n      swap1\n      0x0100\n      exp\n      swap1\n      div\n      0xff\n      and\n        /* \"lab(Enums)/file.sol\":517:532  e1 == Exam.Pass */\n      0x03\n      dup2\n      gt\n      iszero\n      tag_32\n      jumpi\n      tag_33\n      tag_23\n      jump\t// in\n    tag_33:\n    tag_32:\n      sub\n        /* \"lab(Enums)/file.sol\":513:636  if (e1 == Exam.Pass){ //== is used in if else statement as it is conditional operator... */\n      tag_34\n      jumpi\n        /* \"lab(Enums)/file.sol\":622:623  3 */\n      0x03\n        /* \"lab(Enums)/file.sol\":617:624  Exam(3) */\n      dup1\n      dup2\n      gt\n      iszero\n      tag_35\n      jumpi\n      tag_36\n      tag_23\n      jump\t// in\n    tag_36:\n    tag_35:\n        /* \"lab(Enums)/file.sol\":612:614  e1 */\n      0x00\n      dup1\n        /* \"lab(Enums)/file.sol\":612:624  e1 = Exam(3) */\n      0x0100\n      exp\n      dup2\n      sload\n      dup2\n      0xff\n      mul\n      not\n      and\n      swap1\n      dup4\n      0x03\n      dup2\n      gt\n      iszero\n      tag_37\n      jumpi\n      tag_38\n      tag_23\n      jump\t// in\n    tag_38:\n    tag_37:\n      mul\n      or\n      swap1\n      sstore\n      pop\n        /* \"lab(Enums)/file.sol\":513:636  if (e1 == Exam.Pass){ //== is used in if else statement as it is conditional operator... */\n    tag_34:\n        /* \"lab(Enums)/file.sol\":473:643  function scholarship()public {... */\n      jump\t// out\n        /* \"lab(Enums)/file.sol\":368:467  function fail() public {... */\n    tag_17:\n        /* \"lab(Enums)/file.sol\":411:420  Exam.Pass */\n      0x01\n        /* \"lab(Enums)/file.sol\":405:420  e1 == Exam.Pass */\n      0x03\n      dup2\n      gt\n      iszero\n      tag_40\n      jumpi\n      tag_41\n      tag_23\n      jump\t// in\n    tag_41:\n    tag_40:\n        /* \"lab(Enums)/file.sol\":405:407  e1 */\n      0x00\n      dup1\n      sload\n      swap1\n      0x0100\n      exp\n      swap1\n      div\n      0xff\n      and\n        /* \"lab(Enums)/file.sol\":405:420  e1 == Exam.Pass */\n      0x03\n      dup2\n      gt\n      iszero\n      tag_42\n      jumpi\n      tag_43\n      tag_23\n      jump\t// in\n    tag_43:\n    tag_42:\n      sub\n        /* \"lab(Enums)/file.sol\":402:460  if(e1 == Exam.Pass){... */\n      tag_44\n      jumpi\n        /* \"lab(Enums)/file.sol\":446:447  2 */\n      0x02\n        /* \"lab(Enums)/file.sol\":441:448  Exam(2) */\n      0x03\n      dup2\n      gt\n      iszero\n      tag_45\n      jumpi\n      tag_46\n      tag_23\n      jump\t// in\n    tag_46:\n    tag_45:\n        /* \"lab(Enums)/file.sol\":436:438  e1 */\n      0x00\n      dup1\n        /* \"lab(Enums)/file.sol\":436:448  e1 = Exam(2) */\n      0x0100\n      exp\n      dup2\n      sload\n      dup2\n      0xff\n      mul\n      not\n      and\n      swap1\n      dup4\n      0x03\n      dup2\n      gt\n      iszero\n      tag_47\n      jumpi\n      tag_48\n      tag_23\n      jump\t// in\n    tag_48:\n    tag_47:\n      mul\n      or\n      swap1\n      sstore\n      pop\n        /* \"lab(Enums)/file.sol\":402:460  if(e1 == Exam.Pass){... */\n    tag_44:\n        /* \"lab(Enums)/file.sol\":368:467  function fail() public {... */\n      jump\t// out\n        /* \"lab(Enums)/file.sol\":691:741  function del() public {... */\n    tag_19:\n        /* \"lab(Enums)/file.sol\":731:733  e1 */\n      0x00\n      dup1\n        /* \"lab(Enums)/file.sol\":724:733  delete e1 */\n      0x0100\n      exp\n      dup2\n      sload\n      swap1\n      0xff\n      mul\n      not\n      and\n      swap1\n      sstore\n        /* \"lab(Enums)/file.sol\":691:741  function del() public {... */\n      jump\t// out\n        /* \"#utility.yul\":7:187   */\n    tag_23:\n        /* \"#utility.yul\":55:132   */\n      0x4e487b7100000000000000000000000000000000000000000000000000000000\n        /* \"#utility.yul\":52:53   */\n      0x00\n        /* \"#utility.yul\":45:133   */\n      mstore\n        /* \"#utility.yul\":152:156   */\n      0x21\n        /* \"#utility.yul\":149:150   */\n      0x04\n        /* \"#utility.yul\":142:157   */\n      mstore\n        /* \"#utility.yul\":176:180   */\n      0x24\n        /* \"#utility.yul\":173:174   */\n      0x00\n        /* \"#utility.yul\":166:181   */\n      revert\n        /* \"#utility.yul\":193:304   */\n    tag_50:\n        /* \"#utility.yul\":272:273   */\n      0x04\n        /* \"#utility.yul\":265:270   */\n      dup2\n        /* \"#utility.yul\":262:274   */\n      lt\n        /* \"#utility.yul\":252:298   */\n      tag_57\n      jumpi\n        /* \"#utility.yul\":278:296   */\n      tag_58\n      tag_23\n      jump\t// in\n    tag_58:\n        /* \"#utility.yul\":252:298   */\n    tag_57:\n        /* \"#utility.yul\":193:304   */\n      pop\n      jump\t// out\n        /* \"#utility.yul\":310:433   */\n    tag_51:\n        /* \"#utility.yul\":353:360   */\n      0x00\n        /* \"#utility.yul\":382:387   */\n      dup2\n        /* \"#utility.yul\":371:387   */\n      swap1\n      pop\n        /* \"#utility.yul\":388:427   */\n      tag_60\n        /* \"#utility.yul\":421:426   */\n      dup3\n        /* \"#utility.yul\":388:427   */\n      tag_50\n      jump\t// in\n    tag_60:\n        /* \"#utility.yul\":310:433   */\n      swap2\n      swap1\n      pop\n      jump\t// out\n        /* \"#utility.yul\":439:562   */\n    tag_52:\n        /* \"#utility.yul\":493:502   */\n      0x00\n        /* \"#utility.yul\":526:556   */\n      tag_62\n        /* \"#utility.yul\":550:555   */\n      dup3\n        /* \"#utility.yul\":526:556   */\n      tag_51\n      jump\t// in\n    tag_62:\n        /* \"#utility.yul\":513:556   */\n      swap1\n      pop\n        /* \"#utility.yul\":439:562   */\n      swap2\n      swap1\n      pop\n      jump\t// out\n        /* \"#utility.yul\":568:707   */\n    tag_53:\n        /* \"#utility.yul\":659:700   */\n      tag_64\n        /* \"#utility.yul\":694:699   */\n      dup2\n        /* \"#utility.yul\":659:700   */\n      tag_52\n      jump\t// in\n    tag_64:\n        /* \"#utility.yul\":654:657   */\n      dup3\n        /* \"#utility.yul\":647:701   */\n      mstore\n        /* \"#utility.yul\":568:707   */\n      pop\n      pop\n      jump\t// out\n        /* \"#utility.yul\":713:943   */\n    tag_13:\n        /* \"#utility.yul\":810:814   */\n      0x00\n        /* \"#utility.yul\":848:850   */\n      0x20\n        /* \"#utility.yul\":837:846   */\n      dup3\n        /* \"#utility.yul\":833:851   */\n      add\n        /* \"#utility.yul\":825:851   */\n      swap1\n      pop\n        /* \"#utility.yul\":861:936   */\n      tag_66\n        /* \"#utility.yul\":933:934   */\n      0x00\n        /* \"#utility.yul\":922:931   */\n      dup4\n        /* \"#utility.yul\":918:935   */\n      add\n        /* \"#utility.yul\":909:915   */\n      dup5\n        /* \"#utility.yul\":861:936   */\n      tag_53\n      jump\t// in\n    tag_66:\n        /* \"#utility.yul\":713:943   */\n      swap3\n      swap2\n      pop\n      pop\n      jump\t// out\n\n    auxdata: 0xa264697066735822122022c6b7115da013a080a79474541f163d19367b5bf9e12dcf017222f1dd80186764736f6c63430008120033\n}\n",
				"bytecode": {
					"linkReferences": {},
					"object": "608060405234801561001057600080fd5b506102e3806100206000396000f3fe608060405234801561001057600080fd5b50600436106100575760003560e01c8063605954331461005c578063a2c2d66614610066578063a753977514610084578063a9cc47181461008e578063b6588ffd14610098575b600080fd5b6100646100a2565b005b61006e610108565b60405161007b9190610292565b60405180910390f35b61008c610119565b005b610096610190565b005b6100a0610208565b005b600060038111156100b6576100b561021b565b5b60008054906101000a900460ff1660038111156100d6576100d561021b565b5b036101065760016000806101000a81548160ff02191690836003811115610100576100ff61021b565b5b02179055505b565b60008054906101000a900460ff1681565b6001600381111561012d5761012c61021b565b5b60008054906101000a900460ff16600381111561014d5761014c61021b565b5b0361018e576003808111156101655761016461021b565b5b6000806101000a81548160ff021916908360038111156101885761018761021b565b5b02179055505b565b600160038111156101a4576101a361021b565b5b60008054906101000a900460ff1660038111156101c4576101c361021b565b5b0361020657600260038111156101dd576101dc61021b565b5b6000806101000a81548160ff02191690836003811115610200576101ff61021b565b5b02179055505b565b6000806101000a81549060ff0219169055565b7f4e487b7100000000000000000000000000000000000000000000000000000000600052602160045260246000fd5b6004811061025b5761025a61021b565b5b50565b600081905061026c8261024a565b919050565b600061027c8261025e565b9050919050565b61028c81610271565b82525050565b60006020820190506102a76000830184610283565b9291505056fea264697066735822122022c6b7115da013a080a79474541f163d19367b5bf9e12dcf017222f1dd80186764736f6c63430008120033",
					"opcodes": "PUSH1 0x80 PUSH1 0x40 MSTORE CALLVALUE DUP1 ISZERO PUSH2 0x10 JUMPI PUSH1 0x0 DUP1 REVERT JUMPDEST POP PUSH2 0x2E3 DUP1 PUSH2 0x20 PUSH1 0x0 CODECOPY PUSH1 0x0 RETURN INVALID PUSH1 0x80 PUSH1 0x40 MSTORE CALLVALUE DUP1 ISZERO PUSH2 0x10 JUMPI PUSH1 0x0 DUP1 REVERT JUMPDEST POP PUSH1 0x4 CALLDATASIZE LT PUSH2 0x57 JUMPI PUSH1 0x0 CALLDATALOAD PUSH1 0xE0 SHR DUP1 PUSH4 0x60595433 EQ PUSH2 0x5C JUMPI DUP1 PUSH4 0xA2C2D666 EQ PUSH2 0x66 JUMPI DUP1 PUSH4 0xA7539775 EQ PUSH2 0x84 JUMPI DUP1 PUSH4 0xA9CC4718 EQ PUSH2 0x8E JUMPI DUP1 PUSH4 0xB6588FFD EQ PUSH2 0x98 JUMPI JUMPDEST PUSH1 0x0 DUP1 REVERT JUMPDEST PUSH2 0x64 PUSH2 0xA2 JUMP JUMPDEST STOP JUMPDEST PUSH2 0x6E PUSH2 0x108 JUMP JUMPDEST PUSH1 0x40 MLOAD PUSH2 0x7B SWAP2 SWAP1 PUSH2 0x292 JUMP JUMPDEST PUSH1 0x40 MLOAD DUP1 SWAP2 SUB SWAP1 RETURN JUMPDEST PUSH2 0x8C PUSH2 0x119 JUMP JUMPDEST STOP JUMPDEST PUSH2 0x96 PUSH2 0x190 JUMP JUMPDEST STOP JUMPDEST PUSH2 0xA0 PUSH2 0x208 JUMP JUMPDEST STOP JUMPDEST PUSH1 0x0 PUSH1 0x3 DUP2 GT ISZERO PUSH2 0xB6 JUMPI PUSH2 0xB5 PUSH2 0x21B JUMP JUMPDEST JUMPDEST PUSH1 0x0 DUP1 SLOAD SWAP1 PUSH2 0x100 EXP SWAP1 DIV PUSH1 0xFF AND PUSH1 0x3 DUP2 GT ISZERO PUSH2 0xD6 JUMPI PUSH2 0xD5 PUSH2 0x21B JUMP JUMPDEST JUMPDEST SUB PUSH2 0x106 JUMPI PUSH1 0x1 PUSH1 0x0 DUP1 PUSH2 0x100 EXP DUP2 SLOAD DUP2 PUSH1 0xFF MUL NOT AND SWAP1 DUP4 PUSH1 0x3 DUP2 GT ISZERO PUSH2 0x100 JUMPI PUSH2 0xFF PUSH2 0x21B JUMP JUMPDEST JUMPDEST MUL OR SWAP1 SSTORE POP JUMPDEST JUMP JUMPDEST PUSH1 0x0 DUP1 SLOAD SWAP1 PUSH2 0x100 EXP SWAP1 DIV PUSH1 0xFF AND DUP2 JUMP JUMPDEST PUSH1 0x1 PUSH1 0x3 DUP2 GT ISZERO PUSH2 0x12D JUMPI PUSH2 0x12C PUSH2 0x21B JUMP JUMPDEST JUMPDEST PUSH1 0x0 DUP1 SLOAD SWAP1 PUSH2 0x100 EXP SWAP1 DIV PUSH1 0xFF AND PUSH1 0x3 DUP2 GT ISZERO PUSH2 0x14D JUMPI PUSH2 0x14C PUSH2 0x21B JUMP JUMPDEST JUMPDEST SUB PUSH2 0x18E JUMPI PUSH1 0x3 DUP1 DUP2 GT ISZERO PUSH2 0x165 JUMPI PUSH2 0x164 PUSH2 0x21B JUMP JUMPDEST JUMPDEST PUSH1 0x0 DUP1 PUSH2 0x100 EXP DUP2 SLOAD DUP2 PUSH1 0xFF MUL NOT AND SWAP1 DUP4 PUSH1 0x3 DUP2 GT ISZERO PUSH2 0x188 JUMPI PUSH2 0x187 PUSH2 0x21B JUMP JUMPDEST JUMPDEST MUL OR SWAP1 SSTORE POP JUMPDEST JUMP JUMPDEST PUSH1 0x1 PUSH1 0x3 DUP2 GT ISZERO PUSH2 0x1A4 JUMPI PUSH2 0x1A3 PUSH2 0x21B JUMP JUMPDEST JUMPDEST PUSH1 0x0 DUP1 SLOAD SWAP1 PUSH2 0x100 EXP SWAP1 DIV PUSH1 0xFF AND PUSH1 0x3 DUP2 GT ISZERO PUSH2 0x1C4 JUMPI PUSH2 0x1C3 PUSH2 0x21B JUMP JUMPDEST JUMPDEST SUB PUSH2 0x206 JUMPI PUSH1 0x2 PUSH1 0x3 DUP2 GT ISZERO PUSH2 0x1DD JUMPI PUSH2 0x1DC PUSH2 0x21B JUMP JUMPDEST JUMPDEST PUSH1 0x0 DUP1 PUSH2 0x100 EXP DUP2 SLOAD DUP2 PUSH1 0xFF MUL NOT AND SWAP1 DUP4 PUSH1 0x3 DUP2 GT ISZERO PUSH2 0x200 JUMPI PUSH2 0x1FF PUSH2 0x21B JUMP JUMPDEST JUMPDEST MUL OR SWAP1 SSTORE POP JUMPDEST JUMP JUMPDEST PUSH1 0x0 DUP1 PUSH2 0x100 EXP DUP2 SLOAD SWAP1 PUSH1 0xFF MUL NOT AND SWAP1 SSTORE JUMP JUMPDEST PUSH32 0x4E487B7100000000000000000000000000000000000000000000000000000000 PUSH1 0x0 MSTORE PUSH1 0x21 PUSH1 0x4 MSTORE PUSH1 0x24 PUSH1 0x0 REVERT JUMPDEST PUSH1 0x4 DUP2 LT PUSH2 0x25B JUMPI PUSH2 0x25A PUSH2 0x21B JUMP JUMPDEST JUMPDEST POP JUMP JUMPDEST PUSH1 0x0 DUP2 SWAP1 POP PUSH2 0x26C DUP3 PUSH2 0x24A JUMP JUMPDEST SWAP2 SWAP1 POP JUMP JUMPDEST PUSH1 0x0 PUSH2 0x27C DUP3 PUSH2 0x25E JUMP JUMPDEST SWAP1 POP SWAP2 SWAP1 POP JUMP JUMPDEST PUSH2 0x28C DUP2 PUSH2 0x271 JUMP JUMPDEST DUP3 MSTORE POP POP JUMP JUMPDEST PUSH1 0x0 PUSH1 0x20 DUP3 ADD SWAP1 POP PUSH2 0x2A7 PUSH1 0x0 DUP4 ADD DUP5 PUSH2 0x283 JUMP JUMPDEST SWAP3 SWAP2 POP POP JUMP INVALID LOG2 PUSH5 0x6970667358 0x22 SLT KECCAK256 0x22 0xC6 0xB7 GT 0x5D LOG0 SGT LOG0 DUP1 0xA7 SWAP5 PUSH21 0x541F163D19367B5BF9E12DCF017222F1DD80186764 PUSH20 0x6F6C634300081200330000000000000000000000 "
				},
				"gasEstimates": {
					"creation": {
						"codeDepositCost": "147800",
						"executionCost": "196",
						"totalCost": "147996"
					},
					"external": {
						"Pass()": "26617",
						"del()": "24452",
						"e1()": "2557",
						"fail()": "26709",
						"scholarship()": "26687"
					}
				},
				"methodIdentifiers": {
					"Pass()": "60595433",
					"del()": "b6588ffd",
					"e1()": "a2c2d666",
					"fail()": "a9cc4718",
					"scholarship()": "a7539775"
				}
			},
			"storageLayout": {
				"storage": [
					{
						"astId": 9,
						"contract": "lab(Enums)/file.sol:Enum",
						"label": "e1",
						"offset": 0,
						"slot": "0",
						"type": "t_enum(Exam)6"
					}
				],
				"types": {
					"t_enum(Exam)6": {
						"encoding": "inplace",
						"label": "enum Enum.Exam",
						"numberOfBytes": "1"
					}
				}
			},
			"userdoc": {
				"kind": "user",
				"methods": {},
				"version": 1
			}
		}
	}
}