{
	"lab(Enums && Structs)/file_enum.sol": {
		"Enum": {
			"abi": [
				{
					"inputs": [],
					"name": "Pass",
					"outputs": [],
					"stateMutability": "nonpayable",
					"type": "function"
				},
				{
					"inputs": [],
					"name": "del",
					"outputs": [],
					"stateMutability": "nonpayable",
					"type": "function"
				},
				{
					"inputs": [],
					"name": "e1",
					"outputs": [
						{
							"internalType": "enum Enum.Exam",
							"name": "",
							"type": "uint8"
						}
					],
					"stateMutability": "view",
					"type": "function"
				},
				{
					"inputs": [],
					"name": "fail",
					"outputs": [],
					"stateMutability": "nonpayable",
					"type": "function"
				},
				{
					"inputs": [],
					"name": "scholarship",
					"outputs": [],
					"stateMutability": "nonpayable",
					"type": "function"
				}
			],
			"devdoc": {
				"kind": "dev",
				"methods": {},
				"version": 1
			},
			"evm": {
				"assembly": "    /* \"lab(Enums && Structs)/file_enum.sol\":61:746  contract Enum{... */\n  mstore(0x40, 0x80)\n  callvalue\n  dup1\n  iszero\n  tag_1\n  jumpi\n  0x00\n  dup1\n  revert\ntag_1:\n  pop\n  dataSize(sub_0)\n  dup1\n  dataOffset(sub_0)\n  0x00\n  codecopy\n  0x00\n  return\nstop\n\nsub_0: assembly {\n        /* \"lab(Enums && Structs)/file_enum.sol\":61:746  contract Enum{... */\n      mstore(0x40, 0x80)\n      callvalue\n      dup1\n      iszero\n      tag_1\n      jumpi\n      0x00\n      dup1\n      revert\n    tag_1:\n      pop\n      jumpi(tag_2, lt(calldatasize, 0x04))\n      shr(0xe0, calldataload(0x00))\n      dup1\n      0x60595433\n      eq\n      tag_3\n      jumpi\n      dup1\n      0xa2c2d666\n      eq\n      tag_4\n      jumpi\n      dup1\n      0xa7539775\n      eq\n      tag_5\n      jumpi\n      dup1\n      0xa9cc4718\n      eq\n      tag_6\n      jumpi\n      dup1\n      0xb6588ffd\n      eq\n      tag_7\n      jumpi\n    tag_2:\n      0x00\n      dup1\n      revert\n        /* \"lab(Enums && Structs)/file_enum.sol\":215:362  function Pass() public{... */\n    tag_3:\n      tag_8\n      tag_9\n      jump\t// in\n    tag_8:\n      stop\n        /* \"lab(Enums && Structs)/file_enum.sol\":194:208  Exam public e1 */\n    tag_4:\n      tag_10\n      tag_11\n      jump\t// in\n    tag_10:\n      mload(0x40)\n      tag_12\n      swap2\n      swap1\n      tag_13\n      jump\t// in\n    tag_12:\n      mload(0x40)\n      dup1\n      swap2\n      sub\n      swap1\n      return\n        /* \"lab(Enums && Structs)/file_enum.sol\":473:643  function scholarship()public {... */\n    tag_5:\n      tag_14\n      tag_15\n      jump\t// in\n    tag_14:\n      stop\n        /* \"lab(Enums && Structs)/file_enum.sol\":368:467  function fail() public {... */\n    tag_6:\n      tag_16\n      tag_17\n      jump\t// in\n    tag_16:\n      stop\n        /* \"lab(Enums && Structs)/file_enum.sol\":691:741  function del() public {... */\n    tag_7:\n      tag_18\n      tag_19\n      jump\t// in\n    tag_18:\n      stop\n        /* \"lab(Enums && Structs)/file_enum.sol\":215:362  function Pass() public{... */\n    tag_9:\n        /* \"lab(Enums && Structs)/file_enum.sol\":257:270  Exam.Checking */\n      0x00\n        /* \"lab(Enums && Structs)/file_enum.sol\":251:270  e1 == Exam.Checking */\n      0x03\n      dup2\n      gt\n      iszero\n      tag_21\n      jumpi\n      tag_22\n      tag_23\n      jump\t// in\n    tag_22:\n    tag_21:\n        /* \"lab(Enums && Structs)/file_enum.sol\":251:253  e1 */\n      0x00\n      dup1\n      sload\n      swap1\n      0x0100\n      exp\n      swap1\n      div\n      0xff\n      and\n        /* \"lab(Enums && Structs)/file_enum.sol\":251:270  e1 == Exam.Checking */\n      0x03\n      dup2\n      gt\n      iszero\n      tag_24\n      jumpi\n      tag_25\n      tag_23\n      jump\t// in\n    tag_25:\n    tag_24:\n      sub\n        /* \"lab(Enums && Structs)/file_enum.sol\":248:355  if(e1 == Exam.Checking){... */\n      tag_26\n      jumpi\n        /* \"lab(Enums && Structs)/file_enum.sol\":291:300  Exam.Pass */\n      0x01\n        /* \"lab(Enums && Structs)/file_enum.sol\":286:288  e1 */\n      0x00\n      dup1\n        /* \"lab(Enums && Structs)/file_enum.sol\":286:300  e1 = Exam.Pass */\n      0x0100\n      exp\n      dup2\n      sload\n      dup2\n      0xff\n      mul\n      not\n      and\n      swap1\n      dup4\n      0x03\n      dup2\n      gt\n      iszero\n      tag_27\n      jumpi\n      tag_28\n      tag_23\n      jump\t// in\n    tag_28:\n    tag_27:\n      mul\n      or\n      swap1\n      sstore\n      pop\n        /* \"lab(Enums && Structs)/file_enum.sol\":248:355  if(e1 == Exam.Checking){... */\n    tag_26:\n        /* \"lab(Enums && Structs)/file_enum.sol\":215:362  function Pass() public{... */\n      jump\t// out\n        /* \"lab(Enums && Structs)/file_enum.sol\":194:208  Exam public e1 */\n    tag_11:\n      0x00\n      dup1\n      sload\n      swap1\n      0x0100\n      exp\n      swap1\n      div\n      0xff\n      and\n      dup2\n      jump\t// out\n        /* \"lab(Enums && Structs)/file_enum.sol\":473:643  function scholarship()public {... */\n    tag_15:\n        /* \"lab(Enums && Structs)/file_enum.sol\":523:532  Exam.Pass */\n      0x01\n        /* \"lab(Enums && Structs)/file_enum.sol\":517:532  e1 == Exam.Pass */\n      0x03\n      dup2\n      gt\n      iszero\n      tag_30\n      jumpi\n      tag_31\n      tag_23\n      jump\t// in\n    tag_31:\n    tag_30:\n        /* \"lab(Enums && Structs)/file_enum.sol\":517:519  e1 */\n      0x00\n      dup1\n      sload\n      swap1\n      0x0100\n      exp\n      swap1\n      div\n      0xff\n      and\n        /* \"lab(Enums && Structs)/file_enum.sol\":517:532  e1 == Exam.Pass */\n      0x03\n      dup2\n      gt\n      iszero\n      tag_32\n      jumpi\n      tag_33\n      tag_23\n      jump\t// in\n    tag_33:\n    tag_32:\n      sub\n        /* \"lab(Enums && Structs)/file_enum.sol\":513:636  if (e1 == Exam.Pass){ //== is used in if else statement as it is conditional operator... */\n      tag_34\n      jumpi\n        /* \"lab(Enums && Structs)/file_enum.sol\":622:623  3 */\n      0x03\n        /* \"lab(Enums && Structs)/file_enum.sol\":617:624  Exam(3) */\n      dup1\n      dup2\n      gt\n      iszero\n      tag_35\n      jumpi\n      tag_36\n      tag_23\n      jump\t// in\n    tag_36:\n    tag_35:\n        /* \"lab(Enums && Structs)/file_enum.sol\":612:614  e1 */\n      0x00\n      dup1\n        /* \"lab(Enums && Structs)/file_enum.sol\":612:624  e1 = Exam(3) */\n      0x0100\n      exp\n      dup2\n      sload\n      dup2\n      0xff\n      mul\n      not\n      and\n      swap1\n      dup4\n      0x03\n      dup2\n      gt\n      iszero\n      tag_37\n      jumpi\n      tag_38\n      tag_23\n      jump\t// in\n    tag_38:\n    tag_37:\n      mul\n      or\n      swap1\n      sstore\n      pop\n        /* \"lab(Enums && Structs)/file_enum.sol\":513:636  if (e1 == Exam.Pass){ //== is used in if else statement as it is conditional operator... */\n    tag_34:\n        /* \"lab(Enums && Structs)/file_enum.sol\":473:643  function scholarship()public {... */\n      jump\t// out\n        /* \"lab(Enums && Structs)/file_enum.sol\":368:467  function fail() public {... */\n    tag_17:\n        /* \"lab(Enums && Structs)/file_enum.sol\":411:420  Exam.Pass */\n      0x01\n        /* \"lab(Enums && Structs)/file_enum.sol\":405:420  e1 == Exam.Pass */\n      0x03\n      dup2\n      gt\n      iszero\n      tag_40\n      jumpi\n      tag_41\n      tag_23\n      jump\t// in\n    tag_41:\n    tag_40:\n        /* \"lab(Enums && Structs)/file_enum.sol\":405:407  e1 */\n      0x00\n      dup1\n      sload\n      swap1\n      0x0100\n      exp\n      swap1\n      div\n      0xff\n      and\n        /* \"lab(Enums && Structs)/file_enum.sol\":405:420  e1 == Exam.Pass */\n      0x03\n      dup2\n      gt\n      iszero\n      tag_42\n      jumpi\n      tag_43\n      tag_23\n      jump\t// in\n    tag_43:\n    tag_42:\n      sub\n        /* \"lab(Enums && Structs)/file_enum.sol\":402:460  if(e1 == Exam.Pass){... */\n      tag_44\n      jumpi\n        /* \"lab(Enums && Structs)/file_enum.sol\":446:447  2 */\n      0x02\n        /* \"lab(Enums && Structs)/file_enum.sol\":441:448  Exam(2) */\n      0x03\n      dup2\n      gt\n      iszero\n      tag_45\n      jumpi\n      tag_46\n      tag_23\n      jump\t// in\n    tag_46:\n    tag_45:\n        /* \"lab(Enums && Structs)/file_enum.sol\":436:438  e1 */\n      0x00\n      dup1\n        /* \"lab(Enums && Structs)/file_enum.sol\":436:448  e1 = Exam(2) */\n      0x0100\n      exp\n      dup2\n      sload\n      dup2\n      0xff\n      mul\n      not\n      and\n      swap1\n      dup4\n      0x03\n      dup2\n      gt\n      iszero\n      tag_47\n      jumpi\n      tag_48\n      tag_23\n      jump\t// in\n    tag_48:\n    tag_47:\n      mul\n      or\n      swap1\n      sstore\n      pop\n        /* \"lab(Enums && Structs)/file_enum.sol\":402:460  if(e1 == Exam.Pass){... */\n    tag_44:\n        /* \"lab(Enums && Structs)/file_enum.sol\":368:467  function fail() public {... */\n      jump\t// out\n        /* \"lab(Enums && Structs)/file_enum.sol\":691:741  function del() public {... */\n    tag_19:\n        /* \"lab(Enums && Structs)/file_enum.sol\":731:733  e1 */\n      0x00\n      dup1\n        /* \"lab(Enums && Structs)/file_enum.sol\":724:733  delete e1 */\n      0x0100\n      exp\n      dup2\n      sload\n      swap1\n      0xff\n      mul\n      not\n      and\n      swap1\n      sstore\n        /* \"lab(Enums && Structs)/file_enum.sol\":691:741  function del() public {... */\n      jump\t// out\n        /* \"#utility.yul\":7:187   */\n    tag_23:\n        /* \"#utility.yul\":55:132   */\n      0x4e487b7100000000000000000000000000000000000000000000000000000000\n        /* \"#utility.yul\":52:53   */\n      0x00\n        /* \"#utility.yul\":45:133   */\n      mstore\n        /* \"#utility.yul\":152:156   */\n      0x21\n        /* \"#utility.yul\":149:150   */\n      0x04\n        /* \"#utility.yul\":142:157   */\n      mstore\n        /* \"#utility.yul\":176:180   */\n      0x24\n        /* \"#utility.yul\":173:174   */\n      0x00\n        /* \"#utility.yul\":166:181   */\n      revert\n        /* \"#utility.yul\":193:304   */\n    tag_50:\n        /* \"#utility.yul\":272:273   */\n      0x04\n        /* \"#utility.yul\":265:270   */\n      dup2\n        /* \"#utility.yul\":262:274   */\n      lt\n        /* \"#utility.yul\":252:298   */\n      tag_57\n      jumpi\n        /* \"#utility.yul\":278:296   */\n      tag_58\n      tag_23\n      jump\t// in\n    tag_58:\n        /* \"#utility.yul\":252:298   */\n    tag_57:\n        /* \"#utility.yul\":193:304   */\n      pop\n      jump\t// out\n        /* \"#utility.yul\":310:433   */\n    tag_51:\n        /* \"#utility.yul\":353:360   */\n      0x00\n        /* \"#utility.yul\":382:387   */\n      dup2\n        /* \"#utility.yul\":371:387   */\n      swap1\n      pop\n        /* \"#utility.yul\":388:427   */\n      tag_60\n        /* \"#utility.yul\":421:426   */\n      dup3\n        /* \"#utility.yul\":388:427   */\n      tag_50\n      jump\t// in\n    tag_60:\n        /* \"#utility.yul\":310:433   */\n      swap2\n      swap1\n      pop\n      jump\t// out\n        /* \"#utility.yul\":439:562   */\n    tag_52:\n        /* \"#utility.yul\":493:502   */\n      0x00\n        /* \"#utility.yul\":526:556   */\n      tag_62\n        /* \"#utility.yul\":550:555   */\n      dup3\n        /* \"#utility.yul\":526:556   */\n      tag_51\n      jump\t// in\n    tag_62:\n        /* \"#utility.yul\":513:556   */\n      swap1\n      pop\n        /* \"#utility.yul\":439:562   */\n      swap2\n      swap1\n      pop\n      jump\t// out\n        /* \"#utility.yul\":568:707   */\n    tag_53:\n        /* \"#utility.yul\":659:700   */\n      tag_64\n        /* \"#utility.yul\":694:699   */\n      dup2\n        /* \"#utility.yul\":659:700   */\n      tag_52\n      jump\t// in\n    tag_64:\n        /* \"#utility.yul\":654:657   */\n      dup3\n        /* \"#utility.yul\":647:701   */\n      mstore\n        /* \"#utility.yul\":568:707   */\n      pop\n      pop\n      jump\t// out\n        /* \"#utility.yul\":713:943   */\n    tag_13:\n        /* \"#utility.yul\":810:814   */\n      0x00\n        /* \"#utility.yul\":848:850   */\n      0x20\n        /* \"#utility.yul\":837:846   */\n      dup3\n        /* \"#utility.yul\":833:851   */\n      add\n        /* \"#utility.yul\":825:851   */\n      swap1\n      pop\n        /* \"#utility.yul\":861:936   */\n      tag_66\n        /* \"#utility.yul\":933:934   */\n      0x00\n        /* \"#utility.yul\":922:931   */\n      dup4\n        /* \"#utility.yul\":918:935   */\n      add\n        /* \"#utility.yul\":909:915   */\n      dup5\n        /* \"#utility.yul\":861:936   */\n      tag_53\n      jump\t// in\n    tag_66:\n        /* \"#utility.yul\":713:943   */\n      swap3\n      swap2\n      pop\n      pop\n      jump\t// out\n\n    auxdata: 0xa2646970667358221220409693f35801d320b2ca4eb9c64ea3b0fa8a8f4ebbd5770fa0467edbe4248dc764736f6c63430008150033\n}\n",
				"bytecode": {
					"linkReferences": {},
					"object": "608060405234801561000f575f80fd5b506102d18061001d5f395ff3fe608060405234801561000f575f80fd5b5060043610610055575f3560e01c80636059543314610059578063a2c2d66614610063578063a753977514610081578063a9cc47181461008b578063b6588ffd14610095575b5f80fd5b61006161009f565b005b61006b610102565b6040516100789190610282565b60405180910390f35b610089610112565b005b610093610187565b005b61009d6101fd565b005b5f60038111156100b2576100b161020f565b5b5f8054906101000a900460ff1660038111156100d1576100d061020f565b5b036101005760015f806101000a81548160ff021916908360038111156100fa576100f961020f565b5b02179055505b565b5f8054906101000a900460ff1681565b600160038111156101265761012561020f565b5b5f8054906101000a900460ff1660038111156101455761014461020f565b5b036101855760038081111561015d5761015c61020f565b5b5f806101000a81548160ff0219169083600381111561017f5761017e61020f565b5b02179055505b565b6001600381111561019b5761019a61020f565b5b5f8054906101000a900460ff1660038111156101ba576101b961020f565b5b036101fb57600260038111156101d3576101d261020f565b5b5f806101000a81548160ff021916908360038111156101f5576101f461020f565b5b02179055505b565b5f806101000a81549060ff0219169055565b7f4e487b71000000000000000000000000000000000000000000000000000000005f52602160045260245ffd5b6004811061024d5761024c61020f565b5b50565b5f81905061025d8261023c565b919050565b5f61026c82610250565b9050919050565b61027c81610262565b82525050565b5f6020820190506102955f830184610273565b9291505056fea2646970667358221220409693f35801d320b2ca4eb9c64ea3b0fa8a8f4ebbd5770fa0467edbe4248dc764736f6c63430008150033",
					"opcodes": "PUSH1 0x80 PUSH1 0x40 MSTORE CALLVALUE DUP1 ISZERO PUSH2 0xF JUMPI PUSH0 DUP1 REVERT JUMPDEST POP PUSH2 0x2D1 DUP1 PUSH2 0x1D PUSH0 CODECOPY PUSH0 RETURN INVALID PUSH1 0x80 PUSH1 0x40 MSTORE CALLVALUE DUP1 ISZERO PUSH2 0xF JUMPI PUSH0 DUP1 REVERT JUMPDEST POP PUSH1 0x4 CALLDATASIZE LT PUSH2 0x55 JUMPI PUSH0 CALLDATALOAD PUSH1 0xE0 SHR DUP1 PUSH4 0x60595433 EQ PUSH2 0x59 JUMPI DUP1 PUSH4 0xA2C2D666 EQ PUSH2 0x63 JUMPI DUP1 PUSH4 0xA7539775 EQ PUSH2 0x81 JUMPI DUP1 PUSH4 0xA9CC4718 EQ PUSH2 0x8B JUMPI DUP1 PUSH4 0xB6588FFD EQ PUSH2 0x95 JUMPI JUMPDEST PUSH0 DUP1 REVERT JUMPDEST PUSH2 0x61 PUSH2 0x9F JUMP JUMPDEST STOP JUMPDEST PUSH2 0x6B PUSH2 0x102 JUMP JUMPDEST PUSH1 0x40 MLOAD PUSH2 0x78 SWAP2 SWAP1 PUSH2 0x282 JUMP JUMPDEST PUSH1 0x40 MLOAD DUP1 SWAP2 SUB SWAP1 RETURN JUMPDEST PUSH2 0x89 PUSH2 0x112 JUMP JUMPDEST STOP JUMPDEST PUSH2 0x93 PUSH2 0x187 JUMP JUMPDEST STOP JUMPDEST PUSH2 0x9D PUSH2 0x1FD JUMP JUMPDEST STOP JUMPDEST PUSH0 PUSH1 0x3 DUP2 GT ISZERO PUSH2 0xB2 JUMPI PUSH2 0xB1 PUSH2 0x20F JUMP JUMPDEST JUMPDEST PUSH0 DUP1 SLOAD SWAP1 PUSH2 0x100 EXP SWAP1 DIV PUSH1 0xFF AND PUSH1 0x3 DUP2 GT ISZERO PUSH2 0xD1 JUMPI PUSH2 0xD0 PUSH2 0x20F JUMP JUMPDEST JUMPDEST SUB PUSH2 0x100 JUMPI PUSH1 0x1 PUSH0 DUP1 PUSH2 0x100 EXP DUP2 SLOAD DUP2 PUSH1 0xFF MUL NOT AND SWAP1 DUP4 PUSH1 0x3 DUP2 GT ISZERO PUSH2 0xFA JUMPI PUSH2 0xF9 PUSH2 0x20F JUMP JUMPDEST JUMPDEST MUL OR SWAP1 SSTORE POP JUMPDEST JUMP JUMPDEST PUSH0 DUP1 SLOAD SWAP1 PUSH2 0x100 EXP SWAP1 DIV PUSH1 0xFF AND DUP2 JUMP JUMPDEST PUSH1 0x1 PUSH1 0x3 DUP2 GT ISZERO PUSH2 0x126 JUMPI PUSH2 0x125 PUSH2 0x20F JUMP JUMPDEST JUMPDEST PUSH0 DUP1 SLOAD SWAP1 PUSH2 0x100 EXP SWAP1 DIV PUSH1 0xFF AND PUSH1 0x3 DUP2 GT ISZERO PUSH2 0x145 JUMPI PUSH2 0x144 PUSH2 0x20F JUMP JUMPDEST JUMPDEST SUB PUSH2 0x185 JUMPI PUSH1 0x3 DUP1 DUP2 GT ISZERO PUSH2 0x15D JUMPI PUSH2 0x15C PUSH2 0x20F JUMP JUMPDEST JUMPDEST PUSH0 DUP1 PUSH2 0x100 EXP DUP2 SLOAD DUP2 PUSH1 0xFF MUL NOT AND SWAP1 DUP4 PUSH1 0x3 DUP2 GT ISZERO PUSH2 0x17F JUMPI PUSH2 0x17E PUSH2 0x20F JUMP JUMPDEST JUMPDEST MUL OR SWAP1 SSTORE POP JUMPDEST JUMP JUMPDEST PUSH1 0x1 PUSH1 0x3 DUP2 GT ISZERO PUSH2 0x19B JUMPI PUSH2 0x19A PUSH2 0x20F JUMP JUMPDEST JUMPDEST PUSH0 DUP1 SLOAD SWAP1 PUSH2 0x100 EXP SWAP1 DIV PUSH1 0xFF AND PUSH1 0x3 DUP2 GT ISZERO PUSH2 0x1BA JUMPI PUSH2 0x1B9 PUSH2 0x20F JUMP JUMPDEST JUMPDEST SUB PUSH2 0x1FB JUMPI PUSH1 0x2 PUSH1 0x3 DUP2 GT ISZERO PUSH2 0x1D3 JUMPI PUSH2 0x1D2 PUSH2 0x20F JUMP JUMPDEST JUMPDEST PUSH0 DUP1 PUSH2 0x100 EXP DUP2 SLOAD DUP2 PUSH1 0xFF MUL NOT AND SWAP1 DUP4 PUSH1 0x3 DUP2 GT ISZERO PUSH2 0x1F5 JUMPI PUSH2 0x1F4 PUSH2 0x20F JUMP JUMPDEST JUMPDEST MUL OR SWAP1 SSTORE POP JUMPDEST JUMP JUMPDEST PUSH0 DUP1 PUSH2 0x100 EXP DUP2 SLOAD SWAP1 PUSH1 0xFF MUL NOT AND SWAP1 SSTORE JUMP JUMPDEST PUSH32 0x4E487B7100000000000000000000000000000000000000000000000000000000 PUSH0 MSTORE PUSH1 0x21 PUSH1 0x4 MSTORE PUSH1 0x24 PUSH0 REVERT JUMPDEST PUSH1 0x4 DUP2 LT PUSH2 0x24D JUMPI PUSH2 0x24C PUSH2 0x20F JUMP JUMPDEST JUMPDEST POP JUMP JUMPDEST PUSH0 DUP2 SWAP1 POP PUSH2 0x25D DUP3 PUSH2 0x23C JUMP JUMPDEST SWAP2 SWAP1 POP JUMP JUMPDEST PUSH0 PUSH2 0x26C DUP3 PUSH2 0x250 JUMP JUMPDEST SWAP1 POP SWAP2 SWAP1 POP JUMP JUMPDEST PUSH2 0x27C DUP2 PUSH2 0x262 JUMP JUMPDEST DUP3 MSTORE POP POP JUMP JUMPDEST PUSH0 PUSH1 0x20 DUP3 ADD SWAP1 POP PUSH2 0x295 PUSH0 DUP4 ADD DUP5 PUSH2 0x273 JUMP JUMPDEST SWAP3 SWAP2 POP POP JUMP INVALID LOG2 PUSH5 0x6970667358 0x22 SLT KECCAK256 BLOCKHASH SWAP7 SWAP4 RETURN PC ADD 0xD3 KECCAK256 0xB2 0xCA 0x4E 0xB9 0xC6 0x4E LOG3 0xB0 STATICCALL DUP11 DUP16 0x4E 0xBB 0xD5 PUSH24 0xFA0467EDBE4248DC764736F6C6343000815003300000000 "
				},
				"gasEstimates": {
					"creation": {
						"codeDepositCost": "144200",
						"executionCost": "188",
						"totalCost": "144388"
					},
					"external": {
						"Pass()": "26613",
						"del()": "24450",
						"e1()": "2551",
						"fail()": "26706",
						"scholarship()": "26684"
					}
				},
				"methodIdentifiers": {
					"Pass()": "60595433",
					"del()": "b6588ffd",
					"e1()": "a2c2d666",
					"fail()": "a9cc4718",
					"scholarship()": "a7539775"
				}
			},
			"storageLayout": {
				"storage": [
					{
						"astId": 9,
						"contract": "lab(Enums && Structs)/file_enum.sol:Enum",
						"label": "e1",
						"offset": 0,
						"slot": "0",
						"type": "t_enum(Exam)6"
					}
				],
				"types": {
					"t_enum(Exam)6": {
						"encoding": "inplace",
						"label": "enum Enum.Exam",
						"numberOfBytes": "1"
					}
				}
			},
			"userdoc": {
				"kind": "user",
				"methods": {},
				"version": 1
			}
		}
	}
}