{
	"lab(Enums && Structs)/file_enum.sol": {
		"PizzaDeli": {
			"abi": [
				{
					"inputs": [],
					"name": "del",
					"outputs": [],
					"stateMutability": "nonpayable",
					"type": "function"
				},
				{
					"inputs": [],
					"name": "e2",
					"outputs": [
						{
							"internalType": "enum PizzaDeli.pizzaOrder",
							"name": "",
							"type": "uint8"
						}
					],
					"stateMutability": "view",
					"type": "function"
				},
				{
					"inputs": [],
					"name": "e3",
					"outputs": [
						{
							"internalType": "enum PizzaDeli.pizzaOrder",
							"name": "",
							"type": "uint8"
						}
					],
					"stateMutability": "view",
					"type": "function"
				},
				{
					"inputs": [],
					"name": "e4",
					"outputs": [
						{
							"internalType": "enum PizzaDeli.pizzaOrder",
							"name": "",
							"type": "uint8"
						}
					],
					"stateMutability": "view",
					"type": "function"
				},
				{
					"inputs": [],
					"name": "e5",
					"outputs": [
						{
							"internalType": "enum PizzaDeli.pizzaOrder",
							"name": "",
							"type": "uint8"
						}
					],
					"stateMutability": "view",
					"type": "function"
				},
				{
					"inputs": [],
					"name": "get",
					"outputs": [
						{
							"internalType": "enum PizzaDeli.pizzaOrder",
							"name": "",
							"type": "uint8"
						}
					],
					"stateMutability": "view",
					"type": "function"
				},
				{
					"inputs": [],
					"name": "get01",
					"outputs": [
						{
							"internalType": "enum PizzaDeli.pizzaOrder",
							"name": "",
							"type": "uint8"
						},
						{
							"internalType": "enum PizzaDeli.pizzaOrder",
							"name": "",
							"type": "uint8"
						},
						{
							"internalType": "enum PizzaDeli.pizzaOrder",
							"name": "",
							"type": "uint8"
						},
						{
							"internalType": "enum PizzaDeli.pizzaOrder",
							"name": "",
							"type": "uint8"
						}
					],
					"stateMutability": "view",
					"type": "function"
				},
				{
					"inputs": [
						{
							"internalType": "enum PizzaDeli.pizzaOrder",
							"name": "y",
							"type": "uint8"
						}
					],
					"name": "setting",
					"outputs": [],
					"stateMutability": "nonpayable",
					"type": "function"
				},
				{
					"inputs": [
						{
							"internalType": "enum PizzaDeli.pizzaOrder",
							"name": "_i",
							"type": "uint8"
						}
					],
					"name": "to_set",
					"outputs": [],
					"stateMutability": "nonpayable",
					"type": "function"
				}
			],
			"devdoc": {
				"kind": "dev",
				"methods": {},
				"version": 1
			},
			"evm": {
				"assembly": "    /* \"lab(Enums && Structs)/file_enum.sol\":748:1636  contract PizzaDeli{... */\n  mstore(0x40, 0x80)\n    /* \"lab(Enums && Structs)/file_enum.sol\":972:992  pizzaOrder.Preparing */\n  0x01\n    /* \"lab(Enums && Structs)/file_enum.sol\":949:992  pizzaOrder public e3 = pizzaOrder.Preparing */\n  0x00\n  exp(0x0100, 0x01)\n  dup2\n  sload\n  dup2\n  0xff\n  mul\n  not\n  and\n  swap1\n  dup4\n  0x03\n  dup2\n  gt\n  iszero\n  tag_1\n  jumpi\n  tag_2\n  tag_3\n  jump\t// in\ntag_2:\ntag_1:\n  mul\n  or\n  swap1\n  sstore\n  pop\n    /* \"lab(Enums && Structs)/file_enum.sol\":1033:1034  3 */\n  0x03\n    /* \"lab(Enums && Structs)/file_enum.sol\":1022:1035  pizzaOrder(3) */\n  dup1\n  dup2\n  gt\n  iszero\n  tag_4\n  jumpi\n  tag_5\n  tag_3\n  jump\t// in\ntag_5:\ntag_4:\n    /* \"lab(Enums && Structs)/file_enum.sol\":999:1035  pizzaOrder public e4 = pizzaOrder(3) */\n  0x00\n  exp(0x0100, 0x02)\n  dup2\n  sload\n  dup2\n  0xff\n  mul\n  not\n  and\n  swap1\n  dup4\n  0x03\n  dup2\n  gt\n  iszero\n  tag_6\n  jumpi\n  tag_7\n  tag_3\n  jump\t// in\ntag_7:\ntag_6:\n  mul\n  or\n  swap1\n  sstore\n  pop\n    /* \"lab(Enums && Structs)/file_enum.sol\":748:1636  contract PizzaDeli{... */\n  callvalue\n  dup1\n  iszero\n  tag_8\n  jumpi\n  0x00\n  dup1\n  revert\ntag_8:\n  pop\n  jump(tag_9)\n    /* \"#utility.yul\":7:187   */\ntag_3:\n    /* \"#utility.yul\":55:132   */\n  0x4e487b7100000000000000000000000000000000000000000000000000000000\n    /* \"#utility.yul\":52:53   */\n  0x00\n    /* \"#utility.yul\":45:133   */\n  mstore\n    /* \"#utility.yul\":152:156   */\n  0x21\n    /* \"#utility.yul\":149:150   */\n  0x04\n    /* \"#utility.yul\":142:157   */\n  mstore\n    /* \"#utility.yul\":176:180   */\n  0x24\n    /* \"#utility.yul\":173:174   */\n  0x00\n    /* \"#utility.yul\":166:181   */\n  revert\n    /* \"lab(Enums && Structs)/file_enum.sol\":748:1636  contract PizzaDeli{... */\ntag_9:\n  dataSize(sub_0)\n  dup1\n  dataOffset(sub_0)\n  0x00\n  codecopy\n  0x00\n  return\nstop\n\nsub_0: assembly {\n        /* \"lab(Enums && Structs)/file_enum.sol\":748:1636  contract PizzaDeli{... */\n      mstore(0x40, 0x80)\n      callvalue\n      dup1\n      iszero\n      tag_1\n      jumpi\n      0x00\n      dup1\n      revert\n    tag_1:\n      pop\n      jumpi(tag_2, lt(calldatasize, 0x04))\n      shr(0xe0, calldataload(0x00))\n      dup1\n      0x79e5f054\n      gt\n      tag_12\n      jumpi\n      dup1\n      0x79e5f054\n      eq\n      tag_7\n      jumpi\n      dup1\n      0x972a2ec2\n      eq\n      tag_8\n      jumpi\n      dup1\n      0x9b31f9e8\n      eq\n      tag_9\n      jumpi\n      dup1\n      0xb644ac27\n      eq\n      tag_10\n      jumpi\n      dup1\n      0xb6588ffd\n      eq\n      tag_11\n      jumpi\n      jump(tag_2)\n    tag_12:\n      dup1\n      0x207be3\n      eq\n      tag_3\n      jumpi\n      dup1\n      0x3e8d7a30\n      eq\n      tag_4\n      jumpi\n      dup1\n      0x56800b52\n      eq\n      tag_5\n      jumpi\n      dup1\n      0x6d4ce63c\n      eq\n      tag_6\n      jumpi\n    tag_2:\n      0x00\n      dup1\n      revert\n        /* \"lab(Enums && Structs)/file_enum.sol\":1176:1240  function to_set(pizzaOrder _i) public {... */\n    tag_3:\n      tag_13\n      0x04\n      dup1\n      calldatasize\n      sub\n      dup2\n      add\n      swap1\n      tag_14\n      swap2\n      swap1\n      tag_15\n      jump\t// in\n    tag_14:\n      tag_16\n      jump\t// in\n    tag_13:\n      stop\n        /* \"lab(Enums && Structs)/file_enum.sol\":1378:1500  function get01()public view returns (pizzaOrder, pizzaOrder, pizzaOrder,pizzaOrder){... */\n    tag_4:\n      tag_17\n      tag_18\n      jump\t// in\n    tag_17:\n      mload(0x40)\n      tag_19\n      swap5\n      swap4\n      swap3\n      swap2\n      swap1\n      tag_20\n      jump\t// in\n    tag_19:\n      mload(0x40)\n      dup1\n      swap2\n      sub\n      swap1\n      return\n        /* \"lab(Enums && Structs)/file_enum.sol\":949:992  pizzaOrder public e3 = pizzaOrder.Preparing */\n    tag_5:\n      tag_21\n      tag_22\n      jump\t// in\n    tag_21:\n      mload(0x40)\n      tag_23\n      swap2\n      swap1\n      tag_24\n      jump\t// in\n    tag_23:\n      mload(0x40)\n      dup1\n      swap2\n      sub\n      swap1\n      return\n        /* \"lab(Enums && Structs)/file_enum.sol\":1297:1372  function get() public view returns (pizzaOrder){... */\n    tag_6:\n      tag_25\n      tag_26\n      jump\t// in\n    tag_25:\n      mload(0x40)\n      tag_27\n      swap2\n      swap1\n      tag_24\n      jump\t// in\n    tag_27:\n      mload(0x40)\n      dup1\n      swap2\n      sub\n      swap1\n      return\n        /* \"lab(Enums && Structs)/file_enum.sol\":999:1035  pizzaOrder public e4 = pizzaOrder(3) */\n    tag_7:\n      tag_28\n      tag_29\n      jump\t// in\n    tag_28:\n      mload(0x40)\n      tag_30\n      swap2\n      swap1\n      tag_24\n      jump\t// in\n    tag_30:\n      mload(0x40)\n      dup1\n      swap2\n      sub\n      swap1\n      return\n        /* \"lab(Enums && Structs)/file_enum.sol\":1108:1170  function setting(pizzaOrder y)public {... */\n    tag_8:\n      tag_31\n      0x04\n      dup1\n      calldatasize\n      sub\n      dup2\n      add\n      swap1\n      tag_32\n      swap2\n      swap1\n      tag_15\n      jump\t// in\n    tag_32:\n      tag_33\n      jump\t// in\n    tag_31:\n      stop\n        /* \"lab(Enums && Structs)/file_enum.sol\":922:942  pizzaOrder public e2 */\n    tag_9:\n      tag_34\n      tag_35\n      jump\t// in\n    tag_34:\n      mload(0x40)\n      tag_36\n      swap2\n      swap1\n      tag_24\n      jump\t// in\n    tag_36:\n      mload(0x40)\n      dup1\n      swap2\n      sub\n      swap1\n      return\n        /* \"lab(Enums && Structs)/file_enum.sol\":1080:1100  pizzaOrder public e5 */\n    tag_10:\n      tag_37\n      tag_38\n      jump\t// in\n    tag_37:\n      mload(0x40)\n      tag_39\n      swap2\n      swap1\n      tag_24\n      jump\t// in\n    tag_39:\n      mload(0x40)\n      dup1\n      swap2\n      sub\n      swap1\n      return\n        /* \"lab(Enums && Structs)/file_enum.sol\":1580:1629  function del()public {... */\n    tag_11:\n      tag_40\n      tag_41\n      jump\t// in\n    tag_40:\n      stop\n        /* \"lab(Enums && Structs)/file_enum.sol\":1176:1240  function to_set(pizzaOrder _i) public {... */\n    tag_16:\n        /* \"lab(Enums && Structs)/file_enum.sol\":1230:1232  _i */\n      dup1\n        /* \"lab(Enums && Structs)/file_enum.sol\":1225:1227  e2 */\n      0x00\n      dup1\n        /* \"lab(Enums && Structs)/file_enum.sol\":1225:1232  e2 = _i */\n      0x0100\n      exp\n      dup2\n      sload\n      dup2\n      0xff\n      mul\n      not\n      and\n      swap1\n      dup4\n      0x03\n      dup2\n      gt\n      iszero\n      tag_43\n      jumpi\n      tag_44\n      tag_45\n      jump\t// in\n    tag_44:\n    tag_43:\n      mul\n      or\n      swap1\n      sstore\n      pop\n        /* \"lab(Enums && Structs)/file_enum.sol\":1176:1240  function to_set(pizzaOrder _i) public {... */\n      pop\n      jump\t// out\n        /* \"lab(Enums && Structs)/file_enum.sol\":1378:1500  function get01()public view returns (pizzaOrder, pizzaOrder, pizzaOrder,pizzaOrder){... */\n    tag_18:\n        /* \"lab(Enums && Structs)/file_enum.sol\":1415:1425  pizzaOrder */\n      0x00\n        /* \"lab(Enums && Structs)/file_enum.sol\":1427:1437  pizzaOrder */\n      dup1\n        /* \"lab(Enums && Structs)/file_enum.sol\":1439:1449  pizzaOrder */\n      0x00\n        /* \"lab(Enums && Structs)/file_enum.sol\":1450:1460  pizzaOrder */\n      dup1\n        /* \"lab(Enums && Structs)/file_enum.sol\":1480:1482  e2 */\n      0x00\n      dup1\n      sload\n      swap1\n      0x0100\n      exp\n      swap1\n      div\n      0xff\n      and\n        /* \"lab(Enums && Structs)/file_enum.sol\":1483:1485  e3 */\n      0x00\n      0x01\n      swap1\n      sload\n      swap1\n      0x0100\n      exp\n      swap1\n      div\n      0xff\n      and\n        /* \"lab(Enums && Structs)/file_enum.sol\":1486:1488  e4 */\n      0x00\n      0x02\n      swap1\n      sload\n      swap1\n      0x0100\n      exp\n      swap1\n      div\n      0xff\n      and\n        /* \"lab(Enums && Structs)/file_enum.sol\":1489:1491  e5 */\n      0x00\n      0x03\n      swap1\n      sload\n      swap1\n      0x0100\n      exp\n      swap1\n      div\n      0xff\n      and\n        /* \"lab(Enums && Structs)/file_enum.sol\":1472:1492  return (e2,e3,e4,e5) */\n      swap4\n      pop\n      swap4\n      pop\n      swap4\n      pop\n      swap4\n      pop\n        /* \"lab(Enums && Structs)/file_enum.sol\":1378:1500  function get01()public view returns (pizzaOrder, pizzaOrder, pizzaOrder,pizzaOrder){... */\n      swap1\n      swap2\n      swap3\n      swap4\n      jump\t// out\n        /* \"lab(Enums && Structs)/file_enum.sol\":949:992  pizzaOrder public e3 = pizzaOrder.Preparing */\n    tag_22:\n      0x00\n      0x01\n      swap1\n      sload\n      swap1\n      0x0100\n      exp\n      swap1\n      div\n      0xff\n      and\n      dup2\n      jump\t// out\n        /* \"lab(Enums && Structs)/file_enum.sol\":1297:1372  function get() public view returns (pizzaOrder){... */\n    tag_26:\n        /* \"lab(Enums && Structs)/file_enum.sol\":1333:1343  pizzaOrder */\n      0x00\n        /* \"lab(Enums && Structs)/file_enum.sol\":1362:1364  e5 */\n      dup1\n      0x03\n      swap1\n      sload\n      swap1\n      0x0100\n      exp\n      swap1\n      div\n      0xff\n      and\n        /* \"lab(Enums && Structs)/file_enum.sol\":1355:1364  return e5 */\n      swap1\n      pop\n        /* \"lab(Enums && Structs)/file_enum.sol\":1297:1372  function get() public view returns (pizzaOrder){... */\n      swap1\n      jump\t// out\n        /* \"lab(Enums && Structs)/file_enum.sol\":999:1035  pizzaOrder public e4 = pizzaOrder(3) */\n    tag_29:\n      0x00\n      0x02\n      swap1\n      sload\n      swap1\n      0x0100\n      exp\n      swap1\n      div\n      0xff\n      and\n      dup2\n      jump\t// out\n        /* \"lab(Enums && Structs)/file_enum.sol\":1108:1170  function setting(pizzaOrder y)public {... */\n    tag_33:\n        /* \"lab(Enums && Structs)/file_enum.sol\":1161:1162  y */\n      dup1\n        /* \"lab(Enums && Structs)/file_enum.sol\":1156:1158  e5 */\n      0x00\n      0x03\n        /* \"lab(Enums && Structs)/file_enum.sol\":1156:1162  e5 = y */\n      0x0100\n      exp\n      dup2\n      sload\n      dup2\n      0xff\n      mul\n      not\n      and\n      swap1\n      dup4\n      0x03\n      dup2\n      gt\n      iszero\n      tag_49\n      jumpi\n      tag_50\n      tag_45\n      jump\t// in\n    tag_50:\n    tag_49:\n      mul\n      or\n      swap1\n      sstore\n      pop\n        /* \"lab(Enums && Structs)/file_enum.sol\":1108:1170  function setting(pizzaOrder y)public {... */\n      pop\n      jump\t// out\n        /* \"lab(Enums && Structs)/file_enum.sol\":922:942  pizzaOrder public e2 */\n    tag_35:\n      0x00\n      dup1\n      sload\n      swap1\n      0x0100\n      exp\n      swap1\n      div\n      0xff\n      and\n      dup2\n      jump\t// out\n        /* \"lab(Enums && Structs)/file_enum.sol\":1080:1100  pizzaOrder public e5 */\n    tag_38:\n      0x00\n      0x03\n      swap1\n      sload\n      swap1\n      0x0100\n      exp\n      swap1\n      div\n      0xff\n      and\n      dup2\n      jump\t// out\n        /* \"lab(Enums && Structs)/file_enum.sol\":1580:1629  function del()public {... */\n    tag_41:\n        /* \"lab(Enums && Structs)/file_enum.sol\":1619:1621  e5 */\n      0x00\n      0x03\n        /* \"lab(Enums && Structs)/file_enum.sol\":1612:1621  delete e5 */\n      0x0100\n      exp\n      dup2\n      sload\n      swap1\n      0xff\n      mul\n      not\n      and\n      swap1\n      sstore\n        /* \"lab(Enums && Structs)/file_enum.sol\":1580:1629  function del()public {... */\n      jump\t// out\n        /* \"#utility.yul\":88:205   */\n    tag_53:\n        /* \"#utility.yul\":197:198   */\n      0x00\n        /* \"#utility.yul\":194:195   */\n      dup1\n        /* \"#utility.yul\":187:199   */\n      revert\n        /* \"#utility.yul\":334:446   */\n    tag_55:\n        /* \"#utility.yul\":420:421   */\n      0x04\n        /* \"#utility.yul\":413:418   */\n      dup2\n        /* \"#utility.yul\":410:422   */\n      lt\n        /* \"#utility.yul\":400:440   */\n      tag_66\n      jumpi\n        /* \"#utility.yul\":436:437   */\n      0x00\n        /* \"#utility.yul\":433:434   */\n      dup1\n        /* \"#utility.yul\":426:438   */\n      revert\n        /* \"#utility.yul\":400:440   */\n    tag_66:\n        /* \"#utility.yul\":334:446   */\n      pop\n      jump\t// out\n        /* \"#utility.yul\":452:617   */\n    tag_56:\n        /* \"#utility.yul\":511:516   */\n      0x00\n        /* \"#utility.yul\":549:555   */\n      dup2\n        /* \"#utility.yul\":536:556   */\n      calldataload\n        /* \"#utility.yul\":527:556   */\n      swap1\n      pop\n        /* \"#utility.yul\":565:611   */\n      tag_68\n        /* \"#utility.yul\":605:610   */\n      dup2\n        /* \"#utility.yul\":565:611   */\n      tag_55\n      jump\t// in\n    tag_68:\n        /* \"#utility.yul\":452:617   */\n      swap3\n      swap2\n      pop\n      pop\n      jump\t// out\n        /* \"#utility.yul\":623:978   */\n    tag_15:\n        /* \"#utility.yul\":695:701   */\n      0x00\n        /* \"#utility.yul\":744:746   */\n      0x20\n        /* \"#utility.yul\":732:741   */\n      dup3\n        /* \"#utility.yul\":723:730   */\n      dup5\n        /* \"#utility.yul\":719:742   */\n      sub\n        /* \"#utility.yul\":715:747   */\n      slt\n        /* \"#utility.yul\":712:831   */\n      iszero\n      tag_70\n      jumpi\n        /* \"#utility.yul\":750:829   */\n      tag_71\n      tag_53\n      jump\t// in\n    tag_71:\n        /* \"#utility.yul\":712:831   */\n    tag_70:\n        /* \"#utility.yul\":870:871   */\n      0x00\n        /* \"#utility.yul\":895:961   */\n      tag_72\n        /* \"#utility.yul\":953:960   */\n      dup5\n        /* \"#utility.yul\":944:950   */\n      dup3\n        /* \"#utility.yul\":933:942   */\n      dup6\n        /* \"#utility.yul\":929:951   */\n      add\n        /* \"#utility.yul\":895:961   */\n      tag_56\n      jump\t// in\n    tag_72:\n        /* \"#utility.yul\":885:961   */\n      swap2\n      pop\n        /* \"#utility.yul\":841:971   */\n      pop\n        /* \"#utility.yul\":623:978   */\n      swap3\n      swap2\n      pop\n      pop\n      jump\t// out\n        /* \"#utility.yul\":984:1164   */\n    tag_45:\n        /* \"#utility.yul\":1032:1109   */\n      0x4e487b7100000000000000000000000000000000000000000000000000000000\n        /* \"#utility.yul\":1029:1030   */\n      0x00\n        /* \"#utility.yul\":1022:1110   */\n      mstore\n        /* \"#utility.yul\":1129:1133   */\n      0x21\n        /* \"#utility.yul\":1126:1127   */\n      0x04\n        /* \"#utility.yul\":1119:1134   */\n      mstore\n        /* \"#utility.yul\":1153:1157   */\n      0x24\n        /* \"#utility.yul\":1150:1151   */\n      0x00\n        /* \"#utility.yul\":1143:1158   */\n      revert\n        /* \"#utility.yul\":1170:1288   */\n    tag_57:\n        /* \"#utility.yul\":1256:1257   */\n      0x04\n        /* \"#utility.yul\":1249:1254   */\n      dup2\n        /* \"#utility.yul\":1246:1258   */\n      lt\n        /* \"#utility.yul\":1236:1282   */\n      tag_75\n      jumpi\n        /* \"#utility.yul\":1262:1280   */\n      tag_76\n      tag_45\n      jump\t// in\n    tag_76:\n        /* \"#utility.yul\":1236:1282   */\n    tag_75:\n        /* \"#utility.yul\":1170:1288   */\n      pop\n      jump\t// out\n        /* \"#utility.yul\":1294:1431   */\n    tag_58:\n        /* \"#utility.yul\":1344:1351   */\n      0x00\n        /* \"#utility.yul\":1373:1378   */\n      dup2\n        /* \"#utility.yul\":1362:1378   */\n      swap1\n      pop\n        /* \"#utility.yul\":1379:1425   */\n      tag_78\n        /* \"#utility.yul\":1419:1424   */\n      dup3\n        /* \"#utility.yul\":1379:1425   */\n      tag_57\n      jump\t// in\n    tag_78:\n        /* \"#utility.yul\":1294:1431   */\n      swap2\n      swap1\n      pop\n      jump\t// out\n        /* \"#utility.yul\":1437:1574   */\n    tag_59:\n        /* \"#utility.yul\":1498:1507   */\n      0x00\n        /* \"#utility.yul\":1531:1568   */\n      tag_80\n        /* \"#utility.yul\":1562:1567   */\n      dup3\n        /* \"#utility.yul\":1531:1568   */\n      tag_58\n      jump\t// in\n    tag_80:\n        /* \"#utility.yul\":1518:1568   */\n      swap1\n      pop\n        /* \"#utility.yul\":1437:1574   */\n      swap2\n      swap1\n      pop\n      jump\t// out\n        /* \"#utility.yul\":1580:1733   */\n    tag_60:\n        /* \"#utility.yul\":1678:1726   */\n      tag_82\n        /* \"#utility.yul\":1720:1725   */\n      dup2\n        /* \"#utility.yul\":1678:1726   */\n      tag_59\n      jump\t// in\n    tag_82:\n        /* \"#utility.yul\":1673:1676   */\n      dup3\n        /* \"#utility.yul\":1666:1727   */\n      mstore\n        /* \"#utility.yul\":1580:1733   */\n      pop\n      pop\n      jump\t// out\n        /* \"#utility.yul\":1739:2380   */\n    tag_20:\n        /* \"#utility.yul\":1960:1964   */\n      0x00\n        /* \"#utility.yul\":1998:2001   */\n      0x80\n        /* \"#utility.yul\":1987:1996   */\n      dup3\n        /* \"#utility.yul\":1983:2002   */\n      add\n        /* \"#utility.yul\":1975:2002   */\n      swap1\n      pop\n        /* \"#utility.yul\":2012:2094   */\n      tag_84\n        /* \"#utility.yul\":2091:2092   */\n      0x00\n        /* \"#utility.yul\":2080:2089   */\n      dup4\n        /* \"#utility.yul\":2076:2093   */\n      add\n        /* \"#utility.yul\":2067:2073   */\n      dup8\n        /* \"#utility.yul\":2012:2094   */\n      tag_60\n      jump\t// in\n    tag_84:\n        /* \"#utility.yul\":2104:2187   */\n      tag_85\n        /* \"#utility.yul\":2183:2185   */\n      0x20\n        /* \"#utility.yul\":2172:2181   */\n      dup4\n        /* \"#utility.yul\":2168:2186   */\n      add\n        /* \"#utility.yul\":2159:2165   */\n      dup7\n        /* \"#utility.yul\":2104:2187   */\n      tag_60\n      jump\t// in\n    tag_85:\n        /* \"#utility.yul\":2197:2280   */\n      tag_86\n        /* \"#utility.yul\":2276:2278   */\n      0x40\n        /* \"#utility.yul\":2265:2274   */\n      dup4\n        /* \"#utility.yul\":2261:2279   */\n      add\n        /* \"#utility.yul\":2252:2258   */\n      dup6\n        /* \"#utility.yul\":2197:2280   */\n      tag_60\n      jump\t// in\n    tag_86:\n        /* \"#utility.yul\":2290:2373   */\n      tag_87\n        /* \"#utility.yul\":2369:2371   */\n      0x60\n        /* \"#utility.yul\":2358:2367   */\n      dup4\n        /* \"#utility.yul\":2354:2372   */\n      add\n        /* \"#utility.yul\":2345:2351   */\n      dup5\n        /* \"#utility.yul\":2290:2373   */\n      tag_60\n      jump\t// in\n    tag_87:\n        /* \"#utility.yul\":1739:2380   */\n      swap6\n      swap5\n      pop\n      pop\n      pop\n      pop\n      pop\n      jump\t// out\n        /* \"#utility.yul\":2386:2630   */\n    tag_24:\n        /* \"#utility.yul\":2490:2494   */\n      0x00\n        /* \"#utility.yul\":2528:2530   */\n      0x20\n        /* \"#utility.yul\":2517:2526   */\n      dup3\n        /* \"#utility.yul\":2513:2531   */\n      add\n        /* \"#utility.yul\":2505:2531   */\n      swap1\n      pop\n        /* \"#utility.yul\":2541:2623   */\n      tag_89\n        /* \"#utility.yul\":2620:2621   */\n      0x00\n        /* \"#utility.yul\":2609:2618   */\n      dup4\n        /* \"#utility.yul\":2605:2622   */\n      add\n        /* \"#utility.yul\":2596:2602   */\n      dup5\n        /* \"#utility.yul\":2541:2623   */\n      tag_60\n      jump\t// in\n    tag_89:\n        /* \"#utility.yul\":2386:2630   */\n      swap3\n      swap2\n      pop\n      pop\n      jump\t// out\n\n    auxdata: 0xa2646970667358221220d6bfd434686fa9409411c10ecf23685eff41e343e28c6dfaab83a3750d6d28cb64736f6c63430008150033\n}\n",
				"bytecode": {
					"linkReferences": {},
					"object": "608060405260015f60016101000a81548160ff021916908360038111156100295761002861007a565b5b02179055506003808111156100415761004061007a565b5b5f60026101000a81548160ff021916908360038111156100645761006361007a565b5b0217905550348015610074575f80fd5b506100a7565b7f4e487b71000000000000000000000000000000000000000000000000000000005f52602160045260245ffd5b6103f5806100b45f395ff3fe608060405234801561000f575f80fd5b5060043610610090575f3560e01c806379e5f0541161006457806379e5f0541461010d578063972a2ec21461012b5780639b31f9e814610147578063b644ac2714610165578063b6588ffd1461018357610090565b8062207be3146100945780633e8d7a30146100b057806356800b52146100d15780636d4ce63c146100ef575b5f80fd5b6100ae60048036038101906100a991906102c5565b61018d565b005b6100b86101b8565b6040516100c89493929190610363565b60405180910390f35b6100d9610204565b6040516100e691906103a6565b60405180910390f35b6100f7610216565b60405161010491906103a6565b60405180910390f35b61011561022b565b60405161012291906103a6565b60405180910390f35b610145600480360381019061014091906102c5565b61023d565b005b61014f610269565b60405161015c91906103a6565b60405180910390f35b61016d610279565b60405161017a91906103a6565b60405180910390f35b61018b61028b565b005b805f806101000a81548160ff021916908360038111156101b0576101af6102f0565b5b021790555050565b5f805f805f8054906101000a900460ff165f60019054906101000a900460ff165f60029054906101000a900460ff165f60039054906101000a900460ff16935093509350935090919293565b5f60019054906101000a900460ff1681565b5f8060039054906101000a900460ff16905090565b5f60029054906101000a900460ff1681565b805f60036101000a81548160ff02191690836003811115610261576102606102f0565b5b021790555050565b5f8054906101000a900460ff1681565b5f60039054906101000a900460ff1681565b5f60036101000a81549060ff0219169055565b5f80fd5b600481106102ae575f80fd5b50565b5f813590506102bf816102a2565b92915050565b5f602082840312156102da576102d961029e565b5b5f6102e7848285016102b1565b91505092915050565b7f4e487b71000000000000000000000000000000000000000000000000000000005f52602160045260245ffd5b6004811061032e5761032d6102f0565b5b50565b5f81905061033e8261031d565b919050565b5f61034d82610331565b9050919050565b61035d81610343565b82525050565b5f6080820190506103765f830187610354565b6103836020830186610354565b6103906040830185610354565b61039d6060830184610354565b95945050505050565b5f6020820190506103b95f830184610354565b9291505056fea2646970667358221220d6bfd434686fa9409411c10ecf23685eff41e343e28c6dfaab83a3750d6d28cb64736f6c63430008150033",
					"opcodes": "PUSH1 0x80 PUSH1 0x40 MSTORE PUSH1 0x1 PUSH0 PUSH1 0x1 PUSH2 0x100 EXP DUP2 SLOAD DUP2 PUSH1 0xFF MUL NOT AND SWAP1 DUP4 PUSH1 0x3 DUP2 GT ISZERO PUSH2 0x29 JUMPI PUSH2 0x28 PUSH2 0x7A JUMP JUMPDEST JUMPDEST MUL OR SWAP1 SSTORE POP PUSH1 0x3 DUP1 DUP2 GT ISZERO PUSH2 0x41 JUMPI PUSH2 0x40 PUSH2 0x7A JUMP JUMPDEST JUMPDEST PUSH0 PUSH1 0x2 PUSH2 0x100 EXP DUP2 SLOAD DUP2 PUSH1 0xFF MUL NOT AND SWAP1 DUP4 PUSH1 0x3 DUP2 GT ISZERO PUSH2 0x64 JUMPI PUSH2 0x63 PUSH2 0x7A JUMP JUMPDEST JUMPDEST MUL OR SWAP1 SSTORE POP CALLVALUE DUP1 ISZERO PUSH2 0x74 JUMPI PUSH0 DUP1 REVERT JUMPDEST POP PUSH2 0xA7 JUMP JUMPDEST PUSH32 0x4E487B7100000000000000000000000000000000000000000000000000000000 PUSH0 MSTORE PUSH1 0x21 PUSH1 0x4 MSTORE PUSH1 0x24 PUSH0 REVERT JUMPDEST PUSH2 0x3F5 DUP1 PUSH2 0xB4 PUSH0 CODECOPY PUSH0 RETURN INVALID PUSH1 0x80 PUSH1 0x40 MSTORE CALLVALUE DUP1 ISZERO PUSH2 0xF JUMPI PUSH0 DUP1 REVERT JUMPDEST POP PUSH1 0x4 CALLDATASIZE LT PUSH2 0x90 JUMPI PUSH0 CALLDATALOAD PUSH1 0xE0 SHR DUP1 PUSH4 0x79E5F054 GT PUSH2 0x64 JUMPI DUP1 PUSH4 0x79E5F054 EQ PUSH2 0x10D JUMPI DUP1 PUSH4 0x972A2EC2 EQ PUSH2 0x12B JUMPI DUP1 PUSH4 0x9B31F9E8 EQ PUSH2 0x147 JUMPI DUP1 PUSH4 0xB644AC27 EQ PUSH2 0x165 JUMPI DUP1 PUSH4 0xB6588FFD EQ PUSH2 0x183 JUMPI PUSH2 0x90 JUMP JUMPDEST DUP1 PUSH3 0x207BE3 EQ PUSH2 0x94 JUMPI DUP1 PUSH4 0x3E8D7A30 EQ PUSH2 0xB0 JUMPI DUP1 PUSH4 0x56800B52 EQ PUSH2 0xD1 JUMPI DUP1 PUSH4 0x6D4CE63C EQ PUSH2 0xEF JUMPI JUMPDEST PUSH0 DUP1 REVERT JUMPDEST PUSH2 0xAE PUSH1 0x4 DUP1 CALLDATASIZE SUB DUP2 ADD SWAP1 PUSH2 0xA9 SWAP2 SWAP1 PUSH2 0x2C5 JUMP JUMPDEST PUSH2 0x18D JUMP JUMPDEST STOP JUMPDEST PUSH2 0xB8 PUSH2 0x1B8 JUMP JUMPDEST PUSH1 0x40 MLOAD PUSH2 0xC8 SWAP5 SWAP4 SWAP3 SWAP2 SWAP1 PUSH2 0x363 JUMP JUMPDEST PUSH1 0x40 MLOAD DUP1 SWAP2 SUB SWAP1 RETURN JUMPDEST PUSH2 0xD9 PUSH2 0x204 JUMP JUMPDEST PUSH1 0x40 MLOAD PUSH2 0xE6 SWAP2 SWAP1 PUSH2 0x3A6 JUMP JUMPDEST PUSH1 0x40 MLOAD DUP1 SWAP2 SUB SWAP1 RETURN JUMPDEST PUSH2 0xF7 PUSH2 0x216 JUMP JUMPDEST PUSH1 0x40 MLOAD PUSH2 0x104 SWAP2 SWAP1 PUSH2 0x3A6 JUMP JUMPDEST PUSH1 0x40 MLOAD DUP1 SWAP2 SUB SWAP1 RETURN JUMPDEST PUSH2 0x115 PUSH2 0x22B JUMP JUMPDEST PUSH1 0x40 MLOAD PUSH2 0x122 SWAP2 SWAP1 PUSH2 0x3A6 JUMP JUMPDEST PUSH1 0x40 MLOAD DUP1 SWAP2 SUB SWAP1 RETURN JUMPDEST PUSH2 0x145 PUSH1 0x4 DUP1 CALLDATASIZE SUB DUP2 ADD SWAP1 PUSH2 0x140 SWAP2 SWAP1 PUSH2 0x2C5 JUMP JUMPDEST PUSH2 0x23D JUMP JUMPDEST STOP JUMPDEST PUSH2 0x14F PUSH2 0x269 JUMP JUMPDEST PUSH1 0x40 MLOAD PUSH2 0x15C SWAP2 SWAP1 PUSH2 0x3A6 JUMP JUMPDEST PUSH1 0x40 MLOAD DUP1 SWAP2 SUB SWAP1 RETURN JUMPDEST PUSH2 0x16D PUSH2 0x279 JUMP JUMPDEST PUSH1 0x40 MLOAD PUSH2 0x17A SWAP2 SWAP1 PUSH2 0x3A6 JUMP JUMPDEST PUSH1 0x40 MLOAD DUP1 SWAP2 SUB SWAP1 RETURN JUMPDEST PUSH2 0x18B PUSH2 0x28B JUMP JUMPDEST STOP JUMPDEST DUP1 PUSH0 DUP1 PUSH2 0x100 EXP DUP2 SLOAD DUP2 PUSH1 0xFF MUL NOT AND SWAP1 DUP4 PUSH1 0x3 DUP2 GT ISZERO PUSH2 0x1B0 JUMPI PUSH2 0x1AF PUSH2 0x2F0 JUMP JUMPDEST JUMPDEST MUL OR SWAP1 SSTORE POP POP JUMP JUMPDEST PUSH0 DUP1 PUSH0 DUP1 PUSH0 DUP1 SLOAD SWAP1 PUSH2 0x100 EXP SWAP1 DIV PUSH1 0xFF AND PUSH0 PUSH1 0x1 SWAP1 SLOAD SWAP1 PUSH2 0x100 EXP SWAP1 DIV PUSH1 0xFF AND PUSH0 PUSH1 0x2 SWAP1 SLOAD SWAP1 PUSH2 0x100 EXP SWAP1 DIV PUSH1 0xFF AND PUSH0 PUSH1 0x3 SWAP1 SLOAD SWAP1 PUSH2 0x100 EXP SWAP1 DIV PUSH1 0xFF AND SWAP4 POP SWAP4 POP SWAP4 POP SWAP4 POP SWAP1 SWAP2 SWAP3 SWAP4 JUMP JUMPDEST PUSH0 PUSH1 0x1 SWAP1 SLOAD SWAP1 PUSH2 0x100 EXP SWAP1 DIV PUSH1 0xFF AND DUP2 JUMP JUMPDEST PUSH0 DUP1 PUSH1 0x3 SWAP1 SLOAD SWAP1 PUSH2 0x100 EXP SWAP1 DIV PUSH1 0xFF AND SWAP1 POP SWAP1 JUMP JUMPDEST PUSH0 PUSH1 0x2 SWAP1 SLOAD SWAP1 PUSH2 0x100 EXP SWAP1 DIV PUSH1 0xFF AND DUP2 JUMP JUMPDEST DUP1 PUSH0 PUSH1 0x3 PUSH2 0x100 EXP DUP2 SLOAD DUP2 PUSH1 0xFF MUL NOT AND SWAP1 DUP4 PUSH1 0x3 DUP2 GT ISZERO PUSH2 0x261 JUMPI PUSH2 0x260 PUSH2 0x2F0 JUMP JUMPDEST JUMPDEST MUL OR SWAP1 SSTORE POP POP JUMP JUMPDEST PUSH0 DUP1 SLOAD SWAP1 PUSH2 0x100 EXP SWAP1 DIV PUSH1 0xFF AND DUP2 JUMP JUMPDEST PUSH0 PUSH1 0x3 SWAP1 SLOAD SWAP1 PUSH2 0x100 EXP SWAP1 DIV PUSH1 0xFF AND DUP2 JUMP JUMPDEST PUSH0 PUSH1 0x3 PUSH2 0x100 EXP DUP2 SLOAD SWAP1 PUSH1 0xFF MUL NOT AND SWAP1 SSTORE JUMP JUMPDEST PUSH0 DUP1 REVERT JUMPDEST PUSH1 0x4 DUP2 LT PUSH2 0x2AE JUMPI PUSH0 DUP1 REVERT JUMPDEST POP JUMP JUMPDEST PUSH0 DUP2 CALLDATALOAD SWAP1 POP PUSH2 0x2BF DUP2 PUSH2 0x2A2 JUMP JUMPDEST SWAP3 SWAP2 POP POP JUMP JUMPDEST PUSH0 PUSH1 0x20 DUP3 DUP5 SUB SLT ISZERO PUSH2 0x2DA JUMPI PUSH2 0x2D9 PUSH2 0x29E JUMP JUMPDEST JUMPDEST PUSH0 PUSH2 0x2E7 DUP5 DUP3 DUP6 ADD PUSH2 0x2B1 JUMP JUMPDEST SWAP2 POP POP SWAP3 SWAP2 POP POP JUMP JUMPDEST PUSH32 0x4E487B7100000000000000000000000000000000000000000000000000000000 PUSH0 MSTORE PUSH1 0x21 PUSH1 0x4 MSTORE PUSH1 0x24 PUSH0 REVERT JUMPDEST PUSH1 0x4 DUP2 LT PUSH2 0x32E JUMPI PUSH2 0x32D PUSH2 0x2F0 JUMP JUMPDEST JUMPDEST POP JUMP JUMPDEST PUSH0 DUP2 SWAP1 POP PUSH2 0x33E DUP3 PUSH2 0x31D JUMP JUMPDEST SWAP2 SWAP1 POP JUMP JUMPDEST PUSH0 PUSH2 0x34D DUP3 PUSH2 0x331 JUMP JUMPDEST SWAP1 POP SWAP2 SWAP1 POP JUMP JUMPDEST PUSH2 0x35D DUP2 PUSH2 0x343 JUMP JUMPDEST DUP3 MSTORE POP POP JUMP JUMPDEST PUSH0 PUSH1 0x80 DUP3 ADD SWAP1 POP PUSH2 0x376 PUSH0 DUP4 ADD DUP8 PUSH2 0x354 JUMP JUMPDEST PUSH2 0x383 PUSH1 0x20 DUP4 ADD DUP7 PUSH2 0x354 JUMP JUMPDEST PUSH2 0x390 PUSH1 0x40 DUP4 ADD DUP6 PUSH2 0x354 JUMP JUMPDEST PUSH2 0x39D PUSH1 0x60 DUP4 ADD DUP5 PUSH2 0x354 JUMP JUMPDEST SWAP6 SWAP5 POP POP POP POP POP JUMP JUMPDEST PUSH0 PUSH1 0x20 DUP3 ADD SWAP1 POP PUSH2 0x3B9 PUSH0 DUP4 ADD DUP5 PUSH2 0x354 JUMP JUMPDEST SWAP3 SWAP2 POP POP JUMP INVALID LOG2 PUSH5 0x6970667358 0x22 SLT KECCAK256 0xD6 0xBF 0xD4 CALLVALUE PUSH9 0x6FA9409411C10ECF23 PUSH9 0x5EFF41E343E28C6DFA 0xAB DUP4 LOG3 PUSH22 0xD6D28CB64736F6C6343000815003300000000000000 "
				},
				"gasEstimates": {
					"creation": {
						"codeDepositCost": "202600",
						"executionCost": "48953",
						"totalCost": "251553"
					},
					"external": {
						"del()": "24522",
						"e2()": "2595",
						"e3()": "2649",
						"e4()": "2604",
						"e5()": "2670",
						"get()": "2679",
						"get01()": "infinite",
						"setting(uint8)": "24717",
						"to_set(uint8)": "24646"
					}
				},
				"methodIdentifiers": {
					"del()": "b6588ffd",
					"e2()": "9b31f9e8",
					"e3()": "56800b52",
					"e4()": "79e5f054",
					"e5()": "b644ac27",
					"get()": "6d4ce63c",
					"get01()": "3e8d7a30",
					"setting(uint8)": "972a2ec2",
					"to_set(uint8)": "00207be3"
				}
			},
			"storageLayout": {
				"storage": [
					{
						"astId": 72,
						"contract": "lab(Enums && Structs)/file_enum.sol:PizzaDeli",
						"label": "e2",
						"offset": 0,
						"slot": "0",
						"type": "t_enum(pizzaOrder)69"
					},
					{
						"astId": 77,
						"contract": "lab(Enums && Structs)/file_enum.sol:PizzaDeli",
						"label": "e3",
						"offset": 1,
						"slot": "0",
						"type": "t_enum(pizzaOrder)69"
					},
					{
						"astId": 83,
						"contract": "lab(Enums && Structs)/file_enum.sol:PizzaDeli",
						"label": "e4",
						"offset": 2,
						"slot": "0",
						"type": "t_enum(pizzaOrder)69"
					},
					{
						"astId": 86,
						"contract": "lab(Enums && Structs)/file_enum.sol:PizzaDeli",
						"label": "e5",
						"offset": 3,
						"slot": "0",
						"type": "t_enum(pizzaOrder)69"
					}
				],
				"types": {
					"t_enum(pizzaOrder)69": {
						"encoding": "inplace",
						"label": "enum PizzaDeli.pizzaOrder",
						"numberOfBytes": "1"
					}
				}
			},
			"userdoc": {
				"kind": "user",
				"methods": {},
				"version": 1
			}
		}
	}
}