{
	"lab(Enums && Structs)/checking.sol": {
		"mixer": {
			"abi": [
				{
					"inputs": [],
					"name": "initcar",
					"outputs": [],
					"stateMutability": "view",
					"type": "function"
				}
			],
			"devdoc": {
				"kind": "dev",
				"methods": {},
				"version": 1
			},
			"evm": {
				"assembly": "    /* \"lab(Enums && Structs)/checking.sol\":63:229  contract mixer{... */\n  mstore(0x40, 0x80)\n  callvalue\n  dup1\n  iszero\n  tag_1\n  jumpi\n  0x00\n  dup1\n  revert\ntag_1:\n  pop\n  dataSize(sub_0)\n  dup1\n  dataOffset(sub_0)\n  0x00\n  codecopy\n  0x00\n  return\nstop\n\nsub_0: assembly {\n        /* \"lab(Enums && Structs)/checking.sol\":63:229  contract mixer{... */\n      mstore(0x40, 0x80)\n      callvalue\n      dup1\n      iszero\n      tag_1\n      jumpi\n      0x00\n      dup1\n      revert\n    tag_1:\n      pop\n      jumpi(tag_2, lt(calldatasize, 0x04))\n      shr(0xe0, calldataload(0x00))\n      dup1\n      0x1c30eb0d\n      eq\n      tag_3\n      jumpi\n    tag_2:\n      0x00\n      dup1\n      revert\n        /* \"lab(Enums && Structs)/checking.sol\":176:224  function initcar()public  view{... */\n    tag_3:\n      tag_4\n      tag_5\n      jump\t// in\n    tag_4:\n      stop\n    tag_5:\n      jump\t// out\n\n    auxdata: 0xa26469706673582212206b671538b52f85451f1c1d62192c953fb792e6bf22233e12ddf2dcd70c5b2a1364736f6c63430008120033\n}\n",
				"bytecode": {
					"linkReferences": {},
					"object": "6080604052348015600f57600080fd5b50606d80601d6000396000f3fe6080604052348015600f57600080fd5b506004361060285760003560e01c80631c30eb0d14602d575b600080fd5b60336035565b005b56fea26469706673582212206b671538b52f85451f1c1d62192c953fb792e6bf22233e12ddf2dcd70c5b2a1364736f6c63430008120033",
					"opcodes": "PUSH1 0x80 PUSH1 0x40 MSTORE CALLVALUE DUP1 ISZERO PUSH1 0xF JUMPI PUSH1 0x0 DUP1 REVERT JUMPDEST POP PUSH1 0x6D DUP1 PUSH1 0x1D PUSH1 0x0 CODECOPY PUSH1 0x0 RETURN INVALID PUSH1 0x80 PUSH1 0x40 MSTORE CALLVALUE DUP1 ISZERO PUSH1 0xF JUMPI PUSH1 0x0 DUP1 REVERT JUMPDEST POP PUSH1 0x4 CALLDATASIZE LT PUSH1 0x28 JUMPI PUSH1 0x0 CALLDATALOAD PUSH1 0xE0 SHR DUP1 PUSH4 0x1C30EB0D EQ PUSH1 0x2D JUMPI JUMPDEST PUSH1 0x0 DUP1 REVERT JUMPDEST PUSH1 0x33 PUSH1 0x35 JUMP JUMPDEST STOP JUMPDEST JUMP INVALID LOG2 PUSH5 0x6970667358 0x22 SLT KECCAK256 PUSH12 0x671538B52F85451F1C1D6219 0x2C SWAP6 EXTCODEHASH 0xB7 SWAP3 0xE6 0xBF 0x22 0x23 RETURNDATACOPY SLT 0xDD CALLCODE 0xDC 0xD7 0xC JUMPDEST 0x2A SGT PUSH5 0x736F6C6343 STOP ADDMOD SLT STOP CALLER "
				},
				"gasEstimates": {
					"creation": {
						"codeDepositCost": "21800",
						"executionCost": "75",
						"totalCost": "21875"
					},
					"external": {
						"initcar()": "122"
					}
				},
				"methodIdentifiers": {
					"initcar()": "1c30eb0d"
				}
			},
			"storageLayout": {
				"storage": [
					{
						"astId": 9,
						"contract": "lab(Enums && Structs)/checking.sol:mixer",
						"label": "car",
						"offset": 0,
						"slot": "0",
						"type": "t_struct(CAR)6_storage"
					}
				],
				"types": {
					"t_string_storage": {
						"encoding": "bytes",
						"label": "string",
						"numberOfBytes": "32"
					},
					"t_struct(CAR)6_storage": {
						"encoding": "inplace",
						"label": "struct mixer.CAR",
						"members": [
							{
								"astId": 3,
								"contract": "lab(Enums && Structs)/checking.sol:mixer",
								"label": "name",
								"offset": 0,
								"slot": "0",
								"type": "t_string_storage"
							},
							{
								"astId": 5,
								"contract": "lab(Enums && Structs)/checking.sol:mixer",
								"label": "model",
								"offset": 0,
								"slot": "1",
								"type": "t_uint256"
							}
						],
						"numberOfBytes": "64"
					},
					"t_uint256": {
						"encoding": "inplace",
						"label": "uint256",
						"numberOfBytes": "32"
					}
				}
			},
			"userdoc": {
				"kind": "user",
				"methods": {},
				"version": 1
			}
		}
	}
}