{
	"Labs (August)/quiz.sol": {
		"EnSt": {
			"abi": [
				{
					"inputs": [],
					"name": "check",
					"outputs": [],
					"stateMutability": "nonpayable",
					"type": "function"
				},
				{
					"inputs": [
						{
							"internalType": "enum EnSt.RoomSize",
							"name": "",
							"type": "uint8"
						}
					],
					"name": "map",
					"outputs": [
						{
							"internalType": "enum EnSt.RoomSize",
							"name": "rs",
							"type": "uint8"
						},
						{
							"internalType": "uint256",
							"name": "roomnum",
							"type": "uint256"
						}
					],
					"stateMutability": "view",
					"type": "function"
				}
			],
			"devdoc": {
				"kind": "dev",
				"methods": {},
				"version": 1
			},
			"evm": {
				"assembly": "    /* \"Labs (August)/quiz.sol\":1095:1444  contract EnSt{... */\n  mstore(0x40, 0x80)\n  callvalue\n  dup1\n  iszero\n  tag_1\n  jumpi\n  0x00\n  dup1\n  revert\ntag_1:\n  pop\n  dataSize(sub_0)\n  dup1\n  dataOffset(sub_0)\n  0x00\n  codecopy\n  0x00\n  return\nstop\n\nsub_0: assembly {\n        /* \"Labs (August)/quiz.sol\":1095:1444  contract EnSt{... */\n      mstore(0x40, 0x80)\n      callvalue\n      dup1\n      iszero\n      tag_1\n      jumpi\n      0x00\n      dup1\n      revert\n    tag_1:\n      pop\n      jumpi(tag_2, lt(calldatasize, 0x04))\n      shr(0xe0, calldataload(0x00))\n      dup1\n      0x919840ad\n      eq\n      tag_3\n      jumpi\n      dup1\n      0xb3e7e5af\n      eq\n      tag_4\n      jumpi\n    tag_2:\n      0x00\n      dup1\n      revert\n        /* \"Labs (August)/quiz.sol\":1358:1435  function check()public {... */\n    tag_3:\n      tag_5\n      tag_6\n      jump\t// in\n    tag_5:\n      stop\n        /* \"Labs (August)/quiz.sol\":1319:1355  mapping (RoomSize =>Room)public  map */\n    tag_4:\n      tag_7\n      0x04\n      dup1\n      calldatasize\n      sub\n      dup2\n      add\n      swap1\n      tag_8\n      swap2\n      swap1\n      tag_9\n      jump\t// in\n    tag_8:\n      tag_10\n      jump\t// in\n    tag_7:\n      mload(0x40)\n      tag_11\n      swap3\n      swap2\n      swap1\n      tag_12\n      jump\t// in\n    tag_11:\n      mload(0x40)\n      dup1\n      swap2\n      sub\n      swap1\n      return\n        /* \"Labs (August)/quiz.sol\":1358:1435  function check()public {... */\n    tag_6:\n      jump\t// out\n        /* \"Labs (August)/quiz.sol\":1319:1355  mapping (RoomSize =>Room)public  map */\n    tag_10:\n      mstore(0x20, 0x01)\n      dup1\n      0x00\n      mstore\n      keccak256(0x00, 0x40)\n      0x00\n      swap2\n      pop\n      swap1\n      pop\n      dup1\n      0x00\n      add\n      0x00\n      swap1\n      sload\n      swap1\n      0x0100\n      exp\n      swap1\n      div\n      0xff\n      and\n      swap1\n      dup1\n      0x01\n      add\n      sload\n      swap1\n      pop\n      dup3\n      jump\t// out\n        /* \"#utility.yul\":88:205   */\n    tag_15:\n        /* \"#utility.yul\":197:198   */\n      0x00\n        /* \"#utility.yul\":194:195   */\n      dup1\n        /* \"#utility.yul\":187:199   */\n      revert\n        /* \"#utility.yul\":334:445   */\n    tag_17:\n        /* \"#utility.yul\":419:420   */\n      0x03\n        /* \"#utility.yul\":412:417   */\n      dup2\n        /* \"#utility.yul\":409:421   */\n      lt\n        /* \"#utility.yul\":399:439   */\n      tag_31\n      jumpi\n        /* \"#utility.yul\":435:436   */\n      0x00\n        /* \"#utility.yul\":432:433   */\n      dup1\n        /* \"#utility.yul\":425:437   */\n      revert\n        /* \"#utility.yul\":399:439   */\n    tag_31:\n        /* \"#utility.yul\":334:445   */\n      pop\n      jump\t// out\n        /* \"#utility.yul\":451:614   */\n    tag_18:\n        /* \"#utility.yul\":509:514   */\n      0x00\n        /* \"#utility.yul\":547:553   */\n      dup2\n        /* \"#utility.yul\":534:554   */\n      calldataload\n        /* \"#utility.yul\":525:554   */\n      swap1\n      pop\n        /* \"#utility.yul\":563:608   */\n      tag_33\n        /* \"#utility.yul\":602:607   */\n      dup2\n        /* \"#utility.yul\":563:608   */\n      tag_17\n      jump\t// in\n    tag_33:\n        /* \"#utility.yul\":451:614   */\n      swap3\n      swap2\n      pop\n      pop\n      jump\t// out\n        /* \"#utility.yul\":620:973   */\n    tag_9:\n        /* \"#utility.yul\":691:697   */\n      0x00\n        /* \"#utility.yul\":740:742   */\n      0x20\n        /* \"#utility.yul\":728:737   */\n      dup3\n        /* \"#utility.yul\":719:726   */\n      dup5\n        /* \"#utility.yul\":715:738   */\n      sub\n        /* \"#utility.yul\":711:743   */\n      slt\n        /* \"#utility.yul\":708:827   */\n      iszero\n      tag_35\n      jumpi\n        /* \"#utility.yul\":746:825   */\n      tag_36\n      tag_15\n      jump\t// in\n    tag_36:\n        /* \"#utility.yul\":708:827   */\n    tag_35:\n        /* \"#utility.yul\":866:867   */\n      0x00\n        /* \"#utility.yul\":891:956   */\n      tag_37\n        /* \"#utility.yul\":948:955   */\n      dup5\n        /* \"#utility.yul\":939:945   */\n      dup3\n        /* \"#utility.yul\":928:937   */\n      dup6\n        /* \"#utility.yul\":924:946   */\n      add\n        /* \"#utility.yul\":891:956   */\n      tag_18\n      jump\t// in\n    tag_37:\n        /* \"#utility.yul\":881:956   */\n      swap2\n      pop\n        /* \"#utility.yul\":837:966   */\n      pop\n        /* \"#utility.yul\":620:973   */\n      swap3\n      swap2\n      pop\n      pop\n      jump\t// out\n        /* \"#utility.yul\":979:1159   */\n    tag_19:\n        /* \"#utility.yul\":1027:1104   */\n      0x4e487b7100000000000000000000000000000000000000000000000000000000\n        /* \"#utility.yul\":1024:1025   */\n      0x00\n        /* \"#utility.yul\":1017:1105   */\n      mstore\n        /* \"#utility.yul\":1124:1128   */\n      0x21\n        /* \"#utility.yul\":1121:1122   */\n      0x04\n        /* \"#utility.yul\":1114:1129   */\n      mstore\n        /* \"#utility.yul\":1148:1152   */\n      0x24\n        /* \"#utility.yul\":1145:1146   */\n      0x00\n        /* \"#utility.yul\":1138:1153   */\n      revert\n        /* \"#utility.yul\":1165:1282   */\n    tag_20:\n        /* \"#utility.yul\":1250:1251   */\n      0x03\n        /* \"#utility.yul\":1243:1248   */\n      dup2\n        /* \"#utility.yul\":1240:1252   */\n      lt\n        /* \"#utility.yul\":1230:1276   */\n      tag_40\n      jumpi\n        /* \"#utility.yul\":1256:1274   */\n      tag_41\n      tag_19\n      jump\t// in\n    tag_41:\n        /* \"#utility.yul\":1230:1276   */\n    tag_40:\n        /* \"#utility.yul\":1165:1282   */\n      pop\n      jump\t// out\n        /* \"#utility.yul\":1288:1423   */\n    tag_21:\n        /* \"#utility.yul\":1337:1344   */\n      0x00\n        /* \"#utility.yul\":1366:1371   */\n      dup2\n        /* \"#utility.yul\":1355:1371   */\n      swap1\n      pop\n        /* \"#utility.yul\":1372:1417   */\n      tag_43\n        /* \"#utility.yul\":1411:1416   */\n      dup3\n        /* \"#utility.yul\":1372:1417   */\n      tag_20\n      jump\t// in\n    tag_43:\n        /* \"#utility.yul\":1288:1423   */\n      swap2\n      swap1\n      pop\n      jump\t// out\n        /* \"#utility.yul\":1429:1564   */\n    tag_22:\n        /* \"#utility.yul\":1489:1498   */\n      0x00\n        /* \"#utility.yul\":1522:1558   */\n      tag_45\n        /* \"#utility.yul\":1552:1557   */\n      dup3\n        /* \"#utility.yul\":1522:1558   */\n      tag_21\n      jump\t// in\n    tag_45:\n        /* \"#utility.yul\":1509:1558   */\n      swap1\n      pop\n        /* \"#utility.yul\":1429:1564   */\n      swap2\n      swap1\n      pop\n      jump\t// out\n        /* \"#utility.yul\":1570:1721   */\n    tag_23:\n        /* \"#utility.yul\":1667:1714   */\n      tag_47\n        /* \"#utility.yul\":1708:1713   */\n      dup2\n        /* \"#utility.yul\":1667:1714   */\n      tag_22\n      jump\t// in\n    tag_47:\n        /* \"#utility.yul\":1662:1665   */\n      dup3\n        /* \"#utility.yul\":1655:1715   */\n      mstore\n        /* \"#utility.yul\":1570:1721   */\n      pop\n      pop\n      jump\t// out\n        /* \"#utility.yul\":1727:1804   */\n    tag_24:\n        /* \"#utility.yul\":1764:1771   */\n      0x00\n        /* \"#utility.yul\":1793:1798   */\n      dup2\n        /* \"#utility.yul\":1782:1798   */\n      swap1\n      pop\n        /* \"#utility.yul\":1727:1804   */\n      swap2\n      swap1\n      pop\n      jump\t// out\n        /* \"#utility.yul\":1810:1928   */\n    tag_25:\n        /* \"#utility.yul\":1897:1921   */\n      tag_50\n        /* \"#utility.yul\":1915:1920   */\n      dup2\n        /* \"#utility.yul\":1897:1921   */\n      tag_24\n      jump\t// in\n    tag_50:\n        /* \"#utility.yul\":1892:1895   */\n      dup3\n        /* \"#utility.yul\":1885:1922   */\n      mstore\n        /* \"#utility.yul\":1810:1928   */\n      pop\n      pop\n      jump\t// out\n        /* \"#utility.yul\":1934:2286   */\n    tag_12:\n        /* \"#utility.yul\":2065:2069   */\n      0x00\n        /* \"#utility.yul\":2103:2105   */\n      0x40\n        /* \"#utility.yul\":2092:2101   */\n      dup3\n        /* \"#utility.yul\":2088:2106   */\n      add\n        /* \"#utility.yul\":2080:2106   */\n      swap1\n      pop\n        /* \"#utility.yul\":2116:2197   */\n      tag_52\n        /* \"#utility.yul\":2194:2195   */\n      0x00\n        /* \"#utility.yul\":2183:2192   */\n      dup4\n        /* \"#utility.yul\":2179:2196   */\n      add\n        /* \"#utility.yul\":2170:2176   */\n      dup6\n        /* \"#utility.yul\":2116:2197   */\n      tag_23\n      jump\t// in\n    tag_52:\n        /* \"#utility.yul\":2207:2279   */\n      tag_53\n        /* \"#utility.yul\":2275:2277   */\n      0x20\n        /* \"#utility.yul\":2264:2273   */\n      dup4\n        /* \"#utility.yul\":2260:2278   */\n      add\n        /* \"#utility.yul\":2251:2257   */\n      dup5\n        /* \"#utility.yul\":2207:2279   */\n      tag_25\n      jump\t// in\n    tag_53:\n        /* \"#utility.yul\":1934:2286   */\n      swap4\n      swap3\n      pop\n      pop\n      pop\n      jump\t// out\n\n    auxdata: 0xa264697066735822122062436315967a8417235ba9917c78f57f475b70237d98968d6b05555176d91bef64736f6c63430008120033\n}\n",
				"bytecode": {
					"linkReferences": {},
					"object": "608060405234801561001057600080fd5b506101ef806100206000396000f3fe608060405234801561001057600080fd5b50600436106100365760003560e01c8063919840ad1461003b578063b3e7e5af14610045575b600080fd5b610043610076565b005b61005f600480360381019061005a91906100d3565b610078565b60405161006d929190610190565b60405180910390f35b565b60016020528060005260406000206000915090508060000160009054906101000a900460ff16908060010154905082565b600080fd5b600381106100bb57600080fd5b50565b6000813590506100cd816100ae565b92915050565b6000602082840312156100e9576100e86100a9565b5b60006100f7848285016100be565b91505092915050565b7f4e487b7100000000000000000000000000000000000000000000000000000000600052602160045260246000fd5b600381106101405761013f610100565b5b50565b60008190506101518261012f565b919050565b600061016182610143565b9050919050565b61017181610156565b82525050565b6000819050919050565b61018a81610177565b82525050565b60006040820190506101a56000830185610168565b6101b26020830184610181565b939250505056fea264697066735822122062436315967a8417235ba9917c78f57f475b70237d98968d6b05555176d91bef64736f6c63430008120033",
					"opcodes": "PUSH1 0x80 PUSH1 0x40 MSTORE CALLVALUE DUP1 ISZERO PUSH2 0x10 JUMPI PUSH1 0x0 DUP1 REVERT JUMPDEST POP PUSH2 0x1EF DUP1 PUSH2 0x20 PUSH1 0x0 CODECOPY PUSH1 0x0 RETURN INVALID PUSH1 0x80 PUSH1 0x40 MSTORE CALLVALUE DUP1 ISZERO PUSH2 0x10 JUMPI PUSH1 0x0 DUP1 REVERT JUMPDEST POP PUSH1 0x4 CALLDATASIZE LT PUSH2 0x36 JUMPI PUSH1 0x0 CALLDATALOAD PUSH1 0xE0 SHR DUP1 PUSH4 0x919840AD EQ PUSH2 0x3B JUMPI DUP1 PUSH4 0xB3E7E5AF EQ PUSH2 0x45 JUMPI JUMPDEST PUSH1 0x0 DUP1 REVERT JUMPDEST PUSH2 0x43 PUSH2 0x76 JUMP JUMPDEST STOP JUMPDEST PUSH2 0x5F PUSH1 0x4 DUP1 CALLDATASIZE SUB DUP2 ADD SWAP1 PUSH2 0x5A SWAP2 SWAP1 PUSH2 0xD3 JUMP JUMPDEST PUSH2 0x78 JUMP JUMPDEST PUSH1 0x40 MLOAD PUSH2 0x6D SWAP3 SWAP2 SWAP1 PUSH2 0x190 JUMP JUMPDEST PUSH1 0x40 MLOAD DUP1 SWAP2 SUB SWAP1 RETURN JUMPDEST JUMP JUMPDEST PUSH1 0x1 PUSH1 0x20 MSTORE DUP1 PUSH1 0x0 MSTORE PUSH1 0x40 PUSH1 0x0 KECCAK256 PUSH1 0x0 SWAP2 POP SWAP1 POP DUP1 PUSH1 0x0 ADD PUSH1 0x0 SWAP1 SLOAD SWAP1 PUSH2 0x100 EXP SWAP1 DIV PUSH1 0xFF AND SWAP1 DUP1 PUSH1 0x1 ADD SLOAD SWAP1 POP DUP3 JUMP JUMPDEST PUSH1 0x0 DUP1 REVERT JUMPDEST PUSH1 0x3 DUP2 LT PUSH2 0xBB JUMPI PUSH1 0x0 DUP1 REVERT JUMPDEST POP JUMP JUMPDEST PUSH1 0x0 DUP2 CALLDATALOAD SWAP1 POP PUSH2 0xCD DUP2 PUSH2 0xAE JUMP JUMPDEST SWAP3 SWAP2 POP POP JUMP JUMPDEST PUSH1 0x0 PUSH1 0x20 DUP3 DUP5 SUB SLT ISZERO PUSH2 0xE9 JUMPI PUSH2 0xE8 PUSH2 0xA9 JUMP JUMPDEST JUMPDEST PUSH1 0x0 PUSH2 0xF7 DUP5 DUP3 DUP6 ADD PUSH2 0xBE JUMP JUMPDEST SWAP2 POP POP SWAP3 SWAP2 POP POP JUMP JUMPDEST PUSH32 0x4E487B7100000000000000000000000000000000000000000000000000000000 PUSH1 0x0 MSTORE PUSH1 0x21 PUSH1 0x4 MSTORE PUSH1 0x24 PUSH1 0x0 REVERT JUMPDEST PUSH1 0x3 DUP2 LT PUSH2 0x140 JUMPI PUSH2 0x13F PUSH2 0x100 JUMP JUMPDEST JUMPDEST POP JUMP JUMPDEST PUSH1 0x0 DUP2 SWAP1 POP PUSH2 0x151 DUP3 PUSH2 0x12F JUMP JUMPDEST SWAP2 SWAP1 POP JUMP JUMPDEST PUSH1 0x0 PUSH2 0x161 DUP3 PUSH2 0x143 JUMP JUMPDEST SWAP1 POP SWAP2 SWAP1 POP JUMP JUMPDEST PUSH2 0x171 DUP2 PUSH2 0x156 JUMP JUMPDEST DUP3 MSTORE POP POP JUMP JUMPDEST PUSH1 0x0 DUP2 SWAP1 POP SWAP2 SWAP1 POP JUMP JUMPDEST PUSH2 0x18A DUP2 PUSH2 0x177 JUMP JUMPDEST DUP3 MSTORE POP POP JUMP JUMPDEST PUSH1 0x0 PUSH1 0x40 DUP3 ADD SWAP1 POP PUSH2 0x1A5 PUSH1 0x0 DUP4 ADD DUP6 PUSH2 0x168 JUMP JUMPDEST PUSH2 0x1B2 PUSH1 0x20 DUP4 ADD DUP5 PUSH2 0x181 JUMP JUMPDEST SWAP4 SWAP3 POP POP POP JUMP INVALID LOG2 PUSH5 0x6970667358 0x22 SLT KECCAK256 PUSH3 0x436315 SWAP7 PUSH27 0x8417235BA9917C78F57F475B70237D98968D6B05555176D91BEF64 PUSH20 0x6F6C634300081200330000000000000000000000 "
				},
				"gasEstimates": {
					"creation": {
						"codeDepositCost": "99000",
						"executionCost": "147",
						"totalCost": "99147"
					},
					"external": {
						"check()": "122",
						"map(uint8)": "5079"
					}
				},
				"methodIdentifiers": {
					"check()": "919840ad",
					"map(uint8)": "b3e7e5af"
				}
			},
			"storageLayout": {
				"storage": [
					{
						"astId": 115,
						"contract": "Labs (August)/quiz.sol:EnSt",
						"label": "mapings",
						"offset": 0,
						"slot": "0",
						"type": "t_mapping(t_enum(RoomSize)105,t_enum(bed)109)"
					},
					{
						"astId": 127,
						"contract": "Labs (August)/quiz.sol:EnSt",
						"label": "map",
						"offset": 0,
						"slot": "1",
						"type": "t_mapping(t_enum(RoomSize)105,t_struct(Room)121_storage)"
					}
				],
				"types": {
					"t_enum(RoomSize)105": {
						"encoding": "inplace",
						"label": "enum EnSt.RoomSize",
						"numberOfBytes": "1"
					},
					"t_enum(bed)109": {
						"encoding": "inplace",
						"label": "enum EnSt.bed",
						"numberOfBytes": "1"
					},
					"t_mapping(t_enum(RoomSize)105,t_enum(bed)109)": {
						"encoding": "mapping",
						"key": "t_enum(RoomSize)105",
						"label": "mapping(enum EnSt.RoomSize => enum EnSt.bed)",
						"numberOfBytes": "32",
						"value": "t_enum(bed)109"
					},
					"t_mapping(t_enum(RoomSize)105,t_struct(Room)121_storage)": {
						"encoding": "mapping",
						"key": "t_enum(RoomSize)105",
						"label": "mapping(enum EnSt.RoomSize => struct EnSt.Room)",
						"numberOfBytes": "32",
						"value": "t_struct(Room)121_storage"
					},
					"t_struct(Room)121_storage": {
						"encoding": "inplace",
						"label": "struct EnSt.Room",
						"members": [
							{
								"astId": 118,
								"contract": "Labs (August)/quiz.sol:EnSt",
								"label": "rs",
								"offset": 0,
								"slot": "0",
								"type": "t_enum(RoomSize)105"
							},
							{
								"astId": 120,
								"contract": "Labs (August)/quiz.sol:EnSt",
								"label": "roomnum",
								"offset": 0,
								"slot": "1",
								"type": "t_uint256"
							}
						],
						"numberOfBytes": "64"
					},
					"t_uint256": {
						"encoding": "inplace",
						"label": "uint256",
						"numberOfBytes": "32"
					}
				}
			},
			"userdoc": {
				"kind": "user",
				"methods": {},
				"version": 1
			}
		}
	}
}