{
	"Labs (August)/nested_for.sol": {
		"MerkleTree": {
			"abi": [
				{
					"inputs": [],
					"name": "add",
					"outputs": [],
					"stateMutability": "nonpayable",
					"type": "function"
				},
				{
					"inputs": [],
					"name": "getter",
					"outputs": [
						{
							"internalType": "uint256[]",
							"name": "",
							"type": "uint256[]"
						}
					],
					"stateMutability": "view",
					"type": "function"
				}
			],
			"devdoc": {
				"kind": "dev",
				"methods": {},
				"version": 1
			},
			"evm": {
				"assembly": "    /* \"Labs (August)/nested_for.sol\":61:714  contract MerkleTree {... */\n  mstore(0x40, 0x80)\n    /* \"Labs (August)/nested_for.sol\":191:218  uint256[] arr = [1,1,1,1,1] */\n  mload(0x40)\n  dup1\n  0xa0\n  add\n  0x40\n  mstore\n  dup1\n    /* \"Labs (August)/nested_for.sol\":208:209  1 */\n  0x01\n    /* \"Labs (August)/nested_for.sol\":191:218  uint256[] arr = [1,1,1,1,1] */\n  0xff\n  and\n  dup2\n  mstore\n  0x20\n  add\n    /* \"Labs (August)/nested_for.sol\":210:211  1 */\n  0x01\n    /* \"Labs (August)/nested_for.sol\":191:218  uint256[] arr = [1,1,1,1,1] */\n  0xff\n  and\n  dup2\n  mstore\n  0x20\n  add\n    /* \"Labs (August)/nested_for.sol\":212:213  1 */\n  0x01\n    /* \"Labs (August)/nested_for.sol\":191:218  uint256[] arr = [1,1,1,1,1] */\n  0xff\n  and\n  dup2\n  mstore\n  0x20\n  add\n    /* \"Labs (August)/nested_for.sol\":214:215  1 */\n  0x01\n    /* \"Labs (August)/nested_for.sol\":191:218  uint256[] arr = [1,1,1,1,1] */\n  0xff\n  and\n  dup2\n  mstore\n  0x20\n  add\n    /* \"Labs (August)/nested_for.sol\":216:217  1 */\n  0x01\n    /* \"Labs (August)/nested_for.sol\":191:218  uint256[] arr = [1,1,1,1,1] */\n  0xff\n  and\n  dup2\n  mstore\n  pop\n  0x00\n  swap1\n  0x05\n  tag_1\n  swap3\n  swap2\n  swap1\n  tag_2\n  jump\t// in\ntag_1:\n  pop\n    /* \"Labs (August)/nested_for.sol\":61:714  contract MerkleTree {... */\n  callvalue\n  dup1\n  iszero\n  tag_3\n  jumpi\n  0x00\n  dup1\n  revert\ntag_3:\n  pop\n  jump(tag_4)\ntag_2:\n  dup3\n  dup1\n  sload\n  dup3\n  dup3\n  sstore\n  swap1\n  0x00\n  mstore\n  keccak256(0x00, 0x20)\n  swap1\n  dup2\n  add\n  swap3\n  dup3\n  iszero\n  tag_5\n  jumpi\n  swap2\n  0x20\n  mul\n  dup3\n  add\ntag_6:\n  dup3\n  dup2\n  gt\n  iszero\n  tag_7\n  jumpi\n  dup3\n  mload\n  dup3\n  swap1\n  0xff\n  and\n  swap1\n  sstore\n  swap2\n  0x20\n  add\n  swap2\n  swap1\n  0x01\n  add\n  swap1\n  jump(tag_6)\ntag_7:\ntag_5:\n  pop\n  swap1\n  pop\n  tag_8\n  swap2\n  swap1\n  tag_9\n  jump\t// in\ntag_8:\n  pop\n  swap1\n  jump\t// out\ntag_9:\ntag_10:\n  dup1\n  dup3\n  gt\n  iszero\n  tag_11\n  jumpi\n  0x00\n  dup2\n  0x00\n  swap1\n  sstore\n  pop\n  0x01\n  add\n  jump(tag_10)\ntag_11:\n  pop\n  swap1\n  jump\t// out\ntag_4:\n  dataSize(sub_0)\n  dup1\n  dataOffset(sub_0)\n  0x00\n  codecopy\n  0x00\n  return\nstop\n\nsub_0: assembly {\n        /* \"Labs (August)/nested_for.sol\":61:714  contract MerkleTree {... */\n      mstore(0x40, 0x80)\n      callvalue\n      dup1\n      iszero\n      tag_1\n      jumpi\n      0x00\n      dup1\n      revert\n    tag_1:\n      pop\n      jumpi(tag_2, lt(calldatasize, 0x04))\n      shr(0xe0, calldataload(0x00))\n      dup1\n      0x4f2be91f\n      eq\n      tag_3\n      jumpi\n      dup1\n      0x993a04b7\n      eq\n      tag_4\n      jumpi\n    tag_2:\n      0x00\n      dup1\n      revert\n        /* \"Labs (August)/nested_for.sol\":227:619  function add() public {... */\n    tag_3:\n      tag_5\n      tag_6\n      jump\t// in\n    tag_5:\n      stop\n        /* \"Labs (August)/nested_for.sol\":625:711  function getter() public view returns (uint256[] memory) {... */\n    tag_4:\n      tag_7\n      tag_8\n      jump\t// in\n    tag_7:\n      mload(0x40)\n      tag_9\n      swap2\n      swap1\n      tag_10\n      jump\t// in\n    tag_9:\n      mload(0x40)\n      dup1\n      swap2\n      sub\n      swap1\n      return\n        /* \"Labs (August)/nested_for.sol\":227:619  function add() public {... */\n    tag_6:\n        /* \"Labs (August)/nested_for.sol\":260:612  while (arr.length != 1) {... */\n    tag_12:\n        /* \"Labs (August)/nested_for.sol\":281:282  1 */\n      0x01\n        /* \"Labs (August)/nested_for.sol\":267:270  arr */\n      0x00\n        /* \"Labs (August)/nested_for.sol\":267:277  arr.length */\n      dup1\n      sload\n      swap1\n      pop\n        /* \"Labs (August)/nested_for.sol\":267:282  arr.length != 1 */\n      eq\n        /* \"Labs (August)/nested_for.sol\":260:612  while (arr.length != 1) {... */\n      tag_13\n      jumpi\n        /* \"Labs (August)/nested_for.sol\":321:322  1 */\n      0x01\n        /* \"Labs (August)/nested_for.sol\":316:317  2 */\n      0x02\n        /* \"Labs (August)/nested_for.sol\":303:306  arr */\n      0x00\n        /* \"Labs (August)/nested_for.sol\":303:313  arr.length */\n      dup1\n      sload\n      swap1\n      pop\n        /* \"Labs (August)/nested_for.sol\":303:317  arr.length % 2 */\n      tag_14\n      swap2\n      swap1\n      tag_15\n      jump\t// in\n    tag_14:\n        /* \"Labs (August)/nested_for.sol\":303:322  arr.length % 2 == 1 */\n      sub\n        /* \"Labs (August)/nested_for.sol\":299:370  if (arr.length % 2 == 1) {... */\n      tag_16\n      jumpi\n        /* \"Labs (August)/nested_for.sol\":343:346  arr */\n      0x00\n        /* \"Labs (August)/nested_for.sol\":352:353  0 */\n      dup1\n        /* \"Labs (August)/nested_for.sol\":343:354  arr.push(0) */\n      dup1\n      0x01\n      dup2\n      sload\n      add\n      dup1\n      dup3\n      sstore\n      dup1\n      swap2\n      pop\n      pop\n      0x01\n      swap1\n      sub\n      swap1\n      0x00\n      mstore\n      keccak256(0x00, 0x20)\n      add\n      0x00\n      swap1\n      swap2\n      swap1\n      swap2\n      swap1\n      swap2\n      pop\n      sstore\n        /* \"Labs (August)/nested_for.sol\":299:370  if (arr.length % 2 == 1) {... */\n    tag_16:\n        /* \"Labs (August)/nested_for.sol\":389:398  uint256 i */\n      0x00\n        /* \"Labs (August)/nested_for.sol\":384:502  for (uint256 i = 0; i < arr.length / 2; i++) {... */\n    tag_18:\n        /* \"Labs (August)/nested_for.sol\":421:422  2 */\n      0x02\n        /* \"Labs (August)/nested_for.sol\":408:411  arr */\n      0x00\n        /* \"Labs (August)/nested_for.sol\":408:418  arr.length */\n      dup1\n      sload\n      swap1\n      pop\n        /* \"Labs (August)/nested_for.sol\":408:422  arr.length / 2 */\n      tag_21\n      swap2\n      swap1\n      tag_22\n      jump\t// in\n    tag_21:\n        /* \"Labs (August)/nested_for.sol\":404:405  i */\n      dup2\n        /* \"Labs (August)/nested_for.sol\":404:422  i < arr.length / 2 */\n      lt\n        /* \"Labs (August)/nested_for.sol\":384:502  for (uint256 i = 0; i < arr.length / 2; i++) {... */\n      iszero\n      tag_19\n      jumpi\n        /* \"Labs (August)/nested_for.sol\":470:473  arr */\n      0x00\n        /* \"Labs (August)/nested_for.sol\":484:485  1 */\n      0x01\n        /* \"Labs (August)/nested_for.sol\":479:480  2 */\n      0x02\n        /* \"Labs (August)/nested_for.sol\":475:476  i */\n      dup4\n        /* \"Labs (August)/nested_for.sol\":475:480  i * 2 */\n      tag_23\n      swap2\n      swap1\n      tag_24\n      jump\t// in\n    tag_23:\n        /* \"Labs (August)/nested_for.sol\":474:485  (i * 2) + 1 */\n      tag_25\n      swap2\n      swap1\n      tag_26\n      jump\t// in\n    tag_25:\n        /* \"Labs (August)/nested_for.sol\":470:486  arr[(i * 2) + 1] */\n      dup2\n      sload\n      dup2\n      lt\n      tag_27\n      jumpi\n      tag_28\n      tag_29\n      jump\t// in\n    tag_28:\n    tag_27:\n      swap1\n      0x00\n      mstore\n      keccak256(0x00, 0x20)\n      add\n      sload\n        /* \"Labs (August)/nested_for.sol\":457:460  arr */\n      0x00\n        /* \"Labs (August)/nested_for.sol\":465:466  2 */\n      0x02\n        /* \"Labs (August)/nested_for.sol\":461:462  i */\n      dup4\n        /* \"Labs (August)/nested_for.sol\":461:466  i * 2 */\n      tag_31\n      swap2\n      swap1\n      tag_24\n      jump\t// in\n    tag_31:\n        /* \"Labs (August)/nested_for.sol\":457:467  arr[i * 2] */\n      dup2\n      sload\n      dup2\n      lt\n      tag_32\n      jumpi\n      tag_33\n      tag_29\n      jump\t// in\n    tag_33:\n    tag_32:\n      swap1\n      0x00\n      mstore\n      keccak256(0x00, 0x20)\n      add\n      sload\n        /* \"Labs (August)/nested_for.sol\":457:486  arr[i * 2] + arr[(i * 2) + 1] */\n      tag_35\n      swap2\n      swap1\n      tag_26\n      jump\t// in\n    tag_35:\n        /* \"Labs (August)/nested_for.sol\":448:451  arr */\n      0x00\n        /* \"Labs (August)/nested_for.sol\":452:453  i */\n      dup3\n        /* \"Labs (August)/nested_for.sol\":448:454  arr[i] */\n      dup2\n      sload\n      dup2\n      lt\n      tag_36\n      jumpi\n      tag_37\n      tag_29\n      jump\t// in\n    tag_37:\n    tag_36:\n      swap1\n      0x00\n      mstore\n      keccak256(0x00, 0x20)\n      add\n        /* \"Labs (August)/nested_for.sol\":448:486  arr[i] = arr[i * 2] + arr[(i * 2) + 1] */\n      dup2\n      swap1\n      sstore\n      pop\n        /* \"Labs (August)/nested_for.sol\":424:427  i++ */\n      dup1\n      dup1\n      tag_39\n      swap1\n      tag_40\n      jump\t// in\n    tag_39:\n      swap2\n      pop\n      pop\n        /* \"Labs (August)/nested_for.sol\":384:502  for (uint256 i = 0; i < arr.length / 2; i++) {... */\n      jump(tag_18)\n    tag_19:\n      pop\n        /* \"Labs (August)/nested_for.sol\":521:530  uint256 i */\n      0x00\n        /* \"Labs (August)/nested_for.sol\":516:601  for (uint256 i = 0; i < arr.length; i++) {... */\n    tag_41:\n        /* \"Labs (August)/nested_for.sol\":540:543  arr */\n      0x00\n        /* \"Labs (August)/nested_for.sol\":540:550  arr.length */\n      dup1\n      sload\n      swap1\n      pop\n        /* \"Labs (August)/nested_for.sol\":536:537  i */\n      dup2\n        /* \"Labs (August)/nested_for.sol\":536:550  i < arr.length */\n      lt\n        /* \"Labs (August)/nested_for.sol\":516:601  for (uint256 i = 0; i < arr.length; i++) {... */\n      iszero\n      tag_42\n      jumpi\n        /* \"Labs (August)/nested_for.sol\":576:579  arr */\n      0x00\n        /* \"Labs (August)/nested_for.sol\":576:585  arr.pop() */\n      dup1\n      sload\n      dup1\n      tag_44\n      jumpi\n      tag_45\n      tag_46\n      jump\t// in\n    tag_45:\n    tag_44:\n      0x01\n      swap1\n      sub\n      dup2\n      dup2\n      swap1\n      0x00\n      mstore\n      keccak256(0x00, 0x20)\n      add\n      0x00\n      swap1\n      sstore\n      swap1\n      sstore\n        /* \"Labs (August)/nested_for.sol\":552:555  i++ */\n      dup1\n      dup1\n      tag_48\n      swap1\n      tag_40\n      jump\t// in\n    tag_48:\n      swap2\n      pop\n      pop\n        /* \"Labs (August)/nested_for.sol\":516:601  for (uint256 i = 0; i < arr.length; i++) {... */\n      jump(tag_41)\n    tag_42:\n      pop\n        /* \"Labs (August)/nested_for.sol\":260:612  while (arr.length != 1) {... */\n      jump(tag_12)\n    tag_13:\n        /* \"Labs (August)/nested_for.sol\":227:619  function add() public {... */\n      jump\t// out\n        /* \"Labs (August)/nested_for.sol\":625:711  function getter() public view returns (uint256[] memory) {... */\n    tag_8:\n        /* \"Labs (August)/nested_for.sol\":664:680  uint256[] memory */\n      0x60\n        /* \"Labs (August)/nested_for.sol\":700:703  arr */\n      0x00\n        /* \"Labs (August)/nested_for.sol\":693:703  return arr */\n      dup1\n      sload\n      dup1\n      0x20\n      mul\n      0x20\n      add\n      mload(0x40)\n      swap1\n      dup2\n      add\n      0x40\n      mstore\n      dup1\n      swap3\n      swap2\n      swap1\n      dup2\n      dup2\n      mstore\n      0x20\n      add\n      dup3\n      dup1\n      sload\n      dup1\n      iszero\n      tag_50\n      jumpi\n      0x20\n      mul\n      dup3\n      add\n      swap2\n      swap1\n      0x00\n      mstore\n      keccak256(0x00, 0x20)\n      swap1\n    tag_51:\n      dup2\n      sload\n      dup2\n      mstore\n      0x20\n      add\n      swap1\n      0x01\n      add\n      swap1\n      dup1\n      dup4\n      gt\n      tag_51\n      jumpi\n    tag_50:\n      pop\n      pop\n      pop\n      pop\n      pop\n      swap1\n      pop\n        /* \"Labs (August)/nested_for.sol\":625:711  function getter() public view returns (uint256[] memory) {... */\n      swap1\n      jump\t// out\n        /* \"#utility.yul\":7:121   */\n    tag_52:\n        /* \"#utility.yul\":74:80   */\n      0x00\n        /* \"#utility.yul\":108:113   */\n      dup2\n        /* \"#utility.yul\":102:114   */\n      mload\n        /* \"#utility.yul\":92:114   */\n      swap1\n      pop\n        /* \"#utility.yul\":7:121   */\n      swap2\n      swap1\n      pop\n      jump\t// out\n        /* \"#utility.yul\":127:311   */\n    tag_53:\n        /* \"#utility.yul\":226:237   */\n      0x00\n        /* \"#utility.yul\":260:266   */\n      dup3\n        /* \"#utility.yul\":255:258   */\n      dup3\n        /* \"#utility.yul\":248:267   */\n      mstore\n        /* \"#utility.yul\":300:304   */\n      0x20\n        /* \"#utility.yul\":295:298   */\n      dup3\n        /* \"#utility.yul\":291:305   */\n      add\n        /* \"#utility.yul\":276:305   */\n      swap1\n      pop\n        /* \"#utility.yul\":127:311   */\n      swap3\n      swap2\n      pop\n      pop\n      jump\t// out\n        /* \"#utility.yul\":317:449   */\n    tag_54:\n        /* \"#utility.yul\":384:388   */\n      0x00\n        /* \"#utility.yul\":407:410   */\n      dup2\n        /* \"#utility.yul\":399:410   */\n      swap1\n      pop\n        /* \"#utility.yul\":437:441   */\n      0x20\n        /* \"#utility.yul\":432:435   */\n      dup3\n        /* \"#utility.yul\":428:442   */\n      add\n        /* \"#utility.yul\":420:442   */\n      swap1\n      pop\n        /* \"#utility.yul\":317:449   */\n      swap2\n      swap1\n      pop\n      jump\t// out\n        /* \"#utility.yul\":455:532   */\n    tag_55:\n        /* \"#utility.yul\":492:499   */\n      0x00\n        /* \"#utility.yul\":521:526   */\n      dup2\n        /* \"#utility.yul\":510:526   */\n      swap1\n      pop\n        /* \"#utility.yul\":455:532   */\n      swap2\n      swap1\n      pop\n      jump\t// out\n        /* \"#utility.yul\":538:646   */\n    tag_56:\n        /* \"#utility.yul\":615:639   */\n      tag_68\n        /* \"#utility.yul\":633:638   */\n      dup2\n        /* \"#utility.yul\":615:639   */\n      tag_55\n      jump\t// in\n    tag_68:\n        /* \"#utility.yul\":610:613   */\n      dup3\n        /* \"#utility.yul\":603:640   */\n      mstore\n        /* \"#utility.yul\":538:646   */\n      pop\n      pop\n      jump\t// out\n        /* \"#utility.yul\":652:831   */\n    tag_57:\n        /* \"#utility.yul\":721:731   */\n      0x00\n        /* \"#utility.yul\":742:788   */\n      tag_70\n        /* \"#utility.yul\":784:787   */\n      dup4\n        /* \"#utility.yul\":776:782   */\n      dup4\n        /* \"#utility.yul\":742:788   */\n      tag_56\n      jump\t// in\n    tag_70:\n        /* \"#utility.yul\":820:824   */\n      0x20\n        /* \"#utility.yul\":815:818   */\n      dup4\n        /* \"#utility.yul\":811:825   */\n      add\n        /* \"#utility.yul\":797:825   */\n      swap1\n      pop\n        /* \"#utility.yul\":652:831   */\n      swap3\n      swap2\n      pop\n      pop\n      jump\t// out\n        /* \"#utility.yul\":837:950   */\n    tag_58:\n        /* \"#utility.yul\":907:911   */\n      0x00\n        /* \"#utility.yul\":939:943   */\n      0x20\n        /* \"#utility.yul\":934:937   */\n      dup3\n        /* \"#utility.yul\":930:944   */\n      add\n        /* \"#utility.yul\":922:944   */\n      swap1\n      pop\n        /* \"#utility.yul\":837:950   */\n      swap2\n      swap1\n      pop\n      jump\t// out\n        /* \"#utility.yul\":986:1718   */\n    tag_59:\n        /* \"#utility.yul\":1105:1108   */\n      0x00\n        /* \"#utility.yul\":1134:1188   */\n      tag_73\n        /* \"#utility.yul\":1182:1187   */\n      dup3\n        /* \"#utility.yul\":1134:1188   */\n      tag_52\n      jump\t// in\n    tag_73:\n        /* \"#utility.yul\":1204:1290   */\n      tag_74\n        /* \"#utility.yul\":1283:1289   */\n      dup2\n        /* \"#utility.yul\":1278:1281   */\n      dup6\n        /* \"#utility.yul\":1204:1290   */\n      tag_53\n      jump\t// in\n    tag_74:\n        /* \"#utility.yul\":1197:1290   */\n      swap4\n      pop\n        /* \"#utility.yul\":1314:1370   */\n      tag_75\n        /* \"#utility.yul\":1364:1369   */\n      dup4\n        /* \"#utility.yul\":1314:1370   */\n      tag_54\n      jump\t// in\n    tag_75:\n        /* \"#utility.yul\":1393:1400   */\n      dup1\n        /* \"#utility.yul\":1424:1425   */\n      0x00\n        /* \"#utility.yul\":1409:1693   */\n    tag_76:\n        /* \"#utility.yul\":1434:1440   */\n      dup4\n        /* \"#utility.yul\":1431:1432   */\n      dup2\n        /* \"#utility.yul\":1428:1441   */\n      lt\n        /* \"#utility.yul\":1409:1693   */\n      iszero\n      tag_78\n      jumpi\n        /* \"#utility.yul\":1510:1516   */\n      dup2\n        /* \"#utility.yul\":1504:1517   */\n      mload\n        /* \"#utility.yul\":1537:1600   */\n      tag_79\n        /* \"#utility.yul\":1596:1599   */\n      dup9\n        /* \"#utility.yul\":1581:1594   */\n      dup3\n        /* \"#utility.yul\":1537:1600   */\n      tag_57\n      jump\t// in\n    tag_79:\n        /* \"#utility.yul\":1530:1600   */\n      swap8\n      pop\n        /* \"#utility.yul\":1623:1683   */\n      tag_80\n        /* \"#utility.yul\":1676:1682   */\n      dup4\n        /* \"#utility.yul\":1623:1683   */\n      tag_58\n      jump\t// in\n    tag_80:\n        /* \"#utility.yul\":1613:1683   */\n      swap3\n      pop\n        /* \"#utility.yul\":1469:1693   */\n      pop\n        /* \"#utility.yul\":1456:1457   */\n      0x01\n        /* \"#utility.yul\":1453:1454   */\n      dup2\n        /* \"#utility.yul\":1449:1458   */\n      add\n        /* \"#utility.yul\":1444:1458   */\n      swap1\n      pop\n        /* \"#utility.yul\":1409:1693   */\n      jump(tag_76)\n    tag_78:\n        /* \"#utility.yul\":1413:1427   */\n      pop\n        /* \"#utility.yul\":1709:1712   */\n      dup6\n        /* \"#utility.yul\":1702:1712   */\n      swap4\n      pop\n        /* \"#utility.yul\":1110:1718   */\n      pop\n      pop\n      pop\n        /* \"#utility.yul\":986:1718   */\n      swap3\n      swap2\n      pop\n      pop\n      jump\t// out\n        /* \"#utility.yul\":1724:2097   */\n    tag_10:\n        /* \"#utility.yul\":1867:1871   */\n      0x00\n        /* \"#utility.yul\":1905:1907   */\n      0x20\n        /* \"#utility.yul\":1894:1903   */\n      dup3\n        /* \"#utility.yul\":1890:1908   */\n      add\n        /* \"#utility.yul\":1882:1908   */\n      swap1\n      pop\n        /* \"#utility.yul\":1954:1963   */\n      dup2\n        /* \"#utility.yul\":1948:1952   */\n      dup2\n        /* \"#utility.yul\":1944:1964   */\n      sub\n        /* \"#utility.yul\":1940:1941   */\n      0x00\n        /* \"#utility.yul\":1929:1938   */\n      dup4\n        /* \"#utility.yul\":1925:1942   */\n      add\n        /* \"#utility.yul\":1918:1965   */\n      mstore\n        /* \"#utility.yul\":1982:2090   */\n      tag_82\n        /* \"#utility.yul\":2085:2089   */\n      dup2\n        /* \"#utility.yul\":2076:2082   */\n      dup5\n        /* \"#utility.yul\":1982:2090   */\n      tag_59\n      jump\t// in\n    tag_82:\n        /* \"#utility.yul\":1974:2090   */\n      swap1\n      pop\n        /* \"#utility.yul\":1724:2097   */\n      swap3\n      swap2\n      pop\n      pop\n      jump\t// out\n        /* \"#utility.yul\":2103:2283   */\n    tag_60:\n        /* \"#utility.yul\":2151:2228   */\n      0x4e487b7100000000000000000000000000000000000000000000000000000000\n        /* \"#utility.yul\":2148:2149   */\n      0x00\n        /* \"#utility.yul\":2141:2229   */\n      mstore\n        /* \"#utility.yul\":2248:2252   */\n      0x12\n        /* \"#utility.yul\":2245:2246   */\n      0x04\n        /* \"#utility.yul\":2238:2253   */\n      mstore\n        /* \"#utility.yul\":2272:2276   */\n      0x24\n        /* \"#utility.yul\":2269:2270   */\n      0x00\n        /* \"#utility.yul\":2262:2277   */\n      revert\n        /* \"#utility.yul\":2289:2465   */\n    tag_15:\n        /* \"#utility.yul\":2321:2322   */\n      0x00\n        /* \"#utility.yul\":2338:2358   */\n      tag_85\n        /* \"#utility.yul\":2356:2357   */\n      dup3\n        /* \"#utility.yul\":2338:2358   */\n      tag_55\n      jump\t// in\n    tag_85:\n        /* \"#utility.yul\":2333:2358   */\n      swap2\n      pop\n        /* \"#utility.yul\":2372:2392   */\n      tag_86\n        /* \"#utility.yul\":2390:2391   */\n      dup4\n        /* \"#utility.yul\":2372:2392   */\n      tag_55\n      jump\t// in\n    tag_86:\n        /* \"#utility.yul\":2367:2392   */\n      swap3\n      pop\n        /* \"#utility.yul\":2411:2412   */\n      dup3\n        /* \"#utility.yul\":2401:2436   */\n      tag_87\n      jumpi\n        /* \"#utility.yul\":2416:2434   */\n      tag_88\n      tag_60\n      jump\t// in\n    tag_88:\n        /* \"#utility.yul\":2401:2436   */\n    tag_87:\n        /* \"#utility.yul\":2457:2458   */\n      dup3\n        /* \"#utility.yul\":2454:2455   */\n      dup3\n        /* \"#utility.yul\":2450:2459   */\n      mod\n        /* \"#utility.yul\":2445:2459   */\n      swap1\n      pop\n        /* \"#utility.yul\":2289:2465   */\n      swap3\n      swap2\n      pop\n      pop\n      jump\t// out\n        /* \"#utility.yul\":2471:2651   */\n    tag_61:\n        /* \"#utility.yul\":2519:2596   */\n      0x4e487b7100000000000000000000000000000000000000000000000000000000\n        /* \"#utility.yul\":2516:2517   */\n      0x00\n        /* \"#utility.yul\":2509:2597   */\n      mstore\n        /* \"#utility.yul\":2616:2620   */\n      0x11\n        /* \"#utility.yul\":2613:2614   */\n      0x04\n        /* \"#utility.yul\":2606:2621   */\n      mstore\n        /* \"#utility.yul\":2640:2644   */\n      0x24\n        /* \"#utility.yul\":2637:2638   */\n      0x00\n        /* \"#utility.yul\":2630:2645   */\n      revert\n        /* \"#utility.yul\":2657:2842   */\n    tag_22:\n        /* \"#utility.yul\":2697:2698   */\n      0x00\n        /* \"#utility.yul\":2714:2734   */\n      tag_91\n        /* \"#utility.yul\":2732:2733   */\n      dup3\n        /* \"#utility.yul\":2714:2734   */\n      tag_55\n      jump\t// in\n    tag_91:\n        /* \"#utility.yul\":2709:2734   */\n      swap2\n      pop\n        /* \"#utility.yul\":2748:2768   */\n      tag_92\n        /* \"#utility.yul\":2766:2767   */\n      dup4\n        /* \"#utility.yul\":2748:2768   */\n      tag_55\n      jump\t// in\n    tag_92:\n        /* \"#utility.yul\":2743:2768   */\n      swap3\n      pop\n        /* \"#utility.yul\":2787:2788   */\n      dup3\n        /* \"#utility.yul\":2777:2812   */\n      tag_93\n      jumpi\n        /* \"#utility.yul\":2792:2810   */\n      tag_94\n      tag_60\n      jump\t// in\n    tag_94:\n        /* \"#utility.yul\":2777:2812   */\n    tag_93:\n        /* \"#utility.yul\":2834:2835   */\n      dup3\n        /* \"#utility.yul\":2831:2832   */\n      dup3\n        /* \"#utility.yul\":2827:2836   */\n      div\n        /* \"#utility.yul\":2822:2836   */\n      swap1\n      pop\n        /* \"#utility.yul\":2657:2842   */\n      swap3\n      swap2\n      pop\n      pop\n      jump\t// out\n        /* \"#utility.yul\":2848:3258   */\n    tag_24:\n        /* \"#utility.yul\":2888:2895   */\n      0x00\n        /* \"#utility.yul\":2911:2931   */\n      tag_96\n        /* \"#utility.yul\":2929:2930   */\n      dup3\n        /* \"#utility.yul\":2911:2931   */\n      tag_55\n      jump\t// in\n    tag_96:\n        /* \"#utility.yul\":2906:2931   */\n      swap2\n      pop\n        /* \"#utility.yul\":2945:2965   */\n      tag_97\n        /* \"#utility.yul\":2963:2964   */\n      dup4\n        /* \"#utility.yul\":2945:2965   */\n      tag_55\n      jump\t// in\n    tag_97:\n        /* \"#utility.yul\":2940:2965   */\n      swap3\n      pop\n        /* \"#utility.yul\":3000:3001   */\n      dup3\n        /* \"#utility.yul\":2997:2998   */\n      dup3\n        /* \"#utility.yul\":2993:3002   */\n      mul\n        /* \"#utility.yul\":3022:3052   */\n      tag_98\n        /* \"#utility.yul\":3040:3051   */\n      dup2\n        /* \"#utility.yul\":3022:3052   */\n      tag_55\n      jump\t// in\n    tag_98:\n        /* \"#utility.yul\":3011:3052   */\n      swap2\n      pop\n        /* \"#utility.yul\":3201:3202   */\n      dup3\n        /* \"#utility.yul\":3192:3199   */\n      dup3\n        /* \"#utility.yul\":3188:3203   */\n      div\n        /* \"#utility.yul\":3185:3186   */\n      dup5\n        /* \"#utility.yul\":3182:3204   */\n      eq\n        /* \"#utility.yul\":3162:3163   */\n      dup4\n        /* \"#utility.yul\":3155:3164   */\n      iszero\n        /* \"#utility.yul\":3135:3218   */\n      or\n        /* \"#utility.yul\":3112:3251   */\n      tag_99\n      jumpi\n        /* \"#utility.yul\":3231:3249   */\n      tag_100\n      tag_61\n      jump\t// in\n    tag_100:\n        /* \"#utility.yul\":3112:3251   */\n    tag_99:\n        /* \"#utility.yul\":2896:3258   */\n      pop\n        /* \"#utility.yul\":2848:3258   */\n      swap3\n      swap2\n      pop\n      pop\n      jump\t// out\n        /* \"#utility.yul\":3264:3455   */\n    tag_26:\n        /* \"#utility.yul\":3304:3307   */\n      0x00\n        /* \"#utility.yul\":3323:3343   */\n      tag_102\n        /* \"#utility.yul\":3341:3342   */\n      dup3\n        /* \"#utility.yul\":3323:3343   */\n      tag_55\n      jump\t// in\n    tag_102:\n        /* \"#utility.yul\":3318:3343   */\n      swap2\n      pop\n        /* \"#utility.yul\":3357:3377   */\n      tag_103\n        /* \"#utility.yul\":3375:3376   */\n      dup4\n        /* \"#utility.yul\":3357:3377   */\n      tag_55\n      jump\t// in\n    tag_103:\n        /* \"#utility.yul\":3352:3377   */\n      swap3\n      pop\n        /* \"#utility.yul\":3400:3401   */\n      dup3\n        /* \"#utility.yul\":3397:3398   */\n      dup3\n        /* \"#utility.yul\":3393:3402   */\n      add\n        /* \"#utility.yul\":3386:3402   */\n      swap1\n      pop\n        /* \"#utility.yul\":3421:3424   */\n      dup1\n        /* \"#utility.yul\":3418:3419   */\n      dup3\n        /* \"#utility.yul\":3415:3425   */\n      gt\n        /* \"#utility.yul\":3412:3448   */\n      iszero\n      tag_104\n      jumpi\n        /* \"#utility.yul\":3428:3446   */\n      tag_105\n      tag_61\n      jump\t// in\n    tag_105:\n        /* \"#utility.yul\":3412:3448   */\n    tag_104:\n        /* \"#utility.yul\":3264:3455   */\n      swap3\n      swap2\n      pop\n      pop\n      jump\t// out\n        /* \"#utility.yul\":3461:3641   */\n    tag_29:\n        /* \"#utility.yul\":3509:3586   */\n      0x4e487b7100000000000000000000000000000000000000000000000000000000\n        /* \"#utility.yul\":3506:3507   */\n      0x00\n        /* \"#utility.yul\":3499:3587   */\n      mstore\n        /* \"#utility.yul\":3606:3610   */\n      0x32\n        /* \"#utility.yul\":3603:3604   */\n      0x04\n        /* \"#utility.yul\":3596:3611   */\n      mstore\n        /* \"#utility.yul\":3630:3634   */\n      0x24\n        /* \"#utility.yul\":3627:3628   */\n      0x00\n        /* \"#utility.yul\":3620:3635   */\n      revert\n        /* \"#utility.yul\":3647:3880   */\n    tag_40:\n        /* \"#utility.yul\":3686:3689   */\n      0x00\n        /* \"#utility.yul\":3709:3733   */\n      tag_108\n        /* \"#utility.yul\":3727:3732   */\n      dup3\n        /* \"#utility.yul\":3709:3733   */\n      tag_55\n      jump\t// in\n    tag_108:\n        /* \"#utility.yul\":3700:3733   */\n      swap2\n      pop\n        /* \"#utility.yul\":3755:3821   */\n      0xffffffffffffffffffffffffffffffffffffffffffffffffffffffffffffffff\n        /* \"#utility.yul\":3748:3753   */\n      dup3\n        /* \"#utility.yul\":3745:3822   */\n      sub\n        /* \"#utility.yul\":3742:3845   */\n      tag_109\n      jumpi\n        /* \"#utility.yul\":3825:3843   */\n      tag_110\n      tag_61\n      jump\t// in\n    tag_110:\n        /* \"#utility.yul\":3742:3845   */\n    tag_109:\n        /* \"#utility.yul\":3872:3873   */\n      0x01\n        /* \"#utility.yul\":3865:3870   */\n      dup3\n        /* \"#utility.yul\":3861:3874   */\n      add\n        /* \"#utility.yul\":3854:3874   */\n      swap1\n      pop\n        /* \"#utility.yul\":3647:3880   */\n      swap2\n      swap1\n      pop\n      jump\t// out\n        /* \"#utility.yul\":3886:4066   */\n    tag_46:\n        /* \"#utility.yul\":3934:4011   */\n      0x4e487b7100000000000000000000000000000000000000000000000000000000\n        /* \"#utility.yul\":3931:3932   */\n      0x00\n        /* \"#utility.yul\":3924:4012   */\n      mstore\n        /* \"#utility.yul\":4031:4035   */\n      0x31\n        /* \"#utility.yul\":4028:4029   */\n      0x04\n        /* \"#utility.yul\":4021:4036   */\n      mstore\n        /* \"#utility.yul\":4055:4059   */\n      0x24\n        /* \"#utility.yul\":4052:4053   */\n      0x00\n        /* \"#utility.yul\":4045:4060   */\n      revert\n\n    auxdata: 0xa26469706673582212202156a0e68ce2e00675d5ea7345a0e0023ebf23d68d0cce4b85f22672d9191f5c64736f6c63430008120033\n}\n",
				"bytecode": {
					"linkReferences": {},
					"object": "60806040526040518060a00160405280600160ff168152602001600160ff168152602001600160ff168152602001600160ff168152602001600160ff16815250600090600561004f929190610062565b5034801561005c57600080fd5b506100d1565b8280548282559060005260206000209081019282156100a3579160200282015b828111156100a2578251829060ff16905591602001919060010190610082565b5b5090506100b091906100b4565b5090565b5b808211156100cd5760008160009055506001016100b5565b5090565b610518806100e06000396000f3fe608060405234801561001057600080fd5b50600436106100365760003560e01c80634f2be91f1461003b578063993a04b714610045575b600080fd5b610043610063565b005b61004d6101c4565b60405161005a91906102e4565b60405180910390f35b5b6001600080549050146101c257600160026000805490506100859190610335565b036100b357600080806001815401808255809150506001900390600052602060002001600090919091909150555b60005b60026000805490506100c89190610395565b81101561017057600060016002836100e091906103c6565b6100ea9190610408565b815481106100fb576100fa61043c565b5b9060005260206000200154600060028361011591906103c6565b815481106101265761012561043c565b5b906000526020600020015461013b9190610408565b6000828154811061014f5761014e61043c565b5b906000526020600020018190555080806101689061046b565b9150506100b6565b5060005b6000805490508110156101bc576000805480610193576101926104b3565b5b6001900381819060005260206000200160009055905580806101b49061046b565b915050610174565b50610064565b565b6060600080548060200260200160405190810160405280929190818152602001828054801561021257602002820191906000526020600020905b8154815260200190600101908083116101fe575b5050505050905090565b600081519050919050565b600082825260208201905092915050565b6000819050602082019050919050565b6000819050919050565b61025b81610248565b82525050565b600061026d8383610252565b60208301905092915050565b6000602082019050919050565b60006102918261021c565b61029b8185610227565b93506102a683610238565b8060005b838110156102d75781516102be8882610261565b97506102c983610279565b9250506001810190506102aa565b5085935050505092915050565b600060208201905081810360008301526102fe8184610286565b905092915050565b7f4e487b7100000000000000000000000000000000000000000000000000000000600052601260045260246000fd5b600061034082610248565b915061034b83610248565b92508261035b5761035a610306565b5b828206905092915050565b7f4e487b7100000000000000000000000000000000000000000000000000000000600052601160045260246000fd5b60006103a082610248565b91506103ab83610248565b9250826103bb576103ba610306565b5b828204905092915050565b60006103d182610248565b91506103dc83610248565b92508282026103ea81610248565b9150828204841483151761040157610400610366565b5b5092915050565b600061041382610248565b915061041e83610248565b925082820190508082111561043657610435610366565b5b92915050565b7f4e487b7100000000000000000000000000000000000000000000000000000000600052603260045260246000fd5b600061047682610248565b91507fffffffffffffffffffffffffffffffffffffffffffffffffffffffffffffffff82036104a8576104a7610366565b5b600182019050919050565b7f4e487b7100000000000000000000000000000000000000000000000000000000600052603160045260246000fdfea26469706673582212202156a0e68ce2e00675d5ea7345a0e0023ebf23d68d0cce4b85f22672d9191f5c64736f6c63430008120033",
					"opcodes": "PUSH1 0x80 PUSH1 0x40 MSTORE PUSH1 0x40 MLOAD DUP1 PUSH1 0xA0 ADD PUSH1 0x40 MSTORE DUP1 PUSH1 0x1 PUSH1 0xFF AND DUP2 MSTORE PUSH1 0x20 ADD PUSH1 0x1 PUSH1 0xFF AND DUP2 MSTORE PUSH1 0x20 ADD PUSH1 0x1 PUSH1 0xFF AND DUP2 MSTORE PUSH1 0x20 ADD PUSH1 0x1 PUSH1 0xFF AND DUP2 MSTORE PUSH1 0x20 ADD PUSH1 0x1 PUSH1 0xFF AND DUP2 MSTORE POP PUSH1 0x0 SWAP1 PUSH1 0x5 PUSH2 0x4F SWAP3 SWAP2 SWAP1 PUSH2 0x62 JUMP JUMPDEST POP CALLVALUE DUP1 ISZERO PUSH2 0x5C JUMPI PUSH1 0x0 DUP1 REVERT JUMPDEST POP PUSH2 0xD1 JUMP JUMPDEST DUP3 DUP1 SLOAD DUP3 DUP3 SSTORE SWAP1 PUSH1 0x0 MSTORE PUSH1 0x20 PUSH1 0x0 KECCAK256 SWAP1 DUP2 ADD SWAP3 DUP3 ISZERO PUSH2 0xA3 JUMPI SWAP2 PUSH1 0x20 MUL DUP3 ADD JUMPDEST DUP3 DUP2 GT ISZERO PUSH2 0xA2 JUMPI DUP3 MLOAD DUP3 SWAP1 PUSH1 0xFF AND SWAP1 SSTORE SWAP2 PUSH1 0x20 ADD SWAP2 SWAP1 PUSH1 0x1 ADD SWAP1 PUSH2 0x82 JUMP JUMPDEST JUMPDEST POP SWAP1 POP PUSH2 0xB0 SWAP2 SWAP1 PUSH2 0xB4 JUMP JUMPDEST POP SWAP1 JUMP JUMPDEST JUMPDEST DUP1 DUP3 GT ISZERO PUSH2 0xCD JUMPI PUSH1 0x0 DUP2 PUSH1 0x0 SWAP1 SSTORE POP PUSH1 0x1 ADD PUSH2 0xB5 JUMP JUMPDEST POP SWAP1 JUMP JUMPDEST PUSH2 0x518 DUP1 PUSH2 0xE0 PUSH1 0x0 CODECOPY PUSH1 0x0 RETURN INVALID PUSH1 0x80 PUSH1 0x40 MSTORE CALLVALUE DUP1 ISZERO PUSH2 0x10 JUMPI PUSH1 0x0 DUP1 REVERT JUMPDEST POP PUSH1 0x4 CALLDATASIZE LT PUSH2 0x36 JUMPI PUSH1 0x0 CALLDATALOAD PUSH1 0xE0 SHR DUP1 PUSH4 0x4F2BE91F EQ PUSH2 0x3B JUMPI DUP1 PUSH4 0x993A04B7 EQ PUSH2 0x45 JUMPI JUMPDEST PUSH1 0x0 DUP1 REVERT JUMPDEST PUSH2 0x43 PUSH2 0x63 JUMP JUMPDEST STOP JUMPDEST PUSH2 0x4D PUSH2 0x1C4 JUMP JUMPDEST PUSH1 0x40 MLOAD PUSH2 0x5A SWAP2 SWAP1 PUSH2 0x2E4 JUMP JUMPDEST PUSH1 0x40 MLOAD DUP1 SWAP2 SUB SWAP1 RETURN JUMPDEST JUMPDEST PUSH1 0x1 PUSH1 0x0 DUP1 SLOAD SWAP1 POP EQ PUSH2 0x1C2 JUMPI PUSH1 0x1 PUSH1 0x2 PUSH1 0x0 DUP1 SLOAD SWAP1 POP PUSH2 0x85 SWAP2 SWAP1 PUSH2 0x335 JUMP JUMPDEST SUB PUSH2 0xB3 JUMPI PUSH1 0x0 DUP1 DUP1 PUSH1 0x1 DUP2 SLOAD ADD DUP1 DUP3 SSTORE DUP1 SWAP2 POP POP PUSH1 0x1 SWAP1 SUB SWAP1 PUSH1 0x0 MSTORE PUSH1 0x20 PUSH1 0x0 KECCAK256 ADD PUSH1 0x0 SWAP1 SWAP2 SWAP1 SWAP2 SWAP1 SWAP2 POP SSTORE JUMPDEST PUSH1 0x0 JUMPDEST PUSH1 0x2 PUSH1 0x0 DUP1 SLOAD SWAP1 POP PUSH2 0xC8 SWAP2 SWAP1 PUSH2 0x395 JUMP JUMPDEST DUP2 LT ISZERO PUSH2 0x170 JUMPI PUSH1 0x0 PUSH1 0x1 PUSH1 0x2 DUP4 PUSH2 0xE0 SWAP2 SWAP1 PUSH2 0x3C6 JUMP JUMPDEST PUSH2 0xEA SWAP2 SWAP1 PUSH2 0x408 JUMP JUMPDEST DUP2 SLOAD DUP2 LT PUSH2 0xFB JUMPI PUSH2 0xFA PUSH2 0x43C JUMP JUMPDEST JUMPDEST SWAP1 PUSH1 0x0 MSTORE PUSH1 0x20 PUSH1 0x0 KECCAK256 ADD SLOAD PUSH1 0x0 PUSH1 0x2 DUP4 PUSH2 0x115 SWAP2 SWAP1 PUSH2 0x3C6 JUMP JUMPDEST DUP2 SLOAD DUP2 LT PUSH2 0x126 JUMPI PUSH2 0x125 PUSH2 0x43C JUMP JUMPDEST JUMPDEST SWAP1 PUSH1 0x0 MSTORE PUSH1 0x20 PUSH1 0x0 KECCAK256 ADD SLOAD PUSH2 0x13B SWAP2 SWAP1 PUSH2 0x408 JUMP JUMPDEST PUSH1 0x0 DUP3 DUP2 SLOAD DUP2 LT PUSH2 0x14F JUMPI PUSH2 0x14E PUSH2 0x43C JUMP JUMPDEST JUMPDEST SWAP1 PUSH1 0x0 MSTORE PUSH1 0x20 PUSH1 0x0 KECCAK256 ADD DUP2 SWAP1 SSTORE POP DUP1 DUP1 PUSH2 0x168 SWAP1 PUSH2 0x46B JUMP JUMPDEST SWAP2 POP POP PUSH2 0xB6 JUMP JUMPDEST POP PUSH1 0x0 JUMPDEST PUSH1 0x0 DUP1 SLOAD SWAP1 POP DUP2 LT ISZERO PUSH2 0x1BC JUMPI PUSH1 0x0 DUP1 SLOAD DUP1 PUSH2 0x193 JUMPI PUSH2 0x192 PUSH2 0x4B3 JUMP JUMPDEST JUMPDEST PUSH1 0x1 SWAP1 SUB DUP2 DUP2 SWAP1 PUSH1 0x0 MSTORE PUSH1 0x20 PUSH1 0x0 KECCAK256 ADD PUSH1 0x0 SWAP1 SSTORE SWAP1 SSTORE DUP1 DUP1 PUSH2 0x1B4 SWAP1 PUSH2 0x46B JUMP JUMPDEST SWAP2 POP POP PUSH2 0x174 JUMP JUMPDEST POP PUSH2 0x64 JUMP JUMPDEST JUMP JUMPDEST PUSH1 0x60 PUSH1 0x0 DUP1 SLOAD DUP1 PUSH1 0x20 MUL PUSH1 0x20 ADD PUSH1 0x40 MLOAD SWAP1 DUP2 ADD PUSH1 0x40 MSTORE DUP1 SWAP3 SWAP2 SWAP1 DUP2 DUP2 MSTORE PUSH1 0x20 ADD DUP3 DUP1 SLOAD DUP1 ISZERO PUSH2 0x212 JUMPI PUSH1 0x20 MUL DUP3 ADD SWAP2 SWAP1 PUSH1 0x0 MSTORE PUSH1 0x20 PUSH1 0x0 KECCAK256 SWAP1 JUMPDEST DUP2 SLOAD DUP2 MSTORE PUSH1 0x20 ADD SWAP1 PUSH1 0x1 ADD SWAP1 DUP1 DUP4 GT PUSH2 0x1FE JUMPI JUMPDEST POP POP POP POP POP SWAP1 POP SWAP1 JUMP JUMPDEST PUSH1 0x0 DUP2 MLOAD SWAP1 POP SWAP2 SWAP1 POP JUMP JUMPDEST PUSH1 0x0 DUP3 DUP3 MSTORE PUSH1 0x20 DUP3 ADD SWAP1 POP SWAP3 SWAP2 POP POP JUMP JUMPDEST PUSH1 0x0 DUP2 SWAP1 POP PUSH1 0x20 DUP3 ADD SWAP1 POP SWAP2 SWAP1 POP JUMP JUMPDEST PUSH1 0x0 DUP2 SWAP1 POP SWAP2 SWAP1 POP JUMP JUMPDEST PUSH2 0x25B DUP2 PUSH2 0x248 JUMP JUMPDEST DUP3 MSTORE POP POP JUMP JUMPDEST PUSH1 0x0 PUSH2 0x26D DUP4 DUP4 PUSH2 0x252 JUMP JUMPDEST PUSH1 0x20 DUP4 ADD SWAP1 POP SWAP3 SWAP2 POP POP JUMP JUMPDEST PUSH1 0x0 PUSH1 0x20 DUP3 ADD SWAP1 POP SWAP2 SWAP1 POP JUMP JUMPDEST PUSH1 0x0 PUSH2 0x291 DUP3 PUSH2 0x21C JUMP JUMPDEST PUSH2 0x29B DUP2 DUP6 PUSH2 0x227 JUMP JUMPDEST SWAP4 POP PUSH2 0x2A6 DUP4 PUSH2 0x238 JUMP JUMPDEST DUP1 PUSH1 0x0 JUMPDEST DUP4 DUP2 LT ISZERO PUSH2 0x2D7 JUMPI DUP2 MLOAD PUSH2 0x2BE DUP9 DUP3 PUSH2 0x261 JUMP JUMPDEST SWAP8 POP PUSH2 0x2C9 DUP4 PUSH2 0x279 JUMP JUMPDEST SWAP3 POP POP PUSH1 0x1 DUP2 ADD SWAP1 POP PUSH2 0x2AA JUMP JUMPDEST POP DUP6 SWAP4 POP POP POP POP SWAP3 SWAP2 POP POP JUMP JUMPDEST PUSH1 0x0 PUSH1 0x20 DUP3 ADD SWAP1 POP DUP2 DUP2 SUB PUSH1 0x0 DUP4 ADD MSTORE PUSH2 0x2FE DUP2 DUP5 PUSH2 0x286 JUMP JUMPDEST SWAP1 POP SWAP3 SWAP2 POP POP JUMP JUMPDEST PUSH32 0x4E487B7100000000000000000000000000000000000000000000000000000000 PUSH1 0x0 MSTORE PUSH1 0x12 PUSH1 0x4 MSTORE PUSH1 0x24 PUSH1 0x0 REVERT JUMPDEST PUSH1 0x0 PUSH2 0x340 DUP3 PUSH2 0x248 JUMP JUMPDEST SWAP2 POP PUSH2 0x34B DUP4 PUSH2 0x248 JUMP JUMPDEST SWAP3 POP DUP3 PUSH2 0x35B JUMPI PUSH2 0x35A PUSH2 0x306 JUMP JUMPDEST JUMPDEST DUP3 DUP3 MOD SWAP1 POP SWAP3 SWAP2 POP POP JUMP JUMPDEST PUSH32 0x4E487B7100000000000000000000000000000000000000000000000000000000 PUSH1 0x0 MSTORE PUSH1 0x11 PUSH1 0x4 MSTORE PUSH1 0x24 PUSH1 0x0 REVERT JUMPDEST PUSH1 0x0 PUSH2 0x3A0 DUP3 PUSH2 0x248 JUMP JUMPDEST SWAP2 POP PUSH2 0x3AB DUP4 PUSH2 0x248 JUMP JUMPDEST SWAP3 POP DUP3 PUSH2 0x3BB JUMPI PUSH2 0x3BA PUSH2 0x306 JUMP JUMPDEST JUMPDEST DUP3 DUP3 DIV SWAP1 POP SWAP3 SWAP2 POP POP JUMP JUMPDEST PUSH1 0x0 PUSH2 0x3D1 DUP3 PUSH2 0x248 JUMP JUMPDEST SWAP2 POP PUSH2 0x3DC DUP4 PUSH2 0x248 JUMP JUMPDEST SWAP3 POP DUP3 DUP3 MUL PUSH2 0x3EA DUP2 PUSH2 0x248 JUMP JUMPDEST SWAP2 POP DUP3 DUP3 DIV DUP5 EQ DUP4 ISZERO OR PUSH2 0x401 JUMPI PUSH2 0x400 PUSH2 0x366 JUMP JUMPDEST JUMPDEST POP SWAP3 SWAP2 POP POP JUMP JUMPDEST PUSH1 0x0 PUSH2 0x413 DUP3 PUSH2 0x248 JUMP JUMPDEST SWAP2 POP PUSH2 0x41E DUP4 PUSH2 0x248 JUMP JUMPDEST SWAP3 POP DUP3 DUP3 ADD SWAP1 POP DUP1 DUP3 GT ISZERO PUSH2 0x436 JUMPI PUSH2 0x435 PUSH2 0x366 JUMP JUMPDEST JUMPDEST SWAP3 SWAP2 POP POP JUMP JUMPDEST PUSH32 0x4E487B7100000000000000000000000000000000000000000000000000000000 PUSH1 0x0 MSTORE PUSH1 0x32 PUSH1 0x4 MSTORE PUSH1 0x24 PUSH1 0x0 REVERT JUMPDEST PUSH1 0x0 PUSH2 0x476 DUP3 PUSH2 0x248 JUMP JUMPDEST SWAP2 POP PUSH32 0xFFFFFFFFFFFFFFFFFFFFFFFFFFFFFFFFFFFFFFFFFFFFFFFFFFFFFFFFFFFFFFFF DUP3 SUB PUSH2 0x4A8 JUMPI PUSH2 0x4A7 PUSH2 0x366 JUMP JUMPDEST JUMPDEST PUSH1 0x1 DUP3 ADD SWAP1 POP SWAP2 SWAP1 POP JUMP JUMPDEST PUSH32 0x4E487B7100000000000000000000000000000000000000000000000000000000 PUSH1 0x0 MSTORE PUSH1 0x31 PUSH1 0x4 MSTORE PUSH1 0x24 PUSH1 0x0 REVERT INVALID LOG2 PUSH5 0x6970667358 0x22 SLT KECCAK256 0x21 JUMP LOG0 0xE6 DUP13 0xE2 0xE0 MOD PUSH22 0xD5EA7345A0E0023EBF23D68D0CCE4B85F22672D9191F 0x5C PUSH5 0x736F6C6343 STOP ADDMOD SLT STOP CALLER "
				},
				"gasEstimates": {
					"creation": {
						"codeDepositCost": "260800",
						"executionCost": "infinite",
						"totalCost": "infinite"
					},
					"external": {
						"add()": "infinite",
						"getter()": "infinite"
					}
				},
				"methodIdentifiers": {
					"add()": "4f2be91f",
					"getter()": "993a04b7"
				}
			},
			"storageLayout": {
				"storage": [
					{
						"astId": 10,
						"contract": "Labs (August)/nested_for.sol:MerkleTree",
						"label": "arr",
						"offset": 0,
						"slot": "0",
						"type": "t_array(t_uint256)dyn_storage"
					}
				],
				"types": {
					"t_array(t_uint256)dyn_storage": {
						"base": "t_uint256",
						"encoding": "dynamic_array",
						"label": "uint256[]",
						"numberOfBytes": "32"
					},
					"t_uint256": {
						"encoding": "inplace",
						"label": "uint256",
						"numberOfBytes": "32"
					}
				}
			},
			"userdoc": {
				"kind": "user",
				"methods": {},
				"version": 1
			}
		}
	}
}