{
	"Labs (August)/do_while.sol": {
		"Loop": {
			"abi": [
				{
					"inputs": [
						{
							"internalType": "uint256",
							"name": "cond",
							"type": "uint256"
						}
					],
					"name": "iterate",
					"outputs": [
						{
							"internalType": "uint256",
							"name": "",
							"type": "uint256"
						}
					],
					"stateMutability": "pure",
					"type": "function"
				}
			],
			"devdoc": {
				"kind": "dev",
				"methods": {},
				"version": 1
			},
			"evm": {
				"assembly": "    /* \"Labs (August)/do_while.sol\":59:553  contract Loop{... */\n  mstore(0x40, 0x80)\n  callvalue\n  dup1\n  iszero\n  tag_1\n  jumpi\n  0x00\n  dup1\n  revert\ntag_1:\n  pop\n  dataSize(sub_0)\n  dup1\n  dataOffset(sub_0)\n  0x00\n  codecopy\n  0x00\n  return\nstop\n\nsub_0: assembly {\n        /* \"Labs (August)/do_while.sol\":59:553  contract Loop{... */\n      mstore(0x40, 0x80)\n      callvalue\n      dup1\n      iszero\n      tag_1\n      jumpi\n      0x00\n      dup1\n      revert\n    tag_1:\n      pop\n      jumpi(tag_2, lt(calldatasize, 0x04))\n      shr(0xe0, calldataload(0x00))\n      dup1\n      0xe2a098d1\n      eq\n      tag_3\n      jumpi\n    tag_2:\n      0x00\n      dup1\n      revert\n        /* \"Labs (August)/do_while.sol\":180:550  function iterate(uint cond) public pure returns(uint){... */\n    tag_3:\n      tag_4\n      0x04\n      dup1\n      calldatasize\n      sub\n      dup2\n      add\n      swap1\n      tag_5\n      swap2\n      swap1\n      tag_6\n      jump\t// in\n    tag_5:\n      tag_7\n      jump\t// in\n    tag_4:\n      mload(0x40)\n      tag_8\n      swap2\n      swap1\n      tag_9\n      jump\t// in\n    tag_8:\n      mload(0x40)\n      dup1\n      swap2\n      sub\n      swap1\n      return\n    tag_7:\n        /* \"Labs (August)/do_while.sol\":228:232  uint */\n      0x00\n        /* \"Labs (August)/do_while.sol\":244:250  uint i */\n      dup1\n        /* \"Labs (August)/do_while.sol\":261:275  uint iteration */\n      0x00\n        /* \"Labs (August)/do_while.sol\":286:355  do {... */\n    tag_11:\n        /* \"Labs (August)/do_while.sol\":300:312  iteration ++ */\n      dup1\n      dup1\n      tag_14\n      swap1\n      tag_15\n      jump\t// in\n    tag_14:\n      swap2\n      pop\n      pop\n        /* \"Labs (August)/do_while.sol\":323:326  i++ */\n      dup2\n      dup1\n      tag_16\n      swap1\n      tag_15\n      jump\t// in\n    tag_16:\n      swap3\n      pop\n      pop\n        /* \"Labs (August)/do_while.sol\":349:353  cond */\n      dup4\n        /* \"Labs (August)/do_while.sol\":345:346  i */\n      dup3\n        /* \"Labs (August)/do_while.sol\":345:353  i < cond */\n      lt\n        /* \"Labs (August)/do_while.sol\":286:355  do {... */\n      tag_11\n      jumpi\n        /* \"Labs (August)/do_while.sol\":533:542  iteration */\n      dup1\n        /* \"Labs (August)/do_while.sol\":526:542  return iteration */\n      swap3\n      pop\n      pop\n      pop\n        /* \"Labs (August)/do_while.sol\":180:550  function iterate(uint cond) public pure returns(uint){... */\n      swap2\n      swap1\n      pop\n      jump\t// out\n        /* \"#utility.yul\":88:205   */\n    tag_18:\n        /* \"#utility.yul\":197:198   */\n      0x00\n        /* \"#utility.yul\":194:195   */\n      dup1\n        /* \"#utility.yul\":187:199   */\n      revert\n        /* \"#utility.yul\":334:411   */\n    tag_20:\n        /* \"#utility.yul\":371:378   */\n      0x00\n        /* \"#utility.yul\":400:405   */\n      dup2\n        /* \"#utility.yul\":389:405   */\n      swap1\n      pop\n        /* \"#utility.yul\":334:411   */\n      swap2\n      swap1\n      pop\n      jump\t// out\n        /* \"#utility.yul\":417:539   */\n    tag_21:\n        /* \"#utility.yul\":490:514   */\n      tag_31\n        /* \"#utility.yul\":508:513   */\n      dup2\n        /* \"#utility.yul\":490:514   */\n      tag_20\n      jump\t// in\n    tag_31:\n        /* \"#utility.yul\":483:488   */\n      dup2\n        /* \"#utility.yul\":480:515   */\n      eq\n        /* \"#utility.yul\":470:533   */\n      tag_32\n      jumpi\n        /* \"#utility.yul\":529:530   */\n      0x00\n        /* \"#utility.yul\":526:527   */\n      dup1\n        /* \"#utility.yul\":519:531   */\n      revert\n        /* \"#utility.yul\":470:533   */\n    tag_32:\n        /* \"#utility.yul\":417:539   */\n      pop\n      jump\t// out\n        /* \"#utility.yul\":545:684   */\n    tag_22:\n        /* \"#utility.yul\":591:596   */\n      0x00\n        /* \"#utility.yul\":629:635   */\n      dup2\n        /* \"#utility.yul\":616:636   */\n      calldataload\n        /* \"#utility.yul\":607:636   */\n      swap1\n      pop\n        /* \"#utility.yul\":645:678   */\n      tag_34\n        /* \"#utility.yul\":672:677   */\n      dup2\n        /* \"#utility.yul\":645:678   */\n      tag_21\n      jump\t// in\n    tag_34:\n        /* \"#utility.yul\":545:684   */\n      swap3\n      swap2\n      pop\n      pop\n      jump\t// out\n        /* \"#utility.yul\":690:1019   */\n    tag_6:\n        /* \"#utility.yul\":749:755   */\n      0x00\n        /* \"#utility.yul\":798:800   */\n      0x20\n        /* \"#utility.yul\":786:795   */\n      dup3\n        /* \"#utility.yul\":777:784   */\n      dup5\n        /* \"#utility.yul\":773:796   */\n      sub\n        /* \"#utility.yul\":769:801   */\n      slt\n        /* \"#utility.yul\":766:885   */\n      iszero\n      tag_36\n      jumpi\n        /* \"#utility.yul\":804:883   */\n      tag_37\n      tag_18\n      jump\t// in\n    tag_37:\n        /* \"#utility.yul\":766:885   */\n    tag_36:\n        /* \"#utility.yul\":924:925   */\n      0x00\n        /* \"#utility.yul\":949:1002   */\n      tag_38\n        /* \"#utility.yul\":994:1001   */\n      dup5\n        /* \"#utility.yul\":985:991   */\n      dup3\n        /* \"#utility.yul\":974:983   */\n      dup6\n        /* \"#utility.yul\":970:992   */\n      add\n        /* \"#utility.yul\":949:1002   */\n      tag_22\n      jump\t// in\n    tag_38:\n        /* \"#utility.yul\":939:1002   */\n      swap2\n      pop\n        /* \"#utility.yul\":895:1012   */\n      pop\n        /* \"#utility.yul\":690:1019   */\n      swap3\n      swap2\n      pop\n      pop\n      jump\t// out\n        /* \"#utility.yul\":1025:1143   */\n    tag_23:\n        /* \"#utility.yul\":1112:1136   */\n      tag_40\n        /* \"#utility.yul\":1130:1135   */\n      dup2\n        /* \"#utility.yul\":1112:1136   */\n      tag_20\n      jump\t// in\n    tag_40:\n        /* \"#utility.yul\":1107:1110   */\n      dup3\n        /* \"#utility.yul\":1100:1137   */\n      mstore\n        /* \"#utility.yul\":1025:1143   */\n      pop\n      pop\n      jump\t// out\n        /* \"#utility.yul\":1149:1371   */\n    tag_9:\n        /* \"#utility.yul\":1242:1246   */\n      0x00\n        /* \"#utility.yul\":1280:1282   */\n      0x20\n        /* \"#utility.yul\":1269:1278   */\n      dup3\n        /* \"#utility.yul\":1265:1283   */\n      add\n        /* \"#utility.yul\":1257:1283   */\n      swap1\n      pop\n        /* \"#utility.yul\":1293:1364   */\n      tag_42\n        /* \"#utility.yul\":1361:1362   */\n      0x00\n        /* \"#utility.yul\":1350:1359   */\n      dup4\n        /* \"#utility.yul\":1346:1363   */\n      add\n        /* \"#utility.yul\":1337:1343   */\n      dup5\n        /* \"#utility.yul\":1293:1364   */\n      tag_23\n      jump\t// in\n    tag_42:\n        /* \"#utility.yul\":1149:1371   */\n      swap3\n      swap2\n      pop\n      pop\n      jump\t// out\n        /* \"#utility.yul\":1377:1557   */\n    tag_24:\n        /* \"#utility.yul\":1425:1502   */\n      0x4e487b7100000000000000000000000000000000000000000000000000000000\n        /* \"#utility.yul\":1422:1423   */\n      0x00\n        /* \"#utility.yul\":1415:1503   */\n      mstore\n        /* \"#utility.yul\":1522:1526   */\n      0x11\n        /* \"#utility.yul\":1519:1520   */\n      0x04\n        /* \"#utility.yul\":1512:1527   */\n      mstore\n        /* \"#utility.yul\":1546:1550   */\n      0x24\n        /* \"#utility.yul\":1543:1544   */\n      0x00\n        /* \"#utility.yul\":1536:1551   */\n      revert\n        /* \"#utility.yul\":1563:1796   */\n    tag_15:\n        /* \"#utility.yul\":1602:1605   */\n      0x00\n        /* \"#utility.yul\":1625:1649   */\n      tag_45\n        /* \"#utility.yul\":1643:1648   */\n      dup3\n        /* \"#utility.yul\":1625:1649   */\n      tag_20\n      jump\t// in\n    tag_45:\n        /* \"#utility.yul\":1616:1649   */\n      swap2\n      pop\n        /* \"#utility.yul\":1671:1737   */\n      0xffffffffffffffffffffffffffffffffffffffffffffffffffffffffffffffff\n        /* \"#utility.yul\":1664:1669   */\n      dup3\n        /* \"#utility.yul\":1661:1738   */\n      sub\n        /* \"#utility.yul\":1658:1761   */\n      tag_46\n      jumpi\n        /* \"#utility.yul\":1741:1759   */\n      tag_47\n      tag_24\n      jump\t// in\n    tag_47:\n        /* \"#utility.yul\":1658:1761   */\n    tag_46:\n        /* \"#utility.yul\":1788:1789   */\n      0x01\n        /* \"#utility.yul\":1781:1786   */\n      dup3\n        /* \"#utility.yul\":1777:1790   */\n      add\n        /* \"#utility.yul\":1770:1790   */\n      swap1\n      pop\n        /* \"#utility.yul\":1563:1796   */\n      swap2\n      swap1\n      pop\n      jump\t// out\n\n    auxdata: 0xa2646970667358221220a60129d51d74d844e3486db9af0334b0006256f9d23d7a3e26189497a049615964736f6c63430008150033\n}\n",
				"bytecode": {
					"linkReferences": {},
					"object": "608060405234801561000f575f80fd5b506101c28061001d5f395ff3fe608060405234801561000f575f80fd5b5060043610610029575f3560e01c8063e2a098d11461002d575b5f80fd5b610047600480360381019061004291906100c5565b61005d565b60405161005491906100ff565b60405180910390f35b5f805f5b808061006c90610145565b915050818061007a90610145565b925050838210610061578092505050919050565b5f80fd5b5f819050919050565b6100a481610092565b81146100ae575f80fd5b50565b5f813590506100bf8161009b565b92915050565b5f602082840312156100da576100d961008e565b5b5f6100e7848285016100b1565b91505092915050565b6100f981610092565b82525050565b5f6020820190506101125f8301846100f0565b92915050565b7f4e487b71000000000000000000000000000000000000000000000000000000005f52601160045260245ffd5b5f61014f82610092565b91507fffffffffffffffffffffffffffffffffffffffffffffffffffffffffffffffff820361018157610180610118565b5b60018201905091905056fea2646970667358221220a60129d51d74d844e3486db9af0334b0006256f9d23d7a3e26189497a049615964736f6c63430008150033",
					"opcodes": "PUSH1 0x80 PUSH1 0x40 MSTORE CALLVALUE DUP1 ISZERO PUSH2 0xF JUMPI PUSH0 DUP1 REVERT JUMPDEST POP PUSH2 0x1C2 DUP1 PUSH2 0x1D PUSH0 CODECOPY PUSH0 RETURN INVALID PUSH1 0x80 PUSH1 0x40 MSTORE CALLVALUE DUP1 ISZERO PUSH2 0xF JUMPI PUSH0 DUP1 REVERT JUMPDEST POP PUSH1 0x4 CALLDATASIZE LT PUSH2 0x29 JUMPI PUSH0 CALLDATALOAD PUSH1 0xE0 SHR DUP1 PUSH4 0xE2A098D1 EQ PUSH2 0x2D JUMPI JUMPDEST PUSH0 DUP1 REVERT JUMPDEST PUSH2 0x47 PUSH1 0x4 DUP1 CALLDATASIZE SUB DUP2 ADD SWAP1 PUSH2 0x42 SWAP2 SWAP1 PUSH2 0xC5 JUMP JUMPDEST PUSH2 0x5D JUMP JUMPDEST PUSH1 0x40 MLOAD PUSH2 0x54 SWAP2 SWAP1 PUSH2 0xFF JUMP JUMPDEST PUSH1 0x40 MLOAD DUP1 SWAP2 SUB SWAP1 RETURN JUMPDEST PUSH0 DUP1 PUSH0 JUMPDEST DUP1 DUP1 PUSH2 0x6C SWAP1 PUSH2 0x145 JUMP JUMPDEST SWAP2 POP POP DUP2 DUP1 PUSH2 0x7A SWAP1 PUSH2 0x145 JUMP JUMPDEST SWAP3 POP POP DUP4 DUP3 LT PUSH2 0x61 JUMPI DUP1 SWAP3 POP POP POP SWAP2 SWAP1 POP JUMP JUMPDEST PUSH0 DUP1 REVERT JUMPDEST PUSH0 DUP2 SWAP1 POP SWAP2 SWAP1 POP JUMP JUMPDEST PUSH2 0xA4 DUP2 PUSH2 0x92 JUMP JUMPDEST DUP2 EQ PUSH2 0xAE JUMPI PUSH0 DUP1 REVERT JUMPDEST POP JUMP JUMPDEST PUSH0 DUP2 CALLDATALOAD SWAP1 POP PUSH2 0xBF DUP2 PUSH2 0x9B JUMP JUMPDEST SWAP3 SWAP2 POP POP JUMP JUMPDEST PUSH0 PUSH1 0x20 DUP3 DUP5 SUB SLT ISZERO PUSH2 0xDA JUMPI PUSH2 0xD9 PUSH2 0x8E JUMP JUMPDEST JUMPDEST PUSH0 PUSH2 0xE7 DUP5 DUP3 DUP6 ADD PUSH2 0xB1 JUMP JUMPDEST SWAP2 POP POP SWAP3 SWAP2 POP POP JUMP JUMPDEST PUSH2 0xF9 DUP2 PUSH2 0x92 JUMP JUMPDEST DUP3 MSTORE POP POP JUMP JUMPDEST PUSH0 PUSH1 0x20 DUP3 ADD SWAP1 POP PUSH2 0x112 PUSH0 DUP4 ADD DUP5 PUSH2 0xF0 JUMP JUMPDEST SWAP3 SWAP2 POP POP JUMP JUMPDEST PUSH32 0x4E487B7100000000000000000000000000000000000000000000000000000000 PUSH0 MSTORE PUSH1 0x11 PUSH1 0x4 MSTORE PUSH1 0x24 PUSH0 REVERT JUMPDEST PUSH0 PUSH2 0x14F DUP3 PUSH2 0x92 JUMP JUMPDEST SWAP2 POP PUSH32 0xFFFFFFFFFFFFFFFFFFFFFFFFFFFFFFFFFFFFFFFFFFFFFFFFFFFFFFFFFFFFFFFF DUP3 SUB PUSH2 0x181 JUMPI PUSH2 0x180 PUSH2 0x118 JUMP JUMPDEST JUMPDEST PUSH1 0x1 DUP3 ADD SWAP1 POP SWAP2 SWAP1 POP JUMP INVALID LOG2 PUSH5 0x6970667358 0x22 SLT KECCAK256 0xA6 ADD 0x29 0xD5 SAR PUSH21 0xD844E3486DB9AF0334B0006256F9D23D7A3E261894 SWAP8 LOG0 0x49 PUSH2 0x5964 PUSH20 0x6F6C634300081500330000000000000000000000 "
				},
				"gasEstimates": {
					"creation": {
						"codeDepositCost": "90000",
						"executionCost": "139",
						"totalCost": "90139"
					},
					"external": {
						"iterate(uint256)": "infinite"
					}
				},
				"methodIdentifiers": {
					"iterate(uint256)": "e2a098d1"
				}
			},
			"storageLayout": {
				"storage": [],
				"types": null
			},
			"userdoc": {
				"kind": "user",
				"methods": {},
				"version": 1
			}
		}
	}
}