{
	"Labs (August)/nested_for.sol": {
		"MerkleTree": {
			"abi": [
				{
					"inputs": [],
					"name": "func_name",
					"outputs": [
						{
							"internalType": "uint256",
							"name": "",
							"type": "uint256"
						}
					],
					"stateMutability": "pure",
					"type": "function"
				}
			],
			"devdoc": {
				"kind": "dev",
				"methods": {},
				"version": 1
			},
			"evm": {
				"assembly": "    /* \"Labs (August)/nested_for.sol\":61:350  contract MerkleTree {... */\n  mstore(0x40, 0x80)\n  callvalue\n  dup1\n  iszero\n  tag_1\n  jumpi\n  0x00\n  dup1\n  revert\ntag_1:\n  pop\n  dataSize(sub_0)\n  dup1\n  dataOffset(sub_0)\n  0x00\n  codecopy\n  0x00\n  return\nstop\n\nsub_0: assembly {\n        /* \"Labs (August)/nested_for.sol\":61:350  contract MerkleTree {... */\n      mstore(0x40, 0x80)\n      callvalue\n      dup1\n      iszero\n      tag_1\n      jumpi\n      0x00\n      dup1\n      revert\n    tag_1:\n      pop\n      jumpi(tag_2, lt(calldatasize, 0x04))\n      shr(0xe0, calldataload(0x00))\n      dup1\n      0x219be792\n      eq\n      tag_3\n      jumpi\n    tag_2:\n      0x00\n      dup1\n      revert\n        /* \"Labs (August)/nested_for.sol\":90:347  function func_name() public pure returns (uint){... */\n    tag_3:\n      tag_4\n      tag_5\n      jump\t// in\n    tag_4:\n      mload(0x40)\n      tag_6\n      swap2\n      swap1\n      tag_7\n      jump\t// in\n    tag_6:\n      mload(0x40)\n      dup1\n      swap2\n      sub\n      swap1\n      return\n    tag_5:\n        /* \"Labs (August)/nested_for.sol\":132:136  uint */\n      0x00\n        /* \"Labs (August)/nested_for.sol\":148:155  uint p1 */\n      dup1\n        /* \"Labs (August)/nested_for.sol\":158:164  123456 */\n      0x01e240\n        /* \"Labs (August)/nested_for.sol\":148:164  uint p1 = 123456 */\n      swap1\n      pop\n        /* \"Labs (August)/nested_for.sol\":175:182  uint p2 */\n      0x00\n        /* \"Labs (August)/nested_for.sol\":185:191  456789 */\n      0x06f855\n        /* \"Labs (August)/nested_for.sol\":175:191  uint p2 = 456789 */\n      swap1\n      pop\n        /* \"Labs (August)/nested_for.sol\":202:209  uint p3 */\n      0x00\n        /* \"Labs (August)/nested_for.sol\":212:218  876543 */\n      0x0d5fff\n        /* \"Labs (August)/nested_for.sol\":202:218  uint p3 = 876543 */\n      swap1\n      pop\n        /* \"Labs (August)/nested_for.sol\":229:236  uint p4 */\n      0x00\n        /* \"Labs (August)/nested_for.sol\":239:245  876542 */\n      0x0d5ffe\n        /* \"Labs (August)/nested_for.sol\":229:245  uint p4 = 876542 */\n      swap1\n      pop\n        /* \"Labs (August)/nested_for.sol\":137:347  {... */\n      pop\n      pop\n      pop\n      pop\n        /* \"Labs (August)/nested_for.sol\":90:347  function func_name() public pure returns (uint){... */\n      swap1\n      jump\t// out\n        /* \"#utility.yul\":7:84   */\n    tag_9:\n        /* \"#utility.yul\":44:51   */\n      0x00\n        /* \"#utility.yul\":73:78   */\n      dup2\n        /* \"#utility.yul\":62:78   */\n      swap1\n      pop\n        /* \"#utility.yul\":7:84   */\n      swap2\n      swap1\n      pop\n      jump\t// out\n        /* \"#utility.yul\":90:208   */\n    tag_10:\n        /* \"#utility.yul\":177:201   */\n      tag_14\n        /* \"#utility.yul\":195:200   */\n      dup2\n        /* \"#utility.yul\":177:201   */\n      tag_9\n      jump\t// in\n    tag_14:\n        /* \"#utility.yul\":172:175   */\n      dup3\n        /* \"#utility.yul\":165:202   */\n      mstore\n        /* \"#utility.yul\":90:208   */\n      pop\n      pop\n      jump\t// out\n        /* \"#utility.yul\":214:436   */\n    tag_7:\n        /* \"#utility.yul\":307:311   */\n      0x00\n        /* \"#utility.yul\":345:347   */\n      0x20\n        /* \"#utility.yul\":334:343   */\n      dup3\n        /* \"#utility.yul\":330:348   */\n      add\n        /* \"#utility.yul\":322:348   */\n      swap1\n      pop\n        /* \"#utility.yul\":358:429   */\n      tag_16\n        /* \"#utility.yul\":426:427   */\n      0x00\n        /* \"#utility.yul\":415:424   */\n      dup4\n        /* \"#utility.yul\":411:428   */\n      add\n        /* \"#utility.yul\":402:408   */\n      dup5\n        /* \"#utility.yul\":358:429   */\n      tag_10\n      jump\t// in\n    tag_16:\n        /* \"#utility.yul\":214:436   */\n      swap3\n      swap2\n      pop\n      pop\n      jump\t// out\n\n    auxdata: 0xa264697066735822122033880db25ceea253b0b54ebac8d193473f735c44168b2e75a5f9d72a0ffb40c364736f6c63430008120033\n}\n",
				"bytecode": {
					"linkReferences": {},
					"object": "608060405234801561001057600080fd5b5060d58061001f6000396000f3fe6080604052348015600f57600080fd5b506004361060285760003560e01c8063219be79214602d575b600080fd5b60336047565b604051603e91906086565b60405180910390f35b6000806201e240905060006206f85590506000620d5fff90506000620d5ffe90505050505090565b6000819050919050565b608081606f565b82525050565b6000602082019050609960008301846079565b9291505056fea264697066735822122033880db25ceea253b0b54ebac8d193473f735c44168b2e75a5f9d72a0ffb40c364736f6c63430008120033",
					"opcodes": "PUSH1 0x80 PUSH1 0x40 MSTORE CALLVALUE DUP1 ISZERO PUSH2 0x10 JUMPI PUSH1 0x0 DUP1 REVERT JUMPDEST POP PUSH1 0xD5 DUP1 PUSH2 0x1F PUSH1 0x0 CODECOPY PUSH1 0x0 RETURN INVALID PUSH1 0x80 PUSH1 0x40 MSTORE CALLVALUE DUP1 ISZERO PUSH1 0xF JUMPI PUSH1 0x0 DUP1 REVERT JUMPDEST POP PUSH1 0x4 CALLDATASIZE LT PUSH1 0x28 JUMPI PUSH1 0x0 CALLDATALOAD PUSH1 0xE0 SHR DUP1 PUSH4 0x219BE792 EQ PUSH1 0x2D JUMPI JUMPDEST PUSH1 0x0 DUP1 REVERT JUMPDEST PUSH1 0x33 PUSH1 0x47 JUMP JUMPDEST PUSH1 0x40 MLOAD PUSH1 0x3E SWAP2 SWAP1 PUSH1 0x86 JUMP JUMPDEST PUSH1 0x40 MLOAD DUP1 SWAP2 SUB SWAP1 RETURN JUMPDEST PUSH1 0x0 DUP1 PUSH3 0x1E240 SWAP1 POP PUSH1 0x0 PUSH3 0x6F855 SWAP1 POP PUSH1 0x0 PUSH3 0xD5FFF SWAP1 POP PUSH1 0x0 PUSH3 0xD5FFE SWAP1 POP POP POP POP POP SWAP1 JUMP JUMPDEST PUSH1 0x0 DUP2 SWAP1 POP SWAP2 SWAP1 POP JUMP JUMPDEST PUSH1 0x80 DUP2 PUSH1 0x6F JUMP JUMPDEST DUP3 MSTORE POP POP JUMP JUMPDEST PUSH1 0x0 PUSH1 0x20 DUP3 ADD SWAP1 POP PUSH1 0x99 PUSH1 0x0 DUP4 ADD DUP5 PUSH1 0x79 JUMP JUMPDEST SWAP3 SWAP2 POP POP JUMP INVALID LOG2 PUSH5 0x6970667358 0x22 SLT KECCAK256 CALLER DUP9 0xD 0xB2 0x5C 0xEE LOG2 MSTORE8 0xB0 0xB5 0x4E 0xBA 0xC8 0xD1 SWAP4 SELFBALANCE EXTCODEHASH PUSH20 0x5C44168B2E75A5F9D72A0FFB40C364736F6C6343 STOP ADDMOD SLT STOP CALLER "
				},
				"gasEstimates": {
					"creation": {
						"codeDepositCost": "42600",
						"executionCost": "93",
						"totalCost": "42693"
					},
					"external": {
						"func_name()": "359"
					}
				},
				"methodIdentifiers": {
					"func_name()": "219be792"
				}
			},
			"storageLayout": {
				"storage": [],
				"types": null
			},
			"userdoc": {
				"kind": "user",
				"methods": {},
				"version": 1
			}
		}
	}
}