{
	"Labs (August)/ticket_booking_system.sol": {
		"TicketBookingSystem": {
			"abi": [
				{
					"inputs": [
						{
							"internalType": "string",
							"name": "_passengers",
							"type": "string"
						},
						{
							"internalType": "enum TicketBookingSystem.TicketType",
							"name": "_ticketype",
							"type": "uint8"
						},
						{
							"internalType": "enum TicketBookingSystem.Days",
							"name": "_days",
							"type": "uint8"
						}
					],
					"name": "bookTicket",
					"outputs": [],
					"stateMutability": "nonpayable",
					"type": "function"
				},
				{
					"inputs": [
						{
							"internalType": "uint256",
							"name": "_index",
							"type": "uint256"
						}
					],
					"name": "getTicketType",
					"outputs": [
						{
							"internalType": "enum TicketBookingSystem.TicketType",
							"name": "",
							"type": "uint8"
						}
					],
					"stateMutability": "view",
					"type": "function"
				},
				{
					"inputs": [
						{
							"internalType": "uint256",
							"name": "_index",
							"type": "uint256"
						}
					],
					"name": "getTicketday",
					"outputs": [
						{
							"internalType": "enum TicketBookingSystem.Days",
							"name": "",
							"type": "uint8"
						}
					],
					"stateMutability": "view",
					"type": "function"
				},
				{
					"inputs": [
						{
							"internalType": "uint256",
							"name": "",
							"type": "uint256"
						}
					],
					"name": "ticket",
					"outputs": [
						{
							"internalType": "string",
							"name": "passenger",
							"type": "string"
						},
						{
							"internalType": "enum TicketBookingSystem.TicketType",
							"name": "ticketType",
							"type": "uint8"
						},
						{
							"internalType": "enum TicketBookingSystem.Days",
							"name": "day",
							"type": "uint8"
						},
						{
							"internalType": "bool",
							"name": "isbooked",
							"type": "bool"
						}
					],
					"stateMutability": "view",
					"type": "function"
				},
				{
					"inputs": [
						{
							"internalType": "uint256",
							"name": "_index",
							"type": "uint256"
						}
					],
					"name": "togglestatus",
					"outputs": [],
					"stateMutability": "nonpayable",
					"type": "function"
				}
			],
			"devdoc": {
				"kind": "dev",
				"methods": {},
				"version": 1
			},
			"evm": {
				"assembly": "    /* \"Labs (August)/ticket_booking_system.sol\":61:1840  contract TicketBookingSystem{... */\n  mstore(0x40, 0x80)\n  callvalue\n  dup1\n  iszero\n  tag_1\n  jumpi\n  0x00\n  dup1\n  revert\ntag_1:\n  pop\n  dataSize(sub_0)\n  dup1\n  dataOffset(sub_0)\n  0x00\n  codecopy\n  0x00\n  return\nstop\n\nsub_0: assembly {\n        /* \"Labs (August)/ticket_booking_system.sol\":61:1840  contract TicketBookingSystem{... */\n      mstore(0x40, 0x80)\n      callvalue\n      dup1\n      iszero\n      tag_1\n      jumpi\n      0x00\n      dup1\n      revert\n    tag_1:\n      pop\n      jumpi(tag_2, lt(calldatasize, 0x04))\n      shr(0xe0, calldataload(0x00))\n      dup1\n      0x163e0f46\n      eq\n      tag_3\n      jumpi\n      dup1\n      0x826c38c7\n      eq\n      tag_4\n      jumpi\n      dup1\n      0xb1d36506\n      eq\n      tag_5\n      jumpi\n      dup1\n      0xc129ff32\n      eq\n      tag_6\n      jumpi\n      dup1\n      0xffa8f551\n      eq\n      tag_7\n      jumpi\n    tag_2:\n      0x00\n      dup1\n      revert\n        /* \"Labs (August)/ticket_booking_system.sol\":941:1063  function getTicketType(uint256 _index) public view returns (TicketType){... */\n    tag_3:\n      tag_8\n      0x04\n      dup1\n      calldatasize\n      sub\n      dup2\n      add\n      swap1\n      tag_9\n      swap2\n      swap1\n      tag_10\n      jump\t// in\n    tag_9:\n      tag_11\n      jump\t// in\n    tag_8:\n      mload(0x40)\n      tag_12\n      swap2\n      swap1\n      tag_13\n      jump\t// in\n    tag_12:\n      mload(0x40)\n      dup1\n      swap2\n      sub\n      swap1\n      return\n        /* \"Labs (August)/ticket_booking_system.sol\":1602:1717  function togglestatus(uint256 _index) public{... */\n    tag_4:\n      tag_14\n      0x04\n      dup1\n      calldatasize\n      sub\n      dup2\n      add\n      swap1\n      tag_15\n      swap2\n      swap1\n      tag_10\n      jump\t// in\n    tag_15:\n      tag_16\n      jump\t// in\n    tag_14:\n      stop\n        /* \"Labs (August)/ticket_booking_system.sol\":501:679  function bookTicket(string memory _passengers, TicketType _ticketype, Days _days)... */\n    tag_5:\n      tag_17\n      0x04\n      dup1\n      calldatasize\n      sub\n      dup2\n      add\n      swap1\n      tag_18\n      swap2\n      swap1\n      tag_19\n      jump\t// in\n    tag_18:\n      tag_20\n      jump\t// in\n    tag_17:\n      stop\n        /* \"Labs (August)/ticket_booking_system.sol\":470:492  Ticket[] public ticket */\n    tag_6:\n      tag_21\n      0x04\n      dup1\n      calldatasize\n      sub\n      dup2\n      add\n      swap1\n      tag_22\n      swap2\n      swap1\n      tag_10\n      jump\t// in\n    tag_22:\n      tag_23\n      jump\t// in\n    tag_21:\n      mload(0x40)\n      tag_24\n      swap5\n      swap4\n      swap3\n      swap2\n      swap1\n      tag_25\n      jump\t// in\n    tag_24:\n      mload(0x40)\n      dup1\n      swap2\n      sub\n      swap1\n      return\n        /* \"Labs (August)/ticket_booking_system.sol\":1116:1224  function getTicketday(uint256 _index) public view returns (Days){... */\n    tag_7:\n      tag_26\n      0x04\n      dup1\n      calldatasize\n      sub\n      dup2\n      add\n      swap1\n      tag_27\n      swap2\n      swap1\n      tag_10\n      jump\t// in\n    tag_27:\n      tag_28\n      jump\t// in\n    tag_26:\n      mload(0x40)\n      tag_29\n      swap2\n      swap1\n      tag_30\n      jump\t// in\n    tag_29:\n      mload(0x40)\n      dup1\n      swap2\n      sub\n      swap1\n      return\n        /* \"Labs (August)/ticket_booking_system.sol\":941:1063  function getTicketType(uint256 _index) public view returns (TicketType){... */\n    tag_11:\n        /* \"Labs (August)/ticket_booking_system.sol\":1001:1011  TicketType */\n      0x00\n        /* \"Labs (August)/ticket_booking_system.sol\":1030:1036  ticket */\n      dup1\n        /* \"Labs (August)/ticket_booking_system.sol\":1037:1043  _index */\n      dup3\n        /* \"Labs (August)/ticket_booking_system.sol\":1030:1044  ticket[_index] */\n      dup2\n      sload\n      dup2\n      lt\n      tag_32\n      jumpi\n      tag_33\n      tag_34\n      jump\t// in\n    tag_33:\n    tag_32:\n      swap1\n      0x00\n      mstore\n      keccak256(0x00, 0x20)\n      swap1\n      0x02\n      mul\n      add\n        /* \"Labs (August)/ticket_booking_system.sol\":1030:1055  ticket[_index].ticketType */\n      0x01\n      add\n      0x00\n      swap1\n      sload\n      swap1\n      0x0100\n      exp\n      swap1\n      div\n      0xff\n      and\n        /* \"Labs (August)/ticket_booking_system.sol\":1023:1055  return ticket[_index].ticketType */\n      swap1\n      pop\n        /* \"Labs (August)/ticket_booking_system.sol\":941:1063  function getTicketType(uint256 _index) public view returns (TicketType){... */\n      swap2\n      swap1\n      pop\n      jump\t// out\n        /* \"Labs (August)/ticket_booking_system.sol\":1602:1717  function togglestatus(uint256 _index) public{... */\n    tag_16:\n        /* \"Labs (August)/ticket_booking_system.sol\":1682:1688  ticket */\n      0x00\n        /* \"Labs (August)/ticket_booking_system.sol\":1689:1695  _index */\n      dup2\n        /* \"Labs (August)/ticket_booking_system.sol\":1682:1696  ticket[_index] */\n      dup2\n      sload\n      dup2\n      lt\n      tag_37\n      jumpi\n      tag_38\n      tag_34\n      jump\t// in\n    tag_38:\n    tag_37:\n      swap1\n      0x00\n      mstore\n      keccak256(0x00, 0x20)\n      swap1\n      0x02\n      mul\n      add\n        /* \"Labs (August)/ticket_booking_system.sol\":1682:1705  ticket[_index].isbooked */\n      0x01\n      add\n      0x02\n      swap1\n      sload\n      swap1\n      0x0100\n      exp\n      swap1\n      div\n      0xff\n      and\n        /* \"Labs (August)/ticket_booking_system.sol\":1681:1705  !ticket[_index].isbooked */\n      iszero\n        /* \"Labs (August)/ticket_booking_system.sol\":1657:1663  ticket */\n      0x00\n        /* \"Labs (August)/ticket_booking_system.sol\":1664:1670  _index */\n      dup3\n        /* \"Labs (August)/ticket_booking_system.sol\":1657:1671  ticket[_index] */\n      dup2\n      sload\n      dup2\n      lt\n      tag_40\n      jumpi\n      tag_41\n      tag_34\n      jump\t// in\n    tag_41:\n    tag_40:\n      swap1\n      0x00\n      mstore\n      keccak256(0x00, 0x20)\n      swap1\n      0x02\n      mul\n      add\n        /* \"Labs (August)/ticket_booking_system.sol\":1657:1680  ticket[_index].isbooked */\n      0x01\n      add\n      0x02\n        /* \"Labs (August)/ticket_booking_system.sol\":1657:1705  ticket[_index].isbooked=!ticket[_index].isbooked */\n      0x0100\n      exp\n      dup2\n      sload\n      dup2\n      0xff\n      mul\n      not\n      and\n      swap1\n      dup4\n      iszero\n      iszero\n      mul\n      or\n      swap1\n      sstore\n      pop\n        /* \"Labs (August)/ticket_booking_system.sol\":1602:1717  function togglestatus(uint256 _index) public{... */\n      pop\n      jump\t// out\n        /* \"Labs (August)/ticket_booking_system.sol\":501:679  function bookTicket(string memory _passengers, TicketType _ticketype, Days _days)... */\n    tag_20:\n        /* \"Labs (August)/ticket_booking_system.sol\":611:617  ticket */\n      0x00\n        /* \"Labs (August)/ticket_booking_system.sol\":623:667  Ticket(_passengers, _ticketype, _days, true) */\n      mload(0x40)\n      dup1\n      0x80\n      add\n      0x40\n      mstore\n      dup1\n        /* \"Labs (August)/ticket_booking_system.sol\":630:641  _passengers */\n      dup6\n        /* \"Labs (August)/ticket_booking_system.sol\":623:667  Ticket(_passengers, _ticketype, _days, true) */\n      dup2\n      mstore\n      0x20\n      add\n        /* \"Labs (August)/ticket_booking_system.sol\":643:653  _ticketype */\n      dup5\n        /* \"Labs (August)/ticket_booking_system.sol\":623:667  Ticket(_passengers, _ticketype, _days, true) */\n      0x02\n      dup2\n      gt\n      iszero\n      tag_44\n      jumpi\n      tag_45\n      tag_46\n      jump\t// in\n    tag_45:\n    tag_44:\n      dup2\n      mstore\n      0x20\n      add\n        /* \"Labs (August)/ticket_booking_system.sol\":655:660  _days */\n      dup4\n        /* \"Labs (August)/ticket_booking_system.sol\":623:667  Ticket(_passengers, _ticketype, _days, true) */\n      0x06\n      dup2\n      gt\n      iszero\n      tag_47\n      jumpi\n      tag_48\n      tag_46\n      jump\t// in\n    tag_48:\n    tag_47:\n      dup2\n      mstore\n      0x20\n      add\n        /* \"Labs (August)/ticket_booking_system.sol\":662:666  true */\n      0x01\n        /* \"Labs (August)/ticket_booking_system.sol\":623:667  Ticket(_passengers, _ticketype, _days, true) */\n      iszero\n      iszero\n      dup2\n      mstore\n      pop\n        /* \"Labs (August)/ticket_booking_system.sol\":611:668  ticket.push(Ticket(_passengers, _ticketype, _days, true)) */\n      swap1\n      dup1\n      0x01\n      dup2\n      sload\n      add\n      dup1\n      dup3\n      sstore\n      dup1\n      swap2\n      pop\n      pop\n      0x01\n      swap1\n      sub\n      swap1\n      0x00\n      mstore\n      keccak256(0x00, 0x20)\n      swap1\n      0x02\n      mul\n      add\n      0x00\n      swap1\n      swap2\n      swap1\n      swap2\n      swap1\n      swap2\n      pop\n      0x00\n      dup3\n      add\n      mload\n      dup2\n      0x00\n      add\n      swap1\n      dup2\n      tag_50\n      swap2\n      swap1\n      tag_51\n      jump\t// in\n    tag_50:\n      pop\n      0x20\n      dup3\n      add\n      mload\n      dup2\n      0x01\n      add\n      exp(0x0100, 0x00)\n      dup2\n      sload\n      dup2\n      0xff\n      mul\n      not\n      and\n      swap1\n      dup4\n      0x02\n      dup2\n      gt\n      iszero\n      tag_52\n      jumpi\n      tag_53\n      tag_46\n      jump\t// in\n    tag_53:\n    tag_52:\n      mul\n      or\n      swap1\n      sstore\n      pop\n      0x40\n      dup3\n      add\n      mload\n      dup2\n      0x01\n      add\n      exp(0x0100, 0x01)\n      dup2\n      sload\n      dup2\n      0xff\n      mul\n      not\n      and\n      swap1\n      dup4\n      0x06\n      dup2\n      gt\n      iszero\n      tag_54\n      jumpi\n      tag_55\n      tag_46\n      jump\t// in\n    tag_55:\n    tag_54:\n      mul\n      or\n      swap1\n      sstore\n      pop\n      0x60\n      dup3\n      add\n      mload\n      dup2\n      0x01\n      add\n      exp(0x0100, 0x02)\n      dup2\n      sload\n      dup2\n      0xff\n      mul\n      not\n      and\n      swap1\n      dup4\n      iszero\n      iszero\n      mul\n      or\n      swap1\n      sstore\n      pop\n      pop\n      pop\n        /* \"Labs (August)/ticket_booking_system.sol\":501:679  function bookTicket(string memory _passengers, TicketType _ticketype, Days _days)... */\n      pop\n      pop\n      pop\n      jump\t// out\n        /* \"Labs (August)/ticket_booking_system.sol\":470:492  Ticket[] public ticket */\n    tag_23:\n      0x00\n      dup2\n      dup2\n      sload\n      dup2\n      lt\n      tag_56\n      jumpi\n      0x00\n      dup1\n      revert\n    tag_56:\n      swap1\n      0x00\n      mstore\n      keccak256(0x00, 0x20)\n      swap1\n      0x02\n      mul\n      add\n      0x00\n      swap2\n      pop\n      swap1\n      pop\n      dup1\n      0x00\n      add\n      dup1\n      sload\n      tag_58\n      swap1\n      tag_59\n      jump\t// in\n    tag_58:\n      dup1\n      0x1f\n      add\n      0x20\n      dup1\n      swap2\n      div\n      mul\n      0x20\n      add\n      mload(0x40)\n      swap1\n      dup2\n      add\n      0x40\n      mstore\n      dup1\n      swap3\n      swap2\n      swap1\n      dup2\n      dup2\n      mstore\n      0x20\n      add\n      dup3\n      dup1\n      sload\n      tag_60\n      swap1\n      tag_59\n      jump\t// in\n    tag_60:\n      dup1\n      iszero\n      tag_61\n      jumpi\n      dup1\n      0x1f\n      lt\n      tag_62\n      jumpi\n      0x0100\n      dup1\n      dup4\n      sload\n      div\n      mul\n      dup4\n      mstore\n      swap2\n      0x20\n      add\n      swap2\n      jump(tag_61)\n    tag_62:\n      dup3\n      add\n      swap2\n      swap1\n      0x00\n      mstore\n      keccak256(0x00, 0x20)\n      swap1\n    tag_63:\n      dup2\n      sload\n      dup2\n      mstore\n      swap1\n      0x01\n      add\n      swap1\n      0x20\n      add\n      dup1\n      dup4\n      gt\n      tag_63\n      jumpi\n      dup3\n      swap1\n      sub\n      0x1f\n      and\n      dup3\n      add\n      swap2\n    tag_61:\n      pop\n      pop\n      pop\n      pop\n      pop\n      swap1\n      dup1\n      0x01\n      add\n      0x00\n      swap1\n      sload\n      swap1\n      0x0100\n      exp\n      swap1\n      div\n      0xff\n      and\n      swap1\n      dup1\n      0x01\n      add\n      0x01\n      swap1\n      sload\n      swap1\n      0x0100\n      exp\n      swap1\n      div\n      0xff\n      and\n      swap1\n      dup1\n      0x01\n      add\n      0x02\n      swap1\n      sload\n      swap1\n      0x0100\n      exp\n      swap1\n      div\n      0xff\n      and\n      swap1\n      pop\n      dup5\n      jump\t// out\n        /* \"Labs (August)/ticket_booking_system.sol\":1116:1224  function getTicketday(uint256 _index) public view returns (Days){... */\n    tag_28:\n        /* \"Labs (August)/ticket_booking_system.sol\":1175:1179  Days */\n      0x00\n        /* \"Labs (August)/ticket_booking_system.sol\":1198:1204  ticket */\n      dup1\n        /* \"Labs (August)/ticket_booking_system.sol\":1205:1211  _index */\n      dup3\n        /* \"Labs (August)/ticket_booking_system.sol\":1198:1212  ticket[_index] */\n      dup2\n      sload\n      dup2\n      lt\n      tag_65\n      jumpi\n      tag_66\n      tag_34\n      jump\t// in\n    tag_66:\n    tag_65:\n      swap1\n      0x00\n      mstore\n      keccak256(0x00, 0x20)\n      swap1\n      0x02\n      mul\n      add\n        /* \"Labs (August)/ticket_booking_system.sol\":1198:1216  ticket[_index].day */\n      0x01\n      add\n      0x01\n      swap1\n      sload\n      swap1\n      0x0100\n      exp\n      swap1\n      div\n      0xff\n      and\n        /* \"Labs (August)/ticket_booking_system.sol\":1191:1216  return ticket[_index].day */\n      swap1\n      pop\n        /* \"Labs (August)/ticket_booking_system.sol\":1116:1224  function getTicketday(uint256 _index) public view returns (Days){... */\n      swap2\n      swap1\n      pop\n      jump\t// out\n        /* \"#utility.yul\":7:82   */\n    tag_68:\n        /* \"#utility.yul\":40:46   */\n      0x00\n        /* \"#utility.yul\":73:75   */\n      0x40\n        /* \"#utility.yul\":67:76   */\n      mload\n        /* \"#utility.yul\":57:76   */\n      swap1\n      pop\n        /* \"#utility.yul\":7:82   */\n      swap1\n      jump\t// out\n        /* \"#utility.yul\":88:205   */\n    tag_69:\n        /* \"#utility.yul\":197:198   */\n      0x00\n        /* \"#utility.yul\":194:195   */\n      dup1\n        /* \"#utility.yul\":187:199   */\n      revert\n        /* \"#utility.yul\":211:328   */\n    tag_70:\n        /* \"#utility.yul\":320:321   */\n      0x00\n        /* \"#utility.yul\":317:318   */\n      dup1\n        /* \"#utility.yul\":310:322   */\n      revert\n        /* \"#utility.yul\":334:411   */\n    tag_71:\n        /* \"#utility.yul\":371:378   */\n      0x00\n        /* \"#utility.yul\":400:405   */\n      dup2\n        /* \"#utility.yul\":389:405   */\n      swap1\n      pop\n        /* \"#utility.yul\":334:411   */\n      swap2\n      swap1\n      pop\n      jump\t// out\n        /* \"#utility.yul\":417:539   */\n    tag_72:\n        /* \"#utility.yul\":490:514   */\n      tag_124\n        /* \"#utility.yul\":508:513   */\n      dup2\n        /* \"#utility.yul\":490:514   */\n      tag_71\n      jump\t// in\n    tag_124:\n        /* \"#utility.yul\":483:488   */\n      dup2\n        /* \"#utility.yul\":480:515   */\n      eq\n        /* \"#utility.yul\":470:533   */\n      tag_125\n      jumpi\n        /* \"#utility.yul\":529:530   */\n      0x00\n        /* \"#utility.yul\":526:527   */\n      dup1\n        /* \"#utility.yul\":519:531   */\n      revert\n        /* \"#utility.yul\":470:533   */\n    tag_125:\n        /* \"#utility.yul\":417:539   */\n      pop\n      jump\t// out\n        /* \"#utility.yul\":545:684   */\n    tag_73:\n        /* \"#utility.yul\":591:596   */\n      0x00\n        /* \"#utility.yul\":629:635   */\n      dup2\n        /* \"#utility.yul\":616:636   */\n      calldataload\n        /* \"#utility.yul\":607:636   */\n      swap1\n      pop\n        /* \"#utility.yul\":645:678   */\n      tag_127\n        /* \"#utility.yul\":672:677   */\n      dup2\n        /* \"#utility.yul\":645:678   */\n      tag_72\n      jump\t// in\n    tag_127:\n        /* \"#utility.yul\":545:684   */\n      swap3\n      swap2\n      pop\n      pop\n      jump\t// out\n        /* \"#utility.yul\":690:1019   */\n    tag_10:\n        /* \"#utility.yul\":749:755   */\n      0x00\n        /* \"#utility.yul\":798:800   */\n      0x20\n        /* \"#utility.yul\":786:795   */\n      dup3\n        /* \"#utility.yul\":777:784   */\n      dup5\n        /* \"#utility.yul\":773:796   */\n      sub\n        /* \"#utility.yul\":769:801   */\n      slt\n        /* \"#utility.yul\":766:885   */\n      iszero\n      tag_129\n      jumpi\n        /* \"#utility.yul\":804:883   */\n      tag_130\n      tag_69\n      jump\t// in\n    tag_130:\n        /* \"#utility.yul\":766:885   */\n    tag_129:\n        /* \"#utility.yul\":924:925   */\n      0x00\n        /* \"#utility.yul\":949:1002   */\n      tag_131\n        /* \"#utility.yul\":994:1001   */\n      dup5\n        /* \"#utility.yul\":985:991   */\n      dup3\n        /* \"#utility.yul\":974:983   */\n      dup6\n        /* \"#utility.yul\":970:992   */\n      add\n        /* \"#utility.yul\":949:1002   */\n      tag_73\n      jump\t// in\n    tag_131:\n        /* \"#utility.yul\":939:1002   */\n      swap2\n      pop\n        /* \"#utility.yul\":895:1012   */\n      pop\n        /* \"#utility.yul\":690:1019   */\n      swap3\n      swap2\n      pop\n      pop\n      jump\t// out\n        /* \"#utility.yul\":1025:1205   */\n    tag_46:\n        /* \"#utility.yul\":1073:1150   */\n      0x4e487b7100000000000000000000000000000000000000000000000000000000\n        /* \"#utility.yul\":1070:1071   */\n      0x00\n        /* \"#utility.yul\":1063:1151   */\n      mstore\n        /* \"#utility.yul\":1170:1174   */\n      0x21\n        /* \"#utility.yul\":1167:1168   */\n      0x04\n        /* \"#utility.yul\":1160:1175   */\n      mstore\n        /* \"#utility.yul\":1194:1198   */\n      0x24\n        /* \"#utility.yul\":1191:1192   */\n      0x00\n        /* \"#utility.yul\":1184:1199   */\n      revert\n        /* \"#utility.yul\":1211:1328   */\n    tag_74:\n        /* \"#utility.yul\":1296:1297   */\n      0x03\n        /* \"#utility.yul\":1289:1294   */\n      dup2\n        /* \"#utility.yul\":1286:1298   */\n      lt\n        /* \"#utility.yul\":1276:1322   */\n      tag_134\n      jumpi\n        /* \"#utility.yul\":1302:1320   */\n      tag_135\n      tag_46\n      jump\t// in\n    tag_135:\n        /* \"#utility.yul\":1276:1322   */\n    tag_134:\n        /* \"#utility.yul\":1211:1328   */\n      pop\n      jump\t// out\n        /* \"#utility.yul\":1334:1469   */\n    tag_75:\n        /* \"#utility.yul\":1383:1390   */\n      0x00\n        /* \"#utility.yul\":1412:1417   */\n      dup2\n        /* \"#utility.yul\":1401:1417   */\n      swap1\n      pop\n        /* \"#utility.yul\":1418:1463   */\n      tag_137\n        /* \"#utility.yul\":1457:1462   */\n      dup3\n        /* \"#utility.yul\":1418:1463   */\n      tag_74\n      jump\t// in\n    tag_137:\n        /* \"#utility.yul\":1334:1469   */\n      swap2\n      swap1\n      pop\n      jump\t// out\n        /* \"#utility.yul\":1475:1610   */\n    tag_76:\n        /* \"#utility.yul\":1535:1544   */\n      0x00\n        /* \"#utility.yul\":1568:1604   */\n      tag_139\n        /* \"#utility.yul\":1598:1603   */\n      dup3\n        /* \"#utility.yul\":1568:1604   */\n      tag_75\n      jump\t// in\n    tag_139:\n        /* \"#utility.yul\":1555:1604   */\n      swap1\n      pop\n        /* \"#utility.yul\":1475:1610   */\n      swap2\n      swap1\n      pop\n      jump\t// out\n        /* \"#utility.yul\":1616:1767   */\n    tag_77:\n        /* \"#utility.yul\":1713:1760   */\n      tag_141\n        /* \"#utility.yul\":1754:1759   */\n      dup2\n        /* \"#utility.yul\":1713:1760   */\n      tag_76\n      jump\t// in\n    tag_141:\n        /* \"#utility.yul\":1708:1711   */\n      dup3\n        /* \"#utility.yul\":1701:1761   */\n      mstore\n        /* \"#utility.yul\":1616:1767   */\n      pop\n      pop\n      jump\t// out\n        /* \"#utility.yul\":1773:2015   */\n    tag_13:\n        /* \"#utility.yul\":1876:1880   */\n      0x00\n        /* \"#utility.yul\":1914:1916   */\n      0x20\n        /* \"#utility.yul\":1903:1912   */\n      dup3\n        /* \"#utility.yul\":1899:1917   */\n      add\n        /* \"#utility.yul\":1891:1917   */\n      swap1\n      pop\n        /* \"#utility.yul\":1927:2008   */\n      tag_143\n        /* \"#utility.yul\":2005:2006   */\n      0x00\n        /* \"#utility.yul\":1994:2003   */\n      dup4\n        /* \"#utility.yul\":1990:2007   */\n      add\n        /* \"#utility.yul\":1981:1987   */\n      dup5\n        /* \"#utility.yul\":1927:2008   */\n      tag_77\n      jump\t// in\n    tag_143:\n        /* \"#utility.yul\":1773:2015   */\n      swap3\n      swap2\n      pop\n      pop\n      jump\t// out\n        /* \"#utility.yul\":2021:2138   */\n    tag_78:\n        /* \"#utility.yul\":2130:2131   */\n      0x00\n        /* \"#utility.yul\":2127:2128   */\n      dup1\n        /* \"#utility.yul\":2120:2132   */\n      revert\n        /* \"#utility.yul\":2144:2261   */\n    tag_79:\n        /* \"#utility.yul\":2253:2254   */\n      0x00\n        /* \"#utility.yul\":2250:2251   */\n      dup1\n        /* \"#utility.yul\":2243:2255   */\n      revert\n        /* \"#utility.yul\":2267:2369   */\n    tag_80:\n        /* \"#utility.yul\":2308:2314   */\n      0x00\n        /* \"#utility.yul\":2359:2361   */\n      0x1f\n        /* \"#utility.yul\":2355:2362   */\n      not\n        /* \"#utility.yul\":2350:2352   */\n      0x1f\n        /* \"#utility.yul\":2343:2348   */\n      dup4\n        /* \"#utility.yul\":2339:2353   */\n      add\n        /* \"#utility.yul\":2335:2363   */\n      and\n        /* \"#utility.yul\":2325:2363   */\n      swap1\n      pop\n        /* \"#utility.yul\":2267:2369   */\n      swap2\n      swap1\n      pop\n      jump\t// out\n        /* \"#utility.yul\":2375:2555   */\n    tag_81:\n        /* \"#utility.yul\":2423:2500   */\n      0x4e487b7100000000000000000000000000000000000000000000000000000000\n        /* \"#utility.yul\":2420:2421   */\n      0x00\n        /* \"#utility.yul\":2413:2501   */\n      mstore\n        /* \"#utility.yul\":2520:2524   */\n      0x41\n        /* \"#utility.yul\":2517:2518   */\n      0x04\n        /* \"#utility.yul\":2510:2525   */\n      mstore\n        /* \"#utility.yul\":2544:2548   */\n      0x24\n        /* \"#utility.yul\":2541:2542   */\n      0x00\n        /* \"#utility.yul\":2534:2549   */\n      revert\n        /* \"#utility.yul\":2561:2842   */\n    tag_82:\n        /* \"#utility.yul\":2644:2671   */\n      tag_149\n        /* \"#utility.yul\":2666:2670   */\n      dup3\n        /* \"#utility.yul\":2644:2671   */\n      tag_80\n      jump\t// in\n    tag_149:\n        /* \"#utility.yul\":2636:2642   */\n      dup2\n        /* \"#utility.yul\":2632:2672   */\n      add\n        /* \"#utility.yul\":2774:2780   */\n      dup2\n        /* \"#utility.yul\":2762:2772   */\n      dup2\n        /* \"#utility.yul\":2759:2781   */\n      lt\n        /* \"#utility.yul\":2738:2756   */\n      0xffffffffffffffff\n        /* \"#utility.yul\":2726:2736   */\n      dup3\n        /* \"#utility.yul\":2723:2757   */\n      gt\n        /* \"#utility.yul\":2720:2782   */\n      or\n        /* \"#utility.yul\":2717:2805   */\n      iszero\n      tag_150\n      jumpi\n        /* \"#utility.yul\":2785:2803   */\n      tag_151\n      tag_81\n      jump\t// in\n    tag_151:\n        /* \"#utility.yul\":2717:2805   */\n    tag_150:\n        /* \"#utility.yul\":2825:2835   */\n      dup1\n        /* \"#utility.yul\":2821:2823   */\n      0x40\n        /* \"#utility.yul\":2814:2836   */\n      mstore\n        /* \"#utility.yul\":2604:2842   */\n      pop\n        /* \"#utility.yul\":2561:2842   */\n      pop\n      pop\n      jump\t// out\n        /* \"#utility.yul\":2848:2977   */\n    tag_83:\n        /* \"#utility.yul\":2882:2888   */\n      0x00\n        /* \"#utility.yul\":2909:2929   */\n      tag_153\n      tag_68\n      jump\t// in\n    tag_153:\n        /* \"#utility.yul\":2899:2929   */\n      swap1\n      pop\n        /* \"#utility.yul\":2938:2971   */\n      tag_154\n        /* \"#utility.yul\":2966:2970   */\n      dup3\n        /* \"#utility.yul\":2958:2964   */\n      dup3\n        /* \"#utility.yul\":2938:2971   */\n      tag_82\n      jump\t// in\n    tag_154:\n        /* \"#utility.yul\":2848:2977   */\n      swap2\n      swap1\n      pop\n      jump\t// out\n        /* \"#utility.yul\":2983:3291   */\n    tag_84:\n        /* \"#utility.yul\":3045:3049   */\n      0x00\n        /* \"#utility.yul\":3135:3153   */\n      0xffffffffffffffff\n        /* \"#utility.yul\":3127:3133   */\n      dup3\n        /* \"#utility.yul\":3124:3154   */\n      gt\n        /* \"#utility.yul\":3121:3177   */\n      iszero\n      tag_156\n      jumpi\n        /* \"#utility.yul\":3157:3175   */\n      tag_157\n      tag_81\n      jump\t// in\n    tag_157:\n        /* \"#utility.yul\":3121:3177   */\n    tag_156:\n        /* \"#utility.yul\":3195:3224   */\n      tag_158\n        /* \"#utility.yul\":3217:3223   */\n      dup3\n        /* \"#utility.yul\":3195:3224   */\n      tag_80\n      jump\t// in\n    tag_158:\n        /* \"#utility.yul\":3187:3224   */\n      swap1\n      pop\n        /* \"#utility.yul\":3279:3283   */\n      0x20\n        /* \"#utility.yul\":3273:3277   */\n      dup2\n        /* \"#utility.yul\":3269:3284   */\n      add\n        /* \"#utility.yul\":3261:3284   */\n      swap1\n      pop\n        /* \"#utility.yul\":2983:3291   */\n      swap2\n      swap1\n      pop\n      jump\t// out\n        /* \"#utility.yul\":3297:3443   */\n    tag_85:\n        /* \"#utility.yul\":3394:3400   */\n      dup3\n        /* \"#utility.yul\":3389:3392   */\n      dup2\n        /* \"#utility.yul\":3384:3387   */\n      dup4\n        /* \"#utility.yul\":3371:3401   */\n      calldatacopy\n        /* \"#utility.yul\":3435:3436   */\n      0x00\n        /* \"#utility.yul\":3426:3432   */\n      dup4\n        /* \"#utility.yul\":3421:3424   */\n      dup4\n        /* \"#utility.yul\":3417:3433   */\n      add\n        /* \"#utility.yul\":3410:3437   */\n      mstore\n        /* \"#utility.yul\":3297:3443   */\n      pop\n      pop\n      pop\n      jump\t// out\n        /* \"#utility.yul\":3449:3874   */\n    tag_86:\n        /* \"#utility.yul\":3527:3532   */\n      0x00\n        /* \"#utility.yul\":3552:3618   */\n      tag_161\n        /* \"#utility.yul\":3568:3617   */\n      tag_162\n        /* \"#utility.yul\":3610:3616   */\n      dup5\n        /* \"#utility.yul\":3568:3617   */\n      tag_84\n      jump\t// in\n    tag_162:\n        /* \"#utility.yul\":3552:3618   */\n      tag_83\n      jump\t// in\n    tag_161:\n        /* \"#utility.yul\":3543:3618   */\n      swap1\n      pop\n        /* \"#utility.yul\":3641:3647   */\n      dup3\n        /* \"#utility.yul\":3634:3639   */\n      dup2\n        /* \"#utility.yul\":3627:3648   */\n      mstore\n        /* \"#utility.yul\":3679:3683   */\n      0x20\n        /* \"#utility.yul\":3672:3677   */\n      dup2\n        /* \"#utility.yul\":3668:3684   */\n      add\n        /* \"#utility.yul\":3717:3720   */\n      dup5\n        /* \"#utility.yul\":3708:3714   */\n      dup5\n        /* \"#utility.yul\":3703:3706   */\n      dup5\n        /* \"#utility.yul\":3699:3715   */\n      add\n        /* \"#utility.yul\":3696:3721   */\n      gt\n        /* \"#utility.yul\":3693:3805   */\n      iszero\n      tag_163\n      jumpi\n        /* \"#utility.yul\":3724:3803   */\n      tag_164\n      tag_79\n      jump\t// in\n    tag_164:\n        /* \"#utility.yul\":3693:3805   */\n    tag_163:\n        /* \"#utility.yul\":3814:3868   */\n      tag_165\n        /* \"#utility.yul\":3861:3867   */\n      dup5\n        /* \"#utility.yul\":3856:3859   */\n      dup3\n        /* \"#utility.yul\":3851:3854   */\n      dup6\n        /* \"#utility.yul\":3814:3868   */\n      tag_85\n      jump\t// in\n    tag_165:\n        /* \"#utility.yul\":3533:3874   */\n      pop\n        /* \"#utility.yul\":3449:3874   */\n      swap4\n      swap3\n      pop\n      pop\n      pop\n      jump\t// out\n        /* \"#utility.yul\":3894:4234   */\n    tag_87:\n        /* \"#utility.yul\":3950:3955   */\n      0x00\n        /* \"#utility.yul\":3999:4002   */\n      dup3\n        /* \"#utility.yul\":3992:3996   */\n      0x1f\n        /* \"#utility.yul\":3984:3990   */\n      dup4\n        /* \"#utility.yul\":3980:3997   */\n      add\n        /* \"#utility.yul\":3976:4003   */\n      slt\n        /* \"#utility.yul\":3966:4088   */\n      tag_167\n      jumpi\n        /* \"#utility.yul\":4007:4086   */\n      tag_168\n      tag_78\n      jump\t// in\n    tag_168:\n        /* \"#utility.yul\":3966:4088   */\n    tag_167:\n        /* \"#utility.yul\":4124:4130   */\n      dup2\n        /* \"#utility.yul\":4111:4131   */\n      calldataload\n        /* \"#utility.yul\":4149:4228   */\n      tag_169\n        /* \"#utility.yul\":4224:4227   */\n      dup5\n        /* \"#utility.yul\":4216:4222   */\n      dup3\n        /* \"#utility.yul\":4209:4213   */\n      0x20\n        /* \"#utility.yul\":4201:4207   */\n      dup7\n        /* \"#utility.yul\":4197:4214   */\n      add\n        /* \"#utility.yul\":4149:4228   */\n      tag_86\n      jump\t// in\n    tag_169:\n        /* \"#utility.yul\":4140:4228   */\n      swap2\n      pop\n        /* \"#utility.yul\":3956:4234   */\n      pop\n        /* \"#utility.yul\":3894:4234   */\n      swap3\n      swap2\n      pop\n      pop\n      jump\t// out\n        /* \"#utility.yul\":4240:4351   */\n    tag_88:\n        /* \"#utility.yul\":4325:4326   */\n      0x03\n        /* \"#utility.yul\":4318:4323   */\n      dup2\n        /* \"#utility.yul\":4315:4327   */\n      lt\n        /* \"#utility.yul\":4305:4345   */\n      tag_171\n      jumpi\n        /* \"#utility.yul\":4341:4342   */\n      0x00\n        /* \"#utility.yul\":4338:4339   */\n      dup1\n        /* \"#utility.yul\":4331:4343   */\n      revert\n        /* \"#utility.yul\":4305:4345   */\n    tag_171:\n        /* \"#utility.yul\":4240:4351   */\n      pop\n      jump\t// out\n        /* \"#utility.yul\":4357:4520   */\n    tag_89:\n        /* \"#utility.yul\":4415:4420   */\n      0x00\n        /* \"#utility.yul\":4453:4459   */\n      dup2\n        /* \"#utility.yul\":4440:4460   */\n      calldataload\n        /* \"#utility.yul\":4431:4460   */\n      swap1\n      pop\n        /* \"#utility.yul\":4469:4514   */\n      tag_173\n        /* \"#utility.yul\":4508:4513   */\n      dup2\n        /* \"#utility.yul\":4469:4514   */\n      tag_88\n      jump\t// in\n    tag_173:\n        /* \"#utility.yul\":4357:4520   */\n      swap3\n      swap2\n      pop\n      pop\n      jump\t// out\n        /* \"#utility.yul\":4526:4632   */\n    tag_90:\n        /* \"#utility.yul\":4606:4607   */\n      0x07\n        /* \"#utility.yul\":4599:4604   */\n      dup2\n        /* \"#utility.yul\":4596:4608   */\n      lt\n        /* \"#utility.yul\":4586:4626   */\n      tag_175\n      jumpi\n        /* \"#utility.yul\":4622:4623   */\n      0x00\n        /* \"#utility.yul\":4619:4620   */\n      dup1\n        /* \"#utility.yul\":4612:4624   */\n      revert\n        /* \"#utility.yul\":4586:4626   */\n    tag_175:\n        /* \"#utility.yul\":4526:4632   */\n      pop\n      jump\t// out\n        /* \"#utility.yul\":4638:4791   */\n    tag_91:\n        /* \"#utility.yul\":4691:4696   */\n      0x00\n        /* \"#utility.yul\":4729:4735   */\n      dup2\n        /* \"#utility.yul\":4716:4736   */\n      calldataload\n        /* \"#utility.yul\":4707:4736   */\n      swap1\n      pop\n        /* \"#utility.yul\":4745:4785   */\n      tag_177\n        /* \"#utility.yul\":4779:4784   */\n      dup2\n        /* \"#utility.yul\":4745:4785   */\n      tag_90\n      jump\t// in\n    tag_177:\n        /* \"#utility.yul\":4638:4791   */\n      swap3\n      swap2\n      pop\n      pop\n      jump\t// out\n        /* \"#utility.yul\":4797:5634   */\n    tag_19:\n        /* \"#utility.yul\":4903:4909   */\n      0x00\n        /* \"#utility.yul\":4911:4917   */\n      dup1\n        /* \"#utility.yul\":4919:4925   */\n      0x00\n        /* \"#utility.yul\":4968:4970   */\n      0x60\n        /* \"#utility.yul\":4956:4965   */\n      dup5\n        /* \"#utility.yul\":4947:4954   */\n      dup7\n        /* \"#utility.yul\":4943:4966   */\n      sub\n        /* \"#utility.yul\":4939:4971   */\n      slt\n        /* \"#utility.yul\":4936:5055   */\n      iszero\n      tag_179\n      jumpi\n        /* \"#utility.yul\":4974:5053   */\n      tag_180\n      tag_69\n      jump\t// in\n    tag_180:\n        /* \"#utility.yul\":4936:5055   */\n    tag_179:\n        /* \"#utility.yul\":5122:5123   */\n      0x00\n        /* \"#utility.yul\":5111:5120   */\n      dup5\n        /* \"#utility.yul\":5107:5124   */\n      add\n        /* \"#utility.yul\":5094:5125   */\n      calldataload\n        /* \"#utility.yul\":5152:5170   */\n      0xffffffffffffffff\n        /* \"#utility.yul\":5144:5150   */\n      dup2\n        /* \"#utility.yul\":5141:5171   */\n      gt\n        /* \"#utility.yul\":5138:5255   */\n      iszero\n      tag_181\n      jumpi\n        /* \"#utility.yul\":5174:5253   */\n      tag_182\n      tag_70\n      jump\t// in\n    tag_182:\n        /* \"#utility.yul\":5138:5255   */\n    tag_181:\n        /* \"#utility.yul\":5279:5342   */\n      tag_183\n        /* \"#utility.yul\":5334:5341   */\n      dup7\n        /* \"#utility.yul\":5325:5331   */\n      dup3\n        /* \"#utility.yul\":5314:5323   */\n      dup8\n        /* \"#utility.yul\":5310:5332   */\n      add\n        /* \"#utility.yul\":5279:5342   */\n      tag_87\n      jump\t// in\n    tag_183:\n        /* \"#utility.yul\":5269:5342   */\n      swap4\n      pop\n        /* \"#utility.yul\":5065:5352   */\n      pop\n        /* \"#utility.yul\":5391:5393   */\n      0x20\n        /* \"#utility.yul\":5417:5482   */\n      tag_184\n        /* \"#utility.yul\":5474:5481   */\n      dup7\n        /* \"#utility.yul\":5465:5471   */\n      dup3\n        /* \"#utility.yul\":5454:5463   */\n      dup8\n        /* \"#utility.yul\":5450:5472   */\n      add\n        /* \"#utility.yul\":5417:5482   */\n      tag_89\n      jump\t// in\n    tag_184:\n        /* \"#utility.yul\":5407:5482   */\n      swap3\n      pop\n        /* \"#utility.yul\":5362:5492   */\n      pop\n        /* \"#utility.yul\":5531:5533   */\n      0x40\n        /* \"#utility.yul\":5557:5617   */\n      tag_185\n        /* \"#utility.yul\":5609:5616   */\n      dup7\n        /* \"#utility.yul\":5600:5606   */\n      dup3\n        /* \"#utility.yul\":5589:5598   */\n      dup8\n        /* \"#utility.yul\":5585:5607   */\n      add\n        /* \"#utility.yul\":5557:5617   */\n      tag_91\n      jump\t// in\n    tag_185:\n        /* \"#utility.yul\":5547:5617   */\n      swap2\n      pop\n        /* \"#utility.yul\":5502:5627   */\n      pop\n        /* \"#utility.yul\":4797:5634   */\n      swap3\n      pop\n      swap3\n      pop\n      swap3\n      jump\t// out\n        /* \"#utility.yul\":5640:5739   */\n    tag_92:\n        /* \"#utility.yul\":5692:5698   */\n      0x00\n        /* \"#utility.yul\":5726:5731   */\n      dup2\n        /* \"#utility.yul\":5720:5732   */\n      mload\n        /* \"#utility.yul\":5710:5732   */\n      swap1\n      pop\n        /* \"#utility.yul\":5640:5739   */\n      swap2\n      swap1\n      pop\n      jump\t// out\n        /* \"#utility.yul\":5745:5914   */\n    tag_93:\n        /* \"#utility.yul\":5829:5840   */\n      0x00\n        /* \"#utility.yul\":5863:5869   */\n      dup3\n        /* \"#utility.yul\":5858:5861   */\n      dup3\n        /* \"#utility.yul\":5851:5870   */\n      mstore\n        /* \"#utility.yul\":5903:5907   */\n      0x20\n        /* \"#utility.yul\":5898:5901   */\n      dup3\n        /* \"#utility.yul\":5894:5908   */\n      add\n        /* \"#utility.yul\":5879:5908   */\n      swap1\n      pop\n        /* \"#utility.yul\":5745:5914   */\n      swap3\n      swap2\n      pop\n      pop\n      jump\t// out\n        /* \"#utility.yul\":5920:6166   */\n    tag_94:\n        /* \"#utility.yul\":6001:6002   */\n      0x00\n        /* \"#utility.yul\":6011:6124   */\n    tag_189:\n        /* \"#utility.yul\":6025:6031   */\n      dup4\n        /* \"#utility.yul\":6022:6023   */\n      dup2\n        /* \"#utility.yul\":6019:6032   */\n      lt\n        /* \"#utility.yul\":6011:6124   */\n      iszero\n      tag_191\n      jumpi\n        /* \"#utility.yul\":6110:6111   */\n      dup1\n        /* \"#utility.yul\":6105:6108   */\n      dup3\n        /* \"#utility.yul\":6101:6112   */\n      add\n        /* \"#utility.yul\":6095:6113   */\n      mload\n        /* \"#utility.yul\":6091:6092   */\n      dup2\n        /* \"#utility.yul\":6086:6089   */\n      dup5\n        /* \"#utility.yul\":6082:6093   */\n      add\n        /* \"#utility.yul\":6075:6114   */\n      mstore\n        /* \"#utility.yul\":6047:6049   */\n      0x20\n        /* \"#utility.yul\":6044:6045   */\n      dup2\n        /* \"#utility.yul\":6040:6050   */\n      add\n        /* \"#utility.yul\":6035:6050   */\n      swap1\n      pop\n        /* \"#utility.yul\":6011:6124   */\n      jump(tag_189)\n    tag_191:\n        /* \"#utility.yul\":6158:6159   */\n      0x00\n        /* \"#utility.yul\":6149:6155   */\n      dup5\n        /* \"#utility.yul\":6144:6147   */\n      dup5\n        /* \"#utility.yul\":6140:6156   */\n      add\n        /* \"#utility.yul\":6133:6160   */\n      mstore\n        /* \"#utility.yul\":5982:6166   */\n      pop\n        /* \"#utility.yul\":5920:6166   */\n      pop\n      pop\n      pop\n      jump\t// out\n        /* \"#utility.yul\":6172:6549   */\n    tag_95:\n        /* \"#utility.yul\":6260:6263   */\n      0x00\n        /* \"#utility.yul\":6288:6327   */\n      tag_193\n        /* \"#utility.yul\":6321:6326   */\n      dup3\n        /* \"#utility.yul\":6288:6327   */\n      tag_92\n      jump\t// in\n    tag_193:\n        /* \"#utility.yul\":6343:6414   */\n      tag_194\n        /* \"#utility.yul\":6407:6413   */\n      dup2\n        /* \"#utility.yul\":6402:6405   */\n      dup6\n        /* \"#utility.yul\":6343:6414   */\n      tag_93\n      jump\t// in\n    tag_194:\n        /* \"#utility.yul\":6336:6414   */\n      swap4\n      pop\n        /* \"#utility.yul\":6423:6488   */\n      tag_195\n        /* \"#utility.yul\":6481:6487   */\n      dup2\n        /* \"#utility.yul\":6476:6479   */\n      dup6\n        /* \"#utility.yul\":6469:6473   */\n      0x20\n        /* \"#utility.yul\":6462:6467   */\n      dup7\n        /* \"#utility.yul\":6458:6474   */\n      add\n        /* \"#utility.yul\":6423:6488   */\n      tag_94\n      jump\t// in\n    tag_195:\n        /* \"#utility.yul\":6513:6542   */\n      tag_196\n        /* \"#utility.yul\":6535:6541   */\n      dup2\n        /* \"#utility.yul\":6513:6542   */\n      tag_80\n      jump\t// in\n    tag_196:\n        /* \"#utility.yul\":6508:6511   */\n      dup5\n        /* \"#utility.yul\":6504:6543   */\n      add\n        /* \"#utility.yul\":6497:6543   */\n      swap2\n      pop\n        /* \"#utility.yul\":6264:6549   */\n      pop\n        /* \"#utility.yul\":6172:6549   */\n      swap3\n      swap2\n      pop\n      pop\n      jump\t// out\n        /* \"#utility.yul\":6555:6667   */\n    tag_96:\n        /* \"#utility.yul\":6635:6636   */\n      0x07\n        /* \"#utility.yul\":6628:6633   */\n      dup2\n        /* \"#utility.yul\":6625:6637   */\n      lt\n        /* \"#utility.yul\":6615:6661   */\n      tag_198\n      jumpi\n        /* \"#utility.yul\":6641:6659   */\n      tag_199\n      tag_46\n      jump\t// in\n    tag_199:\n        /* \"#utility.yul\":6615:6661   */\n    tag_198:\n        /* \"#utility.yul\":6555:6667   */\n      pop\n      jump\t// out\n        /* \"#utility.yul\":6673:6798   */\n    tag_97:\n        /* \"#utility.yul\":6717:6724   */\n      0x00\n        /* \"#utility.yul\":6746:6751   */\n      dup2\n        /* \"#utility.yul\":6735:6751   */\n      swap1\n      pop\n        /* \"#utility.yul\":6752:6792   */\n      tag_201\n        /* \"#utility.yul\":6786:6791   */\n      dup3\n        /* \"#utility.yul\":6752:6792   */\n      tag_96\n      jump\t// in\n    tag_201:\n        /* \"#utility.yul\":6673:6798   */\n      swap2\n      swap1\n      pop\n      jump\t// out\n        /* \"#utility.yul\":6804:6929   */\n    tag_98:\n        /* \"#utility.yul\":6859:6868   */\n      0x00\n        /* \"#utility.yul\":6892:6923   */\n      tag_203\n        /* \"#utility.yul\":6917:6922   */\n      dup3\n        /* \"#utility.yul\":6892:6923   */\n      tag_97\n      jump\t// in\n    tag_203:\n        /* \"#utility.yul\":6879:6923   */\n      swap1\n      pop\n        /* \"#utility.yul\":6804:6929   */\n      swap2\n      swap1\n      pop\n      jump\t// out\n        /* \"#utility.yul\":6935:7076   */\n    tag_99:\n        /* \"#utility.yul\":7027:7069   */\n      tag_205\n        /* \"#utility.yul\":7063:7068   */\n      dup2\n        /* \"#utility.yul\":7027:7069   */\n      tag_98\n      jump\t// in\n    tag_205:\n        /* \"#utility.yul\":7022:7025   */\n      dup3\n        /* \"#utility.yul\":7015:7070   */\n      mstore\n        /* \"#utility.yul\":6935:7076   */\n      pop\n      pop\n      jump\t// out\n        /* \"#utility.yul\":7082:7172   */\n    tag_100:\n        /* \"#utility.yul\":7116:7123   */\n      0x00\n        /* \"#utility.yul\":7159:7164   */\n      dup2\n        /* \"#utility.yul\":7152:7165   */\n      iszero\n        /* \"#utility.yul\":7145:7166   */\n      iszero\n        /* \"#utility.yul\":7134:7166   */\n      swap1\n      pop\n        /* \"#utility.yul\":7082:7172   */\n      swap2\n      swap1\n      pop\n      jump\t// out\n        /* \"#utility.yul\":7178:7287   */\n    tag_101:\n        /* \"#utility.yul\":7259:7280   */\n      tag_208\n        /* \"#utility.yul\":7274:7279   */\n      dup2\n        /* \"#utility.yul\":7259:7280   */\n      tag_100\n      jump\t// in\n    tag_208:\n        /* \"#utility.yul\":7254:7257   */\n      dup3\n        /* \"#utility.yul\":7247:7281   */\n      mstore\n        /* \"#utility.yul\":7178:7287   */\n      pop\n      pop\n      jump\t// out\n        /* \"#utility.yul\":7293:7955   */\n    tag_25:\n        /* \"#utility.yul\":7499:7503   */\n      0x00\n        /* \"#utility.yul\":7537:7540   */\n      0x80\n        /* \"#utility.yul\":7526:7535   */\n      dup3\n        /* \"#utility.yul\":7522:7541   */\n      add\n        /* \"#utility.yul\":7514:7541   */\n      swap1\n      pop\n        /* \"#utility.yul\":7587:7596   */\n      dup2\n        /* \"#utility.yul\":7581:7585   */\n      dup2\n        /* \"#utility.yul\":7577:7597   */\n      sub\n        /* \"#utility.yul\":7573:7574   */\n      0x00\n        /* \"#utility.yul\":7562:7571   */\n      dup4\n        /* \"#utility.yul\":7558:7575   */\n      add\n        /* \"#utility.yul\":7551:7598   */\n      mstore\n        /* \"#utility.yul\":7615:7693   */\n      tag_210\n        /* \"#utility.yul\":7688:7692   */\n      dup2\n        /* \"#utility.yul\":7679:7685   */\n      dup8\n        /* \"#utility.yul\":7615:7693   */\n      tag_95\n      jump\t// in\n    tag_210:\n        /* \"#utility.yul\":7607:7693   */\n      swap1\n      pop\n        /* \"#utility.yul\":7703:7785   */\n      tag_211\n        /* \"#utility.yul\":7781:7783   */\n      0x20\n        /* \"#utility.yul\":7770:7779   */\n      dup4\n        /* \"#utility.yul\":7766:7784   */\n      add\n        /* \"#utility.yul\":7757:7763   */\n      dup7\n        /* \"#utility.yul\":7703:7785   */\n      tag_77\n      jump\t// in\n    tag_211:\n        /* \"#utility.yul\":7795:7872   */\n      tag_212\n        /* \"#utility.yul\":7868:7870   */\n      0x40\n        /* \"#utility.yul\":7857:7866   */\n      dup4\n        /* \"#utility.yul\":7853:7871   */\n      add\n        /* \"#utility.yul\":7844:7850   */\n      dup6\n        /* \"#utility.yul\":7795:7872   */\n      tag_99\n      jump\t// in\n    tag_212:\n        /* \"#utility.yul\":7882:7948   */\n      tag_213\n        /* \"#utility.yul\":7944:7946   */\n      0x60\n        /* \"#utility.yul\":7933:7942   */\n      dup4\n        /* \"#utility.yul\":7929:7947   */\n      add\n        /* \"#utility.yul\":7920:7926   */\n      dup5\n        /* \"#utility.yul\":7882:7948   */\n      tag_101\n      jump\t// in\n    tag_213:\n        /* \"#utility.yul\":7293:7955   */\n      swap6\n      swap5\n      pop\n      pop\n      pop\n      pop\n      pop\n      jump\t// out\n        /* \"#utility.yul\":7961:8193   */\n    tag_30:\n        /* \"#utility.yul\":8059:8063   */\n      0x00\n        /* \"#utility.yul\":8097:8099   */\n      0x20\n        /* \"#utility.yul\":8086:8095   */\n      dup3\n        /* \"#utility.yul\":8082:8100   */\n      add\n        /* \"#utility.yul\":8074:8100   */\n      swap1\n      pop\n        /* \"#utility.yul\":8110:8186   */\n      tag_215\n        /* \"#utility.yul\":8183:8184   */\n      0x00\n        /* \"#utility.yul\":8172:8181   */\n      dup4\n        /* \"#utility.yul\":8168:8185   */\n      add\n        /* \"#utility.yul\":8159:8165   */\n      dup5\n        /* \"#utility.yul\":8110:8186   */\n      tag_99\n      jump\t// in\n    tag_215:\n        /* \"#utility.yul\":7961:8193   */\n      swap3\n      swap2\n      pop\n      pop\n      jump\t// out\n        /* \"#utility.yul\":8199:8379   */\n    tag_34:\n        /* \"#utility.yul\":8247:8324   */\n      0x4e487b7100000000000000000000000000000000000000000000000000000000\n        /* \"#utility.yul\":8244:8245   */\n      0x00\n        /* \"#utility.yul\":8237:8325   */\n      mstore\n        /* \"#utility.yul\":8344:8348   */\n      0x32\n        /* \"#utility.yul\":8341:8342   */\n      0x04\n        /* \"#utility.yul\":8334:8349   */\n      mstore\n        /* \"#utility.yul\":8368:8372   */\n      0x24\n        /* \"#utility.yul\":8365:8366   */\n      0x00\n        /* \"#utility.yul\":8358:8373   */\n      revert\n        /* \"#utility.yul\":8385:8565   */\n    tag_102:\n        /* \"#utility.yul\":8433:8510   */\n      0x4e487b7100000000000000000000000000000000000000000000000000000000\n        /* \"#utility.yul\":8430:8431   */\n      0x00\n        /* \"#utility.yul\":8423:8511   */\n      mstore\n        /* \"#utility.yul\":8530:8534   */\n      0x22\n        /* \"#utility.yul\":8527:8528   */\n      0x04\n        /* \"#utility.yul\":8520:8535   */\n      mstore\n        /* \"#utility.yul\":8554:8558   */\n      0x24\n        /* \"#utility.yul\":8551:8552   */\n      0x00\n        /* \"#utility.yul\":8544:8559   */\n      revert\n        /* \"#utility.yul\":8571:8891   */\n    tag_59:\n        /* \"#utility.yul\":8615:8621   */\n      0x00\n        /* \"#utility.yul\":8652:8653   */\n      0x02\n        /* \"#utility.yul\":8646:8650   */\n      dup3\n        /* \"#utility.yul\":8642:8654   */\n      div\n        /* \"#utility.yul\":8632:8654   */\n      swap1\n      pop\n        /* \"#utility.yul\":8699:8700   */\n      0x01\n        /* \"#utility.yul\":8693:8697   */\n      dup3\n        /* \"#utility.yul\":8689:8701   */\n      and\n        /* \"#utility.yul\":8720:8738   */\n      dup1\n        /* \"#utility.yul\":8710:8791   */\n      tag_219\n      jumpi\n        /* \"#utility.yul\":8776:8780   */\n      0x7f\n        /* \"#utility.yul\":8768:8774   */\n      dup3\n        /* \"#utility.yul\":8764:8781   */\n      and\n        /* \"#utility.yul\":8754:8781   */\n      swap2\n      pop\n        /* \"#utility.yul\":8710:8791   */\n    tag_219:\n        /* \"#utility.yul\":8838:8840   */\n      0x20\n        /* \"#utility.yul\":8830:8836   */\n      dup3\n        /* \"#utility.yul\":8827:8841   */\n      lt\n        /* \"#utility.yul\":8807:8825   */\n      dup2\n        /* \"#utility.yul\":8804:8842   */\n      sub\n        /* \"#utility.yul\":8801:8885   */\n      tag_220\n      jumpi\n        /* \"#utility.yul\":8857:8875   */\n      tag_221\n      tag_102\n      jump\t// in\n    tag_221:\n        /* \"#utility.yul\":8801:8885   */\n    tag_220:\n        /* \"#utility.yul\":8622:8891   */\n      pop\n        /* \"#utility.yul\":8571:8891   */\n      swap2\n      swap1\n      pop\n      jump\t// out\n        /* \"#utility.yul\":8897:9038   */\n    tag_103:\n        /* \"#utility.yul\":8946:8950   */\n      0x00\n        /* \"#utility.yul\":8969:8972   */\n      dup2\n        /* \"#utility.yul\":8961:8972   */\n      swap1\n      pop\n        /* \"#utility.yul\":8992:8995   */\n      dup2\n        /* \"#utility.yul\":8989:8990   */\n      0x00\n        /* \"#utility.yul\":8982:8996   */\n      mstore\n        /* \"#utility.yul\":9026:9030   */\n      0x20\n        /* \"#utility.yul\":9023:9024   */\n      0x00\n        /* \"#utility.yul\":9013:9031   */\n      keccak256\n        /* \"#utility.yul\":9005:9031   */\n      swap1\n      pop\n        /* \"#utility.yul\":8897:9038   */\n      swap2\n      swap1\n      pop\n      jump\t// out\n        /* \"#utility.yul\":9044:9137   */\n    tag_104:\n        /* \"#utility.yul\":9081:9087   */\n      0x00\n        /* \"#utility.yul\":9128:9130   */\n      0x20\n        /* \"#utility.yul\":9123:9125   */\n      0x1f\n        /* \"#utility.yul\":9116:9121   */\n      dup4\n        /* \"#utility.yul\":9112:9126   */\n      add\n        /* \"#utility.yul\":9108:9131   */\n      div\n        /* \"#utility.yul\":9098:9131   */\n      swap1\n      pop\n        /* \"#utility.yul\":9044:9137   */\n      swap2\n      swap1\n      pop\n      jump\t// out\n        /* \"#utility.yul\":9143:9250   */\n    tag_105:\n        /* \"#utility.yul\":9187:9195   */\n      0x00\n        /* \"#utility.yul\":9237:9242   */\n      dup3\n        /* \"#utility.yul\":9231:9235   */\n      dup3\n        /* \"#utility.yul\":9227:9243   */\n      shl\n        /* \"#utility.yul\":9206:9243   */\n      swap1\n      pop\n        /* \"#utility.yul\":9143:9250   */\n      swap3\n      swap2\n      pop\n      pop\n      jump\t// out\n        /* \"#utility.yul\":9256:9649   */\n    tag_106:\n        /* \"#utility.yul\":9325:9331   */\n      0x00\n        /* \"#utility.yul\":9375:9376   */\n      0x08\n        /* \"#utility.yul\":9363:9373   */\n      dup4\n        /* \"#utility.yul\":9359:9377   */\n      mul\n        /* \"#utility.yul\":9398:9495   */\n      tag_226\n        /* \"#utility.yul\":9428:9494   */\n      0xffffffffffffffffffffffffffffffffffffffffffffffffffffffffffffffff\n        /* \"#utility.yul\":9417:9426   */\n      dup3\n        /* \"#utility.yul\":9398:9495   */\n      tag_105\n      jump\t// in\n    tag_226:\n        /* \"#utility.yul\":9516:9555   */\n      tag_227\n        /* \"#utility.yul\":9546:9554   */\n      dup7\n        /* \"#utility.yul\":9535:9544   */\n      dup4\n        /* \"#utility.yul\":9516:9555   */\n      tag_105\n      jump\t// in\n    tag_227:\n        /* \"#utility.yul\":9504:9555   */\n      swap6\n      pop\n        /* \"#utility.yul\":9588:9592   */\n      dup1\n        /* \"#utility.yul\":9584:9593   */\n      not\n        /* \"#utility.yul\":9577:9582   */\n      dup5\n        /* \"#utility.yul\":9573:9594   */\n      and\n        /* \"#utility.yul\":9564:9594   */\n      swap4\n      pop\n        /* \"#utility.yul\":9637:9641   */\n      dup1\n        /* \"#utility.yul\":9627:9635   */\n      dup7\n        /* \"#utility.yul\":9623:9642   */\n      and\n        /* \"#utility.yul\":9616:9621   */\n      dup5\n        /* \"#utility.yul\":9613:9643   */\n      or\n        /* \"#utility.yul\":9603:9643   */\n      swap3\n      pop\n        /* \"#utility.yul\":9332:9649   */\n      pop\n      pop\n        /* \"#utility.yul\":9256:9649   */\n      swap4\n      swap3\n      pop\n      pop\n      pop\n      jump\t// out\n        /* \"#utility.yul\":9655:9715   */\n    tag_107:\n        /* \"#utility.yul\":9683:9686   */\n      0x00\n        /* \"#utility.yul\":9704:9709   */\n      dup2\n        /* \"#utility.yul\":9697:9709   */\n      swap1\n      pop\n        /* \"#utility.yul\":9655:9715   */\n      swap2\n      swap1\n      pop\n      jump\t// out\n        /* \"#utility.yul\":9721:9863   */\n    tag_108:\n        /* \"#utility.yul\":9771:9780   */\n      0x00\n        /* \"#utility.yul\":9804:9857   */\n      tag_230\n        /* \"#utility.yul\":9822:9856   */\n      tag_231\n        /* \"#utility.yul\":9831:9855   */\n      tag_232\n        /* \"#utility.yul\":9849:9854   */\n      dup5\n        /* \"#utility.yul\":9831:9855   */\n      tag_71\n      jump\t// in\n    tag_232:\n        /* \"#utility.yul\":9822:9856   */\n      tag_107\n      jump\t// in\n    tag_231:\n        /* \"#utility.yul\":9804:9857   */\n      tag_71\n      jump\t// in\n    tag_230:\n        /* \"#utility.yul\":9791:9857   */\n      swap1\n      pop\n        /* \"#utility.yul\":9721:9863   */\n      swap2\n      swap1\n      pop\n      jump\t// out\n        /* \"#utility.yul\":9869:9944   */\n    tag_109:\n        /* \"#utility.yul\":9912:9915   */\n      0x00\n        /* \"#utility.yul\":9933:9938   */\n      dup2\n        /* \"#utility.yul\":9926:9938   */\n      swap1\n      pop\n        /* \"#utility.yul\":9869:9944   */\n      swap2\n      swap1\n      pop\n      jump\t// out\n        /* \"#utility.yul\":9950:10219   */\n    tag_110:\n        /* \"#utility.yul\":10060:10099   */\n      tag_235\n        /* \"#utility.yul\":10091:10098   */\n      dup4\n        /* \"#utility.yul\":10060:10099   */\n      tag_108\n      jump\t// in\n    tag_235:\n        /* \"#utility.yul\":10121:10212   */\n      tag_236\n        /* \"#utility.yul\":10170:10211   */\n      tag_237\n        /* \"#utility.yul\":10194:10210   */\n      dup3\n        /* \"#utility.yul\":10170:10211   */\n      tag_109\n      jump\t// in\n    tag_237:\n        /* \"#utility.yul\":10162:10168   */\n      dup5\n        /* \"#utility.yul\":10155:10159   */\n      dup5\n        /* \"#utility.yul\":10149:10160   */\n      sload\n        /* \"#utility.yul\":10121:10212   */\n      tag_106\n      jump\t// in\n    tag_236:\n        /* \"#utility.yul\":10115:10119   */\n      dup3\n        /* \"#utility.yul\":10108:10213   */\n      sstore\n        /* \"#utility.yul\":10026:10219   */\n      pop\n        /* \"#utility.yul\":9950:10219   */\n      pop\n      pop\n      pop\n      jump\t// out\n        /* \"#utility.yul\":10225:10298   */\n    tag_111:\n        /* \"#utility.yul\":10270:10273   */\n      0x00\n        /* \"#utility.yul\":10225:10298   */\n      swap1\n      jump\t// out\n        /* \"#utility.yul\":10304:10493   */\n    tag_112:\n        /* \"#utility.yul\":10381:10413   */\n      tag_240\n      tag_111\n      jump\t// in\n    tag_240:\n        /* \"#utility.yul\":10422:10487   */\n      tag_241\n        /* \"#utility.yul\":10480:10486   */\n      dup2\n        /* \"#utility.yul\":10472:10478   */\n      dup5\n        /* \"#utility.yul\":10466:10470   */\n      dup5\n        /* \"#utility.yul\":10422:10487   */\n      tag_110\n      jump\t// in\n    tag_241:\n        /* \"#utility.yul\":10357:10493   */\n      pop\n        /* \"#utility.yul\":10304:10493   */\n      pop\n      pop\n      jump\t// out\n        /* \"#utility.yul\":10499:10685   */\n    tag_113:\n        /* \"#utility.yul\":10559:10679   */\n    tag_243:\n        /* \"#utility.yul\":10576:10579   */\n      dup2\n        /* \"#utility.yul\":10569:10574   */\n      dup2\n        /* \"#utility.yul\":10566:10580   */\n      lt\n        /* \"#utility.yul\":10559:10679   */\n      iszero\n      tag_245\n      jumpi\n        /* \"#utility.yul\":10630:10669   */\n      tag_246\n        /* \"#utility.yul\":10667:10668   */\n      0x00\n        /* \"#utility.yul\":10660:10665   */\n      dup3\n        /* \"#utility.yul\":10630:10669   */\n      tag_112\n      jump\t// in\n    tag_246:\n        /* \"#utility.yul\":10603:10604   */\n      0x01\n        /* \"#utility.yul\":10596:10601   */\n      dup2\n        /* \"#utility.yul\":10592:10605   */\n      add\n        /* \"#utility.yul\":10583:10605   */\n      swap1\n      pop\n        /* \"#utility.yul\":10559:10679   */\n      jump(tag_243)\n    tag_245:\n        /* \"#utility.yul\":10499:10685   */\n      pop\n      pop\n      jump\t// out\n        /* \"#utility.yul\":10691:11234   */\n    tag_114:\n        /* \"#utility.yul\":10792:10794   */\n      0x1f\n        /* \"#utility.yul\":10787:10790   */\n      dup3\n        /* \"#utility.yul\":10784:10795   */\n      gt\n        /* \"#utility.yul\":10781:11227   */\n      iszero\n      tag_248\n      jumpi\n        /* \"#utility.yul\":10826:10864   */\n      tag_249\n        /* \"#utility.yul\":10858:10863   */\n      dup2\n        /* \"#utility.yul\":10826:10864   */\n      tag_103\n      jump\t// in\n    tag_249:\n        /* \"#utility.yul\":10910:10939   */\n      tag_250\n        /* \"#utility.yul\":10928:10938   */\n      dup5\n        /* \"#utility.yul\":10910:10939   */\n      tag_104\n      jump\t// in\n    tag_250:\n        /* \"#utility.yul\":10900:10908   */\n      dup2\n        /* \"#utility.yul\":10896:10940   */\n      add\n        /* \"#utility.yul\":11093:11095   */\n      0x20\n        /* \"#utility.yul\":11081:11091   */\n      dup6\n        /* \"#utility.yul\":11078:11096   */\n      lt\n        /* \"#utility.yul\":11075:11124   */\n      iszero\n      tag_251\n      jumpi\n        /* \"#utility.yul\":11114:11122   */\n      dup2\n        /* \"#utility.yul\":11099:11122   */\n      swap1\n      pop\n        /* \"#utility.yul\":11075:11124   */\n    tag_251:\n        /* \"#utility.yul\":11137:11217   */\n      tag_252\n        /* \"#utility.yul\":11193:11215   */\n      tag_253\n        /* \"#utility.yul\":11211:11214   */\n      dup6\n        /* \"#utility.yul\":11193:11215   */\n      tag_104\n      jump\t// in\n    tag_253:\n        /* \"#utility.yul\":11183:11191   */\n      dup4\n        /* \"#utility.yul\":11179:11216   */\n      add\n        /* \"#utility.yul\":11166:11177   */\n      dup3\n        /* \"#utility.yul\":11137:11217   */\n      tag_113\n      jump\t// in\n    tag_252:\n        /* \"#utility.yul\":10796:11227   */\n      pop\n      pop\n        /* \"#utility.yul\":10781:11227   */\n    tag_248:\n        /* \"#utility.yul\":10691:11234   */\n      pop\n      pop\n      pop\n      jump\t// out\n        /* \"#utility.yul\":11240:11357   */\n    tag_115:\n        /* \"#utility.yul\":11294:11302   */\n      0x00\n        /* \"#utility.yul\":11344:11349   */\n      dup3\n        /* \"#utility.yul\":11338:11342   */\n      dup3\n        /* \"#utility.yul\":11334:11350   */\n      shr\n        /* \"#utility.yul\":11313:11350   */\n      swap1\n      pop\n        /* \"#utility.yul\":11240:11357   */\n      swap3\n      swap2\n      pop\n      pop\n      jump\t// out\n        /* \"#utility.yul\":11363:11532   */\n    tag_116:\n        /* \"#utility.yul\":11407:11413   */\n      0x00\n        /* \"#utility.yul\":11440:11491   */\n      tag_256\n        /* \"#utility.yul\":11488:11489   */\n      0x00\n        /* \"#utility.yul\":11484:11490   */\n      not\n        /* \"#utility.yul\":11476:11481   */\n      dup5\n        /* \"#utility.yul\":11473:11474   */\n      0x08\n        /* \"#utility.yul\":11469:11482   */\n      mul\n        /* \"#utility.yul\":11440:11491   */\n      tag_115\n      jump\t// in\n    tag_256:\n        /* \"#utility.yul\":11436:11492   */\n      not\n        /* \"#utility.yul\":11521:11525   */\n      dup1\n        /* \"#utility.yul\":11515:11519   */\n      dup4\n        /* \"#utility.yul\":11511:11526   */\n      and\n        /* \"#utility.yul\":11501:11526   */\n      swap2\n      pop\n        /* \"#utility.yul\":11414:11532   */\n      pop\n        /* \"#utility.yul\":11363:11532   */\n      swap3\n      swap2\n      pop\n      pop\n      jump\t// out\n        /* \"#utility.yul\":11537:11832   */\n    tag_117:\n        /* \"#utility.yul\":11613:11617   */\n      0x00\n        /* \"#utility.yul\":11759:11788   */\n      tag_258\n        /* \"#utility.yul\":11784:11787   */\n      dup4\n        /* \"#utility.yul\":11778:11782   */\n      dup4\n        /* \"#utility.yul\":11759:11788   */\n      tag_116\n      jump\t// in\n    tag_258:\n        /* \"#utility.yul\":11751:11788   */\n      swap2\n      pop\n        /* \"#utility.yul\":11821:11824   */\n      dup3\n        /* \"#utility.yul\":11818:11819   */\n      0x02\n        /* \"#utility.yul\":11814:11825   */\n      mul\n        /* \"#utility.yul\":11808:11812   */\n      dup3\n        /* \"#utility.yul\":11805:11826   */\n      or\n        /* \"#utility.yul\":11797:11826   */\n      swap1\n      pop\n        /* \"#utility.yul\":11537:11832   */\n      swap3\n      swap2\n      pop\n      pop\n      jump\t// out\n        /* \"#utility.yul\":11837:13232   */\n    tag_51:\n        /* \"#utility.yul\":11954:11991   */\n      tag_260\n        /* \"#utility.yul\":11987:11990   */\n      dup3\n        /* \"#utility.yul\":11954:11991   */\n      tag_92\n      jump\t// in\n    tag_260:\n        /* \"#utility.yul\":12056:12074   */\n      0xffffffffffffffff\n        /* \"#utility.yul\":12048:12054   */\n      dup2\n        /* \"#utility.yul\":12045:12075   */\n      gt\n        /* \"#utility.yul\":12042:12098   */\n      iszero\n      tag_261\n      jumpi\n        /* \"#utility.yul\":12078:12096   */\n      tag_262\n      tag_81\n      jump\t// in\n    tag_262:\n        /* \"#utility.yul\":12042:12098   */\n    tag_261:\n        /* \"#utility.yul\":12122:12160   */\n      tag_263\n        /* \"#utility.yul\":12154:12158   */\n      dup3\n        /* \"#utility.yul\":12148:12159   */\n      sload\n        /* \"#utility.yul\":12122:12160   */\n      tag_59\n      jump\t// in\n    tag_263:\n        /* \"#utility.yul\":12207:12274   */\n      tag_264\n        /* \"#utility.yul\":12267:12273   */\n      dup3\n        /* \"#utility.yul\":12259:12265   */\n      dup3\n        /* \"#utility.yul\":12253:12257   */\n      dup6\n        /* \"#utility.yul\":12207:12274   */\n      tag_114\n      jump\t// in\n    tag_264:\n        /* \"#utility.yul\":12301:12302   */\n      0x00\n        /* \"#utility.yul\":12325:12329   */\n      0x20\n        /* \"#utility.yul\":12312:12329   */\n      swap1\n      pop\n        /* \"#utility.yul\":12357:12359   */\n      0x1f\n        /* \"#utility.yul\":12349:12355   */\n      dup4\n        /* \"#utility.yul\":12346:12360   */\n      gt\n        /* \"#utility.yul\":12374:12375   */\n      0x01\n        /* \"#utility.yul\":12369:12987   */\n      dup2\n      eq\n      tag_266\n      jumpi\n        /* \"#utility.yul\":13031:13032   */\n      0x00\n        /* \"#utility.yul\":13048:13054   */\n      dup5\n        /* \"#utility.yul\":13045:13122   */\n      iszero\n      tag_267\n      jumpi\n        /* \"#utility.yul\":13097:13106   */\n      dup3\n        /* \"#utility.yul\":13092:13095   */\n      dup8\n        /* \"#utility.yul\":13088:13107   */\n      add\n        /* \"#utility.yul\":13082:13108   */\n      mload\n        /* \"#utility.yul\":13073:13108   */\n      swap1\n      pop\n        /* \"#utility.yul\":13045:13122   */\n    tag_267:\n        /* \"#utility.yul\":13148:13215   */\n      tag_268\n        /* \"#utility.yul\":13208:13214   */\n      dup6\n        /* \"#utility.yul\":13201:13206   */\n      dup3\n        /* \"#utility.yul\":13148:13215   */\n      tag_117\n      jump\t// in\n    tag_268:\n        /* \"#utility.yul\":13142:13146   */\n      dup7\n        /* \"#utility.yul\":13135:13216   */\n      sstore\n        /* \"#utility.yul\":13004:13226   */\n      pop\n        /* \"#utility.yul\":12339:13226   */\n      jump(tag_265)\n        /* \"#utility.yul\":12369:12987   */\n    tag_266:\n        /* \"#utility.yul\":12421:12425   */\n      0x1f\n        /* \"#utility.yul\":12417:12426   */\n      not\n        /* \"#utility.yul\":12409:12415   */\n      dup5\n        /* \"#utility.yul\":12405:12427   */\n      and\n        /* \"#utility.yul\":12455:12492   */\n      tag_269\n        /* \"#utility.yul\":12487:12491   */\n      dup7\n        /* \"#utility.yul\":12455:12492   */\n      tag_103\n      jump\t// in\n    tag_269:\n        /* \"#utility.yul\":12514:12515   */\n      0x00\n        /* \"#utility.yul\":12528:12736   */\n    tag_270:\n        /* \"#utility.yul\":12542:12549   */\n      dup3\n        /* \"#utility.yul\":12539:12540   */\n      dup2\n        /* \"#utility.yul\":12536:12550   */\n      lt\n        /* \"#utility.yul\":12528:12736   */\n      iszero\n      tag_272\n      jumpi\n        /* \"#utility.yul\":12621:12630   */\n      dup5\n        /* \"#utility.yul\":12616:12619   */\n      dup10\n        /* \"#utility.yul\":12612:12631   */\n      add\n        /* \"#utility.yul\":12606:12632   */\n      mload\n        /* \"#utility.yul\":12598:12604   */\n      dup3\n        /* \"#utility.yul\":12591:12633   */\n      sstore\n        /* \"#utility.yul\":12672:12673   */\n      0x01\n        /* \"#utility.yul\":12664:12670   */\n      dup3\n        /* \"#utility.yul\":12660:12674   */\n      add\n        /* \"#utility.yul\":12650:12674   */\n      swap2\n      pop\n        /* \"#utility.yul\":12719:12721   */\n      0x20\n        /* \"#utility.yul\":12708:12717   */\n      dup6\n        /* \"#utility.yul\":12704:12722   */\n      add\n        /* \"#utility.yul\":12691:12722   */\n      swap5\n      pop\n        /* \"#utility.yul\":12565:12569   */\n      0x20\n        /* \"#utility.yul\":12562:12563   */\n      dup2\n        /* \"#utility.yul\":12558:12570   */\n      add\n        /* \"#utility.yul\":12553:12570   */\n      swap1\n      pop\n        /* \"#utility.yul\":12528:12736   */\n      jump(tag_270)\n    tag_272:\n        /* \"#utility.yul\":12764:12770   */\n      dup7\n        /* \"#utility.yul\":12755:12762   */\n      dup4\n        /* \"#utility.yul\":12752:12771   */\n      lt\n        /* \"#utility.yul\":12749:12928   */\n      iszero\n      tag_273\n      jumpi\n        /* \"#utility.yul\":12822:12831   */\n      dup5\n        /* \"#utility.yul\":12817:12820   */\n      dup10\n        /* \"#utility.yul\":12813:12832   */\n      add\n        /* \"#utility.yul\":12807:12833   */\n      mload\n        /* \"#utility.yul\":12865:12913   */\n      tag_274\n        /* \"#utility.yul\":12907:12911   */\n      0x1f\n        /* \"#utility.yul\":12899:12905   */\n      dup10\n        /* \"#utility.yul\":12895:12912   */\n      and\n        /* \"#utility.yul\":12884:12893   */\n      dup3\n        /* \"#utility.yul\":12865:12913   */\n      tag_116\n      jump\t// in\n    tag_274:\n        /* \"#utility.yul\":12857:12863   */\n      dup4\n        /* \"#utility.yul\":12850:12914   */\n      sstore\n        /* \"#utility.yul\":12772:12928   */\n      pop\n        /* \"#utility.yul\":12749:12928   */\n    tag_273:\n        /* \"#utility.yul\":12974:12975   */\n      0x01\n        /* \"#utility.yul\":12970:12971   */\n      0x02\n        /* \"#utility.yul\":12962:12968   */\n      dup9\n        /* \"#utility.yul\":12958:12972   */\n      mul\n        /* \"#utility.yul\":12954:12976   */\n      add\n        /* \"#utility.yul\":12948:12952   */\n      dup9\n        /* \"#utility.yul\":12941:12977   */\n      sstore\n        /* \"#utility.yul\":12376:12987   */\n      pop\n      pop\n      pop\n        /* \"#utility.yul\":12339:13226   */\n    tag_265:\n      pop\n        /* \"#utility.yul\":11929:13232   */\n      pop\n      pop\n      pop\n        /* \"#utility.yul\":11837:13232   */\n      pop\n      pop\n      jump\t// out\n\n    auxdata: 0xa264697066735822122037d028e4ddde1fd10d500fc79d8ee5617c1a857a3281749a255c58e651f2b6a464736f6c63430008150033\n}\n",
				"bytecode": {
					"linkReferences": {},
					"object": "608060405234801561000f575f80fd5b50610b418061001d5f395ff3fe608060405234801561000f575f80fd5b5060043610610055575f3560e01c8063163e0f4614610059578063826c38c714610089578063b1d36506146100a5578063c129ff32146100c1578063ffa8f551146100f4575b5f80fd5b610073600480360381019061006e9190610433565b610124565b60405161008091906104d1565b60405180910390f35b6100a3600480360381019061009e9190610433565b61015b565b005b6100bf60048036038101906100ba919061066c565b6101c8565b005b6100db60048036038101906100d69190610433565b6102d1565b6040516100eb94939291906107b2565b60405180910390f35b61010e60048036038101906101099190610433565b6103b7565b60405161011b91906107fc565b60405180910390f35b5f80828154811061013857610137610815565b5b905f5260205f2090600202016001015f9054906101000a900460ff169050919050565b5f818154811061016e5761016d610815565b5b905f5260205f20906002020160010160029054906101000a900460ff16155f828154811061019f5761019e610815565b5b905f5260205f20906002020160010160026101000a81548160ff02191690831515021790555050565b5f60405180608001604052808581526020018460028111156101ed576101ec61045e565b5b81526020018360068111156102055761020461045e565b5b815260200160011515815250908060018154018082558091505060019003905f5260205f2090600202015f909190919091505f820151815f01908161024a9190610a3c565b506020820151816001015f6101000a81548160ff021916908360028111156102755761027461045e565b5b021790555060408201518160010160016101000a81548160ff021916908360068111156102a5576102a461045e565b5b021790555060608201518160010160026101000a81548160ff0219169083151502179055505050505050565b5f81815481106102df575f80fd5b905f5260205f2090600202015f91509050805f0180546102fe9061086f565b80601f016020809104026020016040519081016040528092919081815260200182805461032a9061086f565b80156103755780601f1061034c57610100808354040283529160200191610375565b820191905f5260205f20905b81548152906001019060200180831161035857829003601f168201915b505050505090806001015f9054906101000a900460ff16908060010160019054906101000a900460ff16908060010160029054906101000a900460ff16905084565b5f8082815481106103cb576103ca610815565b5b905f5260205f20906002020160010160019054906101000a900460ff169050919050565b5f604051905090565b5f80fd5b5f80fd5b5f819050919050565b61041281610400565b811461041c575f80fd5b50565b5f8135905061042d81610409565b92915050565b5f60208284031215610448576104476103f8565b5b5f6104558482850161041f565b91505092915050565b7f4e487b71000000000000000000000000000000000000000000000000000000005f52602160045260245ffd5b6003811061049c5761049b61045e565b5b50565b5f8190506104ac8261048b565b919050565b5f6104bb8261049f565b9050919050565b6104cb816104b1565b82525050565b5f6020820190506104e45f8301846104c2565b92915050565b5f80fd5b5f80fd5b5f601f19601f8301169050919050565b7f4e487b71000000000000000000000000000000000000000000000000000000005f52604160045260245ffd5b610538826104f2565b810181811067ffffffffffffffff8211171561055757610556610502565b5b80604052505050565b5f6105696103ef565b9050610575828261052f565b919050565b5f67ffffffffffffffff82111561059457610593610502565b5b61059d826104f2565b9050602081019050919050565b828183375f83830152505050565b5f6105ca6105c58461057a565b610560565b9050828152602081018484840111156105e6576105e56104ee565b5b6105f18482856105aa565b509392505050565b5f82601f83011261060d5761060c6104ea565b5b813561061d8482602086016105b8565b91505092915050565b60038110610632575f80fd5b50565b5f8135905061064381610626565b92915050565b60078110610655575f80fd5b50565b5f8135905061066681610649565b92915050565b5f805f60608486031215610683576106826103f8565b5b5f84013567ffffffffffffffff8111156106a05761069f6103fc565b5b6106ac868287016105f9565b93505060206106bd86828701610635565b92505060406106ce86828701610658565b9150509250925092565b5f81519050919050565b5f82825260208201905092915050565b5f5b8381101561070f5780820151818401526020810190506106f4565b5f8484015250505050565b5f610724826106d8565b61072e81856106e2565b935061073e8185602086016106f2565b610747816104f2565b840191505092915050565b600781106107635761076261045e565b5b50565b5f81905061077382610752565b919050565b5f61078282610766565b9050919050565b61079281610778565b82525050565b5f8115159050919050565b6107ac81610798565b82525050565b5f6080820190508181035f8301526107ca818761071a565b90506107d960208301866104c2565b6107e66040830185610789565b6107f360608301846107a3565b95945050505050565b5f60208201905061080f5f830184610789565b92915050565b7f4e487b71000000000000000000000000000000000000000000000000000000005f52603260045260245ffd5b7f4e487b71000000000000000000000000000000000000000000000000000000005f52602260045260245ffd5b5f600282049050600182168061088657607f821691505b60208210810361089957610898610842565b5b50919050565b5f819050815f5260205f209050919050565b5f6020601f8301049050919050565b5f82821b905092915050565b5f600883026108fb7fffffffffffffffffffffffffffffffffffffffffffffffffffffffffffffffff826108c0565b61090586836108c0565b95508019841693508086168417925050509392505050565b5f819050919050565b5f61094061093b61093684610400565b61091d565b610400565b9050919050565b5f819050919050565b61095983610926565b61096d61096582610947565b8484546108cc565b825550505050565b5f90565b610981610975565b61098c818484610950565b505050565b5b818110156109af576109a45f82610979565b600181019050610992565b5050565b601f8211156109f4576109c58161089f565b6109ce846108b1565b810160208510156109dd578190505b6109f16109e9856108b1565b830182610991565b50505b505050565b5f82821c905092915050565b5f610a145f19846008026109f9565b1980831691505092915050565b5f610a2c8383610a05565b9150826002028217905092915050565b610a45826106d8565b67ffffffffffffffff811115610a5e57610a5d610502565b5b610a68825461086f565b610a738282856109b3565b5f60209050601f831160018114610aa4575f8415610a92578287015190505b610a9c8582610a21565b865550610b03565b601f198416610ab28661089f565b5f5b82811015610ad957848901518255600182019150602085019450602081019050610ab4565b86831015610af65784890151610af2601f891682610a05565b8355505b6001600288020188555050505b50505050505056fea264697066735822122037d028e4ddde1fd10d500fc79d8ee5617c1a857a3281749a255c58e651f2b6a464736f6c63430008150033",
					"opcodes": "PUSH1 0x80 PUSH1 0x40 MSTORE CALLVALUE DUP1 ISZERO PUSH2 0xF JUMPI PUSH0 DUP1 REVERT JUMPDEST POP PUSH2 0xB41 DUP1 PUSH2 0x1D PUSH0 CODECOPY PUSH0 RETURN INVALID PUSH1 0x80 PUSH1 0x40 MSTORE CALLVALUE DUP1 ISZERO PUSH2 0xF JUMPI PUSH0 DUP1 REVERT JUMPDEST POP PUSH1 0x4 CALLDATASIZE LT PUSH2 0x55 JUMPI PUSH0 CALLDATALOAD PUSH1 0xE0 SHR DUP1 PUSH4 0x163E0F46 EQ PUSH2 0x59 JUMPI DUP1 PUSH4 0x826C38C7 EQ PUSH2 0x89 JUMPI DUP1 PUSH4 0xB1D36506 EQ PUSH2 0xA5 JUMPI DUP1 PUSH4 0xC129FF32 EQ PUSH2 0xC1 JUMPI DUP1 PUSH4 0xFFA8F551 EQ PUSH2 0xF4 JUMPI JUMPDEST PUSH0 DUP1 REVERT JUMPDEST PUSH2 0x73 PUSH1 0x4 DUP1 CALLDATASIZE SUB DUP2 ADD SWAP1 PUSH2 0x6E SWAP2 SWAP1 PUSH2 0x433 JUMP JUMPDEST PUSH2 0x124 JUMP JUMPDEST PUSH1 0x40 MLOAD PUSH2 0x80 SWAP2 SWAP1 PUSH2 0x4D1 JUMP JUMPDEST PUSH1 0x40 MLOAD DUP1 SWAP2 SUB SWAP1 RETURN JUMPDEST PUSH2 0xA3 PUSH1 0x4 DUP1 CALLDATASIZE SUB DUP2 ADD SWAP1 PUSH2 0x9E SWAP2 SWAP1 PUSH2 0x433 JUMP JUMPDEST PUSH2 0x15B JUMP JUMPDEST STOP JUMPDEST PUSH2 0xBF PUSH1 0x4 DUP1 CALLDATASIZE SUB DUP2 ADD SWAP1 PUSH2 0xBA SWAP2 SWAP1 PUSH2 0x66C JUMP JUMPDEST PUSH2 0x1C8 JUMP JUMPDEST STOP JUMPDEST PUSH2 0xDB PUSH1 0x4 DUP1 CALLDATASIZE SUB DUP2 ADD SWAP1 PUSH2 0xD6 SWAP2 SWAP1 PUSH2 0x433 JUMP JUMPDEST PUSH2 0x2D1 JUMP JUMPDEST PUSH1 0x40 MLOAD PUSH2 0xEB SWAP5 SWAP4 SWAP3 SWAP2 SWAP1 PUSH2 0x7B2 JUMP JUMPDEST PUSH1 0x40 MLOAD DUP1 SWAP2 SUB SWAP1 RETURN JUMPDEST PUSH2 0x10E PUSH1 0x4 DUP1 CALLDATASIZE SUB DUP2 ADD SWAP1 PUSH2 0x109 SWAP2 SWAP1 PUSH2 0x433 JUMP JUMPDEST PUSH2 0x3B7 JUMP JUMPDEST PUSH1 0x40 MLOAD PUSH2 0x11B SWAP2 SWAP1 PUSH2 0x7FC JUMP JUMPDEST PUSH1 0x40 MLOAD DUP1 SWAP2 SUB SWAP1 RETURN JUMPDEST PUSH0 DUP1 DUP3 DUP2 SLOAD DUP2 LT PUSH2 0x138 JUMPI PUSH2 0x137 PUSH2 0x815 JUMP JUMPDEST JUMPDEST SWAP1 PUSH0 MSTORE PUSH1 0x20 PUSH0 KECCAK256 SWAP1 PUSH1 0x2 MUL ADD PUSH1 0x1 ADD PUSH0 SWAP1 SLOAD SWAP1 PUSH2 0x100 EXP SWAP1 DIV PUSH1 0xFF AND SWAP1 POP SWAP2 SWAP1 POP JUMP JUMPDEST PUSH0 DUP2 DUP2 SLOAD DUP2 LT PUSH2 0x16E JUMPI PUSH2 0x16D PUSH2 0x815 JUMP JUMPDEST JUMPDEST SWAP1 PUSH0 MSTORE PUSH1 0x20 PUSH0 KECCAK256 SWAP1 PUSH1 0x2 MUL ADD PUSH1 0x1 ADD PUSH1 0x2 SWAP1 SLOAD SWAP1 PUSH2 0x100 EXP SWAP1 DIV PUSH1 0xFF AND ISZERO PUSH0 DUP3 DUP2 SLOAD DUP2 LT PUSH2 0x19F JUMPI PUSH2 0x19E PUSH2 0x815 JUMP JUMPDEST JUMPDEST SWAP1 PUSH0 MSTORE PUSH1 0x20 PUSH0 KECCAK256 SWAP1 PUSH1 0x2 MUL ADD PUSH1 0x1 ADD PUSH1 0x2 PUSH2 0x100 EXP DUP2 SLOAD DUP2 PUSH1 0xFF MUL NOT AND SWAP1 DUP4 ISZERO ISZERO MUL OR SWAP1 SSTORE POP POP JUMP JUMPDEST PUSH0 PUSH1 0x40 MLOAD DUP1 PUSH1 0x80 ADD PUSH1 0x40 MSTORE DUP1 DUP6 DUP2 MSTORE PUSH1 0x20 ADD DUP5 PUSH1 0x2 DUP2 GT ISZERO PUSH2 0x1ED JUMPI PUSH2 0x1EC PUSH2 0x45E JUMP JUMPDEST JUMPDEST DUP2 MSTORE PUSH1 0x20 ADD DUP4 PUSH1 0x6 DUP2 GT ISZERO PUSH2 0x205 JUMPI PUSH2 0x204 PUSH2 0x45E JUMP JUMPDEST JUMPDEST DUP2 MSTORE PUSH1 0x20 ADD PUSH1 0x1 ISZERO ISZERO DUP2 MSTORE POP SWAP1 DUP1 PUSH1 0x1 DUP2 SLOAD ADD DUP1 DUP3 SSTORE DUP1 SWAP2 POP POP PUSH1 0x1 SWAP1 SUB SWAP1 PUSH0 MSTORE PUSH1 0x20 PUSH0 KECCAK256 SWAP1 PUSH1 0x2 MUL ADD PUSH0 SWAP1 SWAP2 SWAP1 SWAP2 SWAP1 SWAP2 POP PUSH0 DUP3 ADD MLOAD DUP2 PUSH0 ADD SWAP1 DUP2 PUSH2 0x24A SWAP2 SWAP1 PUSH2 0xA3C JUMP JUMPDEST POP PUSH1 0x20 DUP3 ADD MLOAD DUP2 PUSH1 0x1 ADD PUSH0 PUSH2 0x100 EXP DUP2 SLOAD DUP2 PUSH1 0xFF MUL NOT AND SWAP1 DUP4 PUSH1 0x2 DUP2 GT ISZERO PUSH2 0x275 JUMPI PUSH2 0x274 PUSH2 0x45E JUMP JUMPDEST JUMPDEST MUL OR SWAP1 SSTORE POP PUSH1 0x40 DUP3 ADD MLOAD DUP2 PUSH1 0x1 ADD PUSH1 0x1 PUSH2 0x100 EXP DUP2 SLOAD DUP2 PUSH1 0xFF MUL NOT AND SWAP1 DUP4 PUSH1 0x6 DUP2 GT ISZERO PUSH2 0x2A5 JUMPI PUSH2 0x2A4 PUSH2 0x45E JUMP JUMPDEST JUMPDEST MUL OR SWAP1 SSTORE POP PUSH1 0x60 DUP3 ADD MLOAD DUP2 PUSH1 0x1 ADD PUSH1 0x2 PUSH2 0x100 EXP DUP2 SLOAD DUP2 PUSH1 0xFF MUL NOT AND SWAP1 DUP4 ISZERO ISZERO MUL OR SWAP1 SSTORE POP POP POP POP POP POP JUMP JUMPDEST PUSH0 DUP2 DUP2 SLOAD DUP2 LT PUSH2 0x2DF JUMPI PUSH0 DUP1 REVERT JUMPDEST SWAP1 PUSH0 MSTORE PUSH1 0x20 PUSH0 KECCAK256 SWAP1 PUSH1 0x2 MUL ADD PUSH0 SWAP2 POP SWAP1 POP DUP1 PUSH0 ADD DUP1 SLOAD PUSH2 0x2FE SWAP1 PUSH2 0x86F JUMP JUMPDEST DUP1 PUSH1 0x1F ADD PUSH1 0x20 DUP1 SWAP2 DIV MUL PUSH1 0x20 ADD PUSH1 0x40 MLOAD SWAP1 DUP2 ADD PUSH1 0x40 MSTORE DUP1 SWAP3 SWAP2 SWAP1 DUP2 DUP2 MSTORE PUSH1 0x20 ADD DUP3 DUP1 SLOAD PUSH2 0x32A SWAP1 PUSH2 0x86F JUMP JUMPDEST DUP1 ISZERO PUSH2 0x375 JUMPI DUP1 PUSH1 0x1F LT PUSH2 0x34C JUMPI PUSH2 0x100 DUP1 DUP4 SLOAD DIV MUL DUP4 MSTORE SWAP2 PUSH1 0x20 ADD SWAP2 PUSH2 0x375 JUMP JUMPDEST DUP3 ADD SWAP2 SWAP1 PUSH0 MSTORE PUSH1 0x20 PUSH0 KECCAK256 SWAP1 JUMPDEST DUP2 SLOAD DUP2 MSTORE SWAP1 PUSH1 0x1 ADD SWAP1 PUSH1 0x20 ADD DUP1 DUP4 GT PUSH2 0x358 JUMPI DUP3 SWAP1 SUB PUSH1 0x1F AND DUP3 ADD SWAP2 JUMPDEST POP POP POP POP POP SWAP1 DUP1 PUSH1 0x1 ADD PUSH0 SWAP1 SLOAD SWAP1 PUSH2 0x100 EXP SWAP1 DIV PUSH1 0xFF AND SWAP1 DUP1 PUSH1 0x1 ADD PUSH1 0x1 SWAP1 SLOAD SWAP1 PUSH2 0x100 EXP SWAP1 DIV PUSH1 0xFF AND SWAP1 DUP1 PUSH1 0x1 ADD PUSH1 0x2 SWAP1 SLOAD SWAP1 PUSH2 0x100 EXP SWAP1 DIV PUSH1 0xFF AND SWAP1 POP DUP5 JUMP JUMPDEST PUSH0 DUP1 DUP3 DUP2 SLOAD DUP2 LT PUSH2 0x3CB JUMPI PUSH2 0x3CA PUSH2 0x815 JUMP JUMPDEST JUMPDEST SWAP1 PUSH0 MSTORE PUSH1 0x20 PUSH0 KECCAK256 SWAP1 PUSH1 0x2 MUL ADD PUSH1 0x1 ADD PUSH1 0x1 SWAP1 SLOAD SWAP1 PUSH2 0x100 EXP SWAP1 DIV PUSH1 0xFF AND SWAP1 POP SWAP2 SWAP1 POP JUMP JUMPDEST PUSH0 PUSH1 0x40 MLOAD SWAP1 POP SWAP1 JUMP JUMPDEST PUSH0 DUP1 REVERT JUMPDEST PUSH0 DUP1 REVERT JUMPDEST PUSH0 DUP2 SWAP1 POP SWAP2 SWAP1 POP JUMP JUMPDEST PUSH2 0x412 DUP2 PUSH2 0x400 JUMP JUMPDEST DUP2 EQ PUSH2 0x41C JUMPI PUSH0 DUP1 REVERT JUMPDEST POP JUMP JUMPDEST PUSH0 DUP2 CALLDATALOAD SWAP1 POP PUSH2 0x42D DUP2 PUSH2 0x409 JUMP JUMPDEST SWAP3 SWAP2 POP POP JUMP JUMPDEST PUSH0 PUSH1 0x20 DUP3 DUP5 SUB SLT ISZERO PUSH2 0x448 JUMPI PUSH2 0x447 PUSH2 0x3F8 JUMP JUMPDEST JUMPDEST PUSH0 PUSH2 0x455 DUP5 DUP3 DUP6 ADD PUSH2 0x41F JUMP JUMPDEST SWAP2 POP POP SWAP3 SWAP2 POP POP JUMP JUMPDEST PUSH32 0x4E487B7100000000000000000000000000000000000000000000000000000000 PUSH0 MSTORE PUSH1 0x21 PUSH1 0x4 MSTORE PUSH1 0x24 PUSH0 REVERT JUMPDEST PUSH1 0x3 DUP2 LT PUSH2 0x49C JUMPI PUSH2 0x49B PUSH2 0x45E JUMP JUMPDEST JUMPDEST POP JUMP JUMPDEST PUSH0 DUP2 SWAP1 POP PUSH2 0x4AC DUP3 PUSH2 0x48B JUMP JUMPDEST SWAP2 SWAP1 POP JUMP JUMPDEST PUSH0 PUSH2 0x4BB DUP3 PUSH2 0x49F JUMP JUMPDEST SWAP1 POP SWAP2 SWAP1 POP JUMP JUMPDEST PUSH2 0x4CB DUP2 PUSH2 0x4B1 JUMP JUMPDEST DUP3 MSTORE POP POP JUMP JUMPDEST PUSH0 PUSH1 0x20 DUP3 ADD SWAP1 POP PUSH2 0x4E4 PUSH0 DUP4 ADD DUP5 PUSH2 0x4C2 JUMP JUMPDEST SWAP3 SWAP2 POP POP JUMP JUMPDEST PUSH0 DUP1 REVERT JUMPDEST PUSH0 DUP1 REVERT JUMPDEST PUSH0 PUSH1 0x1F NOT PUSH1 0x1F DUP4 ADD AND SWAP1 POP SWAP2 SWAP1 POP JUMP JUMPDEST PUSH32 0x4E487B7100000000000000000000000000000000000000000000000000000000 PUSH0 MSTORE PUSH1 0x41 PUSH1 0x4 MSTORE PUSH1 0x24 PUSH0 REVERT JUMPDEST PUSH2 0x538 DUP3 PUSH2 0x4F2 JUMP JUMPDEST DUP2 ADD DUP2 DUP2 LT PUSH8 0xFFFFFFFFFFFFFFFF DUP3 GT OR ISZERO PUSH2 0x557 JUMPI PUSH2 0x556 PUSH2 0x502 JUMP JUMPDEST JUMPDEST DUP1 PUSH1 0x40 MSTORE POP POP POP JUMP JUMPDEST PUSH0 PUSH2 0x569 PUSH2 0x3EF JUMP JUMPDEST SWAP1 POP PUSH2 0x575 DUP3 DUP3 PUSH2 0x52F JUMP JUMPDEST SWAP2 SWAP1 POP JUMP JUMPDEST PUSH0 PUSH8 0xFFFFFFFFFFFFFFFF DUP3 GT ISZERO PUSH2 0x594 JUMPI PUSH2 0x593 PUSH2 0x502 JUMP JUMPDEST JUMPDEST PUSH2 0x59D DUP3 PUSH2 0x4F2 JUMP JUMPDEST SWAP1 POP PUSH1 0x20 DUP2 ADD SWAP1 POP SWAP2 SWAP1 POP JUMP JUMPDEST DUP3 DUP2 DUP4 CALLDATACOPY PUSH0 DUP4 DUP4 ADD MSTORE POP POP POP JUMP JUMPDEST PUSH0 PUSH2 0x5CA PUSH2 0x5C5 DUP5 PUSH2 0x57A JUMP JUMPDEST PUSH2 0x560 JUMP JUMPDEST SWAP1 POP DUP3 DUP2 MSTORE PUSH1 0x20 DUP2 ADD DUP5 DUP5 DUP5 ADD GT ISZERO PUSH2 0x5E6 JUMPI PUSH2 0x5E5 PUSH2 0x4EE JUMP JUMPDEST JUMPDEST PUSH2 0x5F1 DUP5 DUP3 DUP6 PUSH2 0x5AA JUMP JUMPDEST POP SWAP4 SWAP3 POP POP POP JUMP JUMPDEST PUSH0 DUP3 PUSH1 0x1F DUP4 ADD SLT PUSH2 0x60D JUMPI PUSH2 0x60C PUSH2 0x4EA JUMP JUMPDEST JUMPDEST DUP2 CALLDATALOAD PUSH2 0x61D DUP5 DUP3 PUSH1 0x20 DUP7 ADD PUSH2 0x5B8 JUMP JUMPDEST SWAP2 POP POP SWAP3 SWAP2 POP POP JUMP JUMPDEST PUSH1 0x3 DUP2 LT PUSH2 0x632 JUMPI PUSH0 DUP1 REVERT JUMPDEST POP JUMP JUMPDEST PUSH0 DUP2 CALLDATALOAD SWAP1 POP PUSH2 0x643 DUP2 PUSH2 0x626 JUMP JUMPDEST SWAP3 SWAP2 POP POP JUMP JUMPDEST PUSH1 0x7 DUP2 LT PUSH2 0x655 JUMPI PUSH0 DUP1 REVERT JUMPDEST POP JUMP JUMPDEST PUSH0 DUP2 CALLDATALOAD SWAP1 POP PUSH2 0x666 DUP2 PUSH2 0x649 JUMP JUMPDEST SWAP3 SWAP2 POP POP JUMP JUMPDEST PUSH0 DUP1 PUSH0 PUSH1 0x60 DUP5 DUP7 SUB SLT ISZERO PUSH2 0x683 JUMPI PUSH2 0x682 PUSH2 0x3F8 JUMP JUMPDEST JUMPDEST PUSH0 DUP5 ADD CALLDATALOAD PUSH8 0xFFFFFFFFFFFFFFFF DUP2 GT ISZERO PUSH2 0x6A0 JUMPI PUSH2 0x69F PUSH2 0x3FC JUMP JUMPDEST JUMPDEST PUSH2 0x6AC DUP7 DUP3 DUP8 ADD PUSH2 0x5F9 JUMP JUMPDEST SWAP4 POP POP PUSH1 0x20 PUSH2 0x6BD DUP7 DUP3 DUP8 ADD PUSH2 0x635 JUMP JUMPDEST SWAP3 POP POP PUSH1 0x40 PUSH2 0x6CE DUP7 DUP3 DUP8 ADD PUSH2 0x658 JUMP JUMPDEST SWAP2 POP POP SWAP3 POP SWAP3 POP SWAP3 JUMP JUMPDEST PUSH0 DUP2 MLOAD SWAP1 POP SWAP2 SWAP1 POP JUMP JUMPDEST PUSH0 DUP3 DUP3 MSTORE PUSH1 0x20 DUP3 ADD SWAP1 POP SWAP3 SWAP2 POP POP JUMP JUMPDEST PUSH0 JUMPDEST DUP4 DUP2 LT ISZERO PUSH2 0x70F JUMPI DUP1 DUP3 ADD MLOAD DUP2 DUP5 ADD MSTORE PUSH1 0x20 DUP2 ADD SWAP1 POP PUSH2 0x6F4 JUMP JUMPDEST PUSH0 DUP5 DUP5 ADD MSTORE POP POP POP POP JUMP JUMPDEST PUSH0 PUSH2 0x724 DUP3 PUSH2 0x6D8 JUMP JUMPDEST PUSH2 0x72E DUP2 DUP6 PUSH2 0x6E2 JUMP JUMPDEST SWAP4 POP PUSH2 0x73E DUP2 DUP6 PUSH1 0x20 DUP7 ADD PUSH2 0x6F2 JUMP JUMPDEST PUSH2 0x747 DUP2 PUSH2 0x4F2 JUMP JUMPDEST DUP5 ADD SWAP2 POP POP SWAP3 SWAP2 POP POP JUMP JUMPDEST PUSH1 0x7 DUP2 LT PUSH2 0x763 JUMPI PUSH2 0x762 PUSH2 0x45E JUMP JUMPDEST JUMPDEST POP JUMP JUMPDEST PUSH0 DUP2 SWAP1 POP PUSH2 0x773 DUP3 PUSH2 0x752 JUMP JUMPDEST SWAP2 SWAP1 POP JUMP JUMPDEST PUSH0 PUSH2 0x782 DUP3 PUSH2 0x766 JUMP JUMPDEST SWAP1 POP SWAP2 SWAP1 POP JUMP JUMPDEST PUSH2 0x792 DUP2 PUSH2 0x778 JUMP JUMPDEST DUP3 MSTORE POP POP JUMP JUMPDEST PUSH0 DUP2 ISZERO ISZERO SWAP1 POP SWAP2 SWAP1 POP JUMP JUMPDEST PUSH2 0x7AC DUP2 PUSH2 0x798 JUMP JUMPDEST DUP3 MSTORE POP POP JUMP JUMPDEST PUSH0 PUSH1 0x80 DUP3 ADD SWAP1 POP DUP2 DUP2 SUB PUSH0 DUP4 ADD MSTORE PUSH2 0x7CA DUP2 DUP8 PUSH2 0x71A JUMP JUMPDEST SWAP1 POP PUSH2 0x7D9 PUSH1 0x20 DUP4 ADD DUP7 PUSH2 0x4C2 JUMP JUMPDEST PUSH2 0x7E6 PUSH1 0x40 DUP4 ADD DUP6 PUSH2 0x789 JUMP JUMPDEST PUSH2 0x7F3 PUSH1 0x60 DUP4 ADD DUP5 PUSH2 0x7A3 JUMP JUMPDEST SWAP6 SWAP5 POP POP POP POP POP JUMP JUMPDEST PUSH0 PUSH1 0x20 DUP3 ADD SWAP1 POP PUSH2 0x80F PUSH0 DUP4 ADD DUP5 PUSH2 0x789 JUMP JUMPDEST SWAP3 SWAP2 POP POP JUMP JUMPDEST PUSH32 0x4E487B7100000000000000000000000000000000000000000000000000000000 PUSH0 MSTORE PUSH1 0x32 PUSH1 0x4 MSTORE PUSH1 0x24 PUSH0 REVERT JUMPDEST PUSH32 0x4E487B7100000000000000000000000000000000000000000000000000000000 PUSH0 MSTORE PUSH1 0x22 PUSH1 0x4 MSTORE PUSH1 0x24 PUSH0 REVERT JUMPDEST PUSH0 PUSH1 0x2 DUP3 DIV SWAP1 POP PUSH1 0x1 DUP3 AND DUP1 PUSH2 0x886 JUMPI PUSH1 0x7F DUP3 AND SWAP2 POP JUMPDEST PUSH1 0x20 DUP3 LT DUP2 SUB PUSH2 0x899 JUMPI PUSH2 0x898 PUSH2 0x842 JUMP JUMPDEST JUMPDEST POP SWAP2 SWAP1 POP JUMP JUMPDEST PUSH0 DUP2 SWAP1 POP DUP2 PUSH0 MSTORE PUSH1 0x20 PUSH0 KECCAK256 SWAP1 POP SWAP2 SWAP1 POP JUMP JUMPDEST PUSH0 PUSH1 0x20 PUSH1 0x1F DUP4 ADD DIV SWAP1 POP SWAP2 SWAP1 POP JUMP JUMPDEST PUSH0 DUP3 DUP3 SHL SWAP1 POP SWAP3 SWAP2 POP POP JUMP JUMPDEST PUSH0 PUSH1 0x8 DUP4 MUL PUSH2 0x8FB PUSH32 0xFFFFFFFFFFFFFFFFFFFFFFFFFFFFFFFFFFFFFFFFFFFFFFFFFFFFFFFFFFFFFFFF DUP3 PUSH2 0x8C0 JUMP JUMPDEST PUSH2 0x905 DUP7 DUP4 PUSH2 0x8C0 JUMP JUMPDEST SWAP6 POP DUP1 NOT DUP5 AND SWAP4 POP DUP1 DUP7 AND DUP5 OR SWAP3 POP POP POP SWAP4 SWAP3 POP POP POP JUMP JUMPDEST PUSH0 DUP2 SWAP1 POP SWAP2 SWAP1 POP JUMP JUMPDEST PUSH0 PUSH2 0x940 PUSH2 0x93B PUSH2 0x936 DUP5 PUSH2 0x400 JUMP JUMPDEST PUSH2 0x91D JUMP JUMPDEST PUSH2 0x400 JUMP JUMPDEST SWAP1 POP SWAP2 SWAP1 POP JUMP JUMPDEST PUSH0 DUP2 SWAP1 POP SWAP2 SWAP1 POP JUMP JUMPDEST PUSH2 0x959 DUP4 PUSH2 0x926 JUMP JUMPDEST PUSH2 0x96D PUSH2 0x965 DUP3 PUSH2 0x947 JUMP JUMPDEST DUP5 DUP5 SLOAD PUSH2 0x8CC JUMP JUMPDEST DUP3 SSTORE POP POP POP POP JUMP JUMPDEST PUSH0 SWAP1 JUMP JUMPDEST PUSH2 0x981 PUSH2 0x975 JUMP JUMPDEST PUSH2 0x98C DUP2 DUP5 DUP5 PUSH2 0x950 JUMP JUMPDEST POP POP POP JUMP JUMPDEST JUMPDEST DUP2 DUP2 LT ISZERO PUSH2 0x9AF JUMPI PUSH2 0x9A4 PUSH0 DUP3 PUSH2 0x979 JUMP JUMPDEST PUSH1 0x1 DUP2 ADD SWAP1 POP PUSH2 0x992 JUMP JUMPDEST POP POP JUMP JUMPDEST PUSH1 0x1F DUP3 GT ISZERO PUSH2 0x9F4 JUMPI PUSH2 0x9C5 DUP2 PUSH2 0x89F JUMP JUMPDEST PUSH2 0x9CE DUP5 PUSH2 0x8B1 JUMP JUMPDEST DUP2 ADD PUSH1 0x20 DUP6 LT ISZERO PUSH2 0x9DD JUMPI DUP2 SWAP1 POP JUMPDEST PUSH2 0x9F1 PUSH2 0x9E9 DUP6 PUSH2 0x8B1 JUMP JUMPDEST DUP4 ADD DUP3 PUSH2 0x991 JUMP JUMPDEST POP POP JUMPDEST POP POP POP JUMP JUMPDEST PUSH0 DUP3 DUP3 SHR SWAP1 POP SWAP3 SWAP2 POP POP JUMP JUMPDEST PUSH0 PUSH2 0xA14 PUSH0 NOT DUP5 PUSH1 0x8 MUL PUSH2 0x9F9 JUMP JUMPDEST NOT DUP1 DUP4 AND SWAP2 POP POP SWAP3 SWAP2 POP POP JUMP JUMPDEST PUSH0 PUSH2 0xA2C DUP4 DUP4 PUSH2 0xA05 JUMP JUMPDEST SWAP2 POP DUP3 PUSH1 0x2 MUL DUP3 OR SWAP1 POP SWAP3 SWAP2 POP POP JUMP JUMPDEST PUSH2 0xA45 DUP3 PUSH2 0x6D8 JUMP JUMPDEST PUSH8 0xFFFFFFFFFFFFFFFF DUP2 GT ISZERO PUSH2 0xA5E JUMPI PUSH2 0xA5D PUSH2 0x502 JUMP JUMPDEST JUMPDEST PUSH2 0xA68 DUP3 SLOAD PUSH2 0x86F JUMP JUMPDEST PUSH2 0xA73 DUP3 DUP3 DUP6 PUSH2 0x9B3 JUMP JUMPDEST PUSH0 PUSH1 0x20 SWAP1 POP PUSH1 0x1F DUP4 GT PUSH1 0x1 DUP2 EQ PUSH2 0xAA4 JUMPI PUSH0 DUP5 ISZERO PUSH2 0xA92 JUMPI DUP3 DUP8 ADD MLOAD SWAP1 POP JUMPDEST PUSH2 0xA9C DUP6 DUP3 PUSH2 0xA21 JUMP JUMPDEST DUP7 SSTORE POP PUSH2 0xB03 JUMP JUMPDEST PUSH1 0x1F NOT DUP5 AND PUSH2 0xAB2 DUP7 PUSH2 0x89F JUMP JUMPDEST PUSH0 JUMPDEST DUP3 DUP2 LT ISZERO PUSH2 0xAD9 JUMPI DUP5 DUP10 ADD MLOAD DUP3 SSTORE PUSH1 0x1 DUP3 ADD SWAP2 POP PUSH1 0x20 DUP6 ADD SWAP5 POP PUSH1 0x20 DUP2 ADD SWAP1 POP PUSH2 0xAB4 JUMP JUMPDEST DUP7 DUP4 LT ISZERO PUSH2 0xAF6 JUMPI DUP5 DUP10 ADD MLOAD PUSH2 0xAF2 PUSH1 0x1F DUP10 AND DUP3 PUSH2 0xA05 JUMP JUMPDEST DUP4 SSTORE POP JUMPDEST PUSH1 0x1 PUSH1 0x2 DUP9 MUL ADD DUP9 SSTORE POP POP POP JUMPDEST POP POP POP POP POP POP JUMP INVALID LOG2 PUSH5 0x6970667358 0x22 SLT KECCAK256 CALLDATACOPY 0xD0 0x28 0xE4 0xDD 0xDE 0x1F 0xD1 0xD POP 0xF 0xC7 SWAP14 DUP15 0xE5 PUSH2 0x7C1A DUP6 PUSH27 0x3281749A255C58E651F2B6A464736F6C6343000815003300000000 "
				},
				"gasEstimates": {
					"creation": {
						"codeDepositCost": "576200",
						"executionCost": "611",
						"totalCost": "576811"
					},
					"external": {
						"bookTicket(string,uint8,uint8)": "infinite",
						"getTicketType(uint256)": "4995",
						"getTicketday(uint256)": "5134",
						"ticket(uint256)": "infinite",
						"togglestatus(uint256)": "31295"
					}
				},
				"methodIdentifiers": {
					"bookTicket(string,uint8,uint8)": "b1d36506",
					"getTicketType(uint256)": "163e0f46",
					"getTicketday(uint256)": "ffa8f551",
					"ticket(uint256)": "c129ff32",
					"togglestatus(uint256)": "826c38c7"
				}
			},
			"storageLayout": {
				"storage": [
					{
						"astId": 28,
						"contract": "Labs (August)/ticket_booking_system.sol:TicketBookingSystem",
						"label": "ticket",
						"offset": 0,
						"slot": "0",
						"type": "t_array(t_struct(Ticket)24_storage)dyn_storage"
					}
				],
				"types": {
					"t_array(t_struct(Ticket)24_storage)dyn_storage": {
						"base": "t_struct(Ticket)24_storage",
						"encoding": "dynamic_array",
						"label": "struct TicketBookingSystem.Ticket[]",
						"numberOfBytes": "32"
					},
					"t_bool": {
						"encoding": "inplace",
						"label": "bool",
						"numberOfBytes": "1"
					},
					"t_enum(Days)13": {
						"encoding": "inplace",
						"label": "enum TicketBookingSystem.Days",
						"numberOfBytes": "1"
					},
					"t_enum(TicketType)5": {
						"encoding": "inplace",
						"label": "enum TicketBookingSystem.TicketType",
						"numberOfBytes": "1"
					},
					"t_string_storage": {
						"encoding": "bytes",
						"label": "string",
						"numberOfBytes": "32"
					},
					"t_struct(Ticket)24_storage": {
						"encoding": "inplace",
						"label": "struct TicketBookingSystem.Ticket",
						"members": [
							{
								"astId": 15,
								"contract": "Labs (August)/ticket_booking_system.sol:TicketBookingSystem",
								"label": "passenger",
								"offset": 0,
								"slot": "0",
								"type": "t_string_storage"
							},
							{
								"astId": 18,
								"contract": "Labs (August)/ticket_booking_system.sol:TicketBookingSystem",
								"label": "ticketType",
								"offset": 0,
								"slot": "1",
								"type": "t_enum(TicketType)5"
							},
							{
								"astId": 21,
								"contract": "Labs (August)/ticket_booking_system.sol:TicketBookingSystem",
								"label": "day",
								"offset": 1,
								"slot": "1",
								"type": "t_enum(Days)13"
							},
							{
								"astId": 23,
								"contract": "Labs (August)/ticket_booking_system.sol:TicketBookingSystem",
								"label": "isbooked",
								"offset": 2,
								"slot": "1",
								"type": "t_bool"
							}
						],
						"numberOfBytes": "64"
					}
				}
			},
			"userdoc": {
				"kind": "user",
				"methods": {},
				"version": 1
			}
		}
	}
}