{
	"Labs (August)/Loops.sol": {
		"Loop": {
			"abi": [
				{
					"inputs": [
						{
							"internalType": "uint256",
							"name": "_num",
							"type": "uint256"
						}
					],
					"name": "PrimeChecker",
					"outputs": [
						{
							"internalType": "bool",
							"name": "is_prime",
							"type": "bool"
						}
					],
					"stateMutability": "pure",
					"type": "function"
				}
			],
			"devdoc": {
				"kind": "dev",
				"methods": {},
				"version": 1
			},
			"evm": {
				"assembly": "    /* \"Labs (August)/Loops.sol\":59:447  contract Loop {... */\n  mstore(0x40, 0x80)\n  callvalue\n  dup1\n  iszero\n  tag_1\n  jumpi\n  0x00\n  dup1\n  revert\ntag_1:\n  pop\n  dataSize(sub_0)\n  dup1\n  dataOffset(sub_0)\n  0x00\n  codecopy\n  0x00\n  return\nstop\n\nsub_0: assembly {\n        /* \"Labs (August)/Loops.sol\":59:447  contract Loop {... */\n      mstore(0x40, 0x80)\n      callvalue\n      dup1\n      iszero\n      tag_1\n      jumpi\n      0x00\n      dup1\n      revert\n    tag_1:\n      pop\n      jumpi(tag_2, lt(calldatasize, 0x04))\n      shr(0xe0, calldataload(0x00))\n      dup1\n      0xfe2c2cde\n      eq\n      tag_3\n      jumpi\n    tag_2:\n      0x00\n      dup1\n      revert\n        /* \"Labs (August)/Loops.sol\":86:444  function PrimeChecker(uint _num) public pure returns (bool is_prime ) {... */\n    tag_3:\n      tag_4\n      0x04\n      dup1\n      calldatasize\n      sub\n      dup2\n      add\n      swap1\n      tag_5\n      swap2\n      swap1\n      tag_6\n      jump\t// in\n    tag_5:\n      tag_7\n      jump\t// in\n    tag_4:\n      mload(0x40)\n      tag_8\n      swap2\n      swap1\n      tag_9\n      jump\t// in\n    tag_8:\n      mload(0x40)\n      dup1\n      swap2\n      sub\n      swap1\n      return\n    tag_7:\n        /* \"Labs (August)/Loops.sol\":140:153  bool is_prime */\n      0x00\n        /* \"Labs (August)/Loops.sol\":169:175  uint j */\n      dup1\n        /* \"Labs (August)/Loops.sol\":177:178  2 */\n      0x02\n        /* \"Labs (August)/Loops.sol\":169:178  uint j =2 */\n      swap1\n      pop\n        /* \"Labs (August)/Loops.sol\":199:203  true */\n      0x01\n        /* \"Labs (August)/Loops.sol\":189:203  is_prime= true */\n      swap2\n      pop\n        /* \"Labs (August)/Loops.sol\":226:227  0 */\n      0x00\n        /* \"Labs (August)/Loops.sol\":218:222  _num */\n      dup4\n        /* \"Labs (August)/Loops.sol\":218:227  _num == 0 */\n      eq\n        /* \"Labs (August)/Loops.sol\":218:240  _num == 0 || _num == 1 */\n      dup1\n      tag_11\n      jumpi\n      pop\n        /* \"Labs (August)/Loops.sol\":239:240  1 */\n      0x01\n        /* \"Labs (August)/Loops.sol\":231:235  _num */\n      dup4\n        /* \"Labs (August)/Loops.sol\":231:240  _num == 1 */\n      eq\n        /* \"Labs (August)/Loops.sol\":218:240  _num == 0 || _num == 1 */\n    tag_11:\n        /* \"Labs (August)/Loops.sol\":214:285  if (_num == 0 || _num == 1) {... */\n      iszero\n      tag_12\n      jumpi\n        /* \"Labs (August)/Loops.sol\":268:273  false */\n      0x00\n        /* \"Labs (August)/Loops.sol\":257:273  is_prime = false */\n      swap2\n      pop\n        /* \"Labs (August)/Loops.sol\":214:285  if (_num == 0 || _num == 1) {... */\n    tag_12:\n        /* \"Labs (August)/Loops.sol\":295:437  while (j <= _num/2 ) { ... */\n    tag_13:\n        /* \"Labs (August)/Loops.sol\":312:313  2 */\n      0x02\n        /* \"Labs (August)/Loops.sol\":307:311  _num */\n      dup4\n        /* \"Labs (August)/Loops.sol\":307:313  _num/2 */\n      tag_15\n      swap2\n      swap1\n      tag_16\n      jump\t// in\n    tag_15:\n        /* \"Labs (August)/Loops.sol\":302:303  j */\n      dup2\n        /* \"Labs (August)/Loops.sol\":302:313  j <= _num/2 */\n      gt\n        /* \"Labs (August)/Loops.sol\":295:437  while (j <= _num/2 ) { ... */\n      tag_14\n      jumpi\n        /* \"Labs (August)/Loops.sol\":349:350  0 */\n      0x00\n        /* \"Labs (August)/Loops.sol\":344:345  j */\n      dup2\n        /* \"Labs (August)/Loops.sol\":337:341  _num */\n      dup5\n        /* \"Labs (August)/Loops.sol\":337:345  _num % j */\n      tag_17\n      swap2\n      swap1\n      tag_18\n      jump\t// in\n    tag_17:\n        /* \"Labs (August)/Loops.sol\":337:350  _num % j == 0 */\n      sub\n        /* \"Labs (August)/Loops.sol\":333:407  if (_num % j == 0) {... */\n      tag_19\n      jumpi\n        /* \"Labs (August)/Loops.sol\":379:384  false */\n      0x00\n        /* \"Labs (August)/Loops.sol\":368:384  is_prime = false */\n      swap2\n      pop\n        /* \"Labs (August)/Loops.sol\":399:404  break */\n      jump(tag_14)\n        /* \"Labs (August)/Loops.sol\":333:407  if (_num % j == 0) {... */\n    tag_19:\n        /* \"Labs (August)/Loops.sol\":421:424  j++ */\n      dup1\n      dup1\n      tag_20\n      swap1\n      tag_21\n      jump\t// in\n    tag_20:\n      swap2\n      pop\n      pop\n        /* \"Labs (August)/Loops.sol\":295:437  while (j <= _num/2 ) { ... */\n      jump(tag_13)\n    tag_14:\n        /* \"Labs (August)/Loops.sol\":156:444  {... */\n      pop\n        /* \"Labs (August)/Loops.sol\":86:444  function PrimeChecker(uint _num) public pure returns (bool is_prime ) {... */\n      swap2\n      swap1\n      pop\n      jump\t// out\n        /* \"#utility.yul\":88:205   */\n    tag_23:\n        /* \"#utility.yul\":197:198   */\n      0x00\n        /* \"#utility.yul\":194:195   */\n      dup1\n        /* \"#utility.yul\":187:199   */\n      revert\n        /* \"#utility.yul\":334:411   */\n    tag_25:\n        /* \"#utility.yul\":371:378   */\n      0x00\n        /* \"#utility.yul\":400:405   */\n      dup2\n        /* \"#utility.yul\":389:405   */\n      swap1\n      pop\n        /* \"#utility.yul\":334:411   */\n      swap2\n      swap1\n      pop\n      jump\t// out\n        /* \"#utility.yul\":417:539   */\n    tag_26:\n        /* \"#utility.yul\":490:514   */\n      tag_38\n        /* \"#utility.yul\":508:513   */\n      dup2\n        /* \"#utility.yul\":490:514   */\n      tag_25\n      jump\t// in\n    tag_38:\n        /* \"#utility.yul\":483:488   */\n      dup2\n        /* \"#utility.yul\":480:515   */\n      eq\n        /* \"#utility.yul\":470:533   */\n      tag_39\n      jumpi\n        /* \"#utility.yul\":529:530   */\n      0x00\n        /* \"#utility.yul\":526:527   */\n      dup1\n        /* \"#utility.yul\":519:531   */\n      revert\n        /* \"#utility.yul\":470:533   */\n    tag_39:\n        /* \"#utility.yul\":417:539   */\n      pop\n      jump\t// out\n        /* \"#utility.yul\":545:684   */\n    tag_27:\n        /* \"#utility.yul\":591:596   */\n      0x00\n        /* \"#utility.yul\":629:635   */\n      dup2\n        /* \"#utility.yul\":616:636   */\n      calldataload\n        /* \"#utility.yul\":607:636   */\n      swap1\n      pop\n        /* \"#utility.yul\":645:678   */\n      tag_41\n        /* \"#utility.yul\":672:677   */\n      dup2\n        /* \"#utility.yul\":645:678   */\n      tag_26\n      jump\t// in\n    tag_41:\n        /* \"#utility.yul\":545:684   */\n      swap3\n      swap2\n      pop\n      pop\n      jump\t// out\n        /* \"#utility.yul\":690:1019   */\n    tag_6:\n        /* \"#utility.yul\":749:755   */\n      0x00\n        /* \"#utility.yul\":798:800   */\n      0x20\n        /* \"#utility.yul\":786:795   */\n      dup3\n        /* \"#utility.yul\":777:784   */\n      dup5\n        /* \"#utility.yul\":773:796   */\n      sub\n        /* \"#utility.yul\":769:801   */\n      slt\n        /* \"#utility.yul\":766:885   */\n      iszero\n      tag_43\n      jumpi\n        /* \"#utility.yul\":804:883   */\n      tag_44\n      tag_23\n      jump\t// in\n    tag_44:\n        /* \"#utility.yul\":766:885   */\n    tag_43:\n        /* \"#utility.yul\":924:925   */\n      0x00\n        /* \"#utility.yul\":949:1002   */\n      tag_45\n        /* \"#utility.yul\":994:1001   */\n      dup5\n        /* \"#utility.yul\":985:991   */\n      dup3\n        /* \"#utility.yul\":974:983   */\n      dup6\n        /* \"#utility.yul\":970:992   */\n      add\n        /* \"#utility.yul\":949:1002   */\n      tag_27\n      jump\t// in\n    tag_45:\n        /* \"#utility.yul\":939:1002   */\n      swap2\n      pop\n        /* \"#utility.yul\":895:1012   */\n      pop\n        /* \"#utility.yul\":690:1019   */\n      swap3\n      swap2\n      pop\n      pop\n      jump\t// out\n        /* \"#utility.yul\":1025:1115   */\n    tag_28:\n        /* \"#utility.yul\":1059:1066   */\n      0x00\n        /* \"#utility.yul\":1102:1107   */\n      dup2\n        /* \"#utility.yul\":1095:1108   */\n      iszero\n        /* \"#utility.yul\":1088:1109   */\n      iszero\n        /* \"#utility.yul\":1077:1109   */\n      swap1\n      pop\n        /* \"#utility.yul\":1025:1115   */\n      swap2\n      swap1\n      pop\n      jump\t// out\n        /* \"#utility.yul\":1121:1230   */\n    tag_29:\n        /* \"#utility.yul\":1202:1223   */\n      tag_48\n        /* \"#utility.yul\":1217:1222   */\n      dup2\n        /* \"#utility.yul\":1202:1223   */\n      tag_28\n      jump\t// in\n    tag_48:\n        /* \"#utility.yul\":1197:1200   */\n      dup3\n        /* \"#utility.yul\":1190:1224   */\n      mstore\n        /* \"#utility.yul\":1121:1230   */\n      pop\n      pop\n      jump\t// out\n        /* \"#utility.yul\":1236:1446   */\n    tag_9:\n        /* \"#utility.yul\":1323:1327   */\n      0x00\n        /* \"#utility.yul\":1361:1363   */\n      0x20\n        /* \"#utility.yul\":1350:1359   */\n      dup3\n        /* \"#utility.yul\":1346:1364   */\n      add\n        /* \"#utility.yul\":1338:1364   */\n      swap1\n      pop\n        /* \"#utility.yul\":1374:1439   */\n      tag_50\n        /* \"#utility.yul\":1436:1437   */\n      0x00\n        /* \"#utility.yul\":1425:1434   */\n      dup4\n        /* \"#utility.yul\":1421:1438   */\n      add\n        /* \"#utility.yul\":1412:1418   */\n      dup5\n        /* \"#utility.yul\":1374:1439   */\n      tag_29\n      jump\t// in\n    tag_50:\n        /* \"#utility.yul\":1236:1446   */\n      swap3\n      swap2\n      pop\n      pop\n      jump\t// out\n        /* \"#utility.yul\":1452:1632   */\n    tag_30:\n        /* \"#utility.yul\":1500:1577   */\n      0x4e487b7100000000000000000000000000000000000000000000000000000000\n        /* \"#utility.yul\":1497:1498   */\n      0x00\n        /* \"#utility.yul\":1490:1578   */\n      mstore\n        /* \"#utility.yul\":1597:1601   */\n      0x12\n        /* \"#utility.yul\":1594:1595   */\n      0x04\n        /* \"#utility.yul\":1587:1602   */\n      mstore\n        /* \"#utility.yul\":1621:1625   */\n      0x24\n        /* \"#utility.yul\":1618:1619   */\n      0x00\n        /* \"#utility.yul\":1611:1626   */\n      revert\n        /* \"#utility.yul\":1638:1818   */\n    tag_31:\n        /* \"#utility.yul\":1686:1763   */\n      0x4e487b7100000000000000000000000000000000000000000000000000000000\n        /* \"#utility.yul\":1683:1684   */\n      0x00\n        /* \"#utility.yul\":1676:1764   */\n      mstore\n        /* \"#utility.yul\":1783:1787   */\n      0x11\n        /* \"#utility.yul\":1780:1781   */\n      0x04\n        /* \"#utility.yul\":1773:1788   */\n      mstore\n        /* \"#utility.yul\":1807:1811   */\n      0x24\n        /* \"#utility.yul\":1804:1805   */\n      0x00\n        /* \"#utility.yul\":1797:1812   */\n      revert\n        /* \"#utility.yul\":1824:2009   */\n    tag_16:\n        /* \"#utility.yul\":1864:1865   */\n      0x00\n        /* \"#utility.yul\":1881:1901   */\n      tag_54\n        /* \"#utility.yul\":1899:1900   */\n      dup3\n        /* \"#utility.yul\":1881:1901   */\n      tag_25\n      jump\t// in\n    tag_54:\n        /* \"#utility.yul\":1876:1901   */\n      swap2\n      pop\n        /* \"#utility.yul\":1915:1935   */\n      tag_55\n        /* \"#utility.yul\":1933:1934   */\n      dup4\n        /* \"#utility.yul\":1915:1935   */\n      tag_25\n      jump\t// in\n    tag_55:\n        /* \"#utility.yul\":1910:1935   */\n      swap3\n      pop\n        /* \"#utility.yul\":1954:1955   */\n      dup3\n        /* \"#utility.yul\":1944:1979   */\n      tag_56\n      jumpi\n        /* \"#utility.yul\":1959:1977   */\n      tag_57\n      tag_30\n      jump\t// in\n    tag_57:\n        /* \"#utility.yul\":1944:1979   */\n    tag_56:\n        /* \"#utility.yul\":2001:2002   */\n      dup3\n        /* \"#utility.yul\":1998:1999   */\n      dup3\n        /* \"#utility.yul\":1994:2003   */\n      div\n        /* \"#utility.yul\":1989:2003   */\n      swap1\n      pop\n        /* \"#utility.yul\":1824:2009   */\n      swap3\n      swap2\n      pop\n      pop\n      jump\t// out\n        /* \"#utility.yul\":2015:2191   */\n    tag_18:\n        /* \"#utility.yul\":2047:2048   */\n      0x00\n        /* \"#utility.yul\":2064:2084   */\n      tag_59\n        /* \"#utility.yul\":2082:2083   */\n      dup3\n        /* \"#utility.yul\":2064:2084   */\n      tag_25\n      jump\t// in\n    tag_59:\n        /* \"#utility.yul\":2059:2084   */\n      swap2\n      pop\n        /* \"#utility.yul\":2098:2118   */\n      tag_60\n        /* \"#utility.yul\":2116:2117   */\n      dup4\n        /* \"#utility.yul\":2098:2118   */\n      tag_25\n      jump\t// in\n    tag_60:\n        /* \"#utility.yul\":2093:2118   */\n      swap3\n      pop\n        /* \"#utility.yul\":2137:2138   */\n      dup3\n        /* \"#utility.yul\":2127:2162   */\n      tag_61\n      jumpi\n        /* \"#utility.yul\":2142:2160   */\n      tag_62\n      tag_30\n      jump\t// in\n    tag_62:\n        /* \"#utility.yul\":2127:2162   */\n    tag_61:\n        /* \"#utility.yul\":2183:2184   */\n      dup3\n        /* \"#utility.yul\":2180:2181   */\n      dup3\n        /* \"#utility.yul\":2176:2185   */\n      mod\n        /* \"#utility.yul\":2171:2185   */\n      swap1\n      pop\n        /* \"#utility.yul\":2015:2191   */\n      swap3\n      swap2\n      pop\n      pop\n      jump\t// out\n        /* \"#utility.yul\":2197:2430   */\n    tag_21:\n        /* \"#utility.yul\":2236:2239   */\n      0x00\n        /* \"#utility.yul\":2259:2283   */\n      tag_64\n        /* \"#utility.yul\":2277:2282   */\n      dup3\n        /* \"#utility.yul\":2259:2283   */\n      tag_25\n      jump\t// in\n    tag_64:\n        /* \"#utility.yul\":2250:2283   */\n      swap2\n      pop\n        /* \"#utility.yul\":2305:2371   */\n      0xffffffffffffffffffffffffffffffffffffffffffffffffffffffffffffffff\n        /* \"#utility.yul\":2298:2303   */\n      dup3\n        /* \"#utility.yul\":2295:2372   */\n      sub\n        /* \"#utility.yul\":2292:2395   */\n      tag_65\n      jumpi\n        /* \"#utility.yul\":2375:2393   */\n      tag_66\n      tag_31\n      jump\t// in\n    tag_66:\n        /* \"#utility.yul\":2292:2395   */\n    tag_65:\n        /* \"#utility.yul\":2422:2423   */\n      0x01\n        /* \"#utility.yul\":2415:2420   */\n      dup3\n        /* \"#utility.yul\":2411:2424   */\n      add\n        /* \"#utility.yul\":2404:2424   */\n      swap1\n      pop\n        /* \"#utility.yul\":2197:2430   */\n      swap2\n      swap1\n      pop\n      jump\t// out\n\n    auxdata: 0xa2646970667358221220aa23095108ff53e6e1eceed25171c67765ab712f86f3907e7c574aa2ad333e7464736f6c63430008120033\n}\n",
				"bytecode": {
					"linkReferences": {},
					"object": "608060405234801561001057600080fd5b506102a9806100206000396000f3fe608060405234801561001057600080fd5b506004361061002b5760003560e01c8063fe2c2cde14610030575b600080fd5b61004a60048036038101906100459190610108565b610060565b6040516100579190610150565b60405180910390f35b6000806002905060019150600083148061007a5750600183145b1561008457600091505b5b60028361009291906101c9565b81116100c757600081846100a691906101fa565b036100b457600091506100c7565b80806100bf9061022b565b915050610085565b50919050565b600080fd5b6000819050919050565b6100e5816100d2565b81146100f057600080fd5b50565b600081359050610102816100dc565b92915050565b60006020828403121561011e5761011d6100cd565b5b600061012c848285016100f3565b91505092915050565b60008115159050919050565b61014a81610135565b82525050565b60006020820190506101656000830184610141565b92915050565b7f4e487b7100000000000000000000000000000000000000000000000000000000600052601260045260246000fd5b7f4e487b7100000000000000000000000000000000000000000000000000000000600052601160045260246000fd5b60006101d4826100d2565b91506101df836100d2565b9250826101ef576101ee61016b565b5b828204905092915050565b6000610205826100d2565b9150610210836100d2565b9250826102205761021f61016b565b5b828206905092915050565b6000610236826100d2565b91507fffffffffffffffffffffffffffffffffffffffffffffffffffffffffffffffff82036102685761026761019a565b5b60018201905091905056fea2646970667358221220aa23095108ff53e6e1eceed25171c67765ab712f86f3907e7c574aa2ad333e7464736f6c63430008120033",
					"opcodes": "PUSH1 0x80 PUSH1 0x40 MSTORE CALLVALUE DUP1 ISZERO PUSH2 0x10 JUMPI PUSH1 0x0 DUP1 REVERT JUMPDEST POP PUSH2 0x2A9 DUP1 PUSH2 0x20 PUSH1 0x0 CODECOPY PUSH1 0x0 RETURN INVALID PUSH1 0x80 PUSH1 0x40 MSTORE CALLVALUE DUP1 ISZERO PUSH2 0x10 JUMPI PUSH1 0x0 DUP1 REVERT JUMPDEST POP PUSH1 0x4 CALLDATASIZE LT PUSH2 0x2B JUMPI PUSH1 0x0 CALLDATALOAD PUSH1 0xE0 SHR DUP1 PUSH4 0xFE2C2CDE EQ PUSH2 0x30 JUMPI JUMPDEST PUSH1 0x0 DUP1 REVERT JUMPDEST PUSH2 0x4A PUSH1 0x4 DUP1 CALLDATASIZE SUB DUP2 ADD SWAP1 PUSH2 0x45 SWAP2 SWAP1 PUSH2 0x108 JUMP JUMPDEST PUSH2 0x60 JUMP JUMPDEST PUSH1 0x40 MLOAD PUSH2 0x57 SWAP2 SWAP1 PUSH2 0x150 JUMP JUMPDEST PUSH1 0x40 MLOAD DUP1 SWAP2 SUB SWAP1 RETURN JUMPDEST PUSH1 0x0 DUP1 PUSH1 0x2 SWAP1 POP PUSH1 0x1 SWAP2 POP PUSH1 0x0 DUP4 EQ DUP1 PUSH2 0x7A JUMPI POP PUSH1 0x1 DUP4 EQ JUMPDEST ISZERO PUSH2 0x84 JUMPI PUSH1 0x0 SWAP2 POP JUMPDEST JUMPDEST PUSH1 0x2 DUP4 PUSH2 0x92 SWAP2 SWAP1 PUSH2 0x1C9 JUMP JUMPDEST DUP2 GT PUSH2 0xC7 JUMPI PUSH1 0x0 DUP2 DUP5 PUSH2 0xA6 SWAP2 SWAP1 PUSH2 0x1FA JUMP JUMPDEST SUB PUSH2 0xB4 JUMPI PUSH1 0x0 SWAP2 POP PUSH2 0xC7 JUMP JUMPDEST DUP1 DUP1 PUSH2 0xBF SWAP1 PUSH2 0x22B JUMP JUMPDEST SWAP2 POP POP PUSH2 0x85 JUMP JUMPDEST POP SWAP2 SWAP1 POP JUMP JUMPDEST PUSH1 0x0 DUP1 REVERT JUMPDEST PUSH1 0x0 DUP2 SWAP1 POP SWAP2 SWAP1 POP JUMP JUMPDEST PUSH2 0xE5 DUP2 PUSH2 0xD2 JUMP JUMPDEST DUP2 EQ PUSH2 0xF0 JUMPI PUSH1 0x0 DUP1 REVERT JUMPDEST POP JUMP JUMPDEST PUSH1 0x0 DUP2 CALLDATALOAD SWAP1 POP PUSH2 0x102 DUP2 PUSH2 0xDC JUMP JUMPDEST SWAP3 SWAP2 POP POP JUMP JUMPDEST PUSH1 0x0 PUSH1 0x20 DUP3 DUP5 SUB SLT ISZERO PUSH2 0x11E JUMPI PUSH2 0x11D PUSH2 0xCD JUMP JUMPDEST JUMPDEST PUSH1 0x0 PUSH2 0x12C DUP5 DUP3 DUP6 ADD PUSH2 0xF3 JUMP JUMPDEST SWAP2 POP POP SWAP3 SWAP2 POP POP JUMP JUMPDEST PUSH1 0x0 DUP2 ISZERO ISZERO SWAP1 POP SWAP2 SWAP1 POP JUMP JUMPDEST PUSH2 0x14A DUP2 PUSH2 0x135 JUMP JUMPDEST DUP3 MSTORE POP POP JUMP JUMPDEST PUSH1 0x0 PUSH1 0x20 DUP3 ADD SWAP1 POP PUSH2 0x165 PUSH1 0x0 DUP4 ADD DUP5 PUSH2 0x141 JUMP JUMPDEST SWAP3 SWAP2 POP POP JUMP JUMPDEST PUSH32 0x4E487B7100000000000000000000000000000000000000000000000000000000 PUSH1 0x0 MSTORE PUSH1 0x12 PUSH1 0x4 MSTORE PUSH1 0x24 PUSH1 0x0 REVERT JUMPDEST PUSH32 0x4E487B7100000000000000000000000000000000000000000000000000000000 PUSH1 0x0 MSTORE PUSH1 0x11 PUSH1 0x4 MSTORE PUSH1 0x24 PUSH1 0x0 REVERT JUMPDEST PUSH1 0x0 PUSH2 0x1D4 DUP3 PUSH2 0xD2 JUMP JUMPDEST SWAP2 POP PUSH2 0x1DF DUP4 PUSH2 0xD2 JUMP JUMPDEST SWAP3 POP DUP3 PUSH2 0x1EF JUMPI PUSH2 0x1EE PUSH2 0x16B JUMP JUMPDEST JUMPDEST DUP3 DUP3 DIV SWAP1 POP SWAP3 SWAP2 POP POP JUMP JUMPDEST PUSH1 0x0 PUSH2 0x205 DUP3 PUSH2 0xD2 JUMP JUMPDEST SWAP2 POP PUSH2 0x210 DUP4 PUSH2 0xD2 JUMP JUMPDEST SWAP3 POP DUP3 PUSH2 0x220 JUMPI PUSH2 0x21F PUSH2 0x16B JUMP JUMPDEST JUMPDEST DUP3 DUP3 MOD SWAP1 POP SWAP3 SWAP2 POP POP JUMP JUMPDEST PUSH1 0x0 PUSH2 0x236 DUP3 PUSH2 0xD2 JUMP JUMPDEST SWAP2 POP PUSH32 0xFFFFFFFFFFFFFFFFFFFFFFFFFFFFFFFFFFFFFFFFFFFFFFFFFFFFFFFFFFFFFFFF DUP3 SUB PUSH2 0x268 JUMPI PUSH2 0x267 PUSH2 0x19A JUMP JUMPDEST JUMPDEST PUSH1 0x1 DUP3 ADD SWAP1 POP SWAP2 SWAP1 POP JUMP INVALID LOG2 PUSH5 0x6970667358 0x22 SLT KECCAK256 0xAA 0x23 MULMOD MLOAD ADDMOD SELFDESTRUCT MSTORE8 0xE6 0xE1 0xEC 0xEE 0xD2 MLOAD PUSH18 0xC67765AB712F86F3907E7C574AA2AD333E74 PUSH5 0x736F6C6343 STOP ADDMOD SLT STOP CALLER "
				},
				"gasEstimates": {
					"creation": {
						"codeDepositCost": "136200",
						"executionCost": "183",
						"totalCost": "136383"
					},
					"external": {
						"PrimeChecker(uint256)": "infinite"
					}
				},
				"methodIdentifiers": {
					"PrimeChecker(uint256)": "fe2c2cde"
				}
			},
			"storageLayout": {
				"storage": [],
				"types": null
			},
			"userdoc": {
				"kind": "user",
				"methods": {},
				"version": 1
			}
		}
	}
}