{
	"Labs (August)/try_catch_library_21/library.sol": {
		"implentions": {
			"abi": [
				{
					"inputs": [
						{
							"internalType": "int256",
							"name": "first",
							"type": "int256"
						},
						{
							"internalType": "int256",
							"name": "sec",
							"type": "int256"
						}
					],
					"name": "difference",
					"outputs": [
						{
							"internalType": "int256",
							"name": "",
							"type": "int256"
						}
					],
					"stateMutability": "pure",
					"type": "function"
				},
				{
					"inputs": [
						{
							"internalType": "uint256",
							"name": "a",
							"type": "uint256"
						},
						{
							"internalType": "uint256",
							"name": "b",
							"type": "uint256"
						}
					],
					"name": "exponential",
					"outputs": [
						{
							"internalType": "uint256",
							"name": "",
							"type": "uint256"
						}
					],
					"stateMutability": "pure",
					"type": "function"
				},
				{
					"inputs": [
						{
							"internalType": "uint256",
							"name": "firstVal",
							"type": "uint256"
						},
						{
							"internalType": "uint256",
							"name": "SecValue",
							"type": "uint256"
						}
					],
					"name": "summation",
					"outputs": [
						{
							"internalType": "uint256",
							"name": "",
							"type": "uint256"
						}
					],
					"stateMutability": "pure",
					"type": "function"
				}
			],
			"devdoc": {
				"kind": "dev",
				"methods": {},
				"version": 1
			},
			"evm": {
				"assembly": "    /* \"Labs (August)/try_catch_library_21/library.sol\":1211:1625  contract implentions{... */\n  mstore(0x40, 0x80)\n  callvalue\n  dup1\n  iszero\n  tag_1\n  jumpi\n  0x00\n  dup1\n  revert\ntag_1:\n  pop\n  dataSize(sub_0)\n  dup1\n  dataOffset(sub_0)\n  0x00\n  codecopy\n  0x00\n  return\nstop\n\nsub_0: assembly {\n        /* \"Labs (August)/try_catch_library_21/library.sol\":1211:1625  contract implentions{... */\n      mstore(0x40, 0x80)\n      callvalue\n      dup1\n      iszero\n      tag_1\n      jumpi\n      0x00\n      dup1\n      revert\n    tag_1:\n      pop\n      jumpi(tag_2, lt(calldatasize, 0x04))\n      shr(0xe0, calldataload(0x00))\n      dup1\n      0x5a866137\n      eq\n      tag_3\n      jumpi\n      dup1\n      0xd9b5b5ca\n      eq\n      tag_4\n      jumpi\n      dup1\n      0xf934e3d5\n      eq\n      tag_5\n      jumpi\n    tag_2:\n      0x00\n      dup1\n      revert\n        /* \"Labs (August)/try_catch_library_21/library.sol\":1386:1505  function difference(int first , int sec)public pure  returns(int){... */\n    tag_3:\n      tag_6\n      0x04\n      dup1\n      calldatasize\n      sub\n      dup2\n      add\n      swap1\n      tag_7\n      swap2\n      swap1\n      tag_8\n      jump\t// in\n    tag_7:\n      tag_9\n      jump\t// in\n    tag_6:\n      mload(0x40)\n      tag_10\n      swap2\n      swap1\n      tag_11\n      jump\t// in\n    tag_10:\n      mload(0x40)\n      dup1\n      swap2\n      sub\n      swap1\n      return\n        /* \"Labs (August)/try_catch_library_21/library.sol\":1513:1622  function exponential(uint a, uint b) public pure returns(uint){... */\n    tag_4:\n      tag_12\n      0x04\n      dup1\n      calldatasize\n      sub\n      dup2\n      add\n      swap1\n      tag_13\n      swap2\n      swap1\n      tag_14\n      jump\t// in\n    tag_13:\n      tag_15\n      jump\t// in\n    tag_12:\n      mload(0x40)\n      tag_16\n      swap2\n      swap1\n      tag_17\n      jump\t// in\n    tag_16:\n      mload(0x40)\n      dup1\n      swap2\n      sub\n      swap1\n      return\n        /* \"Labs (August)/try_catch_library_21/library.sol\":1240:1378  function summation(uint firstVal, uint SecValue)public pure returns (uint){... */\n    tag_5:\n      tag_18\n      0x04\n      dup1\n      calldatasize\n      sub\n      dup2\n      add\n      swap1\n      tag_19\n      swap2\n      swap1\n      tag_14\n      jump\t// in\n    tag_19:\n      tag_20\n      jump\t// in\n    tag_18:\n      mload(0x40)\n      tag_21\n      swap2\n      swap1\n      tag_17\n      jump\t// in\n    tag_21:\n      mload(0x40)\n      dup1\n      swap2\n      sub\n      swap1\n      return\n        /* \"Labs (August)/try_catch_library_21/library.sol\":1386:1505  function difference(int first , int sec)public pure  returns(int){... */\n    tag_9:\n        /* \"Labs (August)/try_catch_library_21/library.sol\":1447:1450  int */\n      0x00\n        /* \"Labs (August)/try_catch_library_21/library.sol\":1469:1480  calculation */\n      linkerSymbol(\"2e229a259892586bbe5a17966e98c418c9812d7cf5b029d8a3250db84eaa53f9\")\n        /* \"Labs (August)/try_catch_library_21/library.sol\":1469:1485  calculation.diff */\n      0x568c1385\n        /* \"Labs (August)/try_catch_library_21/library.sol\":1486:1491  first */\n      dup5\n        /* \"Labs (August)/try_catch_library_21/library.sol\":1493:1496  sec */\n      dup5\n        /* \"Labs (August)/try_catch_library_21/library.sol\":1469:1497  calculation.diff(first ,sec) */\n      mload(0x40)\n      dup4\n      0xffffffff\n      and\n      0xe0\n      shl\n      dup2\n      mstore\n      0x04\n      add\n      tag_23\n      swap3\n      swap2\n      swap1\n      tag_24\n      jump\t// in\n    tag_23:\n      0x20\n      mload(0x40)\n      dup1\n      dup4\n      sub\n      dup2\n      dup7\n      gas\n      delegatecall\n      iszero\n      dup1\n      iszero\n      tag_26\n      jumpi\n      returndatasize\n      0x00\n      dup1\n      returndatacopy\n      revert(0x00, returndatasize)\n    tag_26:\n      pop\n      pop\n      pop\n      pop\n      mload(0x40)\n      returndatasize\n      not(0x1f)\n      0x1f\n      dup3\n      add\n      and\n      dup3\n      add\n      dup1\n      0x40\n      mstore\n      pop\n      dup2\n      add\n      swap1\n      tag_27\n      swap2\n      swap1\n      tag_28\n      jump\t// in\n    tag_27:\n        /* \"Labs (August)/try_catch_library_21/library.sol\":1462:1497  return calculation.diff(first ,sec) */\n      swap1\n      pop\n        /* \"Labs (August)/try_catch_library_21/library.sol\":1386:1505  function difference(int first , int sec)public pure  returns(int){... */\n      swap3\n      swap2\n      pop\n      pop\n      jump\t// out\n        /* \"Labs (August)/try_catch_library_21/library.sol\":1513:1622  function exponential(uint a, uint b) public pure returns(uint){... */\n    tag_15:\n        /* \"Labs (August)/try_catch_library_21/library.sol\":1570:1574  uint */\n      0x00\n        /* \"Labs (August)/try_catch_library_21/library.sol\":1593:1604  calculation */\n      linkerSymbol(\"2e229a259892586bbe5a17966e98c418c9812d7cf5b029d8a3250db84eaa53f9\")\n        /* \"Labs (August)/try_catch_library_21/library.sol\":1593:1609  calculation.expo */\n      0x4f4752ba\n        /* \"Labs (August)/try_catch_library_21/library.sol\":1610:1611  a */\n      dup5\n        /* \"Labs (August)/try_catch_library_21/library.sol\":1612:1613  b */\n      dup5\n        /* \"Labs (August)/try_catch_library_21/library.sol\":1593:1614  calculation.expo(a,b) */\n      mload(0x40)\n      dup4\n      0xffffffff\n      and\n      0xe0\n      shl\n      dup2\n      mstore\n      0x04\n      add\n      tag_30\n      swap3\n      swap2\n      swap1\n      tag_31\n      jump\t// in\n    tag_30:\n      0x20\n      mload(0x40)\n      dup1\n      dup4\n      sub\n      dup2\n      dup7\n      gas\n      delegatecall\n      iszero\n      dup1\n      iszero\n      tag_33\n      jumpi\n      returndatasize\n      0x00\n      dup1\n      returndatacopy\n      revert(0x00, returndatasize)\n    tag_33:\n      pop\n      pop\n      pop\n      pop\n      mload(0x40)\n      returndatasize\n      not(0x1f)\n      0x1f\n      dup3\n      add\n      and\n      dup3\n      add\n      dup1\n      0x40\n      mstore\n      pop\n      dup2\n      add\n      swap1\n      tag_34\n      swap2\n      swap1\n      tag_35\n      jump\t// in\n    tag_34:\n        /* \"Labs (August)/try_catch_library_21/library.sol\":1586:1614  return calculation.expo(a,b) */\n      swap1\n      pop\n        /* \"Labs (August)/try_catch_library_21/library.sol\":1513:1622  function exponential(uint a, uint b) public pure returns(uint){... */\n      swap3\n      swap2\n      pop\n      pop\n      jump\t// out\n        /* \"Labs (August)/try_catch_library_21/library.sol\":1240:1378  function summation(uint firstVal, uint SecValue)public pure returns (uint){... */\n    tag_20:\n        /* \"Labs (August)/try_catch_library_21/library.sol\":1309:1313  uint */\n      0x00\n        /* \"Labs (August)/try_catch_library_21/library.sol\":1334:1345  calculation */\n      linkerSymbol(\"2e229a259892586bbe5a17966e98c418c9812d7cf5b029d8a3250db84eaa53f9\")\n        /* \"Labs (August)/try_catch_library_21/library.sol\":1334:1349  calculation.sum */\n      0xcad0899b\n        /* \"Labs (August)/try_catch_library_21/library.sol\":1350:1358  firstVal */\n      dup5\n        /* \"Labs (August)/try_catch_library_21/library.sol\":1361:1369  SecValue */\n      dup5\n        /* \"Labs (August)/try_catch_library_21/library.sol\":1334:1370  calculation.sum(firstVal , SecValue) */\n      mload(0x40)\n      dup4\n      0xffffffff\n      and\n      0xe0\n      shl\n      dup2\n      mstore\n      0x04\n      add\n      tag_37\n      swap3\n      swap2\n      swap1\n      tag_31\n      jump\t// in\n    tag_37:\n      0x20\n      mload(0x40)\n      dup1\n      dup4\n      sub\n      dup2\n      dup7\n      gas\n      delegatecall\n      iszero\n      dup1\n      iszero\n      tag_39\n      jumpi\n      returndatasize\n      0x00\n      dup1\n      returndatacopy\n      revert(0x00, returndatasize)\n    tag_39:\n      pop\n      pop\n      pop\n      pop\n      mload(0x40)\n      returndatasize\n      not(0x1f)\n      0x1f\n      dup3\n      add\n      and\n      dup3\n      add\n      dup1\n      0x40\n      mstore\n      pop\n      dup2\n      add\n      swap1\n      tag_40\n      swap2\n      swap1\n      tag_35\n      jump\t// in\n    tag_40:\n        /* \"Labs (August)/try_catch_library_21/library.sol\":1327:1370  return calculation.sum(firstVal , SecValue) */\n      swap1\n      pop\n        /* \"Labs (August)/try_catch_library_21/library.sol\":1240:1378  function summation(uint firstVal, uint SecValue)public pure returns (uint){... */\n      swap3\n      swap2\n      pop\n      pop\n      jump\t// out\n        /* \"#utility.yul\":88:205   */\n    tag_42:\n        /* \"#utility.yul\":197:198   */\n      0x00\n        /* \"#utility.yul\":194:195   */\n      dup1\n        /* \"#utility.yul\":187:199   */\n      revert\n        /* \"#utility.yul\":334:410   */\n    tag_44:\n        /* \"#utility.yul\":370:377   */\n      0x00\n        /* \"#utility.yul\":399:404   */\n      dup2\n        /* \"#utility.yul\":388:404   */\n      swap1\n      pop\n        /* \"#utility.yul\":334:410   */\n      swap2\n      swap1\n      pop\n      jump\t// out\n        /* \"#utility.yul\":416:536   */\n    tag_45:\n        /* \"#utility.yul\":488:511   */\n      tag_62\n        /* \"#utility.yul\":505:510   */\n      dup2\n        /* \"#utility.yul\":488:511   */\n      tag_44\n      jump\t// in\n    tag_62:\n        /* \"#utility.yul\":481:486   */\n      dup2\n        /* \"#utility.yul\":478:512   */\n      eq\n        /* \"#utility.yul\":468:530   */\n      tag_63\n      jumpi\n        /* \"#utility.yul\":526:527   */\n      0x00\n        /* \"#utility.yul\":523:524   */\n      dup1\n        /* \"#utility.yul\":516:528   */\n      revert\n        /* \"#utility.yul\":468:530   */\n    tag_63:\n        /* \"#utility.yul\":416:536   */\n      pop\n      jump\t// out\n        /* \"#utility.yul\":542:679   */\n    tag_46:\n        /* \"#utility.yul\":587:592   */\n      0x00\n        /* \"#utility.yul\":625:631   */\n      dup2\n        /* \"#utility.yul\":612:632   */\n      calldataload\n        /* \"#utility.yul\":603:632   */\n      swap1\n      pop\n        /* \"#utility.yul\":641:673   */\n      tag_65\n        /* \"#utility.yul\":667:672   */\n      dup2\n        /* \"#utility.yul\":641:673   */\n      tag_45\n      jump\t// in\n    tag_65:\n        /* \"#utility.yul\":542:679   */\n      swap3\n      swap2\n      pop\n      pop\n      jump\t// out\n        /* \"#utility.yul\":685:1155   */\n    tag_8:\n        /* \"#utility.yul\":751:757   */\n      0x00\n        /* \"#utility.yul\":759:765   */\n      dup1\n        /* \"#utility.yul\":808:810   */\n      0x40\n        /* \"#utility.yul\":796:805   */\n      dup4\n        /* \"#utility.yul\":787:794   */\n      dup6\n        /* \"#utility.yul\":783:806   */\n      sub\n        /* \"#utility.yul\":779:811   */\n      slt\n        /* \"#utility.yul\":776:895   */\n      iszero\n      tag_67\n      jumpi\n        /* \"#utility.yul\":814:893   */\n      tag_68\n      tag_42\n      jump\t// in\n    tag_68:\n        /* \"#utility.yul\":776:895   */\n    tag_67:\n        /* \"#utility.yul\":934:935   */\n      0x00\n        /* \"#utility.yul\":959:1011   */\n      tag_69\n        /* \"#utility.yul\":1003:1010   */\n      dup6\n        /* \"#utility.yul\":994:1000   */\n      dup3\n        /* \"#utility.yul\":983:992   */\n      dup7\n        /* \"#utility.yul\":979:1001   */\n      add\n        /* \"#utility.yul\":959:1011   */\n      tag_46\n      jump\t// in\n    tag_69:\n        /* \"#utility.yul\":949:1011   */\n      swap3\n      pop\n        /* \"#utility.yul\":905:1021   */\n      pop\n        /* \"#utility.yul\":1060:1062   */\n      0x20\n        /* \"#utility.yul\":1086:1138   */\n      tag_70\n        /* \"#utility.yul\":1130:1137   */\n      dup6\n        /* \"#utility.yul\":1121:1127   */\n      dup3\n        /* \"#utility.yul\":1110:1119   */\n      dup7\n        /* \"#utility.yul\":1106:1128   */\n      add\n        /* \"#utility.yul\":1086:1138   */\n      tag_46\n      jump\t// in\n    tag_70:\n        /* \"#utility.yul\":1076:1138   */\n      swap2\n      pop\n        /* \"#utility.yul\":1031:1148   */\n      pop\n        /* \"#utility.yul\":685:1155   */\n      swap3\n      pop\n      swap3\n      swap1\n      pop\n      jump\t// out\n        /* \"#utility.yul\":1161:1276   */\n    tag_47:\n        /* \"#utility.yul\":1246:1269   */\n      tag_72\n        /* \"#utility.yul\":1263:1268   */\n      dup2\n        /* \"#utility.yul\":1246:1269   */\n      tag_44\n      jump\t// in\n    tag_72:\n        /* \"#utility.yul\":1241:1244   */\n      dup3\n        /* \"#utility.yul\":1234:1270   */\n      mstore\n        /* \"#utility.yul\":1161:1276   */\n      pop\n      pop\n      jump\t// out\n        /* \"#utility.yul\":1282:1500   */\n    tag_11:\n        /* \"#utility.yul\":1373:1377   */\n      0x00\n        /* \"#utility.yul\":1411:1413   */\n      0x20\n        /* \"#utility.yul\":1400:1409   */\n      dup3\n        /* \"#utility.yul\":1396:1414   */\n      add\n        /* \"#utility.yul\":1388:1414   */\n      swap1\n      pop\n        /* \"#utility.yul\":1424:1493   */\n      tag_74\n        /* \"#utility.yul\":1490:1491   */\n      0x00\n        /* \"#utility.yul\":1479:1488   */\n      dup4\n        /* \"#utility.yul\":1475:1492   */\n      add\n        /* \"#utility.yul\":1466:1472   */\n      dup5\n        /* \"#utility.yul\":1424:1493   */\n      tag_47\n      jump\t// in\n    tag_74:\n        /* \"#utility.yul\":1282:1500   */\n      swap3\n      swap2\n      pop\n      pop\n      jump\t// out\n        /* \"#utility.yul\":1506:1583   */\n    tag_48:\n        /* \"#utility.yul\":1543:1550   */\n      0x00\n        /* \"#utility.yul\":1572:1577   */\n      dup2\n        /* \"#utility.yul\":1561:1577   */\n      swap1\n      pop\n        /* \"#utility.yul\":1506:1583   */\n      swap2\n      swap1\n      pop\n      jump\t// out\n        /* \"#utility.yul\":1589:1711   */\n    tag_49:\n        /* \"#utility.yul\":1662:1686   */\n      tag_77\n        /* \"#utility.yul\":1680:1685   */\n      dup2\n        /* \"#utility.yul\":1662:1686   */\n      tag_48\n      jump\t// in\n    tag_77:\n        /* \"#utility.yul\":1655:1660   */\n      dup2\n        /* \"#utility.yul\":1652:1687   */\n      eq\n        /* \"#utility.yul\":1642:1705   */\n      tag_78\n      jumpi\n        /* \"#utility.yul\":1701:1702   */\n      0x00\n        /* \"#utility.yul\":1698:1699   */\n      dup1\n        /* \"#utility.yul\":1691:1703   */\n      revert\n        /* \"#utility.yul\":1642:1705   */\n    tag_78:\n        /* \"#utility.yul\":1589:1711   */\n      pop\n      jump\t// out\n        /* \"#utility.yul\":1717:1856   */\n    tag_50:\n        /* \"#utility.yul\":1763:1768   */\n      0x00\n        /* \"#utility.yul\":1801:1807   */\n      dup2\n        /* \"#utility.yul\":1788:1808   */\n      calldataload\n        /* \"#utility.yul\":1779:1808   */\n      swap1\n      pop\n        /* \"#utility.yul\":1817:1850   */\n      tag_80\n        /* \"#utility.yul\":1844:1849   */\n      dup2\n        /* \"#utility.yul\":1817:1850   */\n      tag_49\n      jump\t// in\n    tag_80:\n        /* \"#utility.yul\":1717:1856   */\n      swap3\n      swap2\n      pop\n      pop\n      jump\t// out\n        /* \"#utility.yul\":1862:2336   */\n    tag_14:\n        /* \"#utility.yul\":1930:1936   */\n      0x00\n        /* \"#utility.yul\":1938:1944   */\n      dup1\n        /* \"#utility.yul\":1987:1989   */\n      0x40\n        /* \"#utility.yul\":1975:1984   */\n      dup4\n        /* \"#utility.yul\":1966:1973   */\n      dup6\n        /* \"#utility.yul\":1962:1985   */\n      sub\n        /* \"#utility.yul\":1958:1990   */\n      slt\n        /* \"#utility.yul\":1955:2074   */\n      iszero\n      tag_82\n      jumpi\n        /* \"#utility.yul\":1993:2072   */\n      tag_83\n      tag_42\n      jump\t// in\n    tag_83:\n        /* \"#utility.yul\":1955:2074   */\n    tag_82:\n        /* \"#utility.yul\":2113:2114   */\n      0x00\n        /* \"#utility.yul\":2138:2191   */\n      tag_84\n        /* \"#utility.yul\":2183:2190   */\n      dup6\n        /* \"#utility.yul\":2174:2180   */\n      dup3\n        /* \"#utility.yul\":2163:2172   */\n      dup7\n        /* \"#utility.yul\":2159:2181   */\n      add\n        /* \"#utility.yul\":2138:2191   */\n      tag_50\n      jump\t// in\n    tag_84:\n        /* \"#utility.yul\":2128:2191   */\n      swap3\n      pop\n        /* \"#utility.yul\":2084:2201   */\n      pop\n        /* \"#utility.yul\":2240:2242   */\n      0x20\n        /* \"#utility.yul\":2266:2319   */\n      tag_85\n        /* \"#utility.yul\":2311:2318   */\n      dup6\n        /* \"#utility.yul\":2302:2308   */\n      dup3\n        /* \"#utility.yul\":2291:2300   */\n      dup7\n        /* \"#utility.yul\":2287:2309   */\n      add\n        /* \"#utility.yul\":2266:2319   */\n      tag_50\n      jump\t// in\n    tag_85:\n        /* \"#utility.yul\":2256:2319   */\n      swap2\n      pop\n        /* \"#utility.yul\":2211:2329   */\n      pop\n        /* \"#utility.yul\":1862:2336   */\n      swap3\n      pop\n      swap3\n      swap1\n      pop\n      jump\t// out\n        /* \"#utility.yul\":2342:2460   */\n    tag_51:\n        /* \"#utility.yul\":2429:2453   */\n      tag_87\n        /* \"#utility.yul\":2447:2452   */\n      dup2\n        /* \"#utility.yul\":2429:2453   */\n      tag_48\n      jump\t// in\n    tag_87:\n        /* \"#utility.yul\":2424:2427   */\n      dup3\n        /* \"#utility.yul\":2417:2454   */\n      mstore\n        /* \"#utility.yul\":2342:2460   */\n      pop\n      pop\n      jump\t// out\n        /* \"#utility.yul\":2466:2688   */\n    tag_17:\n        /* \"#utility.yul\":2559:2563   */\n      0x00\n        /* \"#utility.yul\":2597:2599   */\n      0x20\n        /* \"#utility.yul\":2586:2595   */\n      dup3\n        /* \"#utility.yul\":2582:2600   */\n      add\n        /* \"#utility.yul\":2574:2600   */\n      swap1\n      pop\n        /* \"#utility.yul\":2610:2681   */\n      tag_89\n        /* \"#utility.yul\":2678:2679   */\n      0x00\n        /* \"#utility.yul\":2667:2676   */\n      dup4\n        /* \"#utility.yul\":2663:2680   */\n      add\n        /* \"#utility.yul\":2654:2660   */\n      dup5\n        /* \"#utility.yul\":2610:2681   */\n      tag_51\n      jump\t// in\n    tag_89:\n        /* \"#utility.yul\":2466:2688   */\n      swap3\n      swap2\n      pop\n      pop\n      jump\t// out\n        /* \"#utility.yul\":2694:2817   */\n    tag_52:\n        /* \"#utility.yul\":2787:2810   */\n      tag_91\n        /* \"#utility.yul\":2804:2809   */\n      dup2\n        /* \"#utility.yul\":2787:2810   */\n      tag_44\n      jump\t// in\n    tag_91:\n        /* \"#utility.yul\":2782:2785   */\n      dup3\n        /* \"#utility.yul\":2775:2811   */\n      mstore\n        /* \"#utility.yul\":2694:2817   */\n      pop\n      pop\n      jump\t// out\n        /* \"#utility.yul\":2823:3171   */\n    tag_24:\n        /* \"#utility.yul\":2948:2952   */\n      0x00\n        /* \"#utility.yul\":2986:2988   */\n      0x40\n        /* \"#utility.yul\":2975:2984   */\n      dup3\n        /* \"#utility.yul\":2971:2989   */\n      add\n        /* \"#utility.yul\":2963:2989   */\n      swap1\n      pop\n        /* \"#utility.yul\":2999:3076   */\n      tag_93\n        /* \"#utility.yul\":3073:3074   */\n      0x00\n        /* \"#utility.yul\":3062:3071   */\n      dup4\n        /* \"#utility.yul\":3058:3075   */\n      add\n        /* \"#utility.yul\":3049:3055   */\n      dup6\n        /* \"#utility.yul\":2999:3076   */\n      tag_52\n      jump\t// in\n    tag_93:\n        /* \"#utility.yul\":3086:3164   */\n      tag_94\n        /* \"#utility.yul\":3160:3162   */\n      0x20\n        /* \"#utility.yul\":3149:3158   */\n      dup4\n        /* \"#utility.yul\":3145:3163   */\n      add\n        /* \"#utility.yul\":3136:3142   */\n      dup5\n        /* \"#utility.yul\":3086:3164   */\n      tag_52\n      jump\t// in\n    tag_94:\n        /* \"#utility.yul\":2823:3171   */\n      swap4\n      swap3\n      pop\n      pop\n      pop\n      jump\t// out\n        /* \"#utility.yul\":3177:3318   */\n    tag_53:\n        /* \"#utility.yul\":3233:3238   */\n      0x00\n        /* \"#utility.yul\":3264:3270   */\n      dup2\n        /* \"#utility.yul\":3258:3271   */\n      mload\n        /* \"#utility.yul\":3249:3271   */\n      swap1\n      pop\n        /* \"#utility.yul\":3280:3312   */\n      tag_96\n        /* \"#utility.yul\":3306:3311   */\n      dup2\n        /* \"#utility.yul\":3280:3312   */\n      tag_45\n      jump\t// in\n    tag_96:\n        /* \"#utility.yul\":3177:3318   */\n      swap3\n      swap2\n      pop\n      pop\n      jump\t// out\n        /* \"#utility.yul\":3324:3673   */\n    tag_28:\n        /* \"#utility.yul\":3393:3399   */\n      0x00\n        /* \"#utility.yul\":3442:3444   */\n      0x20\n        /* \"#utility.yul\":3430:3439   */\n      dup3\n        /* \"#utility.yul\":3421:3428   */\n      dup5\n        /* \"#utility.yul\":3417:3440   */\n      sub\n        /* \"#utility.yul\":3413:3445   */\n      slt\n        /* \"#utility.yul\":3410:3529   */\n      iszero\n      tag_98\n      jumpi\n        /* \"#utility.yul\":3448:3527   */\n      tag_99\n      tag_42\n      jump\t// in\n    tag_99:\n        /* \"#utility.yul\":3410:3529   */\n    tag_98:\n        /* \"#utility.yul\":3568:3569   */\n      0x00\n        /* \"#utility.yul\":3593:3656   */\n      tag_100\n        /* \"#utility.yul\":3648:3655   */\n      dup5\n        /* \"#utility.yul\":3639:3645   */\n      dup3\n        /* \"#utility.yul\":3628:3637   */\n      dup6\n        /* \"#utility.yul\":3624:3646   */\n      add\n        /* \"#utility.yul\":3593:3656   */\n      tag_53\n      jump\t// in\n    tag_100:\n        /* \"#utility.yul\":3583:3656   */\n      swap2\n      pop\n        /* \"#utility.yul\":3539:3666   */\n      pop\n        /* \"#utility.yul\":3324:3673   */\n      swap3\n      swap2\n      pop\n      pop\n      jump\t// out\n        /* \"#utility.yul\":3679:3805   */\n    tag_54:\n        /* \"#utility.yul\":3774:3798   */\n      tag_102\n        /* \"#utility.yul\":3792:3797   */\n      dup2\n        /* \"#utility.yul\":3774:3798   */\n      tag_48\n      jump\t// in\n    tag_102:\n        /* \"#utility.yul\":3769:3772   */\n      dup3\n        /* \"#utility.yul\":3762:3799   */\n      mstore\n        /* \"#utility.yul\":3679:3805   */\n      pop\n      pop\n      jump\t// out\n        /* \"#utility.yul\":3811:4167   */\n    tag_31:\n        /* \"#utility.yul\":3940:3944   */\n      0x00\n        /* \"#utility.yul\":3978:3980   */\n      0x40\n        /* \"#utility.yul\":3967:3976   */\n      dup3\n        /* \"#utility.yul\":3963:3981   */\n      add\n        /* \"#utility.yul\":3955:3981   */\n      swap1\n      pop\n        /* \"#utility.yul\":3991:4070   */\n      tag_104\n        /* \"#utility.yul\":4067:4068   */\n      0x00\n        /* \"#utility.yul\":4056:4065   */\n      dup4\n        /* \"#utility.yul\":4052:4069   */\n      add\n        /* \"#utility.yul\":4043:4049   */\n      dup6\n        /* \"#utility.yul\":3991:4070   */\n      tag_54\n      jump\t// in\n    tag_104:\n        /* \"#utility.yul\":4080:4160   */\n      tag_105\n        /* \"#utility.yul\":4156:4158   */\n      0x20\n        /* \"#utility.yul\":4145:4154   */\n      dup4\n        /* \"#utility.yul\":4141:4159   */\n      add\n        /* \"#utility.yul\":4132:4138   */\n      dup5\n        /* \"#utility.yul\":4080:4160   */\n      tag_54\n      jump\t// in\n    tag_105:\n        /* \"#utility.yul\":3811:4167   */\n      swap4\n      swap3\n      pop\n      pop\n      pop\n      jump\t// out\n        /* \"#utility.yul\":4173:4316   */\n    tag_55:\n        /* \"#utility.yul\":4230:4235   */\n      0x00\n        /* \"#utility.yul\":4261:4267   */\n      dup2\n        /* \"#utility.yul\":4255:4268   */\n      mload\n        /* \"#utility.yul\":4246:4268   */\n      swap1\n      pop\n        /* \"#utility.yul\":4277:4310   */\n      tag_107\n        /* \"#utility.yul\":4304:4309   */\n      dup2\n        /* \"#utility.yul\":4277:4310   */\n      tag_49\n      jump\t// in\n    tag_107:\n        /* \"#utility.yul\":4173:4316   */\n      swap3\n      swap2\n      pop\n      pop\n      jump\t// out\n        /* \"#utility.yul\":4322:4673   */\n    tag_35:\n        /* \"#utility.yul\":4392:4398   */\n      0x00\n        /* \"#utility.yul\":4441:4443   */\n      0x20\n        /* \"#utility.yul\":4429:4438   */\n      dup3\n        /* \"#utility.yul\":4420:4427   */\n      dup5\n        /* \"#utility.yul\":4416:4439   */\n      sub\n        /* \"#utility.yul\":4412:4444   */\n      slt\n        /* \"#utility.yul\":4409:4528   */\n      iszero\n      tag_109\n      jumpi\n        /* \"#utility.yul\":4447:4526   */\n      tag_110\n      tag_42\n      jump\t// in\n    tag_110:\n        /* \"#utility.yul\":4409:4528   */\n    tag_109:\n        /* \"#utility.yul\":4567:4568   */\n      0x00\n        /* \"#utility.yul\":4592:4656   */\n      tag_111\n        /* \"#utility.yul\":4648:4655   */\n      dup5\n        /* \"#utility.yul\":4639:4645   */\n      dup3\n        /* \"#utility.yul\":4628:4637   */\n      dup6\n        /* \"#utility.yul\":4624:4646   */\n      add\n        /* \"#utility.yul\":4592:4656   */\n      tag_55\n      jump\t// in\n    tag_111:\n        /* \"#utility.yul\":4582:4656   */\n      swap2\n      pop\n        /* \"#utility.yul\":4538:4666   */\n      pop\n        /* \"#utility.yul\":4322:4673   */\n      swap3\n      swap2\n      pop\n      pop\n      jump\t// out\n\n    auxdata: 0xa2646970667358221220de57c7d51e75442604313268d5b087c156f0b4b78328a8f9a516865d3cad1da464736f6c63430008120033\n}\n",
				"bytecode": {
					"linkReferences": {
						"Labs (August)/try_catch_library_21/library.sol": {
							"calculation": [
								{
									"length": 20,
									"start": 250
								},
								{
									"length": 20,
									"start": 382
								},
								{
									"length": 20,
									"start": 514
								}
							]
						}
					},
					"object": "608060405234801561001057600080fd5b506104d1806100206000396000f3fe608060405234801561001057600080fd5b50600436106100415760003560e01c80635a86613714610046578063d9b5b5ca14610076578063f934e3d5146100a6575b600080fd5b610060600480360381019061005b919061029d565b6100d6565b60405161006d91906102ec565b60405180910390f35b610090600480360381019061008b919061033d565b61015a565b60405161009d919061038c565b60405180910390f35b6100c060048036038101906100bb919061033d565b6101de565b6040516100cd919061038c565b60405180910390f35b600073__$2e229a259892586bbe5a17966e98c418c9$__63568c138584846040518363ffffffff1660e01b81526004016101119291906103b6565b602060405180830381865af415801561012e573d6000803e3d6000fd5b505050506040513d601f19601f8201168201806040525081019061015291906103f4565b905092915050565b600073__$2e229a259892586bbe5a17966e98c418c9$__634f4752ba84846040518363ffffffff1660e01b8152600401610195929190610430565b602060405180830381865af41580156101b2573d6000803e3d6000fd5b505050506040513d601f19601f820116820180604052508101906101d6919061046e565b905092915050565b600073__$2e229a259892586bbe5a17966e98c418c9$__63cad0899b84846040518363ffffffff1660e01b8152600401610219929190610430565b602060405180830381865af4158015610236573d6000803e3d6000fd5b505050506040513d601f19601f8201168201806040525081019061025a919061046e565b905092915050565b600080fd5b6000819050919050565b61027a81610267565b811461028557600080fd5b50565b60008135905061029781610271565b92915050565b600080604083850312156102b4576102b3610262565b5b60006102c285828601610288565b92505060206102d385828601610288565b9150509250929050565b6102e681610267565b82525050565b600060208201905061030160008301846102dd565b92915050565b6000819050919050565b61031a81610307565b811461032557600080fd5b50565b60008135905061033781610311565b92915050565b6000806040838503121561035457610353610262565b5b600061036285828601610328565b925050602061037385828601610328565b9150509250929050565b61038681610307565b82525050565b60006020820190506103a1600083018461037d565b92915050565b6103b081610267565b82525050565b60006040820190506103cb60008301856103a7565b6103d860208301846103a7565b9392505050565b6000815190506103ee81610271565b92915050565b60006020828403121561040a57610409610262565b5b6000610418848285016103df565b91505092915050565b61042a81610307565b82525050565b60006040820190506104456000830185610421565b6104526020830184610421565b9392505050565b60008151905061046881610311565b92915050565b60006020828403121561048457610483610262565b5b600061049284828501610459565b9150509291505056fea2646970667358221220de57c7d51e75442604313268d5b087c156f0b4b78328a8f9a516865d3cad1da464736f6c63430008120033",
					"opcodes": "PUSH1 0x80 PUSH1 0x40 MSTORE CALLVALUE DUP1 ISZERO PUSH2 0x10 JUMPI PUSH1 0x0 DUP1 REVERT JUMPDEST POP PUSH2 0x4D1 DUP1 PUSH2 0x20 PUSH1 0x0 CODECOPY PUSH1 0x0 RETURN INVALID PUSH1 0x80 PUSH1 0x40 MSTORE CALLVALUE DUP1 ISZERO PUSH2 0x10 JUMPI PUSH1 0x0 DUP1 REVERT JUMPDEST POP PUSH1 0x4 CALLDATASIZE LT PUSH2 0x41 JUMPI PUSH1 0x0 CALLDATALOAD PUSH1 0xE0 SHR DUP1 PUSH4 0x5A866137 EQ PUSH2 0x46 JUMPI DUP1 PUSH4 0xD9B5B5CA EQ PUSH2 0x76 JUMPI DUP1 PUSH4 0xF934E3D5 EQ PUSH2 0xA6 JUMPI JUMPDEST PUSH1 0x0 DUP1 REVERT JUMPDEST PUSH2 0x60 PUSH1 0x4 DUP1 CALLDATASIZE SUB DUP2 ADD SWAP1 PUSH2 0x5B SWAP2 SWAP1 PUSH2 0x29D JUMP JUMPDEST PUSH2 0xD6 JUMP JUMPDEST PUSH1 0x40 MLOAD PUSH2 0x6D SWAP2 SWAP1 PUSH2 0x2EC JUMP JUMPDEST PUSH1 0x40 MLOAD DUP1 SWAP2 SUB SWAP1 RETURN JUMPDEST PUSH2 0x90 PUSH1 0x4 DUP1 CALLDATASIZE SUB DUP2 ADD SWAP1 PUSH2 0x8B SWAP2 SWAP1 PUSH2 0x33D JUMP JUMPDEST PUSH2 0x15A JUMP JUMPDEST PUSH1 0x40 MLOAD PUSH2 0x9D SWAP2 SWAP1 PUSH2 0x38C JUMP JUMPDEST PUSH1 0x40 MLOAD DUP1 SWAP2 SUB SWAP1 RETURN JUMPDEST PUSH2 0xC0 PUSH1 0x4 DUP1 CALLDATASIZE SUB DUP2 ADD SWAP1 PUSH2 0xBB SWAP2 SWAP1 PUSH2 0x33D JUMP JUMPDEST PUSH2 0x1DE JUMP JUMPDEST PUSH1 0x40 MLOAD PUSH2 0xCD SWAP2 SWAP1 PUSH2 0x38C JUMP JUMPDEST PUSH1 0x40 MLOAD DUP1 SWAP2 SUB SWAP1 RETURN JUMPDEST PUSH1 0x0 PUSH20 0x0 PUSH4 0x568C1385 DUP5 DUP5 PUSH1 0x40 MLOAD DUP4 PUSH4 0xFFFFFFFF AND PUSH1 0xE0 SHL DUP2 MSTORE PUSH1 0x4 ADD PUSH2 0x111 SWAP3 SWAP2 SWAP1 PUSH2 0x3B6 JUMP JUMPDEST PUSH1 0x20 PUSH1 0x40 MLOAD DUP1 DUP4 SUB DUP2 DUP7 GAS DELEGATECALL ISZERO DUP1 ISZERO PUSH2 0x12E JUMPI RETURNDATASIZE PUSH1 0x0 DUP1 RETURNDATACOPY RETURNDATASIZE PUSH1 0x0 REVERT JUMPDEST POP POP POP POP PUSH1 0x40 MLOAD RETURNDATASIZE PUSH1 0x1F NOT PUSH1 0x1F DUP3 ADD AND DUP3 ADD DUP1 PUSH1 0x40 MSTORE POP DUP2 ADD SWAP1 PUSH2 0x152 SWAP2 SWAP1 PUSH2 0x3F4 JUMP JUMPDEST SWAP1 POP SWAP3 SWAP2 POP POP JUMP JUMPDEST PUSH1 0x0 PUSH20 0x0 PUSH4 0x4F4752BA DUP5 DUP5 PUSH1 0x40 MLOAD DUP4 PUSH4 0xFFFFFFFF AND PUSH1 0xE0 SHL DUP2 MSTORE PUSH1 0x4 ADD PUSH2 0x195 SWAP3 SWAP2 SWAP1 PUSH2 0x430 JUMP JUMPDEST PUSH1 0x20 PUSH1 0x40 MLOAD DUP1 DUP4 SUB DUP2 DUP7 GAS DELEGATECALL ISZERO DUP1 ISZERO PUSH2 0x1B2 JUMPI RETURNDATASIZE PUSH1 0x0 DUP1 RETURNDATACOPY RETURNDATASIZE PUSH1 0x0 REVERT JUMPDEST POP POP POP POP PUSH1 0x40 MLOAD RETURNDATASIZE PUSH1 0x1F NOT PUSH1 0x1F DUP3 ADD AND DUP3 ADD DUP1 PUSH1 0x40 MSTORE POP DUP2 ADD SWAP1 PUSH2 0x1D6 SWAP2 SWAP1 PUSH2 0x46E JUMP JUMPDEST SWAP1 POP SWAP3 SWAP2 POP POP JUMP JUMPDEST PUSH1 0x0 PUSH20 0x0 PUSH4 0xCAD0899B DUP5 DUP5 PUSH1 0x40 MLOAD DUP4 PUSH4 0xFFFFFFFF AND PUSH1 0xE0 SHL DUP2 MSTORE PUSH1 0x4 ADD PUSH2 0x219 SWAP3 SWAP2 SWAP1 PUSH2 0x430 JUMP JUMPDEST PUSH1 0x20 PUSH1 0x40 MLOAD DUP1 DUP4 SUB DUP2 DUP7 GAS DELEGATECALL ISZERO DUP1 ISZERO PUSH2 0x236 JUMPI RETURNDATASIZE PUSH1 0x0 DUP1 RETURNDATACOPY RETURNDATASIZE PUSH1 0x0 REVERT JUMPDEST POP POP POP POP PUSH1 0x40 MLOAD RETURNDATASIZE PUSH1 0x1F NOT PUSH1 0x1F DUP3 ADD AND DUP3 ADD DUP1 PUSH1 0x40 MSTORE POP DUP2 ADD SWAP1 PUSH2 0x25A SWAP2 SWAP1 PUSH2 0x46E JUMP JUMPDEST SWAP1 POP SWAP3 SWAP2 POP POP JUMP JUMPDEST PUSH1 0x0 DUP1 REVERT JUMPDEST PUSH1 0x0 DUP2 SWAP1 POP SWAP2 SWAP1 POP JUMP JUMPDEST PUSH2 0x27A DUP2 PUSH2 0x267 JUMP JUMPDEST DUP2 EQ PUSH2 0x285 JUMPI PUSH1 0x0 DUP1 REVERT JUMPDEST POP JUMP JUMPDEST PUSH1 0x0 DUP2 CALLDATALOAD SWAP1 POP PUSH2 0x297 DUP2 PUSH2 0x271 JUMP JUMPDEST SWAP3 SWAP2 POP POP JUMP JUMPDEST PUSH1 0x0 DUP1 PUSH1 0x40 DUP4 DUP6 SUB SLT ISZERO PUSH2 0x2B4 JUMPI PUSH2 0x2B3 PUSH2 0x262 JUMP JUMPDEST JUMPDEST PUSH1 0x0 PUSH2 0x2C2 DUP6 DUP3 DUP7 ADD PUSH2 0x288 JUMP JUMPDEST SWAP3 POP POP PUSH1 0x20 PUSH2 0x2D3 DUP6 DUP3 DUP7 ADD PUSH2 0x288 JUMP JUMPDEST SWAP2 POP POP SWAP3 POP SWAP3 SWAP1 POP JUMP JUMPDEST PUSH2 0x2E6 DUP2 PUSH2 0x267 JUMP JUMPDEST DUP3 MSTORE POP POP JUMP JUMPDEST PUSH1 0x0 PUSH1 0x20 DUP3 ADD SWAP1 POP PUSH2 0x301 PUSH1 0x0 DUP4 ADD DUP5 PUSH2 0x2DD JUMP JUMPDEST SWAP3 SWAP2 POP POP JUMP JUMPDEST PUSH1 0x0 DUP2 SWAP1 POP SWAP2 SWAP1 POP JUMP JUMPDEST PUSH2 0x31A DUP2 PUSH2 0x307 JUMP JUMPDEST DUP2 EQ PUSH2 0x325 JUMPI PUSH1 0x0 DUP1 REVERT JUMPDEST POP JUMP JUMPDEST PUSH1 0x0 DUP2 CALLDATALOAD SWAP1 POP PUSH2 0x337 DUP2 PUSH2 0x311 JUMP JUMPDEST SWAP3 SWAP2 POP POP JUMP JUMPDEST PUSH1 0x0 DUP1 PUSH1 0x40 DUP4 DUP6 SUB SLT ISZERO PUSH2 0x354 JUMPI PUSH2 0x353 PUSH2 0x262 JUMP JUMPDEST JUMPDEST PUSH1 0x0 PUSH2 0x362 DUP6 DUP3 DUP7 ADD PUSH2 0x328 JUMP JUMPDEST SWAP3 POP POP PUSH1 0x20 PUSH2 0x373 DUP6 DUP3 DUP7 ADD PUSH2 0x328 JUMP JUMPDEST SWAP2 POP POP SWAP3 POP SWAP3 SWAP1 POP JUMP JUMPDEST PUSH2 0x386 DUP2 PUSH2 0x307 JUMP JUMPDEST DUP3 MSTORE POP POP JUMP JUMPDEST PUSH1 0x0 PUSH1 0x20 DUP3 ADD SWAP1 POP PUSH2 0x3A1 PUSH1 0x0 DUP4 ADD DUP5 PUSH2 0x37D JUMP JUMPDEST SWAP3 SWAP2 POP POP JUMP JUMPDEST PUSH2 0x3B0 DUP2 PUSH2 0x267 JUMP JUMPDEST DUP3 MSTORE POP POP JUMP JUMPDEST PUSH1 0x0 PUSH1 0x40 DUP3 ADD SWAP1 POP PUSH2 0x3CB PUSH1 0x0 DUP4 ADD DUP6 PUSH2 0x3A7 JUMP JUMPDEST PUSH2 0x3D8 PUSH1 0x20 DUP4 ADD DUP5 PUSH2 0x3A7 JUMP JUMPDEST SWAP4 SWAP3 POP POP POP JUMP JUMPDEST PUSH1 0x0 DUP2 MLOAD SWAP1 POP PUSH2 0x3EE DUP2 PUSH2 0x271 JUMP JUMPDEST SWAP3 SWAP2 POP POP JUMP JUMPDEST PUSH1 0x0 PUSH1 0x20 DUP3 DUP5 SUB SLT ISZERO PUSH2 0x40A JUMPI PUSH2 0x409 PUSH2 0x262 JUMP JUMPDEST JUMPDEST PUSH1 0x0 PUSH2 0x418 DUP5 DUP3 DUP6 ADD PUSH2 0x3DF JUMP JUMPDEST SWAP2 POP POP SWAP3 SWAP2 POP POP JUMP JUMPDEST PUSH2 0x42A DUP2 PUSH2 0x307 JUMP JUMPDEST DUP3 MSTORE POP POP JUMP JUMPDEST PUSH1 0x0 PUSH1 0x40 DUP3 ADD SWAP1 POP PUSH2 0x445 PUSH1 0x0 DUP4 ADD DUP6 PUSH2 0x421 JUMP JUMPDEST PUSH2 0x452 PUSH1 0x20 DUP4 ADD DUP5 PUSH2 0x421 JUMP JUMPDEST SWAP4 SWAP3 POP POP POP JUMP JUMPDEST PUSH1 0x0 DUP2 MLOAD SWAP1 POP PUSH2 0x468 DUP2 PUSH2 0x311 JUMP JUMPDEST SWAP3 SWAP2 POP POP JUMP JUMPDEST PUSH1 0x0 PUSH1 0x20 DUP3 DUP5 SUB SLT ISZERO PUSH2 0x484 JUMPI PUSH2 0x483 PUSH2 0x262 JUMP JUMPDEST JUMPDEST PUSH1 0x0 PUSH2 0x492 DUP5 DUP3 DUP6 ADD PUSH2 0x459 JUMP JUMPDEST SWAP2 POP POP SWAP3 SWAP2 POP POP JUMP INVALID LOG2 PUSH5 0x6970667358 0x22 SLT KECCAK256 0xDE JUMPI 0xC7 0xD5 0x1E PUSH22 0x442604313268D5B087C156F0B4B78328A8F9A516865D EXTCODECOPY 0xAD SAR LOG4 PUSH5 0x736F6C6343 STOP ADDMOD SLT STOP CALLER "
				},
				"gasEstimates": {
					"creation": {
						"codeDepositCost": "246600",
						"executionCost": "287",
						"totalCost": "246887"
					},
					"external": {
						"difference(int256,int256)": "infinite",
						"exponential(uint256,uint256)": "infinite",
						"summation(uint256,uint256)": "infinite"
					}
				},
				"methodIdentifiers": {
					"difference(int256,int256)": "5a866137",
					"exponential(uint256,uint256)": "d9b5b5ca",
					"summation(uint256,uint256)": "f934e3d5"
				}
			},
			"storageLayout": {
				"storage": [],
				"types": null
			},
			"userdoc": {
				"kind": "user",
				"methods": {},
				"version": 1
			}
		}
	}
}