{
	"data": {
		"bytecode": {
			"linkReferences": {},
			"object": "608060405234801561000f575f80fd5b50610abc8061001d5f395ff3fe608060405234801561000f575f80fd5b506004361061004a575f3560e01c80639ce6b3a41461004e578063a79da9521461007e578063e1098966146100ae578063ef080319146100ca575b5f80fd5b610068600480360381019061006391906105cb565b6100e6565b60405161007591906106b1565b60405180910390f35b610098600480360381019061009391906105cb565b6101df565b6040516100a591906106b1565b60405180910390f35b6100c860048036038101906100c391906106d1565b6102a7565b005b6100e460048036038101906100df91906105cb565b610322565b005b60605f808581526020019081526020015f205f8473ffffffffffffffffffffffffffffffffffffffff1673ffffffffffffffffffffffffffffffffffffffff1681526020019081526020015f208260405161014191906107a7565b9081526020016040518091039020805461015a906107ea565b80601f0160208091040260200160405190810160405280929190818152602001828054610186906107ea565b80156101d15780601f106101a8576101008083540402835291602001916101d1565b820191905f5260205f20905b8154815290600101906020018083116101b457829003601f168201915b505050505090509392505050565b5f602052825f5260405f20602052815f5260405f20818051602081018201805184825260208301602085012081835280955050505050505f9250925050508054610228906107ea565b80601f0160208091040260200160405190810160405280929190818152602001828054610254906107ea565b801561029f5780601f106102765761010080835404028352916020019161029f565b820191905f5260205f20905b81548152906001019060200180831161028257829003601f168201915b505050505081565b805f808681526020019081526020015f205f8573ffffffffffffffffffffffffffffffffffffffff1673ffffffffffffffffffffffffffffffffffffffff1681526020019081526020015f208360405161030191906107a7565b9081526020016040518091039020908161031b91906109b7565b5050505050565b5f808481526020019081526020015f205f8373ffffffffffffffffffffffffffffffffffffffff1673ffffffffffffffffffffffffffffffffffffffff1681526020019081526020015f208160405161037b91906107a7565b90815260200160405180910390205f6103949190610399565b505050565b5080546103a5906107ea565b5f825580601f106103b657506103d3565b601f0160209004905f5260205f20908101906103d291906103d6565b5b50565b5b808211156103ed575f815f9055506001016103d7565b5090565b5f604051905090565b5f80fd5b5f80fd5b5f819050919050565b61041481610402565b811461041e575f80fd5b50565b5f8135905061042f8161040b565b92915050565b5f73ffffffffffffffffffffffffffffffffffffffff82169050919050565b5f61045e82610435565b9050919050565b61046e81610454565b8114610478575f80fd5b50565b5f8135905061048981610465565b92915050565b5f80fd5b5f80fd5b5f601f19601f8301169050919050565b7f4e487b71000000000000000000000000000000000000000000000000000000005f52604160045260245ffd5b6104dd82610497565b810181811067ffffffffffffffff821117156104fc576104fb6104a7565b5b80604052505050565b5f61050e6103f1565b905061051a82826104d4565b919050565b5f67ffffffffffffffff821115610539576105386104a7565b5b61054282610497565b9050602081019050919050565b828183375f83830152505050565b5f61056f61056a8461051f565b610505565b90508281526020810184848401111561058b5761058a610493565b5b61059684828561054f565b509392505050565b5f82601f8301126105b2576105b161048f565b5b81356105c284826020860161055d565b91505092915050565b5f805f606084860312156105e2576105e16103fa565b5b5f6105ef86828701610421565b93505060206106008682870161047b565b925050604084013567ffffffffffffffff811115610621576106206103fe565b5b61062d8682870161059e565b9150509250925092565b5f81519050919050565b5f82825260208201905092915050565b5f5b8381101561066e578082015181840152602081019050610653565b5f8484015250505050565b5f61068382610637565b61068d8185610641565b935061069d818560208601610651565b6106a681610497565b840191505092915050565b5f6020820190508181035f8301526106c98184610679565b905092915050565b5f805f80608085870312156106e9576106e86103fa565b5b5f6106f687828801610421565b94505060206107078782880161047b565b935050604085013567ffffffffffffffff811115610728576107276103fe565b5b6107348782880161059e565b925050606085013567ffffffffffffffff811115610755576107546103fe565b5b6107618782880161059e565b91505092959194509250565b5f81905092915050565b5f61078182610637565b61078b818561076d565b935061079b818560208601610651565b80840191505092915050565b5f6107b28284610777565b915081905092915050565b7f4e487b71000000000000000000000000000000000000000000000000000000005f52602260045260245ffd5b5f600282049050600182168061080157607f821691505b602082108103610814576108136107bd565b5b50919050565b5f819050815f5260205f209050919050565b5f6020601f8301049050919050565b5f82821b905092915050565b5f600883026108767fffffffffffffffffffffffffffffffffffffffffffffffffffffffffffffffff8261083b565b610880868361083b565b95508019841693508086168417925050509392505050565b5f819050919050565b5f6108bb6108b66108b184610402565b610898565b610402565b9050919050565b5f819050919050565b6108d4836108a1565b6108e86108e0826108c2565b848454610847565b825550505050565b5f90565b6108fc6108f0565b6109078184846108cb565b505050565b5b8181101561092a5761091f5f826108f4565b60018101905061090d565b5050565b601f82111561096f576109408161081a565b6109498461082c565b81016020851015610958578190505b61096c6109648561082c565b83018261090c565b50505b505050565b5f82821c905092915050565b5f61098f5f1984600802610974565b1980831691505092915050565b5f6109a78383610980565b9150826002028217905092915050565b6109c082610637565b67ffffffffffffffff8111156109d9576109d86104a7565b5b6109e382546107ea565b6109ee82828561092e565b5f60209050601f831160018114610a1f575f8415610a0d578287015190505b610a17858261099c565b865550610a7e565b601f198416610a2d8661081a565b5f5b82811015610a5457848901518255600182019150602085019450602081019050610a2f565b86831015610a715784890151610a6d601f891682610980565b8355505b6001600288020188555050505b50505050505056fea26469706673582212201f2a0a6187309d0a08935fcfbb0428ff99acdf92039a7d56a45f394f29e186cc64736f6c63430008150033",
			"opcodes": "PUSH1 0x80 PUSH1 0x40 MSTORE CALLVALUE DUP1 ISZERO PUSH2 0xF JUMPI PUSH0 DUP1 REVERT JUMPDEST POP PUSH2 0xABC DUP1 PUSH2 0x1D PUSH0 CODECOPY PUSH0 RETURN INVALID PUSH1 0x80 PUSH1 0x40 MSTORE CALLVALUE DUP1 ISZERO PUSH2 0xF JUMPI PUSH0 DUP1 REVERT JUMPDEST POP PUSH1 0x4 CALLDATASIZE LT PUSH2 0x4A JUMPI PUSH0 CALLDATALOAD PUSH1 0xE0 SHR DUP1 PUSH4 0x9CE6B3A4 EQ PUSH2 0x4E JUMPI DUP1 PUSH4 0xA79DA952 EQ PUSH2 0x7E JUMPI DUP1 PUSH4 0xE1098966 EQ PUSH2 0xAE JUMPI DUP1 PUSH4 0xEF080319 EQ PUSH2 0xCA JUMPI JUMPDEST PUSH0 DUP1 REVERT JUMPDEST PUSH2 0x68 PUSH1 0x4 DUP1 CALLDATASIZE SUB DUP2 ADD SWAP1 PUSH2 0x63 SWAP2 SWAP1 PUSH2 0x5CB JUMP JUMPDEST PUSH2 0xE6 JUMP JUMPDEST PUSH1 0x40 MLOAD PUSH2 0x75 SWAP2 SWAP1 PUSH2 0x6B1 JUMP JUMPDEST PUSH1 0x40 MLOAD DUP1 SWAP2 SUB SWAP1 RETURN JUMPDEST PUSH2 0x98 PUSH1 0x4 DUP1 CALLDATASIZE SUB DUP2 ADD SWAP1 PUSH2 0x93 SWAP2 SWAP1 PUSH2 0x5CB JUMP JUMPDEST PUSH2 0x1DF JUMP JUMPDEST PUSH1 0x40 MLOAD PUSH2 0xA5 SWAP2 SWAP1 PUSH2 0x6B1 JUMP JUMPDEST PUSH1 0x40 MLOAD DUP1 SWAP2 SUB SWAP1 RETURN JUMPDEST PUSH2 0xC8 PUSH1 0x4 DUP1 CALLDATASIZE SUB DUP2 ADD SWAP1 PUSH2 0xC3 SWAP2 SWAP1 PUSH2 0x6D1 JUMP JUMPDEST PUSH2 0x2A7 JUMP JUMPDEST STOP JUMPDEST PUSH2 0xE4 PUSH1 0x4 DUP1 CALLDATASIZE SUB DUP2 ADD SWAP1 PUSH2 0xDF SWAP2 SWAP1 PUSH2 0x5CB JUMP JUMPDEST PUSH2 0x322 JUMP JUMPDEST STOP JUMPDEST PUSH1 0x60 PUSH0 DUP1 DUP6 DUP2 MSTORE PUSH1 0x20 ADD SWAP1 DUP2 MSTORE PUSH1 0x20 ADD PUSH0 KECCAK256 PUSH0 DUP5 PUSH20 0xFFFFFFFFFFFFFFFFFFFFFFFFFFFFFFFFFFFFFFFF AND PUSH20 0xFFFFFFFFFFFFFFFFFFFFFFFFFFFFFFFFFFFFFFFF AND DUP2 MSTORE PUSH1 0x20 ADD SWAP1 DUP2 MSTORE PUSH1 0x20 ADD PUSH0 KECCAK256 DUP3 PUSH1 0x40 MLOAD PUSH2 0x141 SWAP2 SWAP1 PUSH2 0x7A7 JUMP JUMPDEST SWAP1 DUP2 MSTORE PUSH1 0x20 ADD PUSH1 0x40 MLOAD DUP1 SWAP2 SUB SWAP1 KECCAK256 DUP1 SLOAD PUSH2 0x15A SWAP1 PUSH2 0x7EA JUMP JUMPDEST DUP1 PUSH1 0x1F ADD PUSH1 0x20 DUP1 SWAP2 DIV MUL PUSH1 0x20 ADD PUSH1 0x40 MLOAD SWAP1 DUP2 ADD PUSH1 0x40 MSTORE DUP1 SWAP3 SWAP2 SWAP1 DUP2 DUP2 MSTORE PUSH1 0x20 ADD DUP3 DUP1 SLOAD PUSH2 0x186 SWAP1 PUSH2 0x7EA JUMP JUMPDEST DUP1 ISZERO PUSH2 0x1D1 JUMPI DUP1 PUSH1 0x1F LT PUSH2 0x1A8 JUMPI PUSH2 0x100 DUP1 DUP4 SLOAD DIV MUL DUP4 MSTORE SWAP2 PUSH1 0x20 ADD SWAP2 PUSH2 0x1D1 JUMP JUMPDEST DUP3 ADD SWAP2 SWAP1 PUSH0 MSTORE PUSH1 0x20 PUSH0 KECCAK256 SWAP1 JUMPDEST DUP2 SLOAD DUP2 MSTORE SWAP1 PUSH1 0x1 ADD SWAP1 PUSH1 0x20 ADD DUP1 DUP4 GT PUSH2 0x1B4 JUMPI DUP3 SWAP1 SUB PUSH1 0x1F AND DUP3 ADD SWAP2 JUMPDEST POP POP POP POP POP SWAP1 POP SWAP4 SWAP3 POP POP POP JUMP JUMPDEST PUSH0 PUSH1 0x20 MSTORE DUP3 PUSH0 MSTORE PUSH1 0x40 PUSH0 KECCAK256 PUSH1 0x20 MSTORE DUP2 PUSH0 MSTORE PUSH1 0x40 PUSH0 KECCAK256 DUP2 DUP1 MLOAD PUSH1 0x20 DUP2 ADD DUP3 ADD DUP1 MLOAD DUP5 DUP3 MSTORE PUSH1 0x20 DUP4 ADD PUSH1 0x20 DUP6 ADD KECCAK256 DUP2 DUP4 MSTORE DUP1 SWAP6 POP POP POP POP POP POP PUSH0 SWAP3 POP SWAP3 POP POP POP DUP1 SLOAD PUSH2 0x228 SWAP1 PUSH2 0x7EA JUMP JUMPDEST DUP1 PUSH1 0x1F ADD PUSH1 0x20 DUP1 SWAP2 DIV MUL PUSH1 0x20 ADD PUSH1 0x40 MLOAD SWAP1 DUP2 ADD PUSH1 0x40 MSTORE DUP1 SWAP3 SWAP2 SWAP1 DUP2 DUP2 MSTORE PUSH1 0x20 ADD DUP3 DUP1 SLOAD PUSH2 0x254 SWAP1 PUSH2 0x7EA JUMP JUMPDEST DUP1 ISZERO PUSH2 0x29F JUMPI DUP1 PUSH1 0x1F LT PUSH2 0x276 JUMPI PUSH2 0x100 DUP1 DUP4 SLOAD DIV MUL DUP4 MSTORE SWAP2 PUSH1 0x20 ADD SWAP2 PUSH2 0x29F JUMP JUMPDEST DUP3 ADD SWAP2 SWAP1 PUSH0 MSTORE PUSH1 0x20 PUSH0 KECCAK256 SWAP1 JUMPDEST DUP2 SLOAD DUP2 MSTORE SWAP1 PUSH1 0x1 ADD SWAP1 PUSH1 0x20 ADD DUP1 DUP4 GT PUSH2 0x282 JUMPI DUP3 SWAP1 SUB PUSH1 0x1F AND DUP3 ADD SWAP2 JUMPDEST POP POP POP POP POP DUP2 JUMP JUMPDEST DUP1 PUSH0 DUP1 DUP7 DUP2 MSTORE PUSH1 0x20 ADD SWAP1 DUP2 MSTORE PUSH1 0x20 ADD PUSH0 KECCAK256 PUSH0 DUP6 PUSH20 0xFFFFFFFFFFFFFFFFFFFFFFFFFFFFFFFFFFFFFFFF AND PUSH20 0xFFFFFFFFFFFFFFFFFFFFFFFFFFFFFFFFFFFFFFFF AND DUP2 MSTORE PUSH1 0x20 ADD SWAP1 DUP2 MSTORE PUSH1 0x20 ADD PUSH0 KECCAK256 DUP4 PUSH1 0x40 MLOAD PUSH2 0x301 SWAP2 SWAP1 PUSH2 0x7A7 JUMP JUMPDEST SWAP1 DUP2 MSTORE PUSH1 0x20 ADD PUSH1 0x40 MLOAD DUP1 SWAP2 SUB SWAP1 KECCAK256 SWAP1 DUP2 PUSH2 0x31B SWAP2 SWAP1 PUSH2 0x9B7 JUMP JUMPDEST POP POP POP POP POP JUMP JUMPDEST PUSH0 DUP1 DUP5 DUP2 MSTORE PUSH1 0x20 ADD SWAP1 DUP2 MSTORE PUSH1 0x20 ADD PUSH0 KECCAK256 PUSH0 DUP4 PUSH20 0xFFFFFFFFFFFFFFFFFFFFFFFFFFFFFFFFFFFFFFFF AND PUSH20 0xFFFFFFFFFFFFFFFFFFFFFFFFFFFFFFFFFFFFFFFF AND DUP2 MSTORE PUSH1 0x20 ADD SWAP1 DUP2 MSTORE PUSH1 0x20 ADD PUSH0 KECCAK256 DUP2 PUSH1 0x40 MLOAD PUSH2 0x37B SWAP2 SWAP1 PUSH2 0x7A7 JUMP JUMPDEST SWAP1 DUP2 MSTORE PUSH1 0x20 ADD PUSH1 0x40 MLOAD DUP1 SWAP2 SUB SWAP1 KECCAK256 PUSH0 PUSH2 0x394 SWAP2 SWAP1 PUSH2 0x399 JUMP JUMPDEST POP POP POP JUMP JUMPDEST POP DUP1 SLOAD PUSH2 0x3A5 SWAP1 PUSH2 0x7EA JUMP JUMPDEST PUSH0 DUP3 SSTORE DUP1 PUSH1 0x1F LT PUSH2 0x3B6 JUMPI POP PUSH2 0x3D3 JUMP JUMPDEST PUSH1 0x1F ADD PUSH1 0x20 SWAP1 DIV SWAP1 PUSH0 MSTORE PUSH1 0x20 PUSH0 KECCAK256 SWAP1 DUP2 ADD SWAP1 PUSH2 0x3D2 SWAP2 SWAP1 PUSH2 0x3D6 JUMP JUMPDEST JUMPDEST POP JUMP JUMPDEST JUMPDEST DUP1 DUP3 GT ISZERO PUSH2 0x3ED JUMPI PUSH0 DUP2 PUSH0 SWAP1 SSTORE POP PUSH1 0x1 ADD PUSH2 0x3D7 JUMP JUMPDEST POP SWAP1 JUMP JUMPDEST PUSH0 PUSH1 0x40 MLOAD SWAP1 POP SWAP1 JUMP JUMPDEST PUSH0 DUP1 REVERT JUMPDEST PUSH0 DUP1 REVERT JUMPDEST PUSH0 DUP2 SWAP1 POP SWAP2 SWAP1 POP JUMP JUMPDEST PUSH2 0x414 DUP2 PUSH2 0x402 JUMP JUMPDEST DUP2 EQ PUSH2 0x41E JUMPI PUSH0 DUP1 REVERT JUMPDEST POP JUMP JUMPDEST PUSH0 DUP2 CALLDATALOAD SWAP1 POP PUSH2 0x42F DUP2 PUSH2 0x40B JUMP JUMPDEST SWAP3 SWAP2 POP POP JUMP JUMPDEST PUSH0 PUSH20 0xFFFFFFFFFFFFFFFFFFFFFFFFFFFFFFFFFFFFFFFF DUP3 AND SWAP1 POP SWAP2 SWAP1 POP JUMP JUMPDEST PUSH0 PUSH2 0x45E DUP3 PUSH2 0x435 JUMP JUMPDEST SWAP1 POP SWAP2 SWAP1 POP JUMP JUMPDEST PUSH2 0x46E DUP2 PUSH2 0x454 JUMP JUMPDEST DUP2 EQ PUSH2 0x478 JUMPI PUSH0 DUP1 REVERT JUMPDEST POP JUMP JUMPDEST PUSH0 DUP2 CALLDATALOAD SWAP1 POP PUSH2 0x489 DUP2 PUSH2 0x465 JUMP JUMPDEST SWAP3 SWAP2 POP POP JUMP JUMPDEST PUSH0 DUP1 REVERT JUMPDEST PUSH0 DUP1 REVERT JUMPDEST PUSH0 PUSH1 0x1F NOT PUSH1 0x1F DUP4 ADD AND SWAP1 POP SWAP2 SWAP1 POP JUMP JUMPDEST PUSH32 0x4E487B7100000000000000000000000000000000000000000000000000000000 PUSH0 MSTORE PUSH1 0x41 PUSH1 0x4 MSTORE PUSH1 0x24 PUSH0 REVERT JUMPDEST PUSH2 0x4DD DUP3 PUSH2 0x497 JUMP JUMPDEST DUP2 ADD DUP2 DUP2 LT PUSH8 0xFFFFFFFFFFFFFFFF DUP3 GT OR ISZERO PUSH2 0x4FC JUMPI PUSH2 0x4FB PUSH2 0x4A7 JUMP JUMPDEST JUMPDEST DUP1 PUSH1 0x40 MSTORE POP POP POP JUMP JUMPDEST PUSH0 PUSH2 0x50E PUSH2 0x3F1 JUMP JUMPDEST SWAP1 POP PUSH2 0x51A DUP3 DUP3 PUSH2 0x4D4 JUMP JUMPDEST SWAP2 SWAP1 POP JUMP JUMPDEST PUSH0 PUSH8 0xFFFFFFFFFFFFFFFF DUP3 GT ISZERO PUSH2 0x539 JUMPI PUSH2 0x538 PUSH2 0x4A7 JUMP JUMPDEST JUMPDEST PUSH2 0x542 DUP3 PUSH2 0x497 JUMP JUMPDEST SWAP1 POP PUSH1 0x20 DUP2 ADD SWAP1 POP SWAP2 SWAP1 POP JUMP JUMPDEST DUP3 DUP2 DUP4 CALLDATACOPY PUSH0 DUP4 DUP4 ADD MSTORE POP POP POP JUMP JUMPDEST PUSH0 PUSH2 0x56F PUSH2 0x56A DUP5 PUSH2 0x51F JUMP JUMPDEST PUSH2 0x505 JUMP JUMPDEST SWAP1 POP DUP3 DUP2 MSTORE PUSH1 0x20 DUP2 ADD DUP5 DUP5 DUP5 ADD GT ISZERO PUSH2 0x58B JUMPI PUSH2 0x58A PUSH2 0x493 JUMP JUMPDEST JUMPDEST PUSH2 0x596 DUP5 DUP3 DUP6 PUSH2 0x54F JUMP JUMPDEST POP SWAP4 SWAP3 POP POP POP JUMP JUMPDEST PUSH0 DUP3 PUSH1 0x1F DUP4 ADD SLT PUSH2 0x5B2 JUMPI PUSH2 0x5B1 PUSH2 0x48F JUMP JUMPDEST JUMPDEST DUP2 CALLDATALOAD PUSH2 0x5C2 DUP5 DUP3 PUSH1 0x20 DUP7 ADD PUSH2 0x55D JUMP JUMPDEST SWAP2 POP POP SWAP3 SWAP2 POP POP JUMP JUMPDEST PUSH0 DUP1 PUSH0 PUSH1 0x60 DUP5 DUP7 SUB SLT ISZERO PUSH2 0x5E2 JUMPI PUSH2 0x5E1 PUSH2 0x3FA JUMP JUMPDEST JUMPDEST PUSH0 PUSH2 0x5EF DUP7 DUP3 DUP8 ADD PUSH2 0x421 JUMP JUMPDEST SWAP4 POP POP PUSH1 0x20 PUSH2 0x600 DUP7 DUP3 DUP8 ADD PUSH2 0x47B JUMP JUMPDEST SWAP3 POP POP PUSH1 0x40 DUP5 ADD CALLDATALOAD PUSH8 0xFFFFFFFFFFFFFFFF DUP2 GT ISZERO PUSH2 0x621 JUMPI PUSH2 0x620 PUSH2 0x3FE JUMP JUMPDEST JUMPDEST PUSH2 0x62D DUP7 DUP3 DUP8 ADD PUSH2 0x59E JUMP JUMPDEST SWAP2 POP POP SWAP3 POP SWAP3 POP SWAP3 JUMP JUMPDEST PUSH0 DUP2 MLOAD SWAP1 POP SWAP2 SWAP1 POP JUMP JUMPDEST PUSH0 DUP3 DUP3 MSTORE PUSH1 0x20 DUP3 ADD SWAP1 POP SWAP3 SWAP2 POP POP JUMP JUMPDEST PUSH0 JUMPDEST DUP4 DUP2 LT ISZERO PUSH2 0x66E JUMPI DUP1 DUP3 ADD MLOAD DUP2 DUP5 ADD MSTORE PUSH1 0x20 DUP2 ADD SWAP1 POP PUSH2 0x653 JUMP JUMPDEST PUSH0 DUP5 DUP5 ADD MSTORE POP POP POP POP JUMP JUMPDEST PUSH0 PUSH2 0x683 DUP3 PUSH2 0x637 JUMP JUMPDEST PUSH2 0x68D DUP2 DUP6 PUSH2 0x641 JUMP JUMPDEST SWAP4 POP PUSH2 0x69D DUP2 DUP6 PUSH1 0x20 DUP7 ADD PUSH2 0x651 JUMP JUMPDEST PUSH2 0x6A6 DUP2 PUSH2 0x497 JUMP JUMPDEST DUP5 ADD SWAP2 POP POP SWAP3 SWAP2 POP POP JUMP JUMPDEST PUSH0 PUSH1 0x20 DUP3 ADD SWAP1 POP DUP2 DUP2 SUB PUSH0 DUP4 ADD MSTORE PUSH2 0x6C9 DUP2 DUP5 PUSH2 0x679 JUMP JUMPDEST SWAP1 POP SWAP3 SWAP2 POP POP JUMP JUMPDEST PUSH0 DUP1 PUSH0 DUP1 PUSH1 0x80 DUP6 DUP8 SUB SLT ISZERO PUSH2 0x6E9 JUMPI PUSH2 0x6E8 PUSH2 0x3FA JUMP JUMPDEST JUMPDEST PUSH0 PUSH2 0x6F6 DUP8 DUP3 DUP9 ADD PUSH2 0x421 JUMP JUMPDEST SWAP5 POP POP PUSH1 0x20 PUSH2 0x707 DUP8 DUP3 DUP9 ADD PUSH2 0x47B JUMP JUMPDEST SWAP4 POP POP PUSH1 0x40 DUP6 ADD CALLDATALOAD PUSH8 0xFFFFFFFFFFFFFFFF DUP2 GT ISZERO PUSH2 0x728 JUMPI PUSH2 0x727 PUSH2 0x3FE JUMP JUMPDEST JUMPDEST PUSH2 0x734 DUP8 DUP3 DUP9 ADD PUSH2 0x59E JUMP JUMPDEST SWAP3 POP POP PUSH1 0x60 DUP6 ADD CALLDATALOAD PUSH8 0xFFFFFFFFFFFFFFFF DUP2 GT ISZERO PUSH2 0x755 JUMPI PUSH2 0x754 PUSH2 0x3FE JUMP JUMPDEST JUMPDEST PUSH2 0x761 DUP8 DUP3 DUP9 ADD PUSH2 0x59E JUMP JUMPDEST SWAP2 POP POP SWAP3 SWAP6 SWAP2 SWAP5 POP SWAP3 POP JUMP JUMPDEST PUSH0 DUP2 SWAP1 POP SWAP3 SWAP2 POP POP JUMP JUMPDEST PUSH0 PUSH2 0x781 DUP3 PUSH2 0x637 JUMP JUMPDEST PUSH2 0x78B DUP2 DUP6 PUSH2 0x76D JUMP JUMPDEST SWAP4 POP PUSH2 0x79B DUP2 DUP6 PUSH1 0x20 DUP7 ADD PUSH2 0x651 JUMP JUMPDEST DUP1 DUP5 ADD SWAP2 POP POP SWAP3 SWAP2 POP POP JUMP JUMPDEST PUSH0 PUSH2 0x7B2 DUP3 DUP5 PUSH2 0x777 JUMP JUMPDEST SWAP2 POP DUP2 SWAP1 POP SWAP3 SWAP2 POP POP JUMP JUMPDEST PUSH32 0x4E487B7100000000000000000000000000000000000000000000000000000000 PUSH0 MSTORE PUSH1 0x22 PUSH1 0x4 MSTORE PUSH1 0x24 PUSH0 REVERT JUMPDEST PUSH0 PUSH1 0x2 DUP3 DIV SWAP1 POP PUSH1 0x1 DUP3 AND DUP1 PUSH2 0x801 JUMPI PUSH1 0x7F DUP3 AND SWAP2 POP JUMPDEST PUSH1 0x20 DUP3 LT DUP2 SUB PUSH2 0x814 JUMPI PUSH2 0x813 PUSH2 0x7BD JUMP JUMPDEST JUMPDEST POP SWAP2 SWAP1 POP JUMP JUMPDEST PUSH0 DUP2 SWAP1 POP DUP2 PUSH0 MSTORE PUSH1 0x20 PUSH0 KECCAK256 SWAP1 POP SWAP2 SWAP1 POP JUMP JUMPDEST PUSH0 PUSH1 0x20 PUSH1 0x1F DUP4 ADD DIV SWAP1 POP SWAP2 SWAP1 POP JUMP JUMPDEST PUSH0 DUP3 DUP3 SHL SWAP1 POP SWAP3 SWAP2 POP POP JUMP JUMPDEST PUSH0 PUSH1 0x8 DUP4 MUL PUSH2 0x876 PUSH32 0xFFFFFFFFFFFFFFFFFFFFFFFFFFFFFFFFFFFFFFFFFFFFFFFFFFFFFFFFFFFFFFFF DUP3 PUSH2 0x83B JUMP JUMPDEST PUSH2 0x880 DUP7 DUP4 PUSH2 0x83B JUMP JUMPDEST SWAP6 POP DUP1 NOT DUP5 AND SWAP4 POP DUP1 DUP7 AND DUP5 OR SWAP3 POP POP POP SWAP4 SWAP3 POP POP POP JUMP JUMPDEST PUSH0 DUP2 SWAP1 POP SWAP2 SWAP1 POP JUMP JUMPDEST PUSH0 PUSH2 0x8BB PUSH2 0x8B6 PUSH2 0x8B1 DUP5 PUSH2 0x402 JUMP JUMPDEST PUSH2 0x898 JUMP JUMPDEST PUSH2 0x402 JUMP JUMPDEST SWAP1 POP SWAP2 SWAP1 POP JUMP JUMPDEST PUSH0 DUP2 SWAP1 POP SWAP2 SWAP1 POP JUMP JUMPDEST PUSH2 0x8D4 DUP4 PUSH2 0x8A1 JUMP JUMPDEST PUSH2 0x8E8 PUSH2 0x8E0 DUP3 PUSH2 0x8C2 JUMP JUMPDEST DUP5 DUP5 SLOAD PUSH2 0x847 JUMP JUMPDEST DUP3 SSTORE POP POP POP POP JUMP JUMPDEST PUSH0 SWAP1 JUMP JUMPDEST PUSH2 0x8FC PUSH2 0x8F0 JUMP JUMPDEST PUSH2 0x907 DUP2 DUP5 DUP5 PUSH2 0x8CB JUMP JUMPDEST POP POP POP JUMP JUMPDEST JUMPDEST DUP2 DUP2 LT ISZERO PUSH2 0x92A JUMPI PUSH2 0x91F PUSH0 DUP3 PUSH2 0x8F4 JUMP JUMPDEST PUSH1 0x1 DUP2 ADD SWAP1 POP PUSH2 0x90D JUMP JUMPDEST POP POP JUMP JUMPDEST PUSH1 0x1F DUP3 GT ISZERO PUSH2 0x96F JUMPI PUSH2 0x940 DUP2 PUSH2 0x81A JUMP JUMPDEST PUSH2 0x949 DUP5 PUSH2 0x82C JUMP JUMPDEST DUP2 ADD PUSH1 0x20 DUP6 LT ISZERO PUSH2 0x958 JUMPI DUP2 SWAP1 POP JUMPDEST PUSH2 0x96C PUSH2 0x964 DUP6 PUSH2 0x82C JUMP JUMPDEST DUP4 ADD DUP3 PUSH2 0x90C JUMP JUMPDEST POP POP JUMPDEST POP POP POP JUMP JUMPDEST PUSH0 DUP3 DUP3 SHR SWAP1 POP SWAP3 SWAP2 POP POP JUMP JUMPDEST PUSH0 PUSH2 0x98F PUSH0 NOT DUP5 PUSH1 0x8 MUL PUSH2 0x974 JUMP JUMPDEST NOT DUP1 DUP4 AND SWAP2 POP POP SWAP3 SWAP2 POP POP JUMP JUMPDEST PUSH0 PUSH2 0x9A7 DUP4 DUP4 PUSH2 0x980 JUMP JUMPDEST SWAP2 POP DUP3 PUSH1 0x2 MUL DUP3 OR SWAP1 POP SWAP3 SWAP2 POP POP JUMP JUMPDEST PUSH2 0x9C0 DUP3 PUSH2 0x637 JUMP JUMPDEST PUSH8 0xFFFFFFFFFFFFFFFF DUP2 GT ISZERO PUSH2 0x9D9 JUMPI PUSH2 0x9D8 PUSH2 0x4A7 JUMP JUMPDEST JUMPDEST PUSH2 0x9E3 DUP3 SLOAD PUSH2 0x7EA JUMP JUMPDEST PUSH2 0x9EE DUP3 DUP3 DUP6 PUSH2 0x92E JUMP JUMPDEST PUSH0 PUSH1 0x20 SWAP1 POP PUSH1 0x1F DUP4 GT PUSH1 0x1 DUP2 EQ PUSH2 0xA1F JUMPI PUSH0 DUP5 ISZERO PUSH2 0xA0D JUMPI DUP3 DUP8 ADD MLOAD SWAP1 POP JUMPDEST PUSH2 0xA17 DUP6 DUP3 PUSH2 0x99C JUMP JUMPDEST DUP7 SSTORE POP PUSH2 0xA7E JUMP JUMPDEST PUSH1 0x1F NOT DUP5 AND PUSH2 0xA2D DUP7 PUSH2 0x81A JUMP JUMPDEST PUSH0 JUMPDEST DUP3 DUP2 LT ISZERO PUSH2 0xA54 JUMPI DUP5 DUP10 ADD MLOAD DUP3 SSTORE PUSH1 0x1 DUP3 ADD SWAP2 POP PUSH1 0x20 DUP6 ADD SWAP5 POP PUSH1 0x20 DUP2 ADD SWAP1 POP PUSH2 0xA2F JUMP JUMPDEST DUP7 DUP4 LT ISZERO PUSH2 0xA71 JUMPI DUP5 DUP10 ADD MLOAD PUSH2 0xA6D PUSH1 0x1F DUP10 AND DUP3 PUSH2 0x980 JUMP JUMPDEST DUP4 SSTORE POP JUMPDEST PUSH1 0x1 PUSH1 0x2 DUP9 MUL ADD DUP9 SSTORE POP POP POP JUMPDEST POP POP POP POP POP POP JUMP INVALID LOG2 PUSH5 0x6970667358 0x22 SLT KECCAK256 0x1F 0x2A EXP PUSH2 0x8730 SWAP14 EXP ADDMOD SWAP4 PUSH0 0xCF 0xBB DIV 0x28 SELFDESTRUCT SWAP10 0xAC 0xDF SWAP3 SUB SWAP11 PUSH30 0x56A45F394F29E186CC64736F6C6343000815003300000000000000000000 "
		},
		"gasEstimates": {
			"creation": {
				"codeDepositCost": "549600",
				"executionCost": "579",
				"totalCost": "550179"
			},
			"external": {
				"UserMap(uint256,address,string)": "infinite",
				"get(uint256,address,string)": "infinite",
				"reset(uint256,address,string)": "infinite",
				"setMap(uint256,address,string,string)": "infinite"
			}
		},
		"methodIdentifiers": {
			"UserMap(uint256,address,string)": "a79da952",
			"get(uint256,address,string)": "9ce6b3a4",
			"reset(uint256,address,string)": "ef080319",
			"setMap(uint256,address,string,string)": "e1098966"
		}
	},
	"abi": [
		{
			"inputs": [
				{
					"internalType": "uint256",
					"name": "",
					"type": "uint256"
				},
				{
					"internalType": "address",
					"name": "",
					"type": "address"
				},
				{
					"internalType": "string",
					"name": "",
					"type": "string"
				}
			],
			"name": "UserMap",
			"outputs": [
				{
					"internalType": "string",
					"name": "",
					"type": "string"
				}
			],
			"stateMutability": "view",
			"type": "function"
		},
		{
			"inputs": [
				{
					"internalType": "uint256",
					"name": "birthYear",
					"type": "uint256"
				},
				{
					"internalType": "address",
					"name": "addr",
					"type": "address"
				},
				{
					"internalType": "string",
					"name": "codename",
					"type": "string"
				}
			],
			"name": "get",
			"outputs": [
				{
					"internalType": "string",
					"name": "",
					"type": "string"
				}
			],
			"stateMutability": "view",
			"type": "function"
		},
		{
			"inputs": [
				{
					"internalType": "uint256",
					"name": "birthYear",
					"type": "uint256"
				},
				{
					"internalType": "address",
					"name": "addr",
					"type": "address"
				},
				{
					"internalType": "string",
					"name": "codename",
					"type": "string"
				}
			],
			"name": "reset",
			"outputs": [],
			"stateMutability": "nonpayable",
			"type": "function"
		},
		{
			"inputs": [
				{
					"internalType": "uint256",
					"name": "birthYear",
					"type": "uint256"
				},
				{
					"internalType": "address",
					"name": "addr",
					"type": "address"
				},
				{
					"internalType": "string",
					"name": "codename",
					"type": "string"
				},
				{
					"internalType": "string",
					"name": "username",
					"type": "string"
				}
			],
			"name": "setMap",
			"outputs": [],
			"stateMutability": "nonpayable",
			"type": "function"
		}
	]
}