{
	"data": {
		"bytecode": {
			"linkReferences": {},
			"object": "60806040526001600381111561001857610017610052565b5b6000806101000a81548160ff0219169083600381111561003b5761003a610052565b5b021790555034801561004c57600080fd5b50610081565b7f4e487b7100000000000000000000000000000000000000000000000000000000600052602160045260246000fd5b61152e806100906000396000f3fe608060405234801561001057600080fd5b50600436106100935760003560e01c80636cc014de116100665780636cc014de146101395780639507d39a14610157578063a938f78d14610187578063b52b4d50146101a3578063edb6f7e7146101c457610093565b8063373bfc671461009857806345715674146100cd5780634a98f464146100e95780636b8ff57414610109575b600080fd5b6100b260048036038101906100ad9190610b3b565b6101f4565b6040516100c496959493929190610cc6565b60405180910390f35b6100e760048036038101906100e29190610ead565b6102d2565b005b6100f1610614565b6040516101009392919061106b565b60405180910390f35b610123600480360381019061011e9190610b3b565b610631565b60405161013091906110b7565b60405180910390f35b6101416106d9565b60405161014e91906110d9565b60405180910390f35b610171600480360381019061016c9190610b3b565b6106ea565b60405161017e91906110f4565b60405180910390f35b6101a1600480360381019061019c9190610ead565b61083d565b005b6101ab610941565b6040516101bb9493929190611116565b60405180910390f35b6101de60048036038101906101d9919061115b565b610a7f565b6040516101eb9190611188565b60405180910390f35b6001602052806000526040600020600091509050806000018054610217906111d2565b80601f0160208091040260200160405190810160405280929190818152602001828054610243906111d2565b80156102905780601f1061026557610100808354040283529160200191610290565b820191906000526020600020905b81548152906001019060200180831161027357829003601f168201915b5050505050908060010154908060020154908060030160009054906101000a900460ff16908060030160019054906101000a900460ff16908060040154905086565b6040518060c0016040528088815260200187815260200185815260200184600381111561030257610301610c07565b5b815260200183600381111561031a57610319610c07565b5b81526020018281525060016000878152602001908152602001600020600082015181600001908161034b91906113af565b50602082015181600101556040820151816002015560608201518160030160006101000a81548160ff0219169083600381111561038b5761038a610c07565b5b021790555060808201518160030160016101000a81548160ff021916908360038111156103bb576103ba610c07565b5b021790555060a08201518160040155905050600060038111156103e1576103e0610c07565b5b60038111156103f3576103f2610c07565b5b83600381111561040657610405610c07565b5b0361045d576002600084600381111561042257610421610c07565b5b600381111561043457610433610c07565b5b81526020019081526020016000206000815480929190610453906114b0565b919050555061060b565b6001600381111561047157610470610c07565b5b600381111561048357610482610c07565b5b83600381111561049657610495610c07565b5b036104ed57600260008460038111156104b2576104b1610c07565b5b60038111156104c4576104c3610c07565b5b815260200190815260200160002060008154809291906104e3906114b0565b919050555061060a565b6002600381111561050157610500610c07565b5b600381111561051357610512610c07565b5b83600381111561052657610525610c07565b5b0361057d576002600084600381111561054257610541610c07565b5b600381111561055457610553610c07565b5b81526020019081526020016000206000815480929190610573906114b0565b9190505550610609565b6003808111156105905761058f610c07565b5b60038111156105a2576105a1610c07565b5b8360038111156105b5576105b4610c07565b5b0361060857600260008460038111156105d1576105d0610c07565b5b60038111156105e3576105e2610c07565b5b81526020019081526020016000206000815480929190610602906114b0565b91905055505b5b5b5b50505050505050565b61061c610a97565b610624610a97565b61062c610a97565b909192565b6060600160008381526020019081526020016000206000018054610654906111d2565b80601f0160208091040260200160405190810160405280929190818152602001828054610680906111d2565b80156106cd5780601f106106a2576101008083540402835291602001916106cd565b820191906000526020600020905b8154815290600101906020018083116106b057829003601f168201915b50505050509050919050565b60008054906101000a900460ff1681565b6106f2610a97565b600160008381526020019081526020016000206040518060c0016040529081600082018054610720906111d2565b80601f016020809104026020016040519081016040528092919081815260200182805461074c906111d2565b80156107995780601f1061076e57610100808354040283529160200191610799565b820191906000526020600020905b81548152906001019060200180831161077c57829003601f168201915b5050505050815260200160018201548152602001600282015481526020016003820160009054906101000a900460ff1660038111156107db576107da610c07565b5b60038111156107ed576107ec610c07565b5b81526020016003820160019054906101000a900460ff16600381111561081657610815610c07565b5b600381111561082857610827610c07565b5b81526020016004820154815250509050919050565b6040518060c0016040528088815260200187815260200185815260200184600381111561086d5761086c610c07565b5b815260200183600381111561088557610884610c07565b5b8152602001828152506001600087815260200190815260200160002060008201518160000190816108b691906113af565b50602082015181600101556040820151816002015560608201518160030160006101000a81548160ff021916908360038111156108f6576108f5610c07565b5b021790555060808201518160030160016101000a81548160ff0219169083600381111561092657610925610c07565b5b021790555060a0820151816004015590505050505050505050565b6000806000806002600080600381111561095e5761095d610c07565b5b60038111156109705761096f610c07565b5b600381111561098257610981610c07565b5b81526020019081526020016000205460026000600160038111156109a9576109a8610c07565b5b60038111156109bb576109ba610c07565b5b60038111156109cd576109cc610c07565b5b81526020019081526020016000205460026000600260038111156109f4576109f3610c07565b5b6003811115610a0657610a05610c07565b5b6003811115610a1857610a17610c07565b5b81526020019081526020016000205460026000600380811115610a3e57610a3d610c07565b5b6003811115610a5057610a4f610c07565b5b6003811115610a6257610a61610c07565b5b815260200190815260200160002054935093509350935090919293565b60026020528060005260406000206000915090505481565b6040518060c0016040528060608152602001600081526020016000815260200160006003811115610acb57610aca610c07565b5b815260200160006003811115610ae457610ae3610c07565b5b8152602001600081525090565b6000604051905090565b600080fd5b600080fd5b6000819050919050565b610b1881610b05565b8114610b2357600080fd5b50565b600081359050610b3581610b0f565b92915050565b600060208284031215610b5157610b50610afb565b5b6000610b5f84828501610b26565b91505092915050565b600081519050919050565b600082825260208201905092915050565b60005b83811015610ba2578082015181840152602081019050610b87565b60008484015250505050565b6000601f19601f8301169050919050565b6000610bca82610b68565b610bd48185610b73565b9350610be4818560208601610b84565b610bed81610bae565b840191505092915050565b610c0181610b05565b82525050565b7f4e487b7100000000000000000000000000000000000000000000000000000000600052602160045260246000fd5b60048110610c4757610c46610c07565b5b50565b6000819050610c5882610c36565b919050565b6000610c6882610c4a565b9050919050565b610c7881610c5d565b82525050565b60048110610c8f57610c8e610c07565b5b50565b6000819050610ca082610c7e565b919050565b6000610cb082610c92565b9050919050565b610cc081610ca5565b82525050565b600060c0820190508181036000830152610ce08189610bbf565b9050610cef6020830188610bf8565b610cfc6040830187610bf8565b610d096060830186610c6f565b610d166080830185610cb7565b610d2360a0830184610bf8565b979650505050505050565b600080fd5b600080fd5b7f4e487b7100000000000000000000000000000000000000000000000000000000600052604160045260246000fd5b610d7082610bae565b810181811067ffffffffffffffff82111715610d8f57610d8e610d38565b5b80604052505050565b6000610da2610af1565b9050610dae8282610d67565b919050565b600067ffffffffffffffff821115610dce57610dcd610d38565b5b610dd782610bae565b9050602081019050919050565b82818337600083830152505050565b6000610e06610e0184610db3565b610d98565b905082815260208101848484011115610e2257610e21610d33565b5b610e2d848285610de4565b509392505050565b600082601f830112610e4a57610e49610d2e565b5b8135610e5a848260208601610df3565b91505092915050565b60048110610e7057600080fd5b50565b600081359050610e8281610e63565b92915050565b60048110610e9557600080fd5b50565b600081359050610ea781610e88565b92915050565b600080600080600080600060e0888a031215610ecc57610ecb610afb565b5b600088013567ffffffffffffffff811115610eea57610ee9610b00565b5b610ef68a828b01610e35565b9750506020610f078a828b01610b26565b9650506040610f188a828b01610b26565b9550506060610f298a828b01610b26565b9450506080610f3a8a828b01610e73565b93505060a0610f4b8a828b01610e98565b92505060c0610f5c8a828b01610b26565b91505092959891949750929550565b600082825260208201905092915050565b6000610f8782610b68565b610f918185610f6b565b9350610fa1818560208601610b84565b610faa81610bae565b840191505092915050565b610fbe81610b05565b82525050565b610fcd81610c5d565b82525050565b610fdc81610ca5565b82525050565b600060c0830160008301518482036000860152610fff8282610f7c565b91505060208301516110146020860182610fb5565b5060408301516110276040860182610fb5565b50606083015161103a6060860182610fc4565b50608083015161104d6080860182610fd3565b5060a083015161106060a0860182610fb5565b508091505092915050565b600060608201905081810360008301526110858186610fe2565b905081810360208301526110998185610fe2565b905081810360408301526110ad8184610fe2565b9050949350505050565b600060208201905081810360008301526110d18184610bbf565b905092915050565b60006020820190506110ee6000830184610cb7565b92915050565b6000602082019050818103600083015261110e8184610fe2565b905092915050565b600060808201905061112b6000830187610bf8565b6111386020830186610bf8565b6111456040830185610bf8565b6111526060830184610bf8565b95945050505050565b60006020828403121561117157611170610afb565b5b600061117f84828501610e73565b91505092915050565b600060208201905061119d6000830184610bf8565b92915050565b7f4e487b7100000000000000000000000000000000000000000000000000000000600052602260045260246000fd5b600060028204905060018216806111ea57607f821691505b6020821081036111fd576111fc6111a3565b5b50919050565b60008190508160005260206000209050919050565b60006020601f8301049050919050565b600082821b905092915050565b6000600883026112657fffffffffffffffffffffffffffffffffffffffffffffffffffffffffffffffff82611228565b61126f8683611228565b95508019841693508086168417925050509392505050565b6000819050919050565b60006112ac6112a76112a284610b05565b611287565b610b05565b9050919050565b6000819050919050565b6112c683611291565b6112da6112d2826112b3565b848454611235565b825550505050565b600090565b6112ef6112e2565b6112fa8184846112bd565b505050565b5b8181101561131e576113136000826112e7565b600181019050611300565b5050565b601f8211156113635761133481611203565b61133d84611218565b8101602085101561134c578190505b61136061135885611218565b8301826112ff565b50505b505050565b600082821c905092915050565b600061138660001984600802611368565b1980831691505092915050565b600061139f8383611375565b9150826002028217905092915050565b6113b882610b68565b67ffffffffffffffff8111156113d1576113d0610d38565b5b6113db82546111d2565b6113e6828285611322565b600060209050601f8311600181146114195760008415611407578287015190505b6114118582611393565b865550611479565b601f19841661142786611203565b60005b8281101561144f5784890151825560018201915060208501945060208101905061142a565b8683101561146c5784890151611468601f891682611375565b8355505b6001600288020188555050505b505050505050565b7f4e487b7100000000000000000000000000000000000000000000000000000000600052601160045260246000fd5b60006114bb82610b05565b91507fffffffffffffffffffffffffffffffffffffffffffffffffffffffffffffffff82036114ed576114ec611481565b5b60018201905091905056fea26469706673582212203cf2d07d042912b26c04ac70d2ecbfad0907bc09e2f75e5b0f3cfbecffdaf68a64736f6c63430008120033",
			"opcodes": "PUSH1 0x80 PUSH1 0x40 MSTORE PUSH1 0x1 PUSH1 0x3 DUP2 GT ISZERO PUSH2 0x18 JUMPI PUSH2 0x17 PUSH2 0x52 JUMP JUMPDEST JUMPDEST PUSH1 0x0 DUP1 PUSH2 0x100 EXP DUP2 SLOAD DUP2 PUSH1 0xFF MUL NOT AND SWAP1 DUP4 PUSH1 0x3 DUP2 GT ISZERO PUSH2 0x3B JUMPI PUSH2 0x3A PUSH2 0x52 JUMP JUMPDEST JUMPDEST MUL OR SWAP1 SSTORE POP CALLVALUE DUP1 ISZERO PUSH2 0x4C JUMPI PUSH1 0x0 DUP1 REVERT JUMPDEST POP PUSH2 0x81 JUMP JUMPDEST PUSH32 0x4E487B7100000000000000000000000000000000000000000000000000000000 PUSH1 0x0 MSTORE PUSH1 0x21 PUSH1 0x4 MSTORE PUSH1 0x24 PUSH1 0x0 REVERT JUMPDEST PUSH2 0x152E DUP1 PUSH2 0x90 PUSH1 0x0 CODECOPY PUSH1 0x0 RETURN INVALID PUSH1 0x80 PUSH1 0x40 MSTORE CALLVALUE DUP1 ISZERO PUSH2 0x10 JUMPI PUSH1 0x0 DUP1 REVERT JUMPDEST POP PUSH1 0x4 CALLDATASIZE LT PUSH2 0x93 JUMPI PUSH1 0x0 CALLDATALOAD PUSH1 0xE0 SHR DUP1 PUSH4 0x6CC014DE GT PUSH2 0x66 JUMPI DUP1 PUSH4 0x6CC014DE EQ PUSH2 0x139 JUMPI DUP1 PUSH4 0x9507D39A EQ PUSH2 0x157 JUMPI DUP1 PUSH4 0xA938F78D EQ PUSH2 0x187 JUMPI DUP1 PUSH4 0xB52B4D50 EQ PUSH2 0x1A3 JUMPI DUP1 PUSH4 0xEDB6F7E7 EQ PUSH2 0x1C4 JUMPI PUSH2 0x93 JUMP JUMPDEST DUP1 PUSH4 0x373BFC67 EQ PUSH2 0x98 JUMPI DUP1 PUSH4 0x45715674 EQ PUSH2 0xCD JUMPI DUP1 PUSH4 0x4A98F464 EQ PUSH2 0xE9 JUMPI DUP1 PUSH4 0x6B8FF574 EQ PUSH2 0x109 JUMPI JUMPDEST PUSH1 0x0 DUP1 REVERT JUMPDEST PUSH2 0xB2 PUSH1 0x4 DUP1 CALLDATASIZE SUB DUP2 ADD SWAP1 PUSH2 0xAD SWAP2 SWAP1 PUSH2 0xB3B JUMP JUMPDEST PUSH2 0x1F4 JUMP JUMPDEST PUSH1 0x40 MLOAD PUSH2 0xC4 SWAP7 SWAP6 SWAP5 SWAP4 SWAP3 SWAP2 SWAP1 PUSH2 0xCC6 JUMP JUMPDEST PUSH1 0x40 MLOAD DUP1 SWAP2 SUB SWAP1 RETURN JUMPDEST PUSH2 0xE7 PUSH1 0x4 DUP1 CALLDATASIZE SUB DUP2 ADD SWAP1 PUSH2 0xE2 SWAP2 SWAP1 PUSH2 0xEAD JUMP JUMPDEST PUSH2 0x2D2 JUMP JUMPDEST STOP JUMPDEST PUSH2 0xF1 PUSH2 0x614 JUMP JUMPDEST PUSH1 0x40 MLOAD PUSH2 0x100 SWAP4 SWAP3 SWAP2 SWAP1 PUSH2 0x106B JUMP JUMPDEST PUSH1 0x40 MLOAD DUP1 SWAP2 SUB SWAP1 RETURN JUMPDEST PUSH2 0x123 PUSH1 0x4 DUP1 CALLDATASIZE SUB DUP2 ADD SWAP1 PUSH2 0x11E SWAP2 SWAP1 PUSH2 0xB3B JUMP JUMPDEST PUSH2 0x631 JUMP JUMPDEST PUSH1 0x40 MLOAD PUSH2 0x130 SWAP2 SWAP1 PUSH2 0x10B7 JUMP JUMPDEST PUSH1 0x40 MLOAD DUP1 SWAP2 SUB SWAP1 RETURN JUMPDEST PUSH2 0x141 PUSH2 0x6D9 JUMP JUMPDEST PUSH1 0x40 MLOAD PUSH2 0x14E SWAP2 SWAP1 PUSH2 0x10D9 JUMP JUMPDEST PUSH1 0x40 MLOAD DUP1 SWAP2 SUB SWAP1 RETURN JUMPDEST PUSH2 0x171 PUSH1 0x4 DUP1 CALLDATASIZE SUB DUP2 ADD SWAP1 PUSH2 0x16C SWAP2 SWAP1 PUSH2 0xB3B JUMP JUMPDEST PUSH2 0x6EA JUMP JUMPDEST PUSH1 0x40 MLOAD PUSH2 0x17E SWAP2 SWAP1 PUSH2 0x10F4 JUMP JUMPDEST PUSH1 0x40 MLOAD DUP1 SWAP2 SUB SWAP1 RETURN JUMPDEST PUSH2 0x1A1 PUSH1 0x4 DUP1 CALLDATASIZE SUB DUP2 ADD SWAP1 PUSH2 0x19C SWAP2 SWAP1 PUSH2 0xEAD JUMP JUMPDEST PUSH2 0x83D JUMP JUMPDEST STOP JUMPDEST PUSH2 0x1AB PUSH2 0x941 JUMP JUMPDEST PUSH1 0x40 MLOAD PUSH2 0x1BB SWAP5 SWAP4 SWAP3 SWAP2 SWAP1 PUSH2 0x1116 JUMP JUMPDEST PUSH1 0x40 MLOAD DUP1 SWAP2 SUB SWAP1 RETURN JUMPDEST PUSH2 0x1DE PUSH1 0x4 DUP1 CALLDATASIZE SUB DUP2 ADD SWAP1 PUSH2 0x1D9 SWAP2 SWAP1 PUSH2 0x115B JUMP JUMPDEST PUSH2 0xA7F JUMP JUMPDEST PUSH1 0x40 MLOAD PUSH2 0x1EB SWAP2 SWAP1 PUSH2 0x1188 JUMP JUMPDEST PUSH1 0x40 MLOAD DUP1 SWAP2 SUB SWAP1 RETURN JUMPDEST PUSH1 0x1 PUSH1 0x20 MSTORE DUP1 PUSH1 0x0 MSTORE PUSH1 0x40 PUSH1 0x0 KECCAK256 PUSH1 0x0 SWAP2 POP SWAP1 POP DUP1 PUSH1 0x0 ADD DUP1 SLOAD PUSH2 0x217 SWAP1 PUSH2 0x11D2 JUMP JUMPDEST DUP1 PUSH1 0x1F ADD PUSH1 0x20 DUP1 SWAP2 DIV MUL PUSH1 0x20 ADD PUSH1 0x40 MLOAD SWAP1 DUP2 ADD PUSH1 0x40 MSTORE DUP1 SWAP3 SWAP2 SWAP1 DUP2 DUP2 MSTORE PUSH1 0x20 ADD DUP3 DUP1 SLOAD PUSH2 0x243 SWAP1 PUSH2 0x11D2 JUMP JUMPDEST DUP1 ISZERO PUSH2 0x290 JUMPI DUP1 PUSH1 0x1F LT PUSH2 0x265 JUMPI PUSH2 0x100 DUP1 DUP4 SLOAD DIV MUL DUP4 MSTORE SWAP2 PUSH1 0x20 ADD SWAP2 PUSH2 0x290 JUMP JUMPDEST DUP3 ADD SWAP2 SWAP1 PUSH1 0x0 MSTORE PUSH1 0x20 PUSH1 0x0 KECCAK256 SWAP1 JUMPDEST DUP2 SLOAD DUP2 MSTORE SWAP1 PUSH1 0x1 ADD SWAP1 PUSH1 0x20 ADD DUP1 DUP4 GT PUSH2 0x273 JUMPI DUP3 SWAP1 SUB PUSH1 0x1F AND DUP3 ADD SWAP2 JUMPDEST POP POP POP POP POP SWAP1 DUP1 PUSH1 0x1 ADD SLOAD SWAP1 DUP1 PUSH1 0x2 ADD SLOAD SWAP1 DUP1 PUSH1 0x3 ADD PUSH1 0x0 SWAP1 SLOAD SWAP1 PUSH2 0x100 EXP SWAP1 DIV PUSH1 0xFF AND SWAP1 DUP1 PUSH1 0x3 ADD PUSH1 0x1 SWAP1 SLOAD SWAP1 PUSH2 0x100 EXP SWAP1 DIV PUSH1 0xFF AND SWAP1 DUP1 PUSH1 0x4 ADD SLOAD SWAP1 POP DUP7 JUMP JUMPDEST PUSH1 0x40 MLOAD DUP1 PUSH1 0xC0 ADD PUSH1 0x40 MSTORE DUP1 DUP9 DUP2 MSTORE PUSH1 0x20 ADD DUP8 DUP2 MSTORE PUSH1 0x20 ADD DUP6 DUP2 MSTORE PUSH1 0x20 ADD DUP5 PUSH1 0x3 DUP2 GT ISZERO PUSH2 0x302 JUMPI PUSH2 0x301 PUSH2 0xC07 JUMP JUMPDEST JUMPDEST DUP2 MSTORE PUSH1 0x20 ADD DUP4 PUSH1 0x3 DUP2 GT ISZERO PUSH2 0x31A JUMPI PUSH2 0x319 PUSH2 0xC07 JUMP JUMPDEST JUMPDEST DUP2 MSTORE PUSH1 0x20 ADD DUP3 DUP2 MSTORE POP PUSH1 0x1 PUSH1 0x0 DUP8 DUP2 MSTORE PUSH1 0x20 ADD SWAP1 DUP2 MSTORE PUSH1 0x20 ADD PUSH1 0x0 KECCAK256 PUSH1 0x0 DUP3 ADD MLOAD DUP2 PUSH1 0x0 ADD SWAP1 DUP2 PUSH2 0x34B SWAP2 SWAP1 PUSH2 0x13AF JUMP JUMPDEST POP PUSH1 0x20 DUP3 ADD MLOAD DUP2 PUSH1 0x1 ADD SSTORE PUSH1 0x40 DUP3 ADD MLOAD DUP2 PUSH1 0x2 ADD SSTORE PUSH1 0x60 DUP3 ADD MLOAD DUP2 PUSH1 0x3 ADD PUSH1 0x0 PUSH2 0x100 EXP DUP2 SLOAD DUP2 PUSH1 0xFF MUL NOT AND SWAP1 DUP4 PUSH1 0x3 DUP2 GT ISZERO PUSH2 0x38B JUMPI PUSH2 0x38A PUSH2 0xC07 JUMP JUMPDEST JUMPDEST MUL OR SWAP1 SSTORE POP PUSH1 0x80 DUP3 ADD MLOAD DUP2 PUSH1 0x3 ADD PUSH1 0x1 PUSH2 0x100 EXP DUP2 SLOAD DUP2 PUSH1 0xFF MUL NOT AND SWAP1 DUP4 PUSH1 0x3 DUP2 GT ISZERO PUSH2 0x3BB JUMPI PUSH2 0x3BA PUSH2 0xC07 JUMP JUMPDEST JUMPDEST MUL OR SWAP1 SSTORE POP PUSH1 0xA0 DUP3 ADD MLOAD DUP2 PUSH1 0x4 ADD SSTORE SWAP1 POP POP PUSH1 0x0 PUSH1 0x3 DUP2 GT ISZERO PUSH2 0x3E1 JUMPI PUSH2 0x3E0 PUSH2 0xC07 JUMP JUMPDEST JUMPDEST PUSH1 0x3 DUP2 GT ISZERO PUSH2 0x3F3 JUMPI PUSH2 0x3F2 PUSH2 0xC07 JUMP JUMPDEST JUMPDEST DUP4 PUSH1 0x3 DUP2 GT ISZERO PUSH2 0x406 JUMPI PUSH2 0x405 PUSH2 0xC07 JUMP JUMPDEST JUMPDEST SUB PUSH2 0x45D JUMPI PUSH1 0x2 PUSH1 0x0 DUP5 PUSH1 0x3 DUP2 GT ISZERO PUSH2 0x422 JUMPI PUSH2 0x421 PUSH2 0xC07 JUMP JUMPDEST JUMPDEST PUSH1 0x3 DUP2 GT ISZERO PUSH2 0x434 JUMPI PUSH2 0x433 PUSH2 0xC07 JUMP JUMPDEST JUMPDEST DUP2 MSTORE PUSH1 0x20 ADD SWAP1 DUP2 MSTORE PUSH1 0x20 ADD PUSH1 0x0 KECCAK256 PUSH1 0x0 DUP2 SLOAD DUP1 SWAP3 SWAP2 SWAP1 PUSH2 0x453 SWAP1 PUSH2 0x14B0 JUMP JUMPDEST SWAP2 SWAP1 POP SSTORE POP PUSH2 0x60B JUMP JUMPDEST PUSH1 0x1 PUSH1 0x3 DUP2 GT ISZERO PUSH2 0x471 JUMPI PUSH2 0x470 PUSH2 0xC07 JUMP JUMPDEST JUMPDEST PUSH1 0x3 DUP2 GT ISZERO PUSH2 0x483 JUMPI PUSH2 0x482 PUSH2 0xC07 JUMP JUMPDEST JUMPDEST DUP4 PUSH1 0x3 DUP2 GT ISZERO PUSH2 0x496 JUMPI PUSH2 0x495 PUSH2 0xC07 JUMP JUMPDEST JUMPDEST SUB PUSH2 0x4ED JUMPI PUSH1 0x2 PUSH1 0x0 DUP5 PUSH1 0x3 DUP2 GT ISZERO PUSH2 0x4B2 JUMPI PUSH2 0x4B1 PUSH2 0xC07 JUMP JUMPDEST JUMPDEST PUSH1 0x3 DUP2 GT ISZERO PUSH2 0x4C4 JUMPI PUSH2 0x4C3 PUSH2 0xC07 JUMP JUMPDEST JUMPDEST DUP2 MSTORE PUSH1 0x20 ADD SWAP1 DUP2 MSTORE PUSH1 0x20 ADD PUSH1 0x0 KECCAK256 PUSH1 0x0 DUP2 SLOAD DUP1 SWAP3 SWAP2 SWAP1 PUSH2 0x4E3 SWAP1 PUSH2 0x14B0 JUMP JUMPDEST SWAP2 SWAP1 POP SSTORE POP PUSH2 0x60A JUMP JUMPDEST PUSH1 0x2 PUSH1 0x3 DUP2 GT ISZERO PUSH2 0x501 JUMPI PUSH2 0x500 PUSH2 0xC07 JUMP JUMPDEST JUMPDEST PUSH1 0x3 DUP2 GT ISZERO PUSH2 0x513 JUMPI PUSH2 0x512 PUSH2 0xC07 JUMP JUMPDEST JUMPDEST DUP4 PUSH1 0x3 DUP2 GT ISZERO PUSH2 0x526 JUMPI PUSH2 0x525 PUSH2 0xC07 JUMP JUMPDEST JUMPDEST SUB PUSH2 0x57D JUMPI PUSH1 0x2 PUSH1 0x0 DUP5 PUSH1 0x3 DUP2 GT ISZERO PUSH2 0x542 JUMPI PUSH2 0x541 PUSH2 0xC07 JUMP JUMPDEST JUMPDEST PUSH1 0x3 DUP2 GT ISZERO PUSH2 0x554 JUMPI PUSH2 0x553 PUSH2 0xC07 JUMP JUMPDEST JUMPDEST DUP2 MSTORE PUSH1 0x20 ADD SWAP1 DUP2 MSTORE PUSH1 0x20 ADD PUSH1 0x0 KECCAK256 PUSH1 0x0 DUP2 SLOAD DUP1 SWAP3 SWAP2 SWAP1 PUSH2 0x573 SWAP1 PUSH2 0x14B0 JUMP JUMPDEST SWAP2 SWAP1 POP SSTORE POP PUSH2 0x609 JUMP JUMPDEST PUSH1 0x3 DUP1 DUP2 GT ISZERO PUSH2 0x590 JUMPI PUSH2 0x58F PUSH2 0xC07 JUMP JUMPDEST JUMPDEST PUSH1 0x3 DUP2 GT ISZERO PUSH2 0x5A2 JUMPI PUSH2 0x5A1 PUSH2 0xC07 JUMP JUMPDEST JUMPDEST DUP4 PUSH1 0x3 DUP2 GT ISZERO PUSH2 0x5B5 JUMPI PUSH2 0x5B4 PUSH2 0xC07 JUMP JUMPDEST JUMPDEST SUB PUSH2 0x608 JUMPI PUSH1 0x2 PUSH1 0x0 DUP5 PUSH1 0x3 DUP2 GT ISZERO PUSH2 0x5D1 JUMPI PUSH2 0x5D0 PUSH2 0xC07 JUMP JUMPDEST JUMPDEST PUSH1 0x3 DUP2 GT ISZERO PUSH2 0x5E3 JUMPI PUSH2 0x5E2 PUSH2 0xC07 JUMP JUMPDEST JUMPDEST DUP2 MSTORE PUSH1 0x20 ADD SWAP1 DUP2 MSTORE PUSH1 0x20 ADD PUSH1 0x0 KECCAK256 PUSH1 0x0 DUP2 SLOAD DUP1 SWAP3 SWAP2 SWAP1 PUSH2 0x602 SWAP1 PUSH2 0x14B0 JUMP JUMPDEST SWAP2 SWAP1 POP SSTORE POP JUMPDEST JUMPDEST JUMPDEST JUMPDEST POP POP POP POP POP POP POP JUMP JUMPDEST PUSH2 0x61C PUSH2 0xA97 JUMP JUMPDEST PUSH2 0x624 PUSH2 0xA97 JUMP JUMPDEST PUSH2 0x62C PUSH2 0xA97 JUMP JUMPDEST SWAP1 SWAP2 SWAP3 JUMP JUMPDEST PUSH1 0x60 PUSH1 0x1 PUSH1 0x0 DUP4 DUP2 MSTORE PUSH1 0x20 ADD SWAP1 DUP2 MSTORE PUSH1 0x20 ADD PUSH1 0x0 KECCAK256 PUSH1 0x0 ADD DUP1 SLOAD PUSH2 0x654 SWAP1 PUSH2 0x11D2 JUMP JUMPDEST DUP1 PUSH1 0x1F ADD PUSH1 0x20 DUP1 SWAP2 DIV MUL PUSH1 0x20 ADD PUSH1 0x40 MLOAD SWAP1 DUP2 ADD PUSH1 0x40 MSTORE DUP1 SWAP3 SWAP2 SWAP1 DUP2 DUP2 MSTORE PUSH1 0x20 ADD DUP3 DUP1 SLOAD PUSH2 0x680 SWAP1 PUSH2 0x11D2 JUMP JUMPDEST DUP1 ISZERO PUSH2 0x6CD JUMPI DUP1 PUSH1 0x1F LT PUSH2 0x6A2 JUMPI PUSH2 0x100 DUP1 DUP4 SLOAD DIV MUL DUP4 MSTORE SWAP2 PUSH1 0x20 ADD SWAP2 PUSH2 0x6CD JUMP JUMPDEST DUP3 ADD SWAP2 SWAP1 PUSH1 0x0 MSTORE PUSH1 0x20 PUSH1 0x0 KECCAK256 SWAP1 JUMPDEST DUP2 SLOAD DUP2 MSTORE SWAP1 PUSH1 0x1 ADD SWAP1 PUSH1 0x20 ADD DUP1 DUP4 GT PUSH2 0x6B0 JUMPI DUP3 SWAP1 SUB PUSH1 0x1F AND DUP3 ADD SWAP2 JUMPDEST POP POP POP POP POP SWAP1 POP SWAP2 SWAP1 POP JUMP JUMPDEST PUSH1 0x0 DUP1 SLOAD SWAP1 PUSH2 0x100 EXP SWAP1 DIV PUSH1 0xFF AND DUP2 JUMP JUMPDEST PUSH2 0x6F2 PUSH2 0xA97 JUMP JUMPDEST PUSH1 0x1 PUSH1 0x0 DUP4 DUP2 MSTORE PUSH1 0x20 ADD SWAP1 DUP2 MSTORE PUSH1 0x20 ADD PUSH1 0x0 KECCAK256 PUSH1 0x40 MLOAD DUP1 PUSH1 0xC0 ADD PUSH1 0x40 MSTORE SWAP1 DUP2 PUSH1 0x0 DUP3 ADD DUP1 SLOAD PUSH2 0x720 SWAP1 PUSH2 0x11D2 JUMP JUMPDEST DUP1 PUSH1 0x1F ADD PUSH1 0x20 DUP1 SWAP2 DIV MUL PUSH1 0x20 ADD PUSH1 0x40 MLOAD SWAP1 DUP2 ADD PUSH1 0x40 MSTORE DUP1 SWAP3 SWAP2 SWAP1 DUP2 DUP2 MSTORE PUSH1 0x20 ADD DUP3 DUP1 SLOAD PUSH2 0x74C SWAP1 PUSH2 0x11D2 JUMP JUMPDEST DUP1 ISZERO PUSH2 0x799 JUMPI DUP1 PUSH1 0x1F LT PUSH2 0x76E JUMPI PUSH2 0x100 DUP1 DUP4 SLOAD DIV MUL DUP4 MSTORE SWAP2 PUSH1 0x20 ADD SWAP2 PUSH2 0x799 JUMP JUMPDEST DUP3 ADD SWAP2 SWAP1 PUSH1 0x0 MSTORE PUSH1 0x20 PUSH1 0x0 KECCAK256 SWAP1 JUMPDEST DUP2 SLOAD DUP2 MSTORE SWAP1 PUSH1 0x1 ADD SWAP1 PUSH1 0x20 ADD DUP1 DUP4 GT PUSH2 0x77C JUMPI DUP3 SWAP1 SUB PUSH1 0x1F AND DUP3 ADD SWAP2 JUMPDEST POP POP POP POP POP DUP2 MSTORE PUSH1 0x20 ADD PUSH1 0x1 DUP3 ADD SLOAD DUP2 MSTORE PUSH1 0x20 ADD PUSH1 0x2 DUP3 ADD SLOAD DUP2 MSTORE PUSH1 0x20 ADD PUSH1 0x3 DUP3 ADD PUSH1 0x0 SWAP1 SLOAD SWAP1 PUSH2 0x100 EXP SWAP1 DIV PUSH1 0xFF AND PUSH1 0x3 DUP2 GT ISZERO PUSH2 0x7DB JUMPI PUSH2 0x7DA PUSH2 0xC07 JUMP JUMPDEST JUMPDEST PUSH1 0x3 DUP2 GT ISZERO PUSH2 0x7ED JUMPI PUSH2 0x7EC PUSH2 0xC07 JUMP JUMPDEST JUMPDEST DUP2 MSTORE PUSH1 0x20 ADD PUSH1 0x3 DUP3 ADD PUSH1 0x1 SWAP1 SLOAD SWAP1 PUSH2 0x100 EXP SWAP1 DIV PUSH1 0xFF AND PUSH1 0x3 DUP2 GT ISZERO PUSH2 0x816 JUMPI PUSH2 0x815 PUSH2 0xC07 JUMP JUMPDEST JUMPDEST PUSH1 0x3 DUP2 GT ISZERO PUSH2 0x828 JUMPI PUSH2 0x827 PUSH2 0xC07 JUMP JUMPDEST JUMPDEST DUP2 MSTORE PUSH1 0x20 ADD PUSH1 0x4 DUP3 ADD SLOAD DUP2 MSTORE POP POP SWAP1 POP SWAP2 SWAP1 POP JUMP JUMPDEST PUSH1 0x40 MLOAD DUP1 PUSH1 0xC0 ADD PUSH1 0x40 MSTORE DUP1 DUP9 DUP2 MSTORE PUSH1 0x20 ADD DUP8 DUP2 MSTORE PUSH1 0x20 ADD DUP6 DUP2 MSTORE PUSH1 0x20 ADD DUP5 PUSH1 0x3 DUP2 GT ISZERO PUSH2 0x86D JUMPI PUSH2 0x86C PUSH2 0xC07 JUMP JUMPDEST JUMPDEST DUP2 MSTORE PUSH1 0x20 ADD DUP4 PUSH1 0x3 DUP2 GT ISZERO PUSH2 0x885 JUMPI PUSH2 0x884 PUSH2 0xC07 JUMP JUMPDEST JUMPDEST DUP2 MSTORE PUSH1 0x20 ADD DUP3 DUP2 MSTORE POP PUSH1 0x1 PUSH1 0x0 DUP8 DUP2 MSTORE PUSH1 0x20 ADD SWAP1 DUP2 MSTORE PUSH1 0x20 ADD PUSH1 0x0 KECCAK256 PUSH1 0x0 DUP3 ADD MLOAD DUP2 PUSH1 0x0 ADD SWAP1 DUP2 PUSH2 0x8B6 SWAP2 SWAP1 PUSH2 0x13AF JUMP JUMPDEST POP PUSH1 0x20 DUP3 ADD MLOAD DUP2 PUSH1 0x1 ADD SSTORE PUSH1 0x40 DUP3 ADD MLOAD DUP2 PUSH1 0x2 ADD SSTORE PUSH1 0x60 DUP3 ADD MLOAD DUP2 PUSH1 0x3 ADD PUSH1 0x0 PUSH2 0x100 EXP DUP2 SLOAD DUP2 PUSH1 0xFF MUL NOT AND SWAP1 DUP4 PUSH1 0x3 DUP2 GT ISZERO PUSH2 0x8F6 JUMPI PUSH2 0x8F5 PUSH2 0xC07 JUMP JUMPDEST JUMPDEST MUL OR SWAP1 SSTORE POP PUSH1 0x80 DUP3 ADD MLOAD DUP2 PUSH1 0x3 ADD PUSH1 0x1 PUSH2 0x100 EXP DUP2 SLOAD DUP2 PUSH1 0xFF MUL NOT AND SWAP1 DUP4 PUSH1 0x3 DUP2 GT ISZERO PUSH2 0x926 JUMPI PUSH2 0x925 PUSH2 0xC07 JUMP JUMPDEST JUMPDEST MUL OR SWAP1 SSTORE POP PUSH1 0xA0 DUP3 ADD MLOAD DUP2 PUSH1 0x4 ADD SSTORE SWAP1 POP POP POP POP POP POP POP POP POP JUMP JUMPDEST PUSH1 0x0 DUP1 PUSH1 0x0 DUP1 PUSH1 0x2 PUSH1 0x0 DUP1 PUSH1 0x3 DUP2 GT ISZERO PUSH2 0x95E JUMPI PUSH2 0x95D PUSH2 0xC07 JUMP JUMPDEST JUMPDEST PUSH1 0x3 DUP2 GT ISZERO PUSH2 0x970 JUMPI PUSH2 0x96F PUSH2 0xC07 JUMP JUMPDEST JUMPDEST PUSH1 0x3 DUP2 GT ISZERO PUSH2 0x982 JUMPI PUSH2 0x981 PUSH2 0xC07 JUMP JUMPDEST JUMPDEST DUP2 MSTORE PUSH1 0x20 ADD SWAP1 DUP2 MSTORE PUSH1 0x20 ADD PUSH1 0x0 KECCAK256 SLOAD PUSH1 0x2 PUSH1 0x0 PUSH1 0x1 PUSH1 0x3 DUP2 GT ISZERO PUSH2 0x9A9 JUMPI PUSH2 0x9A8 PUSH2 0xC07 JUMP JUMPDEST JUMPDEST PUSH1 0x3 DUP2 GT ISZERO PUSH2 0x9BB JUMPI PUSH2 0x9BA PUSH2 0xC07 JUMP JUMPDEST JUMPDEST PUSH1 0x3 DUP2 GT ISZERO PUSH2 0x9CD JUMPI PUSH2 0x9CC PUSH2 0xC07 JUMP JUMPDEST JUMPDEST DUP2 MSTORE PUSH1 0x20 ADD SWAP1 DUP2 MSTORE PUSH1 0x20 ADD PUSH1 0x0 KECCAK256 SLOAD PUSH1 0x2 PUSH1 0x0 PUSH1 0x2 PUSH1 0x3 DUP2 GT ISZERO PUSH2 0x9F4 JUMPI PUSH2 0x9F3 PUSH2 0xC07 JUMP JUMPDEST JUMPDEST PUSH1 0x3 DUP2 GT ISZERO PUSH2 0xA06 JUMPI PUSH2 0xA05 PUSH2 0xC07 JUMP JUMPDEST JUMPDEST PUSH1 0x3 DUP2 GT ISZERO PUSH2 0xA18 JUMPI PUSH2 0xA17 PUSH2 0xC07 JUMP JUMPDEST JUMPDEST DUP2 MSTORE PUSH1 0x20 ADD SWAP1 DUP2 MSTORE PUSH1 0x20 ADD PUSH1 0x0 KECCAK256 SLOAD PUSH1 0x2 PUSH1 0x0 PUSH1 0x3 DUP1 DUP2 GT ISZERO PUSH2 0xA3E JUMPI PUSH2 0xA3D PUSH2 0xC07 JUMP JUMPDEST JUMPDEST PUSH1 0x3 DUP2 GT ISZERO PUSH2 0xA50 JUMPI PUSH2 0xA4F PUSH2 0xC07 JUMP JUMPDEST JUMPDEST PUSH1 0x3 DUP2 GT ISZERO PUSH2 0xA62 JUMPI PUSH2 0xA61 PUSH2 0xC07 JUMP JUMPDEST JUMPDEST DUP2 MSTORE PUSH1 0x20 ADD SWAP1 DUP2 MSTORE PUSH1 0x20 ADD PUSH1 0x0 KECCAK256 SLOAD SWAP4 POP SWAP4 POP SWAP4 POP SWAP4 POP SWAP1 SWAP2 SWAP3 SWAP4 JUMP JUMPDEST PUSH1 0x2 PUSH1 0x20 MSTORE DUP1 PUSH1 0x0 MSTORE PUSH1 0x40 PUSH1 0x0 KECCAK256 PUSH1 0x0 SWAP2 POP SWAP1 POP SLOAD DUP2 JUMP JUMPDEST PUSH1 0x40 MLOAD DUP1 PUSH1 0xC0 ADD PUSH1 0x40 MSTORE DUP1 PUSH1 0x60 DUP2 MSTORE PUSH1 0x20 ADD PUSH1 0x0 DUP2 MSTORE PUSH1 0x20 ADD PUSH1 0x0 DUP2 MSTORE PUSH1 0x20 ADD PUSH1 0x0 PUSH1 0x3 DUP2 GT ISZERO PUSH2 0xACB JUMPI PUSH2 0xACA PUSH2 0xC07 JUMP JUMPDEST JUMPDEST DUP2 MSTORE PUSH1 0x20 ADD PUSH1 0x0 PUSH1 0x3 DUP2 GT ISZERO PUSH2 0xAE4 JUMPI PUSH2 0xAE3 PUSH2 0xC07 JUMP JUMPDEST JUMPDEST DUP2 MSTORE PUSH1 0x20 ADD PUSH1 0x0 DUP2 MSTORE POP SWAP1 JUMP JUMPDEST PUSH1 0x0 PUSH1 0x40 MLOAD SWAP1 POP SWAP1 JUMP JUMPDEST PUSH1 0x0 DUP1 REVERT JUMPDEST PUSH1 0x0 DUP1 REVERT JUMPDEST PUSH1 0x0 DUP2 SWAP1 POP SWAP2 SWAP1 POP JUMP JUMPDEST PUSH2 0xB18 DUP2 PUSH2 0xB05 JUMP JUMPDEST DUP2 EQ PUSH2 0xB23 JUMPI PUSH1 0x0 DUP1 REVERT JUMPDEST POP JUMP JUMPDEST PUSH1 0x0 DUP2 CALLDATALOAD SWAP1 POP PUSH2 0xB35 DUP2 PUSH2 0xB0F JUMP JUMPDEST SWAP3 SWAP2 POP POP JUMP JUMPDEST PUSH1 0x0 PUSH1 0x20 DUP3 DUP5 SUB SLT ISZERO PUSH2 0xB51 JUMPI PUSH2 0xB50 PUSH2 0xAFB JUMP JUMPDEST JUMPDEST PUSH1 0x0 PUSH2 0xB5F DUP5 DUP3 DUP6 ADD PUSH2 0xB26 JUMP JUMPDEST SWAP2 POP POP SWAP3 SWAP2 POP POP JUMP JUMPDEST PUSH1 0x0 DUP2 MLOAD SWAP1 POP SWAP2 SWAP1 POP JUMP JUMPDEST PUSH1 0x0 DUP3 DUP3 MSTORE PUSH1 0x20 DUP3 ADD SWAP1 POP SWAP3 SWAP2 POP POP JUMP JUMPDEST PUSH1 0x0 JUMPDEST DUP4 DUP2 LT ISZERO PUSH2 0xBA2 JUMPI DUP1 DUP3 ADD MLOAD DUP2 DUP5 ADD MSTORE PUSH1 0x20 DUP2 ADD SWAP1 POP PUSH2 0xB87 JUMP JUMPDEST PUSH1 0x0 DUP5 DUP5 ADD MSTORE POP POP POP POP JUMP JUMPDEST PUSH1 0x0 PUSH1 0x1F NOT PUSH1 0x1F DUP4 ADD AND SWAP1 POP SWAP2 SWAP1 POP JUMP JUMPDEST PUSH1 0x0 PUSH2 0xBCA DUP3 PUSH2 0xB68 JUMP JUMPDEST PUSH2 0xBD4 DUP2 DUP6 PUSH2 0xB73 JUMP JUMPDEST SWAP4 POP PUSH2 0xBE4 DUP2 DUP6 PUSH1 0x20 DUP7 ADD PUSH2 0xB84 JUMP JUMPDEST PUSH2 0xBED DUP2 PUSH2 0xBAE JUMP JUMPDEST DUP5 ADD SWAP2 POP POP SWAP3 SWAP2 POP POP JUMP JUMPDEST PUSH2 0xC01 DUP2 PUSH2 0xB05 JUMP JUMPDEST DUP3 MSTORE POP POP JUMP JUMPDEST PUSH32 0x4E487B7100000000000000000000000000000000000000000000000000000000 PUSH1 0x0 MSTORE PUSH1 0x21 PUSH1 0x4 MSTORE PUSH1 0x24 PUSH1 0x0 REVERT JUMPDEST PUSH1 0x4 DUP2 LT PUSH2 0xC47 JUMPI PUSH2 0xC46 PUSH2 0xC07 JUMP JUMPDEST JUMPDEST POP JUMP JUMPDEST PUSH1 0x0 DUP2 SWAP1 POP PUSH2 0xC58 DUP3 PUSH2 0xC36 JUMP JUMPDEST SWAP2 SWAP1 POP JUMP JUMPDEST PUSH1 0x0 PUSH2 0xC68 DUP3 PUSH2 0xC4A JUMP JUMPDEST SWAP1 POP SWAP2 SWAP1 POP JUMP JUMPDEST PUSH2 0xC78 DUP2 PUSH2 0xC5D JUMP JUMPDEST DUP3 MSTORE POP POP JUMP JUMPDEST PUSH1 0x4 DUP2 LT PUSH2 0xC8F JUMPI PUSH2 0xC8E PUSH2 0xC07 JUMP JUMPDEST JUMPDEST POP JUMP JUMPDEST PUSH1 0x0 DUP2 SWAP1 POP PUSH2 0xCA0 DUP3 PUSH2 0xC7E JUMP JUMPDEST SWAP2 SWAP1 POP JUMP JUMPDEST PUSH1 0x0 PUSH2 0xCB0 DUP3 PUSH2 0xC92 JUMP JUMPDEST SWAP1 POP SWAP2 SWAP1 POP JUMP JUMPDEST PUSH2 0xCC0 DUP2 PUSH2 0xCA5 JUMP JUMPDEST DUP3 MSTORE POP POP JUMP JUMPDEST PUSH1 0x0 PUSH1 0xC0 DUP3 ADD SWAP1 POP DUP2 DUP2 SUB PUSH1 0x0 DUP4 ADD MSTORE PUSH2 0xCE0 DUP2 DUP10 PUSH2 0xBBF JUMP JUMPDEST SWAP1 POP PUSH2 0xCEF PUSH1 0x20 DUP4 ADD DUP9 PUSH2 0xBF8 JUMP JUMPDEST PUSH2 0xCFC PUSH1 0x40 DUP4 ADD DUP8 PUSH2 0xBF8 JUMP JUMPDEST PUSH2 0xD09 PUSH1 0x60 DUP4 ADD DUP7 PUSH2 0xC6F JUMP JUMPDEST PUSH2 0xD16 PUSH1 0x80 DUP4 ADD DUP6 PUSH2 0xCB7 JUMP JUMPDEST PUSH2 0xD23 PUSH1 0xA0 DUP4 ADD DUP5 PUSH2 0xBF8 JUMP JUMPDEST SWAP8 SWAP7 POP POP POP POP POP POP POP JUMP JUMPDEST PUSH1 0x0 DUP1 REVERT JUMPDEST PUSH1 0x0 DUP1 REVERT JUMPDEST PUSH32 0x4E487B7100000000000000000000000000000000000000000000000000000000 PUSH1 0x0 MSTORE PUSH1 0x41 PUSH1 0x4 MSTORE PUSH1 0x24 PUSH1 0x0 REVERT JUMPDEST PUSH2 0xD70 DUP3 PUSH2 0xBAE JUMP JUMPDEST DUP2 ADD DUP2 DUP2 LT PUSH8 0xFFFFFFFFFFFFFFFF DUP3 GT OR ISZERO PUSH2 0xD8F JUMPI PUSH2 0xD8E PUSH2 0xD38 JUMP JUMPDEST JUMPDEST DUP1 PUSH1 0x40 MSTORE POP POP POP JUMP JUMPDEST PUSH1 0x0 PUSH2 0xDA2 PUSH2 0xAF1 JUMP JUMPDEST SWAP1 POP PUSH2 0xDAE DUP3 DUP3 PUSH2 0xD67 JUMP JUMPDEST SWAP2 SWAP1 POP JUMP JUMPDEST PUSH1 0x0 PUSH8 0xFFFFFFFFFFFFFFFF DUP3 GT ISZERO PUSH2 0xDCE JUMPI PUSH2 0xDCD PUSH2 0xD38 JUMP JUMPDEST JUMPDEST PUSH2 0xDD7 DUP3 PUSH2 0xBAE JUMP JUMPDEST SWAP1 POP PUSH1 0x20 DUP2 ADD SWAP1 POP SWAP2 SWAP1 POP JUMP JUMPDEST DUP3 DUP2 DUP4 CALLDATACOPY PUSH1 0x0 DUP4 DUP4 ADD MSTORE POP POP POP JUMP JUMPDEST PUSH1 0x0 PUSH2 0xE06 PUSH2 0xE01 DUP5 PUSH2 0xDB3 JUMP JUMPDEST PUSH2 0xD98 JUMP JUMPDEST SWAP1 POP DUP3 DUP2 MSTORE PUSH1 0x20 DUP2 ADD DUP5 DUP5 DUP5 ADD GT ISZERO PUSH2 0xE22 JUMPI PUSH2 0xE21 PUSH2 0xD33 JUMP JUMPDEST JUMPDEST PUSH2 0xE2D DUP5 DUP3 DUP6 PUSH2 0xDE4 JUMP JUMPDEST POP SWAP4 SWAP3 POP POP POP JUMP JUMPDEST PUSH1 0x0 DUP3 PUSH1 0x1F DUP4 ADD SLT PUSH2 0xE4A JUMPI PUSH2 0xE49 PUSH2 0xD2E JUMP JUMPDEST JUMPDEST DUP2 CALLDATALOAD PUSH2 0xE5A DUP5 DUP3 PUSH1 0x20 DUP7 ADD PUSH2 0xDF3 JUMP JUMPDEST SWAP2 POP POP SWAP3 SWAP2 POP POP JUMP JUMPDEST PUSH1 0x4 DUP2 LT PUSH2 0xE70 JUMPI PUSH1 0x0 DUP1 REVERT JUMPDEST POP JUMP JUMPDEST PUSH1 0x0 DUP2 CALLDATALOAD SWAP1 POP PUSH2 0xE82 DUP2 PUSH2 0xE63 JUMP JUMPDEST SWAP3 SWAP2 POP POP JUMP JUMPDEST PUSH1 0x4 DUP2 LT PUSH2 0xE95 JUMPI PUSH1 0x0 DUP1 REVERT JUMPDEST POP JUMP JUMPDEST PUSH1 0x0 DUP2 CALLDATALOAD SWAP1 POP PUSH2 0xEA7 DUP2 PUSH2 0xE88 JUMP JUMPDEST SWAP3 SWAP2 POP POP JUMP JUMPDEST PUSH1 0x0 DUP1 PUSH1 0x0 DUP1 PUSH1 0x0 DUP1 PUSH1 0x0 PUSH1 0xE0 DUP9 DUP11 SUB SLT ISZERO PUSH2 0xECC JUMPI PUSH2 0xECB PUSH2 0xAFB JUMP JUMPDEST JUMPDEST PUSH1 0x0 DUP9 ADD CALLDATALOAD PUSH8 0xFFFFFFFFFFFFFFFF DUP2 GT ISZERO PUSH2 0xEEA JUMPI PUSH2 0xEE9 PUSH2 0xB00 JUMP JUMPDEST JUMPDEST PUSH2 0xEF6 DUP11 DUP3 DUP12 ADD PUSH2 0xE35 JUMP JUMPDEST SWAP8 POP POP PUSH1 0x20 PUSH2 0xF07 DUP11 DUP3 DUP12 ADD PUSH2 0xB26 JUMP JUMPDEST SWAP7 POP POP PUSH1 0x40 PUSH2 0xF18 DUP11 DUP3 DUP12 ADD PUSH2 0xB26 JUMP JUMPDEST SWAP6 POP POP PUSH1 0x60 PUSH2 0xF29 DUP11 DUP3 DUP12 ADD PUSH2 0xB26 JUMP JUMPDEST SWAP5 POP POP PUSH1 0x80 PUSH2 0xF3A DUP11 DUP3 DUP12 ADD PUSH2 0xE73 JUMP JUMPDEST SWAP4 POP POP PUSH1 0xA0 PUSH2 0xF4B DUP11 DUP3 DUP12 ADD PUSH2 0xE98 JUMP JUMPDEST SWAP3 POP POP PUSH1 0xC0 PUSH2 0xF5C DUP11 DUP3 DUP12 ADD PUSH2 0xB26 JUMP JUMPDEST SWAP2 POP POP SWAP3 SWAP6 SWAP9 SWAP2 SWAP5 SWAP8 POP SWAP3 SWAP6 POP JUMP JUMPDEST PUSH1 0x0 DUP3 DUP3 MSTORE PUSH1 0x20 DUP3 ADD SWAP1 POP SWAP3 SWAP2 POP POP JUMP JUMPDEST PUSH1 0x0 PUSH2 0xF87 DUP3 PUSH2 0xB68 JUMP JUMPDEST PUSH2 0xF91 DUP2 DUP6 PUSH2 0xF6B JUMP JUMPDEST SWAP4 POP PUSH2 0xFA1 DUP2 DUP6 PUSH1 0x20 DUP7 ADD PUSH2 0xB84 JUMP JUMPDEST PUSH2 0xFAA DUP2 PUSH2 0xBAE JUMP JUMPDEST DUP5 ADD SWAP2 POP POP SWAP3 SWAP2 POP POP JUMP JUMPDEST PUSH2 0xFBE DUP2 PUSH2 0xB05 JUMP JUMPDEST DUP3 MSTORE POP POP JUMP JUMPDEST PUSH2 0xFCD DUP2 PUSH2 0xC5D JUMP JUMPDEST DUP3 MSTORE POP POP JUMP JUMPDEST PUSH2 0xFDC DUP2 PUSH2 0xCA5 JUMP JUMPDEST DUP3 MSTORE POP POP JUMP JUMPDEST PUSH1 0x0 PUSH1 0xC0 DUP4 ADD PUSH1 0x0 DUP4 ADD MLOAD DUP5 DUP3 SUB PUSH1 0x0 DUP7 ADD MSTORE PUSH2 0xFFF DUP3 DUP3 PUSH2 0xF7C JUMP JUMPDEST SWAP2 POP POP PUSH1 0x20 DUP4 ADD MLOAD PUSH2 0x1014 PUSH1 0x20 DUP7 ADD DUP3 PUSH2 0xFB5 JUMP JUMPDEST POP PUSH1 0x40 DUP4 ADD MLOAD PUSH2 0x1027 PUSH1 0x40 DUP7 ADD DUP3 PUSH2 0xFB5 JUMP JUMPDEST POP PUSH1 0x60 DUP4 ADD MLOAD PUSH2 0x103A PUSH1 0x60 DUP7 ADD DUP3 PUSH2 0xFC4 JUMP JUMPDEST POP PUSH1 0x80 DUP4 ADD MLOAD PUSH2 0x104D PUSH1 0x80 DUP7 ADD DUP3 PUSH2 0xFD3 JUMP JUMPDEST POP PUSH1 0xA0 DUP4 ADD MLOAD PUSH2 0x1060 PUSH1 0xA0 DUP7 ADD DUP3 PUSH2 0xFB5 JUMP JUMPDEST POP DUP1 SWAP2 POP POP SWAP3 SWAP2 POP POP JUMP JUMPDEST PUSH1 0x0 PUSH1 0x60 DUP3 ADD SWAP1 POP DUP2 DUP2 SUB PUSH1 0x0 DUP4 ADD MSTORE PUSH2 0x1085 DUP2 DUP7 PUSH2 0xFE2 JUMP JUMPDEST SWAP1 POP DUP2 DUP2 SUB PUSH1 0x20 DUP4 ADD MSTORE PUSH2 0x1099 DUP2 DUP6 PUSH2 0xFE2 JUMP JUMPDEST SWAP1 POP DUP2 DUP2 SUB PUSH1 0x40 DUP4 ADD MSTORE PUSH2 0x10AD DUP2 DUP5 PUSH2 0xFE2 JUMP JUMPDEST SWAP1 POP SWAP5 SWAP4 POP POP POP POP JUMP JUMPDEST PUSH1 0x0 PUSH1 0x20 DUP3 ADD SWAP1 POP DUP2 DUP2 SUB PUSH1 0x0 DUP4 ADD MSTORE PUSH2 0x10D1 DUP2 DUP5 PUSH2 0xBBF JUMP JUMPDEST SWAP1 POP SWAP3 SWAP2 POP POP JUMP JUMPDEST PUSH1 0x0 PUSH1 0x20 DUP3 ADD SWAP1 POP PUSH2 0x10EE PUSH1 0x0 DUP4 ADD DUP5 PUSH2 0xCB7 JUMP JUMPDEST SWAP3 SWAP2 POP POP JUMP JUMPDEST PUSH1 0x0 PUSH1 0x20 DUP3 ADD SWAP1 POP DUP2 DUP2 SUB PUSH1 0x0 DUP4 ADD MSTORE PUSH2 0x110E DUP2 DUP5 PUSH2 0xFE2 JUMP JUMPDEST SWAP1 POP SWAP3 SWAP2 POP POP JUMP JUMPDEST PUSH1 0x0 PUSH1 0x80 DUP3 ADD SWAP1 POP PUSH2 0x112B PUSH1 0x0 DUP4 ADD DUP8 PUSH2 0xBF8 JUMP JUMPDEST PUSH2 0x1138 PUSH1 0x20 DUP4 ADD DUP7 PUSH2 0xBF8 JUMP JUMPDEST PUSH2 0x1145 PUSH1 0x40 DUP4 ADD DUP6 PUSH2 0xBF8 JUMP JUMPDEST PUSH2 0x1152 PUSH1 0x60 DUP4 ADD DUP5 PUSH2 0xBF8 JUMP JUMPDEST SWAP6 SWAP5 POP POP POP POP POP JUMP JUMPDEST PUSH1 0x0 PUSH1 0x20 DUP3 DUP5 SUB SLT ISZERO PUSH2 0x1171 JUMPI PUSH2 0x1170 PUSH2 0xAFB JUMP JUMPDEST JUMPDEST PUSH1 0x0 PUSH2 0x117F DUP5 DUP3 DUP6 ADD PUSH2 0xE73 JUMP JUMPDEST SWAP2 POP POP SWAP3 SWAP2 POP POP JUMP JUMPDEST PUSH1 0x0 PUSH1 0x20 DUP3 ADD SWAP1 POP PUSH2 0x119D PUSH1 0x0 DUP4 ADD DUP5 PUSH2 0xBF8 JUMP JUMPDEST SWAP3 SWAP2 POP POP JUMP JUMPDEST PUSH32 0x4E487B7100000000000000000000000000000000000000000000000000000000 PUSH1 0x0 MSTORE PUSH1 0x22 PUSH1 0x4 MSTORE PUSH1 0x24 PUSH1 0x0 REVERT JUMPDEST PUSH1 0x0 PUSH1 0x2 DUP3 DIV SWAP1 POP PUSH1 0x1 DUP3 AND DUP1 PUSH2 0x11EA JUMPI PUSH1 0x7F DUP3 AND SWAP2 POP JUMPDEST PUSH1 0x20 DUP3 LT DUP2 SUB PUSH2 0x11FD JUMPI PUSH2 0x11FC PUSH2 0x11A3 JUMP JUMPDEST JUMPDEST POP SWAP2 SWAP1 POP JUMP JUMPDEST PUSH1 0x0 DUP2 SWAP1 POP DUP2 PUSH1 0x0 MSTORE PUSH1 0x20 PUSH1 0x0 KECCAK256 SWAP1 POP SWAP2 SWAP1 POP JUMP JUMPDEST PUSH1 0x0 PUSH1 0x20 PUSH1 0x1F DUP4 ADD DIV SWAP1 POP SWAP2 SWAP1 POP JUMP JUMPDEST PUSH1 0x0 DUP3 DUP3 SHL SWAP1 POP SWAP3 SWAP2 POP POP JUMP JUMPDEST PUSH1 0x0 PUSH1 0x8 DUP4 MUL PUSH2 0x1265 PUSH32 0xFFFFFFFFFFFFFFFFFFFFFFFFFFFFFFFFFFFFFFFFFFFFFFFFFFFFFFFFFFFFFFFF DUP3 PUSH2 0x1228 JUMP JUMPDEST PUSH2 0x126F DUP7 DUP4 PUSH2 0x1228 JUMP JUMPDEST SWAP6 POP DUP1 NOT DUP5 AND SWAP4 POP DUP1 DUP7 AND DUP5 OR SWAP3 POP POP POP SWAP4 SWAP3 POP POP POP JUMP JUMPDEST PUSH1 0x0 DUP2 SWAP1 POP SWAP2 SWAP1 POP JUMP JUMPDEST PUSH1 0x0 PUSH2 0x12AC PUSH2 0x12A7 PUSH2 0x12A2 DUP5 PUSH2 0xB05 JUMP JUMPDEST PUSH2 0x1287 JUMP JUMPDEST PUSH2 0xB05 JUMP JUMPDEST SWAP1 POP SWAP2 SWAP1 POP JUMP JUMPDEST PUSH1 0x0 DUP2 SWAP1 POP SWAP2 SWAP1 POP JUMP JUMPDEST PUSH2 0x12C6 DUP4 PUSH2 0x1291 JUMP JUMPDEST PUSH2 0x12DA PUSH2 0x12D2 DUP3 PUSH2 0x12B3 JUMP JUMPDEST DUP5 DUP5 SLOAD PUSH2 0x1235 JUMP JUMPDEST DUP3 SSTORE POP POP POP POP JUMP JUMPDEST PUSH1 0x0 SWAP1 JUMP JUMPDEST PUSH2 0x12EF PUSH2 0x12E2 JUMP JUMPDEST PUSH2 0x12FA DUP2 DUP5 DUP5 PUSH2 0x12BD JUMP JUMPDEST POP POP POP JUMP JUMPDEST JUMPDEST DUP2 DUP2 LT ISZERO PUSH2 0x131E JUMPI PUSH2 0x1313 PUSH1 0x0 DUP3 PUSH2 0x12E7 JUMP JUMPDEST PUSH1 0x1 DUP2 ADD SWAP1 POP PUSH2 0x1300 JUMP JUMPDEST POP POP JUMP JUMPDEST PUSH1 0x1F DUP3 GT ISZERO PUSH2 0x1363 JUMPI PUSH2 0x1334 DUP2 PUSH2 0x1203 JUMP JUMPDEST PUSH2 0x133D DUP5 PUSH2 0x1218 JUMP JUMPDEST DUP2 ADD PUSH1 0x20 DUP6 LT ISZERO PUSH2 0x134C JUMPI DUP2 SWAP1 POP JUMPDEST PUSH2 0x1360 PUSH2 0x1358 DUP6 PUSH2 0x1218 JUMP JUMPDEST DUP4 ADD DUP3 PUSH2 0x12FF JUMP JUMPDEST POP POP JUMPDEST POP POP POP JUMP JUMPDEST PUSH1 0x0 DUP3 DUP3 SHR SWAP1 POP SWAP3 SWAP2 POP POP JUMP JUMPDEST PUSH1 0x0 PUSH2 0x1386 PUSH1 0x0 NOT DUP5 PUSH1 0x8 MUL PUSH2 0x1368 JUMP JUMPDEST NOT DUP1 DUP4 AND SWAP2 POP POP SWAP3 SWAP2 POP POP JUMP JUMPDEST PUSH1 0x0 PUSH2 0x139F DUP4 DUP4 PUSH2 0x1375 JUMP JUMPDEST SWAP2 POP DUP3 PUSH1 0x2 MUL DUP3 OR SWAP1 POP SWAP3 SWAP2 POP POP JUMP JUMPDEST PUSH2 0x13B8 DUP3 PUSH2 0xB68 JUMP JUMPDEST PUSH8 0xFFFFFFFFFFFFFFFF DUP2 GT ISZERO PUSH2 0x13D1 JUMPI PUSH2 0x13D0 PUSH2 0xD38 JUMP JUMPDEST JUMPDEST PUSH2 0x13DB DUP3 SLOAD PUSH2 0x11D2 JUMP JUMPDEST PUSH2 0x13E6 DUP3 DUP3 DUP6 PUSH2 0x1322 JUMP JUMPDEST PUSH1 0x0 PUSH1 0x20 SWAP1 POP PUSH1 0x1F DUP4 GT PUSH1 0x1 DUP2 EQ PUSH2 0x1419 JUMPI PUSH1 0x0 DUP5 ISZERO PUSH2 0x1407 JUMPI DUP3 DUP8 ADD MLOAD SWAP1 POP JUMPDEST PUSH2 0x1411 DUP6 DUP3 PUSH2 0x1393 JUMP JUMPDEST DUP7 SSTORE POP PUSH2 0x1479 JUMP JUMPDEST PUSH1 0x1F NOT DUP5 AND PUSH2 0x1427 DUP7 PUSH2 0x1203 JUMP JUMPDEST PUSH1 0x0 JUMPDEST DUP3 DUP2 LT ISZERO PUSH2 0x144F JUMPI DUP5 DUP10 ADD MLOAD DUP3 SSTORE PUSH1 0x1 DUP3 ADD SWAP2 POP PUSH1 0x20 DUP6 ADD SWAP5 POP PUSH1 0x20 DUP2 ADD SWAP1 POP PUSH2 0x142A JUMP JUMPDEST DUP7 DUP4 LT ISZERO PUSH2 0x146C JUMPI DUP5 DUP10 ADD MLOAD PUSH2 0x1468 PUSH1 0x1F DUP10 AND DUP3 PUSH2 0x1375 JUMP JUMPDEST DUP4 SSTORE POP JUMPDEST PUSH1 0x1 PUSH1 0x2 DUP9 MUL ADD DUP9 SSTORE POP POP POP JUMPDEST POP POP POP POP POP POP JUMP JUMPDEST PUSH32 0x4E487B7100000000000000000000000000000000000000000000000000000000 PUSH1 0x0 MSTORE PUSH1 0x11 PUSH1 0x4 MSTORE PUSH1 0x24 PUSH1 0x0 REVERT JUMPDEST PUSH1 0x0 PUSH2 0x14BB DUP3 PUSH2 0xB05 JUMP JUMPDEST SWAP2 POP PUSH32 0xFFFFFFFFFFFFFFFFFFFFFFFFFFFFFFFFFFFFFFFFFFFFFFFFFFFFFFFFFFFFFFFF DUP3 SUB PUSH2 0x14ED JUMPI PUSH2 0x14EC PUSH2 0x1481 JUMP JUMPDEST JUMPDEST PUSH1 0x1 DUP3 ADD SWAP1 POP SWAP2 SWAP1 POP JUMP INVALID LOG2 PUSH5 0x6970667358 0x22 SLT KECCAK256 EXTCODECOPY CALLCODE 0xD0 PUSH30 0x42912B26C04AC70D2ECBFAD0907BC09E2F75E5B0F3CFBECFFDAF68A6473 PUSH16 0x6C634300081200330000000000000000 "
		},
		"gasEstimates": {
			"creation": {
				"codeDepositCost": "1084400",
				"executionCost": "25452",
				"totalCost": "1109852"
			},
			"external": {
				"DepartmentAI()": "infinite",
				"counts(uint8)": "2810",
				"get(uint256)": "infinite",
				"getName(uint256)": "infinite",
				"register(string,uint256,uint256,uint256,uint8,uint8,uint256)": "infinite",
				"s1()": "2557",
				"stuRoll(uint256)": "infinite",
				"topinBlock()": "infinite",
				"update(string,uint256,uint256,uint256,uint8,uint8,uint256)": "infinite"
			}
		},
		"methodIdentifiers": {
			"DepartmentAI()": "b52b4d50",
			"counts(uint8)": "edb6f7e7",
			"get(uint256)": "9507d39a",
			"getName(uint256)": "6b8ff574",
			"register(string,uint256,uint256,uint256,uint8,uint8,uint256)": "45715674",
			"s1()": "6cc014de",
			"stuRoll(uint256)": "373bfc67",
			"topinBlock()": "4a98f464",
			"update(string,uint256,uint256,uint256,uint8,uint8,uint256)": "a938f78d"
		}
	},
	"abi": [
		{
			"inputs": [],
			"name": "DepartmentAI",
			"outputs": [
				{
					"internalType": "uint256",
					"name": "",
					"type": "uint256"
				},
				{
					"internalType": "uint256",
					"name": "",
					"type": "uint256"
				},
				{
					"internalType": "uint256",
					"name": "",
					"type": "uint256"
				},
				{
					"internalType": "uint256",
					"name": "",
					"type": "uint256"
				}
			],
			"stateMutability": "view",
			"type": "function"
		},
		{
			"inputs": [
				{
					"internalType": "enum SRS02.Department",
					"name": "",
					"type": "uint8"
				}
			],
			"name": "counts",
			"outputs": [
				{
					"internalType": "uint256",
					"name": "",
					"type": "uint256"
				}
			],
			"stateMutability": "view",
			"type": "function"
		},
		{
			"inputs": [
				{
					"internalType": "uint256",
					"name": "i",
					"type": "uint256"
				}
			],
			"name": "get",
			"outputs": [
				{
					"components": [
						{
							"internalType": "string",
							"name": "name",
							"type": "string"
						},
						{
							"internalType": "uint256",
							"name": "age",
							"type": "uint256"
						},
						{
							"internalType": "uint256",
							"name": "registration_date",
							"type": "uint256"
						},
						{
							"internalType": "enum SRS02.Department",
							"name": "_department",
							"type": "uint8"
						},
						{
							"internalType": "enum SRS02.Status",
							"name": "_status",
							"type": "uint8"
						},
						{
							"internalType": "uint256",
							"name": "MarksObtained",
							"type": "uint256"
						}
					],
					"internalType": "struct SRS02.Student",
					"name": "",
					"type": "tuple"
				}
			],
			"stateMutability": "view",
			"type": "function"
		},
		{
			"inputs": [
				{
					"internalType": "uint256",
					"name": "i",
					"type": "uint256"
				}
			],
			"name": "getName",
			"outputs": [
				{
					"internalType": "string",
					"name": "",
					"type": "string"
				}
			],
			"stateMutability": "view",
			"type": "function"
		},
		{
			"inputs": [
				{
					"internalType": "string",
					"name": "name",
					"type": "string"
				},
				{
					"internalType": "uint256",
					"name": "age",
					"type": "uint256"
				},
				{
					"internalType": "uint256",
					"name": "rollnumber",
					"type": "uint256"
				},
				{
					"internalType": "uint256",
					"name": "registration_date",
					"type": "uint256"
				},
				{
					"internalType": "enum SRS02.Department",
					"name": "_department",
					"type": "uint8"
				},
				{
					"internalType": "enum SRS02.Status",
					"name": "_status",
					"type": "uint8"
				},
				{
					"internalType": "uint256",
					"name": "MarksObtained",
					"type": "uint256"
				}
			],
			"name": "register",
			"outputs": [],
			"stateMutability": "nonpayable",
			"type": "function"
		},
		{
			"inputs": [],
			"name": "s1",
			"outputs": [
				{
					"internalType": "enum SRS02.Status",
					"name": "",
					"type": "uint8"
				}
			],
			"stateMutability": "view",
			"type": "function"
		},
		{
			"inputs": [
				{
					"internalType": "uint256",
					"name": "",
					"type": "uint256"
				}
			],
			"name": "stuRoll",
			"outputs": [
				{
					"internalType": "string",
					"name": "name",
					"type": "string"
				},
				{
					"internalType": "uint256",
					"name": "age",
					"type": "uint256"
				},
				{
					"internalType": "uint256",
					"name": "registration_date",
					"type": "uint256"
				},
				{
					"internalType": "enum SRS02.Department",
					"name": "_department",
					"type": "uint8"
				},
				{
					"internalType": "enum SRS02.Status",
					"name": "_status",
					"type": "uint8"
				},
				{
					"internalType": "uint256",
					"name": "MarksObtained",
					"type": "uint256"
				}
			],
			"stateMutability": "view",
			"type": "function"
		},
		{
			"inputs": [],
			"name": "topinBlock",
			"outputs": [
				{
					"components": [
						{
							"internalType": "string",
							"name": "name",
							"type": "string"
						},
						{
							"internalType": "uint256",
							"name": "age",
							"type": "uint256"
						},
						{
							"internalType": "uint256",
							"name": "registration_date",
							"type": "uint256"
						},
						{
							"internalType": "enum SRS02.Department",
							"name": "_department",
							"type": "uint8"
						},
						{
							"internalType": "enum SRS02.Status",
							"name": "_status",
							"type": "uint8"
						},
						{
							"internalType": "uint256",
							"name": "MarksObtained",
							"type": "uint256"
						}
					],
					"internalType": "struct SRS02.Student",
					"name": "",
					"type": "tuple"
				},
				{
					"components": [
						{
							"internalType": "string",
							"name": "name",
							"type": "string"
						},
						{
							"internalType": "uint256",
							"name": "age",
							"type": "uint256"
						},
						{
							"internalType": "uint256",
							"name": "registration_date",
							"type": "uint256"
						},
						{
							"internalType": "enum SRS02.Department",
							"name": "_department",
							"type": "uint8"
						},
						{
							"internalType": "enum SRS02.Status",
							"name": "_status",
							"type": "uint8"
						},
						{
							"internalType": "uint256",
							"name": "MarksObtained",
							"type": "uint256"
						}
					],
					"internalType": "struct SRS02.Student",
					"name": "",
					"type": "tuple"
				},
				{
					"components": [
						{
							"internalType": "string",
							"name": "name",
							"type": "string"
						},
						{
							"internalType": "uint256",
							"name": "age",
							"type": "uint256"
						},
						{
							"internalType": "uint256",
							"name": "registration_date",
							"type": "uint256"
						},
						{
							"internalType": "enum SRS02.Department",
							"name": "_department",
							"type": "uint8"
						},
						{
							"internalType": "enum SRS02.Status",
							"name": "_status",
							"type": "uint8"
						},
						{
							"internalType": "uint256",
							"name": "MarksObtained",
							"type": "uint256"
						}
					],
					"internalType": "struct SRS02.Student",
					"name": "",
					"type": "tuple"
				}
			],
			"stateMutability": "view",
			"type": "function"
		},
		{
			"inputs": [
				{
					"internalType": "string",
					"name": "name",
					"type": "string"
				},
				{
					"internalType": "uint256",
					"name": "age",
					"type": "uint256"
				},
				{
					"internalType": "uint256",
					"name": "rollnumber",
					"type": "uint256"
				},
				{
					"internalType": "uint256",
					"name": "registration_date",
					"type": "uint256"
				},
				{
					"internalType": "enum SRS02.Department",
					"name": "_department",
					"type": "uint8"
				},
				{
					"internalType": "enum SRS02.Status",
					"name": "_status",
					"type": "uint8"
				},
				{
					"internalType": "uint256",
					"name": "MarksObtained",
					"type": "uint256"
				}
			],
			"name": "update",
			"outputs": [],
			"stateMutability": "nonpayable",
			"type": "function"
		}
	]
}