{
	"data": {
		"bytecode": {
			"linkReferences": {},
			"object": "608060405234801561000f575f80fd5b506104df8061001d5f395ff3fe608060405234801561000f575f80fd5b5060043610610029575f3560e01c8063f6fac9f51461002d575b5f80fd5b610035610037565b005b7f0d9f69314e834cd1fcb9f6af7a4fa384c01b253b675920042ab32273de670590620249f06040516100699190610228565b60405180910390a160405180604001604052806040518060400160405280600581526020017f696e74656c000000000000000000000000000000000000000000000000000000815250815260200160808152506040516100c99190610342565b60405180910390205f60028111156100e4576100e3610358565b5b620186a07fb7cb3e49b4ec09a148706bede73dce11f05491dc27eed607696709426603d7ff604051610115906103cf565b60405180910390a47fdb5314170881fa5fdd3e9921dbc50bd6b3d983b71f6866474ed235614e4ada9e600160405161014d919061047d565b60405180910390a17ff2a75fe4d7cd25bbe769d566fbf5a20c67283479ab765ae5857c5ba963305b5560405160405180910390a1565b5f82825260208201905092915050565b7f48700000000000000000000000000000000000000000000000000000000000005f82015250565b5f6101c7600283610183565b91506101d282610193565b602082019050919050565b5f819050919050565b5f819050919050565b5f819050919050565b5f61021261020d610208846101dd565b6101ef565b6101e6565b9050919050565b610222816101f8565b82525050565b5f6040820190508181035f83015261023f816101bb565b905061024e6020830184610219565b92915050565b5f81519050919050565b5f81905092915050565b5f5b8381101561028557808201518184015260208101905061026a565b5f8484015250505050565b5f601f19601f8301169050919050565b5f6102aa82610254565b6102b4818561025e565b93506102c4818560208601610268565b6102cd81610290565b840191505092915050565b5f6102e383836102a0565b905092915050565b6102f4816101e6565b82525050565b5f61030583836102eb565b60208301905092915050565b5f8083015f83015161032385826102d8565b945050602083015161033585826102fa565b9450508391505092915050565b5f61034d8284610311565b915081905092915050565b7f4e487b71000000000000000000000000000000000000000000000000000000005f52602160045260245ffd5b7f64656c6c000000000000000000000000000000000000000000000000000000005f82015250565b5f6103b9600483610183565b91506103c482610385565b602082019050919050565b5f6020820190508181035f8301526103e6816103ad565b9050919050565b7f4c656e6f766f00000000000000000000000000000000000000000000000000005f82015250565b5f610421600683610183565b915061042c826103ed565b602082019050919050565b6003811061044857610447610358565b5b50565b5f81905061045882610437565b919050565b5f6104678261044b565b9050919050565b6104778161045d565b82525050565b5f6040820190508181035f83015261049481610415565b90506104a3602083018461046e565b9291505056fea2646970667358221220b7fff34776fb7c2c4bb35a0619dea2604fef11dc694a995cb2c0c18a7f9f2a5964736f6c63430008150033",
			"opcodes": "PUSH1 0x80 PUSH1 0x40 MSTORE CALLVALUE DUP1 ISZERO PUSH2 0xF JUMPI PUSH0 DUP1 REVERT JUMPDEST POP PUSH2 0x4DF DUP1 PUSH2 0x1D PUSH0 CODECOPY PUSH0 RETURN INVALID PUSH1 0x80 PUSH1 0x40 MSTORE CALLVALUE DUP1 ISZERO PUSH2 0xF JUMPI PUSH0 DUP1 REVERT JUMPDEST POP PUSH1 0x4 CALLDATASIZE LT PUSH2 0x29 JUMPI PUSH0 CALLDATALOAD PUSH1 0xE0 SHR DUP1 PUSH4 0xF6FAC9F5 EQ PUSH2 0x2D JUMPI JUMPDEST PUSH0 DUP1 REVERT JUMPDEST PUSH2 0x35 PUSH2 0x37 JUMP JUMPDEST STOP JUMPDEST PUSH32 0xD9F69314E834CD1FCB9F6AF7A4FA384C01B253B675920042AB32273DE670590 PUSH3 0x249F0 PUSH1 0x40 MLOAD PUSH2 0x69 SWAP2 SWAP1 PUSH2 0x228 JUMP JUMPDEST PUSH1 0x40 MLOAD DUP1 SWAP2 SUB SWAP1 LOG1 PUSH1 0x40 MLOAD DUP1 PUSH1 0x40 ADD PUSH1 0x40 MSTORE DUP1 PUSH1 0x40 MLOAD DUP1 PUSH1 0x40 ADD PUSH1 0x40 MSTORE DUP1 PUSH1 0x5 DUP2 MSTORE PUSH1 0x20 ADD PUSH32 0x696E74656C000000000000000000000000000000000000000000000000000000 DUP2 MSTORE POP DUP2 MSTORE PUSH1 0x20 ADD PUSH1 0x80 DUP2 MSTORE POP PUSH1 0x40 MLOAD PUSH2 0xC9 SWAP2 SWAP1 PUSH2 0x342 JUMP JUMPDEST PUSH1 0x40 MLOAD DUP1 SWAP2 SUB SWAP1 KECCAK256 PUSH0 PUSH1 0x2 DUP2 GT ISZERO PUSH2 0xE4 JUMPI PUSH2 0xE3 PUSH2 0x358 JUMP JUMPDEST JUMPDEST PUSH3 0x186A0 PUSH32 0xB7CB3E49B4EC09A148706BEDE73DCE11F05491DC27EED607696709426603D7FF PUSH1 0x40 MLOAD PUSH2 0x115 SWAP1 PUSH2 0x3CF JUMP JUMPDEST PUSH1 0x40 MLOAD DUP1 SWAP2 SUB SWAP1 LOG4 PUSH32 0xDB5314170881FA5FDD3E9921DBC50BD6B3D983B71F6866474ED235614E4ADA9E PUSH1 0x1 PUSH1 0x40 MLOAD PUSH2 0x14D SWAP2 SWAP1 PUSH2 0x47D JUMP JUMPDEST PUSH1 0x40 MLOAD DUP1 SWAP2 SUB SWAP1 LOG1 PUSH32 0xF2A75FE4D7CD25BBE769D566FBF5A20C67283479AB765AE5857C5BA963305B55 PUSH1 0x40 MLOAD PUSH1 0x40 MLOAD DUP1 SWAP2 SUB SWAP1 LOG1 JUMP JUMPDEST PUSH0 DUP3 DUP3 MSTORE PUSH1 0x20 DUP3 ADD SWAP1 POP SWAP3 SWAP2 POP POP JUMP JUMPDEST PUSH32 0x4870000000000000000000000000000000000000000000000000000000000000 PUSH0 DUP3 ADD MSTORE POP JUMP JUMPDEST PUSH0 PUSH2 0x1C7 PUSH1 0x2 DUP4 PUSH2 0x183 JUMP JUMPDEST SWAP2 POP PUSH2 0x1D2 DUP3 PUSH2 0x193 JUMP JUMPDEST PUSH1 0x20 DUP3 ADD SWAP1 POP SWAP2 SWAP1 POP JUMP JUMPDEST PUSH0 DUP2 SWAP1 POP SWAP2 SWAP1 POP JUMP JUMPDEST PUSH0 DUP2 SWAP1 POP SWAP2 SWAP1 POP JUMP JUMPDEST PUSH0 DUP2 SWAP1 POP SWAP2 SWAP1 POP JUMP JUMPDEST PUSH0 PUSH2 0x212 PUSH2 0x20D PUSH2 0x208 DUP5 PUSH2 0x1DD JUMP JUMPDEST PUSH2 0x1EF JUMP JUMPDEST PUSH2 0x1E6 JUMP JUMPDEST SWAP1 POP SWAP2 SWAP1 POP JUMP JUMPDEST PUSH2 0x222 DUP2 PUSH2 0x1F8 JUMP JUMPDEST DUP3 MSTORE POP POP JUMP JUMPDEST PUSH0 PUSH1 0x40 DUP3 ADD SWAP1 POP DUP2 DUP2 SUB PUSH0 DUP4 ADD MSTORE PUSH2 0x23F DUP2 PUSH2 0x1BB JUMP JUMPDEST SWAP1 POP PUSH2 0x24E PUSH1 0x20 DUP4 ADD DUP5 PUSH2 0x219 JUMP JUMPDEST SWAP3 SWAP2 POP POP JUMP JUMPDEST PUSH0 DUP2 MLOAD SWAP1 POP SWAP2 SWAP1 POP JUMP JUMPDEST PUSH0 DUP2 SWAP1 POP SWAP3 SWAP2 POP POP JUMP JUMPDEST PUSH0 JUMPDEST DUP4 DUP2 LT ISZERO PUSH2 0x285 JUMPI DUP1 DUP3 ADD MLOAD DUP2 DUP5 ADD MSTORE PUSH1 0x20 DUP2 ADD SWAP1 POP PUSH2 0x26A JUMP JUMPDEST PUSH0 DUP5 DUP5 ADD MSTORE POP POP POP POP JUMP JUMPDEST PUSH0 PUSH1 0x1F NOT PUSH1 0x1F DUP4 ADD AND SWAP1 POP SWAP2 SWAP1 POP JUMP JUMPDEST PUSH0 PUSH2 0x2AA DUP3 PUSH2 0x254 JUMP JUMPDEST PUSH2 0x2B4 DUP2 DUP6 PUSH2 0x25E JUMP JUMPDEST SWAP4 POP PUSH2 0x2C4 DUP2 DUP6 PUSH1 0x20 DUP7 ADD PUSH2 0x268 JUMP JUMPDEST PUSH2 0x2CD DUP2 PUSH2 0x290 JUMP JUMPDEST DUP5 ADD SWAP2 POP POP SWAP3 SWAP2 POP POP JUMP JUMPDEST PUSH0 PUSH2 0x2E3 DUP4 DUP4 PUSH2 0x2A0 JUMP JUMPDEST SWAP1 POP SWAP3 SWAP2 POP POP JUMP JUMPDEST PUSH2 0x2F4 DUP2 PUSH2 0x1E6 JUMP JUMPDEST DUP3 MSTORE POP POP JUMP JUMPDEST PUSH0 PUSH2 0x305 DUP4 DUP4 PUSH2 0x2EB JUMP JUMPDEST PUSH1 0x20 DUP4 ADD SWAP1 POP SWAP3 SWAP2 POP POP JUMP JUMPDEST PUSH0 DUP1 DUP4 ADD PUSH0 DUP4 ADD MLOAD PUSH2 0x323 DUP6 DUP3 PUSH2 0x2D8 JUMP JUMPDEST SWAP5 POP POP PUSH1 0x20 DUP4 ADD MLOAD PUSH2 0x335 DUP6 DUP3 PUSH2 0x2FA JUMP JUMPDEST SWAP5 POP POP DUP4 SWAP2 POP POP SWAP3 SWAP2 POP POP JUMP JUMPDEST PUSH0 PUSH2 0x34D DUP3 DUP5 PUSH2 0x311 JUMP JUMPDEST SWAP2 POP DUP2 SWAP1 POP SWAP3 SWAP2 POP POP JUMP JUMPDEST PUSH32 0x4E487B7100000000000000000000000000000000000000000000000000000000 PUSH0 MSTORE PUSH1 0x21 PUSH1 0x4 MSTORE PUSH1 0x24 PUSH0 REVERT JUMPDEST PUSH32 0x64656C6C00000000000000000000000000000000000000000000000000000000 PUSH0 DUP3 ADD MSTORE POP JUMP JUMPDEST PUSH0 PUSH2 0x3B9 PUSH1 0x4 DUP4 PUSH2 0x183 JUMP JUMPDEST SWAP2 POP PUSH2 0x3C4 DUP3 PUSH2 0x385 JUMP JUMPDEST PUSH1 0x20 DUP3 ADD SWAP1 POP SWAP2 SWAP1 POP JUMP JUMPDEST PUSH0 PUSH1 0x20 DUP3 ADD SWAP1 POP DUP2 DUP2 SUB PUSH0 DUP4 ADD MSTORE PUSH2 0x3E6 DUP2 PUSH2 0x3AD JUMP JUMPDEST SWAP1 POP SWAP2 SWAP1 POP JUMP JUMPDEST PUSH32 0x4C656E6F766F0000000000000000000000000000000000000000000000000000 PUSH0 DUP3 ADD MSTORE POP JUMP JUMPDEST PUSH0 PUSH2 0x421 PUSH1 0x6 DUP4 PUSH2 0x183 JUMP JUMPDEST SWAP2 POP PUSH2 0x42C DUP3 PUSH2 0x3ED JUMP JUMPDEST PUSH1 0x20 DUP3 ADD SWAP1 POP SWAP2 SWAP1 POP JUMP JUMPDEST PUSH1 0x3 DUP2 LT PUSH2 0x448 JUMPI PUSH2 0x447 PUSH2 0x358 JUMP JUMPDEST JUMPDEST POP JUMP JUMPDEST PUSH0 DUP2 SWAP1 POP PUSH2 0x458 DUP3 PUSH2 0x437 JUMP JUMPDEST SWAP2 SWAP1 POP JUMP JUMPDEST PUSH0 PUSH2 0x467 DUP3 PUSH2 0x44B JUMP JUMPDEST SWAP1 POP SWAP2 SWAP1 POP JUMP JUMPDEST PUSH2 0x477 DUP2 PUSH2 0x45D JUMP JUMPDEST DUP3 MSTORE POP POP JUMP JUMPDEST PUSH0 PUSH1 0x40 DUP3 ADD SWAP1 POP DUP2 DUP2 SUB PUSH0 DUP4 ADD MSTORE PUSH2 0x494 DUP2 PUSH2 0x415 JUMP JUMPDEST SWAP1 POP PUSH2 0x4A3 PUSH1 0x20 DUP4 ADD DUP5 PUSH2 0x46E JUMP JUMPDEST SWAP3 SWAP2 POP POP JUMP INVALID LOG2 PUSH5 0x6970667358 0x22 SLT KECCAK256 0xB7 SELFDESTRUCT RETURN SELFBALANCE PUSH23 0xFB7C2C4BB35A0619DEA2604FEF11DC694A995CB2C0C18A PUSH32 0x9F2A5964736F6C63430008150033000000000000000000000000000000000000 "
		},
		"gasEstimates": {
			"creation": {
				"codeDepositCost": "249400",
				"executionCost": "285",
				"totalCost": "249685"
			},
			"external": {
				"emits()": "infinite"
			}
		},
		"methodIdentifiers": {
			"emits()": "f6fac9f5"
		}
	},
	"abi": [
		{
			"anonymous": false,
			"inputs": [],
			"name": "empty",
			"type": "event"
		},
		{
			"anonymous": false,
			"inputs": [
				{
					"indexed": false,
					"internalType": "string",
					"name": "",
					"type": "string"
				},
				{
					"indexed": false,
					"internalType": "enum Events.Quality",
					"name": "",
					"type": "uint8"
				}
			],
			"name": "mu",
			"type": "event"
		},
		{
			"anonymous": false,
			"inputs": [
				{
					"indexed": false,
					"internalType": "string",
					"name": "laptop",
					"type": "string"
				},
				{
					"indexed": false,
					"internalType": "uint256",
					"name": "price",
					"type": "uint256"
				}
			],
			"name": "multi",
			"type": "event"
		},
		{
			"anonymous": false,
			"inputs": [
				{
					"indexed": false,
					"internalType": "string",
					"name": "laptop",
					"type": "string"
				},
				{
					"indexed": true,
					"internalType": "uint256",
					"name": "price",
					"type": "uint256"
				},
				{
					"indexed": true,
					"internalType": "enum Events.Quality",
					"name": "q",
					"type": "uint8"
				},
				{
					"components": [
						{
							"internalType": "string",
							"name": "microprocessor",
							"type": "string"
						},
						{
							"internalType": "uint256",
							"name": "RAM",
							"type": "uint256"
						}
					],
					"indexed": true,
					"internalType": "struct Events.specs",
					"name": "s",
					"type": "tuple"
				}
			],
			"name": "multiple",
			"type": "event"
		},
		{
			"inputs": [],
			"name": "emits",
			"outputs": [],
			"stateMutability": "nonpayable",
			"type": "function"
		}
	]
}