{
	"data": {
		"bytecode": {
			"linkReferences": {},
			"object": "608060405234801561000f575f80fd5b506105658061001d5f395ff3fe608060405234801561000f575f80fd5b5060043610610029575f3560e01c8063b59d79751461002d575b5f80fd5b61004760048036038101906100429190610236565b61005e565b6040516100559291906102fa565b60405180910390f35b5f60605f805f808612156100e7578592507f7acfeccf302e7d3ca68ce982def76558fd0bf2f60aaceebb96713f9b0403af7d60405161009c90610398565b60405180910390a1826040518060400160405280600881526020017f6e65676174697665000000000000000000000000000000000000000000000000815250945094505050506101fa565b6002861215801561010357505f60028761010191906103e3565b145b15610183578591507f7acfeccf302e7d3ca68ce982def76558fd0bf2f60aaceebb96713f9b0403af7d60405161013890610483565b60405180910390a1816040518060400160405280600c81526020017f706f7374697665206576656e0000000000000000000000000000000000000000815250945094505050506101fa565b8590507f7acfeccf302e7d3ca68ce982def76558fd0bf2f60aaceebb96713f9b0403af7d6040516101b390610511565b60405180910390a1806040518060400160405280600c81526020017f706f736974697665206f64640000000000000000000000000000000000000000815250945094505050505b915091565b5f80fd5b5f819050919050565b61021581610203565b811461021f575f80fd5b50565b5f813590506102308161020c565b92915050565b5f6020828403121561024b5761024a6101ff565b5b5f61025884828501610222565b91505092915050565b61026a81610203565b82525050565b5f81519050919050565b5f82825260208201905092915050565b5f5b838110156102a757808201518184015260208101905061028c565b5f8484015250505050565b5f601f19601f8301169050919050565b5f6102cc82610270565b6102d6818561027a565b93506102e681856020860161028a565b6102ef816102b2565b840191505092915050565b5f60408201905061030d5f830185610261565b818103602083015261031f81846102c2565b90509392505050565b7f6e65676174697665206c6f63616c207661726961626c652072657475726e65645f8201527f207468652076616c756500000000000000000000000000000000000000000000602082015250565b5f610382602a8361027a565b915061038d82610328565b604082019050919050565b5f6020820190508181035f8301526103af81610376565b9050919050565b7f4e487b71000000000000000000000000000000000000000000000000000000005f52601260045260245ffd5b5f6103ed82610203565b91506103f883610203565b925082610408576104076103b6565b5b828207905092915050565b7f706f7369746976656576656e206c6f63616c207661726961626c6520726574755f8201527f726e65642076616c756500000000000000000000000000000000000000000000602082015250565b5f61046d602a8361027a565b915061047882610413565b604082019050919050565b5f6020820190508181035f83015261049a81610461565b9050919050565b7f506f73697476656f6464206c6f63616c207661726961626c652072657475726e5f8201527f65642076616c7565000000000000000000000000000000000000000000000000602082015250565b5f6104fb60288361027a565b9150610506826104a1565b604082019050919050565b5f6020820190508181035f830152610528816104ef565b905091905056fea264697066735822122013174c8e9340e3d8afbdbf7becc374a1f1d71d7e8875bacc956dfb699ff7bd4464736f6c63430008150033",
			"opcodes": "PUSH1 0x80 PUSH1 0x40 MSTORE CALLVALUE DUP1 ISZERO PUSH2 0xF JUMPI PUSH0 DUP1 REVERT JUMPDEST POP PUSH2 0x565 DUP1 PUSH2 0x1D PUSH0 CODECOPY PUSH0 RETURN INVALID PUSH1 0x80 PUSH1 0x40 MSTORE CALLVALUE DUP1 ISZERO PUSH2 0xF JUMPI PUSH0 DUP1 REVERT JUMPDEST POP PUSH1 0x4 CALLDATASIZE LT PUSH2 0x29 JUMPI PUSH0 CALLDATALOAD PUSH1 0xE0 SHR DUP1 PUSH4 0xB59D7975 EQ PUSH2 0x2D JUMPI JUMPDEST PUSH0 DUP1 REVERT JUMPDEST PUSH2 0x47 PUSH1 0x4 DUP1 CALLDATASIZE SUB DUP2 ADD SWAP1 PUSH2 0x42 SWAP2 SWAP1 PUSH2 0x236 JUMP JUMPDEST PUSH2 0x5E JUMP JUMPDEST PUSH1 0x40 MLOAD PUSH2 0x55 SWAP3 SWAP2 SWAP1 PUSH2 0x2FA JUMP JUMPDEST PUSH1 0x40 MLOAD DUP1 SWAP2 SUB SWAP1 RETURN JUMPDEST PUSH0 PUSH1 0x60 PUSH0 DUP1 PUSH0 DUP1 DUP7 SLT ISZERO PUSH2 0xE7 JUMPI DUP6 SWAP3 POP PUSH32 0x7ACFECCF302E7D3CA68CE982DEF76558FD0BF2F60AACEEBB96713F9B0403AF7D PUSH1 0x40 MLOAD PUSH2 0x9C SWAP1 PUSH2 0x398 JUMP JUMPDEST PUSH1 0x40 MLOAD DUP1 SWAP2 SUB SWAP1 LOG1 DUP3 PUSH1 0x40 MLOAD DUP1 PUSH1 0x40 ADD PUSH1 0x40 MSTORE DUP1 PUSH1 0x8 DUP2 MSTORE PUSH1 0x20 ADD PUSH32 0x6E65676174697665000000000000000000000000000000000000000000000000 DUP2 MSTORE POP SWAP5 POP SWAP5 POP POP POP POP PUSH2 0x1FA JUMP JUMPDEST PUSH1 0x2 DUP7 SLT ISZERO DUP1 ISZERO PUSH2 0x103 JUMPI POP PUSH0 PUSH1 0x2 DUP8 PUSH2 0x101 SWAP2 SWAP1 PUSH2 0x3E3 JUMP JUMPDEST EQ JUMPDEST ISZERO PUSH2 0x183 JUMPI DUP6 SWAP2 POP PUSH32 0x7ACFECCF302E7D3CA68CE982DEF76558FD0BF2F60AACEEBB96713F9B0403AF7D PUSH1 0x40 MLOAD PUSH2 0x138 SWAP1 PUSH2 0x483 JUMP JUMPDEST PUSH1 0x40 MLOAD DUP1 SWAP2 SUB SWAP1 LOG1 DUP2 PUSH1 0x40 MLOAD DUP1 PUSH1 0x40 ADD PUSH1 0x40 MSTORE DUP1 PUSH1 0xC DUP2 MSTORE PUSH1 0x20 ADD PUSH32 0x706F7374697665206576656E0000000000000000000000000000000000000000 DUP2 MSTORE POP SWAP5 POP SWAP5 POP POP POP POP PUSH2 0x1FA JUMP JUMPDEST DUP6 SWAP1 POP PUSH32 0x7ACFECCF302E7D3CA68CE982DEF76558FD0BF2F60AACEEBB96713F9B0403AF7D PUSH1 0x40 MLOAD PUSH2 0x1B3 SWAP1 PUSH2 0x511 JUMP JUMPDEST PUSH1 0x40 MLOAD DUP1 SWAP2 SUB SWAP1 LOG1 DUP1 PUSH1 0x40 MLOAD DUP1 PUSH1 0x40 ADD PUSH1 0x40 MSTORE DUP1 PUSH1 0xC DUP2 MSTORE PUSH1 0x20 ADD PUSH32 0x706F736974697665206F64640000000000000000000000000000000000000000 DUP2 MSTORE POP SWAP5 POP SWAP5 POP POP POP POP JUMPDEST SWAP2 POP SWAP2 JUMP JUMPDEST PUSH0 DUP1 REVERT JUMPDEST PUSH0 DUP2 SWAP1 POP SWAP2 SWAP1 POP JUMP JUMPDEST PUSH2 0x215 DUP2 PUSH2 0x203 JUMP JUMPDEST DUP2 EQ PUSH2 0x21F JUMPI PUSH0 DUP1 REVERT JUMPDEST POP JUMP JUMPDEST PUSH0 DUP2 CALLDATALOAD SWAP1 POP PUSH2 0x230 DUP2 PUSH2 0x20C JUMP JUMPDEST SWAP3 SWAP2 POP POP JUMP JUMPDEST PUSH0 PUSH1 0x20 DUP3 DUP5 SUB SLT ISZERO PUSH2 0x24B JUMPI PUSH2 0x24A PUSH2 0x1FF JUMP JUMPDEST JUMPDEST PUSH0 PUSH2 0x258 DUP5 DUP3 DUP6 ADD PUSH2 0x222 JUMP JUMPDEST SWAP2 POP POP SWAP3 SWAP2 POP POP JUMP JUMPDEST PUSH2 0x26A DUP2 PUSH2 0x203 JUMP JUMPDEST DUP3 MSTORE POP POP JUMP JUMPDEST PUSH0 DUP2 MLOAD SWAP1 POP SWAP2 SWAP1 POP JUMP JUMPDEST PUSH0 DUP3 DUP3 MSTORE PUSH1 0x20 DUP3 ADD SWAP1 POP SWAP3 SWAP2 POP POP JUMP JUMPDEST PUSH0 JUMPDEST DUP4 DUP2 LT ISZERO PUSH2 0x2A7 JUMPI DUP1 DUP3 ADD MLOAD DUP2 DUP5 ADD MSTORE PUSH1 0x20 DUP2 ADD SWAP1 POP PUSH2 0x28C JUMP JUMPDEST PUSH0 DUP5 DUP5 ADD MSTORE POP POP POP POP JUMP JUMPDEST PUSH0 PUSH1 0x1F NOT PUSH1 0x1F DUP4 ADD AND SWAP1 POP SWAP2 SWAP1 POP JUMP JUMPDEST PUSH0 PUSH2 0x2CC DUP3 PUSH2 0x270 JUMP JUMPDEST PUSH2 0x2D6 DUP2 DUP6 PUSH2 0x27A JUMP JUMPDEST SWAP4 POP PUSH2 0x2E6 DUP2 DUP6 PUSH1 0x20 DUP7 ADD PUSH2 0x28A JUMP JUMPDEST PUSH2 0x2EF DUP2 PUSH2 0x2B2 JUMP JUMPDEST DUP5 ADD SWAP2 POP POP SWAP3 SWAP2 POP POP JUMP JUMPDEST PUSH0 PUSH1 0x40 DUP3 ADD SWAP1 POP PUSH2 0x30D PUSH0 DUP4 ADD DUP6 PUSH2 0x261 JUMP JUMPDEST DUP2 DUP2 SUB PUSH1 0x20 DUP4 ADD MSTORE PUSH2 0x31F DUP2 DUP5 PUSH2 0x2C2 JUMP JUMPDEST SWAP1 POP SWAP4 SWAP3 POP POP POP JUMP JUMPDEST PUSH32 0x6E65676174697665206C6F63616C207661726961626C652072657475726E6564 PUSH0 DUP3 ADD MSTORE PUSH32 0x207468652076616C756500000000000000000000000000000000000000000000 PUSH1 0x20 DUP3 ADD MSTORE POP JUMP JUMPDEST PUSH0 PUSH2 0x382 PUSH1 0x2A DUP4 PUSH2 0x27A JUMP JUMPDEST SWAP2 POP PUSH2 0x38D DUP3 PUSH2 0x328 JUMP JUMPDEST PUSH1 0x40 DUP3 ADD SWAP1 POP SWAP2 SWAP1 POP JUMP JUMPDEST PUSH0 PUSH1 0x20 DUP3 ADD SWAP1 POP DUP2 DUP2 SUB PUSH0 DUP4 ADD MSTORE PUSH2 0x3AF DUP2 PUSH2 0x376 JUMP JUMPDEST SWAP1 POP SWAP2 SWAP1 POP JUMP JUMPDEST PUSH32 0x4E487B7100000000000000000000000000000000000000000000000000000000 PUSH0 MSTORE PUSH1 0x12 PUSH1 0x4 MSTORE PUSH1 0x24 PUSH0 REVERT JUMPDEST PUSH0 PUSH2 0x3ED DUP3 PUSH2 0x203 JUMP JUMPDEST SWAP2 POP PUSH2 0x3F8 DUP4 PUSH2 0x203 JUMP JUMPDEST SWAP3 POP DUP3 PUSH2 0x408 JUMPI PUSH2 0x407 PUSH2 0x3B6 JUMP JUMPDEST JUMPDEST DUP3 DUP3 SMOD SWAP1 POP SWAP3 SWAP2 POP POP JUMP JUMPDEST PUSH32 0x706F7369746976656576656E206C6F63616C207661726961626C652072657475 PUSH0 DUP3 ADD MSTORE PUSH32 0x726E65642076616C756500000000000000000000000000000000000000000000 PUSH1 0x20 DUP3 ADD MSTORE POP JUMP JUMPDEST PUSH0 PUSH2 0x46D PUSH1 0x2A DUP4 PUSH2 0x27A JUMP JUMPDEST SWAP2 POP PUSH2 0x478 DUP3 PUSH2 0x413 JUMP JUMPDEST PUSH1 0x40 DUP3 ADD SWAP1 POP SWAP2 SWAP1 POP JUMP JUMPDEST PUSH0 PUSH1 0x20 DUP3 ADD SWAP1 POP DUP2 DUP2 SUB PUSH0 DUP4 ADD MSTORE PUSH2 0x49A DUP2 PUSH2 0x461 JUMP JUMPDEST SWAP1 POP SWAP2 SWAP1 POP JUMP JUMPDEST PUSH32 0x506F73697476656F6464206C6F63616C207661726961626C652072657475726E PUSH0 DUP3 ADD MSTORE PUSH32 0x65642076616C7565000000000000000000000000000000000000000000000000 PUSH1 0x20 DUP3 ADD MSTORE POP JUMP JUMPDEST PUSH0 PUSH2 0x4FB PUSH1 0x28 DUP4 PUSH2 0x27A JUMP JUMPDEST SWAP2 POP PUSH2 0x506 DUP3 PUSH2 0x4A1 JUMP JUMPDEST PUSH1 0x40 DUP3 ADD SWAP1 POP SWAP2 SWAP1 POP JUMP JUMPDEST PUSH0 PUSH1 0x20 DUP3 ADD SWAP1 POP DUP2 DUP2 SUB PUSH0 DUP4 ADD MSTORE PUSH2 0x528 DUP2 PUSH2 0x4EF JUMP JUMPDEST SWAP1 POP SWAP2 SWAP1 POP JUMP INVALID LOG2 PUSH5 0x6970667358 0x22 SLT KECCAK256 SGT OR 0x4C DUP15 SWAP4 BLOCKHASH 0xE3 0xD8 0xAF 0xBD 0xBF PUSH28 0xECC374A1F1D71D7E8875BACC956DFB699FF7BD4464736F6C63430008 ISZERO STOP CALLER "
		},
		"gasEstimates": {
			"creation": {
				"codeDepositCost": "276200",
				"executionCost": "316",
				"totalCost": "276516"
			},
			"external": {
				"numgive(int256)": "infinite"
			}
		},
		"methodIdentifiers": {
			"numgive(int256)": "b59d7975"
		}
	},
	"abi": [
		{
			"anonymous": false,
			"inputs": [
				{
					"indexed": false,
					"internalType": "string",
					"name": "message",
					"type": "string"
				}
			],
			"name": "localvar",
			"type": "event"
		},
		{
			"inputs": [
				{
					"internalType": "int256",
					"name": "number",
					"type": "int256"
				}
			],
			"name": "numgive",
			"outputs": [
				{
					"internalType": "int256",
					"name": "",
					"type": "int256"
				},
				{
					"internalType": "string",
					"name": "",
					"type": "string"
				}
			],
			"stateMutability": "nonpayable",
			"type": "function"
		}
	]
}