{
	"data": {
		"bytecode": {
			"linkReferences": {},
			"object": "608060405234801561001057600080fd5b50610589806100206000396000f3fe608060405234801561001057600080fd5b506004361061002b5760003560e01c8063b59d797514610030575b600080fd5b61004a60048036038101906100459190610241565b610061565b60405161005892919061030d565b60405180910390f35b600060606000806000808612156100ed578592507f7acfeccf302e7d3ca68ce982def76558fd0bf2f60aaceebb96713f9b0403af7d6040516100a2906103af565b60405180910390a1826040518060400160405280600881526020017f6e6567617469766500000000000000000000000000000000000000000000000081525094509450505050610201565b6002861215801561010a5750600060028761010891906103fe565b145b1561018a578591507f7acfeccf302e7d3ca68ce982def76558fd0bf2f60aaceebb96713f9b0403af7d60405161013f906104a1565b60405180910390a1816040518060400160405280600c81526020017f706f7374697665206576656e000000000000000000000000000000000000000081525094509450505050610201565b8590507f7acfeccf302e7d3ca68ce982def76558fd0bf2f60aaceebb96713f9b0403af7d6040516101ba90610533565b60405180910390a1806040518060400160405280600c81526020017f706f736974697665206f64640000000000000000000000000000000000000000815250945094505050505b915091565b600080fd5b6000819050919050565b61021e8161020b565b811461022957600080fd5b50565b60008135905061023b81610215565b92915050565b60006020828403121561025757610256610206565b5b60006102658482850161022c565b91505092915050565b6102778161020b565b82525050565b600081519050919050565b600082825260208201905092915050565b60005b838110156102b757808201518184015260208101905061029c565b60008484015250505050565b6000601f19601f8301169050919050565b60006102df8261027d565b6102e98185610288565b93506102f9818560208601610299565b610302816102c3565b840191505092915050565b6000604082019050610322600083018561026e565b818103602083015261033481846102d4565b90509392505050565b7f6e65676174697665206c6f63616c207661726961626c652072657475726e656460008201527f207468652076616c756500000000000000000000000000000000000000000000602082015250565b6000610399602a83610288565b91506103a48261033d565b604082019050919050565b600060208201905081810360008301526103c88161038c565b9050919050565b7f4e487b7100000000000000000000000000000000000000000000000000000000600052601260045260246000fd5b60006104098261020b565b91506104148361020b565b925082610424576104236103cf565b5b828207905092915050565b7f706f7369746976656576656e206c6f63616c207661726961626c65207265747560008201527f726e65642076616c756500000000000000000000000000000000000000000000602082015250565b600061048b602a83610288565b91506104968261042f565b604082019050919050565b600060208201905081810360008301526104ba8161047e565b9050919050565b7f506f73697476656f6464206c6f63616c207661726961626c652072657475726e60008201527f65642076616c7565000000000000000000000000000000000000000000000000602082015250565b600061051d602883610288565b9150610528826104c1565b604082019050919050565b6000602082019050818103600083015261054c81610510565b905091905056fea26469706673582212202df7836533324fcb56c0e250b632a8691e4886334ec8e580710b29ffd9670b4d64736f6c63430008120033",
			"opcodes": "PUSH1 0x80 PUSH1 0x40 MSTORE CALLVALUE DUP1 ISZERO PUSH2 0x10 JUMPI PUSH1 0x0 DUP1 REVERT JUMPDEST POP PUSH2 0x589 DUP1 PUSH2 0x20 PUSH1 0x0 CODECOPY PUSH1 0x0 RETURN INVALID PUSH1 0x80 PUSH1 0x40 MSTORE CALLVALUE DUP1 ISZERO PUSH2 0x10 JUMPI PUSH1 0x0 DUP1 REVERT JUMPDEST POP PUSH1 0x4 CALLDATASIZE LT PUSH2 0x2B JUMPI PUSH1 0x0 CALLDATALOAD PUSH1 0xE0 SHR DUP1 PUSH4 0xB59D7975 EQ PUSH2 0x30 JUMPI JUMPDEST PUSH1 0x0 DUP1 REVERT JUMPDEST PUSH2 0x4A PUSH1 0x4 DUP1 CALLDATASIZE SUB DUP2 ADD SWAP1 PUSH2 0x45 SWAP2 SWAP1 PUSH2 0x241 JUMP JUMPDEST PUSH2 0x61 JUMP JUMPDEST PUSH1 0x40 MLOAD PUSH2 0x58 SWAP3 SWAP2 SWAP1 PUSH2 0x30D JUMP JUMPDEST PUSH1 0x40 MLOAD DUP1 SWAP2 SUB SWAP1 RETURN JUMPDEST PUSH1 0x0 PUSH1 0x60 PUSH1 0x0 DUP1 PUSH1 0x0 DUP1 DUP7 SLT ISZERO PUSH2 0xED JUMPI DUP6 SWAP3 POP PUSH32 0x7ACFECCF302E7D3CA68CE982DEF76558FD0BF2F60AACEEBB96713F9B0403AF7D PUSH1 0x40 MLOAD PUSH2 0xA2 SWAP1 PUSH2 0x3AF JUMP JUMPDEST PUSH1 0x40 MLOAD DUP1 SWAP2 SUB SWAP1 LOG1 DUP3 PUSH1 0x40 MLOAD DUP1 PUSH1 0x40 ADD PUSH1 0x40 MSTORE DUP1 PUSH1 0x8 DUP2 MSTORE PUSH1 0x20 ADD PUSH32 0x6E65676174697665000000000000000000000000000000000000000000000000 DUP2 MSTORE POP SWAP5 POP SWAP5 POP POP POP POP PUSH2 0x201 JUMP JUMPDEST PUSH1 0x2 DUP7 SLT ISZERO DUP1 ISZERO PUSH2 0x10A JUMPI POP PUSH1 0x0 PUSH1 0x2 DUP8 PUSH2 0x108 SWAP2 SWAP1 PUSH2 0x3FE JUMP JUMPDEST EQ JUMPDEST ISZERO PUSH2 0x18A JUMPI DUP6 SWAP2 POP PUSH32 0x7ACFECCF302E7D3CA68CE982DEF76558FD0BF2F60AACEEBB96713F9B0403AF7D PUSH1 0x40 MLOAD PUSH2 0x13F SWAP1 PUSH2 0x4A1 JUMP JUMPDEST PUSH1 0x40 MLOAD DUP1 SWAP2 SUB SWAP1 LOG1 DUP2 PUSH1 0x40 MLOAD DUP1 PUSH1 0x40 ADD PUSH1 0x40 MSTORE DUP1 PUSH1 0xC DUP2 MSTORE PUSH1 0x20 ADD PUSH32 0x706F7374697665206576656E0000000000000000000000000000000000000000 DUP2 MSTORE POP SWAP5 POP SWAP5 POP POP POP POP PUSH2 0x201 JUMP JUMPDEST DUP6 SWAP1 POP PUSH32 0x7ACFECCF302E7D3CA68CE982DEF76558FD0BF2F60AACEEBB96713F9B0403AF7D PUSH1 0x40 MLOAD PUSH2 0x1BA SWAP1 PUSH2 0x533 JUMP JUMPDEST PUSH1 0x40 MLOAD DUP1 SWAP2 SUB SWAP1 LOG1 DUP1 PUSH1 0x40 MLOAD DUP1 PUSH1 0x40 ADD PUSH1 0x40 MSTORE DUP1 PUSH1 0xC DUP2 MSTORE PUSH1 0x20 ADD PUSH32 0x706F736974697665206F64640000000000000000000000000000000000000000 DUP2 MSTORE POP SWAP5 POP SWAP5 POP POP POP POP JUMPDEST SWAP2 POP SWAP2 JUMP JUMPDEST PUSH1 0x0 DUP1 REVERT JUMPDEST PUSH1 0x0 DUP2 SWAP1 POP SWAP2 SWAP1 POP JUMP JUMPDEST PUSH2 0x21E DUP2 PUSH2 0x20B JUMP JUMPDEST DUP2 EQ PUSH2 0x229 JUMPI PUSH1 0x0 DUP1 REVERT JUMPDEST POP JUMP JUMPDEST PUSH1 0x0 DUP2 CALLDATALOAD SWAP1 POP PUSH2 0x23B DUP2 PUSH2 0x215 JUMP JUMPDEST SWAP3 SWAP2 POP POP JUMP JUMPDEST PUSH1 0x0 PUSH1 0x20 DUP3 DUP5 SUB SLT ISZERO PUSH2 0x257 JUMPI PUSH2 0x256 PUSH2 0x206 JUMP JUMPDEST JUMPDEST PUSH1 0x0 PUSH2 0x265 DUP5 DUP3 DUP6 ADD PUSH2 0x22C JUMP JUMPDEST SWAP2 POP POP SWAP3 SWAP2 POP POP JUMP JUMPDEST PUSH2 0x277 DUP2 PUSH2 0x20B JUMP JUMPDEST DUP3 MSTORE POP POP JUMP JUMPDEST PUSH1 0x0 DUP2 MLOAD SWAP1 POP SWAP2 SWAP1 POP JUMP JUMPDEST PUSH1 0x0 DUP3 DUP3 MSTORE PUSH1 0x20 DUP3 ADD SWAP1 POP SWAP3 SWAP2 POP POP JUMP JUMPDEST PUSH1 0x0 JUMPDEST DUP4 DUP2 LT ISZERO PUSH2 0x2B7 JUMPI DUP1 DUP3 ADD MLOAD DUP2 DUP5 ADD MSTORE PUSH1 0x20 DUP2 ADD SWAP1 POP PUSH2 0x29C JUMP JUMPDEST PUSH1 0x0 DUP5 DUP5 ADD MSTORE POP POP POP POP JUMP JUMPDEST PUSH1 0x0 PUSH1 0x1F NOT PUSH1 0x1F DUP4 ADD AND SWAP1 POP SWAP2 SWAP1 POP JUMP JUMPDEST PUSH1 0x0 PUSH2 0x2DF DUP3 PUSH2 0x27D JUMP JUMPDEST PUSH2 0x2E9 DUP2 DUP6 PUSH2 0x288 JUMP JUMPDEST SWAP4 POP PUSH2 0x2F9 DUP2 DUP6 PUSH1 0x20 DUP7 ADD PUSH2 0x299 JUMP JUMPDEST PUSH2 0x302 DUP2 PUSH2 0x2C3 JUMP JUMPDEST DUP5 ADD SWAP2 POP POP SWAP3 SWAP2 POP POP JUMP JUMPDEST PUSH1 0x0 PUSH1 0x40 DUP3 ADD SWAP1 POP PUSH2 0x322 PUSH1 0x0 DUP4 ADD DUP6 PUSH2 0x26E JUMP JUMPDEST DUP2 DUP2 SUB PUSH1 0x20 DUP4 ADD MSTORE PUSH2 0x334 DUP2 DUP5 PUSH2 0x2D4 JUMP JUMPDEST SWAP1 POP SWAP4 SWAP3 POP POP POP JUMP JUMPDEST PUSH32 0x6E65676174697665206C6F63616C207661726961626C652072657475726E6564 PUSH1 0x0 DUP3 ADD MSTORE PUSH32 0x207468652076616C756500000000000000000000000000000000000000000000 PUSH1 0x20 DUP3 ADD MSTORE POP JUMP JUMPDEST PUSH1 0x0 PUSH2 0x399 PUSH1 0x2A DUP4 PUSH2 0x288 JUMP JUMPDEST SWAP2 POP PUSH2 0x3A4 DUP3 PUSH2 0x33D JUMP JUMPDEST PUSH1 0x40 DUP3 ADD SWAP1 POP SWAP2 SWAP1 POP JUMP JUMPDEST PUSH1 0x0 PUSH1 0x20 DUP3 ADD SWAP1 POP DUP2 DUP2 SUB PUSH1 0x0 DUP4 ADD MSTORE PUSH2 0x3C8 DUP2 PUSH2 0x38C JUMP JUMPDEST SWAP1 POP SWAP2 SWAP1 POP JUMP JUMPDEST PUSH32 0x4E487B7100000000000000000000000000000000000000000000000000000000 PUSH1 0x0 MSTORE PUSH1 0x12 PUSH1 0x4 MSTORE PUSH1 0x24 PUSH1 0x0 REVERT JUMPDEST PUSH1 0x0 PUSH2 0x409 DUP3 PUSH2 0x20B JUMP JUMPDEST SWAP2 POP PUSH2 0x414 DUP4 PUSH2 0x20B JUMP JUMPDEST SWAP3 POP DUP3 PUSH2 0x424 JUMPI PUSH2 0x423 PUSH2 0x3CF JUMP JUMPDEST JUMPDEST DUP3 DUP3 SMOD SWAP1 POP SWAP3 SWAP2 POP POP JUMP JUMPDEST PUSH32 0x706F7369746976656576656E206C6F63616C207661726961626C652072657475 PUSH1 0x0 DUP3 ADD MSTORE PUSH32 0x726E65642076616C756500000000000000000000000000000000000000000000 PUSH1 0x20 DUP3 ADD MSTORE POP JUMP JUMPDEST PUSH1 0x0 PUSH2 0x48B PUSH1 0x2A DUP4 PUSH2 0x288 JUMP JUMPDEST SWAP2 POP PUSH2 0x496 DUP3 PUSH2 0x42F JUMP JUMPDEST PUSH1 0x40 DUP3 ADD SWAP1 POP SWAP2 SWAP1 POP JUMP JUMPDEST PUSH1 0x0 PUSH1 0x20 DUP3 ADD SWAP1 POP DUP2 DUP2 SUB PUSH1 0x0 DUP4 ADD MSTORE PUSH2 0x4BA DUP2 PUSH2 0x47E JUMP JUMPDEST SWAP1 POP SWAP2 SWAP1 POP JUMP JUMPDEST PUSH32 0x506F73697476656F6464206C6F63616C207661726961626C652072657475726E PUSH1 0x0 DUP3 ADD MSTORE PUSH32 0x65642076616C7565000000000000000000000000000000000000000000000000 PUSH1 0x20 DUP3 ADD MSTORE POP JUMP JUMPDEST PUSH1 0x0 PUSH2 0x51D PUSH1 0x28 DUP4 PUSH2 0x288 JUMP JUMPDEST SWAP2 POP PUSH2 0x528 DUP3 PUSH2 0x4C1 JUMP JUMPDEST PUSH1 0x40 DUP3 ADD SWAP1 POP SWAP2 SWAP1 POP JUMP JUMPDEST PUSH1 0x0 PUSH1 0x20 DUP3 ADD SWAP1 POP DUP2 DUP2 SUB PUSH1 0x0 DUP4 ADD MSTORE PUSH2 0x54C DUP2 PUSH2 0x510 JUMP JUMPDEST SWAP1 POP SWAP2 SWAP1 POP JUMP INVALID LOG2 PUSH5 0x6970667358 0x22 SLT KECCAK256 0x2D 0xF7 DUP4 PUSH6 0x33324FCB56C0 0xE2 POP 0xB6 ORIGIN 0xA8 PUSH10 0x1E4886334EC8E580710B 0x29 SELFDESTRUCT 0xD9 PUSH8 0xB4D64736F6C6343 STOP ADDMOD SLT STOP CALLER "
		},
		"gasEstimates": {
			"creation": {
				"codeDepositCost": "283400",
				"executionCost": "324",
				"totalCost": "283724"
			},
			"external": {
				"numgive(int256)": "infinite"
			}
		},
		"methodIdentifiers": {
			"numgive(int256)": "b59d7975"
		}
	},
	"abi": [
		{
			"anonymous": false,
			"inputs": [
				{
					"indexed": false,
					"internalType": "string",
					"name": "message",
					"type": "string"
				}
			],
			"name": "localvar",
			"type": "event"
		},
		{
			"inputs": [
				{
					"internalType": "int256",
					"name": "number",
					"type": "int256"
				}
			],
			"name": "numgive",
			"outputs": [
				{
					"internalType": "int256",
					"name": "",
					"type": "int256"
				},
				{
					"internalType": "string",
					"name": "",
					"type": "string"
				}
			],
			"stateMutability": "nonpayable",
			"type": "function"
		}
	]
}