{
	"data": {
		"bytecode": {
			"linkReferences": {},
			"object": "608060405234801561001057600080fd5b50610479806100206000396000f3fe608060405234801561001057600080fd5b50600436106100415760003560e01c80633dbad2221461004657806394e05b2c14610064578063d423740b14610080575b600080fd5b61004e61009c565b60405161005b91906101bd565b60405180910390f35b61007e60048036038101906100799190610209565b6100a2565b005b61009a60048036038101906100959190610209565b610127565b005b60005481565b6100ab81610131565b156100ec577f0b5f3d3a9b59fc95c9c652487826ba08506990235686bebaae78e0fd3d934e7c816040516100df9190610293565b60405180910390a1610124565b7f0b5f3d3a9b59fc95c9c652487826ba08506990235686bebaae78e0fd3d934e7c8160405161011b919061030d565b60405180910390a15b50565b8060008190555050565b6000808214806101415750600182145b1561014f576000905061019f565b6000600290505b6002836101639190610399565b8111610199576000818461017791906103ca565b0361018657600091505061019f565b8080610191906103fb565b915050610156565b50600190505b919050565b6000819050919050565b6101b7816101a4565b82525050565b60006020820190506101d260008301846101ae565b92915050565b600080fd5b6101e6816101a4565b81146101f157600080fd5b50565b600081359050610203816101dd565b92915050565b60006020828403121561021f5761021e6101d8565b5b600061022d848285016101f4565b91505092915050565b600082825260208201905092915050565b7f74686973206973202061205072696d65206e756d626572200000000000000000600082015250565b600061027d601883610236565b915061028882610247565b602082019050919050565b600060408201905081810360008301526102ac81610270565b90506102bb60208301846101ae565b92915050565b7f74686973206973206e6f742061205072696d65206e756d626572000000000000600082015250565b60006102f7601a83610236565b9150610302826102c1565b602082019050919050565b60006040820190508181036000830152610326816102ea565b905061033560208301846101ae565b92915050565b7f4e487b7100000000000000000000000000000000000000000000000000000000600052601260045260246000fd5b7f4e487b7100000000000000000000000000000000000000000000000000000000600052601160045260246000fd5b60006103a4826101a4565b91506103af836101a4565b9250826103bf576103be61033b565b5b828204905092915050565b60006103d5826101a4565b91506103e0836101a4565b9250826103f0576103ef61033b565b5b828206905092915050565b6000610406826101a4565b91507fffffffffffffffffffffffffffffffffffffffffffffffffffffffffffffffff82036104385761043761036a565b5b60018201905091905056fea2646970667358221220a8da130b9664fff7eee51e9a36f101f0660a4036bdd8e437f6a9a2217f25a30d64736f6c63430008120033",
			"opcodes": "PUSH1 0x80 PUSH1 0x40 MSTORE CALLVALUE DUP1 ISZERO PUSH2 0x10 JUMPI PUSH1 0x0 DUP1 REVERT JUMPDEST POP PUSH2 0x479 DUP1 PUSH2 0x20 PUSH1 0x0 CODECOPY PUSH1 0x0 RETURN INVALID PUSH1 0x80 PUSH1 0x40 MSTORE CALLVALUE DUP1 ISZERO PUSH2 0x10 JUMPI PUSH1 0x0 DUP1 REVERT JUMPDEST POP PUSH1 0x4 CALLDATASIZE LT PUSH2 0x41 JUMPI PUSH1 0x0 CALLDATALOAD PUSH1 0xE0 SHR DUP1 PUSH4 0x3DBAD222 EQ PUSH2 0x46 JUMPI DUP1 PUSH4 0x94E05B2C EQ PUSH2 0x64 JUMPI DUP1 PUSH4 0xD423740B EQ PUSH2 0x80 JUMPI JUMPDEST PUSH1 0x0 DUP1 REVERT JUMPDEST PUSH2 0x4E PUSH2 0x9C JUMP JUMPDEST PUSH1 0x40 MLOAD PUSH2 0x5B SWAP2 SWAP1 PUSH2 0x1BD JUMP JUMPDEST PUSH1 0x40 MLOAD DUP1 SWAP2 SUB SWAP1 RETURN JUMPDEST PUSH2 0x7E PUSH1 0x4 DUP1 CALLDATASIZE SUB DUP2 ADD SWAP1 PUSH2 0x79 SWAP2 SWAP1 PUSH2 0x209 JUMP JUMPDEST PUSH2 0xA2 JUMP JUMPDEST STOP JUMPDEST PUSH2 0x9A PUSH1 0x4 DUP1 CALLDATASIZE SUB DUP2 ADD SWAP1 PUSH2 0x95 SWAP2 SWAP1 PUSH2 0x209 JUMP JUMPDEST PUSH2 0x127 JUMP JUMPDEST STOP JUMPDEST PUSH1 0x0 SLOAD DUP2 JUMP JUMPDEST PUSH2 0xAB DUP2 PUSH2 0x131 JUMP JUMPDEST ISZERO PUSH2 0xEC JUMPI PUSH32 0xB5F3D3A9B59FC95C9C652487826BA08506990235686BEBAAE78E0FD3D934E7C DUP2 PUSH1 0x40 MLOAD PUSH2 0xDF SWAP2 SWAP1 PUSH2 0x293 JUMP JUMPDEST PUSH1 0x40 MLOAD DUP1 SWAP2 SUB SWAP1 LOG1 PUSH2 0x124 JUMP JUMPDEST PUSH32 0xB5F3D3A9B59FC95C9C652487826BA08506990235686BEBAAE78E0FD3D934E7C DUP2 PUSH1 0x40 MLOAD PUSH2 0x11B SWAP2 SWAP1 PUSH2 0x30D JUMP JUMPDEST PUSH1 0x40 MLOAD DUP1 SWAP2 SUB SWAP1 LOG1 JUMPDEST POP JUMP JUMPDEST DUP1 PUSH1 0x0 DUP2 SWAP1 SSTORE POP POP JUMP JUMPDEST PUSH1 0x0 DUP1 DUP3 EQ DUP1 PUSH2 0x141 JUMPI POP PUSH1 0x1 DUP3 EQ JUMPDEST ISZERO PUSH2 0x14F JUMPI PUSH1 0x0 SWAP1 POP PUSH2 0x19F JUMP JUMPDEST PUSH1 0x0 PUSH1 0x2 SWAP1 POP JUMPDEST PUSH1 0x2 DUP4 PUSH2 0x163 SWAP2 SWAP1 PUSH2 0x399 JUMP JUMPDEST DUP2 GT PUSH2 0x199 JUMPI PUSH1 0x0 DUP2 DUP5 PUSH2 0x177 SWAP2 SWAP1 PUSH2 0x3CA JUMP JUMPDEST SUB PUSH2 0x186 JUMPI PUSH1 0x0 SWAP2 POP POP PUSH2 0x19F JUMP JUMPDEST DUP1 DUP1 PUSH2 0x191 SWAP1 PUSH2 0x3FB JUMP JUMPDEST SWAP2 POP POP PUSH2 0x156 JUMP JUMPDEST POP PUSH1 0x1 SWAP1 POP JUMPDEST SWAP2 SWAP1 POP JUMP JUMPDEST PUSH1 0x0 DUP2 SWAP1 POP SWAP2 SWAP1 POP JUMP JUMPDEST PUSH2 0x1B7 DUP2 PUSH2 0x1A4 JUMP JUMPDEST DUP3 MSTORE POP POP JUMP JUMPDEST PUSH1 0x0 PUSH1 0x20 DUP3 ADD SWAP1 POP PUSH2 0x1D2 PUSH1 0x0 DUP4 ADD DUP5 PUSH2 0x1AE JUMP JUMPDEST SWAP3 SWAP2 POP POP JUMP JUMPDEST PUSH1 0x0 DUP1 REVERT JUMPDEST PUSH2 0x1E6 DUP2 PUSH2 0x1A4 JUMP JUMPDEST DUP2 EQ PUSH2 0x1F1 JUMPI PUSH1 0x0 DUP1 REVERT JUMPDEST POP JUMP JUMPDEST PUSH1 0x0 DUP2 CALLDATALOAD SWAP1 POP PUSH2 0x203 DUP2 PUSH2 0x1DD JUMP JUMPDEST SWAP3 SWAP2 POP POP JUMP JUMPDEST PUSH1 0x0 PUSH1 0x20 DUP3 DUP5 SUB SLT ISZERO PUSH2 0x21F JUMPI PUSH2 0x21E PUSH2 0x1D8 JUMP JUMPDEST JUMPDEST PUSH1 0x0 PUSH2 0x22D DUP5 DUP3 DUP6 ADD PUSH2 0x1F4 JUMP JUMPDEST SWAP2 POP POP SWAP3 SWAP2 POP POP JUMP JUMPDEST PUSH1 0x0 DUP3 DUP3 MSTORE PUSH1 0x20 DUP3 ADD SWAP1 POP SWAP3 SWAP2 POP POP JUMP JUMPDEST PUSH32 0x74686973206973202061205072696D65206E756D626572200000000000000000 PUSH1 0x0 DUP3 ADD MSTORE POP JUMP JUMPDEST PUSH1 0x0 PUSH2 0x27D PUSH1 0x18 DUP4 PUSH2 0x236 JUMP JUMPDEST SWAP2 POP PUSH2 0x288 DUP3 PUSH2 0x247 JUMP JUMPDEST PUSH1 0x20 DUP3 ADD SWAP1 POP SWAP2 SWAP1 POP JUMP JUMPDEST PUSH1 0x0 PUSH1 0x40 DUP3 ADD SWAP1 POP DUP2 DUP2 SUB PUSH1 0x0 DUP4 ADD MSTORE PUSH2 0x2AC DUP2 PUSH2 0x270 JUMP JUMPDEST SWAP1 POP PUSH2 0x2BB PUSH1 0x20 DUP4 ADD DUP5 PUSH2 0x1AE JUMP JUMPDEST SWAP3 SWAP2 POP POP JUMP JUMPDEST PUSH32 0x74686973206973206E6F742061205072696D65206E756D626572000000000000 PUSH1 0x0 DUP3 ADD MSTORE POP JUMP JUMPDEST PUSH1 0x0 PUSH2 0x2F7 PUSH1 0x1A DUP4 PUSH2 0x236 JUMP JUMPDEST SWAP2 POP PUSH2 0x302 DUP3 PUSH2 0x2C1 JUMP JUMPDEST PUSH1 0x20 DUP3 ADD SWAP1 POP SWAP2 SWAP1 POP JUMP JUMPDEST PUSH1 0x0 PUSH1 0x40 DUP3 ADD SWAP1 POP DUP2 DUP2 SUB PUSH1 0x0 DUP4 ADD MSTORE PUSH2 0x326 DUP2 PUSH2 0x2EA JUMP JUMPDEST SWAP1 POP PUSH2 0x335 PUSH1 0x20 DUP4 ADD DUP5 PUSH2 0x1AE JUMP JUMPDEST SWAP3 SWAP2 POP POP JUMP JUMPDEST PUSH32 0x4E487B7100000000000000000000000000000000000000000000000000000000 PUSH1 0x0 MSTORE PUSH1 0x12 PUSH1 0x4 MSTORE PUSH1 0x24 PUSH1 0x0 REVERT JUMPDEST PUSH32 0x4E487B7100000000000000000000000000000000000000000000000000000000 PUSH1 0x0 MSTORE PUSH1 0x11 PUSH1 0x4 MSTORE PUSH1 0x24 PUSH1 0x0 REVERT JUMPDEST PUSH1 0x0 PUSH2 0x3A4 DUP3 PUSH2 0x1A4 JUMP JUMPDEST SWAP2 POP PUSH2 0x3AF DUP4 PUSH2 0x1A4 JUMP JUMPDEST SWAP3 POP DUP3 PUSH2 0x3BF JUMPI PUSH2 0x3BE PUSH2 0x33B JUMP JUMPDEST JUMPDEST DUP3 DUP3 DIV SWAP1 POP SWAP3 SWAP2 POP POP JUMP JUMPDEST PUSH1 0x0 PUSH2 0x3D5 DUP3 PUSH2 0x1A4 JUMP JUMPDEST SWAP2 POP PUSH2 0x3E0 DUP4 PUSH2 0x1A4 JUMP JUMPDEST SWAP3 POP DUP3 PUSH2 0x3F0 JUMPI PUSH2 0x3EF PUSH2 0x33B JUMP JUMPDEST JUMPDEST DUP3 DUP3 MOD SWAP1 POP SWAP3 SWAP2 POP POP JUMP JUMPDEST PUSH1 0x0 PUSH2 0x406 DUP3 PUSH2 0x1A4 JUMP JUMPDEST SWAP2 POP PUSH32 0xFFFFFFFFFFFFFFFFFFFFFFFFFFFFFFFFFFFFFFFFFFFFFFFFFFFFFFFFFFFFFFFF DUP3 SUB PUSH2 0x438 JUMPI PUSH2 0x437 PUSH2 0x36A JUMP JUMPDEST JUMPDEST PUSH1 0x1 DUP3 ADD SWAP1 POP SWAP2 SWAP1 POP JUMP INVALID LOG2 PUSH5 0x6970667358 0x22 SLT KECCAK256 0xA8 0xDA SGT SIGNEXTEND SWAP7 PUSH5 0xFFF7EEE51E SWAP11 CALLDATASIZE CALL ADD CREATE PUSH7 0xA4036BDD8E437 0xF6 0xA9 LOG2 0x21 PUSH32 0x25A30D64736F6C63430008120033000000000000000000000000000000000000 "
		},
		"gasEstimates": {
			"creation": {
				"codeDepositCost": "229000",
				"executionCost": "269",
				"totalCost": "229269"
			},
			"external": {
				"checker(uint256)": "infinite",
				"nummain()": "2407",
				"setter(uint256)": "22542"
			},
			"internal": {
				"IsPrime(uint256)": "infinite"
			}
		},
		"methodIdentifiers": {
			"checker(uint256)": "94e05b2c",
			"nummain()": "3dbad222",
			"setter(uint256)": "d423740b"
		}
	},
	"abi": [
		{
			"anonymous": false,
			"inputs": [
				{
					"indexed": false,
					"internalType": "string",
					"name": "",
					"type": "string"
				},
				{
					"indexed": false,
					"internalType": "uint256",
					"name": "",
					"type": "uint256"
				}
			],
			"name": "PrimeChecker",
			"type": "event"
		},
		{
			"inputs": [
				{
					"internalType": "uint256",
					"name": "_number",
					"type": "uint256"
				}
			],
			"name": "checker",
			"outputs": [],
			"stateMutability": "nonpayable",
			"type": "function"
		},
		{
			"inputs": [],
			"name": "nummain",
			"outputs": [
				{
					"internalType": "uint256",
					"name": "",
					"type": "uint256"
				}
			],
			"stateMutability": "view",
			"type": "function"
		},
		{
			"inputs": [
				{
					"internalType": "uint256",
					"name": "_inputNum",
					"type": "uint256"
				}
			],
			"name": "setter",
			"outputs": [],
			"stateMutability": "nonpayable",
			"type": "function"
		}
	]
}