{
	"data": {
		"bytecode": {
			"linkReferences": {},
			"object": "60e3610052600b82828239805160001a607314610045577f4e487b7100000000000000000000000000000000000000000000000000000000600052600060045260246000fd5b30600052607381538281f3fe730000000000000000000000000000000000000000301460806040526004361060335760003560e01c8063db613e81146038575b600080fd5b603e6052565b604051604991906094565b60405180910390f35b600090565b600073ffffffffffffffffffffffffffffffffffffffff82169050919050565b60006080826057565b9050919050565b608e816077565b82525050565b600060208201905060a760008301846087565b9291505056fea2646970667358221220ea21714c4416c75b302d24176be61cad350aa571993695a008dc6d780c040b0264736f6c63430008120033",
			"opcodes": "PUSH1 0xE3 PUSH2 0x52 PUSH1 0xB DUP3 DUP3 DUP3 CODECOPY DUP1 MLOAD PUSH1 0x0 BYTE PUSH1 0x73 EQ PUSH2 0x45 JUMPI PUSH32 0x4E487B7100000000000000000000000000000000000000000000000000000000 PUSH1 0x0 MSTORE PUSH1 0x0 PUSH1 0x4 MSTORE PUSH1 0x24 PUSH1 0x0 REVERT JUMPDEST ADDRESS PUSH1 0x0 MSTORE PUSH1 0x73 DUP2 MSTORE8 DUP3 DUP2 RETURN INVALID PUSH20 0x0 ADDRESS EQ PUSH1 0x80 PUSH1 0x40 MSTORE PUSH1 0x4 CALLDATASIZE LT PUSH1 0x33 JUMPI PUSH1 0x0 CALLDATALOAD PUSH1 0xE0 SHR DUP1 PUSH4 0xDB613E81 EQ PUSH1 0x38 JUMPI JUMPDEST PUSH1 0x0 DUP1 REVERT JUMPDEST PUSH1 0x3E PUSH1 0x52 JUMP JUMPDEST PUSH1 0x40 MLOAD PUSH1 0x49 SWAP2 SWAP1 PUSH1 0x94 JUMP JUMPDEST PUSH1 0x40 MLOAD DUP1 SWAP2 SUB SWAP1 RETURN JUMPDEST PUSH1 0x0 SWAP1 JUMP JUMPDEST PUSH1 0x0 PUSH20 0xFFFFFFFFFFFFFFFFFFFFFFFFFFFFFFFFFFFFFFFF DUP3 AND SWAP1 POP SWAP2 SWAP1 POP JUMP JUMPDEST PUSH1 0x0 PUSH1 0x80 DUP3 PUSH1 0x57 JUMP JUMPDEST SWAP1 POP SWAP2 SWAP1 POP JUMP JUMPDEST PUSH1 0x8E DUP2 PUSH1 0x77 JUMP JUMPDEST DUP3 MSTORE POP POP JUMP JUMPDEST PUSH1 0x0 PUSH1 0x20 DUP3 ADD SWAP1 POP PUSH1 0xA7 PUSH1 0x0 DUP4 ADD DUP5 PUSH1 0x87 JUMP JUMPDEST SWAP3 SWAP2 POP POP JUMP INVALID LOG2 PUSH5 0x6970667358 0x22 SLT KECCAK256 0xEA 0x21 PUSH18 0x4C4416C75B302D24176BE61CAD350AA57199 CALLDATASIZE SWAP6 LOG0 ADDMOD 0xDC PUSH14 0x780C040B0264736F6C6343000812 STOP CALLER "
		},
		"gasEstimates": {
			"creation": {
				"codeDepositCost": "45400",
				"executionCost": "124",
				"totalCost": "45524"
			},
			"external": {
				"getAccount()": "340"
			}
		},
		"methodIdentifiers": {
			"getAccount()": "db613e81"
		}
	},
	"abi": [
		{
			"inputs": [],
			"name": "getAccount",
			"outputs": [
				{
					"internalType": "address",
					"name": "",
					"type": "address"
				}
			],
			"stateMutability": "pure",
			"type": "function"
		}
	]
}