{
	"Labs (August)/Events/file01.sol": {
		"observe": {
			"abi": [
				{
					"anonymous": false,
					"inputs": [],
					"name": "anotherlog",
					"type": "event"
				},
				{
					"anonymous": false,
					"inputs": [
						{
							"indexed": true,
							"internalType": "address",
							"name": "sender",
							"type": "address"
						},
						{
							"indexed": false,
							"internalType": "string",
							"name": "msg",
							"type": "string"
						}
					],
					"name": "log",
					"type": "event"
				},
				{
					"anonymous": false,
					"inputs": [
						{
							"indexed": false,
							"internalType": "string",
							"name": "name",
							"type": "string"
						},
						{
							"indexed": true,
							"internalType": "address",
							"name": "sender",
							"type": "address"
						},
						{
							"indexed": false,
							"internalType": "string",
							"name": "department",
							"type": "string"
						}
					],
					"name": "person",
					"type": "event"
				},
				{
					"inputs": [
						{
							"internalType": "string",
							"name": "name",
							"type": "string"
						},
						{
							"internalType": "string",
							"name": "department",
							"type": "string"
						}
					],
					"name": "autoaddr",
					"outputs": [],
					"stateMutability": "nonpayable",
					"type": "function"
				},
				{
					"inputs": [
						{
							"internalType": "string",
							"name": "name",
							"type": "string"
						},
						{
							"internalType": "address",
							"name": "sender",
							"type": "address"
						},
						{
							"internalType": "string",
							"name": "department",
							"type": "string"
						}
					],
					"name": "myself",
					"outputs": [],
					"stateMutability": "nonpayable",
					"type": "function"
				},
				{
					"inputs": [],
					"name": "test",
					"outputs": [],
					"stateMutability": "nonpayable",
					"type": "function"
				}
			],
			"devdoc": {
				"kind": "dev",
				"methods": {},
				"version": 1
			},
			"evm": {
				"assembly": "    /* \"Labs (August)/Events/file01.sol\":607:1470  contract observe{... */\n  mstore(0x40, 0x80)\n  callvalue\n  dup1\n  iszero\n  tag_1\n  jumpi\n  0x00\n  dup1\n  revert\ntag_1:\n  pop\n  dataSize(sub_0)\n  dup1\n  dataOffset(sub_0)\n  0x00\n  codecopy\n  0x00\n  return\nstop\n\nsub_0: assembly {\n        /* \"Labs (August)/Events/file01.sol\":607:1470  contract observe{... */\n      mstore(0x40, 0x80)\n      callvalue\n      dup1\n      iszero\n      tag_1\n      jumpi\n      0x00\n      dup1\n      revert\n    tag_1:\n      pop\n      jumpi(tag_2, lt(calldatasize, 0x04))\n      shr(0xe0, calldataload(0x00))\n      dup1\n      0x3d27f17a\n      eq\n      tag_3\n      jumpi\n      dup1\n      0x87dfa9fe\n      eq\n      tag_4\n      jumpi\n      dup1\n      0xf8a8fd6d\n      eq\n      tag_5\n      jumpi\n    tag_2:\n      0x00\n      dup1\n      revert\n        /* \"Labs (August)/Events/file01.sol\":1104:1254  function myself(string memory name,address sender, string memory department) external {... */\n    tag_3:\n      tag_6\n      0x04\n      dup1\n      calldatasize\n      sub\n      dup2\n      add\n      swap1\n      tag_7\n      swap2\n      swap1\n      tag_8\n      jump\t// in\n    tag_7:\n      tag_9\n      jump\t// in\n    tag_6:\n      stop\n        /* \"Labs (August)/Events/file01.sol\":1333:1465  function autoaddr(string memory name, string memory department)external {... */\n    tag_4:\n      tag_10\n      0x04\n      dup1\n      calldatasize\n      sub\n      dup2\n      add\n      swap1\n      tag_11\n      swap2\n      swap1\n      tag_12\n      jump\t// in\n    tag_11:\n      tag_13\n      jump\t// in\n    tag_10:\n      stop\n        /* \"Labs (August)/Events/file01.sol\":711:1017  function test() public {... */\n    tag_5:\n      tag_14\n      tag_15\n      jump\t// in\n    tag_14:\n      stop\n        /* \"Labs (August)/Events/file01.sol\":1104:1254  function myself(string memory name,address sender, string memory department) external {... */\n    tag_9:\n        /* \"Labs (August)/Events/file01.sol\":1219:1225  sender */\n      dup2\n        /* \"Labs (August)/Events/file01.sol\":1206:1238  person(name, sender, department) */\n      0xffffffffffffffffffffffffffffffffffffffff\n      and\n      0x7703a461858164e4340a865f1f329f995413d624426ae9751affa80ef82a64b0\n        /* \"Labs (August)/Events/file01.sol\":1213:1217  name */\n      dup5\n        /* \"Labs (August)/Events/file01.sol\":1227:1237  department */\n      dup4\n        /* \"Labs (August)/Events/file01.sol\":1206:1238  person(name, sender, department) */\n      mload(0x40)\n      tag_17\n      swap3\n      swap2\n      swap1\n      tag_18\n      jump\t// in\n    tag_17:\n      mload(0x40)\n      dup1\n      swap2\n      sub\n      swap1\n      log2\n        /* \"Labs (August)/Events/file01.sol\":1104:1254  function myself(string memory name,address sender, string memory department) external {... */\n      pop\n      pop\n      pop\n      jump\t// out\n        /* \"Labs (August)/Events/file01.sol\":1333:1465  function autoaddr(string memory name, string memory department)external {... */\n    tag_13:\n        /* \"Labs (August)/Events/file01.sol\":1434:1444  msg.sender */\n      caller\n        /* \"Labs (August)/Events/file01.sol\":1421:1457  person(name, msg.sender, department) */\n      0xffffffffffffffffffffffffffffffffffffffff\n      and\n      0x7703a461858164e4340a865f1f329f995413d624426ae9751affa80ef82a64b0\n        /* \"Labs (August)/Events/file01.sol\":1428:1432  name */\n      dup4\n        /* \"Labs (August)/Events/file01.sol\":1446:1456  department */\n      dup4\n        /* \"Labs (August)/Events/file01.sol\":1421:1457  person(name, msg.sender, department) */\n      mload(0x40)\n      tag_20\n      swap3\n      swap2\n      swap1\n      tag_18\n      jump\t// in\n    tag_20:\n      mload(0x40)\n      dup1\n      swap2\n      sub\n      swap1\n      log2\n        /* \"Labs (August)/Events/file01.sol\":1333:1465  function autoaddr(string memory name, string memory department)external {... */\n      pop\n      pop\n      jump\t// out\n        /* \"Labs (August)/Events/file01.sol\":711:1017  function test() public {... */\n    tag_15:\n        /* \"Labs (August)/Events/file01.sol\":754:764  msg.sender */\n      caller\n        /* \"Labs (August)/Events/file01.sol\":750:781  log(msg.sender, \"Hello Web3.0\") */\n      0xffffffffffffffffffffffffffffffffffffffff\n      and\n      0x759f86bbdd0758679ecefbd32ea620068b2339dddd9e45ee0fa567ee6c81f0ab\n      mload(0x40)\n      tag_22\n      swap1\n      tag_23\n      jump\t// in\n    tag_22:\n      mload(0x40)\n      dup1\n      swap2\n      sub\n      swap1\n      log2\n        /* \"Labs (August)/Events/file01.sol\":801:811  msg.sender */\n      caller\n        /* \"Labs (August)/Events/file01.sol\":797:847  log(msg.sender, \"It's all about Decentralization\") */\n      0xffffffffffffffffffffffffffffffffffffffff\n      and\n      0x759f86bbdd0758679ecefbd32ea620068b2339dddd9e45ee0fa567ee6c81f0ab\n      mload(0x40)\n      tag_24\n      swap1\n      tag_25\n      jump\t// in\n    tag_24:\n      mload(0x40)\n      dup1\n      swap2\n      sub\n      swap1\n      log2\n        /* \"Labs (August)/Events/file01.sol\":867:877  msg.sender */\n      caller\n        /* \"Labs (August)/Events/file01.sol\":863:913  log(msg.sender, \"It's all about Decentralization\") */\n      0xffffffffffffffffffffffffffffffffffffffff\n      and\n      0x759f86bbdd0758679ecefbd32ea620068b2339dddd9e45ee0fa567ee6c81f0ab\n      mload(0x40)\n      tag_26\n      swap1\n      tag_25\n      jump\t// in\n    tag_26:\n      mload(0x40)\n      dup1\n      swap2\n      sub\n      swap1\n      log2\n        /* \"Labs (August)/Events/file01.sol\":933:943  msg.sender */\n      caller\n        /* \"Labs (August)/Events/file01.sol\":929:979  log(msg.sender, \"It's all about Decentralization\") */\n      0xffffffffffffffffffffffffffffffffffffffff\n      and\n      0x759f86bbdd0758679ecefbd32ea620068b2339dddd9e45ee0fa567ee6c81f0ab\n      mload(0x40)\n      tag_27\n      swap1\n      tag_25\n      jump\t// in\n    tag_27:\n      mload(0x40)\n      dup1\n      swap2\n      sub\n      swap1\n      log2\n        /* \"Labs (August)/Events/file01.sol\":995:1007  anotherlog() */\n      0x248efac7eefeccb52f576426a24d627d42f501660816b9eee2883967e6212540\n      mload(0x40)\n      mload(0x40)\n      dup1\n      swap2\n      sub\n      swap1\n      log1\n        /* \"Labs (August)/Events/file01.sol\":711:1017  function test() public {... */\n      jump\t// out\n        /* \"#utility.yul\":7:82   */\n    tag_28:\n        /* \"#utility.yul\":40:46   */\n      0x00\n        /* \"#utility.yul\":73:75   */\n      0x40\n        /* \"#utility.yul\":67:76   */\n      mload\n        /* \"#utility.yul\":57:76   */\n      swap1\n      pop\n        /* \"#utility.yul\":7:82   */\n      swap1\n      jump\t// out\n        /* \"#utility.yul\":88:205   */\n    tag_29:\n        /* \"#utility.yul\":197:198   */\n      0x00\n        /* \"#utility.yul\":194:195   */\n      dup1\n        /* \"#utility.yul\":187:199   */\n      revert\n        /* \"#utility.yul\":211:328   */\n    tag_30:\n        /* \"#utility.yul\":320:321   */\n      0x00\n        /* \"#utility.yul\":317:318   */\n      dup1\n        /* \"#utility.yul\":310:322   */\n      revert\n        /* \"#utility.yul\":334:451   */\n    tag_31:\n        /* \"#utility.yul\":443:444   */\n      0x00\n        /* \"#utility.yul\":440:441   */\n      dup1\n        /* \"#utility.yul\":433:445   */\n      revert\n        /* \"#utility.yul\":457:574   */\n    tag_32:\n        /* \"#utility.yul\":566:567   */\n      0x00\n        /* \"#utility.yul\":563:564   */\n      dup1\n        /* \"#utility.yul\":556:568   */\n      revert\n        /* \"#utility.yul\":580:682   */\n    tag_33:\n        /* \"#utility.yul\":621:627   */\n      0x00\n        /* \"#utility.yul\":672:674   */\n      0x1f\n        /* \"#utility.yul\":668:675   */\n      not\n        /* \"#utility.yul\":663:665   */\n      0x1f\n        /* \"#utility.yul\":656:661   */\n      dup4\n        /* \"#utility.yul\":652:666   */\n      add\n        /* \"#utility.yul\":648:676   */\n      and\n        /* \"#utility.yul\":638:676   */\n      swap1\n      pop\n        /* \"#utility.yul\":580:682   */\n      swap2\n      swap1\n      pop\n      jump\t// out\n        /* \"#utility.yul\":688:868   */\n    tag_34:\n        /* \"#utility.yul\":736:813   */\n      0x4e487b7100000000000000000000000000000000000000000000000000000000\n        /* \"#utility.yul\":733:734   */\n      0x00\n        /* \"#utility.yul\":726:814   */\n      mstore\n        /* \"#utility.yul\":833:837   */\n      0x41\n        /* \"#utility.yul\":830:831   */\n      0x04\n        /* \"#utility.yul\":823:838   */\n      mstore\n        /* \"#utility.yul\":857:861   */\n      0x24\n        /* \"#utility.yul\":854:855   */\n      0x00\n        /* \"#utility.yul\":847:862   */\n      revert\n        /* \"#utility.yul\":874:1155   */\n    tag_35:\n        /* \"#utility.yul\":957:984   */\n      tag_62\n        /* \"#utility.yul\":979:983   */\n      dup3\n        /* \"#utility.yul\":957:984   */\n      tag_33\n      jump\t// in\n    tag_62:\n        /* \"#utility.yul\":949:955   */\n      dup2\n        /* \"#utility.yul\":945:985   */\n      add\n        /* \"#utility.yul\":1087:1093   */\n      dup2\n        /* \"#utility.yul\":1075:1085   */\n      dup2\n        /* \"#utility.yul\":1072:1094   */\n      lt\n        /* \"#utility.yul\":1051:1069   */\n      0xffffffffffffffff\n        /* \"#utility.yul\":1039:1049   */\n      dup3\n        /* \"#utility.yul\":1036:1070   */\n      gt\n        /* \"#utility.yul\":1033:1095   */\n      or\n        /* \"#utility.yul\":1030:1118   */\n      iszero\n      tag_63\n      jumpi\n        /* \"#utility.yul\":1098:1116   */\n      tag_64\n      tag_34\n      jump\t// in\n    tag_64:\n        /* \"#utility.yul\":1030:1118   */\n    tag_63:\n        /* \"#utility.yul\":1138:1148   */\n      dup1\n        /* \"#utility.yul\":1134:1136   */\n      0x40\n        /* \"#utility.yul\":1127:1149   */\n      mstore\n        /* \"#utility.yul\":917:1155   */\n      pop\n        /* \"#utility.yul\":874:1155   */\n      pop\n      pop\n      jump\t// out\n        /* \"#utility.yul\":1161:1290   */\n    tag_36:\n        /* \"#utility.yul\":1195:1201   */\n      0x00\n        /* \"#utility.yul\":1222:1242   */\n      tag_66\n      tag_28\n      jump\t// in\n    tag_66:\n        /* \"#utility.yul\":1212:1242   */\n      swap1\n      pop\n        /* \"#utility.yul\":1251:1284   */\n      tag_67\n        /* \"#utility.yul\":1279:1283   */\n      dup3\n        /* \"#utility.yul\":1271:1277   */\n      dup3\n        /* \"#utility.yul\":1251:1284   */\n      tag_35\n      jump\t// in\n    tag_67:\n        /* \"#utility.yul\":1161:1290   */\n      swap2\n      swap1\n      pop\n      jump\t// out\n        /* \"#utility.yul\":1296:1604   */\n    tag_37:\n        /* \"#utility.yul\":1358:1362   */\n      0x00\n        /* \"#utility.yul\":1448:1466   */\n      0xffffffffffffffff\n        /* \"#utility.yul\":1440:1446   */\n      dup3\n        /* \"#utility.yul\":1437:1467   */\n      gt\n        /* \"#utility.yul\":1434:1490   */\n      iszero\n      tag_69\n      jumpi\n        /* \"#utility.yul\":1470:1488   */\n      tag_70\n      tag_34\n      jump\t// in\n    tag_70:\n        /* \"#utility.yul\":1434:1490   */\n    tag_69:\n        /* \"#utility.yul\":1508:1537   */\n      tag_71\n        /* \"#utility.yul\":1530:1536   */\n      dup3\n        /* \"#utility.yul\":1508:1537   */\n      tag_33\n      jump\t// in\n    tag_71:\n        /* \"#utility.yul\":1500:1537   */\n      swap1\n      pop\n        /* \"#utility.yul\":1592:1596   */\n      0x20\n        /* \"#utility.yul\":1586:1590   */\n      dup2\n        /* \"#utility.yul\":1582:1597   */\n      add\n        /* \"#utility.yul\":1574:1597   */\n      swap1\n      pop\n        /* \"#utility.yul\":1296:1604   */\n      swap2\n      swap1\n      pop\n      jump\t// out\n        /* \"#utility.yul\":1610:1756   */\n    tag_38:\n        /* \"#utility.yul\":1707:1713   */\n      dup3\n        /* \"#utility.yul\":1702:1705   */\n      dup2\n        /* \"#utility.yul\":1697:1700   */\n      dup4\n        /* \"#utility.yul\":1684:1714   */\n      calldatacopy\n        /* \"#utility.yul\":1748:1749   */\n      0x00\n        /* \"#utility.yul\":1739:1745   */\n      dup4\n        /* \"#utility.yul\":1734:1737   */\n      dup4\n        /* \"#utility.yul\":1730:1746   */\n      add\n        /* \"#utility.yul\":1723:1750   */\n      mstore\n        /* \"#utility.yul\":1610:1756   */\n      pop\n      pop\n      pop\n      jump\t// out\n        /* \"#utility.yul\":1762:2187   */\n    tag_39:\n        /* \"#utility.yul\":1840:1845   */\n      0x00\n        /* \"#utility.yul\":1865:1931   */\n      tag_74\n        /* \"#utility.yul\":1881:1930   */\n      tag_75\n        /* \"#utility.yul\":1923:1929   */\n      dup5\n        /* \"#utility.yul\":1881:1930   */\n      tag_37\n      jump\t// in\n    tag_75:\n        /* \"#utility.yul\":1865:1931   */\n      tag_36\n      jump\t// in\n    tag_74:\n        /* \"#utility.yul\":1856:1931   */\n      swap1\n      pop\n        /* \"#utility.yul\":1954:1960   */\n      dup3\n        /* \"#utility.yul\":1947:1952   */\n      dup2\n        /* \"#utility.yul\":1940:1961   */\n      mstore\n        /* \"#utility.yul\":1992:1996   */\n      0x20\n        /* \"#utility.yul\":1985:1990   */\n      dup2\n        /* \"#utility.yul\":1981:1997   */\n      add\n        /* \"#utility.yul\":2030:2033   */\n      dup5\n        /* \"#utility.yul\":2021:2027   */\n      dup5\n        /* \"#utility.yul\":2016:2019   */\n      dup5\n        /* \"#utility.yul\":2012:2028   */\n      add\n        /* \"#utility.yul\":2009:2034   */\n      gt\n        /* \"#utility.yul\":2006:2118   */\n      iszero\n      tag_76\n      jumpi\n        /* \"#utility.yul\":2037:2116   */\n      tag_77\n      tag_32\n      jump\t// in\n    tag_77:\n        /* \"#utility.yul\":2006:2118   */\n    tag_76:\n        /* \"#utility.yul\":2127:2181   */\n      tag_78\n        /* \"#utility.yul\":2174:2180   */\n      dup5\n        /* \"#utility.yul\":2169:2172   */\n      dup3\n        /* \"#utility.yul\":2164:2167   */\n      dup6\n        /* \"#utility.yul\":2127:2181   */\n      tag_38\n      jump\t// in\n    tag_78:\n        /* \"#utility.yul\":1846:2187   */\n      pop\n        /* \"#utility.yul\":1762:2187   */\n      swap4\n      swap3\n      pop\n      pop\n      pop\n      jump\t// out\n        /* \"#utility.yul\":2207:2547   */\n    tag_40:\n        /* \"#utility.yul\":2263:2268   */\n      0x00\n        /* \"#utility.yul\":2312:2315   */\n      dup3\n        /* \"#utility.yul\":2305:2309   */\n      0x1f\n        /* \"#utility.yul\":2297:2303   */\n      dup4\n        /* \"#utility.yul\":2293:2310   */\n      add\n        /* \"#utility.yul\":2289:2316   */\n      slt\n        /* \"#utility.yul\":2279:2401   */\n      tag_80\n      jumpi\n        /* \"#utility.yul\":2320:2399   */\n      tag_81\n      tag_31\n      jump\t// in\n    tag_81:\n        /* \"#utility.yul\":2279:2401   */\n    tag_80:\n        /* \"#utility.yul\":2437:2443   */\n      dup2\n        /* \"#utility.yul\":2424:2444   */\n      calldataload\n        /* \"#utility.yul\":2462:2541   */\n      tag_82\n        /* \"#utility.yul\":2537:2540   */\n      dup5\n        /* \"#utility.yul\":2529:2535   */\n      dup3\n        /* \"#utility.yul\":2522:2526   */\n      0x20\n        /* \"#utility.yul\":2514:2520   */\n      dup7\n        /* \"#utility.yul\":2510:2527   */\n      add\n        /* \"#utility.yul\":2462:2541   */\n      tag_39\n      jump\t// in\n    tag_82:\n        /* \"#utility.yul\":2453:2541   */\n      swap2\n      pop\n        /* \"#utility.yul\":2269:2547   */\n      pop\n        /* \"#utility.yul\":2207:2547   */\n      swap3\n      swap2\n      pop\n      pop\n      jump\t// out\n        /* \"#utility.yul\":2553:2679   */\n    tag_41:\n        /* \"#utility.yul\":2590:2597   */\n      0x00\n        /* \"#utility.yul\":2630:2672   */\n      0xffffffffffffffffffffffffffffffffffffffff\n        /* \"#utility.yul\":2623:2628   */\n      dup3\n        /* \"#utility.yul\":2619:2673   */\n      and\n        /* \"#utility.yul\":2608:2673   */\n      swap1\n      pop\n        /* \"#utility.yul\":2553:2679   */\n      swap2\n      swap1\n      pop\n      jump\t// out\n        /* \"#utility.yul\":2685:2781   */\n    tag_42:\n        /* \"#utility.yul\":2722:2729   */\n      0x00\n        /* \"#utility.yul\":2751:2775   */\n      tag_85\n        /* \"#utility.yul\":2769:2774   */\n      dup3\n        /* \"#utility.yul\":2751:2775   */\n      tag_41\n      jump\t// in\n    tag_85:\n        /* \"#utility.yul\":2740:2775   */\n      swap1\n      pop\n        /* \"#utility.yul\":2685:2781   */\n      swap2\n      swap1\n      pop\n      jump\t// out\n        /* \"#utility.yul\":2787:2909   */\n    tag_43:\n        /* \"#utility.yul\":2860:2884   */\n      tag_87\n        /* \"#utility.yul\":2878:2883   */\n      dup2\n        /* \"#utility.yul\":2860:2884   */\n      tag_42\n      jump\t// in\n    tag_87:\n        /* \"#utility.yul\":2853:2858   */\n      dup2\n        /* \"#utility.yul\":2850:2885   */\n      eq\n        /* \"#utility.yul\":2840:2903   */\n      tag_88\n      jumpi\n        /* \"#utility.yul\":2899:2900   */\n      0x00\n        /* \"#utility.yul\":2896:2897   */\n      dup1\n        /* \"#utility.yul\":2889:2901   */\n      revert\n        /* \"#utility.yul\":2840:2903   */\n    tag_88:\n        /* \"#utility.yul\":2787:2909   */\n      pop\n      jump\t// out\n        /* \"#utility.yul\":2915:3054   */\n    tag_44:\n        /* \"#utility.yul\":2961:2966   */\n      0x00\n        /* \"#utility.yul\":2999:3005   */\n      dup2\n        /* \"#utility.yul\":2986:3006   */\n      calldataload\n        /* \"#utility.yul\":2977:3006   */\n      swap1\n      pop\n        /* \"#utility.yul\":3015:3048   */\n      tag_90\n        /* \"#utility.yul\":3042:3047   */\n      dup2\n        /* \"#utility.yul\":3015:3048   */\n      tag_43\n      jump\t// in\n    tag_90:\n        /* \"#utility.yul\":2915:3054   */\n      swap3\n      swap2\n      pop\n      pop\n      jump\t// out\n        /* \"#utility.yul\":3060:4039   */\n    tag_8:\n        /* \"#utility.yul\":3157:3163   */\n      0x00\n        /* \"#utility.yul\":3165:3171   */\n      dup1\n        /* \"#utility.yul\":3173:3179   */\n      0x00\n        /* \"#utility.yul\":3222:3224   */\n      0x60\n        /* \"#utility.yul\":3210:3219   */\n      dup5\n        /* \"#utility.yul\":3201:3208   */\n      dup7\n        /* \"#utility.yul\":3197:3220   */\n      sub\n        /* \"#utility.yul\":3193:3225   */\n      slt\n        /* \"#utility.yul\":3190:3309   */\n      iszero\n      tag_92\n      jumpi\n        /* \"#utility.yul\":3228:3307   */\n      tag_93\n      tag_29\n      jump\t// in\n    tag_93:\n        /* \"#utility.yul\":3190:3309   */\n    tag_92:\n        /* \"#utility.yul\":3376:3377   */\n      0x00\n        /* \"#utility.yul\":3365:3374   */\n      dup5\n        /* \"#utility.yul\":3361:3378   */\n      add\n        /* \"#utility.yul\":3348:3379   */\n      calldataload\n        /* \"#utility.yul\":3406:3424   */\n      0xffffffffffffffff\n        /* \"#utility.yul\":3398:3404   */\n      dup2\n        /* \"#utility.yul\":3395:3425   */\n      gt\n        /* \"#utility.yul\":3392:3509   */\n      iszero\n      tag_94\n      jumpi\n        /* \"#utility.yul\":3428:3507   */\n      tag_95\n      tag_30\n      jump\t// in\n    tag_95:\n        /* \"#utility.yul\":3392:3509   */\n    tag_94:\n        /* \"#utility.yul\":3533:3596   */\n      tag_96\n        /* \"#utility.yul\":3588:3595   */\n      dup7\n        /* \"#utility.yul\":3579:3585   */\n      dup3\n        /* \"#utility.yul\":3568:3577   */\n      dup8\n        /* \"#utility.yul\":3564:3586   */\n      add\n        /* \"#utility.yul\":3533:3596   */\n      tag_40\n      jump\t// in\n    tag_96:\n        /* \"#utility.yul\":3523:3596   */\n      swap4\n      pop\n        /* \"#utility.yul\":3319:3606   */\n      pop\n        /* \"#utility.yul\":3645:3647   */\n      0x20\n        /* \"#utility.yul\":3671:3724   */\n      tag_97\n        /* \"#utility.yul\":3716:3723   */\n      dup7\n        /* \"#utility.yul\":3707:3713   */\n      dup3\n        /* \"#utility.yul\":3696:3705   */\n      dup8\n        /* \"#utility.yul\":3692:3714   */\n      add\n        /* \"#utility.yul\":3671:3724   */\n      tag_44\n      jump\t// in\n    tag_97:\n        /* \"#utility.yul\":3661:3724   */\n      swap3\n      pop\n        /* \"#utility.yul\":3616:3734   */\n      pop\n        /* \"#utility.yul\":3801:3803   */\n      0x40\n        /* \"#utility.yul\":3790:3799   */\n      dup5\n        /* \"#utility.yul\":3786:3804   */\n      add\n        /* \"#utility.yul\":3773:3805   */\n      calldataload\n        /* \"#utility.yul\":3832:3850   */\n      0xffffffffffffffff\n        /* \"#utility.yul\":3824:3830   */\n      dup2\n        /* \"#utility.yul\":3821:3851   */\n      gt\n        /* \"#utility.yul\":3818:3935   */\n      iszero\n      tag_98\n      jumpi\n        /* \"#utility.yul\":3854:3933   */\n      tag_99\n      tag_30\n      jump\t// in\n    tag_99:\n        /* \"#utility.yul\":3818:3935   */\n    tag_98:\n        /* \"#utility.yul\":3959:4022   */\n      tag_100\n        /* \"#utility.yul\":4014:4021   */\n      dup7\n        /* \"#utility.yul\":4005:4011   */\n      dup3\n        /* \"#utility.yul\":3994:4003   */\n      dup8\n        /* \"#utility.yul\":3990:4012   */\n      add\n        /* \"#utility.yul\":3959:4022   */\n      tag_40\n      jump\t// in\n    tag_100:\n        /* \"#utility.yul\":3949:4022   */\n      swap2\n      pop\n        /* \"#utility.yul\":3744:4032   */\n      pop\n        /* \"#utility.yul\":3060:4039   */\n      swap3\n      pop\n      swap3\n      pop\n      swap3\n      jump\t// out\n        /* \"#utility.yul\":4045:4879   */\n    tag_12:\n        /* \"#utility.yul\":4133:4139   */\n      0x00\n        /* \"#utility.yul\":4141:4147   */\n      dup1\n        /* \"#utility.yul\":4190:4192   */\n      0x40\n        /* \"#utility.yul\":4178:4187   */\n      dup4\n        /* \"#utility.yul\":4169:4176   */\n      dup6\n        /* \"#utility.yul\":4165:4188   */\n      sub\n        /* \"#utility.yul\":4161:4193   */\n      slt\n        /* \"#utility.yul\":4158:4277   */\n      iszero\n      tag_102\n      jumpi\n        /* \"#utility.yul\":4196:4275   */\n      tag_103\n      tag_29\n      jump\t// in\n    tag_103:\n        /* \"#utility.yul\":4158:4277   */\n    tag_102:\n        /* \"#utility.yul\":4344:4345   */\n      0x00\n        /* \"#utility.yul\":4333:4342   */\n      dup4\n        /* \"#utility.yul\":4329:4346   */\n      add\n        /* \"#utility.yul\":4316:4347   */\n      calldataload\n        /* \"#utility.yul\":4374:4392   */\n      0xffffffffffffffff\n        /* \"#utility.yul\":4366:4372   */\n      dup2\n        /* \"#utility.yul\":4363:4393   */\n      gt\n        /* \"#utility.yul\":4360:4477   */\n      iszero\n      tag_104\n      jumpi\n        /* \"#utility.yul\":4396:4475   */\n      tag_105\n      tag_30\n      jump\t// in\n    tag_105:\n        /* \"#utility.yul\":4360:4477   */\n    tag_104:\n        /* \"#utility.yul\":4501:4564   */\n      tag_106\n        /* \"#utility.yul\":4556:4563   */\n      dup6\n        /* \"#utility.yul\":4547:4553   */\n      dup3\n        /* \"#utility.yul\":4536:4545   */\n      dup7\n        /* \"#utility.yul\":4532:4554   */\n      add\n        /* \"#utility.yul\":4501:4564   */\n      tag_40\n      jump\t// in\n    tag_106:\n        /* \"#utility.yul\":4491:4564   */\n      swap3\n      pop\n        /* \"#utility.yul\":4287:4574   */\n      pop\n        /* \"#utility.yul\":4641:4643   */\n      0x20\n        /* \"#utility.yul\":4630:4639   */\n      dup4\n        /* \"#utility.yul\":4626:4644   */\n      add\n        /* \"#utility.yul\":4613:4645   */\n      calldataload\n        /* \"#utility.yul\":4672:4690   */\n      0xffffffffffffffff\n        /* \"#utility.yul\":4664:4670   */\n      dup2\n        /* \"#utility.yul\":4661:4691   */\n      gt\n        /* \"#utility.yul\":4658:4775   */\n      iszero\n      tag_107\n      jumpi\n        /* \"#utility.yul\":4694:4773   */\n      tag_108\n      tag_30\n      jump\t// in\n    tag_108:\n        /* \"#utility.yul\":4658:4775   */\n    tag_107:\n        /* \"#utility.yul\":4799:4862   */\n      tag_109\n        /* \"#utility.yul\":4854:4861   */\n      dup6\n        /* \"#utility.yul\":4845:4851   */\n      dup3\n        /* \"#utility.yul\":4834:4843   */\n      dup7\n        /* \"#utility.yul\":4830:4852   */\n      add\n        /* \"#utility.yul\":4799:4862   */\n      tag_40\n      jump\t// in\n    tag_109:\n        /* \"#utility.yul\":4789:4862   */\n      swap2\n      pop\n        /* \"#utility.yul\":4584:4872   */\n      pop\n        /* \"#utility.yul\":4045:4879   */\n      swap3\n      pop\n      swap3\n      swap1\n      pop\n      jump\t// out\n        /* \"#utility.yul\":4885:4984   */\n    tag_45:\n        /* \"#utility.yul\":4937:4943   */\n      0x00\n        /* \"#utility.yul\":4971:4976   */\n      dup2\n        /* \"#utility.yul\":4965:4977   */\n      mload\n        /* \"#utility.yul\":4955:4977   */\n      swap1\n      pop\n        /* \"#utility.yul\":4885:4984   */\n      swap2\n      swap1\n      pop\n      jump\t// out\n        /* \"#utility.yul\":4990:5159   */\n    tag_46:\n        /* \"#utility.yul\":5074:5085   */\n      0x00\n        /* \"#utility.yul\":5108:5114   */\n      dup3\n        /* \"#utility.yul\":5103:5106   */\n      dup3\n        /* \"#utility.yul\":5096:5115   */\n      mstore\n        /* \"#utility.yul\":5148:5152   */\n      0x20\n        /* \"#utility.yul\":5143:5146   */\n      dup3\n        /* \"#utility.yul\":5139:5153   */\n      add\n        /* \"#utility.yul\":5124:5153   */\n      swap1\n      pop\n        /* \"#utility.yul\":4990:5159   */\n      swap3\n      swap2\n      pop\n      pop\n      jump\t// out\n        /* \"#utility.yul\":5165:5411   */\n    tag_47:\n        /* \"#utility.yul\":5246:5247   */\n      0x00\n        /* \"#utility.yul\":5256:5369   */\n    tag_113:\n        /* \"#utility.yul\":5270:5276   */\n      dup4\n        /* \"#utility.yul\":5267:5268   */\n      dup2\n        /* \"#utility.yul\":5264:5277   */\n      lt\n        /* \"#utility.yul\":5256:5369   */\n      iszero\n      tag_115\n      jumpi\n        /* \"#utility.yul\":5355:5356   */\n      dup1\n        /* \"#utility.yul\":5350:5353   */\n      dup3\n        /* \"#utility.yul\":5346:5357   */\n      add\n        /* \"#utility.yul\":5340:5358   */\n      mload\n        /* \"#utility.yul\":5336:5337   */\n      dup2\n        /* \"#utility.yul\":5331:5334   */\n      dup5\n        /* \"#utility.yul\":5327:5338   */\n      add\n        /* \"#utility.yul\":5320:5359   */\n      mstore\n        /* \"#utility.yul\":5292:5294   */\n      0x20\n        /* \"#utility.yul\":5289:5290   */\n      dup2\n        /* \"#utility.yul\":5285:5295   */\n      add\n        /* \"#utility.yul\":5280:5295   */\n      swap1\n      pop\n        /* \"#utility.yul\":5256:5369   */\n      jump(tag_113)\n    tag_115:\n        /* \"#utility.yul\":5403:5404   */\n      0x00\n        /* \"#utility.yul\":5394:5400   */\n      dup5\n        /* \"#utility.yul\":5389:5392   */\n      dup5\n        /* \"#utility.yul\":5385:5401   */\n      add\n        /* \"#utility.yul\":5378:5405   */\n      mstore\n        /* \"#utility.yul\":5227:5411   */\n      pop\n        /* \"#utility.yul\":5165:5411   */\n      pop\n      pop\n      pop\n      jump\t// out\n        /* \"#utility.yul\":5417:5794   */\n    tag_48:\n        /* \"#utility.yul\":5505:5508   */\n      0x00\n        /* \"#utility.yul\":5533:5572   */\n      tag_117\n        /* \"#utility.yul\":5566:5571   */\n      dup3\n        /* \"#utility.yul\":5533:5572   */\n      tag_45\n      jump\t// in\n    tag_117:\n        /* \"#utility.yul\":5588:5659   */\n      tag_118\n        /* \"#utility.yul\":5652:5658   */\n      dup2\n        /* \"#utility.yul\":5647:5650   */\n      dup6\n        /* \"#utility.yul\":5588:5659   */\n      tag_46\n      jump\t// in\n    tag_118:\n        /* \"#utility.yul\":5581:5659   */\n      swap4\n      pop\n        /* \"#utility.yul\":5668:5733   */\n      tag_119\n        /* \"#utility.yul\":5726:5732   */\n      dup2\n        /* \"#utility.yul\":5721:5724   */\n      dup6\n        /* \"#utility.yul\":5714:5718   */\n      0x20\n        /* \"#utility.yul\":5707:5712   */\n      dup7\n        /* \"#utility.yul\":5703:5719   */\n      add\n        /* \"#utility.yul\":5668:5733   */\n      tag_47\n      jump\t// in\n    tag_119:\n        /* \"#utility.yul\":5758:5787   */\n      tag_120\n        /* \"#utility.yul\":5780:5786   */\n      dup2\n        /* \"#utility.yul\":5758:5787   */\n      tag_33\n      jump\t// in\n    tag_120:\n        /* \"#utility.yul\":5753:5756   */\n      dup5\n        /* \"#utility.yul\":5749:5788   */\n      add\n        /* \"#utility.yul\":5742:5788   */\n      swap2\n      pop\n        /* \"#utility.yul\":5509:5794   */\n      pop\n        /* \"#utility.yul\":5417:5794   */\n      swap3\n      swap2\n      pop\n      pop\n      jump\t// out\n        /* \"#utility.yul\":5800:6314   */\n    tag_18:\n        /* \"#utility.yul\":5961:5965   */\n      0x00\n        /* \"#utility.yul\":5999:6001   */\n      0x40\n        /* \"#utility.yul\":5988:5997   */\n      dup3\n        /* \"#utility.yul\":5984:6002   */\n      add\n        /* \"#utility.yul\":5976:6002   */\n      swap1\n      pop\n        /* \"#utility.yul\":6048:6057   */\n      dup2\n        /* \"#utility.yul\":6042:6046   */\n      dup2\n        /* \"#utility.yul\":6038:6058   */\n      sub\n        /* \"#utility.yul\":6034:6035   */\n      0x00\n        /* \"#utility.yul\":6023:6032   */\n      dup4\n        /* \"#utility.yul\":6019:6036   */\n      add\n        /* \"#utility.yul\":6012:6059   */\n      mstore\n        /* \"#utility.yul\":6076:6154   */\n      tag_122\n        /* \"#utility.yul\":6149:6153   */\n      dup2\n        /* \"#utility.yul\":6140:6146   */\n      dup6\n        /* \"#utility.yul\":6076:6154   */\n      tag_48\n      jump\t// in\n    tag_122:\n        /* \"#utility.yul\":6068:6154   */\n      swap1\n      pop\n        /* \"#utility.yul\":6201:6210   */\n      dup2\n        /* \"#utility.yul\":6195:6199   */\n      dup2\n        /* \"#utility.yul\":6191:6211   */\n      sub\n        /* \"#utility.yul\":6186:6188   */\n      0x20\n        /* \"#utility.yul\":6175:6184   */\n      dup4\n        /* \"#utility.yul\":6171:6189   */\n      add\n        /* \"#utility.yul\":6164:6212   */\n      mstore\n        /* \"#utility.yul\":6229:6307   */\n      tag_123\n        /* \"#utility.yul\":6302:6306   */\n      dup2\n        /* \"#utility.yul\":6293:6299   */\n      dup5\n        /* \"#utility.yul\":6229:6307   */\n      tag_48\n      jump\t// in\n    tag_123:\n        /* \"#utility.yul\":6221:6307   */\n      swap1\n      pop\n        /* \"#utility.yul\":5800:6314   */\n      swap4\n      swap3\n      pop\n      pop\n      pop\n      jump\t// out\n        /* \"#utility.yul\":6320:6482   */\n    tag_49:\n        /* \"#utility.yul\":6460:6474   */\n      0x48656c6c6f20576562332e300000000000000000000000000000000000000000\n        /* \"#utility.yul\":6456:6457   */\n      0x00\n        /* \"#utility.yul\":6448:6454   */\n      dup3\n        /* \"#utility.yul\":6444:6458   */\n      add\n        /* \"#utility.yul\":6437:6475   */\n      mstore\n        /* \"#utility.yul\":6320:6482   */\n      pop\n      jump\t// out\n        /* \"#utility.yul\":6488:6854   */\n    tag_50:\n        /* \"#utility.yul\":6630:6633   */\n      0x00\n        /* \"#utility.yul\":6651:6718   */\n      tag_126\n        /* \"#utility.yul\":6715:6717   */\n      0x0c\n        /* \"#utility.yul\":6710:6713   */\n      dup4\n        /* \"#utility.yul\":6651:6718   */\n      tag_46\n      jump\t// in\n    tag_126:\n        /* \"#utility.yul\":6644:6718   */\n      swap2\n      pop\n        /* \"#utility.yul\":6727:6820   */\n      tag_127\n        /* \"#utility.yul\":6816:6819   */\n      dup3\n        /* \"#utility.yul\":6727:6820   */\n      tag_49\n      jump\t// in\n    tag_127:\n        /* \"#utility.yul\":6845:6847   */\n      0x20\n        /* \"#utility.yul\":6840:6843   */\n      dup3\n        /* \"#utility.yul\":6836:6848   */\n      add\n        /* \"#utility.yul\":6829:6848   */\n      swap1\n      pop\n        /* \"#utility.yul\":6488:6854   */\n      swap2\n      swap1\n      pop\n      jump\t// out\n        /* \"#utility.yul\":6860:7279   */\n    tag_23:\n        /* \"#utility.yul\":7026:7030   */\n      0x00\n        /* \"#utility.yul\":7064:7066   */\n      0x20\n        /* \"#utility.yul\":7053:7062   */\n      dup3\n        /* \"#utility.yul\":7049:7067   */\n      add\n        /* \"#utility.yul\":7041:7067   */\n      swap1\n      pop\n        /* \"#utility.yul\":7113:7122   */\n      dup2\n        /* \"#utility.yul\":7107:7111   */\n      dup2\n        /* \"#utility.yul\":7103:7123   */\n      sub\n        /* \"#utility.yul\":7099:7100   */\n      0x00\n        /* \"#utility.yul\":7088:7097   */\n      dup4\n        /* \"#utility.yul\":7084:7101   */\n      add\n        /* \"#utility.yul\":7077:7124   */\n      mstore\n        /* \"#utility.yul\":7141:7272   */\n      tag_129\n        /* \"#utility.yul\":7267:7271   */\n      dup2\n        /* \"#utility.yul\":7141:7272   */\n      tag_50\n      jump\t// in\n    tag_129:\n        /* \"#utility.yul\":7133:7272   */\n      swap1\n      pop\n        /* \"#utility.yul\":6860:7279   */\n      swap2\n      swap1\n      pop\n      jump\t// out\n        /* \"#utility.yul\":7285:7466   */\n    tag_51:\n        /* \"#utility.yul\":7425:7458   */\n      0x4974277320616c6c2061626f757420446563656e7472616c697a6174696f6e00\n        /* \"#utility.yul\":7421:7422   */\n      0x00\n        /* \"#utility.yul\":7413:7419   */\n      dup3\n        /* \"#utility.yul\":7409:7423   */\n      add\n        /* \"#utility.yul\":7402:7459   */\n      mstore\n        /* \"#utility.yul\":7285:7466   */\n      pop\n      jump\t// out\n        /* \"#utility.yul\":7472:7838   */\n    tag_52:\n        /* \"#utility.yul\":7614:7617   */\n      0x00\n        /* \"#utility.yul\":7635:7702   */\n      tag_132\n        /* \"#utility.yul\":7699:7701   */\n      0x1f\n        /* \"#utility.yul\":7694:7697   */\n      dup4\n        /* \"#utility.yul\":7635:7702   */\n      tag_46\n      jump\t// in\n    tag_132:\n        /* \"#utility.yul\":7628:7702   */\n      swap2\n      pop\n        /* \"#utility.yul\":7711:7804   */\n      tag_133\n        /* \"#utility.yul\":7800:7803   */\n      dup3\n        /* \"#utility.yul\":7711:7804   */\n      tag_51\n      jump\t// in\n    tag_133:\n        /* \"#utility.yul\":7829:7831   */\n      0x20\n        /* \"#utility.yul\":7824:7827   */\n      dup3\n        /* \"#utility.yul\":7820:7832   */\n      add\n        /* \"#utility.yul\":7813:7832   */\n      swap1\n      pop\n        /* \"#utility.yul\":7472:7838   */\n      swap2\n      swap1\n      pop\n      jump\t// out\n        /* \"#utility.yul\":7844:8263   */\n    tag_25:\n        /* \"#utility.yul\":8010:8014   */\n      0x00\n        /* \"#utility.yul\":8048:8050   */\n      0x20\n        /* \"#utility.yul\":8037:8046   */\n      dup3\n        /* \"#utility.yul\":8033:8051   */\n      add\n        /* \"#utility.yul\":8025:8051   */\n      swap1\n      pop\n        /* \"#utility.yul\":8097:8106   */\n      dup2\n        /* \"#utility.yul\":8091:8095   */\n      dup2\n        /* \"#utility.yul\":8087:8107   */\n      sub\n        /* \"#utility.yul\":8083:8084   */\n      0x00\n        /* \"#utility.yul\":8072:8081   */\n      dup4\n        /* \"#utility.yul\":8068:8085   */\n      add\n        /* \"#utility.yul\":8061:8108   */\n      mstore\n        /* \"#utility.yul\":8125:8256   */\n      tag_135\n        /* \"#utility.yul\":8251:8255   */\n      dup2\n        /* \"#utility.yul\":8125:8256   */\n      tag_52\n      jump\t// in\n    tag_135:\n        /* \"#utility.yul\":8117:8256   */\n      swap1\n      pop\n        /* \"#utility.yul\":7844:8263   */\n      swap2\n      swap1\n      pop\n      jump\t// out\n\n    auxdata: 0xa264697066735822122056a5c1a12e3e56cba4e54c8afb03acf563b9ba5ca38c383d9fed42cf78270e7e64736f6c63430008120033\n}\n",
				"bytecode": {
					"linkReferences": {},
					"object": "608060405234801561001057600080fd5b5061070e806100206000396000f3fe608060405234801561001057600080fd5b50600436106100415760003560e01c80633d27f17a1461004657806387dfa9fe14610062578063f8a8fd6d1461007e575b600080fd5b610060600480360381019061005b9190610447565b610088565b005b61007c600480360381019061007791906104d2565b6100dd565b005b610086610131565b005b8173ffffffffffffffffffffffffffffffffffffffff167f7703a461858164e4340a865f1f329f995413d624426ae9751affa80ef82a64b084836040516100d09291906105c9565b60405180910390a2505050565b3373ffffffffffffffffffffffffffffffffffffffff167f7703a461858164e4340a865f1f329f995413d624426ae9751affa80ef82a64b083836040516101259291906105c9565b60405180910390a25050565b3373ffffffffffffffffffffffffffffffffffffffff167f759f86bbdd0758679ecefbd32ea620068b2339dddd9e45ee0fa567ee6c81f0ab6040516101759061064c565b60405180910390a23373ffffffffffffffffffffffffffffffffffffffff167f759f86bbdd0758679ecefbd32ea620068b2339dddd9e45ee0fa567ee6c81f0ab6040516101c1906106b8565b60405180910390a23373ffffffffffffffffffffffffffffffffffffffff167f759f86bbdd0758679ecefbd32ea620068b2339dddd9e45ee0fa567ee6c81f0ab60405161020d906106b8565b60405180910390a23373ffffffffffffffffffffffffffffffffffffffff167f759f86bbdd0758679ecefbd32ea620068b2339dddd9e45ee0fa567ee6c81f0ab604051610259906106b8565b60405180910390a27f248efac7eefeccb52f576426a24d627d42f501660816b9eee2883967e621254060405160405180910390a1565b6000604051905090565b600080fd5b600080fd5b600080fd5b600080fd5b6000601f19601f8301169050919050565b7f4e487b7100000000000000000000000000000000000000000000000000000000600052604160045260246000fd5b6102f6826102ad565b810181811067ffffffffffffffff82111715610315576103146102be565b5b80604052505050565b600061032861028f565b905061033482826102ed565b919050565b600067ffffffffffffffff821115610354576103536102be565b5b61035d826102ad565b9050602081019050919050565b82818337600083830152505050565b600061038c61038784610339565b61031e565b9050828152602081018484840111156103a8576103a76102a8565b5b6103b384828561036a565b509392505050565b600082601f8301126103d0576103cf6102a3565b5b81356103e0848260208601610379565b91505092915050565b600073ffffffffffffffffffffffffffffffffffffffff82169050919050565b6000610414826103e9565b9050919050565b61042481610409565b811461042f57600080fd5b50565b6000813590506104418161041b565b92915050565b6000806000606084860312156104605761045f610299565b5b600084013567ffffffffffffffff81111561047e5761047d61029e565b5b61048a868287016103bb565b935050602061049b86828701610432565b925050604084013567ffffffffffffffff8111156104bc576104bb61029e565b5b6104c8868287016103bb565b9150509250925092565b600080604083850312156104e9576104e8610299565b5b600083013567ffffffffffffffff8111156105075761050661029e565b5b610513858286016103bb565b925050602083013567ffffffffffffffff8111156105345761053361029e565b5b610540858286016103bb565b9150509250929050565b600081519050919050565b600082825260208201905092915050565b60005b83811015610584578082015181840152602081019050610569565b60008484015250505050565b600061059b8261054a565b6105a58185610555565b93506105b5818560208601610566565b6105be816102ad565b840191505092915050565b600060408201905081810360008301526105e38185610590565b905081810360208301526105f78184610590565b90509392505050565b7f48656c6c6f20576562332e300000000000000000000000000000000000000000600082015250565b6000610636600c83610555565b915061064182610600565b602082019050919050565b6000602082019050818103600083015261066581610629565b9050919050565b7f4974277320616c6c2061626f757420446563656e7472616c697a6174696f6e00600082015250565b60006106a2601f83610555565b91506106ad8261066c565b602082019050919050565b600060208201905081810360008301526106d181610695565b905091905056fea264697066735822122056a5c1a12e3e56cba4e54c8afb03acf563b9ba5ca38c383d9fed42cf78270e7e64736f6c63430008120033",
					"opcodes": "PUSH1 0x80 PUSH1 0x40 MSTORE CALLVALUE DUP1 ISZERO PUSH2 0x10 JUMPI PUSH1 0x0 DUP1 REVERT JUMPDEST POP PUSH2 0x70E DUP1 PUSH2 0x20 PUSH1 0x0 CODECOPY PUSH1 0x0 RETURN INVALID PUSH1 0x80 PUSH1 0x40 MSTORE CALLVALUE DUP1 ISZERO PUSH2 0x10 JUMPI PUSH1 0x0 DUP1 REVERT JUMPDEST POP PUSH1 0x4 CALLDATASIZE LT PUSH2 0x41 JUMPI PUSH1 0x0 CALLDATALOAD PUSH1 0xE0 SHR DUP1 PUSH4 0x3D27F17A EQ PUSH2 0x46 JUMPI DUP1 PUSH4 0x87DFA9FE EQ PUSH2 0x62 JUMPI DUP1 PUSH4 0xF8A8FD6D EQ PUSH2 0x7E JUMPI JUMPDEST PUSH1 0x0 DUP1 REVERT JUMPDEST PUSH2 0x60 PUSH1 0x4 DUP1 CALLDATASIZE SUB DUP2 ADD SWAP1 PUSH2 0x5B SWAP2 SWAP1 PUSH2 0x447 JUMP JUMPDEST PUSH2 0x88 JUMP JUMPDEST STOP JUMPDEST PUSH2 0x7C PUSH1 0x4 DUP1 CALLDATASIZE SUB DUP2 ADD SWAP1 PUSH2 0x77 SWAP2 SWAP1 PUSH2 0x4D2 JUMP JUMPDEST PUSH2 0xDD JUMP JUMPDEST STOP JUMPDEST PUSH2 0x86 PUSH2 0x131 JUMP JUMPDEST STOP JUMPDEST DUP2 PUSH20 0xFFFFFFFFFFFFFFFFFFFFFFFFFFFFFFFFFFFFFFFF AND PUSH32 0x7703A461858164E4340A865F1F329F995413D624426AE9751AFFA80EF82A64B0 DUP5 DUP4 PUSH1 0x40 MLOAD PUSH2 0xD0 SWAP3 SWAP2 SWAP1 PUSH2 0x5C9 JUMP JUMPDEST PUSH1 0x40 MLOAD DUP1 SWAP2 SUB SWAP1 LOG2 POP POP POP JUMP JUMPDEST CALLER PUSH20 0xFFFFFFFFFFFFFFFFFFFFFFFFFFFFFFFFFFFFFFFF AND PUSH32 0x7703A461858164E4340A865F1F329F995413D624426AE9751AFFA80EF82A64B0 DUP4 DUP4 PUSH1 0x40 MLOAD PUSH2 0x125 SWAP3 SWAP2 SWAP1 PUSH2 0x5C9 JUMP JUMPDEST PUSH1 0x40 MLOAD DUP1 SWAP2 SUB SWAP1 LOG2 POP POP JUMP JUMPDEST CALLER PUSH20 0xFFFFFFFFFFFFFFFFFFFFFFFFFFFFFFFFFFFFFFFF AND PUSH32 0x759F86BBDD0758679ECEFBD32EA620068B2339DDDD9E45EE0FA567EE6C81F0AB PUSH1 0x40 MLOAD PUSH2 0x175 SWAP1 PUSH2 0x64C JUMP JUMPDEST PUSH1 0x40 MLOAD DUP1 SWAP2 SUB SWAP1 LOG2 CALLER PUSH20 0xFFFFFFFFFFFFFFFFFFFFFFFFFFFFFFFFFFFFFFFF AND PUSH32 0x759F86BBDD0758679ECEFBD32EA620068B2339DDDD9E45EE0FA567EE6C81F0AB PUSH1 0x40 MLOAD PUSH2 0x1C1 SWAP1 PUSH2 0x6B8 JUMP JUMPDEST PUSH1 0x40 MLOAD DUP1 SWAP2 SUB SWAP1 LOG2 CALLER PUSH20 0xFFFFFFFFFFFFFFFFFFFFFFFFFFFFFFFFFFFFFFFF AND PUSH32 0x759F86BBDD0758679ECEFBD32EA620068B2339DDDD9E45EE0FA567EE6C81F0AB PUSH1 0x40 MLOAD PUSH2 0x20D SWAP1 PUSH2 0x6B8 JUMP JUMPDEST PUSH1 0x40 MLOAD DUP1 SWAP2 SUB SWAP1 LOG2 CALLER PUSH20 0xFFFFFFFFFFFFFFFFFFFFFFFFFFFFFFFFFFFFFFFF AND PUSH32 0x759F86BBDD0758679ECEFBD32EA620068B2339DDDD9E45EE0FA567EE6C81F0AB PUSH1 0x40 MLOAD PUSH2 0x259 SWAP1 PUSH2 0x6B8 JUMP JUMPDEST PUSH1 0x40 MLOAD DUP1 SWAP2 SUB SWAP1 LOG2 PUSH32 0x248EFAC7EEFECCB52F576426A24D627D42F501660816B9EEE2883967E6212540 PUSH1 0x40 MLOAD PUSH1 0x40 MLOAD DUP1 SWAP2 SUB SWAP1 LOG1 JUMP JUMPDEST PUSH1 0x0 PUSH1 0x40 MLOAD SWAP1 POP SWAP1 JUMP JUMPDEST PUSH1 0x0 DUP1 REVERT JUMPDEST PUSH1 0x0 DUP1 REVERT JUMPDEST PUSH1 0x0 DUP1 REVERT JUMPDEST PUSH1 0x0 DUP1 REVERT JUMPDEST PUSH1 0x0 PUSH1 0x1F NOT PUSH1 0x1F DUP4 ADD AND SWAP1 POP SWAP2 SWAP1 POP JUMP JUMPDEST PUSH32 0x4E487B7100000000000000000000000000000000000000000000000000000000 PUSH1 0x0 MSTORE PUSH1 0x41 PUSH1 0x4 MSTORE PUSH1 0x24 PUSH1 0x0 REVERT JUMPDEST PUSH2 0x2F6 DUP3 PUSH2 0x2AD JUMP JUMPDEST DUP2 ADD DUP2 DUP2 LT PUSH8 0xFFFFFFFFFFFFFFFF DUP3 GT OR ISZERO PUSH2 0x315 JUMPI PUSH2 0x314 PUSH2 0x2BE JUMP JUMPDEST JUMPDEST DUP1 PUSH1 0x40 MSTORE POP POP POP JUMP JUMPDEST PUSH1 0x0 PUSH2 0x328 PUSH2 0x28F JUMP JUMPDEST SWAP1 POP PUSH2 0x334 DUP3 DUP3 PUSH2 0x2ED JUMP JUMPDEST SWAP2 SWAP1 POP JUMP JUMPDEST PUSH1 0x0 PUSH8 0xFFFFFFFFFFFFFFFF DUP3 GT ISZERO PUSH2 0x354 JUMPI PUSH2 0x353 PUSH2 0x2BE JUMP JUMPDEST JUMPDEST PUSH2 0x35D DUP3 PUSH2 0x2AD JUMP JUMPDEST SWAP1 POP PUSH1 0x20 DUP2 ADD SWAP1 POP SWAP2 SWAP1 POP JUMP JUMPDEST DUP3 DUP2 DUP4 CALLDATACOPY PUSH1 0x0 DUP4 DUP4 ADD MSTORE POP POP POP JUMP JUMPDEST PUSH1 0x0 PUSH2 0x38C PUSH2 0x387 DUP5 PUSH2 0x339 JUMP JUMPDEST PUSH2 0x31E JUMP JUMPDEST SWAP1 POP DUP3 DUP2 MSTORE PUSH1 0x20 DUP2 ADD DUP5 DUP5 DUP5 ADD GT ISZERO PUSH2 0x3A8 JUMPI PUSH2 0x3A7 PUSH2 0x2A8 JUMP JUMPDEST JUMPDEST PUSH2 0x3B3 DUP5 DUP3 DUP6 PUSH2 0x36A JUMP JUMPDEST POP SWAP4 SWAP3 POP POP POP JUMP JUMPDEST PUSH1 0x0 DUP3 PUSH1 0x1F DUP4 ADD SLT PUSH2 0x3D0 JUMPI PUSH2 0x3CF PUSH2 0x2A3 JUMP JUMPDEST JUMPDEST DUP2 CALLDATALOAD PUSH2 0x3E0 DUP5 DUP3 PUSH1 0x20 DUP7 ADD PUSH2 0x379 JUMP JUMPDEST SWAP2 POP POP SWAP3 SWAP2 POP POP JUMP JUMPDEST PUSH1 0x0 PUSH20 0xFFFFFFFFFFFFFFFFFFFFFFFFFFFFFFFFFFFFFFFF DUP3 AND SWAP1 POP SWAP2 SWAP1 POP JUMP JUMPDEST PUSH1 0x0 PUSH2 0x414 DUP3 PUSH2 0x3E9 JUMP JUMPDEST SWAP1 POP SWAP2 SWAP1 POP JUMP JUMPDEST PUSH2 0x424 DUP2 PUSH2 0x409 JUMP JUMPDEST DUP2 EQ PUSH2 0x42F JUMPI PUSH1 0x0 DUP1 REVERT JUMPDEST POP JUMP JUMPDEST PUSH1 0x0 DUP2 CALLDATALOAD SWAP1 POP PUSH2 0x441 DUP2 PUSH2 0x41B JUMP JUMPDEST SWAP3 SWAP2 POP POP JUMP JUMPDEST PUSH1 0x0 DUP1 PUSH1 0x0 PUSH1 0x60 DUP5 DUP7 SUB SLT ISZERO PUSH2 0x460 JUMPI PUSH2 0x45F PUSH2 0x299 JUMP JUMPDEST JUMPDEST PUSH1 0x0 DUP5 ADD CALLDATALOAD PUSH8 0xFFFFFFFFFFFFFFFF DUP2 GT ISZERO PUSH2 0x47E JUMPI PUSH2 0x47D PUSH2 0x29E JUMP JUMPDEST JUMPDEST PUSH2 0x48A DUP7 DUP3 DUP8 ADD PUSH2 0x3BB JUMP JUMPDEST SWAP4 POP POP PUSH1 0x20 PUSH2 0x49B DUP7 DUP3 DUP8 ADD PUSH2 0x432 JUMP JUMPDEST SWAP3 POP POP PUSH1 0x40 DUP5 ADD CALLDATALOAD PUSH8 0xFFFFFFFFFFFFFFFF DUP2 GT ISZERO PUSH2 0x4BC JUMPI PUSH2 0x4BB PUSH2 0x29E JUMP JUMPDEST JUMPDEST PUSH2 0x4C8 DUP7 DUP3 DUP8 ADD PUSH2 0x3BB JUMP JUMPDEST SWAP2 POP POP SWAP3 POP SWAP3 POP SWAP3 JUMP JUMPDEST PUSH1 0x0 DUP1 PUSH1 0x40 DUP4 DUP6 SUB SLT ISZERO PUSH2 0x4E9 JUMPI PUSH2 0x4E8 PUSH2 0x299 JUMP JUMPDEST JUMPDEST PUSH1 0x0 DUP4 ADD CALLDATALOAD PUSH8 0xFFFFFFFFFFFFFFFF DUP2 GT ISZERO PUSH2 0x507 JUMPI PUSH2 0x506 PUSH2 0x29E JUMP JUMPDEST JUMPDEST PUSH2 0x513 DUP6 DUP3 DUP7 ADD PUSH2 0x3BB JUMP JUMPDEST SWAP3 POP POP PUSH1 0x20 DUP4 ADD CALLDATALOAD PUSH8 0xFFFFFFFFFFFFFFFF DUP2 GT ISZERO PUSH2 0x534 JUMPI PUSH2 0x533 PUSH2 0x29E JUMP JUMPDEST JUMPDEST PUSH2 0x540 DUP6 DUP3 DUP7 ADD PUSH2 0x3BB JUMP JUMPDEST SWAP2 POP POP SWAP3 POP SWAP3 SWAP1 POP JUMP JUMPDEST PUSH1 0x0 DUP2 MLOAD SWAP1 POP SWAP2 SWAP1 POP JUMP JUMPDEST PUSH1 0x0 DUP3 DUP3 MSTORE PUSH1 0x20 DUP3 ADD SWAP1 POP SWAP3 SWAP2 POP POP JUMP JUMPDEST PUSH1 0x0 JUMPDEST DUP4 DUP2 LT ISZERO PUSH2 0x584 JUMPI DUP1 DUP3 ADD MLOAD DUP2 DUP5 ADD MSTORE PUSH1 0x20 DUP2 ADD SWAP1 POP PUSH2 0x569 JUMP JUMPDEST PUSH1 0x0 DUP5 DUP5 ADD MSTORE POP POP POP POP JUMP JUMPDEST PUSH1 0x0 PUSH2 0x59B DUP3 PUSH2 0x54A JUMP JUMPDEST PUSH2 0x5A5 DUP2 DUP6 PUSH2 0x555 JUMP JUMPDEST SWAP4 POP PUSH2 0x5B5 DUP2 DUP6 PUSH1 0x20 DUP7 ADD PUSH2 0x566 JUMP JUMPDEST PUSH2 0x5BE DUP2 PUSH2 0x2AD JUMP JUMPDEST DUP5 ADD SWAP2 POP POP SWAP3 SWAP2 POP POP JUMP JUMPDEST PUSH1 0x0 PUSH1 0x40 DUP3 ADD SWAP1 POP DUP2 DUP2 SUB PUSH1 0x0 DUP4 ADD MSTORE PUSH2 0x5E3 DUP2 DUP6 PUSH2 0x590 JUMP JUMPDEST SWAP1 POP DUP2 DUP2 SUB PUSH1 0x20 DUP4 ADD MSTORE PUSH2 0x5F7 DUP2 DUP5 PUSH2 0x590 JUMP JUMPDEST SWAP1 POP SWAP4 SWAP3 POP POP POP JUMP JUMPDEST PUSH32 0x48656C6C6F20576562332E300000000000000000000000000000000000000000 PUSH1 0x0 DUP3 ADD MSTORE POP JUMP JUMPDEST PUSH1 0x0 PUSH2 0x636 PUSH1 0xC DUP4 PUSH2 0x555 JUMP JUMPDEST SWAP2 POP PUSH2 0x641 DUP3 PUSH2 0x600 JUMP JUMPDEST PUSH1 0x20 DUP3 ADD SWAP1 POP SWAP2 SWAP1 POP JUMP JUMPDEST PUSH1 0x0 PUSH1 0x20 DUP3 ADD SWAP1 POP DUP2 DUP2 SUB PUSH1 0x0 DUP4 ADD MSTORE PUSH2 0x665 DUP2 PUSH2 0x629 JUMP JUMPDEST SWAP1 POP SWAP2 SWAP1 POP JUMP JUMPDEST PUSH32 0x4974277320616C6C2061626F757420446563656E7472616C697A6174696F6E00 PUSH1 0x0 DUP3 ADD MSTORE POP JUMP JUMPDEST PUSH1 0x0 PUSH2 0x6A2 PUSH1 0x1F DUP4 PUSH2 0x555 JUMP JUMPDEST SWAP2 POP PUSH2 0x6AD DUP3 PUSH2 0x66C JUMP JUMPDEST PUSH1 0x20 DUP3 ADD SWAP1 POP SWAP2 SWAP1 POP JUMP JUMPDEST PUSH1 0x0 PUSH1 0x20 DUP3 ADD SWAP1 POP DUP2 DUP2 SUB PUSH1 0x0 DUP4 ADD MSTORE PUSH2 0x6D1 DUP2 PUSH2 0x695 JUMP JUMPDEST SWAP1 POP SWAP2 SWAP1 POP JUMP INVALID LOG2 PUSH5 0x6970667358 0x22 SLT KECCAK256 JUMP 0xA5 0xC1 LOG1 0x2E RETURNDATACOPY JUMP 0xCB LOG4 0xE5 0x4C DUP11 0xFB SUB 0xAC CREATE2 PUSH4 0xB9BA5CA3 DUP13 CODESIZE RETURNDATASIZE SWAP16 0xED TIMESTAMP 0xCF PUSH25 0x270E7E64736F6C634300081200330000000000000000000000 "
				},
				"gasEstimates": {
					"creation": {
						"codeDepositCost": "361200",
						"executionCost": "399",
						"totalCost": "361599"
					},
					"external": {
						"autoaddr(string,string)": "infinite",
						"myself(string,address,string)": "infinite",
						"test()": "infinite"
					}
				},
				"methodIdentifiers": {
					"autoaddr(string,string)": "87dfa9fe",
					"myself(string,address,string)": "3d27f17a",
					"test()": "f8a8fd6d"
				}
			},
			"storageLayout": {
				"storage": [],
				"types": null
			},
			"userdoc": {
				"kind": "user",
				"methods": {},
				"version": 1
			}
		}
	}
}