{
	"Labs (August)/Events/file03_11.sol": {
		"Events": {
			"abi": [
				{
					"anonymous": false,
					"inputs": [],
					"name": "empty",
					"type": "event"
				},
				{
					"anonymous": false,
					"inputs": [
						{
							"indexed": false,
							"internalType": "string",
							"name": "",
							"type": "string"
						},
						{
							"indexed": false,
							"internalType": "enum Events.Quality",
							"name": "",
							"type": "uint8"
						}
					],
					"name": "mu",
					"type": "event"
				},
				{
					"anonymous": false,
					"inputs": [
						{
							"indexed": false,
							"internalType": "string",
							"name": "laptop",
							"type": "string"
						},
						{
							"indexed": false,
							"internalType": "uint256",
							"name": "price",
							"type": "uint256"
						}
					],
					"name": "multi",
					"type": "event"
				},
				{
					"anonymous": false,
					"inputs": [
						{
							"indexed": false,
							"internalType": "string",
							"name": "laptop",
							"type": "string"
						},
						{
							"indexed": true,
							"internalType": "uint256",
							"name": "price",
							"type": "uint256"
						},
						{
							"indexed": true,
							"internalType": "enum Events.Quality",
							"name": "q",
							"type": "uint8"
						},
						{
							"components": [
								{
									"internalType": "string",
									"name": "microprocessor",
									"type": "string"
								},
								{
									"internalType": "uint256",
									"name": "RAM",
									"type": "uint256"
								}
							],
							"indexed": true,
							"internalType": "struct Events.specs",
							"name": "s",
							"type": "tuple"
						}
					],
					"name": "multiple",
					"type": "event"
				},
				{
					"inputs": [],
					"name": "emits",
					"outputs": [],
					"stateMutability": "nonpayable",
					"type": "function"
				}
			],
			"devdoc": {
				"kind": "dev",
				"methods": {},
				"version": 1
			},
			"evm": {
				"assembly": "    /* \"Labs (August)/Events/file03_11.sol\":59:877  contract Events{... */\n  mstore(0x40, 0x80)\n  callvalue\n  dup1\n  iszero\n  tag_1\n  jumpi\n  0x00\n  dup1\n  revert\ntag_1:\n  pop\n  dataSize(sub_0)\n  dup1\n  dataOffset(sub_0)\n  0x00\n  codecopy\n  0x00\n  return\nstop\n\nsub_0: assembly {\n        /* \"Labs (August)/Events/file03_11.sol\":59:877  contract Events{... */\n      mstore(0x40, 0x80)\n      callvalue\n      dup1\n      iszero\n      tag_1\n      jumpi\n      0x00\n      dup1\n      revert\n    tag_1:\n      pop\n      jumpi(tag_2, lt(calldatasize, 0x04))\n      shr(0xe0, calldataload(0x00))\n      dup1\n      0xf6fac9f5\n      eq\n      tag_3\n      jumpi\n    tag_2:\n      0x00\n      dup1\n      revert\n        /* \"Labs (August)/Events/file03_11.sol\":680:874  function emits() public{... */\n    tag_3:\n      tag_4\n      tag_5\n      jump\t// in\n    tag_4:\n      stop\n    tag_5:\n        /* \"Labs (August)/Events/file03_11.sol\":715:734  multi(\"Hp\", 150000) */\n      0x0d9f69314e834cd1fcb9f6af7a4fa384c01b253b675920042ab32273de670590\n        /* \"Labs (August)/Events/file03_11.sol\":727:733  150000 */\n      0x0249f0\n        /* \"Labs (August)/Events/file03_11.sol\":715:734  multi(\"Hp\", 150000) */\n      mload(0x40)\n      tag_7\n      swap2\n      swap1\n      tag_8\n      jump\t// in\n    tag_7:\n      mload(0x40)\n      dup1\n      swap2\n      sub\n      swap1\n      log1\n        /* \"Labs (August)/Events/file03_11.sol\":785:804  specs(\"intel\", 128) */\n      mload(0x40)\n      dup1\n      0x40\n      add\n      0x40\n      mstore\n      dup1\n      mload(0x40)\n      dup1\n      0x40\n      add\n      0x40\n      mstore\n      dup1\n      0x05\n      dup2\n      mstore\n      0x20\n      add\n      0x696e74656c000000000000000000000000000000000000000000000000000000\n      dup2\n      mstore\n      pop\n      dup2\n      mstore\n      0x20\n      add\n        /* \"Labs (August)/Events/file03_11.sol\":800:803  128 */\n      0x80\n        /* \"Labs (August)/Events/file03_11.sol\":785:804  specs(\"intel\", 128) */\n      dup2\n      mstore\n      pop\n        /* \"Labs (August)/Events/file03_11.sol\":746:805  multiple(\"dell\", 100000, Quality.Good, specs(\"intel\", 128)) */\n      mload(0x40)\n      tag_9\n      swap2\n      swap1\n      tag_10\n      jump\t// in\n    tag_9:\n      mload(0x40)\n      dup1\n      swap2\n      sub\n      swap1\n      keccak256\n        /* \"Labs (August)/Events/file03_11.sol\":771:783  Quality.Good */\n      0x00\n        /* \"Labs (August)/Events/file03_11.sol\":746:805  multiple(\"dell\", 100000, Quality.Good, specs(\"intel\", 128)) */\n      0x02\n      dup2\n      gt\n      iszero\n      tag_11\n      jumpi\n      tag_12\n      tag_13\n      jump\t// in\n    tag_12:\n    tag_11:\n        /* \"Labs (August)/Events/file03_11.sol\":763:769  100000 */\n      0x0186a0\n        /* \"Labs (August)/Events/file03_11.sol\":746:805  multiple(\"dell\", 100000, Quality.Good, specs(\"intel\", 128)) */\n      0xb7cb3e49b4ec09a148706bede73dce11f05491dc27eed607696709426603d7ff\n      mload(0x40)\n      tag_14\n      swap1\n      tag_15\n      jump\t// in\n    tag_14:\n      mload(0x40)\n      dup1\n      swap2\n      sub\n      swap1\n      log4\n        /* \"Labs (August)/Events/file03_11.sol\":817:847  mu(\"Lenovo\", Quality.Moderate) */\n      0xdb5314170881fa5fdd3e9921dbc50bd6b3d983b71f6866474ed235614e4ada9e\n        /* \"Labs (August)/Events/file03_11.sol\":830:846  Quality.Moderate */\n      0x01\n        /* \"Labs (August)/Events/file03_11.sol\":817:847  mu(\"Lenovo\", Quality.Moderate) */\n      mload(0x40)\n      tag_16\n      swap2\n      swap1\n      tag_17\n      jump\t// in\n    tag_16:\n      mload(0x40)\n      dup1\n      swap2\n      sub\n      swap1\n      log1\n        /* \"Labs (August)/Events/file03_11.sol\":859:866  empty() */\n      0xf2a75fe4d7cd25bbe769d566fbf5a20c67283479ab765ae5857c5ba963305b55\n      mload(0x40)\n      mload(0x40)\n      dup1\n      swap2\n      sub\n      swap1\n      log1\n        /* \"Labs (August)/Events/file03_11.sol\":680:874  function emits() public{... */\n      jump\t// out\n        /* \"#utility.yul\":7:176   */\n    tag_18:\n        /* \"#utility.yul\":91:102   */\n      0x00\n        /* \"#utility.yul\":125:131   */\n      dup3\n        /* \"#utility.yul\":120:123   */\n      dup3\n        /* \"#utility.yul\":113:132   */\n      mstore\n        /* \"#utility.yul\":165:169   */\n      0x20\n        /* \"#utility.yul\":160:163   */\n      dup3\n        /* \"#utility.yul\":156:170   */\n      add\n        /* \"#utility.yul\":141:170   */\n      swap1\n      pop\n        /* \"#utility.yul\":7:176   */\n      swap3\n      swap2\n      pop\n      pop\n      jump\t// out\n        /* \"#utility.yul\":182:334   */\n    tag_19:\n        /* \"#utility.yul\":322:326   */\n      0x4870000000000000000000000000000000000000000000000000000000000000\n        /* \"#utility.yul\":318:319   */\n      0x00\n        /* \"#utility.yul\":310:316   */\n      dup3\n        /* \"#utility.yul\":306:320   */\n      add\n        /* \"#utility.yul\":299:327   */\n      mstore\n        /* \"#utility.yul\":182:334   */\n      pop\n      jump\t// out\n        /* \"#utility.yul\":340:705   */\n    tag_20:\n        /* \"#utility.yul\":482:485   */\n      0x00\n        /* \"#utility.yul\":503:569   */\n      tag_47\n        /* \"#utility.yul\":567:568   */\n      0x02\n        /* \"#utility.yul\":562:565   */\n      dup4\n        /* \"#utility.yul\":503:569   */\n      tag_18\n      jump\t// in\n    tag_47:\n        /* \"#utility.yul\":496:569   */\n      swap2\n      pop\n        /* \"#utility.yul\":578:671   */\n      tag_48\n        /* \"#utility.yul\":667:670   */\n      dup3\n        /* \"#utility.yul\":578:671   */\n      tag_19\n      jump\t// in\n    tag_48:\n        /* \"#utility.yul\":696:698   */\n      0x20\n        /* \"#utility.yul\":691:694   */\n      dup3\n        /* \"#utility.yul\":687:699   */\n      add\n        /* \"#utility.yul\":680:699   */\n      swap1\n      pop\n        /* \"#utility.yul\":340:705   */\n      swap2\n      swap1\n      pop\n      jump\t// out\n        /* \"#utility.yul\":711:801   */\n    tag_21:\n        /* \"#utility.yul\":761:768   */\n      0x00\n        /* \"#utility.yul\":790:795   */\n      dup2\n        /* \"#utility.yul\":779:795   */\n      swap1\n      pop\n        /* \"#utility.yul\":711:801   */\n      swap2\n      swap1\n      pop\n      jump\t// out\n        /* \"#utility.yul\":807:884   */\n    tag_22:\n        /* \"#utility.yul\":844:851   */\n      0x00\n        /* \"#utility.yul\":873:878   */\n      dup2\n        /* \"#utility.yul\":862:878   */\n      swap1\n      pop\n        /* \"#utility.yul\":807:884   */\n      swap2\n      swap1\n      pop\n      jump\t// out\n        /* \"#utility.yul\":890:950   */\n    tag_23:\n        /* \"#utility.yul\":918:921   */\n      0x00\n        /* \"#utility.yul\":939:944   */\n      dup2\n        /* \"#utility.yul\":932:944   */\n      swap1\n      pop\n        /* \"#utility.yul\":890:950   */\n      swap2\n      swap1\n      pop\n      jump\t// out\n        /* \"#utility.yul\":956:1124   */\n    tag_24:\n        /* \"#utility.yul\":1019:1028   */\n      0x00\n        /* \"#utility.yul\":1052:1118   */\n      tag_53\n        /* \"#utility.yul\":1070:1117   */\n      tag_54\n        /* \"#utility.yul\":1079:1116   */\n      tag_55\n        /* \"#utility.yul\":1110:1115   */\n      dup5\n        /* \"#utility.yul\":1079:1116   */\n      tag_21\n      jump\t// in\n    tag_55:\n        /* \"#utility.yul\":1070:1117   */\n      tag_23\n      jump\t// in\n    tag_54:\n        /* \"#utility.yul\":1052:1118   */\n      tag_22\n      jump\t// in\n    tag_53:\n        /* \"#utility.yul\":1039:1118   */\n      swap1\n      pop\n        /* \"#utility.yul\":956:1124   */\n      swap2\n      swap1\n      pop\n      jump\t// out\n        /* \"#utility.yul\":1130:1287   */\n    tag_25:\n        /* \"#utility.yul\":1230:1280   */\n      tag_57\n        /* \"#utility.yul\":1274:1279   */\n      dup2\n        /* \"#utility.yul\":1230:1280   */\n      tag_24\n      jump\t// in\n    tag_57:\n        /* \"#utility.yul\":1225:1228   */\n      dup3\n        /* \"#utility.yul\":1218:1281   */\n      mstore\n        /* \"#utility.yul\":1130:1287   */\n      pop\n      pop\n      jump\t// out\n        /* \"#utility.yul\":1293:1848   */\n    tag_8:\n        /* \"#utility.yul\":1500:1504   */\n      0x00\n        /* \"#utility.yul\":1538:1540   */\n      0x40\n        /* \"#utility.yul\":1527:1536   */\n      dup3\n        /* \"#utility.yul\":1523:1541   */\n      add\n        /* \"#utility.yul\":1515:1541   */\n      swap1\n      pop\n        /* \"#utility.yul\":1587:1596   */\n      dup2\n        /* \"#utility.yul\":1581:1585   */\n      dup2\n        /* \"#utility.yul\":1577:1597   */\n      sub\n        /* \"#utility.yul\":1573:1574   */\n      0x00\n        /* \"#utility.yul\":1562:1571   */\n      dup4\n        /* \"#utility.yul\":1558:1575   */\n      add\n        /* \"#utility.yul\":1551:1598   */\n      mstore\n        /* \"#utility.yul\":1615:1746   */\n      tag_59\n        /* \"#utility.yul\":1741:1745   */\n      dup2\n        /* \"#utility.yul\":1615:1746   */\n      tag_20\n      jump\t// in\n    tag_59:\n        /* \"#utility.yul\":1607:1746   */\n      swap1\n      pop\n        /* \"#utility.yul\":1756:1841   */\n      tag_60\n        /* \"#utility.yul\":1837:1839   */\n      0x20\n        /* \"#utility.yul\":1826:1835   */\n      dup4\n        /* \"#utility.yul\":1822:1840   */\n      add\n        /* \"#utility.yul\":1813:1819   */\n      dup5\n        /* \"#utility.yul\":1756:1841   */\n      tag_25\n      jump\t// in\n    tag_60:\n        /* \"#utility.yul\":1293:1848   */\n      swap3\n      swap2\n      pop\n      pop\n      jump\t// out\n        /* \"#utility.yul\":1854:1953   */\n    tag_26:\n        /* \"#utility.yul\":1906:1912   */\n      0x00\n        /* \"#utility.yul\":1940:1945   */\n      dup2\n        /* \"#utility.yul\":1934:1946   */\n      mload\n        /* \"#utility.yul\":1924:1946   */\n      swap1\n      pop\n        /* \"#utility.yul\":1854:1953   */\n      swap2\n      swap1\n      pop\n      jump\t// out\n        /* \"#utility.yul\":1959:2087   */\n    tag_27:\n        /* \"#utility.yul\":2041:2052   */\n      0x00\n        /* \"#utility.yul\":2078:2081   */\n      dup2\n        /* \"#utility.yul\":2063:2081   */\n      swap1\n      pop\n        /* \"#utility.yul\":1959:2087   */\n      swap3\n      swap2\n      pop\n      pop\n      jump\t// out\n        /* \"#utility.yul\":2093:2339   */\n    tag_28:\n        /* \"#utility.yul\":2174:2175   */\n      0x00\n        /* \"#utility.yul\":2184:2297   */\n    tag_64:\n        /* \"#utility.yul\":2198:2204   */\n      dup4\n        /* \"#utility.yul\":2195:2196   */\n      dup2\n        /* \"#utility.yul\":2192:2205   */\n      lt\n        /* \"#utility.yul\":2184:2297   */\n      iszero\n      tag_66\n      jumpi\n        /* \"#utility.yul\":2283:2284   */\n      dup1\n        /* \"#utility.yul\":2278:2281   */\n      dup3\n        /* \"#utility.yul\":2274:2285   */\n      add\n        /* \"#utility.yul\":2268:2286   */\n      mload\n        /* \"#utility.yul\":2264:2265   */\n      dup2\n        /* \"#utility.yul\":2259:2262   */\n      dup5\n        /* \"#utility.yul\":2255:2266   */\n      add\n        /* \"#utility.yul\":2248:2287   */\n      mstore\n        /* \"#utility.yul\":2220:2222   */\n      0x20\n        /* \"#utility.yul\":2217:2218   */\n      dup2\n        /* \"#utility.yul\":2213:2223   */\n      add\n        /* \"#utility.yul\":2208:2223   */\n      swap1\n      pop\n        /* \"#utility.yul\":2184:2297   */\n      jump(tag_64)\n    tag_66:\n        /* \"#utility.yul\":2331:2332   */\n      0x00\n        /* \"#utility.yul\":2322:2328   */\n      dup5\n        /* \"#utility.yul\":2317:2320   */\n      dup5\n        /* \"#utility.yul\":2313:2329   */\n      add\n        /* \"#utility.yul\":2306:2333   */\n      mstore\n        /* \"#utility.yul\":2155:2339   */\n      pop\n        /* \"#utility.yul\":2093:2339   */\n      pop\n      pop\n      pop\n      jump\t// out\n        /* \"#utility.yul\":2345:2447   */\n    tag_29:\n        /* \"#utility.yul\":2386:2392   */\n      0x00\n        /* \"#utility.yul\":2437:2439   */\n      0x1f\n        /* \"#utility.yul\":2433:2440   */\n      not\n        /* \"#utility.yul\":2428:2430   */\n      0x1f\n        /* \"#utility.yul\":2421:2426   */\n      dup4\n        /* \"#utility.yul\":2417:2431   */\n      add\n        /* \"#utility.yul\":2413:2441   */\n      and\n        /* \"#utility.yul\":2403:2441   */\n      swap1\n      pop\n        /* \"#utility.yul\":2345:2447   */\n      swap2\n      swap1\n      pop\n      jump\t// out\n        /* \"#utility.yul\":2453:2826   */\n    tag_30:\n        /* \"#utility.yul\":2539:2542   */\n      0x00\n        /* \"#utility.yul\":2567:2606   */\n      tag_69\n        /* \"#utility.yul\":2600:2605   */\n      dup3\n        /* \"#utility.yul\":2567:2606   */\n      tag_26\n      jump\t// in\n    tag_69:\n        /* \"#utility.yul\":2622:2691   */\n      tag_70\n        /* \"#utility.yul\":2684:2690   */\n      dup2\n        /* \"#utility.yul\":2679:2682   */\n      dup6\n        /* \"#utility.yul\":2622:2691   */\n      tag_27\n      jump\t// in\n    tag_70:\n        /* \"#utility.yul\":2615:2691   */\n      swap4\n      pop\n        /* \"#utility.yul\":2700:2765   */\n      tag_71\n        /* \"#utility.yul\":2758:2764   */\n      dup2\n        /* \"#utility.yul\":2753:2756   */\n      dup6\n        /* \"#utility.yul\":2746:2750   */\n      0x20\n        /* \"#utility.yul\":2739:2744   */\n      dup7\n        /* \"#utility.yul\":2735:2751   */\n      add\n        /* \"#utility.yul\":2700:2765   */\n      tag_28\n      jump\t// in\n    tag_71:\n        /* \"#utility.yul\":2790:2819   */\n      tag_72\n        /* \"#utility.yul\":2812:2818   */\n      dup2\n        /* \"#utility.yul\":2790:2819   */\n      tag_29\n      jump\t// in\n    tag_72:\n        /* \"#utility.yul\":2785:2788   */\n      dup5\n        /* \"#utility.yul\":2781:2820   */\n      add\n        /* \"#utility.yul\":2774:2820   */\n      swap2\n      pop\n        /* \"#utility.yul\":2543:2826   */\n      pop\n        /* \"#utility.yul\":2453:2826   */\n      swap3\n      swap2\n      pop\n      pop\n      jump\t// out\n        /* \"#utility.yul\":2832:3044   */\n    tag_31:\n        /* \"#utility.yul\":2929:2939   */\n      0x00\n        /* \"#utility.yul\":2964:3038   */\n      tag_74\n        /* \"#utility.yul\":3034:3037   */\n      dup4\n        /* \"#utility.yul\":3026:3032   */\n      dup4\n        /* \"#utility.yul\":2964:3038   */\n      tag_30\n      jump\t// in\n    tag_74:\n        /* \"#utility.yul\":2950:3038   */\n      swap1\n      pop\n        /* \"#utility.yul\":2832:3044   */\n      swap3\n      swap2\n      pop\n      pop\n      jump\t// out\n        /* \"#utility.yul\":3050:3166   */\n    tag_32:\n        /* \"#utility.yul\":3135:3159   */\n      tag_76\n        /* \"#utility.yul\":3153:3158   */\n      dup2\n        /* \"#utility.yul\":3135:3159   */\n      tag_22\n      jump\t// in\n    tag_76:\n        /* \"#utility.yul\":3130:3133   */\n      dup3\n        /* \"#utility.yul\":3123:3160   */\n      mstore\n        /* \"#utility.yul\":3050:3166   */\n      pop\n      pop\n      jump\t// out\n        /* \"#utility.yul\":3172:3367   */\n    tag_33:\n        /* \"#utility.yul\":3249:3259   */\n      0x00\n        /* \"#utility.yul\":3270:3324   */\n      tag_78\n        /* \"#utility.yul\":3320:3323   */\n      dup4\n        /* \"#utility.yul\":3312:3318   */\n      dup4\n        /* \"#utility.yul\":3270:3324   */\n      tag_32\n      jump\t// in\n    tag_78:\n        /* \"#utility.yul\":3356:3360   */\n      0x20\n        /* \"#utility.yul\":3351:3354   */\n      dup4\n        /* \"#utility.yul\":3347:3361   */\n      add\n        /* \"#utility.yul\":3333:3361   */\n      swap1\n      pop\n        /* \"#utility.yul\":3172:3367   */\n      swap3\n      swap2\n      pop\n      pop\n      jump\t// out\n        /* \"#utility.yul\":3423:4024   */\n    tag_34:\n        /* \"#utility.yul\":3552:3555   */\n      0x00\n        /* \"#utility.yul\":3588:3592   */\n      dup1\n        /* \"#utility.yul\":3583:3586   */\n      dup4\n        /* \"#utility.yul\":3579:3593   */\n      add\n        /* \"#utility.yul\":3685:3689   */\n      0x00\n        /* \"#utility.yul\":3678:3683   */\n      dup4\n        /* \"#utility.yul\":3674:3690   */\n      add\n        /* \"#utility.yul\":3668:3691   */\n      mload\n        /* \"#utility.yul\":3711:3801   */\n      tag_80\n        /* \"#utility.yul\":3797:3800   */\n      dup6\n        /* \"#utility.yul\":3783:3795   */\n      dup3\n        /* \"#utility.yul\":3711:3801   */\n      tag_31\n      jump\t// in\n    tag_80:\n        /* \"#utility.yul\":3704:3801   */\n      swap5\n      pop\n        /* \"#utility.yul\":3603:3811   */\n      pop\n        /* \"#utility.yul\":3892:3896   */\n      0x20\n        /* \"#utility.yul\":3885:3890   */\n      dup4\n        /* \"#utility.yul\":3881:3897   */\n      add\n        /* \"#utility.yul\":3875:3898   */\n      mload\n        /* \"#utility.yul\":3918:3988   */\n      tag_81\n        /* \"#utility.yul\":3984:3987   */\n      dup6\n        /* \"#utility.yul\":3970:3982   */\n      dup3\n        /* \"#utility.yul\":3918:3988   */\n      tag_33\n      jump\t// in\n    tag_81:\n        /* \"#utility.yul\":3911:3988   */\n      swap5\n      pop\n        /* \"#utility.yul\":3821:3998   */\n      pop\n        /* \"#utility.yul\":4015:4018   */\n      dup4\n        /* \"#utility.yul\":4008:4018   */\n      swap2\n      pop\n        /* \"#utility.yul\":3557:4024   */\n      pop\n        /* \"#utility.yul\":3423:4024   */\n      swap3\n      swap2\n      pop\n      pop\n      jump\t// out\n        /* \"#utility.yul\":4030:4349   */\n    tag_10:\n        /* \"#utility.yul\":4184:4187   */\n      0x00\n        /* \"#utility.yul\":4206:4323   */\n      tag_83\n        /* \"#utility.yul\":4319:4322   */\n      dup3\n        /* \"#utility.yul\":4310:4316   */\n      dup5\n        /* \"#utility.yul\":4206:4323   */\n      tag_34\n      jump\t// in\n    tag_83:\n        /* \"#utility.yul\":4199:4323   */\n      swap2\n      pop\n        /* \"#utility.yul\":4340:4343   */\n      dup2\n        /* \"#utility.yul\":4333:4343   */\n      swap1\n      pop\n        /* \"#utility.yul\":4030:4349   */\n      swap3\n      swap2\n      pop\n      pop\n      jump\t// out\n        /* \"#utility.yul\":4355:4535   */\n    tag_13:\n        /* \"#utility.yul\":4403:4480   */\n      0x4e487b7100000000000000000000000000000000000000000000000000000000\n        /* \"#utility.yul\":4400:4401   */\n      0x00\n        /* \"#utility.yul\":4393:4481   */\n      mstore\n        /* \"#utility.yul\":4500:4504   */\n      0x21\n        /* \"#utility.yul\":4497:4498   */\n      0x04\n        /* \"#utility.yul\":4490:4505   */\n      mstore\n        /* \"#utility.yul\":4524:4528   */\n      0x24\n        /* \"#utility.yul\":4521:4522   */\n      0x00\n        /* \"#utility.yul\":4514:4529   */\n      revert\n        /* \"#utility.yul\":4541:4695   */\n    tag_35:\n        /* \"#utility.yul\":4681:4687   */\n      0x64656c6c00000000000000000000000000000000000000000000000000000000\n        /* \"#utility.yul\":4677:4678   */\n      0x00\n        /* \"#utility.yul\":4669:4675   */\n      dup3\n        /* \"#utility.yul\":4665:4679   */\n      add\n        /* \"#utility.yul\":4658:4688   */\n      mstore\n        /* \"#utility.yul\":4541:4695   */\n      pop\n      jump\t// out\n        /* \"#utility.yul\":4701:5066   */\n    tag_36:\n        /* \"#utility.yul\":4843:4846   */\n      0x00\n        /* \"#utility.yul\":4864:4930   */\n      tag_87\n        /* \"#utility.yul\":4928:4929   */\n      0x04\n        /* \"#utility.yul\":4923:4926   */\n      dup4\n        /* \"#utility.yul\":4864:4930   */\n      tag_18\n      jump\t// in\n    tag_87:\n        /* \"#utility.yul\":4857:4930   */\n      swap2\n      pop\n        /* \"#utility.yul\":4939:5032   */\n      tag_88\n        /* \"#utility.yul\":5028:5031   */\n      dup3\n        /* \"#utility.yul\":4939:5032   */\n      tag_35\n      jump\t// in\n    tag_88:\n        /* \"#utility.yul\":5057:5059   */\n      0x20\n        /* \"#utility.yul\":5052:5055   */\n      dup3\n        /* \"#utility.yul\":5048:5060   */\n      add\n        /* \"#utility.yul\":5041:5060   */\n      swap1\n      pop\n        /* \"#utility.yul\":4701:5066   */\n      swap2\n      swap1\n      pop\n      jump\t// out\n        /* \"#utility.yul\":5072:5491   */\n    tag_15:\n        /* \"#utility.yul\":5238:5242   */\n      0x00\n        /* \"#utility.yul\":5276:5278   */\n      0x20\n        /* \"#utility.yul\":5265:5274   */\n      dup3\n        /* \"#utility.yul\":5261:5279   */\n      add\n        /* \"#utility.yul\":5253:5279   */\n      swap1\n      pop\n        /* \"#utility.yul\":5325:5334   */\n      dup2\n        /* \"#utility.yul\":5319:5323   */\n      dup2\n        /* \"#utility.yul\":5315:5335   */\n      sub\n        /* \"#utility.yul\":5311:5312   */\n      0x00\n        /* \"#utility.yul\":5300:5309   */\n      dup4\n        /* \"#utility.yul\":5296:5313   */\n      add\n        /* \"#utility.yul\":5289:5336   */\n      mstore\n        /* \"#utility.yul\":5353:5484   */\n      tag_90\n        /* \"#utility.yul\":5479:5483   */\n      dup2\n        /* \"#utility.yul\":5353:5484   */\n      tag_36\n      jump\t// in\n    tag_90:\n        /* \"#utility.yul\":5345:5484   */\n      swap1\n      pop\n        /* \"#utility.yul\":5072:5491   */\n      swap2\n      swap1\n      pop\n      jump\t// out\n        /* \"#utility.yul\":5497:5653   */\n    tag_37:\n        /* \"#utility.yul\":5637:5645   */\n      0x4c656e6f766f0000000000000000000000000000000000000000000000000000\n        /* \"#utility.yul\":5633:5634   */\n      0x00\n        /* \"#utility.yul\":5625:5631   */\n      dup3\n        /* \"#utility.yul\":5621:5635   */\n      add\n        /* \"#utility.yul\":5614:5646   */\n      mstore\n        /* \"#utility.yul\":5497:5653   */\n      pop\n      jump\t// out\n        /* \"#utility.yul\":5659:6024   */\n    tag_38:\n        /* \"#utility.yul\":5801:5804   */\n      0x00\n        /* \"#utility.yul\":5822:5888   */\n      tag_93\n        /* \"#utility.yul\":5886:5887   */\n      0x06\n        /* \"#utility.yul\":5881:5884   */\n      dup4\n        /* \"#utility.yul\":5822:5888   */\n      tag_18\n      jump\t// in\n    tag_93:\n        /* \"#utility.yul\":5815:5888   */\n      swap2\n      pop\n        /* \"#utility.yul\":5897:5990   */\n      tag_94\n        /* \"#utility.yul\":5986:5989   */\n      dup3\n        /* \"#utility.yul\":5897:5990   */\n      tag_37\n      jump\t// in\n    tag_94:\n        /* \"#utility.yul\":6015:6017   */\n      0x20\n        /* \"#utility.yul\":6010:6013   */\n      dup3\n        /* \"#utility.yul\":6006:6018   */\n      add\n        /* \"#utility.yul\":5999:6018   */\n      swap1\n      pop\n        /* \"#utility.yul\":5659:6024   */\n      swap2\n      swap1\n      pop\n      jump\t// out\n        /* \"#utility.yul\":6030:6144   */\n    tag_39:\n        /* \"#utility.yul\":6112:6113   */\n      0x03\n        /* \"#utility.yul\":6105:6110   */\n      dup2\n        /* \"#utility.yul\":6102:6114   */\n      lt\n        /* \"#utility.yul\":6092:6138   */\n      tag_96\n      jumpi\n        /* \"#utility.yul\":6118:6136   */\n      tag_97\n      tag_13\n      jump\t// in\n    tag_97:\n        /* \"#utility.yul\":6092:6138   */\n    tag_96:\n        /* \"#utility.yul\":6030:6144   */\n      pop\n      jump\t// out\n        /* \"#utility.yul\":6150:6279   */\n    tag_40:\n        /* \"#utility.yul\":6196:6203   */\n      0x00\n        /* \"#utility.yul\":6225:6230   */\n      dup2\n        /* \"#utility.yul\":6214:6230   */\n      swap1\n      pop\n        /* \"#utility.yul\":6231:6273   */\n      tag_99\n        /* \"#utility.yul\":6267:6272   */\n      dup3\n        /* \"#utility.yul\":6231:6273   */\n      tag_39\n      jump\t// in\n    tag_99:\n        /* \"#utility.yul\":6150:6279   */\n      swap2\n      swap1\n      pop\n      jump\t// out\n        /* \"#utility.yul\":6285:6414   */\n    tag_41:\n        /* \"#utility.yul\":6342:6351   */\n      0x00\n        /* \"#utility.yul\":6375:6408   */\n      tag_101\n        /* \"#utility.yul\":6402:6407   */\n      dup3\n        /* \"#utility.yul\":6375:6408   */\n      tag_40\n      jump\t// in\n    tag_101:\n        /* \"#utility.yul\":6362:6408   */\n      swap1\n      pop\n        /* \"#utility.yul\":6285:6414   */\n      swap2\n      swap1\n      pop\n      jump\t// out\n        /* \"#utility.yul\":6420:6565   */\n    tag_42:\n        /* \"#utility.yul\":6514:6558   */\n      tag_103\n        /* \"#utility.yul\":6552:6557   */\n      dup2\n        /* \"#utility.yul\":6514:6558   */\n      tag_41\n      jump\t// in\n    tag_103:\n        /* \"#utility.yul\":6509:6512   */\n      dup3\n        /* \"#utility.yul\":6502:6559   */\n      mstore\n        /* \"#utility.yul\":6420:6565   */\n      pop\n      pop\n      jump\t// out\n        /* \"#utility.yul\":6571:7114   */\n    tag_17:\n        /* \"#utility.yul\":6772:6776   */\n      0x00\n        /* \"#utility.yul\":6810:6812   */\n      0x40\n        /* \"#utility.yul\":6799:6808   */\n      dup3\n        /* \"#utility.yul\":6795:6813   */\n      add\n        /* \"#utility.yul\":6787:6813   */\n      swap1\n      pop\n        /* \"#utility.yul\":6859:6868   */\n      dup2\n        /* \"#utility.yul\":6853:6857   */\n      dup2\n        /* \"#utility.yul\":6849:6869   */\n      sub\n        /* \"#utility.yul\":6845:6846   */\n      0x00\n        /* \"#utility.yul\":6834:6843   */\n      dup4\n        /* \"#utility.yul\":6830:6847   */\n      add\n        /* \"#utility.yul\":6823:6870   */\n      mstore\n        /* \"#utility.yul\":6887:7018   */\n      tag_105\n        /* \"#utility.yul\":7013:7017   */\n      dup2\n        /* \"#utility.yul\":6887:7018   */\n      tag_38\n      jump\t// in\n    tag_105:\n        /* \"#utility.yul\":6879:7018   */\n      swap1\n      pop\n        /* \"#utility.yul\":7028:7107   */\n      tag_106\n        /* \"#utility.yul\":7103:7105   */\n      0x20\n        /* \"#utility.yul\":7092:7101   */\n      dup4\n        /* \"#utility.yul\":7088:7106   */\n      add\n        /* \"#utility.yul\":7079:7085   */\n      dup5\n        /* \"#utility.yul\":7028:7107   */\n      tag_42\n      jump\t// in\n    tag_106:\n        /* \"#utility.yul\":6571:7114   */\n      swap3\n      swap2\n      pop\n      pop\n      jump\t// out\n\n    auxdata: 0xa2646970667358221220c6fc1f3663c9146677bbe96892617e5936167380a3fa3eba431e2f08dfa9263a64736f6c63430008120033\n}\n",
				"bytecode": {
					"linkReferences": {},
					"object": "608060405234801561001057600080fd5b50610503806100206000396000f3fe608060405234801561001057600080fd5b506004361061002b5760003560e01c8063f6fac9f514610030575b600080fd5b61003861003a565b005b7f0d9f69314e834cd1fcb9f6af7a4fa384c01b253b675920042ab32273de670590620249f060405161006c9190610233565b60405180910390a160405180604001604052806040518060400160405280600581526020017f696e74656c000000000000000000000000000000000000000000000000000000815250815260200160808152506040516100cc9190610359565b6040518091039020600060028111156100e8576100e7610370565b5b620186a07fb7cb3e49b4ec09a148706bede73dce11f05491dc27eed607696709426603d7ff604051610119906103eb565b60405180910390a47fdb5314170881fa5fdd3e9921dbc50bd6b3d983b71f6866474ed235614e4ada9e6001604051610151919061049f565b60405180910390a17ff2a75fe4d7cd25bbe769d566fbf5a20c67283479ab765ae5857c5ba963305b5560405160405180910390a1565b600082825260208201905092915050565b7f4870000000000000000000000000000000000000000000000000000000000000600082015250565b60006101ce600283610187565b91506101d982610198565b602082019050919050565b6000819050919050565b6000819050919050565b6000819050919050565b600061021d610218610213846101e4565b6101f8565b6101ee565b9050919050565b61022d81610202565b82525050565b6000604082019050818103600083015261024c816101c1565b905061025b6020830184610224565b92915050565b600081519050919050565b600081905092915050565b60005b8381101561029557808201518184015260208101905061027a565b60008484015250505050565b6000601f19601f8301169050919050565b60006102bd82610261565b6102c7818561026c565b93506102d7818560208601610277565b6102e0816102a1565b840191505092915050565b60006102f783836102b2565b905092915050565b610308816101ee565b82525050565b600061031a83836102ff565b60208301905092915050565b6000808301600083015161033a85826102eb565b945050602083015161034c858261030e565b9450508391505092915050565b60006103658284610326565b915081905092915050565b7f4e487b7100000000000000000000000000000000000000000000000000000000600052602160045260246000fd5b7f64656c6c00000000000000000000000000000000000000000000000000000000600082015250565b60006103d5600483610187565b91506103e08261039f565b602082019050919050565b60006020820190508181036000830152610404816103c8565b9050919050565b7f4c656e6f766f0000000000000000000000000000000000000000000000000000600082015250565b6000610441600683610187565b915061044c8261040b565b602082019050919050565b6003811061046857610467610370565b5b50565b600081905061047982610457565b919050565b60006104898261046b565b9050919050565b6104998161047e565b82525050565b600060408201905081810360008301526104b881610434565b90506104c76020830184610490565b9291505056fea2646970667358221220c6fc1f3663c9146677bbe96892617e5936167380a3fa3eba431e2f08dfa9263a64736f6c63430008120033",
					"opcodes": "PUSH1 0x80 PUSH1 0x40 MSTORE CALLVALUE DUP1 ISZERO PUSH2 0x10 JUMPI PUSH1 0x0 DUP1 REVERT JUMPDEST POP PUSH2 0x503 DUP1 PUSH2 0x20 PUSH1 0x0 CODECOPY PUSH1 0x0 RETURN INVALID PUSH1 0x80 PUSH1 0x40 MSTORE CALLVALUE DUP1 ISZERO PUSH2 0x10 JUMPI PUSH1 0x0 DUP1 REVERT JUMPDEST POP PUSH1 0x4 CALLDATASIZE LT PUSH2 0x2B JUMPI PUSH1 0x0 CALLDATALOAD PUSH1 0xE0 SHR DUP1 PUSH4 0xF6FAC9F5 EQ PUSH2 0x30 JUMPI JUMPDEST PUSH1 0x0 DUP1 REVERT JUMPDEST PUSH2 0x38 PUSH2 0x3A JUMP JUMPDEST STOP JUMPDEST PUSH32 0xD9F69314E834CD1FCB9F6AF7A4FA384C01B253B675920042AB32273DE670590 PUSH3 0x249F0 PUSH1 0x40 MLOAD PUSH2 0x6C SWAP2 SWAP1 PUSH2 0x233 JUMP JUMPDEST PUSH1 0x40 MLOAD DUP1 SWAP2 SUB SWAP1 LOG1 PUSH1 0x40 MLOAD DUP1 PUSH1 0x40 ADD PUSH1 0x40 MSTORE DUP1 PUSH1 0x40 MLOAD DUP1 PUSH1 0x40 ADD PUSH1 0x40 MSTORE DUP1 PUSH1 0x5 DUP2 MSTORE PUSH1 0x20 ADD PUSH32 0x696E74656C000000000000000000000000000000000000000000000000000000 DUP2 MSTORE POP DUP2 MSTORE PUSH1 0x20 ADD PUSH1 0x80 DUP2 MSTORE POP PUSH1 0x40 MLOAD PUSH2 0xCC SWAP2 SWAP1 PUSH2 0x359 JUMP JUMPDEST PUSH1 0x40 MLOAD DUP1 SWAP2 SUB SWAP1 KECCAK256 PUSH1 0x0 PUSH1 0x2 DUP2 GT ISZERO PUSH2 0xE8 JUMPI PUSH2 0xE7 PUSH2 0x370 JUMP JUMPDEST JUMPDEST PUSH3 0x186A0 PUSH32 0xB7CB3E49B4EC09A148706BEDE73DCE11F05491DC27EED607696709426603D7FF PUSH1 0x40 MLOAD PUSH2 0x119 SWAP1 PUSH2 0x3EB JUMP JUMPDEST PUSH1 0x40 MLOAD DUP1 SWAP2 SUB SWAP1 LOG4 PUSH32 0xDB5314170881FA5FDD3E9921DBC50BD6B3D983B71F6866474ED235614E4ADA9E PUSH1 0x1 PUSH1 0x40 MLOAD PUSH2 0x151 SWAP2 SWAP1 PUSH2 0x49F JUMP JUMPDEST PUSH1 0x40 MLOAD DUP1 SWAP2 SUB SWAP1 LOG1 PUSH32 0xF2A75FE4D7CD25BBE769D566FBF5A20C67283479AB765AE5857C5BA963305B55 PUSH1 0x40 MLOAD PUSH1 0x40 MLOAD DUP1 SWAP2 SUB SWAP1 LOG1 JUMP JUMPDEST PUSH1 0x0 DUP3 DUP3 MSTORE PUSH1 0x20 DUP3 ADD SWAP1 POP SWAP3 SWAP2 POP POP JUMP JUMPDEST PUSH32 0x4870000000000000000000000000000000000000000000000000000000000000 PUSH1 0x0 DUP3 ADD MSTORE POP JUMP JUMPDEST PUSH1 0x0 PUSH2 0x1CE PUSH1 0x2 DUP4 PUSH2 0x187 JUMP JUMPDEST SWAP2 POP PUSH2 0x1D9 DUP3 PUSH2 0x198 JUMP JUMPDEST PUSH1 0x20 DUP3 ADD SWAP1 POP SWAP2 SWAP1 POP JUMP JUMPDEST PUSH1 0x0 DUP2 SWAP1 POP SWAP2 SWAP1 POP JUMP JUMPDEST PUSH1 0x0 DUP2 SWAP1 POP SWAP2 SWAP1 POP JUMP JUMPDEST PUSH1 0x0 DUP2 SWAP1 POP SWAP2 SWAP1 POP JUMP JUMPDEST PUSH1 0x0 PUSH2 0x21D PUSH2 0x218 PUSH2 0x213 DUP5 PUSH2 0x1E4 JUMP JUMPDEST PUSH2 0x1F8 JUMP JUMPDEST PUSH2 0x1EE JUMP JUMPDEST SWAP1 POP SWAP2 SWAP1 POP JUMP JUMPDEST PUSH2 0x22D DUP2 PUSH2 0x202 JUMP JUMPDEST DUP3 MSTORE POP POP JUMP JUMPDEST PUSH1 0x0 PUSH1 0x40 DUP3 ADD SWAP1 POP DUP2 DUP2 SUB PUSH1 0x0 DUP4 ADD MSTORE PUSH2 0x24C DUP2 PUSH2 0x1C1 JUMP JUMPDEST SWAP1 POP PUSH2 0x25B PUSH1 0x20 DUP4 ADD DUP5 PUSH2 0x224 JUMP JUMPDEST SWAP3 SWAP2 POP POP JUMP JUMPDEST PUSH1 0x0 DUP2 MLOAD SWAP1 POP SWAP2 SWAP1 POP JUMP JUMPDEST PUSH1 0x0 DUP2 SWAP1 POP SWAP3 SWAP2 POP POP JUMP JUMPDEST PUSH1 0x0 JUMPDEST DUP4 DUP2 LT ISZERO PUSH2 0x295 JUMPI DUP1 DUP3 ADD MLOAD DUP2 DUP5 ADD MSTORE PUSH1 0x20 DUP2 ADD SWAP1 POP PUSH2 0x27A JUMP JUMPDEST PUSH1 0x0 DUP5 DUP5 ADD MSTORE POP POP POP POP JUMP JUMPDEST PUSH1 0x0 PUSH1 0x1F NOT PUSH1 0x1F DUP4 ADD AND SWAP1 POP SWAP2 SWAP1 POP JUMP JUMPDEST PUSH1 0x0 PUSH2 0x2BD DUP3 PUSH2 0x261 JUMP JUMPDEST PUSH2 0x2C7 DUP2 DUP6 PUSH2 0x26C JUMP JUMPDEST SWAP4 POP PUSH2 0x2D7 DUP2 DUP6 PUSH1 0x20 DUP7 ADD PUSH2 0x277 JUMP JUMPDEST PUSH2 0x2E0 DUP2 PUSH2 0x2A1 JUMP JUMPDEST DUP5 ADD SWAP2 POP POP SWAP3 SWAP2 POP POP JUMP JUMPDEST PUSH1 0x0 PUSH2 0x2F7 DUP4 DUP4 PUSH2 0x2B2 JUMP JUMPDEST SWAP1 POP SWAP3 SWAP2 POP POP JUMP JUMPDEST PUSH2 0x308 DUP2 PUSH2 0x1EE JUMP JUMPDEST DUP3 MSTORE POP POP JUMP JUMPDEST PUSH1 0x0 PUSH2 0x31A DUP4 DUP4 PUSH2 0x2FF JUMP JUMPDEST PUSH1 0x20 DUP4 ADD SWAP1 POP SWAP3 SWAP2 POP POP JUMP JUMPDEST PUSH1 0x0 DUP1 DUP4 ADD PUSH1 0x0 DUP4 ADD MLOAD PUSH2 0x33A DUP6 DUP3 PUSH2 0x2EB JUMP JUMPDEST SWAP5 POP POP PUSH1 0x20 DUP4 ADD MLOAD PUSH2 0x34C DUP6 DUP3 PUSH2 0x30E JUMP JUMPDEST SWAP5 POP POP DUP4 SWAP2 POP POP SWAP3 SWAP2 POP POP JUMP JUMPDEST PUSH1 0x0 PUSH2 0x365 DUP3 DUP5 PUSH2 0x326 JUMP JUMPDEST SWAP2 POP DUP2 SWAP1 POP SWAP3 SWAP2 POP POP JUMP JUMPDEST PUSH32 0x4E487B7100000000000000000000000000000000000000000000000000000000 PUSH1 0x0 MSTORE PUSH1 0x21 PUSH1 0x4 MSTORE PUSH1 0x24 PUSH1 0x0 REVERT JUMPDEST PUSH32 0x64656C6C00000000000000000000000000000000000000000000000000000000 PUSH1 0x0 DUP3 ADD MSTORE POP JUMP JUMPDEST PUSH1 0x0 PUSH2 0x3D5 PUSH1 0x4 DUP4 PUSH2 0x187 JUMP JUMPDEST SWAP2 POP PUSH2 0x3E0 DUP3 PUSH2 0x39F JUMP JUMPDEST PUSH1 0x20 DUP3 ADD SWAP1 POP SWAP2 SWAP1 POP JUMP JUMPDEST PUSH1 0x0 PUSH1 0x20 DUP3 ADD SWAP1 POP DUP2 DUP2 SUB PUSH1 0x0 DUP4 ADD MSTORE PUSH2 0x404 DUP2 PUSH2 0x3C8 JUMP JUMPDEST SWAP1 POP SWAP2 SWAP1 POP JUMP JUMPDEST PUSH32 0x4C656E6F766F0000000000000000000000000000000000000000000000000000 PUSH1 0x0 DUP3 ADD MSTORE POP JUMP JUMPDEST PUSH1 0x0 PUSH2 0x441 PUSH1 0x6 DUP4 PUSH2 0x187 JUMP JUMPDEST SWAP2 POP PUSH2 0x44C DUP3 PUSH2 0x40B JUMP JUMPDEST PUSH1 0x20 DUP3 ADD SWAP1 POP SWAP2 SWAP1 POP JUMP JUMPDEST PUSH1 0x3 DUP2 LT PUSH2 0x468 JUMPI PUSH2 0x467 PUSH2 0x370 JUMP JUMPDEST JUMPDEST POP JUMP JUMPDEST PUSH1 0x0 DUP2 SWAP1 POP PUSH2 0x479 DUP3 PUSH2 0x457 JUMP JUMPDEST SWAP2 SWAP1 POP JUMP JUMPDEST PUSH1 0x0 PUSH2 0x489 DUP3 PUSH2 0x46B JUMP JUMPDEST SWAP1 POP SWAP2 SWAP1 POP JUMP JUMPDEST PUSH2 0x499 DUP2 PUSH2 0x47E JUMP JUMPDEST DUP3 MSTORE POP POP JUMP JUMPDEST PUSH1 0x0 PUSH1 0x40 DUP3 ADD SWAP1 POP DUP2 DUP2 SUB PUSH1 0x0 DUP4 ADD MSTORE PUSH2 0x4B8 DUP2 PUSH2 0x434 JUMP JUMPDEST SWAP1 POP PUSH2 0x4C7 PUSH1 0x20 DUP4 ADD DUP5 PUSH2 0x490 JUMP JUMPDEST SWAP3 SWAP2 POP POP JUMP INVALID LOG2 PUSH5 0x6970667358 0x22 SLT KECCAK256 0xC6 0xFC 0x1F CALLDATASIZE PUSH4 0xC9146677 0xBB 0xE9 PUSH9 0x92617E5936167380A3 STATICCALL RETURNDATACOPY 0xBA NUMBER 0x1E 0x2F ADDMOD 0xDF 0xA9 0x26 GASPRICE PUSH5 0x736F6C6343 STOP ADDMOD SLT STOP CALLER "
				},
				"gasEstimates": {
					"creation": {
						"codeDepositCost": "256600",
						"executionCost": "300",
						"totalCost": "256900"
					},
					"external": {
						"emits()": "infinite"
					}
				},
				"methodIdentifiers": {
					"emits()": "f6fac9f5"
				}
			},
			"storageLayout": {
				"storage": [],
				"types": null
			},
			"userdoc": {
				"kind": "user",
				"methods": {},
				"version": 1
			}
		}
	}
}