{
	"Labs (August)/Events/file03_11.sol": {
		"PEve": {
			"abi": [
				{
					"anonymous": false,
					"inputs": [
						{
							"components": [
								{
									"internalType": "string",
									"name": "name",
									"type": "string"
								},
								{
									"internalType": "string",
									"name": "gender",
									"type": "string"
								},
								{
									"internalType": "uint256",
									"name": "age",
									"type": "uint256"
								}
							],
							"indexed": false,
							"internalType": "struct PEve.personInfo",
							"name": "oldvalue",
							"type": "tuple"
						},
						{
							"components": [
								{
									"internalType": "string",
									"name": "name",
									"type": "string"
								},
								{
									"internalType": "string",
									"name": "gender",
									"type": "string"
								},
								{
									"internalType": "uint256",
									"name": "age",
									"type": "uint256"
								}
							],
							"indexed": false,
							"internalType": "struct PEve.personInfo",
							"name": "newvalue",
							"type": "tuple"
						},
						{
							"indexed": false,
							"internalType": "uint256",
							"name": "blocknumber",
							"type": "uint256"
						},
						{
							"indexed": false,
							"internalType": "uint256",
							"name": "timestamp",
							"type": "uint256"
						}
					],
					"name": "Update",
					"type": "event"
				},
				{
					"inputs": [],
					"name": "p1",
					"outputs": [
						{
							"internalType": "string",
							"name": "name",
							"type": "string"
						},
						{
							"internalType": "string",
							"name": "gender",
							"type": "string"
						},
						{
							"internalType": "uint256",
							"name": "age",
							"type": "uint256"
						}
					],
					"stateMutability": "view",
					"type": "function"
				},
				{
					"inputs": [
						{
							"internalType": "string",
							"name": "_name",
							"type": "string"
						},
						{
							"internalType": "string",
							"name": "_gender",
							"type": "string"
						},
						{
							"internalType": "uint256",
							"name": "_age",
							"type": "uint256"
						}
					],
					"name": "setnewperson",
					"outputs": [],
					"stateMutability": "nonpayable",
					"type": "function"
				}
			],
			"devdoc": {
				"kind": "dev",
				"methods": {},
				"version": 1
			},
			"evm": {
				"assembly": "    /* \"Labs (August)/Events/file03_11.sol\":1217:1747  contract PEve{... */\n  mstore(0x40, 0x80)\n  callvalue\n  dup1\n  iszero\n  tag_1\n  jumpi\n  0x00\n  dup1\n  revert\ntag_1:\n  pop\n  dataSize(sub_0)\n  dup1\n  dataOffset(sub_0)\n  0x00\n  codecopy\n  0x00\n  return\nstop\n\nsub_0: assembly {\n        /* \"Labs (August)/Events/file03_11.sol\":1217:1747  contract PEve{... */\n      mstore(0x40, 0x80)\n      callvalue\n      dup1\n      iszero\n      tag_1\n      jumpi\n      0x00\n      dup1\n      revert\n    tag_1:\n      pop\n      jumpi(tag_2, lt(calldatasize, 0x04))\n      shr(0xe0, calldataload(0x00))\n      dup1\n      0x88dda91a\n      eq\n      tag_3\n      jumpi\n      dup1\n      0xc2a2747b\n      eq\n      tag_4\n      jumpi\n    tag_2:\n      0x00\n      dup1\n      revert\n        /* \"Labs (August)/Events/file03_11.sol\":1506:1744  function setnewperson(string memory _name, string memory _gender, uint _age) public {... */\n    tag_3:\n      tag_5\n      0x04\n      dup1\n      calldatasize\n      sub\n      dup2\n      add\n      swap1\n      tag_6\n      swap2\n      swap1\n      tag_7\n      jump\t// in\n    tag_6:\n      tag_8\n      jump\t// in\n    tag_5:\n      stop\n        /* \"Labs (August)/Events/file03_11.sol\":1337:1357  personInfo public p1 */\n    tag_4:\n      tag_9\n      tag_10\n      jump\t// in\n    tag_9:\n      mload(0x40)\n      tag_11\n      swap4\n      swap3\n      swap2\n      swap1\n      tag_12\n      jump\t// in\n    tag_11:\n      mload(0x40)\n      dup1\n      swap2\n      sub\n      swap1\n      return\n        /* \"Labs (August)/Events/file03_11.sol\":1506:1744  function setnewperson(string memory _name, string memory _gender, uint _age) public {... */\n    tag_8:\n        /* \"Labs (August)/Events/file03_11.sol\":1601:1623  personInfo memory temp */\n      0x00\n        /* \"Labs (August)/Events/file03_11.sol\":1626:1628  p1 */\n      dup1\n        /* \"Labs (August)/Events/file03_11.sol\":1601:1628  personInfo memory temp = p1 */\n      mload(0x40)\n      dup1\n      0x60\n      add\n      0x40\n      mstore\n      swap1\n      dup2\n      0x00\n      dup3\n      add\n      dup1\n      sload\n      tag_14\n      swap1\n      tag_15\n      jump\t// in\n    tag_14:\n      dup1\n      0x1f\n      add\n      0x20\n      dup1\n      swap2\n      div\n      mul\n      0x20\n      add\n      mload(0x40)\n      swap1\n      dup2\n      add\n      0x40\n      mstore\n      dup1\n      swap3\n      swap2\n      swap1\n      dup2\n      dup2\n      mstore\n      0x20\n      add\n      dup3\n      dup1\n      sload\n      tag_16\n      swap1\n      tag_15\n      jump\t// in\n    tag_16:\n      dup1\n      iszero\n      tag_17\n      jumpi\n      dup1\n      0x1f\n      lt\n      tag_18\n      jumpi\n      0x0100\n      dup1\n      dup4\n      sload\n      div\n      mul\n      dup4\n      mstore\n      swap2\n      0x20\n      add\n      swap2\n      jump(tag_17)\n    tag_18:\n      dup3\n      add\n      swap2\n      swap1\n      0x00\n      mstore\n      keccak256(0x00, 0x20)\n      swap1\n    tag_19:\n      dup2\n      sload\n      dup2\n      mstore\n      swap1\n      0x01\n      add\n      swap1\n      0x20\n      add\n      dup1\n      dup4\n      gt\n      tag_19\n      jumpi\n      dup3\n      swap1\n      sub\n      0x1f\n      and\n      dup3\n      add\n      swap2\n    tag_17:\n      pop\n      pop\n      pop\n      pop\n      pop\n      dup2\n      mstore\n      0x20\n      add\n      0x01\n      dup3\n      add\n      dup1\n      sload\n      tag_20\n      swap1\n      tag_15\n      jump\t// in\n    tag_20:\n      dup1\n      0x1f\n      add\n      0x20\n      dup1\n      swap2\n      div\n      mul\n      0x20\n      add\n      mload(0x40)\n      swap1\n      dup2\n      add\n      0x40\n      mstore\n      dup1\n      swap3\n      swap2\n      swap1\n      dup2\n      dup2\n      mstore\n      0x20\n      add\n      dup3\n      dup1\n      sload\n      tag_21\n      swap1\n      tag_15\n      jump\t// in\n    tag_21:\n      dup1\n      iszero\n      tag_22\n      jumpi\n      dup1\n      0x1f\n      lt\n      tag_23\n      jumpi\n      0x0100\n      dup1\n      dup4\n      sload\n      div\n      mul\n      dup4\n      mstore\n      swap2\n      0x20\n      add\n      swap2\n      jump(tag_22)\n    tag_23:\n      dup3\n      add\n      swap2\n      swap1\n      0x00\n      mstore\n      keccak256(0x00, 0x20)\n      swap1\n    tag_24:\n      dup2\n      sload\n      dup2\n      mstore\n      swap1\n      0x01\n      add\n      swap1\n      0x20\n      add\n      dup1\n      dup4\n      gt\n      tag_24\n      jumpi\n      dup3\n      swap1\n      sub\n      0x1f\n      and\n      dup3\n      add\n      swap2\n    tag_22:\n      pop\n      pop\n      pop\n      pop\n      pop\n      dup2\n      mstore\n      0x20\n      add\n      0x02\n      dup3\n      add\n      sload\n      dup2\n      mstore\n      pop\n      pop\n      swap1\n      pop\n        /* \"Labs (August)/Events/file03_11.sol\":1643:1673  personInfo(_name,_gender,_age) */\n      mload(0x40)\n      dup1\n      0x60\n      add\n      0x40\n      mstore\n      dup1\n        /* \"Labs (August)/Events/file03_11.sol\":1654:1659  _name */\n      dup6\n        /* \"Labs (August)/Events/file03_11.sol\":1643:1673  personInfo(_name,_gender,_age) */\n      dup2\n      mstore\n      0x20\n      add\n        /* \"Labs (August)/Events/file03_11.sol\":1660:1667  _gender */\n      dup5\n        /* \"Labs (August)/Events/file03_11.sol\":1643:1673  personInfo(_name,_gender,_age) */\n      dup2\n      mstore\n      0x20\n      add\n        /* \"Labs (August)/Events/file03_11.sol\":1668:1672  _age */\n      dup4\n        /* \"Labs (August)/Events/file03_11.sol\":1643:1673  personInfo(_name,_gender,_age) */\n      dup2\n      mstore\n      pop\n        /* \"Labs (August)/Events/file03_11.sol\":1639:1641  p1 */\n      0x00\n        /* \"Labs (August)/Events/file03_11.sol\":1639:1673  p1= personInfo(_name,_gender,_age) */\n      dup1\n      dup3\n      add\n      mload\n      dup2\n      0x00\n      add\n      swap1\n      dup2\n      tag_25\n      swap2\n      swap1\n      tag_26\n      jump\t// in\n    tag_25:\n      pop\n      0x20\n      dup3\n      add\n      mload\n      dup2\n      0x01\n      add\n      swap1\n      dup2\n      tag_27\n      swap2\n      swap1\n      tag_26\n      jump\t// in\n    tag_27:\n      pop\n      0x40\n      dup3\n      add\n      mload\n      dup2\n      0x02\n      add\n      sstore\n      swap1\n      pop\n      pop\n        /* \"Labs (August)/Events/file03_11.sol\":1689:1736  Update(temp, p1, block.number, block.timestamp) */\n      0xb22ecf1a60777746a583bc05c703764abd570daa4ed40ac187911a118bb24a4c\n        /* \"Labs (August)/Events/file03_11.sol\":1696:1700  temp */\n      dup2\n        /* \"Labs (August)/Events/file03_11.sol\":1702:1704  p1 */\n      0x00\n        /* \"Labs (August)/Events/file03_11.sol\":1706:1718  block.number */\n      number\n        /* \"Labs (August)/Events/file03_11.sol\":1720:1735  block.timestamp */\n      timestamp\n        /* \"Labs (August)/Events/file03_11.sol\":1689:1736  Update(temp, p1, block.number, block.timestamp) */\n      mload(0x40)\n      tag_28\n      swap5\n      swap4\n      swap3\n      swap2\n      swap1\n      tag_29\n      jump\t// in\n    tag_28:\n      mload(0x40)\n      dup1\n      swap2\n      sub\n      swap1\n      log1\n        /* \"Labs (August)/Events/file03_11.sol\":1590:1744  {... */\n      pop\n        /* \"Labs (August)/Events/file03_11.sol\":1506:1744  function setnewperson(string memory _name, string memory _gender, uint _age) public {... */\n      pop\n      pop\n      pop\n      jump\t// out\n        /* \"Labs (August)/Events/file03_11.sol\":1337:1357  personInfo public p1 */\n    tag_10:\n      0x00\n      dup1\n      0x00\n      add\n      dup1\n      sload\n      tag_30\n      swap1\n      tag_15\n      jump\t// in\n    tag_30:\n      dup1\n      0x1f\n      add\n      0x20\n      dup1\n      swap2\n      div\n      mul\n      0x20\n      add\n      mload(0x40)\n      swap1\n      dup2\n      add\n      0x40\n      mstore\n      dup1\n      swap3\n      swap2\n      swap1\n      dup2\n      dup2\n      mstore\n      0x20\n      add\n      dup3\n      dup1\n      sload\n      tag_31\n      swap1\n      tag_15\n      jump\t// in\n    tag_31:\n      dup1\n      iszero\n      tag_32\n      jumpi\n      dup1\n      0x1f\n      lt\n      tag_33\n      jumpi\n      0x0100\n      dup1\n      dup4\n      sload\n      div\n      mul\n      dup4\n      mstore\n      swap2\n      0x20\n      add\n      swap2\n      jump(tag_32)\n    tag_33:\n      dup3\n      add\n      swap2\n      swap1\n      0x00\n      mstore\n      keccak256(0x00, 0x20)\n      swap1\n    tag_34:\n      dup2\n      sload\n      dup2\n      mstore\n      swap1\n      0x01\n      add\n      swap1\n      0x20\n      add\n      dup1\n      dup4\n      gt\n      tag_34\n      jumpi\n      dup3\n      swap1\n      sub\n      0x1f\n      and\n      dup3\n      add\n      swap2\n    tag_32:\n      pop\n      pop\n      pop\n      pop\n      pop\n      swap1\n      dup1\n      0x01\n      add\n      dup1\n      sload\n      tag_35\n      swap1\n      tag_15\n      jump\t// in\n    tag_35:\n      dup1\n      0x1f\n      add\n      0x20\n      dup1\n      swap2\n      div\n      mul\n      0x20\n      add\n      mload(0x40)\n      swap1\n      dup2\n      add\n      0x40\n      mstore\n      dup1\n      swap3\n      swap2\n      swap1\n      dup2\n      dup2\n      mstore\n      0x20\n      add\n      dup3\n      dup1\n      sload\n      tag_36\n      swap1\n      tag_15\n      jump\t// in\n    tag_36:\n      dup1\n      iszero\n      tag_37\n      jumpi\n      dup1\n      0x1f\n      lt\n      tag_38\n      jumpi\n      0x0100\n      dup1\n      dup4\n      sload\n      div\n      mul\n      dup4\n      mstore\n      swap2\n      0x20\n      add\n      swap2\n      jump(tag_37)\n    tag_38:\n      dup3\n      add\n      swap2\n      swap1\n      0x00\n      mstore\n      keccak256(0x00, 0x20)\n      swap1\n    tag_39:\n      dup2\n      sload\n      dup2\n      mstore\n      swap1\n      0x01\n      add\n      swap1\n      0x20\n      add\n      dup1\n      dup4\n      gt\n      tag_39\n      jumpi\n      dup3\n      swap1\n      sub\n      0x1f\n      and\n      dup3\n      add\n      swap2\n    tag_37:\n      pop\n      pop\n      pop\n      pop\n      pop\n      swap1\n      dup1\n      0x02\n      add\n      sload\n      swap1\n      pop\n      dup4\n      jump\t// out\n        /* \"#utility.yul\":7:82   */\n    tag_40:\n        /* \"#utility.yul\":40:46   */\n      0x00\n        /* \"#utility.yul\":73:75   */\n      0x40\n        /* \"#utility.yul\":67:76   */\n      mload\n        /* \"#utility.yul\":57:76   */\n      swap1\n      pop\n        /* \"#utility.yul\":7:82   */\n      swap1\n      jump\t// out\n        /* \"#utility.yul\":88:205   */\n    tag_41:\n        /* \"#utility.yul\":197:198   */\n      0x00\n        /* \"#utility.yul\":194:195   */\n      dup1\n        /* \"#utility.yul\":187:199   */\n      revert\n        /* \"#utility.yul\":211:328   */\n    tag_42:\n        /* \"#utility.yul\":320:321   */\n      0x00\n        /* \"#utility.yul\":317:318   */\n      dup1\n        /* \"#utility.yul\":310:322   */\n      revert\n        /* \"#utility.yul\":334:451   */\n    tag_43:\n        /* \"#utility.yul\":443:444   */\n      0x00\n        /* \"#utility.yul\":440:441   */\n      dup1\n        /* \"#utility.yul\":433:445   */\n      revert\n        /* \"#utility.yul\":457:574   */\n    tag_44:\n        /* \"#utility.yul\":566:567   */\n      0x00\n        /* \"#utility.yul\":563:564   */\n      dup1\n        /* \"#utility.yul\":556:568   */\n      revert\n        /* \"#utility.yul\":580:682   */\n    tag_45:\n        /* \"#utility.yul\":621:627   */\n      0x00\n        /* \"#utility.yul\":672:674   */\n      0x1f\n        /* \"#utility.yul\":668:675   */\n      not\n        /* \"#utility.yul\":663:665   */\n      0x1f\n        /* \"#utility.yul\":656:661   */\n      dup4\n        /* \"#utility.yul\":652:666   */\n      add\n        /* \"#utility.yul\":648:676   */\n      and\n        /* \"#utility.yul\":638:676   */\n      swap1\n      pop\n        /* \"#utility.yul\":580:682   */\n      swap2\n      swap1\n      pop\n      jump\t// out\n        /* \"#utility.yul\":688:868   */\n    tag_46:\n        /* \"#utility.yul\":736:813   */\n      0x4e487b7100000000000000000000000000000000000000000000000000000000\n        /* \"#utility.yul\":733:734   */\n      0x00\n        /* \"#utility.yul\":726:814   */\n      mstore\n        /* \"#utility.yul\":833:837   */\n      0x41\n        /* \"#utility.yul\":830:831   */\n      0x04\n        /* \"#utility.yul\":823:838   */\n      mstore\n        /* \"#utility.yul\":857:861   */\n      0x24\n        /* \"#utility.yul\":854:855   */\n      0x00\n        /* \"#utility.yul\":847:862   */\n      revert\n        /* \"#utility.yul\":874:1155   */\n    tag_47:\n        /* \"#utility.yul\":957:984   */\n      tag_95\n        /* \"#utility.yul\":979:983   */\n      dup3\n        /* \"#utility.yul\":957:984   */\n      tag_45\n      jump\t// in\n    tag_95:\n        /* \"#utility.yul\":949:955   */\n      dup2\n        /* \"#utility.yul\":945:985   */\n      add\n        /* \"#utility.yul\":1087:1093   */\n      dup2\n        /* \"#utility.yul\":1075:1085   */\n      dup2\n        /* \"#utility.yul\":1072:1094   */\n      lt\n        /* \"#utility.yul\":1051:1069   */\n      0xffffffffffffffff\n        /* \"#utility.yul\":1039:1049   */\n      dup3\n        /* \"#utility.yul\":1036:1070   */\n      gt\n        /* \"#utility.yul\":1033:1095   */\n      or\n        /* \"#utility.yul\":1030:1118   */\n      iszero\n      tag_96\n      jumpi\n        /* \"#utility.yul\":1098:1116   */\n      tag_97\n      tag_46\n      jump\t// in\n    tag_97:\n        /* \"#utility.yul\":1030:1118   */\n    tag_96:\n        /* \"#utility.yul\":1138:1148   */\n      dup1\n        /* \"#utility.yul\":1134:1136   */\n      0x40\n        /* \"#utility.yul\":1127:1149   */\n      mstore\n        /* \"#utility.yul\":917:1155   */\n      pop\n        /* \"#utility.yul\":874:1155   */\n      pop\n      pop\n      jump\t// out\n        /* \"#utility.yul\":1161:1290   */\n    tag_48:\n        /* \"#utility.yul\":1195:1201   */\n      0x00\n        /* \"#utility.yul\":1222:1242   */\n      tag_99\n      tag_40\n      jump\t// in\n    tag_99:\n        /* \"#utility.yul\":1212:1242   */\n      swap1\n      pop\n        /* \"#utility.yul\":1251:1284   */\n      tag_100\n        /* \"#utility.yul\":1279:1283   */\n      dup3\n        /* \"#utility.yul\":1271:1277   */\n      dup3\n        /* \"#utility.yul\":1251:1284   */\n      tag_47\n      jump\t// in\n    tag_100:\n        /* \"#utility.yul\":1161:1290   */\n      swap2\n      swap1\n      pop\n      jump\t// out\n        /* \"#utility.yul\":1296:1604   */\n    tag_49:\n        /* \"#utility.yul\":1358:1362   */\n      0x00\n        /* \"#utility.yul\":1448:1466   */\n      0xffffffffffffffff\n        /* \"#utility.yul\":1440:1446   */\n      dup3\n        /* \"#utility.yul\":1437:1467   */\n      gt\n        /* \"#utility.yul\":1434:1490   */\n      iszero\n      tag_102\n      jumpi\n        /* \"#utility.yul\":1470:1488   */\n      tag_103\n      tag_46\n      jump\t// in\n    tag_103:\n        /* \"#utility.yul\":1434:1490   */\n    tag_102:\n        /* \"#utility.yul\":1508:1537   */\n      tag_104\n        /* \"#utility.yul\":1530:1536   */\n      dup3\n        /* \"#utility.yul\":1508:1537   */\n      tag_45\n      jump\t// in\n    tag_104:\n        /* \"#utility.yul\":1500:1537   */\n      swap1\n      pop\n        /* \"#utility.yul\":1592:1596   */\n      0x20\n        /* \"#utility.yul\":1586:1590   */\n      dup2\n        /* \"#utility.yul\":1582:1597   */\n      add\n        /* \"#utility.yul\":1574:1597   */\n      swap1\n      pop\n        /* \"#utility.yul\":1296:1604   */\n      swap2\n      swap1\n      pop\n      jump\t// out\n        /* \"#utility.yul\":1610:1756   */\n    tag_50:\n        /* \"#utility.yul\":1707:1713   */\n      dup3\n        /* \"#utility.yul\":1702:1705   */\n      dup2\n        /* \"#utility.yul\":1697:1700   */\n      dup4\n        /* \"#utility.yul\":1684:1714   */\n      calldatacopy\n        /* \"#utility.yul\":1748:1749   */\n      0x00\n        /* \"#utility.yul\":1739:1745   */\n      dup4\n        /* \"#utility.yul\":1734:1737   */\n      dup4\n        /* \"#utility.yul\":1730:1746   */\n      add\n        /* \"#utility.yul\":1723:1750   */\n      mstore\n        /* \"#utility.yul\":1610:1756   */\n      pop\n      pop\n      pop\n      jump\t// out\n        /* \"#utility.yul\":1762:2187   */\n    tag_51:\n        /* \"#utility.yul\":1840:1845   */\n      0x00\n        /* \"#utility.yul\":1865:1931   */\n      tag_107\n        /* \"#utility.yul\":1881:1930   */\n      tag_108\n        /* \"#utility.yul\":1923:1929   */\n      dup5\n        /* \"#utility.yul\":1881:1930   */\n      tag_49\n      jump\t// in\n    tag_108:\n        /* \"#utility.yul\":1865:1931   */\n      tag_48\n      jump\t// in\n    tag_107:\n        /* \"#utility.yul\":1856:1931   */\n      swap1\n      pop\n        /* \"#utility.yul\":1954:1960   */\n      dup3\n        /* \"#utility.yul\":1947:1952   */\n      dup2\n        /* \"#utility.yul\":1940:1961   */\n      mstore\n        /* \"#utility.yul\":1992:1996   */\n      0x20\n        /* \"#utility.yul\":1985:1990   */\n      dup2\n        /* \"#utility.yul\":1981:1997   */\n      add\n        /* \"#utility.yul\":2030:2033   */\n      dup5\n        /* \"#utility.yul\":2021:2027   */\n      dup5\n        /* \"#utility.yul\":2016:2019   */\n      dup5\n        /* \"#utility.yul\":2012:2028   */\n      add\n        /* \"#utility.yul\":2009:2034   */\n      gt\n        /* \"#utility.yul\":2006:2118   */\n      iszero\n      tag_109\n      jumpi\n        /* \"#utility.yul\":2037:2116   */\n      tag_110\n      tag_44\n      jump\t// in\n    tag_110:\n        /* \"#utility.yul\":2006:2118   */\n    tag_109:\n        /* \"#utility.yul\":2127:2181   */\n      tag_111\n        /* \"#utility.yul\":2174:2180   */\n      dup5\n        /* \"#utility.yul\":2169:2172   */\n      dup3\n        /* \"#utility.yul\":2164:2167   */\n      dup6\n        /* \"#utility.yul\":2127:2181   */\n      tag_50\n      jump\t// in\n    tag_111:\n        /* \"#utility.yul\":1846:2187   */\n      pop\n        /* \"#utility.yul\":1762:2187   */\n      swap4\n      swap3\n      pop\n      pop\n      pop\n      jump\t// out\n        /* \"#utility.yul\":2207:2547   */\n    tag_52:\n        /* \"#utility.yul\":2263:2268   */\n      0x00\n        /* \"#utility.yul\":2312:2315   */\n      dup3\n        /* \"#utility.yul\":2305:2309   */\n      0x1f\n        /* \"#utility.yul\":2297:2303   */\n      dup4\n        /* \"#utility.yul\":2293:2310   */\n      add\n        /* \"#utility.yul\":2289:2316   */\n      slt\n        /* \"#utility.yul\":2279:2401   */\n      tag_113\n      jumpi\n        /* \"#utility.yul\":2320:2399   */\n      tag_114\n      tag_43\n      jump\t// in\n    tag_114:\n        /* \"#utility.yul\":2279:2401   */\n    tag_113:\n        /* \"#utility.yul\":2437:2443   */\n      dup2\n        /* \"#utility.yul\":2424:2444   */\n      calldataload\n        /* \"#utility.yul\":2462:2541   */\n      tag_115\n        /* \"#utility.yul\":2537:2540   */\n      dup5\n        /* \"#utility.yul\":2529:2535   */\n      dup3\n        /* \"#utility.yul\":2522:2526   */\n      0x20\n        /* \"#utility.yul\":2514:2520   */\n      dup7\n        /* \"#utility.yul\":2510:2527   */\n      add\n        /* \"#utility.yul\":2462:2541   */\n      tag_51\n      jump\t// in\n    tag_115:\n        /* \"#utility.yul\":2453:2541   */\n      swap2\n      pop\n        /* \"#utility.yul\":2269:2547   */\n      pop\n        /* \"#utility.yul\":2207:2547   */\n      swap3\n      swap2\n      pop\n      pop\n      jump\t// out\n        /* \"#utility.yul\":2553:2630   */\n    tag_53:\n        /* \"#utility.yul\":2590:2597   */\n      0x00\n        /* \"#utility.yul\":2619:2624   */\n      dup2\n        /* \"#utility.yul\":2608:2624   */\n      swap1\n      pop\n        /* \"#utility.yul\":2553:2630   */\n      swap2\n      swap1\n      pop\n      jump\t// out\n        /* \"#utility.yul\":2636:2758   */\n    tag_54:\n        /* \"#utility.yul\":2709:2733   */\n      tag_118\n        /* \"#utility.yul\":2727:2732   */\n      dup2\n        /* \"#utility.yul\":2709:2733   */\n      tag_53\n      jump\t// in\n    tag_118:\n        /* \"#utility.yul\":2702:2707   */\n      dup2\n        /* \"#utility.yul\":2699:2734   */\n      eq\n        /* \"#utility.yul\":2689:2752   */\n      tag_119\n      jumpi\n        /* \"#utility.yul\":2748:2749   */\n      0x00\n        /* \"#utility.yul\":2745:2746   */\n      dup1\n        /* \"#utility.yul\":2738:2750   */\n      revert\n        /* \"#utility.yul\":2689:2752   */\n    tag_119:\n        /* \"#utility.yul\":2636:2758   */\n      pop\n      jump\t// out\n        /* \"#utility.yul\":2764:2903   */\n    tag_55:\n        /* \"#utility.yul\":2810:2815   */\n      0x00\n        /* \"#utility.yul\":2848:2854   */\n      dup2\n        /* \"#utility.yul\":2835:2855   */\n      calldataload\n        /* \"#utility.yul\":2826:2855   */\n      swap1\n      pop\n        /* \"#utility.yul\":2864:2897   */\n      tag_121\n        /* \"#utility.yul\":2891:2896   */\n      dup2\n        /* \"#utility.yul\":2864:2897   */\n      tag_54\n      jump\t// in\n    tag_121:\n        /* \"#utility.yul\":2764:2903   */\n      swap3\n      swap2\n      pop\n      pop\n      jump\t// out\n        /* \"#utility.yul\":2909:3888   */\n    tag_7:\n        /* \"#utility.yul\":3006:3012   */\n      0x00\n        /* \"#utility.yul\":3014:3020   */\n      dup1\n        /* \"#utility.yul\":3022:3028   */\n      0x00\n        /* \"#utility.yul\":3071:3073   */\n      0x60\n        /* \"#utility.yul\":3059:3068   */\n      dup5\n        /* \"#utility.yul\":3050:3057   */\n      dup7\n        /* \"#utility.yul\":3046:3069   */\n      sub\n        /* \"#utility.yul\":3042:3074   */\n      slt\n        /* \"#utility.yul\":3039:3158   */\n      iszero\n      tag_123\n      jumpi\n        /* \"#utility.yul\":3077:3156   */\n      tag_124\n      tag_41\n      jump\t// in\n    tag_124:\n        /* \"#utility.yul\":3039:3158   */\n    tag_123:\n        /* \"#utility.yul\":3225:3226   */\n      0x00\n        /* \"#utility.yul\":3214:3223   */\n      dup5\n        /* \"#utility.yul\":3210:3227   */\n      add\n        /* \"#utility.yul\":3197:3228   */\n      calldataload\n        /* \"#utility.yul\":3255:3273   */\n      0xffffffffffffffff\n        /* \"#utility.yul\":3247:3253   */\n      dup2\n        /* \"#utility.yul\":3244:3274   */\n      gt\n        /* \"#utility.yul\":3241:3358   */\n      iszero\n      tag_125\n      jumpi\n        /* \"#utility.yul\":3277:3356   */\n      tag_126\n      tag_42\n      jump\t// in\n    tag_126:\n        /* \"#utility.yul\":3241:3358   */\n    tag_125:\n        /* \"#utility.yul\":3382:3445   */\n      tag_127\n        /* \"#utility.yul\":3437:3444   */\n      dup7\n        /* \"#utility.yul\":3428:3434   */\n      dup3\n        /* \"#utility.yul\":3417:3426   */\n      dup8\n        /* \"#utility.yul\":3413:3435   */\n      add\n        /* \"#utility.yul\":3382:3445   */\n      tag_52\n      jump\t// in\n    tag_127:\n        /* \"#utility.yul\":3372:3445   */\n      swap4\n      pop\n        /* \"#utility.yul\":3168:3455   */\n      pop\n        /* \"#utility.yul\":3522:3524   */\n      0x20\n        /* \"#utility.yul\":3511:3520   */\n      dup5\n        /* \"#utility.yul\":3507:3525   */\n      add\n        /* \"#utility.yul\":3494:3526   */\n      calldataload\n        /* \"#utility.yul\":3553:3571   */\n      0xffffffffffffffff\n        /* \"#utility.yul\":3545:3551   */\n      dup2\n        /* \"#utility.yul\":3542:3572   */\n      gt\n        /* \"#utility.yul\":3539:3656   */\n      iszero\n      tag_128\n      jumpi\n        /* \"#utility.yul\":3575:3654   */\n      tag_129\n      tag_42\n      jump\t// in\n    tag_129:\n        /* \"#utility.yul\":3539:3656   */\n    tag_128:\n        /* \"#utility.yul\":3680:3743   */\n      tag_130\n        /* \"#utility.yul\":3735:3742   */\n      dup7\n        /* \"#utility.yul\":3726:3732   */\n      dup3\n        /* \"#utility.yul\":3715:3724   */\n      dup8\n        /* \"#utility.yul\":3711:3733   */\n      add\n        /* \"#utility.yul\":3680:3743   */\n      tag_52\n      jump\t// in\n    tag_130:\n        /* \"#utility.yul\":3670:3743   */\n      swap3\n      pop\n        /* \"#utility.yul\":3465:3753   */\n      pop\n        /* \"#utility.yul\":3792:3794   */\n      0x40\n        /* \"#utility.yul\":3818:3871   */\n      tag_131\n        /* \"#utility.yul\":3863:3870   */\n      dup7\n        /* \"#utility.yul\":3854:3860   */\n      dup3\n        /* \"#utility.yul\":3843:3852   */\n      dup8\n        /* \"#utility.yul\":3839:3861   */\n      add\n        /* \"#utility.yul\":3818:3871   */\n      tag_55\n      jump\t// in\n    tag_131:\n        /* \"#utility.yul\":3808:3871   */\n      swap2\n      pop\n        /* \"#utility.yul\":3763:3881   */\n      pop\n        /* \"#utility.yul\":2909:3888   */\n      swap3\n      pop\n      swap3\n      pop\n      swap3\n      jump\t// out\n        /* \"#utility.yul\":3894:3993   */\n    tag_56:\n        /* \"#utility.yul\":3946:3952   */\n      0x00\n        /* \"#utility.yul\":3980:3985   */\n      dup2\n        /* \"#utility.yul\":3974:3986   */\n      mload\n        /* \"#utility.yul\":3964:3986   */\n      swap1\n      pop\n        /* \"#utility.yul\":3894:3993   */\n      swap2\n      swap1\n      pop\n      jump\t// out\n        /* \"#utility.yul\":3999:4168   */\n    tag_57:\n        /* \"#utility.yul\":4083:4094   */\n      0x00\n        /* \"#utility.yul\":4117:4123   */\n      dup3\n        /* \"#utility.yul\":4112:4115   */\n      dup3\n        /* \"#utility.yul\":4105:4124   */\n      mstore\n        /* \"#utility.yul\":4157:4161   */\n      0x20\n        /* \"#utility.yul\":4152:4155   */\n      dup3\n        /* \"#utility.yul\":4148:4162   */\n      add\n        /* \"#utility.yul\":4133:4162   */\n      swap1\n      pop\n        /* \"#utility.yul\":3999:4168   */\n      swap3\n      swap2\n      pop\n      pop\n      jump\t// out\n        /* \"#utility.yul\":4174:4420   */\n    tag_58:\n        /* \"#utility.yul\":4255:4256   */\n      0x00\n        /* \"#utility.yul\":4265:4378   */\n    tag_135:\n        /* \"#utility.yul\":4279:4285   */\n      dup4\n        /* \"#utility.yul\":4276:4277   */\n      dup2\n        /* \"#utility.yul\":4273:4286   */\n      lt\n        /* \"#utility.yul\":4265:4378   */\n      iszero\n      tag_137\n      jumpi\n        /* \"#utility.yul\":4364:4365   */\n      dup1\n        /* \"#utility.yul\":4359:4362   */\n      dup3\n        /* \"#utility.yul\":4355:4366   */\n      add\n        /* \"#utility.yul\":4349:4367   */\n      mload\n        /* \"#utility.yul\":4345:4346   */\n      dup2\n        /* \"#utility.yul\":4340:4343   */\n      dup5\n        /* \"#utility.yul\":4336:4347   */\n      add\n        /* \"#utility.yul\":4329:4368   */\n      mstore\n        /* \"#utility.yul\":4301:4303   */\n      0x20\n        /* \"#utility.yul\":4298:4299   */\n      dup2\n        /* \"#utility.yul\":4294:4304   */\n      add\n        /* \"#utility.yul\":4289:4304   */\n      swap1\n      pop\n        /* \"#utility.yul\":4265:4378   */\n      jump(tag_135)\n    tag_137:\n        /* \"#utility.yul\":4412:4413   */\n      0x00\n        /* \"#utility.yul\":4403:4409   */\n      dup5\n        /* \"#utility.yul\":4398:4401   */\n      dup5\n        /* \"#utility.yul\":4394:4410   */\n      add\n        /* \"#utility.yul\":4387:4414   */\n      mstore\n        /* \"#utility.yul\":4236:4420   */\n      pop\n        /* \"#utility.yul\":4174:4420   */\n      pop\n      pop\n      pop\n      jump\t// out\n        /* \"#utility.yul\":4426:4803   */\n    tag_59:\n        /* \"#utility.yul\":4514:4517   */\n      0x00\n        /* \"#utility.yul\":4542:4581   */\n      tag_139\n        /* \"#utility.yul\":4575:4580   */\n      dup3\n        /* \"#utility.yul\":4542:4581   */\n      tag_56\n      jump\t// in\n    tag_139:\n        /* \"#utility.yul\":4597:4668   */\n      tag_140\n        /* \"#utility.yul\":4661:4667   */\n      dup2\n        /* \"#utility.yul\":4656:4659   */\n      dup6\n        /* \"#utility.yul\":4597:4668   */\n      tag_57\n      jump\t// in\n    tag_140:\n        /* \"#utility.yul\":4590:4668   */\n      swap4\n      pop\n        /* \"#utility.yul\":4677:4742   */\n      tag_141\n        /* \"#utility.yul\":4735:4741   */\n      dup2\n        /* \"#utility.yul\":4730:4733   */\n      dup6\n        /* \"#utility.yul\":4723:4727   */\n      0x20\n        /* \"#utility.yul\":4716:4721   */\n      dup7\n        /* \"#utility.yul\":4712:4728   */\n      add\n        /* \"#utility.yul\":4677:4742   */\n      tag_58\n      jump\t// in\n    tag_141:\n        /* \"#utility.yul\":4767:4796   */\n      tag_142\n        /* \"#utility.yul\":4789:4795   */\n      dup2\n        /* \"#utility.yul\":4767:4796   */\n      tag_45\n      jump\t// in\n    tag_142:\n        /* \"#utility.yul\":4762:4765   */\n      dup5\n        /* \"#utility.yul\":4758:4797   */\n      add\n        /* \"#utility.yul\":4751:4797   */\n      swap2\n      pop\n        /* \"#utility.yul\":4518:4803   */\n      pop\n        /* \"#utility.yul\":4426:4803   */\n      swap3\n      swap2\n      pop\n      pop\n      jump\t// out\n        /* \"#utility.yul\":4809:4927   */\n    tag_60:\n        /* \"#utility.yul\":4896:4920   */\n      tag_144\n        /* \"#utility.yul\":4914:4919   */\n      dup2\n        /* \"#utility.yul\":4896:4920   */\n      tag_53\n      jump\t// in\n    tag_144:\n        /* \"#utility.yul\":4891:4894   */\n      dup3\n        /* \"#utility.yul\":4884:4921   */\n      mstore\n        /* \"#utility.yul\":4809:4927   */\n      pop\n      pop\n      jump\t// out\n        /* \"#utility.yul\":4933:5557   */\n    tag_12:\n        /* \"#utility.yul\":5122:5126   */\n      0x00\n        /* \"#utility.yul\":5160:5162   */\n      0x60\n        /* \"#utility.yul\":5149:5158   */\n      dup3\n        /* \"#utility.yul\":5145:5163   */\n      add\n        /* \"#utility.yul\":5137:5163   */\n      swap1\n      pop\n        /* \"#utility.yul\":5209:5218   */\n      dup2\n        /* \"#utility.yul\":5203:5207   */\n      dup2\n        /* \"#utility.yul\":5199:5219   */\n      sub\n        /* \"#utility.yul\":5195:5196   */\n      0x00\n        /* \"#utility.yul\":5184:5193   */\n      dup4\n        /* \"#utility.yul\":5180:5197   */\n      add\n        /* \"#utility.yul\":5173:5220   */\n      mstore\n        /* \"#utility.yul\":5237:5315   */\n      tag_146\n        /* \"#utility.yul\":5310:5314   */\n      dup2\n        /* \"#utility.yul\":5301:5307   */\n      dup7\n        /* \"#utility.yul\":5237:5315   */\n      tag_59\n      jump\t// in\n    tag_146:\n        /* \"#utility.yul\":5229:5315   */\n      swap1\n      pop\n        /* \"#utility.yul\":5362:5371   */\n      dup2\n        /* \"#utility.yul\":5356:5360   */\n      dup2\n        /* \"#utility.yul\":5352:5372   */\n      sub\n        /* \"#utility.yul\":5347:5349   */\n      0x20\n        /* \"#utility.yul\":5336:5345   */\n      dup4\n        /* \"#utility.yul\":5332:5350   */\n      add\n        /* \"#utility.yul\":5325:5373   */\n      mstore\n        /* \"#utility.yul\":5390:5468   */\n      tag_147\n        /* \"#utility.yul\":5463:5467   */\n      dup2\n        /* \"#utility.yul\":5454:5460   */\n      dup6\n        /* \"#utility.yul\":5390:5468   */\n      tag_59\n      jump\t// in\n    tag_147:\n        /* \"#utility.yul\":5382:5468   */\n      swap1\n      pop\n        /* \"#utility.yul\":5478:5550   */\n      tag_148\n        /* \"#utility.yul\":5546:5548   */\n      0x40\n        /* \"#utility.yul\":5535:5544   */\n      dup4\n        /* \"#utility.yul\":5531:5549   */\n      add\n        /* \"#utility.yul\":5522:5528   */\n      dup5\n        /* \"#utility.yul\":5478:5550   */\n      tag_60\n      jump\t// in\n    tag_148:\n        /* \"#utility.yul\":4933:5557   */\n      swap5\n      swap4\n      pop\n      pop\n      pop\n      pop\n      jump\t// out\n        /* \"#utility.yul\":5563:5743   */\n    tag_61:\n        /* \"#utility.yul\":5611:5688   */\n      0x4e487b7100000000000000000000000000000000000000000000000000000000\n        /* \"#utility.yul\":5608:5609   */\n      0x00\n        /* \"#utility.yul\":5601:5689   */\n      mstore\n        /* \"#utility.yul\":5708:5712   */\n      0x22\n        /* \"#utility.yul\":5705:5706   */\n      0x04\n        /* \"#utility.yul\":5698:5713   */\n      mstore\n        /* \"#utility.yul\":5732:5736   */\n      0x24\n        /* \"#utility.yul\":5729:5730   */\n      0x00\n        /* \"#utility.yul\":5722:5737   */\n      revert\n        /* \"#utility.yul\":5749:6069   */\n    tag_15:\n        /* \"#utility.yul\":5793:5799   */\n      0x00\n        /* \"#utility.yul\":5830:5831   */\n      0x02\n        /* \"#utility.yul\":5824:5828   */\n      dup3\n        /* \"#utility.yul\":5820:5832   */\n      div\n        /* \"#utility.yul\":5810:5832   */\n      swap1\n      pop\n        /* \"#utility.yul\":5877:5878   */\n      0x01\n        /* \"#utility.yul\":5871:5875   */\n      dup3\n        /* \"#utility.yul\":5867:5879   */\n      and\n        /* \"#utility.yul\":5898:5916   */\n      dup1\n        /* \"#utility.yul\":5888:5969   */\n      tag_151\n      jumpi\n        /* \"#utility.yul\":5954:5958   */\n      0x7f\n        /* \"#utility.yul\":5946:5952   */\n      dup3\n        /* \"#utility.yul\":5942:5959   */\n      and\n        /* \"#utility.yul\":5932:5959   */\n      swap2\n      pop\n        /* \"#utility.yul\":5888:5969   */\n    tag_151:\n        /* \"#utility.yul\":6016:6018   */\n      0x20\n        /* \"#utility.yul\":6008:6014   */\n      dup3\n        /* \"#utility.yul\":6005:6019   */\n      lt\n        /* \"#utility.yul\":5985:6003   */\n      dup2\n        /* \"#utility.yul\":5982:6020   */\n      sub\n        /* \"#utility.yul\":5979:6063   */\n      tag_152\n      jumpi\n        /* \"#utility.yul\":6035:6053   */\n      tag_153\n      tag_61\n      jump\t// in\n    tag_153:\n        /* \"#utility.yul\":5979:6063   */\n    tag_152:\n        /* \"#utility.yul\":5800:6069   */\n      pop\n        /* \"#utility.yul\":5749:6069   */\n      swap2\n      swap1\n      pop\n      jump\t// out\n        /* \"#utility.yul\":6075:6216   */\n    tag_62:\n        /* \"#utility.yul\":6124:6128   */\n      0x00\n        /* \"#utility.yul\":6147:6150   */\n      dup2\n        /* \"#utility.yul\":6139:6150   */\n      swap1\n      pop\n        /* \"#utility.yul\":6170:6173   */\n      dup2\n        /* \"#utility.yul\":6167:6168   */\n      0x00\n        /* \"#utility.yul\":6160:6174   */\n      mstore\n        /* \"#utility.yul\":6204:6208   */\n      0x20\n        /* \"#utility.yul\":6201:6202   */\n      0x00\n        /* \"#utility.yul\":6191:6209   */\n      keccak256\n        /* \"#utility.yul\":6183:6209   */\n      swap1\n      pop\n        /* \"#utility.yul\":6075:6216   */\n      swap2\n      swap1\n      pop\n      jump\t// out\n        /* \"#utility.yul\":6222:6315   */\n    tag_63:\n        /* \"#utility.yul\":6259:6265   */\n      0x00\n        /* \"#utility.yul\":6306:6308   */\n      0x20\n        /* \"#utility.yul\":6301:6303   */\n      0x1f\n        /* \"#utility.yul\":6294:6299   */\n      dup4\n        /* \"#utility.yul\":6290:6304   */\n      add\n        /* \"#utility.yul\":6286:6309   */\n      div\n        /* \"#utility.yul\":6276:6309   */\n      swap1\n      pop\n        /* \"#utility.yul\":6222:6315   */\n      swap2\n      swap1\n      pop\n      jump\t// out\n        /* \"#utility.yul\":6321:6428   */\n    tag_64:\n        /* \"#utility.yul\":6365:6373   */\n      0x00\n        /* \"#utility.yul\":6415:6420   */\n      dup3\n        /* \"#utility.yul\":6409:6413   */\n      dup3\n        /* \"#utility.yul\":6405:6421   */\n      shl\n        /* \"#utility.yul\":6384:6421   */\n      swap1\n      pop\n        /* \"#utility.yul\":6321:6428   */\n      swap3\n      swap2\n      pop\n      pop\n      jump\t// out\n        /* \"#utility.yul\":6434:6827   */\n    tag_65:\n        /* \"#utility.yul\":6503:6509   */\n      0x00\n        /* \"#utility.yul\":6553:6554   */\n      0x08\n        /* \"#utility.yul\":6541:6551   */\n      dup4\n        /* \"#utility.yul\":6537:6555   */\n      mul\n        /* \"#utility.yul\":6576:6673   */\n      tag_158\n        /* \"#utility.yul\":6606:6672   */\n      0xffffffffffffffffffffffffffffffffffffffffffffffffffffffffffffffff\n        /* \"#utility.yul\":6595:6604   */\n      dup3\n        /* \"#utility.yul\":6576:6673   */\n      tag_64\n      jump\t// in\n    tag_158:\n        /* \"#utility.yul\":6694:6733   */\n      tag_159\n        /* \"#utility.yul\":6724:6732   */\n      dup7\n        /* \"#utility.yul\":6713:6722   */\n      dup4\n        /* \"#utility.yul\":6694:6733   */\n      tag_64\n      jump\t// in\n    tag_159:\n        /* \"#utility.yul\":6682:6733   */\n      swap6\n      pop\n        /* \"#utility.yul\":6766:6770   */\n      dup1\n        /* \"#utility.yul\":6762:6771   */\n      not\n        /* \"#utility.yul\":6755:6760   */\n      dup5\n        /* \"#utility.yul\":6751:6772   */\n      and\n        /* \"#utility.yul\":6742:6772   */\n      swap4\n      pop\n        /* \"#utility.yul\":6815:6819   */\n      dup1\n        /* \"#utility.yul\":6805:6813   */\n      dup7\n        /* \"#utility.yul\":6801:6820   */\n      and\n        /* \"#utility.yul\":6794:6799   */\n      dup5\n        /* \"#utility.yul\":6791:6821   */\n      or\n        /* \"#utility.yul\":6781:6821   */\n      swap3\n      pop\n        /* \"#utility.yul\":6510:6827   */\n      pop\n      pop\n        /* \"#utility.yul\":6434:6827   */\n      swap4\n      swap3\n      pop\n      pop\n      pop\n      jump\t// out\n        /* \"#utility.yul\":6833:6893   */\n    tag_66:\n        /* \"#utility.yul\":6861:6864   */\n      0x00\n        /* \"#utility.yul\":6882:6887   */\n      dup2\n        /* \"#utility.yul\":6875:6887   */\n      swap1\n      pop\n        /* \"#utility.yul\":6833:6893   */\n      swap2\n      swap1\n      pop\n      jump\t// out\n        /* \"#utility.yul\":6899:7041   */\n    tag_67:\n        /* \"#utility.yul\":6949:6958   */\n      0x00\n        /* \"#utility.yul\":6982:7035   */\n      tag_162\n        /* \"#utility.yul\":7000:7034   */\n      tag_163\n        /* \"#utility.yul\":7009:7033   */\n      tag_164\n        /* \"#utility.yul\":7027:7032   */\n      dup5\n        /* \"#utility.yul\":7009:7033   */\n      tag_53\n      jump\t// in\n    tag_164:\n        /* \"#utility.yul\":7000:7034   */\n      tag_66\n      jump\t// in\n    tag_163:\n        /* \"#utility.yul\":6982:7035   */\n      tag_53\n      jump\t// in\n    tag_162:\n        /* \"#utility.yul\":6969:7035   */\n      swap1\n      pop\n        /* \"#utility.yul\":6899:7041   */\n      swap2\n      swap1\n      pop\n      jump\t// out\n        /* \"#utility.yul\":7047:7122   */\n    tag_68:\n        /* \"#utility.yul\":7090:7093   */\n      0x00\n        /* \"#utility.yul\":7111:7116   */\n      dup2\n        /* \"#utility.yul\":7104:7116   */\n      swap1\n      pop\n        /* \"#utility.yul\":7047:7122   */\n      swap2\n      swap1\n      pop\n      jump\t// out\n        /* \"#utility.yul\":7128:7397   */\n    tag_69:\n        /* \"#utility.yul\":7238:7277   */\n      tag_167\n        /* \"#utility.yul\":7269:7276   */\n      dup4\n        /* \"#utility.yul\":7238:7277   */\n      tag_67\n      jump\t// in\n    tag_167:\n        /* \"#utility.yul\":7299:7390   */\n      tag_168\n        /* \"#utility.yul\":7348:7389   */\n      tag_169\n        /* \"#utility.yul\":7372:7388   */\n      dup3\n        /* \"#utility.yul\":7348:7389   */\n      tag_68\n      jump\t// in\n    tag_169:\n        /* \"#utility.yul\":7340:7346   */\n      dup5\n        /* \"#utility.yul\":7333:7337   */\n      dup5\n        /* \"#utility.yul\":7327:7338   */\n      sload\n        /* \"#utility.yul\":7299:7390   */\n      tag_65\n      jump\t// in\n    tag_168:\n        /* \"#utility.yul\":7293:7297   */\n      dup3\n        /* \"#utility.yul\":7286:7391   */\n      sstore\n        /* \"#utility.yul\":7204:7397   */\n      pop\n        /* \"#utility.yul\":7128:7397   */\n      pop\n      pop\n      pop\n      jump\t// out\n        /* \"#utility.yul\":7403:7476   */\n    tag_70:\n        /* \"#utility.yul\":7448:7451   */\n      0x00\n        /* \"#utility.yul\":7403:7476   */\n      swap1\n      jump\t// out\n        /* \"#utility.yul\":7482:7671   */\n    tag_71:\n        /* \"#utility.yul\":7559:7591   */\n      tag_172\n      tag_70\n      jump\t// in\n    tag_172:\n        /* \"#utility.yul\":7600:7665   */\n      tag_173\n        /* \"#utility.yul\":7658:7664   */\n      dup2\n        /* \"#utility.yul\":7650:7656   */\n      dup5\n        /* \"#utility.yul\":7644:7648   */\n      dup5\n        /* \"#utility.yul\":7600:7665   */\n      tag_69\n      jump\t// in\n    tag_173:\n        /* \"#utility.yul\":7535:7671   */\n      pop\n        /* \"#utility.yul\":7482:7671   */\n      pop\n      pop\n      jump\t// out\n        /* \"#utility.yul\":7677:7863   */\n    tag_72:\n        /* \"#utility.yul\":7737:7857   */\n    tag_175:\n        /* \"#utility.yul\":7754:7757   */\n      dup2\n        /* \"#utility.yul\":7747:7752   */\n      dup2\n        /* \"#utility.yul\":7744:7758   */\n      lt\n        /* \"#utility.yul\":7737:7857   */\n      iszero\n      tag_177\n      jumpi\n        /* \"#utility.yul\":7808:7847   */\n      tag_178\n        /* \"#utility.yul\":7845:7846   */\n      0x00\n        /* \"#utility.yul\":7838:7843   */\n      dup3\n        /* \"#utility.yul\":7808:7847   */\n      tag_71\n      jump\t// in\n    tag_178:\n        /* \"#utility.yul\":7781:7782   */\n      0x01\n        /* \"#utility.yul\":7774:7779   */\n      dup2\n        /* \"#utility.yul\":7770:7783   */\n      add\n        /* \"#utility.yul\":7761:7783   */\n      swap1\n      pop\n        /* \"#utility.yul\":7737:7857   */\n      jump(tag_175)\n    tag_177:\n        /* \"#utility.yul\":7677:7863   */\n      pop\n      pop\n      jump\t// out\n        /* \"#utility.yul\":7869:8412   */\n    tag_73:\n        /* \"#utility.yul\":7970:7972   */\n      0x1f\n        /* \"#utility.yul\":7965:7968   */\n      dup3\n        /* \"#utility.yul\":7962:7973   */\n      gt\n        /* \"#utility.yul\":7959:8405   */\n      iszero\n      tag_180\n      jumpi\n        /* \"#utility.yul\":8004:8042   */\n      tag_181\n        /* \"#utility.yul\":8036:8041   */\n      dup2\n        /* \"#utility.yul\":8004:8042   */\n      tag_62\n      jump\t// in\n    tag_181:\n        /* \"#utility.yul\":8088:8117   */\n      tag_182\n        /* \"#utility.yul\":8106:8116   */\n      dup5\n        /* \"#utility.yul\":8088:8117   */\n      tag_63\n      jump\t// in\n    tag_182:\n        /* \"#utility.yul\":8078:8086   */\n      dup2\n        /* \"#utility.yul\":8074:8118   */\n      add\n        /* \"#utility.yul\":8271:8273   */\n      0x20\n        /* \"#utility.yul\":8259:8269   */\n      dup6\n        /* \"#utility.yul\":8256:8274   */\n      lt\n        /* \"#utility.yul\":8253:8302   */\n      iszero\n      tag_183\n      jumpi\n        /* \"#utility.yul\":8292:8300   */\n      dup2\n        /* \"#utility.yul\":8277:8300   */\n      swap1\n      pop\n        /* \"#utility.yul\":8253:8302   */\n    tag_183:\n        /* \"#utility.yul\":8315:8395   */\n      tag_184\n        /* \"#utility.yul\":8371:8393   */\n      tag_185\n        /* \"#utility.yul\":8389:8392   */\n      dup6\n        /* \"#utility.yul\":8371:8393   */\n      tag_63\n      jump\t// in\n    tag_185:\n        /* \"#utility.yul\":8361:8369   */\n      dup4\n        /* \"#utility.yul\":8357:8394   */\n      add\n        /* \"#utility.yul\":8344:8355   */\n      dup3\n        /* \"#utility.yul\":8315:8395   */\n      tag_72\n      jump\t// in\n    tag_184:\n        /* \"#utility.yul\":7974:8405   */\n      pop\n      pop\n        /* \"#utility.yul\":7959:8405   */\n    tag_180:\n        /* \"#utility.yul\":7869:8412   */\n      pop\n      pop\n      pop\n      jump\t// out\n        /* \"#utility.yul\":8418:8535   */\n    tag_74:\n        /* \"#utility.yul\":8472:8480   */\n      0x00\n        /* \"#utility.yul\":8522:8527   */\n      dup3\n        /* \"#utility.yul\":8516:8520   */\n      dup3\n        /* \"#utility.yul\":8512:8528   */\n      shr\n        /* \"#utility.yul\":8491:8528   */\n      swap1\n      pop\n        /* \"#utility.yul\":8418:8535   */\n      swap3\n      swap2\n      pop\n      pop\n      jump\t// out\n        /* \"#utility.yul\":8541:8710   */\n    tag_75:\n        /* \"#utility.yul\":8585:8591   */\n      0x00\n        /* \"#utility.yul\":8618:8669   */\n      tag_188\n        /* \"#utility.yul\":8666:8667   */\n      0x00\n        /* \"#utility.yul\":8662:8668   */\n      not\n        /* \"#utility.yul\":8654:8659   */\n      dup5\n        /* \"#utility.yul\":8651:8652   */\n      0x08\n        /* \"#utility.yul\":8647:8660   */\n      mul\n        /* \"#utility.yul\":8618:8669   */\n      tag_74\n      jump\t// in\n    tag_188:\n        /* \"#utility.yul\":8614:8670   */\n      not\n        /* \"#utility.yul\":8699:8703   */\n      dup1\n        /* \"#utility.yul\":8693:8697   */\n      dup4\n        /* \"#utility.yul\":8689:8704   */\n      and\n        /* \"#utility.yul\":8679:8704   */\n      swap2\n      pop\n        /* \"#utility.yul\":8592:8710   */\n      pop\n        /* \"#utility.yul\":8541:8710   */\n      swap3\n      swap2\n      pop\n      pop\n      jump\t// out\n        /* \"#utility.yul\":8715:9010   */\n    tag_76:\n        /* \"#utility.yul\":8791:8795   */\n      0x00\n        /* \"#utility.yul\":8937:8966   */\n      tag_190\n        /* \"#utility.yul\":8962:8965   */\n      dup4\n        /* \"#utility.yul\":8956:8960   */\n      dup4\n        /* \"#utility.yul\":8937:8966   */\n      tag_75\n      jump\t// in\n    tag_190:\n        /* \"#utility.yul\":8929:8966   */\n      swap2\n      pop\n        /* \"#utility.yul\":8999:9002   */\n      dup3\n        /* \"#utility.yul\":8996:8997   */\n      0x02\n        /* \"#utility.yul\":8992:9003   */\n      mul\n        /* \"#utility.yul\":8986:8990   */\n      dup3\n        /* \"#utility.yul\":8983:9004   */\n      or\n        /* \"#utility.yul\":8975:9004   */\n      swap1\n      pop\n        /* \"#utility.yul\":8715:9010   */\n      swap3\n      swap2\n      pop\n      pop\n      jump\t// out\n        /* \"#utility.yul\":9015:10410   */\n    tag_26:\n        /* \"#utility.yul\":9132:9169   */\n      tag_192\n        /* \"#utility.yul\":9165:9168   */\n      dup3\n        /* \"#utility.yul\":9132:9169   */\n      tag_56\n      jump\t// in\n    tag_192:\n        /* \"#utility.yul\":9234:9252   */\n      0xffffffffffffffff\n        /* \"#utility.yul\":9226:9232   */\n      dup2\n        /* \"#utility.yul\":9223:9253   */\n      gt\n        /* \"#utility.yul\":9220:9276   */\n      iszero\n      tag_193\n      jumpi\n        /* \"#utility.yul\":9256:9274   */\n      tag_194\n      tag_46\n      jump\t// in\n    tag_194:\n        /* \"#utility.yul\":9220:9276   */\n    tag_193:\n        /* \"#utility.yul\":9300:9338   */\n      tag_195\n        /* \"#utility.yul\":9332:9336   */\n      dup3\n        /* \"#utility.yul\":9326:9337   */\n      sload\n        /* \"#utility.yul\":9300:9338   */\n      tag_15\n      jump\t// in\n    tag_195:\n        /* \"#utility.yul\":9385:9452   */\n      tag_196\n        /* \"#utility.yul\":9445:9451   */\n      dup3\n        /* \"#utility.yul\":9437:9443   */\n      dup3\n        /* \"#utility.yul\":9431:9435   */\n      dup6\n        /* \"#utility.yul\":9385:9452   */\n      tag_73\n      jump\t// in\n    tag_196:\n        /* \"#utility.yul\":9479:9480   */\n      0x00\n        /* \"#utility.yul\":9503:9507   */\n      0x20\n        /* \"#utility.yul\":9490:9507   */\n      swap1\n      pop\n        /* \"#utility.yul\":9535:9537   */\n      0x1f\n        /* \"#utility.yul\":9527:9533   */\n      dup4\n        /* \"#utility.yul\":9524:9538   */\n      gt\n        /* \"#utility.yul\":9552:9553   */\n      0x01\n        /* \"#utility.yul\":9547:10165   */\n      dup2\n      eq\n      tag_198\n      jumpi\n        /* \"#utility.yul\":10209:10210   */\n      0x00\n        /* \"#utility.yul\":10226:10232   */\n      dup5\n        /* \"#utility.yul\":10223:10300   */\n      iszero\n      tag_199\n      jumpi\n        /* \"#utility.yul\":10275:10284   */\n      dup3\n        /* \"#utility.yul\":10270:10273   */\n      dup8\n        /* \"#utility.yul\":10266:10285   */\n      add\n        /* \"#utility.yul\":10260:10286   */\n      mload\n        /* \"#utility.yul\":10251:10286   */\n      swap1\n      pop\n        /* \"#utility.yul\":10223:10300   */\n    tag_199:\n        /* \"#utility.yul\":10326:10393   */\n      tag_200\n        /* \"#utility.yul\":10386:10392   */\n      dup6\n        /* \"#utility.yul\":10379:10384   */\n      dup3\n        /* \"#utility.yul\":10326:10393   */\n      tag_76\n      jump\t// in\n    tag_200:\n        /* \"#utility.yul\":10320:10324   */\n      dup7\n        /* \"#utility.yul\":10313:10394   */\n      sstore\n        /* \"#utility.yul\":10182:10404   */\n      pop\n        /* \"#utility.yul\":9517:10404   */\n      jump(tag_197)\n        /* \"#utility.yul\":9547:10165   */\n    tag_198:\n        /* \"#utility.yul\":9599:9603   */\n      0x1f\n        /* \"#utility.yul\":9595:9604   */\n      not\n        /* \"#utility.yul\":9587:9593   */\n      dup5\n        /* \"#utility.yul\":9583:9605   */\n      and\n        /* \"#utility.yul\":9633:9670   */\n      tag_201\n        /* \"#utility.yul\":9665:9669   */\n      dup7\n        /* \"#utility.yul\":9633:9670   */\n      tag_62\n      jump\t// in\n    tag_201:\n        /* \"#utility.yul\":9692:9693   */\n      0x00\n        /* \"#utility.yul\":9706:9914   */\n    tag_202:\n        /* \"#utility.yul\":9720:9727   */\n      dup3\n        /* \"#utility.yul\":9717:9718   */\n      dup2\n        /* \"#utility.yul\":9714:9728   */\n      lt\n        /* \"#utility.yul\":9706:9914   */\n      iszero\n      tag_204\n      jumpi\n        /* \"#utility.yul\":9799:9808   */\n      dup5\n        /* \"#utility.yul\":9794:9797   */\n      dup10\n        /* \"#utility.yul\":9790:9809   */\n      add\n        /* \"#utility.yul\":9784:9810   */\n      mload\n        /* \"#utility.yul\":9776:9782   */\n      dup3\n        /* \"#utility.yul\":9769:9811   */\n      sstore\n        /* \"#utility.yul\":9850:9851   */\n      0x01\n        /* \"#utility.yul\":9842:9848   */\n      dup3\n        /* \"#utility.yul\":9838:9852   */\n      add\n        /* \"#utility.yul\":9828:9852   */\n      swap2\n      pop\n        /* \"#utility.yul\":9897:9899   */\n      0x20\n        /* \"#utility.yul\":9886:9895   */\n      dup6\n        /* \"#utility.yul\":9882:9900   */\n      add\n        /* \"#utility.yul\":9869:9900   */\n      swap5\n      pop\n        /* \"#utility.yul\":9743:9747   */\n      0x20\n        /* \"#utility.yul\":9740:9741   */\n      dup2\n        /* \"#utility.yul\":9736:9748   */\n      add\n        /* \"#utility.yul\":9731:9748   */\n      swap1\n      pop\n        /* \"#utility.yul\":9706:9914   */\n      jump(tag_202)\n    tag_204:\n        /* \"#utility.yul\":9942:9948   */\n      dup7\n        /* \"#utility.yul\":9933:9940   */\n      dup4\n        /* \"#utility.yul\":9930:9949   */\n      lt\n        /* \"#utility.yul\":9927:10106   */\n      iszero\n      tag_205\n      jumpi\n        /* \"#utility.yul\":10000:10009   */\n      dup5\n        /* \"#utility.yul\":9995:9998   */\n      dup10\n        /* \"#utility.yul\":9991:10010   */\n      add\n        /* \"#utility.yul\":9985:10011   */\n      mload\n        /* \"#utility.yul\":10043:10091   */\n      tag_206\n        /* \"#utility.yul\":10085:10089   */\n      0x1f\n        /* \"#utility.yul\":10077:10083   */\n      dup10\n        /* \"#utility.yul\":10073:10090   */\n      and\n        /* \"#utility.yul\":10062:10071   */\n      dup3\n        /* \"#utility.yul\":10043:10091   */\n      tag_75\n      jump\t// in\n    tag_206:\n        /* \"#utility.yul\":10035:10041   */\n      dup4\n        /* \"#utility.yul\":10028:10092   */\n      sstore\n        /* \"#utility.yul\":9950:10106   */\n      pop\n        /* \"#utility.yul\":9927:10106   */\n    tag_205:\n        /* \"#utility.yul\":10152:10153   */\n      0x01\n        /* \"#utility.yul\":10148:10149   */\n      0x02\n        /* \"#utility.yul\":10140:10146   */\n      dup9\n        /* \"#utility.yul\":10136:10150   */\n      mul\n        /* \"#utility.yul\":10132:10154   */\n      add\n        /* \"#utility.yul\":10126:10130   */\n      dup9\n        /* \"#utility.yul\":10119:10155   */\n      sstore\n        /* \"#utility.yul\":9554:10165   */\n      pop\n      pop\n      pop\n        /* \"#utility.yul\":9517:10404   */\n    tag_197:\n      pop\n        /* \"#utility.yul\":9107:10410   */\n      pop\n      pop\n      pop\n        /* \"#utility.yul\":9015:10410   */\n      pop\n      pop\n      jump\t// out\n        /* \"#utility.yul\":10416:10575   */\n    tag_77:\n        /* \"#utility.yul\":10490:10501   */\n      0x00\n        /* \"#utility.yul\":10524:10530   */\n      dup3\n        /* \"#utility.yul\":10519:10522   */\n      dup3\n        /* \"#utility.yul\":10512:10531   */\n      mstore\n        /* \"#utility.yul\":10564:10568   */\n      0x20\n        /* \"#utility.yul\":10559:10562   */\n      dup3\n        /* \"#utility.yul\":10555:10569   */\n      add\n        /* \"#utility.yul\":10540:10569   */\n      swap1\n      pop\n        /* \"#utility.yul\":10416:10575   */\n      swap3\n      swap2\n      pop\n      pop\n      jump\t// out\n        /* \"#utility.yul\":10581:10938   */\n    tag_78:\n        /* \"#utility.yul\":10659:10662   */\n      0x00\n        /* \"#utility.yul\":10687:10726   */\n      tag_209\n        /* \"#utility.yul\":10720:10725   */\n      dup3\n        /* \"#utility.yul\":10687:10726   */\n      tag_56\n      jump\t// in\n    tag_209:\n        /* \"#utility.yul\":10742:10803   */\n      tag_210\n        /* \"#utility.yul\":10796:10802   */\n      dup2\n        /* \"#utility.yul\":10791:10794   */\n      dup6\n        /* \"#utility.yul\":10742:10803   */\n      tag_77\n      jump\t// in\n    tag_210:\n        /* \"#utility.yul\":10735:10803   */\n      swap4\n      pop\n        /* \"#utility.yul\":10812:10877   */\n      tag_211\n        /* \"#utility.yul\":10870:10876   */\n      dup2\n        /* \"#utility.yul\":10865:10868   */\n      dup6\n        /* \"#utility.yul\":10858:10862   */\n      0x20\n        /* \"#utility.yul\":10851:10856   */\n      dup7\n        /* \"#utility.yul\":10847:10863   */\n      add\n        /* \"#utility.yul\":10812:10877   */\n      tag_58\n      jump\t// in\n    tag_211:\n        /* \"#utility.yul\":10902:10931   */\n      tag_212\n        /* \"#utility.yul\":10924:10930   */\n      dup2\n        /* \"#utility.yul\":10902:10931   */\n      tag_45\n      jump\t// in\n    tag_212:\n        /* \"#utility.yul\":10897:10900   */\n      dup5\n        /* \"#utility.yul\":10893:10932   */\n      add\n        /* \"#utility.yul\":10886:10932   */\n      swap2\n      pop\n        /* \"#utility.yul\":10663:10938   */\n      pop\n        /* \"#utility.yul\":10581:10938   */\n      swap3\n      swap2\n      pop\n      pop\n      jump\t// out\n        /* \"#utility.yul\":10944:11052   */\n    tag_79:\n        /* \"#utility.yul\":11021:11045   */\n      tag_214\n        /* \"#utility.yul\":11039:11044   */\n      dup2\n        /* \"#utility.yul\":11021:11045   */\n      tag_53\n      jump\t// in\n    tag_214:\n        /* \"#utility.yul\":11016:11019   */\n      dup3\n        /* \"#utility.yul\":11009:11046   */\n      mstore\n        /* \"#utility.yul\":10944:11052   */\n      pop\n      pop\n      jump\t// out\n        /* \"#utility.yul\":11114:11970   */\n    tag_80:\n        /* \"#utility.yul\":11237:11240   */\n      0x00\n        /* \"#utility.yul\":11273:11277   */\n      0x60\n        /* \"#utility.yul\":11268:11271   */\n      dup4\n        /* \"#utility.yul\":11264:11278   */\n      add\n        /* \"#utility.yul\":11360:11364   */\n      0x00\n        /* \"#utility.yul\":11353:11358   */\n      dup4\n        /* \"#utility.yul\":11349:11365   */\n      add\n        /* \"#utility.yul\":11343:11366   */\n      mload\n        /* \"#utility.yul\":11413:11416   */\n      dup5\n        /* \"#utility.yul\":11407:11411   */\n      dup3\n        /* \"#utility.yul\":11403:11417   */\n      sub\n        /* \"#utility.yul\":11396:11400   */\n      0x00\n        /* \"#utility.yul\":11391:11394   */\n      dup7\n        /* \"#utility.yul\":11387:11401   */\n      add\n        /* \"#utility.yul\":11380:11418   */\n      mstore\n        /* \"#utility.yul\":11439:11512   */\n      tag_216\n        /* \"#utility.yul\":11507:11511   */\n      dup3\n        /* \"#utility.yul\":11493:11505   */\n      dup3\n        /* \"#utility.yul\":11439:11512   */\n      tag_78\n      jump\t// in\n    tag_216:\n        /* \"#utility.yul\":11431:11512   */\n      swap2\n      pop\n        /* \"#utility.yul\":11288:11523   */\n      pop\n        /* \"#utility.yul\":11607:11611   */\n      0x20\n        /* \"#utility.yul\":11600:11605   */\n      dup4\n        /* \"#utility.yul\":11596:11612   */\n      add\n        /* \"#utility.yul\":11590:11613   */\n      mload\n        /* \"#utility.yul\":11660:11663   */\n      dup5\n        /* \"#utility.yul\":11654:11658   */\n      dup3\n        /* \"#utility.yul\":11650:11664   */\n      sub\n        /* \"#utility.yul\":11643:11647   */\n      0x20\n        /* \"#utility.yul\":11638:11641   */\n      dup7\n        /* \"#utility.yul\":11634:11648   */\n      add\n        /* \"#utility.yul\":11627:11665   */\n      mstore\n        /* \"#utility.yul\":11686:11759   */\n      tag_217\n        /* \"#utility.yul\":11754:11758   */\n      dup3\n        /* \"#utility.yul\":11740:11752   */\n      dup3\n        /* \"#utility.yul\":11686:11759   */\n      tag_78\n      jump\t// in\n    tag_217:\n        /* \"#utility.yul\":11678:11759   */\n      swap2\n      pop\n        /* \"#utility.yul\":11533:11770   */\n      pop\n        /* \"#utility.yul\":11851:11855   */\n      0x40\n        /* \"#utility.yul\":11844:11849   */\n      dup4\n        /* \"#utility.yul\":11840:11856   */\n      add\n        /* \"#utility.yul\":11834:11857   */\n      mload\n        /* \"#utility.yul\":11870:11933   */\n      tag_218\n        /* \"#utility.yul\":11927:11931   */\n      0x40\n        /* \"#utility.yul\":11922:11925   */\n      dup7\n        /* \"#utility.yul\":11918:11932   */\n      add\n        /* \"#utility.yul\":11904:11916   */\n      dup3\n        /* \"#utility.yul\":11870:11933   */\n      tag_79\n      jump\t// in\n    tag_218:\n        /* \"#utility.yul\":11780:11943   */\n      pop\n        /* \"#utility.yul\":11960:11964   */\n      dup1\n        /* \"#utility.yul\":11953:11964   */\n      swap2\n      pop\n        /* \"#utility.yul\":11242:11970   */\n      pop\n        /* \"#utility.yul\":11114:11970   */\n      swap3\n      swap2\n      pop\n      pop\n      jump\t// out\n        /* \"#utility.yul\":12000:12811   */\n    tag_81:\n        /* \"#utility.yul\":12075:12078   */\n      0x00\n        /* \"#utility.yul\":12112:12117   */\n      dup2\n        /* \"#utility.yul\":12106:12118   */\n      sload\n        /* \"#utility.yul\":12141:12177   */\n      tag_220\n        /* \"#utility.yul\":12167:12176   */\n      dup2\n        /* \"#utility.yul\":12141:12177   */\n      tag_15\n      jump\t// in\n    tag_220:\n        /* \"#utility.yul\":12193:12254   */\n      tag_221\n        /* \"#utility.yul\":12247:12253   */\n      dup2\n        /* \"#utility.yul\":12242:12245   */\n      dup7\n        /* \"#utility.yul\":12193:12254   */\n      tag_77\n      jump\t// in\n    tag_221:\n        /* \"#utility.yul\":12186:12254   */\n      swap5\n      pop\n        /* \"#utility.yul\":12285:12286   */\n      0x01\n        /* \"#utility.yul\":12274:12283   */\n      dup3\n        /* \"#utility.yul\":12270:12287   */\n      and\n        /* \"#utility.yul\":12301:12302   */\n      0x00\n        /* \"#utility.yul\":12296:12460   */\n      dup2\n      eq\n      tag_223\n      jumpi\n        /* \"#utility.yul\":12474:12475   */\n      0x01\n        /* \"#utility.yul\":12469:12805   */\n      dup2\n      eq\n      tag_224\n      jumpi\n        /* \"#utility.yul\":12263:12805   */\n      jump(tag_222)\n        /* \"#utility.yul\":12296:12460   */\n    tag_223:\n        /* \"#utility.yul\":12380:12384   */\n      0xff\n        /* \"#utility.yul\":12376:12385   */\n      not\n        /* \"#utility.yul\":12365:12374   */\n      dup4\n        /* \"#utility.yul\":12361:12386   */\n      and\n        /* \"#utility.yul\":12356:12359   */\n      dup7\n        /* \"#utility.yul\":12349:12387   */\n      mstore\n        /* \"#utility.yul\":12440:12446   */\n      dup2\n        /* \"#utility.yul\":12433:12447   */\n      iszero\n        /* \"#utility.yul\":12426:12448   */\n      iszero\n        /* \"#utility.yul\":12420:12424   */\n      0x20\n        /* \"#utility.yul\":12416:12449   */\n      mul\n        /* \"#utility.yul\":12411:12414   */\n      dup7\n        /* \"#utility.yul\":12407:12450   */\n      add\n        /* \"#utility.yul\":12400:12450   */\n      swap4\n      pop\n        /* \"#utility.yul\":12296:12460   */\n      jump(tag_222)\n        /* \"#utility.yul\":12469:12805   */\n    tag_224:\n        /* \"#utility.yul\":12536:12574   */\n      tag_225\n        /* \"#utility.yul\":12568:12573   */\n      dup6\n        /* \"#utility.yul\":12536:12574   */\n      tag_62\n      jump\t// in\n    tag_225:\n        /* \"#utility.yul\":12596:12597   */\n      0x00\n        /* \"#utility.yul\":12610:12764   */\n    tag_226:\n        /* \"#utility.yul\":12624:12630   */\n      dup4\n        /* \"#utility.yul\":12621:12622   */\n      dup2\n        /* \"#utility.yul\":12618:12631   */\n      lt\n        /* \"#utility.yul\":12610:12764   */\n      iszero\n      tag_228\n      jumpi\n        /* \"#utility.yul\":12698:12705   */\n      dup2\n        /* \"#utility.yul\":12692:12706   */\n      sload\n        /* \"#utility.yul\":12688:12689   */\n      dup2\n        /* \"#utility.yul\":12683:12686   */\n      dup10\n        /* \"#utility.yul\":12679:12690   */\n      add\n        /* \"#utility.yul\":12672:12707   */\n      mstore\n        /* \"#utility.yul\":12748:12749   */\n      0x01\n        /* \"#utility.yul\":12739:12746   */\n      dup3\n        /* \"#utility.yul\":12735:12750   */\n      add\n        /* \"#utility.yul\":12724:12750   */\n      swap2\n      pop\n        /* \"#utility.yul\":12646:12650   */\n      0x20\n        /* \"#utility.yul\":12643:12644   */\n      dup2\n        /* \"#utility.yul\":12639:12651   */\n      add\n        /* \"#utility.yul\":12634:12651   */\n      swap1\n      pop\n        /* \"#utility.yul\":12610:12764   */\n      jump(tag_226)\n    tag_228:\n        /* \"#utility.yul\":12793:12794   */\n      dup1\n        /* \"#utility.yul\":12788:12791   */\n      dup9\n        /* \"#utility.yul\":12784:12795   */\n      add\n        /* \"#utility.yul\":12777:12795   */\n      swap6\n      pop\n        /* \"#utility.yul\":12476:12805   */\n      pop\n      pop\n        /* \"#utility.yul\":12263:12805   */\n    tag_222:\n      pop\n        /* \"#utility.yul\":12079:12811   */\n      pop\n      pop\n        /* \"#utility.yul\":12000:12811   */\n      swap3\n      swap2\n      pop\n      pop\n      jump\t// out\n        /* \"#utility.yul\":12817:12919   */\n    tag_82:\n        /* \"#utility.yul\":12859:12867   */\n      0x00\n        /* \"#utility.yul\":12906:12911   */\n      dup2\n        /* \"#utility.yul\":12903:12904   */\n      0x00\n        /* \"#utility.yul\":12899:12912   */\n      shr\n        /* \"#utility.yul\":12878:12912   */\n      swap1\n      pop\n        /* \"#utility.yul\":12817:12919   */\n      swap2\n      swap1\n      pop\n      jump\t// out\n        /* \"#utility.yul\":12925:13015   */\n    tag_83:\n        /* \"#utility.yul\":12975:12982   */\n      0x00\n        /* \"#utility.yul\":13004:13009   */\n      dup2\n        /* \"#utility.yul\":12993:13009   */\n      swap1\n      pop\n        /* \"#utility.yul\":12925:13015   */\n      swap2\n      swap1\n      pop\n      jump\t// out\n        /* \"#utility.yul\":13021:13187   */\n    tag_84:\n        /* \"#utility.yul\":13090:13095   */\n      0x00\n        /* \"#utility.yul\":13115:13181   */\n      tag_232\n        /* \"#utility.yul\":13146:13180   */\n      tag_233\n        /* \"#utility.yul\":13169:13179   */\n      dup4\n        /* \"#utility.yul\":13146:13180   */\n      tag_82\n      jump\t// in\n    tag_233:\n        /* \"#utility.yul\":13115:13181   */\n      tag_83\n      jump\t// in\n    tag_232:\n        /* \"#utility.yul\":13106:13181   */\n      swap1\n      pop\n        /* \"#utility.yul\":13021:13187   */\n      swap2\n      swap1\n      pop\n      jump\t// out\n        /* \"#utility.yul\":13249:14189   */\n    tag_85:\n        /* \"#utility.yul\":13369:13372   */\n      0x00\n        /* \"#utility.yul\":13405:13409   */\n      0x60\n        /* \"#utility.yul\":13400:13403   */\n      dup4\n        /* \"#utility.yul\":13396:13410   */\n      add\n        /* \"#utility.yul\":13436:13437   */\n      0x00\n        /* \"#utility.yul\":13513:13517   */\n      dup1\n        /* \"#utility.yul\":13506:13511   */\n      dup5\n        /* \"#utility.yul\":13502:13518   */\n      add\n        /* \"#utility.yul\":13565:13568   */\n      dup6\n        /* \"#utility.yul\":13559:13563   */\n      dup4\n        /* \"#utility.yul\":13555:13569   */\n      sub\n        /* \"#utility.yul\":13548:13552   */\n      0x00\n        /* \"#utility.yul\":13543:13546   */\n      dup8\n        /* \"#utility.yul\":13539:13553   */\n      add\n        /* \"#utility.yul\":13532:13570   */\n      mstore\n        /* \"#utility.yul\":13591:13661   */\n      tag_235\n        /* \"#utility.yul\":13656:13660   */\n      dup4\n        /* \"#utility.yul\":13642:13654   */\n      dup3\n        /* \"#utility.yul\":13591:13661   */\n      tag_81\n      jump\t// in\n    tag_235:\n        /* \"#utility.yul\":13583:13661   */\n      swap3\n      pop\n        /* \"#utility.yul\":13447:13672   */\n      pop\n        /* \"#utility.yul\":13750:13754   */\n      0x01\n        /* \"#utility.yul\":13743:13748   */\n      dup5\n        /* \"#utility.yul\":13739:13755   */\n      add\n        /* \"#utility.yul\":13802:13805   */\n      dup6\n        /* \"#utility.yul\":13796:13800   */\n      dup4\n        /* \"#utility.yul\":13792:13806   */\n      sub\n        /* \"#utility.yul\":13785:13789   */\n      0x20\n        /* \"#utility.yul\":13780:13783   */\n      dup8\n        /* \"#utility.yul\":13776:13790   */\n      add\n        /* \"#utility.yul\":13769:13807   */\n      mstore\n        /* \"#utility.yul\":13828:13898   */\n      tag_236\n        /* \"#utility.yul\":13893:13897   */\n      dup4\n        /* \"#utility.yul\":13879:13891   */\n      dup3\n        /* \"#utility.yul\":13828:13898   */\n      tag_81\n      jump\t// in\n    tag_236:\n        /* \"#utility.yul\":13820:13898   */\n      swap3\n      pop\n        /* \"#utility.yul\":13682:13909   */\n      pop\n        /* \"#utility.yul\":13982:13986   */\n      0x02\n        /* \"#utility.yul\":13975:13980   */\n      dup5\n        /* \"#utility.yul\":13971:13987   */\n      add\n        /* \"#utility.yul\":13965:13988   */\n      sload\n        /* \"#utility.yul\":13952:13988   */\n      swap1\n      pop\n        /* \"#utility.yul\":14021:14076   */\n      tag_237\n        /* \"#utility.yul\":14066:14075   */\n      dup2\n        /* \"#utility.yul\":14021:14076   */\n      tag_84\n      jump\t// in\n    tag_237:\n        /* \"#utility.yul\":14089:14152   */\n      tag_238\n        /* \"#utility.yul\":14146:14150   */\n      0x40\n        /* \"#utility.yul\":14141:14144   */\n      dup8\n        /* \"#utility.yul\":14137:14151   */\n      add\n        /* \"#utility.yul\":14123:14135   */\n      dup3\n        /* \"#utility.yul\":14089:14152   */\n      tag_79\n      jump\t// in\n    tag_238:\n        /* \"#utility.yul\":13919:14162   */\n      pop\n        /* \"#utility.yul\":14179:14183   */\n      dup2\n        /* \"#utility.yul\":14172:14183   */\n      swap3\n      pop\n        /* \"#utility.yul\":13374:14189   */\n      pop\n      pop\n        /* \"#utility.yul\":13249:14189   */\n      swap3\n      swap2\n      pop\n      pop\n      jump\t// out\n        /* \"#utility.yul\":14195:15060   */\n    tag_29:\n        /* \"#utility.yul\":14477:14481   */\n      0x00\n        /* \"#utility.yul\":14515:14518   */\n      0x80\n        /* \"#utility.yul\":14504:14513   */\n      dup3\n        /* \"#utility.yul\":14500:14519   */\n      add\n        /* \"#utility.yul\":14492:14519   */\n      swap1\n      pop\n        /* \"#utility.yul\":14565:14574   */\n      dup2\n        /* \"#utility.yul\":14559:14563   */\n      dup2\n        /* \"#utility.yul\":14555:14575   */\n      sub\n        /* \"#utility.yul\":14551:14552   */\n      0x00\n        /* \"#utility.yul\":14540:14549   */\n      dup4\n        /* \"#utility.yul\":14536:14553   */\n      add\n        /* \"#utility.yul\":14529:14576   */\n      mstore\n        /* \"#utility.yul\":14593:14705   */\n      tag_240\n        /* \"#utility.yul\":14700:14704   */\n      dup2\n        /* \"#utility.yul\":14691:14697   */\n      dup8\n        /* \"#utility.yul\":14593:14705   */\n      tag_80\n      jump\t// in\n    tag_240:\n        /* \"#utility.yul\":14585:14705   */\n      swap1\n      pop\n        /* \"#utility.yul\":14752:14761   */\n      dup2\n        /* \"#utility.yul\":14746:14750   */\n      dup2\n        /* \"#utility.yul\":14742:14762   */\n      sub\n        /* \"#utility.yul\":14737:14739   */\n      0x20\n        /* \"#utility.yul\":14726:14735   */\n      dup4\n        /* \"#utility.yul\":14722:14740   */\n      add\n        /* \"#utility.yul\":14715:14763   */\n      mstore\n        /* \"#utility.yul\":14780:14889   */\n      tag_241\n        /* \"#utility.yul\":14884:14888   */\n      dup2\n        /* \"#utility.yul\":14875:14881   */\n      dup7\n        /* \"#utility.yul\":14780:14889   */\n      tag_85\n      jump\t// in\n    tag_241:\n        /* \"#utility.yul\":14772:14889   */\n      swap1\n      pop\n        /* \"#utility.yul\":14899:14971   */\n      tag_242\n        /* \"#utility.yul\":14967:14969   */\n      0x40\n        /* \"#utility.yul\":14956:14965   */\n      dup4\n        /* \"#utility.yul\":14952:14970   */\n      add\n        /* \"#utility.yul\":14943:14949   */\n      dup6\n        /* \"#utility.yul\":14899:14971   */\n      tag_60\n      jump\t// in\n    tag_242:\n        /* \"#utility.yul\":14981:15053   */\n      tag_243\n        /* \"#utility.yul\":15049:15051   */\n      0x60\n        /* \"#utility.yul\":15038:15047   */\n      dup4\n        /* \"#utility.yul\":15034:15052   */\n      add\n        /* \"#utility.yul\":15025:15031   */\n      dup5\n        /* \"#utility.yul\":14981:15053   */\n      tag_60\n      jump\t// in\n    tag_243:\n        /* \"#utility.yul\":14195:15060   */\n      swap6\n      swap5\n      pop\n      pop\n      pop\n      pop\n      pop\n      jump\t// out\n\n    auxdata: 0xa26469706673582212201478d264fac31c9e7e82aea19f349d2f8651bc4c5f45a4de610966252dad351064736f6c63430008120033\n}\n",
				"bytecode": {
					"linkReferences": {},
					"object": "608060405234801561001057600080fd5b50610b92806100206000396000f3fe608060405234801561001057600080fd5b50600436106100365760003560e01c806388dda91a1461003b578063c2a2747b14610057575b600080fd5b61005560048036038101906100509190610506565b610077565b005b61005f61024e565b60405161006e9392919061061f565b60405180910390f35b60008060405180606001604052908160008201805461009590610693565b80601f01602080910402602001604051908101604052809291908181526020018280546100c190610693565b801561010e5780601f106100e35761010080835404028352916020019161010e565b820191906000526020600020905b8154815290600101906020018083116100f157829003601f168201915b5050505050815260200160018201805461012790610693565b80601f016020809104026020016040519081016040528092919081815260200182805461015390610693565b80156101a05780601f10610175576101008083540402835291602001916101a0565b820191906000526020600020905b81548152906001019060200180831161018357829003601f168201915b5050505050815260200160028201548152505090506040518060600160405280858152602001848152602001838152506000808201518160000190816101e69190610870565b5060208201518160010190816101fc9190610870565b50604082015181600201559050507fb22ecf1a60777746a583bc05c703764abd570daa4ed40ac187911a118bb24a4c81600043426040516102409493929190610b09565b60405180910390a150505050565b600080600001805461025f90610693565b80601f016020809104026020016040519081016040528092919081815260200182805461028b90610693565b80156102d85780601f106102ad576101008083540402835291602001916102d8565b820191906000526020600020905b8154815290600101906020018083116102bb57829003601f168201915b5050505050908060010180546102ed90610693565b80601f016020809104026020016040519081016040528092919081815260200182805461031990610693565b80156103665780601f1061033b57610100808354040283529160200191610366565b820191906000526020600020905b81548152906001019060200180831161034957829003601f168201915b5050505050908060020154905083565b6000604051905090565b600080fd5b600080fd5b600080fd5b600080fd5b6000601f19601f8301169050919050565b7f4e487b7100000000000000000000000000000000000000000000000000000000600052604160045260246000fd5b6103dd82610394565b810181811067ffffffffffffffff821117156103fc576103fb6103a5565b5b80604052505050565b600061040f610376565b905061041b82826103d4565b919050565b600067ffffffffffffffff82111561043b5761043a6103a5565b5b61044482610394565b9050602081019050919050565b82818337600083830152505050565b600061047361046e84610420565b610405565b90508281526020810184848401111561048f5761048e61038f565b5b61049a848285610451565b509392505050565b600082601f8301126104b7576104b661038a565b5b81356104c7848260208601610460565b91505092915050565b6000819050919050565b6104e3816104d0565b81146104ee57600080fd5b50565b600081359050610500816104da565b92915050565b60008060006060848603121561051f5761051e610380565b5b600084013567ffffffffffffffff81111561053d5761053c610385565b5b610549868287016104a2565b935050602084013567ffffffffffffffff81111561056a57610569610385565b5b610576868287016104a2565b9250506040610587868287016104f1565b9150509250925092565b600081519050919050565b600082825260208201905092915050565b60005b838110156105cb5780820151818401526020810190506105b0565b60008484015250505050565b60006105e282610591565b6105ec818561059c565b93506105fc8185602086016105ad565b61060581610394565b840191505092915050565b610619816104d0565b82525050565b6000606082019050818103600083015261063981866105d7565b9050818103602083015261064d81856105d7565b905061065c6040830184610610565b949350505050565b7f4e487b7100000000000000000000000000000000000000000000000000000000600052602260045260246000fd5b600060028204905060018216806106ab57607f821691505b6020821081036106be576106bd610664565b5b50919050565b60008190508160005260206000209050919050565b60006020601f8301049050919050565b600082821b905092915050565b6000600883026107267fffffffffffffffffffffffffffffffffffffffffffffffffffffffffffffffff826106e9565b61073086836106e9565b95508019841693508086168417925050509392505050565b6000819050919050565b600061076d610768610763846104d0565b610748565b6104d0565b9050919050565b6000819050919050565b61078783610752565b61079b61079382610774565b8484546106f6565b825550505050565b600090565b6107b06107a3565b6107bb81848461077e565b505050565b5b818110156107df576107d46000826107a8565b6001810190506107c1565b5050565b601f821115610824576107f5816106c4565b6107fe846106d9565b8101602085101561080d578190505b610821610819856106d9565b8301826107c0565b50505b505050565b600082821c905092915050565b600061084760001984600802610829565b1980831691505092915050565b60006108608383610836565b9150826002028217905092915050565b61087982610591565b67ffffffffffffffff811115610892576108916103a5565b5b61089c8254610693565b6108a78282856107e3565b600060209050601f8311600181146108da57600084156108c8578287015190505b6108d28582610854565b86555061093a565b601f1984166108e8866106c4565b60005b82811015610910578489015182556001820191506020850194506020810190506108eb565b8683101561092d5784890151610929601f891682610836565b8355505b6001600288020188555050505b505050505050565b600082825260208201905092915050565b600061095e82610591565b6109688185610942565b93506109788185602086016105ad565b61098181610394565b840191505092915050565b610995816104d0565b82525050565b600060608301600083015184820360008601526109b88282610953565b915050602083015184820360208601526109d28282610953565b91505060408301516109e7604086018261098c565b508091505092915050565b600081546109ff81610693565b610a098186610942565b94506001821660008114610a245760018114610a3a57610a6d565b60ff198316865281151560200286019350610a6d565b610a43856106c4565b60005b83811015610a6557815481890152600182019150602081019050610a46565b808801955050505b50505092915050565b60008160001c9050919050565b6000819050919050565b6000610aa0610a9b83610a76565b610a83565b9050919050565b60006060830160008084018583036000870152610ac483826109f2565b925050600184018583036020870152610add83826109f2565b92505060028401549050610af081610a8d565b610afd604087018261098c565b50819250505092915050565b60006080820190508181036000830152610b23818761099b565b90508181036020830152610b378186610aa7565b9050610b466040830185610610565b610b536060830184610610565b9594505050505056fea26469706673582212201478d264fac31c9e7e82aea19f349d2f8651bc4c5f45a4de610966252dad351064736f6c63430008120033",
					"opcodes": "PUSH1 0x80 PUSH1 0x40 MSTORE CALLVALUE DUP1 ISZERO PUSH2 0x10 JUMPI PUSH1 0x0 DUP1 REVERT JUMPDEST POP PUSH2 0xB92 DUP1 PUSH2 0x20 PUSH1 0x0 CODECOPY PUSH1 0x0 RETURN INVALID PUSH1 0x80 PUSH1 0x40 MSTORE CALLVALUE DUP1 ISZERO PUSH2 0x10 JUMPI PUSH1 0x0 DUP1 REVERT JUMPDEST POP PUSH1 0x4 CALLDATASIZE LT PUSH2 0x36 JUMPI PUSH1 0x0 CALLDATALOAD PUSH1 0xE0 SHR DUP1 PUSH4 0x88DDA91A EQ PUSH2 0x3B JUMPI DUP1 PUSH4 0xC2A2747B EQ PUSH2 0x57 JUMPI JUMPDEST PUSH1 0x0 DUP1 REVERT JUMPDEST PUSH2 0x55 PUSH1 0x4 DUP1 CALLDATASIZE SUB DUP2 ADD SWAP1 PUSH2 0x50 SWAP2 SWAP1 PUSH2 0x506 JUMP JUMPDEST PUSH2 0x77 JUMP JUMPDEST STOP JUMPDEST PUSH2 0x5F PUSH2 0x24E JUMP JUMPDEST PUSH1 0x40 MLOAD PUSH2 0x6E SWAP4 SWAP3 SWAP2 SWAP1 PUSH2 0x61F JUMP JUMPDEST PUSH1 0x40 MLOAD DUP1 SWAP2 SUB SWAP1 RETURN JUMPDEST PUSH1 0x0 DUP1 PUSH1 0x40 MLOAD DUP1 PUSH1 0x60 ADD PUSH1 0x40 MSTORE SWAP1 DUP2 PUSH1 0x0 DUP3 ADD DUP1 SLOAD PUSH2 0x95 SWAP1 PUSH2 0x693 JUMP JUMPDEST DUP1 PUSH1 0x1F ADD PUSH1 0x20 DUP1 SWAP2 DIV MUL PUSH1 0x20 ADD PUSH1 0x40 MLOAD SWAP1 DUP2 ADD PUSH1 0x40 MSTORE DUP1 SWAP3 SWAP2 SWAP1 DUP2 DUP2 MSTORE PUSH1 0x20 ADD DUP3 DUP1 SLOAD PUSH2 0xC1 SWAP1 PUSH2 0x693 JUMP JUMPDEST DUP1 ISZERO PUSH2 0x10E JUMPI DUP1 PUSH1 0x1F LT PUSH2 0xE3 JUMPI PUSH2 0x100 DUP1 DUP4 SLOAD DIV MUL DUP4 MSTORE SWAP2 PUSH1 0x20 ADD SWAP2 PUSH2 0x10E JUMP JUMPDEST DUP3 ADD SWAP2 SWAP1 PUSH1 0x0 MSTORE PUSH1 0x20 PUSH1 0x0 KECCAK256 SWAP1 JUMPDEST DUP2 SLOAD DUP2 MSTORE SWAP1 PUSH1 0x1 ADD SWAP1 PUSH1 0x20 ADD DUP1 DUP4 GT PUSH2 0xF1 JUMPI DUP3 SWAP1 SUB PUSH1 0x1F AND DUP3 ADD SWAP2 JUMPDEST POP POP POP POP POP DUP2 MSTORE PUSH1 0x20 ADD PUSH1 0x1 DUP3 ADD DUP1 SLOAD PUSH2 0x127 SWAP1 PUSH2 0x693 JUMP JUMPDEST DUP1 PUSH1 0x1F ADD PUSH1 0x20 DUP1 SWAP2 DIV MUL PUSH1 0x20 ADD PUSH1 0x40 MLOAD SWAP1 DUP2 ADD PUSH1 0x40 MSTORE DUP1 SWAP3 SWAP2 SWAP1 DUP2 DUP2 MSTORE PUSH1 0x20 ADD DUP3 DUP1 SLOAD PUSH2 0x153 SWAP1 PUSH2 0x693 JUMP JUMPDEST DUP1 ISZERO PUSH2 0x1A0 JUMPI DUP1 PUSH1 0x1F LT PUSH2 0x175 JUMPI PUSH2 0x100 DUP1 DUP4 SLOAD DIV MUL DUP4 MSTORE SWAP2 PUSH1 0x20 ADD SWAP2 PUSH2 0x1A0 JUMP JUMPDEST DUP3 ADD SWAP2 SWAP1 PUSH1 0x0 MSTORE PUSH1 0x20 PUSH1 0x0 KECCAK256 SWAP1 JUMPDEST DUP2 SLOAD DUP2 MSTORE SWAP1 PUSH1 0x1 ADD SWAP1 PUSH1 0x20 ADD DUP1 DUP4 GT PUSH2 0x183 JUMPI DUP3 SWAP1 SUB PUSH1 0x1F AND DUP3 ADD SWAP2 JUMPDEST POP POP POP POP POP DUP2 MSTORE PUSH1 0x20 ADD PUSH1 0x2 DUP3 ADD SLOAD DUP2 MSTORE POP POP SWAP1 POP PUSH1 0x40 MLOAD DUP1 PUSH1 0x60 ADD PUSH1 0x40 MSTORE DUP1 DUP6 DUP2 MSTORE PUSH1 0x20 ADD DUP5 DUP2 MSTORE PUSH1 0x20 ADD DUP4 DUP2 MSTORE POP PUSH1 0x0 DUP1 DUP3 ADD MLOAD DUP2 PUSH1 0x0 ADD SWAP1 DUP2 PUSH2 0x1E6 SWAP2 SWAP1 PUSH2 0x870 JUMP JUMPDEST POP PUSH1 0x20 DUP3 ADD MLOAD DUP2 PUSH1 0x1 ADD SWAP1 DUP2 PUSH2 0x1FC SWAP2 SWAP1 PUSH2 0x870 JUMP JUMPDEST POP PUSH1 0x40 DUP3 ADD MLOAD DUP2 PUSH1 0x2 ADD SSTORE SWAP1 POP POP PUSH32 0xB22ECF1A60777746A583BC05C703764ABD570DAA4ED40AC187911A118BB24A4C DUP2 PUSH1 0x0 NUMBER TIMESTAMP PUSH1 0x40 MLOAD PUSH2 0x240 SWAP5 SWAP4 SWAP3 SWAP2 SWAP1 PUSH2 0xB09 JUMP JUMPDEST PUSH1 0x40 MLOAD DUP1 SWAP2 SUB SWAP1 LOG1 POP POP POP POP JUMP JUMPDEST PUSH1 0x0 DUP1 PUSH1 0x0 ADD DUP1 SLOAD PUSH2 0x25F SWAP1 PUSH2 0x693 JUMP JUMPDEST DUP1 PUSH1 0x1F ADD PUSH1 0x20 DUP1 SWAP2 DIV MUL PUSH1 0x20 ADD PUSH1 0x40 MLOAD SWAP1 DUP2 ADD PUSH1 0x40 MSTORE DUP1 SWAP3 SWAP2 SWAP1 DUP2 DUP2 MSTORE PUSH1 0x20 ADD DUP3 DUP1 SLOAD PUSH2 0x28B SWAP1 PUSH2 0x693 JUMP JUMPDEST DUP1 ISZERO PUSH2 0x2D8 JUMPI DUP1 PUSH1 0x1F LT PUSH2 0x2AD JUMPI PUSH2 0x100 DUP1 DUP4 SLOAD DIV MUL DUP4 MSTORE SWAP2 PUSH1 0x20 ADD SWAP2 PUSH2 0x2D8 JUMP JUMPDEST DUP3 ADD SWAP2 SWAP1 PUSH1 0x0 MSTORE PUSH1 0x20 PUSH1 0x0 KECCAK256 SWAP1 JUMPDEST DUP2 SLOAD DUP2 MSTORE SWAP1 PUSH1 0x1 ADD SWAP1 PUSH1 0x20 ADD DUP1 DUP4 GT PUSH2 0x2BB JUMPI DUP3 SWAP1 SUB PUSH1 0x1F AND DUP3 ADD SWAP2 JUMPDEST POP POP POP POP POP SWAP1 DUP1 PUSH1 0x1 ADD DUP1 SLOAD PUSH2 0x2ED SWAP1 PUSH2 0x693 JUMP JUMPDEST DUP1 PUSH1 0x1F ADD PUSH1 0x20 DUP1 SWAP2 DIV MUL PUSH1 0x20 ADD PUSH1 0x40 MLOAD SWAP1 DUP2 ADD PUSH1 0x40 MSTORE DUP1 SWAP3 SWAP2 SWAP1 DUP2 DUP2 MSTORE PUSH1 0x20 ADD DUP3 DUP1 SLOAD PUSH2 0x319 SWAP1 PUSH2 0x693 JUMP JUMPDEST DUP1 ISZERO PUSH2 0x366 JUMPI DUP1 PUSH1 0x1F LT PUSH2 0x33B JUMPI PUSH2 0x100 DUP1 DUP4 SLOAD DIV MUL DUP4 MSTORE SWAP2 PUSH1 0x20 ADD SWAP2 PUSH2 0x366 JUMP JUMPDEST DUP3 ADD SWAP2 SWAP1 PUSH1 0x0 MSTORE PUSH1 0x20 PUSH1 0x0 KECCAK256 SWAP1 JUMPDEST DUP2 SLOAD DUP2 MSTORE SWAP1 PUSH1 0x1 ADD SWAP1 PUSH1 0x20 ADD DUP1 DUP4 GT PUSH2 0x349 JUMPI DUP3 SWAP1 SUB PUSH1 0x1F AND DUP3 ADD SWAP2 JUMPDEST POP POP POP POP POP SWAP1 DUP1 PUSH1 0x2 ADD SLOAD SWAP1 POP DUP4 JUMP JUMPDEST PUSH1 0x0 PUSH1 0x40 MLOAD SWAP1 POP SWAP1 JUMP JUMPDEST PUSH1 0x0 DUP1 REVERT JUMPDEST PUSH1 0x0 DUP1 REVERT JUMPDEST PUSH1 0x0 DUP1 REVERT JUMPDEST PUSH1 0x0 DUP1 REVERT JUMPDEST PUSH1 0x0 PUSH1 0x1F NOT PUSH1 0x1F DUP4 ADD AND SWAP1 POP SWAP2 SWAP1 POP JUMP JUMPDEST PUSH32 0x4E487B7100000000000000000000000000000000000000000000000000000000 PUSH1 0x0 MSTORE PUSH1 0x41 PUSH1 0x4 MSTORE PUSH1 0x24 PUSH1 0x0 REVERT JUMPDEST PUSH2 0x3DD DUP3 PUSH2 0x394 JUMP JUMPDEST DUP2 ADD DUP2 DUP2 LT PUSH8 0xFFFFFFFFFFFFFFFF DUP3 GT OR ISZERO PUSH2 0x3FC JUMPI PUSH2 0x3FB PUSH2 0x3A5 JUMP JUMPDEST JUMPDEST DUP1 PUSH1 0x40 MSTORE POP POP POP JUMP JUMPDEST PUSH1 0x0 PUSH2 0x40F PUSH2 0x376 JUMP JUMPDEST SWAP1 POP PUSH2 0x41B DUP3 DUP3 PUSH2 0x3D4 JUMP JUMPDEST SWAP2 SWAP1 POP JUMP JUMPDEST PUSH1 0x0 PUSH8 0xFFFFFFFFFFFFFFFF DUP3 GT ISZERO PUSH2 0x43B JUMPI PUSH2 0x43A PUSH2 0x3A5 JUMP JUMPDEST JUMPDEST PUSH2 0x444 DUP3 PUSH2 0x394 JUMP JUMPDEST SWAP1 POP PUSH1 0x20 DUP2 ADD SWAP1 POP SWAP2 SWAP1 POP JUMP JUMPDEST DUP3 DUP2 DUP4 CALLDATACOPY PUSH1 0x0 DUP4 DUP4 ADD MSTORE POP POP POP JUMP JUMPDEST PUSH1 0x0 PUSH2 0x473 PUSH2 0x46E DUP5 PUSH2 0x420 JUMP JUMPDEST PUSH2 0x405 JUMP JUMPDEST SWAP1 POP DUP3 DUP2 MSTORE PUSH1 0x20 DUP2 ADD DUP5 DUP5 DUP5 ADD GT ISZERO PUSH2 0x48F JUMPI PUSH2 0x48E PUSH2 0x38F JUMP JUMPDEST JUMPDEST PUSH2 0x49A DUP5 DUP3 DUP6 PUSH2 0x451 JUMP JUMPDEST POP SWAP4 SWAP3 POP POP POP JUMP JUMPDEST PUSH1 0x0 DUP3 PUSH1 0x1F DUP4 ADD SLT PUSH2 0x4B7 JUMPI PUSH2 0x4B6 PUSH2 0x38A JUMP JUMPDEST JUMPDEST DUP2 CALLDATALOAD PUSH2 0x4C7 DUP5 DUP3 PUSH1 0x20 DUP7 ADD PUSH2 0x460 JUMP JUMPDEST SWAP2 POP POP SWAP3 SWAP2 POP POP JUMP JUMPDEST PUSH1 0x0 DUP2 SWAP1 POP SWAP2 SWAP1 POP JUMP JUMPDEST PUSH2 0x4E3 DUP2 PUSH2 0x4D0 JUMP JUMPDEST DUP2 EQ PUSH2 0x4EE JUMPI PUSH1 0x0 DUP1 REVERT JUMPDEST POP JUMP JUMPDEST PUSH1 0x0 DUP2 CALLDATALOAD SWAP1 POP PUSH2 0x500 DUP2 PUSH2 0x4DA JUMP JUMPDEST SWAP3 SWAP2 POP POP JUMP JUMPDEST PUSH1 0x0 DUP1 PUSH1 0x0 PUSH1 0x60 DUP5 DUP7 SUB SLT ISZERO PUSH2 0x51F JUMPI PUSH2 0x51E PUSH2 0x380 JUMP JUMPDEST JUMPDEST PUSH1 0x0 DUP5 ADD CALLDATALOAD PUSH8 0xFFFFFFFFFFFFFFFF DUP2 GT ISZERO PUSH2 0x53D JUMPI PUSH2 0x53C PUSH2 0x385 JUMP JUMPDEST JUMPDEST PUSH2 0x549 DUP7 DUP3 DUP8 ADD PUSH2 0x4A2 JUMP JUMPDEST SWAP4 POP POP PUSH1 0x20 DUP5 ADD CALLDATALOAD PUSH8 0xFFFFFFFFFFFFFFFF DUP2 GT ISZERO PUSH2 0x56A JUMPI PUSH2 0x569 PUSH2 0x385 JUMP JUMPDEST JUMPDEST PUSH2 0x576 DUP7 DUP3 DUP8 ADD PUSH2 0x4A2 JUMP JUMPDEST SWAP3 POP POP PUSH1 0x40 PUSH2 0x587 DUP7 DUP3 DUP8 ADD PUSH2 0x4F1 JUMP JUMPDEST SWAP2 POP POP SWAP3 POP SWAP3 POP SWAP3 JUMP JUMPDEST PUSH1 0x0 DUP2 MLOAD SWAP1 POP SWAP2 SWAP1 POP JUMP JUMPDEST PUSH1 0x0 DUP3 DUP3 MSTORE PUSH1 0x20 DUP3 ADD SWAP1 POP SWAP3 SWAP2 POP POP JUMP JUMPDEST PUSH1 0x0 JUMPDEST DUP4 DUP2 LT ISZERO PUSH2 0x5CB JUMPI DUP1 DUP3 ADD MLOAD DUP2 DUP5 ADD MSTORE PUSH1 0x20 DUP2 ADD SWAP1 POP PUSH2 0x5B0 JUMP JUMPDEST PUSH1 0x0 DUP5 DUP5 ADD MSTORE POP POP POP POP JUMP JUMPDEST PUSH1 0x0 PUSH2 0x5E2 DUP3 PUSH2 0x591 JUMP JUMPDEST PUSH2 0x5EC DUP2 DUP6 PUSH2 0x59C JUMP JUMPDEST SWAP4 POP PUSH2 0x5FC DUP2 DUP6 PUSH1 0x20 DUP7 ADD PUSH2 0x5AD JUMP JUMPDEST PUSH2 0x605 DUP2 PUSH2 0x394 JUMP JUMPDEST DUP5 ADD SWAP2 POP POP SWAP3 SWAP2 POP POP JUMP JUMPDEST PUSH2 0x619 DUP2 PUSH2 0x4D0 JUMP JUMPDEST DUP3 MSTORE POP POP JUMP JUMPDEST PUSH1 0x0 PUSH1 0x60 DUP3 ADD SWAP1 POP DUP2 DUP2 SUB PUSH1 0x0 DUP4 ADD MSTORE PUSH2 0x639 DUP2 DUP7 PUSH2 0x5D7 JUMP JUMPDEST SWAP1 POP DUP2 DUP2 SUB PUSH1 0x20 DUP4 ADD MSTORE PUSH2 0x64D DUP2 DUP6 PUSH2 0x5D7 JUMP JUMPDEST SWAP1 POP PUSH2 0x65C PUSH1 0x40 DUP4 ADD DUP5 PUSH2 0x610 JUMP JUMPDEST SWAP5 SWAP4 POP POP POP POP JUMP JUMPDEST PUSH32 0x4E487B7100000000000000000000000000000000000000000000000000000000 PUSH1 0x0 MSTORE PUSH1 0x22 PUSH1 0x4 MSTORE PUSH1 0x24 PUSH1 0x0 REVERT JUMPDEST PUSH1 0x0 PUSH1 0x2 DUP3 DIV SWAP1 POP PUSH1 0x1 DUP3 AND DUP1 PUSH2 0x6AB JUMPI PUSH1 0x7F DUP3 AND SWAP2 POP JUMPDEST PUSH1 0x20 DUP3 LT DUP2 SUB PUSH2 0x6BE JUMPI PUSH2 0x6BD PUSH2 0x664 JUMP JUMPDEST JUMPDEST POP SWAP2 SWAP1 POP JUMP JUMPDEST PUSH1 0x0 DUP2 SWAP1 POP DUP2 PUSH1 0x0 MSTORE PUSH1 0x20 PUSH1 0x0 KECCAK256 SWAP1 POP SWAP2 SWAP1 POP JUMP JUMPDEST PUSH1 0x0 PUSH1 0x20 PUSH1 0x1F DUP4 ADD DIV SWAP1 POP SWAP2 SWAP1 POP JUMP JUMPDEST PUSH1 0x0 DUP3 DUP3 SHL SWAP1 POP SWAP3 SWAP2 POP POP JUMP JUMPDEST PUSH1 0x0 PUSH1 0x8 DUP4 MUL PUSH2 0x726 PUSH32 0xFFFFFFFFFFFFFFFFFFFFFFFFFFFFFFFFFFFFFFFFFFFFFFFFFFFFFFFFFFFFFFFF DUP3 PUSH2 0x6E9 JUMP JUMPDEST PUSH2 0x730 DUP7 DUP4 PUSH2 0x6E9 JUMP JUMPDEST SWAP6 POP DUP1 NOT DUP5 AND SWAP4 POP DUP1 DUP7 AND DUP5 OR SWAP3 POP POP POP SWAP4 SWAP3 POP POP POP JUMP JUMPDEST PUSH1 0x0 DUP2 SWAP1 POP SWAP2 SWAP1 POP JUMP JUMPDEST PUSH1 0x0 PUSH2 0x76D PUSH2 0x768 PUSH2 0x763 DUP5 PUSH2 0x4D0 JUMP JUMPDEST PUSH2 0x748 JUMP JUMPDEST PUSH2 0x4D0 JUMP JUMPDEST SWAP1 POP SWAP2 SWAP1 POP JUMP JUMPDEST PUSH1 0x0 DUP2 SWAP1 POP SWAP2 SWAP1 POP JUMP JUMPDEST PUSH2 0x787 DUP4 PUSH2 0x752 JUMP JUMPDEST PUSH2 0x79B PUSH2 0x793 DUP3 PUSH2 0x774 JUMP JUMPDEST DUP5 DUP5 SLOAD PUSH2 0x6F6 JUMP JUMPDEST DUP3 SSTORE POP POP POP POP JUMP JUMPDEST PUSH1 0x0 SWAP1 JUMP JUMPDEST PUSH2 0x7B0 PUSH2 0x7A3 JUMP JUMPDEST PUSH2 0x7BB DUP2 DUP5 DUP5 PUSH2 0x77E JUMP JUMPDEST POP POP POP JUMP JUMPDEST JUMPDEST DUP2 DUP2 LT ISZERO PUSH2 0x7DF JUMPI PUSH2 0x7D4 PUSH1 0x0 DUP3 PUSH2 0x7A8 JUMP JUMPDEST PUSH1 0x1 DUP2 ADD SWAP1 POP PUSH2 0x7C1 JUMP JUMPDEST POP POP JUMP JUMPDEST PUSH1 0x1F DUP3 GT ISZERO PUSH2 0x824 JUMPI PUSH2 0x7F5 DUP2 PUSH2 0x6C4 JUMP JUMPDEST PUSH2 0x7FE DUP5 PUSH2 0x6D9 JUMP JUMPDEST DUP2 ADD PUSH1 0x20 DUP6 LT ISZERO PUSH2 0x80D JUMPI DUP2 SWAP1 POP JUMPDEST PUSH2 0x821 PUSH2 0x819 DUP6 PUSH2 0x6D9 JUMP JUMPDEST DUP4 ADD DUP3 PUSH2 0x7C0 JUMP JUMPDEST POP POP JUMPDEST POP POP POP JUMP JUMPDEST PUSH1 0x0 DUP3 DUP3 SHR SWAP1 POP SWAP3 SWAP2 POP POP JUMP JUMPDEST PUSH1 0x0 PUSH2 0x847 PUSH1 0x0 NOT DUP5 PUSH1 0x8 MUL PUSH2 0x829 JUMP JUMPDEST NOT DUP1 DUP4 AND SWAP2 POP POP SWAP3 SWAP2 POP POP JUMP JUMPDEST PUSH1 0x0 PUSH2 0x860 DUP4 DUP4 PUSH2 0x836 JUMP JUMPDEST SWAP2 POP DUP3 PUSH1 0x2 MUL DUP3 OR SWAP1 POP SWAP3 SWAP2 POP POP JUMP JUMPDEST PUSH2 0x879 DUP3 PUSH2 0x591 JUMP JUMPDEST PUSH8 0xFFFFFFFFFFFFFFFF DUP2 GT ISZERO PUSH2 0x892 JUMPI PUSH2 0x891 PUSH2 0x3A5 JUMP JUMPDEST JUMPDEST PUSH2 0x89C DUP3 SLOAD PUSH2 0x693 JUMP JUMPDEST PUSH2 0x8A7 DUP3 DUP3 DUP6 PUSH2 0x7E3 JUMP JUMPDEST PUSH1 0x0 PUSH1 0x20 SWAP1 POP PUSH1 0x1F DUP4 GT PUSH1 0x1 DUP2 EQ PUSH2 0x8DA JUMPI PUSH1 0x0 DUP5 ISZERO PUSH2 0x8C8 JUMPI DUP3 DUP8 ADD MLOAD SWAP1 POP JUMPDEST PUSH2 0x8D2 DUP6 DUP3 PUSH2 0x854 JUMP JUMPDEST DUP7 SSTORE POP PUSH2 0x93A JUMP JUMPDEST PUSH1 0x1F NOT DUP5 AND PUSH2 0x8E8 DUP7 PUSH2 0x6C4 JUMP JUMPDEST PUSH1 0x0 JUMPDEST DUP3 DUP2 LT ISZERO PUSH2 0x910 JUMPI DUP5 DUP10 ADD MLOAD DUP3 SSTORE PUSH1 0x1 DUP3 ADD SWAP2 POP PUSH1 0x20 DUP6 ADD SWAP5 POP PUSH1 0x20 DUP2 ADD SWAP1 POP PUSH2 0x8EB JUMP JUMPDEST DUP7 DUP4 LT ISZERO PUSH2 0x92D JUMPI DUP5 DUP10 ADD MLOAD PUSH2 0x929 PUSH1 0x1F DUP10 AND DUP3 PUSH2 0x836 JUMP JUMPDEST DUP4 SSTORE POP JUMPDEST PUSH1 0x1 PUSH1 0x2 DUP9 MUL ADD DUP9 SSTORE POP POP POP JUMPDEST POP POP POP POP POP POP JUMP JUMPDEST PUSH1 0x0 DUP3 DUP3 MSTORE PUSH1 0x20 DUP3 ADD SWAP1 POP SWAP3 SWAP2 POP POP JUMP JUMPDEST PUSH1 0x0 PUSH2 0x95E DUP3 PUSH2 0x591 JUMP JUMPDEST PUSH2 0x968 DUP2 DUP6 PUSH2 0x942 JUMP JUMPDEST SWAP4 POP PUSH2 0x978 DUP2 DUP6 PUSH1 0x20 DUP7 ADD PUSH2 0x5AD JUMP JUMPDEST PUSH2 0x981 DUP2 PUSH2 0x394 JUMP JUMPDEST DUP5 ADD SWAP2 POP POP SWAP3 SWAP2 POP POP JUMP JUMPDEST PUSH2 0x995 DUP2 PUSH2 0x4D0 JUMP JUMPDEST DUP3 MSTORE POP POP JUMP JUMPDEST PUSH1 0x0 PUSH1 0x60 DUP4 ADD PUSH1 0x0 DUP4 ADD MLOAD DUP5 DUP3 SUB PUSH1 0x0 DUP7 ADD MSTORE PUSH2 0x9B8 DUP3 DUP3 PUSH2 0x953 JUMP JUMPDEST SWAP2 POP POP PUSH1 0x20 DUP4 ADD MLOAD DUP5 DUP3 SUB PUSH1 0x20 DUP7 ADD MSTORE PUSH2 0x9D2 DUP3 DUP3 PUSH2 0x953 JUMP JUMPDEST SWAP2 POP POP PUSH1 0x40 DUP4 ADD MLOAD PUSH2 0x9E7 PUSH1 0x40 DUP7 ADD DUP3 PUSH2 0x98C JUMP JUMPDEST POP DUP1 SWAP2 POP POP SWAP3 SWAP2 POP POP JUMP JUMPDEST PUSH1 0x0 DUP2 SLOAD PUSH2 0x9FF DUP2 PUSH2 0x693 JUMP JUMPDEST PUSH2 0xA09 DUP2 DUP7 PUSH2 0x942 JUMP JUMPDEST SWAP5 POP PUSH1 0x1 DUP3 AND PUSH1 0x0 DUP2 EQ PUSH2 0xA24 JUMPI PUSH1 0x1 DUP2 EQ PUSH2 0xA3A JUMPI PUSH2 0xA6D JUMP JUMPDEST PUSH1 0xFF NOT DUP4 AND DUP7 MSTORE DUP2 ISZERO ISZERO PUSH1 0x20 MUL DUP7 ADD SWAP4 POP PUSH2 0xA6D JUMP JUMPDEST PUSH2 0xA43 DUP6 PUSH2 0x6C4 JUMP JUMPDEST PUSH1 0x0 JUMPDEST DUP4 DUP2 LT ISZERO PUSH2 0xA65 JUMPI DUP2 SLOAD DUP2 DUP10 ADD MSTORE PUSH1 0x1 DUP3 ADD SWAP2 POP PUSH1 0x20 DUP2 ADD SWAP1 POP PUSH2 0xA46 JUMP JUMPDEST DUP1 DUP9 ADD SWAP6 POP POP POP JUMPDEST POP POP POP SWAP3 SWAP2 POP POP JUMP JUMPDEST PUSH1 0x0 DUP2 PUSH1 0x0 SHR SWAP1 POP SWAP2 SWAP1 POP JUMP JUMPDEST PUSH1 0x0 DUP2 SWAP1 POP SWAP2 SWAP1 POP JUMP JUMPDEST PUSH1 0x0 PUSH2 0xAA0 PUSH2 0xA9B DUP4 PUSH2 0xA76 JUMP JUMPDEST PUSH2 0xA83 JUMP JUMPDEST SWAP1 POP SWAP2 SWAP1 POP JUMP JUMPDEST PUSH1 0x0 PUSH1 0x60 DUP4 ADD PUSH1 0x0 DUP1 DUP5 ADD DUP6 DUP4 SUB PUSH1 0x0 DUP8 ADD MSTORE PUSH2 0xAC4 DUP4 DUP3 PUSH2 0x9F2 JUMP JUMPDEST SWAP3 POP POP PUSH1 0x1 DUP5 ADD DUP6 DUP4 SUB PUSH1 0x20 DUP8 ADD MSTORE PUSH2 0xADD DUP4 DUP3 PUSH2 0x9F2 JUMP JUMPDEST SWAP3 POP POP PUSH1 0x2 DUP5 ADD SLOAD SWAP1 POP PUSH2 0xAF0 DUP2 PUSH2 0xA8D JUMP JUMPDEST PUSH2 0xAFD PUSH1 0x40 DUP8 ADD DUP3 PUSH2 0x98C JUMP JUMPDEST POP DUP2 SWAP3 POP POP POP SWAP3 SWAP2 POP POP JUMP JUMPDEST PUSH1 0x0 PUSH1 0x80 DUP3 ADD SWAP1 POP DUP2 DUP2 SUB PUSH1 0x0 DUP4 ADD MSTORE PUSH2 0xB23 DUP2 DUP8 PUSH2 0x99B JUMP JUMPDEST SWAP1 POP DUP2 DUP2 SUB PUSH1 0x20 DUP4 ADD MSTORE PUSH2 0xB37 DUP2 DUP7 PUSH2 0xAA7 JUMP JUMPDEST SWAP1 POP PUSH2 0xB46 PUSH1 0x40 DUP4 ADD DUP6 PUSH2 0x610 JUMP JUMPDEST PUSH2 0xB53 PUSH1 0x60 DUP4 ADD DUP5 PUSH2 0x610 JUMP JUMPDEST SWAP6 SWAP5 POP POP POP POP POP JUMP INVALID LOG2 PUSH5 0x6970667358 0x22 SLT KECCAK256 EQ PUSH25 0xD264FAC31C9E7E82AEA19F349D2F8651BC4C5F45A4DE610966 0x25 0x2D 0xAD CALLDATALOAD LT PUSH5 0x736F6C6343 STOP ADDMOD SLT STOP CALLER "
				},
				"gasEstimates": {
					"creation": {
						"codeDepositCost": "592400",
						"executionCost": "625",
						"totalCost": "593025"
					},
					"external": {
						"p1()": "infinite",
						"setnewperson(string,string,uint256)": "infinite"
					}
				},
				"methodIdentifiers": {
					"p1()": "c2a2747b",
					"setnewperson(string,string,uint256)": "88dda91a"
				}
			},
			"storageLayout": {
				"storage": [
					{
						"astId": 114,
						"contract": "Labs (August)/Events/file03_11.sol:PEve",
						"label": "p1",
						"offset": 0,
						"slot": "0",
						"type": "t_struct(personInfo)111_storage"
					}
				],
				"types": {
					"t_string_storage": {
						"encoding": "bytes",
						"label": "string",
						"numberOfBytes": "32"
					},
					"t_struct(personInfo)111_storage": {
						"encoding": "inplace",
						"label": "struct PEve.personInfo",
						"members": [
							{
								"astId": 106,
								"contract": "Labs (August)/Events/file03_11.sol:PEve",
								"label": "name",
								"offset": 0,
								"slot": "0",
								"type": "t_string_storage"
							},
							{
								"astId": 108,
								"contract": "Labs (August)/Events/file03_11.sol:PEve",
								"label": "gender",
								"offset": 0,
								"slot": "1",
								"type": "t_string_storage"
							},
							{
								"astId": 110,
								"contract": "Labs (August)/Events/file03_11.sol:PEve",
								"label": "age",
								"offset": 0,
								"slot": "2",
								"type": "t_uint256"
							}
						],
						"numberOfBytes": "96"
					},
					"t_uint256": {
						"encoding": "inplace",
						"label": "uint256",
						"numberOfBytes": "32"
					}
				}
			},
			"userdoc": {
				"kind": "user",
				"methods": {},
				"version": 1
			}
		}
	}
}