{
	"Labs (August)/Events/file02.sol": {
		"PC": {
			"abi": [
				{
					"anonymous": false,
					"inputs": [
						{
							"components": [
								{
									"internalType": "string",
									"name": "name",
									"type": "string"
								},
								{
									"internalType": "uint256",
									"name": "age",
									"type": "uint256"
								},
								{
									"internalType": "address",
									"name": "addr",
									"type": "address"
								},
								{
									"internalType": "string",
									"name": "Marital_status",
									"type": "string"
								}
							],
							"indexed": false,
							"internalType": "struct PC.Person",
							"name": "oldvalue",
							"type": "tuple"
						},
						{
							"components": [
								{
									"internalType": "string",
									"name": "name",
									"type": "string"
								},
								{
									"internalType": "uint256",
									"name": "age",
									"type": "uint256"
								},
								{
									"internalType": "address",
									"name": "addr",
									"type": "address"
								},
								{
									"internalType": "string",
									"name": "Marital_status",
									"type": "string"
								}
							],
							"indexed": false,
							"internalType": "struct PC.Person",
							"name": "newvalue",
							"type": "tuple"
						},
						{
							"indexed": false,
							"internalType": "uint256",
							"name": "timestamp",
							"type": "uint256"
						},
						{
							"indexed": false,
							"internalType": "uint256",
							"name": "blocknumber",
							"type": "uint256"
						}
					],
					"name": "update",
					"type": "event"
				},
				{
					"inputs": [],
					"name": "p1",
					"outputs": [
						{
							"internalType": "string",
							"name": "name",
							"type": "string"
						},
						{
							"internalType": "uint256",
							"name": "age",
							"type": "uint256"
						},
						{
							"internalType": "address",
							"name": "addr",
							"type": "address"
						},
						{
							"internalType": "string",
							"name": "Marital_status",
							"type": "string"
						}
					],
					"stateMutability": "view",
					"type": "function"
				},
				{
					"inputs": [
						{
							"internalType": "string",
							"name": "_name",
							"type": "string"
						},
						{
							"internalType": "uint256",
							"name": "_age",
							"type": "uint256"
						},
						{
							"internalType": "address",
							"name": "_addr",
							"type": "address"
						},
						{
							"internalType": "string",
							"name": "status",
							"type": "string"
						}
					],
					"name": "setter",
					"outputs": [],
					"stateMutability": "nonpayable",
					"type": "function"
				}
			],
			"devdoc": {
				"kind": "dev",
				"methods": {},
				"version": 1
			},
			"evm": {
				"assembly": "    /* \"Labs (August)/Events/file02.sol\":63:778  contract PC{ //personal contract... */\n  mstore(0x40, 0x80)\n  callvalue\n  dup1\n  iszero\n  tag_1\n  jumpi\n  0x00\n  dup1\n  revert\ntag_1:\n  pop\n  dataSize(sub_0)\n  dup1\n  dataOffset(sub_0)\n  0x00\n  codecopy\n  0x00\n  return\nstop\n\nsub_0: assembly {\n        /* \"Labs (August)/Events/file02.sol\":63:778  contract PC{ //personal contract... */\n      mstore(0x40, 0x80)\n      callvalue\n      dup1\n      iszero\n      tag_1\n      jumpi\n      0x00\n      dup1\n      revert\n    tag_1:\n      pop\n      jumpi(tag_2, lt(calldatasize, 0x04))\n      shr(0xe0, calldataload(0x00))\n      dup1\n      0x6e06a667\n      eq\n      tag_3\n      jumpi\n      dup1\n      0xc2a2747b\n      eq\n      tag_4\n      jumpi\n    tag_2:\n      0x00\n      dup1\n      revert\n        /* \"Labs (August)/Events/file02.sol\":411:775  function setter(string memory _name,uint _age, address _addr, string memory status)public{... */\n    tag_3:\n      tag_5\n      0x04\n      dup1\n      calldatasize\n      sub\n      dup2\n      add\n      swap1\n      tag_6\n      swap2\n      swap1\n      tag_7\n      jump\t// in\n    tag_6:\n      tag_8\n      jump\t// in\n    tag_5:\n      stop\n        /* \"Labs (August)/Events/file02.sol\":295:311  Person public p1 */\n    tag_4:\n      tag_9\n      tag_10\n      jump\t// in\n    tag_9:\n      mload(0x40)\n      tag_11\n      swap5\n      swap4\n      swap3\n      swap2\n      swap1\n      tag_12\n      jump\t// in\n    tag_11:\n      mload(0x40)\n      dup1\n      swap2\n      sub\n      swap1\n      return\n        /* \"Labs (August)/Events/file02.sol\":411:775  function setter(string memory _name,uint _age, address _addr, string memory status)public{... */\n    tag_8:\n        /* \"Labs (August)/Events/file02.sol\":511:533  Person memory oldvalue */\n      0x00\n        /* \"Labs (August)/Events/file02.sol\":536:538  p1 */\n      dup1\n        /* \"Labs (August)/Events/file02.sol\":511:538  Person memory oldvalue = p1 */\n      mload(0x40)\n      dup1\n      0x80\n      add\n      0x40\n      mstore\n      swap1\n      dup2\n      0x00\n      dup3\n      add\n      dup1\n      sload\n      tag_14\n      swap1\n      tag_15\n      jump\t// in\n    tag_14:\n      dup1\n      0x1f\n      add\n      0x20\n      dup1\n      swap2\n      div\n      mul\n      0x20\n      add\n      mload(0x40)\n      swap1\n      dup2\n      add\n      0x40\n      mstore\n      dup1\n      swap3\n      swap2\n      swap1\n      dup2\n      dup2\n      mstore\n      0x20\n      add\n      dup3\n      dup1\n      sload\n      tag_16\n      swap1\n      tag_15\n      jump\t// in\n    tag_16:\n      dup1\n      iszero\n      tag_17\n      jumpi\n      dup1\n      0x1f\n      lt\n      tag_18\n      jumpi\n      0x0100\n      dup1\n      dup4\n      sload\n      div\n      mul\n      dup4\n      mstore\n      swap2\n      0x20\n      add\n      swap2\n      jump(tag_17)\n    tag_18:\n      dup3\n      add\n      swap2\n      swap1\n      0x00\n      mstore\n      keccak256(0x00, 0x20)\n      swap1\n    tag_19:\n      dup2\n      sload\n      dup2\n      mstore\n      swap1\n      0x01\n      add\n      swap1\n      0x20\n      add\n      dup1\n      dup4\n      gt\n      tag_19\n      jumpi\n      dup3\n      swap1\n      sub\n      0x1f\n      and\n      dup3\n      add\n      swap2\n    tag_17:\n      pop\n      pop\n      pop\n      pop\n      pop\n      dup2\n      mstore\n      0x20\n      add\n      0x01\n      dup3\n      add\n      sload\n      dup2\n      mstore\n      0x20\n      add\n      0x02\n      dup3\n      add\n      0x00\n      swap1\n      sload\n      swap1\n      0x0100\n      exp\n      swap1\n      div\n      0xffffffffffffffffffffffffffffffffffffffff\n      and\n      0xffffffffffffffffffffffffffffffffffffffff\n      and\n      0xffffffffffffffffffffffffffffffffffffffff\n      and\n      dup2\n      mstore\n      0x20\n      add\n      0x03\n      dup3\n      add\n      dup1\n      sload\n      tag_20\n      swap1\n      tag_15\n      jump\t// in\n    tag_20:\n      dup1\n      0x1f\n      add\n      0x20\n      dup1\n      swap2\n      div\n      mul\n      0x20\n      add\n      mload(0x40)\n      swap1\n      dup2\n      add\n      0x40\n      mstore\n      dup1\n      swap3\n      swap2\n      swap1\n      dup2\n      dup2\n      mstore\n      0x20\n      add\n      dup3\n      dup1\n      sload\n      tag_21\n      swap1\n      tag_15\n      jump\t// in\n    tag_21:\n      dup1\n      iszero\n      tag_22\n      jumpi\n      dup1\n      0x1f\n      lt\n      tag_23\n      jumpi\n      0x0100\n      dup1\n      dup4\n      sload\n      div\n      mul\n      dup4\n      mstore\n      swap2\n      0x20\n      add\n      swap2\n      jump(tag_22)\n    tag_23:\n      dup3\n      add\n      swap2\n      swap1\n      0x00\n      mstore\n      keccak256(0x00, 0x20)\n      swap1\n    tag_24:\n      dup2\n      sload\n      dup2\n      mstore\n      swap1\n      0x01\n      add\n      swap1\n      0x20\n      add\n      dup1\n      dup4\n      gt\n      tag_24\n      jumpi\n      dup3\n      swap1\n      sub\n      0x1f\n      and\n      dup3\n      add\n      swap2\n    tag_22:\n      pop\n      pop\n      pop\n      pop\n      pop\n      dup2\n      mstore\n      pop\n      pop\n      swap1\n      pop\n        /* \"Labs (August)/Events/file02.sol\":553:584  Person(_name,_age,_addr,status) */\n      mload(0x40)\n      dup1\n      0x80\n      add\n      0x40\n      mstore\n      dup1\n        /* \"Labs (August)/Events/file02.sol\":560:565  _name */\n      dup7\n        /* \"Labs (August)/Events/file02.sol\":553:584  Person(_name,_age,_addr,status) */\n      dup2\n      mstore\n      0x20\n      add\n        /* \"Labs (August)/Events/file02.sol\":566:570  _age */\n      dup6\n        /* \"Labs (August)/Events/file02.sol\":553:584  Person(_name,_age,_addr,status) */\n      dup2\n      mstore\n      0x20\n      add\n        /* \"Labs (August)/Events/file02.sol\":571:576  _addr */\n      dup5\n        /* \"Labs (August)/Events/file02.sol\":553:584  Person(_name,_age,_addr,status) */\n      0xffffffffffffffffffffffffffffffffffffffff\n      and\n      dup2\n      mstore\n      0x20\n      add\n        /* \"Labs (August)/Events/file02.sol\":577:583  status */\n      dup4\n        /* \"Labs (August)/Events/file02.sol\":553:584  Person(_name,_age,_addr,status) */\n      dup2\n      mstore\n      pop\n        /* \"Labs (August)/Events/file02.sol\":549:551  p1 */\n      0x00\n        /* \"Labs (August)/Events/file02.sol\":549:584  p1= Person(_name,_age,_addr,status) */\n      dup1\n      dup3\n      add\n      mload\n      dup2\n      0x00\n      add\n      swap1\n      dup2\n      tag_25\n      swap2\n      swap1\n      tag_26\n      jump\t// in\n    tag_25:\n      pop\n      0x20\n      dup3\n      add\n      mload\n      dup2\n      0x01\n      add\n      sstore\n      0x40\n      dup3\n      add\n      mload\n      dup2\n      0x02\n      add\n      exp(0x0100, 0x00)\n      dup2\n      sload\n      dup2\n      0xffffffffffffffffffffffffffffffffffffffff\n      mul\n      not\n      and\n      swap1\n      dup4\n      0xffffffffffffffffffffffffffffffffffffffff\n      and\n      mul\n      or\n      swap1\n      sstore\n      pop\n      0x60\n      dup3\n      add\n      mload\n      dup2\n      0x03\n      add\n      swap1\n      dup2\n      tag_27\n      swap2\n      swap1\n      tag_26\n      jump\t// in\n    tag_27:\n      pop\n      swap1\n      pop\n      pop\n        /* \"Labs (August)/Events/file02.sol\":716:767  update(oldvalue, p1, block.timestamp, block.number) */\n      0xa47beb025e0fb390668fa6d1cef2e5e2d4c5da972f9c705fe3f17598f5135250\n        /* \"Labs (August)/Events/file02.sol\":723:731  oldvalue */\n      dup2\n        /* \"Labs (August)/Events/file02.sol\":733:735  p1 */\n      0x00\n        /* \"Labs (August)/Events/file02.sol\":737:752  block.timestamp */\n      timestamp\n        /* \"Labs (August)/Events/file02.sol\":754:766  block.number */\n      number\n        /* \"Labs (August)/Events/file02.sol\":716:767  update(oldvalue, p1, block.timestamp, block.number) */\n      mload(0x40)\n      tag_28\n      swap5\n      swap4\n      swap3\n      swap2\n      swap1\n      tag_29\n      jump\t// in\n    tag_28:\n      mload(0x40)\n      dup1\n      swap2\n      sub\n      swap1\n      log1\n        /* \"Labs (August)/Events/file02.sol\":500:775  {... */\n      pop\n        /* \"Labs (August)/Events/file02.sol\":411:775  function setter(string memory _name,uint _age, address _addr, string memory status)public{... */\n      pop\n      pop\n      pop\n      pop\n      jump\t// out\n        /* \"Labs (August)/Events/file02.sol\":295:311  Person public p1 */\n    tag_10:\n      0x00\n      dup1\n      0x00\n      add\n      dup1\n      sload\n      tag_30\n      swap1\n      tag_15\n      jump\t// in\n    tag_30:\n      dup1\n      0x1f\n      add\n      0x20\n      dup1\n      swap2\n      div\n      mul\n      0x20\n      add\n      mload(0x40)\n      swap1\n      dup2\n      add\n      0x40\n      mstore\n      dup1\n      swap3\n      swap2\n      swap1\n      dup2\n      dup2\n      mstore\n      0x20\n      add\n      dup3\n      dup1\n      sload\n      tag_31\n      swap1\n      tag_15\n      jump\t// in\n    tag_31:\n      dup1\n      iszero\n      tag_32\n      jumpi\n      dup1\n      0x1f\n      lt\n      tag_33\n      jumpi\n      0x0100\n      dup1\n      dup4\n      sload\n      div\n      mul\n      dup4\n      mstore\n      swap2\n      0x20\n      add\n      swap2\n      jump(tag_32)\n    tag_33:\n      dup3\n      add\n      swap2\n      swap1\n      0x00\n      mstore\n      keccak256(0x00, 0x20)\n      swap1\n    tag_34:\n      dup2\n      sload\n      dup2\n      mstore\n      swap1\n      0x01\n      add\n      swap1\n      0x20\n      add\n      dup1\n      dup4\n      gt\n      tag_34\n      jumpi\n      dup3\n      swap1\n      sub\n      0x1f\n      and\n      dup3\n      add\n      swap2\n    tag_32:\n      pop\n      pop\n      pop\n      pop\n      pop\n      swap1\n      dup1\n      0x01\n      add\n      sload\n      swap1\n      dup1\n      0x02\n      add\n      0x00\n      swap1\n      sload\n      swap1\n      0x0100\n      exp\n      swap1\n      div\n      0xffffffffffffffffffffffffffffffffffffffff\n      and\n      swap1\n      dup1\n      0x03\n      add\n      dup1\n      sload\n      tag_35\n      swap1\n      tag_15\n      jump\t// in\n    tag_35:\n      dup1\n      0x1f\n      add\n      0x20\n      dup1\n      swap2\n      div\n      mul\n      0x20\n      add\n      mload(0x40)\n      swap1\n      dup2\n      add\n      0x40\n      mstore\n      dup1\n      swap3\n      swap2\n      swap1\n      dup2\n      dup2\n      mstore\n      0x20\n      add\n      dup3\n      dup1\n      sload\n      tag_36\n      swap1\n      tag_15\n      jump\t// in\n    tag_36:\n      dup1\n      iszero\n      tag_37\n      jumpi\n      dup1\n      0x1f\n      lt\n      tag_38\n      jumpi\n      0x0100\n      dup1\n      dup4\n      sload\n      div\n      mul\n      dup4\n      mstore\n      swap2\n      0x20\n      add\n      swap2\n      jump(tag_37)\n    tag_38:\n      dup3\n      add\n      swap2\n      swap1\n      0x00\n      mstore\n      keccak256(0x00, 0x20)\n      swap1\n    tag_39:\n      dup2\n      sload\n      dup2\n      mstore\n      swap1\n      0x01\n      add\n      swap1\n      0x20\n      add\n      dup1\n      dup4\n      gt\n      tag_39\n      jumpi\n      dup3\n      swap1\n      sub\n      0x1f\n      and\n      dup3\n      add\n      swap2\n    tag_37:\n      pop\n      pop\n      pop\n      pop\n      pop\n      swap1\n      pop\n      dup5\n      jump\t// out\n        /* \"#utility.yul\":7:82   */\n    tag_40:\n        /* \"#utility.yul\":40:46   */\n      0x00\n        /* \"#utility.yul\":73:75   */\n      0x40\n        /* \"#utility.yul\":67:76   */\n      mload\n        /* \"#utility.yul\":57:76   */\n      swap1\n      pop\n        /* \"#utility.yul\":7:82   */\n      swap1\n      jump\t// out\n        /* \"#utility.yul\":88:205   */\n    tag_41:\n        /* \"#utility.yul\":197:198   */\n      0x00\n        /* \"#utility.yul\":194:195   */\n      dup1\n        /* \"#utility.yul\":187:199   */\n      revert\n        /* \"#utility.yul\":211:328   */\n    tag_42:\n        /* \"#utility.yul\":320:321   */\n      0x00\n        /* \"#utility.yul\":317:318   */\n      dup1\n        /* \"#utility.yul\":310:322   */\n      revert\n        /* \"#utility.yul\":334:451   */\n    tag_43:\n        /* \"#utility.yul\":443:444   */\n      0x00\n        /* \"#utility.yul\":440:441   */\n      dup1\n        /* \"#utility.yul\":433:445   */\n      revert\n        /* \"#utility.yul\":457:574   */\n    tag_44:\n        /* \"#utility.yul\":566:567   */\n      0x00\n        /* \"#utility.yul\":563:564   */\n      dup1\n        /* \"#utility.yul\":556:568   */\n      revert\n        /* \"#utility.yul\":580:682   */\n    tag_45:\n        /* \"#utility.yul\":621:627   */\n      0x00\n        /* \"#utility.yul\":672:674   */\n      0x1f\n        /* \"#utility.yul\":668:675   */\n      not\n        /* \"#utility.yul\":663:665   */\n      0x1f\n        /* \"#utility.yul\":656:661   */\n      dup4\n        /* \"#utility.yul\":652:666   */\n      add\n        /* \"#utility.yul\":648:676   */\n      and\n        /* \"#utility.yul\":638:676   */\n      swap1\n      pop\n        /* \"#utility.yul\":580:682   */\n      swap2\n      swap1\n      pop\n      jump\t// out\n        /* \"#utility.yul\":688:868   */\n    tag_46:\n        /* \"#utility.yul\":736:813   */\n      0x4e487b7100000000000000000000000000000000000000000000000000000000\n        /* \"#utility.yul\":733:734   */\n      0x00\n        /* \"#utility.yul\":726:814   */\n      mstore\n        /* \"#utility.yul\":833:837   */\n      0x41\n        /* \"#utility.yul\":830:831   */\n      0x04\n        /* \"#utility.yul\":823:838   */\n      mstore\n        /* \"#utility.yul\":857:861   */\n      0x24\n        /* \"#utility.yul\":854:855   */\n      0x00\n        /* \"#utility.yul\":847:862   */\n      revert\n        /* \"#utility.yul\":874:1155   */\n    tag_47:\n        /* \"#utility.yul\":957:984   */\n      tag_103\n        /* \"#utility.yul\":979:983   */\n      dup3\n        /* \"#utility.yul\":957:984   */\n      tag_45\n      jump\t// in\n    tag_103:\n        /* \"#utility.yul\":949:955   */\n      dup2\n        /* \"#utility.yul\":945:985   */\n      add\n        /* \"#utility.yul\":1087:1093   */\n      dup2\n        /* \"#utility.yul\":1075:1085   */\n      dup2\n        /* \"#utility.yul\":1072:1094   */\n      lt\n        /* \"#utility.yul\":1051:1069   */\n      0xffffffffffffffff\n        /* \"#utility.yul\":1039:1049   */\n      dup3\n        /* \"#utility.yul\":1036:1070   */\n      gt\n        /* \"#utility.yul\":1033:1095   */\n      or\n        /* \"#utility.yul\":1030:1118   */\n      iszero\n      tag_104\n      jumpi\n        /* \"#utility.yul\":1098:1116   */\n      tag_105\n      tag_46\n      jump\t// in\n    tag_105:\n        /* \"#utility.yul\":1030:1118   */\n    tag_104:\n        /* \"#utility.yul\":1138:1148   */\n      dup1\n        /* \"#utility.yul\":1134:1136   */\n      0x40\n        /* \"#utility.yul\":1127:1149   */\n      mstore\n        /* \"#utility.yul\":917:1155   */\n      pop\n        /* \"#utility.yul\":874:1155   */\n      pop\n      pop\n      jump\t// out\n        /* \"#utility.yul\":1161:1290   */\n    tag_48:\n        /* \"#utility.yul\":1195:1201   */\n      0x00\n        /* \"#utility.yul\":1222:1242   */\n      tag_107\n      tag_40\n      jump\t// in\n    tag_107:\n        /* \"#utility.yul\":1212:1242   */\n      swap1\n      pop\n        /* \"#utility.yul\":1251:1284   */\n      tag_108\n        /* \"#utility.yul\":1279:1283   */\n      dup3\n        /* \"#utility.yul\":1271:1277   */\n      dup3\n        /* \"#utility.yul\":1251:1284   */\n      tag_47\n      jump\t// in\n    tag_108:\n        /* \"#utility.yul\":1161:1290   */\n      swap2\n      swap1\n      pop\n      jump\t// out\n        /* \"#utility.yul\":1296:1604   */\n    tag_49:\n        /* \"#utility.yul\":1358:1362   */\n      0x00\n        /* \"#utility.yul\":1448:1466   */\n      0xffffffffffffffff\n        /* \"#utility.yul\":1440:1446   */\n      dup3\n        /* \"#utility.yul\":1437:1467   */\n      gt\n        /* \"#utility.yul\":1434:1490   */\n      iszero\n      tag_110\n      jumpi\n        /* \"#utility.yul\":1470:1488   */\n      tag_111\n      tag_46\n      jump\t// in\n    tag_111:\n        /* \"#utility.yul\":1434:1490   */\n    tag_110:\n        /* \"#utility.yul\":1508:1537   */\n      tag_112\n        /* \"#utility.yul\":1530:1536   */\n      dup3\n        /* \"#utility.yul\":1508:1537   */\n      tag_45\n      jump\t// in\n    tag_112:\n        /* \"#utility.yul\":1500:1537   */\n      swap1\n      pop\n        /* \"#utility.yul\":1592:1596   */\n      0x20\n        /* \"#utility.yul\":1586:1590   */\n      dup2\n        /* \"#utility.yul\":1582:1597   */\n      add\n        /* \"#utility.yul\":1574:1597   */\n      swap1\n      pop\n        /* \"#utility.yul\":1296:1604   */\n      swap2\n      swap1\n      pop\n      jump\t// out\n        /* \"#utility.yul\":1610:1756   */\n    tag_50:\n        /* \"#utility.yul\":1707:1713   */\n      dup3\n        /* \"#utility.yul\":1702:1705   */\n      dup2\n        /* \"#utility.yul\":1697:1700   */\n      dup4\n        /* \"#utility.yul\":1684:1714   */\n      calldatacopy\n        /* \"#utility.yul\":1748:1749   */\n      0x00\n        /* \"#utility.yul\":1739:1745   */\n      dup4\n        /* \"#utility.yul\":1734:1737   */\n      dup4\n        /* \"#utility.yul\":1730:1746   */\n      add\n        /* \"#utility.yul\":1723:1750   */\n      mstore\n        /* \"#utility.yul\":1610:1756   */\n      pop\n      pop\n      pop\n      jump\t// out\n        /* \"#utility.yul\":1762:2187   */\n    tag_51:\n        /* \"#utility.yul\":1840:1845   */\n      0x00\n        /* \"#utility.yul\":1865:1931   */\n      tag_115\n        /* \"#utility.yul\":1881:1930   */\n      tag_116\n        /* \"#utility.yul\":1923:1929   */\n      dup5\n        /* \"#utility.yul\":1881:1930   */\n      tag_49\n      jump\t// in\n    tag_116:\n        /* \"#utility.yul\":1865:1931   */\n      tag_48\n      jump\t// in\n    tag_115:\n        /* \"#utility.yul\":1856:1931   */\n      swap1\n      pop\n        /* \"#utility.yul\":1954:1960   */\n      dup3\n        /* \"#utility.yul\":1947:1952   */\n      dup2\n        /* \"#utility.yul\":1940:1961   */\n      mstore\n        /* \"#utility.yul\":1992:1996   */\n      0x20\n        /* \"#utility.yul\":1985:1990   */\n      dup2\n        /* \"#utility.yul\":1981:1997   */\n      add\n        /* \"#utility.yul\":2030:2033   */\n      dup5\n        /* \"#utility.yul\":2021:2027   */\n      dup5\n        /* \"#utility.yul\":2016:2019   */\n      dup5\n        /* \"#utility.yul\":2012:2028   */\n      add\n        /* \"#utility.yul\":2009:2034   */\n      gt\n        /* \"#utility.yul\":2006:2118   */\n      iszero\n      tag_117\n      jumpi\n        /* \"#utility.yul\":2037:2116   */\n      tag_118\n      tag_44\n      jump\t// in\n    tag_118:\n        /* \"#utility.yul\":2006:2118   */\n    tag_117:\n        /* \"#utility.yul\":2127:2181   */\n      tag_119\n        /* \"#utility.yul\":2174:2180   */\n      dup5\n        /* \"#utility.yul\":2169:2172   */\n      dup3\n        /* \"#utility.yul\":2164:2167   */\n      dup6\n        /* \"#utility.yul\":2127:2181   */\n      tag_50\n      jump\t// in\n    tag_119:\n        /* \"#utility.yul\":1846:2187   */\n      pop\n        /* \"#utility.yul\":1762:2187   */\n      swap4\n      swap3\n      pop\n      pop\n      pop\n      jump\t// out\n        /* \"#utility.yul\":2207:2547   */\n    tag_52:\n        /* \"#utility.yul\":2263:2268   */\n      0x00\n        /* \"#utility.yul\":2312:2315   */\n      dup3\n        /* \"#utility.yul\":2305:2309   */\n      0x1f\n        /* \"#utility.yul\":2297:2303   */\n      dup4\n        /* \"#utility.yul\":2293:2310   */\n      add\n        /* \"#utility.yul\":2289:2316   */\n      slt\n        /* \"#utility.yul\":2279:2401   */\n      tag_121\n      jumpi\n        /* \"#utility.yul\":2320:2399   */\n      tag_122\n      tag_43\n      jump\t// in\n    tag_122:\n        /* \"#utility.yul\":2279:2401   */\n    tag_121:\n        /* \"#utility.yul\":2437:2443   */\n      dup2\n        /* \"#utility.yul\":2424:2444   */\n      calldataload\n        /* \"#utility.yul\":2462:2541   */\n      tag_123\n        /* \"#utility.yul\":2537:2540   */\n      dup5\n        /* \"#utility.yul\":2529:2535   */\n      dup3\n        /* \"#utility.yul\":2522:2526   */\n      0x20\n        /* \"#utility.yul\":2514:2520   */\n      dup7\n        /* \"#utility.yul\":2510:2527   */\n      add\n        /* \"#utility.yul\":2462:2541   */\n      tag_51\n      jump\t// in\n    tag_123:\n        /* \"#utility.yul\":2453:2541   */\n      swap2\n      pop\n        /* \"#utility.yul\":2269:2547   */\n      pop\n        /* \"#utility.yul\":2207:2547   */\n      swap3\n      swap2\n      pop\n      pop\n      jump\t// out\n        /* \"#utility.yul\":2553:2630   */\n    tag_53:\n        /* \"#utility.yul\":2590:2597   */\n      0x00\n        /* \"#utility.yul\":2619:2624   */\n      dup2\n        /* \"#utility.yul\":2608:2624   */\n      swap1\n      pop\n        /* \"#utility.yul\":2553:2630   */\n      swap2\n      swap1\n      pop\n      jump\t// out\n        /* \"#utility.yul\":2636:2758   */\n    tag_54:\n        /* \"#utility.yul\":2709:2733   */\n      tag_126\n        /* \"#utility.yul\":2727:2732   */\n      dup2\n        /* \"#utility.yul\":2709:2733   */\n      tag_53\n      jump\t// in\n    tag_126:\n        /* \"#utility.yul\":2702:2707   */\n      dup2\n        /* \"#utility.yul\":2699:2734   */\n      eq\n        /* \"#utility.yul\":2689:2752   */\n      tag_127\n      jumpi\n        /* \"#utility.yul\":2748:2749   */\n      0x00\n        /* \"#utility.yul\":2745:2746   */\n      dup1\n        /* \"#utility.yul\":2738:2750   */\n      revert\n        /* \"#utility.yul\":2689:2752   */\n    tag_127:\n        /* \"#utility.yul\":2636:2758   */\n      pop\n      jump\t// out\n        /* \"#utility.yul\":2764:2903   */\n    tag_55:\n        /* \"#utility.yul\":2810:2815   */\n      0x00\n        /* \"#utility.yul\":2848:2854   */\n      dup2\n        /* \"#utility.yul\":2835:2855   */\n      calldataload\n        /* \"#utility.yul\":2826:2855   */\n      swap1\n      pop\n        /* \"#utility.yul\":2864:2897   */\n      tag_129\n        /* \"#utility.yul\":2891:2896   */\n      dup2\n        /* \"#utility.yul\":2864:2897   */\n      tag_54\n      jump\t// in\n    tag_129:\n        /* \"#utility.yul\":2764:2903   */\n      swap3\n      swap2\n      pop\n      pop\n      jump\t// out\n        /* \"#utility.yul\":2909:3035   */\n    tag_56:\n        /* \"#utility.yul\":2946:2953   */\n      0x00\n        /* \"#utility.yul\":2986:3028   */\n      0xffffffffffffffffffffffffffffffffffffffff\n        /* \"#utility.yul\":2979:2984   */\n      dup3\n        /* \"#utility.yul\":2975:3029   */\n      and\n        /* \"#utility.yul\":2964:3029   */\n      swap1\n      pop\n        /* \"#utility.yul\":2909:3035   */\n      swap2\n      swap1\n      pop\n      jump\t// out\n        /* \"#utility.yul\":3041:3137   */\n    tag_57:\n        /* \"#utility.yul\":3078:3085   */\n      0x00\n        /* \"#utility.yul\":3107:3131   */\n      tag_132\n        /* \"#utility.yul\":3125:3130   */\n      dup3\n        /* \"#utility.yul\":3107:3131   */\n      tag_56\n      jump\t// in\n    tag_132:\n        /* \"#utility.yul\":3096:3131   */\n      swap1\n      pop\n        /* \"#utility.yul\":3041:3137   */\n      swap2\n      swap1\n      pop\n      jump\t// out\n        /* \"#utility.yul\":3143:3265   */\n    tag_58:\n        /* \"#utility.yul\":3216:3240   */\n      tag_134\n        /* \"#utility.yul\":3234:3239   */\n      dup2\n        /* \"#utility.yul\":3216:3240   */\n      tag_57\n      jump\t// in\n    tag_134:\n        /* \"#utility.yul\":3209:3214   */\n      dup2\n        /* \"#utility.yul\":3206:3241   */\n      eq\n        /* \"#utility.yul\":3196:3259   */\n      tag_135\n      jumpi\n        /* \"#utility.yul\":3255:3256   */\n      0x00\n        /* \"#utility.yul\":3252:3253   */\n      dup1\n        /* \"#utility.yul\":3245:3257   */\n      revert\n        /* \"#utility.yul\":3196:3259   */\n    tag_135:\n        /* \"#utility.yul\":3143:3265   */\n      pop\n      jump\t// out\n        /* \"#utility.yul\":3271:3410   */\n    tag_59:\n        /* \"#utility.yul\":3317:3322   */\n      0x00\n        /* \"#utility.yul\":3355:3361   */\n      dup2\n        /* \"#utility.yul\":3342:3362   */\n      calldataload\n        /* \"#utility.yul\":3333:3362   */\n      swap1\n      pop\n        /* \"#utility.yul\":3371:3404   */\n      tag_137\n        /* \"#utility.yul\":3398:3403   */\n      dup2\n        /* \"#utility.yul\":3371:3404   */\n      tag_58\n      jump\t// in\n    tag_137:\n        /* \"#utility.yul\":3271:3410   */\n      swap3\n      swap2\n      pop\n      pop\n      jump\t// out\n        /* \"#utility.yul\":3416:4541   */\n    tag_7:\n        /* \"#utility.yul\":3522:3528   */\n      0x00\n        /* \"#utility.yul\":3530:3536   */\n      dup1\n        /* \"#utility.yul\":3538:3544   */\n      0x00\n        /* \"#utility.yul\":3546:3552   */\n      dup1\n        /* \"#utility.yul\":3595:3598   */\n      0x80\n        /* \"#utility.yul\":3583:3592   */\n      dup6\n        /* \"#utility.yul\":3574:3581   */\n      dup8\n        /* \"#utility.yul\":3570:3593   */\n      sub\n        /* \"#utility.yul\":3566:3599   */\n      slt\n        /* \"#utility.yul\":3563:3683   */\n      iszero\n      tag_139\n      jumpi\n        /* \"#utility.yul\":3602:3681   */\n      tag_140\n      tag_41\n      jump\t// in\n    tag_140:\n        /* \"#utility.yul\":3563:3683   */\n    tag_139:\n        /* \"#utility.yul\":3750:3751   */\n      0x00\n        /* \"#utility.yul\":3739:3748   */\n      dup6\n        /* \"#utility.yul\":3735:3752   */\n      add\n        /* \"#utility.yul\":3722:3753   */\n      calldataload\n        /* \"#utility.yul\":3780:3798   */\n      0xffffffffffffffff\n        /* \"#utility.yul\":3772:3778   */\n      dup2\n        /* \"#utility.yul\":3769:3799   */\n      gt\n        /* \"#utility.yul\":3766:3883   */\n      iszero\n      tag_141\n      jumpi\n        /* \"#utility.yul\":3802:3881   */\n      tag_142\n      tag_42\n      jump\t// in\n    tag_142:\n        /* \"#utility.yul\":3766:3883   */\n    tag_141:\n        /* \"#utility.yul\":3907:3970   */\n      tag_143\n        /* \"#utility.yul\":3962:3969   */\n      dup8\n        /* \"#utility.yul\":3953:3959   */\n      dup3\n        /* \"#utility.yul\":3942:3951   */\n      dup9\n        /* \"#utility.yul\":3938:3960   */\n      add\n        /* \"#utility.yul\":3907:3970   */\n      tag_52\n      jump\t// in\n    tag_143:\n        /* \"#utility.yul\":3897:3970   */\n      swap5\n      pop\n        /* \"#utility.yul\":3693:3980   */\n      pop\n        /* \"#utility.yul\":4019:4021   */\n      0x20\n        /* \"#utility.yul\":4045:4098   */\n      tag_144\n        /* \"#utility.yul\":4090:4097   */\n      dup8\n        /* \"#utility.yul\":4081:4087   */\n      dup3\n        /* \"#utility.yul\":4070:4079   */\n      dup9\n        /* \"#utility.yul\":4066:4088   */\n      add\n        /* \"#utility.yul\":4045:4098   */\n      tag_55\n      jump\t// in\n    tag_144:\n        /* \"#utility.yul\":4035:4098   */\n      swap4\n      pop\n        /* \"#utility.yul\":3990:4108   */\n      pop\n        /* \"#utility.yul\":4147:4149   */\n      0x40\n        /* \"#utility.yul\":4173:4226   */\n      tag_145\n        /* \"#utility.yul\":4218:4225   */\n      dup8\n        /* \"#utility.yul\":4209:4215   */\n      dup3\n        /* \"#utility.yul\":4198:4207   */\n      dup9\n        /* \"#utility.yul\":4194:4216   */\n      add\n        /* \"#utility.yul\":4173:4226   */\n      tag_59\n      jump\t// in\n    tag_145:\n        /* \"#utility.yul\":4163:4226   */\n      swap3\n      pop\n        /* \"#utility.yul\":4118:4236   */\n      pop\n        /* \"#utility.yul\":4303:4305   */\n      0x60\n        /* \"#utility.yul\":4292:4301   */\n      dup6\n        /* \"#utility.yul\":4288:4306   */\n      add\n        /* \"#utility.yul\":4275:4307   */\n      calldataload\n        /* \"#utility.yul\":4334:4352   */\n      0xffffffffffffffff\n        /* \"#utility.yul\":4326:4332   */\n      dup2\n        /* \"#utility.yul\":4323:4353   */\n      gt\n        /* \"#utility.yul\":4320:4437   */\n      iszero\n      tag_146\n      jumpi\n        /* \"#utility.yul\":4356:4435   */\n      tag_147\n      tag_42\n      jump\t// in\n    tag_147:\n        /* \"#utility.yul\":4320:4437   */\n    tag_146:\n        /* \"#utility.yul\":4461:4524   */\n      tag_148\n        /* \"#utility.yul\":4516:4523   */\n      dup8\n        /* \"#utility.yul\":4507:4513   */\n      dup3\n        /* \"#utility.yul\":4496:4505   */\n      dup9\n        /* \"#utility.yul\":4492:4514   */\n      add\n        /* \"#utility.yul\":4461:4524   */\n      tag_52\n      jump\t// in\n    tag_148:\n        /* \"#utility.yul\":4451:4524   */\n      swap2\n      pop\n        /* \"#utility.yul\":4246:4534   */\n      pop\n        /* \"#utility.yul\":3416:4541   */\n      swap3\n      swap6\n      swap2\n      swap5\n      pop\n      swap3\n      pop\n      jump\t// out\n        /* \"#utility.yul\":4547:4646   */\n    tag_60:\n        /* \"#utility.yul\":4599:4605   */\n      0x00\n        /* \"#utility.yul\":4633:4638   */\n      dup2\n        /* \"#utility.yul\":4627:4639   */\n      mload\n        /* \"#utility.yul\":4617:4639   */\n      swap1\n      pop\n        /* \"#utility.yul\":4547:4646   */\n      swap2\n      swap1\n      pop\n      jump\t// out\n        /* \"#utility.yul\":4652:4821   */\n    tag_61:\n        /* \"#utility.yul\":4736:4747   */\n      0x00\n        /* \"#utility.yul\":4770:4776   */\n      dup3\n        /* \"#utility.yul\":4765:4768   */\n      dup3\n        /* \"#utility.yul\":4758:4777   */\n      mstore\n        /* \"#utility.yul\":4810:4814   */\n      0x20\n        /* \"#utility.yul\":4805:4808   */\n      dup3\n        /* \"#utility.yul\":4801:4815   */\n      add\n        /* \"#utility.yul\":4786:4815   */\n      swap1\n      pop\n        /* \"#utility.yul\":4652:4821   */\n      swap3\n      swap2\n      pop\n      pop\n      jump\t// out\n        /* \"#utility.yul\":4827:5073   */\n    tag_62:\n        /* \"#utility.yul\":4908:4909   */\n      0x00\n        /* \"#utility.yul\":4918:5031   */\n    tag_152:\n        /* \"#utility.yul\":4932:4938   */\n      dup4\n        /* \"#utility.yul\":4929:4930   */\n      dup2\n        /* \"#utility.yul\":4926:4939   */\n      lt\n        /* \"#utility.yul\":4918:5031   */\n      iszero\n      tag_154\n      jumpi\n        /* \"#utility.yul\":5017:5018   */\n      dup1\n        /* \"#utility.yul\":5012:5015   */\n      dup3\n        /* \"#utility.yul\":5008:5019   */\n      add\n        /* \"#utility.yul\":5002:5020   */\n      mload\n        /* \"#utility.yul\":4998:4999   */\n      dup2\n        /* \"#utility.yul\":4993:4996   */\n      dup5\n        /* \"#utility.yul\":4989:5000   */\n      add\n        /* \"#utility.yul\":4982:5021   */\n      mstore\n        /* \"#utility.yul\":4954:4956   */\n      0x20\n        /* \"#utility.yul\":4951:4952   */\n      dup2\n        /* \"#utility.yul\":4947:4957   */\n      add\n        /* \"#utility.yul\":4942:4957   */\n      swap1\n      pop\n        /* \"#utility.yul\":4918:5031   */\n      jump(tag_152)\n    tag_154:\n        /* \"#utility.yul\":5065:5066   */\n      0x00\n        /* \"#utility.yul\":5056:5062   */\n      dup5\n        /* \"#utility.yul\":5051:5054   */\n      dup5\n        /* \"#utility.yul\":5047:5063   */\n      add\n        /* \"#utility.yul\":5040:5067   */\n      mstore\n        /* \"#utility.yul\":4889:5073   */\n      pop\n        /* \"#utility.yul\":4827:5073   */\n      pop\n      pop\n      pop\n      jump\t// out\n        /* \"#utility.yul\":5079:5456   */\n    tag_63:\n        /* \"#utility.yul\":5167:5170   */\n      0x00\n        /* \"#utility.yul\":5195:5234   */\n      tag_156\n        /* \"#utility.yul\":5228:5233   */\n      dup3\n        /* \"#utility.yul\":5195:5234   */\n      tag_60\n      jump\t// in\n    tag_156:\n        /* \"#utility.yul\":5250:5321   */\n      tag_157\n        /* \"#utility.yul\":5314:5320   */\n      dup2\n        /* \"#utility.yul\":5309:5312   */\n      dup6\n        /* \"#utility.yul\":5250:5321   */\n      tag_61\n      jump\t// in\n    tag_157:\n        /* \"#utility.yul\":5243:5321   */\n      swap4\n      pop\n        /* \"#utility.yul\":5330:5395   */\n      tag_158\n        /* \"#utility.yul\":5388:5394   */\n      dup2\n        /* \"#utility.yul\":5383:5386   */\n      dup6\n        /* \"#utility.yul\":5376:5380   */\n      0x20\n        /* \"#utility.yul\":5369:5374   */\n      dup7\n        /* \"#utility.yul\":5365:5381   */\n      add\n        /* \"#utility.yul\":5330:5395   */\n      tag_62\n      jump\t// in\n    tag_158:\n        /* \"#utility.yul\":5420:5449   */\n      tag_159\n        /* \"#utility.yul\":5442:5448   */\n      dup2\n        /* \"#utility.yul\":5420:5449   */\n      tag_45\n      jump\t// in\n    tag_159:\n        /* \"#utility.yul\":5415:5418   */\n      dup5\n        /* \"#utility.yul\":5411:5450   */\n      add\n        /* \"#utility.yul\":5404:5450   */\n      swap2\n      pop\n        /* \"#utility.yul\":5171:5456   */\n      pop\n        /* \"#utility.yul\":5079:5456   */\n      swap3\n      swap2\n      pop\n      pop\n      jump\t// out\n        /* \"#utility.yul\":5462:5580   */\n    tag_64:\n        /* \"#utility.yul\":5549:5573   */\n      tag_161\n        /* \"#utility.yul\":5567:5572   */\n      dup2\n        /* \"#utility.yul\":5549:5573   */\n      tag_53\n      jump\t// in\n    tag_161:\n        /* \"#utility.yul\":5544:5547   */\n      dup3\n        /* \"#utility.yul\":5537:5574   */\n      mstore\n        /* \"#utility.yul\":5462:5580   */\n      pop\n      pop\n      jump\t// out\n        /* \"#utility.yul\":5586:5704   */\n    tag_65:\n        /* \"#utility.yul\":5673:5697   */\n      tag_163\n        /* \"#utility.yul\":5691:5696   */\n      dup2\n        /* \"#utility.yul\":5673:5697   */\n      tag_57\n      jump\t// in\n    tag_163:\n        /* \"#utility.yul\":5668:5671   */\n      dup3\n        /* \"#utility.yul\":5661:5698   */\n      mstore\n        /* \"#utility.yul\":5586:5704   */\n      pop\n      pop\n      jump\t// out\n        /* \"#utility.yul\":5710:6445   */\n    tag_12:\n        /* \"#utility.yul\":5927:5931   */\n      0x00\n        /* \"#utility.yul\":5965:5968   */\n      0x80\n        /* \"#utility.yul\":5954:5963   */\n      dup3\n        /* \"#utility.yul\":5950:5969   */\n      add\n        /* \"#utility.yul\":5942:5969   */\n      swap1\n      pop\n        /* \"#utility.yul\":6015:6024   */\n      dup2\n        /* \"#utility.yul\":6009:6013   */\n      dup2\n        /* \"#utility.yul\":6005:6025   */\n      sub\n        /* \"#utility.yul\":6001:6002   */\n      0x00\n        /* \"#utility.yul\":5990:5999   */\n      dup4\n        /* \"#utility.yul\":5986:6003   */\n      add\n        /* \"#utility.yul\":5979:6026   */\n      mstore\n        /* \"#utility.yul\":6043:6121   */\n      tag_165\n        /* \"#utility.yul\":6116:6120   */\n      dup2\n        /* \"#utility.yul\":6107:6113   */\n      dup8\n        /* \"#utility.yul\":6043:6121   */\n      tag_63\n      jump\t// in\n    tag_165:\n        /* \"#utility.yul\":6035:6121   */\n      swap1\n      pop\n        /* \"#utility.yul\":6131:6203   */\n      tag_166\n        /* \"#utility.yul\":6199:6201   */\n      0x20\n        /* \"#utility.yul\":6188:6197   */\n      dup4\n        /* \"#utility.yul\":6184:6202   */\n      add\n        /* \"#utility.yul\":6175:6181   */\n      dup7\n        /* \"#utility.yul\":6131:6203   */\n      tag_64\n      jump\t// in\n    tag_166:\n        /* \"#utility.yul\":6213:6285   */\n      tag_167\n        /* \"#utility.yul\":6281:6283   */\n      0x40\n        /* \"#utility.yul\":6270:6279   */\n      dup4\n        /* \"#utility.yul\":6266:6284   */\n      add\n        /* \"#utility.yul\":6257:6263   */\n      dup6\n        /* \"#utility.yul\":6213:6285   */\n      tag_65\n      jump\t// in\n    tag_167:\n        /* \"#utility.yul\":6332:6341   */\n      dup2\n        /* \"#utility.yul\":6326:6330   */\n      dup2\n        /* \"#utility.yul\":6322:6342   */\n      sub\n        /* \"#utility.yul\":6317:6319   */\n      0x60\n        /* \"#utility.yul\":6306:6315   */\n      dup4\n        /* \"#utility.yul\":6302:6320   */\n      add\n        /* \"#utility.yul\":6295:6343   */\n      mstore\n        /* \"#utility.yul\":6360:6438   */\n      tag_168\n        /* \"#utility.yul\":6433:6437   */\n      dup2\n        /* \"#utility.yul\":6424:6430   */\n      dup5\n        /* \"#utility.yul\":6360:6438   */\n      tag_63\n      jump\t// in\n    tag_168:\n        /* \"#utility.yul\":6352:6438   */\n      swap1\n      pop\n        /* \"#utility.yul\":5710:6445   */\n      swap6\n      swap5\n      pop\n      pop\n      pop\n      pop\n      pop\n      jump\t// out\n        /* \"#utility.yul\":6451:6631   */\n    tag_66:\n        /* \"#utility.yul\":6499:6576   */\n      0x4e487b7100000000000000000000000000000000000000000000000000000000\n        /* \"#utility.yul\":6496:6497   */\n      0x00\n        /* \"#utility.yul\":6489:6577   */\n      mstore\n        /* \"#utility.yul\":6596:6600   */\n      0x22\n        /* \"#utility.yul\":6593:6594   */\n      0x04\n        /* \"#utility.yul\":6586:6601   */\n      mstore\n        /* \"#utility.yul\":6620:6624   */\n      0x24\n        /* \"#utility.yul\":6617:6618   */\n      0x00\n        /* \"#utility.yul\":6610:6625   */\n      revert\n        /* \"#utility.yul\":6637:6957   */\n    tag_15:\n        /* \"#utility.yul\":6681:6687   */\n      0x00\n        /* \"#utility.yul\":6718:6719   */\n      0x02\n        /* \"#utility.yul\":6712:6716   */\n      dup3\n        /* \"#utility.yul\":6708:6720   */\n      div\n        /* \"#utility.yul\":6698:6720   */\n      swap1\n      pop\n        /* \"#utility.yul\":6765:6766   */\n      0x01\n        /* \"#utility.yul\":6759:6763   */\n      dup3\n        /* \"#utility.yul\":6755:6767   */\n      and\n        /* \"#utility.yul\":6786:6804   */\n      dup1\n        /* \"#utility.yul\":6776:6857   */\n      tag_171\n      jumpi\n        /* \"#utility.yul\":6842:6846   */\n      0x7f\n        /* \"#utility.yul\":6834:6840   */\n      dup3\n        /* \"#utility.yul\":6830:6847   */\n      and\n        /* \"#utility.yul\":6820:6847   */\n      swap2\n      pop\n        /* \"#utility.yul\":6776:6857   */\n    tag_171:\n        /* \"#utility.yul\":6904:6906   */\n      0x20\n        /* \"#utility.yul\":6896:6902   */\n      dup3\n        /* \"#utility.yul\":6893:6907   */\n      lt\n        /* \"#utility.yul\":6873:6891   */\n      dup2\n        /* \"#utility.yul\":6870:6908   */\n      sub\n        /* \"#utility.yul\":6867:6951   */\n      tag_172\n      jumpi\n        /* \"#utility.yul\":6923:6941   */\n      tag_173\n      tag_66\n      jump\t// in\n    tag_173:\n        /* \"#utility.yul\":6867:6951   */\n    tag_172:\n        /* \"#utility.yul\":6688:6957   */\n      pop\n        /* \"#utility.yul\":6637:6957   */\n      swap2\n      swap1\n      pop\n      jump\t// out\n        /* \"#utility.yul\":6963:7104   */\n    tag_67:\n        /* \"#utility.yul\":7012:7016   */\n      0x00\n        /* \"#utility.yul\":7035:7038   */\n      dup2\n        /* \"#utility.yul\":7027:7038   */\n      swap1\n      pop\n        /* \"#utility.yul\":7058:7061   */\n      dup2\n        /* \"#utility.yul\":7055:7056   */\n      0x00\n        /* \"#utility.yul\":7048:7062   */\n      mstore\n        /* \"#utility.yul\":7092:7096   */\n      0x20\n        /* \"#utility.yul\":7089:7090   */\n      0x00\n        /* \"#utility.yul\":7079:7097   */\n      keccak256\n        /* \"#utility.yul\":7071:7097   */\n      swap1\n      pop\n        /* \"#utility.yul\":6963:7104   */\n      swap2\n      swap1\n      pop\n      jump\t// out\n        /* \"#utility.yul\":7110:7203   */\n    tag_68:\n        /* \"#utility.yul\":7147:7153   */\n      0x00\n        /* \"#utility.yul\":7194:7196   */\n      0x20\n        /* \"#utility.yul\":7189:7191   */\n      0x1f\n        /* \"#utility.yul\":7182:7187   */\n      dup4\n        /* \"#utility.yul\":7178:7192   */\n      add\n        /* \"#utility.yul\":7174:7197   */\n      div\n        /* \"#utility.yul\":7164:7197   */\n      swap1\n      pop\n        /* \"#utility.yul\":7110:7203   */\n      swap2\n      swap1\n      pop\n      jump\t// out\n        /* \"#utility.yul\":7209:7316   */\n    tag_69:\n        /* \"#utility.yul\":7253:7261   */\n      0x00\n        /* \"#utility.yul\":7303:7308   */\n      dup3\n        /* \"#utility.yul\":7297:7301   */\n      dup3\n        /* \"#utility.yul\":7293:7309   */\n      shl\n        /* \"#utility.yul\":7272:7309   */\n      swap1\n      pop\n        /* \"#utility.yul\":7209:7316   */\n      swap3\n      swap2\n      pop\n      pop\n      jump\t// out\n        /* \"#utility.yul\":7322:7715   */\n    tag_70:\n        /* \"#utility.yul\":7391:7397   */\n      0x00\n        /* \"#utility.yul\":7441:7442   */\n      0x08\n        /* \"#utility.yul\":7429:7439   */\n      dup4\n        /* \"#utility.yul\":7425:7443   */\n      mul\n        /* \"#utility.yul\":7464:7561   */\n      tag_178\n        /* \"#utility.yul\":7494:7560   */\n      0xffffffffffffffffffffffffffffffffffffffffffffffffffffffffffffffff\n        /* \"#utility.yul\":7483:7492   */\n      dup3\n        /* \"#utility.yul\":7464:7561   */\n      tag_69\n      jump\t// in\n    tag_178:\n        /* \"#utility.yul\":7582:7621   */\n      tag_179\n        /* \"#utility.yul\":7612:7620   */\n      dup7\n        /* \"#utility.yul\":7601:7610   */\n      dup4\n        /* \"#utility.yul\":7582:7621   */\n      tag_69\n      jump\t// in\n    tag_179:\n        /* \"#utility.yul\":7570:7621   */\n      swap6\n      pop\n        /* \"#utility.yul\":7654:7658   */\n      dup1\n        /* \"#utility.yul\":7650:7659   */\n      not\n        /* \"#utility.yul\":7643:7648   */\n      dup5\n        /* \"#utility.yul\":7639:7660   */\n      and\n        /* \"#utility.yul\":7630:7660   */\n      swap4\n      pop\n        /* \"#utility.yul\":7703:7707   */\n      dup1\n        /* \"#utility.yul\":7693:7701   */\n      dup7\n        /* \"#utility.yul\":7689:7708   */\n      and\n        /* \"#utility.yul\":7682:7687   */\n      dup5\n        /* \"#utility.yul\":7679:7709   */\n      or\n        /* \"#utility.yul\":7669:7709   */\n      swap3\n      pop\n        /* \"#utility.yul\":7398:7715   */\n      pop\n      pop\n        /* \"#utility.yul\":7322:7715   */\n      swap4\n      swap3\n      pop\n      pop\n      pop\n      jump\t// out\n        /* \"#utility.yul\":7721:7781   */\n    tag_71:\n        /* \"#utility.yul\":7749:7752   */\n      0x00\n        /* \"#utility.yul\":7770:7775   */\n      dup2\n        /* \"#utility.yul\":7763:7775   */\n      swap1\n      pop\n        /* \"#utility.yul\":7721:7781   */\n      swap2\n      swap1\n      pop\n      jump\t// out\n        /* \"#utility.yul\":7787:7929   */\n    tag_72:\n        /* \"#utility.yul\":7837:7846   */\n      0x00\n        /* \"#utility.yul\":7870:7923   */\n      tag_182\n        /* \"#utility.yul\":7888:7922   */\n      tag_183\n        /* \"#utility.yul\":7897:7921   */\n      tag_184\n        /* \"#utility.yul\":7915:7920   */\n      dup5\n        /* \"#utility.yul\":7897:7921   */\n      tag_53\n      jump\t// in\n    tag_184:\n        /* \"#utility.yul\":7888:7922   */\n      tag_71\n      jump\t// in\n    tag_183:\n        /* \"#utility.yul\":7870:7923   */\n      tag_53\n      jump\t// in\n    tag_182:\n        /* \"#utility.yul\":7857:7923   */\n      swap1\n      pop\n        /* \"#utility.yul\":7787:7929   */\n      swap2\n      swap1\n      pop\n      jump\t// out\n        /* \"#utility.yul\":7935:8010   */\n    tag_73:\n        /* \"#utility.yul\":7978:7981   */\n      0x00\n        /* \"#utility.yul\":7999:8004   */\n      dup2\n        /* \"#utility.yul\":7992:8004   */\n      swap1\n      pop\n        /* \"#utility.yul\":7935:8010   */\n      swap2\n      swap1\n      pop\n      jump\t// out\n        /* \"#utility.yul\":8016:8285   */\n    tag_74:\n        /* \"#utility.yul\":8126:8165   */\n      tag_187\n        /* \"#utility.yul\":8157:8164   */\n      dup4\n        /* \"#utility.yul\":8126:8165   */\n      tag_72\n      jump\t// in\n    tag_187:\n        /* \"#utility.yul\":8187:8278   */\n      tag_188\n        /* \"#utility.yul\":8236:8277   */\n      tag_189\n        /* \"#utility.yul\":8260:8276   */\n      dup3\n        /* \"#utility.yul\":8236:8277   */\n      tag_73\n      jump\t// in\n    tag_189:\n        /* \"#utility.yul\":8228:8234   */\n      dup5\n        /* \"#utility.yul\":8221:8225   */\n      dup5\n        /* \"#utility.yul\":8215:8226   */\n      sload\n        /* \"#utility.yul\":8187:8278   */\n      tag_70\n      jump\t// in\n    tag_188:\n        /* \"#utility.yul\":8181:8185   */\n      dup3\n        /* \"#utility.yul\":8174:8279   */\n      sstore\n        /* \"#utility.yul\":8092:8285   */\n      pop\n        /* \"#utility.yul\":8016:8285   */\n      pop\n      pop\n      pop\n      jump\t// out\n        /* \"#utility.yul\":8291:8364   */\n    tag_75:\n        /* \"#utility.yul\":8336:8339   */\n      0x00\n        /* \"#utility.yul\":8291:8364   */\n      swap1\n      jump\t// out\n        /* \"#utility.yul\":8370:8559   */\n    tag_76:\n        /* \"#utility.yul\":8447:8479   */\n      tag_192\n      tag_75\n      jump\t// in\n    tag_192:\n        /* \"#utility.yul\":8488:8553   */\n      tag_193\n        /* \"#utility.yul\":8546:8552   */\n      dup2\n        /* \"#utility.yul\":8538:8544   */\n      dup5\n        /* \"#utility.yul\":8532:8536   */\n      dup5\n        /* \"#utility.yul\":8488:8553   */\n      tag_74\n      jump\t// in\n    tag_193:\n        /* \"#utility.yul\":8423:8559   */\n      pop\n        /* \"#utility.yul\":8370:8559   */\n      pop\n      pop\n      jump\t// out\n        /* \"#utility.yul\":8565:8751   */\n    tag_77:\n        /* \"#utility.yul\":8625:8745   */\n    tag_195:\n        /* \"#utility.yul\":8642:8645   */\n      dup2\n        /* \"#utility.yul\":8635:8640   */\n      dup2\n        /* \"#utility.yul\":8632:8646   */\n      lt\n        /* \"#utility.yul\":8625:8745   */\n      iszero\n      tag_197\n      jumpi\n        /* \"#utility.yul\":8696:8735   */\n      tag_198\n        /* \"#utility.yul\":8733:8734   */\n      0x00\n        /* \"#utility.yul\":8726:8731   */\n      dup3\n        /* \"#utility.yul\":8696:8735   */\n      tag_76\n      jump\t// in\n    tag_198:\n        /* \"#utility.yul\":8669:8670   */\n      0x01\n        /* \"#utility.yul\":8662:8667   */\n      dup2\n        /* \"#utility.yul\":8658:8671   */\n      add\n        /* \"#utility.yul\":8649:8671   */\n      swap1\n      pop\n        /* \"#utility.yul\":8625:8745   */\n      jump(tag_195)\n    tag_197:\n        /* \"#utility.yul\":8565:8751   */\n      pop\n      pop\n      jump\t// out\n        /* \"#utility.yul\":8757:9300   */\n    tag_78:\n        /* \"#utility.yul\":8858:8860   */\n      0x1f\n        /* \"#utility.yul\":8853:8856   */\n      dup3\n        /* \"#utility.yul\":8850:8861   */\n      gt\n        /* \"#utility.yul\":8847:9293   */\n      iszero\n      tag_200\n      jumpi\n        /* \"#utility.yul\":8892:8930   */\n      tag_201\n        /* \"#utility.yul\":8924:8929   */\n      dup2\n        /* \"#utility.yul\":8892:8930   */\n      tag_67\n      jump\t// in\n    tag_201:\n        /* \"#utility.yul\":8976:9005   */\n      tag_202\n        /* \"#utility.yul\":8994:9004   */\n      dup5\n        /* \"#utility.yul\":8976:9005   */\n      tag_68\n      jump\t// in\n    tag_202:\n        /* \"#utility.yul\":8966:8974   */\n      dup2\n        /* \"#utility.yul\":8962:9006   */\n      add\n        /* \"#utility.yul\":9159:9161   */\n      0x20\n        /* \"#utility.yul\":9147:9157   */\n      dup6\n        /* \"#utility.yul\":9144:9162   */\n      lt\n        /* \"#utility.yul\":9141:9190   */\n      iszero\n      tag_203\n      jumpi\n        /* \"#utility.yul\":9180:9188   */\n      dup2\n        /* \"#utility.yul\":9165:9188   */\n      swap1\n      pop\n        /* \"#utility.yul\":9141:9190   */\n    tag_203:\n        /* \"#utility.yul\":9203:9283   */\n      tag_204\n        /* \"#utility.yul\":9259:9281   */\n      tag_205\n        /* \"#utility.yul\":9277:9280   */\n      dup6\n        /* \"#utility.yul\":9259:9281   */\n      tag_68\n      jump\t// in\n    tag_205:\n        /* \"#utility.yul\":9249:9257   */\n      dup4\n        /* \"#utility.yul\":9245:9282   */\n      add\n        /* \"#utility.yul\":9232:9243   */\n      dup3\n        /* \"#utility.yul\":9203:9283   */\n      tag_77\n      jump\t// in\n    tag_204:\n        /* \"#utility.yul\":8862:9293   */\n      pop\n      pop\n        /* \"#utility.yul\":8847:9293   */\n    tag_200:\n        /* \"#utility.yul\":8757:9300   */\n      pop\n      pop\n      pop\n      jump\t// out\n        /* \"#utility.yul\":9306:9423   */\n    tag_79:\n        /* \"#utility.yul\":9360:9368   */\n      0x00\n        /* \"#utility.yul\":9410:9415   */\n      dup3\n        /* \"#utility.yul\":9404:9408   */\n      dup3\n        /* \"#utility.yul\":9400:9416   */\n      shr\n        /* \"#utility.yul\":9379:9416   */\n      swap1\n      pop\n        /* \"#utility.yul\":9306:9423   */\n      swap3\n      swap2\n      pop\n      pop\n      jump\t// out\n        /* \"#utility.yul\":9429:9598   */\n    tag_80:\n        /* \"#utility.yul\":9473:9479   */\n      0x00\n        /* \"#utility.yul\":9506:9557   */\n      tag_208\n        /* \"#utility.yul\":9554:9555   */\n      0x00\n        /* \"#utility.yul\":9550:9556   */\n      not\n        /* \"#utility.yul\":9542:9547   */\n      dup5\n        /* \"#utility.yul\":9539:9540   */\n      0x08\n        /* \"#utility.yul\":9535:9548   */\n      mul\n        /* \"#utility.yul\":9506:9557   */\n      tag_79\n      jump\t// in\n    tag_208:\n        /* \"#utility.yul\":9502:9558   */\n      not\n        /* \"#utility.yul\":9587:9591   */\n      dup1\n        /* \"#utility.yul\":9581:9585   */\n      dup4\n        /* \"#utility.yul\":9577:9592   */\n      and\n        /* \"#utility.yul\":9567:9592   */\n      swap2\n      pop\n        /* \"#utility.yul\":9480:9598   */\n      pop\n        /* \"#utility.yul\":9429:9598   */\n      swap3\n      swap2\n      pop\n      pop\n      jump\t// out\n        /* \"#utility.yul\":9603:9898   */\n    tag_81:\n        /* \"#utility.yul\":9679:9683   */\n      0x00\n        /* \"#utility.yul\":9825:9854   */\n      tag_210\n        /* \"#utility.yul\":9850:9853   */\n      dup4\n        /* \"#utility.yul\":9844:9848   */\n      dup4\n        /* \"#utility.yul\":9825:9854   */\n      tag_80\n      jump\t// in\n    tag_210:\n        /* \"#utility.yul\":9817:9854   */\n      swap2\n      pop\n        /* \"#utility.yul\":9887:9890   */\n      dup3\n        /* \"#utility.yul\":9884:9885   */\n      0x02\n        /* \"#utility.yul\":9880:9891   */\n      mul\n        /* \"#utility.yul\":9874:9878   */\n      dup3\n        /* \"#utility.yul\":9871:9892   */\n      or\n        /* \"#utility.yul\":9863:9892   */\n      swap1\n      pop\n        /* \"#utility.yul\":9603:9898   */\n      swap3\n      swap2\n      pop\n      pop\n      jump\t// out\n        /* \"#utility.yul\":9903:11298   */\n    tag_26:\n        /* \"#utility.yul\":10020:10057   */\n      tag_212\n        /* \"#utility.yul\":10053:10056   */\n      dup3\n        /* \"#utility.yul\":10020:10057   */\n      tag_60\n      jump\t// in\n    tag_212:\n        /* \"#utility.yul\":10122:10140   */\n      0xffffffffffffffff\n        /* \"#utility.yul\":10114:10120   */\n      dup2\n        /* \"#utility.yul\":10111:10141   */\n      gt\n        /* \"#utility.yul\":10108:10164   */\n      iszero\n      tag_213\n      jumpi\n        /* \"#utility.yul\":10144:10162   */\n      tag_214\n      tag_46\n      jump\t// in\n    tag_214:\n        /* \"#utility.yul\":10108:10164   */\n    tag_213:\n        /* \"#utility.yul\":10188:10226   */\n      tag_215\n        /* \"#utility.yul\":10220:10224   */\n      dup3\n        /* \"#utility.yul\":10214:10225   */\n      sload\n        /* \"#utility.yul\":10188:10226   */\n      tag_15\n      jump\t// in\n    tag_215:\n        /* \"#utility.yul\":10273:10340   */\n      tag_216\n        /* \"#utility.yul\":10333:10339   */\n      dup3\n        /* \"#utility.yul\":10325:10331   */\n      dup3\n        /* \"#utility.yul\":10319:10323   */\n      dup6\n        /* \"#utility.yul\":10273:10340   */\n      tag_78\n      jump\t// in\n    tag_216:\n        /* \"#utility.yul\":10367:10368   */\n      0x00\n        /* \"#utility.yul\":10391:10395   */\n      0x20\n        /* \"#utility.yul\":10378:10395   */\n      swap1\n      pop\n        /* \"#utility.yul\":10423:10425   */\n      0x1f\n        /* \"#utility.yul\":10415:10421   */\n      dup4\n        /* \"#utility.yul\":10412:10426   */\n      gt\n        /* \"#utility.yul\":10440:10441   */\n      0x01\n        /* \"#utility.yul\":10435:11053   */\n      dup2\n      eq\n      tag_218\n      jumpi\n        /* \"#utility.yul\":11097:11098   */\n      0x00\n        /* \"#utility.yul\":11114:11120   */\n      dup5\n        /* \"#utility.yul\":11111:11188   */\n      iszero\n      tag_219\n      jumpi\n        /* \"#utility.yul\":11163:11172   */\n      dup3\n        /* \"#utility.yul\":11158:11161   */\n      dup8\n        /* \"#utility.yul\":11154:11173   */\n      add\n        /* \"#utility.yul\":11148:11174   */\n      mload\n        /* \"#utility.yul\":11139:11174   */\n      swap1\n      pop\n        /* \"#utility.yul\":11111:11188   */\n    tag_219:\n        /* \"#utility.yul\":11214:11281   */\n      tag_220\n        /* \"#utility.yul\":11274:11280   */\n      dup6\n        /* \"#utility.yul\":11267:11272   */\n      dup3\n        /* \"#utility.yul\":11214:11281   */\n      tag_81\n      jump\t// in\n    tag_220:\n        /* \"#utility.yul\":11208:11212   */\n      dup7\n        /* \"#utility.yul\":11201:11282   */\n      sstore\n        /* \"#utility.yul\":11070:11292   */\n      pop\n        /* \"#utility.yul\":10405:11292   */\n      jump(tag_217)\n        /* \"#utility.yul\":10435:11053   */\n    tag_218:\n        /* \"#utility.yul\":10487:10491   */\n      0x1f\n        /* \"#utility.yul\":10483:10492   */\n      not\n        /* \"#utility.yul\":10475:10481   */\n      dup5\n        /* \"#utility.yul\":10471:10493   */\n      and\n        /* \"#utility.yul\":10521:10558   */\n      tag_221\n        /* \"#utility.yul\":10553:10557   */\n      dup7\n        /* \"#utility.yul\":10521:10558   */\n      tag_67\n      jump\t// in\n    tag_221:\n        /* \"#utility.yul\":10580:10581   */\n      0x00\n        /* \"#utility.yul\":10594:10802   */\n    tag_222:\n        /* \"#utility.yul\":10608:10615   */\n      dup3\n        /* \"#utility.yul\":10605:10606   */\n      dup2\n        /* \"#utility.yul\":10602:10616   */\n      lt\n        /* \"#utility.yul\":10594:10802   */\n      iszero\n      tag_224\n      jumpi\n        /* \"#utility.yul\":10687:10696   */\n      dup5\n        /* \"#utility.yul\":10682:10685   */\n      dup10\n        /* \"#utility.yul\":10678:10697   */\n      add\n        /* \"#utility.yul\":10672:10698   */\n      mload\n        /* \"#utility.yul\":10664:10670   */\n      dup3\n        /* \"#utility.yul\":10657:10699   */\n      sstore\n        /* \"#utility.yul\":10738:10739   */\n      0x01\n        /* \"#utility.yul\":10730:10736   */\n      dup3\n        /* \"#utility.yul\":10726:10740   */\n      add\n        /* \"#utility.yul\":10716:10740   */\n      swap2\n      pop\n        /* \"#utility.yul\":10785:10787   */\n      0x20\n        /* \"#utility.yul\":10774:10783   */\n      dup6\n        /* \"#utility.yul\":10770:10788   */\n      add\n        /* \"#utility.yul\":10757:10788   */\n      swap5\n      pop\n        /* \"#utility.yul\":10631:10635   */\n      0x20\n        /* \"#utility.yul\":10628:10629   */\n      dup2\n        /* \"#utility.yul\":10624:10636   */\n      add\n        /* \"#utility.yul\":10619:10636   */\n      swap1\n      pop\n        /* \"#utility.yul\":10594:10802   */\n      jump(tag_222)\n    tag_224:\n        /* \"#utility.yul\":10830:10836   */\n      dup7\n        /* \"#utility.yul\":10821:10828   */\n      dup4\n        /* \"#utility.yul\":10818:10837   */\n      lt\n        /* \"#utility.yul\":10815:10994   */\n      iszero\n      tag_225\n      jumpi\n        /* \"#utility.yul\":10888:10897   */\n      dup5\n        /* \"#utility.yul\":10883:10886   */\n      dup10\n        /* \"#utility.yul\":10879:10898   */\n      add\n        /* \"#utility.yul\":10873:10899   */\n      mload\n        /* \"#utility.yul\":10931:10979   */\n      tag_226\n        /* \"#utility.yul\":10973:10977   */\n      0x1f\n        /* \"#utility.yul\":10965:10971   */\n      dup10\n        /* \"#utility.yul\":10961:10978   */\n      and\n        /* \"#utility.yul\":10950:10959   */\n      dup3\n        /* \"#utility.yul\":10931:10979   */\n      tag_80\n      jump\t// in\n    tag_226:\n        /* \"#utility.yul\":10923:10929   */\n      dup4\n        /* \"#utility.yul\":10916:10980   */\n      sstore\n        /* \"#utility.yul\":10838:10994   */\n      pop\n        /* \"#utility.yul\":10815:10994   */\n    tag_225:\n        /* \"#utility.yul\":11040:11041   */\n      0x01\n        /* \"#utility.yul\":11036:11037   */\n      0x02\n        /* \"#utility.yul\":11028:11034   */\n      dup9\n        /* \"#utility.yul\":11024:11038   */\n      mul\n        /* \"#utility.yul\":11020:11042   */\n      add\n        /* \"#utility.yul\":11014:11018   */\n      dup9\n        /* \"#utility.yul\":11007:11043   */\n      sstore\n        /* \"#utility.yul\":10442:11053   */\n      pop\n      pop\n      pop\n        /* \"#utility.yul\":10405:11292   */\n    tag_217:\n      pop\n        /* \"#utility.yul\":9995:11298   */\n      pop\n      pop\n      pop\n        /* \"#utility.yul\":9903:11298   */\n      pop\n      pop\n      jump\t// out\n        /* \"#utility.yul\":11304:11463   */\n    tag_82:\n        /* \"#utility.yul\":11378:11389   */\n      0x00\n        /* \"#utility.yul\":11412:11418   */\n      dup3\n        /* \"#utility.yul\":11407:11410   */\n      dup3\n        /* \"#utility.yul\":11400:11419   */\n      mstore\n        /* \"#utility.yul\":11452:11456   */\n      0x20\n        /* \"#utility.yul\":11447:11450   */\n      dup3\n        /* \"#utility.yul\":11443:11457   */\n      add\n        /* \"#utility.yul\":11428:11457   */\n      swap1\n      pop\n        /* \"#utility.yul\":11304:11463   */\n      swap3\n      swap2\n      pop\n      pop\n      jump\t// out\n        /* \"#utility.yul\":11469:11826   */\n    tag_83:\n        /* \"#utility.yul\":11547:11550   */\n      0x00\n        /* \"#utility.yul\":11575:11614   */\n      tag_229\n        /* \"#utility.yul\":11608:11613   */\n      dup3\n        /* \"#utility.yul\":11575:11614   */\n      tag_60\n      jump\t// in\n    tag_229:\n        /* \"#utility.yul\":11630:11691   */\n      tag_230\n        /* \"#utility.yul\":11684:11690   */\n      dup2\n        /* \"#utility.yul\":11679:11682   */\n      dup6\n        /* \"#utility.yul\":11630:11691   */\n      tag_82\n      jump\t// in\n    tag_230:\n        /* \"#utility.yul\":11623:11691   */\n      swap4\n      pop\n        /* \"#utility.yul\":11700:11765   */\n      tag_231\n        /* \"#utility.yul\":11758:11764   */\n      dup2\n        /* \"#utility.yul\":11753:11756   */\n      dup6\n        /* \"#utility.yul\":11746:11750   */\n      0x20\n        /* \"#utility.yul\":11739:11744   */\n      dup7\n        /* \"#utility.yul\":11735:11751   */\n      add\n        /* \"#utility.yul\":11700:11765   */\n      tag_62\n      jump\t// in\n    tag_231:\n        /* \"#utility.yul\":11790:11819   */\n      tag_232\n        /* \"#utility.yul\":11812:11818   */\n      dup2\n        /* \"#utility.yul\":11790:11819   */\n      tag_45\n      jump\t// in\n    tag_232:\n        /* \"#utility.yul\":11785:11788   */\n      dup5\n        /* \"#utility.yul\":11781:11820   */\n      add\n        /* \"#utility.yul\":11774:11820   */\n      swap2\n      pop\n        /* \"#utility.yul\":11551:11826   */\n      pop\n        /* \"#utility.yul\":11469:11826   */\n      swap3\n      swap2\n      pop\n      pop\n      jump\t// out\n        /* \"#utility.yul\":11832:11940   */\n    tag_84:\n        /* \"#utility.yul\":11909:11933   */\n      tag_234\n        /* \"#utility.yul\":11927:11932   */\n      dup2\n        /* \"#utility.yul\":11909:11933   */\n      tag_53\n      jump\t// in\n    tag_234:\n        /* \"#utility.yul\":11904:11907   */\n      dup3\n        /* \"#utility.yul\":11897:11934   */\n      mstore\n        /* \"#utility.yul\":11832:11940   */\n      pop\n      pop\n      jump\t// out\n        /* \"#utility.yul\":11946:12054   */\n    tag_85:\n        /* \"#utility.yul\":12023:12047   */\n      tag_236\n        /* \"#utility.yul\":12041:12046   */\n      dup2\n        /* \"#utility.yul\":12023:12047   */\n      tag_57\n      jump\t// in\n    tag_236:\n        /* \"#utility.yul\":12018:12021   */\n      dup3\n        /* \"#utility.yul\":12011:12048   */\n      mstore\n        /* \"#utility.yul\":11946:12054   */\n      pop\n      pop\n      jump\t// out\n        /* \"#utility.yul\":12104:13132   */\n    tag_86:\n        /* \"#utility.yul\":12217:12220   */\n      0x00\n        /* \"#utility.yul\":12253:12257   */\n      0x80\n        /* \"#utility.yul\":12248:12251   */\n      dup4\n        /* \"#utility.yul\":12244:12258   */\n      add\n        /* \"#utility.yul\":12340:12344   */\n      0x00\n        /* \"#utility.yul\":12333:12338   */\n      dup4\n        /* \"#utility.yul\":12329:12345   */\n      add\n        /* \"#utility.yul\":12323:12346   */\n      mload\n        /* \"#utility.yul\":12393:12396   */\n      dup5\n        /* \"#utility.yul\":12387:12391   */\n      dup3\n        /* \"#utility.yul\":12383:12397   */\n      sub\n        /* \"#utility.yul\":12376:12380   */\n      0x00\n        /* \"#utility.yul\":12371:12374   */\n      dup7\n        /* \"#utility.yul\":12367:12381   */\n      add\n        /* \"#utility.yul\":12360:12398   */\n      mstore\n        /* \"#utility.yul\":12419:12492   */\n      tag_238\n        /* \"#utility.yul\":12487:12491   */\n      dup3\n        /* \"#utility.yul\":12473:12485   */\n      dup3\n        /* \"#utility.yul\":12419:12492   */\n      tag_83\n      jump\t// in\n    tag_238:\n        /* \"#utility.yul\":12411:12492   */\n      swap2\n      pop\n        /* \"#utility.yul\":12268:12503   */\n      pop\n        /* \"#utility.yul\":12584:12588   */\n      0x20\n        /* \"#utility.yul\":12577:12582   */\n      dup4\n        /* \"#utility.yul\":12573:12589   */\n      add\n        /* \"#utility.yul\":12567:12590   */\n      mload\n        /* \"#utility.yul\":12603:12666   */\n      tag_239\n        /* \"#utility.yul\":12660:12664   */\n      0x20\n        /* \"#utility.yul\":12655:12658   */\n      dup7\n        /* \"#utility.yul\":12651:12665   */\n      add\n        /* \"#utility.yul\":12637:12649   */\n      dup3\n        /* \"#utility.yul\":12603:12666   */\n      tag_84\n      jump\t// in\n    tag_239:\n        /* \"#utility.yul\":12513:12676   */\n      pop\n        /* \"#utility.yul\":12758:12762   */\n      0x40\n        /* \"#utility.yul\":12751:12756   */\n      dup4\n        /* \"#utility.yul\":12747:12763   */\n      add\n        /* \"#utility.yul\":12741:12764   */\n      mload\n        /* \"#utility.yul\":12777:12840   */\n      tag_240\n        /* \"#utility.yul\":12834:12838   */\n      0x40\n        /* \"#utility.yul\":12829:12832   */\n      dup7\n        /* \"#utility.yul\":12825:12839   */\n      add\n        /* \"#utility.yul\":12811:12823   */\n      dup3\n        /* \"#utility.yul\":12777:12840   */\n      tag_85\n      jump\t// in\n    tag_240:\n        /* \"#utility.yul\":12686:12850   */\n      pop\n        /* \"#utility.yul\":12942:12946   */\n      0x60\n        /* \"#utility.yul\":12935:12940   */\n      dup4\n        /* \"#utility.yul\":12931:12947   */\n      add\n        /* \"#utility.yul\":12925:12948   */\n      mload\n        /* \"#utility.yul\":12995:12998   */\n      dup5\n        /* \"#utility.yul\":12989:12993   */\n      dup3\n        /* \"#utility.yul\":12985:12999   */\n      sub\n        /* \"#utility.yul\":12978:12982   */\n      0x60\n        /* \"#utility.yul\":12973:12976   */\n      dup7\n        /* \"#utility.yul\":12969:12983   */\n      add\n        /* \"#utility.yul\":12962:13000   */\n      mstore\n        /* \"#utility.yul\":13021:13094   */\n      tag_241\n        /* \"#utility.yul\":13089:13093   */\n      dup3\n        /* \"#utility.yul\":13075:13087   */\n      dup3\n        /* \"#utility.yul\":13021:13094   */\n      tag_83\n      jump\t// in\n    tag_241:\n        /* \"#utility.yul\":13013:13094   */\n      swap2\n      pop\n        /* \"#utility.yul\":12860:13105   */\n      pop\n        /* \"#utility.yul\":13122:13126   */\n      dup1\n        /* \"#utility.yul\":13115:13126   */\n      swap2\n      pop\n        /* \"#utility.yul\":12222:13132   */\n      pop\n        /* \"#utility.yul\":12104:13132   */\n      swap3\n      swap2\n      pop\n      pop\n      jump\t// out\n        /* \"#utility.yul\":13162:13973   */\n    tag_87:\n        /* \"#utility.yul\":13237:13240   */\n      0x00\n        /* \"#utility.yul\":13274:13279   */\n      dup2\n        /* \"#utility.yul\":13268:13280   */\n      sload\n        /* \"#utility.yul\":13303:13339   */\n      tag_243\n        /* \"#utility.yul\":13329:13338   */\n      dup2\n        /* \"#utility.yul\":13303:13339   */\n      tag_15\n      jump\t// in\n    tag_243:\n        /* \"#utility.yul\":13355:13416   */\n      tag_244\n        /* \"#utility.yul\":13409:13415   */\n      dup2\n        /* \"#utility.yul\":13404:13407   */\n      dup7\n        /* \"#utility.yul\":13355:13416   */\n      tag_82\n      jump\t// in\n    tag_244:\n        /* \"#utility.yul\":13348:13416   */\n      swap5\n      pop\n        /* \"#utility.yul\":13447:13448   */\n      0x01\n        /* \"#utility.yul\":13436:13445   */\n      dup3\n        /* \"#utility.yul\":13432:13449   */\n      and\n        /* \"#utility.yul\":13463:13464   */\n      0x00\n        /* \"#utility.yul\":13458:13622   */\n      dup2\n      eq\n      tag_246\n      jumpi\n        /* \"#utility.yul\":13636:13637   */\n      0x01\n        /* \"#utility.yul\":13631:13967   */\n      dup2\n      eq\n      tag_247\n      jumpi\n        /* \"#utility.yul\":13425:13967   */\n      jump(tag_245)\n        /* \"#utility.yul\":13458:13622   */\n    tag_246:\n        /* \"#utility.yul\":13542:13546   */\n      0xff\n        /* \"#utility.yul\":13538:13547   */\n      not\n        /* \"#utility.yul\":13527:13536   */\n      dup4\n        /* \"#utility.yul\":13523:13548   */\n      and\n        /* \"#utility.yul\":13518:13521   */\n      dup7\n        /* \"#utility.yul\":13511:13549   */\n      mstore\n        /* \"#utility.yul\":13602:13608   */\n      dup2\n        /* \"#utility.yul\":13595:13609   */\n      iszero\n        /* \"#utility.yul\":13588:13610   */\n      iszero\n        /* \"#utility.yul\":13582:13586   */\n      0x20\n        /* \"#utility.yul\":13578:13611   */\n      mul\n        /* \"#utility.yul\":13573:13576   */\n      dup7\n        /* \"#utility.yul\":13569:13612   */\n      add\n        /* \"#utility.yul\":13562:13612   */\n      swap4\n      pop\n        /* \"#utility.yul\":13458:13622   */\n      jump(tag_245)\n        /* \"#utility.yul\":13631:13967   */\n    tag_247:\n        /* \"#utility.yul\":13698:13736   */\n      tag_248\n        /* \"#utility.yul\":13730:13735   */\n      dup6\n        /* \"#utility.yul\":13698:13736   */\n      tag_67\n      jump\t// in\n    tag_248:\n        /* \"#utility.yul\":13758:13759   */\n      0x00\n        /* \"#utility.yul\":13772:13926   */\n    tag_249:\n        /* \"#utility.yul\":13786:13792   */\n      dup4\n        /* \"#utility.yul\":13783:13784   */\n      dup2\n        /* \"#utility.yul\":13780:13793   */\n      lt\n        /* \"#utility.yul\":13772:13926   */\n      iszero\n      tag_251\n      jumpi\n        /* \"#utility.yul\":13860:13867   */\n      dup2\n        /* \"#utility.yul\":13854:13868   */\n      sload\n        /* \"#utility.yul\":13850:13851   */\n      dup2\n        /* \"#utility.yul\":13845:13848   */\n      dup10\n        /* \"#utility.yul\":13841:13852   */\n      add\n        /* \"#utility.yul\":13834:13869   */\n      mstore\n        /* \"#utility.yul\":13910:13911   */\n      0x01\n        /* \"#utility.yul\":13901:13908   */\n      dup3\n        /* \"#utility.yul\":13897:13912   */\n      add\n        /* \"#utility.yul\":13886:13912   */\n      swap2\n      pop\n        /* \"#utility.yul\":13808:13812   */\n      0x20\n        /* \"#utility.yul\":13805:13806   */\n      dup2\n        /* \"#utility.yul\":13801:13813   */\n      add\n        /* \"#utility.yul\":13796:13813   */\n      swap1\n      pop\n        /* \"#utility.yul\":13772:13926   */\n      jump(tag_249)\n    tag_251:\n        /* \"#utility.yul\":13955:13956   */\n      dup1\n        /* \"#utility.yul\":13950:13953   */\n      dup9\n        /* \"#utility.yul\":13946:13957   */\n      add\n        /* \"#utility.yul\":13939:13957   */\n      swap6\n      pop\n        /* \"#utility.yul\":13638:13967   */\n      pop\n      pop\n        /* \"#utility.yul\":13425:13967   */\n    tag_245:\n      pop\n        /* \"#utility.yul\":13241:13973   */\n      pop\n      pop\n        /* \"#utility.yul\":13162:13973   */\n      swap3\n      swap2\n      pop\n      pop\n      jump\t// out\n        /* \"#utility.yul\":13979:14081   */\n    tag_88:\n        /* \"#utility.yul\":14021:14029   */\n      0x00\n        /* \"#utility.yul\":14068:14073   */\n      dup2\n        /* \"#utility.yul\":14065:14066   */\n      0x00\n        /* \"#utility.yul\":14061:14074   */\n      shr\n        /* \"#utility.yul\":14040:14074   */\n      swap1\n      pop\n        /* \"#utility.yul\":13979:14081   */\n      swap2\n      swap1\n      pop\n      jump\t// out\n        /* \"#utility.yul\":14087:14177   */\n    tag_89:\n        /* \"#utility.yul\":14137:14144   */\n      0x00\n        /* \"#utility.yul\":14166:14171   */\n      dup2\n        /* \"#utility.yul\":14155:14171   */\n      swap1\n      pop\n        /* \"#utility.yul\":14087:14177   */\n      swap2\n      swap1\n      pop\n      jump\t// out\n        /* \"#utility.yul\":14183:14349   */\n    tag_90:\n        /* \"#utility.yul\":14252:14257   */\n      0x00\n        /* \"#utility.yul\":14277:14343   */\n      tag_255\n        /* \"#utility.yul\":14308:14342   */\n      tag_256\n        /* \"#utility.yul\":14331:14341   */\n      dup4\n        /* \"#utility.yul\":14308:14342   */\n      tag_88\n      jump\t// in\n    tag_256:\n        /* \"#utility.yul\":14277:14343   */\n      tag_89\n      jump\t// in\n    tag_255:\n        /* \"#utility.yul\":14268:14343   */\n      swap1\n      pop\n        /* \"#utility.yul\":14183:14349   */\n      swap2\n      swap1\n      pop\n      jump\t// out\n        /* \"#utility.yul\":14355:14494   */\n    tag_91:\n        /* \"#utility.yul\":14405:14412   */\n      0x00\n        /* \"#utility.yul\":14445:14487   */\n      0xffffffffffffffffffffffffffffffffffffffff\n        /* \"#utility.yul\":14438:14443   */\n      dup3\n        /* \"#utility.yul\":14434:14488   */\n      and\n        /* \"#utility.yul\":14423:14488   */\n      swap1\n      pop\n        /* \"#utility.yul\":14355:14494   */\n      swap2\n      swap1\n      pop\n      jump\t// out\n        /* \"#utility.yul\":14500:14666   */\n    tag_92:\n        /* \"#utility.yul\":14569:14574   */\n      0x00\n        /* \"#utility.yul\":14594:14660   */\n      tag_259\n        /* \"#utility.yul\":14625:14659   */\n      tag_260\n        /* \"#utility.yul\":14648:14658   */\n      dup4\n        /* \"#utility.yul\":14625:14659   */\n      tag_88\n      jump\t// in\n    tag_260:\n        /* \"#utility.yul\":14594:14660   */\n      tag_91\n      jump\t// in\n    tag_259:\n        /* \"#utility.yul\":14585:14660   */\n      swap1\n      pop\n        /* \"#utility.yul\":14500:14666   */\n      swap2\n      swap1\n      pop\n      jump\t// out\n        /* \"#utility.yul\":14716:15908   */\n    tag_93:\n        /* \"#utility.yul\":14826:14829   */\n      0x00\n        /* \"#utility.yul\":14862:14866   */\n      0x80\n        /* \"#utility.yul\":14857:14860   */\n      dup4\n        /* \"#utility.yul\":14853:14867   */\n      add\n        /* \"#utility.yul\":14893:14894   */\n      0x00\n        /* \"#utility.yul\":14970:14974   */\n      dup1\n        /* \"#utility.yul\":14963:14968   */\n      dup5\n        /* \"#utility.yul\":14959:14975   */\n      add\n        /* \"#utility.yul\":15022:15025   */\n      dup6\n        /* \"#utility.yul\":15016:15020   */\n      dup4\n        /* \"#utility.yul\":15012:15026   */\n      sub\n        /* \"#utility.yul\":15005:15009   */\n      0x00\n        /* \"#utility.yul\":15000:15003   */\n      dup8\n        /* \"#utility.yul\":14996:15010   */\n      add\n        /* \"#utility.yul\":14989:15027   */\n      mstore\n        /* \"#utility.yul\":15048:15118   */\n      tag_262\n        /* \"#utility.yul\":15113:15117   */\n      dup4\n        /* \"#utility.yul\":15099:15111   */\n      dup3\n        /* \"#utility.yul\":15048:15118   */\n      tag_87\n      jump\t// in\n    tag_262:\n        /* \"#utility.yul\":15040:15118   */\n      swap3\n      pop\n        /* \"#utility.yul\":14904:15129   */\n      pop\n        /* \"#utility.yul\":15202:15206   */\n      0x01\n        /* \"#utility.yul\":15195:15200   */\n      dup5\n        /* \"#utility.yul\":15191:15207   */\n      add\n        /* \"#utility.yul\":15185:15208   */\n      sload\n        /* \"#utility.yul\":15172:15208   */\n      swap1\n      pop\n        /* \"#utility.yul\":15241:15296   */\n      tag_263\n        /* \"#utility.yul\":15286:15295   */\n      dup2\n        /* \"#utility.yul\":15241:15296   */\n      tag_90\n      jump\t// in\n    tag_263:\n        /* \"#utility.yul\":15309:15372   */\n      tag_264\n        /* \"#utility.yul\":15366:15370   */\n      0x20\n        /* \"#utility.yul\":15361:15364   */\n      dup8\n        /* \"#utility.yul\":15357:15371   */\n      add\n        /* \"#utility.yul\":15343:15355   */\n      dup3\n        /* \"#utility.yul\":15309:15372   */\n      tag_84\n      jump\t// in\n    tag_264:\n        /* \"#utility.yul\":15139:15382   */\n      pop\n        /* \"#utility.yul\":15456:15460   */\n      0x02\n        /* \"#utility.yul\":15449:15454   */\n      dup5\n        /* \"#utility.yul\":15445:15461   */\n      add\n        /* \"#utility.yul\":15439:15462   */\n      sload\n        /* \"#utility.yul\":15426:15462   */\n      swap1\n      pop\n        /* \"#utility.yul\":15495:15550   */\n      tag_265\n        /* \"#utility.yul\":15540:15549   */\n      dup2\n        /* \"#utility.yul\":15495:15550   */\n      tag_92\n      jump\t// in\n    tag_265:\n        /* \"#utility.yul\":15563:15626   */\n      tag_266\n        /* \"#utility.yul\":15620:15624   */\n      0x40\n        /* \"#utility.yul\":15615:15618   */\n      dup8\n        /* \"#utility.yul\":15611:15625   */\n      add\n        /* \"#utility.yul\":15597:15609   */\n      dup3\n        /* \"#utility.yul\":15563:15626   */\n      tag_85\n      jump\t// in\n    tag_266:\n        /* \"#utility.yul\":15392:15636   */\n      pop\n        /* \"#utility.yul\":15722:15726   */\n      0x03\n        /* \"#utility.yul\":15715:15720   */\n      dup5\n        /* \"#utility.yul\":15711:15727   */\n      add\n        /* \"#utility.yul\":15774:15777   */\n      dup6\n        /* \"#utility.yul\":15768:15772   */\n      dup4\n        /* \"#utility.yul\":15764:15778   */\n      sub\n        /* \"#utility.yul\":15757:15761   */\n      0x60\n        /* \"#utility.yul\":15752:15755   */\n      dup8\n        /* \"#utility.yul\":15748:15762   */\n      add\n        /* \"#utility.yul\":15741:15779   */\n      mstore\n        /* \"#utility.yul\":15800:15870   */\n      tag_267\n        /* \"#utility.yul\":15865:15869   */\n      dup4\n        /* \"#utility.yul\":15851:15863   */\n      dup3\n        /* \"#utility.yul\":15800:15870   */\n      tag_87\n      jump\t// in\n    tag_267:\n        /* \"#utility.yul\":15792:15870   */\n      swap3\n      pop\n        /* \"#utility.yul\":15646:15881   */\n      pop\n        /* \"#utility.yul\":15898:15902   */\n      dup2\n        /* \"#utility.yul\":15891:15902   */\n      swap3\n      pop\n        /* \"#utility.yul\":14831:15908   */\n      pop\n      pop\n        /* \"#utility.yul\":14716:15908   */\n      swap3\n      swap2\n      pop\n      pop\n      jump\t// out\n        /* \"#utility.yul\":15914:16739   */\n    tag_29:\n        /* \"#utility.yul\":16176:16180   */\n      0x00\n        /* \"#utility.yul\":16214:16217   */\n      0x80\n        /* \"#utility.yul\":16203:16212   */\n      dup3\n        /* \"#utility.yul\":16199:16218   */\n      add\n        /* \"#utility.yul\":16191:16218   */\n      swap1\n      pop\n        /* \"#utility.yul\":16264:16273   */\n      dup2\n        /* \"#utility.yul\":16258:16262   */\n      dup2\n        /* \"#utility.yul\":16254:16274   */\n      sub\n        /* \"#utility.yul\":16250:16251   */\n      0x00\n        /* \"#utility.yul\":16239:16248   */\n      dup4\n        /* \"#utility.yul\":16235:16252   */\n      add\n        /* \"#utility.yul\":16228:16275   */\n      mstore\n        /* \"#utility.yul\":16292:16394   */\n      tag_269\n        /* \"#utility.yul\":16389:16393   */\n      dup2\n        /* \"#utility.yul\":16380:16386   */\n      dup8\n        /* \"#utility.yul\":16292:16394   */\n      tag_86\n      jump\t// in\n    tag_269:\n        /* \"#utility.yul\":16284:16394   */\n      swap1\n      pop\n        /* \"#utility.yul\":16441:16450   */\n      dup2\n        /* \"#utility.yul\":16435:16439   */\n      dup2\n        /* \"#utility.yul\":16431:16451   */\n      sub\n        /* \"#utility.yul\":16426:16428   */\n      0x20\n        /* \"#utility.yul\":16415:16424   */\n      dup4\n        /* \"#utility.yul\":16411:16429   */\n      add\n        /* \"#utility.yul\":16404:16452   */\n      mstore\n        /* \"#utility.yul\":16469:16568   */\n      tag_270\n        /* \"#utility.yul\":16563:16567   */\n      dup2\n        /* \"#utility.yul\":16554:16560   */\n      dup7\n        /* \"#utility.yul\":16469:16568   */\n      tag_93\n      jump\t// in\n    tag_270:\n        /* \"#utility.yul\":16461:16568   */\n      swap1\n      pop\n        /* \"#utility.yul\":16578:16650   */\n      tag_271\n        /* \"#utility.yul\":16646:16648   */\n      0x40\n        /* \"#utility.yul\":16635:16644   */\n      dup4\n        /* \"#utility.yul\":16631:16649   */\n      add\n        /* \"#utility.yul\":16622:16628   */\n      dup6\n        /* \"#utility.yul\":16578:16650   */\n      tag_64\n      jump\t// in\n    tag_271:\n        /* \"#utility.yul\":16660:16732   */\n      tag_272\n        /* \"#utility.yul\":16728:16730   */\n      0x60\n        /* \"#utility.yul\":16717:16726   */\n      dup4\n        /* \"#utility.yul\":16713:16731   */\n      add\n        /* \"#utility.yul\":16704:16710   */\n      dup5\n        /* \"#utility.yul\":16660:16732   */\n      tag_64\n      jump\t// in\n    tag_272:\n        /* \"#utility.yul\":15914:16739   */\n      swap6\n      swap5\n      pop\n      pop\n      pop\n      pop\n      pop\n      jump\t// out\n\n    auxdata: 0xa2646970667358221220b5ef6ff020fac02ca833092b4caf6ddc5d0f615a5ed0b75f76c7920c3ea8d0aa64736f6c63430008150033\n}\n",
				"bytecode": {
					"linkReferences": {},
					"object": "608060405234801561000f575f80fd5b50610d218061001d5f395ff3fe608060405234801561000f575f80fd5b5060043610610034575f3560e01c80636e06a66714610038578063c2a2747b14610054575b5f80fd5b610052600480360381019061004d919061061c565b610075565b005b61005c6102fb565b60405161006c9493929190610750565b60405180910390f35b5f806040518060800160405290815f82018054610091906107ce565b80601f01602080910402602001604051908101604052809291908181526020018280546100bd906107ce565b80156101085780601f106100df57610100808354040283529160200191610108565b820191905f5260205f20905b8154815290600101906020018083116100eb57829003601f168201915b5050505050815260200160018201548152602001600282015f9054906101000a900473ffffffffffffffffffffffffffffffffffffffff1673ffffffffffffffffffffffffffffffffffffffff1673ffffffffffffffffffffffffffffffffffffffff168152602001600382018054610180906107ce565b80601f01602080910402602001604051908101604052809291908181526020018280546101ac906107ce565b80156101f75780601f106101ce576101008083540402835291602001916101f7565b820191905f5260205f20905b8154815290600101906020018083116101da57829003601f168201915b505050505081525050905060405180608001604052808681526020018581526020018473ffffffffffffffffffffffffffffffffffffffff168152602001838152505f80820151815f01908161024d919061099b565b50602082015181600101556040820151816002015f6101000a81548173ffffffffffffffffffffffffffffffffffffffff021916908373ffffffffffffffffffffffffffffffffffffffff16021790555060608201518160030190816102b3919061099b565b509050507fa47beb025e0fb390668fa6d1cef2e5e2d4c5da972f9c705fe3f17598f5135250815f42436040516102ec9493929190610c9a565b60405180910390a15050505050565b5f805f01805461030a906107ce565b80601f0160208091040260200160405190810160405280929190818152602001828054610336906107ce565b80156103815780601f1061035857610100808354040283529160200191610381565b820191905f5260205f20905b81548152906001019060200180831161036457829003601f168201915b505050505090806001015490806002015f9054906101000a900473ffffffffffffffffffffffffffffffffffffffff16908060030180546103c1906107ce565b80601f01602080910402602001604051908101604052809291908181526020018280546103ed906107ce565b80156104385780601f1061040f57610100808354040283529160200191610438565b820191905f5260205f20905b81548152906001019060200180831161041b57829003601f168201915b5050505050905084565b5f604051905090565b5f80fd5b5f80fd5b5f80fd5b5f80fd5b5f601f19601f8301169050919050565b7f4e487b71000000000000000000000000000000000000000000000000000000005f52604160045260245ffd5b6104a18261045b565b810181811067ffffffffffffffff821117156104c0576104bf61046b565b5b80604052505050565b5f6104d2610442565b90506104de8282610498565b919050565b5f67ffffffffffffffff8211156104fd576104fc61046b565b5b6105068261045b565b9050602081019050919050565b828183375f83830152505050565b5f61053361052e846104e3565b6104c9565b90508281526020810184848401111561054f5761054e610457565b5b61055a848285610513565b509392505050565b5f82601f83011261057657610575610453565b5b8135610586848260208601610521565b91505092915050565b5f819050919050565b6105a18161058f565b81146105ab575f80fd5b50565b5f813590506105bc81610598565b92915050565b5f73ffffffffffffffffffffffffffffffffffffffff82169050919050565b5f6105eb826105c2565b9050919050565b6105fb816105e1565b8114610605575f80fd5b50565b5f81359050610616816105f2565b92915050565b5f805f80608085870312156106345761063361044b565b5b5f85013567ffffffffffffffff8111156106515761065061044f565b5b61065d87828801610562565b945050602061066e878288016105ae565b935050604061067f87828801610608565b925050606085013567ffffffffffffffff8111156106a05761069f61044f565b5b6106ac87828801610562565b91505092959194509250565b5f81519050919050565b5f82825260208201905092915050565b5f5b838110156106ef5780820151818401526020810190506106d4565b5f8484015250505050565b5f610704826106b8565b61070e81856106c2565b935061071e8185602086016106d2565b6107278161045b565b840191505092915050565b61073b8161058f565b82525050565b61074a816105e1565b82525050565b5f6080820190508181035f83015261076881876106fa565b90506107776020830186610732565b6107846040830185610741565b818103606083015261079681846106fa565b905095945050505050565b7f4e487b71000000000000000000000000000000000000000000000000000000005f52602260045260245ffd5b5f60028204905060018216806107e557607f821691505b6020821081036107f8576107f76107a1565b5b50919050565b5f819050815f5260205f209050919050565b5f6020601f8301049050919050565b5f82821b905092915050565b5f6008830261085a7fffffffffffffffffffffffffffffffffffffffffffffffffffffffffffffffff8261081f565b610864868361081f565b95508019841693508086168417925050509392505050565b5f819050919050565b5f61089f61089a6108958461058f565b61087c565b61058f565b9050919050565b5f819050919050565b6108b883610885565b6108cc6108c4826108a6565b84845461082b565b825550505050565b5f90565b6108e06108d4565b6108eb8184846108af565b505050565b5b8181101561090e576109035f826108d8565b6001810190506108f1565b5050565b601f82111561095357610924816107fe565b61092d84610810565b8101602085101561093c578190505b61095061094885610810565b8301826108f0565b50505b505050565b5f82821c905092915050565b5f6109735f1984600802610958565b1980831691505092915050565b5f61098b8383610964565b9150826002028217905092915050565b6109a4826106b8565b67ffffffffffffffff8111156109bd576109bc61046b565b5b6109c782546107ce565b6109d2828285610912565b5f60209050601f831160018114610a03575f84156109f1578287015190505b6109fb8582610980565b865550610a62565b601f198416610a11866107fe565b5f5b82811015610a3857848901518255600182019150602085019450602081019050610a13565b86831015610a555784890151610a51601f891682610964565b8355505b6001600288020188555050505b505050505050565b5f82825260208201905092915050565b5f610a84826106b8565b610a8e8185610a6a565b9350610a9e8185602086016106d2565b610aa78161045b565b840191505092915050565b610abb8161058f565b82525050565b610aca816105e1565b82525050565b5f608083015f8301518482035f860152610aea8282610a7a565b9150506020830151610aff6020860182610ab2565b506040830151610b126040860182610ac1565b5060608301518482036060860152610b2a8282610a7a565b9150508091505092915050565b5f8154610b43816107ce565b610b4d8186610a6a565b9450600182165f8114610b675760018114610b7d57610baf565b60ff198316865281151560200286019350610baf565b610b86856107fe565b5f5b83811015610ba757815481890152600182019150602081019050610b88565b808801955050505b50505092915050565b5f815f1c9050919050565b5f819050919050565b5f610bde610bd983610bb8565b610bc3565b9050919050565b5f73ffffffffffffffffffffffffffffffffffffffff82169050919050565b5f610c16610c1183610bb8565b610be5565b9050919050565b5f608083015f8084018583035f870152610c378382610b37565b92505060018401549050610c4a81610bcc565b610c576020870182610ab2565b5060028401549050610c6881610c04565b610c756040870182610ac1565b50600384018583036060870152610c8c8382610b37565b925050819250505092915050565b5f6080820190508181035f830152610cb28187610ad0565b90508181036020830152610cc68186610c1d565b9050610cd56040830185610732565b610ce26060830184610732565b9594505050505056fea2646970667358221220b5ef6ff020fac02ca833092b4caf6ddc5d0f615a5ed0b75f76c7920c3ea8d0aa64736f6c63430008150033",
					"opcodes": "PUSH1 0x80 PUSH1 0x40 MSTORE CALLVALUE DUP1 ISZERO PUSH2 0xF JUMPI PUSH0 DUP1 REVERT JUMPDEST POP PUSH2 0xD21 DUP1 PUSH2 0x1D PUSH0 CODECOPY PUSH0 RETURN INVALID PUSH1 0x80 PUSH1 0x40 MSTORE CALLVALUE DUP1 ISZERO PUSH2 0xF JUMPI PUSH0 DUP1 REVERT JUMPDEST POP PUSH1 0x4 CALLDATASIZE LT PUSH2 0x34 JUMPI PUSH0 CALLDATALOAD PUSH1 0xE0 SHR DUP1 PUSH4 0x6E06A667 EQ PUSH2 0x38 JUMPI DUP1 PUSH4 0xC2A2747B EQ PUSH2 0x54 JUMPI JUMPDEST PUSH0 DUP1 REVERT JUMPDEST PUSH2 0x52 PUSH1 0x4 DUP1 CALLDATASIZE SUB DUP2 ADD SWAP1 PUSH2 0x4D SWAP2 SWAP1 PUSH2 0x61C JUMP JUMPDEST PUSH2 0x75 JUMP JUMPDEST STOP JUMPDEST PUSH2 0x5C PUSH2 0x2FB JUMP JUMPDEST PUSH1 0x40 MLOAD PUSH2 0x6C SWAP5 SWAP4 SWAP3 SWAP2 SWAP1 PUSH2 0x750 JUMP JUMPDEST PUSH1 0x40 MLOAD DUP1 SWAP2 SUB SWAP1 RETURN JUMPDEST PUSH0 DUP1 PUSH1 0x40 MLOAD DUP1 PUSH1 0x80 ADD PUSH1 0x40 MSTORE SWAP1 DUP2 PUSH0 DUP3 ADD DUP1 SLOAD PUSH2 0x91 SWAP1 PUSH2 0x7CE JUMP JUMPDEST DUP1 PUSH1 0x1F ADD PUSH1 0x20 DUP1 SWAP2 DIV MUL PUSH1 0x20 ADD PUSH1 0x40 MLOAD SWAP1 DUP2 ADD PUSH1 0x40 MSTORE DUP1 SWAP3 SWAP2 SWAP1 DUP2 DUP2 MSTORE PUSH1 0x20 ADD DUP3 DUP1 SLOAD PUSH2 0xBD SWAP1 PUSH2 0x7CE JUMP JUMPDEST DUP1 ISZERO PUSH2 0x108 JUMPI DUP1 PUSH1 0x1F LT PUSH2 0xDF JUMPI PUSH2 0x100 DUP1 DUP4 SLOAD DIV MUL DUP4 MSTORE SWAP2 PUSH1 0x20 ADD SWAP2 PUSH2 0x108 JUMP JUMPDEST DUP3 ADD SWAP2 SWAP1 PUSH0 MSTORE PUSH1 0x20 PUSH0 KECCAK256 SWAP1 JUMPDEST DUP2 SLOAD DUP2 MSTORE SWAP1 PUSH1 0x1 ADD SWAP1 PUSH1 0x20 ADD DUP1 DUP4 GT PUSH2 0xEB JUMPI DUP3 SWAP1 SUB PUSH1 0x1F AND DUP3 ADD SWAP2 JUMPDEST POP POP POP POP POP DUP2 MSTORE PUSH1 0x20 ADD PUSH1 0x1 DUP3 ADD SLOAD DUP2 MSTORE PUSH1 0x20 ADD PUSH1 0x2 DUP3 ADD PUSH0 SWAP1 SLOAD SWAP1 PUSH2 0x100 EXP SWAP1 DIV PUSH20 0xFFFFFFFFFFFFFFFFFFFFFFFFFFFFFFFFFFFFFFFF AND PUSH20 0xFFFFFFFFFFFFFFFFFFFFFFFFFFFFFFFFFFFFFFFF AND PUSH20 0xFFFFFFFFFFFFFFFFFFFFFFFFFFFFFFFFFFFFFFFF AND DUP2 MSTORE PUSH1 0x20 ADD PUSH1 0x3 DUP3 ADD DUP1 SLOAD PUSH2 0x180 SWAP1 PUSH2 0x7CE JUMP JUMPDEST DUP1 PUSH1 0x1F ADD PUSH1 0x20 DUP1 SWAP2 DIV MUL PUSH1 0x20 ADD PUSH1 0x40 MLOAD SWAP1 DUP2 ADD PUSH1 0x40 MSTORE DUP1 SWAP3 SWAP2 SWAP1 DUP2 DUP2 MSTORE PUSH1 0x20 ADD DUP3 DUP1 SLOAD PUSH2 0x1AC SWAP1 PUSH2 0x7CE JUMP JUMPDEST DUP1 ISZERO PUSH2 0x1F7 JUMPI DUP1 PUSH1 0x1F LT PUSH2 0x1CE JUMPI PUSH2 0x100 DUP1 DUP4 SLOAD DIV MUL DUP4 MSTORE SWAP2 PUSH1 0x20 ADD SWAP2 PUSH2 0x1F7 JUMP JUMPDEST DUP3 ADD SWAP2 SWAP1 PUSH0 MSTORE PUSH1 0x20 PUSH0 KECCAK256 SWAP1 JUMPDEST DUP2 SLOAD DUP2 MSTORE SWAP1 PUSH1 0x1 ADD SWAP1 PUSH1 0x20 ADD DUP1 DUP4 GT PUSH2 0x1DA JUMPI DUP3 SWAP1 SUB PUSH1 0x1F AND DUP3 ADD SWAP2 JUMPDEST POP POP POP POP POP DUP2 MSTORE POP POP SWAP1 POP PUSH1 0x40 MLOAD DUP1 PUSH1 0x80 ADD PUSH1 0x40 MSTORE DUP1 DUP7 DUP2 MSTORE PUSH1 0x20 ADD DUP6 DUP2 MSTORE PUSH1 0x20 ADD DUP5 PUSH20 0xFFFFFFFFFFFFFFFFFFFFFFFFFFFFFFFFFFFFFFFF AND DUP2 MSTORE PUSH1 0x20 ADD DUP4 DUP2 MSTORE POP PUSH0 DUP1 DUP3 ADD MLOAD DUP2 PUSH0 ADD SWAP1 DUP2 PUSH2 0x24D SWAP2 SWAP1 PUSH2 0x99B JUMP JUMPDEST POP PUSH1 0x20 DUP3 ADD MLOAD DUP2 PUSH1 0x1 ADD SSTORE PUSH1 0x40 DUP3 ADD MLOAD DUP2 PUSH1 0x2 ADD PUSH0 PUSH2 0x100 EXP DUP2 SLOAD DUP2 PUSH20 0xFFFFFFFFFFFFFFFFFFFFFFFFFFFFFFFFFFFFFFFF MUL NOT AND SWAP1 DUP4 PUSH20 0xFFFFFFFFFFFFFFFFFFFFFFFFFFFFFFFFFFFFFFFF AND MUL OR SWAP1 SSTORE POP PUSH1 0x60 DUP3 ADD MLOAD DUP2 PUSH1 0x3 ADD SWAP1 DUP2 PUSH2 0x2B3 SWAP2 SWAP1 PUSH2 0x99B JUMP JUMPDEST POP SWAP1 POP POP PUSH32 0xA47BEB025E0FB390668FA6D1CEF2E5E2D4C5DA972F9C705FE3F17598F5135250 DUP2 PUSH0 TIMESTAMP NUMBER PUSH1 0x40 MLOAD PUSH2 0x2EC SWAP5 SWAP4 SWAP3 SWAP2 SWAP1 PUSH2 0xC9A JUMP JUMPDEST PUSH1 0x40 MLOAD DUP1 SWAP2 SUB SWAP1 LOG1 POP POP POP POP POP JUMP JUMPDEST PUSH0 DUP1 PUSH0 ADD DUP1 SLOAD PUSH2 0x30A SWAP1 PUSH2 0x7CE JUMP JUMPDEST DUP1 PUSH1 0x1F ADD PUSH1 0x20 DUP1 SWAP2 DIV MUL PUSH1 0x20 ADD PUSH1 0x40 MLOAD SWAP1 DUP2 ADD PUSH1 0x40 MSTORE DUP1 SWAP3 SWAP2 SWAP1 DUP2 DUP2 MSTORE PUSH1 0x20 ADD DUP3 DUP1 SLOAD PUSH2 0x336 SWAP1 PUSH2 0x7CE JUMP JUMPDEST DUP1 ISZERO PUSH2 0x381 JUMPI DUP1 PUSH1 0x1F LT PUSH2 0x358 JUMPI PUSH2 0x100 DUP1 DUP4 SLOAD DIV MUL DUP4 MSTORE SWAP2 PUSH1 0x20 ADD SWAP2 PUSH2 0x381 JUMP JUMPDEST DUP3 ADD SWAP2 SWAP1 PUSH0 MSTORE PUSH1 0x20 PUSH0 KECCAK256 SWAP1 JUMPDEST DUP2 SLOAD DUP2 MSTORE SWAP1 PUSH1 0x1 ADD SWAP1 PUSH1 0x20 ADD DUP1 DUP4 GT PUSH2 0x364 JUMPI DUP3 SWAP1 SUB PUSH1 0x1F AND DUP3 ADD SWAP2 JUMPDEST POP POP POP POP POP SWAP1 DUP1 PUSH1 0x1 ADD SLOAD SWAP1 DUP1 PUSH1 0x2 ADD PUSH0 SWAP1 SLOAD SWAP1 PUSH2 0x100 EXP SWAP1 DIV PUSH20 0xFFFFFFFFFFFFFFFFFFFFFFFFFFFFFFFFFFFFFFFF AND SWAP1 DUP1 PUSH1 0x3 ADD DUP1 SLOAD PUSH2 0x3C1 SWAP1 PUSH2 0x7CE JUMP JUMPDEST DUP1 PUSH1 0x1F ADD PUSH1 0x20 DUP1 SWAP2 DIV MUL PUSH1 0x20 ADD PUSH1 0x40 MLOAD SWAP1 DUP2 ADD PUSH1 0x40 MSTORE DUP1 SWAP3 SWAP2 SWAP1 DUP2 DUP2 MSTORE PUSH1 0x20 ADD DUP3 DUP1 SLOAD PUSH2 0x3ED SWAP1 PUSH2 0x7CE JUMP JUMPDEST DUP1 ISZERO PUSH2 0x438 JUMPI DUP1 PUSH1 0x1F LT PUSH2 0x40F JUMPI PUSH2 0x100 DUP1 DUP4 SLOAD DIV MUL DUP4 MSTORE SWAP2 PUSH1 0x20 ADD SWAP2 PUSH2 0x438 JUMP JUMPDEST DUP3 ADD SWAP2 SWAP1 PUSH0 MSTORE PUSH1 0x20 PUSH0 KECCAK256 SWAP1 JUMPDEST DUP2 SLOAD DUP2 MSTORE SWAP1 PUSH1 0x1 ADD SWAP1 PUSH1 0x20 ADD DUP1 DUP4 GT PUSH2 0x41B JUMPI DUP3 SWAP1 SUB PUSH1 0x1F AND DUP3 ADD SWAP2 JUMPDEST POP POP POP POP POP SWAP1 POP DUP5 JUMP JUMPDEST PUSH0 PUSH1 0x40 MLOAD SWAP1 POP SWAP1 JUMP JUMPDEST PUSH0 DUP1 REVERT JUMPDEST PUSH0 DUP1 REVERT JUMPDEST PUSH0 DUP1 REVERT JUMPDEST PUSH0 DUP1 REVERT JUMPDEST PUSH0 PUSH1 0x1F NOT PUSH1 0x1F DUP4 ADD AND SWAP1 POP SWAP2 SWAP1 POP JUMP JUMPDEST PUSH32 0x4E487B7100000000000000000000000000000000000000000000000000000000 PUSH0 MSTORE PUSH1 0x41 PUSH1 0x4 MSTORE PUSH1 0x24 PUSH0 REVERT JUMPDEST PUSH2 0x4A1 DUP3 PUSH2 0x45B JUMP JUMPDEST DUP2 ADD DUP2 DUP2 LT PUSH8 0xFFFFFFFFFFFFFFFF DUP3 GT OR ISZERO PUSH2 0x4C0 JUMPI PUSH2 0x4BF PUSH2 0x46B JUMP JUMPDEST JUMPDEST DUP1 PUSH1 0x40 MSTORE POP POP POP JUMP JUMPDEST PUSH0 PUSH2 0x4D2 PUSH2 0x442 JUMP JUMPDEST SWAP1 POP PUSH2 0x4DE DUP3 DUP3 PUSH2 0x498 JUMP JUMPDEST SWAP2 SWAP1 POP JUMP JUMPDEST PUSH0 PUSH8 0xFFFFFFFFFFFFFFFF DUP3 GT ISZERO PUSH2 0x4FD JUMPI PUSH2 0x4FC PUSH2 0x46B JUMP JUMPDEST JUMPDEST PUSH2 0x506 DUP3 PUSH2 0x45B JUMP JUMPDEST SWAP1 POP PUSH1 0x20 DUP2 ADD SWAP1 POP SWAP2 SWAP1 POP JUMP JUMPDEST DUP3 DUP2 DUP4 CALLDATACOPY PUSH0 DUP4 DUP4 ADD MSTORE POP POP POP JUMP JUMPDEST PUSH0 PUSH2 0x533 PUSH2 0x52E DUP5 PUSH2 0x4E3 JUMP JUMPDEST PUSH2 0x4C9 JUMP JUMPDEST SWAP1 POP DUP3 DUP2 MSTORE PUSH1 0x20 DUP2 ADD DUP5 DUP5 DUP5 ADD GT ISZERO PUSH2 0x54F JUMPI PUSH2 0x54E PUSH2 0x457 JUMP JUMPDEST JUMPDEST PUSH2 0x55A DUP5 DUP3 DUP6 PUSH2 0x513 JUMP JUMPDEST POP SWAP4 SWAP3 POP POP POP JUMP JUMPDEST PUSH0 DUP3 PUSH1 0x1F DUP4 ADD SLT PUSH2 0x576 JUMPI PUSH2 0x575 PUSH2 0x453 JUMP JUMPDEST JUMPDEST DUP2 CALLDATALOAD PUSH2 0x586 DUP5 DUP3 PUSH1 0x20 DUP7 ADD PUSH2 0x521 JUMP JUMPDEST SWAP2 POP POP SWAP3 SWAP2 POP POP JUMP JUMPDEST PUSH0 DUP2 SWAP1 POP SWAP2 SWAP1 POP JUMP JUMPDEST PUSH2 0x5A1 DUP2 PUSH2 0x58F JUMP JUMPDEST DUP2 EQ PUSH2 0x5AB JUMPI PUSH0 DUP1 REVERT JUMPDEST POP JUMP JUMPDEST PUSH0 DUP2 CALLDATALOAD SWAP1 POP PUSH2 0x5BC DUP2 PUSH2 0x598 JUMP JUMPDEST SWAP3 SWAP2 POP POP JUMP JUMPDEST PUSH0 PUSH20 0xFFFFFFFFFFFFFFFFFFFFFFFFFFFFFFFFFFFFFFFF DUP3 AND SWAP1 POP SWAP2 SWAP1 POP JUMP JUMPDEST PUSH0 PUSH2 0x5EB DUP3 PUSH2 0x5C2 JUMP JUMPDEST SWAP1 POP SWAP2 SWAP1 POP JUMP JUMPDEST PUSH2 0x5FB DUP2 PUSH2 0x5E1 JUMP JUMPDEST DUP2 EQ PUSH2 0x605 JUMPI PUSH0 DUP1 REVERT JUMPDEST POP JUMP JUMPDEST PUSH0 DUP2 CALLDATALOAD SWAP1 POP PUSH2 0x616 DUP2 PUSH2 0x5F2 JUMP JUMPDEST SWAP3 SWAP2 POP POP JUMP JUMPDEST PUSH0 DUP1 PUSH0 DUP1 PUSH1 0x80 DUP6 DUP8 SUB SLT ISZERO PUSH2 0x634 JUMPI PUSH2 0x633 PUSH2 0x44B JUMP JUMPDEST JUMPDEST PUSH0 DUP6 ADD CALLDATALOAD PUSH8 0xFFFFFFFFFFFFFFFF DUP2 GT ISZERO PUSH2 0x651 JUMPI PUSH2 0x650 PUSH2 0x44F JUMP JUMPDEST JUMPDEST PUSH2 0x65D DUP8 DUP3 DUP9 ADD PUSH2 0x562 JUMP JUMPDEST SWAP5 POP POP PUSH1 0x20 PUSH2 0x66E DUP8 DUP3 DUP9 ADD PUSH2 0x5AE JUMP JUMPDEST SWAP4 POP POP PUSH1 0x40 PUSH2 0x67F DUP8 DUP3 DUP9 ADD PUSH2 0x608 JUMP JUMPDEST SWAP3 POP POP PUSH1 0x60 DUP6 ADD CALLDATALOAD PUSH8 0xFFFFFFFFFFFFFFFF DUP2 GT ISZERO PUSH2 0x6A0 JUMPI PUSH2 0x69F PUSH2 0x44F JUMP JUMPDEST JUMPDEST PUSH2 0x6AC DUP8 DUP3 DUP9 ADD PUSH2 0x562 JUMP JUMPDEST SWAP2 POP POP SWAP3 SWAP6 SWAP2 SWAP5 POP SWAP3 POP JUMP JUMPDEST PUSH0 DUP2 MLOAD SWAP1 POP SWAP2 SWAP1 POP JUMP JUMPDEST PUSH0 DUP3 DUP3 MSTORE PUSH1 0x20 DUP3 ADD SWAP1 POP SWAP3 SWAP2 POP POP JUMP JUMPDEST PUSH0 JUMPDEST DUP4 DUP2 LT ISZERO PUSH2 0x6EF JUMPI DUP1 DUP3 ADD MLOAD DUP2 DUP5 ADD MSTORE PUSH1 0x20 DUP2 ADD SWAP1 POP PUSH2 0x6D4 JUMP JUMPDEST PUSH0 DUP5 DUP5 ADD MSTORE POP POP POP POP JUMP JUMPDEST PUSH0 PUSH2 0x704 DUP3 PUSH2 0x6B8 JUMP JUMPDEST PUSH2 0x70E DUP2 DUP6 PUSH2 0x6C2 JUMP JUMPDEST SWAP4 POP PUSH2 0x71E DUP2 DUP6 PUSH1 0x20 DUP7 ADD PUSH2 0x6D2 JUMP JUMPDEST PUSH2 0x727 DUP2 PUSH2 0x45B JUMP JUMPDEST DUP5 ADD SWAP2 POP POP SWAP3 SWAP2 POP POP JUMP JUMPDEST PUSH2 0x73B DUP2 PUSH2 0x58F JUMP JUMPDEST DUP3 MSTORE POP POP JUMP JUMPDEST PUSH2 0x74A DUP2 PUSH2 0x5E1 JUMP JUMPDEST DUP3 MSTORE POP POP JUMP JUMPDEST PUSH0 PUSH1 0x80 DUP3 ADD SWAP1 POP DUP2 DUP2 SUB PUSH0 DUP4 ADD MSTORE PUSH2 0x768 DUP2 DUP8 PUSH2 0x6FA JUMP JUMPDEST SWAP1 POP PUSH2 0x777 PUSH1 0x20 DUP4 ADD DUP7 PUSH2 0x732 JUMP JUMPDEST PUSH2 0x784 PUSH1 0x40 DUP4 ADD DUP6 PUSH2 0x741 JUMP JUMPDEST DUP2 DUP2 SUB PUSH1 0x60 DUP4 ADD MSTORE PUSH2 0x796 DUP2 DUP5 PUSH2 0x6FA JUMP JUMPDEST SWAP1 POP SWAP6 SWAP5 POP POP POP POP POP JUMP JUMPDEST PUSH32 0x4E487B7100000000000000000000000000000000000000000000000000000000 PUSH0 MSTORE PUSH1 0x22 PUSH1 0x4 MSTORE PUSH1 0x24 PUSH0 REVERT JUMPDEST PUSH0 PUSH1 0x2 DUP3 DIV SWAP1 POP PUSH1 0x1 DUP3 AND DUP1 PUSH2 0x7E5 JUMPI PUSH1 0x7F DUP3 AND SWAP2 POP JUMPDEST PUSH1 0x20 DUP3 LT DUP2 SUB PUSH2 0x7F8 JUMPI PUSH2 0x7F7 PUSH2 0x7A1 JUMP JUMPDEST JUMPDEST POP SWAP2 SWAP1 POP JUMP JUMPDEST PUSH0 DUP2 SWAP1 POP DUP2 PUSH0 MSTORE PUSH1 0x20 PUSH0 KECCAK256 SWAP1 POP SWAP2 SWAP1 POP JUMP JUMPDEST PUSH0 PUSH1 0x20 PUSH1 0x1F DUP4 ADD DIV SWAP1 POP SWAP2 SWAP1 POP JUMP JUMPDEST PUSH0 DUP3 DUP3 SHL SWAP1 POP SWAP3 SWAP2 POP POP JUMP JUMPDEST PUSH0 PUSH1 0x8 DUP4 MUL PUSH2 0x85A PUSH32 0xFFFFFFFFFFFFFFFFFFFFFFFFFFFFFFFFFFFFFFFFFFFFFFFFFFFFFFFFFFFFFFFF DUP3 PUSH2 0x81F JUMP JUMPDEST PUSH2 0x864 DUP7 DUP4 PUSH2 0x81F JUMP JUMPDEST SWAP6 POP DUP1 NOT DUP5 AND SWAP4 POP DUP1 DUP7 AND DUP5 OR SWAP3 POP POP POP SWAP4 SWAP3 POP POP POP JUMP JUMPDEST PUSH0 DUP2 SWAP1 POP SWAP2 SWAP1 POP JUMP JUMPDEST PUSH0 PUSH2 0x89F PUSH2 0x89A PUSH2 0x895 DUP5 PUSH2 0x58F JUMP JUMPDEST PUSH2 0x87C JUMP JUMPDEST PUSH2 0x58F JUMP JUMPDEST SWAP1 POP SWAP2 SWAP1 POP JUMP JUMPDEST PUSH0 DUP2 SWAP1 POP SWAP2 SWAP1 POP JUMP JUMPDEST PUSH2 0x8B8 DUP4 PUSH2 0x885 JUMP JUMPDEST PUSH2 0x8CC PUSH2 0x8C4 DUP3 PUSH2 0x8A6 JUMP JUMPDEST DUP5 DUP5 SLOAD PUSH2 0x82B JUMP JUMPDEST DUP3 SSTORE POP POP POP POP JUMP JUMPDEST PUSH0 SWAP1 JUMP JUMPDEST PUSH2 0x8E0 PUSH2 0x8D4 JUMP JUMPDEST PUSH2 0x8EB DUP2 DUP5 DUP5 PUSH2 0x8AF JUMP JUMPDEST POP POP POP JUMP JUMPDEST JUMPDEST DUP2 DUP2 LT ISZERO PUSH2 0x90E JUMPI PUSH2 0x903 PUSH0 DUP3 PUSH2 0x8D8 JUMP JUMPDEST PUSH1 0x1 DUP2 ADD SWAP1 POP PUSH2 0x8F1 JUMP JUMPDEST POP POP JUMP JUMPDEST PUSH1 0x1F DUP3 GT ISZERO PUSH2 0x953 JUMPI PUSH2 0x924 DUP2 PUSH2 0x7FE JUMP JUMPDEST PUSH2 0x92D DUP5 PUSH2 0x810 JUMP JUMPDEST DUP2 ADD PUSH1 0x20 DUP6 LT ISZERO PUSH2 0x93C JUMPI DUP2 SWAP1 POP JUMPDEST PUSH2 0x950 PUSH2 0x948 DUP6 PUSH2 0x810 JUMP JUMPDEST DUP4 ADD DUP3 PUSH2 0x8F0 JUMP JUMPDEST POP POP JUMPDEST POP POP POP JUMP JUMPDEST PUSH0 DUP3 DUP3 SHR SWAP1 POP SWAP3 SWAP2 POP POP JUMP JUMPDEST PUSH0 PUSH2 0x973 PUSH0 NOT DUP5 PUSH1 0x8 MUL PUSH2 0x958 JUMP JUMPDEST NOT DUP1 DUP4 AND SWAP2 POP POP SWAP3 SWAP2 POP POP JUMP JUMPDEST PUSH0 PUSH2 0x98B DUP4 DUP4 PUSH2 0x964 JUMP JUMPDEST SWAP2 POP DUP3 PUSH1 0x2 MUL DUP3 OR SWAP1 POP SWAP3 SWAP2 POP POP JUMP JUMPDEST PUSH2 0x9A4 DUP3 PUSH2 0x6B8 JUMP JUMPDEST PUSH8 0xFFFFFFFFFFFFFFFF DUP2 GT ISZERO PUSH2 0x9BD JUMPI PUSH2 0x9BC PUSH2 0x46B JUMP JUMPDEST JUMPDEST PUSH2 0x9C7 DUP3 SLOAD PUSH2 0x7CE JUMP JUMPDEST PUSH2 0x9D2 DUP3 DUP3 DUP6 PUSH2 0x912 JUMP JUMPDEST PUSH0 PUSH1 0x20 SWAP1 POP PUSH1 0x1F DUP4 GT PUSH1 0x1 DUP2 EQ PUSH2 0xA03 JUMPI PUSH0 DUP5 ISZERO PUSH2 0x9F1 JUMPI DUP3 DUP8 ADD MLOAD SWAP1 POP JUMPDEST PUSH2 0x9FB DUP6 DUP3 PUSH2 0x980 JUMP JUMPDEST DUP7 SSTORE POP PUSH2 0xA62 JUMP JUMPDEST PUSH1 0x1F NOT DUP5 AND PUSH2 0xA11 DUP7 PUSH2 0x7FE JUMP JUMPDEST PUSH0 JUMPDEST DUP3 DUP2 LT ISZERO PUSH2 0xA38 JUMPI DUP5 DUP10 ADD MLOAD DUP3 SSTORE PUSH1 0x1 DUP3 ADD SWAP2 POP PUSH1 0x20 DUP6 ADD SWAP5 POP PUSH1 0x20 DUP2 ADD SWAP1 POP PUSH2 0xA13 JUMP JUMPDEST DUP7 DUP4 LT ISZERO PUSH2 0xA55 JUMPI DUP5 DUP10 ADD MLOAD PUSH2 0xA51 PUSH1 0x1F DUP10 AND DUP3 PUSH2 0x964 JUMP JUMPDEST DUP4 SSTORE POP JUMPDEST PUSH1 0x1 PUSH1 0x2 DUP9 MUL ADD DUP9 SSTORE POP POP POP JUMPDEST POP POP POP POP POP POP JUMP JUMPDEST PUSH0 DUP3 DUP3 MSTORE PUSH1 0x20 DUP3 ADD SWAP1 POP SWAP3 SWAP2 POP POP JUMP JUMPDEST PUSH0 PUSH2 0xA84 DUP3 PUSH2 0x6B8 JUMP JUMPDEST PUSH2 0xA8E DUP2 DUP6 PUSH2 0xA6A JUMP JUMPDEST SWAP4 POP PUSH2 0xA9E DUP2 DUP6 PUSH1 0x20 DUP7 ADD PUSH2 0x6D2 JUMP JUMPDEST PUSH2 0xAA7 DUP2 PUSH2 0x45B JUMP JUMPDEST DUP5 ADD SWAP2 POP POP SWAP3 SWAP2 POP POP JUMP JUMPDEST PUSH2 0xABB DUP2 PUSH2 0x58F JUMP JUMPDEST DUP3 MSTORE POP POP JUMP JUMPDEST PUSH2 0xACA DUP2 PUSH2 0x5E1 JUMP JUMPDEST DUP3 MSTORE POP POP JUMP JUMPDEST PUSH0 PUSH1 0x80 DUP4 ADD PUSH0 DUP4 ADD MLOAD DUP5 DUP3 SUB PUSH0 DUP7 ADD MSTORE PUSH2 0xAEA DUP3 DUP3 PUSH2 0xA7A JUMP JUMPDEST SWAP2 POP POP PUSH1 0x20 DUP4 ADD MLOAD PUSH2 0xAFF PUSH1 0x20 DUP7 ADD DUP3 PUSH2 0xAB2 JUMP JUMPDEST POP PUSH1 0x40 DUP4 ADD MLOAD PUSH2 0xB12 PUSH1 0x40 DUP7 ADD DUP3 PUSH2 0xAC1 JUMP JUMPDEST POP PUSH1 0x60 DUP4 ADD MLOAD DUP5 DUP3 SUB PUSH1 0x60 DUP7 ADD MSTORE PUSH2 0xB2A DUP3 DUP3 PUSH2 0xA7A JUMP JUMPDEST SWAP2 POP POP DUP1 SWAP2 POP POP SWAP3 SWAP2 POP POP JUMP JUMPDEST PUSH0 DUP2 SLOAD PUSH2 0xB43 DUP2 PUSH2 0x7CE JUMP JUMPDEST PUSH2 0xB4D DUP2 DUP7 PUSH2 0xA6A JUMP JUMPDEST SWAP5 POP PUSH1 0x1 DUP3 AND PUSH0 DUP2 EQ PUSH2 0xB67 JUMPI PUSH1 0x1 DUP2 EQ PUSH2 0xB7D JUMPI PUSH2 0xBAF JUMP JUMPDEST PUSH1 0xFF NOT DUP4 AND DUP7 MSTORE DUP2 ISZERO ISZERO PUSH1 0x20 MUL DUP7 ADD SWAP4 POP PUSH2 0xBAF JUMP JUMPDEST PUSH2 0xB86 DUP6 PUSH2 0x7FE JUMP JUMPDEST PUSH0 JUMPDEST DUP4 DUP2 LT ISZERO PUSH2 0xBA7 JUMPI DUP2 SLOAD DUP2 DUP10 ADD MSTORE PUSH1 0x1 DUP3 ADD SWAP2 POP PUSH1 0x20 DUP2 ADD SWAP1 POP PUSH2 0xB88 JUMP JUMPDEST DUP1 DUP9 ADD SWAP6 POP POP POP JUMPDEST POP POP POP SWAP3 SWAP2 POP POP JUMP JUMPDEST PUSH0 DUP2 PUSH0 SHR SWAP1 POP SWAP2 SWAP1 POP JUMP JUMPDEST PUSH0 DUP2 SWAP1 POP SWAP2 SWAP1 POP JUMP JUMPDEST PUSH0 PUSH2 0xBDE PUSH2 0xBD9 DUP4 PUSH2 0xBB8 JUMP JUMPDEST PUSH2 0xBC3 JUMP JUMPDEST SWAP1 POP SWAP2 SWAP1 POP JUMP JUMPDEST PUSH0 PUSH20 0xFFFFFFFFFFFFFFFFFFFFFFFFFFFFFFFFFFFFFFFF DUP3 AND SWAP1 POP SWAP2 SWAP1 POP JUMP JUMPDEST PUSH0 PUSH2 0xC16 PUSH2 0xC11 DUP4 PUSH2 0xBB8 JUMP JUMPDEST PUSH2 0xBE5 JUMP JUMPDEST SWAP1 POP SWAP2 SWAP1 POP JUMP JUMPDEST PUSH0 PUSH1 0x80 DUP4 ADD PUSH0 DUP1 DUP5 ADD DUP6 DUP4 SUB PUSH0 DUP8 ADD MSTORE PUSH2 0xC37 DUP4 DUP3 PUSH2 0xB37 JUMP JUMPDEST SWAP3 POP POP PUSH1 0x1 DUP5 ADD SLOAD SWAP1 POP PUSH2 0xC4A DUP2 PUSH2 0xBCC JUMP JUMPDEST PUSH2 0xC57 PUSH1 0x20 DUP8 ADD DUP3 PUSH2 0xAB2 JUMP JUMPDEST POP PUSH1 0x2 DUP5 ADD SLOAD SWAP1 POP PUSH2 0xC68 DUP2 PUSH2 0xC04 JUMP JUMPDEST PUSH2 0xC75 PUSH1 0x40 DUP8 ADD DUP3 PUSH2 0xAC1 JUMP JUMPDEST POP PUSH1 0x3 DUP5 ADD DUP6 DUP4 SUB PUSH1 0x60 DUP8 ADD MSTORE PUSH2 0xC8C DUP4 DUP3 PUSH2 0xB37 JUMP JUMPDEST SWAP3 POP POP DUP2 SWAP3 POP POP POP SWAP3 SWAP2 POP POP JUMP JUMPDEST PUSH0 PUSH1 0x80 DUP3 ADD SWAP1 POP DUP2 DUP2 SUB PUSH0 DUP4 ADD MSTORE PUSH2 0xCB2 DUP2 DUP8 PUSH2 0xAD0 JUMP JUMPDEST SWAP1 POP DUP2 DUP2 SUB PUSH1 0x20 DUP4 ADD MSTORE PUSH2 0xCC6 DUP2 DUP7 PUSH2 0xC1D JUMP JUMPDEST SWAP1 POP PUSH2 0xCD5 PUSH1 0x40 DUP4 ADD DUP6 PUSH2 0x732 JUMP JUMPDEST PUSH2 0xCE2 PUSH1 0x60 DUP4 ADD DUP5 PUSH2 0x732 JUMP JUMPDEST SWAP6 SWAP5 POP POP POP POP POP JUMP INVALID LOG2 PUSH5 0x6970667358 0x22 SLT KECCAK256 0xB5 0xEF PUSH16 0xF020FAC02CA833092B4CAF6DDC5D0F61 GAS 0x5E 0xD0 0xB7 PUSH0 PUSH23 0xC7920C3EA8D0AA64736F6C634300081500330000000000 "
				},
				"gasEstimates": {
					"creation": {
						"codeDepositCost": "672200",
						"executionCost": "706",
						"totalCost": "672906"
					},
					"external": {
						"p1()": "infinite",
						"setter(string,uint256,address,string)": "infinite"
					}
				},
				"methodIdentifiers": {
					"p1()": "c2a2747b",
					"setter(string,uint256,address,string)": "6e06a667"
				}
			},
			"storageLayout": {
				"storage": [
					{
						"astId": 14,
						"contract": "Labs (August)/Events/file02.sol:PC",
						"label": "p1",
						"offset": 0,
						"slot": "0",
						"type": "t_struct(Person)10_storage"
					}
				],
				"types": {
					"t_address": {
						"encoding": "inplace",
						"label": "address",
						"numberOfBytes": "20"
					},
					"t_string_storage": {
						"encoding": "bytes",
						"label": "string",
						"numberOfBytes": "32"
					},
					"t_struct(Person)10_storage": {
						"encoding": "inplace",
						"label": "struct PC.Person",
						"members": [
							{
								"astId": 3,
								"contract": "Labs (August)/Events/file02.sol:PC",
								"label": "name",
								"offset": 0,
								"slot": "0",
								"type": "t_string_storage"
							},
							{
								"astId": 5,
								"contract": "Labs (August)/Events/file02.sol:PC",
								"label": "age",
								"offset": 0,
								"slot": "1",
								"type": "t_uint256"
							},
							{
								"astId": 7,
								"contract": "Labs (August)/Events/file02.sol:PC",
								"label": "addr",
								"offset": 0,
								"slot": "2",
								"type": "t_address"
							},
							{
								"astId": 9,
								"contract": "Labs (August)/Events/file02.sol:PC",
								"label": "Marital_status",
								"offset": 0,
								"slot": "3",
								"type": "t_string_storage"
							}
						],
						"numberOfBytes": "128"
					},
					"t_uint256": {
						"encoding": "inplace",
						"label": "uint256",
						"numberOfBytes": "32"
					}
				}
			},
			"userdoc": {
				"kind": "user",
				"methods": {
					"p1()": {
						"notice": "will show the old value untill the new value is assigned"
					}
				},
				"version": 1
			}
		}
	}
}