{
	"Labs (August)/Events/file02.sol": {
		"NoPrime": {
			"abi": [
				{
					"anonymous": false,
					"inputs": [
						{
							"indexed": false,
							"internalType": "string",
							"name": "",
							"type": "string"
						},
						{
							"indexed": false,
							"internalType": "uint256",
							"name": "",
							"type": "uint256"
						}
					],
					"name": "PrimeChecker",
					"type": "event"
				},
				{
					"inputs": [
						{
							"internalType": "uint256",
							"name": "_number",
							"type": "uint256"
						}
					],
					"name": "checker",
					"outputs": [],
					"stateMutability": "nonpayable",
					"type": "function"
				},
				{
					"inputs": [],
					"name": "nummain",
					"outputs": [
						{
							"internalType": "uint256",
							"name": "",
							"type": "uint256"
						}
					],
					"stateMutability": "view",
					"type": "function"
				},
				{
					"inputs": [
						{
							"internalType": "uint256",
							"name": "_inputNum",
							"type": "uint256"
						}
					],
					"name": "setter",
					"outputs": [],
					"stateMutability": "nonpayable",
					"type": "function"
				}
			],
			"devdoc": {
				"kind": "dev",
				"methods": {},
				"version": 1
			},
			"evm": {
				"assembly": "    /* \"Labs (August)/Events/file02.sol\":1216:1992  contract NoPrime {... */\n  mstore(0x40, 0x80)\n  callvalue\n  dup1\n  iszero\n  tag_1\n  jumpi\n  0x00\n  dup1\n  revert\ntag_1:\n  pop\n  dataSize(sub_0)\n  dup1\n  dataOffset(sub_0)\n  0x00\n  codecopy\n  0x00\n  return\nstop\n\nsub_0: assembly {\n        /* \"Labs (August)/Events/file02.sol\":1216:1992  contract NoPrime {... */\n      mstore(0x40, 0x80)\n      callvalue\n      dup1\n      iszero\n      tag_1\n      jumpi\n      0x00\n      dup1\n      revert\n    tag_1:\n      pop\n      jumpi(tag_2, lt(calldatasize, 0x04))\n      shr(0xe0, calldataload(0x00))\n      dup1\n      0x3dbad222\n      eq\n      tag_3\n      jumpi\n      dup1\n      0x94e05b2c\n      eq\n      tag_4\n      jumpi\n      dup1\n      0xd423740b\n      eq\n      tag_5\n      jumpi\n    tag_2:\n      0x00\n      dup1\n      revert\n        /* \"Labs (August)/Events/file02.sol\":1246:1265  uint public nummain */\n    tag_3:\n      tag_6\n      tag_7\n      jump\t// in\n    tag_6:\n      mload(0x40)\n      tag_8\n      swap2\n      swap1\n      tag_9\n      jump\t// in\n    tag_8:\n      mload(0x40)\n      dup1\n      swap2\n      sub\n      swap1\n      return\n        /* \"Labs (August)/Events/file02.sol\":1723:1967  function checker(uint _number)public {... */\n    tag_4:\n      tag_10\n      0x04\n      dup1\n      calldatasize\n      sub\n      dup2\n      add\n      swap1\n      tag_11\n      swap2\n      swap1\n      tag_12\n      jump\t// in\n    tag_11:\n      tag_13\n      jump\t// in\n    tag_10:\n      stop\n        /* \"Labs (August)/Events/file02.sol\":1315:1392  function setter(uint _inputNum)public  {... */\n    tag_5:\n      tag_14\n      0x04\n      dup1\n      calldatasize\n      sub\n      dup2\n      add\n      swap1\n      tag_15\n      swap2\n      swap1\n      tag_12\n      jump\t// in\n    tag_15:\n      tag_16\n      jump\t// in\n    tag_14:\n      stop\n        /* \"Labs (August)/Events/file02.sol\":1246:1265  uint public nummain */\n    tag_7:\n      sload(0x00)\n      dup2\n      jump\t// out\n        /* \"Labs (August)/Events/file02.sol\":1723:1967  function checker(uint _number)public {... */\n    tag_13:\n        /* \"Labs (August)/Events/file02.sol\":1774:1790  IsPrime(_number) */\n      tag_18\n        /* \"Labs (August)/Events/file02.sol\":1782:1789  _number */\n      dup2\n        /* \"Labs (August)/Events/file02.sol\":1774:1781  IsPrime */\n      tag_19\n        /* \"Labs (August)/Events/file02.sol\":1774:1790  IsPrime(_number) */\n      jump\t// in\n    tag_18:\n        /* \"Labs (August)/Events/file02.sol\":1771:1958  if(IsPrime(_number))... */\n      iszero\n      tag_20\n      jumpi\n        /* \"Labs (August)/Events/file02.sol\":1811:1860  PrimeChecker(\"this is  a Prime number \", _number) */\n      0x0b5f3d3a9b59fc95c9c652487826ba08506990235686bebaae78e0fd3d934e7c\n        /* \"Labs (August)/Events/file02.sol\":1852:1859  _number */\n      dup2\n        /* \"Labs (August)/Events/file02.sol\":1811:1860  PrimeChecker(\"this is  a Prime number \", _number) */\n      mload(0x40)\n      tag_21\n      swap2\n      swap1\n      tag_22\n      jump\t// in\n    tag_21:\n      mload(0x40)\n      dup1\n      swap2\n      sub\n      swap1\n      log1\n        /* \"Labs (August)/Events/file02.sol\":1771:1958  if(IsPrime(_number))... */\n      jump(tag_23)\n    tag_20:\n        /* \"Labs (August)/Events/file02.sol\":1895:1946  PrimeChecker(\"this is not a Prime number\", _number) */\n      0x0b5f3d3a9b59fc95c9c652487826ba08506990235686bebaae78e0fd3d934e7c\n        /* \"Labs (August)/Events/file02.sol\":1938:1945  _number */\n      dup2\n        /* \"Labs (August)/Events/file02.sol\":1895:1946  PrimeChecker(\"this is not a Prime number\", _number) */\n      mload(0x40)\n      tag_24\n      swap2\n      swap1\n      tag_25\n      jump\t// in\n    tag_24:\n      mload(0x40)\n      dup1\n      swap2\n      sub\n      swap1\n      log1\n        /* \"Labs (August)/Events/file02.sol\":1771:1958  if(IsPrime(_number))... */\n    tag_23:\n        /* \"Labs (August)/Events/file02.sol\":1723:1967  function checker(uint _number)public {... */\n      pop\n      jump\t// out\n        /* \"Labs (August)/Events/file02.sol\":1315:1392  function setter(uint _inputNum)public  {... */\n    tag_16:\n        /* \"Labs (August)/Events/file02.sol\":1375:1384  _inputNum */\n      dup1\n        /* \"Labs (August)/Events/file02.sol\":1365:1372  nummain */\n      0x00\n        /* \"Labs (August)/Events/file02.sol\":1365:1384  nummain = _inputNum */\n      dup2\n      swap1\n      sstore\n      pop\n        /* \"Labs (August)/Events/file02.sol\":1315:1392  function setter(uint _inputNum)public  {... */\n      pop\n      jump\t// out\n        /* \"Labs (August)/Events/file02.sol\":1400:1715  function IsPrime(uint num) private pure returns(bool){... */\n    tag_19:\n        /* \"Labs (August)/Events/file02.sol\":1448:1452  bool */\n      0x00\n        /* \"Labs (August)/Events/file02.sol\":1478:1479  0 */\n      dup1\n        /* \"Labs (August)/Events/file02.sol\":1471:1474  num */\n      dup3\n        /* \"Labs (August)/Events/file02.sol\":1471:1479  num == 0 */\n      eq\n        /* \"Labs (August)/Events/file02.sol\":1471:1491  num == 0 || num == 1 */\n      dup1\n      tag_28\n      jumpi\n      pop\n        /* \"Labs (August)/Events/file02.sol\":1490:1491  1 */\n      0x01\n        /* \"Labs (August)/Events/file02.sol\":1483:1486  num */\n      dup3\n        /* \"Labs (August)/Events/file02.sol\":1483:1491  num == 1 */\n      eq\n        /* \"Labs (August)/Events/file02.sol\":1471:1491  num == 0 || num == 1 */\n    tag_28:\n        /* \"Labs (August)/Events/file02.sol\":1468:1539  if(num == 0 || num == 1){... */\n      iszero\n      tag_29\n      jumpi\n        /* \"Labs (August)/Events/file02.sol\":1518:1523  false */\n      0x00\n        /* \"Labs (August)/Events/file02.sol\":1511:1523  return false */\n      swap1\n      pop\n      jump(tag_27)\n        /* \"Labs (August)/Events/file02.sol\":1468:1539  if(num == 0 || num == 1){... */\n    tag_29:\n        /* \"Labs (August)/Events/file02.sol\":1557:1563  uint i */\n      0x00\n        /* \"Labs (August)/Events/file02.sol\":1566:1567  2 */\n      0x02\n        /* \"Labs (August)/Events/file02.sol\":1557:1567  uint i = 2 */\n      swap1\n      pop\n        /* \"Labs (August)/Events/file02.sol\":1553:1686  for(uint i = 2; i <= num/2; i++){... */\n    tag_30:\n        /* \"Labs (August)/Events/file02.sol\":1578:1579  2 */\n      0x02\n        /* \"Labs (August)/Events/file02.sol\":1574:1577  num */\n      dup4\n        /* \"Labs (August)/Events/file02.sol\":1574:1579  num/2 */\n      tag_33\n      swap2\n      swap1\n      tag_34\n      jump\t// in\n    tag_33:\n        /* \"Labs (August)/Events/file02.sol\":1569:1570  i */\n      dup2\n        /* \"Labs (August)/Events/file02.sol\":1569:1579  i <= num/2 */\n      gt\n        /* \"Labs (August)/Events/file02.sol\":1553:1686  for(uint i = 2; i <= num/2; i++){... */\n      tag_31\n      jumpi\n        /* \"Labs (August)/Events/file02.sol\":1618:1619  0 */\n      0x00\n        /* \"Labs (August)/Events/file02.sol\":1613:1614  i */\n      dup2\n        /* \"Labs (August)/Events/file02.sol\":1607:1610  num */\n      dup5\n        /* \"Labs (August)/Events/file02.sol\":1607:1614  num % i */\n      tag_35\n      swap2\n      swap1\n      tag_36\n      jump\t// in\n    tag_35:\n        /* \"Labs (August)/Events/file02.sol\":1607:1619  num % i == 0 */\n      sub\n        /* \"Labs (August)/Events/file02.sol\":1604:1671  if(num % i == 0){... */\n      tag_37\n      jumpi\n        /* \"Labs (August)/Events/file02.sol\":1646:1651  false */\n      0x00\n        /* \"Labs (August)/Events/file02.sol\":1639:1651  return false */\n      swap2\n      pop\n      pop\n      jump(tag_27)\n        /* \"Labs (August)/Events/file02.sol\":1604:1671  if(num % i == 0){... */\n    tag_37:\n        /* \"Labs (August)/Events/file02.sol\":1581:1584  i++ */\n      dup1\n      dup1\n      tag_38\n      swap1\n      tag_39\n      jump\t// in\n    tag_38:\n      swap2\n      pop\n      pop\n        /* \"Labs (August)/Events/file02.sol\":1553:1686  for(uint i = 2; i <= num/2; i++){... */\n      jump(tag_30)\n    tag_31:\n      pop\n        /* \"Labs (August)/Events/file02.sol\":1703:1707  true */\n      0x01\n        /* \"Labs (August)/Events/file02.sol\":1696:1707  return true */\n      swap1\n      pop\n        /* \"Labs (August)/Events/file02.sol\":1400:1715  function IsPrime(uint num) private pure returns(bool){... */\n    tag_27:\n      swap2\n      swap1\n      pop\n      jump\t// out\n        /* \"#utility.yul\":7:84   */\n    tag_40:\n        /* \"#utility.yul\":44:51   */\n      0x00\n        /* \"#utility.yul\":73:78   */\n      dup2\n        /* \"#utility.yul\":62:78   */\n      swap1\n      pop\n        /* \"#utility.yul\":7:84   */\n      swap2\n      swap1\n      pop\n      jump\t// out\n        /* \"#utility.yul\":90:208   */\n    tag_41:\n        /* \"#utility.yul\":177:201   */\n      tag_57\n        /* \"#utility.yul\":195:200   */\n      dup2\n        /* \"#utility.yul\":177:201   */\n      tag_40\n      jump\t// in\n    tag_57:\n        /* \"#utility.yul\":172:175   */\n      dup3\n        /* \"#utility.yul\":165:202   */\n      mstore\n        /* \"#utility.yul\":90:208   */\n      pop\n      pop\n      jump\t// out\n        /* \"#utility.yul\":214:436   */\n    tag_9:\n        /* \"#utility.yul\":307:311   */\n      0x00\n        /* \"#utility.yul\":345:347   */\n      0x20\n        /* \"#utility.yul\":334:343   */\n      dup3\n        /* \"#utility.yul\":330:348   */\n      add\n        /* \"#utility.yul\":322:348   */\n      swap1\n      pop\n        /* \"#utility.yul\":358:429   */\n      tag_59\n        /* \"#utility.yul\":426:427   */\n      0x00\n        /* \"#utility.yul\":415:424   */\n      dup4\n        /* \"#utility.yul\":411:428   */\n      add\n        /* \"#utility.yul\":402:408   */\n      dup5\n        /* \"#utility.yul\":358:429   */\n      tag_41\n      jump\t// in\n    tag_59:\n        /* \"#utility.yul\":214:436   */\n      swap3\n      swap2\n      pop\n      pop\n      jump\t// out\n        /* \"#utility.yul\":523:640   */\n    tag_43:\n        /* \"#utility.yul\":632:633   */\n      0x00\n        /* \"#utility.yul\":629:630   */\n      dup1\n        /* \"#utility.yul\":622:634   */\n      revert\n        /* \"#utility.yul\":769:891   */\n    tag_45:\n        /* \"#utility.yul\":842:866   */\n      tag_64\n        /* \"#utility.yul\":860:865   */\n      dup2\n        /* \"#utility.yul\":842:866   */\n      tag_40\n      jump\t// in\n    tag_64:\n        /* \"#utility.yul\":835:840   */\n      dup2\n        /* \"#utility.yul\":832:867   */\n      eq\n        /* \"#utility.yul\":822:885   */\n      tag_65\n      jumpi\n        /* \"#utility.yul\":881:882   */\n      0x00\n        /* \"#utility.yul\":878:879   */\n      dup1\n        /* \"#utility.yul\":871:883   */\n      revert\n        /* \"#utility.yul\":822:885   */\n    tag_65:\n        /* \"#utility.yul\":769:891   */\n      pop\n      jump\t// out\n        /* \"#utility.yul\":897:1036   */\n    tag_46:\n        /* \"#utility.yul\":943:948   */\n      0x00\n        /* \"#utility.yul\":981:987   */\n      dup2\n        /* \"#utility.yul\":968:988   */\n      calldataload\n        /* \"#utility.yul\":959:988   */\n      swap1\n      pop\n        /* \"#utility.yul\":997:1030   */\n      tag_67\n        /* \"#utility.yul\":1024:1029   */\n      dup2\n        /* \"#utility.yul\":997:1030   */\n      tag_45\n      jump\t// in\n    tag_67:\n        /* \"#utility.yul\":897:1036   */\n      swap3\n      swap2\n      pop\n      pop\n      jump\t// out\n        /* \"#utility.yul\":1042:1371   */\n    tag_12:\n        /* \"#utility.yul\":1101:1107   */\n      0x00\n        /* \"#utility.yul\":1150:1152   */\n      0x20\n        /* \"#utility.yul\":1138:1147   */\n      dup3\n        /* \"#utility.yul\":1129:1136   */\n      dup5\n        /* \"#utility.yul\":1125:1148   */\n      sub\n        /* \"#utility.yul\":1121:1153   */\n      slt\n        /* \"#utility.yul\":1118:1237   */\n      iszero\n      tag_69\n      jumpi\n        /* \"#utility.yul\":1156:1235   */\n      tag_70\n      tag_43\n      jump\t// in\n    tag_70:\n        /* \"#utility.yul\":1118:1237   */\n    tag_69:\n        /* \"#utility.yul\":1276:1277   */\n      0x00\n        /* \"#utility.yul\":1301:1354   */\n      tag_71\n        /* \"#utility.yul\":1346:1353   */\n      dup5\n        /* \"#utility.yul\":1337:1343   */\n      dup3\n        /* \"#utility.yul\":1326:1335   */\n      dup6\n        /* \"#utility.yul\":1322:1344   */\n      add\n        /* \"#utility.yul\":1301:1354   */\n      tag_46\n      jump\t// in\n    tag_71:\n        /* \"#utility.yul\":1291:1354   */\n      swap2\n      pop\n        /* \"#utility.yul\":1247:1364   */\n      pop\n        /* \"#utility.yul\":1042:1371   */\n      swap3\n      swap2\n      pop\n      pop\n      jump\t// out\n        /* \"#utility.yul\":1377:1546   */\n    tag_47:\n        /* \"#utility.yul\":1461:1472   */\n      0x00\n        /* \"#utility.yul\":1495:1501   */\n      dup3\n        /* \"#utility.yul\":1490:1493   */\n      dup3\n        /* \"#utility.yul\":1483:1502   */\n      mstore\n        /* \"#utility.yul\":1535:1539   */\n      0x20\n        /* \"#utility.yul\":1530:1533   */\n      dup3\n        /* \"#utility.yul\":1526:1540   */\n      add\n        /* \"#utility.yul\":1511:1540   */\n      swap1\n      pop\n        /* \"#utility.yul\":1377:1546   */\n      swap3\n      swap2\n      pop\n      pop\n      jump\t// out\n        /* \"#utility.yul\":1552:1726   */\n    tag_48:\n        /* \"#utility.yul\":1692:1718   */\n      0x74686973206973202061205072696d65206e756d626572200000000000000000\n        /* \"#utility.yul\":1688:1689   */\n      0x00\n        /* \"#utility.yul\":1680:1686   */\n      dup3\n        /* \"#utility.yul\":1676:1690   */\n      add\n        /* \"#utility.yul\":1669:1719   */\n      mstore\n        /* \"#utility.yul\":1552:1726   */\n      pop\n      jump\t// out\n        /* \"#utility.yul\":1732:2098   */\n    tag_49:\n        /* \"#utility.yul\":1874:1877   */\n      0x00\n        /* \"#utility.yul\":1895:1962   */\n      tag_75\n        /* \"#utility.yul\":1959:1961   */\n      0x18\n        /* \"#utility.yul\":1954:1957   */\n      dup4\n        /* \"#utility.yul\":1895:1962   */\n      tag_47\n      jump\t// in\n    tag_75:\n        /* \"#utility.yul\":1888:1962   */\n      swap2\n      pop\n        /* \"#utility.yul\":1971:2064   */\n      tag_76\n        /* \"#utility.yul\":2060:2063   */\n      dup3\n        /* \"#utility.yul\":1971:2064   */\n      tag_48\n      jump\t// in\n    tag_76:\n        /* \"#utility.yul\":2089:2091   */\n      0x20\n        /* \"#utility.yul\":2084:2087   */\n      dup3\n        /* \"#utility.yul\":2080:2092   */\n      add\n        /* \"#utility.yul\":2073:2092   */\n      swap1\n      pop\n        /* \"#utility.yul\":1732:2098   */\n      swap2\n      swap1\n      pop\n      jump\t// out\n        /* \"#utility.yul\":2104:2633   */\n    tag_22:\n        /* \"#utility.yul\":2298:2302   */\n      0x00\n        /* \"#utility.yul\":2336:2338   */\n      0x40\n        /* \"#utility.yul\":2325:2334   */\n      dup3\n        /* \"#utility.yul\":2321:2339   */\n      add\n        /* \"#utility.yul\":2313:2339   */\n      swap1\n      pop\n        /* \"#utility.yul\":2385:2394   */\n      dup2\n        /* \"#utility.yul\":2379:2383   */\n      dup2\n        /* \"#utility.yul\":2375:2395   */\n      sub\n        /* \"#utility.yul\":2371:2372   */\n      0x00\n        /* \"#utility.yul\":2360:2369   */\n      dup4\n        /* \"#utility.yul\":2356:2373   */\n      add\n        /* \"#utility.yul\":2349:2396   */\n      mstore\n        /* \"#utility.yul\":2413:2544   */\n      tag_78\n        /* \"#utility.yul\":2539:2543   */\n      dup2\n        /* \"#utility.yul\":2413:2544   */\n      tag_49\n      jump\t// in\n    tag_78:\n        /* \"#utility.yul\":2405:2544   */\n      swap1\n      pop\n        /* \"#utility.yul\":2554:2626   */\n      tag_79\n        /* \"#utility.yul\":2622:2624   */\n      0x20\n        /* \"#utility.yul\":2611:2620   */\n      dup4\n        /* \"#utility.yul\":2607:2625   */\n      add\n        /* \"#utility.yul\":2598:2604   */\n      dup5\n        /* \"#utility.yul\":2554:2626   */\n      tag_41\n      jump\t// in\n    tag_79:\n        /* \"#utility.yul\":2104:2633   */\n      swap3\n      swap2\n      pop\n      pop\n      jump\t// out\n        /* \"#utility.yul\":2639:2815   */\n    tag_50:\n        /* \"#utility.yul\":2779:2807   */\n      0x74686973206973206e6f742061205072696d65206e756d626572000000000000\n        /* \"#utility.yul\":2775:2776   */\n      0x00\n        /* \"#utility.yul\":2767:2773   */\n      dup3\n        /* \"#utility.yul\":2763:2777   */\n      add\n        /* \"#utility.yul\":2756:2808   */\n      mstore\n        /* \"#utility.yul\":2639:2815   */\n      pop\n      jump\t// out\n        /* \"#utility.yul\":2821:3187   */\n    tag_51:\n        /* \"#utility.yul\":2963:2966   */\n      0x00\n        /* \"#utility.yul\":2984:3051   */\n      tag_82\n        /* \"#utility.yul\":3048:3050   */\n      0x1a\n        /* \"#utility.yul\":3043:3046   */\n      dup4\n        /* \"#utility.yul\":2984:3051   */\n      tag_47\n      jump\t// in\n    tag_82:\n        /* \"#utility.yul\":2977:3051   */\n      swap2\n      pop\n        /* \"#utility.yul\":3060:3153   */\n      tag_83\n        /* \"#utility.yul\":3149:3152   */\n      dup3\n        /* \"#utility.yul\":3060:3153   */\n      tag_50\n      jump\t// in\n    tag_83:\n        /* \"#utility.yul\":3178:3180   */\n      0x20\n        /* \"#utility.yul\":3173:3176   */\n      dup3\n        /* \"#utility.yul\":3169:3181   */\n      add\n        /* \"#utility.yul\":3162:3181   */\n      swap1\n      pop\n        /* \"#utility.yul\":2821:3187   */\n      swap2\n      swap1\n      pop\n      jump\t// out\n        /* \"#utility.yul\":3193:3722   */\n    tag_25:\n        /* \"#utility.yul\":3387:3391   */\n      0x00\n        /* \"#utility.yul\":3425:3427   */\n      0x40\n        /* \"#utility.yul\":3414:3423   */\n      dup3\n        /* \"#utility.yul\":3410:3428   */\n      add\n        /* \"#utility.yul\":3402:3428   */\n      swap1\n      pop\n        /* \"#utility.yul\":3474:3483   */\n      dup2\n        /* \"#utility.yul\":3468:3472   */\n      dup2\n        /* \"#utility.yul\":3464:3484   */\n      sub\n        /* \"#utility.yul\":3460:3461   */\n      0x00\n        /* \"#utility.yul\":3449:3458   */\n      dup4\n        /* \"#utility.yul\":3445:3462   */\n      add\n        /* \"#utility.yul\":3438:3485   */\n      mstore\n        /* \"#utility.yul\":3502:3633   */\n      tag_85\n        /* \"#utility.yul\":3628:3632   */\n      dup2\n        /* \"#utility.yul\":3502:3633   */\n      tag_51\n      jump\t// in\n    tag_85:\n        /* \"#utility.yul\":3494:3633   */\n      swap1\n      pop\n        /* \"#utility.yul\":3643:3715   */\n      tag_86\n        /* \"#utility.yul\":3711:3713   */\n      0x20\n        /* \"#utility.yul\":3700:3709   */\n      dup4\n        /* \"#utility.yul\":3696:3714   */\n      add\n        /* \"#utility.yul\":3687:3693   */\n      dup5\n        /* \"#utility.yul\":3643:3715   */\n      tag_41\n      jump\t// in\n    tag_86:\n        /* \"#utility.yul\":3193:3722   */\n      swap3\n      swap2\n      pop\n      pop\n      jump\t// out\n        /* \"#utility.yul\":3728:3908   */\n    tag_52:\n        /* \"#utility.yul\":3776:3853   */\n      0x4e487b7100000000000000000000000000000000000000000000000000000000\n        /* \"#utility.yul\":3773:3774   */\n      0x00\n        /* \"#utility.yul\":3766:3854   */\n      mstore\n        /* \"#utility.yul\":3873:3877   */\n      0x12\n        /* \"#utility.yul\":3870:3871   */\n      0x04\n        /* \"#utility.yul\":3863:3878   */\n      mstore\n        /* \"#utility.yul\":3897:3901   */\n      0x24\n        /* \"#utility.yul\":3894:3895   */\n      0x00\n        /* \"#utility.yul\":3887:3902   */\n      revert\n        /* \"#utility.yul\":3914:4094   */\n    tag_53:\n        /* \"#utility.yul\":3962:4039   */\n      0x4e487b7100000000000000000000000000000000000000000000000000000000\n        /* \"#utility.yul\":3959:3960   */\n      0x00\n        /* \"#utility.yul\":3952:4040   */\n      mstore\n        /* \"#utility.yul\":4059:4063   */\n      0x11\n        /* \"#utility.yul\":4056:4057   */\n      0x04\n        /* \"#utility.yul\":4049:4064   */\n      mstore\n        /* \"#utility.yul\":4083:4087   */\n      0x24\n        /* \"#utility.yul\":4080:4081   */\n      0x00\n        /* \"#utility.yul\":4073:4088   */\n      revert\n        /* \"#utility.yul\":4100:4285   */\n    tag_34:\n        /* \"#utility.yul\":4140:4141   */\n      0x00\n        /* \"#utility.yul\":4157:4177   */\n      tag_90\n        /* \"#utility.yul\":4175:4176   */\n      dup3\n        /* \"#utility.yul\":4157:4177   */\n      tag_40\n      jump\t// in\n    tag_90:\n        /* \"#utility.yul\":4152:4177   */\n      swap2\n      pop\n        /* \"#utility.yul\":4191:4211   */\n      tag_91\n        /* \"#utility.yul\":4209:4210   */\n      dup4\n        /* \"#utility.yul\":4191:4211   */\n      tag_40\n      jump\t// in\n    tag_91:\n        /* \"#utility.yul\":4186:4211   */\n      swap3\n      pop\n        /* \"#utility.yul\":4230:4231   */\n      dup3\n        /* \"#utility.yul\":4220:4255   */\n      tag_92\n      jumpi\n        /* \"#utility.yul\":4235:4253   */\n      tag_93\n      tag_52\n      jump\t// in\n    tag_93:\n        /* \"#utility.yul\":4220:4255   */\n    tag_92:\n        /* \"#utility.yul\":4277:4278   */\n      dup3\n        /* \"#utility.yul\":4274:4275   */\n      dup3\n        /* \"#utility.yul\":4270:4279   */\n      div\n        /* \"#utility.yul\":4265:4279   */\n      swap1\n      pop\n        /* \"#utility.yul\":4100:4285   */\n      swap3\n      swap2\n      pop\n      pop\n      jump\t// out\n        /* \"#utility.yul\":4291:4467   */\n    tag_36:\n        /* \"#utility.yul\":4323:4324   */\n      0x00\n        /* \"#utility.yul\":4340:4360   */\n      tag_95\n        /* \"#utility.yul\":4358:4359   */\n      dup3\n        /* \"#utility.yul\":4340:4360   */\n      tag_40\n      jump\t// in\n    tag_95:\n        /* \"#utility.yul\":4335:4360   */\n      swap2\n      pop\n        /* \"#utility.yul\":4374:4394   */\n      tag_96\n        /* \"#utility.yul\":4392:4393   */\n      dup4\n        /* \"#utility.yul\":4374:4394   */\n      tag_40\n      jump\t// in\n    tag_96:\n        /* \"#utility.yul\":4369:4394   */\n      swap3\n      pop\n        /* \"#utility.yul\":4413:4414   */\n      dup3\n        /* \"#utility.yul\":4403:4438   */\n      tag_97\n      jumpi\n        /* \"#utility.yul\":4418:4436   */\n      tag_98\n      tag_52\n      jump\t// in\n    tag_98:\n        /* \"#utility.yul\":4403:4438   */\n    tag_97:\n        /* \"#utility.yul\":4459:4460   */\n      dup3\n        /* \"#utility.yul\":4456:4457   */\n      dup3\n        /* \"#utility.yul\":4452:4461   */\n      mod\n        /* \"#utility.yul\":4447:4461   */\n      swap1\n      pop\n        /* \"#utility.yul\":4291:4467   */\n      swap3\n      swap2\n      pop\n      pop\n      jump\t// out\n        /* \"#utility.yul\":4473:4706   */\n    tag_39:\n        /* \"#utility.yul\":4512:4515   */\n      0x00\n        /* \"#utility.yul\":4535:4559   */\n      tag_100\n        /* \"#utility.yul\":4553:4558   */\n      dup3\n        /* \"#utility.yul\":4535:4559   */\n      tag_40\n      jump\t// in\n    tag_100:\n        /* \"#utility.yul\":4526:4559   */\n      swap2\n      pop\n        /* \"#utility.yul\":4581:4647   */\n      0xffffffffffffffffffffffffffffffffffffffffffffffffffffffffffffffff\n        /* \"#utility.yul\":4574:4579   */\n      dup3\n        /* \"#utility.yul\":4571:4648   */\n      sub\n        /* \"#utility.yul\":4568:4671   */\n      tag_101\n      jumpi\n        /* \"#utility.yul\":4651:4669   */\n      tag_102\n      tag_53\n      jump\t// in\n    tag_102:\n        /* \"#utility.yul\":4568:4671   */\n    tag_101:\n        /* \"#utility.yul\":4698:4699   */\n      0x01\n        /* \"#utility.yul\":4691:4696   */\n      dup3\n        /* \"#utility.yul\":4687:4700   */\n      add\n        /* \"#utility.yul\":4680:4700   */\n      swap1\n      pop\n        /* \"#utility.yul\":4473:4706   */\n      swap2\n      swap1\n      pop\n      jump\t// out\n\n    auxdata: 0xa26469706673582212209b4b3e1c1cda1ae6388366c02cf0a836a9e32a794cf491f5af4516d3c8ffcb4264736f6c63430008150033\n}\n",
				"bytecode": {
					"linkReferences": {},
					"object": "608060405234801561000f575f80fd5b506104578061001d5f395ff3fe608060405234801561000f575f80fd5b506004361061003f575f3560e01c80633dbad2221461004357806394e05b2c14610061578063d423740b1461007d575b5f80fd5b61004b610099565b60405161005891906101b2565b60405180910390f35b61007b600480360381019061007691906101f9565b61009e565b005b610097600480360381019061009291906101f9565b610123565b005b5f5481565b6100a78161012c565b156100e8577f0b5f3d3a9b59fc95c9c652487826ba08506990235686bebaae78e0fd3d934e7c816040516100db919061027e565b60405180910390a1610120565b7f0b5f3d3a9b59fc95c9c652487826ba08506990235686bebaae78e0fd3d934e7c8160405161011791906102f4565b60405180910390a15b50565b805f8190555050565b5f8082148061013b5750600182145b15610148575f9050610195565b5f600290505b60028361015b919061037a565b811161018f575f818461016e91906103aa565b0361017c575f915050610195565b8080610187906103da565b91505061014e565b50600190505b919050565b5f819050919050565b6101ac8161019a565b82525050565b5f6020820190506101c55f8301846101a3565b92915050565b5f80fd5b6101d88161019a565b81146101e2575f80fd5b50565b5f813590506101f3816101cf565b92915050565b5f6020828403121561020e5761020d6101cb565b5b5f61021b848285016101e5565b91505092915050565b5f82825260208201905092915050565b7f74686973206973202061205072696d65206e756d6265722000000000000000005f82015250565b5f610268601883610224565b915061027382610234565b602082019050919050565b5f6040820190508181035f8301526102958161025c565b90506102a460208301846101a3565b92915050565b7f74686973206973206e6f742061205072696d65206e756d6265720000000000005f82015250565b5f6102de601a83610224565b91506102e9826102aa565b602082019050919050565b5f6040820190508181035f83015261030b816102d2565b905061031a60208301846101a3565b92915050565b7f4e487b71000000000000000000000000000000000000000000000000000000005f52601260045260245ffd5b7f4e487b71000000000000000000000000000000000000000000000000000000005f52601160045260245ffd5b5f6103848261019a565b915061038f8361019a565b92508261039f5761039e610320565b5b828204905092915050565b5f6103b48261019a565b91506103bf8361019a565b9250826103cf576103ce610320565b5b828206905092915050565b5f6103e48261019a565b91507fffffffffffffffffffffffffffffffffffffffffffffffffffffffffffffffff82036104165761041561034d565b5b60018201905091905056fea26469706673582212209b4b3e1c1cda1ae6388366c02cf0a836a9e32a794cf491f5af4516d3c8ffcb4264736f6c63430008150033",
					"opcodes": "PUSH1 0x80 PUSH1 0x40 MSTORE CALLVALUE DUP1 ISZERO PUSH2 0xF JUMPI PUSH0 DUP1 REVERT JUMPDEST POP PUSH2 0x457 DUP1 PUSH2 0x1D PUSH0 CODECOPY PUSH0 RETURN INVALID PUSH1 0x80 PUSH1 0x40 MSTORE CALLVALUE DUP1 ISZERO PUSH2 0xF JUMPI PUSH0 DUP1 REVERT JUMPDEST POP PUSH1 0x4 CALLDATASIZE LT PUSH2 0x3F JUMPI PUSH0 CALLDATALOAD PUSH1 0xE0 SHR DUP1 PUSH4 0x3DBAD222 EQ PUSH2 0x43 JUMPI DUP1 PUSH4 0x94E05B2C EQ PUSH2 0x61 JUMPI DUP1 PUSH4 0xD423740B EQ PUSH2 0x7D JUMPI JUMPDEST PUSH0 DUP1 REVERT JUMPDEST PUSH2 0x4B PUSH2 0x99 JUMP JUMPDEST PUSH1 0x40 MLOAD PUSH2 0x58 SWAP2 SWAP1 PUSH2 0x1B2 JUMP JUMPDEST PUSH1 0x40 MLOAD DUP1 SWAP2 SUB SWAP1 RETURN JUMPDEST PUSH2 0x7B PUSH1 0x4 DUP1 CALLDATASIZE SUB DUP2 ADD SWAP1 PUSH2 0x76 SWAP2 SWAP1 PUSH2 0x1F9 JUMP JUMPDEST PUSH2 0x9E JUMP JUMPDEST STOP JUMPDEST PUSH2 0x97 PUSH1 0x4 DUP1 CALLDATASIZE SUB DUP2 ADD SWAP1 PUSH2 0x92 SWAP2 SWAP1 PUSH2 0x1F9 JUMP JUMPDEST PUSH2 0x123 JUMP JUMPDEST STOP JUMPDEST PUSH0 SLOAD DUP2 JUMP JUMPDEST PUSH2 0xA7 DUP2 PUSH2 0x12C JUMP JUMPDEST ISZERO PUSH2 0xE8 JUMPI PUSH32 0xB5F3D3A9B59FC95C9C652487826BA08506990235686BEBAAE78E0FD3D934E7C DUP2 PUSH1 0x40 MLOAD PUSH2 0xDB SWAP2 SWAP1 PUSH2 0x27E JUMP JUMPDEST PUSH1 0x40 MLOAD DUP1 SWAP2 SUB SWAP1 LOG1 PUSH2 0x120 JUMP JUMPDEST PUSH32 0xB5F3D3A9B59FC95C9C652487826BA08506990235686BEBAAE78E0FD3D934E7C DUP2 PUSH1 0x40 MLOAD PUSH2 0x117 SWAP2 SWAP1 PUSH2 0x2F4 JUMP JUMPDEST PUSH1 0x40 MLOAD DUP1 SWAP2 SUB SWAP1 LOG1 JUMPDEST POP JUMP JUMPDEST DUP1 PUSH0 DUP2 SWAP1 SSTORE POP POP JUMP JUMPDEST PUSH0 DUP1 DUP3 EQ DUP1 PUSH2 0x13B JUMPI POP PUSH1 0x1 DUP3 EQ JUMPDEST ISZERO PUSH2 0x148 JUMPI PUSH0 SWAP1 POP PUSH2 0x195 JUMP JUMPDEST PUSH0 PUSH1 0x2 SWAP1 POP JUMPDEST PUSH1 0x2 DUP4 PUSH2 0x15B SWAP2 SWAP1 PUSH2 0x37A JUMP JUMPDEST DUP2 GT PUSH2 0x18F JUMPI PUSH0 DUP2 DUP5 PUSH2 0x16E SWAP2 SWAP1 PUSH2 0x3AA JUMP JUMPDEST SUB PUSH2 0x17C JUMPI PUSH0 SWAP2 POP POP PUSH2 0x195 JUMP JUMPDEST DUP1 DUP1 PUSH2 0x187 SWAP1 PUSH2 0x3DA JUMP JUMPDEST SWAP2 POP POP PUSH2 0x14E JUMP JUMPDEST POP PUSH1 0x1 SWAP1 POP JUMPDEST SWAP2 SWAP1 POP JUMP JUMPDEST PUSH0 DUP2 SWAP1 POP SWAP2 SWAP1 POP JUMP JUMPDEST PUSH2 0x1AC DUP2 PUSH2 0x19A JUMP JUMPDEST DUP3 MSTORE POP POP JUMP JUMPDEST PUSH0 PUSH1 0x20 DUP3 ADD SWAP1 POP PUSH2 0x1C5 PUSH0 DUP4 ADD DUP5 PUSH2 0x1A3 JUMP JUMPDEST SWAP3 SWAP2 POP POP JUMP JUMPDEST PUSH0 DUP1 REVERT JUMPDEST PUSH2 0x1D8 DUP2 PUSH2 0x19A JUMP JUMPDEST DUP2 EQ PUSH2 0x1E2 JUMPI PUSH0 DUP1 REVERT JUMPDEST POP JUMP JUMPDEST PUSH0 DUP2 CALLDATALOAD SWAP1 POP PUSH2 0x1F3 DUP2 PUSH2 0x1CF JUMP JUMPDEST SWAP3 SWAP2 POP POP JUMP JUMPDEST PUSH0 PUSH1 0x20 DUP3 DUP5 SUB SLT ISZERO PUSH2 0x20E JUMPI PUSH2 0x20D PUSH2 0x1CB JUMP JUMPDEST JUMPDEST PUSH0 PUSH2 0x21B DUP5 DUP3 DUP6 ADD PUSH2 0x1E5 JUMP JUMPDEST SWAP2 POP POP SWAP3 SWAP2 POP POP JUMP JUMPDEST PUSH0 DUP3 DUP3 MSTORE PUSH1 0x20 DUP3 ADD SWAP1 POP SWAP3 SWAP2 POP POP JUMP JUMPDEST PUSH32 0x74686973206973202061205072696D65206E756D626572200000000000000000 PUSH0 DUP3 ADD MSTORE POP JUMP JUMPDEST PUSH0 PUSH2 0x268 PUSH1 0x18 DUP4 PUSH2 0x224 JUMP JUMPDEST SWAP2 POP PUSH2 0x273 DUP3 PUSH2 0x234 JUMP JUMPDEST PUSH1 0x20 DUP3 ADD SWAP1 POP SWAP2 SWAP1 POP JUMP JUMPDEST PUSH0 PUSH1 0x40 DUP3 ADD SWAP1 POP DUP2 DUP2 SUB PUSH0 DUP4 ADD MSTORE PUSH2 0x295 DUP2 PUSH2 0x25C JUMP JUMPDEST SWAP1 POP PUSH2 0x2A4 PUSH1 0x20 DUP4 ADD DUP5 PUSH2 0x1A3 JUMP JUMPDEST SWAP3 SWAP2 POP POP JUMP JUMPDEST PUSH32 0x74686973206973206E6F742061205072696D65206E756D626572000000000000 PUSH0 DUP3 ADD MSTORE POP JUMP JUMPDEST PUSH0 PUSH2 0x2DE PUSH1 0x1A DUP4 PUSH2 0x224 JUMP JUMPDEST SWAP2 POP PUSH2 0x2E9 DUP3 PUSH2 0x2AA JUMP JUMPDEST PUSH1 0x20 DUP3 ADD SWAP1 POP SWAP2 SWAP1 POP JUMP JUMPDEST PUSH0 PUSH1 0x40 DUP3 ADD SWAP1 POP DUP2 DUP2 SUB PUSH0 DUP4 ADD MSTORE PUSH2 0x30B DUP2 PUSH2 0x2D2 JUMP JUMPDEST SWAP1 POP PUSH2 0x31A PUSH1 0x20 DUP4 ADD DUP5 PUSH2 0x1A3 JUMP JUMPDEST SWAP3 SWAP2 POP POP JUMP JUMPDEST PUSH32 0x4E487B7100000000000000000000000000000000000000000000000000000000 PUSH0 MSTORE PUSH1 0x12 PUSH1 0x4 MSTORE PUSH1 0x24 PUSH0 REVERT JUMPDEST PUSH32 0x4E487B7100000000000000000000000000000000000000000000000000000000 PUSH0 MSTORE PUSH1 0x11 PUSH1 0x4 MSTORE PUSH1 0x24 PUSH0 REVERT JUMPDEST PUSH0 PUSH2 0x384 DUP3 PUSH2 0x19A JUMP JUMPDEST SWAP2 POP PUSH2 0x38F DUP4 PUSH2 0x19A JUMP JUMPDEST SWAP3 POP DUP3 PUSH2 0x39F JUMPI PUSH2 0x39E PUSH2 0x320 JUMP JUMPDEST JUMPDEST DUP3 DUP3 DIV SWAP1 POP SWAP3 SWAP2 POP POP JUMP JUMPDEST PUSH0 PUSH2 0x3B4 DUP3 PUSH2 0x19A JUMP JUMPDEST SWAP2 POP PUSH2 0x3BF DUP4 PUSH2 0x19A JUMP JUMPDEST SWAP3 POP DUP3 PUSH2 0x3CF JUMPI PUSH2 0x3CE PUSH2 0x320 JUMP JUMPDEST JUMPDEST DUP3 DUP3 MOD SWAP1 POP SWAP3 SWAP2 POP POP JUMP JUMPDEST PUSH0 PUSH2 0x3E4 DUP3 PUSH2 0x19A JUMP JUMPDEST SWAP2 POP PUSH32 0xFFFFFFFFFFFFFFFFFFFFFFFFFFFFFFFFFFFFFFFFFFFFFFFFFFFFFFFFFFFFFFFF DUP3 SUB PUSH2 0x416 JUMPI PUSH2 0x415 PUSH2 0x34D JUMP JUMPDEST JUMPDEST PUSH1 0x1 DUP3 ADD SWAP1 POP SWAP2 SWAP1 POP JUMP INVALID LOG2 PUSH5 0x6970667358 0x22 SLT KECCAK256 SWAP12 0x4B RETURNDATACOPY SHR SHR 0xDA BYTE 0xE6 CODESIZE DUP4 PUSH7 0xC02CF0A836A9E3 0x2A PUSH26 0x4CF491F5AF4516D3C8FFCB4264736F6C63430008150033000000 "
				},
				"gasEstimates": {
					"creation": {
						"codeDepositCost": "222200",
						"executionCost": "261",
						"totalCost": "222461"
					},
					"external": {
						"checker(uint256)": "infinite",
						"nummain()": "2402",
						"setter(uint256)": "22536"
					},
					"internal": {
						"IsPrime(uint256)": "infinite"
					}
				},
				"methodIdentifiers": {
					"checker(uint256)": "94e05b2c",
					"nummain()": "3dbad222",
					"setter(uint256)": "d423740b"
				}
			},
			"storageLayout": {
				"storage": [
					{
						"astId": 86,
						"contract": "Labs (August)/Events/file02.sol:NoPrime",
						"label": "nummain",
						"offset": 0,
						"slot": "0",
						"type": "t_uint256"
					}
				],
				"types": {
					"t_uint256": {
						"encoding": "inplace",
						"label": "uint256",
						"numberOfBytes": "32"
					}
				}
			},
			"userdoc": {
				"kind": "user",
				"methods": {},
				"version": 1
			}
		}
	}
}