{
	"data": {
		"bytecode": {
			"linkReferences": {},
			"object": "608060405260405180604001604052806040518060400160405280600581526020017f41686d6564000000000000000000000000000000000000000000000000000000815250815260200160178152506001600082015181600001908162000068919062000303565b506020820151816001015550503480156200008257600080fd5b50620003ea565b600081519050919050565b7f4e487b7100000000000000000000000000000000000000000000000000000000600052604160045260246000fd5b7f4e487b7100000000000000000000000000000000000000000000000000000000600052602260045260246000fd5b600060028204905060018216806200010b57607f821691505b602082108103620001215762000120620000c3565b5b50919050565b60008190508160005260206000209050919050565b60006020601f8301049050919050565b600082821b905092915050565b6000600883026200018b7fffffffffffffffffffffffffffffffffffffffffffffffffffffffffffffffff826200014c565b6200019786836200014c565b95508019841693508086168417925050509392505050565b6000819050919050565b6000819050919050565b6000620001e4620001de620001d884620001af565b620001b9565b620001af565b9050919050565b6000819050919050565b6200020083620001c3565b620002186200020f82620001eb565b84845462000159565b825550505050565b600090565b6200022f62000220565b6200023c818484620001f5565b505050565b5b8181101562000264576200025860008262000225565b60018101905062000242565b5050565b601f821115620002b3576200027d8162000127565b62000288846200013c565b8101602085101562000298578190505b620002b0620002a7856200013c565b83018262000241565b50505b505050565b600082821c905092915050565b6000620002d860001984600802620002b8565b1980831691505092915050565b6000620002f38383620002c5565b9150826002028217905092915050565b6200030e8262000089565b67ffffffffffffffff8111156200032a576200032962000094565b5b620003368254620000f2565b6200034382828562000268565b600060209050601f8311600181146200037b576000841562000366578287015190505b620003728582620002e5565b865550620003e2565b601f1984166200038b8662000127565b60005b82811015620003b5578489015182556001820191506020850194506020810190506200038e565b86831015620003d55784890151620003d1601f891682620002c5565b8355505b6001600288020188555050505b505050505050565b6104e780620003fa6000396000f3fe608060405234801561001057600080fd5b50600436106100575760003560e01c80631f7b6d321461005c5780636987b1fb1461007a5780638035f0ce146100aa5780638a054ac2146100b4578063da3ba911146100d3575b600080fd5b6100646100f3565b6040516100719190610292565b60405180910390f35b610094600480360381019061008f91906102de565b6100ff565b6040516100a19190610326565b60405180910390f35b6100b2610133565b005b6100bc6101bd565b6040516100ca9291906103d1565b60405180910390f35b6100db610257565b6040516100ea9392919061041a565b60405180910390f35b60008080549050905090565b6000818154811061010f57600080fd5b9060005260206000209060209182820401919006915054906101000a900460ff1681565b6000600190806001815401808255809150506001900390600052602060002090602091828204019190069091909190916101000a81548160ff021916908315150217905550600080806001815401808255809150506001900390600052602060002090602091828204019190069091909190916101000a81548160ff021916908315150217905550565b60018060000180546101ce90610480565b80601f01602080910402602001604051908101604052809291908181526020018280546101fa90610480565b80156102475780601f1061021c57610100808354040283529160200191610247565b820191906000526020600020905b81548152906001019060200180831161022a57829003601f168201915b5050505050908060010154905082565b600080600080600a935060019250839050600260008293509350935050909192565b6000819050919050565b61028c81610279565b82525050565b60006020820190506102a76000830184610283565b92915050565b600080fd5b6102bb81610279565b81146102c657600080fd5b50565b6000813590506102d8816102b2565b92915050565b6000602082840312156102f4576102f36102ad565b5b6000610302848285016102c9565b91505092915050565b60008115159050919050565b6103208161030b565b82525050565b600060208201905061033b6000830184610317565b92915050565b600081519050919050565b600082825260208201905092915050565b60005b8381101561037b578082015181840152602081019050610360565b60008484015250505050565b6000601f19601f8301169050919050565b60006103a382610341565b6103ad818561034c565b93506103bd81856020860161035d565b6103c681610387565b840191505092915050565b600060408201905081810360008301526103eb8185610398565b90506103fa6020830184610283565b9392505050565b6000819050919050565b61041481610401565b82525050565b600060608201905061042f600083018661040b565b61043c6020830185610317565b610449604083018461040b565b949350505050565b7f4e487b7100000000000000000000000000000000000000000000000000000000600052602260045260246000fd5b6000600282049050600182168061049857607f821691505b6020821081036104ab576104aa610451565b5b5091905056fea264697066735822122035f16f90c0f1a6abeed1599f2af2ab2d05ffe46816f6764db9e6d78a15bd07a064736f6c63430008120033",
			"opcodes": "PUSH1 0x80 PUSH1 0x40 MSTORE PUSH1 0x40 MLOAD DUP1 PUSH1 0x40 ADD PUSH1 0x40 MSTORE DUP1 PUSH1 0x40 MLOAD DUP1 PUSH1 0x40 ADD PUSH1 0x40 MSTORE DUP1 PUSH1 0x5 DUP2 MSTORE PUSH1 0x20 ADD PUSH32 0x41686D6564000000000000000000000000000000000000000000000000000000 DUP2 MSTORE POP DUP2 MSTORE PUSH1 0x20 ADD PUSH1 0x17 DUP2 MSTORE POP PUSH1 0x1 PUSH1 0x0 DUP3 ADD MLOAD DUP2 PUSH1 0x0 ADD SWAP1 DUP2 PUSH3 0x68 SWAP2 SWAP1 PUSH3 0x303 JUMP JUMPDEST POP PUSH1 0x20 DUP3 ADD MLOAD DUP2 PUSH1 0x1 ADD SSTORE POP POP CALLVALUE DUP1 ISZERO PUSH3 0x82 JUMPI PUSH1 0x0 DUP1 REVERT JUMPDEST POP PUSH3 0x3EA JUMP JUMPDEST PUSH1 0x0 DUP2 MLOAD SWAP1 POP SWAP2 SWAP1 POP JUMP JUMPDEST PUSH32 0x4E487B7100000000000000000000000000000000000000000000000000000000 PUSH1 0x0 MSTORE PUSH1 0x41 PUSH1 0x4 MSTORE PUSH1 0x24 PUSH1 0x0 REVERT JUMPDEST PUSH32 0x4E487B7100000000000000000000000000000000000000000000000000000000 PUSH1 0x0 MSTORE PUSH1 0x22 PUSH1 0x4 MSTORE PUSH1 0x24 PUSH1 0x0 REVERT JUMPDEST PUSH1 0x0 PUSH1 0x2 DUP3 DIV SWAP1 POP PUSH1 0x1 DUP3 AND DUP1 PUSH3 0x10B JUMPI PUSH1 0x7F DUP3 AND SWAP2 POP JUMPDEST PUSH1 0x20 DUP3 LT DUP2 SUB PUSH3 0x121 JUMPI PUSH3 0x120 PUSH3 0xC3 JUMP JUMPDEST JUMPDEST POP SWAP2 SWAP1 POP JUMP JUMPDEST PUSH1 0x0 DUP2 SWAP1 POP DUP2 PUSH1 0x0 MSTORE PUSH1 0x20 PUSH1 0x0 KECCAK256 SWAP1 POP SWAP2 SWAP1 POP JUMP JUMPDEST PUSH1 0x0 PUSH1 0x20 PUSH1 0x1F DUP4 ADD DIV SWAP1 POP SWAP2 SWAP1 POP JUMP JUMPDEST PUSH1 0x0 DUP3 DUP3 SHL SWAP1 POP SWAP3 SWAP2 POP POP JUMP JUMPDEST PUSH1 0x0 PUSH1 0x8 DUP4 MUL PUSH3 0x18B PUSH32 0xFFFFFFFFFFFFFFFFFFFFFFFFFFFFFFFFFFFFFFFFFFFFFFFFFFFFFFFFFFFFFFFF DUP3 PUSH3 0x14C JUMP JUMPDEST PUSH3 0x197 DUP7 DUP4 PUSH3 0x14C JUMP JUMPDEST SWAP6 POP DUP1 NOT DUP5 AND SWAP4 POP DUP1 DUP7 AND DUP5 OR SWAP3 POP POP POP SWAP4 SWAP3 POP POP POP JUMP JUMPDEST PUSH1 0x0 DUP2 SWAP1 POP SWAP2 SWAP1 POP JUMP JUMPDEST PUSH1 0x0 DUP2 SWAP1 POP SWAP2 SWAP1 POP JUMP JUMPDEST PUSH1 0x0 PUSH3 0x1E4 PUSH3 0x1DE PUSH3 0x1D8 DUP5 PUSH3 0x1AF JUMP JUMPDEST PUSH3 0x1B9 JUMP JUMPDEST PUSH3 0x1AF JUMP JUMPDEST SWAP1 POP SWAP2 SWAP1 POP JUMP JUMPDEST PUSH1 0x0 DUP2 SWAP1 POP SWAP2 SWAP1 POP JUMP JUMPDEST PUSH3 0x200 DUP4 PUSH3 0x1C3 JUMP JUMPDEST PUSH3 0x218 PUSH3 0x20F DUP3 PUSH3 0x1EB JUMP JUMPDEST DUP5 DUP5 SLOAD PUSH3 0x159 JUMP JUMPDEST DUP3 SSTORE POP POP POP POP JUMP JUMPDEST PUSH1 0x0 SWAP1 JUMP JUMPDEST PUSH3 0x22F PUSH3 0x220 JUMP JUMPDEST PUSH3 0x23C DUP2 DUP5 DUP5 PUSH3 0x1F5 JUMP JUMPDEST POP POP POP JUMP JUMPDEST JUMPDEST DUP2 DUP2 LT ISZERO PUSH3 0x264 JUMPI PUSH3 0x258 PUSH1 0x0 DUP3 PUSH3 0x225 JUMP JUMPDEST PUSH1 0x1 DUP2 ADD SWAP1 POP PUSH3 0x242 JUMP JUMPDEST POP POP JUMP JUMPDEST PUSH1 0x1F DUP3 GT ISZERO PUSH3 0x2B3 JUMPI PUSH3 0x27D DUP2 PUSH3 0x127 JUMP JUMPDEST PUSH3 0x288 DUP5 PUSH3 0x13C JUMP JUMPDEST DUP2 ADD PUSH1 0x20 DUP6 LT ISZERO PUSH3 0x298 JUMPI DUP2 SWAP1 POP JUMPDEST PUSH3 0x2B0 PUSH3 0x2A7 DUP6 PUSH3 0x13C JUMP JUMPDEST DUP4 ADD DUP3 PUSH3 0x241 JUMP JUMPDEST POP POP JUMPDEST POP POP POP JUMP JUMPDEST PUSH1 0x0 DUP3 DUP3 SHR SWAP1 POP SWAP3 SWAP2 POP POP JUMP JUMPDEST PUSH1 0x0 PUSH3 0x2D8 PUSH1 0x0 NOT DUP5 PUSH1 0x8 MUL PUSH3 0x2B8 JUMP JUMPDEST NOT DUP1 DUP4 AND SWAP2 POP POP SWAP3 SWAP2 POP POP JUMP JUMPDEST PUSH1 0x0 PUSH3 0x2F3 DUP4 DUP4 PUSH3 0x2C5 JUMP JUMPDEST SWAP2 POP DUP3 PUSH1 0x2 MUL DUP3 OR SWAP1 POP SWAP3 SWAP2 POP POP JUMP JUMPDEST PUSH3 0x30E DUP3 PUSH3 0x89 JUMP JUMPDEST PUSH8 0xFFFFFFFFFFFFFFFF DUP2 GT ISZERO PUSH3 0x32A JUMPI PUSH3 0x329 PUSH3 0x94 JUMP JUMPDEST JUMPDEST PUSH3 0x336 DUP3 SLOAD PUSH3 0xF2 JUMP JUMPDEST PUSH3 0x343 DUP3 DUP3 DUP6 PUSH3 0x268 JUMP JUMPDEST PUSH1 0x0 PUSH1 0x20 SWAP1 POP PUSH1 0x1F DUP4 GT PUSH1 0x1 DUP2 EQ PUSH3 0x37B JUMPI PUSH1 0x0 DUP5 ISZERO PUSH3 0x366 JUMPI DUP3 DUP8 ADD MLOAD SWAP1 POP JUMPDEST PUSH3 0x372 DUP6 DUP3 PUSH3 0x2E5 JUMP JUMPDEST DUP7 SSTORE POP PUSH3 0x3E2 JUMP JUMPDEST PUSH1 0x1F NOT DUP5 AND PUSH3 0x38B DUP7 PUSH3 0x127 JUMP JUMPDEST PUSH1 0x0 JUMPDEST DUP3 DUP2 LT ISZERO PUSH3 0x3B5 JUMPI DUP5 DUP10 ADD MLOAD DUP3 SSTORE PUSH1 0x1 DUP3 ADD SWAP2 POP PUSH1 0x20 DUP6 ADD SWAP5 POP PUSH1 0x20 DUP2 ADD SWAP1 POP PUSH3 0x38E JUMP JUMPDEST DUP7 DUP4 LT ISZERO PUSH3 0x3D5 JUMPI DUP5 DUP10 ADD MLOAD PUSH3 0x3D1 PUSH1 0x1F DUP10 AND DUP3 PUSH3 0x2C5 JUMP JUMPDEST DUP4 SSTORE POP JUMPDEST PUSH1 0x1 PUSH1 0x2 DUP9 MUL ADD DUP9 SSTORE POP POP POP JUMPDEST POP POP POP POP POP POP JUMP JUMPDEST PUSH2 0x4E7 DUP1 PUSH3 0x3FA PUSH1 0x0 CODECOPY PUSH1 0x0 RETURN INVALID PUSH1 0x80 PUSH1 0x40 MSTORE CALLVALUE DUP1 ISZERO PUSH2 0x10 JUMPI PUSH1 0x0 DUP1 REVERT JUMPDEST POP PUSH1 0x4 CALLDATASIZE LT PUSH2 0x57 JUMPI PUSH1 0x0 CALLDATALOAD PUSH1 0xE0 SHR DUP1 PUSH4 0x1F7B6D32 EQ PUSH2 0x5C JUMPI DUP1 PUSH4 0x6987B1FB EQ PUSH2 0x7A JUMPI DUP1 PUSH4 0x8035F0CE EQ PUSH2 0xAA JUMPI DUP1 PUSH4 0x8A054AC2 EQ PUSH2 0xB4 JUMPI DUP1 PUSH4 0xDA3BA911 EQ PUSH2 0xD3 JUMPI JUMPDEST PUSH1 0x0 DUP1 REVERT JUMPDEST PUSH2 0x64 PUSH2 0xF3 JUMP JUMPDEST PUSH1 0x40 MLOAD PUSH2 0x71 SWAP2 SWAP1 PUSH2 0x292 JUMP JUMPDEST PUSH1 0x40 MLOAD DUP1 SWAP2 SUB SWAP1 RETURN JUMPDEST PUSH2 0x94 PUSH1 0x4 DUP1 CALLDATASIZE SUB DUP2 ADD SWAP1 PUSH2 0x8F SWAP2 SWAP1 PUSH2 0x2DE JUMP JUMPDEST PUSH2 0xFF JUMP JUMPDEST PUSH1 0x40 MLOAD PUSH2 0xA1 SWAP2 SWAP1 PUSH2 0x326 JUMP JUMPDEST PUSH1 0x40 MLOAD DUP1 SWAP2 SUB SWAP1 RETURN JUMPDEST PUSH2 0xB2 PUSH2 0x133 JUMP JUMPDEST STOP JUMPDEST PUSH2 0xBC PUSH2 0x1BD JUMP JUMPDEST PUSH1 0x40 MLOAD PUSH2 0xCA SWAP3 SWAP2 SWAP1 PUSH2 0x3D1 JUMP JUMPDEST PUSH1 0x40 MLOAD DUP1 SWAP2 SUB SWAP1 RETURN JUMPDEST PUSH2 0xDB PUSH2 0x257 JUMP JUMPDEST PUSH1 0x40 MLOAD PUSH2 0xEA SWAP4 SWAP3 SWAP2 SWAP1 PUSH2 0x41A JUMP JUMPDEST PUSH1 0x40 MLOAD DUP1 SWAP2 SUB SWAP1 RETURN JUMPDEST PUSH1 0x0 DUP1 DUP1 SLOAD SWAP1 POP SWAP1 POP SWAP1 JUMP JUMPDEST PUSH1 0x0 DUP2 DUP2 SLOAD DUP2 LT PUSH2 0x10F JUMPI PUSH1 0x0 DUP1 REVERT JUMPDEST SWAP1 PUSH1 0x0 MSTORE PUSH1 0x20 PUSH1 0x0 KECCAK256 SWAP1 PUSH1 0x20 SWAP2 DUP3 DUP3 DIV ADD SWAP2 SWAP1 MOD SWAP2 POP SLOAD SWAP1 PUSH2 0x100 EXP SWAP1 DIV PUSH1 0xFF AND DUP2 JUMP JUMPDEST PUSH1 0x0 PUSH1 0x1 SWAP1 DUP1 PUSH1 0x1 DUP2 SLOAD ADD DUP1 DUP3 SSTORE DUP1 SWAP2 POP POP PUSH1 0x1 SWAP1 SUB SWAP1 PUSH1 0x0 MSTORE PUSH1 0x20 PUSH1 0x0 KECCAK256 SWAP1 PUSH1 0x20 SWAP2 DUP3 DUP3 DIV ADD SWAP2 SWAP1 MOD SWAP1 SWAP2 SWAP1 SWAP2 SWAP1 SWAP2 PUSH2 0x100 EXP DUP2 SLOAD DUP2 PUSH1 0xFF MUL NOT AND SWAP1 DUP4 ISZERO ISZERO MUL OR SWAP1 SSTORE POP PUSH1 0x0 DUP1 DUP1 PUSH1 0x1 DUP2 SLOAD ADD DUP1 DUP3 SSTORE DUP1 SWAP2 POP POP PUSH1 0x1 SWAP1 SUB SWAP1 PUSH1 0x0 MSTORE PUSH1 0x20 PUSH1 0x0 KECCAK256 SWAP1 PUSH1 0x20 SWAP2 DUP3 DUP3 DIV ADD SWAP2 SWAP1 MOD SWAP1 SWAP2 SWAP1 SWAP2 SWAP1 SWAP2 PUSH2 0x100 EXP DUP2 SLOAD DUP2 PUSH1 0xFF MUL NOT AND SWAP1 DUP4 ISZERO ISZERO MUL OR SWAP1 SSTORE POP JUMP JUMPDEST PUSH1 0x1 DUP1 PUSH1 0x0 ADD DUP1 SLOAD PUSH2 0x1CE SWAP1 PUSH2 0x480 JUMP JUMPDEST DUP1 PUSH1 0x1F ADD PUSH1 0x20 DUP1 SWAP2 DIV MUL PUSH1 0x20 ADD PUSH1 0x40 MLOAD SWAP1 DUP2 ADD PUSH1 0x40 MSTORE DUP1 SWAP3 SWAP2 SWAP1 DUP2 DUP2 MSTORE PUSH1 0x20 ADD DUP3 DUP1 SLOAD PUSH2 0x1FA SWAP1 PUSH2 0x480 JUMP JUMPDEST DUP1 ISZERO PUSH2 0x247 JUMPI DUP1 PUSH1 0x1F LT PUSH2 0x21C JUMPI PUSH2 0x100 DUP1 DUP4 SLOAD DIV MUL DUP4 MSTORE SWAP2 PUSH1 0x20 ADD SWAP2 PUSH2 0x247 JUMP JUMPDEST DUP3 ADD SWAP2 SWAP1 PUSH1 0x0 MSTORE PUSH1 0x20 PUSH1 0x0 KECCAK256 SWAP1 JUMPDEST DUP2 SLOAD DUP2 MSTORE SWAP1 PUSH1 0x1 ADD SWAP1 PUSH1 0x20 ADD DUP1 DUP4 GT PUSH2 0x22A JUMPI DUP3 SWAP1 SUB PUSH1 0x1F AND DUP3 ADD SWAP2 JUMPDEST POP POP POP POP POP SWAP1 DUP1 PUSH1 0x1 ADD SLOAD SWAP1 POP DUP3 JUMP JUMPDEST PUSH1 0x0 DUP1 PUSH1 0x0 DUP1 PUSH1 0xA SWAP4 POP PUSH1 0x1 SWAP3 POP DUP4 SWAP1 POP PUSH1 0x2 PUSH1 0x0 DUP3 SWAP4 POP SWAP4 POP SWAP4 POP POP SWAP1 SWAP2 SWAP3 JUMP JUMPDEST PUSH1 0x0 DUP2 SWAP1 POP SWAP2 SWAP1 POP JUMP JUMPDEST PUSH2 0x28C DUP2 PUSH2 0x279 JUMP JUMPDEST DUP3 MSTORE POP POP JUMP JUMPDEST PUSH1 0x0 PUSH1 0x20 DUP3 ADD SWAP1 POP PUSH2 0x2A7 PUSH1 0x0 DUP4 ADD DUP5 PUSH2 0x283 JUMP JUMPDEST SWAP3 SWAP2 POP POP JUMP JUMPDEST PUSH1 0x0 DUP1 REVERT JUMPDEST PUSH2 0x2BB DUP2 PUSH2 0x279 JUMP JUMPDEST DUP2 EQ PUSH2 0x2C6 JUMPI PUSH1 0x0 DUP1 REVERT JUMPDEST POP JUMP JUMPDEST PUSH1 0x0 DUP2 CALLDATALOAD SWAP1 POP PUSH2 0x2D8 DUP2 PUSH2 0x2B2 JUMP JUMPDEST SWAP3 SWAP2 POP POP JUMP JUMPDEST PUSH1 0x0 PUSH1 0x20 DUP3 DUP5 SUB SLT ISZERO PUSH2 0x2F4 JUMPI PUSH2 0x2F3 PUSH2 0x2AD JUMP JUMPDEST JUMPDEST PUSH1 0x0 PUSH2 0x302 DUP5 DUP3 DUP6 ADD PUSH2 0x2C9 JUMP JUMPDEST SWAP2 POP POP SWAP3 SWAP2 POP POP JUMP JUMPDEST PUSH1 0x0 DUP2 ISZERO ISZERO SWAP1 POP SWAP2 SWAP1 POP JUMP JUMPDEST PUSH2 0x320 DUP2 PUSH2 0x30B JUMP JUMPDEST DUP3 MSTORE POP POP JUMP JUMPDEST PUSH1 0x0 PUSH1 0x20 DUP3 ADD SWAP1 POP PUSH2 0x33B PUSH1 0x0 DUP4 ADD DUP5 PUSH2 0x317 JUMP JUMPDEST SWAP3 SWAP2 POP POP JUMP JUMPDEST PUSH1 0x0 DUP2 MLOAD SWAP1 POP SWAP2 SWAP1 POP JUMP JUMPDEST PUSH1 0x0 DUP3 DUP3 MSTORE PUSH1 0x20 DUP3 ADD SWAP1 POP SWAP3 SWAP2 POP POP JUMP JUMPDEST PUSH1 0x0 JUMPDEST DUP4 DUP2 LT ISZERO PUSH2 0x37B JUMPI DUP1 DUP3 ADD MLOAD DUP2 DUP5 ADD MSTORE PUSH1 0x20 DUP2 ADD SWAP1 POP PUSH2 0x360 JUMP JUMPDEST PUSH1 0x0 DUP5 DUP5 ADD MSTORE POP POP POP POP JUMP JUMPDEST PUSH1 0x0 PUSH1 0x1F NOT PUSH1 0x1F DUP4 ADD AND SWAP1 POP SWAP2 SWAP1 POP JUMP JUMPDEST PUSH1 0x0 PUSH2 0x3A3 DUP3 PUSH2 0x341 JUMP JUMPDEST PUSH2 0x3AD DUP2 DUP6 PUSH2 0x34C JUMP JUMPDEST SWAP4 POP PUSH2 0x3BD DUP2 DUP6 PUSH1 0x20 DUP7 ADD PUSH2 0x35D JUMP JUMPDEST PUSH2 0x3C6 DUP2 PUSH2 0x387 JUMP JUMPDEST DUP5 ADD SWAP2 POP POP SWAP3 SWAP2 POP POP JUMP JUMPDEST PUSH1 0x0 PUSH1 0x40 DUP3 ADD SWAP1 POP DUP2 DUP2 SUB PUSH1 0x0 DUP4 ADD MSTORE PUSH2 0x3EB DUP2 DUP6 PUSH2 0x398 JUMP JUMPDEST SWAP1 POP PUSH2 0x3FA PUSH1 0x20 DUP4 ADD DUP5 PUSH2 0x283 JUMP JUMPDEST SWAP4 SWAP3 POP POP POP JUMP JUMPDEST PUSH1 0x0 DUP2 SWAP1 POP SWAP2 SWAP1 POP JUMP JUMPDEST PUSH2 0x414 DUP2 PUSH2 0x401 JUMP JUMPDEST DUP3 MSTORE POP POP JUMP JUMPDEST PUSH1 0x0 PUSH1 0x60 DUP3 ADD SWAP1 POP PUSH2 0x42F PUSH1 0x0 DUP4 ADD DUP7 PUSH2 0x40B JUMP JUMPDEST PUSH2 0x43C PUSH1 0x20 DUP4 ADD DUP6 PUSH2 0x317 JUMP JUMPDEST PUSH2 0x449 PUSH1 0x40 DUP4 ADD DUP5 PUSH2 0x40B JUMP JUMPDEST SWAP5 SWAP4 POP POP POP POP JUMP JUMPDEST PUSH32 0x4E487B7100000000000000000000000000000000000000000000000000000000 PUSH1 0x0 MSTORE PUSH1 0x22 PUSH1 0x4 MSTORE PUSH1 0x24 PUSH1 0x0 REVERT JUMPDEST PUSH1 0x0 PUSH1 0x2 DUP3 DIV SWAP1 POP PUSH1 0x1 DUP3 AND DUP1 PUSH2 0x498 JUMPI PUSH1 0x7F DUP3 AND SWAP2 POP JUMPDEST PUSH1 0x20 DUP3 LT DUP2 SUB PUSH2 0x4AB JUMPI PUSH2 0x4AA PUSH2 0x451 JUMP JUMPDEST JUMPDEST POP SWAP2 SWAP1 POP JUMP INVALID LOG2 PUSH5 0x6970667358 0x22 SLT KECCAK256 CALLDATALOAD CALL PUSH16 0x90C0F1A6ABEED1599F2AF2AB2D05FFE4 PUSH9 0x16F6764DB9E6D78A15 0xBD SMOD LOG0 PUSH5 0x736F6C6343 STOP ADDMOD SLT STOP CALLER "
		},
		"gasEstimates": {
			"creation": {
				"codeDepositCost": "251000",
				"executionCost": "infinite",
				"totalCost": "infinite"
			},
			"external": {
				"arr1(uint256)": "6541",
				"d()": "infinite",
				"func5()": "infinite",
				"length()": "2423",
				"push()": "100577"
			}
		},
		"methodIdentifiers": {
			"arr1(uint256)": "6987b1fb",
			"d()": "8a054ac2",
			"func5()": "da3ba911",
			"length()": "1f7b6d32",
			"push()": "8035f0ce"
		}
	},
	"abi": [
		{
			"inputs": [
				{
					"internalType": "uint256",
					"name": "",
					"type": "uint256"
				}
			],
			"name": "arr1",
			"outputs": [
				{
					"internalType": "bool",
					"name": "",
					"type": "bool"
				}
			],
			"stateMutability": "view",
			"type": "function"
		},
		{
			"inputs": [],
			"name": "d",
			"outputs": [
				{
					"internalType": "string",
					"name": "name",
					"type": "string"
				},
				{
					"internalType": "uint256",
					"name": "age",
					"type": "uint256"
				}
			],
			"stateMutability": "view",
			"type": "function"
		},
		{
			"inputs": [],
			"name": "func5",
			"outputs": [
				{
					"internalType": "int256",
					"name": "x",
					"type": "int256"
				},
				{
					"internalType": "bool",
					"name": "y",
					"type": "bool"
				},
				{
					"internalType": "int256",
					"name": "",
					"type": "int256"
				}
			],
			"stateMutability": "pure",
			"type": "function"
		},
		{
			"inputs": [],
			"name": "length",
			"outputs": [
				{
					"internalType": "uint256",
					"name": "",
					"type": "uint256"
				}
			],
			"stateMutability": "view",
			"type": "function"
		},
		{
			"inputs": [],
			"name": "push",
			"outputs": [],
			"stateMutability": "nonpayable",
			"type": "function"
		}
	]
}